{
  "_format": "hh-sol-artifact-1",
  "contractName": "Insurance",
  "sourceName": "contracts/Insurance.sol",
  "abi": [
    {
      "inputs": [
        {
          "internalType": "address",
          "name": "oracle",
          "type": "address"
        },
        {
          "internalType": "address",
          "name": "linkMaticAddress",
          "type": "address"
        },
        {
          "internalType": "address",
          "name": "maticUsdAddress",
          "type": "address"
        },
        {
          "internalType": "uint64",
          "name": "subscriptionId",
          "type": "uint64"
        }
      ],
      "stateMutability": "nonpayable",
      "type": "constructor"
    },
    {
      "inputs": [],
      "name": "EmptyArgs",
      "type": "error"
    },
    {
      "inputs": [],
      "name": "EmptySecrets",
      "type": "error"
    },
    {
      "inputs": [],
      "name": "EmptySource",
      "type": "error"
    },
    {
      "inputs": [],
      "name": "NoInlineSecrets",
      "type": "error"
    },
    {
      "inputs": [
        {
          "internalType": "address",
          "name": "have",
          "type": "address"
        },
        {
          "internalType": "address",
          "name": "want",
          "type": "address"
        }
      ],
      "name": "OnlyCoordinatorCanFulfill",
      "type": "error"
    },
    {
      "inputs": [],
      "name": "RequestIsAlreadyPending",
      "type": "error"
    },
    {
      "inputs": [],
      "name": "RequestIsNotPending",
      "type": "error"
    },
    {
      "inputs": [],
      "name": "SenderIsNotRegistry",
      "type": "error"
    },
    {
      "anonymous": false,
      "inputs": [
        {
          "indexed": true,
          "internalType": "bytes32",
          "name": "requestId",
          "type": "bytes32"
        }
      ],
      "name": "OCRRequest",
      "type": "event"
    },
    {
      "anonymous": false,
      "inputs": [
        {
          "indexed": true,
          "internalType": "bytes32",
          "name": "requestId",
          "type": "bytes32"
        },
        {
          "indexed": false,
          "internalType": "bytes",
          "name": "result",
          "type": "bytes"
        },
        {
          "indexed": false,
          "internalType": "bytes",
          "name": "err",
          "type": "bytes"
        }
      ],
      "name": "OCRResponse",
      "type": "event"
    },
    {
      "anonymous": false,
      "inputs": [
        {
          "indexed": true,
          "internalType": "address",
          "name": "from",
          "type": "address"
        },
        {
          "indexed": true,
          "internalType": "address",
          "name": "to",
          "type": "address"
        }
      ],
      "name": "OwnershipTransferRequested",
      "type": "event"
    },
    {
      "anonymous": false,
      "inputs": [
        {
          "indexed": true,
          "internalType": "address",
          "name": "from",
          "type": "address"
        },
        {
          "indexed": true,
          "internalType": "address",
          "name": "to",
          "type": "address"
        }
      ],
      "name": "OwnershipTransferred",
      "type": "event"
    },
    {
      "anonymous": false,
      "inputs": [
        {
          "indexed": false,
          "internalType": "uint256",
          "name": "requestId",
          "type": "uint256"
        },
        {
          "indexed": false,
          "internalType": "uint256[]",
          "name": "randomWords",
          "type": "uint256[]"
        }
      ],
      "name": "RequestFulfilled",
      "type": "event"
    },
    {
      "anonymous": false,
      "inputs": [
        {
          "indexed": true,
          "internalType": "bytes32",
          "name": "id",
          "type": "bytes32"
        }
      ],
      "name": "RequestFulfilled",
      "type": "event"
    },
    {
      "anonymous": false,
      "inputs": [
        {
          "indexed": false,
          "internalType": "uint256",
          "name": "requestId",
          "type": "uint256"
        },
        {
          "indexed": false,
          "internalType": "uint32",
          "name": "numWords",
          "type": "uint32"
        }
      ],
      "name": "RequestSent",
      "type": "event"
    },
    {
      "anonymous": false,
      "inputs": [
        {
          "indexed": true,
          "internalType": "bytes32",
          "name": "id",
          "type": "bytes32"
        }
      ],
      "name": "RequestSent",
      "type": "event"
    },
    {
      "inputs": [],
      "name": "acceptOwnership",
      "outputs": [],
      "stateMutability": "nonpayable",
      "type": "function"
    },
    {
      "inputs": [
        {
          "internalType": "address",
          "name": "oracleAddress",
          "type": "address"
        },
        {
          "internalType": "bytes32",
          "name": "requestId",
          "type": "bytes32"
        }
      ],
      "name": "addSimulatedRequestId",
      "outputs": [],
      "stateMutability": "nonpayable",
      "type": "function"
    },
    {
      "inputs": [
        {
          "internalType": "bytes",
          "name": "input",
          "type": "bytes"
        }
      ],
      "name": "bytesToUint256",
      "outputs": [
        {
          "internalType": "uint256",
          "name": "result",
          "type": "uint256"
        }
      ],
      "stateMutability": "pure",
      "type": "function"
    },
    {
      "inputs": [],
      "name": "checkInsuranceData",
      "outputs": [
        {
          "internalType": "bool",
          "name": "",
          "type": "bool"
        }
      ],
      "stateMutability": "view",
      "type": "function"
    },
    {
      "inputs": [],
      "name": "constructionTime",
      "outputs": [
        {
          "internalType": "uint256",
          "name": "",
          "type": "uint256"
        }
      ],
      "stateMutability": "view",
      "type": "function"
    },
    {
      "inputs": [],
      "name": "currentTime",
      "outputs": [
        {
          "internalType": "uint256",
          "name": "",
          "type": "uint256"
        }
      ],
      "stateMutability": "view",
      "type": "function"
    },
    {
      "inputs": [
        {
          "components": [
            {
              "internalType": "enum Functions.Location",
              "name": "codeLocation",
              "type": "uint8"
            },
            {
              "internalType": "enum Functions.Location",
              "name": "secretsLocation",
              "type": "uint8"
            },
            {
              "internalType": "enum Functions.CodeLanguage",
              "name": "language",
              "type": "uint8"
            },
            {
              "internalType": "string",
              "name": "source",
              "type": "string"
            },
            {
              "internalType": "bytes",
              "name": "secrets",
              "type": "bytes"
            },
            {
              "internalType": "string[]",
              "name": "args",
              "type": "string[]"
            }
          ],
          "internalType": "struct Functions.Request",
          "name": "req",
          "type": "tuple"
        },
        {
          "internalType": "uint64",
          "name": "subscriptionId",
          "type": "uint64"
        },
        {
          "internalType": "uint32",
          "name": "gasLimit",
          "type": "uint32"
        },
        {
          "internalType": "uint256",
          "name": "gasPrice",
          "type": "uint256"
        }
      ],
      "name": "estimateCost",
      "outputs": [
        {
          "internalType": "uint96",
          "name": "",
          "type": "uint96"
        }
      ],
      "stateMutability": "view",
      "type": "function"
    },
    {
      "inputs": [
        {
          "internalType": "string",
          "name": "source",
          "type": "string"
        },
        {
          "internalType": "bytes",
          "name": "secrets",
          "type": "bytes"
        },
        {
          "internalType": "string[]",
          "name": "args",
          "type": "string[]"
        },
        {
          "internalType": "uint64",
          "name": "subscriptionId",
          "type": "uint64"
        },
        {
          "internalType": "uint32",
          "name": "gasLimit",
          "type": "uint32"
        }
      ],
      "name": "estimateInsurance",
      "outputs": [
        {
          "internalType": "bytes32",
          "name": "",
          "type": "bytes32"
        }
      ],
      "stateMutability": "payable",
      "type": "function"
    },
    {
      "inputs": [
        {
          "internalType": "bytes32",
          "name": "",
          "type": "bytes32"
        }
      ],
      "name": "functionsRequesterAddresses",
      "outputs": [
        {
          "internalType": "address",
          "name": "",
          "type": "address"
        }
      ],
      "stateMutability": "view",
      "type": "function"
    },
    {
      "inputs": [],
      "name": "getCurrentTime",
      "outputs": [
        {
          "internalType": "uint256",
          "name": "",
          "type": "uint256"
        }
      ],
      "stateMutability": "view",
      "type": "function"
    },
    {
      "inputs": [],
      "name": "getDONPublicKey",
      "outputs": [
        {
          "internalType": "bytes",
          "name": "",
          "type": "bytes"
        }
      ],
      "stateMutability": "view",
      "type": "function"
    },
    {
      "inputs": [
        {
          "internalType": "uint256",
          "name": "_requestId",
          "type": "uint256"
        }
      ],
      "name": "getLastRandomWords",
      "outputs": [
        {
          "internalType": "uint256[]",
          "name": "",
          "type": "uint256[]"
        }
      ],
      "stateMutability": "view",
      "type": "function"
    },
    {
      "inputs": [],
      "name": "getPriceLinkMatic",
      "outputs": [
        {
          "internalType": "int256",
          "name": "",
          "type": "int256"
        }
      ],
      "stateMutability": "view",
      "type": "function"
    },
    {
      "inputs": [],
      "name": "getPriceMaticUsd",
      "outputs": [
        {
          "internalType": "int256",
          "name": "",
          "type": "int256"
        }
      ],
      "stateMutability": "view",
      "type": "function"
    },
    {
      "inputs": [
        {
          "internalType": "uint256",
          "name": "_requestId",
          "type": "uint256"
        }
      ],
      "name": "getRequestStatus",
      "outputs": [
        {
          "internalType": "bool",
          "name": "fulfilled",
          "type": "bool"
        },
        {
          "internalType": "uint256[]",
          "name": "randomWords",
          "type": "uint256[]"
        }
      ],
      "stateMutability": "view",
      "type": "function"
    },
    {
      "inputs": [],
      "name": "globalDayNumber",
      "outputs": [
        {
          "internalType": "int256",
          "name": "",
          "type": "int256"
        }
      ],
      "stateMutability": "view",
      "type": "function"
    },
    {
      "inputs": [
        {
          "internalType": "bytes32",
          "name": "requestId",
          "type": "bytes32"
        },
        {
          "internalType": "bytes",
          "name": "response",
          "type": "bytes"
        },
        {
          "internalType": "bytes",
          "name": "err",
          "type": "bytes"
        }
      ],
      "name": "handleOracleFulfillment",
      "outputs": [],
      "stateMutability": "nonpayable",
      "type": "function"
    },
    {
      "inputs": [],
      "name": "helloWorld",
      "outputs": [
        {
          "internalType": "string",
          "name": "",
          "type": "string"
        }
      ],
      "stateMutability": "view",
      "type": "function"
    },
    {
      "inputs": [
        {
          "internalType": "address",
          "name": "",
          "type": "address"
        },
        {
          "internalType": "uint256",
          "name": "",
          "type": "uint256"
        }
      ],
      "name": "insurancePoliciesMapping",
      "outputs": [
        {
          "internalType": "string",
          "name": "latNe",
          "type": "string"
        },
        {
          "internalType": "string",
          "name": "longNe",
          "type": "string"
        },
        {
          "internalType": "string",
          "name": "latSe",
          "type": "string"
        },
        {
          "internalType": "string",
          "name": "longSe",
          "type": "string"
        },
        {
          "internalType": "string",
          "name": "latSw",
          "type": "string"
        },
        {
          "internalType": "string",
          "name": "longSw",
          "type": "string"
        },
        {
          "internalType": "string",
          "name": "latNw",
          "type": "string"
        },
        {
          "internalType": "string",
          "name": "longNw",
          "type": "string"
        },
        {
          "internalType": "string",
          "name": "configParam",
          "type": "string"
        },
        {
          "internalType": "string",
          "name": "currentTime",
          "type": "string"
        },
        {
          "internalType": "string",
          "name": "startTime",
          "type": "string"
        },
        {
          "internalType": "string",
          "name": "endTime",
          "type": "string"
        }
      ],
      "stateMutability": "view",
      "type": "function"
    },
    {
      "inputs": [],
      "name": "lastRequestId",
      "outputs": [
        {
          "internalType": "uint256",
          "name": "",
          "type": "uint256"
        }
      ],
      "stateMutability": "view",
      "type": "function"
    },
    {
      "inputs": [],
      "name": "latestError",
      "outputs": [
        {
          "internalType": "bytes",
          "name": "",
          "type": "bytes"
        }
      ],
      "stateMutability": "view",
      "type": "function"
    },
    {
      "inputs": [],
      "name": "latestRequestId",
      "outputs": [
        {
          "internalType": "bytes32",
          "name": "",
          "type": "bytes32"
        }
      ],
      "stateMutability": "view",
      "type": "function"
    },
    {
      "inputs": [],
      "name": "latestResponse",
      "outputs": [
        {
          "internalType": "bytes",
          "name": "",
          "type": "bytes"
        }
      ],
      "stateMutability": "view",
      "type": "function"
    },
    {
      "inputs": [],
      "name": "linkMaticPriceFeed",
      "outputs": [
        {
          "internalType": "contract LinkMaticPriceFeed",
          "name": "",
          "type": "address"
        }
      ],
      "stateMutability": "view",
      "type": "function"
    },
    {
      "inputs": [],
      "name": "maticUsdPriceFeed",
      "outputs": [
        {
          "internalType": "contract MaticUsdPriceFeed",
          "name": "",
          "type": "address"
        }
      ],
      "stateMutability": "view",
      "type": "function"
    },
    {
      "inputs": [],
      "name": "owner",
      "outputs": [
        {
          "internalType": "address",
          "name": "",
          "type": "address"
        }
      ],
      "stateMutability": "view",
      "type": "function"
    },
    {
      "inputs": [
        {
          "internalType": "uint256",
          "name": "",
          "type": "uint256"
        }
      ],
      "name": "randomnessRequesterAddress",
      "outputs": [
        {
          "internalType": "address",
          "name": "",
          "type": "address"
        }
      ],
      "stateMutability": "view",
      "type": "function"
    },
    {
      "inputs": [
        {
          "internalType": "uint256",
          "name": "requestId",
          "type": "uint256"
        },
        {
          "internalType": "uint256[]",
          "name": "randomWords",
          "type": "uint256[]"
        }
      ],
      "name": "rawFulfillRandomWords",
      "outputs": [],
      "stateMutability": "nonpayable",
      "type": "function"
    },
    {
      "inputs": [
        {
          "internalType": "uint256",
          "name": "",
          "type": "uint256"
        }
      ],
      "name": "requestIds",
      "outputs": [
        {
          "internalType": "uint256",
          "name": "",
          "type": "uint256"
        }
      ],
      "stateMutability": "view",
      "type": "function"
    },
    {
      "inputs": [],
      "name": "requestRandomWords",
      "outputs": [
        {
          "internalType": "uint256",
          "name": "requestId",
          "type": "uint256"
        }
      ],
      "stateMutability": "nonpayable",
      "type": "function"
    },
    {
      "inputs": [
        {
          "internalType": "bytes32",
          "name": "",
          "type": "bytes32"
        }
      ],
      "name": "responseData",
      "outputs": [
        {
          "internalType": "address",
          "name": "user",
          "type": "address"
        },
        {
          "internalType": "uint256",
          "name": "policyIndex",
          "type": "uint256"
        },
        {
          "internalType": "uint256",
          "name": "cost",
          "type": "uint256"
        }
      ],
      "stateMutability": "view",
      "type": "function"
    },
    {
      "inputs": [
        {
          "internalType": "uint256",
          "name": "",
          "type": "uint256"
        }
      ],
      "name": "s_requests",
      "outputs": [
        {
          "internalType": "bool",
          "name": "fulfilled",
          "type": "bool"
        },
        {
          "internalType": "bool",
          "name": "exists",
          "type": "bool"
        }
      ],
      "stateMutability": "view",
      "type": "function"
    },
    {
      "inputs": [
        {
          "internalType": "bytes32",
          "name": "requestId",
          "type": "bytes32"
        }
      ],
      "name": "startPolicy",
      "outputs": [
        {
          "internalType": "uint256",
          "name": "",
          "type": "uint256"
        }
      ],
      "stateMutability": "payable",
      "type": "function"
    },
    {
      "inputs": [
        {
          "internalType": "address",
          "name": "to",
          "type": "address"
        }
      ],
      "name": "transferOwnership",
      "outputs": [],
      "stateMutability": "nonpayable",
      "type": "function"
    },
    {
      "inputs": [
        {
          "internalType": "address",
          "name": "oracle",
          "type": "address"
        }
      ],
      "name": "updateOracleAddress",
      "outputs": [],
      "stateMutability": "nonpayable",
      "type": "function"
    }
  ],
  "bytecode": "0x60a06040527f4b09e658ed251bcafeebbc69400383d49f344ace09b9576fe248bb02c003fe9f600855600980546001600160501b03191666030003000493e0179055426010553480156200005257600080fd5b50604051620049cc380380620049cc8339810160408190526200007591620002a1565b600080546001600160a01b0319166001600160a01b0386161781557f7a1bac17ccc5b313516c5e16fb24f7659aa5ebed00000000000000000000000060805233908190816200010b5760405162461bcd60e51b815260206004820152601860248201527f43616e6e6f7420736574206f776e657220746f207a65726f000000000000000060448201526064015b60405180910390fd5b600280546001600160a01b0319166001600160a01b03848116919091179091558116156200013e576200013e81620001d7565b5050600980546001600160a01b039586166a010000000000000000000002600160501b600160f01b031990911617905550600a8054929093166001600160a01b031990921691909117909155600580546001600160401b03909216600160a01b026001600160e01b031990921691909117737a1bac17ccc5b313516c5e16fb24f7659aa5ebed1790555042600f556000600e556200030c565b6001600160a01b038116331415620002325760405162461bcd60e51b815260206004820152601760248201527f43616e6e6f74207472616e7366657220746f2073656c66000000000000000000604482015260640162000102565b600380546001600160a01b0319166001600160a01b03838116918217909255600254604051919216907fed8889f560326eb138920d842192f0eb3dd22b4f139c87a2c57538e05bae127890600090a350565b80516001600160a01b03811681146200029c57600080fd5b919050565b60008060008060808587031215620002b857600080fd5b620002c38562000284565b9350620002d36020860162000284565b9250620002e36040860162000284565b60608601519092506001600160401b03811681146200030157600080fd5b939692955090935050565b60805160601c61469a620003326000396000818161098501526109e0015261469a6000f3fe6080604052600436106102345760003560e01c8063b655cd9b11610138578063e0c86289116100b0578063f06c56101161007f578063f7023bb611610064578063f7023bb6146106e3578063fc2a88c314610703578063fffeb84e1461071957600080fd5b8063f06c5610146106ad578063f2fde38b146106c357600080fd5b8063e0c86289146105ea578063e3928b7f146105ff578063e5c33f3014610614578063e7a363b01461064257600080fd5b8063d18e81b311610107578063d4b39175116100ec578063d4b391751461055a578063d8a4676f14610597578063e0919101146105c557600080fd5b8063d18e81b31461052f578063d328a91e1461054557600080fd5b8063b655cd9b1461049e578063bef3a2f0146104d6578063c605f76c146104f8578063cc9de25d1461050d57600080fd5b80635ec7baca116101cb5780638796ba8c1161019a578063985454ff1161017f578063985454ff1461040e578063a168fa8914610421578063b61109491461047157600080fd5b80638796ba8c146103d05780638da5cb5b146103f057600080fd5b80635ec7baca146103175780636c6f99901461036557806379ba5097146103855780637a56ef891461039a57600080fd5b80631fe543e3116102075780631fe543e3146102ac57806329cb924d146102cc57806330bda99d146102e15780634b11b4a11461030157600080fd5b806305f411d6146102395780630b50567f146102615780630ca76175146102745780631aa46f5914610296575b600080fd5b34801561024557600080fd5b5061024e61072e565b6040519081526020015b60405180910390f35b61024e61026f366004613c8a565b6107bb565b34801561028057600080fd5b5061029461028f366004613cbc565b6108d4565b005b3480156102a257600080fd5b5061024e600b5481565b3480156102b857600080fd5b506102946102c7366004613fd1565b61097a565b3480156102d857600080fd5b5060105461024e565b3480156102ed57600080fd5b506102946102fc366004613c5e565b610a1b565b34801561030d57600080fd5b5061024e600e5481565b34801561032357600080fd5b5061034d610332366004613c8a565b6014602052600090815260409020546001600160a01b031681565b6040516001600160a01b039091168152602001610258565b34801561037157600080fd5b50600a5461034d906001600160a01b031681565b34801561039157600080fd5b50610294610a2d565b3480156103a657600080fd5b5061034d6103b5366004613c8a565b6012602052600090815260409020546001600160a01b031681565b3480156103dc57600080fd5b5061024e6103eb366004613c8a565b610ae2565b3480156103fc57600080fd5b506002546001600160a01b031661034d565b61024e61041c366004613dd4565b610b03565b34801561042d57600080fd5b5061045a61043c366004613c8a565b60046020526000908152604090205460ff8082169161010090041682565b604080519215158352901515602083015201610258565b34801561047d57600080fd5b5061049161048c366004613c8a565b6114c9565b604051610258919061410a565b3480156104aa57600080fd5b506104be6104b9366004613c5e565b6115ee565b6040516102589c9b9a99989796959493929190614170565b3480156104e257600080fd5b506104eb611ccb565b6040516102589190614138565b34801561050457600080fd5b506104eb611d59565b34801561051957600080fd5b5061024e610528366004613d29565b6020015190565b34801561053b57600080fd5b5061024e60105481565b34801561055157600080fd5b506104eb611dd1565b34801561056657600080fd5b5061057a610575366004613ebf565b611e6a565b6040516bffffffffffffffffffffffff9091168152602001610258565b3480156105a357600080fd5b506105b76105b2366004613c8a565b611f00565b60405161025892919061411d565b3480156105d157600080fd5b506105da612000565b6040519015158152602001610258565b3480156105f657600080fd5b5061024e612824565b34801561060b57600080fd5b5061024e612a41565b34801561062057600080fd5b5060095461034d906a010000000000000000000090046001600160a01b031681565b34801561064e57600080fd5b5061068861065d366004613c8a565b6011602052600090815260409020805460018201546002909201546001600160a01b03909116919083565b604080516001600160a01b039094168452602084019290925290820152606001610258565b3480156106b957600080fd5b5061024e600f5481565b3480156106cf57600080fd5b506102946106de366004613c24565b612a9f565b3480156106ef57600080fd5b506102946106fe366004613c24565b612ab3565b34801561070f57600080fd5b5061024e60075481565b34801561072557600080fd5b506104eb612ad9565b60006009600a9054906101000a90046001600160a01b03166001600160a01b0316638e15f4736040518163ffffffff1660e01b815260040160206040518083038186803b15801561077e57600080fd5b505afa158015610792573d6000803e3d6000fd5b505050506040513d601f19601f820116820180604052508101906107b69190613ca3565b905090565b600081815260116020526040812060020154816107d6612a41565b90506000816107e9846305f5e100614508565b6107f39190614409565b336000908152601360205260409020549091506108575760405162461bcd60e51b815260206004820152601760248201527f4e6f20696e737572616e6365206461746120666f756e6400000000000000000060448201526064015b60405180910390fd5b803410156108a75760405162461bcd60e51b815260206004820152601560248201527f4e6f7420656e6f756768204d617469632073656e740000000000000000000000604482015260640161084e565b336000908152601360205260408120805482906108c6576108c6614623565b506000525092949350505050565b60008381526001602052604090205483906001600160a01b03163314610926576040517fa0c5ec6300000000000000000000000000000000000000000000000000000000815260040160405180910390fd5b60008181526001602052604080822080546001600160a01b03191690555182917f85e1543bf2f84fe80c6badbce3648c8539ad1df4d2b3d822938ca0538be727e691a2610974848484612ae6565b50505050565b336001600160a01b037f00000000000000000000000000000000000000000000000000000000000000001614610a0d576040517f1cf993f40000000000000000000000000000000000000000000000000000000081523360048201526001600160a01b037f000000000000000000000000000000000000000000000000000000000000000016602482015260440161084e565b610a178282612b73565b5050565b610a23612c45565b610a178282612ca1565b6003546001600160a01b03163314610a875760405162461bcd60e51b815260206004820152601660248201527f4d7573742062652070726f706f736564206f776e657200000000000000000000604482015260640161084e565b600280546001600160a01b0319808216339081179093556003805490911690556040516001600160a01b03909116919082907f8be0079c531659141344cd1fd0a4f28419497f9722a3daafe3b4186f6b6457e090600090a350565b60068181548110610af257600080fd5b600091825260209091200154905081565b6000600c8414610b555760405162461bcd60e51b815260206004820152601b60248201527f496e76616c6964206e756d626572206f6620617267756d656e74730000000000604482015260640161084e565b610b936040518060400160405280601581526020017f476f7420746865206c6174657374207072696365210000000000000000000000815250612d21565b33600090815260136020526040812080549091906111c0578160405180610180016040528089896000818110610bcb57610bcb614623565b9050602002810190610bdd9190614304565b8080601f01602080910402602001604051908101604052809392919081815260200183838082843760009201919091525050509082525060200189896001818110610c2a57610c2a614623565b9050602002810190610c3c9190614304565b8080601f01602080910402602001604051908101604052809392919081815260200183838082843760009201919091525050509082525060200189896002818110610c8957610c89614623565b9050602002810190610c9b9190614304565b8080601f01602080910402602001604051908101604052809392919081815260200183838082843760009201919091525050509082525060200189896003818110610ce857610ce8614623565b9050602002810190610cfa9190614304565b8080601f01602080910402602001604051908101604052809392919081815260200183838082843760009201919091525050509082525060200189896004818110610d4757610d47614623565b9050602002810190610d599190614304565b8080601f01602080910402602001604051908101604052809392919081815260200183838082843760009201919091525050509082525060200189896005818110610da657610da6614623565b9050602002810190610db89190614304565b8080601f01602080910402602001604051908101604052809392919081815260200183838082843760009201919091525050509082525060200189896006818110610e0557610e05614623565b9050602002810190610e179190614304565b8080601f01602080910402602001604051908101604052809392919081815260200183838082843760009201919091525050509082525060200189896007818110610e6457610e64614623565b9050602002810190610e769190614304565b8080601f01602080910402602001604051908101604052809392919081815260200183838082843760009201919091525050509082525060200189896008818110610ec357610ec3614623565b9050602002810190610ed59190614304565b8080601f01602080910402602001604051908101604052809392919081815260200183838082843760009201919091525050509082525060200189896009818110610f2257610f22614623565b9050602002810190610f349190614304565b8080601f0160208091040260200160405190810160405280939291908181526020018383808284376000920191909152505050908252506020018989600a818110610f8157610f81614623565b9050602002810190610f939190614304565b8080601f0160208091040260200160405190810160405280939291908181526020018383808284376000920191909152505050908252506020018989600b818110610fe057610fe0614623565b9050602002810190610ff29190614304565b8080601f01602080910402602001604051908101604052809392919081815260200183838082843760009201829052509390945250508354600181018555938152602090819020835180519495600c0290910193611057935084929190910190613993565b5060208281015180516110709260018501920190613993565b506040820151805161108c916002840191602090910190613993565b50606082015180516110a8916003840191602090910190613993565b50608082015180516110c4916004840191602090910190613993565b5060a082015180516110e0916005840191602090910190613993565b5060c082015180516110fc916006840191602090910190613993565b5060e08201518051611118916007840191602090910190613993565b506101008201518051611135916008840191602090910190613993565b506101208201518051611152916009840191602090910190613993565b50610140820151805161116f91600a840191602090910190613993565b50610160820151805161118c91600b840191602090910190613993565b5050825483915061119f90600190614527565b815481106111af576111af614623565b90600052602060002090600c020190505b336000908152601360205260408120546111dc90600190614527565b90506112186040805160c08101909152806000815260200160008152602001600081526020016060815260200160608152602001606081525090565b61125f6000808f8f8080601f01602080910402602001604051908101604052809392919081815260200183838082843760009201919091525087959493925050612d929050565b89156112a7576112a78b8b8080601f0160208091040260200160405190810160405280939291908181526020018383808284376000920191909152508593925050612e269050565b87156112c1576112c16112ba898b61453e565b8290612e6d565b60006112ce600f54612ead565b905060006112dd8a60016143f1565b67ffffffffffffffff8111156112f5576112f5614639565b60405190808252806020026020018201604052801561132857816020015b60608152602001906001900390816113135790505b50905060005b8a8110156113c0578b8b8281811061134857611348614623565b905060200281019061135a9190614304565b8080601f01602080910402602001604051908101604052809392919081815260200183838082843760009201919091525050845185925084915081106113a2576113a2614623565b602002602001018190525080806113b8906145b2565b91505061132e565b5081818c8c9050815181106113d7576113d7614623565b602002602001018190525061140581600c815181106113f8576113f8614623565b6020026020010151612d21565b61140f8382612e6d565b600061141c848b8b612f57565b604080516060810182523380825260208083018a8152600084860181815287825260118452868220955186546001600160a01b03919091166001600160a01b03199182161787559251600187015551600290950194909455600b869055601290915283832080549091169091179055905191925082917f0790d5075e76350b19c3d15f0de9144077f6fb31397b526ce8664d7faf7dde6b9190a29f9e505050505050505050505050505050565b600754600090815260046020526040902054606090610100900460ff166115585760405162461bcd60e51b815260206004820152602760248201527f4e6f2072616e646f6d20776f7264732068617665206265656e2067656e65726160448201527f7465642079657400000000000000000000000000000000000000000000000000606482015260840161084e565b604080516003808252608082019092526000916020820160608036833701905050905060005b60038110156115e75760075460009081526004602052604090206001018054829081106115ad576115ad614623565b90600052602060002001548282815181106115ca576115ca614623565b6020908102919091010152806115df816145b2565b91505061157e565b5092915050565b6013602052816000526040600020818154811061160a57600080fd5b90600052602060002090600c02016000915091505080600001805461162e90614577565b80601f016020809104026020016040519081016040528092919081815260200182805461165a90614577565b80156116a75780601f1061167c576101008083540402835291602001916116a7565b820191906000526020600020905b81548152906001019060200180831161168a57829003601f168201915b5050505050908060010180546116bc90614577565b80601f01602080910402602001604051908101604052809291908181526020018280546116e890614577565b80156117355780601f1061170a57610100808354040283529160200191611735565b820191906000526020600020905b81548152906001019060200180831161171857829003601f168201915b50505050509080600201805461174a90614577565b80601f016020809104026020016040519081016040528092919081815260200182805461177690614577565b80156117c35780601f10611798576101008083540402835291602001916117c3565b820191906000526020600020905b8154815290600101906020018083116117a657829003601f168201915b5050505050908060030180546117d890614577565b80601f016020809104026020016040519081016040528092919081815260200182805461180490614577565b80156118515780601f1061182657610100808354040283529160200191611851565b820191906000526020600020905b81548152906001019060200180831161183457829003601f168201915b50505050509080600401805461186690614577565b80601f016020809104026020016040519081016040528092919081815260200182805461189290614577565b80156118df5780601f106118b4576101008083540402835291602001916118df565b820191906000526020600020905b8154815290600101906020018083116118c257829003601f168201915b5050505050908060050180546118f490614577565b80601f016020809104026020016040519081016040528092919081815260200182805461192090614577565b801561196d5780601f106119425761010080835404028352916020019161196d565b820191906000526020600020905b81548152906001019060200180831161195057829003601f168201915b50505050509080600601805461198290614577565b80601f01602080910402602001604051908101604052809291908181526020018280546119ae90614577565b80156119fb5780601f106119d0576101008083540402835291602001916119fb565b820191906000526020600020905b8154815290600101906020018083116119de57829003601f168201915b505050505090806007018054611a1090614577565b80601f0160208091040260200160405190810160405280929190818152602001828054611a3c90614577565b8015611a895780601f10611a5e57610100808354040283529160200191611a89565b820191906000526020600020905b815481529060010190602001808311611a6c57829003601f168201915b505050505090806008018054611a9e90614577565b80601f0160208091040260200160405190810160405280929190818152602001828054611aca90614577565b8015611b175780601f10611aec57610100808354040283529160200191611b17565b820191906000526020600020905b815481529060010190602001808311611afa57829003601f168201915b505050505090806009018054611b2c90614577565b80601f0160208091040260200160405190810160405280929190818152602001828054611b5890614577565b8015611ba55780601f10611b7a57610100808354040283529160200191611ba5565b820191906000526020600020905b815481529060010190602001808311611b8857829003601f168201915b50505050509080600a018054611bba90614577565b80601f0160208091040260200160405190810160405280929190818152602001828054611be690614577565b8015611c335780601f10611c0857610100808354040283529160200191611c33565b820191906000526020600020905b815481529060010190602001808311611c1657829003601f168201915b50505050509080600b018054611c4890614577565b80601f0160208091040260200160405190810160405280929190818152602001828054611c7490614577565b8015611cc15780601f10611c9657610100808354040283529160200191611cc1565b820191906000526020600020905b815481529060010190602001808311611ca457829003601f168201915b505050505090508c565b600c8054611cd890614577565b80601f0160208091040260200160405190810160405280929190818152602001828054611d0490614577565b8015611d515780601f10611d2657610100808354040283529160200191611d51565b820191906000526020600020905b815481529060010190602001808311611d3457829003601f168201915b505050505081565b6060611d996040518060400160405280600481526020017f5465737400000000000000000000000000000000000000000000000000000000815250612d21565b5060408051808201909152600c81527f48656c6c6f20576f726c64210000000000000000000000000000000000000000602082015290565b60008054604080517fd328a91e00000000000000000000000000000000000000000000000000000000815290516060936001600160a01b039093169263d328a91e9260048082019391829003018186803b158015611e2e57600080fd5b505afa158015611e42573d6000803e3d6000fd5b505050506040513d6000823e601f3d908101601f191682016040526107b69190810190613d66565b600080546001600160a01b031663d227d24585611e86886130c9565b86866040518563ffffffff1660e01b8152600401611ea794939291906142c8565b60206040518083038186803b158015611ebf57600080fd5b505afa158015611ed3573d6000803e3d6000fd5b505050506040513d601f19601f82011682018060405250810190611ef79190614075565b95945050505050565b600081815260046020526040812054606090610100900460ff16611f665760405162461bcd60e51b815260206004820152601160248201527f72657175657374206e6f7420666f756e64000000000000000000000000000000604482015260640161084e565b60008381526004602090815260408083208151606081018352815460ff8082161515835261010090910416151581850152600182018054845181870281018701865281815292959394860193830182828015611fe157602002820191906000526020600020905b815481526020019060010190808311611fcd575b5050505050815250509050806000015181604001519250925050915091565b336000908152601360205260408120805461205d5760405162461bcd60e51b815260206004820152601760248201527f4e6f20696e737572616e6365206461746120666f756e64000000000000000000604482015260640161084e565b60005b815481101561281b57600082828154811061207d5761207d614623565b90600052602060002090600c0201604051806101800160405290816000820180546120a790614577565b80601f01602080910402602001604051908101604052809291908181526020018280546120d390614577565b80156121205780601f106120f557610100808354040283529160200191612120565b820191906000526020600020905b81548152906001019060200180831161210357829003601f168201915b5050505050815260200160018201805461213990614577565b80601f016020809104026020016040519081016040528092919081815260200182805461216590614577565b80156121b25780601f10612187576101008083540402835291602001916121b2565b820191906000526020600020905b81548152906001019060200180831161219557829003601f168201915b505050505081526020016002820180546121cb90614577565b80601f01602080910402602001604051908101604052809291908181526020018280546121f790614577565b80156122445780601f1061221957610100808354040283529160200191612244565b820191906000526020600020905b81548152906001019060200180831161222757829003601f168201915b5050505050815260200160038201805461225d90614577565b80601f016020809104026020016040519081016040528092919081815260200182805461228990614577565b80156122d65780601f106122ab576101008083540402835291602001916122d6565b820191906000526020600020905b8154815290600101906020018083116122b957829003601f168201915b505050505081526020016004820180546122ef90614577565b80601f016020809104026020016040519081016040528092919081815260200182805461231b90614577565b80156123685780601f1061233d57610100808354040283529160200191612368565b820191906000526020600020905b81548152906001019060200180831161234b57829003601f168201915b5050505050815260200160058201805461238190614577565b80601f01602080910402602001604051908101604052809291908181526020018280546123ad90614577565b80156123fa5780601f106123cf576101008083540402835291602001916123fa565b820191906000526020600020905b8154815290600101906020018083116123dd57829003601f168201915b5050505050815260200160068201805461241390614577565b80601f016020809104026020016040519081016040528092919081815260200182805461243f90614577565b801561248c5780601f106124615761010080835404028352916020019161248c565b820191906000526020600020905b81548152906001019060200180831161246f57829003601f168201915b505050505081526020016007820180546124a590614577565b80601f01602080910402602001604051908101604052809291908181526020018280546124d190614577565b801561251e5780601f106124f35761010080835404028352916020019161251e565b820191906000526020600020905b81548152906001019060200180831161250157829003601f168201915b5050505050815260200160088201805461253790614577565b80601f016020809104026020016040519081016040528092919081815260200182805461256390614577565b80156125b05780601f10612585576101008083540402835291602001916125b0565b820191906000526020600020905b81548152906001019060200180831161259357829003601f168201915b505050505081526020016009820180546125c990614577565b80601f01602080910402602001604051908101604052809291908181526020018280546125f590614577565b80156126425780601f1061261757610100808354040283529160200191612642565b820191906000526020600020905b81548152906001019060200180831161262557829003601f168201915b50505050508152602001600a8201805461265b90614577565b80601f016020809104026020016040519081016040528092919081815260200182805461268790614577565b80156126d45780601f106126a9576101008083540402835291602001916126d4565b820191906000526020600020905b8154815290600101906020018083116126b757829003601f168201915b50505050508152602001600b820180546126ed90614577565b80601f016020809104026020016040519081016040528092919081815260200182805461271990614577565b80156127665780601f1061273b57610100808354040283529160200191612766565b820191906000526020600020905b81548152906001019060200180831161274957829003601f168201915b50505050508152505090508060c001515160001415801561278b575060e08101515115155b8015612798575080515115155b80156127a8575060208101515115155b80156127b8575060408101515115155b80156127c8575060608101515115155b80156127d8575060808101515115155b80156127e8575060a08101515115155b80156127f957506101008101515115155b15612808576001935050505090565b5080612813816145b2565b915050612060565b50600091505090565b600061282e612c45565b6005546008546009546040517f5d3b1d30000000000000000000000000000000000000000000000000000000008152600481019290925274010000000000000000000000000000000000000000830467ffffffffffffffff166024830152640100000000810461ffff16604483015263ffffffff808216606484015266010000000000009091041660848201526001600160a01b0390911690635d3b1d309060a401602060405180830381600087803b1580156128ea57600080fd5b505af11580156128fe573d6000803e3d6000fd5b505050506040513d601f19601f820116820180604052508101906129229190613ca3565b6040805160608101825260008082526001602080840182815285518481528083018752858701908152878552600483529590932084518154945161ffff1990951690151561ff001916176101009415159490940293909317835593518051959650929491936129979391850192910190613a17565b505060068054600181019091557ff652222313e28459528d920b65115c16c04f3efc82aaedc97be59f3f377c0d3f018290555060078190556000818152601460209081526040918290208054336001600160a01b03199091161790556009548251848152660100000000000090910463ffffffff16918101919091527fcc58b13ad3eab50626c6a6300b1d139cd6ebb1688a7cced9461c2f7e762665ee910160405180910390a190565b600a54604080517f8e15f47300000000000000000000000000000000000000000000000000000000815290516000926001600160a01b031691638e15f473916004808301926020929190829003018186803b15801561077e57600080fd5b612aa7612c45565b612ab081613395565b50565b612abb612c45565b600080546001600160a01b0319166001600160a01b03831617905550565b600d8054611cd890614577565b600083815260116020526040812090612b00846020015190565b600283018190558451909150612b1d90600c906020870190613993565b508251612b3190600d906020860190613993565b50847f7bab0ec163b5c132c72b8146ac4d6e067e82ed58f8b131150aa71c92589115628585604051612b6492919061414b565b60405180910390a25050505050565b600082815260046020526040902054610100900460ff16612bd65760405162461bcd60e51b815260206004820152601160248201527f72657175657374206e6f7420666f756e64000000000000000000000000000000604482015260640161084e565b6000828152600460209081526040909120805460ff1916600190811782558351612c07939290910191840190613a17565b507ffe2e2d779dba245964d4e3ef9b994be63856fd568bf7d3ca9e224755cb1bd54d8282604051612c39929190614276565b60405180910390a15050565b6002546001600160a01b03163314612c9f5760405162461bcd60e51b815260206004820152601660248201527f4f6e6c792063616c6c61626c65206279206f776e657200000000000000000000604482015260640161084e565b565b60008181526001602052604090205481906001600160a01b031615612cf2576040517f8b457ad200000000000000000000000000000000000000000000000000000000815260040160405180910390fd5b50600090815260016020526040902080546001600160a01b0319166001600160a01b0392909216919091179055565b612ab081604051602401612d359190614138565b60408051601f198184030181529190526020810180517bffffffffffffffffffffffffffffffffffffffffffffffffffffffff167f41304fac00000000000000000000000000000000000000000000000000000000179052613440565b8051612dca576040517f22ce3edd00000000000000000000000000000000000000000000000000000000815260040160405180910390fd5b83836001811115612ddd57612ddd61460d565b90816001811115612df057612df061460d565b90525060408401828015612e0657612e0661460d565b90818015612e1657612e1661460d565b9052506060909301929092525050565b8051612e5e576040517fe889636f00000000000000000000000000000000000000000000000000000000815260040160405180910390fd5b60016020830152608090910152565b8051612ea5576040517ffe936cb700000000000000000000000000000000000000000000000000000000815260040160405180910390fd5b60a090910152565b60606000612eba83613461565b600101905060008167ffffffffffffffff811115612eda57612eda614639565b6040519080825280601f01601f191660200182016040528015612f04576020820181803683370190505b5090508181016020015b600019017f3031323334353637383961626364656600000000000000000000000000000000600a86061a8153600a8504945084612f4a57612f4f565b612f0e565b509392505050565b6000805481906001600160a01b03166328242b0485612f75886130c9565b866040518463ffffffff1660e01b8152600401612f949392919061428f565b602060405180830381600087803b158015612fae57600080fd5b505af1158015612fc2573d6000803e3d6000fd5b505050506040513d601f19601f82011682018060405250810190612fe69190613ca3565b905060008054906101000a90046001600160a01b03166001600160a01b0316635ab1bd536040518163ffffffff1660e01b815260040160206040518083038186803b15801561303457600080fd5b505afa158015613048573d6000803e3d6000fd5b505050506040513d601f19601f8201168201806040525081019061306c9190613c41565b60008281526001602052604080822080546001600160a01b0319166001600160a01b039490941693909317909255905182917f1131472297a800fee664d1d89cfa8f7676ff07189ecc53f80bbb5f4969099db891a2949350505050565b60606130d3613a51565b80516130e190610100613544565b50613121816040518060400160405280600c81526020017f636f64654c6f636174696f6e00000000000000000000000000000000000000008152506135bb565b613140818460000151600181111561313b5761313b61460d565b6135d9565b61317f816040518060400160405280600881526020017f6c616e67756167650000000000000000000000000000000000000000000000008152506135bb565b613199818460400151600081111561313b5761313b61460d565b6131d8816040518060400160405280600681526020017f736f7572636500000000000000000000000000000000000000000000000000008152506135bb565b6131e68184606001516135bb565b60a0830151511561328c57613230816040518060400160405280600481526020017f61726773000000000000000000000000000000000000000000000000000000008152506135bb565b61323981613612565b60005b8360a001515181101561328257613270828560a00151838151811061326357613263614623565b60200260200101516135bb565b8061327a816145b2565b91505061323c565b5061328c81613636565b6080830151511561338d576000836020015160018111156132af576132af61460d565b14156132e7576040517fa80d31f700000000000000000000000000000000000000000000000000000000815260040160405180910390fd5b613326816040518060400160405280600f81526020017f736563726574734c6f636174696f6e00000000000000000000000000000000008152506135bb565b613340818460200151600181111561313b5761313b61460d565b61337f816040518060400160405280600781526020017f73656372657473000000000000000000000000000000000000000000000000008152506135bb565b61338d818460800151613654565b515192915050565b6001600160a01b0381163314156133ee5760405162461bcd60e51b815260206004820152601760248201527f43616e6e6f74207472616e7366657220746f2073656c66000000000000000000604482015260640161084e565b600380546001600160a01b0319166001600160a01b03838116918217909255600254604051919216907fed8889f560326eb138920d842192f0eb3dd22b4f139c87a2c57538e05bae127890600090a350565b80516a636f6e736f6c652e6c6f67602083016000808483855afa5050505050565b6000807a184f03e93ff9f4daa797ed6e38ed64bf6a1f01000000000000000083106134aa577a184f03e93ff9f4daa797ed6e38ed64bf6a1f010000000000000000830492506040015b6d04ee2d6d415b85acef810000000083106134d6576d04ee2d6d415b85acef8100000000830492506020015b662386f26fc1000083106134f457662386f26fc10000830492506010015b6305f5e100831061350c576305f5e100830492506008015b612710831061352057612710830492506004015b60648310613532576064830492506002015b600a831061353e576001015b92915050565b6040805180820190915260608152600060208201526135646020836145cd565b1561358c576135746020836145cd565b61357f906020614527565b61358990836143f1565b91505b6020808401839052604051808552600081529081840101818110156135b057600080fd5b604052509192915050565b6135c8826003835161365d565b81516135d4908261377e565b505050565b81516135e69060c26137a6565b50610a1782826040516020016135fe91815260200190565b604051602081830303815290604052613654565b61361d81600461380f565b60018160200181815161363091906143f1565b90525050565b61364181600761380f565b6001816020018181516136309190614527565b6135c882600283515b60178167ffffffffffffffff16116136845782516109749060e0600585901b1683176137a6565b60ff8167ffffffffffffffff16116136c65782516136ad906018611fe0600586901b16176137a6565b5082516109749067ffffffffffffffff83166001613826565b61ffff8167ffffffffffffffff16116137095782516136f0906019611fe0600586901b16176137a6565b5082516109749067ffffffffffffffff83166002613826565b63ffffffff8167ffffffffffffffff161161374e57825161373590601a611fe0600586901b16176137a6565b5082516109749067ffffffffffffffff83166004613826565b825161376590601b611fe0600586901b16176137a6565b5082516109749067ffffffffffffffff83166008613826565b60408051808201909152606081526000602082015261379f838384516138ab565b9392505050565b60408051808201909152606081526000602082015282515160006137cb8260016143f1565b9050846020015182106137ec576137ec856137e7836002614508565b61397c565b8451602083820101858153508051821115613805578181525b5093949350505050565b81516135d490601f611fe0600585901b16176137a6565b604080518082019091526060815260006020820152835151600061384a82856143f1565b9050856020015181111561386757613867866137e7836002614508565b6000600161387786610100614460565b6138819190614527565b9050865182810187831982511617815250805183111561389f578281525b50959695505050505050565b60408051808201909152606081526000602082015282518211156138ce57600080fd5b83515160006138dd84836143f1565b905085602001518111156138fa576138fa866137e7836002614508565b855180518382016020019160009180851115613914578482525b505050602086015b6020861061395457805182526139336020836143f1565b91506139406020826143f1565b905061394d602087614527565b955061391c565b51815160001960208890036101000a0190811690199190911617905250849150509392505050565b81516139888383613544565b50610974838261377e565b82805461399f90614577565b90600052602060002090601f0160209004810192826139c15760008555613a07565b82601f106139da57805160ff1916838001178555613a07565b82800160010185558215613a07579182015b82811115613a075782518255916020019190600101906139ec565b50613a13929150613a86565b5090565b828054828255906000526020600020908101928215613a075791602002820182811115613a075782518255916020019190600101906139ec565b6040518060400160405280613a79604051806040016040528060608152602001600081525090565b8152602001600081525090565b5b80821115613a135760008155600101613a87565b6000613aae613aa9846143a5565b614374565b9050808382526020808301915083868660051b86011115613ace57600080fd5b6000805b87811015613b0f57823567ffffffffffffffff811115613af0578283fd5b613afc8a828a01613b84565b8652509383019391830191600101613ad2565b50505050509392505050565b600082601f830112613b2c57600080fd5b61379f83833560208501613a9b565b60008083601f840112613b4d57600080fd5b50813567ffffffffffffffff811115613b6557600080fd5b602083019150836020828501011115613b7d57600080fd5b9250929050565b600082601f830112613b9557600080fd5b8135613ba3613aa9826143c9565b818152846020838601011115613bb857600080fd5b816020850160208301376000918101602001919091529392505050565b803560018110613be457600080fd5b919050565b803560028110613be457600080fd5b803563ffffffff81168114613be457600080fd5b803567ffffffffffffffff81168114613be457600080fd5b600060208284031215613c3657600080fd5b813561379f8161464f565b600060208284031215613c5357600080fd5b815161379f8161464f565b60008060408385031215613c7157600080fd5b8235613c7c8161464f565b946020939093013593505050565b600060208284031215613c9c57600080fd5b5035919050565b600060208284031215613cb557600080fd5b5051919050565b600080600060608486031215613cd157600080fd5b83359250602084013567ffffffffffffffff80821115613cf057600080fd5b613cfc87838801613b84565b93506040860135915080821115613d1257600080fd5b50613d1f86828701613b84565b9150509250925092565b600060208284031215613d3b57600080fd5b813567ffffffffffffffff811115613d5257600080fd5b613d5e84828501613b84565b949350505050565b600060208284031215613d7857600080fd5b815167ffffffffffffffff811115613d8f57600080fd5b8201601f81018413613da057600080fd5b8051613dae613aa9826143c9565b818152856020838501011115613dc357600080fd5b611ef782602083016020860161454b565b60008060008060008060008060a0898b031215613df057600080fd5b883567ffffffffffffffff80821115613e0857600080fd5b613e148c838d01613b3b565b909a50985060208b0135915080821115613e2d57600080fd5b613e398c838d01613b3b565b909850965060408b0135915080821115613e5257600080fd5b818b0191508b601f830112613e6657600080fd5b813581811115613e7557600080fd5b8c60208260051b8501011115613e8a57600080fd5b602083019650809550505050613ea260608a01613c0c565b9150613eb060808a01613bf8565b90509295985092959890939650565b60008060008060808587031215613ed557600080fd5b843567ffffffffffffffff80821115613eed57600080fd5b9086019060c08289031215613f0157600080fd5b613f0961434b565b613f1283613be9565b8152613f2060208401613be9565b6020820152613f3160408401613bd5565b6040820152606083013582811115613f4857600080fd5b613f548a828601613b84565b606083015250608083013582811115613f6c57600080fd5b613f788a828601613b84565b60808301525060a083013582811115613f9057600080fd5b613f9c8a828601613b1b565b60a0830152509550613fb391505060208601613c0c565b9250613fc160408601613bf8565b9396929550929360600135925050565b60008060408385031215613fe457600080fd5b8235915060208084013567ffffffffffffffff81111561400357600080fd5b8401601f8101861361401457600080fd5b8035614022613aa9826143a5565b80828252848201915084840189868560051b870101111561404257600080fd5b600094505b83851015614065578035835260019490940193918501918501614047565b5080955050505050509250929050565b60006020828403121561408757600080fd5b81516bffffffffffffffffffffffff8116811461379f57600080fd5b600081518084526020808501945080840160005b838110156140d3578151875295820195908201906001016140b7565b509495945050505050565b600081518084526140f681602086016020860161454b565b601f01601f19169290920160200192915050565b60208152600061379f60208301846140a3565b8215158152604060208201526000613d5e60408301846140a3565b60208152600061379f60208301846140de565b60408152600061415e60408301856140de565b8281036020840152611ef781856140de565b6101808152600061418561018083018f6140de565b8281036020840152614197818f6140de565b905082810360408401526141ab818e6140de565b905082810360608401526141bf818d6140de565b905082810360808401526141d3818c6140de565b905082810360a08401526141e7818b6140de565b905082810360c08401526141fb818a6140de565b905082810360e084015261420f81896140de565b905082810361010084015261422481886140de565b905082810361012084015261423981876140de565b905082810361014084015261424e81866140de565b905082810361016084015261426381856140de565b9f9e505050505050505050505050505050565b828152604060208201526000613d5e60408301846140a3565b67ffffffffffffffff841681526060602082015260006142b260608301856140de565b905063ffffffff83166040830152949350505050565b67ffffffffffffffff851681526080602082015260006142eb60808301866140de565b63ffffffff949094166040830152506060015292915050565b6000808335601e1984360301811261431b57600080fd5b83018035915067ffffffffffffffff82111561433657600080fd5b602001915036819003821315613b7d57600080fd5b60405160c0810167ffffffffffffffff8111828210171561436e5761436e614639565b60405290565b604051601f8201601f1916810167ffffffffffffffff8111828210171561439d5761439d614639565b604052919050565b600067ffffffffffffffff8211156143bf576143bf614639565b5060051b60200190565b600067ffffffffffffffff8211156143e3576143e3614639565b50601f01601f191660200190565b60008219821115614404576144046145e1565b500190565b600082614418576144186145f7565b500490565b600181815b8085111561445857816000190482111561443e5761443e6145e1565b8085161561444b57918102915b93841c9390800290614422565b509250929050565b600061379f83836000826144765750600161353e565b816144835750600061353e565b816001811461449957600281146144a3576144bf565b600191505061353e565b60ff8411156144b4576144b46145e1565b50506001821b61353e565b5060208310610133831016604e8410600b84101617156144e2575081810a61353e565b6144ec838361441d565b8060001904821115614500576145006145e1565b029392505050565b6000816000190483118215151615614522576145226145e1565b500290565b600082821015614539576145396145e1565b500390565b600061379f368484613a9b565b60005b8381101561456657818101518382015260200161454e565b838111156109745750506000910152565b600181811c9082168061458b57607f821691505b602082108114156145ac57634e487b7160e01b600052602260045260246000fd5b50919050565b60006000198214156145c6576145c66145e1565b5060010190565b6000826145dc576145dc6145f7565b500690565b634e487b7160e01b600052601160045260246000fd5b634e487b7160e01b600052601260045260246000fd5b634e487b7160e01b600052602160045260246000fd5b634e487b7160e01b600052603260045260246000fd5b634e487b7160e01b600052604160045260246000fd5b6001600160a01b0381168114612ab057600080fdfea26469706673582212209740b650f4738b9b7dd6c5c9187a53c56cdd5032fae851c596da98fc21db38b664736f6c63430008070033",
  "linkReferences": {},
  "deployedLinkReferences": {}
}