{
  "_format": "hh-sol-artifact-1",
  "contractName": "Insurance",
  "sourceName": "contracts/Insurance.sol",
  "abi": [
    {
      "inputs": [
        {
          "internalType": "address",
          "name": "oracle",
          "type": "address"
        }
      ],
      "stateMutability": "nonpayable",
      "type": "constructor"
    },
    {
      "inputs": [],
      "name": "EmptyArgs",
      "type": "error"
    },
    {
      "inputs": [],
      "name": "EmptySecrets",
      "type": "error"
    },
    {
      "inputs": [],
      "name": "EmptySource",
      "type": "error"
    },
    {
      "inputs": [],
      "name": "NoInlineSecrets",
      "type": "error"
    },
    {
      "inputs": [],
      "name": "RequestIsAlreadyPending",
      "type": "error"
    },
    {
      "inputs": [],
      "name": "RequestIsNotPending",
      "type": "error"
    },
    {
      "inputs": [],
      "name": "SenderIsNotRegistry",
      "type": "error"
    },
    {
      "anonymous": false,
      "inputs": [
        {
          "indexed": true,
          "internalType": "bytes32",
          "name": "requestId",
          "type": "bytes32"
        },
        {
          "indexed": false,
          "internalType": "bytes",
          "name": "result",
          "type": "bytes"
        },
        {
          "indexed": false,
          "internalType": "bytes",
          "name": "err",
          "type": "bytes"
        }
      ],
      "name": "OCRResponse",
      "type": "event"
    },
    {
      "anonymous": false,
      "inputs": [
        {
          "indexed": true,
          "internalType": "address",
          "name": "from",
          "type": "address"
        },
        {
          "indexed": true,
          "internalType": "address",
          "name": "to",
          "type": "address"
        }
      ],
      "name": "OwnershipTransferRequested",
      "type": "event"
    },
    {
      "anonymous": false,
      "inputs": [
        {
          "indexed": true,
          "internalType": "address",
          "name": "from",
          "type": "address"
        },
        {
          "indexed": true,
          "internalType": "address",
          "name": "to",
          "type": "address"
        }
      ],
      "name": "OwnershipTransferred",
      "type": "event"
    },
    {
      "anonymous": false,
      "inputs": [
        {
          "indexed": true,
          "internalType": "bytes32",
          "name": "id",
          "type": "bytes32"
        }
      ],
      "name": "RequestFulfilled",
      "type": "event"
    },
    {
      "anonymous": false,
      "inputs": [
        {
          "indexed": true,
          "internalType": "bytes32",
          "name": "id",
          "type": "bytes32"
        }
      ],
      "name": "RequestSent",
      "type": "event"
    },
    {
      "inputs": [],
      "name": "acceptOwnership",
      "outputs": [],
      "stateMutability": "nonpayable",
      "type": "function"
    },
    {
      "inputs": [
        {
          "internalType": "address",
          "name": "oracleAddress",
          "type": "address"
        },
        {
          "internalType": "bytes32",
          "name": "requestId",
          "type": "bytes32"
        }
      ],
      "name": "addSimulatedRequestId",
      "outputs": [],
      "stateMutability": "nonpayable",
      "type": "function"
    },
    {
      "inputs": [],
      "name": "checkInsuranceData",
      "outputs": [
        {
          "internalType": "bool",
          "name": "",
          "type": "bool"
        }
      ],
      "stateMutability": "view",
      "type": "function"
    },
    {
      "inputs": [
        {
          "components": [
            {
              "internalType": "enum Functions.Location",
              "name": "codeLocation",
              "type": "uint8"
            },
            {
              "internalType": "enum Functions.Location",
              "name": "secretsLocation",
              "type": "uint8"
            },
            {
              "internalType": "enum Functions.CodeLanguage",
              "name": "language",
              "type": "uint8"
            },
            {
              "internalType": "string",
              "name": "source",
              "type": "string"
            },
            {
              "internalType": "bytes",
              "name": "secrets",
              "type": "bytes"
            },
            {
              "internalType": "string[]",
              "name": "args",
              "type": "string[]"
            }
          ],
          "internalType": "struct Functions.Request",
          "name": "req",
          "type": "tuple"
        },
        {
          "internalType": "uint64",
          "name": "subscriptionId",
          "type": "uint64"
        },
        {
          "internalType": "uint32",
          "name": "gasLimit",
          "type": "uint32"
        },
        {
          "internalType": "uint256",
          "name": "gasPrice",
          "type": "uint256"
        }
      ],
      "name": "estimateCost",
      "outputs": [
        {
          "internalType": "uint96",
          "name": "",
          "type": "uint96"
        }
      ],
      "stateMutability": "view",
      "type": "function"
    },
    {
      "inputs": [
        {
          "internalType": "string",
          "name": "source",
          "type": "string"
        },
        {
          "internalType": "bytes",
          "name": "secrets",
          "type": "bytes"
        },
        {
          "internalType": "uint64",
          "name": "subscriptionId",
          "type": "uint64"
        },
        {
          "internalType": "uint32",
          "name": "gasLimit",
          "type": "uint32"
        },
        {
          "internalType": "string[]",
          "name": "args",
          "type": "string[]"
        }
      ],
      "name": "estimateInsurance",
      "outputs": [
        {
          "internalType": "bytes32",
          "name": "",
          "type": "bytes32"
        }
      ],
      "stateMutability": "payable",
      "type": "function"
    },
    {
      "inputs": [],
      "name": "getDONPublicKey",
      "outputs": [
        {
          "internalType": "bytes",
          "name": "",
          "type": "bytes"
        }
      ],
      "stateMutability": "view",
      "type": "function"
    },
    {
      "inputs": [
        {
          "internalType": "bytes32",
          "name": "requestId",
          "type": "bytes32"
        },
        {
          "internalType": "bytes",
          "name": "response",
          "type": "bytes"
        },
        {
          "internalType": "bytes",
          "name": "err",
          "type": "bytes"
        }
      ],
      "name": "handleOracleFulfillment",
      "outputs": [],
      "stateMutability": "nonpayable",
      "type": "function"
    },
    {
      "inputs": [
        {
          "internalType": "address",
          "name": "",
          "type": "address"
        },
        {
          "internalType": "uint256",
          "name": "",
          "type": "uint256"
        }
      ],
      "name": "insuranceDataMapping",
      "outputs": [
        {
          "internalType": "string",
          "name": "latNw",
          "type": "string"
        },
        {
          "internalType": "string",
          "name": "longNw",
          "type": "string"
        },
        {
          "internalType": "string",
          "name": "latNe",
          "type": "string"
        },
        {
          "internalType": "string",
          "name": "longNe",
          "type": "string"
        },
        {
          "internalType": "string",
          "name": "latSe",
          "type": "string"
        },
        {
          "internalType": "string",
          "name": "longSe",
          "type": "string"
        },
        {
          "internalType": "string",
          "name": "latSw",
          "type": "string"
        },
        {
          "internalType": "string",
          "name": "longSw",
          "type": "string"
        },
        {
          "internalType": "string",
          "name": "insuranceType",
          "type": "string"
        },
        {
          "internalType": "string",
          "name": "configParam",
          "type": "string"
        },
        {
          "internalType": "string",
          "name": "numDays",
          "type": "string"
        },
        {
          "internalType": "string",
          "name": "startDay",
          "type": "string"
        }
      ],
      "stateMutability": "view",
      "type": "function"
    },
    {
      "inputs": [],
      "name": "latestError",
      "outputs": [
        {
          "internalType": "bytes",
          "name": "",
          "type": "bytes"
        }
      ],
      "stateMutability": "view",
      "type": "function"
    },
    {
      "inputs": [],
      "name": "latestRequestId",
      "outputs": [
        {
          "internalType": "bytes32",
          "name": "",
          "type": "bytes32"
        }
      ],
      "stateMutability": "view",
      "type": "function"
    },
    {
      "inputs": [],
      "name": "latestResponse",
      "outputs": [
        {
          "internalType": "bytes",
          "name": "",
          "type": "bytes"
        }
      ],
      "stateMutability": "view",
      "type": "function"
    },
    {
      "inputs": [],
      "name": "owner",
      "outputs": [
        {
          "internalType": "address",
          "name": "",
          "type": "address"
        }
      ],
      "stateMutability": "view",
      "type": "function"
    },
    {
      "inputs": [
        {
          "internalType": "address",
          "name": "to",
          "type": "address"
        }
      ],
      "name": "transferOwnership",
      "outputs": [],
      "stateMutability": "nonpayable",
      "type": "function"
    },
    {
      "inputs": [
        {
          "internalType": "address",
          "name": "oracle",
          "type": "address"
        }
      ],
      "name": "updateOracleAddress",
      "outputs": [],
      "stateMutability": "nonpayable",
      "type": "function"
    }
  ],
  "bytecode": "0x60806040523480156200001157600080fd5b50604051620032e2380380620032e2833981016040819052620000349162000199565b600080546001600160a01b0319166001600160a01b038316178155339081906001600160a01b038216620000af5760405162461bcd60e51b815260206004820152601860248201527f43616e6e6f7420736574206f776e657220746f207a65726f000000000000000060448201526064015b60405180910390fd5b600280546001600160a01b0319166001600160a01b0384811691909117909155811615620000e257620000e281620000ec565b50505050620001cb565b6001600160a01b038116331415620001475760405162461bcd60e51b815260206004820152601760248201527f43616e6e6f74207472616e7366657220746f2073656c660000000000000000006044820152606401620000a6565b600380546001600160a01b0319166001600160a01b03838116918217909255600254604051919216907fed8889f560326eb138920d842192f0eb3dd22b4f139c87a2c57538e05bae127890600090a350565b600060208284031215620001ac57600080fd5b81516001600160a01b0381168114620001c457600080fd5b9392505050565b61310780620001db6000396000f3fe6080604052600436106100dd5760003560e01c8063cb9af4061161007f578063e091910111610059578063e091910114610249578063f2fde38b1461026e578063f7023bb61461028e578063fffeb84e146102ae57600080fd5b8063cb9af406146101e4578063d328a91e146101f7578063d4b391751461020c57600080fd5b806330bda99d116100bb57806330bda99d1461016557806379ba5097146101855780638da5cb5b1461019a578063bef3a2f0146101c257600080fd5b80630ca76175146100e25780631aa46f59146101045780632142735a1461012d575b600080fd5b3480156100ee57600080fd5b506101026100fd3660046128c9565b6102c3565b005b34801561011057600080fd5b5061011a60045481565b6040519081526020015b60405180910390f35b34801561013957600080fd5b5061014d610148366004612884565b610369565b6040516101249c9b9a99989796959493929190612c36565b34801561017157600080fd5b50610102610180366004612884565b610a46565b34801561019157600080fd5b50610102610a5c565b3480156101a657600080fd5b506002546040516001600160a01b039091168152602001610124565b3480156101ce57600080fd5b506101d7610b16565b6040516101249190612bfe565b61011a6101f23660046129a4565b610ba4565b34801561020357600080fd5b506101d7611003565b34801561021857600080fd5b5061022c610227366004612a92565b6110a1565b6040516bffffffffffffffffffffffff9091168152602001610124565b34801561025557600080fd5b5061025e611137565b6040519015158152602001610124565b34801561027a57600080fd5b5061010261028936600461284a565b61198e565b34801561029a57600080fd5b506101026102a936600461284a565b6119a2565b3480156102ba57600080fd5b506101d76119c8565b60008381526001602052604090205483906001600160a01b03163314610315576040517fa0c5ec6300000000000000000000000000000000000000000000000000000000815260040160405180910390fd5b60008181526001602052604080822080546001600160a01b03191690555182917f85e1543bf2f84fe80c6badbce3648c8539ad1df4d2b3d822938ca0538be727e691a26103638484846119d5565b50505050565b6007602052816000526040600020818154811061038557600080fd5b90600052602060002090600c0201600091509150508060000180546103a990612fec565b80601f01602080910402602001604051908101604052809291908181526020018280546103d590612fec565b80156104225780601f106103f757610100808354040283529160200191610422565b820191906000526020600020905b81548152906001019060200180831161040557829003601f168201915b50505050509080600101805461043790612fec565b80601f016020809104026020016040519081016040528092919081815260200182805461046390612fec565b80156104b05780601f10610485576101008083540402835291602001916104b0565b820191906000526020600020905b81548152906001019060200180831161049357829003601f168201915b5050505050908060020180546104c590612fec565b80601f01602080910402602001604051908101604052809291908181526020018280546104f190612fec565b801561053e5780601f106105135761010080835404028352916020019161053e565b820191906000526020600020905b81548152906001019060200180831161052157829003601f168201915b50505050509080600301805461055390612fec565b80601f016020809104026020016040519081016040528092919081815260200182805461057f90612fec565b80156105cc5780601f106105a1576101008083540402835291602001916105cc565b820191906000526020600020905b8154815290600101906020018083116105af57829003601f168201915b5050505050908060040180546105e190612fec565b80601f016020809104026020016040519081016040528092919081815260200182805461060d90612fec565b801561065a5780601f1061062f5761010080835404028352916020019161065a565b820191906000526020600020905b81548152906001019060200180831161063d57829003601f168201915b50505050509080600501805461066f90612fec565b80601f016020809104026020016040519081016040528092919081815260200182805461069b90612fec565b80156106e85780601f106106bd576101008083540402835291602001916106e8565b820191906000526020600020905b8154815290600101906020018083116106cb57829003601f168201915b5050505050908060060180546106fd90612fec565b80601f016020809104026020016040519081016040528092919081815260200182805461072990612fec565b80156107765780601f1061074b57610100808354040283529160200191610776565b820191906000526020600020905b81548152906001019060200180831161075957829003601f168201915b50505050509080600701805461078b90612fec565b80601f01602080910402602001604051908101604052809291908181526020018280546107b790612fec565b80156108045780601f106107d957610100808354040283529160200191610804565b820191906000526020600020905b8154815290600101906020018083116107e757829003601f168201915b50505050509080600801805461081990612fec565b80601f016020809104026020016040519081016040528092919081815260200182805461084590612fec565b80156108925780601f1061086757610100808354040283529160200191610892565b820191906000526020600020905b81548152906001019060200180831161087557829003601f168201915b5050505050908060090180546108a790612fec565b80601f01602080910402602001604051908101604052809291908181526020018280546108d390612fec565b80156109205780601f106108f557610100808354040283529160200191610920565b820191906000526020600020905b81548152906001019060200180831161090357829003601f168201915b50505050509080600a01805461093590612fec565b80601f016020809104026020016040519081016040528092919081815260200182805461096190612fec565b80156109ae5780601f10610983576101008083540402835291602001916109ae565b820191906000526020600020905b81548152906001019060200180831161099157829003601f168201915b50505050509080600b0180546109c390612fec565b80601f01602080910402602001604051908101604052809291908181526020018280546109ef90612fec565b8015610a3c5780601f10610a1157610100808354040283529160200191610a3c565b820191906000526020600020905b815481529060010190602001808311610a1f57829003601f168201915b505050505090508c565b610a4e611a3c565b610a588282611a98565b5050565b6003546001600160a01b03163314610abb5760405162461bcd60e51b815260206004820152601660248201527f4d7573742062652070726f706f736564206f776e65720000000000000000000060448201526064015b60405180910390fd5b600280546001600160a01b0319808216339081179093556003805490911690556040516001600160a01b03909116919082907f8be0079c531659141344cd1fd0a4f28419497f9722a3daafe3b4186f6b6457e090600090a350565b60058054610b2390612fec565b80601f0160208091040260200160405190810160405280929190818152602001828054610b4f90612fec565b8015610b9c5780601f10610b7157610100808354040283529160200191610b9c565b820191906000526020600020905b815481529060010190602001808311610b7f57829003601f168201915b505050505081565b6000670de0b6b3a7640000341015610bfe5760405162461bcd60e51b815260206004820152601560248201527f4e6f7420656e6f756768204d617469632073656e7400000000000000000000006044820152606401610ab2565b600c8214610c4e5760405162461bcd60e51b815260206004820152601b60248201527f496e76616c6964206e756d626572206f6620617267756d656e747300000000006044820152606401610ab2565b33600090815260076020526040812080549091908290610c7090600190612f9c565b81548110610c8057610c80613090565b90600052602060002090600c0201905084846000818110610ca357610ca3613090565b9050602002810190610cb59190612db1565b610cc091839161256e565b5084846001818110610cd457610cd4613090565b9050602002810190610ce69190612db1565b610cf491600184019161256e565b5084846002818110610d0857610d08613090565b9050602002810190610d1a9190612db1565b610d2891600284019161256e565b5084846003818110610d3c57610d3c613090565b9050602002810190610d4e9190612db1565b610d5c91600384019161256e565b5084846004818110610d7057610d70613090565b9050602002810190610d829190612db1565b610d9091600484019161256e565b5084846005818110610da457610da4613090565b9050602002810190610db69190612db1565b610dc491600584019161256e565b5084846006818110610dd857610dd8613090565b9050602002810190610dea9190612db1565b610df891600684019161256e565b5084846007818110610e0c57610e0c613090565b9050602002810190610e1e9190612db1565b610e2c91600784019161256e565b5084846008818110610e4057610e40613090565b9050602002810190610e529190612db1565b610e6091600984019161256e565b5084846009818110610e7457610e74613090565b9050602002810190610e869190612db1565b610e9491600884019161256e565b508484600a818110610ea857610ea8613090565b9050602002810190610eba9190612db1565b610ec891600a84019161256e565b508484600b818110610edc57610edc613090565b9050602002810190610eee9190612db1565b610efc91600b84019161256e565b50610f376040805160c08101909152806000815260200160008152602001600081526020016060815260200160608152602001606081525090565b610f7e6000808e8e8080601f01602080910402602001604051908101604052809392919081815260200183838082843760009201919091525087959493925050611b189050565b8815610fc657610fc68a8a8080601f0160208091040260200160405190810160405280939291908181526020018383808284376000920191909152508593925050611bac9050565b8415610fe057610fe0610fd98688612fb3565b8290611bf3565b6000610fed828a8a611c33565b60048190559d9c50505050505050505050505050565b60008054604080517fd328a91e00000000000000000000000000000000000000000000000000000000815290516060936001600160a01b039093169263d328a91e9260048082019391829003018186803b15801561106057600080fd5b505afa158015611074573d6000803e3d6000fd5b505050506040513d6000823e601f3d908101601f1916820160405261109c9190810190612936565b905090565b600080546001600160a01b031663d227d245856110bd88611da5565b86866040518563ffffffff1660e01b81526004016110de9493929190612d75565b60206040518083038186803b1580156110f657600080fd5b505afa15801561110a573d6000803e3d6000fd5b505050506040513d601f19601f8201168201806040525081019061112e9190612ba4565b95945050505050565b33600090815260076020526040812080546111945760405162461bcd60e51b815260206004820152601760248201527f4e6f20696e737572616e6365206461746120666f756e640000000000000000006044820152606401610ab2565b60005b81548110156119855760008282815481106111b4576111b4613090565b90600052602060002090600c0201604051806101800160405290816000820180546111de90612fec565b80601f016020809104026020016040519081016040528092919081815260200182805461120a90612fec565b80156112575780601f1061122c57610100808354040283529160200191611257565b820191906000526020600020905b81548152906001019060200180831161123a57829003601f168201915b5050505050815260200160018201805461127090612fec565b80601f016020809104026020016040519081016040528092919081815260200182805461129c90612fec565b80156112e95780601f106112be576101008083540402835291602001916112e9565b820191906000526020600020905b8154815290600101906020018083116112cc57829003601f168201915b5050505050815260200160028201805461130290612fec565b80601f016020809104026020016040519081016040528092919081815260200182805461132e90612fec565b801561137b5780601f106113505761010080835404028352916020019161137b565b820191906000526020600020905b81548152906001019060200180831161135e57829003601f168201915b5050505050815260200160038201805461139490612fec565b80601f01602080910402602001604051908101604052809291908181526020018280546113c090612fec565b801561140d5780601f106113e25761010080835404028352916020019161140d565b820191906000526020600020905b8154815290600101906020018083116113f057829003601f168201915b5050505050815260200160048201805461142690612fec565b80601f016020809104026020016040519081016040528092919081815260200182805461145290612fec565b801561149f5780601f106114745761010080835404028352916020019161149f565b820191906000526020600020905b81548152906001019060200180831161148257829003601f168201915b505050505081526020016005820180546114b890612fec565b80601f01602080910402602001604051908101604052809291908181526020018280546114e490612fec565b80156115315780601f1061150657610100808354040283529160200191611531565b820191906000526020600020905b81548152906001019060200180831161151457829003601f168201915b5050505050815260200160068201805461154a90612fec565b80601f016020809104026020016040519081016040528092919081815260200182805461157690612fec565b80156115c35780601f10611598576101008083540402835291602001916115c3565b820191906000526020600020905b8154815290600101906020018083116115a657829003601f168201915b505050505081526020016007820180546115dc90612fec565b80601f016020809104026020016040519081016040528092919081815260200182805461160890612fec565b80156116555780601f1061162a57610100808354040283529160200191611655565b820191906000526020600020905b81548152906001019060200180831161163857829003601f168201915b5050505050815260200160088201805461166e90612fec565b80601f016020809104026020016040519081016040528092919081815260200182805461169a90612fec565b80156116e75780601f106116bc576101008083540402835291602001916116e7565b820191906000526020600020905b8154815290600101906020018083116116ca57829003601f168201915b5050505050815260200160098201805461170090612fec565b80601f016020809104026020016040519081016040528092919081815260200182805461172c90612fec565b80156117795780601f1061174e57610100808354040283529160200191611779565b820191906000526020600020905b81548152906001019060200180831161175c57829003601f168201915b50505050508152602001600a8201805461179290612fec565b80601f01602080910402602001604051908101604052809291908181526020018280546117be90612fec565b801561180b5780601f106117e05761010080835404028352916020019161180b565b820191906000526020600020905b8154815290600101906020018083116117ee57829003601f168201915b50505050508152602001600b8201805461182490612fec565b80601f016020809104026020016040519081016040528092919081815260200182805461185090612fec565b801561189d5780601f106118725761010080835404028352916020019161189d565b820191906000526020600020905b81548152906001019060200180831161188057829003601f168201915b50505091909252505081515191925050158015906118bf575060208101515115155b80156118cf575060408101515115155b80156118df575060608101515115155b80156118ef575060808101515115155b80156118ff575060a08101515115155b801561190f575060c08101515115155b801561191f575060e08101515115155b801561193057506101208101515115155b801561194157506101008101515115155b801561195257506101408101515115155b801561196357506101608101515115155b15611972576001935050505090565b508061197d81613027565b915050611197565b50600091505090565b611996611a3c565b61199f81612071565b50565b6119aa611a3c565b600080546001600160a01b0319166001600160a01b03831617905550565b60068054610b2390612fec565b81516119e89060059060208501906125f2565b5080516119fc9060069060208401906125f2565b50827f7bab0ec163b5c132c72b8146ac4d6e067e82ed58f8b131150aa71c92589115628383604051611a2f929190612c11565b60405180910390a2505050565b6002546001600160a01b03163314611a965760405162461bcd60e51b815260206004820152601660248201527f4f6e6c792063616c6c61626c65206279206f776e6572000000000000000000006044820152606401610ab2565b565b60008181526001602052604090205481906001600160a01b031615611ae9576040517f8b457ad200000000000000000000000000000000000000000000000000000000815260040160405180910390fd5b50600090815260016020526040902080546001600160a01b0319166001600160a01b0392909216919091179055565b8051611b50576040517f22ce3edd00000000000000000000000000000000000000000000000000000000815260040160405180910390fd5b83836001811115611b6357611b6361307a565b90816001811115611b7657611b7661307a565b90525060408401828015611b8c57611b8c61307a565b90818015611b9c57611b9c61307a565b9052506060909301929092525050565b8051611be4576040517fe889636f00000000000000000000000000000000000000000000000000000000815260040160405180910390fd5b60016020830152608090910152565b8051611c2b576040517ffe936cb700000000000000000000000000000000000000000000000000000000815260040160405180910390fd5b60a090910152565b6000805481906001600160a01b03166328242b0485611c5188611da5565b866040518463ffffffff1660e01b8152600401611c7093929190612d3c565b602060405180830381600087803b158015611c8a57600080fd5b505af1158015611c9e573d6000803e3d6000fd5b505050506040513d601f19601f82011682018060405250810190611cc291906128b0565b905060008054906101000a90046001600160a01b03166001600160a01b0316635ab1bd536040518163ffffffff1660e01b815260040160206040518083038186803b158015611d1057600080fd5b505afa158015611d24573d6000803e3d6000fd5b505050506040513d601f19601f82011682018060405250810190611d489190612867565b60008281526001602052604080822080546001600160a01b0319166001600160a01b039490941693909317909255905182917f1131472297a800fee664d1d89cfa8f7676ff07189ecc53f80bbb5f4969099db891a2949350505050565b6060611daf612666565b8051611dbd9061010061211c565b50611dfd816040518060400160405280600c81526020017f636f64654c6f636174696f6e0000000000000000000000000000000000000000815250612196565b611e1c8184600001516001811115611e1757611e1761307a565b6121b4565b611e5b816040518060400160405280600881526020017f6c616e6775616765000000000000000000000000000000000000000000000000815250612196565b611e758184604001516000811115611e1757611e1761307a565b611eb4816040518060400160405280600681526020017f736f757263650000000000000000000000000000000000000000000000000000815250612196565b611ec2818460600151612196565b60a08301515115611f6857611f0c816040518060400160405280600481526020017f6172677300000000000000000000000000000000000000000000000000000000815250612196565b611f15816121ed565b60005b8360a0015151811015611f5e57611f4c828560a001518381518110611f3f57611f3f613090565b6020026020010151612196565b80611f5681613027565b915050611f18565b50611f6881612211565b6080830151511561206957600083602001516001811115611f8b57611f8b61307a565b1415611fc3576040517fa80d31f700000000000000000000000000000000000000000000000000000000815260040160405180910390fd5b612002816040518060400160405280600f81526020017f736563726574734c6f636174696f6e0000000000000000000000000000000000815250612196565b61201c8184602001516001811115611e1757611e1761307a565b61205b816040518060400160405280600781526020017f7365637265747300000000000000000000000000000000000000000000000000815250612196565b61206981846080015161222f565b515192915050565b6001600160a01b0381163314156120ca5760405162461bcd60e51b815260206004820152601760248201527f43616e6e6f74207472616e7366657220746f2073656c660000000000000000006044820152606401610ab2565b600380546001600160a01b0319166001600160a01b03838116918217909255600254604051919216907fed8889f560326eb138920d842192f0eb3dd22b4f139c87a2c57538e05bae127890600090a350565b60408051808201909152606081526000602082015261213c602083613042565b156121645761214c602083613042565b612157906020612f9c565b6121619083612e7a565b91505b60208084018390526040518085526000815290818401018181101561218857600080fd5b604052508290505b92915050565b6121a38260038351612238565b81516121af9082612359565b505050565b81516121c19060c2612381565b50610a5882826040516020016121d991815260200190565b60405160208183030381529060405261222f565b6121f88160046123ea565b60018160200181815161220b9190612e7a565b90525050565b61221c8160076123ea565b60018160200181815161220b9190612f9c565b6121a382600283515b60178167ffffffffffffffff161161225f5782516103639060e0600585901b168317612381565b60ff8167ffffffffffffffff16116122a1578251612288906018611fe0600586901b1617612381565b5082516103639067ffffffffffffffff83166001612401565b61ffff8167ffffffffffffffff16116122e45782516122cb906019611fe0600586901b1617612381565b5082516103639067ffffffffffffffff83166002612401565b63ffffffff8167ffffffffffffffff161161232957825161231090601a611fe0600586901b1617612381565b5082516103639067ffffffffffffffff83166004612401565b825161234090601b611fe0600586901b1617612381565b5082516103639067ffffffffffffffff83166008612401565b60408051808201909152606081526000602082015261237a83838451612486565b9392505050565b60408051808201909152606081526000602082015282515160006123a6826001612e7a565b9050846020015182106123c7576123c7856123c2836002612f7d565b612557565b84516020838201018581535080518211156123e0578181525b5093949350505050565b81516121af90601f611fe0600585901b1617612381565b60408051808201909152606081526000602082015283515160006124258285612e7a565b9050856020015181111561244257612442866123c2836002612f7d565b6000600161245286610100612ed5565b61245c9190612f9c565b9050865182810187831982511617815250805183111561247a578281525b50959695505050505050565b60408051808201909152606081526000602082015282518211156124a957600080fd5b83515160006124b88483612e7a565b905085602001518111156124d5576124d5866123c2836002612f7d565b8551805183820160200191600091808511156124ef578482525b505050602086015b6020861061252f578051825261250e602083612e7a565b915061251b602082612e7a565b9050612528602087612f9c565b95506124f7565b51815160001960208890036101000a0190811690199190911617905250849150509392505050565b8151612563838361211c565b506103638382612359565b82805461257a90612fec565b90600052602060002090601f01602090048101928261259c57600085556125e2565b82601f106125b55782800160ff198235161785556125e2565b828001600101855582156125e2579182015b828111156125e25782358255916020019190600101906125c7565b506125ee92915061269b565b5090565b8280546125fe90612fec565b90600052602060002090601f01602090048101928261262057600085556125e2565b82601f1061263957805160ff19168380011785556125e2565b828001600101855582156125e2579182015b828111156125e257825182559160200191906001019061264b565b604051806040016040528061268e604051806040016040528060608152602001600081525090565b8152602001600081525090565b5b808211156125ee576000815560010161269c565b600067ffffffffffffffff808411156126cb576126cb6130a6565b8360051b60206126dc818301612e21565b8681529350808401858381018910156126f457600080fd5b60009350835b8881101561272f57813586811115612710578586fd5b61271c8b828b016127a5565b84525091830191908301906001016126fa565b5050505050509392505050565b600082601f83011261274d57600080fd5b61237a838335602085016126b0565b60008083601f84011261276e57600080fd5b50813567ffffffffffffffff81111561278657600080fd5b60208301915083602082850101111561279e57600080fd5b9250929050565b600082601f8301126127b657600080fd5b81356127c96127c482612e52565b612e21565b8181528460208386010111156127de57600080fd5b816020850160208301376000918101602001919091529392505050565b80356001811061280a57600080fd5b919050565b80356002811061280a57600080fd5b803563ffffffff8116811461280a57600080fd5b803567ffffffffffffffff8116811461280a57600080fd5b60006020828403121561285c57600080fd5b813561237a816130bc565b60006020828403121561287957600080fd5b815161237a816130bc565b6000806040838503121561289757600080fd5b82356128a2816130bc565b946020939093013593505050565b6000602082840312156128c257600080fd5b5051919050565b6000806000606084860312156128de57600080fd5b83359250602084013567ffffffffffffffff808211156128fd57600080fd5b612909878388016127a5565b9350604086013591508082111561291f57600080fd5b5061292c868287016127a5565b9150509250925092565b60006020828403121561294857600080fd5b815167ffffffffffffffff81111561295f57600080fd5b8201601f8101841361297057600080fd5b805161297e6127c482612e52565b81815285602083850101111561299357600080fd5b61112e826020830160208601612fc0565b60008060008060008060008060a0898b0312156129c057600080fd5b883567ffffffffffffffff808211156129d857600080fd5b6129e48c838d0161275c565b909a50985060208b01359150808211156129fd57600080fd5b612a098c838d0161275c565b9098509650869150612a1d60408c01612832565b9550612a2b60608c0161281e565b945060808b0135915080821115612a4157600080fd5b818b0191508b601f830112612a5557600080fd5b813581811115612a6457600080fd5b8c60208260051b8501011115612a7957600080fd5b6020830194508093505050509295985092959890939650565b60008060008060808587031215612aa857600080fd5b843567ffffffffffffffff80821115612ac057600080fd5b9086019060c08289031215612ad457600080fd5b612adc612df8565b612ae58361280f565b8152612af36020840161280f565b6020820152612b04604084016127fb565b6040820152606083013582811115612b1b57600080fd5b612b278a8286016127a5565b606083015250608083013582811115612b3f57600080fd5b612b4b8a8286016127a5565b60808301525060a083013582811115612b6357600080fd5b612b6f8a82860161273c565b60a0830152509550612b8691505060208601612832565b9250612b946040860161281e565b9396929550929360600135925050565b600060208284031215612bb657600080fd5b81516bffffffffffffffffffffffff8116811461237a57600080fd5b60008151808452612bea816020860160208601612fc0565b601f01601f19169290920160200192915050565b60208152600061237a6020830184612bd2565b604081526000612c246040830185612bd2565b828103602084015261112e8185612bd2565b61018081526000612c4b61018083018f612bd2565b8281036020840152612c5d818f612bd2565b90508281036040840152612c71818e612bd2565b90508281036060840152612c85818d612bd2565b90508281036080840152612c99818c612bd2565b905082810360a0840152612cad818b612bd2565b905082810360c0840152612cc1818a612bd2565b905082810360e0840152612cd58189612bd2565b9050828103610100840152612cea8188612bd2565b9050828103610120840152612cff8187612bd2565b9050828103610140840152612d148186612bd2565b9050828103610160840152612d298185612bd2565b9f9e505050505050505050505050505050565b67ffffffffffffffff84168152606060208201526000612d5f6060830185612bd2565b905063ffffffff83166040830152949350505050565b67ffffffffffffffff85168152608060208201526000612d986080830186612bd2565b63ffffffff949094166040830152506060015292915050565b6000808335601e19843603018112612dc857600080fd5b83018035915067ffffffffffffffff821115612de357600080fd5b60200191503681900382131561279e57600080fd5b60405160c0810167ffffffffffffffff81118282101715612e1b57612e1b6130a6565b60405290565b604051601f8201601f1916810167ffffffffffffffff81118282101715612e4a57612e4a6130a6565b604052919050565b600067ffffffffffffffff821115612e6c57612e6c6130a6565b50601f01601f191660200190565b60008219821115612e8d57612e8d613064565b500190565b600181815b80851115612ecd578160001904821115612eb357612eb3613064565b80851615612ec057918102915b93841c9390800290612e97565b509250929050565b600061237a8383600082612eeb57506001612190565b81612ef857506000612190565b8160018114612f0e5760028114612f1857612f34565b6001915050612190565b60ff841115612f2957612f29613064565b50506001821b612190565b5060208310610133831016604e8410600b8410161715612f57575081810a612190565b612f618383612e92565b8060001904821115612f7557612f75613064565b029392505050565b6000816000190483118215151615612f9757612f97613064565b500290565b600082821015612fae57612fae613064565b500390565b600061237a3684846126b0565b60005b83811015612fdb578181015183820152602001612fc3565b838111156103635750506000910152565b600181811c9082168061300057607f821691505b6020821081141561302157634e487b7160e01b600052602260045260246000fd5b50919050565b600060001982141561303b5761303b613064565b5060010190565b60008261305f57634e487b7160e01b600052601260045260246000fd5b500690565b634e487b7160e01b600052601160045260246000fd5b634e487b7160e01b600052602160045260246000fd5b634e487b7160e01b600052603260045260246000fd5b634e487b7160e01b600052604160045260246000fd5b6001600160a01b038116811461199f57600080fdfea26469706673582212206acbfacda0a11424eb33f8bc275ac4fcfe70b388d8ea711ce2edd0a38f9d85cd64736f6c63430008070033",
  "linkReferences": {},
  "deployedLinkReferences": {}
}