{
  "_format": "hh-sol-artifact-1",
  "contractName": "Insurance",
  "sourceName": "contracts/Insurance.sol",
  "abi": [
    {
      "inputs": [
        {
          "internalType": "address",
          "name": "oracle",
          "type": "address"
        },
        {
          "internalType": "address",
          "name": "linkMaticPrice",
          "type": "address"
        },
        {
          "internalType": "uint64",
          "name": "subscriptionId",
          "type": "uint64"
        }
      ],
      "stateMutability": "nonpayable",
      "type": "constructor"
    },
    {
      "inputs": [],
      "name": "EmptyArgs",
      "type": "error"
    },
    {
      "inputs": [],
      "name": "EmptySecrets",
      "type": "error"
    },
    {
      "inputs": [],
      "name": "EmptySource",
      "type": "error"
    },
    {
      "inputs": [],
      "name": "NoInlineSecrets",
      "type": "error"
    },
    {
      "inputs": [
        {
          "internalType": "address",
          "name": "have",
          "type": "address"
        },
        {
          "internalType": "address",
          "name": "want",
          "type": "address"
        }
      ],
      "name": "OnlyCoordinatorCanFulfill",
      "type": "error"
    },
    {
      "inputs": [],
      "name": "RequestIsAlreadyPending",
      "type": "error"
    },
    {
      "inputs": [],
      "name": "RequestIsNotPending",
      "type": "error"
    },
    {
      "inputs": [],
      "name": "SenderIsNotRegistry",
      "type": "error"
    },
    {
      "anonymous": false,
      "inputs": [
        {
          "indexed": true,
          "internalType": "bytes32",
          "name": "requestId",
          "type": "bytes32"
        }
      ],
      "name": "OCRRequest",
      "type": "event"
    },
    {
      "anonymous": false,
      "inputs": [
        {
          "indexed": true,
          "internalType": "bytes32",
          "name": "requestId",
          "type": "bytes32"
        },
        {
          "indexed": false,
          "internalType": "bytes",
          "name": "result",
          "type": "bytes"
        },
        {
          "indexed": false,
          "internalType": "bytes",
          "name": "err",
          "type": "bytes"
        }
      ],
      "name": "OCRResponse",
      "type": "event"
    },
    {
      "anonymous": false,
      "inputs": [
        {
          "indexed": true,
          "internalType": "address",
          "name": "from",
          "type": "address"
        },
        {
          "indexed": true,
          "internalType": "address",
          "name": "to",
          "type": "address"
        }
      ],
      "name": "OwnershipTransferRequested",
      "type": "event"
    },
    {
      "anonymous": false,
      "inputs": [
        {
          "indexed": true,
          "internalType": "address",
          "name": "from",
          "type": "address"
        },
        {
          "indexed": true,
          "internalType": "address",
          "name": "to",
          "type": "address"
        }
      ],
      "name": "OwnershipTransferred",
      "type": "event"
    },
    {
      "anonymous": false,
      "inputs": [
        {
          "indexed": false,
          "internalType": "uint256",
          "name": "requestId",
          "type": "uint256"
        },
        {
          "indexed": false,
          "internalType": "uint256[]",
          "name": "randomWords",
          "type": "uint256[]"
        }
      ],
      "name": "RequestFulfilled",
      "type": "event"
    },
    {
      "anonymous": false,
      "inputs": [
        {
          "indexed": true,
          "internalType": "bytes32",
          "name": "id",
          "type": "bytes32"
        }
      ],
      "name": "RequestFulfilled",
      "type": "event"
    },
    {
      "anonymous": false,
      "inputs": [
        {
          "indexed": false,
          "internalType": "uint256",
          "name": "requestId",
          "type": "uint256"
        },
        {
          "indexed": false,
          "internalType": "uint32",
          "name": "numWords",
          "type": "uint32"
        }
      ],
      "name": "RequestSent",
      "type": "event"
    },
    {
      "anonymous": false,
      "inputs": [
        {
          "indexed": true,
          "internalType": "bytes32",
          "name": "id",
          "type": "bytes32"
        }
      ],
      "name": "RequestSent",
      "type": "event"
    },
    {
      "inputs": [],
      "name": "acceptOwnership",
      "outputs": [],
      "stateMutability": "nonpayable",
      "type": "function"
    },
    {
      "inputs": [
        {
          "internalType": "address",
          "name": "oracleAddress",
          "type": "address"
        },
        {
          "internalType": "bytes32",
          "name": "requestId",
          "type": "bytes32"
        }
      ],
      "name": "addSimulatedRequestId",
      "outputs": [],
      "stateMutability": "nonpayable",
      "type": "function"
    },
    {
      "inputs": [],
      "name": "checkInsuranceData",
      "outputs": [
        {
          "internalType": "bool",
          "name": "",
          "type": "bool"
        }
      ],
      "stateMutability": "view",
      "type": "function"
    },
    {
      "inputs": [],
      "name": "constructionTime",
      "outputs": [
        {
          "internalType": "uint256",
          "name": "",
          "type": "uint256"
        }
      ],
      "stateMutability": "view",
      "type": "function"
    },
    {
      "inputs": [],
      "name": "currentTime",
      "outputs": [
        {
          "internalType": "uint256",
          "name": "",
          "type": "uint256"
        }
      ],
      "stateMutability": "view",
      "type": "function"
    },
    {
      "inputs": [
        {
          "components": [
            {
              "internalType": "enum Functions.Location",
              "name": "codeLocation",
              "type": "uint8"
            },
            {
              "internalType": "enum Functions.Location",
              "name": "secretsLocation",
              "type": "uint8"
            },
            {
              "internalType": "enum Functions.CodeLanguage",
              "name": "language",
              "type": "uint8"
            },
            {
              "internalType": "string",
              "name": "source",
              "type": "string"
            },
            {
              "internalType": "bytes",
              "name": "secrets",
              "type": "bytes"
            },
            {
              "internalType": "string[]",
              "name": "args",
              "type": "string[]"
            }
          ],
          "internalType": "struct Functions.Request",
          "name": "req",
          "type": "tuple"
        },
        {
          "internalType": "uint64",
          "name": "subscriptionId",
          "type": "uint64"
        },
        {
          "internalType": "uint32",
          "name": "gasLimit",
          "type": "uint32"
        },
        {
          "internalType": "uint256",
          "name": "gasPrice",
          "type": "uint256"
        }
      ],
      "name": "estimateCost",
      "outputs": [
        {
          "internalType": "uint96",
          "name": "",
          "type": "uint96"
        }
      ],
      "stateMutability": "view",
      "type": "function"
    },
    {
      "inputs": [
        {
          "internalType": "string",
          "name": "source",
          "type": "string"
        },
        {
          "internalType": "bytes",
          "name": "secrets",
          "type": "bytes"
        },
        {
          "internalType": "string[]",
          "name": "args",
          "type": "string[]"
        },
        {
          "internalType": "uint64",
          "name": "subscriptionId",
          "type": "uint64"
        },
        {
          "internalType": "uint32",
          "name": "gasLimit",
          "type": "uint32"
        }
      ],
      "name": "estimateInsurance",
      "outputs": [
        {
          "internalType": "bytes32",
          "name": "",
          "type": "bytes32"
        }
      ],
      "stateMutability": "payable",
      "type": "function"
    },
    {
      "inputs": [
        {
          "internalType": "bytes32",
          "name": "",
          "type": "bytes32"
        }
      ],
      "name": "functionsRequestOwners",
      "outputs": [
        {
          "internalType": "address",
          "name": "",
          "type": "address"
        }
      ],
      "stateMutability": "view",
      "type": "function"
    },
    {
      "inputs": [],
      "name": "getCurrentTime",
      "outputs": [
        {
          "internalType": "uint256",
          "name": "",
          "type": "uint256"
        }
      ],
      "stateMutability": "view",
      "type": "function"
    },
    {
      "inputs": [],
      "name": "getDONPublicKey",
      "outputs": [
        {
          "internalType": "bytes",
          "name": "",
          "type": "bytes"
        }
      ],
      "stateMutability": "view",
      "type": "function"
    },
    {
      "inputs": [
        {
          "internalType": "uint256",
          "name": "_requestId",
          "type": "uint256"
        }
      ],
      "name": "getLastRandomWords",
      "outputs": [
        {
          "internalType": "uint256[]",
          "name": "",
          "type": "uint256[]"
        }
      ],
      "stateMutability": "view",
      "type": "function"
    },
    {
      "inputs": [],
      "name": "getLatestPrice",
      "outputs": [
        {
          "internalType": "int256",
          "name": "",
          "type": "int256"
        }
      ],
      "stateMutability": "view",
      "type": "function"
    },
    {
      "inputs": [
        {
          "internalType": "uint256",
          "name": "_requestId",
          "type": "uint256"
        }
      ],
      "name": "getRequestStatus",
      "outputs": [
        {
          "internalType": "bool",
          "name": "fulfilled",
          "type": "bool"
        },
        {
          "internalType": "uint256[]",
          "name": "randomWords",
          "type": "uint256[]"
        }
      ],
      "stateMutability": "view",
      "type": "function"
    },
    {
      "inputs": [],
      "name": "globalDayNumber",
      "outputs": [
        {
          "internalType": "int256",
          "name": "",
          "type": "int256"
        }
      ],
      "stateMutability": "view",
      "type": "function"
    },
    {
      "inputs": [
        {
          "internalType": "bytes32",
          "name": "requestId",
          "type": "bytes32"
        },
        {
          "internalType": "bytes",
          "name": "response",
          "type": "bytes"
        },
        {
          "internalType": "bytes",
          "name": "err",
          "type": "bytes"
        }
      ],
      "name": "handleOracleFulfillment",
      "outputs": [],
      "stateMutability": "nonpayable",
      "type": "function"
    },
    {
      "inputs": [],
      "name": "helloWorld",
      "outputs": [
        {
          "internalType": "string",
          "name": "",
          "type": "string"
        }
      ],
      "stateMutability": "view",
      "type": "function"
    },
    {
      "inputs": [
        {
          "internalType": "address",
          "name": "",
          "type": "address"
        },
        {
          "internalType": "uint256",
          "name": "",
          "type": "uint256"
        }
      ],
      "name": "insuranceDataMapping",
      "outputs": [
        {
          "internalType": "string",
          "name": "latNe",
          "type": "string"
        },
        {
          "internalType": "string",
          "name": "longNe",
          "type": "string"
        },
        {
          "internalType": "string",
          "name": "latSe",
          "type": "string"
        },
        {
          "internalType": "string",
          "name": "longSe",
          "type": "string"
        },
        {
          "internalType": "string",
          "name": "latSw",
          "type": "string"
        },
        {
          "internalType": "string",
          "name": "longSw",
          "type": "string"
        },
        {
          "internalType": "string",
          "name": "latNw",
          "type": "string"
        },
        {
          "internalType": "string",
          "name": "longNw",
          "type": "string"
        },
        {
          "internalType": "string",
          "name": "configParam",
          "type": "string"
        },
        {
          "internalType": "string",
          "name": "currentTime",
          "type": "string"
        },
        {
          "internalType": "string",
          "name": "startTime",
          "type": "string"
        },
        {
          "internalType": "string",
          "name": "endTime",
          "type": "string"
        }
      ],
      "stateMutability": "view",
      "type": "function"
    },
    {
      "inputs": [
        {
          "internalType": "bytes32",
          "name": "",
          "type": "bytes32"
        }
      ],
      "name": "insuranceQuoteResponses",
      "outputs": [
        {
          "internalType": "bytes",
          "name": "",
          "type": "bytes"
        }
      ],
      "stateMutability": "view",
      "type": "function"
    },
    {
      "inputs": [],
      "name": "lastRequestId",
      "outputs": [
        {
          "internalType": "uint256",
          "name": "",
          "type": "uint256"
        }
      ],
      "stateMutability": "view",
      "type": "function"
    },
    {
      "inputs": [],
      "name": "latestError",
      "outputs": [
        {
          "internalType": "bytes",
          "name": "",
          "type": "bytes"
        }
      ],
      "stateMutability": "view",
      "type": "function"
    },
    {
      "inputs": [],
      "name": "latestRequestId",
      "outputs": [
        {
          "internalType": "bytes32",
          "name": "",
          "type": "bytes32"
        }
      ],
      "stateMutability": "view",
      "type": "function"
    },
    {
      "inputs": [],
      "name": "latestResponse",
      "outputs": [
        {
          "internalType": "bytes",
          "name": "",
          "type": "bytes"
        }
      ],
      "stateMutability": "view",
      "type": "function"
    },
    {
      "inputs": [
        {
          "internalType": "address",
          "name": "",
          "type": "address"
        }
      ],
      "name": "latestUserResponse",
      "outputs": [
        {
          "internalType": "bytes",
          "name": "",
          "type": "bytes"
        }
      ],
      "stateMutability": "view",
      "type": "function"
    },
    {
      "inputs": [],
      "name": "owner",
      "outputs": [
        {
          "internalType": "address",
          "name": "",
          "type": "address"
        }
      ],
      "stateMutability": "view",
      "type": "function"
    },
    {
      "inputs": [],
      "name": "priceFeed",
      "outputs": [
        {
          "internalType": "contract PriceConsumerV3",
          "name": "",
          "type": "address"
        }
      ],
      "stateMutability": "view",
      "type": "function"
    },
    {
      "inputs": [
        {
          "internalType": "uint256",
          "name": "",
          "type": "uint256"
        }
      ],
      "name": "randomnessRequestSenders",
      "outputs": [
        {
          "internalType": "address",
          "name": "",
          "type": "address"
        }
      ],
      "stateMutability": "view",
      "type": "function"
    },
    {
      "inputs": [
        {
          "internalType": "uint256",
          "name": "requestId",
          "type": "uint256"
        },
        {
          "internalType": "uint256[]",
          "name": "randomWords",
          "type": "uint256[]"
        }
      ],
      "name": "rawFulfillRandomWords",
      "outputs": [],
      "stateMutability": "nonpayable",
      "type": "function"
    },
    {
      "inputs": [
        {
          "internalType": "uint256",
          "name": "",
          "type": "uint256"
        }
      ],
      "name": "requestIds",
      "outputs": [
        {
          "internalType": "uint256",
          "name": "",
          "type": "uint256"
        }
      ],
      "stateMutability": "view",
      "type": "function"
    },
    {
      "inputs": [],
      "name": "requestRandomWords",
      "outputs": [
        {
          "internalType": "uint256",
          "name": "requestId",
          "type": "uint256"
        }
      ],
      "stateMutability": "nonpayable",
      "type": "function"
    },
    {
      "inputs": [
        {
          "internalType": "bytes32",
          "name": "",
          "type": "bytes32"
        }
      ],
      "name": "responseData",
      "outputs": [
        {
          "internalType": "address",
          "name": "user",
          "type": "address"
        },
        {
          "internalType": "uint256",
          "name": "policyIndex",
          "type": "uint256"
        },
        {
          "internalType": "bytes",
          "name": "response",
          "type": "bytes"
        }
      ],
      "stateMutability": "view",
      "type": "function"
    },
    {
      "inputs": [
        {
          "internalType": "uint256",
          "name": "",
          "type": "uint256"
        }
      ],
      "name": "s_requests",
      "outputs": [
        {
          "internalType": "bool",
          "name": "fulfilled",
          "type": "bool"
        },
        {
          "internalType": "bool",
          "name": "exists",
          "type": "bool"
        }
      ],
      "stateMutability": "view",
      "type": "function"
    },
    {
      "inputs": [
        {
          "internalType": "address",
          "name": "to",
          "type": "address"
        }
      ],
      "name": "transferOwnership",
      "outputs": [],
      "stateMutability": "nonpayable",
      "type": "function"
    },
    {
      "inputs": [
        {
          "internalType": "address",
          "name": "oracle",
          "type": "address"
        }
      ],
      "name": "updateOracleAddress",
      "outputs": [],
      "stateMutability": "nonpayable",
      "type": "function"
    }
  ],
  "bytecode": "0x60a06040527f4b09e658ed251bcafeebbc69400383d49f344ace09b9576fe248bb02c003fe9f600855600980546001600160501b03191666030003000493e017905542600f553480156200005257600080fd5b50604051620048773803806200487783398101604081905262000075916200028a565b600080546001600160a01b0319166001600160a01b0385161781557f7a1bac17ccc5b313516c5e16fb24f7659aa5ebed00000000000000000000000060805233908190816200010b5760405162461bcd60e51b815260206004820152601860248201527f43616e6e6f7420736574206f776e657220746f207a65726f000000000000000060448201526064015b60405180910390fd5b600280546001600160a01b0319166001600160a01b03848116919091179091558116156200013e576200013e81620001c0565b5050600980546001600160a01b039094166a010000000000000000000002600160501b600160f01b031990941693909317909255600580546001600160401b03909216600160a01b026001600160e01b031990921691909117737a1bac17ccc5b313516c5e16fb24f7659aa5ebed179055505042600e556000600d55620002e4565b6001600160a01b0381163314156200021b5760405162461bcd60e51b815260206004820152601760248201527f43616e6e6f74207472616e7366657220746f2073656c66000000000000000000604482015260640162000102565b600380546001600160a01b0319166001600160a01b03838116918217909255600254604051919216907fed8889f560326eb138920d842192f0eb3dd22b4f139c87a2c57538e05bae127890600090a350565b80516001600160a01b03811681146200028557600080fd5b919050565b600080600060608486031215620002a057600080fd5b620002ab846200026d565b9250620002bb602085016200026d565b60408501519092506001600160401b0381168114620002d957600080fd5b809150509250925092565b60805160601c61456d6200030a60003960008181610743015261079e015261456d6000f3fe6080604052600436106101fe5760003560e01c8063b61109491161011d578063de9e143a116100b0578063f06c56101161007f578063f7023bb611610064578063f7023bb614610647578063fc2a88c314610667578063fffeb84e1461067d57600080fd5b8063f06c561014610611578063f2fde38b1461062757600080fd5b8063de9e143a14610588578063e0919101146105a8578063e0c86289146105cd578063e7a363b0146105e257600080fd5b8063d18e81b3116100ec578063d18e81b3146104f2578063d328a91e14610508578063d4b391751461051d578063d8a4676f1461055a57600080fd5b8063b611094914610465578063bef3a2f014610492578063c605f76c146104a7578063c864d549146104bc57600080fd5b806379ba5097116101955780638e15f473116101645780638e15f473146103c05780638e6a74ff146103d5578063985454ff14610402578063a168fa891461041557600080fd5b806379ba5097146103375780637bb4ea551461034c5780638796ba8c146103825780638da5cb5b146103a257600080fd5b806329cb924d116101d157806329cb924d146102a657806330bda99d146102bb5780634b11b4a1146102db578063741bef1a146102f157600080fd5b80630ca76175146102035780631aa46f59146102255780631fe543e31461024e5780632142735a1461026e575b600080fd5b34801561020f57600080fd5b5061022361021e366004613bb8565b610692565b005b34801561023157600080fd5b5061023b600a5481565b6040519081526020015b60405180910390f35b34801561025a57600080fd5b50610223610269366004613e90565b610738565b34801561027a57600080fd5b5061028e610289366004613b5a565b6107de565b6040516102459c9b9a9998979695949392919061405f565b3480156102b257600080fd5b50600f5461023b565b3480156102c757600080fd5b506102236102d6366004613b5a565b610ebb565b3480156102e757600080fd5b5061023b600d5481565b3480156102fd57600080fd5b5060095461031f906a010000000000000000000090046001600160a01b031681565b6040516001600160a01b039091168152602001610245565b34801561034357600080fd5b50610223610ecd565b34801561035857600080fd5b5061031f610367366004613b86565b6015602052600090815260409020546001600160a01b031681565b34801561038e57600080fd5b5061023b61039d366004613b86565b610f82565b3480156103ae57600080fd5b506002546001600160a01b031661031f565b3480156103cc57600080fd5b5061023b610fa3565b3480156103e157600080fd5b506103f56103f0366004613b86565b611030565b6040516102459190614027565b61023b610410366004613c93565b6110ca565b34801561042157600080fd5b5061044e610430366004613b86565b60046020526000908152604090205460ff8082169161010090041682565b604080519215158352901515602083015201610245565b34801561047157600080fd5b50610485610480366004613b86565b611ab1565b6040516102459190613ff1565b34801561049e57600080fd5b506103f5611bd6565b3480156104b357600080fd5b506103f5611be3565b3480156104c857600080fd5b5061031f6104d7366004613b86565b6012602052600090815260409020546001600160a01b031681565b3480156104fe57600080fd5b5061023b600f5481565b34801561051457600080fd5b506103f5611c5b565b34801561052957600080fd5b5061053d610538366004613d7e565b611cf4565b6040516bffffffffffffffffffffffff9091168152602001610245565b34801561056657600080fd5b5061057a610575366004613b86565b611d8a565b604051610245929190614004565b34801561059457600080fd5b506103f56105a3366004613b20565b611e8a565b3480156105b457600080fd5b506105bd611ea3565b6040519015158152602001610245565b3480156105d957600080fd5b5061023b6126c7565b3480156105ee57600080fd5b506106026105fd366004613b86565b6128e4565b60405161024593929190613fc9565b34801561061d57600080fd5b5061023b600e5481565b34801561063357600080fd5b50610223610642366004613b20565b612999565b34801561065357600080fd5b50610223610662366004613b20565b6129ad565b34801561067357600080fd5b5061023b60075481565b34801561068957600080fd5b506103f56129d3565b60008381526001602052604090205483906001600160a01b031633146106e4576040517fa0c5ec6300000000000000000000000000000000000000000000000000000000815260040160405180910390fd5b60008181526001602052604080822080546001600160a01b03191690555182917f85e1543bf2f84fe80c6badbce3648c8539ad1df4d2b3d822938ca0538be727e691a26107328484846129e0565b50505050565b336001600160a01b037f000000000000000000000000000000000000000000000000000000000000000016146107d0576040517f1cf993f40000000000000000000000000000000000000000000000000000000081523360048201526001600160a01b037f00000000000000000000000000000000000000000000000000000000000000001660248201526044015b60405180910390fd5b6107da8282612a6f565b5050565b601460205281600052604060002081815481106107fa57600080fd5b90600052602060002090600c02016000915091505080600001805461081e90614452565b80601f016020809104026020016040519081016040528092919081815260200182805461084a90614452565b80156108975780601f1061086c57610100808354040283529160200191610897565b820191906000526020600020905b81548152906001019060200180831161087a57829003601f168201915b5050505050908060010180546108ac90614452565b80601f01602080910402602001604051908101604052809291908181526020018280546108d890614452565b80156109255780601f106108fa57610100808354040283529160200191610925565b820191906000526020600020905b81548152906001019060200180831161090857829003601f168201915b50505050509080600201805461093a90614452565b80601f016020809104026020016040519081016040528092919081815260200182805461096690614452565b80156109b35780601f10610988576101008083540402835291602001916109b3565b820191906000526020600020905b81548152906001019060200180831161099657829003601f168201915b5050505050908060030180546109c890614452565b80601f01602080910402602001604051908101604052809291908181526020018280546109f490614452565b8015610a415780601f10610a1657610100808354040283529160200191610a41565b820191906000526020600020905b815481529060010190602001808311610a2457829003601f168201915b505050505090806004018054610a5690614452565b80601f0160208091040260200160405190810160405280929190818152602001828054610a8290614452565b8015610acf5780601f10610aa457610100808354040283529160200191610acf565b820191906000526020600020905b815481529060010190602001808311610ab257829003601f168201915b505050505090806005018054610ae490614452565b80601f0160208091040260200160405190810160405280929190818152602001828054610b1090614452565b8015610b5d5780601f10610b3257610100808354040283529160200191610b5d565b820191906000526020600020905b815481529060010190602001808311610b4057829003601f168201915b505050505090806006018054610b7290614452565b80601f0160208091040260200160405190810160405280929190818152602001828054610b9e90614452565b8015610beb5780601f10610bc057610100808354040283529160200191610beb565b820191906000526020600020905b815481529060010190602001808311610bce57829003601f168201915b505050505090806007018054610c0090614452565b80601f0160208091040260200160405190810160405280929190818152602001828054610c2c90614452565b8015610c795780601f10610c4e57610100808354040283529160200191610c79565b820191906000526020600020905b815481529060010190602001808311610c5c57829003601f168201915b505050505090806008018054610c8e90614452565b80601f0160208091040260200160405190810160405280929190818152602001828054610cba90614452565b8015610d075780601f10610cdc57610100808354040283529160200191610d07565b820191906000526020600020905b815481529060010190602001808311610cea57829003601f168201915b505050505090806009018054610d1c90614452565b80601f0160208091040260200160405190810160405280929190818152602001828054610d4890614452565b8015610d955780601f10610d6a57610100808354040283529160200191610d95565b820191906000526020600020905b815481529060010190602001808311610d7857829003601f168201915b50505050509080600a018054610daa90614452565b80601f0160208091040260200160405190810160405280929190818152602001828054610dd690614452565b8015610e235780601f10610df857610100808354040283529160200191610e23565b820191906000526020600020905b815481529060010190602001808311610e0657829003601f168201915b50505050509080600b018054610e3890614452565b80601f0160208091040260200160405190810160405280929190818152602001828054610e6490614452565b8015610eb15780601f10610e8657610100808354040283529160200191610eb1565b820191906000526020600020905b815481529060010190602001808311610e9457829003601f168201915b505050505090508c565b610ec3612b41565b6107da8282612b9d565b6003546001600160a01b03163314610f275760405162461bcd60e51b815260206004820152601660248201527f4d7573742062652070726f706f736564206f776e65720000000000000000000060448201526064016107c7565b600280546001600160a01b0319808216339081179093556003805490911690556040516001600160a01b03909116919082907f8be0079c531659141344cd1fd0a4f28419497f9722a3daafe3b4186f6b6457e090600090a350565b60068181548110610f9257600080fd5b600091825260209091200154905081565b60006009600a9054906101000a90046001600160a01b03166001600160a01b0316638e15f4736040518163ffffffff1660e01b815260040160206040518083038186803b158015610ff357600080fd5b505afa158015611007573d6000803e3d6000fd5b505050506040513d601f19601f8201168201806040525081019061102b9190613b9f565b905090565b6011602052600090815260409020805461104990614452565b80601f016020809104026020016040519081016040528092919081815260200182805461107590614452565b80156110c25780601f10611097576101008083540402835291602001916110c2565b820191906000526020600020905b8154815290600101906020018083116110a557829003601f168201915b505050505081565b6000600c841461111c5760405162461bcd60e51b815260206004820152601b60248201527f496e76616c6964206e756d626572206f6620617267756d656e7473000000000060448201526064016107c7565b61115a6040518060400160405280601581526020017f476f7420746865206c6174657374207072696365210000000000000000000000815250612c1d565b3360009081526014602052604081208054909190611787578160405180610180016040528089896000818110611192576111926144f6565b90506020028101906111a491906141f3565b8080601f016020809104026020016040519081016040528093929190818152602001838380828437600092019190915250505090825250602001898960018181106111f1576111f16144f6565b905060200281019061120391906141f3565b8080601f01602080910402602001604051908101604052809392919081815260200183838082843760009201919091525050509082525060200189896002818110611250576112506144f6565b905060200281019061126291906141f3565b8080601f016020809104026020016040519081016040528093929190818152602001838380828437600092019190915250505090825250602001898960038181106112af576112af6144f6565b90506020028101906112c191906141f3565b8080601f0160208091040260200160405190810160405280939291908181526020018383808284376000920191909152505050908252506020018989600481811061130e5761130e6144f6565b905060200281019061132091906141f3565b8080601f0160208091040260200160405190810160405280939291908181526020018383808284376000920191909152505050908252506020018989600581811061136d5761136d6144f6565b905060200281019061137f91906141f3565b8080601f016020809104026020016040519081016040528093929190818152602001838380828437600092019190915250505090825250602001898960068181106113cc576113cc6144f6565b90506020028101906113de91906141f3565b8080601f0160208091040260200160405190810160405280939291908181526020018383808284376000920191909152505050908252506020018989600781811061142b5761142b6144f6565b905060200281019061143d91906141f3565b8080601f0160208091040260200160405190810160405280939291908181526020018383808284376000920191909152505050908252506020018989600881811061148a5761148a6144f6565b905060200281019061149c91906141f3565b8080601f016020809104026020016040519081016040528093929190818152602001838380828437600092019190915250505090825250602001898960098181106114e9576114e96144f6565b90506020028101906114fb91906141f3565b8080601f0160208091040260200160405190810160405280939291908181526020018383808284376000920191909152505050908252506020018989600a818110611548576115486144f6565b905060200281019061155a91906141f3565b8080601f0160208091040260200160405190810160405280939291908181526020018383808284376000920191909152505050908252506020018989600b8181106115a7576115a76144f6565b90506020028101906115b991906141f3565b8080601f01602080910402602001604051908101604052809392919081815260200183838082843760009201829052509390945250508354600181018555938152602090819020835180519495600c029091019361161e93508492919091019061388f565b506020828101518051611637926001850192019061388f565b506040820151805161165391600284019160209091019061388f565b506060820151805161166f91600384019160209091019061388f565b506080820151805161168b91600484019160209091019061388f565b5060a082015180516116a791600584019160209091019061388f565b5060c082015180516116c391600684019160209091019061388f565b5060e082015180516116df91600784019160209091019061388f565b5061010082015180516116fc91600884019160209091019061388f565b50610120820151805161171991600984019160209091019061388f565b50610140820151805161173691600a84019160209091019061388f565b50610160820151805161175391600b84019160209091019061388f565b5050825483915061176690600190614402565b81548110611776576117766144f6565b90600052602060002090600c020190505b336000908152601460205260408120546117a390600190614402565b90506117df6040805160c08101909152806000815260200160008152602001600081526020016060815260200160608152602001606081525090565b6118266000808f8f8080601f01602080910402602001604051908101604052809392919081815260200183838082843760009201919091525087959493925050612c8e9050565b891561186e5761186e8b8b8080601f0160208091040260200160405190810160405280939291908181526020018383808284376000920191909152508593925050612d229050565b871561188857611888611881898b614419565b8290612d69565b6000611895600e54612da9565b905060006118a48a60016142e0565b67ffffffffffffffff8111156118bc576118bc61450c565b6040519080825280602002602001820160405280156118ef57816020015b60608152602001906001900390816118da5790505b50905060005b8a811015611987578b8b8281811061190f5761190f6144f6565b905060200281019061192191906141f3565b8080601f0160208091040260200160405190810160405280939291908181526020018383808284376000920191909152505084518592508491508110611969576119696144f6565b6020026020010181905250808061197f9061448d565b9150506118f5565b5081818c8c90508151811061199e5761199e6144f6565b60200260200101819052506119cc81600c815181106119bf576119bf6144f6565b6020026020010151612c1d565b6119d68382612d69565b60006119e3848b8b612e53565b6040805160608101825233815260208082018981528351808301855260008082528486019182528681526010845294909420835181546001600160a01b0319166001600160a01b0390911617815590516001820155925180519495509193611a51926002850192019061388f565b505050600a81905560008181526012602052604080822080546001600160a01b031916331790555182917f0790d5075e76350b19c3d15f0de9144077f6fb31397b526ce8664d7faf7dde6b91a29f9e505050505050505050505050505050565b600754600090815260046020526040902054606090610100900460ff16611b405760405162461bcd60e51b815260206004820152602760248201527f4e6f2072616e646f6d20776f7264732068617665206265656e2067656e65726160448201527f746564207965740000000000000000000000000000000000000000000000000060648201526084016107c7565b604080516003808252608082019092526000916020820160608036833701905050905060005b6003811015611bcf576007546000908152600460205260409020600101805482908110611b9557611b956144f6565b9060005260206000200154828281518110611bb257611bb26144f6565b602090810291909101015280611bc78161448d565b915050611b66565b5092915050565b600b805461104990614452565b6060611c236040518060400160405280600481526020017f5465737400000000000000000000000000000000000000000000000000000000815250612c1d565b5060408051808201909152600c81527f48656c6c6f20576f726c64210000000000000000000000000000000000000000602082015290565b60008054604080517fd328a91e00000000000000000000000000000000000000000000000000000000815290516060936001600160a01b039093169263d328a91e9260048082019391829003018186803b158015611cb857600080fd5b505afa158015611ccc573d6000803e3d6000fd5b505050506040513d6000823e601f3d908101601f1916820160405261102b9190810190613c25565b600080546001600160a01b031663d227d24585611d1088612fc5565b86866040518563ffffffff1660e01b8152600401611d3194939291906141b7565b60206040518083038186803b158015611d4957600080fd5b505afa158015611d5d573d6000803e3d6000fd5b505050506040513d601f19601f82011682018060405250810190611d819190613f34565b95945050505050565b600081815260046020526040812054606090610100900460ff16611df05760405162461bcd60e51b815260206004820152601160248201527f72657175657374206e6f7420666f756e6400000000000000000000000000000060448201526064016107c7565b60008381526004602090815260408083208151606081018352815460ff8082161515835261010090910416151581850152600182018054845181870281018701865281815292959394860193830182828015611e6b57602002820191906000526020600020905b815481526020019060010190808311611e57575b5050505050815250509050806000015181604001519250925050915091565b6013602052600090815260409020805461104990614452565b3360009081526014602052604081208054611f005760405162461bcd60e51b815260206004820152601760248201527f4e6f20696e737572616e6365206461746120666f756e6400000000000000000060448201526064016107c7565b60005b81548110156126be576000828281548110611f2057611f206144f6565b90600052602060002090600c020160405180610180016040529081600082018054611f4a90614452565b80601f0160208091040260200160405190810160405280929190818152602001828054611f7690614452565b8015611fc35780601f10611f9857610100808354040283529160200191611fc3565b820191906000526020600020905b815481529060010190602001808311611fa657829003601f168201915b50505050508152602001600182018054611fdc90614452565b80601f016020809104026020016040519081016040528092919081815260200182805461200890614452565b80156120555780601f1061202a57610100808354040283529160200191612055565b820191906000526020600020905b81548152906001019060200180831161203857829003601f168201915b5050505050815260200160028201805461206e90614452565b80601f016020809104026020016040519081016040528092919081815260200182805461209a90614452565b80156120e75780601f106120bc576101008083540402835291602001916120e7565b820191906000526020600020905b8154815290600101906020018083116120ca57829003601f168201915b5050505050815260200160038201805461210090614452565b80601f016020809104026020016040519081016040528092919081815260200182805461212c90614452565b80156121795780601f1061214e57610100808354040283529160200191612179565b820191906000526020600020905b81548152906001019060200180831161215c57829003601f168201915b5050505050815260200160048201805461219290614452565b80601f01602080910402602001604051908101604052809291908181526020018280546121be90614452565b801561220b5780601f106121e05761010080835404028352916020019161220b565b820191906000526020600020905b8154815290600101906020018083116121ee57829003601f168201915b5050505050815260200160058201805461222490614452565b80601f016020809104026020016040519081016040528092919081815260200182805461225090614452565b801561229d5780601f106122725761010080835404028352916020019161229d565b820191906000526020600020905b81548152906001019060200180831161228057829003601f168201915b505050505081526020016006820180546122b690614452565b80601f01602080910402602001604051908101604052809291908181526020018280546122e290614452565b801561232f5780601f106123045761010080835404028352916020019161232f565b820191906000526020600020905b81548152906001019060200180831161231257829003601f168201915b5050505050815260200160078201805461234890614452565b80601f016020809104026020016040519081016040528092919081815260200182805461237490614452565b80156123c15780601f10612396576101008083540402835291602001916123c1565b820191906000526020600020905b8154815290600101906020018083116123a457829003601f168201915b505050505081526020016008820180546123da90614452565b80601f016020809104026020016040519081016040528092919081815260200182805461240690614452565b80156124535780601f1061242857610100808354040283529160200191612453565b820191906000526020600020905b81548152906001019060200180831161243657829003601f168201915b5050505050815260200160098201805461246c90614452565b80601f016020809104026020016040519081016040528092919081815260200182805461249890614452565b80156124e55780601f106124ba576101008083540402835291602001916124e5565b820191906000526020600020905b8154815290600101906020018083116124c857829003601f168201915b50505050508152602001600a820180546124fe90614452565b80601f016020809104026020016040519081016040528092919081815260200182805461252a90614452565b80156125775780601f1061254c57610100808354040283529160200191612577565b820191906000526020600020905b81548152906001019060200180831161255a57829003601f168201915b50505050508152602001600b8201805461259090614452565b80601f01602080910402602001604051908101604052809291908181526020018280546125bc90614452565b80156126095780601f106125de57610100808354040283529160200191612609565b820191906000526020600020905b8154815290600101906020018083116125ec57829003601f168201915b50505050508152505090508060c001515160001415801561262e575060e08101515115155b801561263b575080515115155b801561264b575060208101515115155b801561265b575060408101515115155b801561266b575060608101515115155b801561267b575060808101515115155b801561268b575060a08101515115155b801561269c57506101008101515115155b156126ab576001935050505090565b50806126b68161448d565b915050611f03565b50600091505090565b60006126d1612b41565b6005546008546009546040517f5d3b1d30000000000000000000000000000000000000000000000000000000008152600481019290925274010000000000000000000000000000000000000000830467ffffffffffffffff166024830152640100000000810461ffff16604483015263ffffffff808216606484015266010000000000009091041660848201526001600160a01b0390911690635d3b1d309060a401602060405180830381600087803b15801561278d57600080fd5b505af11580156127a1573d6000803e3d6000fd5b505050506040513d601f19601f820116820180604052508101906127c59190613b9f565b6040805160608101825260008082526001602080840182815285518481528083018752858701908152878552600483529590932084518154945161ffff1990951690151561ff0019161761010094151594909402939093178355935180519596509294919361283a9391850192910190613913565b505060068054600181019091557ff652222313e28459528d920b65115c16c04f3efc82aaedc97be59f3f377c0d3f018290555060078190556000818152601560209081526040918290208054336001600160a01b03199091161790556009548251848152660100000000000090910463ffffffff16918101919091527fcc58b13ad3eab50626c6a6300b1d139cd6ebb1688a7cced9461c2f7e762665ee910160405180910390a190565b6010602052600090815260409020805460018201546002830180546001600160a01b0390931693919261291690614452565b80601f016020809104026020016040519081016040528092919081815260200182805461294290614452565b801561298f5780601f106129645761010080835404028352916020019161298f565b820191906000526020600020905b81548152906001019060200180831161297257829003601f168201915b5050505050905083565b6129a1612b41565b6129aa81613291565b50565b6129b5612b41565b600080546001600160a01b0319166001600160a01b03831617905550565b600c805461104990614452565b600083815260106020908152604090912083519091612a0691600284019186019061388f565b508251612a1a90600b90602086019061388f565b508151612a2e90600c90602085019061388f565b50837f7bab0ec163b5c132c72b8146ac4d6e067e82ed58f8b131150aa71c92589115628484604051612a6192919061403a565b60405180910390a250505050565b600082815260046020526040902054610100900460ff16612ad25760405162461bcd60e51b815260206004820152601160248201527f72657175657374206e6f7420666f756e6400000000000000000000000000000060448201526064016107c7565b6000828152600460209081526040909120805460ff1916600190811782558351612b03939290910191840190613913565b507ffe2e2d779dba245964d4e3ef9b994be63856fd568bf7d3ca9e224755cb1bd54d8282604051612b35929190614165565b60405180910390a15050565b6002546001600160a01b03163314612b9b5760405162461bcd60e51b815260206004820152601660248201527f4f6e6c792063616c6c61626c65206279206f776e65720000000000000000000060448201526064016107c7565b565b60008181526001602052604090205481906001600160a01b031615612bee576040517f8b457ad200000000000000000000000000000000000000000000000000000000815260040160405180910390fd5b50600090815260016020526040902080546001600160a01b0319166001600160a01b0392909216919091179055565b6129aa81604051602401612c319190614027565b60408051601f198184030181529190526020810180517bffffffffffffffffffffffffffffffffffffffffffffffffffffffff167f41304fac0000000000000000000000000000000000000000000000000000000017905261333c565b8051612cc6576040517f22ce3edd00000000000000000000000000000000000000000000000000000000815260040160405180910390fd5b83836001811115612cd957612cd96144e0565b90816001811115612cec57612cec6144e0565b90525060408401828015612d0257612d026144e0565b90818015612d1257612d126144e0565b9052506060909301929092525050565b8051612d5a576040517fe889636f00000000000000000000000000000000000000000000000000000000815260040160405180910390fd5b60016020830152608090910152565b8051612da1576040517ffe936cb700000000000000000000000000000000000000000000000000000000815260040160405180910390fd5b60a090910152565b60606000612db68361335d565b600101905060008167ffffffffffffffff811115612dd657612dd661450c565b6040519080825280601f01601f191660200182016040528015612e00576020820181803683370190505b5090508181016020015b600019017f3031323334353637383961626364656600000000000000000000000000000000600a86061a8153600a8504945084612e4657612e4b565b612e0a565b509392505050565b6000805481906001600160a01b03166328242b0485612e7188612fc5565b866040518463ffffffff1660e01b8152600401612e909392919061417e565b602060405180830381600087803b158015612eaa57600080fd5b505af1158015612ebe573d6000803e3d6000fd5b505050506040513d601f19601f82011682018060405250810190612ee29190613b9f565b905060008054906101000a90046001600160a01b03166001600160a01b0316635ab1bd536040518163ffffffff1660e01b815260040160206040518083038186803b158015612f3057600080fd5b505afa158015612f44573d6000803e3d6000fd5b505050506040513d601f19601f82011682018060405250810190612f689190613b3d565b60008281526001602052604080822080546001600160a01b0319166001600160a01b039490941693909317909255905182917f1131472297a800fee664d1d89cfa8f7676ff07189ecc53f80bbb5f4969099db891a2949350505050565b6060612fcf61394d565b8051612fdd90610100613440565b5061301d816040518060400160405280600c81526020017f636f64654c6f636174696f6e00000000000000000000000000000000000000008152506134b7565b61303c8184600001516001811115613037576130376144e0565b6134d5565b61307b816040518060400160405280600881526020017f6c616e67756167650000000000000000000000000000000000000000000000008152506134b7565b6130958184604001516000811115613037576130376144e0565b6130d4816040518060400160405280600681526020017f736f7572636500000000000000000000000000000000000000000000000000008152506134b7565b6130e28184606001516134b7565b60a083015151156131885761312c816040518060400160405280600481526020017f61726773000000000000000000000000000000000000000000000000000000008152506134b7565b6131358161350e565b60005b8360a001515181101561317e5761316c828560a00151838151811061315f5761315f6144f6565b60200260200101516134b7565b806131768161448d565b915050613138565b5061318881613532565b60808301515115613289576000836020015160018111156131ab576131ab6144e0565b14156131e3576040517fa80d31f700000000000000000000000000000000000000000000000000000000815260040160405180910390fd5b613222816040518060400160405280600f81526020017f736563726574734c6f636174696f6e00000000000000000000000000000000008152506134b7565b61323c8184602001516001811115613037576130376144e0565b61327b816040518060400160405280600781526020017f73656372657473000000000000000000000000000000000000000000000000008152506134b7565b613289818460800151613550565b515192915050565b6001600160a01b0381163314156132ea5760405162461bcd60e51b815260206004820152601760248201527f43616e6e6f74207472616e7366657220746f2073656c6600000000000000000060448201526064016107c7565b600380546001600160a01b0319166001600160a01b03838116918217909255600254604051919216907fed8889f560326eb138920d842192f0eb3dd22b4f139c87a2c57538e05bae127890600090a350565b80516a636f6e736f6c652e6c6f67602083016000808483855afa5050505050565b6000807a184f03e93ff9f4daa797ed6e38ed64bf6a1f01000000000000000083106133a6577a184f03e93ff9f4daa797ed6e38ed64bf6a1f010000000000000000830492506040015b6d04ee2d6d415b85acef810000000083106133d2576d04ee2d6d415b85acef8100000000830492506020015b662386f26fc1000083106133f057662386f26fc10000830492506010015b6305f5e1008310613408576305f5e100830492506008015b612710831061341c57612710830492506004015b6064831061342e576064830492506002015b600a831061343a576001015b92915050565b6040805180820190915260608152600060208201526134606020836144a8565b15613488576134706020836144a8565b61347b906020614402565b61348590836142e0565b91505b6020808401839052604051808552600081529081840101818110156134ac57600080fd5b604052509192915050565b6134c48260038351613559565b81516134d0908261367a565b505050565b81516134e29060c26136a2565b506107da82826040516020016134fa91815260200190565b604051602081830303815290604052613550565b61351981600461370b565b60018160200181815161352c91906142e0565b90525050565b61353d81600761370b565b60018160200181815161352c9190614402565b6134c482600283515b60178167ffffffffffffffff16116135805782516107329060e0600585901b1683176136a2565b60ff8167ffffffffffffffff16116135c25782516135a9906018611fe0600586901b16176136a2565b5082516107329067ffffffffffffffff83166001613722565b61ffff8167ffffffffffffffff16116136055782516135ec906019611fe0600586901b16176136a2565b5082516107329067ffffffffffffffff83166002613722565b63ffffffff8167ffffffffffffffff161161364a57825161363190601a611fe0600586901b16176136a2565b5082516107329067ffffffffffffffff83166004613722565b825161366190601b611fe0600586901b16176136a2565b5082516107329067ffffffffffffffff83166008613722565b60408051808201909152606081526000602082015261369b838384516137a7565b9392505050565b60408051808201909152606081526000602082015282515160006136c78260016142e0565b9050846020015182106136e8576136e8856136e38360026143e3565b613878565b8451602083820101858153508051821115613701578181525b5093949350505050565b81516134d090601f611fe0600585901b16176136a2565b604080518082019091526060815260006020820152835151600061374682856142e0565b9050856020015181111561376357613763866136e38360026143e3565b600060016137738661010061433b565b61377d9190614402565b9050865182810187831982511617815250805183111561379b578281525b50959695505050505050565b60408051808201909152606081526000602082015282518211156137ca57600080fd5b83515160006137d984836142e0565b905085602001518111156137f6576137f6866136e38360026143e3565b855180518382016020019160009180851115613810578482525b505050602086015b60208610613850578051825261382f6020836142e0565b915061383c6020826142e0565b9050613849602087614402565b9550613818565b51815160001960208890036101000a0190811690199190911617905250849150509392505050565b81516138848383613440565b50610732838261367a565b82805461389b90614452565b90600052602060002090601f0160209004810192826138bd5760008555613903565b82601f106138d657805160ff1916838001178555613903565b82800160010185558215613903579182015b828111156139035782518255916020019190600101906138e8565b5061390f929150613982565b5090565b82805482825590600052602060002090810192821561390357916020028201828111156139035782518255916020019190600101906138e8565b6040518060400160405280613975604051806040016040528060608152602001600081525090565b8152602001600081525090565b5b8082111561390f5760008155600101613983565b60006139aa6139a584614294565b614263565b9050808382526020808301915083868660051b860111156139ca57600080fd5b6000805b87811015613a0b57823567ffffffffffffffff8111156139ec578283fd5b6139f88a828a01613a80565b86525093830193918301916001016139ce565b50505050509392505050565b600082601f830112613a2857600080fd5b61369b83833560208501613997565b60008083601f840112613a4957600080fd5b50813567ffffffffffffffff811115613a6157600080fd5b602083019150836020828501011115613a7957600080fd5b9250929050565b600082601f830112613a9157600080fd5b8135613a9f6139a5826142b8565b818152846020838601011115613ab457600080fd5b816020850160208301376000918101602001919091529392505050565b803560018110613ae057600080fd5b919050565b803560028110613ae057600080fd5b803563ffffffff81168114613ae057600080fd5b803567ffffffffffffffff81168114613ae057600080fd5b600060208284031215613b3257600080fd5b813561369b81614522565b600060208284031215613b4f57600080fd5b815161369b81614522565b60008060408385031215613b6d57600080fd5b8235613b7881614522565b946020939093013593505050565b600060208284031215613b9857600080fd5b5035919050565b600060208284031215613bb157600080fd5b5051919050565b600080600060608486031215613bcd57600080fd5b83359250602084013567ffffffffffffffff80821115613bec57600080fd5b613bf887838801613a80565b93506040860135915080821115613c0e57600080fd5b50613c1b86828701613a80565b9150509250925092565b600060208284031215613c3757600080fd5b815167ffffffffffffffff811115613c4e57600080fd5b8201601f81018413613c5f57600080fd5b8051613c6d6139a5826142b8565b818152856020838501011115613c8257600080fd5b611d81826020830160208601614426565b60008060008060008060008060a0898b031215613caf57600080fd5b883567ffffffffffffffff80821115613cc757600080fd5b613cd38c838d01613a37565b909a50985060208b0135915080821115613cec57600080fd5b613cf88c838d01613a37565b909850965060408b0135915080821115613d1157600080fd5b818b0191508b601f830112613d2557600080fd5b813581811115613d3457600080fd5b8c60208260051b8501011115613d4957600080fd5b602083019650809550505050613d6160608a01613b08565b9150613d6f60808a01613af4565b90509295985092959890939650565b60008060008060808587031215613d9457600080fd5b843567ffffffffffffffff80821115613dac57600080fd5b9086019060c08289031215613dc057600080fd5b613dc861423a565b613dd183613ae5565b8152613ddf60208401613ae5565b6020820152613df060408401613ad1565b6040820152606083013582811115613e0757600080fd5b613e138a828601613a80565b606083015250608083013582811115613e2b57600080fd5b613e378a828601613a80565b60808301525060a083013582811115613e4f57600080fd5b613e5b8a828601613a17565b60a0830152509550613e7291505060208601613b08565b9250613e8060408601613af4565b9396929550929360600135925050565b60008060408385031215613ea357600080fd5b8235915060208084013567ffffffffffffffff811115613ec257600080fd5b8401601f81018613613ed357600080fd5b8035613ee16139a582614294565b80828252848201915084840189868560051b8701011115613f0157600080fd5b600094505b83851015613f24578035835260019490940193918501918501613f06565b5080955050505050509250929050565b600060208284031215613f4657600080fd5b81516bffffffffffffffffffffffff8116811461369b57600080fd5b600081518084526020808501945080840160005b83811015613f9257815187529582019590820190600101613f76565b509495945050505050565b60008151808452613fb5816020860160208601614426565b601f01601f19169290920160200192915050565b6001600160a01b0384168152826020820152606060408201526000611d816060830184613f9d565b60208152600061369b6020830184613f62565b821515815260406020820152600061401f6040830184613f62565b949350505050565b60208152600061369b6020830184613f9d565b60408152600061404d6040830185613f9d565b8281036020840152611d818185613f9d565b6101808152600061407461018083018f613f9d565b8281036020840152614086818f613f9d565b9050828103604084015261409a818e613f9d565b905082810360608401526140ae818d613f9d565b905082810360808401526140c2818c613f9d565b905082810360a08401526140d6818b613f9d565b905082810360c08401526140ea818a613f9d565b905082810360e08401526140fe8189613f9d565b90508281036101008401526141138188613f9d565b90508281036101208401526141288187613f9d565b905082810361014084015261413d8186613f9d565b90508281036101608401526141528185613f9d565b9f9e505050505050505050505050505050565b82815260406020820152600061401f6040830184613f62565b67ffffffffffffffff841681526060602082015260006141a16060830185613f9d565b905063ffffffff83166040830152949350505050565b67ffffffffffffffff851681526080602082015260006141da6080830186613f9d565b63ffffffff949094166040830152506060015292915050565b6000808335601e1984360301811261420a57600080fd5b83018035915067ffffffffffffffff82111561422557600080fd5b602001915036819003821315613a7957600080fd5b60405160c0810167ffffffffffffffff8111828210171561425d5761425d61450c565b60405290565b604051601f8201601f1916810167ffffffffffffffff8111828210171561428c5761428c61450c565b604052919050565b600067ffffffffffffffff8211156142ae576142ae61450c565b5060051b60200190565b600067ffffffffffffffff8211156142d2576142d261450c565b50601f01601f191660200190565b600082198211156142f3576142f36144ca565b500190565b600181815b80851115614333578160001904821115614319576143196144ca565b8085161561432657918102915b93841c93908002906142fd565b509250929050565b600061369b83836000826143515750600161343a565b8161435e5750600061343a565b8160018114614374576002811461437e5761439a565b600191505061343a565b60ff84111561438f5761438f6144ca565b50506001821b61343a565b5060208310610133831016604e8410600b84101617156143bd575081810a61343a565b6143c783836142f8565b80600019048211156143db576143db6144ca565b029392505050565b60008160001904831182151516156143fd576143fd6144ca565b500290565b600082821015614414576144146144ca565b500390565b600061369b368484613997565b60005b83811015614441578181015183820152602001614429565b838111156107325750506000910152565b600181811c9082168061446657607f821691505b6020821081141561448757634e487b7160e01b600052602260045260246000fd5b50919050565b60006000198214156144a1576144a16144ca565b5060010190565b6000826144c557634e487b7160e01b600052601260045260246000fd5b500690565b634e487b7160e01b600052601160045260246000fd5b634e487b7160e01b600052602160045260246000fd5b634e487b7160e01b600052603260045260246000fd5b634e487b7160e01b600052604160045260246000fd5b6001600160a01b03811681146129aa57600080fdfea2646970667358221220e029c5d54e2c6cbd2de3437b9f746326cf2220fc75304e6b54229d7e6128b1ce64736f6c63430008070033",
  "linkReferences": {},
  "deployedLinkReferences": {}
}