{
  "_format": "hh-sol-artifact-1",
  "contractName": "Insurance",
  "sourceName": "contracts/Insurance.sol",
  "abi": [
    {
      "inputs": [
        {
          "internalType": "address",
          "name": "oracle",
          "type": "address"
        },
        {
          "internalType": "address",
          "name": "linkMaticAddress",
          "type": "address"
        },
        {
          "internalType": "address",
          "name": "maticUsdAddress",
          "type": "address"
        },
        {
          "internalType": "uint64",
          "name": "subscriptionId",
          "type": "uint64"
        }
      ],
      "stateMutability": "nonpayable",
      "type": "constructor"
    },
    {
      "inputs": [],
      "name": "EmptyArgs",
      "type": "error"
    },
    {
      "inputs": [],
      "name": "EmptySource",
      "type": "error"
    },
    {
      "inputs": [],
      "name": "NoInlineSecrets",
      "type": "error"
    },
    {
      "inputs": [
        {
          "internalType": "address",
          "name": "have",
          "type": "address"
        },
        {
          "internalType": "address",
          "name": "want",
          "type": "address"
        }
      ],
      "name": "OnlyCoordinatorCanFulfill",
      "type": "error"
    },
    {
      "inputs": [],
      "name": "RequestIsAlreadyPending",
      "type": "error"
    },
    {
      "inputs": [],
      "name": "RequestIsNotPending",
      "type": "error"
    },
    {
      "inputs": [],
      "name": "SenderIsNotRegistry",
      "type": "error"
    },
    {
      "anonymous": false,
      "inputs": [
        {
          "indexed": true,
          "internalType": "bytes32",
          "name": "requestId",
          "type": "bytes32"
        }
      ],
      "name": "OCRRequest",
      "type": "event"
    },
    {
      "anonymous": false,
      "inputs": [
        {
          "indexed": true,
          "internalType": "bytes32",
          "name": "requestId",
          "type": "bytes32"
        },
        {
          "indexed": false,
          "internalType": "bytes",
          "name": "result",
          "type": "bytes"
        },
        {
          "indexed": false,
          "internalType": "bytes",
          "name": "err",
          "type": "bytes"
        }
      ],
      "name": "OCRResponse",
      "type": "event"
    },
    {
      "anonymous": false,
      "inputs": [
        {
          "indexed": true,
          "internalType": "address",
          "name": "from",
          "type": "address"
        },
        {
          "indexed": true,
          "internalType": "address",
          "name": "to",
          "type": "address"
        }
      ],
      "name": "OwnershipTransferRequested",
      "type": "event"
    },
    {
      "anonymous": false,
      "inputs": [
        {
          "indexed": true,
          "internalType": "address",
          "name": "from",
          "type": "address"
        },
        {
          "indexed": true,
          "internalType": "address",
          "name": "to",
          "type": "address"
        }
      ],
      "name": "OwnershipTransferred",
      "type": "event"
    },
    {
      "anonymous": false,
      "inputs": [
        {
          "indexed": false,
          "internalType": "address",
          "name": "policyOwner",
          "type": "address"
        },
        {
          "indexed": false,
          "internalType": "uint256",
          "name": "policyIndex",
          "type": "uint256"
        },
        {
          "indexed": false,
          "internalType": "uint256",
          "name": "cost",
          "type": "uint256"
        }
      ],
      "name": "PolicyCreated",
      "type": "event"
    },
    {
      "anonymous": false,
      "inputs": [
        {
          "indexed": false,
          "internalType": "address",
          "name": "policyOwner",
          "type": "address"
        },
        {
          "indexed": false,
          "internalType": "uint256",
          "name": "policyIndex",
          "type": "uint256"
        }
      ],
      "name": "PolicyEnded",
      "type": "event"
    },
    {
      "anonymous": false,
      "inputs": [
        {
          "indexed": false,
          "internalType": "address",
          "name": "policyOwner",
          "type": "address"
        },
        {
          "indexed": false,
          "internalType": "uint256",
          "name": "policyIndex",
          "type": "uint256"
        }
      ],
      "name": "PolicyStarted",
      "type": "event"
    },
    {
      "anonymous": false,
      "inputs": [
        {
          "indexed": false,
          "internalType": "uint256",
          "name": "requestId",
          "type": "uint256"
        },
        {
          "indexed": false,
          "internalType": "uint256[]",
          "name": "randomWords",
          "type": "uint256[]"
        }
      ],
      "name": "RequestFulfilled",
      "type": "event"
    },
    {
      "anonymous": false,
      "inputs": [
        {
          "indexed": true,
          "internalType": "bytes32",
          "name": "id",
          "type": "bytes32"
        }
      ],
      "name": "RequestFulfilled",
      "type": "event"
    },
    {
      "anonymous": false,
      "inputs": [
        {
          "indexed": false,
          "internalType": "uint256",
          "name": "requestId",
          "type": "uint256"
        },
        {
          "indexed": false,
          "internalType": "uint32",
          "name": "numWords",
          "type": "uint32"
        }
      ],
      "name": "RequestSent",
      "type": "event"
    },
    {
      "anonymous": false,
      "inputs": [
        {
          "indexed": true,
          "internalType": "bytes32",
          "name": "id",
          "type": "bytes32"
        }
      ],
      "name": "RequestSent",
      "type": "event"
    },
    {
      "anonymous": false,
      "inputs": [
        {
          "indexed": false,
          "internalType": "address",
          "name": "userAddress",
          "type": "address"
        },
        {
          "indexed": false,
          "internalType": "uint256",
          "name": "payoutAmountInMatic",
          "type": "uint256"
        }
      ],
      "name": "UserPaid",
      "type": "event"
    },
    {
      "inputs": [],
      "name": "acceptOwnership",
      "outputs": [],
      "stateMutability": "nonpayable",
      "type": "function"
    },
    {
      "inputs": [
        {
          "internalType": "address",
          "name": "oracleAddress",
          "type": "address"
        },
        {
          "internalType": "bytes32",
          "name": "requestId",
          "type": "bytes32"
        }
      ],
      "name": "addSimulatedRequestId",
      "outputs": [],
      "stateMutability": "nonpayable",
      "type": "function"
    },
    {
      "inputs": [],
      "name": "boolInsuranceData",
      "outputs": [
        {
          "internalType": "bool",
          "name": "",
          "type": "bool"
        }
      ],
      "stateMutability": "view",
      "type": "function"
    },
    {
      "inputs": [
        {
          "internalType": "bytes",
          "name": "input",
          "type": "bytes"
        }
      ],
      "name": "bytesToUint256",
      "outputs": [
        {
          "internalType": "uint256",
          "name": "result",
          "type": "uint256"
        }
      ],
      "stateMutability": "pure",
      "type": "function"
    },
    {
      "inputs": [],
      "name": "checkPayoutContract",
      "outputs": [
        {
          "internalType": "address",
          "name": "",
          "type": "address"
        }
      ],
      "stateMutability": "view",
      "type": "function"
    },
    {
      "inputs": [],
      "name": "constructionTime",
      "outputs": [
        {
          "internalType": "uint256",
          "name": "",
          "type": "uint256"
        }
      ],
      "stateMutability": "view",
      "type": "function"
    },
    {
      "inputs": [],
      "name": "currentTime",
      "outputs": [
        {
          "internalType": "uint256",
          "name": "",
          "type": "uint256"
        }
      ],
      "stateMutability": "view",
      "type": "function"
    },
    {
      "inputs": [
        {
          "internalType": "address",
          "name": "policyOwner",
          "type": "address"
        },
        {
          "internalType": "uint256",
          "name": "policyIndex",
          "type": "uint256"
        }
      ],
      "name": "endPolicy",
      "outputs": [],
      "stateMutability": "nonpayable",
      "type": "function"
    },
    {
      "inputs": [
        {
          "components": [
            {
              "internalType": "enum Functions.Location",
              "name": "codeLocation",
              "type": "uint8"
            },
            {
              "internalType": "enum Functions.Location",
              "name": "secretsLocation",
              "type": "uint8"
            },
            {
              "internalType": "enum Functions.CodeLanguage",
              "name": "language",
              "type": "uint8"
            },
            {
              "internalType": "string",
              "name": "source",
              "type": "string"
            },
            {
              "internalType": "bytes",
              "name": "secrets",
              "type": "bytes"
            },
            {
              "internalType": "string[]",
              "name": "args",
              "type": "string[]"
            }
          ],
          "internalType": "struct Functions.Request",
          "name": "req",
          "type": "tuple"
        },
        {
          "internalType": "uint64",
          "name": "subscriptionId",
          "type": "uint64"
        },
        {
          "internalType": "uint32",
          "name": "gasLimit",
          "type": "uint32"
        },
        {
          "internalType": "uint256",
          "name": "gasPrice",
          "type": "uint256"
        }
      ],
      "name": "estimateCost",
      "outputs": [
        {
          "internalType": "uint96",
          "name": "",
          "type": "uint96"
        }
      ],
      "stateMutability": "view",
      "type": "function"
    },
    {
      "inputs": [
        {
          "internalType": "string",
          "name": "source",
          "type": "string"
        },
        {
          "internalType": "string[]",
          "name": "args",
          "type": "string[]"
        },
        {
          "internalType": "uint64",
          "name": "subscriptionId",
          "type": "uint64"
        },
        {
          "internalType": "uint32",
          "name": "gasLimit",
          "type": "uint32"
        }
      ],
      "name": "estimateInsurance",
      "outputs": [
        {
          "internalType": "bytes32",
          "name": "",
          "type": "bytes32"
        }
      ],
      "stateMutability": "payable",
      "type": "function"
    },
    {
      "inputs": [
        {
          "internalType": "address",
          "name": "user",
          "type": "address"
        }
      ],
      "name": "getAllUserPolicies",
      "outputs": [
        {
          "components": [
            {
              "internalType": "string",
              "name": "latNe",
              "type": "string"
            },
            {
              "internalType": "string",
              "name": "longNe",
              "type": "string"
            },
            {
              "internalType": "string",
              "name": "latSe",
              "type": "string"
            },
            {
              "internalType": "string",
              "name": "longSe",
              "type": "string"
            },
            {
              "internalType": "string",
              "name": "latSw",
              "type": "string"
            },
            {
              "internalType": "string",
              "name": "longSw",
              "type": "string"
            },
            {
              "internalType": "string",
              "name": "latNw",
              "type": "string"
            },
            {
              "internalType": "string",
              "name": "longNw",
              "type": "string"
            },
            {
              "internalType": "string",
              "name": "configParam",
              "type": "string"
            },
            {
              "internalType": "string",
              "name": "startTime",
              "type": "string"
            },
            {
              "internalType": "string",
              "name": "endTime",
              "type": "string"
            },
            {
              "internalType": "string",
              "name": "policyCreationTime",
              "type": "string"
            }
          ],
          "internalType": "struct Insurance.InsuranceData[]",
          "name": "",
          "type": "tuple[]"
        }
      ],
      "stateMutability": "view",
      "type": "function"
    },
    {
      "inputs": [],
      "name": "getCurrentTime",
      "outputs": [
        {
          "internalType": "uint256",
          "name": "",
          "type": "uint256"
        }
      ],
      "stateMutability": "view",
      "type": "function"
    },
    {
      "inputs": [],
      "name": "getDONPublicKey",
      "outputs": [
        {
          "internalType": "bytes",
          "name": "",
          "type": "bytes"
        }
      ],
      "stateMutability": "view",
      "type": "function"
    },
    {
      "inputs": [
        {
          "internalType": "bytes32",
          "name": "requestId",
          "type": "bytes32"
        }
      ],
      "name": "getInsuranceQuoteData",
      "outputs": [
        {
          "components": [
            {
              "internalType": "address",
              "name": "user",
              "type": "address"
            },
            {
              "internalType": "uint256",
              "name": "policyIndex",
              "type": "uint256"
            },
            {
              "internalType": "uint256",
              "name": "cost",
              "type": "uint256"
            }
          ],
          "internalType": "struct Insurance.InsuranceQuoteData",
          "name": "",
          "type": "tuple"
        }
      ],
      "stateMutability": "view",
      "type": "function"
    },
    {
      "inputs": [],
      "name": "getLastRandomWord",
      "outputs": [
        {
          "internalType": "uint256",
          "name": "",
          "type": "uint256"
        }
      ],
      "stateMutability": "view",
      "type": "function"
    },
    {
      "inputs": [
        {
          "internalType": "address",
          "name": "user",
          "type": "address"
        },
        {
          "internalType": "uint256",
          "name": "policyIndex",
          "type": "uint256"
        }
      ],
      "name": "getPolicyData",
      "outputs": [
        {
          "components": [
            {
              "internalType": "string",
              "name": "latNe",
              "type": "string"
            },
            {
              "internalType": "string",
              "name": "longNe",
              "type": "string"
            },
            {
              "internalType": "string",
              "name": "latSe",
              "type": "string"
            },
            {
              "internalType": "string",
              "name": "longSe",
              "type": "string"
            },
            {
              "internalType": "string",
              "name": "latSw",
              "type": "string"
            },
            {
              "internalType": "string",
              "name": "longSw",
              "type": "string"
            },
            {
              "internalType": "string",
              "name": "latNw",
              "type": "string"
            },
            {
              "internalType": "string",
              "name": "longNw",
              "type": "string"
            },
            {
              "internalType": "string",
              "name": "configParam",
              "type": "string"
            },
            {
              "internalType": "string",
              "name": "startTime",
              "type": "string"
            },
            {
              "internalType": "string",
              "name": "endTime",
              "type": "string"
            },
            {
              "internalType": "string",
              "name": "policyCreationTime",
              "type": "string"
            }
          ],
          "internalType": "struct Insurance.InsuranceData",
          "name": "",
          "type": "tuple"
        }
      ],
      "stateMutability": "view",
      "type": "function"
    },
    {
      "inputs": [
        {
          "internalType": "address",
          "name": "_address",
          "type": "address"
        },
        {
          "internalType": "uint256",
          "name": "_policyIndex",
          "type": "uint256"
        }
      ],
      "name": "getPolicyRequestId",
      "outputs": [
        {
          "internalType": "bytes32",
          "name": "",
          "type": "bytes32"
        }
      ],
      "stateMutability": "view",
      "type": "function"
    },
    {
      "inputs": [],
      "name": "getPriceLinkMatic",
      "outputs": [
        {
          "internalType": "int256",
          "name": "",
          "type": "int256"
        }
      ],
      "stateMutability": "view",
      "type": "function"
    },
    {
      "inputs": [],
      "name": "getPriceMaticUsd",
      "outputs": [
        {
          "internalType": "int256",
          "name": "",
          "type": "int256"
        }
      ],
      "stateMutability": "view",
      "type": "function"
    },
    {
      "inputs": [
        {
          "internalType": "uint256",
          "name": "_requestId",
          "type": "uint256"
        }
      ],
      "name": "getRequestStatus",
      "outputs": [
        {
          "internalType": "bool",
          "name": "fulfilled",
          "type": "bool"
        },
        {
          "internalType": "uint256[]",
          "name": "randomWords",
          "type": "uint256[]"
        }
      ],
      "stateMutability": "view",
      "type": "function"
    },
    {
      "inputs": [
        {
          "internalType": "bytes32",
          "name": "requestId",
          "type": "bytes32"
        },
        {
          "internalType": "bytes",
          "name": "response",
          "type": "bytes"
        },
        {
          "internalType": "bytes",
          "name": "err",
          "type": "bytes"
        }
      ],
      "name": "handleOracleFulfillment",
      "outputs": [],
      "stateMutability": "nonpayable",
      "type": "function"
    },
    {
      "inputs": [],
      "name": "helloWorld",
      "outputs": [
        {
          "internalType": "string",
          "name": "",
          "type": "string"
        }
      ],
      "stateMutability": "view",
      "type": "function"
    },
    {
      "inputs": [
        {
          "internalType": "address",
          "name": "",
          "type": "address"
        },
        {
          "internalType": "uint256",
          "name": "",
          "type": "uint256"
        }
      ],
      "name": "insurancePoliciesMapping",
      "outputs": [
        {
          "internalType": "string",
          "name": "latNe",
          "type": "string"
        },
        {
          "internalType": "string",
          "name": "longNe",
          "type": "string"
        },
        {
          "internalType": "string",
          "name": "latSe",
          "type": "string"
        },
        {
          "internalType": "string",
          "name": "longSe",
          "type": "string"
        },
        {
          "internalType": "string",
          "name": "latSw",
          "type": "string"
        },
        {
          "internalType": "string",
          "name": "longSw",
          "type": "string"
        },
        {
          "internalType": "string",
          "name": "latNw",
          "type": "string"
        },
        {
          "internalType": "string",
          "name": "longNw",
          "type": "string"
        },
        {
          "internalType": "string",
          "name": "configParam",
          "type": "string"
        },
        {
          "internalType": "string",
          "name": "startTime",
          "type": "string"
        },
        {
          "internalType": "string",
          "name": "endTime",
          "type": "string"
        },
        {
          "internalType": "string",
          "name": "policyCreationTime",
          "type": "string"
        }
      ],
      "stateMutability": "view",
      "type": "function"
    },
    {
      "inputs": [
        {
          "internalType": "bytes32",
          "name": "",
          "type": "bytes32"
        }
      ],
      "name": "insuranceQuoteData",
      "outputs": [
        {
          "internalType": "address",
          "name": "user",
          "type": "address"
        },
        {
          "internalType": "uint256",
          "name": "policyIndex",
          "type": "uint256"
        },
        {
          "internalType": "uint256",
          "name": "cost",
          "type": "uint256"
        }
      ],
      "stateMutability": "view",
      "type": "function"
    },
    {
      "inputs": [],
      "name": "lastRequestId",
      "outputs": [
        {
          "internalType": "uint256",
          "name": "",
          "type": "uint256"
        }
      ],
      "stateMutability": "view",
      "type": "function"
    },
    {
      "inputs": [],
      "name": "latestError",
      "outputs": [
        {
          "internalType": "bytes",
          "name": "",
          "type": "bytes"
        }
      ],
      "stateMutability": "view",
      "type": "function"
    },
    {
      "inputs": [],
      "name": "latestRequestId",
      "outputs": [
        {
          "internalType": "bytes32",
          "name": "",
          "type": "bytes32"
        }
      ],
      "stateMutability": "view",
      "type": "function"
    },
    {
      "inputs": [],
      "name": "latestResponse",
      "outputs": [
        {
          "internalType": "bytes",
          "name": "",
          "type": "bytes"
        }
      ],
      "stateMutability": "view",
      "type": "function"
    },
    {
      "inputs": [],
      "name": "linkMaticPriceFeed",
      "outputs": [
        {
          "internalType": "contract LinkMaticPriceFeed",
          "name": "",
          "type": "address"
        }
      ],
      "stateMutability": "view",
      "type": "function"
    },
    {
      "inputs": [],
      "name": "maticUsdPriceFeed",
      "outputs": [
        {
          "internalType": "contract MaticUsdPriceFeed",
          "name": "",
          "type": "address"
        }
      ],
      "stateMutability": "view",
      "type": "function"
    },
    {
      "inputs": [],
      "name": "owner",
      "outputs": [
        {
          "internalType": "address",
          "name": "",
          "type": "address"
        }
      ],
      "stateMutability": "view",
      "type": "function"
    },
    {
      "inputs": [
        {
          "internalType": "address payable",
          "name": "userAddress",
          "type": "address"
        },
        {
          "internalType": "uint256",
          "name": "payoutAmount",
          "type": "uint256"
        }
      ],
      "name": "payUser",
      "outputs": [],
      "stateMutability": "nonpayable",
      "type": "function"
    },
    {
      "inputs": [
        {
          "internalType": "address",
          "name": "",
          "type": "address"
        },
        {
          "internalType": "uint256",
          "name": "",
          "type": "uint256"
        }
      ],
      "name": "policyRequestIdMapping",
      "outputs": [
        {
          "internalType": "bytes32",
          "name": "",
          "type": "bytes32"
        }
      ],
      "stateMutability": "view",
      "type": "function"
    },
    {
      "inputs": [
        {
          "internalType": "address",
          "name": "",
          "type": "address"
        },
        {
          "internalType": "uint256",
          "name": "",
          "type": "uint256"
        }
      ],
      "name": "policyStatus",
      "outputs": [
        {
          "internalType": "enum Insurance.PolicyStatus",
          "name": "",
          "type": "uint8"
        }
      ],
      "stateMutability": "view",
      "type": "function"
    },
    {
      "inputs": [
        {
          "internalType": "uint256",
          "name": "",
          "type": "uint256"
        }
      ],
      "name": "randomnessRequesterAddress",
      "outputs": [
        {
          "internalType": "address",
          "name": "",
          "type": "address"
        }
      ],
      "stateMutability": "view",
      "type": "function"
    },
    {
      "inputs": [
        {
          "internalType": "uint256",
          "name": "requestId",
          "type": "uint256"
        },
        {
          "internalType": "uint256[]",
          "name": "randomWords",
          "type": "uint256[]"
        }
      ],
      "name": "rawFulfillRandomWords",
      "outputs": [],
      "stateMutability": "nonpayable",
      "type": "function"
    },
    {
      "inputs": [
        {
          "internalType": "uint256",
          "name": "",
          "type": "uint256"
        }
      ],
      "name": "requestIds",
      "outputs": [
        {
          "internalType": "uint256",
          "name": "",
          "type": "uint256"
        }
      ],
      "stateMutability": "view",
      "type": "function"
    },
    {
      "inputs": [],
      "name": "requestRandomWords",
      "outputs": [
        {
          "internalType": "uint256",
          "name": "requestId",
          "type": "uint256"
        }
      ],
      "stateMutability": "nonpayable",
      "type": "function"
    },
    {
      "inputs": [
        {
          "internalType": "uint256",
          "name": "",
          "type": "uint256"
        }
      ],
      "name": "s_requests",
      "outputs": [
        {
          "internalType": "bool",
          "name": "fulfilled",
          "type": "bool"
        },
        {
          "internalType": "bool",
          "name": "exists",
          "type": "bool"
        }
      ],
      "stateMutability": "view",
      "type": "function"
    },
    {
      "inputs": [
        {
          "internalType": "address",
          "name": "_checkPayoutContract",
          "type": "address"
        }
      ],
      "name": "setCheckPayoutContract",
      "outputs": [],
      "stateMutability": "nonpayable",
      "type": "function"
    },
    {
      "inputs": [
        {
          "internalType": "bytes32",
          "name": "requestId",
          "type": "bytes32"
        }
      ],
      "name": "startPolicy",
      "outputs": [
        {
          "internalType": "uint256",
          "name": "",
          "type": "uint256"
        }
      ],
      "stateMutability": "payable",
      "type": "function"
    },
    {
      "inputs": [
        {
          "internalType": "address",
          "name": "to",
          "type": "address"
        }
      ],
      "name": "transferOwnership",
      "outputs": [],
      "stateMutability": "nonpayable",
      "type": "function"
    },
    {
      "inputs": [
        {
          "internalType": "address",
          "name": "oracle",
          "type": "address"
        }
      ],
      "name": "updateOracleAddress",
      "outputs": [],
      "stateMutability": "nonpayable",
      "type": "function"
    }
  ],
  "bytecode": "0x60a06040527f4b09e658ed251bcafeebbc69400383d49f344ace09b9576fe248bb02c003fe9f600955600a80546001600160501b03191666010003000493e017905542600f553480156200005257600080fd5b5060405162005d5d38038062005d5d8339810160408190526200007591620002a5565b600080546001600160a01b0319166001600160a01b0386161781557f7a1bac17ccc5b313516c5e16fb24f7659aa5ebed00000000000000000000000060805233908190816200010b5760405162461bcd60e51b815260206004820152601860248201527f43616e6e6f7420736574206f776e657220746f207a65726f000000000000000060448201526064015b60405180910390fd5b600280546001600160a01b0319166001600160a01b03848116919091179091558116156200013e576200013e81620001db565b5050600a80546001600160a01b039586166a010000000000000000000002600160501b600160f01b031990911617905550600b8054929093166001600160a01b031992831617909255600680546001600160401b03909316600160a01b026001600160e01b031990931692909217737a1bac17ccc5b313516c5e16fb24f7659aa5ebed179091554260055560048054909116331790555062000310565b6001600160a01b038116331415620002365760405162461bcd60e51b815260206004820152601760248201527f43616e6e6f74207472616e7366657220746f2073656c66000000000000000000604482015260640162000102565b600380546001600160a01b0319166001600160a01b03838116918217909255600254604051919216907fed8889f560326eb138920d842192f0eb3dd22b4f139c87a2c57538e05bae127890600090a350565b80516001600160a01b0381168114620002a057600080fd5b919050565b60008060008060808587031215620002bc57600080fd5b620002c78562000288565b9350620002d76020860162000288565b9250620002e76040860162000288565b60608601519092506001600160401b03811681146200030557600080fd5b939692955090935050565b60805160601c615a27620003366000396000818161149701526114f20152615a276000f3fe6080604052600436106102dc5760003560e01c8063b655cd9b11610184578063e0c86289116100d6578063f06c56101161008a578063f7023bb611610064578063f7023bb614610940578063fc2a88c314610960578063fffeb84e1461097657600080fd5b8063f06c5610146108c2578063f11da55b146108d8578063f2fde38b1461092057600080fd5b8063e3928b7f116100bb578063e3928b7f1461085f578063e5c33f3014610874578063ecd831e8146108a257600080fd5b8063e0c8628914610812578063e0e2fa9a1461082757600080fd5b8063c605f76c11610138578063d328a91e11610112578063d328a91e14610792578063d4b39175146107a7578063d8a4676f146107e457600080fd5b8063c605f76c14610714578063cc9de25d1461075a578063d18e81b31461077c57600080fd5b8063bc58d68c11610169578063bc58d68c146106b2578063bef3a2f0146106d2578063c0303c37146106f457600080fd5b8063b655cd9b14610665578063b91ce2051461069d57600080fd5b806361875d8d1161023d57806379ba5097116101f15780638da5cb5b116101cb5780638da5cb5b1461058c578063a168fa89146105aa578063b1011dbd146105fa57600080fd5b806379ba50971461052a578063808580261461053f5780638796ba8c1461056c57600080fd5b806369f8eaed1161022257806369f8eaed146104a75780636c6f9990146104c75780636ec7be7e146104e757600080fd5b806361875d8d1461046757806363d6634a1461049457600080fd5b80631fe543e31161029457806329cb924d1161027957806329cb924d146103e457806330bda99d146103f95780635ec7baca1461041957600080fd5b80631fe543e314610379578063215fc6251461039957600080fd5b80630b50567f116102c55780630b50567f1461032e5780630ca76175146103415780631aa46f591461036357600080fd5b806304b2303c146102e157806305f411d61461030b575b600080fd5b3480156102ed57600080fd5b506102f661098b565b60405190151581526020015b60405180910390f35b34801561031757600080fd5b506103206111b4565b604051908152602001610302565b61032061033c366004614e85565b61123f565b34801561034d57600080fd5b5061036161035c366004614eb7565b6113e6565b005b34801561036f57600080fd5b50610320600c5481565b34801561038557600080fd5b5061036161039436600461519c565b61148c565b3480156103a557600080fd5b506103b96103b4366004614e85565b61152d565b6040805182516001600160a01b03168152602080840151908201529181015190820152606001610302565b3480156103f057600080fd5b50600f54610320565b34801561040557600080fd5b50610361610414366004614e59565b611626565b34801561042557600080fd5b5061044f610434366004614e85565b6014602052600090815260409020546001600160a01b031681565b6040516001600160a01b039091168152602001610302565b34801561047357600080fd5b50610487610482366004614e59565b611638565b60405161030291906155fd565b6103206104a2366004614fcf565b611dc1565b3480156104b357600080fd5b506103616104c2366004614e1f565b612629565b3480156104d357600080fd5b50600b5461044f906001600160a01b031681565b3480156104f357600080fd5b50610320610502366004614e59565b6001600160a01b03919091166000908152601060209081526040808320938352929052205490565b34801561053657600080fd5b50610361612653565b34801561054b57600080fd5b5061055f61055a366004614e1f565b612708565b604051610302919061541a565b34801561057857600080fd5b50610320610587366004614e85565b612e56565b34801561059857600080fd5b506002546001600160a01b031661044f565b3480156105b657600080fd5b506105e36105c5366004614e85565b60156020526000908152604090205460ff8082169161010090041682565b604080519215158352901515602083015201610302565b34801561060657600080fd5b50610640610615366004614e85565b6012602052600090815260409020805460018201546002909201546001600160a01b03909116919083565b604080516001600160a01b039094168452602084019290925290820152606001610302565b34801561067157600080fd5b50610685610680366004614e59565b612e77565b6040516103029c9b9a999897969594939291906154f7565b3480156106a957600080fd5b50610320613554565b3480156106be57600080fd5b506103616106cd366004614e59565b613616565b3480156106de57600080fd5b506106e76136e8565b6040516103029190615497565b34801561070057600080fd5b5060045461044f906001600160a01b031681565b34801561072057600080fd5b5060408051808201909152600c81527f48656c6c6f20576f726c6421000000000000000000000000000000000000000060208201526106e7565b34801561076657600080fd5b50610320610775366004614f24565b6020015190565b34801561078857600080fd5b50610320600f5481565b34801561079e57600080fd5b506106e7613776565b3480156107b357600080fd5b506107c76107c236600461508a565b61380f565b6040516bffffffffffffffffffffffff9091168152602001610302565b3480156107f057600080fd5b506108046107ff366004614e85565b6138a5565b60405161030292919061547c565b34801561081e57600080fd5b506103206139a5565b34801561083357600080fd5b50610320610842366004614e59565b601060209081526000928352604080842090915290825290205481565b34801561086b57600080fd5b50610320613bc2565b34801561088057600080fd5b50600a5461044f906a010000000000000000000090046001600160a01b031681565b3480156108ae57600080fd5b506103616108bd366004614e59565b613c20565b3480156108ce57600080fd5b5061032060055481565b3480156108e457600080fd5b506109136108f3366004614e59565b601160209081526000928352604080842090915290825290205460ff1681565b60405161030291906154cf565b34801561092c57600080fd5b5061036161093b366004614e1f565b613d32565b34801561094c57600080fd5b5061036161095b366004614e1f565b613d46565b34801561096c57600080fd5b5061032060085481565b34801561098257600080fd5b506106e7613d6c565b33600090815260136020526040812080546109ed5760405162461bcd60e51b815260206004820152601760248201527f4e6f20696e737572616e6365206461746120666f756e6400000000000000000060448201526064015b60405180910390fd5b60005b81548110156111ab576000828281548110610a0d57610a0d6159b0565b90600052602060002090600c020160405180610180016040529081600082018054610a3790615904565b80601f0160208091040260200160405190810160405280929190818152602001828054610a6390615904565b8015610ab05780601f10610a8557610100808354040283529160200191610ab0565b820191906000526020600020905b815481529060010190602001808311610a9357829003601f168201915b50505050508152602001600182018054610ac990615904565b80601f0160208091040260200160405190810160405280929190818152602001828054610af590615904565b8015610b425780601f10610b1757610100808354040283529160200191610b42565b820191906000526020600020905b815481529060010190602001808311610b2557829003601f168201915b50505050508152602001600282018054610b5b90615904565b80601f0160208091040260200160405190810160405280929190818152602001828054610b8790615904565b8015610bd45780601f10610ba957610100808354040283529160200191610bd4565b820191906000526020600020905b815481529060010190602001808311610bb757829003601f168201915b50505050508152602001600382018054610bed90615904565b80601f0160208091040260200160405190810160405280929190818152602001828054610c1990615904565b8015610c665780601f10610c3b57610100808354040283529160200191610c66565b820191906000526020600020905b815481529060010190602001808311610c4957829003601f168201915b50505050508152602001600482018054610c7f90615904565b80601f0160208091040260200160405190810160405280929190818152602001828054610cab90615904565b8015610cf85780601f10610ccd57610100808354040283529160200191610cf8565b820191906000526020600020905b815481529060010190602001808311610cdb57829003601f168201915b50505050508152602001600582018054610d1190615904565b80601f0160208091040260200160405190810160405280929190818152602001828054610d3d90615904565b8015610d8a5780601f10610d5f57610100808354040283529160200191610d8a565b820191906000526020600020905b815481529060010190602001808311610d6d57829003601f168201915b50505050508152602001600682018054610da390615904565b80601f0160208091040260200160405190810160405280929190818152602001828054610dcf90615904565b8015610e1c5780601f10610df157610100808354040283529160200191610e1c565b820191906000526020600020905b815481529060010190602001808311610dff57829003601f168201915b50505050508152602001600782018054610e3590615904565b80601f0160208091040260200160405190810160405280929190818152602001828054610e6190615904565b8015610eae5780601f10610e8357610100808354040283529160200191610eae565b820191906000526020600020905b815481529060010190602001808311610e9157829003601f168201915b50505050508152602001600882018054610ec790615904565b80601f0160208091040260200160405190810160405280929190818152602001828054610ef390615904565b8015610f405780601f10610f1557610100808354040283529160200191610f40565b820191906000526020600020905b815481529060010190602001808311610f2357829003601f168201915b50505050508152602001600982018054610f5990615904565b80601f0160208091040260200160405190810160405280929190818152602001828054610f8590615904565b8015610fd25780601f10610fa757610100808354040283529160200191610fd2565b820191906000526020600020905b815481529060010190602001808311610fb557829003601f168201915b50505050508152602001600a82018054610feb90615904565b80601f016020809104026020016040519081016040528092919081815260200182805461101790615904565b80156110645780601f1061103957610100808354040283529160200191611064565b820191906000526020600020905b81548152906001019060200180831161104757829003601f168201915b50505050508152602001600b8201805461107d90615904565b80601f01602080910402602001604051908101604052809291908181526020018280546110a990615904565b80156110f65780601f106110cb576101008083540402835291602001916110f6565b820191906000526020600020905b8154815290600101906020018083116110d957829003601f168201915b50505050508152505090508060c001515160001415801561111b575060e08101515115155b8015611128575080515115155b8015611138575060208101515115155b8015611148575060408101515115155b8015611158575060608101515115155b8015611168575060808101515115155b8015611178575060a08101515115155b801561118957506101008101515115155b15611198576001935050505090565b50806111a38161593f565b9150506109f0565b50600091505090565b6000600a8054906101000a90046001600160a01b03166001600160a01b0316638e15f4736040518163ffffffff1660e01b815260040160206040518083038186803b15801561120257600080fd5b505afa158015611216573d6000803e3d6000fd5b505050506040513d601f19601f8201168201806040525081019061123a9190614e9e565b905090565b600081815260126020908152604080832060028101546001820154338652601390945291842080549193918591908390811061127d5761127d6159b0565b6000918252602080832033845260118252604080852087865290925290832054600c9290920201925060ff1660028111156112ba576112ba61599a565b146113075760405162461bcd60e51b815260206004820152601560248201527f506f6c696379206973206e6f742070656e64696e67000000000000000000000060448201526064016109e4565b6000611311613bc2565b9050600081611324866305f5e1006158a2565b61132e91906157a3565b9050803410156113805760405162461bcd60e51b815260206004820152601560248201527f4e6f7420656e6f756768204d617469632073656e74000000000000000000000060448201526064016109e4565b336000818152601160209081526040808320888452825291829020805460ff19166001179055815192835282018690527f153598a6c97963bd4d16e97786943eb68bcc8ca58077614327e965efe69fa110910160405180910390a1505050505050919050565b60008381526001602052604090205483906001600160a01b03163314611438576040517fa0c5ec6300000000000000000000000000000000000000000000000000000000815260040160405180910390fd5b60008181526001602052604080822080546001600160a01b03191690555182917f85e1543bf2f84fe80c6badbce3648c8539ad1df4d2b3d822938ca0538be727e691a2611486848484613d79565b50505050565b336001600160a01b037f0000000000000000000000000000000000000000000000000000000000000000161461151f576040517f1cf993f40000000000000000000000000000000000000000000000000000000081523360048201526001600160a01b037f00000000000000000000000000000000000000000000000000000000000000001660248201526044016109e4565b6115298282613e5a565b5050565b61155a604051806060016040528060006001600160a01b0316815260200160008152602001600081525090565b6000828152601260205260409020546001600160a01b03166115e45760405162461bcd60e51b815260206004820152602560248201527f4e6f206461746120666f756e6420666f722074686520676976656e207265717560448201527f657374496400000000000000000000000000000000000000000000000000000060648201526084016109e4565b50600090815260126020908152604091829020825160608101845281546001600160a01b03168152600182015492810192909252600201549181019190915290565b61162e613f20565b6115298282613f7c565b61169c6040518061018001604052806060815260200160608152602001606081526020016060815260200160608152602001606081526020016060815260200160608152602001606081526020016060815260200160608152602001606081525090565b6001600160a01b03831660009081526013602052604090208054839081106116c6576116c66159b0565b90600052602060002090600c0201604051806101800160405290816000820180546116f090615904565b80601f016020809104026020016040519081016040528092919081815260200182805461171c90615904565b80156117695780601f1061173e57610100808354040283529160200191611769565b820191906000526020600020905b81548152906001019060200180831161174c57829003601f168201915b5050505050815260200160018201805461178290615904565b80601f01602080910402602001604051908101604052809291908181526020018280546117ae90615904565b80156117fb5780601f106117d0576101008083540402835291602001916117fb565b820191906000526020600020905b8154815290600101906020018083116117de57829003601f168201915b5050505050815260200160028201805461181490615904565b80601f016020809104026020016040519081016040528092919081815260200182805461184090615904565b801561188d5780601f106118625761010080835404028352916020019161188d565b820191906000526020600020905b81548152906001019060200180831161187057829003601f168201915b505050505081526020016003820180546118a690615904565b80601f01602080910402602001604051908101604052809291908181526020018280546118d290615904565b801561191f5780601f106118f45761010080835404028352916020019161191f565b820191906000526020600020905b81548152906001019060200180831161190257829003601f168201915b5050505050815260200160048201805461193890615904565b80601f016020809104026020016040519081016040528092919081815260200182805461196490615904565b80156119b15780601f10611986576101008083540402835291602001916119b1565b820191906000526020600020905b81548152906001019060200180831161199457829003601f168201915b505050505081526020016005820180546119ca90615904565b80601f01602080910402602001604051908101604052809291908181526020018280546119f690615904565b8015611a435780601f10611a1857610100808354040283529160200191611a43565b820191906000526020600020905b815481529060010190602001808311611a2657829003601f168201915b50505050508152602001600682018054611a5c90615904565b80601f0160208091040260200160405190810160405280929190818152602001828054611a8890615904565b8015611ad55780601f10611aaa57610100808354040283529160200191611ad5565b820191906000526020600020905b815481529060010190602001808311611ab857829003601f168201915b50505050508152602001600782018054611aee90615904565b80601f0160208091040260200160405190810160405280929190818152602001828054611b1a90615904565b8015611b675780601f10611b3c57610100808354040283529160200191611b67565b820191906000526020600020905b815481529060010190602001808311611b4a57829003601f168201915b50505050508152602001600882018054611b8090615904565b80601f0160208091040260200160405190810160405280929190818152602001828054611bac90615904565b8015611bf95780601f10611bce57610100808354040283529160200191611bf9565b820191906000526020600020905b815481529060010190602001808311611bdc57829003601f168201915b50505050508152602001600982018054611c1290615904565b80601f0160208091040260200160405190810160405280929190818152602001828054611c3e90615904565b8015611c8b5780601f10611c6057610100808354040283529160200191611c8b565b820191906000526020600020905b815481529060010190602001808311611c6e57829003601f168201915b50505050508152602001600a82018054611ca490615904565b80601f0160208091040260200160405190810160405280929190818152602001828054611cd090615904565b8015611d1d5780601f10611cf257610100808354040283529160200191611d1d565b820191906000526020600020905b815481529060010190602001808311611d0057829003601f168201915b50505050508152602001600b82018054611d3690615904565b80601f0160208091040260200160405190810160405280929190818152602001828054611d6290615904565b8015611daf5780601f10611d8457610100808354040283529160200191611daf565b820191906000526020600020905b815481529060010190602001808311611d9257829003601f168201915b50505050508152505090505b92915050565b6000600b8414611e135760405162461bcd60e51b815260206004820152601b60248201527f496e76616c6964206e756d626572206f6620617267756d656e7473000000000060448201526064016109e4565b33600090815260136020526040812090611e2c42613ffc565b90508160405180610180016040528089896000818110611e4e57611e4e6159b0565b9050602002810190611e60919061569e565b8080601f01602080910402602001604051908101604052809392919081815260200183838082843760009201919091525050509082525060200189896001818110611ead57611ead6159b0565b9050602002810190611ebf919061569e565b8080601f01602080910402602001604051908101604052809392919081815260200183838082843760009201919091525050509082525060200189896002818110611f0c57611f0c6159b0565b9050602002810190611f1e919061569e565b8080601f01602080910402602001604051908101604052809392919081815260200183838082843760009201919091525050509082525060200189896003818110611f6b57611f6b6159b0565b9050602002810190611f7d919061569e565b8080601f01602080910402602001604051908101604052809392919081815260200183838082843760009201919091525050509082525060200189896004818110611fca57611fca6159b0565b9050602002810190611fdc919061569e565b8080601f01602080910402602001604051908101604052809392919081815260200183838082843760009201919091525050509082525060200189896005818110612029576120296159b0565b905060200281019061203b919061569e565b8080601f01602080910402602001604051908101604052809392919081815260200183838082843760009201919091525050509082525060200189896006818110612088576120886159b0565b905060200281019061209a919061569e565b8080601f016020809104026020016040519081016040528093929190818152602001838380828437600092019190915250505090825250602001898960078181106120e7576120e76159b0565b90506020028101906120f9919061569e565b8080601f01602080910402602001604051908101604052809392919081815260200183838082843760009201919091525050509082525060200189896008818110612146576121466159b0565b9050602002810190612158919061569e565b8080601f016020809104026020016040519081016040528093929190818152602001838380828437600092019190915250505090825250602001898960098181106121a5576121a56159b0565b90506020028101906121b7919061569e565b8080601f0160208091040260200160405190810160405280939291908181526020018383808284376000920191909152505050908252506020018989600a818110612204576122046159b0565b9050602002810190612216919061569e565b8080601f016020809104026020016040519081016040528093929190818152602001838380828437600092018290525093855250505060209182018590528354600181018555938152819020825180519394600c029091019261227c9284920190614b94565b5060208281015180516122959260018501920190614b94565b50604082015180516122b1916002840191602090910190614b94565b50606082015180516122cd916003840191602090910190614b94565b50608082015180516122e9916004840191602090910190614b94565b5060a08201518051612305916005840191602090910190614b94565b5060c08201518051612321916006840191602090910190614b94565b5060e0820151805161233d916007840191602090910190614b94565b50610100820151805161235a916008840191602090910190614b94565b506101208201518051612377916009840191602090910190614b94565b50610140820151805161239491600a840191602090910190614b94565b5061016082015180516123b191600b840191602090910190614b94565b5050336000908152601360205260408120549091506123d2906001906158c1565b905061240e6040805160c08101909152806000815260200160008152602001600081526020016060815260200160608152602001606081525090565b6124556000808d8d8080601f016020809104026020016040519081016040528093929190818152602001838380828437600092019190915250879594939250506140a69050565b600061246289600161578b565b67ffffffffffffffff81111561247a5761247a6159c6565b6040519080825280602002602001820160405280156124ad57816020015b60608152602001906001900390816124985790505b50905060005b89811015612545578a8a828181106124cd576124cd6159b0565b90506020028101906124df919061569e565b8080601f0160208091040260200160405190810160405280939291908181526020018383808284376000920191909152505084518592508491508110612527576125276159b0565b6020026020010181905250808061253d9061593f565b9150506124b3565b5083818b8b90508151811061255c5761255c6159b0565b6020908102919091010152612571828261413a565b600061257e838a8a61417a565b60408051606081018252338082526020808301898152600084860181815287825260128452868220955186546001600160a01b0319166001600160a01b03909116178655915160018601559051600290940193909355600c859055908252601081528282208883529052818120839055905191925082917f0790d5075e76350b19c3d15f0de9144077f6fb31397b526ce8664d7faf7dde6b9190a29c9b505050505050505050505050565b612631613f20565b600480546001600160a01b0319166001600160a01b0392909216919091179055565b6003546001600160a01b031633146126ad5760405162461bcd60e51b815260206004820152601660248201527f4d7573742062652070726f706f736564206f776e65720000000000000000000060448201526064016109e4565b600280546001600160a01b0319808216339081179093556003805490911690556040516001600160a01b03909116919082907f8be0079c531659141344cd1fd0a4f28419497f9722a3daafe3b4186f6b6457e090600090a350565b6001600160a01b0381166000908152601360209081526040808320805482518185028101850190935280835260609492939192909184015b82821015612e4b57838290600052602060002090600c02016040518061018001604052908160008201805461277490615904565b80601f01602080910402602001604051908101604052809291908181526020018280546127a090615904565b80156127ed5780601f106127c2576101008083540402835291602001916127ed565b820191906000526020600020905b8154815290600101906020018083116127d057829003601f168201915b5050505050815260200160018201805461280690615904565b80601f016020809104026020016040519081016040528092919081815260200182805461283290615904565b801561287f5780601f106128545761010080835404028352916020019161287f565b820191906000526020600020905b81548152906001019060200180831161286257829003601f168201915b5050505050815260200160028201805461289890615904565b80601f01602080910402602001604051908101604052809291908181526020018280546128c490615904565b80156129115780601f106128e657610100808354040283529160200191612911565b820191906000526020600020905b8154815290600101906020018083116128f457829003601f168201915b5050505050815260200160038201805461292a90615904565b80601f016020809104026020016040519081016040528092919081815260200182805461295690615904565b80156129a35780601f10612978576101008083540402835291602001916129a3565b820191906000526020600020905b81548152906001019060200180831161298657829003601f168201915b505050505081526020016004820180546129bc90615904565b80601f01602080910402602001604051908101604052809291908181526020018280546129e890615904565b8015612a355780601f10612a0a57610100808354040283529160200191612a35565b820191906000526020600020905b815481529060010190602001808311612a1857829003601f168201915b50505050508152602001600582018054612a4e90615904565b80601f0160208091040260200160405190810160405280929190818152602001828054612a7a90615904565b8015612ac75780601f10612a9c57610100808354040283529160200191612ac7565b820191906000526020600020905b815481529060010190602001808311612aaa57829003601f168201915b50505050508152602001600682018054612ae090615904565b80601f0160208091040260200160405190810160405280929190818152602001828054612b0c90615904565b8015612b595780601f10612b2e57610100808354040283529160200191612b59565b820191906000526020600020905b815481529060010190602001808311612b3c57829003601f168201915b50505050508152602001600782018054612b7290615904565b80601f0160208091040260200160405190810160405280929190818152602001828054612b9e90615904565b8015612beb5780601f10612bc057610100808354040283529160200191612beb565b820191906000526020600020905b815481529060010190602001808311612bce57829003601f168201915b50505050508152602001600882018054612c0490615904565b80601f0160208091040260200160405190810160405280929190818152602001828054612c3090615904565b8015612c7d5780601f10612c5257610100808354040283529160200191612c7d565b820191906000526020600020905b815481529060010190602001808311612c6057829003601f168201915b50505050508152602001600982018054612c9690615904565b80601f0160208091040260200160405190810160405280929190818152602001828054612cc290615904565b8015612d0f5780601f10612ce457610100808354040283529160200191612d0f565b820191906000526020600020905b815481529060010190602001808311612cf257829003601f168201915b50505050508152602001600a82018054612d2890615904565b80601f0160208091040260200160405190810160405280929190818152602001828054612d5490615904565b8015612da15780601f10612d7657610100808354040283529160200191612da1565b820191906000526020600020905b815481529060010190602001808311612d8457829003601f168201915b50505050508152602001600b82018054612dba90615904565b80601f0160208091040260200160405190810160405280929190818152602001828054612de690615904565b8015612e335780601f10612e0857610100808354040283529160200191612e33565b820191906000526020600020905b815481529060010190602001808311612e1657829003601f168201915b50505050508152505081526020019060010190612740565b505050509050919050565b60078181548110612e6657600080fd5b600091825260209091200154905081565b60136020528160005260406000208181548110612e9357600080fd5b90600052602060002090600c020160009150915050806000018054612eb790615904565b80601f0160208091040260200160405190810160405280929190818152602001828054612ee390615904565b8015612f305780601f10612f0557610100808354040283529160200191612f30565b820191906000526020600020905b815481529060010190602001808311612f1357829003601f168201915b505050505090806001018054612f4590615904565b80601f0160208091040260200160405190810160405280929190818152602001828054612f7190615904565b8015612fbe5780601f10612f9357610100808354040283529160200191612fbe565b820191906000526020600020905b815481529060010190602001808311612fa157829003601f168201915b505050505090806002018054612fd390615904565b80601f0160208091040260200160405190810160405280929190818152602001828054612fff90615904565b801561304c5780601f106130215761010080835404028352916020019161304c565b820191906000526020600020905b81548152906001019060200180831161302f57829003601f168201915b50505050509080600301805461306190615904565b80601f016020809104026020016040519081016040528092919081815260200182805461308d90615904565b80156130da5780601f106130af576101008083540402835291602001916130da565b820191906000526020600020905b8154815290600101906020018083116130bd57829003601f168201915b5050505050908060040180546130ef90615904565b80601f016020809104026020016040519081016040528092919081815260200182805461311b90615904565b80156131685780601f1061313d57610100808354040283529160200191613168565b820191906000526020600020905b81548152906001019060200180831161314b57829003601f168201915b50505050509080600501805461317d90615904565b80601f01602080910402602001604051908101604052809291908181526020018280546131a990615904565b80156131f65780601f106131cb576101008083540402835291602001916131f6565b820191906000526020600020905b8154815290600101906020018083116131d957829003601f168201915b50505050509080600601805461320b90615904565b80601f016020809104026020016040519081016040528092919081815260200182805461323790615904565b80156132845780601f1061325957610100808354040283529160200191613284565b820191906000526020600020905b81548152906001019060200180831161326757829003601f168201915b50505050509080600701805461329990615904565b80601f01602080910402602001604051908101604052809291908181526020018280546132c590615904565b80156133125780601f106132e757610100808354040283529160200191613312565b820191906000526020600020905b8154815290600101906020018083116132f557829003601f168201915b50505050509080600801805461332790615904565b80601f016020809104026020016040519081016040528092919081815260200182805461335390615904565b80156133a05780601f10613375576101008083540402835291602001916133a0565b820191906000526020600020905b81548152906001019060200180831161338357829003601f168201915b5050505050908060090180546133b590615904565b80601f01602080910402602001604051908101604052809291908181526020018280546133e190615904565b801561342e5780601f106134035761010080835404028352916020019161342e565b820191906000526020600020905b81548152906001019060200180831161341157829003601f168201915b50505050509080600a01805461344390615904565b80601f016020809104026020016040519081016040528092919081815260200182805461346f90615904565b80156134bc5780601f10613491576101008083540402835291602001916134bc565b820191906000526020600020905b81548152906001019060200180831161349f57829003601f168201915b50505050509080600b0180546134d190615904565b80601f01602080910402602001604051908101604052809291908181526020018280546134fd90615904565b801561354a5780601f1061351f5761010080835404028352916020019161354a565b820191906000526020600020905b81548152906001019060200180831161352d57829003601f168201915b505050505090508c565b600854600090815260156020526040812054610100900460ff166135e05760405162461bcd60e51b815260206004820152602760248201527f4e6f2072616e646f6d20776f7264732068617665206265656e2067656e65726160448201527f746564207965740000000000000000000000000000000000000000000000000060648201526084016109e4565b600854600090815260156020526040812060010180548290613604576136046159b0565b60009182526020909120015492915050565b6004546001600160a01b0316331461367f5760405162461bcd60e51b815260206004820152602660248201527f43616c6c6572206973206e6f742074686520436865636b5061796f757420636f6044820152651b9d1c9858dd60d21b60648201526084016109e4565b6001600160a01b0382166000818152601160209081526040808320858452825291829020805460ff19166002179055815192835282018390527f05e258a8da32249e7d7e1ebcd6b64f7c97c4235999db64b6687191b183d5e3f291015b60405180910390a15050565b600d80546136f590615904565b80601f016020809104026020016040519081016040528092919081815260200182805461372190615904565b801561376e5780601f106137435761010080835404028352916020019161376e565b820191906000526020600020905b81548152906001019060200180831161375157829003601f168201915b505050505081565b60008054604080517fd328a91e00000000000000000000000000000000000000000000000000000000815290516060936001600160a01b039093169263d328a91e9260048082019391829003018186803b1580156137d357600080fd5b505afa1580156137e7573d6000803e3d6000fd5b505050506040513d6000823e601f3d908101601f1916820160405261123a9190810190614f61565b600080546001600160a01b031663d227d2458561382b886142ec565b86866040518563ffffffff1660e01b815260040161384c9493929190615662565b60206040518083038186803b15801561386457600080fd5b505afa158015613878573d6000803e3d6000fd5b505050506040513d601f19601f8201168201806040525081019061389c9190615240565b95945050505050565b600081815260156020526040812054606090610100900460ff1661390b5760405162461bcd60e51b815260206004820152601160248201527f72657175657374206e6f7420666f756e6400000000000000000000000000000060448201526064016109e4565b60008381526015602090815260408083208151606081018352815460ff808216151583526101009091041615158185015260018201805484518187028101870186528181529295939486019383018282801561398657602002820191906000526020600020905b815481526020019060010190808311613972575b5050505050815250509050806000015181604001519250925050915091565b60006139af613f20565b600654600954600a546040517f5d3b1d30000000000000000000000000000000000000000000000000000000008152600481019290925274010000000000000000000000000000000000000000830467ffffffffffffffff166024830152640100000000810461ffff16604483015263ffffffff808216606484015266010000000000009091041660848201526001600160a01b0390911690635d3b1d309060a401602060405180830381600087803b158015613a6b57600080fd5b505af1158015613a7f573d6000803e3d6000fd5b505050506040513d601f19601f82011682018060405250810190613aa39190614e9e565b6040805160608101825260008082526001602080840182815285518481528083018752858701908152878552601583529590932084518154945161ffff1990951690151561ff00191617610100941515949094029390931783559351805195965092949193613b189391850192910190614c18565b505060078054600181019091557fa66cc928b5edb82af9bd49922954155ab7b0942694bea4ce44661d9a8736c688018290555060088190556000818152601460209081526040918290208054336001600160a01b0319909116179055600a548251848152660100000000000090910463ffffffff16918101919091527fcc58b13ad3eab50626c6a6300b1d139cd6ebb1688a7cced9461c2f7e762665ee910160405180910390a190565b600b54604080517f8e15f47300000000000000000000000000000000000000000000000000000000815290516000926001600160a01b031691638e15f473916004808301926020929190829003018186803b15801561120257600080fd5b6004546001600160a01b03163314613c895760405162461bcd60e51b815260206004820152602660248201527f43616c6c6572206973206e6f742074686520436865636b5061796f757420636f6044820152651b9d1c9858dd60d21b60648201526084016109e4565b6000613c93613bc2565b9050600081613ca6846305f5e1006158a2565b613cb091906157a3565b6040519091506001600160a01b0385169082156108fc029083906000818181858888f19350505050158015613ce9573d6000803e3d6000fd5b50604080516001600160a01b0386168152602081018390527f188c4d19b4fadd1889d9bd9bf0ab7c97e0719434751e6c05feac6339c1c001ec910160405180910390a150505050565b613d3a613f20565b613d43816145b8565b50565b613d4e613f20565b600080546001600160a01b0319166001600160a01b03831617905550565b600e80546136f590615904565b600083815260126020526040812090613d93846020015190565b600283018190558451909150613db090600d906020870190614b94565b508251613dc490600e906020860190614b94565b50847f7bab0ec163b5c132c72b8146ac4d6e067e82ed58f8b131150aa71c92589115628585604051613df79291906154aa565b60405180910390a2815460018301546002840154604080516001600160a01b039094168452602084019290925282820152517f93aceb1c5e55aa194781a0423a101b97efa4a051e8d2fc2ba332ca75f4e4b6a79181900360600190a15050505050565b600082815260156020526040902054610100900460ff16613ebd5760405162461bcd60e51b815260206004820152601160248201527f72657175657374206e6f7420666f756e6400000000000000000000000000000060448201526064016109e4565b6000828152601560209081526040909120805460ff1916600190811782558351613eee939290910191840190614c18565b507ffe2e2d779dba245964d4e3ef9b994be63856fd568bf7d3ca9e224755cb1bd54d82826040516136dc929190615610565b6002546001600160a01b03163314613f7a5760405162461bcd60e51b815260206004820152601660248201527f4f6e6c792063616c6c61626c65206279206f776e65720000000000000000000060448201526064016109e4565b565b60008181526001602052604090205481906001600160a01b031615613fcd576040517f8b457ad200000000000000000000000000000000000000000000000000000000815260040160405180910390fd5b50600090815260016020526040902080546001600160a01b0319166001600160a01b0392909216919091179055565b6060600061400983614663565b600101905060008167ffffffffffffffff811115614029576140296159c6565b6040519080825280601f01601f191660200182016040528015614053576020820181803683370190505b5090508181016020015b600019017f3031323334353637383961626364656600000000000000000000000000000000600a86061a8153600a85049450846140995761409e565b61405d565b509392505050565b80516140de576040517f22ce3edd00000000000000000000000000000000000000000000000000000000815260040160405180910390fd5b838360018111156140f1576140f161599a565b908160018111156141045761410461599a565b9052506040840182801561411a5761411a61599a565b9081801561412a5761412a61599a565b9052506060909301929092525050565b8051614172576040517ffe936cb700000000000000000000000000000000000000000000000000000000815260040160405180910390fd5b60a090910152565b6000805481906001600160a01b03166328242b0485614198886142ec565b866040518463ffffffff1660e01b81526004016141b793929190615629565b602060405180830381600087803b1580156141d157600080fd5b505af11580156141e5573d6000803e3d6000fd5b505050506040513d601f19601f820116820180604052508101906142099190614e9e565b905060008054906101000a90046001600160a01b03166001600160a01b0316635ab1bd536040518163ffffffff1660e01b815260040160206040518083038186803b15801561425757600080fd5b505afa15801561426b573d6000803e3d6000fd5b505050506040513d601f19601f8201168201806040525081019061428f9190614e3c565b60008281526001602052604080822080546001600160a01b0319166001600160a01b039490941693909317909255905182917f1131472297a800fee664d1d89cfa8f7676ff07189ecc53f80bbb5f4969099db891a2949350505050565b60606142f6614c52565b805161430490610100614745565b50614344816040518060400160405280600c81526020017f636f64654c6f636174696f6e00000000000000000000000000000000000000008152506147bc565b614363818460000151600181111561435e5761435e61599a565b6147da565b6143a2816040518060400160405280600881526020017f6c616e67756167650000000000000000000000000000000000000000000000008152506147bc565b6143bc818460400151600081111561435e5761435e61599a565b6143fb816040518060400160405280600681526020017f736f7572636500000000000000000000000000000000000000000000000000008152506147bc565b6144098184606001516147bc565b60a083015151156144af57614453816040518060400160405280600481526020017f61726773000000000000000000000000000000000000000000000000000000008152506147bc565b61445c81614813565b60005b8360a00151518110156144a557614493828560a001518381518110614486576144866159b0565b60200260200101516147bc565b8061449d8161593f565b91505061445f565b506144af81614837565b608083015151156145b0576000836020015160018111156144d2576144d261599a565b141561450a576040517fa80d31f700000000000000000000000000000000000000000000000000000000815260040160405180910390fd5b614549816040518060400160405280600f81526020017f736563726574734c6f636174696f6e00000000000000000000000000000000008152506147bc565b614563818460200151600181111561435e5761435e61599a565b6145a2816040518060400160405280600781526020017f73656372657473000000000000000000000000000000000000000000000000008152506147bc565b6145b0818460800151614855565b515192915050565b6001600160a01b0381163314156146115760405162461bcd60e51b815260206004820152601760248201527f43616e6e6f74207472616e7366657220746f2073656c6600000000000000000060448201526064016109e4565b600380546001600160a01b0319166001600160a01b03838116918217909255600254604051919216907fed8889f560326eb138920d842192f0eb3dd22b4f139c87a2c57538e05bae127890600090a350565b6000807a184f03e93ff9f4daa797ed6e38ed64bf6a1f01000000000000000083106146ac577a184f03e93ff9f4daa797ed6e38ed64bf6a1f010000000000000000830492506040015b6d04ee2d6d415b85acef810000000083106146d8576d04ee2d6d415b85acef8100000000830492506020015b662386f26fc1000083106146f657662386f26fc10000830492506010015b6305f5e100831061470e576305f5e100830492506008015b612710831061472257612710830492506004015b60648310614734576064830492506002015b600a8310611dbb5760010192915050565b60408051808201909152606081526000602082015261476560208361595a565b1561478d5761477560208361595a565b6147809060206158c1565b61478a908361578b565b91505b6020808401839052604051808552600081529081840101818110156147b157600080fd5b604052509192915050565b6147c9826003835161485e565b81516147d5908261497f565b505050565b81516147e79060c26149a7565b5061152982826040516020016147ff91815260200190565b604051602081830303815290604052614855565b61481e816004614a10565b600181602001818151614831919061578b565b90525050565b614842816007614a10565b60018160200181815161483191906158c1565b6147c982600283515b60178167ffffffffffffffff16116148855782516114869060e0600585901b1683176149a7565b60ff8167ffffffffffffffff16116148c75782516148ae906018611fe0600586901b16176149a7565b5082516114869067ffffffffffffffff83166001614a27565b61ffff8167ffffffffffffffff161161490a5782516148f1906019611fe0600586901b16176149a7565b5082516114869067ffffffffffffffff83166002614a27565b63ffffffff8167ffffffffffffffff161161494f57825161493690601a611fe0600586901b16176149a7565b5082516114869067ffffffffffffffff83166004614a27565b825161496690601b611fe0600586901b16176149a7565b5082516114869067ffffffffffffffff83166008614a27565b6040805180820190915260608152600060208201526149a083838451614aac565b9392505050565b60408051808201909152606081526000602082015282515160006149cc82600161578b565b9050846020015182106149ed576149ed856149e88360026158a2565b614b7d565b8451602083820101858153508051821115614a06578181525b5093949350505050565b81516147d590601f611fe0600585901b16176149a7565b6040805180820190915260608152600060208201528351516000614a4b828561578b565b90508560200151811115614a6857614a68866149e88360026158a2565b60006001614a78866101006157fa565b614a8291906158c1565b90508651828101878319825116178152508051831115614aa0578281525b50959695505050505050565b6040805180820190915260608152600060208201528251821115614acf57600080fd5b8351516000614ade848361578b565b90508560200151811115614afb57614afb866149e88360026158a2565b855180518382016020019160009180851115614b15578482525b505050602086015b60208610614b555780518252614b3460208361578b565b9150614b4160208261578b565b9050614b4e6020876158c1565b9550614b1d565b51815160001960208890036101000a0190811690199190911617905250849150509392505050565b8151614b898383614745565b50611486838261497f565b828054614ba090615904565b90600052602060002090601f016020900481019282614bc25760008555614c08565b82601f10614bdb57805160ff1916838001178555614c08565b82800160010185558215614c08579182015b82811115614c08578251825591602001919060010190614bed565b50614c14929150614c87565b5090565b828054828255906000526020600020908101928215614c085791602002820182811115614c08578251825591602001919060010190614bed565b6040518060400160405280614c7a604051806040016040528060608152602001600081525090565b8152602001600081525090565b5b80821115614c145760008155600101614c88565b60008083601f840112614cae57600080fd5b50813567ffffffffffffffff811115614cc657600080fd5b6020830191508360208260051b8501011115614ce157600080fd5b9250929050565b600082601f830112614cf957600080fd5b81356020614d0e614d098361573f565b61570e565b80838252828201915082860187848660051b8901011115614d2e57600080fd5b6000805b86811015614d7157823567ffffffffffffffff811115614d50578283fd5b614d5e8b88838d0101614d7f565b8652509385019391850191600101614d32565b509198975050505050505050565b600082601f830112614d9057600080fd5b8135614d9e614d0982615763565b818152846020838601011115614db357600080fd5b816020850160208301376000918101602001919091529392505050565b803560018110614ddf57600080fd5b919050565b803560028110614ddf57600080fd5b803563ffffffff81168114614ddf57600080fd5b803567ffffffffffffffff81168114614ddf57600080fd5b600060208284031215614e3157600080fd5b81356149a0816159dc565b600060208284031215614e4e57600080fd5b81516149a0816159dc565b60008060408385031215614e6c57600080fd5b8235614e77816159dc565b946020939093013593505050565b600060208284031215614e9757600080fd5b5035919050565b600060208284031215614eb057600080fd5b5051919050565b600080600060608486031215614ecc57600080fd5b83359250602084013567ffffffffffffffff80821115614eeb57600080fd5b614ef787838801614d7f565b93506040860135915080821115614f0d57600080fd5b50614f1a86828701614d7f565b9150509250925092565b600060208284031215614f3657600080fd5b813567ffffffffffffffff811115614f4d57600080fd5b614f5984828501614d7f565b949350505050565b600060208284031215614f7357600080fd5b815167ffffffffffffffff811115614f8a57600080fd5b8201601f81018413614f9b57600080fd5b8051614fa9614d0982615763565b818152856020838501011115614fbe57600080fd5b61389c8260208301602086016158d8565b60008060008060008060808789031215614fe857600080fd5b863567ffffffffffffffff8082111561500057600080fd5b818901915089601f83011261501457600080fd5b81358181111561502357600080fd5b8a602082850101111561503557600080fd5b60209283019850965090880135908082111561505057600080fd5b5061505d89828a01614c9c565b9095509350615070905060408801614e07565b915061507e60608801614df3565b90509295509295509295565b600080600080608085870312156150a057600080fd5b843567ffffffffffffffff808211156150b857600080fd5b9086019060c082890312156150cc57600080fd5b6150d46156e5565b6150dd83614de4565b81526150eb60208401614de4565b60208201526150fc60408401614dd0565b604082015260608301358281111561511357600080fd5b61511f8a828601614d7f565b60608301525060808301358281111561513757600080fd5b6151438a828601614d7f565b60808301525060a08301358281111561515b57600080fd5b6151678a828601614ce8565b60a083015250955061517e91505060208601614e07565b925061518c60408601614df3565b9396929550929360600135925050565b600080604083850312156151af57600080fd5b8235915060208084013567ffffffffffffffff8111156151ce57600080fd5b8401601f810186136151df57600080fd5b80356151ed614d098261573f565b80828252848201915084840189868560051b870101111561520d57600080fd5b600094505b83851015615230578035835260019490940193918501918501615212565b5080955050505050509250929050565b60006020828403121561525257600080fd5b81516bffffffffffffffffffffffff811681146149a057600080fd5b600081518084526020808501945080840160005b8381101561529e57815187529582019590820190600101615282565b509495945050505050565b600081518084526152c18160208601602086016158d8565b601f01601f19169290920160200192915050565b600061018082518185526152eb828601826152a9565b9150506020830151848203602086015261530582826152a9565b9150506040830151848203604086015261531f82826152a9565b9150506060830151848203606086015261533982826152a9565b9150506080830151848203608086015261535382826152a9565b91505060a083015184820360a086015261536d82826152a9565b91505060c083015184820360c086015261538782826152a9565b91505060e083015184820360e08601526153a182826152a9565b91505061010080840151858303828701526153bc83826152a9565b9250505061012080840151858303828701526153d883826152a9565b9250505061014080840151858303828701526153f483826152a9565b92505050610160808401518583038287015261541083826152a9565b9695505050505050565b6000602080830181845280855180835260408601915060408160051b870101925083870160005b8281101561546f57603f1988860301845261545d8583516152d5565b94509285019290850190600101615441565b5092979650505050505050565b8215158152604060208201526000614f59604083018461526e565b6020815260006149a060208301846152a9565b6040815260006154bd60408301856152a9565b828103602084015261389c81856152a9565b60208101600383106154f157634e487b7160e01b600052602160045260246000fd5b91905290565b6101808152600061550c61018083018f6152a9565b828103602084015261551e818f6152a9565b90508281036040840152615532818e6152a9565b90508281036060840152615546818d6152a9565b9050828103608084015261555a818c6152a9565b905082810360a084015261556e818b6152a9565b905082810360c0840152615582818a6152a9565b905082810360e084015261559681896152a9565b90508281036101008401526155ab81886152a9565b90508281036101208401526155c081876152a9565b90508281036101408401526155d581866152a9565b90508281036101608401526155ea81856152a9565b9f9e505050505050505050505050505050565b6020815260006149a060208301846152d5565b828152604060208201526000614f59604083018461526e565b67ffffffffffffffff8416815260606020820152600061564c60608301856152a9565b905063ffffffff83166040830152949350505050565b67ffffffffffffffff8516815260806020820152600061568560808301866152a9565b63ffffffff949094166040830152506060015292915050565b6000808335601e198436030181126156b557600080fd5b83018035915067ffffffffffffffff8211156156d057600080fd5b602001915036819003821315614ce157600080fd5b60405160c0810167ffffffffffffffff81118282101715615708576157086159c6565b60405290565b604051601f8201601f1916810167ffffffffffffffff81118282101715615737576157376159c6565b604052919050565b600067ffffffffffffffff821115615759576157596159c6565b5060051b60200190565b600067ffffffffffffffff82111561577d5761577d6159c6565b50601f01601f191660200190565b6000821982111561579e5761579e61596e565b500190565b6000826157b2576157b2615984565b500490565b600181815b808511156157f25781600019048211156157d8576157d861596e565b808516156157e557918102915b93841c93908002906157bc565b509250929050565b60006149a0838360008261581057506001611dbb565b8161581d57506000611dbb565b8160018114615833576002811461583d57615859565b6001915050611dbb565b60ff84111561584e5761584e61596e565b50506001821b611dbb565b5060208310610133831016604e8410600b841016171561587c575081810a611dbb565b61588683836157b7565b806000190482111561589a5761589a61596e565b029392505050565b60008160001904831182151516156158bc576158bc61596e565b500290565b6000828210156158d3576158d361596e565b500390565b60005b838110156158f35781810151838201526020016158db565b838111156114865750506000910152565b600181811c9082168061591857607f821691505b6020821081141561593957634e487b7160e01b600052602260045260246000fd5b50919050565b60006000198214156159535761595361596e565b5060010190565b60008261596957615969615984565b500690565b634e487b7160e01b600052601160045260246000fd5b634e487b7160e01b600052601260045260246000fd5b634e487b7160e01b600052602160045260246000fd5b634e487b7160e01b600052603260045260246000fd5b634e487b7160e01b600052604160045260246000fd5b6001600160a01b0381168114613d4357600080fdfea2646970667358221220981e5ded96f2583fad38cb20ba247f847b61a6c4d5da41b7a41d63405ece1b7c64736f6c63430008070033",
  "linkReferences": {},
  "deployedLinkReferences": {}
}