{
  "_format": "hh-sol-artifact-1",
  "contractName": "Insurance",
  "sourceName": "contracts/Insurance.sol",
  "abi": [
    {
      "inputs": [
        {
          "internalType": "address",
          "name": "oracle",
          "type": "address"
        },
        {
          "internalType": "address",
          "name": "linkMaticPrice",
          "type": "address"
        },
        {
          "internalType": "address",
          "name": "randomness",
          "type": "address"
        }
      ],
      "stateMutability": "nonpayable",
      "type": "constructor"
    },
    {
      "inputs": [],
      "name": "EmptyArgs",
      "type": "error"
    },
    {
      "inputs": [],
      "name": "EmptySecrets",
      "type": "error"
    },
    {
      "inputs": [],
      "name": "EmptySource",
      "type": "error"
    },
    {
      "inputs": [],
      "name": "NoInlineSecrets",
      "type": "error"
    },
    {
      "inputs": [],
      "name": "RequestIsAlreadyPending",
      "type": "error"
    },
    {
      "inputs": [],
      "name": "RequestIsNotPending",
      "type": "error"
    },
    {
      "inputs": [],
      "name": "SenderIsNotRegistry",
      "type": "error"
    },
    {
      "anonymous": false,
      "inputs": [
        {
          "indexed": true,
          "internalType": "bytes32",
          "name": "requestId",
          "type": "bytes32"
        },
        {
          "indexed": false,
          "internalType": "bytes",
          "name": "result",
          "type": "bytes"
        },
        {
          "indexed": false,
          "internalType": "bytes",
          "name": "err",
          "type": "bytes"
        }
      ],
      "name": "OCRResponse",
      "type": "event"
    },
    {
      "anonymous": false,
      "inputs": [
        {
          "indexed": true,
          "internalType": "address",
          "name": "from",
          "type": "address"
        },
        {
          "indexed": true,
          "internalType": "address",
          "name": "to",
          "type": "address"
        }
      ],
      "name": "OwnershipTransferRequested",
      "type": "event"
    },
    {
      "anonymous": false,
      "inputs": [
        {
          "indexed": true,
          "internalType": "address",
          "name": "from",
          "type": "address"
        },
        {
          "indexed": true,
          "internalType": "address",
          "name": "to",
          "type": "address"
        }
      ],
      "name": "OwnershipTransferred",
      "type": "event"
    },
    {
      "anonymous": false,
      "inputs": [
        {
          "indexed": true,
          "internalType": "bytes32",
          "name": "id",
          "type": "bytes32"
        }
      ],
      "name": "RequestFulfilled",
      "type": "event"
    },
    {
      "anonymous": false,
      "inputs": [
        {
          "indexed": true,
          "internalType": "bytes32",
          "name": "id",
          "type": "bytes32"
        }
      ],
      "name": "RequestSent",
      "type": "event"
    },
    {
      "inputs": [],
      "name": "acceptOwnership",
      "outputs": [],
      "stateMutability": "nonpayable",
      "type": "function"
    },
    {
      "inputs": [
        {
          "internalType": "address",
          "name": "oracleAddress",
          "type": "address"
        },
        {
          "internalType": "bytes32",
          "name": "requestId",
          "type": "bytes32"
        }
      ],
      "name": "addSimulatedRequestId",
      "outputs": [],
      "stateMutability": "nonpayable",
      "type": "function"
    },
    {
      "inputs": [],
      "name": "checkInsuranceData",
      "outputs": [
        {
          "internalType": "bool",
          "name": "",
          "type": "bool"
        }
      ],
      "stateMutability": "view",
      "type": "function"
    },
    {
      "inputs": [],
      "name": "constructionTime",
      "outputs": [
        {
          "internalType": "uint256",
          "name": "",
          "type": "uint256"
        }
      ],
      "stateMutability": "view",
      "type": "function"
    },
    {
      "inputs": [],
      "name": "currentTime",
      "outputs": [
        {
          "internalType": "uint256",
          "name": "",
          "type": "uint256"
        }
      ],
      "stateMutability": "view",
      "type": "function"
    },
    {
      "inputs": [
        {
          "components": [
            {
              "internalType": "enum Functions.Location",
              "name": "codeLocation",
              "type": "uint8"
            },
            {
              "internalType": "enum Functions.Location",
              "name": "secretsLocation",
              "type": "uint8"
            },
            {
              "internalType": "enum Functions.CodeLanguage",
              "name": "language",
              "type": "uint8"
            },
            {
              "internalType": "string",
              "name": "source",
              "type": "string"
            },
            {
              "internalType": "bytes",
              "name": "secrets",
              "type": "bytes"
            },
            {
              "internalType": "string[]",
              "name": "args",
              "type": "string[]"
            }
          ],
          "internalType": "struct Functions.Request",
          "name": "req",
          "type": "tuple"
        },
        {
          "internalType": "uint64",
          "name": "subscriptionId",
          "type": "uint64"
        },
        {
          "internalType": "uint32",
          "name": "gasLimit",
          "type": "uint32"
        },
        {
          "internalType": "uint256",
          "name": "gasPrice",
          "type": "uint256"
        }
      ],
      "name": "estimateCost",
      "outputs": [
        {
          "internalType": "uint96",
          "name": "",
          "type": "uint96"
        }
      ],
      "stateMutability": "view",
      "type": "function"
    },
    {
      "inputs": [
        {
          "internalType": "string",
          "name": "source",
          "type": "string"
        },
        {
          "internalType": "bytes",
          "name": "secrets",
          "type": "bytes"
        },
        {
          "internalType": "string[]",
          "name": "args",
          "type": "string[]"
        },
        {
          "internalType": "uint64",
          "name": "subscriptionId",
          "type": "uint64"
        },
        {
          "internalType": "uint32",
          "name": "gasLimit",
          "type": "uint32"
        }
      ],
      "name": "estimateInsurance",
      "outputs": [
        {
          "internalType": "bytes32",
          "name": "",
          "type": "bytes32"
        }
      ],
      "stateMutability": "payable",
      "type": "function"
    },
    {
      "inputs": [],
      "name": "getCurrentTime",
      "outputs": [
        {
          "internalType": "uint256",
          "name": "",
          "type": "uint256"
        }
      ],
      "stateMutability": "view",
      "type": "function"
    },
    {
      "inputs": [],
      "name": "getDONPublicKey",
      "outputs": [
        {
          "internalType": "bytes",
          "name": "",
          "type": "bytes"
        }
      ],
      "stateMutability": "view",
      "type": "function"
    },
    {
      "inputs": [],
      "name": "getLatestPrice",
      "outputs": [
        {
          "internalType": "int256",
          "name": "",
          "type": "int256"
        }
      ],
      "stateMutability": "view",
      "type": "function"
    },
    {
      "inputs": [],
      "name": "getRandomWords",
      "outputs": [
        {
          "internalType": "bytes",
          "name": "",
          "type": "bytes"
        }
      ],
      "stateMutability": "nonpayable",
      "type": "function"
    },
    {
      "inputs": [],
      "name": "globalDayNumber",
      "outputs": [
        {
          "internalType": "int256",
          "name": "",
          "type": "int256"
        }
      ],
      "stateMutability": "view",
      "type": "function"
    },
    {
      "inputs": [
        {
          "internalType": "bytes32",
          "name": "requestId",
          "type": "bytes32"
        },
        {
          "internalType": "bytes",
          "name": "response",
          "type": "bytes"
        },
        {
          "internalType": "bytes",
          "name": "err",
          "type": "bytes"
        }
      ],
      "name": "handleOracleFulfillment",
      "outputs": [],
      "stateMutability": "nonpayable",
      "type": "function"
    },
    {
      "inputs": [],
      "name": "helloWorld",
      "outputs": [
        {
          "internalType": "string",
          "name": "",
          "type": "string"
        }
      ],
      "stateMutability": "view",
      "type": "function"
    },
    {
      "inputs": [
        {
          "internalType": "address",
          "name": "",
          "type": "address"
        },
        {
          "internalType": "uint256",
          "name": "",
          "type": "uint256"
        }
      ],
      "name": "insuranceDataMapping",
      "outputs": [
        {
          "internalType": "string",
          "name": "latNe",
          "type": "string"
        },
        {
          "internalType": "string",
          "name": "longNe",
          "type": "string"
        },
        {
          "internalType": "string",
          "name": "latSe",
          "type": "string"
        },
        {
          "internalType": "string",
          "name": "longSe",
          "type": "string"
        },
        {
          "internalType": "string",
          "name": "latSw",
          "type": "string"
        },
        {
          "internalType": "string",
          "name": "longSw",
          "type": "string"
        },
        {
          "internalType": "string",
          "name": "latNw",
          "type": "string"
        },
        {
          "internalType": "string",
          "name": "longNw",
          "type": "string"
        },
        {
          "internalType": "string",
          "name": "configParam",
          "type": "string"
        },
        {
          "internalType": "string",
          "name": "currentTime",
          "type": "string"
        },
        {
          "internalType": "string",
          "name": "startTime",
          "type": "string"
        },
        {
          "internalType": "string",
          "name": "endTime",
          "type": "string"
        }
      ],
      "stateMutability": "view",
      "type": "function"
    },
    {
      "inputs": [],
      "name": "latestError",
      "outputs": [
        {
          "internalType": "bytes",
          "name": "",
          "type": "bytes"
        }
      ],
      "stateMutability": "view",
      "type": "function"
    },
    {
      "inputs": [],
      "name": "latestRequestId",
      "outputs": [
        {
          "internalType": "bytes32",
          "name": "",
          "type": "bytes32"
        }
      ],
      "stateMutability": "view",
      "type": "function"
    },
    {
      "inputs": [],
      "name": "latestResponse",
      "outputs": [
        {
          "internalType": "bytes",
          "name": "",
          "type": "bytes"
        }
      ],
      "stateMutability": "view",
      "type": "function"
    },
    {
      "inputs": [],
      "name": "owner",
      "outputs": [
        {
          "internalType": "address",
          "name": "",
          "type": "address"
        }
      ],
      "stateMutability": "view",
      "type": "function"
    },
    {
      "inputs": [],
      "name": "priceFeed",
      "outputs": [
        {
          "internalType": "contract PriceConsumerV3",
          "name": "",
          "type": "address"
        }
      ],
      "stateMutability": "view",
      "type": "function"
    },
    {
      "inputs": [],
      "name": "randomFeed",
      "outputs": [
        {
          "internalType": "contract VRFv2Consumer",
          "name": "",
          "type": "address"
        }
      ],
      "stateMutability": "view",
      "type": "function"
    },
    {
      "inputs": [
        {
          "internalType": "uint256",
          "name": "requestId",
          "type": "uint256"
        },
        {
          "internalType": "uint256[]",
          "name": "randomWords",
          "type": "uint256[]"
        }
      ],
      "name": "receiveRandomness",
      "outputs": [],
      "stateMutability": "nonpayable",
      "type": "function"
    },
    {
      "inputs": [
        {
          "internalType": "address",
          "name": "to",
          "type": "address"
        }
      ],
      "name": "transferOwnership",
      "outputs": [],
      "stateMutability": "nonpayable",
      "type": "function"
    },
    {
      "inputs": [
        {
          "internalType": "address",
          "name": "oracle",
          "type": "address"
        }
      ],
      "name": "updateOracleAddress",
      "outputs": [],
      "stateMutability": "nonpayable",
      "type": "function"
    }
  ],
  "bytecode": "0x608060405242600b553480156200001557600080fd5b506040516200419f3803806200419f8339810160408190526200003891620001f3565b600080546001600160a01b0319166001600160a01b038516178155339081906001600160a01b038216620000b35760405162461bcd60e51b815260206004820152601860248201527f43616e6e6f7420736574206f776e657220746f207a65726f000000000000000060448201526064015b60405180910390fd5b600280546001600160a01b0319166001600160a01b0384811691909117909155811615620000e657620000e68162000129565b5050600480546001600160a01b039485166001600160a01b0319918216179091556005805493909416921691909117909155505042600a5560006009556200023d565b6001600160a01b038116331415620001845760405162461bcd60e51b815260206004820152601760248201527f43616e6e6f74207472616e7366657220746f2073656c660000000000000000006044820152606401620000aa565b600380546001600160a01b0319166001600160a01b03838116918217909255600254604051919216907fed8889f560326eb138920d842192f0eb3dd22b4f139c87a2c57538e05bae127890600090a350565b80516001600160a01b0381168114620001ee57600080fd5b919050565b6000806000606084860312156200020957600080fd5b6200021484620001d6565b92506200022460208501620001d6565b91506200023460408501620001d6565b90509250925092565b613f52806200024d6000396000f3fe60806040526004361061018b5760003560e01c8063985454ff116100d6578063d4b391751161007f578063f2fde38b11610059578063f2fde38b14610420578063f7023bb614610440578063fffeb84e1461046057600080fd5b8063d4b39175146103a8578063e0919101146103e5578063f06c56101461040a57600080fd5b8063ce10b1fb116100b0578063ce10b1fb14610368578063d18e81b31461037d578063d328a91e1461039357600080fd5b8063985454ff1461031e578063bef3a2f014610331578063c605f76c1461035357600080fd5b806337f9c70d1161013857806379ba50971161011257806379ba5097146102d65780638da5cb5b146102eb5780638e15f4731461030957600080fd5b806337f9c70d146102805780634b11b4a1146102a0578063741bef1a146102b657600080fd5b80632142735a116101695780632142735a1461021357806329cb924d1461024b57806330bda99d1461026057600080fd5b80630ca7617514610190578063126455dd146101b25780631aa46f59146101ef575b600080fd5b34801561019c57600080fd5b506101b06101ab36600461364f565b610475565b005b3480156101be57600080fd5b506005546101d2906001600160a01b031681565b6040516001600160a01b0390911681526020015b60405180910390f35b3480156101fb57600080fd5b5061020560065481565b6040519081526020016101e6565b34801561021f57600080fd5b5061023361022e36600461360a565b61051b565b6040516101e69c9b9a99989796959493929190613a5d565b34801561025757600080fd5b50600b54610205565b34801561026c57600080fd5b506101b061027b36600461360a565b610bf8565b34801561028c57600080fd5b506101b061029b366004613927565b610c0e565b3480156102ac57600080fd5b5061020560095481565b3480156102c257600080fd5b506004546101d2906001600160a01b031681565b3480156102e257600080fd5b506101b0610e20565b3480156102f757600080fd5b506002546001600160a01b03166101d2565b34801561031557600080fd5b50610205610ed5565b61020561032c36600461372a565b610f62565b34801561033d57600080fd5b506103466118b9565b6040516101e69190613a25565b34801561035f57600080fd5b50610346611947565b34801561037457600080fd5b506103466119bf565b34801561038957600080fd5b50610205600b5481565b34801561039f57600080fd5b50610346611b98565b3480156103b457600080fd5b506103c86103c3366004613815565b611c31565b6040516bffffffffffffffffffffffff90911681526020016101e6565b3480156103f157600080fd5b506103fa611cc7565b60405190151581526020016101e6565b34801561041657600080fd5b50610205600a5481565b34801561042c57600080fd5b506101b061043b3660046135d0565b612543565b34801561044c57600080fd5b506101b061045b3660046135d0565b612557565b34801561046c57600080fd5b5061034661257d565b60008381526001602052604090205483906001600160a01b031633146104c7576040517fa0c5ec6300000000000000000000000000000000000000000000000000000000815260040160405180910390fd5b60008181526001602052604080822080546001600160a01b03191690555182917f85e1543bf2f84fe80c6badbce3648c8539ad1df4d2b3d822938ca0538be727e691a261051584848461258a565b50505050565b600c602052816000526040600020818154811061053757600080fd5b90600052602060002090600d02016000915091505080600001805461055b90613e37565b80601f016020809104026020016040519081016040528092919081815260200182805461058790613e37565b80156105d45780601f106105a9576101008083540402835291602001916105d4565b820191906000526020600020905b8154815290600101906020018083116105b757829003601f168201915b5050505050908060010180546105e990613e37565b80601f016020809104026020016040519081016040528092919081815260200182805461061590613e37565b80156106625780601f1061063757610100808354040283529160200191610662565b820191906000526020600020905b81548152906001019060200180831161064557829003601f168201915b50505050509080600201805461067790613e37565b80601f01602080910402602001604051908101604052809291908181526020018280546106a390613e37565b80156106f05780601f106106c5576101008083540402835291602001916106f0565b820191906000526020600020905b8154815290600101906020018083116106d357829003601f168201915b50505050509080600301805461070590613e37565b80601f016020809104026020016040519081016040528092919081815260200182805461073190613e37565b801561077e5780601f106107535761010080835404028352916020019161077e565b820191906000526020600020905b81548152906001019060200180831161076157829003601f168201915b50505050509080600401805461079390613e37565b80601f01602080910402602001604051908101604052809291908181526020018280546107bf90613e37565b801561080c5780601f106107e15761010080835404028352916020019161080c565b820191906000526020600020905b8154815290600101906020018083116107ef57829003601f168201915b50505050509080600501805461082190613e37565b80601f016020809104026020016040519081016040528092919081815260200182805461084d90613e37565b801561089a5780601f1061086f5761010080835404028352916020019161089a565b820191906000526020600020905b81548152906001019060200180831161087d57829003601f168201915b5050505050908060060180546108af90613e37565b80601f01602080910402602001604051908101604052809291908181526020018280546108db90613e37565b80156109285780601f106108fd57610100808354040283529160200191610928565b820191906000526020600020905b81548152906001019060200180831161090b57829003601f168201915b50505050509080600701805461093d90613e37565b80601f016020809104026020016040519081016040528092919081815260200182805461096990613e37565b80156109b65780601f1061098b576101008083540402835291602001916109b6565b820191906000526020600020905b81548152906001019060200180831161099957829003601f168201915b5050505050908060080180546109cb90613e37565b80601f01602080910402602001604051908101604052809291908181526020018280546109f790613e37565b8015610a445780601f10610a1957610100808354040283529160200191610a44565b820191906000526020600020905b815481529060010190602001808311610a2757829003601f168201915b505050505090806009018054610a5990613e37565b80601f0160208091040260200160405190810160405280929190818152602001828054610a8590613e37565b8015610ad25780601f10610aa757610100808354040283529160200191610ad2565b820191906000526020600020905b815481529060010190602001808311610ab557829003601f168201915b50505050509080600a018054610ae790613e37565b80601f0160208091040260200160405190810160405280929190818152602001828054610b1390613e37565b8015610b605780601f10610b3557610100808354040283529160200191610b60565b820191906000526020600020905b815481529060010190602001808311610b4357829003601f168201915b50505050509080600b018054610b7590613e37565b80601f0160208091040260200160405190810160405280929190818152602001828054610ba190613e37565b8015610bee5780601f10610bc357610100808354040283529160200191610bee565b820191906000526020600020905b815481529060010190602001808311610bd157829003601f168201915b505050505090508c565b610c006125f1565b610c0a828261264d565b5050565b6005546001600160a01b03163314610c935760405162461bcd60e51b815260206004820152602960248201527f4f6e6c79205652467632436f6e73756d65722063616e2063616c6c207468697360448201527f2066756e6374696f6e000000000000000000000000000000000000000000000060648201526084015b60405180910390fd5b8051600314610d0a5760405162461bcd60e51b815260206004820152602360248201527f556e6578706563746564206e756d626572206f662072616e646f6d206e756d6260448201527f65727300000000000000000000000000000000000000000000000000000000006064820152608401610c8a565b336000908152600c602052604090208054610d8d5760405162461bcd60e51b815260206004820152602e60248201527f4e6f20696e737572616e6365206461746120666f756e6420666f72207468652060448201527f726571756573742073656e6465720000000000000000000000000000000000006064820152608401610c8a565b80546000908290610da090600190613de7565b81548110610db057610db0613edb565b90600052602060002090600d0201905060005b6003811015610e1957838181518110610dde57610dde613edb565b602002602001015182600c018281548110610dfb57610dfb613edb565b60009182526020909120015580610e1181613e72565b915050610dc3565b5050505050565b6003546001600160a01b03163314610e7a5760405162461bcd60e51b815260206004820152601660248201527f4d7573742062652070726f706f736564206f776e6572000000000000000000006044820152606401610c8a565b600280546001600160a01b0319808216339081179093556003805490911690556040516001600160a01b03909116919082907f8be0079c531659141344cd1fd0a4f28419497f9722a3daafe3b4186f6b6457e090600090a350565b6000600460009054906101000a90046001600160a01b03166001600160a01b0316638e15f4736040518163ffffffff1660e01b815260040160206040518083038186803b158015610f2557600080fd5b505afa158015610f39573d6000803e3d6000fd5b505050506040513d601f19601f82011682018060405250810190610f5d9190613636565b905090565b6000600c8414610fb45760405162461bcd60e51b815260206004820152601b60248201527f496e76616c6964206e756d626572206f6620617267756d656e747300000000006044820152606401610c8a565b610ff26040518060400160405280601581526020017f476f7420746865206c61746573742070726963652100000000000000000000008152506126cd565b336000908152600c6020526040812080549091906116635781604051806101a001604052808989600081811061102a5761102a613edb565b905060200281019061103c9190613bd8565b8080601f0160208091040260200160405190810160405280939291908181526020018383808284376000920191909152505050908252506020018989600181811061108957611089613edb565b905060200281019061109b9190613bd8565b8080601f016020809104026020016040519081016040528093929190818152602001838380828437600092019190915250505090825250602001898960028181106110e8576110e8613edb565b90506020028101906110fa9190613bd8565b8080601f0160208091040260200160405190810160405280939291908181526020018383808284376000920191909152505050908252506020018989600381811061114757611147613edb565b90506020028101906111599190613bd8565b8080601f016020809104026020016040519081016040528093929190818152602001838380828437600092019190915250505090825250602001898960048181106111a6576111a6613edb565b90506020028101906111b89190613bd8565b8080601f0160208091040260200160405190810160405280939291908181526020018383808284376000920191909152505050908252506020018989600581811061120557611205613edb565b90506020028101906112179190613bd8565b8080601f0160208091040260200160405190810160405280939291908181526020018383808284376000920191909152505050908252506020018989600681811061126457611264613edb565b90506020028101906112769190613bd8565b8080601f016020809104026020016040519081016040528093929190818152602001838380828437600092019190915250505090825250602001898960078181106112c3576112c3613edb565b90506020028101906112d59190613bd8565b8080601f0160208091040260200160405190810160405280939291908181526020018383808284376000920191909152505050908252506020018989600881811061132257611322613edb565b90506020028101906113349190613bd8565b8080601f0160208091040260200160405190810160405280939291908181526020018383808284376000920191909152505050908252506020018989600981811061138157611381613edb565b90506020028101906113939190613bd8565b8080601f0160208091040260200160405190810160405280939291908181526020018383808284376000920191909152505050908252506020018989600a8181106113e0576113e0613edb565b90506020028101906113f29190613bd8565b8080601f0160208091040260200160405190810160405280939291908181526020018383808284376000920191909152505050908252506020018989600b81811061143f5761143f613edb565b90506020028101906114519190613bd8565b8080601f016020809104026020016040519081016040528093929190818152602001838380828437600092019190915250505090825250604080516003808252608082019092526020928301929091908201606080368337505050905281546001810183556000928352602092839020825180519394600d909302909101926114dd928492019061333f565b5060208281015180516114f6926001850192019061333f565b506040820151805161151291600284019160209091019061333f565b506060820151805161152e91600384019160209091019061333f565b506080820151805161154a91600484019160209091019061333f565b5060a0820151805161156691600584019160209091019061333f565b5060c0820151805161158291600684019160209091019061333f565b5060e0820151805161159e91600784019160209091019061333f565b5061010082015180516115bb91600884019160209091019061333f565b5061012082015180516115d891600984019160209091019061333f565b5061014082015180516115f591600a84019160209091019061333f565b50610160820151805161161291600b84019160209091019061333f565b50610180820151805161162f91600c8401916020909101906133c3565b5050825483915061164290600190613de7565b8154811061165257611652613edb565b90600052602060002090600d020190505b61169d6040805160c08101909152806000815260200160008152602001600081526020016060815260200160608152602001606081525090565b6116e46000808e8e8080601f0160208091040260200160405190810160405280939291908181526020018383808284376000920191909152508795949392505061273e9050565b881561172c5761172c8a8a8080601f01602080910402602001604051908101604052809392919081815260200183838082843760009201919091525085939250506127d29050565b86156117465761174661173f888a613dfe565b8290612819565b6000611753600a54612859565b90506000611762896001613cc5565b67ffffffffffffffff81111561177a5761177a613ef1565b6040519080825280602002602001820160405280156117ad57816020015b60608152602001906001900390816117985790505b50905060005b89811015611845578a8a828181106117cd576117cd613edb565b90506020028101906117df9190613bd8565b8080601f016020809104026020016040519081016040528093929190818152602001838380828437600092019190915250508451859250849150811061182757611827613edb565b6020026020010181905250808061183d90613e72565b9150506117b3565b5081818b8b90508151811061185c5761185c613edb565b602002602001018190525061188a81600c8151811061187d5761187d613edb565b60200260200101516126cd565b6118948382612819565b60006118a1848a8a612903565b60068190559f9e505050505050505050505050505050565b600780546118c690613e37565b80601f01602080910402602001604051908101604052809291908181526020018280546118f290613e37565b801561193f5780601f106119145761010080835404028352916020019161193f565b820191906000526020600020905b81548152906001019060200180831161192257829003601f168201915b505050505081565b60606119876040518060400160405280600481526020017f54657374000000000000000000000000000000000000000000000000000000008152506126cd565b5060408051808201909152600c81527f48656c6c6f20576f726c64210000000000000000000000000000000000000000602082015290565b336000818152600c6020526040902080546060929190611a465760405162461bcd60e51b8152602060048201526024808201527f4e6f20696e737572616e6365206461746120666f756e6420666f72207468652060448201527f75736572000000000000000000000000000000000000000000000000000000006064820152608401610c8a565b80546000908290611a5990600190613de7565b81548110611a6957611a69613edb565b600091825260208220600d909102019150600c8201905b8154811015611b0757818181548110611a9b57611a9b613edb565b9060005260206000200154600014611af55760405162461bcd60e51b815260206004820152601c60248201527f4e6f6e2d7a65726f2072616e646f6d20706f696e747320666f756e64000000006044820152606401610c8a565b80611aff81613e72565b915050611a80565b50600560009054906101000a90046001600160a01b03166001600160a01b031663e0c862896040518163ffffffff1660e01b8152600401602060405180830381600087803b158015611b5857600080fd5b505af1158015611b6c573d6000803e3d6000fd5b505050506040513d601f19601f82011682018060405250810190611b909190613636565b505050505090565b60008054604080517fd328a91e00000000000000000000000000000000000000000000000000000000815290516060936001600160a01b039093169263d328a91e9260048082019391829003018186803b158015611bf557600080fd5b505afa158015611c09573d6000803e3d6000fd5b505050506040513d6000823e601f3d908101601f19168201604052610f5d91908101906136bc565b600080546001600160a01b031663d227d24585611c4d88612a75565b86866040518563ffffffff1660e01b8152600401611c6e9493929190613b9c565b60206040518083038186803b158015611c8657600080fd5b505afa158015611c9a573d6000803e3d6000fd5b505050506040513d601f19601f82011682018060405250810190611cbe91906139cb565b95945050505050565b336000908152600c602052604081208054611d245760405162461bcd60e51b815260206004820152601760248201527f4e6f20696e737572616e6365206461746120666f756e640000000000000000006044820152606401610c8a565b60005b815481101561253a576000828281548110611d4457611d44613edb565b90600052602060002090600d0201604051806101a0016040529081600082018054611d6e90613e37565b80601f0160208091040260200160405190810160405280929190818152602001828054611d9a90613e37565b8015611de75780601f10611dbc57610100808354040283529160200191611de7565b820191906000526020600020905b815481529060010190602001808311611dca57829003601f168201915b50505050508152602001600182018054611e0090613e37565b80601f0160208091040260200160405190810160405280929190818152602001828054611e2c90613e37565b8015611e795780601f10611e4e57610100808354040283529160200191611e79565b820191906000526020600020905b815481529060010190602001808311611e5c57829003601f168201915b50505050508152602001600282018054611e9290613e37565b80601f0160208091040260200160405190810160405280929190818152602001828054611ebe90613e37565b8015611f0b5780601f10611ee057610100808354040283529160200191611f0b565b820191906000526020600020905b815481529060010190602001808311611eee57829003601f168201915b50505050508152602001600382018054611f2490613e37565b80601f0160208091040260200160405190810160405280929190818152602001828054611f5090613e37565b8015611f9d5780601f10611f7257610100808354040283529160200191611f9d565b820191906000526020600020905b815481529060010190602001808311611f8057829003601f168201915b50505050508152602001600482018054611fb690613e37565b80601f0160208091040260200160405190810160405280929190818152602001828054611fe290613e37565b801561202f5780601f106120045761010080835404028352916020019161202f565b820191906000526020600020905b81548152906001019060200180831161201257829003601f168201915b5050505050815260200160058201805461204890613e37565b80601f016020809104026020016040519081016040528092919081815260200182805461207490613e37565b80156120c15780601f10612096576101008083540402835291602001916120c1565b820191906000526020600020905b8154815290600101906020018083116120a457829003601f168201915b505050505081526020016006820180546120da90613e37565b80601f016020809104026020016040519081016040528092919081815260200182805461210690613e37565b80156121535780601f1061212857610100808354040283529160200191612153565b820191906000526020600020905b81548152906001019060200180831161213657829003601f168201915b5050505050815260200160078201805461216c90613e37565b80601f016020809104026020016040519081016040528092919081815260200182805461219890613e37565b80156121e55780601f106121ba576101008083540402835291602001916121e5565b820191906000526020600020905b8154815290600101906020018083116121c857829003601f168201915b505050505081526020016008820180546121fe90613e37565b80601f016020809104026020016040519081016040528092919081815260200182805461222a90613e37565b80156122775780601f1061224c57610100808354040283529160200191612277565b820191906000526020600020905b81548152906001019060200180831161225a57829003601f168201915b5050505050815260200160098201805461229090613e37565b80601f01602080910402602001604051908101604052809291908181526020018280546122bc90613e37565b80156123095780601f106122de57610100808354040283529160200191612309565b820191906000526020600020905b8154815290600101906020018083116122ec57829003601f168201915b50505050508152602001600a8201805461232290613e37565b80601f016020809104026020016040519081016040528092919081815260200182805461234e90613e37565b801561239b5780601f106123705761010080835404028352916020019161239b565b820191906000526020600020905b81548152906001019060200180831161237e57829003601f168201915b50505050508152602001600b820180546123b490613e37565b80601f01602080910402602001604051908101604052809291908181526020018280546123e090613e37565b801561242d5780601f106124025761010080835404028352916020019161242d565b820191906000526020600020905b81548152906001019060200180831161241057829003601f168201915b50505050508152602001600c820180548060200260200160405190810160405280929190818152602001828054801561248557602002820191906000526020600020905b815481526020019060010190808311612471575b50505050508152505090508060c00151516000141580156124aa575060e08101515115155b80156124b7575080515115155b80156124c7575060208101515115155b80156124d7575060408101515115155b80156124e7575060608101515115155b80156124f7575060808101515115155b8015612507575060a08101515115155b801561251857506101008101515115155b15612527576001935050505090565b508061253281613e72565b915050611d27565b50600091505090565b61254b6125f1565b61255481612d41565b50565b61255f6125f1565b600080546001600160a01b0319166001600160a01b03831617905550565b600880546118c690613e37565b815161259d90600790602085019061333f565b5080516125b190600890602084019061333f565b50827f7bab0ec163b5c132c72b8146ac4d6e067e82ed58f8b131150aa71c925891156283836040516125e4929190613a38565b60405180910390a2505050565b6002546001600160a01b0316331461264b5760405162461bcd60e51b815260206004820152601660248201527f4f6e6c792063616c6c61626c65206279206f776e6572000000000000000000006044820152606401610c8a565b565b60008181526001602052604090205481906001600160a01b03161561269e576040517f8b457ad200000000000000000000000000000000000000000000000000000000815260040160405180910390fd5b50600090815260016020526040902080546001600160a01b0319166001600160a01b0392909216919091179055565b612554816040516024016126e19190613a25565b60408051601f198184030181529190526020810180517bffffffffffffffffffffffffffffffffffffffffffffffffffffffff167f41304fac00000000000000000000000000000000000000000000000000000000179052612dec565b8051612776576040517f22ce3edd00000000000000000000000000000000000000000000000000000000815260040160405180910390fd5b8383600181111561278957612789613ec5565b9081600181111561279c5761279c613ec5565b905250604084018280156127b2576127b2613ec5565b908180156127c2576127c2613ec5565b9052506060909301929092525050565b805161280a576040517fe889636f00000000000000000000000000000000000000000000000000000000815260040160405180910390fd5b60016020830152608090910152565b8051612851576040517ffe936cb700000000000000000000000000000000000000000000000000000000815260040160405180910390fd5b60a090910152565b6060600061286683612e0d565b600101905060008167ffffffffffffffff81111561288657612886613ef1565b6040519080825280601f01601f1916602001820160405280156128b0576020820181803683370190505b5090508181016020015b600019017f3031323334353637383961626364656600000000000000000000000000000000600a86061a8153600a85049450846128f6576128fb565b6128ba565b509392505050565b6000805481906001600160a01b03166328242b048561292188612a75565b866040518463ffffffff1660e01b815260040161294093929190613b63565b602060405180830381600087803b15801561295a57600080fd5b505af115801561296e573d6000803e3d6000fd5b505050506040513d601f19601f820116820180604052508101906129929190613636565b905060008054906101000a90046001600160a01b03166001600160a01b0316635ab1bd536040518163ffffffff1660e01b815260040160206040518083038186803b1580156129e057600080fd5b505afa1580156129f4573d6000803e3d6000fd5b505050506040513d601f19601f82011682018060405250810190612a1891906135ed565b60008281526001602052604080822080546001600160a01b0319166001600160a01b039490941693909317909255905182917f1131472297a800fee664d1d89cfa8f7676ff07189ecc53f80bbb5f4969099db891a2949350505050565b6060612a7f6133fd565b8051612a8d90610100612ef0565b50612acd816040518060400160405280600c81526020017f636f64654c6f636174696f6e0000000000000000000000000000000000000000815250612f67565b612aec8184600001516001811115612ae757612ae7613ec5565b612f85565b612b2b816040518060400160405280600881526020017f6c616e6775616765000000000000000000000000000000000000000000000000815250612f67565b612b458184604001516000811115612ae757612ae7613ec5565b612b84816040518060400160405280600681526020017f736f757263650000000000000000000000000000000000000000000000000000815250612f67565b612b92818460600151612f67565b60a08301515115612c3857612bdc816040518060400160405280600481526020017f6172677300000000000000000000000000000000000000000000000000000000815250612f67565b612be581612fbe565b60005b8360a0015151811015612c2e57612c1c828560a001518381518110612c0f57612c0f613edb565b6020026020010151612f67565b80612c2681613e72565b915050612be8565b50612c3881612fe2565b60808301515115612d3957600083602001516001811115612c5b57612c5b613ec5565b1415612c93576040517fa80d31f700000000000000000000000000000000000000000000000000000000815260040160405180910390fd5b612cd2816040518060400160405280600f81526020017f736563726574734c6f636174696f6e0000000000000000000000000000000000815250612f67565b612cec8184602001516001811115612ae757612ae7613ec5565b612d2b816040518060400160405280600781526020017f7365637265747300000000000000000000000000000000000000000000000000815250612f67565b612d39818460800151613000565b515192915050565b6001600160a01b038116331415612d9a5760405162461bcd60e51b815260206004820152601760248201527f43616e6e6f74207472616e7366657220746f2073656c660000000000000000006044820152606401610c8a565b600380546001600160a01b0319166001600160a01b03838116918217909255600254604051919216907fed8889f560326eb138920d842192f0eb3dd22b4f139c87a2c57538e05bae127890600090a350565b80516a636f6e736f6c652e6c6f67602083016000808483855afa5050505050565b6000807a184f03e93ff9f4daa797ed6e38ed64bf6a1f0100000000000000008310612e56577a184f03e93ff9f4daa797ed6e38ed64bf6a1f010000000000000000830492506040015b6d04ee2d6d415b85acef81000000008310612e82576d04ee2d6d415b85acef8100000000830492506020015b662386f26fc100008310612ea057662386f26fc10000830492506010015b6305f5e1008310612eb8576305f5e100830492506008015b6127108310612ecc57612710830492506004015b60648310612ede576064830492506002015b600a8310612eea576001015b92915050565b604080518082019091526060815260006020820152612f10602083613e8d565b15612f3857612f20602083613e8d565b612f2b906020613de7565b612f359083613cc5565b91505b602080840183905260405180855260008152908184010181811015612f5c57600080fd5b604052509192915050565b612f748260038351613009565b8151612f80908261312a565b505050565b8151612f929060c2613152565b50610c0a8282604051602001612faa91815260200190565b604051602081830303815290604052613000565b612fc98160046131bb565b600181602001818151612fdc9190613cc5565b90525050565b612fed8160076131bb565b600181602001818151612fdc9190613de7565b612f7482600283515b60178167ffffffffffffffff16116130305782516105159060e0600585901b168317613152565b60ff8167ffffffffffffffff1611613072578251613059906018611fe0600586901b1617613152565b5082516105159067ffffffffffffffff831660016131d2565b61ffff8167ffffffffffffffff16116130b557825161309c906019611fe0600586901b1617613152565b5082516105159067ffffffffffffffff831660026131d2565b63ffffffff8167ffffffffffffffff16116130fa5782516130e190601a611fe0600586901b1617613152565b5082516105159067ffffffffffffffff831660046131d2565b825161311190601b611fe0600586901b1617613152565b5082516105159067ffffffffffffffff831660086131d2565b60408051808201909152606081526000602082015261314b83838451613257565b9392505050565b6040805180820190915260608152600060208201528251516000613177826001613cc5565b9050846020015182106131985761319885613193836002613dc8565b613328565b84516020838201018581535080518211156131b1578181525b5093949350505050565b8151612f8090601f611fe0600585901b1617613152565b60408051808201909152606081526000602082015283515160006131f68285613cc5565b905085602001518111156132135761321386613193836002613dc8565b6000600161322386610100613d20565b61322d9190613de7565b9050865182810187831982511617815250805183111561324b578281525b50959695505050505050565b604080518082019091526060815260006020820152825182111561327a57600080fd5b83515160006132898483613cc5565b905085602001518111156132a6576132a686613193836002613dc8565b8551805183820160200191600091808511156132c0578482525b505050602086015b6020861061330057805182526132df602083613cc5565b91506132ec602082613cc5565b90506132f9602087613de7565b95506132c8565b51815160001960208890036101000a0190811690199190911617905250849150509392505050565b81516133348383612ef0565b50610515838261312a565b82805461334b90613e37565b90600052602060002090601f01602090048101928261336d57600085556133b3565b82601f1061338657805160ff19168380011785556133b3565b828001600101855582156133b3579182015b828111156133b3578251825591602001919060010190613398565b506133bf929150613432565b5090565b8280548282559060005260206000209081019282156133b357916020028201828111156133b3578251825591602001919060010190613398565b6040518060400160405280613425604051806040016040528060608152602001600081525090565b8152602001600081525090565b5b808211156133bf5760008155600101613433565b600061345a61345584613c79565b613c48565b9050808382526020808301915083868660051b8601111561347a57600080fd5b6000805b878110156134bb57823567ffffffffffffffff81111561349c578283fd5b6134a88a828a01613530565b865250938301939183019160010161347e565b50505050509392505050565b600082601f8301126134d857600080fd5b61314b83833560208501613447565b60008083601f8401126134f957600080fd5b50813567ffffffffffffffff81111561351157600080fd5b60208301915083602082850101111561352957600080fd5b9250929050565b600082601f83011261354157600080fd5b813561354f61345582613c9d565b81815284602083860101111561356457600080fd5b816020850160208301376000918101602001919091529392505050565b80356001811061359057600080fd5b919050565b80356002811061359057600080fd5b803563ffffffff8116811461359057600080fd5b803567ffffffffffffffff8116811461359057600080fd5b6000602082840312156135e257600080fd5b813561314b81613f07565b6000602082840312156135ff57600080fd5b815161314b81613f07565b6000806040838503121561361d57600080fd5b823561362881613f07565b946020939093013593505050565b60006020828403121561364857600080fd5b5051919050565b60008060006060848603121561366457600080fd5b83359250602084013567ffffffffffffffff8082111561368357600080fd5b61368f87838801613530565b935060408601359150808211156136a557600080fd5b506136b286828701613530565b9150509250925092565b6000602082840312156136ce57600080fd5b815167ffffffffffffffff8111156136e557600080fd5b8201601f810184136136f657600080fd5b805161370461345582613c9d565b81815285602083850101111561371957600080fd5b611cbe826020830160208601613e0b565b60008060008060008060008060a0898b03121561374657600080fd5b883567ffffffffffffffff8082111561375e57600080fd5b61376a8c838d016134e7565b909a50985060208b013591508082111561378357600080fd5b61378f8c838d016134e7565b909850965060408b01359150808211156137a857600080fd5b818b0191508b601f8301126137bc57600080fd5b8135818111156137cb57600080fd5b8c60208260051b85010111156137e057600080fd5b6020830196508095505050506137f860608a016135b8565b915061380660808a016135a4565b90509295985092959890939650565b6000806000806080858703121561382b57600080fd5b843567ffffffffffffffff8082111561384357600080fd5b9086019060c0828903121561385757600080fd5b61385f613c1f565b61386883613595565b815261387660208401613595565b602082015261388760408401613581565b604082015260608301358281111561389e57600080fd5b6138aa8a828601613530565b6060830152506080830135828111156138c257600080fd5b6138ce8a828601613530565b60808301525060a0830135828111156138e657600080fd5b6138f28a8286016134c7565b60a0830152509550613909915050602086016135b8565b9250613917604086016135a4565b9396929550929360600135925050565b6000806040838503121561393a57600080fd5b8235915060208084013567ffffffffffffffff81111561395957600080fd5b8401601f8101861361396a57600080fd5b803561397861345582613c79565b80828252848201915084840189868560051b870101111561399857600080fd5b600094505b838510156139bb57803583526001949094019391850191850161399d565b5080955050505050509250929050565b6000602082840312156139dd57600080fd5b81516bffffffffffffffffffffffff8116811461314b57600080fd5b60008151808452613a11816020860160208601613e0b565b601f01601f19169290920160200192915050565b60208152600061314b60208301846139f9565b604081526000613a4b60408301856139f9565b8281036020840152611cbe81856139f9565b61018081526000613a7261018083018f6139f9565b8281036020840152613a84818f6139f9565b90508281036040840152613a98818e6139f9565b90508281036060840152613aac818d6139f9565b90508281036080840152613ac0818c6139f9565b905082810360a0840152613ad4818b6139f9565b905082810360c0840152613ae8818a6139f9565b905082810360e0840152613afc81896139f9565b9050828103610100840152613b1181886139f9565b9050828103610120840152613b2681876139f9565b9050828103610140840152613b3b81866139f9565b9050828103610160840152613b5081856139f9565b9f9e505050505050505050505050505050565b67ffffffffffffffff84168152606060208201526000613b8660608301856139f9565b905063ffffffff83166040830152949350505050565b67ffffffffffffffff85168152608060208201526000613bbf60808301866139f9565b63ffffffff949094166040830152506060015292915050565b6000808335601e19843603018112613bef57600080fd5b83018035915067ffffffffffffffff821115613c0a57600080fd5b60200191503681900382131561352957600080fd5b60405160c0810167ffffffffffffffff81118282101715613c4257613c42613ef1565b60405290565b604051601f8201601f1916810167ffffffffffffffff81118282101715613c7157613c71613ef1565b604052919050565b600067ffffffffffffffff821115613c9357613c93613ef1565b5060051b60200190565b600067ffffffffffffffff821115613cb757613cb7613ef1565b50601f01601f191660200190565b60008219821115613cd857613cd8613eaf565b500190565b600181815b80851115613d18578160001904821115613cfe57613cfe613eaf565b80851615613d0b57918102915b93841c9390800290613ce2565b509250929050565b600061314b8383600082613d3657506001612eea565b81613d4357506000612eea565b8160018114613d595760028114613d6357613d7f565b6001915050612eea565b60ff841115613d7457613d74613eaf565b50506001821b612eea565b5060208310610133831016604e8410600b8410161715613da2575081810a612eea565b613dac8383613cdd565b8060001904821115613dc057613dc0613eaf565b029392505050565b6000816000190483118215151615613de257613de2613eaf565b500290565b600082821015613df957613df9613eaf565b500390565b600061314b368484613447565b60005b83811015613e26578181015183820152602001613e0e565b838111156105155750506000910152565b600181811c90821680613e4b57607f821691505b60208210811415613e6c57634e487b7160e01b600052602260045260246000fd5b50919050565b6000600019821415613e8657613e86613eaf565b5060010190565b600082613eaa57634e487b7160e01b600052601260045260246000fd5b500690565b634e487b7160e01b600052601160045260246000fd5b634e487b7160e01b600052602160045260246000fd5b634e487b7160e01b600052603260045260246000fd5b634e487b7160e01b600052604160045260246000fd5b6001600160a01b038116811461255457600080fdfea26469706673582212202633a54346774a7ac8c9300fc59f95653995cd5371efc18695dca77cbc0e949864736f6c63430008070033",
  "linkReferences": {},
  "deployedLinkReferences": {}
}