{
  "_format": "hh-sol-artifact-1",
  "contractName": "Insurance",
  "sourceName": "contracts/Insurance.sol",
  "abi": [
    {
      "inputs": [
        {
          "internalType": "address",
          "name": "oracle",
          "type": "address"
        },
        {
          "internalType": "address",
          "name": "linkMaticAddress",
          "type": "address"
        },
        {
          "internalType": "address",
          "name": "maticUsdAddress",
          "type": "address"
        },
        {
          "internalType": "uint64",
          "name": "subscriptionId",
          "type": "uint64"
        }
      ],
      "stateMutability": "nonpayable",
      "type": "constructor"
    },
    {
      "inputs": [],
      "name": "EmptyArgs",
      "type": "error"
    },
    {
      "inputs": [],
      "name": "EmptySource",
      "type": "error"
    },
    {
      "inputs": [],
      "name": "NoInlineSecrets",
      "type": "error"
    },
    {
      "inputs": [
        {
          "internalType": "address",
          "name": "have",
          "type": "address"
        },
        {
          "internalType": "address",
          "name": "want",
          "type": "address"
        }
      ],
      "name": "OnlyCoordinatorCanFulfill",
      "type": "error"
    },
    {
      "inputs": [],
      "name": "RequestIsAlreadyPending",
      "type": "error"
    },
    {
      "inputs": [],
      "name": "RequestIsNotPending",
      "type": "error"
    },
    {
      "inputs": [],
      "name": "SenderIsNotRegistry",
      "type": "error"
    },
    {
      "anonymous": false,
      "inputs": [
        {
          "indexed": false,
          "internalType": "string[]",
          "name": "args",
          "type": "string[]"
        }
      ],
      "name": "AdjustedArgs",
      "type": "event"
    },
    {
      "anonymous": false,
      "inputs": [
        {
          "indexed": true,
          "internalType": "bytes32",
          "name": "requestId",
          "type": "bytes32"
        }
      ],
      "name": "OCRRequest",
      "type": "event"
    },
    {
      "anonymous": false,
      "inputs": [
        {
          "indexed": true,
          "internalType": "bytes32",
          "name": "requestId",
          "type": "bytes32"
        },
        {
          "indexed": false,
          "internalType": "bytes",
          "name": "result",
          "type": "bytes"
        },
        {
          "indexed": false,
          "internalType": "bytes",
          "name": "err",
          "type": "bytes"
        }
      ],
      "name": "OCRResponse",
      "type": "event"
    },
    {
      "anonymous": false,
      "inputs": [
        {
          "indexed": true,
          "internalType": "address",
          "name": "from",
          "type": "address"
        },
        {
          "indexed": true,
          "internalType": "address",
          "name": "to",
          "type": "address"
        }
      ],
      "name": "OwnershipTransferRequested",
      "type": "event"
    },
    {
      "anonymous": false,
      "inputs": [
        {
          "indexed": true,
          "internalType": "address",
          "name": "from",
          "type": "address"
        },
        {
          "indexed": true,
          "internalType": "address",
          "name": "to",
          "type": "address"
        }
      ],
      "name": "OwnershipTransferred",
      "type": "event"
    },
    {
      "anonymous": false,
      "inputs": [
        {
          "indexed": false,
          "internalType": "address",
          "name": "policyOwner",
          "type": "address"
        },
        {
          "indexed": false,
          "internalType": "uint256",
          "name": "policyIndex",
          "type": "uint256"
        },
        {
          "indexed": false,
          "internalType": "uint256",
          "name": "cost",
          "type": "uint256"
        }
      ],
      "name": "PolicyCreated",
      "type": "event"
    },
    {
      "anonymous": false,
      "inputs": [
        {
          "indexed": false,
          "internalType": "address",
          "name": "policyOwner",
          "type": "address"
        },
        {
          "indexed": false,
          "internalType": "uint256",
          "name": "policyIndex",
          "type": "uint256"
        }
      ],
      "name": "PolicyEnded",
      "type": "event"
    },
    {
      "anonymous": false,
      "inputs": [
        {
          "indexed": false,
          "internalType": "address",
          "name": "policyOwner",
          "type": "address"
        },
        {
          "indexed": false,
          "internalType": "uint256",
          "name": "policyIndex",
          "type": "uint256"
        }
      ],
      "name": "PolicyStarted",
      "type": "event"
    },
    {
      "anonymous": false,
      "inputs": [
        {
          "indexed": false,
          "internalType": "uint256",
          "name": "requestId",
          "type": "uint256"
        },
        {
          "indexed": false,
          "internalType": "uint256[]",
          "name": "randomWords",
          "type": "uint256[]"
        }
      ],
      "name": "RequestFulfilled",
      "type": "event"
    },
    {
      "anonymous": false,
      "inputs": [
        {
          "indexed": true,
          "internalType": "bytes32",
          "name": "id",
          "type": "bytes32"
        }
      ],
      "name": "RequestFulfilled",
      "type": "event"
    },
    {
      "anonymous": false,
      "inputs": [
        {
          "indexed": false,
          "internalType": "uint256",
          "name": "requestId",
          "type": "uint256"
        },
        {
          "indexed": false,
          "internalType": "uint32",
          "name": "numWords",
          "type": "uint32"
        }
      ],
      "name": "RequestSent",
      "type": "event"
    },
    {
      "anonymous": false,
      "inputs": [
        {
          "indexed": true,
          "internalType": "bytes32",
          "name": "id",
          "type": "bytes32"
        }
      ],
      "name": "RequestSent",
      "type": "event"
    },
    {
      "anonymous": false,
      "inputs": [
        {
          "indexed": false,
          "internalType": "address",
          "name": "userAddress",
          "type": "address"
        },
        {
          "indexed": false,
          "internalType": "uint256",
          "name": "payoutAmountInMatic",
          "type": "uint256"
        }
      ],
      "name": "UserPaid",
      "type": "event"
    },
    {
      "inputs": [],
      "name": "acceptOwnership",
      "outputs": [],
      "stateMutability": "nonpayable",
      "type": "function"
    },
    {
      "inputs": [
        {
          "internalType": "address",
          "name": "oracleAddress",
          "type": "address"
        },
        {
          "internalType": "bytes32",
          "name": "requestId",
          "type": "bytes32"
        }
      ],
      "name": "addSimulatedRequestId",
      "outputs": [],
      "stateMutability": "nonpayable",
      "type": "function"
    },
    {
      "inputs": [],
      "name": "boolInsuranceData",
      "outputs": [
        {
          "internalType": "bool",
          "name": "",
          "type": "bool"
        }
      ],
      "stateMutability": "view",
      "type": "function"
    },
    {
      "inputs": [
        {
          "internalType": "bytes",
          "name": "input",
          "type": "bytes"
        }
      ],
      "name": "bytesToUint256",
      "outputs": [
        {
          "internalType": "uint256",
          "name": "result",
          "type": "uint256"
        }
      ],
      "stateMutability": "pure",
      "type": "function"
    },
    {
      "inputs": [],
      "name": "checkPayoutContract",
      "outputs": [
        {
          "internalType": "address",
          "name": "",
          "type": "address"
        }
      ],
      "stateMutability": "view",
      "type": "function"
    },
    {
      "inputs": [],
      "name": "constructionTime",
      "outputs": [
        {
          "internalType": "uint256",
          "name": "",
          "type": "uint256"
        }
      ],
      "stateMutability": "view",
      "type": "function"
    },
    {
      "inputs": [],
      "name": "currentTime",
      "outputs": [
        {
          "internalType": "uint256",
          "name": "",
          "type": "uint256"
        }
      ],
      "stateMutability": "view",
      "type": "function"
    },
    {
      "inputs": [
        {
          "internalType": "address",
          "name": "policyOwner",
          "type": "address"
        },
        {
          "internalType": "uint256",
          "name": "policyIndex",
          "type": "uint256"
        }
      ],
      "name": "endPolicy",
      "outputs": [],
      "stateMutability": "nonpayable",
      "type": "function"
    },
    {
      "inputs": [
        {
          "components": [
            {
              "internalType": "enum Functions.Location",
              "name": "codeLocation",
              "type": "uint8"
            },
            {
              "internalType": "enum Functions.Location",
              "name": "secretsLocation",
              "type": "uint8"
            },
            {
              "internalType": "enum Functions.CodeLanguage",
              "name": "language",
              "type": "uint8"
            },
            {
              "internalType": "string",
              "name": "source",
              "type": "string"
            },
            {
              "internalType": "bytes",
              "name": "secrets",
              "type": "bytes"
            },
            {
              "internalType": "string[]",
              "name": "args",
              "type": "string[]"
            }
          ],
          "internalType": "struct Functions.Request",
          "name": "req",
          "type": "tuple"
        },
        {
          "internalType": "uint64",
          "name": "subscriptionId",
          "type": "uint64"
        },
        {
          "internalType": "uint32",
          "name": "gasLimit",
          "type": "uint32"
        },
        {
          "internalType": "uint256",
          "name": "gasPrice",
          "type": "uint256"
        }
      ],
      "name": "estimateCost",
      "outputs": [
        {
          "internalType": "uint96",
          "name": "",
          "type": "uint96"
        }
      ],
      "stateMutability": "view",
      "type": "function"
    },
    {
      "inputs": [
        {
          "internalType": "string[]",
          "name": "args",
          "type": "string[]"
        },
        {
          "internalType": "uint64",
          "name": "subscriptionId",
          "type": "uint64"
        },
        {
          "internalType": "uint32",
          "name": "gasLimit",
          "type": "uint32"
        }
      ],
      "name": "estimateInsurance",
      "outputs": [
        {
          "internalType": "bytes32",
          "name": "",
          "type": "bytes32"
        }
      ],
      "stateMutability": "payable",
      "type": "function"
    },
    {
      "inputs": [
        {
          "internalType": "address",
          "name": "user",
          "type": "address"
        }
      ],
      "name": "getAllUserPolicies",
      "outputs": [
        {
          "components": [
            {
              "internalType": "string",
              "name": "latNe",
              "type": "string"
            },
            {
              "internalType": "string",
              "name": "longNe",
              "type": "string"
            },
            {
              "internalType": "string",
              "name": "latSe",
              "type": "string"
            },
            {
              "internalType": "string",
              "name": "longSe",
              "type": "string"
            },
            {
              "internalType": "string",
              "name": "latSw",
              "type": "string"
            },
            {
              "internalType": "string",
              "name": "longSw",
              "type": "string"
            },
            {
              "internalType": "string",
              "name": "latNw",
              "type": "string"
            },
            {
              "internalType": "string",
              "name": "longNw",
              "type": "string"
            },
            {
              "internalType": "string",
              "name": "configParam",
              "type": "string"
            },
            {
              "internalType": "string",
              "name": "startTime",
              "type": "string"
            },
            {
              "internalType": "string",
              "name": "endTime",
              "type": "string"
            },
            {
              "internalType": "string",
              "name": "policyCreationTime",
              "type": "string"
            }
          ],
          "internalType": "struct Insurance.InsuranceData[]",
          "name": "",
          "type": "tuple[]"
        }
      ],
      "stateMutability": "view",
      "type": "function"
    },
    {
      "inputs": [],
      "name": "getCurrentTime",
      "outputs": [
        {
          "internalType": "uint256",
          "name": "",
          "type": "uint256"
        }
      ],
      "stateMutability": "view",
      "type": "function"
    },
    {
      "inputs": [],
      "name": "getDONPublicKey",
      "outputs": [
        {
          "internalType": "bytes",
          "name": "",
          "type": "bytes"
        }
      ],
      "stateMutability": "view",
      "type": "function"
    },
    {
      "inputs": [
        {
          "internalType": "bytes32",
          "name": "requestId",
          "type": "bytes32"
        }
      ],
      "name": "getInsuranceQuoteData",
      "outputs": [
        {
          "components": [
            {
              "internalType": "address",
              "name": "user",
              "type": "address"
            },
            {
              "internalType": "uint256",
              "name": "policyIndex",
              "type": "uint256"
            },
            {
              "internalType": "uint256",
              "name": "cost",
              "type": "uint256"
            }
          ],
          "internalType": "struct Insurance.InsuranceQuoteData",
          "name": "",
          "type": "tuple"
        }
      ],
      "stateMutability": "view",
      "type": "function"
    },
    {
      "inputs": [],
      "name": "getLastRandomWord",
      "outputs": [
        {
          "internalType": "uint256",
          "name": "",
          "type": "uint256"
        }
      ],
      "stateMutability": "view",
      "type": "function"
    },
    {
      "inputs": [
        {
          "internalType": "address",
          "name": "user",
          "type": "address"
        },
        {
          "internalType": "uint256",
          "name": "policyIndex",
          "type": "uint256"
        }
      ],
      "name": "getPolicyData",
      "outputs": [
        {
          "components": [
            {
              "internalType": "string",
              "name": "latNe",
              "type": "string"
            },
            {
              "internalType": "string",
              "name": "longNe",
              "type": "string"
            },
            {
              "internalType": "string",
              "name": "latSe",
              "type": "string"
            },
            {
              "internalType": "string",
              "name": "longSe",
              "type": "string"
            },
            {
              "internalType": "string",
              "name": "latSw",
              "type": "string"
            },
            {
              "internalType": "string",
              "name": "longSw",
              "type": "string"
            },
            {
              "internalType": "string",
              "name": "latNw",
              "type": "string"
            },
            {
              "internalType": "string",
              "name": "longNw",
              "type": "string"
            },
            {
              "internalType": "string",
              "name": "configParam",
              "type": "string"
            },
            {
              "internalType": "string",
              "name": "startTime",
              "type": "string"
            },
            {
              "internalType": "string",
              "name": "endTime",
              "type": "string"
            },
            {
              "internalType": "string",
              "name": "policyCreationTime",
              "type": "string"
            }
          ],
          "internalType": "struct Insurance.InsuranceData",
          "name": "",
          "type": "tuple"
        }
      ],
      "stateMutability": "view",
      "type": "function"
    },
    {
      "inputs": [
        {
          "internalType": "address",
          "name": "_address",
          "type": "address"
        },
        {
          "internalType": "uint256",
          "name": "_policyIndex",
          "type": "uint256"
        }
      ],
      "name": "getPolicyRequestId",
      "outputs": [
        {
          "internalType": "bytes32",
          "name": "",
          "type": "bytes32"
        }
      ],
      "stateMutability": "view",
      "type": "function"
    },
    {
      "inputs": [],
      "name": "getPriceLinkMatic",
      "outputs": [
        {
          "internalType": "int256",
          "name": "",
          "type": "int256"
        }
      ],
      "stateMutability": "view",
      "type": "function"
    },
    {
      "inputs": [],
      "name": "getPriceMaticUsd",
      "outputs": [
        {
          "internalType": "int256",
          "name": "",
          "type": "int256"
        }
      ],
      "stateMutability": "view",
      "type": "function"
    },
    {
      "inputs": [
        {
          "internalType": "uint256",
          "name": "_requestId",
          "type": "uint256"
        }
      ],
      "name": "getRequestStatus",
      "outputs": [
        {
          "internalType": "bool",
          "name": "fulfilled",
          "type": "bool"
        },
        {
          "internalType": "uint256[]",
          "name": "randomWords",
          "type": "uint256[]"
        }
      ],
      "stateMutability": "view",
      "type": "function"
    },
    {
      "inputs": [],
      "name": "getSourceCode",
      "outputs": [
        {
          "internalType": "string",
          "name": "",
          "type": "string"
        }
      ],
      "stateMutability": "view",
      "type": "function"
    },
    {
      "inputs": [
        {
          "internalType": "bytes32",
          "name": "requestId",
          "type": "bytes32"
        },
        {
          "internalType": "bytes",
          "name": "response",
          "type": "bytes"
        },
        {
          "internalType": "bytes",
          "name": "err",
          "type": "bytes"
        }
      ],
      "name": "handleOracleFulfillment",
      "outputs": [],
      "stateMutability": "nonpayable",
      "type": "function"
    },
    {
      "inputs": [],
      "name": "helloWorld",
      "outputs": [
        {
          "internalType": "string",
          "name": "",
          "type": "string"
        }
      ],
      "stateMutability": "view",
      "type": "function"
    },
    {
      "inputs": [
        {
          "internalType": "address",
          "name": "",
          "type": "address"
        },
        {
          "internalType": "uint256",
          "name": "",
          "type": "uint256"
        }
      ],
      "name": "insurancePoliciesMapping",
      "outputs": [
        {
          "internalType": "string",
          "name": "latNe",
          "type": "string"
        },
        {
          "internalType": "string",
          "name": "longNe",
          "type": "string"
        },
        {
          "internalType": "string",
          "name": "latSe",
          "type": "string"
        },
        {
          "internalType": "string",
          "name": "longSe",
          "type": "string"
        },
        {
          "internalType": "string",
          "name": "latSw",
          "type": "string"
        },
        {
          "internalType": "string",
          "name": "longSw",
          "type": "string"
        },
        {
          "internalType": "string",
          "name": "latNw",
          "type": "string"
        },
        {
          "internalType": "string",
          "name": "longNw",
          "type": "string"
        },
        {
          "internalType": "string",
          "name": "configParam",
          "type": "string"
        },
        {
          "internalType": "string",
          "name": "startTime",
          "type": "string"
        },
        {
          "internalType": "string",
          "name": "endTime",
          "type": "string"
        },
        {
          "internalType": "string",
          "name": "policyCreationTime",
          "type": "string"
        }
      ],
      "stateMutability": "view",
      "type": "function"
    },
    {
      "inputs": [
        {
          "internalType": "bytes32",
          "name": "",
          "type": "bytes32"
        }
      ],
      "name": "insuranceQuoteData",
      "outputs": [
        {
          "internalType": "address",
          "name": "user",
          "type": "address"
        },
        {
          "internalType": "uint256",
          "name": "policyIndex",
          "type": "uint256"
        },
        {
          "internalType": "uint256",
          "name": "cost",
          "type": "uint256"
        }
      ],
      "stateMutability": "view",
      "type": "function"
    },
    {
      "inputs": [],
      "name": "lastRequestId",
      "outputs": [
        {
          "internalType": "uint256",
          "name": "",
          "type": "uint256"
        }
      ],
      "stateMutability": "view",
      "type": "function"
    },
    {
      "inputs": [],
      "name": "latestError",
      "outputs": [
        {
          "internalType": "bytes",
          "name": "",
          "type": "bytes"
        }
      ],
      "stateMutability": "view",
      "type": "function"
    },
    {
      "inputs": [],
      "name": "latestRequestId",
      "outputs": [
        {
          "internalType": "bytes32",
          "name": "",
          "type": "bytes32"
        }
      ],
      "stateMutability": "view",
      "type": "function"
    },
    {
      "inputs": [],
      "name": "latestResponse",
      "outputs": [
        {
          "internalType": "bytes",
          "name": "",
          "type": "bytes"
        }
      ],
      "stateMutability": "view",
      "type": "function"
    },
    {
      "inputs": [],
      "name": "linkMaticPriceFeed",
      "outputs": [
        {
          "internalType": "contract LinkMaticPriceFeed",
          "name": "",
          "type": "address"
        }
      ],
      "stateMutability": "view",
      "type": "function"
    },
    {
      "inputs": [],
      "name": "maticUsdPriceFeed",
      "outputs": [
        {
          "internalType": "contract MaticUsdPriceFeed",
          "name": "",
          "type": "address"
        }
      ],
      "stateMutability": "view",
      "type": "function"
    },
    {
      "inputs": [],
      "name": "owner",
      "outputs": [
        {
          "internalType": "address",
          "name": "",
          "type": "address"
        }
      ],
      "stateMutability": "view",
      "type": "function"
    },
    {
      "inputs": [
        {
          "internalType": "address payable",
          "name": "userAddress",
          "type": "address"
        },
        {
          "internalType": "uint256",
          "name": "payoutAmount",
          "type": "uint256"
        }
      ],
      "name": "payUser",
      "outputs": [],
      "stateMutability": "nonpayable",
      "type": "function"
    },
    {
      "inputs": [
        {
          "internalType": "address",
          "name": "",
          "type": "address"
        },
        {
          "internalType": "uint256",
          "name": "",
          "type": "uint256"
        }
      ],
      "name": "policyRequestIdMapping",
      "outputs": [
        {
          "internalType": "bytes32",
          "name": "",
          "type": "bytes32"
        }
      ],
      "stateMutability": "view",
      "type": "function"
    },
    {
      "inputs": [
        {
          "internalType": "address",
          "name": "",
          "type": "address"
        },
        {
          "internalType": "uint256",
          "name": "",
          "type": "uint256"
        }
      ],
      "name": "policyStatus",
      "outputs": [
        {
          "internalType": "enum Insurance.PolicyStatus",
          "name": "",
          "type": "uint8"
        }
      ],
      "stateMutability": "view",
      "type": "function"
    },
    {
      "inputs": [
        {
          "internalType": "uint256",
          "name": "",
          "type": "uint256"
        }
      ],
      "name": "randomnessRequesterAddress",
      "outputs": [
        {
          "internalType": "address",
          "name": "",
          "type": "address"
        }
      ],
      "stateMutability": "view",
      "type": "function"
    },
    {
      "inputs": [
        {
          "internalType": "uint256",
          "name": "requestId",
          "type": "uint256"
        },
        {
          "internalType": "uint256[]",
          "name": "randomWords",
          "type": "uint256[]"
        }
      ],
      "name": "rawFulfillRandomWords",
      "outputs": [],
      "stateMutability": "nonpayable",
      "type": "function"
    },
    {
      "inputs": [
        {
          "internalType": "uint256",
          "name": "",
          "type": "uint256"
        }
      ],
      "name": "requestIds",
      "outputs": [
        {
          "internalType": "uint256",
          "name": "",
          "type": "uint256"
        }
      ],
      "stateMutability": "view",
      "type": "function"
    },
    {
      "inputs": [],
      "name": "requestRandomWords",
      "outputs": [
        {
          "internalType": "uint256",
          "name": "requestId",
          "type": "uint256"
        }
      ],
      "stateMutability": "nonpayable",
      "type": "function"
    },
    {
      "inputs": [
        {
          "internalType": "uint256",
          "name": "",
          "type": "uint256"
        }
      ],
      "name": "s_requests",
      "outputs": [
        {
          "internalType": "bool",
          "name": "fulfilled",
          "type": "bool"
        },
        {
          "internalType": "bool",
          "name": "exists",
          "type": "bool"
        }
      ],
      "stateMutability": "view",
      "type": "function"
    },
    {
      "inputs": [
        {
          "internalType": "address",
          "name": "_checkPayoutContract",
          "type": "address"
        }
      ],
      "name": "setCheckPayoutContract",
      "outputs": [],
      "stateMutability": "nonpayable",
      "type": "function"
    },
    {
      "inputs": [
        {
          "internalType": "string",
          "name": "_sourceCode",
          "type": "string"
        }
      ],
      "name": "setSourceCode",
      "outputs": [],
      "stateMutability": "nonpayable",
      "type": "function"
    },
    {
      "inputs": [],
      "name": "sourceCode",
      "outputs": [
        {
          "internalType": "string",
          "name": "",
          "type": "string"
        }
      ],
      "stateMutability": "view",
      "type": "function"
    },
    {
      "inputs": [
        {
          "internalType": "bytes32",
          "name": "requestId",
          "type": "bytes32"
        }
      ],
      "name": "startPolicy",
      "outputs": [
        {
          "internalType": "uint256",
          "name": "",
          "type": "uint256"
        }
      ],
      "stateMutability": "payable",
      "type": "function"
    },
    {
      "inputs": [
        {
          "internalType": "address",
          "name": "to",
          "type": "address"
        }
      ],
      "name": "transferOwnership",
      "outputs": [],
      "stateMutability": "nonpayable",
      "type": "function"
    },
    {
      "inputs": [
        {
          "internalType": "address",
          "name": "oracle",
          "type": "address"
        }
      ],
      "name": "updateOracleAddress",
      "outputs": [],
      "stateMutability": "nonpayable",
      "type": "function"
    }
  ],
  "bytecode": "0x60a06040527f4b09e658ed251bcafeebbc69400383d49f344ace09b9576fe248bb02c003fe9f600a55600b80546001600160501b03191666010003000493e0179055426010553480156200005257600080fd5b5060405162005e6f38038062005e6f8339810160408190526200007591620002a5565b600080546001600160a01b0319166001600160a01b0386161781557f7a1bac17ccc5b313516c5e16fb24f7659aa5ebed00000000000000000000000060805233908190816200010b5760405162461bcd60e51b815260206004820152601860248201527f43616e6e6f7420736574206f776e657220746f207a65726f000000000000000060448201526064015b60405180910390fd5b600280546001600160a01b0319166001600160a01b03848116919091179091558116156200013e576200013e81620001db565b5050600b80546001600160a01b039586166a010000000000000000000002600160501b600160f01b031990911617905550600c8054929093166001600160a01b031992831617909255600780546001600160401b03909316600160a01b026001600160e01b031990931692909217737a1bac17ccc5b313516c5e16fb24f7659aa5ebed179091554260065560058054909116331790555062000310565b6001600160a01b038116331415620002365760405162461bcd60e51b815260206004820152601760248201527f43616e6e6f74207472616e7366657220746f2073656c66000000000000000000604482015260640162000102565b600380546001600160a01b0319166001600160a01b03838116918217909255600254604051919216907fed8889f560326eb138920d842192f0eb3dd22b4f139c87a2c57538e05bae127890600090a350565b80516001600160a01b0381168114620002a057600080fd5b919050565b60008060008060808587031215620002bc57600080fd5b620002c78562000288565b9350620002d76020860162000288565b9250620002e76040860162000288565b60608601519092506001600160401b03811681146200030557600080fd5b939692955090935050565b60805160601c615b396200033660003960008181611e700152611ecb0152615b396000f3fe6080604052600436106102fc5760003560e01c8063b1011dbd1161018f578063d8a4676f116100e1578063f06c56101161008a578063f7023bb611610064578063f7023bb6146109aa578063fc2a88c3146109ca578063fffeb84e146109e057600080fd5b8063f06c56101461092c578063f11da55b14610942578063f2fde38b1461098a57600080fd5b8063e3928b7f116100bb578063e3928b7f146108c9578063e5c33f30146108de578063ecd831e81461090c57600080fd5b8063d8a4676f1461084e578063e0c862891461087c578063e0e2fa9a1461089157600080fd5b8063c0303c3711610143578063d18e81b31161011d578063d18e81b3146107e6578063d328a91e146107fc578063d4b391751461081157600080fd5b8063c0303c371461075e578063c605f76c1461077e578063cc9de25d146107c457600080fd5b8063b91ce20511610174578063b91ce20514610714578063bc58d68c14610729578063bef3a2f01461074957600080fd5b8063b1011dbd14610671578063b655cd9b146106dc57600080fd5b806330bda99d116102535780636ec7be7e116101fc5780638796ba8c116101d65780638796ba8c146105e35780638da5cb5b14610603578063a168fa891461062157600080fd5b80636ec7be7e1461055e57806379ba5097146105a157806380858026146105b657600080fd5b8063698cd3ad1161022d578063698cd3ad1461050957806369f8eaed1461051e5780636c6f99901461053e57600080fd5b806330bda99d1461046e5780635ec7baca1461048e57806361875d8d146104dc57600080fd5b806313c60177116102b55780631fe543e31161028f5780631fe543e3146103ee578063215fc6251461040e57806329cb924d1461045957600080fd5b806313c60177146103a35780631aa1a081146103c55780631aa46f59146103d857600080fd5b806305f411d6116102e657806305f411d61461034d5780630b50567f146103705780630ca761751461038357600080fd5b8062b467671461030157806304b2303c14610323575b600080fd5b34801561030d57600080fd5b5061032161031c3660046150ea565b6109f5565b005b34801561032f57600080fd5b50610338610a14565b60405190151581526020015b60405180910390f35b34801561035957600080fd5b5061036261123d565b604051908152602001610344565b61036261037e36600461504b565b6112ca565b34801561038f57600080fd5b5061032161039e36600461507d565b611470565b3480156103af57600080fd5b506103b8611516565b60405161034491906155a2565b6103626103d3366004614fb6565b6115a4565b3480156103e457600080fd5b50610362600d5481565b3480156103fa57600080fd5b506103216104093660046152a7565b611e65565b34801561041a57600080fd5b5061042e61042936600461504b565b611f02565b6040805182516001600160a01b03168152602080840151908201529181015190820152606001610344565b34801561046557600080fd5b50601054610362565b34801561047a57600080fd5b50610321610489366004614f8a565b611ffb565b34801561049a57600080fd5b506104c46104a936600461504b565b6015602052600090815260409020546001600160a01b031681565b6040516001600160a01b039091168152602001610344565b3480156104e857600080fd5b506104fc6104f7366004614f8a565b61200d565b6040516103449190615708565b34801561051557600080fd5b506103b8612796565b34801561052a57600080fd5b50610321610539366004614f50565b612828565b34801561054a57600080fd5b50600c546104c4906001600160a01b031681565b34801561056a57600080fd5b50610362610579366004614f8a565b6001600160a01b03919091166000908152601160209081526040808320938352929052205490565b3480156105ad57600080fd5b50610321612852565b3480156105c257600080fd5b506105d66105d1366004614f50565b612907565b6040516103449190615525565b3480156105ef57600080fd5b506103626105fe36600461504b565b613055565b34801561060f57600080fd5b506002546001600160a01b03166104c4565b34801561062d57600080fd5b5061065a61063c36600461504b565b60166020526000908152604090205460ff8082169161010090041682565b604080519215158352901515602083015201610344565b34801561067d57600080fd5b506106b761068c36600461504b565b6013602052600090815260409020805460018201546002909201546001600160a01b03909116919083565b604080516001600160a01b039094168452602084019290925290820152606001610344565b3480156106e857600080fd5b506106fc6106f7366004614f8a565b613076565b6040516103449c9b9a99989796959493929190615602565b34801561072057600080fd5b50610362613753565b34801561073557600080fd5b50610321610744366004614f8a565b613815565b34801561075557600080fd5b506103b86138e7565b34801561076a57600080fd5b506005546104c4906001600160a01b031681565b34801561078a57600080fd5b5060408051808201909152600c81527f48656c6c6f20576f726c6421000000000000000000000000000000000000000060208201526103b8565b3480156107d057600080fd5b506103626107df3660046150ea565b6020015190565b3480156107f257600080fd5b5061036260105481565b34801561080857600080fd5b506103b86138f4565b34801561081d57600080fd5b5061083161082c366004615195565b61398d565b6040516bffffffffffffffffffffffff9091168152602001610344565b34801561085a57600080fd5b5061086e61086936600461504b565b613a23565b604051610344929190615587565b34801561088857600080fd5b50610362613b23565b34801561089d57600080fd5b506103626108ac366004614f8a565b601160209081526000928352604080842090915290825290205481565b3480156108d557600080fd5b50610362613d40565b3480156108ea57600080fd5b50600b546104c4906a010000000000000000000090046001600160a01b031681565b34801561091857600080fd5b50610321610927366004614f8a565b613d9e565b34801561093857600080fd5b5061036260065481565b34801561094e57600080fd5b5061097d61095d366004614f8a565b601260209081526000928352604080842090915290825290205460ff1681565b60405161034491906155da565b34801561099657600080fd5b506103216109a5366004614f50565b613eaf565b3480156109b657600080fd5b506103216109c5366004614f50565b613ec3565b3480156109d657600080fd5b5061036260095481565b3480156109ec57600080fd5b506103b8613ee9565b6109fd613ef6565b8051610a10906004906020840190614d11565b5050565b3360009081526014602052604081208054610a765760405162461bcd60e51b815260206004820152601760248201527f4e6f20696e737572616e6365206461746120666f756e6400000000000000000060448201526064015b60405180910390fd5b60005b8154811015611234576000828281548110610a9657610a96615ac2565b90600052602060002090600c020160405180610180016040529081600082018054610ac090615a16565b80601f0160208091040260200160405190810160405280929190818152602001828054610aec90615a16565b8015610b395780601f10610b0e57610100808354040283529160200191610b39565b820191906000526020600020905b815481529060010190602001808311610b1c57829003601f168201915b50505050508152602001600182018054610b5290615a16565b80601f0160208091040260200160405190810160405280929190818152602001828054610b7e90615a16565b8015610bcb5780601f10610ba057610100808354040283529160200191610bcb565b820191906000526020600020905b815481529060010190602001808311610bae57829003601f168201915b50505050508152602001600282018054610be490615a16565b80601f0160208091040260200160405190810160405280929190818152602001828054610c1090615a16565b8015610c5d5780601f10610c3257610100808354040283529160200191610c5d565b820191906000526020600020905b815481529060010190602001808311610c4057829003601f168201915b50505050508152602001600382018054610c7690615a16565b80601f0160208091040260200160405190810160405280929190818152602001828054610ca290615a16565b8015610cef5780601f10610cc457610100808354040283529160200191610cef565b820191906000526020600020905b815481529060010190602001808311610cd257829003601f168201915b50505050508152602001600482018054610d0890615a16565b80601f0160208091040260200160405190810160405280929190818152602001828054610d3490615a16565b8015610d815780601f10610d5657610100808354040283529160200191610d81565b820191906000526020600020905b815481529060010190602001808311610d6457829003601f168201915b50505050508152602001600582018054610d9a90615a16565b80601f0160208091040260200160405190810160405280929190818152602001828054610dc690615a16565b8015610e135780601f10610de857610100808354040283529160200191610e13565b820191906000526020600020905b815481529060010190602001808311610df657829003601f168201915b50505050508152602001600682018054610e2c90615a16565b80601f0160208091040260200160405190810160405280929190818152602001828054610e5890615a16565b8015610ea55780601f10610e7a57610100808354040283529160200191610ea5565b820191906000526020600020905b815481529060010190602001808311610e8857829003601f168201915b50505050508152602001600782018054610ebe90615a16565b80601f0160208091040260200160405190810160405280929190818152602001828054610eea90615a16565b8015610f375780601f10610f0c57610100808354040283529160200191610f37565b820191906000526020600020905b815481529060010190602001808311610f1a57829003601f168201915b50505050508152602001600882018054610f5090615a16565b80601f0160208091040260200160405190810160405280929190818152602001828054610f7c90615a16565b8015610fc95780601f10610f9e57610100808354040283529160200191610fc9565b820191906000526020600020905b815481529060010190602001808311610fac57829003601f168201915b50505050508152602001600982018054610fe290615a16565b80601f016020809104026020016040519081016040528092919081815260200182805461100e90615a16565b801561105b5780601f106110305761010080835404028352916020019161105b565b820191906000526020600020905b81548152906001019060200180831161103e57829003601f168201915b50505050508152602001600a8201805461107490615a16565b80601f01602080910402602001604051908101604052809291908181526020018280546110a090615a16565b80156110ed5780601f106110c2576101008083540402835291602001916110ed565b820191906000526020600020905b8154815290600101906020018083116110d057829003601f168201915b50505050508152602001600b8201805461110690615a16565b80601f016020809104026020016040519081016040528092919081815260200182805461113290615a16565b801561117f5780601f106111545761010080835404028352916020019161117f565b820191906000526020600020905b81548152906001019060200180831161116257829003601f168201915b50505050508152505090508060c00151516000141580156111a4575060e08101515115155b80156111b1575080515115155b80156111c1575060208101515115155b80156111d1575060408101515115155b80156111e1575060608101515115155b80156111f1575060808101515115155b8015611201575060a08101515115155b801561121257506101008101515115155b15611221576001935050505090565b508061122c81615a51565b915050610a79565b50600091505090565b6000600b600a9054906101000a90046001600160a01b03166001600160a01b0316638e15f4736040518163ffffffff1660e01b815260040160206040518083038186803b15801561128d57600080fd5b505afa1580156112a1573d6000803e3d6000fd5b505050506040513d601f19601f820116820180604052508101906112c59190615064565b905090565b600081815260136020908152604080832060028101546001820154338652601490945291842080549193918591908390811061130857611308615ac2565b6000918252602080832033845260128252604080852087865290925290832054600c9290920201925060ff16600281111561134557611345615aac565b146113925760405162461bcd60e51b815260206004820152601560248201527f506f6c696379206973206e6f742070656e64696e6700000000000000000000006044820152606401610a6d565b600061139c613d40565b90506000816113ae86620f42406159b4565b6113b891906158b5565b90508034101561140a5760405162461bcd60e51b815260206004820152601560248201527f4e6f7420656e6f756768204d617469632073656e7400000000000000000000006044820152606401610a6d565b336000818152601260209081526040808320888452825291829020805460ff19166001179055815192835282018690527f153598a6c97963bd4d16e97786943eb68bcc8ca58077614327e965efe69fa110910160405180910390a1505050505050919050565b60008381526001602052604090205483906001600160a01b031633146114c2576040517fa0c5ec6300000000000000000000000000000000000000000000000000000000815260040160405180910390fd5b60008181526001602052604080822080546001600160a01b03191690555182917f85e1543bf2f84fe80c6badbce3648c8539ad1df4d2b3d822938ca0538be727e691a2611510848484613f52565b50505050565b6004805461152390615a16565b80601f016020809104026020016040519081016040528092919081815260200182805461154f90615a16565b801561159c5780601f106115715761010080835404028352916020019161159c565b820191906000526020600020905b81548152906001019060200180831161157f57829003601f168201915b505050505081565b6000600b84146115f65760405162461bcd60e51b815260206004820152601b60248201527f496e76616c6964206e756d626572206f6620617267756d656e747300000000006044820152606401610a6d565b3360009081526014602052604081209061160f42614033565b9050816040518061018001604052808989600081811061163157611631615ac2565b905060200281019061164391906157a9565b8080601f0160208091040260200160405190810160405280939291908181526020018383808284376000920191909152505050908252506020018989600181811061169057611690615ac2565b90506020028101906116a291906157a9565b8080601f016020809104026020016040519081016040528093929190818152602001838380828437600092019190915250505090825250602001898960028181106116ef576116ef615ac2565b905060200281019061170191906157a9565b8080601f0160208091040260200160405190810160405280939291908181526020018383808284376000920191909152505050908252506020018989600381811061174e5761174e615ac2565b905060200281019061176091906157a9565b8080601f016020809104026020016040519081016040528093929190818152602001838380828437600092019190915250505090825250602001898960048181106117ad576117ad615ac2565b90506020028101906117bf91906157a9565b8080601f0160208091040260200160405190810160405280939291908181526020018383808284376000920191909152505050908252506020018989600581811061180c5761180c615ac2565b905060200281019061181e91906157a9565b8080601f0160208091040260200160405190810160405280939291908181526020018383808284376000920191909152505050908252506020018989600681811061186b5761186b615ac2565b905060200281019061187d91906157a9565b8080601f016020809104026020016040519081016040528093929190818152602001838380828437600092019190915250505090825250602001898960078181106118ca576118ca615ac2565b90506020028101906118dc91906157a9565b8080601f0160208091040260200160405190810160405280939291908181526020018383808284376000920191909152505050908252506020018989600881811061192957611929615ac2565b905060200281019061193b91906157a9565b8080601f0160208091040260200160405190810160405280939291908181526020018383808284376000920191909152505050908252506020018989600981811061198857611988615ac2565b905060200281019061199a91906157a9565b8080601f0160208091040260200160405190810160405280939291908181526020018383808284376000920191909152505050908252506020018989600a8181106119e7576119e7615ac2565b90506020028101906119f991906157a9565b8080601f016020809104026020016040519081016040528093929190818152602001838380828437600092018290525093855250505060209182018590528354600181018555938152819020825180519394600c0290910192611a5f9284920190614d11565b506020828101518051611a789260018501920190614d11565b5060408201518051611a94916002840191602090910190614d11565b5060608201518051611ab0916003840191602090910190614d11565b5060808201518051611acc916004840191602090910190614d11565b5060a08201518051611ae8916005840191602090910190614d11565b5060c08201518051611b04916006840191602090910190614d11565b5060e08201518051611b20916007840191602090910190614d11565b506101008201518051611b3d916008840191602090910190614d11565b506101208201518051611b5a916009840191602090910190614d11565b506101408201518051611b7791600a840191602090910190614d11565b506101608201518051611b9491600b840191602090910190614d11565b505033600090815260146020526040812054909150611bb5906001906159d3565b9050611bf16040805160c08101909152806000815260200160008152602001600081526020016060815260200160608152602001606081525090565b611c9360008060048054611c0490615a16565b80601f0160208091040260200160405190810160405280929190818152602001828054611c3090615a16565b8015611c7d5780601f10611c5257610100808354040283529160200191611c7d565b820191906000526020600020905b815481529060010190602001808311611c6057829003601f168201915b5050505050846140dd909392919063ffffffff16565b6000611ca089600161589d565b67ffffffffffffffff811115611cb857611cb8615ad8565b604051908082528060200260200182016040528015611ceb57816020015b6060815260200190600190039081611cd65790505b50905060005b89811015611d83578a8a82818110611d0b57611d0b615ac2565b9050602002810190611d1d91906157a9565b8080601f0160208091040260200160405190810160405280939291908181526020018383808284376000920191909152505084518592508491508110611d6557611d65615ac2565b60200260200101819052508080611d7b90615a51565b915050611cf1565b5083818b8b905081518110611d9a57611d9a615ac2565b6020908102919091010152611daf8282614171565b6000611dbc838a8a6141b1565b60408051606081018252338082526020808301898152600084860181815287825260138452868220955186546001600160a01b0319166001600160a01b03909116178655915160018601559051600290940193909355600d859055908252601181528282208883529052818120839055905191925082917f0790d5075e76350b19c3d15f0de9144077f6fb31397b526ce8664d7faf7dde6b9190a29a9950505050505050505050565b336001600160a01b037f00000000000000000000000000000000000000000000000000000000000000001614611ef8576040517f1cf993f40000000000000000000000000000000000000000000000000000000081523360048201526001600160a01b037f0000000000000000000000000000000000000000000000000000000000000000166024820152604401610a6d565b610a108282614323565b611f2f604051806060016040528060006001600160a01b0316815260200160008152602001600081525090565b6000828152601360205260409020546001600160a01b0316611fb95760405162461bcd60e51b815260206004820152602560248201527f4e6f206461746120666f756e6420666f722074686520676976656e207265717560448201527f65737449640000000000000000000000000000000000000000000000000000006064820152608401610a6d565b50600090815260136020908152604091829020825160608101845281546001600160a01b03168152600182015492810192909252600201549181019190915290565b612003613ef6565b610a1082826143e9565b6120716040518061018001604052806060815260200160608152602001606081526020016060815260200160608152602001606081526020016060815260200160608152602001606081526020016060815260200160608152602001606081525090565b6001600160a01b038316600090815260146020526040902080548390811061209b5761209b615ac2565b90600052602060002090600c0201604051806101800160405290816000820180546120c590615a16565b80601f01602080910402602001604051908101604052809291908181526020018280546120f190615a16565b801561213e5780601f106121135761010080835404028352916020019161213e565b820191906000526020600020905b81548152906001019060200180831161212157829003601f168201915b5050505050815260200160018201805461215790615a16565b80601f016020809104026020016040519081016040528092919081815260200182805461218390615a16565b80156121d05780601f106121a5576101008083540402835291602001916121d0565b820191906000526020600020905b8154815290600101906020018083116121b357829003601f168201915b505050505081526020016002820180546121e990615a16565b80601f016020809104026020016040519081016040528092919081815260200182805461221590615a16565b80156122625780601f1061223757610100808354040283529160200191612262565b820191906000526020600020905b81548152906001019060200180831161224557829003601f168201915b5050505050815260200160038201805461227b90615a16565b80601f01602080910402602001604051908101604052809291908181526020018280546122a790615a16565b80156122f45780601f106122c9576101008083540402835291602001916122f4565b820191906000526020600020905b8154815290600101906020018083116122d757829003601f168201915b5050505050815260200160048201805461230d90615a16565b80601f016020809104026020016040519081016040528092919081815260200182805461233990615a16565b80156123865780601f1061235b57610100808354040283529160200191612386565b820191906000526020600020905b81548152906001019060200180831161236957829003601f168201915b5050505050815260200160058201805461239f90615a16565b80601f01602080910402602001604051908101604052809291908181526020018280546123cb90615a16565b80156124185780601f106123ed57610100808354040283529160200191612418565b820191906000526020600020905b8154815290600101906020018083116123fb57829003601f168201915b5050505050815260200160068201805461243190615a16565b80601f016020809104026020016040519081016040528092919081815260200182805461245d90615a16565b80156124aa5780601f1061247f576101008083540402835291602001916124aa565b820191906000526020600020905b81548152906001019060200180831161248d57829003601f168201915b505050505081526020016007820180546124c390615a16565b80601f01602080910402602001604051908101604052809291908181526020018280546124ef90615a16565b801561253c5780601f106125115761010080835404028352916020019161253c565b820191906000526020600020905b81548152906001019060200180831161251f57829003601f168201915b5050505050815260200160088201805461255590615a16565b80601f016020809104026020016040519081016040528092919081815260200182805461258190615a16565b80156125ce5780601f106125a3576101008083540402835291602001916125ce565b820191906000526020600020905b8154815290600101906020018083116125b157829003601f168201915b505050505081526020016009820180546125e790615a16565b80601f016020809104026020016040519081016040528092919081815260200182805461261390615a16565b80156126605780601f1061263557610100808354040283529160200191612660565b820191906000526020600020905b81548152906001019060200180831161264357829003601f168201915b50505050508152602001600a8201805461267990615a16565b80601f01602080910402602001604051908101604052809291908181526020018280546126a590615a16565b80156126f25780601f106126c7576101008083540402835291602001916126f2565b820191906000526020600020905b8154815290600101906020018083116126d557829003601f168201915b50505050508152602001600b8201805461270b90615a16565b80601f016020809104026020016040519081016040528092919081815260200182805461273790615a16565b80156127845780601f1061275957610100808354040283529160200191612784565b820191906000526020600020905b81548152906001019060200180831161276757829003601f168201915b50505050508152505090505b92915050565b6060600480546127a590615a16565b80601f01602080910402602001604051908101604052809291908181526020018280546127d190615a16565b801561281e5780601f106127f35761010080835404028352916020019161281e565b820191906000526020600020905b81548152906001019060200180831161280157829003601f168201915b5050505050905090565b612830613ef6565b600580546001600160a01b0319166001600160a01b0392909216919091179055565b6003546001600160a01b031633146128ac5760405162461bcd60e51b815260206004820152601660248201527f4d7573742062652070726f706f736564206f776e6572000000000000000000006044820152606401610a6d565b600280546001600160a01b0319808216339081179093556003805490911690556040516001600160a01b03909116919082907f8be0079c531659141344cd1fd0a4f28419497f9722a3daafe3b4186f6b6457e090600090a350565b6001600160a01b0381166000908152601460209081526040808320805482518185028101850190935280835260609492939192909184015b8282101561304a57838290600052602060002090600c02016040518061018001604052908160008201805461297390615a16565b80601f016020809104026020016040519081016040528092919081815260200182805461299f90615a16565b80156129ec5780601f106129c1576101008083540402835291602001916129ec565b820191906000526020600020905b8154815290600101906020018083116129cf57829003601f168201915b50505050508152602001600182018054612a0590615a16565b80601f0160208091040260200160405190810160405280929190818152602001828054612a3190615a16565b8015612a7e5780601f10612a5357610100808354040283529160200191612a7e565b820191906000526020600020905b815481529060010190602001808311612a6157829003601f168201915b50505050508152602001600282018054612a9790615a16565b80601f0160208091040260200160405190810160405280929190818152602001828054612ac390615a16565b8015612b105780601f10612ae557610100808354040283529160200191612b10565b820191906000526020600020905b815481529060010190602001808311612af357829003601f168201915b50505050508152602001600382018054612b2990615a16565b80601f0160208091040260200160405190810160405280929190818152602001828054612b5590615a16565b8015612ba25780601f10612b7757610100808354040283529160200191612ba2565b820191906000526020600020905b815481529060010190602001808311612b8557829003601f168201915b50505050508152602001600482018054612bbb90615a16565b80601f0160208091040260200160405190810160405280929190818152602001828054612be790615a16565b8015612c345780601f10612c0957610100808354040283529160200191612c34565b820191906000526020600020905b815481529060010190602001808311612c1757829003601f168201915b50505050508152602001600582018054612c4d90615a16565b80601f0160208091040260200160405190810160405280929190818152602001828054612c7990615a16565b8015612cc65780601f10612c9b57610100808354040283529160200191612cc6565b820191906000526020600020905b815481529060010190602001808311612ca957829003601f168201915b50505050508152602001600682018054612cdf90615a16565b80601f0160208091040260200160405190810160405280929190818152602001828054612d0b90615a16565b8015612d585780601f10612d2d57610100808354040283529160200191612d58565b820191906000526020600020905b815481529060010190602001808311612d3b57829003601f168201915b50505050508152602001600782018054612d7190615a16565b80601f0160208091040260200160405190810160405280929190818152602001828054612d9d90615a16565b8015612dea5780601f10612dbf57610100808354040283529160200191612dea565b820191906000526020600020905b815481529060010190602001808311612dcd57829003601f168201915b50505050508152602001600882018054612e0390615a16565b80601f0160208091040260200160405190810160405280929190818152602001828054612e2f90615a16565b8015612e7c5780601f10612e5157610100808354040283529160200191612e7c565b820191906000526020600020905b815481529060010190602001808311612e5f57829003601f168201915b50505050508152602001600982018054612e9590615a16565b80601f0160208091040260200160405190810160405280929190818152602001828054612ec190615a16565b8015612f0e5780601f10612ee357610100808354040283529160200191612f0e565b820191906000526020600020905b815481529060010190602001808311612ef157829003601f168201915b50505050508152602001600a82018054612f2790615a16565b80601f0160208091040260200160405190810160405280929190818152602001828054612f5390615a16565b8015612fa05780601f10612f7557610100808354040283529160200191612fa0565b820191906000526020600020905b815481529060010190602001808311612f8357829003601f168201915b50505050508152602001600b82018054612fb990615a16565b80601f0160208091040260200160405190810160405280929190818152602001828054612fe590615a16565b80156130325780601f1061300757610100808354040283529160200191613032565b820191906000526020600020905b81548152906001019060200180831161301557829003601f168201915b5050505050815250508152602001906001019061293f565b505050509050919050565b6008818154811061306557600080fd5b600091825260209091200154905081565b6014602052816000526040600020818154811061309257600080fd5b90600052602060002090600c0201600091509150508060000180546130b690615a16565b80601f01602080910402602001604051908101604052809291908181526020018280546130e290615a16565b801561312f5780601f106131045761010080835404028352916020019161312f565b820191906000526020600020905b81548152906001019060200180831161311257829003601f168201915b50505050509080600101805461314490615a16565b80601f016020809104026020016040519081016040528092919081815260200182805461317090615a16565b80156131bd5780601f10613192576101008083540402835291602001916131bd565b820191906000526020600020905b8154815290600101906020018083116131a057829003601f168201915b5050505050908060020180546131d290615a16565b80601f01602080910402602001604051908101604052809291908181526020018280546131fe90615a16565b801561324b5780601f106132205761010080835404028352916020019161324b565b820191906000526020600020905b81548152906001019060200180831161322e57829003601f168201915b50505050509080600301805461326090615a16565b80601f016020809104026020016040519081016040528092919081815260200182805461328c90615a16565b80156132d95780601f106132ae576101008083540402835291602001916132d9565b820191906000526020600020905b8154815290600101906020018083116132bc57829003601f168201915b5050505050908060040180546132ee90615a16565b80601f016020809104026020016040519081016040528092919081815260200182805461331a90615a16565b80156133675780601f1061333c57610100808354040283529160200191613367565b820191906000526020600020905b81548152906001019060200180831161334a57829003601f168201915b50505050509080600501805461337c90615a16565b80601f01602080910402602001604051908101604052809291908181526020018280546133a890615a16565b80156133f55780601f106133ca576101008083540402835291602001916133f5565b820191906000526020600020905b8154815290600101906020018083116133d857829003601f168201915b50505050509080600601805461340a90615a16565b80601f016020809104026020016040519081016040528092919081815260200182805461343690615a16565b80156134835780601f1061345857610100808354040283529160200191613483565b820191906000526020600020905b81548152906001019060200180831161346657829003601f168201915b50505050509080600701805461349890615a16565b80601f01602080910402602001604051908101604052809291908181526020018280546134c490615a16565b80156135115780601f106134e657610100808354040283529160200191613511565b820191906000526020600020905b8154815290600101906020018083116134f457829003601f168201915b50505050509080600801805461352690615a16565b80601f016020809104026020016040519081016040528092919081815260200182805461355290615a16565b801561359f5780601f106135745761010080835404028352916020019161359f565b820191906000526020600020905b81548152906001019060200180831161358257829003601f168201915b5050505050908060090180546135b490615a16565b80601f01602080910402602001604051908101604052809291908181526020018280546135e090615a16565b801561362d5780601f106136025761010080835404028352916020019161362d565b820191906000526020600020905b81548152906001019060200180831161361057829003601f168201915b50505050509080600a01805461364290615a16565b80601f016020809104026020016040519081016040528092919081815260200182805461366e90615a16565b80156136bb5780601f10613690576101008083540402835291602001916136bb565b820191906000526020600020905b81548152906001019060200180831161369e57829003601f168201915b50505050509080600b0180546136d090615a16565b80601f01602080910402602001604051908101604052809291908181526020018280546136fc90615a16565b80156137495780601f1061371e57610100808354040283529160200191613749565b820191906000526020600020905b81548152906001019060200180831161372c57829003601f168201915b505050505090508c565b600954600090815260166020526040812054610100900460ff166137df5760405162461bcd60e51b815260206004820152602760248201527f4e6f2072616e646f6d20776f7264732068617665206265656e2067656e65726160448201527f74656420796574000000000000000000000000000000000000000000000000006064820152608401610a6d565b60095460009081526016602052604081206001018054829061380357613803615ac2565b60009182526020909120015492915050565b6005546001600160a01b0316331461387e5760405162461bcd60e51b815260206004820152602660248201527f43616c6c6572206973206e6f742074686520436865636b5061796f757420636f6044820152651b9d1c9858dd60d21b6064820152608401610a6d565b6001600160a01b0382166000818152601260209081526040808320858452825291829020805460ff19166002179055815192835282018390527f05e258a8da32249e7d7e1ebcd6b64f7c97c4235999db64b6687191b183d5e3f291015b60405180910390a15050565b600e805461152390615a16565b60008054604080517fd328a91e00000000000000000000000000000000000000000000000000000000815290516060936001600160a01b039093169263d328a91e9260048082019391829003018186803b15801561395157600080fd5b505afa158015613965573d6000803e3d6000fd5b505050506040513d6000823e601f3d908101601f191682016040526112c59190810190615127565b600080546001600160a01b031663d227d245856139a988614469565b86866040518563ffffffff1660e01b81526004016139ca949392919061576d565b60206040518083038186803b1580156139e257600080fd5b505afa1580156139f6573d6000803e3d6000fd5b505050506040513d601f19601f82011682018060405250810190613a1a919061534b565b95945050505050565b600081815260166020526040812054606090610100900460ff16613a895760405162461bcd60e51b815260206004820152601160248201527f72657175657374206e6f7420666f756e640000000000000000000000000000006044820152606401610a6d565b60008381526016602090815260408083208151606081018352815460ff8082161515835261010090910416151581850152600182018054845181870281018701865281815292959394860193830182828015613b0457602002820191906000526020600020905b815481526020019060010190808311613af0575b5050505050815250509050806000015181604001519250925050915091565b6000613b2d613ef6565b600754600a54600b546040517f5d3b1d30000000000000000000000000000000000000000000000000000000008152600481019290925274010000000000000000000000000000000000000000830467ffffffffffffffff166024830152640100000000810461ffff16604483015263ffffffff808216606484015266010000000000009091041660848201526001600160a01b0390911690635d3b1d309060a401602060405180830381600087803b158015613be957600080fd5b505af1158015613bfd573d6000803e3d6000fd5b505050506040513d601f19601f82011682018060405250810190613c219190615064565b6040805160608101825260008082526001602080840182815285518481528083018752858701908152878552601683529590932084518154945161ffff1990951690151561ff00191617610100941515949094029390931783559351805195965092949193613c969391850192910190614d95565b505060088054600181019091557ff3f7a9fe364faab93b216da50a3214154f22a0a2b415b23a84c8169e8b636ee3018290555060098190556000818152601560209081526040918290208054336001600160a01b0319909116179055600b548251848152660100000000000090910463ffffffff16918101919091527fcc58b13ad3eab50626c6a6300b1d139cd6ebb1688a7cced9461c2f7e762665ee910160405180910390a190565b600c54604080517f8e15f47300000000000000000000000000000000000000000000000000000000815290516000926001600160a01b031691638e15f473916004808301926020929190829003018186803b15801561128d57600080fd5b6005546001600160a01b03163314613e075760405162461bcd60e51b815260206004820152602660248201527f43616c6c6572206973206e6f742074686520436865636b5061796f757420636f6044820152651b9d1c9858dd60d21b6064820152608401610a6d565b6000613e11613d40565b9050600081613e2384620f42406159b4565b613e2d91906158b5565b6040519091506001600160a01b0385169082156108fc029083906000818181858888f19350505050158015613e66573d6000803e3d6000fd5b50604080516001600160a01b0386168152602081018390527f188c4d19b4fadd1889d9bd9bf0ab7c97e0719434751e6c05feac6339c1c001ec910160405180910390a150505050565b613eb7613ef6565b613ec081614735565b50565b613ecb613ef6565b600080546001600160a01b0319166001600160a01b03831617905550565b600f805461152390615a16565b6002546001600160a01b03163314613f505760405162461bcd60e51b815260206004820152601660248201527f4f6e6c792063616c6c61626c65206279206f776e6572000000000000000000006044820152606401610a6d565b565b600083815260136020526040812090613f6c846020015190565b600283018190558451909150613f8990600e906020870190614d11565b508251613f9d90600f906020860190614d11565b50847f7bab0ec163b5c132c72b8146ac4d6e067e82ed58f8b131150aa71c92589115628585604051613fd09291906155b5565b60405180910390a2815460018301546002840154604080516001600160a01b039094168452602084019290925282820152517f93aceb1c5e55aa194781a0423a101b97efa4a051e8d2fc2ba332ca75f4e4b6a79181900360600190a15050505050565b60606000614040836147e0565b600101905060008167ffffffffffffffff81111561406057614060615ad8565b6040519080825280601f01601f19166020018201604052801561408a576020820181803683370190505b5090508181016020015b600019017f3031323334353637383961626364656600000000000000000000000000000000600a86061a8153600a85049450846140d0576140d5565b614094565b509392505050565b8051614115576040517f22ce3edd00000000000000000000000000000000000000000000000000000000815260040160405180910390fd5b8383600181111561412857614128615aac565b9081600181111561413b5761413b615aac565b9052506040840182801561415157614151615aac565b9081801561416157614161615aac565b9052506060909301929092525050565b80516141a9576040517ffe936cb700000000000000000000000000000000000000000000000000000000815260040160405180910390fd5b60a090910152565b6000805481906001600160a01b03166328242b04856141cf88614469565b866040518463ffffffff1660e01b81526004016141ee93929190615734565b602060405180830381600087803b15801561420857600080fd5b505af115801561421c573d6000803e3d6000fd5b505050506040513d601f19601f820116820180604052508101906142409190615064565b905060008054906101000a90046001600160a01b03166001600160a01b0316635ab1bd536040518163ffffffff1660e01b815260040160206040518083038186803b15801561428e57600080fd5b505afa1580156142a2573d6000803e3d6000fd5b505050506040513d601f19601f820116820180604052508101906142c69190614f6d565b60008281526001602052604080822080546001600160a01b0319166001600160a01b039490941693909317909255905182917f1131472297a800fee664d1d89cfa8f7676ff07189ecc53f80bbb5f4969099db891a2949350505050565b600082815260166020526040902054610100900460ff166143865760405162461bcd60e51b815260206004820152601160248201527f72657175657374206e6f7420666f756e640000000000000000000000000000006044820152606401610a6d565b6000828152601660209081526040909120805460ff19166001908117825583516143b7939290910191840190614d95565b507ffe2e2d779dba245964d4e3ef9b994be63856fd568bf7d3ca9e224755cb1bd54d82826040516138db92919061571b565b60008181526001602052604090205481906001600160a01b03161561443a576040517f8b457ad200000000000000000000000000000000000000000000000000000000815260040160405180910390fd5b50600090815260016020526040902080546001600160a01b0319166001600160a01b0392909216919091179055565b6060614473614dcf565b8051614481906101006148c2565b506144c1816040518060400160405280600c81526020017f636f64654c6f636174696f6e0000000000000000000000000000000000000000815250614939565b6144e081846000015160018111156144db576144db615aac565b614957565b61451f816040518060400160405280600881526020017f6c616e6775616765000000000000000000000000000000000000000000000000815250614939565b61453981846040015160008111156144db576144db615aac565b614578816040518060400160405280600681526020017f736f757263650000000000000000000000000000000000000000000000000000815250614939565b614586818460600151614939565b60a0830151511561462c576145d0816040518060400160405280600481526020017f6172677300000000000000000000000000000000000000000000000000000000815250614939565b6145d981614990565b60005b8360a001515181101561462257614610828560a00151838151811061460357614603615ac2565b6020026020010151614939565b8061461a81615a51565b9150506145dc565b5061462c816149b4565b6080830151511561472d5760008360200151600181111561464f5761464f615aac565b1415614687576040517fa80d31f700000000000000000000000000000000000000000000000000000000815260040160405180910390fd5b6146c6816040518060400160405280600f81526020017f736563726574734c6f636174696f6e0000000000000000000000000000000000815250614939565b6146e081846020015160018111156144db576144db615aac565b61471f816040518060400160405280600781526020017f7365637265747300000000000000000000000000000000000000000000000000815250614939565b61472d8184608001516149d2565b515192915050565b6001600160a01b03811633141561478e5760405162461bcd60e51b815260206004820152601760248201527f43616e6e6f74207472616e7366657220746f2073656c660000000000000000006044820152606401610a6d565b600380546001600160a01b0319166001600160a01b03838116918217909255600254604051919216907fed8889f560326eb138920d842192f0eb3dd22b4f139c87a2c57538e05bae127890600090a350565b6000807a184f03e93ff9f4daa797ed6e38ed64bf6a1f0100000000000000008310614829577a184f03e93ff9f4daa797ed6e38ed64bf6a1f010000000000000000830492506040015b6d04ee2d6d415b85acef81000000008310614855576d04ee2d6d415b85acef8100000000830492506020015b662386f26fc10000831061487357662386f26fc10000830492506010015b6305f5e100831061488b576305f5e100830492506008015b612710831061489f57612710830492506004015b606483106148b1576064830492506002015b600a83106127905760010192915050565b6040805180820190915260608152600060208201526148e2602083615a6c565b1561490a576148f2602083615a6c565b6148fd9060206159d3565b614907908361589d565b91505b60208084018390526040518085526000815290818401018181101561492e57600080fd5b604052509192915050565b61494682600383516149db565b81516149529082614afc565b505050565b81516149649060c2614b24565b50610a10828260405160200161497c91815260200190565b6040516020818303038152906040526149d2565b61499b816004614b8d565b6001816020018181516149ae919061589d565b90525050565b6149bf816007614b8d565b6001816020018181516149ae91906159d3565b61494682600283515b60178167ffffffffffffffff1611614a025782516115109060e0600585901b168317614b24565b60ff8167ffffffffffffffff1611614a44578251614a2b906018611fe0600586901b1617614b24565b5082516115109067ffffffffffffffff83166001614ba4565b61ffff8167ffffffffffffffff1611614a87578251614a6e906019611fe0600586901b1617614b24565b5082516115109067ffffffffffffffff83166002614ba4565b63ffffffff8167ffffffffffffffff1611614acc578251614ab390601a611fe0600586901b1617614b24565b5082516115109067ffffffffffffffff83166004614ba4565b8251614ae390601b611fe0600586901b1617614b24565b5082516115109067ffffffffffffffff83166008614ba4565b604080518082019091526060815260006020820152614b1d83838451614c29565b9392505050565b6040805180820190915260608152600060208201528251516000614b4982600161589d565b905084602001518210614b6a57614b6a85614b658360026159b4565b614cfa565b8451602083820101858153508051821115614b83578181525b5093949350505050565b815161495290601f611fe0600585901b1617614b24565b6040805180820190915260608152600060208201528351516000614bc8828561589d565b90508560200151811115614be557614be586614b658360026159b4565b60006001614bf58661010061590c565b614bff91906159d3565b90508651828101878319825116178152508051831115614c1d578281525b50959695505050505050565b6040805180820190915260608152600060208201528251821115614c4c57600080fd5b8351516000614c5b848361589d565b90508560200151811115614c7857614c7886614b658360026159b4565b855180518382016020019160009180851115614c92578482525b505050602086015b60208610614cd25780518252614cb160208361589d565b9150614cbe60208261589d565b9050614ccb6020876159d3565b9550614c9a565b51815160001960208890036101000a0190811690199190911617905250849150509392505050565b8151614d0683836148c2565b506115108382614afc565b828054614d1d90615a16565b90600052602060002090601f016020900481019282614d3f5760008555614d85565b82601f10614d5857805160ff1916838001178555614d85565b82800160010185558215614d85579182015b82811115614d85578251825591602001919060010190614d6a565b50614d91929150614e04565b5090565b828054828255906000526020600020908101928215614d855791602002820182811115614d85578251825591602001919060010190614d6a565b6040518060400160405280614df7604051806040016040528060608152602001600081525090565b8152602001600081525090565b5b80821115614d915760008155600101614e05565b600082601f830112614e2a57600080fd5b81356020614e3f614e3a83615851565b615820565b80838252828201915082860187848660051b8901011115614e5f57600080fd5b6000805b86811015614ea257823567ffffffffffffffff811115614e81578283fd5b614e8f8b88838d0101614eb0565b8652509385019391850191600101614e63565b509198975050505050505050565b600082601f830112614ec157600080fd5b8135614ecf614e3a82615875565b818152846020838601011115614ee457600080fd5b816020850160208301376000918101602001919091529392505050565b803560018110614f1057600080fd5b919050565b803560028110614f1057600080fd5b803563ffffffff81168114614f1057600080fd5b803567ffffffffffffffff81168114614f1057600080fd5b600060208284031215614f6257600080fd5b8135614b1d81615aee565b600060208284031215614f7f57600080fd5b8151614b1d81615aee565b60008060408385031215614f9d57600080fd5b8235614fa881615aee565b946020939093013593505050565b60008060008060608587031215614fcc57600080fd5b843567ffffffffffffffff80821115614fe457600080fd5b818701915087601f830112614ff857600080fd5b81358181111561500757600080fd5b8860208260051b850101111561501c57600080fd5b6020928301965094506150329187019050614f38565b915061504060408601614f24565b905092959194509250565b60006020828403121561505d57600080fd5b5035919050565b60006020828403121561507657600080fd5b5051919050565b60008060006060848603121561509257600080fd5b83359250602084013567ffffffffffffffff808211156150b157600080fd5b6150bd87838801614eb0565b935060408601359150808211156150d357600080fd5b506150e086828701614eb0565b9150509250925092565b6000602082840312156150fc57600080fd5b813567ffffffffffffffff81111561511357600080fd5b61511f84828501614eb0565b949350505050565b60006020828403121561513957600080fd5b815167ffffffffffffffff81111561515057600080fd5b8201601f8101841361516157600080fd5b805161516f614e3a82615875565b81815285602083850101111561518457600080fd5b613a1a8260208301602086016159ea565b600080600080608085870312156151ab57600080fd5b843567ffffffffffffffff808211156151c357600080fd5b9086019060c082890312156151d757600080fd5b6151df6157f7565b6151e883614f15565b81526151f660208401614f15565b602082015261520760408401614f01565b604082015260608301358281111561521e57600080fd5b61522a8a828601614eb0565b60608301525060808301358281111561524257600080fd5b61524e8a828601614eb0565b60808301525060a08301358281111561526657600080fd5b6152728a828601614e19565b60a083015250955061528991505060208601614f38565b925061529760408601614f24565b9396929550929360600135925050565b600080604083850312156152ba57600080fd5b8235915060208084013567ffffffffffffffff8111156152d957600080fd5b8401601f810186136152ea57600080fd5b80356152f8614e3a82615851565b80828252848201915084840189868560051b870101111561531857600080fd5b600094505b8385101561533b57803583526001949094019391850191850161531d565b5080955050505050509250929050565b60006020828403121561535d57600080fd5b81516bffffffffffffffffffffffff81168114614b1d57600080fd5b600081518084526020808501945080840160005b838110156153a95781518752958201959082019060010161538d565b509495945050505050565b600081518084526153cc8160208601602086016159ea565b601f01601f19169290920160200192915050565b600061018082518185526153f6828601826153b4565b9150506020830151848203602086015261541082826153b4565b9150506040830151848203604086015261542a82826153b4565b9150506060830151848203606086015261544482826153b4565b9150506080830151848203608086015261545e82826153b4565b91505060a083015184820360a086015261547882826153b4565b91505060c083015184820360c086015261549282826153b4565b91505060e083015184820360e08601526154ac82826153b4565b91505061010080840151858303828701526154c783826153b4565b9250505061012080840151858303828701526154e383826153b4565b9250505061014080840151858303828701526154ff83826153b4565b92505050610160808401518583038287015261551b83826153b4565b9695505050505050565b6000602080830181845280855180835260408601915060408160051b870101925083870160005b8281101561557a57603f198886030184526155688583516153e0565b9450928501929085019060010161554c565b5092979650505050505050565b821515815260406020820152600061511f6040830184615379565b602081526000614b1d60208301846153b4565b6040815260006155c860408301856153b4565b8281036020840152613a1a81856153b4565b60208101600383106155fc57634e487b7160e01b600052602160045260246000fd5b91905290565b6101808152600061561761018083018f6153b4565b8281036020840152615629818f6153b4565b9050828103604084015261563d818e6153b4565b90508281036060840152615651818d6153b4565b90508281036080840152615665818c6153b4565b905082810360a0840152615679818b6153b4565b905082810360c084015261568d818a6153b4565b905082810360e08401526156a181896153b4565b90508281036101008401526156b681886153b4565b90508281036101208401526156cb81876153b4565b90508281036101408401526156e081866153b4565b90508281036101608401526156f581856153b4565b9f9e505050505050505050505050505050565b602081526000614b1d60208301846153e0565b82815260406020820152600061511f6040830184615379565b67ffffffffffffffff8416815260606020820152600061575760608301856153b4565b905063ffffffff83166040830152949350505050565b67ffffffffffffffff8516815260806020820152600061579060808301866153b4565b63ffffffff949094166040830152506060015292915050565b6000808335601e198436030181126157c057600080fd5b83018035915067ffffffffffffffff8211156157db57600080fd5b6020019150368190038213156157f057600080fd5b9250929050565b60405160c0810167ffffffffffffffff8111828210171561581a5761581a615ad8565b60405290565b604051601f8201601f1916810167ffffffffffffffff8111828210171561584957615849615ad8565b604052919050565b600067ffffffffffffffff82111561586b5761586b615ad8565b5060051b60200190565b600067ffffffffffffffff82111561588f5761588f615ad8565b50601f01601f191660200190565b600082198211156158b0576158b0615a80565b500190565b6000826158c4576158c4615a96565b500490565b600181815b808511156159045781600019048211156158ea576158ea615a80565b808516156158f757918102915b93841c93908002906158ce565b509250929050565b6000614b1d838360008261592257506001612790565b8161592f57506000612790565b8160018114615945576002811461594f5761596b565b6001915050612790565b60ff84111561596057615960615a80565b50506001821b612790565b5060208310610133831016604e8410600b841016171561598e575081810a612790565b61599883836158c9565b80600019048211156159ac576159ac615a80565b029392505050565b60008160001904831182151516156159ce576159ce615a80565b500290565b6000828210156159e5576159e5615a80565b500390565b60005b83811015615a055781810151838201526020016159ed565b838111156115105750506000910152565b600181811c90821680615a2a57607f821691505b60208210811415615a4b57634e487b7160e01b600052602260045260246000fd5b50919050565b6000600019821415615a6557615a65615a80565b5060010190565b600082615a7b57615a7b615a96565b500690565b634e487b7160e01b600052601160045260246000fd5b634e487b7160e01b600052601260045260246000fd5b634e487b7160e01b600052602160045260246000fd5b634e487b7160e01b600052603260045260246000fd5b634e487b7160e01b600052604160045260246000fd5b6001600160a01b0381168114613ec057600080fdfea2646970667358221220aac34a34068f21cf352beef1690bb99ff188628e5c2fb8537ad38754a5bf086a64736f6c63430008070033",
  "linkReferences": {},
  "deployedLinkReferences": {}
}