{
  "_format": "hh-sol-artifact-1",
  "contractName": "Insurance",
  "sourceName": "contracts/Insurance.sol",
  "abi": [
    {
      "inputs": [
        {
          "internalType": "address",
          "name": "oracle",
          "type": "address"
        },
        {
          "internalType": "address",
          "name": "linkMaticAddress",
          "type": "address"
        },
        {
          "internalType": "address",
          "name": "maticUsdAddress",
          "type": "address"
        },
        {
          "internalType": "uint64",
          "name": "subscriptionId",
          "type": "uint64"
        }
      ],
      "stateMutability": "nonpayable",
      "type": "constructor"
    },
    {
      "inputs": [],
      "name": "EmptyArgs",
      "type": "error"
    },
    {
      "inputs": [],
      "name": "EmptySource",
      "type": "error"
    },
    {
      "inputs": [],
      "name": "NoInlineSecrets",
      "type": "error"
    },
    {
      "inputs": [
        {
          "internalType": "address",
          "name": "have",
          "type": "address"
        },
        {
          "internalType": "address",
          "name": "want",
          "type": "address"
        }
      ],
      "name": "OnlyCoordinatorCanFulfill",
      "type": "error"
    },
    {
      "inputs": [],
      "name": "RequestIsAlreadyPending",
      "type": "error"
    },
    {
      "inputs": [],
      "name": "RequestIsNotPending",
      "type": "error"
    },
    {
      "inputs": [],
      "name": "SenderIsNotRegistry",
      "type": "error"
    },
    {
      "anonymous": false,
      "inputs": [
        {
          "indexed": true,
          "internalType": "bytes32",
          "name": "requestId",
          "type": "bytes32"
        }
      ],
      "name": "OCRRequest",
      "type": "event"
    },
    {
      "anonymous": false,
      "inputs": [
        {
          "indexed": true,
          "internalType": "bytes32",
          "name": "requestId",
          "type": "bytes32"
        },
        {
          "indexed": false,
          "internalType": "bytes",
          "name": "result",
          "type": "bytes"
        },
        {
          "indexed": false,
          "internalType": "bytes",
          "name": "err",
          "type": "bytes"
        }
      ],
      "name": "OCRResponse",
      "type": "event"
    },
    {
      "anonymous": false,
      "inputs": [
        {
          "indexed": true,
          "internalType": "address",
          "name": "from",
          "type": "address"
        },
        {
          "indexed": true,
          "internalType": "address",
          "name": "to",
          "type": "address"
        }
      ],
      "name": "OwnershipTransferRequested",
      "type": "event"
    },
    {
      "anonymous": false,
      "inputs": [
        {
          "indexed": true,
          "internalType": "address",
          "name": "from",
          "type": "address"
        },
        {
          "indexed": true,
          "internalType": "address",
          "name": "to",
          "type": "address"
        }
      ],
      "name": "OwnershipTransferred",
      "type": "event"
    },
    {
      "anonymous": false,
      "inputs": [
        {
          "indexed": false,
          "internalType": "address",
          "name": "policyOwner",
          "type": "address"
        },
        {
          "indexed": false,
          "internalType": "uint256",
          "name": "policyIndex",
          "type": "uint256"
        },
        {
          "indexed": false,
          "internalType": "uint256",
          "name": "cost",
          "type": "uint256"
        }
      ],
      "name": "PolicyCreated",
      "type": "event"
    },
    {
      "anonymous": false,
      "inputs": [
        {
          "indexed": false,
          "internalType": "address",
          "name": "policyOwner",
          "type": "address"
        },
        {
          "indexed": false,
          "internalType": "uint256",
          "name": "policyIndex",
          "type": "uint256"
        }
      ],
      "name": "PolicyEnded",
      "type": "event"
    },
    {
      "anonymous": false,
      "inputs": [
        {
          "indexed": false,
          "internalType": "address",
          "name": "policyOwner",
          "type": "address"
        },
        {
          "indexed": false,
          "internalType": "uint256",
          "name": "policyIndex",
          "type": "uint256"
        }
      ],
      "name": "PolicyStarted",
      "type": "event"
    },
    {
      "anonymous": false,
      "inputs": [
        {
          "indexed": false,
          "internalType": "uint256",
          "name": "requestId",
          "type": "uint256"
        },
        {
          "indexed": false,
          "internalType": "uint256[]",
          "name": "randomWords",
          "type": "uint256[]"
        }
      ],
      "name": "RequestFulfilled",
      "type": "event"
    },
    {
      "anonymous": false,
      "inputs": [
        {
          "indexed": true,
          "internalType": "bytes32",
          "name": "id",
          "type": "bytes32"
        }
      ],
      "name": "RequestFulfilled",
      "type": "event"
    },
    {
      "anonymous": false,
      "inputs": [
        {
          "indexed": false,
          "internalType": "uint256",
          "name": "requestId",
          "type": "uint256"
        },
        {
          "indexed": false,
          "internalType": "uint32",
          "name": "numWords",
          "type": "uint32"
        }
      ],
      "name": "RequestSent",
      "type": "event"
    },
    {
      "anonymous": false,
      "inputs": [
        {
          "indexed": true,
          "internalType": "bytes32",
          "name": "id",
          "type": "bytes32"
        }
      ],
      "name": "RequestSent",
      "type": "event"
    },
    {
      "anonymous": false,
      "inputs": [
        {
          "indexed": false,
          "internalType": "address",
          "name": "userAddress",
          "type": "address"
        },
        {
          "indexed": false,
          "internalType": "uint256",
          "name": "payoutAmountInMatic",
          "type": "uint256"
        }
      ],
      "name": "UserPaid",
      "type": "event"
    },
    {
      "inputs": [],
      "name": "acceptOwnership",
      "outputs": [],
      "stateMutability": "nonpayable",
      "type": "function"
    },
    {
      "inputs": [
        {
          "internalType": "address",
          "name": "oracleAddress",
          "type": "address"
        },
        {
          "internalType": "bytes32",
          "name": "requestId",
          "type": "bytes32"
        }
      ],
      "name": "addSimulatedRequestId",
      "outputs": [],
      "stateMutability": "nonpayable",
      "type": "function"
    },
    {
      "inputs": [],
      "name": "boolInsuranceData",
      "outputs": [
        {
          "internalType": "bool",
          "name": "",
          "type": "bool"
        }
      ],
      "stateMutability": "view",
      "type": "function"
    },
    {
      "inputs": [
        {
          "internalType": "bytes",
          "name": "input",
          "type": "bytes"
        }
      ],
      "name": "bytesToUint256",
      "outputs": [
        {
          "internalType": "uint256",
          "name": "result",
          "type": "uint256"
        }
      ],
      "stateMutability": "pure",
      "type": "function"
    },
    {
      "inputs": [],
      "name": "checkPayoutContract",
      "outputs": [
        {
          "internalType": "address",
          "name": "",
          "type": "address"
        }
      ],
      "stateMutability": "view",
      "type": "function"
    },
    {
      "inputs": [],
      "name": "constructionTime",
      "outputs": [
        {
          "internalType": "uint256",
          "name": "",
          "type": "uint256"
        }
      ],
      "stateMutability": "view",
      "type": "function"
    },
    {
      "inputs": [],
      "name": "currentTime",
      "outputs": [
        {
          "internalType": "uint256",
          "name": "",
          "type": "uint256"
        }
      ],
      "stateMutability": "view",
      "type": "function"
    },
    {
      "inputs": [
        {
          "internalType": "address",
          "name": "policyOwner",
          "type": "address"
        },
        {
          "internalType": "uint256",
          "name": "policyIndex",
          "type": "uint256"
        }
      ],
      "name": "endPolicy",
      "outputs": [],
      "stateMutability": "nonpayable",
      "type": "function"
    },
    {
      "inputs": [
        {
          "components": [
            {
              "internalType": "enum Functions.Location",
              "name": "codeLocation",
              "type": "uint8"
            },
            {
              "internalType": "enum Functions.Location",
              "name": "secretsLocation",
              "type": "uint8"
            },
            {
              "internalType": "enum Functions.CodeLanguage",
              "name": "language",
              "type": "uint8"
            },
            {
              "internalType": "string",
              "name": "source",
              "type": "string"
            },
            {
              "internalType": "bytes",
              "name": "secrets",
              "type": "bytes"
            },
            {
              "internalType": "string[]",
              "name": "args",
              "type": "string[]"
            }
          ],
          "internalType": "struct Functions.Request",
          "name": "req",
          "type": "tuple"
        },
        {
          "internalType": "uint64",
          "name": "subscriptionId",
          "type": "uint64"
        },
        {
          "internalType": "uint32",
          "name": "gasLimit",
          "type": "uint32"
        },
        {
          "internalType": "uint256",
          "name": "gasPrice",
          "type": "uint256"
        }
      ],
      "name": "estimateCost",
      "outputs": [
        {
          "internalType": "uint96",
          "name": "",
          "type": "uint96"
        }
      ],
      "stateMutability": "view",
      "type": "function"
    },
    {
      "inputs": [
        {
          "internalType": "string",
          "name": "source",
          "type": "string"
        },
        {
          "internalType": "string[]",
          "name": "args",
          "type": "string[]"
        },
        {
          "internalType": "uint64",
          "name": "subscriptionId",
          "type": "uint64"
        },
        {
          "internalType": "uint32",
          "name": "gasLimit",
          "type": "uint32"
        }
      ],
      "name": "estimateInsurance",
      "outputs": [
        {
          "internalType": "bytes32",
          "name": "",
          "type": "bytes32"
        }
      ],
      "stateMutability": "payable",
      "type": "function"
    },
    {
      "inputs": [
        {
          "internalType": "address",
          "name": "user",
          "type": "address"
        }
      ],
      "name": "getAllUserPolicies",
      "outputs": [
        {
          "components": [
            {
              "internalType": "string",
              "name": "latNe",
              "type": "string"
            },
            {
              "internalType": "string",
              "name": "longNe",
              "type": "string"
            },
            {
              "internalType": "string",
              "name": "latSe",
              "type": "string"
            },
            {
              "internalType": "string",
              "name": "longSe",
              "type": "string"
            },
            {
              "internalType": "string",
              "name": "latSw",
              "type": "string"
            },
            {
              "internalType": "string",
              "name": "longSw",
              "type": "string"
            },
            {
              "internalType": "string",
              "name": "latNw",
              "type": "string"
            },
            {
              "internalType": "string",
              "name": "longNw",
              "type": "string"
            },
            {
              "internalType": "string",
              "name": "configParam",
              "type": "string"
            },
            {
              "internalType": "string",
              "name": "startTime",
              "type": "string"
            },
            {
              "internalType": "string",
              "name": "endTime",
              "type": "string"
            },
            {
              "internalType": "string",
              "name": "policyCreationTime",
              "type": "string"
            }
          ],
          "internalType": "struct Insurance.InsuranceData[]",
          "name": "",
          "type": "tuple[]"
        }
      ],
      "stateMutability": "view",
      "type": "function"
    },
    {
      "inputs": [],
      "name": "getCurrentTime",
      "outputs": [
        {
          "internalType": "uint256",
          "name": "",
          "type": "uint256"
        }
      ],
      "stateMutability": "view",
      "type": "function"
    },
    {
      "inputs": [],
      "name": "getDONPublicKey",
      "outputs": [
        {
          "internalType": "bytes",
          "name": "",
          "type": "bytes"
        }
      ],
      "stateMutability": "view",
      "type": "function"
    },
    {
      "inputs": [
        {
          "internalType": "bytes32",
          "name": "requestId",
          "type": "bytes32"
        }
      ],
      "name": "getInsuranceQuoteData",
      "outputs": [
        {
          "components": [
            {
              "internalType": "address",
              "name": "user",
              "type": "address"
            },
            {
              "internalType": "uint256",
              "name": "policyIndex",
              "type": "uint256"
            },
            {
              "internalType": "uint256",
              "name": "cost",
              "type": "uint256"
            }
          ],
          "internalType": "struct Insurance.InsuranceQuoteData",
          "name": "",
          "type": "tuple"
        }
      ],
      "stateMutability": "view",
      "type": "function"
    },
    {
      "inputs": [],
      "name": "getLastRandomWord",
      "outputs": [
        {
          "internalType": "uint256",
          "name": "",
          "type": "uint256"
        }
      ],
      "stateMutability": "view",
      "type": "function"
    },
    {
      "inputs": [
        {
          "internalType": "address",
          "name": "user",
          "type": "address"
        },
        {
          "internalType": "uint256",
          "name": "policyIndex",
          "type": "uint256"
        }
      ],
      "name": "getPolicyData",
      "outputs": [
        {
          "components": [
            {
              "internalType": "string",
              "name": "latNe",
              "type": "string"
            },
            {
              "internalType": "string",
              "name": "longNe",
              "type": "string"
            },
            {
              "internalType": "string",
              "name": "latSe",
              "type": "string"
            },
            {
              "internalType": "string",
              "name": "longSe",
              "type": "string"
            },
            {
              "internalType": "string",
              "name": "latSw",
              "type": "string"
            },
            {
              "internalType": "string",
              "name": "longSw",
              "type": "string"
            },
            {
              "internalType": "string",
              "name": "latNw",
              "type": "string"
            },
            {
              "internalType": "string",
              "name": "longNw",
              "type": "string"
            },
            {
              "internalType": "string",
              "name": "configParam",
              "type": "string"
            },
            {
              "internalType": "string",
              "name": "startTime",
              "type": "string"
            },
            {
              "internalType": "string",
              "name": "endTime",
              "type": "string"
            },
            {
              "internalType": "string",
              "name": "policyCreationTime",
              "type": "string"
            }
          ],
          "internalType": "struct Insurance.InsuranceData",
          "name": "",
          "type": "tuple"
        }
      ],
      "stateMutability": "view",
      "type": "function"
    },
    {
      "inputs": [
        {
          "internalType": "address",
          "name": "_address",
          "type": "address"
        },
        {
          "internalType": "uint256",
          "name": "_policyIndex",
          "type": "uint256"
        }
      ],
      "name": "getPolicyRequestId",
      "outputs": [
        {
          "internalType": "bytes32",
          "name": "",
          "type": "bytes32"
        }
      ],
      "stateMutability": "view",
      "type": "function"
    },
    {
      "inputs": [],
      "name": "getPriceLinkMatic",
      "outputs": [
        {
          "internalType": "int256",
          "name": "",
          "type": "int256"
        }
      ],
      "stateMutability": "view",
      "type": "function"
    },
    {
      "inputs": [],
      "name": "getPriceMaticUsd",
      "outputs": [
        {
          "internalType": "int256",
          "name": "",
          "type": "int256"
        }
      ],
      "stateMutability": "view",
      "type": "function"
    },
    {
      "inputs": [
        {
          "internalType": "uint256",
          "name": "_requestId",
          "type": "uint256"
        }
      ],
      "name": "getRequestStatus",
      "outputs": [
        {
          "internalType": "bool",
          "name": "fulfilled",
          "type": "bool"
        },
        {
          "internalType": "uint256[]",
          "name": "randomWords",
          "type": "uint256[]"
        }
      ],
      "stateMutability": "view",
      "type": "function"
    },
    {
      "inputs": [
        {
          "internalType": "bytes32",
          "name": "requestId",
          "type": "bytes32"
        },
        {
          "internalType": "bytes",
          "name": "response",
          "type": "bytes"
        },
        {
          "internalType": "bytes",
          "name": "err",
          "type": "bytes"
        }
      ],
      "name": "handleOracleFulfillment",
      "outputs": [],
      "stateMutability": "nonpayable",
      "type": "function"
    },
    {
      "inputs": [],
      "name": "helloWorld",
      "outputs": [
        {
          "internalType": "string",
          "name": "",
          "type": "string"
        }
      ],
      "stateMutability": "view",
      "type": "function"
    },
    {
      "inputs": [
        {
          "internalType": "address",
          "name": "",
          "type": "address"
        },
        {
          "internalType": "uint256",
          "name": "",
          "type": "uint256"
        }
      ],
      "name": "insurancePoliciesMapping",
      "outputs": [
        {
          "internalType": "string",
          "name": "latNe",
          "type": "string"
        },
        {
          "internalType": "string",
          "name": "longNe",
          "type": "string"
        },
        {
          "internalType": "string",
          "name": "latSe",
          "type": "string"
        },
        {
          "internalType": "string",
          "name": "longSe",
          "type": "string"
        },
        {
          "internalType": "string",
          "name": "latSw",
          "type": "string"
        },
        {
          "internalType": "string",
          "name": "longSw",
          "type": "string"
        },
        {
          "internalType": "string",
          "name": "latNw",
          "type": "string"
        },
        {
          "internalType": "string",
          "name": "longNw",
          "type": "string"
        },
        {
          "internalType": "string",
          "name": "configParam",
          "type": "string"
        },
        {
          "internalType": "string",
          "name": "startTime",
          "type": "string"
        },
        {
          "internalType": "string",
          "name": "endTime",
          "type": "string"
        },
        {
          "internalType": "string",
          "name": "policyCreationTime",
          "type": "string"
        }
      ],
      "stateMutability": "view",
      "type": "function"
    },
    {
      "inputs": [
        {
          "internalType": "bytes32",
          "name": "",
          "type": "bytes32"
        }
      ],
      "name": "insuranceQuoteData",
      "outputs": [
        {
          "internalType": "address",
          "name": "user",
          "type": "address"
        },
        {
          "internalType": "uint256",
          "name": "policyIndex",
          "type": "uint256"
        },
        {
          "internalType": "uint256",
          "name": "cost",
          "type": "uint256"
        }
      ],
      "stateMutability": "view",
      "type": "function"
    },
    {
      "inputs": [],
      "name": "lastRequestId",
      "outputs": [
        {
          "internalType": "uint256",
          "name": "",
          "type": "uint256"
        }
      ],
      "stateMutability": "view",
      "type": "function"
    },
    {
      "inputs": [],
      "name": "latestError",
      "outputs": [
        {
          "internalType": "bytes",
          "name": "",
          "type": "bytes"
        }
      ],
      "stateMutability": "view",
      "type": "function"
    },
    {
      "inputs": [],
      "name": "latestRequestId",
      "outputs": [
        {
          "internalType": "bytes32",
          "name": "",
          "type": "bytes32"
        }
      ],
      "stateMutability": "view",
      "type": "function"
    },
    {
      "inputs": [],
      "name": "latestResponse",
      "outputs": [
        {
          "internalType": "bytes",
          "name": "",
          "type": "bytes"
        }
      ],
      "stateMutability": "view",
      "type": "function"
    },
    {
      "inputs": [],
      "name": "linkMaticPriceFeed",
      "outputs": [
        {
          "internalType": "contract LinkMaticPriceFeed",
          "name": "",
          "type": "address"
        }
      ],
      "stateMutability": "view",
      "type": "function"
    },
    {
      "inputs": [],
      "name": "maticUsdPriceFeed",
      "outputs": [
        {
          "internalType": "contract MaticUsdPriceFeed",
          "name": "",
          "type": "address"
        }
      ],
      "stateMutability": "view",
      "type": "function"
    },
    {
      "inputs": [],
      "name": "owner",
      "outputs": [
        {
          "internalType": "address",
          "name": "",
          "type": "address"
        }
      ],
      "stateMutability": "view",
      "type": "function"
    },
    {
      "inputs": [
        {
          "internalType": "address payable",
          "name": "userAddress",
          "type": "address"
        },
        {
          "internalType": "uint256",
          "name": "payoutAmount",
          "type": "uint256"
        }
      ],
      "name": "payUser",
      "outputs": [],
      "stateMutability": "nonpayable",
      "type": "function"
    },
    {
      "inputs": [
        {
          "internalType": "address",
          "name": "",
          "type": "address"
        },
        {
          "internalType": "uint256",
          "name": "",
          "type": "uint256"
        }
      ],
      "name": "policyRequestIdMapping",
      "outputs": [
        {
          "internalType": "bytes32",
          "name": "",
          "type": "bytes32"
        }
      ],
      "stateMutability": "view",
      "type": "function"
    },
    {
      "inputs": [
        {
          "internalType": "address",
          "name": "",
          "type": "address"
        },
        {
          "internalType": "uint256",
          "name": "",
          "type": "uint256"
        }
      ],
      "name": "policyStatus",
      "outputs": [
        {
          "internalType": "enum Insurance.PolicyStatus",
          "name": "",
          "type": "uint8"
        }
      ],
      "stateMutability": "view",
      "type": "function"
    },
    {
      "inputs": [
        {
          "internalType": "uint256",
          "name": "",
          "type": "uint256"
        }
      ],
      "name": "randomnessRequesterAddress",
      "outputs": [
        {
          "internalType": "address",
          "name": "",
          "type": "address"
        }
      ],
      "stateMutability": "view",
      "type": "function"
    },
    {
      "inputs": [
        {
          "internalType": "uint256",
          "name": "requestId",
          "type": "uint256"
        },
        {
          "internalType": "uint256[]",
          "name": "randomWords",
          "type": "uint256[]"
        }
      ],
      "name": "rawFulfillRandomWords",
      "outputs": [],
      "stateMutability": "nonpayable",
      "type": "function"
    },
    {
      "inputs": [
        {
          "internalType": "uint256",
          "name": "",
          "type": "uint256"
        }
      ],
      "name": "requestIds",
      "outputs": [
        {
          "internalType": "uint256",
          "name": "",
          "type": "uint256"
        }
      ],
      "stateMutability": "view",
      "type": "function"
    },
    {
      "inputs": [],
      "name": "requestRandomWords",
      "outputs": [
        {
          "internalType": "uint256",
          "name": "requestId",
          "type": "uint256"
        }
      ],
      "stateMutability": "nonpayable",
      "type": "function"
    },
    {
      "inputs": [
        {
          "internalType": "uint256",
          "name": "",
          "type": "uint256"
        }
      ],
      "name": "s_requests",
      "outputs": [
        {
          "internalType": "bool",
          "name": "fulfilled",
          "type": "bool"
        },
        {
          "internalType": "bool",
          "name": "exists",
          "type": "bool"
        }
      ],
      "stateMutability": "view",
      "type": "function"
    },
    {
      "inputs": [
        {
          "internalType": "address",
          "name": "_checkPayoutContract",
          "type": "address"
        }
      ],
      "name": "setCheckPayoutContract",
      "outputs": [],
      "stateMutability": "nonpayable",
      "type": "function"
    },
    {
      "inputs": [
        {
          "internalType": "bytes32",
          "name": "requestId",
          "type": "bytes32"
        }
      ],
      "name": "startPolicy",
      "outputs": [
        {
          "internalType": "uint256",
          "name": "",
          "type": "uint256"
        }
      ],
      "stateMutability": "payable",
      "type": "function"
    },
    {
      "inputs": [
        {
          "internalType": "address",
          "name": "to",
          "type": "address"
        }
      ],
      "name": "transferOwnership",
      "outputs": [],
      "stateMutability": "nonpayable",
      "type": "function"
    },
    {
      "inputs": [
        {
          "internalType": "address",
          "name": "oracle",
          "type": "address"
        }
      ],
      "name": "updateOracleAddress",
      "outputs": [],
      "stateMutability": "nonpayable",
      "type": "function"
    }
  ],
  "bytecode": "0x60a06040527f4b09e658ed251bcafeebbc69400383d49f344ace09b9576fe248bb02c003fe9f600955600a80546001600160501b03191666010003000493e017905542600f553480156200005257600080fd5b5060405162005dd538038062005dd58339810160408190526200007591620002a5565b600080546001600160a01b0319166001600160a01b0386161781557f7a1bac17ccc5b313516c5e16fb24f7659aa5ebed00000000000000000000000060805233908190816200010b5760405162461bcd60e51b815260206004820152601860248201527f43616e6e6f7420736574206f776e657220746f207a65726f000000000000000060448201526064015b60405180910390fd5b600280546001600160a01b0319166001600160a01b03848116919091179091558116156200013e576200013e81620001db565b5050600a80546001600160a01b039586166a010000000000000000000002600160501b600160f01b031990911617905550600b8054929093166001600160a01b031992831617909255600680546001600160401b03909316600160a01b026001600160e01b031990931692909217737a1bac17ccc5b313516c5e16fb24f7659aa5ebed179091554260055560048054909116331790555062000310565b6001600160a01b038116331415620002365760405162461bcd60e51b815260206004820152601760248201527f43616e6e6f74207472616e7366657220746f2073656c66000000000000000000604482015260640162000102565b600380546001600160a01b0319166001600160a01b03838116918217909255600254604051919216907fed8889f560326eb138920d842192f0eb3dd22b4f139c87a2c57538e05bae127890600090a350565b80516001600160a01b0381168114620002a057600080fd5b919050565b60008060008060808587031215620002bc57600080fd5b620002c78562000288565b9350620002d76020860162000288565b9250620002e76040860162000288565b60608601519092506001600160401b03811681146200030557600080fd5b939692955090935050565b60805160601c615a9f620003366000396000818161149701526114f20152615a9f6000f3fe6080604052600436106102dc5760003560e01c8063b655cd9b11610184578063e0c86289116100d6578063f06c56101161008a578063f7023bb611610064578063f7023bb614610940578063fc2a88c314610960578063fffeb84e1461097657600080fd5b8063f06c5610146108c2578063f11da55b146108d8578063f2fde38b1461092057600080fd5b8063e3928b7f116100bb578063e3928b7f1461085f578063e5c33f3014610874578063ecd831e8146108a257600080fd5b8063e0c8628914610812578063e0e2fa9a1461082757600080fd5b8063c605f76c11610138578063d328a91e11610112578063d328a91e14610792578063d4b39175146107a7578063d8a4676f146107e457600080fd5b8063c605f76c14610714578063cc9de25d1461075a578063d18e81b31461077c57600080fd5b8063bc58d68c11610169578063bc58d68c146106b2578063bef3a2f0146106d2578063c0303c37146106f457600080fd5b8063b655cd9b14610665578063b91ce2051461069d57600080fd5b806361875d8d1161023d57806379ba5097116101f15780638da5cb5b116101cb5780638da5cb5b1461058c578063a168fa89146105aa578063b1011dbd146105fa57600080fd5b806379ba50971461052a578063808580261461053f5780638796ba8c1461056c57600080fd5b806369f8eaed1161022257806369f8eaed146104a75780636c6f9990146104c75780636ec7be7e146104e757600080fd5b806361875d8d1461046757806363d6634a1461049457600080fd5b80631fe543e31161029457806329cb924d1161027957806329cb924d146103e457806330bda99d146103f95780635ec7baca1461041957600080fd5b80631fe543e314610379578063215fc6251461039957600080fd5b80630b50567f116102c55780630b50567f1461032e5780630ca76175146103415780631aa46f591461036357600080fd5b806304b2303c146102e157806305f411d61461030b575b600080fd5b3480156102ed57600080fd5b506102f661098b565b60405190151581526020015b60405180910390f35b34801561031757600080fd5b506103206111b4565b604051908152602001610302565b61032061033c366004614efd565b61123f565b34801561034d57600080fd5b5061036161035c366004614f2f565b6113e6565b005b34801561036f57600080fd5b50610320600c5481565b34801561038557600080fd5b50610361610394366004615214565b61148c565b3480156103a557600080fd5b506103b96103b4366004614efd565b61152d565b6040805182516001600160a01b03168152602080840151908201529181015190820152606001610302565b3480156103f057600080fd5b50600f54610320565b34801561040557600080fd5b50610361610414366004614ed1565b611626565b34801561042557600080fd5b5061044f610434366004614efd565b6014602052600090815260409020546001600160a01b031681565b6040516001600160a01b039091168152602001610302565b34801561047357600080fd5b50610487610482366004614ed1565b611638565b6040516103029190615675565b6103206104a2366004615047565b611dc1565b3480156104b357600080fd5b506103616104c2366004614e97565b612629565b3480156104d357600080fd5b50600b5461044f906001600160a01b031681565b3480156104f357600080fd5b50610320610502366004614ed1565b6001600160a01b03919091166000908152601060209081526040808320938352929052205490565b34801561053657600080fd5b506103616126cb565b34801561054b57600080fd5b5061055f61055a366004614e97565b612780565b6040516103029190615492565b34801561057857600080fd5b50610320610587366004614efd565b612ece565b34801561059857600080fd5b506002546001600160a01b031661044f565b3480156105b657600080fd5b506105e36105c5366004614efd565b60156020526000908152604090205460ff8082169161010090041682565b604080519215158352901515602083015201610302565b34801561060657600080fd5b50610640610615366004614efd565b6012602052600090815260409020805460018201546002909201546001600160a01b03909116919083565b604080516001600160a01b039094168452602084019290925290820152606001610302565b34801561067157600080fd5b50610685610680366004614ed1565b612eef565b6040516103029c9b9a9998979695949392919061556f565b3480156106a957600080fd5b506103206135cc565b3480156106be57600080fd5b506103616106cd366004614ed1565b61368e565b3480156106de57600080fd5b506106e7613760565b604051610302919061550f565b34801561070057600080fd5b5060045461044f906001600160a01b031681565b34801561072057600080fd5b5060408051808201909152600c81527f48656c6c6f20576f726c6421000000000000000000000000000000000000000060208201526106e7565b34801561076657600080fd5b50610320610775366004614f9c565b6020015190565b34801561078857600080fd5b50610320600f5481565b34801561079e57600080fd5b506106e76137ee565b3480156107b357600080fd5b506107c76107c2366004615102565b613887565b6040516bffffffffffffffffffffffff9091168152602001610302565b3480156107f057600080fd5b506108046107ff366004614efd565b61391d565b6040516103029291906154f4565b34801561081e57600080fd5b50610320613a1d565b34801561083357600080fd5b50610320610842366004614ed1565b601060209081526000928352604080842090915290825290205481565b34801561086b57600080fd5b50610320613c3a565b34801561088057600080fd5b50600a5461044f906a010000000000000000000090046001600160a01b031681565b3480156108ae57600080fd5b506103616108bd366004614ed1565b613c98565b3480156108ce57600080fd5b5061032060055481565b3480156108e457600080fd5b506109136108f3366004614ed1565b601160209081526000928352604080842090915290825290205460ff1681565b6040516103029190615547565b34801561092c57600080fd5b5061036161093b366004614e97565b613daa565b34801561094c57600080fd5b5061036161095b366004614e97565b613dbe565b34801561096c57600080fd5b5061032060085481565b34801561098257600080fd5b506106e7613de4565b33600090815260136020526040812080546109ed5760405162461bcd60e51b815260206004820152601760248201527f4e6f20696e737572616e6365206461746120666f756e6400000000000000000060448201526064015b60405180910390fd5b60005b81548110156111ab576000828281548110610a0d57610a0d615a28565b90600052602060002090600c020160405180610180016040529081600082018054610a379061597c565b80601f0160208091040260200160405190810160405280929190818152602001828054610a639061597c565b8015610ab05780601f10610a8557610100808354040283529160200191610ab0565b820191906000526020600020905b815481529060010190602001808311610a9357829003601f168201915b50505050508152602001600182018054610ac99061597c565b80601f0160208091040260200160405190810160405280929190818152602001828054610af59061597c565b8015610b425780601f10610b1757610100808354040283529160200191610b42565b820191906000526020600020905b815481529060010190602001808311610b2557829003601f168201915b50505050508152602001600282018054610b5b9061597c565b80601f0160208091040260200160405190810160405280929190818152602001828054610b879061597c565b8015610bd45780601f10610ba957610100808354040283529160200191610bd4565b820191906000526020600020905b815481529060010190602001808311610bb757829003601f168201915b50505050508152602001600382018054610bed9061597c565b80601f0160208091040260200160405190810160405280929190818152602001828054610c199061597c565b8015610c665780601f10610c3b57610100808354040283529160200191610c66565b820191906000526020600020905b815481529060010190602001808311610c4957829003601f168201915b50505050508152602001600482018054610c7f9061597c565b80601f0160208091040260200160405190810160405280929190818152602001828054610cab9061597c565b8015610cf85780601f10610ccd57610100808354040283529160200191610cf8565b820191906000526020600020905b815481529060010190602001808311610cdb57829003601f168201915b50505050508152602001600582018054610d119061597c565b80601f0160208091040260200160405190810160405280929190818152602001828054610d3d9061597c565b8015610d8a5780601f10610d5f57610100808354040283529160200191610d8a565b820191906000526020600020905b815481529060010190602001808311610d6d57829003601f168201915b50505050508152602001600682018054610da39061597c565b80601f0160208091040260200160405190810160405280929190818152602001828054610dcf9061597c565b8015610e1c5780601f10610df157610100808354040283529160200191610e1c565b820191906000526020600020905b815481529060010190602001808311610dff57829003601f168201915b50505050508152602001600782018054610e359061597c565b80601f0160208091040260200160405190810160405280929190818152602001828054610e619061597c565b8015610eae5780601f10610e8357610100808354040283529160200191610eae565b820191906000526020600020905b815481529060010190602001808311610e9157829003601f168201915b50505050508152602001600882018054610ec79061597c565b80601f0160208091040260200160405190810160405280929190818152602001828054610ef39061597c565b8015610f405780601f10610f1557610100808354040283529160200191610f40565b820191906000526020600020905b815481529060010190602001808311610f2357829003601f168201915b50505050508152602001600982018054610f599061597c565b80601f0160208091040260200160405190810160405280929190818152602001828054610f859061597c565b8015610fd25780601f10610fa757610100808354040283529160200191610fd2565b820191906000526020600020905b815481529060010190602001808311610fb557829003601f168201915b50505050508152602001600a82018054610feb9061597c565b80601f01602080910402602001604051908101604052809291908181526020018280546110179061597c565b80156110645780601f1061103957610100808354040283529160200191611064565b820191906000526020600020905b81548152906001019060200180831161104757829003601f168201915b50505050508152602001600b8201805461107d9061597c565b80601f01602080910402602001604051908101604052809291908181526020018280546110a99061597c565b80156110f65780601f106110cb576101008083540402835291602001916110f6565b820191906000526020600020905b8154815290600101906020018083116110d957829003601f168201915b50505050508152505090508060c001515160001415801561111b575060e08101515115155b8015611128575080515115155b8015611138575060208101515115155b8015611148575060408101515115155b8015611158575060608101515115155b8015611168575060808101515115155b8015611178575060a08101515115155b801561118957506101008101515115155b15611198576001935050505090565b50806111a3816159b7565b9150506109f0565b50600091505090565b6000600a8054906101000a90046001600160a01b03166001600160a01b0316638e15f4736040518163ffffffff1660e01b815260040160206040518083038186803b15801561120257600080fd5b505afa158015611216573d6000803e3d6000fd5b505050506040513d601f19601f8201168201806040525081019061123a9190614f16565b905090565b600081815260126020908152604080832060028101546001820154338652601390945291842080549193918591908390811061127d5761127d615a28565b6000918252602080832033845260118252604080852087865290925290832054600c9290920201925060ff1660028111156112ba576112ba615a12565b146113075760405162461bcd60e51b815260206004820152601560248201527f506f6c696379206973206e6f742070656e64696e67000000000000000000000060448201526064016109e4565b6000611311613c3a565b9050600081611324866305f5e10061591a565b61132e919061581b565b9050803410156113805760405162461bcd60e51b815260206004820152601560248201527f4e6f7420656e6f756768204d617469632073656e74000000000000000000000060448201526064016109e4565b336000818152601160209081526040808320888452825291829020805460ff19166001179055815192835282018690527f153598a6c97963bd4d16e97786943eb68bcc8ca58077614327e965efe69fa110910160405180910390a1505050505050919050565b60008381526001602052604090205483906001600160a01b03163314611438576040517fa0c5ec6300000000000000000000000000000000000000000000000000000000815260040160405180910390fd5b60008181526001602052604080822080546001600160a01b03191690555182917f85e1543bf2f84fe80c6badbce3648c8539ad1df4d2b3d822938ca0538be727e691a2611486848484613df1565b50505050565b336001600160a01b037f0000000000000000000000000000000000000000000000000000000000000000161461151f576040517f1cf993f40000000000000000000000000000000000000000000000000000000081523360048201526001600160a01b037f00000000000000000000000000000000000000000000000000000000000000001660248201526044016109e4565b6115298282613ed2565b5050565b61155a604051806060016040528060006001600160a01b0316815260200160008152602001600081525090565b6000828152601260205260409020546001600160a01b03166115e45760405162461bcd60e51b815260206004820152602560248201527f4e6f206461746120666f756e6420666f722074686520676976656e207265717560448201527f657374496400000000000000000000000000000000000000000000000000000060648201526084016109e4565b50600090815260126020908152604091829020825160608101845281546001600160a01b03168152600182015492810192909252600201549181019190915290565b61162e613f98565b6115298282613ff4565b61169c6040518061018001604052806060815260200160608152602001606081526020016060815260200160608152602001606081526020016060815260200160608152602001606081526020016060815260200160608152602001606081525090565b6001600160a01b03831660009081526013602052604090208054839081106116c6576116c6615a28565b90600052602060002090600c0201604051806101800160405290816000820180546116f09061597c565b80601f016020809104026020016040519081016040528092919081815260200182805461171c9061597c565b80156117695780601f1061173e57610100808354040283529160200191611769565b820191906000526020600020905b81548152906001019060200180831161174c57829003601f168201915b505050505081526020016001820180546117829061597c565b80601f01602080910402602001604051908101604052809291908181526020018280546117ae9061597c565b80156117fb5780601f106117d0576101008083540402835291602001916117fb565b820191906000526020600020905b8154815290600101906020018083116117de57829003601f168201915b505050505081526020016002820180546118149061597c565b80601f01602080910402602001604051908101604052809291908181526020018280546118409061597c565b801561188d5780601f106118625761010080835404028352916020019161188d565b820191906000526020600020905b81548152906001019060200180831161187057829003601f168201915b505050505081526020016003820180546118a69061597c565b80601f01602080910402602001604051908101604052809291908181526020018280546118d29061597c565b801561191f5780601f106118f45761010080835404028352916020019161191f565b820191906000526020600020905b81548152906001019060200180831161190257829003601f168201915b505050505081526020016004820180546119389061597c565b80601f01602080910402602001604051908101604052809291908181526020018280546119649061597c565b80156119b15780601f10611986576101008083540402835291602001916119b1565b820191906000526020600020905b81548152906001019060200180831161199457829003601f168201915b505050505081526020016005820180546119ca9061597c565b80601f01602080910402602001604051908101604052809291908181526020018280546119f69061597c565b8015611a435780601f10611a1857610100808354040283529160200191611a43565b820191906000526020600020905b815481529060010190602001808311611a2657829003601f168201915b50505050508152602001600682018054611a5c9061597c565b80601f0160208091040260200160405190810160405280929190818152602001828054611a889061597c565b8015611ad55780601f10611aaa57610100808354040283529160200191611ad5565b820191906000526020600020905b815481529060010190602001808311611ab857829003601f168201915b50505050508152602001600782018054611aee9061597c565b80601f0160208091040260200160405190810160405280929190818152602001828054611b1a9061597c565b8015611b675780601f10611b3c57610100808354040283529160200191611b67565b820191906000526020600020905b815481529060010190602001808311611b4a57829003601f168201915b50505050508152602001600882018054611b809061597c565b80601f0160208091040260200160405190810160405280929190818152602001828054611bac9061597c565b8015611bf95780601f10611bce57610100808354040283529160200191611bf9565b820191906000526020600020905b815481529060010190602001808311611bdc57829003601f168201915b50505050508152602001600982018054611c129061597c565b80601f0160208091040260200160405190810160405280929190818152602001828054611c3e9061597c565b8015611c8b5780601f10611c6057610100808354040283529160200191611c8b565b820191906000526020600020905b815481529060010190602001808311611c6e57829003601f168201915b50505050508152602001600a82018054611ca49061597c565b80601f0160208091040260200160405190810160405280929190818152602001828054611cd09061597c565b8015611d1d5780601f10611cf257610100808354040283529160200191611d1d565b820191906000526020600020905b815481529060010190602001808311611d0057829003601f168201915b50505050508152602001600b82018054611d369061597c565b80601f0160208091040260200160405190810160405280929190818152602001828054611d629061597c565b8015611daf5780601f10611d8457610100808354040283529160200191611daf565b820191906000526020600020905b815481529060010190602001808311611d9257829003601f168201915b50505050508152505090505b92915050565b6000600b8414611e135760405162461bcd60e51b815260206004820152601b60248201527f496e76616c6964206e756d626572206f6620617267756d656e7473000000000060448201526064016109e4565b33600090815260136020526040812090611e2c42614074565b90508160405180610180016040528089896000818110611e4e57611e4e615a28565b9050602002810190611e609190615716565b8080601f01602080910402602001604051908101604052809392919081815260200183838082843760009201919091525050509082525060200189896001818110611ead57611ead615a28565b9050602002810190611ebf9190615716565b8080601f01602080910402602001604051908101604052809392919081815260200183838082843760009201919091525050509082525060200189896002818110611f0c57611f0c615a28565b9050602002810190611f1e9190615716565b8080601f01602080910402602001604051908101604052809392919081815260200183838082843760009201919091525050509082525060200189896003818110611f6b57611f6b615a28565b9050602002810190611f7d9190615716565b8080601f01602080910402602001604051908101604052809392919081815260200183838082843760009201919091525050509082525060200189896004818110611fca57611fca615a28565b9050602002810190611fdc9190615716565b8080601f0160208091040260200160405190810160405280939291908181526020018383808284376000920191909152505050908252506020018989600581811061202957612029615a28565b905060200281019061203b9190615716565b8080601f0160208091040260200160405190810160405280939291908181526020018383808284376000920191909152505050908252506020018989600681811061208857612088615a28565b905060200281019061209a9190615716565b8080601f016020809104026020016040519081016040528093929190818152602001838380828437600092019190915250505090825250602001898960078181106120e7576120e7615a28565b90506020028101906120f99190615716565b8080601f0160208091040260200160405190810160405280939291908181526020018383808284376000920191909152505050908252506020018989600881811061214657612146615a28565b90506020028101906121589190615716565b8080601f016020809104026020016040519081016040528093929190818152602001838380828437600092019190915250505090825250602001898960098181106121a5576121a5615a28565b90506020028101906121b79190615716565b8080601f0160208091040260200160405190810160405280939291908181526020018383808284376000920191909152505050908252506020018989600a81811061220457612204615a28565b90506020028101906122169190615716565b8080601f016020809104026020016040519081016040528093929190818152602001838380828437600092018290525093855250505060209182018590528354600181018555938152819020825180519394600c029091019261227c9284920190614c0c565b5060208281015180516122959260018501920190614c0c565b50604082015180516122b1916002840191602090910190614c0c565b50606082015180516122cd916003840191602090910190614c0c565b50608082015180516122e9916004840191602090910190614c0c565b5060a08201518051612305916005840191602090910190614c0c565b5060c08201518051612321916006840191602090910190614c0c565b5060e0820151805161233d916007840191602090910190614c0c565b50610100820151805161235a916008840191602090910190614c0c565b506101208201518051612377916009840191602090910190614c0c565b50610140820151805161239491600a840191602090910190614c0c565b5061016082015180516123b191600b840191602090910190614c0c565b5050336000908152601360205260408120549091506123d290600190615939565b905061240e6040805160c08101909152806000815260200160008152602001600081526020016060815260200160608152602001606081525090565b6124556000808d8d8080601f0160208091040260200160405190810160405280939291908181526020018383808284376000920191909152508795949392505061411e9050565b6000612462896001615803565b67ffffffffffffffff81111561247a5761247a615a3e565b6040519080825280602002602001820160405280156124ad57816020015b60608152602001906001900390816124985790505b50905060005b89811015612545578a8a828181106124cd576124cd615a28565b90506020028101906124df9190615716565b8080601f016020809104026020016040519081016040528093929190818152602001838380828437600092019190915250508451859250849150811061252757612527615a28565b6020026020010181905250808061253d906159b7565b9150506124b3565b5083818b8b90508151811061255c5761255c615a28565b602090810291909101015261257182826141b2565b600061257e838a8a6141f2565b60408051606081018252338082526020808301898152600084860181815287825260128452868220955186546001600160a01b0319166001600160a01b03909116178655915160018601559051600290940193909355600c859055908252601081528282208883529052818120839055905191925082917f0790d5075e76350b19c3d15f0de9144077f6fb31397b526ce8664d7faf7dde6b9190a29c9b505050505050505050505050565b6004546001600160a01b031633146126a95760405162461bcd60e51b815260206004820152602e60248201527f43616c6c6572206973206e6f74207468652063757272656e7420436865636b5060448201527f61796f757420636f6e747261637400000000000000000000000000000000000060648201526084016109e4565b600480546001600160a01b0319166001600160a01b0392909216919091179055565b6003546001600160a01b031633146127255760405162461bcd60e51b815260206004820152601660248201527f4d7573742062652070726f706f736564206f776e65720000000000000000000060448201526064016109e4565b600280546001600160a01b0319808216339081179093556003805490911690556040516001600160a01b03909116919082907f8be0079c531659141344cd1fd0a4f28419497f9722a3daafe3b4186f6b6457e090600090a350565b6001600160a01b0381166000908152601360209081526040808320805482518185028101850190935280835260609492939192909184015b82821015612ec357838290600052602060002090600c0201604051806101800160405290816000820180546127ec9061597c565b80601f01602080910402602001604051908101604052809291908181526020018280546128189061597c565b80156128655780601f1061283a57610100808354040283529160200191612865565b820191906000526020600020905b81548152906001019060200180831161284857829003601f168201915b5050505050815260200160018201805461287e9061597c565b80601f01602080910402602001604051908101604052809291908181526020018280546128aa9061597c565b80156128f75780601f106128cc576101008083540402835291602001916128f7565b820191906000526020600020905b8154815290600101906020018083116128da57829003601f168201915b505050505081526020016002820180546129109061597c565b80601f016020809104026020016040519081016040528092919081815260200182805461293c9061597c565b80156129895780601f1061295e57610100808354040283529160200191612989565b820191906000526020600020905b81548152906001019060200180831161296c57829003601f168201915b505050505081526020016003820180546129a29061597c565b80601f01602080910402602001604051908101604052809291908181526020018280546129ce9061597c565b8015612a1b5780601f106129f057610100808354040283529160200191612a1b565b820191906000526020600020905b8154815290600101906020018083116129fe57829003601f168201915b50505050508152602001600482018054612a349061597c565b80601f0160208091040260200160405190810160405280929190818152602001828054612a609061597c565b8015612aad5780601f10612a8257610100808354040283529160200191612aad565b820191906000526020600020905b815481529060010190602001808311612a9057829003601f168201915b50505050508152602001600582018054612ac69061597c565b80601f0160208091040260200160405190810160405280929190818152602001828054612af29061597c565b8015612b3f5780601f10612b1457610100808354040283529160200191612b3f565b820191906000526020600020905b815481529060010190602001808311612b2257829003601f168201915b50505050508152602001600682018054612b589061597c565b80601f0160208091040260200160405190810160405280929190818152602001828054612b849061597c565b8015612bd15780601f10612ba657610100808354040283529160200191612bd1565b820191906000526020600020905b815481529060010190602001808311612bb457829003601f168201915b50505050508152602001600782018054612bea9061597c565b80601f0160208091040260200160405190810160405280929190818152602001828054612c169061597c565b8015612c635780601f10612c3857610100808354040283529160200191612c63565b820191906000526020600020905b815481529060010190602001808311612c4657829003601f168201915b50505050508152602001600882018054612c7c9061597c565b80601f0160208091040260200160405190810160405280929190818152602001828054612ca89061597c565b8015612cf55780601f10612cca57610100808354040283529160200191612cf5565b820191906000526020600020905b815481529060010190602001808311612cd857829003601f168201915b50505050508152602001600982018054612d0e9061597c565b80601f0160208091040260200160405190810160405280929190818152602001828054612d3a9061597c565b8015612d875780601f10612d5c57610100808354040283529160200191612d87565b820191906000526020600020905b815481529060010190602001808311612d6a57829003601f168201915b50505050508152602001600a82018054612da09061597c565b80601f0160208091040260200160405190810160405280929190818152602001828054612dcc9061597c565b8015612e195780601f10612dee57610100808354040283529160200191612e19565b820191906000526020600020905b815481529060010190602001808311612dfc57829003601f168201915b50505050508152602001600b82018054612e329061597c565b80601f0160208091040260200160405190810160405280929190818152602001828054612e5e9061597c565b8015612eab5780601f10612e8057610100808354040283529160200191612eab565b820191906000526020600020905b815481529060010190602001808311612e8e57829003601f168201915b505050505081525050815260200190600101906127b8565b505050509050919050565b60078181548110612ede57600080fd5b600091825260209091200154905081565b60136020528160005260406000208181548110612f0b57600080fd5b90600052602060002090600c020160009150915050806000018054612f2f9061597c565b80601f0160208091040260200160405190810160405280929190818152602001828054612f5b9061597c565b8015612fa85780601f10612f7d57610100808354040283529160200191612fa8565b820191906000526020600020905b815481529060010190602001808311612f8b57829003601f168201915b505050505090806001018054612fbd9061597c565b80601f0160208091040260200160405190810160405280929190818152602001828054612fe99061597c565b80156130365780601f1061300b57610100808354040283529160200191613036565b820191906000526020600020905b81548152906001019060200180831161301957829003601f168201915b50505050509080600201805461304b9061597c565b80601f01602080910402602001604051908101604052809291908181526020018280546130779061597c565b80156130c45780601f10613099576101008083540402835291602001916130c4565b820191906000526020600020905b8154815290600101906020018083116130a757829003601f168201915b5050505050908060030180546130d99061597c565b80601f01602080910402602001604051908101604052809291908181526020018280546131059061597c565b80156131525780601f1061312757610100808354040283529160200191613152565b820191906000526020600020905b81548152906001019060200180831161313557829003601f168201915b5050505050908060040180546131679061597c565b80601f01602080910402602001604051908101604052809291908181526020018280546131939061597c565b80156131e05780601f106131b5576101008083540402835291602001916131e0565b820191906000526020600020905b8154815290600101906020018083116131c357829003601f168201915b5050505050908060050180546131f59061597c565b80601f01602080910402602001604051908101604052809291908181526020018280546132219061597c565b801561326e5780601f106132435761010080835404028352916020019161326e565b820191906000526020600020905b81548152906001019060200180831161325157829003601f168201915b5050505050908060060180546132839061597c565b80601f01602080910402602001604051908101604052809291908181526020018280546132af9061597c565b80156132fc5780601f106132d1576101008083540402835291602001916132fc565b820191906000526020600020905b8154815290600101906020018083116132df57829003601f168201915b5050505050908060070180546133119061597c565b80601f016020809104026020016040519081016040528092919081815260200182805461333d9061597c565b801561338a5780601f1061335f5761010080835404028352916020019161338a565b820191906000526020600020905b81548152906001019060200180831161336d57829003601f168201915b50505050509080600801805461339f9061597c565b80601f01602080910402602001604051908101604052809291908181526020018280546133cb9061597c565b80156134185780601f106133ed57610100808354040283529160200191613418565b820191906000526020600020905b8154815290600101906020018083116133fb57829003601f168201915b50505050509080600901805461342d9061597c565b80601f01602080910402602001604051908101604052809291908181526020018280546134599061597c565b80156134a65780601f1061347b576101008083540402835291602001916134a6565b820191906000526020600020905b81548152906001019060200180831161348957829003601f168201915b50505050509080600a0180546134bb9061597c565b80601f01602080910402602001604051908101604052809291908181526020018280546134e79061597c565b80156135345780601f1061350957610100808354040283529160200191613534565b820191906000526020600020905b81548152906001019060200180831161351757829003601f168201915b50505050509080600b0180546135499061597c565b80601f01602080910402602001604051908101604052809291908181526020018280546135759061597c565b80156135c25780601f10613597576101008083540402835291602001916135c2565b820191906000526020600020905b8154815290600101906020018083116135a557829003601f168201915b505050505090508c565b600854600090815260156020526040812054610100900460ff166136585760405162461bcd60e51b815260206004820152602760248201527f4e6f2072616e646f6d20776f7264732068617665206265656e2067656e65726160448201527f746564207965740000000000000000000000000000000000000000000000000060648201526084016109e4565b60085460009081526015602052604081206001018054829061367c5761367c615a28565b60009182526020909120015492915050565b6004546001600160a01b031633146136f75760405162461bcd60e51b815260206004820152602660248201527f43616c6c6572206973206e6f742074686520436865636b5061796f757420636f6044820152651b9d1c9858dd60d21b60648201526084016109e4565b6001600160a01b0382166000818152601160209081526040808320858452825291829020805460ff19166002179055815192835282018390527f05e258a8da32249e7d7e1ebcd6b64f7c97c4235999db64b6687191b183d5e3f291015b60405180910390a15050565b600d805461376d9061597c565b80601f01602080910402602001604051908101604052809291908181526020018280546137999061597c565b80156137e65780601f106137bb576101008083540402835291602001916137e6565b820191906000526020600020905b8154815290600101906020018083116137c957829003601f168201915b505050505081565b60008054604080517fd328a91e00000000000000000000000000000000000000000000000000000000815290516060936001600160a01b039093169263d328a91e9260048082019391829003018186803b15801561384b57600080fd5b505afa15801561385f573d6000803e3d6000fd5b505050506040513d6000823e601f3d908101601f1916820160405261123a9190810190614fd9565b600080546001600160a01b031663d227d245856138a388614364565b86866040518563ffffffff1660e01b81526004016138c494939291906156da565b60206040518083038186803b1580156138dc57600080fd5b505afa1580156138f0573d6000803e3d6000fd5b505050506040513d601f19601f8201168201806040525081019061391491906152b8565b95945050505050565b600081815260156020526040812054606090610100900460ff166139835760405162461bcd60e51b815260206004820152601160248201527f72657175657374206e6f7420666f756e6400000000000000000000000000000060448201526064016109e4565b60008381526015602090815260408083208151606081018352815460ff80821615158352610100909104161515818501526001820180548451818702810187018652818152929593948601938301828280156139fe57602002820191906000526020600020905b8154815260200190600101908083116139ea575b5050505050815250509050806000015181604001519250925050915091565b6000613a27613f98565b600654600954600a546040517f5d3b1d30000000000000000000000000000000000000000000000000000000008152600481019290925274010000000000000000000000000000000000000000830467ffffffffffffffff166024830152640100000000810461ffff16604483015263ffffffff808216606484015266010000000000009091041660848201526001600160a01b0390911690635d3b1d309060a401602060405180830381600087803b158015613ae357600080fd5b505af1158015613af7573d6000803e3d6000fd5b505050506040513d601f19601f82011682018060405250810190613b1b9190614f16565b6040805160608101825260008082526001602080840182815285518481528083018752858701908152878552601583529590932084518154945161ffff1990951690151561ff00191617610100941515949094029390931783559351805195965092949193613b909391850192910190614c90565b505060078054600181019091557fa66cc928b5edb82af9bd49922954155ab7b0942694bea4ce44661d9a8736c688018290555060088190556000818152601460209081526040918290208054336001600160a01b0319909116179055600a548251848152660100000000000090910463ffffffff16918101919091527fcc58b13ad3eab50626c6a6300b1d139cd6ebb1688a7cced9461c2f7e762665ee910160405180910390a190565b600b54604080517f8e15f47300000000000000000000000000000000000000000000000000000000815290516000926001600160a01b031691638e15f473916004808301926020929190829003018186803b15801561120257600080fd5b6004546001600160a01b03163314613d015760405162461bcd60e51b815260206004820152602660248201527f43616c6c6572206973206e6f742074686520436865636b5061796f757420636f6044820152651b9d1c9858dd60d21b60648201526084016109e4565b6000613d0b613c3a565b9050600081613d1e846305f5e10061591a565b613d28919061581b565b6040519091506001600160a01b0385169082156108fc029083906000818181858888f19350505050158015613d61573d6000803e3d6000fd5b50604080516001600160a01b0386168152602081018390527f188c4d19b4fadd1889d9bd9bf0ab7c97e0719434751e6c05feac6339c1c001ec910160405180910390a150505050565b613db2613f98565b613dbb81614630565b50565b613dc6613f98565b600080546001600160a01b0319166001600160a01b03831617905550565b600e805461376d9061597c565b600083815260126020526040812090613e0b846020015190565b600283018190558451909150613e2890600d906020870190614c0c565b508251613e3c90600e906020860190614c0c565b50847f7bab0ec163b5c132c72b8146ac4d6e067e82ed58f8b131150aa71c92589115628585604051613e6f929190615522565b60405180910390a2815460018301546002840154604080516001600160a01b039094168452602084019290925282820152517f93aceb1c5e55aa194781a0423a101b97efa4a051e8d2fc2ba332ca75f4e4b6a79181900360600190a15050505050565b600082815260156020526040902054610100900460ff16613f355760405162461bcd60e51b815260206004820152601160248201527f72657175657374206e6f7420666f756e6400000000000000000000000000000060448201526064016109e4565b6000828152601560209081526040909120805460ff1916600190811782558351613f66939290910191840190614c90565b507ffe2e2d779dba245964d4e3ef9b994be63856fd568bf7d3ca9e224755cb1bd54d8282604051613754929190615688565b6002546001600160a01b03163314613ff25760405162461bcd60e51b815260206004820152601660248201527f4f6e6c792063616c6c61626c65206279206f776e65720000000000000000000060448201526064016109e4565b565b60008181526001602052604090205481906001600160a01b031615614045576040517f8b457ad200000000000000000000000000000000000000000000000000000000815260040160405180910390fd5b50600090815260016020526040902080546001600160a01b0319166001600160a01b0392909216919091179055565b60606000614081836146db565b600101905060008167ffffffffffffffff8111156140a1576140a1615a3e565b6040519080825280601f01601f1916602001820160405280156140cb576020820181803683370190505b5090508181016020015b600019017f3031323334353637383961626364656600000000000000000000000000000000600a86061a8153600a850494508461411157614116565b6140d5565b509392505050565b8051614156576040517f22ce3edd00000000000000000000000000000000000000000000000000000000815260040160405180910390fd5b8383600181111561416957614169615a12565b9081600181111561417c5761417c615a12565b9052506040840182801561419257614192615a12565b908180156141a2576141a2615a12565b9052506060909301929092525050565b80516141ea576040517ffe936cb700000000000000000000000000000000000000000000000000000000815260040160405180910390fd5b60a090910152565b6000805481906001600160a01b03166328242b048561421088614364565b866040518463ffffffff1660e01b815260040161422f939291906156a1565b602060405180830381600087803b15801561424957600080fd5b505af115801561425d573d6000803e3d6000fd5b505050506040513d601f19601f820116820180604052508101906142819190614f16565b905060008054906101000a90046001600160a01b03166001600160a01b0316635ab1bd536040518163ffffffff1660e01b815260040160206040518083038186803b1580156142cf57600080fd5b505afa1580156142e3573d6000803e3d6000fd5b505050506040513d601f19601f820116820180604052508101906143079190614eb4565b60008281526001602052604080822080546001600160a01b0319166001600160a01b039490941693909317909255905182917f1131472297a800fee664d1d89cfa8f7676ff07189ecc53f80bbb5f4969099db891a2949350505050565b606061436e614cca565b805161437c906101006147bd565b506143bc816040518060400160405280600c81526020017f636f64654c6f636174696f6e0000000000000000000000000000000000000000815250614834565b6143db81846000015160018111156143d6576143d6615a12565b614852565b61441a816040518060400160405280600881526020017f6c616e6775616765000000000000000000000000000000000000000000000000815250614834565b61443481846040015160008111156143d6576143d6615a12565b614473816040518060400160405280600681526020017f736f757263650000000000000000000000000000000000000000000000000000815250614834565b614481818460600151614834565b60a08301515115614527576144cb816040518060400160405280600481526020017f6172677300000000000000000000000000000000000000000000000000000000815250614834565b6144d48161488b565b60005b8360a001515181101561451d5761450b828560a0015183815181106144fe576144fe615a28565b6020026020010151614834565b80614515816159b7565b9150506144d7565b50614527816148af565b608083015151156146285760008360200151600181111561454a5761454a615a12565b1415614582576040517fa80d31f700000000000000000000000000000000000000000000000000000000815260040160405180910390fd5b6145c1816040518060400160405280600f81526020017f736563726574734c6f636174696f6e0000000000000000000000000000000000815250614834565b6145db81846020015160018111156143d6576143d6615a12565b61461a816040518060400160405280600781526020017f7365637265747300000000000000000000000000000000000000000000000000815250614834565b6146288184608001516148cd565b515192915050565b6001600160a01b0381163314156146895760405162461bcd60e51b815260206004820152601760248201527f43616e6e6f74207472616e7366657220746f2073656c6600000000000000000060448201526064016109e4565b600380546001600160a01b0319166001600160a01b03838116918217909255600254604051919216907fed8889f560326eb138920d842192f0eb3dd22b4f139c87a2c57538e05bae127890600090a350565b6000807a184f03e93ff9f4daa797ed6e38ed64bf6a1f0100000000000000008310614724577a184f03e93ff9f4daa797ed6e38ed64bf6a1f010000000000000000830492506040015b6d04ee2d6d415b85acef81000000008310614750576d04ee2d6d415b85acef8100000000830492506020015b662386f26fc10000831061476e57662386f26fc10000830492506010015b6305f5e1008310614786576305f5e100830492506008015b612710831061479a57612710830492506004015b606483106147ac576064830492506002015b600a8310611dbb5760010192915050565b6040805180820190915260608152600060208201526147dd6020836159d2565b15614805576147ed6020836159d2565b6147f8906020615939565b6148029083615803565b91505b60208084018390526040518085526000815290818401018181101561482957600080fd5b604052509192915050565b61484182600383516148d6565b815161484d90826149f7565b505050565b815161485f9060c2614a1f565b50611529828260405160200161487791815260200190565b6040516020818303038152906040526148cd565b614896816004614a88565b6001816020018181516148a99190615803565b90525050565b6148ba816007614a88565b6001816020018181516148a99190615939565b61484182600283515b60178167ffffffffffffffff16116148fd5782516114869060e0600585901b168317614a1f565b60ff8167ffffffffffffffff161161493f578251614926906018611fe0600586901b1617614a1f565b5082516114869067ffffffffffffffff83166001614a9f565b61ffff8167ffffffffffffffff1611614982578251614969906019611fe0600586901b1617614a1f565b5082516114869067ffffffffffffffff83166002614a9f565b63ffffffff8167ffffffffffffffff16116149c75782516149ae90601a611fe0600586901b1617614a1f565b5082516114869067ffffffffffffffff83166004614a9f565b82516149de90601b611fe0600586901b1617614a1f565b5082516114869067ffffffffffffffff83166008614a9f565b604080518082019091526060815260006020820152614a1883838451614b24565b9392505050565b6040805180820190915260608152600060208201528251516000614a44826001615803565b905084602001518210614a6557614a6585614a6083600261591a565b614bf5565b8451602083820101858153508051821115614a7e578181525b5093949350505050565b815161484d90601f611fe0600585901b1617614a1f565b6040805180820190915260608152600060208201528351516000614ac38285615803565b90508560200151811115614ae057614ae086614a6083600261591a565b60006001614af086610100615872565b614afa9190615939565b90508651828101878319825116178152508051831115614b18578281525b50959695505050505050565b6040805180820190915260608152600060208201528251821115614b4757600080fd5b8351516000614b568483615803565b90508560200151811115614b7357614b7386614a6083600261591a565b855180518382016020019160009180851115614b8d578482525b505050602086015b60208610614bcd5780518252614bac602083615803565b9150614bb9602082615803565b9050614bc6602087615939565b9550614b95565b51815160001960208890036101000a0190811690199190911617905250849150509392505050565b8151614c0183836147bd565b5061148683826149f7565b828054614c189061597c565b90600052602060002090601f016020900481019282614c3a5760008555614c80565b82601f10614c5357805160ff1916838001178555614c80565b82800160010185558215614c80579182015b82811115614c80578251825591602001919060010190614c65565b50614c8c929150614cff565b5090565b828054828255906000526020600020908101928215614c805791602002820182811115614c80578251825591602001919060010190614c65565b6040518060400160405280614cf2604051806040016040528060608152602001600081525090565b8152602001600081525090565b5b80821115614c8c5760008155600101614d00565b60008083601f840112614d2657600080fd5b50813567ffffffffffffffff811115614d3e57600080fd5b6020830191508360208260051b8501011115614d5957600080fd5b9250929050565b600082601f830112614d7157600080fd5b81356020614d86614d81836157b7565b615786565b80838252828201915082860187848660051b8901011115614da657600080fd5b6000805b86811015614de957823567ffffffffffffffff811115614dc8578283fd5b614dd68b88838d0101614df7565b8652509385019391850191600101614daa565b509198975050505050505050565b600082601f830112614e0857600080fd5b8135614e16614d81826157db565b818152846020838601011115614e2b57600080fd5b816020850160208301376000918101602001919091529392505050565b803560018110614e5757600080fd5b919050565b803560028110614e5757600080fd5b803563ffffffff81168114614e5757600080fd5b803567ffffffffffffffff81168114614e5757600080fd5b600060208284031215614ea957600080fd5b8135614a1881615a54565b600060208284031215614ec657600080fd5b8151614a1881615a54565b60008060408385031215614ee457600080fd5b8235614eef81615a54565b946020939093013593505050565b600060208284031215614f0f57600080fd5b5035919050565b600060208284031215614f2857600080fd5b5051919050565b600080600060608486031215614f4457600080fd5b83359250602084013567ffffffffffffffff80821115614f6357600080fd5b614f6f87838801614df7565b93506040860135915080821115614f8557600080fd5b50614f9286828701614df7565b9150509250925092565b600060208284031215614fae57600080fd5b813567ffffffffffffffff811115614fc557600080fd5b614fd184828501614df7565b949350505050565b600060208284031215614feb57600080fd5b815167ffffffffffffffff81111561500257600080fd5b8201601f8101841361501357600080fd5b8051615021614d81826157db565b81815285602083850101111561503657600080fd5b613914826020830160208601615950565b6000806000806000806080878903121561506057600080fd5b863567ffffffffffffffff8082111561507857600080fd5b818901915089601f83011261508c57600080fd5b81358181111561509b57600080fd5b8a60208285010111156150ad57600080fd5b6020928301985096509088013590808211156150c857600080fd5b506150d589828a01614d14565b90955093506150e8905060408801614e7f565b91506150f660608801614e6b565b90509295509295509295565b6000806000806080858703121561511857600080fd5b843567ffffffffffffffff8082111561513057600080fd5b9086019060c0828903121561514457600080fd5b61514c61575d565b61515583614e5c565b815261516360208401614e5c565b602082015261517460408401614e48565b604082015260608301358281111561518b57600080fd5b6151978a828601614df7565b6060830152506080830135828111156151af57600080fd5b6151bb8a828601614df7565b60808301525060a0830135828111156151d357600080fd5b6151df8a828601614d60565b60a08301525095506151f691505060208601614e7f565b925061520460408601614e6b565b9396929550929360600135925050565b6000806040838503121561522757600080fd5b8235915060208084013567ffffffffffffffff81111561524657600080fd5b8401601f8101861361525757600080fd5b8035615265614d81826157b7565b80828252848201915084840189868560051b870101111561528557600080fd5b600094505b838510156152a857803583526001949094019391850191850161528a565b5080955050505050509250929050565b6000602082840312156152ca57600080fd5b81516bffffffffffffffffffffffff81168114614a1857600080fd5b600081518084526020808501945080840160005b83811015615316578151875295820195908201906001016152fa565b509495945050505050565b60008151808452615339816020860160208601615950565b601f01601f19169290920160200192915050565b6000610180825181855261536382860182615321565b9150506020830151848203602086015261537d8282615321565b915050604083015184820360408601526153978282615321565b915050606083015184820360608601526153b18282615321565b915050608083015184820360808601526153cb8282615321565b91505060a083015184820360a08601526153e58282615321565b91505060c083015184820360c08601526153ff8282615321565b91505060e083015184820360e08601526154198282615321565b91505061010080840151858303828701526154348382615321565b9250505061012080840151858303828701526154508382615321565b92505050610140808401518583038287015261546c8382615321565b9250505061016080840151858303828701526154888382615321565b9695505050505050565b6000602080830181845280855180835260408601915060408160051b870101925083870160005b828110156154e757603f198886030184526154d585835161534d565b945092850192908501906001016154b9565b5092979650505050505050565b8215158152604060208201526000614fd160408301846152e6565b602081526000614a186020830184615321565b6040815260006155356040830185615321565b82810360208401526139148185615321565b602081016003831061556957634e487b7160e01b600052602160045260246000fd5b91905290565b6101808152600061558461018083018f615321565b8281036020840152615596818f615321565b905082810360408401526155aa818e615321565b905082810360608401526155be818d615321565b905082810360808401526155d2818c615321565b905082810360a08401526155e6818b615321565b905082810360c08401526155fa818a615321565b905082810360e084015261560e8189615321565b90508281036101008401526156238188615321565b90508281036101208401526156388187615321565b905082810361014084015261564d8186615321565b90508281036101608401526156628185615321565b9f9e505050505050505050505050505050565b602081526000614a18602083018461534d565b828152604060208201526000614fd160408301846152e6565b67ffffffffffffffff841681526060602082015260006156c46060830185615321565b905063ffffffff83166040830152949350505050565b67ffffffffffffffff851681526080602082015260006156fd6080830186615321565b63ffffffff949094166040830152506060015292915050565b6000808335601e1984360301811261572d57600080fd5b83018035915067ffffffffffffffff82111561574857600080fd5b602001915036819003821315614d5957600080fd5b60405160c0810167ffffffffffffffff8111828210171561578057615780615a3e565b60405290565b604051601f8201601f1916810167ffffffffffffffff811182821017156157af576157af615a3e565b604052919050565b600067ffffffffffffffff8211156157d1576157d1615a3e565b5060051b60200190565b600067ffffffffffffffff8211156157f5576157f5615a3e565b50601f01601f191660200190565b60008219821115615816576158166159e6565b500190565b60008261582a5761582a6159fc565b500490565b600181815b8085111561586a578160001904821115615850576158506159e6565b8085161561585d57918102915b93841c9390800290615834565b509250929050565b6000614a18838360008261588857506001611dbb565b8161589557506000611dbb565b81600181146158ab57600281146158b5576158d1565b6001915050611dbb565b60ff8411156158c6576158c66159e6565b50506001821b611dbb565b5060208310610133831016604e8410600b84101617156158f4575081810a611dbb565b6158fe838361582f565b8060001904821115615912576159126159e6565b029392505050565b6000816000190483118215151615615934576159346159e6565b500290565b60008282101561594b5761594b6159e6565b500390565b60005b8381101561596b578181015183820152602001615953565b838111156114865750506000910152565b600181811c9082168061599057607f821691505b602082108114156159b157634e487b7160e01b600052602260045260246000fd5b50919050565b60006000198214156159cb576159cb6159e6565b5060010190565b6000826159e1576159e16159fc565b500690565b634e487b7160e01b600052601160045260246000fd5b634e487b7160e01b600052601260045260246000fd5b634e487b7160e01b600052602160045260246000fd5b634e487b7160e01b600052603260045260246000fd5b634e487b7160e01b600052604160045260246000fd5b6001600160a01b0381168114613dbb57600080fdfea2646970667358221220b4652a2916428168024815aa4ded4061b5f78198a704194f622c6c3cec6263e664736f6c63430008070033",
  "linkReferences": {},
  "deployedLinkReferences": {}
}