{
  "_format": "hh-sol-artifact-1",
  "contractName": "Insurance",
  "sourceName": "contracts/Insurance.sol",
  "abi": [
    {
      "inputs": [
        {
          "internalType": "address",
          "name": "oracle",
          "type": "address"
        },
        {
          "internalType": "address",
          "name": "linkMaticAddress",
          "type": "address"
        },
        {
          "internalType": "address",
          "name": "maticUsdAddress",
          "type": "address"
        },
        {
          "internalType": "uint64",
          "name": "subscriptionId",
          "type": "uint64"
        }
      ],
      "stateMutability": "nonpayable",
      "type": "constructor"
    },
    {
      "inputs": [],
      "name": "EmptyArgs",
      "type": "error"
    },
    {
      "inputs": [],
      "name": "EmptySource",
      "type": "error"
    },
    {
      "inputs": [],
      "name": "NoInlineSecrets",
      "type": "error"
    },
    {
      "inputs": [
        {
          "internalType": "address",
          "name": "have",
          "type": "address"
        },
        {
          "internalType": "address",
          "name": "want",
          "type": "address"
        }
      ],
      "name": "OnlyCoordinatorCanFulfill",
      "type": "error"
    },
    {
      "inputs": [],
      "name": "RequestIsAlreadyPending",
      "type": "error"
    },
    {
      "inputs": [],
      "name": "RequestIsNotPending",
      "type": "error"
    },
    {
      "inputs": [],
      "name": "SenderIsNotRegistry",
      "type": "error"
    },
    {
      "anonymous": false,
      "inputs": [
        {
          "indexed": false,
          "internalType": "string[]",
          "name": "args",
          "type": "string[]"
        }
      ],
      "name": "AdjustedArgs",
      "type": "event"
    },
    {
      "anonymous": false,
      "inputs": [
        {
          "indexed": true,
          "internalType": "bytes32",
          "name": "requestId",
          "type": "bytes32"
        }
      ],
      "name": "OCRRequest",
      "type": "event"
    },
    {
      "anonymous": false,
      "inputs": [
        {
          "indexed": true,
          "internalType": "bytes32",
          "name": "requestId",
          "type": "bytes32"
        },
        {
          "indexed": false,
          "internalType": "bytes",
          "name": "result",
          "type": "bytes"
        },
        {
          "indexed": false,
          "internalType": "bytes",
          "name": "err",
          "type": "bytes"
        }
      ],
      "name": "OCRResponse",
      "type": "event"
    },
    {
      "anonymous": false,
      "inputs": [
        {
          "indexed": true,
          "internalType": "address",
          "name": "from",
          "type": "address"
        },
        {
          "indexed": true,
          "internalType": "address",
          "name": "to",
          "type": "address"
        }
      ],
      "name": "OwnershipTransferRequested",
      "type": "event"
    },
    {
      "anonymous": false,
      "inputs": [
        {
          "indexed": true,
          "internalType": "address",
          "name": "from",
          "type": "address"
        },
        {
          "indexed": true,
          "internalType": "address",
          "name": "to",
          "type": "address"
        }
      ],
      "name": "OwnershipTransferred",
      "type": "event"
    },
    {
      "anonymous": false,
      "inputs": [
        {
          "indexed": false,
          "internalType": "address",
          "name": "policyOwner",
          "type": "address"
        },
        {
          "indexed": false,
          "internalType": "uint256",
          "name": "policyIndex",
          "type": "uint256"
        },
        {
          "indexed": false,
          "internalType": "uint256",
          "name": "cost",
          "type": "uint256"
        }
      ],
      "name": "PolicyCreated",
      "type": "event"
    },
    {
      "anonymous": false,
      "inputs": [
        {
          "indexed": false,
          "internalType": "address",
          "name": "policyOwner",
          "type": "address"
        },
        {
          "indexed": false,
          "internalType": "uint256",
          "name": "policyIndex",
          "type": "uint256"
        }
      ],
      "name": "PolicyEnded",
      "type": "event"
    },
    {
      "anonymous": false,
      "inputs": [
        {
          "indexed": false,
          "internalType": "address",
          "name": "policyOwner",
          "type": "address"
        },
        {
          "indexed": false,
          "internalType": "uint256",
          "name": "policyIndex",
          "type": "uint256"
        }
      ],
      "name": "PolicyStarted",
      "type": "event"
    },
    {
      "anonymous": false,
      "inputs": [
        {
          "indexed": false,
          "internalType": "uint256",
          "name": "requestId",
          "type": "uint256"
        },
        {
          "indexed": false,
          "internalType": "uint256[]",
          "name": "randomWords",
          "type": "uint256[]"
        }
      ],
      "name": "RequestFulfilled",
      "type": "event"
    },
    {
      "anonymous": false,
      "inputs": [
        {
          "indexed": true,
          "internalType": "bytes32",
          "name": "id",
          "type": "bytes32"
        }
      ],
      "name": "RequestFulfilled",
      "type": "event"
    },
    {
      "anonymous": false,
      "inputs": [
        {
          "indexed": false,
          "internalType": "uint256",
          "name": "requestId",
          "type": "uint256"
        },
        {
          "indexed": false,
          "internalType": "uint32",
          "name": "numWords",
          "type": "uint32"
        }
      ],
      "name": "RequestSent",
      "type": "event"
    },
    {
      "anonymous": false,
      "inputs": [
        {
          "indexed": true,
          "internalType": "bytes32",
          "name": "id",
          "type": "bytes32"
        }
      ],
      "name": "RequestSent",
      "type": "event"
    },
    {
      "anonymous": false,
      "inputs": [
        {
          "indexed": false,
          "internalType": "address",
          "name": "userAddress",
          "type": "address"
        },
        {
          "indexed": false,
          "internalType": "uint256",
          "name": "payoutAmountInMatic",
          "type": "uint256"
        }
      ],
      "name": "UserPaid",
      "type": "event"
    },
    {
      "inputs": [],
      "name": "acceptOwnership",
      "outputs": [],
      "stateMutability": "nonpayable",
      "type": "function"
    },
    {
      "inputs": [
        {
          "internalType": "address",
          "name": "oracleAddress",
          "type": "address"
        },
        {
          "internalType": "bytes32",
          "name": "requestId",
          "type": "bytes32"
        }
      ],
      "name": "addSimulatedRequestId",
      "outputs": [],
      "stateMutability": "nonpayable",
      "type": "function"
    },
    {
      "inputs": [],
      "name": "boolInsuranceData",
      "outputs": [
        {
          "internalType": "bool",
          "name": "",
          "type": "bool"
        }
      ],
      "stateMutability": "view",
      "type": "function"
    },
    {
      "inputs": [
        {
          "internalType": "bytes",
          "name": "input",
          "type": "bytes"
        }
      ],
      "name": "bytesToUint256",
      "outputs": [
        {
          "internalType": "uint256",
          "name": "result",
          "type": "uint256"
        }
      ],
      "stateMutability": "pure",
      "type": "function"
    },
    {
      "inputs": [],
      "name": "checkPayoutContract",
      "outputs": [
        {
          "internalType": "address",
          "name": "",
          "type": "address"
        }
      ],
      "stateMutability": "view",
      "type": "function"
    },
    {
      "inputs": [],
      "name": "constructionTime",
      "outputs": [
        {
          "internalType": "uint256",
          "name": "",
          "type": "uint256"
        }
      ],
      "stateMutability": "view",
      "type": "function"
    },
    {
      "inputs": [],
      "name": "currentTime",
      "outputs": [
        {
          "internalType": "uint256",
          "name": "",
          "type": "uint256"
        }
      ],
      "stateMutability": "view",
      "type": "function"
    },
    {
      "inputs": [
        {
          "internalType": "address",
          "name": "policyOwner",
          "type": "address"
        },
        {
          "internalType": "uint256",
          "name": "policyIndex",
          "type": "uint256"
        }
      ],
      "name": "endPolicy",
      "outputs": [],
      "stateMutability": "nonpayable",
      "type": "function"
    },
    {
      "inputs": [
        {
          "components": [
            {
              "internalType": "enum Functions.Location",
              "name": "codeLocation",
              "type": "uint8"
            },
            {
              "internalType": "enum Functions.Location",
              "name": "secretsLocation",
              "type": "uint8"
            },
            {
              "internalType": "enum Functions.CodeLanguage",
              "name": "language",
              "type": "uint8"
            },
            {
              "internalType": "string",
              "name": "source",
              "type": "string"
            },
            {
              "internalType": "bytes",
              "name": "secrets",
              "type": "bytes"
            },
            {
              "internalType": "string[]",
              "name": "args",
              "type": "string[]"
            }
          ],
          "internalType": "struct Functions.Request",
          "name": "req",
          "type": "tuple"
        },
        {
          "internalType": "uint64",
          "name": "subscriptionId",
          "type": "uint64"
        },
        {
          "internalType": "uint32",
          "name": "gasLimit",
          "type": "uint32"
        },
        {
          "internalType": "uint256",
          "name": "gasPrice",
          "type": "uint256"
        }
      ],
      "name": "estimateCost",
      "outputs": [
        {
          "internalType": "uint96",
          "name": "",
          "type": "uint96"
        }
      ],
      "stateMutability": "view",
      "type": "function"
    },
    {
      "inputs": [
        {
          "internalType": "string[]",
          "name": "args",
          "type": "string[]"
        },
        {
          "internalType": "uint64",
          "name": "subscriptionId",
          "type": "uint64"
        },
        {
          "internalType": "uint32",
          "name": "gasLimit",
          "type": "uint32"
        }
      ],
      "name": "estimateInsurance",
      "outputs": [
        {
          "internalType": "bytes32",
          "name": "",
          "type": "bytes32"
        }
      ],
      "stateMutability": "payable",
      "type": "function"
    },
    {
      "inputs": [
        {
          "internalType": "address",
          "name": "user",
          "type": "address"
        }
      ],
      "name": "getAllUserPolicies",
      "outputs": [
        {
          "components": [
            {
              "internalType": "string",
              "name": "latNe",
              "type": "string"
            },
            {
              "internalType": "string",
              "name": "longNe",
              "type": "string"
            },
            {
              "internalType": "string",
              "name": "latSe",
              "type": "string"
            },
            {
              "internalType": "string",
              "name": "longSe",
              "type": "string"
            },
            {
              "internalType": "string",
              "name": "latSw",
              "type": "string"
            },
            {
              "internalType": "string",
              "name": "longSw",
              "type": "string"
            },
            {
              "internalType": "string",
              "name": "latNw",
              "type": "string"
            },
            {
              "internalType": "string",
              "name": "longNw",
              "type": "string"
            },
            {
              "internalType": "string",
              "name": "configParam",
              "type": "string"
            },
            {
              "internalType": "string",
              "name": "startTime",
              "type": "string"
            },
            {
              "internalType": "string",
              "name": "endTime",
              "type": "string"
            },
            {
              "internalType": "string",
              "name": "policyCreationTime",
              "type": "string"
            }
          ],
          "internalType": "struct Insurance.InsuranceData[]",
          "name": "",
          "type": "tuple[]"
        }
      ],
      "stateMutability": "view",
      "type": "function"
    },
    {
      "inputs": [],
      "name": "getCurrentTime",
      "outputs": [
        {
          "internalType": "uint256",
          "name": "",
          "type": "uint256"
        }
      ],
      "stateMutability": "view",
      "type": "function"
    },
    {
      "inputs": [],
      "name": "getDONPublicKey",
      "outputs": [
        {
          "internalType": "bytes",
          "name": "",
          "type": "bytes"
        }
      ],
      "stateMutability": "view",
      "type": "function"
    },
    {
      "inputs": [
        {
          "internalType": "bytes32",
          "name": "requestId",
          "type": "bytes32"
        }
      ],
      "name": "getInsuranceQuoteData",
      "outputs": [
        {
          "components": [
            {
              "internalType": "address",
              "name": "user",
              "type": "address"
            },
            {
              "internalType": "uint256",
              "name": "policyIndex",
              "type": "uint256"
            },
            {
              "internalType": "uint256",
              "name": "cost",
              "type": "uint256"
            }
          ],
          "internalType": "struct Insurance.InsuranceQuoteData",
          "name": "",
          "type": "tuple"
        }
      ],
      "stateMutability": "view",
      "type": "function"
    },
    {
      "inputs": [],
      "name": "getLastRandomWord",
      "outputs": [
        {
          "internalType": "uint256",
          "name": "",
          "type": "uint256"
        }
      ],
      "stateMutability": "view",
      "type": "function"
    },
    {
      "inputs": [
        {
          "internalType": "address",
          "name": "user",
          "type": "address"
        },
        {
          "internalType": "uint256",
          "name": "policyIndex",
          "type": "uint256"
        }
      ],
      "name": "getPolicyData",
      "outputs": [
        {
          "components": [
            {
              "internalType": "string",
              "name": "latNe",
              "type": "string"
            },
            {
              "internalType": "string",
              "name": "longNe",
              "type": "string"
            },
            {
              "internalType": "string",
              "name": "latSe",
              "type": "string"
            },
            {
              "internalType": "string",
              "name": "longSe",
              "type": "string"
            },
            {
              "internalType": "string",
              "name": "latSw",
              "type": "string"
            },
            {
              "internalType": "string",
              "name": "longSw",
              "type": "string"
            },
            {
              "internalType": "string",
              "name": "latNw",
              "type": "string"
            },
            {
              "internalType": "string",
              "name": "longNw",
              "type": "string"
            },
            {
              "internalType": "string",
              "name": "configParam",
              "type": "string"
            },
            {
              "internalType": "string",
              "name": "startTime",
              "type": "string"
            },
            {
              "internalType": "string",
              "name": "endTime",
              "type": "string"
            },
            {
              "internalType": "string",
              "name": "policyCreationTime",
              "type": "string"
            }
          ],
          "internalType": "struct Insurance.InsuranceData",
          "name": "",
          "type": "tuple"
        }
      ],
      "stateMutability": "view",
      "type": "function"
    },
    {
      "inputs": [
        {
          "internalType": "address",
          "name": "_address",
          "type": "address"
        },
        {
          "internalType": "uint256",
          "name": "_policyIndex",
          "type": "uint256"
        }
      ],
      "name": "getPolicyRequestId",
      "outputs": [
        {
          "internalType": "bytes32",
          "name": "",
          "type": "bytes32"
        }
      ],
      "stateMutability": "view",
      "type": "function"
    },
    {
      "inputs": [],
      "name": "getPriceLinkMatic",
      "outputs": [
        {
          "internalType": "int256",
          "name": "",
          "type": "int256"
        }
      ],
      "stateMutability": "view",
      "type": "function"
    },
    {
      "inputs": [],
      "name": "getPriceMaticUsd",
      "outputs": [
        {
          "internalType": "int256",
          "name": "",
          "type": "int256"
        }
      ],
      "stateMutability": "view",
      "type": "function"
    },
    {
      "inputs": [
        {
          "internalType": "uint256",
          "name": "_requestId",
          "type": "uint256"
        }
      ],
      "name": "getRequestStatus",
      "outputs": [
        {
          "internalType": "bool",
          "name": "fulfilled",
          "type": "bool"
        },
        {
          "internalType": "uint256[]",
          "name": "randomWords",
          "type": "uint256[]"
        }
      ],
      "stateMutability": "view",
      "type": "function"
    },
    {
      "inputs": [],
      "name": "getSourceCode",
      "outputs": [
        {
          "internalType": "string",
          "name": "",
          "type": "string"
        }
      ],
      "stateMutability": "view",
      "type": "function"
    },
    {
      "inputs": [
        {
          "internalType": "bytes32",
          "name": "requestId",
          "type": "bytes32"
        },
        {
          "internalType": "bytes",
          "name": "response",
          "type": "bytes"
        },
        {
          "internalType": "bytes",
          "name": "err",
          "type": "bytes"
        }
      ],
      "name": "handleOracleFulfillment",
      "outputs": [],
      "stateMutability": "nonpayable",
      "type": "function"
    },
    {
      "inputs": [],
      "name": "helloWorld",
      "outputs": [
        {
          "internalType": "string",
          "name": "",
          "type": "string"
        }
      ],
      "stateMutability": "view",
      "type": "function"
    },
    {
      "inputs": [
        {
          "internalType": "address",
          "name": "",
          "type": "address"
        },
        {
          "internalType": "uint256",
          "name": "",
          "type": "uint256"
        }
      ],
      "name": "insurancePoliciesMapping",
      "outputs": [
        {
          "internalType": "string",
          "name": "latNe",
          "type": "string"
        },
        {
          "internalType": "string",
          "name": "longNe",
          "type": "string"
        },
        {
          "internalType": "string",
          "name": "latSe",
          "type": "string"
        },
        {
          "internalType": "string",
          "name": "longSe",
          "type": "string"
        },
        {
          "internalType": "string",
          "name": "latSw",
          "type": "string"
        },
        {
          "internalType": "string",
          "name": "longSw",
          "type": "string"
        },
        {
          "internalType": "string",
          "name": "latNw",
          "type": "string"
        },
        {
          "internalType": "string",
          "name": "longNw",
          "type": "string"
        },
        {
          "internalType": "string",
          "name": "configParam",
          "type": "string"
        },
        {
          "internalType": "string",
          "name": "startTime",
          "type": "string"
        },
        {
          "internalType": "string",
          "name": "endTime",
          "type": "string"
        },
        {
          "internalType": "string",
          "name": "policyCreationTime",
          "type": "string"
        }
      ],
      "stateMutability": "view",
      "type": "function"
    },
    {
      "inputs": [
        {
          "internalType": "bytes32",
          "name": "",
          "type": "bytes32"
        }
      ],
      "name": "insuranceQuoteData",
      "outputs": [
        {
          "internalType": "address",
          "name": "user",
          "type": "address"
        },
        {
          "internalType": "uint256",
          "name": "policyIndex",
          "type": "uint256"
        },
        {
          "internalType": "uint256",
          "name": "cost",
          "type": "uint256"
        }
      ],
      "stateMutability": "view",
      "type": "function"
    },
    {
      "inputs": [],
      "name": "lastRequestId",
      "outputs": [
        {
          "internalType": "uint256",
          "name": "",
          "type": "uint256"
        }
      ],
      "stateMutability": "view",
      "type": "function"
    },
    {
      "inputs": [],
      "name": "latestError",
      "outputs": [
        {
          "internalType": "bytes",
          "name": "",
          "type": "bytes"
        }
      ],
      "stateMutability": "view",
      "type": "function"
    },
    {
      "inputs": [],
      "name": "latestRequestId",
      "outputs": [
        {
          "internalType": "bytes32",
          "name": "",
          "type": "bytes32"
        }
      ],
      "stateMutability": "view",
      "type": "function"
    },
    {
      "inputs": [],
      "name": "latestResponse",
      "outputs": [
        {
          "internalType": "bytes",
          "name": "",
          "type": "bytes"
        }
      ],
      "stateMutability": "view",
      "type": "function"
    },
    {
      "inputs": [],
      "name": "linkMaticPriceFeed",
      "outputs": [
        {
          "internalType": "contract LinkMaticPriceFeed",
          "name": "",
          "type": "address"
        }
      ],
      "stateMutability": "view",
      "type": "function"
    },
    {
      "inputs": [],
      "name": "maticUsdPriceFeed",
      "outputs": [
        {
          "internalType": "contract MaticUsdPriceFeed",
          "name": "",
          "type": "address"
        }
      ],
      "stateMutability": "view",
      "type": "function"
    },
    {
      "inputs": [],
      "name": "owner",
      "outputs": [
        {
          "internalType": "address",
          "name": "",
          "type": "address"
        }
      ],
      "stateMutability": "view",
      "type": "function"
    },
    {
      "inputs": [
        {
          "internalType": "address payable",
          "name": "userAddress",
          "type": "address"
        },
        {
          "internalType": "uint256",
          "name": "payoutAmount",
          "type": "uint256"
        }
      ],
      "name": "payUser",
      "outputs": [],
      "stateMutability": "nonpayable",
      "type": "function"
    },
    {
      "inputs": [
        {
          "internalType": "address",
          "name": "",
          "type": "address"
        },
        {
          "internalType": "uint256",
          "name": "",
          "type": "uint256"
        }
      ],
      "name": "policyRequestIdMapping",
      "outputs": [
        {
          "internalType": "bytes32",
          "name": "",
          "type": "bytes32"
        }
      ],
      "stateMutability": "view",
      "type": "function"
    },
    {
      "inputs": [
        {
          "internalType": "address",
          "name": "",
          "type": "address"
        },
        {
          "internalType": "uint256",
          "name": "",
          "type": "uint256"
        }
      ],
      "name": "policyStatus",
      "outputs": [
        {
          "internalType": "enum Insurance.PolicyStatus",
          "name": "",
          "type": "uint8"
        }
      ],
      "stateMutability": "view",
      "type": "function"
    },
    {
      "inputs": [
        {
          "internalType": "uint256",
          "name": "",
          "type": "uint256"
        }
      ],
      "name": "randomnessRequesterAddress",
      "outputs": [
        {
          "internalType": "address",
          "name": "",
          "type": "address"
        }
      ],
      "stateMutability": "view",
      "type": "function"
    },
    {
      "inputs": [
        {
          "internalType": "uint256",
          "name": "requestId",
          "type": "uint256"
        },
        {
          "internalType": "uint256[]",
          "name": "randomWords",
          "type": "uint256[]"
        }
      ],
      "name": "rawFulfillRandomWords",
      "outputs": [],
      "stateMutability": "nonpayable",
      "type": "function"
    },
    {
      "inputs": [
        {
          "internalType": "uint256",
          "name": "",
          "type": "uint256"
        }
      ],
      "name": "requestIds",
      "outputs": [
        {
          "internalType": "uint256",
          "name": "",
          "type": "uint256"
        }
      ],
      "stateMutability": "view",
      "type": "function"
    },
    {
      "inputs": [],
      "name": "requestRandomWords",
      "outputs": [
        {
          "internalType": "uint256",
          "name": "requestId",
          "type": "uint256"
        }
      ],
      "stateMutability": "nonpayable",
      "type": "function"
    },
    {
      "inputs": [
        {
          "internalType": "uint256",
          "name": "",
          "type": "uint256"
        }
      ],
      "name": "s_requests",
      "outputs": [
        {
          "internalType": "bool",
          "name": "fulfilled",
          "type": "bool"
        },
        {
          "internalType": "bool",
          "name": "exists",
          "type": "bool"
        }
      ],
      "stateMutability": "view",
      "type": "function"
    },
    {
      "inputs": [
        {
          "internalType": "address",
          "name": "_checkPayoutContract",
          "type": "address"
        }
      ],
      "name": "setCheckPayoutContract",
      "outputs": [],
      "stateMutability": "nonpayable",
      "type": "function"
    },
    {
      "inputs": [
        {
          "internalType": "string",
          "name": "_sourceCode",
          "type": "string"
        }
      ],
      "name": "setSourceCode",
      "outputs": [],
      "stateMutability": "nonpayable",
      "type": "function"
    },
    {
      "inputs": [],
      "name": "sourceCode",
      "outputs": [
        {
          "internalType": "string",
          "name": "",
          "type": "string"
        }
      ],
      "stateMutability": "view",
      "type": "function"
    },
    {
      "inputs": [
        {
          "internalType": "bytes32",
          "name": "requestId",
          "type": "bytes32"
        }
      ],
      "name": "startPolicy",
      "outputs": [
        {
          "internalType": "uint256",
          "name": "",
          "type": "uint256"
        }
      ],
      "stateMutability": "payable",
      "type": "function"
    },
    {
      "inputs": [
        {
          "internalType": "address",
          "name": "to",
          "type": "address"
        }
      ],
      "name": "transferOwnership",
      "outputs": [],
      "stateMutability": "nonpayable",
      "type": "function"
    },
    {
      "inputs": [
        {
          "internalType": "address",
          "name": "oracle",
          "type": "address"
        }
      ],
      "name": "updateOracleAddress",
      "outputs": [],
      "stateMutability": "nonpayable",
      "type": "function"
    }
  ],
  "bytecode": "0x60a06040527f4b09e658ed251bcafeebbc69400383d49f344ace09b9576fe248bb02c003fe9f600a55600b80546001600160501b03191666010003000493e0179055426010553480156200005257600080fd5b5060405162005e7138038062005e718339810160408190526200007591620002a5565b600080546001600160a01b0319166001600160a01b0386161781557f7a1bac17ccc5b313516c5e16fb24f7659aa5ebed00000000000000000000000060805233908190816200010b5760405162461bcd60e51b815260206004820152601860248201527f43616e6e6f7420736574206f776e657220746f207a65726f000000000000000060448201526064015b60405180910390fd5b600280546001600160a01b0319166001600160a01b03848116919091179091558116156200013e576200013e81620001db565b5050600b80546001600160a01b039586166a010000000000000000000002600160501b600160f01b031990911617905550600c8054929093166001600160a01b031992831617909255600780546001600160401b03909316600160a01b026001600160e01b031990931692909217737a1bac17ccc5b313516c5e16fb24f7659aa5ebed179091554260065560058054909116331790555062000310565b6001600160a01b038116331415620002365760405162461bcd60e51b815260206004820152601760248201527f43616e6e6f74207472616e7366657220746f2073656c66000000000000000000604482015260640162000102565b600380546001600160a01b0319166001600160a01b03838116918217909255600254604051919216907fed8889f560326eb138920d842192f0eb3dd22b4f139c87a2c57538e05bae127890600090a350565b80516001600160a01b0381168114620002a057600080fd5b919050565b60008060008060808587031215620002bc57600080fd5b620002c78562000288565b9350620002d76020860162000288565b9250620002e76040860162000288565b60608601519092506001600160401b03811681146200030557600080fd5b939692955090935050565b60805160601c615b3b6200033660003960008181611e710152611ecc0152615b3b6000f3fe6080604052600436106102fc5760003560e01c8063b1011dbd1161018f578063d8a4676f116100e1578063f06c56101161008a578063f7023bb611610064578063f7023bb6146109aa578063fc2a88c3146109ca578063fffeb84e146109e057600080fd5b8063f06c56101461092c578063f11da55b14610942578063f2fde38b1461098a57600080fd5b8063e3928b7f116100bb578063e3928b7f146108c9578063e5c33f30146108de578063ecd831e81461090c57600080fd5b8063d8a4676f1461084e578063e0c862891461087c578063e0e2fa9a1461089157600080fd5b8063c0303c3711610143578063d18e81b31161011d578063d18e81b3146107e6578063d328a91e146107fc578063d4b391751461081157600080fd5b8063c0303c371461075e578063c605f76c1461077e578063cc9de25d146107c457600080fd5b8063b91ce20511610174578063b91ce20514610714578063bc58d68c14610729578063bef3a2f01461074957600080fd5b8063b1011dbd14610671578063b655cd9b146106dc57600080fd5b806330bda99d116102535780636ec7be7e116101fc5780638796ba8c116101d65780638796ba8c146105e35780638da5cb5b14610603578063a168fa891461062157600080fd5b80636ec7be7e1461055e57806379ba5097146105a157806380858026146105b657600080fd5b8063698cd3ad1161022d578063698cd3ad1461050957806369f8eaed1461051e5780636c6f99901461053e57600080fd5b806330bda99d1461046e5780635ec7baca1461048e57806361875d8d146104dc57600080fd5b806313c60177116102b55780631fe543e31161028f5780631fe543e3146103ee578063215fc6251461040e57806329cb924d1461045957600080fd5b806313c60177146103a35780631aa1a081146103c55780631aa46f59146103d857600080fd5b806305f411d6116102e657806305f411d61461034d5780630b50567f146103705780630ca761751461038357600080fd5b8062b467671461030157806304b2303c14610323575b600080fd5b34801561030d57600080fd5b5061032161031c3660046150ec565b6109f5565b005b34801561032f57600080fd5b50610338610a14565b60405190151581526020015b60405180910390f35b34801561035957600080fd5b5061036261123d565b604051908152602001610344565b61036261037e36600461504d565b6112ca565b34801561038f57600080fd5b5061032161039e36600461507f565b611471565b3480156103af57600080fd5b506103b8611517565b60405161034491906155a4565b6103626103d3366004614fb8565b6115a5565b3480156103e457600080fd5b50610362600d5481565b3480156103fa57600080fd5b506103216104093660046152a9565b611e66565b34801561041a57600080fd5b5061042e61042936600461504d565b611f03565b6040805182516001600160a01b03168152602080840151908201529181015190820152606001610344565b34801561046557600080fd5b50601054610362565b34801561047a57600080fd5b50610321610489366004614f8c565b611ffc565b34801561049a57600080fd5b506104c46104a936600461504d565b6015602052600090815260409020546001600160a01b031681565b6040516001600160a01b039091168152602001610344565b3480156104e857600080fd5b506104fc6104f7366004614f8c565b61200e565b604051610344919061570a565b34801561051557600080fd5b506103b8612797565b34801561052a57600080fd5b50610321610539366004614f52565b612829565b34801561054a57600080fd5b50600c546104c4906001600160a01b031681565b34801561056a57600080fd5b50610362610579366004614f8c565b6001600160a01b03919091166000908152601160209081526040808320938352929052205490565b3480156105ad57600080fd5b50610321612853565b3480156105c257600080fd5b506105d66105d1366004614f52565b612908565b6040516103449190615527565b3480156105ef57600080fd5b506103626105fe36600461504d565b613056565b34801561060f57600080fd5b506002546001600160a01b03166104c4565b34801561062d57600080fd5b5061065a61063c36600461504d565b60166020526000908152604090205460ff8082169161010090041682565b604080519215158352901515602083015201610344565b34801561067d57600080fd5b506106b761068c36600461504d565b6013602052600090815260409020805460018201546002909201546001600160a01b03909116919083565b604080516001600160a01b039094168452602084019290925290820152606001610344565b3480156106e857600080fd5b506106fc6106f7366004614f8c565b613077565b6040516103449c9b9a99989796959493929190615604565b34801561072057600080fd5b50610362613754565b34801561073557600080fd5b50610321610744366004614f8c565b613816565b34801561075557600080fd5b506103b86138e8565b34801561076a57600080fd5b506005546104c4906001600160a01b031681565b34801561078a57600080fd5b5060408051808201909152600c81527f48656c6c6f20576f726c6421000000000000000000000000000000000000000060208201526103b8565b3480156107d057600080fd5b506103626107df3660046150ec565b6020015190565b3480156107f257600080fd5b5061036260105481565b34801561080857600080fd5b506103b86138f5565b34801561081d57600080fd5b5061083161082c366004615197565b61398e565b6040516bffffffffffffffffffffffff9091168152602001610344565b34801561085a57600080fd5b5061086e61086936600461504d565b613a24565b604051610344929190615589565b34801561088857600080fd5b50610362613b24565b34801561089d57600080fd5b506103626108ac366004614f8c565b601160209081526000928352604080842090915290825290205481565b3480156108d557600080fd5b50610362613d41565b3480156108ea57600080fd5b50600b546104c4906a010000000000000000000090046001600160a01b031681565b34801561091857600080fd5b50610321610927366004614f8c565b613d9f565b34801561093857600080fd5b5061036260065481565b34801561094e57600080fd5b5061097d61095d366004614f8c565b601260209081526000928352604080842090915290825290205460ff1681565b60405161034491906155dc565b34801561099657600080fd5b506103216109a5366004614f52565b613eb1565b3480156109b657600080fd5b506103216109c5366004614f52565b613ec5565b3480156109d657600080fd5b5061036260095481565b3480156109ec57600080fd5b506103b8613eeb565b6109fd613ef8565b8051610a10906004906020840190614d13565b5050565b3360009081526014602052604081208054610a765760405162461bcd60e51b815260206004820152601760248201527f4e6f20696e737572616e6365206461746120666f756e6400000000000000000060448201526064015b60405180910390fd5b60005b8154811015611234576000828281548110610a9657610a96615ac4565b90600052602060002090600c020160405180610180016040529081600082018054610ac090615a18565b80601f0160208091040260200160405190810160405280929190818152602001828054610aec90615a18565b8015610b395780601f10610b0e57610100808354040283529160200191610b39565b820191906000526020600020905b815481529060010190602001808311610b1c57829003601f168201915b50505050508152602001600182018054610b5290615a18565b80601f0160208091040260200160405190810160405280929190818152602001828054610b7e90615a18565b8015610bcb5780601f10610ba057610100808354040283529160200191610bcb565b820191906000526020600020905b815481529060010190602001808311610bae57829003601f168201915b50505050508152602001600282018054610be490615a18565b80601f0160208091040260200160405190810160405280929190818152602001828054610c1090615a18565b8015610c5d5780601f10610c3257610100808354040283529160200191610c5d565b820191906000526020600020905b815481529060010190602001808311610c4057829003601f168201915b50505050508152602001600382018054610c7690615a18565b80601f0160208091040260200160405190810160405280929190818152602001828054610ca290615a18565b8015610cef5780601f10610cc457610100808354040283529160200191610cef565b820191906000526020600020905b815481529060010190602001808311610cd257829003601f168201915b50505050508152602001600482018054610d0890615a18565b80601f0160208091040260200160405190810160405280929190818152602001828054610d3490615a18565b8015610d815780601f10610d5657610100808354040283529160200191610d81565b820191906000526020600020905b815481529060010190602001808311610d6457829003601f168201915b50505050508152602001600582018054610d9a90615a18565b80601f0160208091040260200160405190810160405280929190818152602001828054610dc690615a18565b8015610e135780601f10610de857610100808354040283529160200191610e13565b820191906000526020600020905b815481529060010190602001808311610df657829003601f168201915b50505050508152602001600682018054610e2c90615a18565b80601f0160208091040260200160405190810160405280929190818152602001828054610e5890615a18565b8015610ea55780601f10610e7a57610100808354040283529160200191610ea5565b820191906000526020600020905b815481529060010190602001808311610e8857829003601f168201915b50505050508152602001600782018054610ebe90615a18565b80601f0160208091040260200160405190810160405280929190818152602001828054610eea90615a18565b8015610f375780601f10610f0c57610100808354040283529160200191610f37565b820191906000526020600020905b815481529060010190602001808311610f1a57829003601f168201915b50505050508152602001600882018054610f5090615a18565b80601f0160208091040260200160405190810160405280929190818152602001828054610f7c90615a18565b8015610fc95780601f10610f9e57610100808354040283529160200191610fc9565b820191906000526020600020905b815481529060010190602001808311610fac57829003601f168201915b50505050508152602001600982018054610fe290615a18565b80601f016020809104026020016040519081016040528092919081815260200182805461100e90615a18565b801561105b5780601f106110305761010080835404028352916020019161105b565b820191906000526020600020905b81548152906001019060200180831161103e57829003601f168201915b50505050508152602001600a8201805461107490615a18565b80601f01602080910402602001604051908101604052809291908181526020018280546110a090615a18565b80156110ed5780601f106110c2576101008083540402835291602001916110ed565b820191906000526020600020905b8154815290600101906020018083116110d057829003601f168201915b50505050508152602001600b8201805461110690615a18565b80601f016020809104026020016040519081016040528092919081815260200182805461113290615a18565b801561117f5780601f106111545761010080835404028352916020019161117f565b820191906000526020600020905b81548152906001019060200180831161116257829003601f168201915b50505050508152505090508060c00151516000141580156111a4575060e08101515115155b80156111b1575080515115155b80156111c1575060208101515115155b80156111d1575060408101515115155b80156111e1575060608101515115155b80156111f1575060808101515115155b8015611201575060a08101515115155b801561121257506101008101515115155b15611221576001935050505090565b508061122c81615a53565b915050610a79565b50600091505090565b6000600b600a9054906101000a90046001600160a01b03166001600160a01b0316638e15f4736040518163ffffffff1660e01b815260040160206040518083038186803b15801561128d57600080fd5b505afa1580156112a1573d6000803e3d6000fd5b505050506040513d601f19601f820116820180604052508101906112c59190615066565b905090565b600081815260136020908152604080832060028101546001820154338652601490945291842080549193918591908390811061130857611308615ac4565b6000918252602080832033845260128252604080852087865290925290832054600c9290920201925060ff16600281111561134557611345615aae565b146113925760405162461bcd60e51b815260206004820152601560248201527f506f6c696379206973206e6f742070656e64696e6700000000000000000000006044820152606401610a6d565b600061139c613d41565b90506000816113af866305f5e1006159b6565b6113b991906158b7565b90508034101561140b5760405162461bcd60e51b815260206004820152601560248201527f4e6f7420656e6f756768204d617469632073656e7400000000000000000000006044820152606401610a6d565b336000818152601260209081526040808320888452825291829020805460ff19166001179055815192835282018690527f153598a6c97963bd4d16e97786943eb68bcc8ca58077614327e965efe69fa110910160405180910390a1505050505050919050565b60008381526001602052604090205483906001600160a01b031633146114c3576040517fa0c5ec6300000000000000000000000000000000000000000000000000000000815260040160405180910390fd5b60008181526001602052604080822080546001600160a01b03191690555182917f85e1543bf2f84fe80c6badbce3648c8539ad1df4d2b3d822938ca0538be727e691a2611511848484613f54565b50505050565b6004805461152490615a18565b80601f016020809104026020016040519081016040528092919081815260200182805461155090615a18565b801561159d5780601f106115725761010080835404028352916020019161159d565b820191906000526020600020905b81548152906001019060200180831161158057829003601f168201915b505050505081565b6000600b84146115f75760405162461bcd60e51b815260206004820152601b60248201527f496e76616c6964206e756d626572206f6620617267756d656e747300000000006044820152606401610a6d565b3360009081526014602052604081209061161042614035565b9050816040518061018001604052808989600081811061163257611632615ac4565b905060200281019061164491906157ab565b8080601f0160208091040260200160405190810160405280939291908181526020018383808284376000920191909152505050908252506020018989600181811061169157611691615ac4565b90506020028101906116a391906157ab565b8080601f016020809104026020016040519081016040528093929190818152602001838380828437600092019190915250505090825250602001898960028181106116f0576116f0615ac4565b905060200281019061170291906157ab565b8080601f0160208091040260200160405190810160405280939291908181526020018383808284376000920191909152505050908252506020018989600381811061174f5761174f615ac4565b905060200281019061176191906157ab565b8080601f016020809104026020016040519081016040528093929190818152602001838380828437600092019190915250505090825250602001898960048181106117ae576117ae615ac4565b90506020028101906117c091906157ab565b8080601f0160208091040260200160405190810160405280939291908181526020018383808284376000920191909152505050908252506020018989600581811061180d5761180d615ac4565b905060200281019061181f91906157ab565b8080601f0160208091040260200160405190810160405280939291908181526020018383808284376000920191909152505050908252506020018989600681811061186c5761186c615ac4565b905060200281019061187e91906157ab565b8080601f016020809104026020016040519081016040528093929190818152602001838380828437600092019190915250505090825250602001898960078181106118cb576118cb615ac4565b90506020028101906118dd91906157ab565b8080601f0160208091040260200160405190810160405280939291908181526020018383808284376000920191909152505050908252506020018989600881811061192a5761192a615ac4565b905060200281019061193c91906157ab565b8080601f0160208091040260200160405190810160405280939291908181526020018383808284376000920191909152505050908252506020018989600981811061198957611989615ac4565b905060200281019061199b91906157ab565b8080601f0160208091040260200160405190810160405280939291908181526020018383808284376000920191909152505050908252506020018989600a8181106119e8576119e8615ac4565b90506020028101906119fa91906157ab565b8080601f016020809104026020016040519081016040528093929190818152602001838380828437600092018290525093855250505060209182018590528354600181018555938152819020825180519394600c0290910192611a609284920190614d13565b506020828101518051611a799260018501920190614d13565b5060408201518051611a95916002840191602090910190614d13565b5060608201518051611ab1916003840191602090910190614d13565b5060808201518051611acd916004840191602090910190614d13565b5060a08201518051611ae9916005840191602090910190614d13565b5060c08201518051611b05916006840191602090910190614d13565b5060e08201518051611b21916007840191602090910190614d13565b506101008201518051611b3e916008840191602090910190614d13565b506101208201518051611b5b916009840191602090910190614d13565b506101408201518051611b7891600a840191602090910190614d13565b506101608201518051611b9591600b840191602090910190614d13565b505033600090815260146020526040812054909150611bb6906001906159d5565b9050611bf26040805160c08101909152806000815260200160008152602001600081526020016060815260200160608152602001606081525090565b611c9460008060048054611c0590615a18565b80601f0160208091040260200160405190810160405280929190818152602001828054611c3190615a18565b8015611c7e5780601f10611c5357610100808354040283529160200191611c7e565b820191906000526020600020905b815481529060010190602001808311611c6157829003601f168201915b5050505050846140df909392919063ffffffff16565b6000611ca189600161589f565b67ffffffffffffffff811115611cb957611cb9615ada565b604051908082528060200260200182016040528015611cec57816020015b6060815260200190600190039081611cd75790505b50905060005b89811015611d84578a8a82818110611d0c57611d0c615ac4565b9050602002810190611d1e91906157ab565b8080601f0160208091040260200160405190810160405280939291908181526020018383808284376000920191909152505084518592508491508110611d6657611d66615ac4565b60200260200101819052508080611d7c90615a53565b915050611cf2565b5083818b8b905081518110611d9b57611d9b615ac4565b6020908102919091010152611db08282614173565b6000611dbd838a8a6141b3565b60408051606081018252338082526020808301898152600084860181815287825260138452868220955186546001600160a01b0319166001600160a01b03909116178655915160018601559051600290940193909355600d859055908252601181528282208883529052818120839055905191925082917f0790d5075e76350b19c3d15f0de9144077f6fb31397b526ce8664d7faf7dde6b9190a29a9950505050505050505050565b336001600160a01b037f00000000000000000000000000000000000000000000000000000000000000001614611ef9576040517f1cf993f40000000000000000000000000000000000000000000000000000000081523360048201526001600160a01b037f0000000000000000000000000000000000000000000000000000000000000000166024820152604401610a6d565b610a108282614325565b611f30604051806060016040528060006001600160a01b0316815260200160008152602001600081525090565b6000828152601360205260409020546001600160a01b0316611fba5760405162461bcd60e51b815260206004820152602560248201527f4e6f206461746120666f756e6420666f722074686520676976656e207265717560448201527f65737449640000000000000000000000000000000000000000000000000000006064820152608401610a6d565b50600090815260136020908152604091829020825160608101845281546001600160a01b03168152600182015492810192909252600201549181019190915290565b612004613ef8565b610a1082826143eb565b6120726040518061018001604052806060815260200160608152602001606081526020016060815260200160608152602001606081526020016060815260200160608152602001606081526020016060815260200160608152602001606081525090565b6001600160a01b038316600090815260146020526040902080548390811061209c5761209c615ac4565b90600052602060002090600c0201604051806101800160405290816000820180546120c690615a18565b80601f01602080910402602001604051908101604052809291908181526020018280546120f290615a18565b801561213f5780601f106121145761010080835404028352916020019161213f565b820191906000526020600020905b81548152906001019060200180831161212257829003601f168201915b5050505050815260200160018201805461215890615a18565b80601f016020809104026020016040519081016040528092919081815260200182805461218490615a18565b80156121d15780601f106121a6576101008083540402835291602001916121d1565b820191906000526020600020905b8154815290600101906020018083116121b457829003601f168201915b505050505081526020016002820180546121ea90615a18565b80601f016020809104026020016040519081016040528092919081815260200182805461221690615a18565b80156122635780601f1061223857610100808354040283529160200191612263565b820191906000526020600020905b81548152906001019060200180831161224657829003601f168201915b5050505050815260200160038201805461227c90615a18565b80601f01602080910402602001604051908101604052809291908181526020018280546122a890615a18565b80156122f55780601f106122ca576101008083540402835291602001916122f5565b820191906000526020600020905b8154815290600101906020018083116122d857829003601f168201915b5050505050815260200160048201805461230e90615a18565b80601f016020809104026020016040519081016040528092919081815260200182805461233a90615a18565b80156123875780601f1061235c57610100808354040283529160200191612387565b820191906000526020600020905b81548152906001019060200180831161236a57829003601f168201915b505050505081526020016005820180546123a090615a18565b80601f01602080910402602001604051908101604052809291908181526020018280546123cc90615a18565b80156124195780601f106123ee57610100808354040283529160200191612419565b820191906000526020600020905b8154815290600101906020018083116123fc57829003601f168201915b5050505050815260200160068201805461243290615a18565b80601f016020809104026020016040519081016040528092919081815260200182805461245e90615a18565b80156124ab5780601f10612480576101008083540402835291602001916124ab565b820191906000526020600020905b81548152906001019060200180831161248e57829003601f168201915b505050505081526020016007820180546124c490615a18565b80601f01602080910402602001604051908101604052809291908181526020018280546124f090615a18565b801561253d5780601f106125125761010080835404028352916020019161253d565b820191906000526020600020905b81548152906001019060200180831161252057829003601f168201915b5050505050815260200160088201805461255690615a18565b80601f016020809104026020016040519081016040528092919081815260200182805461258290615a18565b80156125cf5780601f106125a4576101008083540402835291602001916125cf565b820191906000526020600020905b8154815290600101906020018083116125b257829003601f168201915b505050505081526020016009820180546125e890615a18565b80601f016020809104026020016040519081016040528092919081815260200182805461261490615a18565b80156126615780601f1061263657610100808354040283529160200191612661565b820191906000526020600020905b81548152906001019060200180831161264457829003601f168201915b50505050508152602001600a8201805461267a90615a18565b80601f01602080910402602001604051908101604052809291908181526020018280546126a690615a18565b80156126f35780601f106126c8576101008083540402835291602001916126f3565b820191906000526020600020905b8154815290600101906020018083116126d657829003601f168201915b50505050508152602001600b8201805461270c90615a18565b80601f016020809104026020016040519081016040528092919081815260200182805461273890615a18565b80156127855780601f1061275a57610100808354040283529160200191612785565b820191906000526020600020905b81548152906001019060200180831161276857829003601f168201915b50505050508152505090505b92915050565b6060600480546127a690615a18565b80601f01602080910402602001604051908101604052809291908181526020018280546127d290615a18565b801561281f5780601f106127f45761010080835404028352916020019161281f565b820191906000526020600020905b81548152906001019060200180831161280257829003601f168201915b5050505050905090565b612831613ef8565b600580546001600160a01b0319166001600160a01b0392909216919091179055565b6003546001600160a01b031633146128ad5760405162461bcd60e51b815260206004820152601660248201527f4d7573742062652070726f706f736564206f776e6572000000000000000000006044820152606401610a6d565b600280546001600160a01b0319808216339081179093556003805490911690556040516001600160a01b03909116919082907f8be0079c531659141344cd1fd0a4f28419497f9722a3daafe3b4186f6b6457e090600090a350565b6001600160a01b0381166000908152601460209081526040808320805482518185028101850190935280835260609492939192909184015b8282101561304b57838290600052602060002090600c02016040518061018001604052908160008201805461297490615a18565b80601f01602080910402602001604051908101604052809291908181526020018280546129a090615a18565b80156129ed5780601f106129c2576101008083540402835291602001916129ed565b820191906000526020600020905b8154815290600101906020018083116129d057829003601f168201915b50505050508152602001600182018054612a0690615a18565b80601f0160208091040260200160405190810160405280929190818152602001828054612a3290615a18565b8015612a7f5780601f10612a5457610100808354040283529160200191612a7f565b820191906000526020600020905b815481529060010190602001808311612a6257829003601f168201915b50505050508152602001600282018054612a9890615a18565b80601f0160208091040260200160405190810160405280929190818152602001828054612ac490615a18565b8015612b115780601f10612ae657610100808354040283529160200191612b11565b820191906000526020600020905b815481529060010190602001808311612af457829003601f168201915b50505050508152602001600382018054612b2a90615a18565b80601f0160208091040260200160405190810160405280929190818152602001828054612b5690615a18565b8015612ba35780601f10612b7857610100808354040283529160200191612ba3565b820191906000526020600020905b815481529060010190602001808311612b8657829003601f168201915b50505050508152602001600482018054612bbc90615a18565b80601f0160208091040260200160405190810160405280929190818152602001828054612be890615a18565b8015612c355780601f10612c0a57610100808354040283529160200191612c35565b820191906000526020600020905b815481529060010190602001808311612c1857829003601f168201915b50505050508152602001600582018054612c4e90615a18565b80601f0160208091040260200160405190810160405280929190818152602001828054612c7a90615a18565b8015612cc75780601f10612c9c57610100808354040283529160200191612cc7565b820191906000526020600020905b815481529060010190602001808311612caa57829003601f168201915b50505050508152602001600682018054612ce090615a18565b80601f0160208091040260200160405190810160405280929190818152602001828054612d0c90615a18565b8015612d595780601f10612d2e57610100808354040283529160200191612d59565b820191906000526020600020905b815481529060010190602001808311612d3c57829003601f168201915b50505050508152602001600782018054612d7290615a18565b80601f0160208091040260200160405190810160405280929190818152602001828054612d9e90615a18565b8015612deb5780601f10612dc057610100808354040283529160200191612deb565b820191906000526020600020905b815481529060010190602001808311612dce57829003601f168201915b50505050508152602001600882018054612e0490615a18565b80601f0160208091040260200160405190810160405280929190818152602001828054612e3090615a18565b8015612e7d5780601f10612e5257610100808354040283529160200191612e7d565b820191906000526020600020905b815481529060010190602001808311612e6057829003601f168201915b50505050508152602001600982018054612e9690615a18565b80601f0160208091040260200160405190810160405280929190818152602001828054612ec290615a18565b8015612f0f5780601f10612ee457610100808354040283529160200191612f0f565b820191906000526020600020905b815481529060010190602001808311612ef257829003601f168201915b50505050508152602001600a82018054612f2890615a18565b80601f0160208091040260200160405190810160405280929190818152602001828054612f5490615a18565b8015612fa15780601f10612f7657610100808354040283529160200191612fa1565b820191906000526020600020905b815481529060010190602001808311612f8457829003601f168201915b50505050508152602001600b82018054612fba90615a18565b80601f0160208091040260200160405190810160405280929190818152602001828054612fe690615a18565b80156130335780601f1061300857610100808354040283529160200191613033565b820191906000526020600020905b81548152906001019060200180831161301657829003601f168201915b50505050508152505081526020019060010190612940565b505050509050919050565b6008818154811061306657600080fd5b600091825260209091200154905081565b6014602052816000526040600020818154811061309357600080fd5b90600052602060002090600c0201600091509150508060000180546130b790615a18565b80601f01602080910402602001604051908101604052809291908181526020018280546130e390615a18565b80156131305780601f1061310557610100808354040283529160200191613130565b820191906000526020600020905b81548152906001019060200180831161311357829003601f168201915b50505050509080600101805461314590615a18565b80601f016020809104026020016040519081016040528092919081815260200182805461317190615a18565b80156131be5780601f10613193576101008083540402835291602001916131be565b820191906000526020600020905b8154815290600101906020018083116131a157829003601f168201915b5050505050908060020180546131d390615a18565b80601f01602080910402602001604051908101604052809291908181526020018280546131ff90615a18565b801561324c5780601f106132215761010080835404028352916020019161324c565b820191906000526020600020905b81548152906001019060200180831161322f57829003601f168201915b50505050509080600301805461326190615a18565b80601f016020809104026020016040519081016040528092919081815260200182805461328d90615a18565b80156132da5780601f106132af576101008083540402835291602001916132da565b820191906000526020600020905b8154815290600101906020018083116132bd57829003601f168201915b5050505050908060040180546132ef90615a18565b80601f016020809104026020016040519081016040528092919081815260200182805461331b90615a18565b80156133685780601f1061333d57610100808354040283529160200191613368565b820191906000526020600020905b81548152906001019060200180831161334b57829003601f168201915b50505050509080600501805461337d90615a18565b80601f01602080910402602001604051908101604052809291908181526020018280546133a990615a18565b80156133f65780601f106133cb576101008083540402835291602001916133f6565b820191906000526020600020905b8154815290600101906020018083116133d957829003601f168201915b50505050509080600601805461340b90615a18565b80601f016020809104026020016040519081016040528092919081815260200182805461343790615a18565b80156134845780601f1061345957610100808354040283529160200191613484565b820191906000526020600020905b81548152906001019060200180831161346757829003601f168201915b50505050509080600701805461349990615a18565b80601f01602080910402602001604051908101604052809291908181526020018280546134c590615a18565b80156135125780601f106134e757610100808354040283529160200191613512565b820191906000526020600020905b8154815290600101906020018083116134f557829003601f168201915b50505050509080600801805461352790615a18565b80601f016020809104026020016040519081016040528092919081815260200182805461355390615a18565b80156135a05780601f10613575576101008083540402835291602001916135a0565b820191906000526020600020905b81548152906001019060200180831161358357829003601f168201915b5050505050908060090180546135b590615a18565b80601f01602080910402602001604051908101604052809291908181526020018280546135e190615a18565b801561362e5780601f106136035761010080835404028352916020019161362e565b820191906000526020600020905b81548152906001019060200180831161361157829003601f168201915b50505050509080600a01805461364390615a18565b80601f016020809104026020016040519081016040528092919081815260200182805461366f90615a18565b80156136bc5780601f10613691576101008083540402835291602001916136bc565b820191906000526020600020905b81548152906001019060200180831161369f57829003601f168201915b50505050509080600b0180546136d190615a18565b80601f01602080910402602001604051908101604052809291908181526020018280546136fd90615a18565b801561374a5780601f1061371f5761010080835404028352916020019161374a565b820191906000526020600020905b81548152906001019060200180831161372d57829003601f168201915b505050505090508c565b600954600090815260166020526040812054610100900460ff166137e05760405162461bcd60e51b815260206004820152602760248201527f4e6f2072616e646f6d20776f7264732068617665206265656e2067656e65726160448201527f74656420796574000000000000000000000000000000000000000000000000006064820152608401610a6d565b60095460009081526016602052604081206001018054829061380457613804615ac4565b60009182526020909120015492915050565b6005546001600160a01b0316331461387f5760405162461bcd60e51b815260206004820152602660248201527f43616c6c6572206973206e6f742074686520436865636b5061796f757420636f6044820152651b9d1c9858dd60d21b6064820152608401610a6d565b6001600160a01b0382166000818152601260209081526040808320858452825291829020805460ff19166002179055815192835282018390527f05e258a8da32249e7d7e1ebcd6b64f7c97c4235999db64b6687191b183d5e3f291015b60405180910390a15050565b600e805461152490615a18565b60008054604080517fd328a91e00000000000000000000000000000000000000000000000000000000815290516060936001600160a01b039093169263d328a91e9260048082019391829003018186803b15801561395257600080fd5b505afa158015613966573d6000803e3d6000fd5b505050506040513d6000823e601f3d908101601f191682016040526112c59190810190615129565b600080546001600160a01b031663d227d245856139aa8861446b565b86866040518563ffffffff1660e01b81526004016139cb949392919061576f565b60206040518083038186803b1580156139e357600080fd5b505afa1580156139f7573d6000803e3d6000fd5b505050506040513d601f19601f82011682018060405250810190613a1b919061534d565b95945050505050565b600081815260166020526040812054606090610100900460ff16613a8a5760405162461bcd60e51b815260206004820152601160248201527f72657175657374206e6f7420666f756e640000000000000000000000000000006044820152606401610a6d565b60008381526016602090815260408083208151606081018352815460ff8082161515835261010090910416151581850152600182018054845181870281018701865281815292959394860193830182828015613b0557602002820191906000526020600020905b815481526020019060010190808311613af1575b5050505050815250509050806000015181604001519250925050915091565b6000613b2e613ef8565b600754600a54600b546040517f5d3b1d30000000000000000000000000000000000000000000000000000000008152600481019290925274010000000000000000000000000000000000000000830467ffffffffffffffff166024830152640100000000810461ffff16604483015263ffffffff808216606484015266010000000000009091041660848201526001600160a01b0390911690635d3b1d309060a401602060405180830381600087803b158015613bea57600080fd5b505af1158015613bfe573d6000803e3d6000fd5b505050506040513d601f19601f82011682018060405250810190613c229190615066565b6040805160608101825260008082526001602080840182815285518481528083018752858701908152878552601683529590932084518154945161ffff1990951690151561ff00191617610100941515949094029390931783559351805195965092949193613c979391850192910190614d97565b505060088054600181019091557ff3f7a9fe364faab93b216da50a3214154f22a0a2b415b23a84c8169e8b636ee3018290555060098190556000818152601560209081526040918290208054336001600160a01b0319909116179055600b548251848152660100000000000090910463ffffffff16918101919091527fcc58b13ad3eab50626c6a6300b1d139cd6ebb1688a7cced9461c2f7e762665ee910160405180910390a190565b600c54604080517f8e15f47300000000000000000000000000000000000000000000000000000000815290516000926001600160a01b031691638e15f473916004808301926020929190829003018186803b15801561128d57600080fd5b6005546001600160a01b03163314613e085760405162461bcd60e51b815260206004820152602660248201527f43616c6c6572206973206e6f742074686520436865636b5061796f757420636f6044820152651b9d1c9858dd60d21b6064820152608401610a6d565b6000613e12613d41565b9050600081613e25846305f5e1006159b6565b613e2f91906158b7565b6040519091506001600160a01b0385169082156108fc029083906000818181858888f19350505050158015613e68573d6000803e3d6000fd5b50604080516001600160a01b0386168152602081018390527f188c4d19b4fadd1889d9bd9bf0ab7c97e0719434751e6c05feac6339c1c001ec910160405180910390a150505050565b613eb9613ef8565b613ec281614737565b50565b613ecd613ef8565b600080546001600160a01b0319166001600160a01b03831617905550565b600f805461152490615a18565b6002546001600160a01b03163314613f525760405162461bcd60e51b815260206004820152601660248201527f4f6e6c792063616c6c61626c65206279206f776e6572000000000000000000006044820152606401610a6d565b565b600083815260136020526040812090613f6e846020015190565b600283018190558451909150613f8b90600e906020870190614d13565b508251613f9f90600f906020860190614d13565b50847f7bab0ec163b5c132c72b8146ac4d6e067e82ed58f8b131150aa71c92589115628585604051613fd29291906155b7565b60405180910390a2815460018301546002840154604080516001600160a01b039094168452602084019290925282820152517f93aceb1c5e55aa194781a0423a101b97efa4a051e8d2fc2ba332ca75f4e4b6a79181900360600190a15050505050565b60606000614042836147e2565b600101905060008167ffffffffffffffff81111561406257614062615ada565b6040519080825280601f01601f19166020018201604052801561408c576020820181803683370190505b5090508181016020015b600019017f3031323334353637383961626364656600000000000000000000000000000000600a86061a8153600a85049450846140d2576140d7565b614096565b509392505050565b8051614117576040517f22ce3edd00000000000000000000000000000000000000000000000000000000815260040160405180910390fd5b8383600181111561412a5761412a615aae565b9081600181111561413d5761413d615aae565b9052506040840182801561415357614153615aae565b9081801561416357614163615aae565b9052506060909301929092525050565b80516141ab576040517ffe936cb700000000000000000000000000000000000000000000000000000000815260040160405180910390fd5b60a090910152565b6000805481906001600160a01b03166328242b04856141d18861446b565b866040518463ffffffff1660e01b81526004016141f093929190615736565b602060405180830381600087803b15801561420a57600080fd5b505af115801561421e573d6000803e3d6000fd5b505050506040513d601f19601f820116820180604052508101906142429190615066565b905060008054906101000a90046001600160a01b03166001600160a01b0316635ab1bd536040518163ffffffff1660e01b815260040160206040518083038186803b15801561429057600080fd5b505afa1580156142a4573d6000803e3d6000fd5b505050506040513d601f19601f820116820180604052508101906142c89190614f6f565b60008281526001602052604080822080546001600160a01b0319166001600160a01b039490941693909317909255905182917f1131472297a800fee664d1d89cfa8f7676ff07189ecc53f80bbb5f4969099db891a2949350505050565b600082815260166020526040902054610100900460ff166143885760405162461bcd60e51b815260206004820152601160248201527f72657175657374206e6f7420666f756e640000000000000000000000000000006044820152606401610a6d565b6000828152601660209081526040909120805460ff19166001908117825583516143b9939290910191840190614d97565b507ffe2e2d779dba245964d4e3ef9b994be63856fd568bf7d3ca9e224755cb1bd54d82826040516138dc92919061571d565b60008181526001602052604090205481906001600160a01b03161561443c576040517f8b457ad200000000000000000000000000000000000000000000000000000000815260040160405180910390fd5b50600090815260016020526040902080546001600160a01b0319166001600160a01b0392909216919091179055565b6060614475614dd1565b8051614483906101006148c4565b506144c3816040518060400160405280600c81526020017f636f64654c6f636174696f6e000000000000000000000000000000000000000081525061493b565b6144e281846000015160018111156144dd576144dd615aae565b614959565b614521816040518060400160405280600881526020017f6c616e677561676500000000000000000000000000000000000000000000000081525061493b565b61453b81846040015160008111156144dd576144dd615aae565b61457a816040518060400160405280600681526020017f736f75726365000000000000000000000000000000000000000000000000000081525061493b565b61458881846060015161493b565b60a0830151511561462e576145d2816040518060400160405280600481526020017f617267730000000000000000000000000000000000000000000000000000000081525061493b565b6145db81614992565b60005b8360a001515181101561462457614612828560a00151838151811061460557614605615ac4565b602002602001015161493b565b8061461c81615a53565b9150506145de565b5061462e816149b6565b6080830151511561472f5760008360200151600181111561465157614651615aae565b1415614689576040517fa80d31f700000000000000000000000000000000000000000000000000000000815260040160405180910390fd5b6146c8816040518060400160405280600f81526020017f736563726574734c6f636174696f6e000000000000000000000000000000000081525061493b565b6146e281846020015160018111156144dd576144dd615aae565b614721816040518060400160405280600781526020017f736563726574730000000000000000000000000000000000000000000000000081525061493b565b61472f8184608001516149d4565b515192915050565b6001600160a01b0381163314156147905760405162461bcd60e51b815260206004820152601760248201527f43616e6e6f74207472616e7366657220746f2073656c660000000000000000006044820152606401610a6d565b600380546001600160a01b0319166001600160a01b03838116918217909255600254604051919216907fed8889f560326eb138920d842192f0eb3dd22b4f139c87a2c57538e05bae127890600090a350565b6000807a184f03e93ff9f4daa797ed6e38ed64bf6a1f010000000000000000831061482b577a184f03e93ff9f4daa797ed6e38ed64bf6a1f010000000000000000830492506040015b6d04ee2d6d415b85acef81000000008310614857576d04ee2d6d415b85acef8100000000830492506020015b662386f26fc10000831061487557662386f26fc10000830492506010015b6305f5e100831061488d576305f5e100830492506008015b61271083106148a157612710830492506004015b606483106148b3576064830492506002015b600a83106127915760010192915050565b6040805180820190915260608152600060208201526148e4602083615a6e565b1561490c576148f4602083615a6e565b6148ff9060206159d5565b614909908361589f565b91505b60208084018390526040518085526000815290818401018181101561493057600080fd5b604052509192915050565b61494882600383516149dd565b81516149549082614afe565b505050565b81516149669060c2614b26565b50610a10828260405160200161497e91815260200190565b6040516020818303038152906040526149d4565b61499d816004614b8f565b6001816020018181516149b0919061589f565b90525050565b6149c1816007614b8f565b6001816020018181516149b091906159d5565b61494882600283515b60178167ffffffffffffffff1611614a045782516115119060e0600585901b168317614b26565b60ff8167ffffffffffffffff1611614a46578251614a2d906018611fe0600586901b1617614b26565b5082516115119067ffffffffffffffff83166001614ba6565b61ffff8167ffffffffffffffff1611614a89578251614a70906019611fe0600586901b1617614b26565b5082516115119067ffffffffffffffff83166002614ba6565b63ffffffff8167ffffffffffffffff1611614ace578251614ab590601a611fe0600586901b1617614b26565b5082516115119067ffffffffffffffff83166004614ba6565b8251614ae590601b611fe0600586901b1617614b26565b5082516115119067ffffffffffffffff83166008614ba6565b604080518082019091526060815260006020820152614b1f83838451614c2b565b9392505050565b6040805180820190915260608152600060208201528251516000614b4b82600161589f565b905084602001518210614b6c57614b6c85614b678360026159b6565b614cfc565b8451602083820101858153508051821115614b85578181525b5093949350505050565b815161495490601f611fe0600585901b1617614b26565b6040805180820190915260608152600060208201528351516000614bca828561589f565b90508560200151811115614be757614be786614b678360026159b6565b60006001614bf78661010061590e565b614c0191906159d5565b90508651828101878319825116178152508051831115614c1f578281525b50959695505050505050565b6040805180820190915260608152600060208201528251821115614c4e57600080fd5b8351516000614c5d848361589f565b90508560200151811115614c7a57614c7a86614b678360026159b6565b855180518382016020019160009180851115614c94578482525b505050602086015b60208610614cd45780518252614cb360208361589f565b9150614cc060208261589f565b9050614ccd6020876159d5565b9550614c9c565b51815160001960208890036101000a0190811690199190911617905250849150509392505050565b8151614d0883836148c4565b506115118382614afe565b828054614d1f90615a18565b90600052602060002090601f016020900481019282614d415760008555614d87565b82601f10614d5a57805160ff1916838001178555614d87565b82800160010185558215614d87579182015b82811115614d87578251825591602001919060010190614d6c565b50614d93929150614e06565b5090565b828054828255906000526020600020908101928215614d875791602002820182811115614d87578251825591602001919060010190614d6c565b6040518060400160405280614df9604051806040016040528060608152602001600081525090565b8152602001600081525090565b5b80821115614d935760008155600101614e07565b600082601f830112614e2c57600080fd5b81356020614e41614e3c83615853565b615822565b80838252828201915082860187848660051b8901011115614e6157600080fd5b6000805b86811015614ea457823567ffffffffffffffff811115614e83578283fd5b614e918b88838d0101614eb2565b8652509385019391850191600101614e65565b509198975050505050505050565b600082601f830112614ec357600080fd5b8135614ed1614e3c82615877565b818152846020838601011115614ee657600080fd5b816020850160208301376000918101602001919091529392505050565b803560018110614f1257600080fd5b919050565b803560028110614f1257600080fd5b803563ffffffff81168114614f1257600080fd5b803567ffffffffffffffff81168114614f1257600080fd5b600060208284031215614f6457600080fd5b8135614b1f81615af0565b600060208284031215614f8157600080fd5b8151614b1f81615af0565b60008060408385031215614f9f57600080fd5b8235614faa81615af0565b946020939093013593505050565b60008060008060608587031215614fce57600080fd5b843567ffffffffffffffff80821115614fe657600080fd5b818701915087601f830112614ffa57600080fd5b81358181111561500957600080fd5b8860208260051b850101111561501e57600080fd5b6020928301965094506150349187019050614f3a565b915061504260408601614f26565b905092959194509250565b60006020828403121561505f57600080fd5b5035919050565b60006020828403121561507857600080fd5b5051919050565b60008060006060848603121561509457600080fd5b83359250602084013567ffffffffffffffff808211156150b357600080fd5b6150bf87838801614eb2565b935060408601359150808211156150d557600080fd5b506150e286828701614eb2565b9150509250925092565b6000602082840312156150fe57600080fd5b813567ffffffffffffffff81111561511557600080fd5b61512184828501614eb2565b949350505050565b60006020828403121561513b57600080fd5b815167ffffffffffffffff81111561515257600080fd5b8201601f8101841361516357600080fd5b8051615171614e3c82615877565b81815285602083850101111561518657600080fd5b613a1b8260208301602086016159ec565b600080600080608085870312156151ad57600080fd5b843567ffffffffffffffff808211156151c557600080fd5b9086019060c082890312156151d957600080fd5b6151e16157f9565b6151ea83614f17565b81526151f860208401614f17565b602082015261520960408401614f03565b604082015260608301358281111561522057600080fd5b61522c8a828601614eb2565b60608301525060808301358281111561524457600080fd5b6152508a828601614eb2565b60808301525060a08301358281111561526857600080fd5b6152748a828601614e1b565b60a083015250955061528b91505060208601614f3a565b925061529960408601614f26565b9396929550929360600135925050565b600080604083850312156152bc57600080fd5b8235915060208084013567ffffffffffffffff8111156152db57600080fd5b8401601f810186136152ec57600080fd5b80356152fa614e3c82615853565b80828252848201915084840189868560051b870101111561531a57600080fd5b600094505b8385101561533d57803583526001949094019391850191850161531f565b5080955050505050509250929050565b60006020828403121561535f57600080fd5b81516bffffffffffffffffffffffff81168114614b1f57600080fd5b600081518084526020808501945080840160005b838110156153ab5781518752958201959082019060010161538f565b509495945050505050565b600081518084526153ce8160208601602086016159ec565b601f01601f19169290920160200192915050565b600061018082518185526153f8828601826153b6565b9150506020830151848203602086015261541282826153b6565b9150506040830151848203604086015261542c82826153b6565b9150506060830151848203606086015261544682826153b6565b9150506080830151848203608086015261546082826153b6565b91505060a083015184820360a086015261547a82826153b6565b91505060c083015184820360c086015261549482826153b6565b91505060e083015184820360e08601526154ae82826153b6565b91505061010080840151858303828701526154c983826153b6565b9250505061012080840151858303828701526154e583826153b6565b92505050610140808401518583038287015261550183826153b6565b92505050610160808401518583038287015261551d83826153b6565b9695505050505050565b6000602080830181845280855180835260408601915060408160051b870101925083870160005b8281101561557c57603f1988860301845261556a8583516153e2565b9450928501929085019060010161554e565b5092979650505050505050565b8215158152604060208201526000615121604083018461537b565b602081526000614b1f60208301846153b6565b6040815260006155ca60408301856153b6565b8281036020840152613a1b81856153b6565b60208101600383106155fe57634e487b7160e01b600052602160045260246000fd5b91905290565b6101808152600061561961018083018f6153b6565b828103602084015261562b818f6153b6565b9050828103604084015261563f818e6153b6565b90508281036060840152615653818d6153b6565b90508281036080840152615667818c6153b6565b905082810360a084015261567b818b6153b6565b905082810360c084015261568f818a6153b6565b905082810360e08401526156a381896153b6565b90508281036101008401526156b881886153b6565b90508281036101208401526156cd81876153b6565b90508281036101408401526156e281866153b6565b90508281036101608401526156f781856153b6565b9f9e505050505050505050505050505050565b602081526000614b1f60208301846153e2565b828152604060208201526000615121604083018461537b565b67ffffffffffffffff8416815260606020820152600061575960608301856153b6565b905063ffffffff83166040830152949350505050565b67ffffffffffffffff8516815260806020820152600061579260808301866153b6565b63ffffffff949094166040830152506060015292915050565b6000808335601e198436030181126157c257600080fd5b83018035915067ffffffffffffffff8211156157dd57600080fd5b6020019150368190038213156157f257600080fd5b9250929050565b60405160c0810167ffffffffffffffff8111828210171561581c5761581c615ada565b60405290565b604051601f8201601f1916810167ffffffffffffffff8111828210171561584b5761584b615ada565b604052919050565b600067ffffffffffffffff82111561586d5761586d615ada565b5060051b60200190565b600067ffffffffffffffff82111561589157615891615ada565b50601f01601f191660200190565b600082198211156158b2576158b2615a82565b500190565b6000826158c6576158c6615a98565b500490565b600181815b808511156159065781600019048211156158ec576158ec615a82565b808516156158f957918102915b93841c93908002906158d0565b509250929050565b6000614b1f838360008261592457506001612791565b8161593157506000612791565b816001811461594757600281146159515761596d565b6001915050612791565b60ff84111561596257615962615a82565b50506001821b612791565b5060208310610133831016604e8410600b8410161715615990575081810a612791565b61599a83836158cb565b80600019048211156159ae576159ae615a82565b029392505050565b60008160001904831182151516156159d0576159d0615a82565b500290565b6000828210156159e7576159e7615a82565b500390565b60005b83811015615a075781810151838201526020016159ef565b838111156115115750506000910152565b600181811c90821680615a2c57607f821691505b60208210811415615a4d57634e487b7160e01b600052602260045260246000fd5b50919050565b6000600019821415615a6757615a67615a82565b5060010190565b600082615a7d57615a7d615a98565b500690565b634e487b7160e01b600052601160045260246000fd5b634e487b7160e01b600052601260045260246000fd5b634e487b7160e01b600052602160045260246000fd5b634e487b7160e01b600052603260045260246000fd5b634e487b7160e01b600052604160045260246000fd5b6001600160a01b0381168114613ec257600080fdfea2646970667358221220ac850f738e9ceeee7520d3f505876c350c3f4cef3f3a54f94005a846ca0790f064736f6c63430008070033",
  "linkReferences": {},
  "deployedLinkReferences": {}
}