{
  "_format": "hh-sol-artifact-1",
  "contractName": "Insurance",
  "sourceName": "contracts/Insurance.sol",
  "abi": [
    {
      "inputs": [
        {
          "internalType": "address",
          "name": "oracle",
          "type": "address"
        },
        {
          "internalType": "address",
          "name": "linkMaticAddress",
          "type": "address"
        },
        {
          "internalType": "address",
          "name": "maticUsdAddress",
          "type": "address"
        },
        {
          "internalType": "uint64",
          "name": "subscriptionId",
          "type": "uint64"
        }
      ],
      "stateMutability": "nonpayable",
      "type": "constructor"
    },
    {
      "inputs": [],
      "name": "EmptyArgs",
      "type": "error"
    },
    {
      "inputs": [],
      "name": "EmptySource",
      "type": "error"
    },
    {
      "inputs": [],
      "name": "NoInlineSecrets",
      "type": "error"
    },
    {
      "inputs": [
        {
          "internalType": "address",
          "name": "have",
          "type": "address"
        },
        {
          "internalType": "address",
          "name": "want",
          "type": "address"
        }
      ],
      "name": "OnlyCoordinatorCanFulfill",
      "type": "error"
    },
    {
      "inputs": [],
      "name": "RequestIsAlreadyPending",
      "type": "error"
    },
    {
      "inputs": [],
      "name": "RequestIsNotPending",
      "type": "error"
    },
    {
      "inputs": [],
      "name": "SenderIsNotRegistry",
      "type": "error"
    },
    {
      "anonymous": false,
      "inputs": [
        {
          "indexed": false,
          "internalType": "string[]",
          "name": "args",
          "type": "string[]"
        }
      ],
      "name": "AdjustedArgs",
      "type": "event"
    },
    {
      "anonymous": false,
      "inputs": [
        {
          "indexed": true,
          "internalType": "bytes32",
          "name": "requestId",
          "type": "bytes32"
        }
      ],
      "name": "OCRRequest",
      "type": "event"
    },
    {
      "anonymous": false,
      "inputs": [
        {
          "indexed": true,
          "internalType": "bytes32",
          "name": "requestId",
          "type": "bytes32"
        },
        {
          "indexed": false,
          "internalType": "bytes",
          "name": "result",
          "type": "bytes"
        },
        {
          "indexed": false,
          "internalType": "bytes",
          "name": "err",
          "type": "bytes"
        }
      ],
      "name": "OCRResponse",
      "type": "event"
    },
    {
      "anonymous": false,
      "inputs": [
        {
          "indexed": true,
          "internalType": "address",
          "name": "previousOwner",
          "type": "address"
        },
        {
          "indexed": true,
          "internalType": "address",
          "name": "newOwner",
          "type": "address"
        }
      ],
      "name": "OwnershipTransferred",
      "type": "event"
    },
    {
      "anonymous": false,
      "inputs": [
        {
          "indexed": false,
          "internalType": "address",
          "name": "policyOwner",
          "type": "address"
        },
        {
          "indexed": false,
          "internalType": "uint256",
          "name": "policyIndex",
          "type": "uint256"
        },
        {
          "indexed": false,
          "internalType": "uint256",
          "name": "cost",
          "type": "uint256"
        }
      ],
      "name": "PolicyCreated",
      "type": "event"
    },
    {
      "anonymous": false,
      "inputs": [
        {
          "indexed": false,
          "internalType": "address",
          "name": "policyOwner",
          "type": "address"
        },
        {
          "indexed": false,
          "internalType": "uint256",
          "name": "policyIndex",
          "type": "uint256"
        }
      ],
      "name": "PolicyEnded",
      "type": "event"
    },
    {
      "anonymous": false,
      "inputs": [
        {
          "indexed": false,
          "internalType": "address",
          "name": "policyOwner",
          "type": "address"
        },
        {
          "indexed": false,
          "internalType": "uint256",
          "name": "policyIndex",
          "type": "uint256"
        }
      ],
      "name": "PolicyStarted",
      "type": "event"
    },
    {
      "anonymous": false,
      "inputs": [
        {
          "indexed": false,
          "internalType": "uint256",
          "name": "requestId",
          "type": "uint256"
        },
        {
          "indexed": false,
          "internalType": "uint256[]",
          "name": "randomWords",
          "type": "uint256[]"
        }
      ],
      "name": "RequestFulfilled",
      "type": "event"
    },
    {
      "anonymous": false,
      "inputs": [
        {
          "indexed": true,
          "internalType": "bytes32",
          "name": "id",
          "type": "bytes32"
        }
      ],
      "name": "RequestFulfilled",
      "type": "event"
    },
    {
      "anonymous": false,
      "inputs": [
        {
          "indexed": false,
          "internalType": "uint256",
          "name": "requestId",
          "type": "uint256"
        },
        {
          "indexed": false,
          "internalType": "uint32",
          "name": "numWords",
          "type": "uint32"
        }
      ],
      "name": "RequestSent",
      "type": "event"
    },
    {
      "anonymous": false,
      "inputs": [
        {
          "indexed": true,
          "internalType": "bytes32",
          "name": "id",
          "type": "bytes32"
        }
      ],
      "name": "RequestSent",
      "type": "event"
    },
    {
      "anonymous": false,
      "inputs": [
        {
          "indexed": false,
          "internalType": "address",
          "name": "userAddress",
          "type": "address"
        },
        {
          "indexed": false,
          "internalType": "uint256",
          "name": "payoutAmountInMatic",
          "type": "uint256"
        }
      ],
      "name": "UserPaid",
      "type": "event"
    },
    {
      "inputs": [
        {
          "internalType": "address",
          "name": "oracleAddress",
          "type": "address"
        },
        {
          "internalType": "bytes32",
          "name": "requestId",
          "type": "bytes32"
        }
      ],
      "name": "addSimulatedRequestId",
      "outputs": [],
      "stateMutability": "nonpayable",
      "type": "function"
    },
    {
      "inputs": [],
      "name": "boolInsuranceData",
      "outputs": [
        {
          "internalType": "bool",
          "name": "",
          "type": "bool"
        }
      ],
      "stateMutability": "view",
      "type": "function"
    },
    {
      "inputs": [
        {
          "internalType": "bytes",
          "name": "input",
          "type": "bytes"
        }
      ],
      "name": "bytesToUint256",
      "outputs": [
        {
          "internalType": "uint256",
          "name": "result",
          "type": "uint256"
        }
      ],
      "stateMutability": "pure",
      "type": "function"
    },
    {
      "inputs": [],
      "name": "checkPayoutContract",
      "outputs": [
        {
          "internalType": "address",
          "name": "",
          "type": "address"
        }
      ],
      "stateMutability": "view",
      "type": "function"
    },
    {
      "inputs": [],
      "name": "constructionTime",
      "outputs": [
        {
          "internalType": "uint256",
          "name": "",
          "type": "uint256"
        }
      ],
      "stateMutability": "view",
      "type": "function"
    },
    {
      "inputs": [],
      "name": "currentTime",
      "outputs": [
        {
          "internalType": "uint256",
          "name": "",
          "type": "uint256"
        }
      ],
      "stateMutability": "view",
      "type": "function"
    },
    {
      "inputs": [
        {
          "internalType": "address",
          "name": "policyOwner",
          "type": "address"
        },
        {
          "internalType": "uint256",
          "name": "policyIndex",
          "type": "uint256"
        }
      ],
      "name": "endPolicy",
      "outputs": [],
      "stateMutability": "nonpayable",
      "type": "function"
    },
    {
      "inputs": [
        {
          "components": [
            {
              "internalType": "enum Functions.Location",
              "name": "codeLocation",
              "type": "uint8"
            },
            {
              "internalType": "enum Functions.Location",
              "name": "secretsLocation",
              "type": "uint8"
            },
            {
              "internalType": "enum Functions.CodeLanguage",
              "name": "language",
              "type": "uint8"
            },
            {
              "internalType": "string",
              "name": "source",
              "type": "string"
            },
            {
              "internalType": "bytes",
              "name": "secrets",
              "type": "bytes"
            },
            {
              "internalType": "string[]",
              "name": "args",
              "type": "string[]"
            }
          ],
          "internalType": "struct Functions.Request",
          "name": "req",
          "type": "tuple"
        },
        {
          "internalType": "uint64",
          "name": "subscriptionId",
          "type": "uint64"
        },
        {
          "internalType": "uint32",
          "name": "gasLimit",
          "type": "uint32"
        },
        {
          "internalType": "uint256",
          "name": "gasPrice",
          "type": "uint256"
        }
      ],
      "name": "estimateCost",
      "outputs": [
        {
          "internalType": "uint96",
          "name": "",
          "type": "uint96"
        }
      ],
      "stateMutability": "view",
      "type": "function"
    },
    {
      "inputs": [
        {
          "internalType": "string[]",
          "name": "args",
          "type": "string[]"
        },
        {
          "internalType": "uint64",
          "name": "subscriptionId",
          "type": "uint64"
        },
        {
          "internalType": "uint32",
          "name": "gasLimit",
          "type": "uint32"
        }
      ],
      "name": "estimateInsurance",
      "outputs": [
        {
          "internalType": "bytes32",
          "name": "",
          "type": "bytes32"
        }
      ],
      "stateMutability": "payable",
      "type": "function"
    },
    {
      "inputs": [
        {
          "internalType": "address",
          "name": "user",
          "type": "address"
        }
      ],
      "name": "getAllUserPolicies",
      "outputs": [
        {
          "components": [
            {
              "internalType": "string",
              "name": "latNe",
              "type": "string"
            },
            {
              "internalType": "string",
              "name": "longNe",
              "type": "string"
            },
            {
              "internalType": "string",
              "name": "latSe",
              "type": "string"
            },
            {
              "internalType": "string",
              "name": "longSe",
              "type": "string"
            },
            {
              "internalType": "string",
              "name": "latSw",
              "type": "string"
            },
            {
              "internalType": "string",
              "name": "longSw",
              "type": "string"
            },
            {
              "internalType": "string",
              "name": "latNw",
              "type": "string"
            },
            {
              "internalType": "string",
              "name": "longNw",
              "type": "string"
            },
            {
              "internalType": "string",
              "name": "configParam",
              "type": "string"
            },
            {
              "internalType": "string",
              "name": "startTime",
              "type": "string"
            },
            {
              "internalType": "string",
              "name": "endTime",
              "type": "string"
            },
            {
              "internalType": "string",
              "name": "policyCreationTime",
              "type": "string"
            }
          ],
          "internalType": "struct Insurance.InsuranceData[]",
          "name": "",
          "type": "tuple[]"
        }
      ],
      "stateMutability": "view",
      "type": "function"
    },
    {
      "inputs": [],
      "name": "getCurrentTime",
      "outputs": [
        {
          "internalType": "uint256",
          "name": "",
          "type": "uint256"
        }
      ],
      "stateMutability": "view",
      "type": "function"
    },
    {
      "inputs": [],
      "name": "getDONPublicKey",
      "outputs": [
        {
          "internalType": "bytes",
          "name": "",
          "type": "bytes"
        }
      ],
      "stateMutability": "view",
      "type": "function"
    },
    {
      "inputs": [
        {
          "internalType": "bytes32",
          "name": "requestId",
          "type": "bytes32"
        }
      ],
      "name": "getInsuranceQuoteData",
      "outputs": [
        {
          "components": [
            {
              "internalType": "address",
              "name": "user",
              "type": "address"
            },
            {
              "internalType": "uint256",
              "name": "policyIndex",
              "type": "uint256"
            },
            {
              "internalType": "uint256",
              "name": "cost",
              "type": "uint256"
            }
          ],
          "internalType": "struct Insurance.InsuranceQuoteData",
          "name": "",
          "type": "tuple"
        }
      ],
      "stateMutability": "view",
      "type": "function"
    },
    {
      "inputs": [],
      "name": "getLastRandomWord",
      "outputs": [
        {
          "internalType": "uint256",
          "name": "",
          "type": "uint256"
        }
      ],
      "stateMutability": "view",
      "type": "function"
    },
    {
      "inputs": [
        {
          "internalType": "address",
          "name": "user",
          "type": "address"
        },
        {
          "internalType": "uint256",
          "name": "policyIndex",
          "type": "uint256"
        }
      ],
      "name": "getPolicyData",
      "outputs": [
        {
          "components": [
            {
              "internalType": "string",
              "name": "latNe",
              "type": "string"
            },
            {
              "internalType": "string",
              "name": "longNe",
              "type": "string"
            },
            {
              "internalType": "string",
              "name": "latSe",
              "type": "string"
            },
            {
              "internalType": "string",
              "name": "longSe",
              "type": "string"
            },
            {
              "internalType": "string",
              "name": "latSw",
              "type": "string"
            },
            {
              "internalType": "string",
              "name": "longSw",
              "type": "string"
            },
            {
              "internalType": "string",
              "name": "latNw",
              "type": "string"
            },
            {
              "internalType": "string",
              "name": "longNw",
              "type": "string"
            },
            {
              "internalType": "string",
              "name": "configParam",
              "type": "string"
            },
            {
              "internalType": "string",
              "name": "startTime",
              "type": "string"
            },
            {
              "internalType": "string",
              "name": "endTime",
              "type": "string"
            },
            {
              "internalType": "string",
              "name": "policyCreationTime",
              "type": "string"
            }
          ],
          "internalType": "struct Insurance.InsuranceData",
          "name": "",
          "type": "tuple"
        }
      ],
      "stateMutability": "view",
      "type": "function"
    },
    {
      "inputs": [
        {
          "internalType": "address",
          "name": "_address",
          "type": "address"
        },
        {
          "internalType": "uint256",
          "name": "_policyIndex",
          "type": "uint256"
        }
      ],
      "name": "getPolicyRequestId",
      "outputs": [
        {
          "internalType": "bytes32",
          "name": "",
          "type": "bytes32"
        }
      ],
      "stateMutability": "view",
      "type": "function"
    },
    {
      "inputs": [],
      "name": "getPriceLinkMatic",
      "outputs": [
        {
          "internalType": "int256",
          "name": "",
          "type": "int256"
        }
      ],
      "stateMutability": "view",
      "type": "function"
    },
    {
      "inputs": [],
      "name": "getPriceMaticUsd",
      "outputs": [
        {
          "internalType": "int256",
          "name": "",
          "type": "int256"
        }
      ],
      "stateMutability": "view",
      "type": "function"
    },
    {
      "inputs": [
        {
          "internalType": "uint256",
          "name": "_requestId",
          "type": "uint256"
        }
      ],
      "name": "getRequestStatus",
      "outputs": [
        {
          "internalType": "bool",
          "name": "fulfilled",
          "type": "bool"
        },
        {
          "internalType": "uint256[]",
          "name": "randomWords",
          "type": "uint256[]"
        }
      ],
      "stateMutability": "view",
      "type": "function"
    },
    {
      "inputs": [],
      "name": "getSourceCode",
      "outputs": [
        {
          "internalType": "string",
          "name": "",
          "type": "string"
        }
      ],
      "stateMutability": "view",
      "type": "function"
    },
    {
      "inputs": [
        {
          "internalType": "bytes32",
          "name": "requestId",
          "type": "bytes32"
        },
        {
          "internalType": "bytes",
          "name": "response",
          "type": "bytes"
        },
        {
          "internalType": "bytes",
          "name": "err",
          "type": "bytes"
        }
      ],
      "name": "handleOracleFulfillment",
      "outputs": [],
      "stateMutability": "nonpayable",
      "type": "function"
    },
    {
      "inputs": [],
      "name": "helloWorld",
      "outputs": [
        {
          "internalType": "string",
          "name": "",
          "type": "string"
        }
      ],
      "stateMutability": "view",
      "type": "function"
    },
    {
      "inputs": [
        {
          "internalType": "address",
          "name": "",
          "type": "address"
        },
        {
          "internalType": "uint256",
          "name": "",
          "type": "uint256"
        }
      ],
      "name": "insurancePoliciesMapping",
      "outputs": [
        {
          "internalType": "string",
          "name": "latNe",
          "type": "string"
        },
        {
          "internalType": "string",
          "name": "longNe",
          "type": "string"
        },
        {
          "internalType": "string",
          "name": "latSe",
          "type": "string"
        },
        {
          "internalType": "string",
          "name": "longSe",
          "type": "string"
        },
        {
          "internalType": "string",
          "name": "latSw",
          "type": "string"
        },
        {
          "internalType": "string",
          "name": "longSw",
          "type": "string"
        },
        {
          "internalType": "string",
          "name": "latNw",
          "type": "string"
        },
        {
          "internalType": "string",
          "name": "longNw",
          "type": "string"
        },
        {
          "internalType": "string",
          "name": "configParam",
          "type": "string"
        },
        {
          "internalType": "string",
          "name": "startTime",
          "type": "string"
        },
        {
          "internalType": "string",
          "name": "endTime",
          "type": "string"
        },
        {
          "internalType": "string",
          "name": "policyCreationTime",
          "type": "string"
        }
      ],
      "stateMutability": "view",
      "type": "function"
    },
    {
      "inputs": [
        {
          "internalType": "bytes32",
          "name": "",
          "type": "bytes32"
        }
      ],
      "name": "insuranceQuoteData",
      "outputs": [
        {
          "internalType": "address",
          "name": "user",
          "type": "address"
        },
        {
          "internalType": "uint256",
          "name": "policyIndex",
          "type": "uint256"
        },
        {
          "internalType": "uint256",
          "name": "cost",
          "type": "uint256"
        }
      ],
      "stateMutability": "view",
      "type": "function"
    },
    {
      "inputs": [],
      "name": "lastRequestId",
      "outputs": [
        {
          "internalType": "uint256",
          "name": "",
          "type": "uint256"
        }
      ],
      "stateMutability": "view",
      "type": "function"
    },
    {
      "inputs": [],
      "name": "latestError",
      "outputs": [
        {
          "internalType": "bytes",
          "name": "",
          "type": "bytes"
        }
      ],
      "stateMutability": "view",
      "type": "function"
    },
    {
      "inputs": [],
      "name": "latestRequestId",
      "outputs": [
        {
          "internalType": "bytes32",
          "name": "",
          "type": "bytes32"
        }
      ],
      "stateMutability": "view",
      "type": "function"
    },
    {
      "inputs": [],
      "name": "latestResponse",
      "outputs": [
        {
          "internalType": "bytes",
          "name": "",
          "type": "bytes"
        }
      ],
      "stateMutability": "view",
      "type": "function"
    },
    {
      "inputs": [],
      "name": "linkMaticPriceFeed",
      "outputs": [
        {
          "internalType": "contract LinkMaticPriceFeed",
          "name": "",
          "type": "address"
        }
      ],
      "stateMutability": "view",
      "type": "function"
    },
    {
      "inputs": [],
      "name": "maticUsdPriceFeed",
      "outputs": [
        {
          "internalType": "contract MaticUsdPriceFeed",
          "name": "",
          "type": "address"
        }
      ],
      "stateMutability": "view",
      "type": "function"
    },
    {
      "inputs": [],
      "name": "owner",
      "outputs": [
        {
          "internalType": "address",
          "name": "",
          "type": "address"
        }
      ],
      "stateMutability": "view",
      "type": "function"
    },
    {
      "inputs": [
        {
          "internalType": "address payable",
          "name": "userAddress",
          "type": "address"
        },
        {
          "internalType": "uint256",
          "name": "payoutAmount",
          "type": "uint256"
        }
      ],
      "name": "payUser",
      "outputs": [],
      "stateMutability": "nonpayable",
      "type": "function"
    },
    {
      "inputs": [
        {
          "internalType": "address",
          "name": "",
          "type": "address"
        },
        {
          "internalType": "uint256",
          "name": "",
          "type": "uint256"
        }
      ],
      "name": "policyRequestIdMapping",
      "outputs": [
        {
          "internalType": "bytes32",
          "name": "",
          "type": "bytes32"
        }
      ],
      "stateMutability": "view",
      "type": "function"
    },
    {
      "inputs": [
        {
          "internalType": "address",
          "name": "",
          "type": "address"
        },
        {
          "internalType": "uint256",
          "name": "",
          "type": "uint256"
        }
      ],
      "name": "policyStatus",
      "outputs": [
        {
          "internalType": "enum Insurance.PolicyStatus",
          "name": "",
          "type": "uint8"
        }
      ],
      "stateMutability": "view",
      "type": "function"
    },
    {
      "inputs": [
        {
          "internalType": "uint256",
          "name": "",
          "type": "uint256"
        }
      ],
      "name": "randomnessRequesterAddress",
      "outputs": [
        {
          "internalType": "address",
          "name": "",
          "type": "address"
        }
      ],
      "stateMutability": "view",
      "type": "function"
    },
    {
      "inputs": [
        {
          "internalType": "uint256",
          "name": "requestId",
          "type": "uint256"
        },
        {
          "internalType": "uint256[]",
          "name": "randomWords",
          "type": "uint256[]"
        }
      ],
      "name": "rawFulfillRandomWords",
      "outputs": [],
      "stateMutability": "nonpayable",
      "type": "function"
    },
    {
      "inputs": [],
      "name": "renounceOwnership",
      "outputs": [],
      "stateMutability": "nonpayable",
      "type": "function"
    },
    {
      "inputs": [
        {
          "internalType": "uint256",
          "name": "",
          "type": "uint256"
        }
      ],
      "name": "requestIds",
      "outputs": [
        {
          "internalType": "uint256",
          "name": "",
          "type": "uint256"
        }
      ],
      "stateMutability": "view",
      "type": "function"
    },
    {
      "inputs": [],
      "name": "requestRandomWords",
      "outputs": [
        {
          "internalType": "uint256",
          "name": "requestId",
          "type": "uint256"
        }
      ],
      "stateMutability": "nonpayable",
      "type": "function"
    },
    {
      "inputs": [
        {
          "internalType": "uint256",
          "name": "",
          "type": "uint256"
        }
      ],
      "name": "s_requests",
      "outputs": [
        {
          "internalType": "bool",
          "name": "fulfilled",
          "type": "bool"
        },
        {
          "internalType": "bool",
          "name": "exists",
          "type": "bool"
        }
      ],
      "stateMutability": "view",
      "type": "function"
    },
    {
      "inputs": [
        {
          "internalType": "address",
          "name": "_checkPayoutContract",
          "type": "address"
        }
      ],
      "name": "setCheckPayoutContract",
      "outputs": [],
      "stateMutability": "nonpayable",
      "type": "function"
    },
    {
      "inputs": [
        {
          "internalType": "string",
          "name": "_sourceCode",
          "type": "string"
        }
      ],
      "name": "setSourceCode",
      "outputs": [],
      "stateMutability": "nonpayable",
      "type": "function"
    },
    {
      "inputs": [],
      "name": "sourceCode",
      "outputs": [
        {
          "internalType": "string",
          "name": "",
          "type": "string"
        }
      ],
      "stateMutability": "view",
      "type": "function"
    },
    {
      "inputs": [
        {
          "internalType": "bytes32",
          "name": "requestId",
          "type": "bytes32"
        }
      ],
      "name": "startPolicy",
      "outputs": [
        {
          "internalType": "uint256",
          "name": "",
          "type": "uint256"
        }
      ],
      "stateMutability": "payable",
      "type": "function"
    },
    {
      "inputs": [
        {
          "internalType": "address",
          "name": "newOwner",
          "type": "address"
        }
      ],
      "name": "transferOwnership",
      "outputs": [],
      "stateMutability": "nonpayable",
      "type": "function"
    },
    {
      "inputs": [
        {
          "internalType": "address",
          "name": "oracle",
          "type": "address"
        }
      ],
      "name": "updateOracleAddress",
      "outputs": [],
      "stateMutability": "nonpayable",
      "type": "function"
    }
  ],
  "bytecode": "0x60a06040527f4b09e658ed251bcafeebbc69400383d49f344ace09b9576fe248bb02c003fe9f600955600a80546001600160501b03191666010003000493e017905542600f553480156200005257600080fd5b5060405162005d1038038062005d108339810160408190526200007591620001c8565b600080546001600160a01b0319166001600160a01b0386161790557f7a1bac17ccc5b313516c5e16fb24f7659aa5ebed000000000000000000000000608052620000bf3362000159565b600a80546001600160a01b039485166a010000000000000000000002600160501b600160f01b0319909116179055600b8054929093166001600160a01b031992831617909255600680546001600160401b03909316600160a01b026001600160e01b031990931692909217737a1bac17ccc5b313516c5e16fb24f7659aa5ebed179091554260055560048054909116331790555062000233565b600280546001600160a01b038381166001600160a01b0319831681179093556040519116919082907f8be0079c531659141344cd1fd0a4f28419497f9722a3daafe3b4186f6b6457e090600090a35050565b80516001600160a01b0381168114620001c357600080fd5b919050565b60008060008060808587031215620001df57600080fd5b620001ea85620001ab565b9350620001fa60208601620001ab565b92506200020a60408601620001ab565b60608601519092506001600160401b03811681146200022857600080fd5b939692955090935050565b60805160601c615ab76200025960003960008181611e6e0152611ec90152615ab76000f3fe6080604052600436106102fc5760003560e01c8063b1011dbd1161018f578063d8a4676f116100e1578063f06c56101161008a578063f7023bb611610064578063f7023bb6146109aa578063fc2a88c3146109ca578063fffeb84e146109e057600080fd5b8063f06c56101461092c578063f11da55b14610942578063f2fde38b1461098a57600080fd5b8063e3928b7f116100bb578063e3928b7f146108c9578063e5c33f30146108de578063ecd831e81461090c57600080fd5b8063d8a4676f1461084e578063e0c862891461087c578063e0e2fa9a1461089157600080fd5b8063c0303c3711610143578063d18e81b31161011d578063d18e81b3146107e6578063d328a91e146107fc578063d4b391751461081157600080fd5b8063c0303c371461075e578063c605f76c1461077e578063cc9de25d146107c457600080fd5b8063b91ce20511610174578063b91ce20514610714578063bc58d68c14610729578063bef3a2f01461074957600080fd5b8063b1011dbd14610671578063b655cd9b146106dc57600080fd5b806330bda99d116102535780636ec7be7e116101fc5780638796ba8c116101d65780638796ba8c146105e35780638da5cb5b14610603578063a168fa891461062157600080fd5b80636ec7be7e1461055e578063715018a6146105a157806380858026146105b657600080fd5b8063698cd3ad1161022d578063698cd3ad1461050957806369f8eaed1461051e5780636c6f99901461053e57600080fd5b806330bda99d1461046e5780635ec7baca1461048e57806361875d8d146104dc57600080fd5b806313c60177116102b55780631fe543e31161028f5780631fe543e3146103ee578063215fc6251461040e57806329cb924d1461045957600080fd5b806313c60177146103a35780631aa1a081146103c55780631aa46f59146103d857600080fd5b806305f411d6116102e657806305f411d61461034d5780630b50567f146103705780630ca761751461038357600080fd5b8062b467671461030157806304b2303c14610323575b600080fd5b34801561030d57600080fd5b5061032161031c366004615068565b6109f5565b005b34801561032f57600080fd5b50610338610a14565b60405190151581526020015b60405180910390f35b34801561035957600080fd5b5061036261123d565b604051908152602001610344565b61036261037e366004614fc9565b6112c8565b34801561038f57600080fd5b5061032161039e366004614ffb565b61146e565b3480156103af57600080fd5b506103b8611514565b6040516103449190615520565b6103626103d3366004614f34565b6115a2565b3480156103e457600080fd5b50610362600c5481565b3480156103fa57600080fd5b50610321610409366004615225565b611e63565b34801561041a57600080fd5b5061042e610429366004614fc9565b611f00565b6040805182516001600160a01b03168152602080840151908201529181015190820152606001610344565b34801561046557600080fd5b50600f54610362565b34801561047a57600080fd5b50610321610489366004614f08565b611ff9565b34801561049a57600080fd5b506104c46104a9366004614fc9565b6014602052600090815260409020546001600160a01b031681565b6040516001600160a01b039091168152602001610344565b3480156104e857600080fd5b506104fc6104f7366004614f08565b61200b565b6040516103449190615686565b34801561051557600080fd5b506103b8612794565b34801561052a57600080fd5b50610321610539366004614ece565b612826565b34801561054a57600080fd5b50600b546104c4906001600160a01b031681565b34801561056a57600080fd5b50610362610579366004614f08565b6001600160a01b03919091166000908152601060209081526040808320938352929052205490565b3480156105ad57600080fd5b50610321612850565b3480156105c257600080fd5b506105d66105d1366004614ece565b612864565b60405161034491906154a3565b3480156105ef57600080fd5b506103626105fe366004614fc9565b612fb2565b34801561060f57600080fd5b506002546001600160a01b03166104c4565b34801561062d57600080fd5b5061065a61063c366004614fc9565b60156020526000908152604090205460ff8082169161010090041682565b604080519215158352901515602083015201610344565b34801561067d57600080fd5b506106b761068c366004614fc9565b6012602052600090815260409020805460018201546002909201546001600160a01b03909116919083565b604080516001600160a01b039094168452602084019290925290820152606001610344565b3480156106e857600080fd5b506106fc6106f7366004614f08565b612fd3565b6040516103449c9b9a99989796959493929190615580565b34801561072057600080fd5b506103626136b0565b34801561073557600080fd5b50610321610744366004614f08565b613772565b34801561075557600080fd5b506103b8613844565b34801561076a57600080fd5b506004546104c4906001600160a01b031681565b34801561078a57600080fd5b5060408051808201909152600c81527f48656c6c6f20576f726c6421000000000000000000000000000000000000000060208201526103b8565b3480156107d057600080fd5b506103626107df366004615068565b6020015190565b3480156107f257600080fd5b50610362600f5481565b34801561080857600080fd5b506103b8613851565b34801561081d57600080fd5b5061083161082c366004615113565b6138ea565b6040516bffffffffffffffffffffffff9091168152602001610344565b34801561085a57600080fd5b5061086e610869366004614fc9565b613980565b604051610344929190615505565b34801561088857600080fd5b50610362613a80565b34801561089d57600080fd5b506103626108ac366004614f08565b601060209081526000928352604080842090915290825290205481565b3480156108d557600080fd5b50610362613c9d565b3480156108ea57600080fd5b50600a546104c4906a010000000000000000000090046001600160a01b031681565b34801561091857600080fd5b50610321610927366004614f08565b613cfb565b34801561093857600080fd5b5061036260055481565b34801561094e57600080fd5b5061097d61095d366004614f08565b601160209081526000928352604080842090915290825290205460ff1681565b6040516103449190615558565b34801561099657600080fd5b506103216109a5366004614ece565b613e0c565b3480156109b657600080fd5b506103216109c5366004614ece565b613e9c565b3480156109d657600080fd5b5061036260085481565b3480156109ec57600080fd5b506103b8613ec2565b6109fd613ecf565b8051610a10906003906020840190614c8f565b5050565b3360009081526013602052604081208054610a765760405162461bcd60e51b815260206004820152601760248201527f4e6f20696e737572616e6365206461746120666f756e6400000000000000000060448201526064015b60405180910390fd5b60005b8154811015611234576000828281548110610a9657610a96615a40565b90600052602060002090600c020160405180610180016040529081600082018054610ac090615994565b80601f0160208091040260200160405190810160405280929190818152602001828054610aec90615994565b8015610b395780601f10610b0e57610100808354040283529160200191610b39565b820191906000526020600020905b815481529060010190602001808311610b1c57829003601f168201915b50505050508152602001600182018054610b5290615994565b80601f0160208091040260200160405190810160405280929190818152602001828054610b7e90615994565b8015610bcb5780601f10610ba057610100808354040283529160200191610bcb565b820191906000526020600020905b815481529060010190602001808311610bae57829003601f168201915b50505050508152602001600282018054610be490615994565b80601f0160208091040260200160405190810160405280929190818152602001828054610c1090615994565b8015610c5d5780601f10610c3257610100808354040283529160200191610c5d565b820191906000526020600020905b815481529060010190602001808311610c4057829003601f168201915b50505050508152602001600382018054610c7690615994565b80601f0160208091040260200160405190810160405280929190818152602001828054610ca290615994565b8015610cef5780601f10610cc457610100808354040283529160200191610cef565b820191906000526020600020905b815481529060010190602001808311610cd257829003601f168201915b50505050508152602001600482018054610d0890615994565b80601f0160208091040260200160405190810160405280929190818152602001828054610d3490615994565b8015610d815780601f10610d5657610100808354040283529160200191610d81565b820191906000526020600020905b815481529060010190602001808311610d6457829003601f168201915b50505050508152602001600582018054610d9a90615994565b80601f0160208091040260200160405190810160405280929190818152602001828054610dc690615994565b8015610e135780601f10610de857610100808354040283529160200191610e13565b820191906000526020600020905b815481529060010190602001808311610df657829003601f168201915b50505050508152602001600682018054610e2c90615994565b80601f0160208091040260200160405190810160405280929190818152602001828054610e5890615994565b8015610ea55780601f10610e7a57610100808354040283529160200191610ea5565b820191906000526020600020905b815481529060010190602001808311610e8857829003601f168201915b50505050508152602001600782018054610ebe90615994565b80601f0160208091040260200160405190810160405280929190818152602001828054610eea90615994565b8015610f375780601f10610f0c57610100808354040283529160200191610f37565b820191906000526020600020905b815481529060010190602001808311610f1a57829003601f168201915b50505050508152602001600882018054610f5090615994565b80601f0160208091040260200160405190810160405280929190818152602001828054610f7c90615994565b8015610fc95780601f10610f9e57610100808354040283529160200191610fc9565b820191906000526020600020905b815481529060010190602001808311610fac57829003601f168201915b50505050508152602001600982018054610fe290615994565b80601f016020809104026020016040519081016040528092919081815260200182805461100e90615994565b801561105b5780601f106110305761010080835404028352916020019161105b565b820191906000526020600020905b81548152906001019060200180831161103e57829003601f168201915b50505050508152602001600a8201805461107490615994565b80601f01602080910402602001604051908101604052809291908181526020018280546110a090615994565b80156110ed5780601f106110c2576101008083540402835291602001916110ed565b820191906000526020600020905b8154815290600101906020018083116110d057829003601f168201915b50505050508152602001600b8201805461110690615994565b80601f016020809104026020016040519081016040528092919081815260200182805461113290615994565b801561117f5780601f106111545761010080835404028352916020019161117f565b820191906000526020600020905b81548152906001019060200180831161116257829003601f168201915b50505050508152505090508060c00151516000141580156111a4575060e08101515115155b80156111b1575080515115155b80156111c1575060208101515115155b80156111d1575060408101515115155b80156111e1575060608101515115155b80156111f1575060808101515115155b8015611201575060a08101515115155b801561121257506101008101515115155b15611221576001935050505090565b508061122c816159cf565b915050610a79565b50600091505090565b6000600a8054906101000a90046001600160a01b03166001600160a01b0316638e15f4736040518163ffffffff1660e01b815260040160206040518083038186803b15801561128b57600080fd5b505afa15801561129f573d6000803e3d6000fd5b505050506040513d601f19601f820116820180604052508101906112c39190614fe2565b905090565b600081815260126020908152604080832060028101546001820154338652601390945291842080549193918591908390811061130657611306615a40565b6000918252602080832033845260118252604080852087865290925290832054600c9290920201925060ff16600281111561134357611343615a2a565b146113905760405162461bcd60e51b815260206004820152601560248201527f506f6c696379206973206e6f742070656e64696e6700000000000000000000006044820152606401610a6d565b600061139a613c9d565b90506000816113ac86620f4240615932565b6113b69190615833565b9050803410156114085760405162461bcd60e51b815260206004820152601560248201527f4e6f7420656e6f756768204d617469632073656e7400000000000000000000006044820152606401610a6d565b336000818152601160209081526040808320888452825291829020805460ff19166001179055815192835282018690527f153598a6c97963bd4d16e97786943eb68bcc8ca58077614327e965efe69fa110910160405180910390a1505050505050919050565b60008381526001602052604090205483906001600160a01b031633146114c0576040517fa0c5ec6300000000000000000000000000000000000000000000000000000000815260040160405180910390fd5b60008181526001602052604080822080546001600160a01b03191690555182917f85e1543bf2f84fe80c6badbce3648c8539ad1df4d2b3d822938ca0538be727e691a261150e848484613f29565b50505050565b6003805461152190615994565b80601f016020809104026020016040519081016040528092919081815260200182805461154d90615994565b801561159a5780601f1061156f5761010080835404028352916020019161159a565b820191906000526020600020905b81548152906001019060200180831161157d57829003601f168201915b505050505081565b6000600b84146115f45760405162461bcd60e51b815260206004820152601b60248201527f496e76616c6964206e756d626572206f6620617267756d656e747300000000006044820152606401610a6d565b3360009081526013602052604081209061160d4261400a565b9050816040518061018001604052808989600081811061162f5761162f615a40565b90506020028101906116419190615727565b8080601f0160208091040260200160405190810160405280939291908181526020018383808284376000920191909152505050908252506020018989600181811061168e5761168e615a40565b90506020028101906116a09190615727565b8080601f016020809104026020016040519081016040528093929190818152602001838380828437600092019190915250505090825250602001898960028181106116ed576116ed615a40565b90506020028101906116ff9190615727565b8080601f0160208091040260200160405190810160405280939291908181526020018383808284376000920191909152505050908252506020018989600381811061174c5761174c615a40565b905060200281019061175e9190615727565b8080601f016020809104026020016040519081016040528093929190818152602001838380828437600092019190915250505090825250602001898960048181106117ab576117ab615a40565b90506020028101906117bd9190615727565b8080601f0160208091040260200160405190810160405280939291908181526020018383808284376000920191909152505050908252506020018989600581811061180a5761180a615a40565b905060200281019061181c9190615727565b8080601f0160208091040260200160405190810160405280939291908181526020018383808284376000920191909152505050908252506020018989600681811061186957611869615a40565b905060200281019061187b9190615727565b8080601f016020809104026020016040519081016040528093929190818152602001838380828437600092019190915250505090825250602001898960078181106118c8576118c8615a40565b90506020028101906118da9190615727565b8080601f0160208091040260200160405190810160405280939291908181526020018383808284376000920191909152505050908252506020018989600881811061192757611927615a40565b90506020028101906119399190615727565b8080601f0160208091040260200160405190810160405280939291908181526020018383808284376000920191909152505050908252506020018989600981811061198657611986615a40565b90506020028101906119989190615727565b8080601f0160208091040260200160405190810160405280939291908181526020018383808284376000920191909152505050908252506020018989600a8181106119e5576119e5615a40565b90506020028101906119f79190615727565b8080601f016020809104026020016040519081016040528093929190818152602001838380828437600092018290525093855250505060209182018590528354600181018555938152819020825180519394600c0290910192611a5d9284920190614c8f565b506020828101518051611a769260018501920190614c8f565b5060408201518051611a92916002840191602090910190614c8f565b5060608201518051611aae916003840191602090910190614c8f565b5060808201518051611aca916004840191602090910190614c8f565b5060a08201518051611ae6916005840191602090910190614c8f565b5060c08201518051611b02916006840191602090910190614c8f565b5060e08201518051611b1e916007840191602090910190614c8f565b506101008201518051611b3b916008840191602090910190614c8f565b506101208201518051611b58916009840191602090910190614c8f565b506101408201518051611b7591600a840191602090910190614c8f565b506101608201518051611b9291600b840191602090910190614c8f565b505033600090815260136020526040812054909150611bb390600190615951565b9050611bef6040805160c08101909152806000815260200160008152602001600081526020016060815260200160608152602001606081525090565b611c9160008060038054611c0290615994565b80601f0160208091040260200160405190810160405280929190818152602001828054611c2e90615994565b8015611c7b5780601f10611c5057610100808354040283529160200191611c7b565b820191906000526020600020905b815481529060010190602001808311611c5e57829003601f168201915b5050505050846140b4909392919063ffffffff16565b6000611c9e89600161581b565b67ffffffffffffffff811115611cb657611cb6615a56565b604051908082528060200260200182016040528015611ce957816020015b6060815260200190600190039081611cd45790505b50905060005b89811015611d81578a8a82818110611d0957611d09615a40565b9050602002810190611d1b9190615727565b8080601f0160208091040260200160405190810160405280939291908181526020018383808284376000920191909152505084518592508491508110611d6357611d63615a40565b60200260200101819052508080611d79906159cf565b915050611cef565b5083818b8b905081518110611d9857611d98615a40565b6020908102919091010152611dad8282614148565b6000611dba838a8a614188565b60408051606081018252338082526020808301898152600084860181815287825260128452868220955186546001600160a01b0319166001600160a01b03909116178655915160018601559051600290940193909355600c859055908252601081528282208883529052818120839055905191925082917f0790d5075e76350b19c3d15f0de9144077f6fb31397b526ce8664d7faf7dde6b9190a29a9950505050505050505050565b336001600160a01b037f00000000000000000000000000000000000000000000000000000000000000001614611ef6576040517f1cf993f40000000000000000000000000000000000000000000000000000000081523360048201526001600160a01b037f0000000000000000000000000000000000000000000000000000000000000000166024820152604401610a6d565b610a1082826142fa565b611f2d604051806060016040528060006001600160a01b0316815260200160008152602001600081525090565b6000828152601260205260409020546001600160a01b0316611fb75760405162461bcd60e51b815260206004820152602560248201527f4e6f206461746120666f756e6420666f722074686520676976656e207265717560448201527f65737449640000000000000000000000000000000000000000000000000000006064820152608401610a6d565b50600090815260126020908152604091829020825160608101845281546001600160a01b03168152600182015492810192909252600201549181019190915290565b612001613ecf565b610a1082826143c0565b61206f6040518061018001604052806060815260200160608152602001606081526020016060815260200160608152602001606081526020016060815260200160608152602001606081526020016060815260200160608152602001606081525090565b6001600160a01b038316600090815260136020526040902080548390811061209957612099615a40565b90600052602060002090600c0201604051806101800160405290816000820180546120c390615994565b80601f01602080910402602001604051908101604052809291908181526020018280546120ef90615994565b801561213c5780601f106121115761010080835404028352916020019161213c565b820191906000526020600020905b81548152906001019060200180831161211f57829003601f168201915b5050505050815260200160018201805461215590615994565b80601f016020809104026020016040519081016040528092919081815260200182805461218190615994565b80156121ce5780601f106121a3576101008083540402835291602001916121ce565b820191906000526020600020905b8154815290600101906020018083116121b157829003601f168201915b505050505081526020016002820180546121e790615994565b80601f016020809104026020016040519081016040528092919081815260200182805461221390615994565b80156122605780601f1061223557610100808354040283529160200191612260565b820191906000526020600020905b81548152906001019060200180831161224357829003601f168201915b5050505050815260200160038201805461227990615994565b80601f01602080910402602001604051908101604052809291908181526020018280546122a590615994565b80156122f25780601f106122c7576101008083540402835291602001916122f2565b820191906000526020600020905b8154815290600101906020018083116122d557829003601f168201915b5050505050815260200160048201805461230b90615994565b80601f016020809104026020016040519081016040528092919081815260200182805461233790615994565b80156123845780601f1061235957610100808354040283529160200191612384565b820191906000526020600020905b81548152906001019060200180831161236757829003601f168201915b5050505050815260200160058201805461239d90615994565b80601f01602080910402602001604051908101604052809291908181526020018280546123c990615994565b80156124165780601f106123eb57610100808354040283529160200191612416565b820191906000526020600020905b8154815290600101906020018083116123f957829003601f168201915b5050505050815260200160068201805461242f90615994565b80601f016020809104026020016040519081016040528092919081815260200182805461245b90615994565b80156124a85780601f1061247d576101008083540402835291602001916124a8565b820191906000526020600020905b81548152906001019060200180831161248b57829003601f168201915b505050505081526020016007820180546124c190615994565b80601f01602080910402602001604051908101604052809291908181526020018280546124ed90615994565b801561253a5780601f1061250f5761010080835404028352916020019161253a565b820191906000526020600020905b81548152906001019060200180831161251d57829003601f168201915b5050505050815260200160088201805461255390615994565b80601f016020809104026020016040519081016040528092919081815260200182805461257f90615994565b80156125cc5780601f106125a1576101008083540402835291602001916125cc565b820191906000526020600020905b8154815290600101906020018083116125af57829003601f168201915b505050505081526020016009820180546125e590615994565b80601f016020809104026020016040519081016040528092919081815260200182805461261190615994565b801561265e5780601f106126335761010080835404028352916020019161265e565b820191906000526020600020905b81548152906001019060200180831161264157829003601f168201915b50505050508152602001600a8201805461267790615994565b80601f01602080910402602001604051908101604052809291908181526020018280546126a390615994565b80156126f05780601f106126c5576101008083540402835291602001916126f0565b820191906000526020600020905b8154815290600101906020018083116126d357829003601f168201915b50505050508152602001600b8201805461270990615994565b80601f016020809104026020016040519081016040528092919081815260200182805461273590615994565b80156127825780601f1061275757610100808354040283529160200191612782565b820191906000526020600020905b81548152906001019060200180831161276557829003601f168201915b50505050508152505090505b92915050565b6060600380546127a390615994565b80601f01602080910402602001604051908101604052809291908181526020018280546127cf90615994565b801561281c5780601f106127f15761010080835404028352916020019161281c565b820191906000526020600020905b8154815290600101906020018083116127ff57829003601f168201915b5050505050905090565b61282e613ecf565b600480546001600160a01b0319166001600160a01b0392909216919091179055565b612858613ecf565b6128626000614440565b565b6001600160a01b0381166000908152601360209081526040808320805482518185028101850190935280835260609492939192909184015b82821015612fa757838290600052602060002090600c0201604051806101800160405290816000820180546128d090615994565b80601f01602080910402602001604051908101604052809291908181526020018280546128fc90615994565b80156129495780601f1061291e57610100808354040283529160200191612949565b820191906000526020600020905b81548152906001019060200180831161292c57829003601f168201915b5050505050815260200160018201805461296290615994565b80601f016020809104026020016040519081016040528092919081815260200182805461298e90615994565b80156129db5780601f106129b0576101008083540402835291602001916129db565b820191906000526020600020905b8154815290600101906020018083116129be57829003601f168201915b505050505081526020016002820180546129f490615994565b80601f0160208091040260200160405190810160405280929190818152602001828054612a2090615994565b8015612a6d5780601f10612a4257610100808354040283529160200191612a6d565b820191906000526020600020905b815481529060010190602001808311612a5057829003601f168201915b50505050508152602001600382018054612a8690615994565b80601f0160208091040260200160405190810160405280929190818152602001828054612ab290615994565b8015612aff5780601f10612ad457610100808354040283529160200191612aff565b820191906000526020600020905b815481529060010190602001808311612ae257829003601f168201915b50505050508152602001600482018054612b1890615994565b80601f0160208091040260200160405190810160405280929190818152602001828054612b4490615994565b8015612b915780601f10612b6657610100808354040283529160200191612b91565b820191906000526020600020905b815481529060010190602001808311612b7457829003601f168201915b50505050508152602001600582018054612baa90615994565b80601f0160208091040260200160405190810160405280929190818152602001828054612bd690615994565b8015612c235780601f10612bf857610100808354040283529160200191612c23565b820191906000526020600020905b815481529060010190602001808311612c0657829003601f168201915b50505050508152602001600682018054612c3c90615994565b80601f0160208091040260200160405190810160405280929190818152602001828054612c6890615994565b8015612cb55780601f10612c8a57610100808354040283529160200191612cb5565b820191906000526020600020905b815481529060010190602001808311612c9857829003601f168201915b50505050508152602001600782018054612cce90615994565b80601f0160208091040260200160405190810160405280929190818152602001828054612cfa90615994565b8015612d475780601f10612d1c57610100808354040283529160200191612d47565b820191906000526020600020905b815481529060010190602001808311612d2a57829003601f168201915b50505050508152602001600882018054612d6090615994565b80601f0160208091040260200160405190810160405280929190818152602001828054612d8c90615994565b8015612dd95780601f10612dae57610100808354040283529160200191612dd9565b820191906000526020600020905b815481529060010190602001808311612dbc57829003601f168201915b50505050508152602001600982018054612df290615994565b80601f0160208091040260200160405190810160405280929190818152602001828054612e1e90615994565b8015612e6b5780601f10612e4057610100808354040283529160200191612e6b565b820191906000526020600020905b815481529060010190602001808311612e4e57829003601f168201915b50505050508152602001600a82018054612e8490615994565b80601f0160208091040260200160405190810160405280929190818152602001828054612eb090615994565b8015612efd5780601f10612ed257610100808354040283529160200191612efd565b820191906000526020600020905b815481529060010190602001808311612ee057829003601f168201915b50505050508152602001600b82018054612f1690615994565b80601f0160208091040260200160405190810160405280929190818152602001828054612f4290615994565b8015612f8f5780601f10612f6457610100808354040283529160200191612f8f565b820191906000526020600020905b815481529060010190602001808311612f7257829003601f168201915b5050505050815250508152602001906001019061289c565b505050509050919050565b60078181548110612fc257600080fd5b600091825260209091200154905081565b60136020528160005260406000208181548110612fef57600080fd5b90600052602060002090600c02016000915091505080600001805461301390615994565b80601f016020809104026020016040519081016040528092919081815260200182805461303f90615994565b801561308c5780601f106130615761010080835404028352916020019161308c565b820191906000526020600020905b81548152906001019060200180831161306f57829003601f168201915b5050505050908060010180546130a190615994565b80601f01602080910402602001604051908101604052809291908181526020018280546130cd90615994565b801561311a5780601f106130ef5761010080835404028352916020019161311a565b820191906000526020600020905b8154815290600101906020018083116130fd57829003601f168201915b50505050509080600201805461312f90615994565b80601f016020809104026020016040519081016040528092919081815260200182805461315b90615994565b80156131a85780601f1061317d576101008083540402835291602001916131a8565b820191906000526020600020905b81548152906001019060200180831161318b57829003601f168201915b5050505050908060030180546131bd90615994565b80601f01602080910402602001604051908101604052809291908181526020018280546131e990615994565b80156132365780601f1061320b57610100808354040283529160200191613236565b820191906000526020600020905b81548152906001019060200180831161321957829003601f168201915b50505050509080600401805461324b90615994565b80601f016020809104026020016040519081016040528092919081815260200182805461327790615994565b80156132c45780601f10613299576101008083540402835291602001916132c4565b820191906000526020600020905b8154815290600101906020018083116132a757829003601f168201915b5050505050908060050180546132d990615994565b80601f016020809104026020016040519081016040528092919081815260200182805461330590615994565b80156133525780601f1061332757610100808354040283529160200191613352565b820191906000526020600020905b81548152906001019060200180831161333557829003601f168201915b50505050509080600601805461336790615994565b80601f016020809104026020016040519081016040528092919081815260200182805461339390615994565b80156133e05780601f106133b5576101008083540402835291602001916133e0565b820191906000526020600020905b8154815290600101906020018083116133c357829003601f168201915b5050505050908060070180546133f590615994565b80601f016020809104026020016040519081016040528092919081815260200182805461342190615994565b801561346e5780601f106134435761010080835404028352916020019161346e565b820191906000526020600020905b81548152906001019060200180831161345157829003601f168201915b50505050509080600801805461348390615994565b80601f01602080910402602001604051908101604052809291908181526020018280546134af90615994565b80156134fc5780601f106134d1576101008083540402835291602001916134fc565b820191906000526020600020905b8154815290600101906020018083116134df57829003601f168201915b50505050509080600901805461351190615994565b80601f016020809104026020016040519081016040528092919081815260200182805461353d90615994565b801561358a5780601f1061355f5761010080835404028352916020019161358a565b820191906000526020600020905b81548152906001019060200180831161356d57829003601f168201915b50505050509080600a01805461359f90615994565b80601f01602080910402602001604051908101604052809291908181526020018280546135cb90615994565b80156136185780601f106135ed57610100808354040283529160200191613618565b820191906000526020600020905b8154815290600101906020018083116135fb57829003601f168201915b50505050509080600b01805461362d90615994565b80601f016020809104026020016040519081016040528092919081815260200182805461365990615994565b80156136a65780601f1061367b576101008083540402835291602001916136a6565b820191906000526020600020905b81548152906001019060200180831161368957829003601f168201915b505050505090508c565b600854600090815260156020526040812054610100900460ff1661373c5760405162461bcd60e51b815260206004820152602760248201527f4e6f2072616e646f6d20776f7264732068617665206265656e2067656e65726160448201527f74656420796574000000000000000000000000000000000000000000000000006064820152608401610a6d565b60085460009081526015602052604081206001018054829061376057613760615a40565b60009182526020909120015492915050565b6004546001600160a01b031633146137db5760405162461bcd60e51b815260206004820152602660248201527f43616c6c6572206973206e6f742074686520436865636b5061796f757420636f6044820152651b9d1c9858dd60d21b6064820152608401610a6d565b6001600160a01b0382166000818152601160209081526040808320858452825291829020805460ff19166002179055815192835282018390527f05e258a8da32249e7d7e1ebcd6b64f7c97c4235999db64b6687191b183d5e3f291015b60405180910390a15050565b600d805461152190615994565b60008054604080517fd328a91e00000000000000000000000000000000000000000000000000000000815290516060936001600160a01b039093169263d328a91e9260048082019391829003018186803b1580156138ae57600080fd5b505afa1580156138c2573d6000803e3d6000fd5b505050506040513d6000823e601f3d908101601f191682016040526112c391908101906150a5565b600080546001600160a01b031663d227d2458561390688614492565b86866040518563ffffffff1660e01b815260040161392794939291906156eb565b60206040518083038186803b15801561393f57600080fd5b505afa158015613953573d6000803e3d6000fd5b505050506040513d601f19601f8201168201806040525081019061397791906152c9565b95945050505050565b600081815260156020526040812054606090610100900460ff166139e65760405162461bcd60e51b815260206004820152601160248201527f72657175657374206e6f7420666f756e640000000000000000000000000000006044820152606401610a6d565b60008381526015602090815260408083208151606081018352815460ff8082161515835261010090910416151581850152600182018054845181870281018701865281815292959394860193830182828015613a6157602002820191906000526020600020905b815481526020019060010190808311613a4d575b5050505050815250509050806000015181604001519250925050915091565b6000613a8a613ecf565b600654600954600a546040517f5d3b1d30000000000000000000000000000000000000000000000000000000008152600481019290925274010000000000000000000000000000000000000000830467ffffffffffffffff166024830152640100000000810461ffff16604483015263ffffffff808216606484015266010000000000009091041660848201526001600160a01b0390911690635d3b1d309060a401602060405180830381600087803b158015613b4657600080fd5b505af1158015613b5a573d6000803e3d6000fd5b505050506040513d601f19601f82011682018060405250810190613b7e9190614fe2565b6040805160608101825260008082526001602080840182815285518481528083018752858701908152878552601583529590932084518154945161ffff1990951690151561ff00191617610100941515949094029390931783559351805195965092949193613bf39391850192910190614d13565b505060078054600181019091557fa66cc928b5edb82af9bd49922954155ab7b0942694bea4ce44661d9a8736c688018290555060088190556000818152601460209081526040918290208054336001600160a01b0319909116179055600a548251848152660100000000000090910463ffffffff16918101919091527fcc58b13ad3eab50626c6a6300b1d139cd6ebb1688a7cced9461c2f7e762665ee910160405180910390a190565b600b54604080517f8e15f47300000000000000000000000000000000000000000000000000000000815290516000926001600160a01b031691638e15f473916004808301926020929190829003018186803b15801561128b57600080fd5b6004546001600160a01b03163314613d645760405162461bcd60e51b815260206004820152602660248201527f43616c6c6572206973206e6f742074686520436865636b5061796f757420636f6044820152651b9d1c9858dd60d21b6064820152608401610a6d565b6000613d6e613c9d565b9050600081613d8084620f4240615932565b613d8a9190615833565b6040519091506001600160a01b0385169082156108fc029083906000818181858888f19350505050158015613dc3573d6000803e3d6000fd5b50604080516001600160a01b0386168152602081018390527f188c4d19b4fadd1889d9bd9bf0ab7c97e0719434751e6c05feac6339c1c001ec910160405180910390a150505050565b613e14613ecf565b6001600160a01b038116613e905760405162461bcd60e51b815260206004820152602660248201527f4f776e61626c653a206e6577206f776e657220697320746865207a65726f206160448201527f64647265737300000000000000000000000000000000000000000000000000006064820152608401610a6d565b613e9981614440565b50565b613ea4613ecf565b600080546001600160a01b0319166001600160a01b03831617905550565b600e805461152190615994565b6002546001600160a01b031633146128625760405162461bcd60e51b815260206004820181905260248201527f4f776e61626c653a2063616c6c6572206973206e6f7420746865206f776e65726044820152606401610a6d565b600083815260126020526040812090613f43846020015190565b600283018190558451909150613f6090600d906020870190614c8f565b508251613f7490600e906020860190614c8f565b50847f7bab0ec163b5c132c72b8146ac4d6e067e82ed58f8b131150aa71c92589115628585604051613fa7929190615533565b60405180910390a2815460018301546002840154604080516001600160a01b039094168452602084019290925282820152517f93aceb1c5e55aa194781a0423a101b97efa4a051e8d2fc2ba332ca75f4e4b6a79181900360600190a15050505050565b606060006140178361475e565b600101905060008167ffffffffffffffff81111561403757614037615a56565b6040519080825280601f01601f191660200182016040528015614061576020820181803683370190505b5090508181016020015b600019017f3031323334353637383961626364656600000000000000000000000000000000600a86061a8153600a85049450846140a7576140ac565b61406b565b509392505050565b80516140ec576040517f22ce3edd00000000000000000000000000000000000000000000000000000000815260040160405180910390fd5b838360018111156140ff576140ff615a2a565b9081600181111561411257614112615a2a565b9052506040840182801561412857614128615a2a565b9081801561413857614138615a2a565b9052506060909301929092525050565b8051614180576040517ffe936cb700000000000000000000000000000000000000000000000000000000815260040160405180910390fd5b60a090910152565b6000805481906001600160a01b03166328242b04856141a688614492565b866040518463ffffffff1660e01b81526004016141c5939291906156b2565b602060405180830381600087803b1580156141df57600080fd5b505af11580156141f3573d6000803e3d6000fd5b505050506040513d601f19601f820116820180604052508101906142179190614fe2565b905060008054906101000a90046001600160a01b03166001600160a01b0316635ab1bd536040518163ffffffff1660e01b815260040160206040518083038186803b15801561426557600080fd5b505afa158015614279573d6000803e3d6000fd5b505050506040513d601f19601f8201168201806040525081019061429d9190614eeb565b60008281526001602052604080822080546001600160a01b0319166001600160a01b039490941693909317909255905182917f1131472297a800fee664d1d89cfa8f7676ff07189ecc53f80bbb5f4969099db891a2949350505050565b600082815260156020526040902054610100900460ff1661435d5760405162461bcd60e51b815260206004820152601160248201527f72657175657374206e6f7420666f756e640000000000000000000000000000006044820152606401610a6d565b6000828152601560209081526040909120805460ff191660019081178255835161438e939290910191840190614d13565b507ffe2e2d779dba245964d4e3ef9b994be63856fd568bf7d3ca9e224755cb1bd54d8282604051613838929190615699565b60008181526001602052604090205481906001600160a01b031615614411576040517f8b457ad200000000000000000000000000000000000000000000000000000000815260040160405180910390fd5b50600090815260016020526040902080546001600160a01b0319166001600160a01b0392909216919091179055565b600280546001600160a01b038381166001600160a01b0319831681179093556040519116919082907f8be0079c531659141344cd1fd0a4f28419497f9722a3daafe3b4186f6b6457e090600090a35050565b606061449c614d4d565b80516144aa90610100614840565b506144ea816040518060400160405280600c81526020017f636f64654c6f636174696f6e00000000000000000000000000000000000000008152506148b7565b614509818460000151600181111561450457614504615a2a565b6148d5565b614548816040518060400160405280600881526020017f6c616e67756167650000000000000000000000000000000000000000000000008152506148b7565b614562818460400151600081111561450457614504615a2a565b6145a1816040518060400160405280600681526020017f736f7572636500000000000000000000000000000000000000000000000000008152506148b7565b6145af8184606001516148b7565b60a08301515115614655576145f9816040518060400160405280600481526020017f61726773000000000000000000000000000000000000000000000000000000008152506148b7565b6146028161490e565b60005b8360a001515181101561464b57614639828560a00151838151811061462c5761462c615a40565b60200260200101516148b7565b80614643816159cf565b915050614605565b5061465581614932565b608083015151156147565760008360200151600181111561467857614678615a2a565b14156146b0576040517fa80d31f700000000000000000000000000000000000000000000000000000000815260040160405180910390fd5b6146ef816040518060400160405280600f81526020017f736563726574734c6f636174696f6e00000000000000000000000000000000008152506148b7565b614709818460200151600181111561450457614504615a2a565b614748816040518060400160405280600781526020017f73656372657473000000000000000000000000000000000000000000000000008152506148b7565b614756818460800151614950565b515192915050565b6000807a184f03e93ff9f4daa797ed6e38ed64bf6a1f01000000000000000083106147a7577a184f03e93ff9f4daa797ed6e38ed64bf6a1f010000000000000000830492506040015b6d04ee2d6d415b85acef810000000083106147d3576d04ee2d6d415b85acef8100000000830492506020015b662386f26fc1000083106147f157662386f26fc10000830492506010015b6305f5e1008310614809576305f5e100830492506008015b612710831061481d57612710830492506004015b6064831061482f576064830492506002015b600a831061278e5760010192915050565b6040805180820190915260608152600060208201526148606020836159ea565b15614888576148706020836159ea565b61487b906020615951565b614885908361581b565b91505b6020808401839052604051808552600081529081840101818110156148ac57600080fd5b604052509192915050565b6148c48260038351614959565b81516148d09082614a7a565b505050565b81516148e29060c2614aa2565b50610a1082826040516020016148fa91815260200190565b604051602081830303815290604052614950565b614919816004614b0b565b60018160200181815161492c919061581b565b90525050565b61493d816007614b0b565b60018160200181815161492c9190615951565b6148c482600283515b60178167ffffffffffffffff161161498057825161150e9060e0600585901b168317614aa2565b60ff8167ffffffffffffffff16116149c25782516149a9906018611fe0600586901b1617614aa2565b50825161150e9067ffffffffffffffff83166001614b22565b61ffff8167ffffffffffffffff1611614a055782516149ec906019611fe0600586901b1617614aa2565b50825161150e9067ffffffffffffffff83166002614b22565b63ffffffff8167ffffffffffffffff1611614a4a578251614a3190601a611fe0600586901b1617614aa2565b50825161150e9067ffffffffffffffff83166004614b22565b8251614a6190601b611fe0600586901b1617614aa2565b50825161150e9067ffffffffffffffff83166008614b22565b604080518082019091526060815260006020820152614a9b83838451614ba7565b9392505050565b6040805180820190915260608152600060208201528251516000614ac782600161581b565b905084602001518210614ae857614ae885614ae3836002615932565b614c78565b8451602083820101858153508051821115614b01578181525b5093949350505050565b81516148d090601f611fe0600585901b1617614aa2565b6040805180820190915260608152600060208201528351516000614b46828561581b565b90508560200151811115614b6357614b6386614ae3836002615932565b60006001614b738661010061588a565b614b7d9190615951565b90508651828101878319825116178152508051831115614b9b578281525b50959695505050505050565b6040805180820190915260608152600060208201528251821115614bca57600080fd5b8351516000614bd9848361581b565b90508560200151811115614bf657614bf686614ae3836002615932565b855180518382016020019160009180851115614c10578482525b505050602086015b60208610614c505780518252614c2f60208361581b565b9150614c3c60208261581b565b9050614c49602087615951565b9550614c18565b51815160001960208890036101000a0190811690199190911617905250849150509392505050565b8151614c848383614840565b5061150e8382614a7a565b828054614c9b90615994565b90600052602060002090601f016020900481019282614cbd5760008555614d03565b82601f10614cd657805160ff1916838001178555614d03565b82800160010185558215614d03579182015b82811115614d03578251825591602001919060010190614ce8565b50614d0f929150614d82565b5090565b828054828255906000526020600020908101928215614d035791602002820182811115614d03578251825591602001919060010190614ce8565b6040518060400160405280614d75604051806040016040528060608152602001600081525090565b8152602001600081525090565b5b80821115614d0f5760008155600101614d83565b600082601f830112614da857600080fd5b81356020614dbd614db8836157cf565b61579e565b80838252828201915082860187848660051b8901011115614ddd57600080fd5b6000805b86811015614e2057823567ffffffffffffffff811115614dff578283fd5b614e0d8b88838d0101614e2e565b8652509385019391850191600101614de1565b509198975050505050505050565b600082601f830112614e3f57600080fd5b8135614e4d614db8826157f3565b818152846020838601011115614e6257600080fd5b816020850160208301376000918101602001919091529392505050565b803560018110614e8e57600080fd5b919050565b803560028110614e8e57600080fd5b803563ffffffff81168114614e8e57600080fd5b803567ffffffffffffffff81168114614e8e57600080fd5b600060208284031215614ee057600080fd5b8135614a9b81615a6c565b600060208284031215614efd57600080fd5b8151614a9b81615a6c565b60008060408385031215614f1b57600080fd5b8235614f2681615a6c565b946020939093013593505050565b60008060008060608587031215614f4a57600080fd5b843567ffffffffffffffff80821115614f6257600080fd5b818701915087601f830112614f7657600080fd5b813581811115614f8557600080fd5b8860208260051b8501011115614f9a57600080fd5b602092830196509450614fb09187019050614eb6565b9150614fbe60408601614ea2565b905092959194509250565b600060208284031215614fdb57600080fd5b5035919050565b600060208284031215614ff457600080fd5b5051919050565b60008060006060848603121561501057600080fd5b83359250602084013567ffffffffffffffff8082111561502f57600080fd5b61503b87838801614e2e565b9350604086013591508082111561505157600080fd5b5061505e86828701614e2e565b9150509250925092565b60006020828403121561507a57600080fd5b813567ffffffffffffffff81111561509157600080fd5b61509d84828501614e2e565b949350505050565b6000602082840312156150b757600080fd5b815167ffffffffffffffff8111156150ce57600080fd5b8201601f810184136150df57600080fd5b80516150ed614db8826157f3565b81815285602083850101111561510257600080fd5b613977826020830160208601615968565b6000806000806080858703121561512957600080fd5b843567ffffffffffffffff8082111561514157600080fd5b9086019060c0828903121561515557600080fd5b61515d615775565b61516683614e93565b815261517460208401614e93565b602082015261518560408401614e7f565b604082015260608301358281111561519c57600080fd5b6151a88a828601614e2e565b6060830152506080830135828111156151c057600080fd5b6151cc8a828601614e2e565b60808301525060a0830135828111156151e457600080fd5b6151f08a828601614d97565b60a083015250955061520791505060208601614eb6565b925061521560408601614ea2565b9396929550929360600135925050565b6000806040838503121561523857600080fd5b8235915060208084013567ffffffffffffffff81111561525757600080fd5b8401601f8101861361526857600080fd5b8035615276614db8826157cf565b80828252848201915084840189868560051b870101111561529657600080fd5b600094505b838510156152b957803583526001949094019391850191850161529b565b5080955050505050509250929050565b6000602082840312156152db57600080fd5b81516bffffffffffffffffffffffff81168114614a9b57600080fd5b600081518084526020808501945080840160005b838110156153275781518752958201959082019060010161530b565b509495945050505050565b6000815180845261534a816020860160208601615968565b601f01601f19169290920160200192915050565b6000610180825181855261537482860182615332565b9150506020830151848203602086015261538e8282615332565b915050604083015184820360408601526153a88282615332565b915050606083015184820360608601526153c28282615332565b915050608083015184820360808601526153dc8282615332565b91505060a083015184820360a08601526153f68282615332565b91505060c083015184820360c08601526154108282615332565b91505060e083015184820360e086015261542a8282615332565b91505061010080840151858303828701526154458382615332565b9250505061012080840151858303828701526154618382615332565b92505050610140808401518583038287015261547d8382615332565b9250505061016080840151858303828701526154998382615332565b9695505050505050565b6000602080830181845280855180835260408601915060408160051b870101925083870160005b828110156154f857603f198886030184526154e685835161535e565b945092850192908501906001016154ca565b5092979650505050505050565b821515815260406020820152600061509d60408301846152f7565b602081526000614a9b6020830184615332565b6040815260006155466040830185615332565b82810360208401526139778185615332565b602081016003831061557a57634e487b7160e01b600052602160045260246000fd5b91905290565b6101808152600061559561018083018f615332565b82810360208401526155a7818f615332565b905082810360408401526155bb818e615332565b905082810360608401526155cf818d615332565b905082810360808401526155e3818c615332565b905082810360a08401526155f7818b615332565b905082810360c084015261560b818a615332565b905082810360e084015261561f8189615332565b90508281036101008401526156348188615332565b90508281036101208401526156498187615332565b905082810361014084015261565e8186615332565b90508281036101608401526156738185615332565b9f9e505050505050505050505050505050565b602081526000614a9b602083018461535e565b82815260406020820152600061509d60408301846152f7565b67ffffffffffffffff841681526060602082015260006156d56060830185615332565b905063ffffffff83166040830152949350505050565b67ffffffffffffffff8516815260806020820152600061570e6080830186615332565b63ffffffff949094166040830152506060015292915050565b6000808335601e1984360301811261573e57600080fd5b83018035915067ffffffffffffffff82111561575957600080fd5b60200191503681900382131561576e57600080fd5b9250929050565b60405160c0810167ffffffffffffffff8111828210171561579857615798615a56565b60405290565b604051601f8201601f1916810167ffffffffffffffff811182821017156157c7576157c7615a56565b604052919050565b600067ffffffffffffffff8211156157e9576157e9615a56565b5060051b60200190565b600067ffffffffffffffff82111561580d5761580d615a56565b50601f01601f191660200190565b6000821982111561582e5761582e6159fe565b500190565b60008261584257615842615a14565b500490565b600181815b80851115615882578160001904821115615868576158686159fe565b8085161561587557918102915b93841c939080029061584c565b509250929050565b6000614a9b83836000826158a05750600161278e565b816158ad5750600061278e565b81600181146158c357600281146158cd576158e9565b600191505061278e565b60ff8411156158de576158de6159fe565b50506001821b61278e565b5060208310610133831016604e8410600b841016171561590c575081810a61278e565b6159168383615847565b806000190482111561592a5761592a6159fe565b029392505050565b600081600019048311821515161561594c5761594c6159fe565b500290565b600082821015615963576159636159fe565b500390565b60005b8381101561598357818101518382015260200161596b565b8381111561150e5750506000910152565b600181811c908216806159a857607f821691505b602082108114156159c957634e487b7160e01b600052602260045260246000fd5b50919050565b60006000198214156159e3576159e36159fe565b5060010190565b6000826159f9576159f9615a14565b500690565b634e487b7160e01b600052601160045260246000fd5b634e487b7160e01b600052601260045260246000fd5b634e487b7160e01b600052602160045260246000fd5b634e487b7160e01b600052603260045260246000fd5b634e487b7160e01b600052604160045260246000fd5b6001600160a01b0381168114613e9957600080fdfea2646970667358221220232c479fbdb6fab9423a4228330309ab2ed4b23efe6a38d6bf79b199d1a9ed4764736f6c63430008070033",
  "linkReferences": {},
  "deployedLinkReferences": {}
}