{
  "_format": "hh-sol-artifact-1",
  "contractName": "Insurance",
  "sourceName": "contracts/Insurance.sol",
  "abi": [
    {
      "inputs": [
        {
          "internalType": "address",
          "name": "oracle",
          "type": "address"
        },
        {
          "internalType": "address",
          "name": "linkMaticPrice",
          "type": "address"
        },
        {
          "internalType": "address",
          "name": "randomness",
          "type": "address"
        }
      ],
      "stateMutability": "nonpayable",
      "type": "constructor"
    },
    {
      "inputs": [],
      "name": "EmptyArgs",
      "type": "error"
    },
    {
      "inputs": [],
      "name": "EmptySecrets",
      "type": "error"
    },
    {
      "inputs": [],
      "name": "EmptySource",
      "type": "error"
    },
    {
      "inputs": [],
      "name": "NoInlineSecrets",
      "type": "error"
    },
    {
      "inputs": [],
      "name": "RequestIsAlreadyPending",
      "type": "error"
    },
    {
      "inputs": [],
      "name": "RequestIsNotPending",
      "type": "error"
    },
    {
      "inputs": [],
      "name": "SenderIsNotRegistry",
      "type": "error"
    },
    {
      "anonymous": false,
      "inputs": [
        {
          "indexed": true,
          "internalType": "bytes32",
          "name": "requestId",
          "type": "bytes32"
        },
        {
          "indexed": false,
          "internalType": "bytes",
          "name": "result",
          "type": "bytes"
        },
        {
          "indexed": false,
          "internalType": "bytes",
          "name": "err",
          "type": "bytes"
        }
      ],
      "name": "OCRResponse",
      "type": "event"
    },
    {
      "anonymous": false,
      "inputs": [
        {
          "indexed": true,
          "internalType": "address",
          "name": "from",
          "type": "address"
        },
        {
          "indexed": true,
          "internalType": "address",
          "name": "to",
          "type": "address"
        }
      ],
      "name": "OwnershipTransferRequested",
      "type": "event"
    },
    {
      "anonymous": false,
      "inputs": [
        {
          "indexed": true,
          "internalType": "address",
          "name": "from",
          "type": "address"
        },
        {
          "indexed": true,
          "internalType": "address",
          "name": "to",
          "type": "address"
        }
      ],
      "name": "OwnershipTransferred",
      "type": "event"
    },
    {
      "anonymous": false,
      "inputs": [
        {
          "indexed": true,
          "internalType": "bytes32",
          "name": "id",
          "type": "bytes32"
        }
      ],
      "name": "RequestFulfilled",
      "type": "event"
    },
    {
      "anonymous": false,
      "inputs": [
        {
          "indexed": true,
          "internalType": "bytes32",
          "name": "id",
          "type": "bytes32"
        }
      ],
      "name": "RequestSent",
      "type": "event"
    },
    {
      "inputs": [],
      "name": "acceptOwnership",
      "outputs": [],
      "stateMutability": "nonpayable",
      "type": "function"
    },
    {
      "inputs": [
        {
          "internalType": "address",
          "name": "oracleAddress",
          "type": "address"
        },
        {
          "internalType": "bytes32",
          "name": "requestId",
          "type": "bytes32"
        }
      ],
      "name": "addSimulatedRequestId",
      "outputs": [],
      "stateMutability": "nonpayable",
      "type": "function"
    },
    {
      "inputs": [],
      "name": "checkInsuranceData",
      "outputs": [
        {
          "internalType": "bool",
          "name": "",
          "type": "bool"
        }
      ],
      "stateMutability": "view",
      "type": "function"
    },
    {
      "inputs": [],
      "name": "currentTime",
      "outputs": [
        {
          "internalType": "uint256",
          "name": "",
          "type": "uint256"
        }
      ],
      "stateMutability": "view",
      "type": "function"
    },
    {
      "inputs": [
        {
          "components": [
            {
              "internalType": "enum Functions.Location",
              "name": "codeLocation",
              "type": "uint8"
            },
            {
              "internalType": "enum Functions.Location",
              "name": "secretsLocation",
              "type": "uint8"
            },
            {
              "internalType": "enum Functions.CodeLanguage",
              "name": "language",
              "type": "uint8"
            },
            {
              "internalType": "string",
              "name": "source",
              "type": "string"
            },
            {
              "internalType": "bytes",
              "name": "secrets",
              "type": "bytes"
            },
            {
              "internalType": "string[]",
              "name": "args",
              "type": "string[]"
            }
          ],
          "internalType": "struct Functions.Request",
          "name": "req",
          "type": "tuple"
        },
        {
          "internalType": "uint64",
          "name": "subscriptionId",
          "type": "uint64"
        },
        {
          "internalType": "uint32",
          "name": "gasLimit",
          "type": "uint32"
        },
        {
          "internalType": "uint256",
          "name": "gasPrice",
          "type": "uint256"
        }
      ],
      "name": "estimateCost",
      "outputs": [
        {
          "internalType": "uint96",
          "name": "",
          "type": "uint96"
        }
      ],
      "stateMutability": "view",
      "type": "function"
    },
    {
      "inputs": [
        {
          "internalType": "string",
          "name": "source",
          "type": "string"
        },
        {
          "internalType": "bytes",
          "name": "secrets",
          "type": "bytes"
        },
        {
          "internalType": "string[]",
          "name": "args",
          "type": "string[]"
        },
        {
          "internalType": "uint64",
          "name": "subscriptionId",
          "type": "uint64"
        },
        {
          "internalType": "uint32",
          "name": "gasLimit",
          "type": "uint32"
        }
      ],
      "name": "estimateInsurance",
      "outputs": [
        {
          "internalType": "bytes32",
          "name": "",
          "type": "bytes32"
        }
      ],
      "stateMutability": "payable",
      "type": "function"
    },
    {
      "inputs": [],
      "name": "getCurrentTime",
      "outputs": [
        {
          "internalType": "uint256",
          "name": "",
          "type": "uint256"
        }
      ],
      "stateMutability": "view",
      "type": "function"
    },
    {
      "inputs": [],
      "name": "getDONPublicKey",
      "outputs": [
        {
          "internalType": "bytes",
          "name": "",
          "type": "bytes"
        }
      ],
      "stateMutability": "view",
      "type": "function"
    },
    {
      "inputs": [],
      "name": "getLatestPrice",
      "outputs": [
        {
          "internalType": "int256",
          "name": "",
          "type": "int256"
        }
      ],
      "stateMutability": "view",
      "type": "function"
    },
    {
      "inputs": [],
      "name": "getRandomWords",
      "outputs": [
        {
          "internalType": "bytes",
          "name": "",
          "type": "bytes"
        }
      ],
      "stateMutability": "nonpayable",
      "type": "function"
    },
    {
      "inputs": [
        {
          "internalType": "bytes32",
          "name": "requestId",
          "type": "bytes32"
        },
        {
          "internalType": "bytes",
          "name": "response",
          "type": "bytes"
        },
        {
          "internalType": "bytes",
          "name": "err",
          "type": "bytes"
        }
      ],
      "name": "handleOracleFulfillment",
      "outputs": [],
      "stateMutability": "nonpayable",
      "type": "function"
    },
    {
      "inputs": [],
      "name": "helloWorld",
      "outputs": [
        {
          "internalType": "string",
          "name": "",
          "type": "string"
        }
      ],
      "stateMutability": "view",
      "type": "function"
    },
    {
      "inputs": [
        {
          "internalType": "address",
          "name": "",
          "type": "address"
        },
        {
          "internalType": "uint256",
          "name": "",
          "type": "uint256"
        }
      ],
      "name": "insuranceDataMapping",
      "outputs": [
        {
          "internalType": "string",
          "name": "latNe",
          "type": "string"
        },
        {
          "internalType": "string",
          "name": "longNe",
          "type": "string"
        },
        {
          "internalType": "string",
          "name": "latSe",
          "type": "string"
        },
        {
          "internalType": "string",
          "name": "longSe",
          "type": "string"
        },
        {
          "internalType": "string",
          "name": "latSw",
          "type": "string"
        },
        {
          "internalType": "string",
          "name": "longSw",
          "type": "string"
        },
        {
          "internalType": "string",
          "name": "latNw",
          "type": "string"
        },
        {
          "internalType": "string",
          "name": "longNw",
          "type": "string"
        },
        {
          "internalType": "string",
          "name": "configParam",
          "type": "string"
        },
        {
          "internalType": "string",
          "name": "currentDay",
          "type": "string"
        },
        {
          "internalType": "string",
          "name": "startDay",
          "type": "string"
        },
        {
          "internalType": "string",
          "name": "endDay",
          "type": "string"
        }
      ],
      "stateMutability": "view",
      "type": "function"
    },
    {
      "inputs": [],
      "name": "latestError",
      "outputs": [
        {
          "internalType": "bytes",
          "name": "",
          "type": "bytes"
        }
      ],
      "stateMutability": "view",
      "type": "function"
    },
    {
      "inputs": [],
      "name": "latestRequestId",
      "outputs": [
        {
          "internalType": "bytes32",
          "name": "",
          "type": "bytes32"
        }
      ],
      "stateMutability": "view",
      "type": "function"
    },
    {
      "inputs": [],
      "name": "latestResponse",
      "outputs": [
        {
          "internalType": "bytes",
          "name": "",
          "type": "bytes"
        }
      ],
      "stateMutability": "view",
      "type": "function"
    },
    {
      "inputs": [],
      "name": "owner",
      "outputs": [
        {
          "internalType": "address",
          "name": "",
          "type": "address"
        }
      ],
      "stateMutability": "view",
      "type": "function"
    },
    {
      "inputs": [],
      "name": "priceFeed",
      "outputs": [
        {
          "internalType": "contract PriceConsumerV3",
          "name": "",
          "type": "address"
        }
      ],
      "stateMutability": "view",
      "type": "function"
    },
    {
      "inputs": [],
      "name": "randomFeed",
      "outputs": [
        {
          "internalType": "contract VRFv2Consumer",
          "name": "",
          "type": "address"
        }
      ],
      "stateMutability": "view",
      "type": "function"
    },
    {
      "inputs": [
        {
          "internalType": "uint256",
          "name": "requestId",
          "type": "uint256"
        },
        {
          "internalType": "uint256[]",
          "name": "randomWords",
          "type": "uint256[]"
        }
      ],
      "name": "receiveRandomness",
      "outputs": [],
      "stateMutability": "nonpayable",
      "type": "function"
    },
    {
      "inputs": [
        {
          "internalType": "address",
          "name": "to",
          "type": "address"
        }
      ],
      "name": "transferOwnership",
      "outputs": [],
      "stateMutability": "nonpayable",
      "type": "function"
    },
    {
      "inputs": [
        {
          "internalType": "address",
          "name": "oracle",
          "type": "address"
        }
      ],
      "name": "updateOracleAddress",
      "outputs": [],
      "stateMutability": "nonpayable",
      "type": "function"
    }
  ],
  "bytecode": "0x6080604052426009553480156200001557600080fd5b5060405162003eb938038062003eb98339810160408190526200003891620001eb565b600080546001600160a01b0319166001600160a01b038516178155339081906001600160a01b038216620000b35760405162461bcd60e51b815260206004820152601860248201527f43616e6e6f7420736574206f776e657220746f207a65726f000000000000000060448201526064015b60405180910390fd5b600280546001600160a01b0319166001600160a01b0384811691909117909155811615620000e657620000e68162000121565b5050600480546001600160a01b039485166001600160a01b031991821617909155600580549390941692169190911790915550620002359050565b6001600160a01b0381163314156200017c5760405162461bcd60e51b815260206004820152601760248201527f43616e6e6f74207472616e7366657220746f2073656c660000000000000000006044820152606401620000aa565b600380546001600160a01b0319166001600160a01b03838116918217909255600254604051919216907fed8889f560326eb138920d842192f0eb3dd22b4f139c87a2c57538e05bae127890600090a350565b80516001600160a01b0381168114620001e657600080fd5b919050565b6000806000606084860312156200020157600080fd5b6200020c84620001ce565b92506200021c60208501620001ce565b91506200022c60408501620001ce565b90509250925092565b613c7480620002456000396000f3fe6080604052600436106101755760003560e01c8063985454ff116100cb578063d328a91e1161007f578063f2fde38b11610059578063f2fde38b146103de578063f7023bb6146103fe578063fffeb84e1461041e57600080fd5b8063d328a91e14610367578063d4b391751461037c578063e0919101146103b957600080fd5b8063c605f76c116100b0578063c605f76c14610327578063ce10b1fb1461033c578063d18e81b31461035157600080fd5b8063985454ff146102f2578063bef3a2f01461030557600080fd5b806330bda99d1161012d57806379ba50971161010757806379ba5097146102aa5780638da5cb5b146102bf5780638e15f473146102dd57600080fd5b806330bda99d1461024a57806337f9c70d1461026a578063741bef1a1461028a57600080fd5b80631aa46f591161015e5780631aa46f59146101d95780632142735a146101fd57806329cb924d1461023557600080fd5b80630ca761751461017a578063126455dd1461019c575b600080fd5b34801561018657600080fd5b5061019a610195366004613371565b610433565b005b3480156101a857600080fd5b506005546101bc906001600160a01b031681565b6040516001600160a01b0390911681526020015b60405180910390f35b3480156101e557600080fd5b506101ef60065481565b6040519081526020016101d0565b34801561020957600080fd5b5061021d61021836600461332c565b6104d9565b6040516101d09c9b9a9998979695949392919061377f565b34801561024157600080fd5b506009546101ef565b34801561025657600080fd5b5061019a61026536600461332c565b610bb6565b34801561027657600080fd5b5061019a610285366004613649565b610bcc565b34801561029657600080fd5b506004546101bc906001600160a01b031681565b3480156102b657600080fd5b5061019a610dde565b3480156102cb57600080fd5b506002546001600160a01b03166101bc565b3480156102e957600080fd5b506101ef610e93565b6101ef61030036600461344c565b610f20565b34801561031157600080fd5b5061031a611765565b6040516101d09190613747565b34801561033357600080fd5b5061031a6117f3565b34801561034857600080fd5b5061031a61186b565b34801561035d57600080fd5b506101ef60095481565b34801561037357600080fd5b5061031a611a44565b34801561038857600080fd5b5061039c610397366004613537565b611add565b6040516bffffffffffffffffffffffff90911681526020016101d0565b3480156103c557600080fd5b506103ce611b73565b60405190151581526020016101d0565b3480156103ea57600080fd5b5061019a6103f93660046132f2565b6123ef565b34801561040a57600080fd5b5061019a6104193660046132f2565b612403565b34801561042a57600080fd5b5061031a612429565b60008381526001602052604090205483906001600160a01b03163314610485576040517fa0c5ec6300000000000000000000000000000000000000000000000000000000815260040160405180910390fd5b60008181526001602052604080822080546001600160a01b03191690555182917f85e1543bf2f84fe80c6badbce3648c8539ad1df4d2b3d822938ca0538be727e691a26104d3848484612436565b50505050565b600a60205281600052604060002081815481106104f557600080fd5b90600052602060002090600d02016000915091505080600001805461051990613b59565b80601f016020809104026020016040519081016040528092919081815260200182805461054590613b59565b80156105925780601f1061056757610100808354040283529160200191610592565b820191906000526020600020905b81548152906001019060200180831161057557829003601f168201915b5050505050908060010180546105a790613b59565b80601f01602080910402602001604051908101604052809291908181526020018280546105d390613b59565b80156106205780601f106105f557610100808354040283529160200191610620565b820191906000526020600020905b81548152906001019060200180831161060357829003601f168201915b50505050509080600201805461063590613b59565b80601f016020809104026020016040519081016040528092919081815260200182805461066190613b59565b80156106ae5780601f10610683576101008083540402835291602001916106ae565b820191906000526020600020905b81548152906001019060200180831161069157829003601f168201915b5050505050908060030180546106c390613b59565b80601f01602080910402602001604051908101604052809291908181526020018280546106ef90613b59565b801561073c5780601f106107115761010080835404028352916020019161073c565b820191906000526020600020905b81548152906001019060200180831161071f57829003601f168201915b50505050509080600401805461075190613b59565b80601f016020809104026020016040519081016040528092919081815260200182805461077d90613b59565b80156107ca5780601f1061079f576101008083540402835291602001916107ca565b820191906000526020600020905b8154815290600101906020018083116107ad57829003601f168201915b5050505050908060050180546107df90613b59565b80601f016020809104026020016040519081016040528092919081815260200182805461080b90613b59565b80156108585780601f1061082d57610100808354040283529160200191610858565b820191906000526020600020905b81548152906001019060200180831161083b57829003601f168201915b50505050509080600601805461086d90613b59565b80601f016020809104026020016040519081016040528092919081815260200182805461089990613b59565b80156108e65780601f106108bb576101008083540402835291602001916108e6565b820191906000526020600020905b8154815290600101906020018083116108c957829003601f168201915b5050505050908060070180546108fb90613b59565b80601f016020809104026020016040519081016040528092919081815260200182805461092790613b59565b80156109745780601f1061094957610100808354040283529160200191610974565b820191906000526020600020905b81548152906001019060200180831161095757829003601f168201915b50505050509080600801805461098990613b59565b80601f01602080910402602001604051908101604052809291908181526020018280546109b590613b59565b8015610a025780601f106109d757610100808354040283529160200191610a02565b820191906000526020600020905b8154815290600101906020018083116109e557829003601f168201915b505050505090806009018054610a1790613b59565b80601f0160208091040260200160405190810160405280929190818152602001828054610a4390613b59565b8015610a905780601f10610a6557610100808354040283529160200191610a90565b820191906000526020600020905b815481529060010190602001808311610a7357829003601f168201915b50505050509080600a018054610aa590613b59565b80601f0160208091040260200160405190810160405280929190818152602001828054610ad190613b59565b8015610b1e5780601f10610af357610100808354040283529160200191610b1e565b820191906000526020600020905b815481529060010190602001808311610b0157829003601f168201915b50505050509080600b018054610b3390613b59565b80601f0160208091040260200160405190810160405280929190818152602001828054610b5f90613b59565b8015610bac5780601f10610b8157610100808354040283529160200191610bac565b820191906000526020600020905b815481529060010190602001808311610b8f57829003601f168201915b505050505090508c565b610bbe61249d565b610bc882826124f9565b5050565b6005546001600160a01b03163314610c515760405162461bcd60e51b815260206004820152602960248201527f4f6e6c79205652467632436f6e73756d65722063616e2063616c6c207468697360448201527f2066756e6374696f6e000000000000000000000000000000000000000000000060648201526084015b60405180910390fd5b8051600314610cc85760405162461bcd60e51b815260206004820152602360248201527f556e6578706563746564206e756d626572206f662072616e646f6d206e756d6260448201527f65727300000000000000000000000000000000000000000000000000000000006064820152608401610c48565b336000908152600a602052604090208054610d4b5760405162461bcd60e51b815260206004820152602e60248201527f4e6f20696e737572616e6365206461746120666f756e6420666f72207468652060448201527f726571756573742073656e6465720000000000000000000000000000000000006064820152608401610c48565b80546000908290610d5e90600190613b09565b81548110610d6e57610d6e613bfd565b90600052602060002090600d0201905060005b6003811015610dd757838181518110610d9c57610d9c613bfd565b602002602001015182600c018281548110610db957610db9613bfd565b60009182526020909120015580610dcf81613b94565b915050610d81565b5050505050565b6003546001600160a01b03163314610e385760405162461bcd60e51b815260206004820152601660248201527f4d7573742062652070726f706f736564206f776e6572000000000000000000006044820152606401610c48565b600280546001600160a01b0319808216339081179093556003805490911690556040516001600160a01b03909116919082907f8be0079c531659141344cd1fd0a4f28419497f9722a3daafe3b4186f6b6457e090600090a350565b6000600460009054906101000a90046001600160a01b03166001600160a01b0316638e15f4736040518163ffffffff1660e01b815260040160206040518083038186803b158015610ee357600080fd5b505afa158015610ef7573d6000803e3d6000fd5b505050506040513d601f19601f82011682018060405250810190610f1b9190613358565b905090565b6000600c8414610f725760405162461bcd60e51b815260206004820152601b60248201527f496e76616c6964206e756d626572206f6620617267756d656e747300000000006044820152606401610c48565b610fb06040518060400160405280601581526020017f476f7420746865206c6174657374207072696365210000000000000000000000815250612579565b336000908152600a6020526040812080549091906116215781604051806101a0016040528089896000818110610fe857610fe8613bfd565b9050602002810190610ffa91906138fa565b8080601f0160208091040260200160405190810160405280939291908181526020018383808284376000920191909152505050908252506020018989600181811061104757611047613bfd565b905060200281019061105991906138fa565b8080601f016020809104026020016040519081016040528093929190818152602001838380828437600092019190915250505090825250602001898960028181106110a6576110a6613bfd565b90506020028101906110b891906138fa565b8080601f0160208091040260200160405190810160405280939291908181526020018383808284376000920191909152505050908252506020018989600381811061110557611105613bfd565b905060200281019061111791906138fa565b8080601f0160208091040260200160405190810160405280939291908181526020018383808284376000920191909152505050908252506020018989600481811061116457611164613bfd565b905060200281019061117691906138fa565b8080601f016020809104026020016040519081016040528093929190818152602001838380828437600092019190915250505090825250602001898960058181106111c3576111c3613bfd565b90506020028101906111d591906138fa565b8080601f0160208091040260200160405190810160405280939291908181526020018383808284376000920191909152505050908252506020018989600681811061122257611222613bfd565b905060200281019061123491906138fa565b8080601f0160208091040260200160405190810160405280939291908181526020018383808284376000920191909152505050908252506020018989600781811061128157611281613bfd565b905060200281019061129391906138fa565b8080601f016020809104026020016040519081016040528093929190818152602001838380828437600092019190915250505090825250602001898960088181106112e0576112e0613bfd565b90506020028101906112f291906138fa565b8080601f0160208091040260200160405190810160405280939291908181526020018383808284376000920191909152505050908252506020018989600981811061133f5761133f613bfd565b905060200281019061135191906138fa565b8080601f0160208091040260200160405190810160405280939291908181526020018383808284376000920191909152505050908252506020018989600a81811061139e5761139e613bfd565b90506020028101906113b091906138fa565b8080601f0160208091040260200160405190810160405280939291908181526020018383808284376000920191909152505050908252506020018989600b8181106113fd576113fd613bfd565b905060200281019061140f91906138fa565b8080601f016020809104026020016040519081016040528093929190818152602001838380828437600092019190915250505090825250604080516003808252608082019092526020928301929091908201606080368337505050905281546001810183556000928352602092839020825180519394600d9093029091019261149b9284920190613061565b5060208281015180516114b49260018501920190613061565b50604082015180516114d0916002840191602090910190613061565b50606082015180516114ec916003840191602090910190613061565b5060808201518051611508916004840191602090910190613061565b5060a08201518051611524916005840191602090910190613061565b5060c08201518051611540916006840191602090910190613061565b5060e0820151805161155c916007840191602090910190613061565b506101008201518051611579916008840191602090910190613061565b506101208201518051611596916009840191602090910190613061565b5061014082015180516115b391600a840191602090910190613061565b5061016082015180516115d091600b840191602090910190613061565b5061018082015180516115ed91600c8401916020909101906130e5565b5050825483915061160090600190613b09565b8154811061161057611610613bfd565b90600052602060002090600d020190505b61165f6040518060400160405280600a81526020017f6174207265717565737400000000000000000000000000000000000000000000815250612579565b6116996040805160c08101909152806000815260200160008152602001600081526020016060815260200160608152602001606081525090565b6116e06000808e8e8080601f016020809104026020016040519081016040528093929190818152602001838380828437600092019190915250879594939250506125ea9050565b8815611728576117288a8a8080601f016020809104026020016040519081016040528093929190818152602001838380828437600092019190915250859392505061267e9050565b86156117425761174261173b888a613b20565b82906126c5565b600061174f828888612705565b60068190559d9c50505050505050505050505050565b6007805461177290613b59565b80601f016020809104026020016040519081016040528092919081815260200182805461179e90613b59565b80156117eb5780601f106117c0576101008083540402835291602001916117eb565b820191906000526020600020905b8154815290600101906020018083116117ce57829003601f168201915b505050505081565b60606118336040518060400160405280600481526020017f5465737400000000000000000000000000000000000000000000000000000000815250612579565b5060408051808201909152600c81527f48656c6c6f20576f726c64210000000000000000000000000000000000000000602082015290565b336000818152600a60205260409020805460609291906118f25760405162461bcd60e51b8152602060048201526024808201527f4e6f20696e737572616e6365206461746120666f756e6420666f72207468652060448201527f75736572000000000000000000000000000000000000000000000000000000006064820152608401610c48565b8054600090829061190590600190613b09565b8154811061191557611915613bfd565b600091825260208220600d909102019150600c8201905b81548110156119b35781818154811061194757611947613bfd565b90600052602060002001546000146119a15760405162461bcd60e51b815260206004820152601c60248201527f4e6f6e2d7a65726f2072616e646f6d20706f696e747320666f756e64000000006044820152606401610c48565b806119ab81613b94565b91505061192c565b50600560009054906101000a90046001600160a01b03166001600160a01b031663e0c862896040518163ffffffff1660e01b8152600401602060405180830381600087803b158015611a0457600080fd5b505af1158015611a18573d6000803e3d6000fd5b505050506040513d601f19601f82011682018060405250810190611a3c9190613358565b505050505090565b60008054604080517fd328a91e00000000000000000000000000000000000000000000000000000000815290516060936001600160a01b039093169263d328a91e9260048082019391829003018186803b158015611aa157600080fd5b505afa158015611ab5573d6000803e3d6000fd5b505050506040513d6000823e601f3d908101601f19168201604052610f1b91908101906133de565b600080546001600160a01b031663d227d24585611af988612877565b86866040518563ffffffff1660e01b8152600401611b1a94939291906138be565b60206040518083038186803b158015611b3257600080fd5b505afa158015611b46573d6000803e3d6000fd5b505050506040513d601f19601f82011682018060405250810190611b6a91906136ed565b95945050505050565b336000908152600a602052604081208054611bd05760405162461bcd60e51b815260206004820152601760248201527f4e6f20696e737572616e6365206461746120666f756e640000000000000000006044820152606401610c48565b60005b81548110156123e6576000828281548110611bf057611bf0613bfd565b90600052602060002090600d0201604051806101a0016040529081600082018054611c1a90613b59565b80601f0160208091040260200160405190810160405280929190818152602001828054611c4690613b59565b8015611c935780601f10611c6857610100808354040283529160200191611c93565b820191906000526020600020905b815481529060010190602001808311611c7657829003601f168201915b50505050508152602001600182018054611cac90613b59565b80601f0160208091040260200160405190810160405280929190818152602001828054611cd890613b59565b8015611d255780601f10611cfa57610100808354040283529160200191611d25565b820191906000526020600020905b815481529060010190602001808311611d0857829003601f168201915b50505050508152602001600282018054611d3e90613b59565b80601f0160208091040260200160405190810160405280929190818152602001828054611d6a90613b59565b8015611db75780601f10611d8c57610100808354040283529160200191611db7565b820191906000526020600020905b815481529060010190602001808311611d9a57829003601f168201915b50505050508152602001600382018054611dd090613b59565b80601f0160208091040260200160405190810160405280929190818152602001828054611dfc90613b59565b8015611e495780601f10611e1e57610100808354040283529160200191611e49565b820191906000526020600020905b815481529060010190602001808311611e2c57829003601f168201915b50505050508152602001600482018054611e6290613b59565b80601f0160208091040260200160405190810160405280929190818152602001828054611e8e90613b59565b8015611edb5780601f10611eb057610100808354040283529160200191611edb565b820191906000526020600020905b815481529060010190602001808311611ebe57829003601f168201915b50505050508152602001600582018054611ef490613b59565b80601f0160208091040260200160405190810160405280929190818152602001828054611f2090613b59565b8015611f6d5780601f10611f4257610100808354040283529160200191611f6d565b820191906000526020600020905b815481529060010190602001808311611f5057829003601f168201915b50505050508152602001600682018054611f8690613b59565b80601f0160208091040260200160405190810160405280929190818152602001828054611fb290613b59565b8015611fff5780601f10611fd457610100808354040283529160200191611fff565b820191906000526020600020905b815481529060010190602001808311611fe257829003601f168201915b5050505050815260200160078201805461201890613b59565b80601f016020809104026020016040519081016040528092919081815260200182805461204490613b59565b80156120915780601f1061206657610100808354040283529160200191612091565b820191906000526020600020905b81548152906001019060200180831161207457829003601f168201915b505050505081526020016008820180546120aa90613b59565b80601f01602080910402602001604051908101604052809291908181526020018280546120d690613b59565b80156121235780601f106120f857610100808354040283529160200191612123565b820191906000526020600020905b81548152906001019060200180831161210657829003601f168201915b5050505050815260200160098201805461213c90613b59565b80601f016020809104026020016040519081016040528092919081815260200182805461216890613b59565b80156121b55780601f1061218a576101008083540402835291602001916121b5565b820191906000526020600020905b81548152906001019060200180831161219857829003601f168201915b50505050508152602001600a820180546121ce90613b59565b80601f01602080910402602001604051908101604052809291908181526020018280546121fa90613b59565b80156122475780601f1061221c57610100808354040283529160200191612247565b820191906000526020600020905b81548152906001019060200180831161222a57829003601f168201915b50505050508152602001600b8201805461226090613b59565b80601f016020809104026020016040519081016040528092919081815260200182805461228c90613b59565b80156122d95780601f106122ae576101008083540402835291602001916122d9565b820191906000526020600020905b8154815290600101906020018083116122bc57829003601f168201915b50505050508152602001600c820180548060200260200160405190810160405280929190818152602001828054801561233157602002820191906000526020600020905b81548152602001906001019080831161231d575b50505050508152505090508060c0015151600014158015612356575060e08101515115155b8015612363575080515115155b8015612373575060208101515115155b8015612383575060408101515115155b8015612393575060608101515115155b80156123a3575060808101515115155b80156123b3575060a08101515115155b80156123c457506101008101515115155b156123d3576001935050505090565b50806123de81613b94565b915050611bd3565b50600091505090565b6123f761249d565b61240081612b43565b50565b61240b61249d565b600080546001600160a01b0319166001600160a01b03831617905550565b6008805461177290613b59565b8151612449906007906020850190613061565b50805161245d906008906020840190613061565b50827f7bab0ec163b5c132c72b8146ac4d6e067e82ed58f8b131150aa71c9258911562838360405161249092919061375a565b60405180910390a2505050565b6002546001600160a01b031633146124f75760405162461bcd60e51b815260206004820152601660248201527f4f6e6c792063616c6c61626c65206279206f776e6572000000000000000000006044820152606401610c48565b565b60008181526001602052604090205481906001600160a01b03161561254a576040517f8b457ad200000000000000000000000000000000000000000000000000000000815260040160405180910390fd5b50600090815260016020526040902080546001600160a01b0319166001600160a01b0392909216919091179055565b6124008160405160240161258d9190613747565b60408051601f198184030181529190526020810180517bffffffffffffffffffffffffffffffffffffffffffffffffffffffff167f41304fac00000000000000000000000000000000000000000000000000000000179052612bee565b8051612622576040517f22ce3edd00000000000000000000000000000000000000000000000000000000815260040160405180910390fd5b8383600181111561263557612635613be7565b9081600181111561264857612648613be7565b9052506040840182801561265e5761265e613be7565b9081801561266e5761266e613be7565b9052506060909301929092525050565b80516126b6576040517fe889636f00000000000000000000000000000000000000000000000000000000815260040160405180910390fd5b60016020830152608090910152565b80516126fd576040517ffe936cb700000000000000000000000000000000000000000000000000000000815260040160405180910390fd5b60a090910152565b6000805481906001600160a01b03166328242b048561272388612877565b866040518463ffffffff1660e01b815260040161274293929190613885565b602060405180830381600087803b15801561275c57600080fd5b505af1158015612770573d6000803e3d6000fd5b505050506040513d601f19601f820116820180604052508101906127949190613358565b905060008054906101000a90046001600160a01b03166001600160a01b0316635ab1bd536040518163ffffffff1660e01b815260040160206040518083038186803b1580156127e257600080fd5b505afa1580156127f6573d6000803e3d6000fd5b505050506040513d601f19601f8201168201806040525081019061281a919061330f565b60008281526001602052604080822080546001600160a01b0319166001600160a01b039490941693909317909255905182917f1131472297a800fee664d1d89cfa8f7676ff07189ecc53f80bbb5f4969099db891a2949350505050565b606061288161311f565b805161288f90610100612c0f565b506128cf816040518060400160405280600c81526020017f636f64654c6f636174696f6e0000000000000000000000000000000000000000815250612c89565b6128ee81846000015160018111156128e9576128e9613be7565b612ca7565b61292d816040518060400160405280600881526020017f6c616e6775616765000000000000000000000000000000000000000000000000815250612c89565b61294781846040015160008111156128e9576128e9613be7565b612986816040518060400160405280600681526020017f736f757263650000000000000000000000000000000000000000000000000000815250612c89565b612994818460600151612c89565b60a08301515115612a3a576129de816040518060400160405280600481526020017f6172677300000000000000000000000000000000000000000000000000000000815250612c89565b6129e781612ce0565b60005b8360a0015151811015612a3057612a1e828560a001518381518110612a1157612a11613bfd565b6020026020010151612c89565b80612a2881613b94565b9150506129ea565b50612a3a81612d04565b60808301515115612b3b57600083602001516001811115612a5d57612a5d613be7565b1415612a95576040517fa80d31f700000000000000000000000000000000000000000000000000000000815260040160405180910390fd5b612ad4816040518060400160405280600f81526020017f736563726574734c6f636174696f6e0000000000000000000000000000000000815250612c89565b612aee81846020015160018111156128e9576128e9613be7565b612b2d816040518060400160405280600781526020017f7365637265747300000000000000000000000000000000000000000000000000815250612c89565b612b3b818460800151612d22565b515192915050565b6001600160a01b038116331415612b9c5760405162461bcd60e51b815260206004820152601760248201527f43616e6e6f74207472616e7366657220746f2073656c660000000000000000006044820152606401610c48565b600380546001600160a01b0319166001600160a01b03838116918217909255600254604051919216907fed8889f560326eb138920d842192f0eb3dd22b4f139c87a2c57538e05bae127890600090a350565b80516a636f6e736f6c652e6c6f67602083016000808483855afa5050505050565b604080518082019091526060815260006020820152612c2f602083613baf565b15612c5757612c3f602083613baf565b612c4a906020613b09565b612c5490836139e7565b91505b602080840183905260405180855260008152908184010181811015612c7b57600080fd5b604052508290505b92915050565b612c968260038351612d2b565b8151612ca29082612e4c565b505050565b8151612cb49060c2612e74565b50610bc88282604051602001612ccc91815260200190565b604051602081830303815290604052612d22565b612ceb816004612edd565b600181602001818151612cfe91906139e7565b90525050565b612d0f816007612edd565b600181602001818151612cfe9190613b09565b612c9682600283515b60178167ffffffffffffffff1611612d525782516104d39060e0600585901b168317612e74565b60ff8167ffffffffffffffff1611612d94578251612d7b906018611fe0600586901b1617612e74565b5082516104d39067ffffffffffffffff83166001612ef4565b61ffff8167ffffffffffffffff1611612dd7578251612dbe906019611fe0600586901b1617612e74565b5082516104d39067ffffffffffffffff83166002612ef4565b63ffffffff8167ffffffffffffffff1611612e1c578251612e0390601a611fe0600586901b1617612e74565b5082516104d39067ffffffffffffffff83166004612ef4565b8251612e3390601b611fe0600586901b1617612e74565b5082516104d39067ffffffffffffffff83166008612ef4565b604080518082019091526060815260006020820152612e6d83838451612f79565b9392505050565b6040805180820190915260608152600060208201528251516000612e998260016139e7565b905084602001518210612eba57612eba85612eb5836002613aea565b61304a565b8451602083820101858153508051821115612ed3578181525b5093949350505050565b8151612ca290601f611fe0600585901b1617612e74565b6040805180820190915260608152600060208201528351516000612f1882856139e7565b90508560200151811115612f3557612f3586612eb5836002613aea565b60006001612f4586610100613a42565b612f4f9190613b09565b90508651828101878319825116178152508051831115612f6d578281525b50959695505050505050565b6040805180820190915260608152600060208201528251821115612f9c57600080fd5b8351516000612fab84836139e7565b90508560200151811115612fc857612fc886612eb5836002613aea565b855180518382016020019160009180851115612fe2578482525b505050602086015b6020861061302257805182526130016020836139e7565b915061300e6020826139e7565b905061301b602087613b09565b9550612fea565b51815160001960208890036101000a0190811690199190911617905250849150509392505050565b81516130568383612c0f565b506104d38382612e4c565b82805461306d90613b59565b90600052602060002090601f01602090048101928261308f57600085556130d5565b82601f106130a857805160ff19168380011785556130d5565b828001600101855582156130d5579182015b828111156130d55782518255916020019190600101906130ba565b506130e1929150613154565b5090565b8280548282559060005260206000209081019282156130d557916020028201828111156130d55782518255916020019190600101906130ba565b6040518060400160405280613147604051806040016040528060608152602001600081525090565b8152602001600081525090565b5b808211156130e15760008155600101613155565b600061317c6131778461399b565b61396a565b9050808382526020808301915083868660051b8601111561319c57600080fd5b6000805b878110156131dd57823567ffffffffffffffff8111156131be578283fd5b6131ca8a828a01613252565b86525093830193918301916001016131a0565b50505050509392505050565b600082601f8301126131fa57600080fd5b612e6d83833560208501613169565b60008083601f84011261321b57600080fd5b50813567ffffffffffffffff81111561323357600080fd5b60208301915083602082850101111561324b57600080fd5b9250929050565b600082601f83011261326357600080fd5b8135613271613177826139bf565b81815284602083860101111561328657600080fd5b816020850160208301376000918101602001919091529392505050565b8035600181106132b257600080fd5b919050565b8035600281106132b257600080fd5b803563ffffffff811681146132b257600080fd5b803567ffffffffffffffff811681146132b257600080fd5b60006020828403121561330457600080fd5b8135612e6d81613c29565b60006020828403121561332157600080fd5b8151612e6d81613c29565b6000806040838503121561333f57600080fd5b823561334a81613c29565b946020939093013593505050565b60006020828403121561336a57600080fd5b5051919050565b60008060006060848603121561338657600080fd5b83359250602084013567ffffffffffffffff808211156133a557600080fd5b6133b187838801613252565b935060408601359150808211156133c757600080fd5b506133d486828701613252565b9150509250925092565b6000602082840312156133f057600080fd5b815167ffffffffffffffff81111561340757600080fd5b8201601f8101841361341857600080fd5b8051613426613177826139bf565b81815285602083850101111561343b57600080fd5b611b6a826020830160208601613b2d565b60008060008060008060008060a0898b03121561346857600080fd5b883567ffffffffffffffff8082111561348057600080fd5b61348c8c838d01613209565b909a50985060208b01359150808211156134a557600080fd5b6134b18c838d01613209565b909850965060408b01359150808211156134ca57600080fd5b818b0191508b601f8301126134de57600080fd5b8135818111156134ed57600080fd5b8c60208260051b850101111561350257600080fd5b60208301965080955050505061351a60608a016132da565b915061352860808a016132c6565b90509295985092959890939650565b6000806000806080858703121561354d57600080fd5b843567ffffffffffffffff8082111561356557600080fd5b9086019060c0828903121561357957600080fd5b613581613941565b61358a836132b7565b8152613598602084016132b7565b60208201526135a9604084016132a3565b60408201526060830135828111156135c057600080fd5b6135cc8a828601613252565b6060830152506080830135828111156135e457600080fd5b6135f08a828601613252565b60808301525060a08301358281111561360857600080fd5b6136148a8286016131e9565b60a083015250955061362b915050602086016132da565b9250613639604086016132c6565b9396929550929360600135925050565b6000806040838503121561365c57600080fd5b8235915060208084013567ffffffffffffffff81111561367b57600080fd5b8401601f8101861361368c57600080fd5b803561369a6131778261399b565b80828252848201915084840189868560051b87010111156136ba57600080fd5b600094505b838510156136dd5780358352600194909401939185019185016136bf565b5080955050505050509250929050565b6000602082840312156136ff57600080fd5b81516bffffffffffffffffffffffff81168114612e6d57600080fd5b60008151808452613733816020860160208601613b2d565b601f01601f19169290920160200192915050565b602081526000612e6d602083018461371b565b60408152600061376d604083018561371b565b8281036020840152611b6a818561371b565b6101808152600061379461018083018f61371b565b82810360208401526137a6818f61371b565b905082810360408401526137ba818e61371b565b905082810360608401526137ce818d61371b565b905082810360808401526137e2818c61371b565b905082810360a08401526137f6818b61371b565b905082810360c084015261380a818a61371b565b905082810360e084015261381e818961371b565b9050828103610100840152613833818861371b565b9050828103610120840152613848818761371b565b905082810361014084015261385d818661371b565b9050828103610160840152613872818561371b565b9f9e505050505050505050505050505050565b67ffffffffffffffff841681526060602082015260006138a8606083018561371b565b905063ffffffff83166040830152949350505050565b67ffffffffffffffff851681526080602082015260006138e1608083018661371b565b63ffffffff949094166040830152506060015292915050565b6000808335601e1984360301811261391157600080fd5b83018035915067ffffffffffffffff82111561392c57600080fd5b60200191503681900382131561324b57600080fd5b60405160c0810167ffffffffffffffff8111828210171561396457613964613c13565b60405290565b604051601f8201601f1916810167ffffffffffffffff8111828210171561399357613993613c13565b604052919050565b600067ffffffffffffffff8211156139b5576139b5613c13565b5060051b60200190565b600067ffffffffffffffff8211156139d9576139d9613c13565b50601f01601f191660200190565b600082198211156139fa576139fa613bd1565b500190565b600181815b80851115613a3a578160001904821115613a2057613a20613bd1565b80851615613a2d57918102915b93841c9390800290613a04565b509250929050565b6000612e6d8383600082613a5857506001612c83565b81613a6557506000612c83565b8160018114613a7b5760028114613a8557613aa1565b6001915050612c83565b60ff841115613a9657613a96613bd1565b50506001821b612c83565b5060208310610133831016604e8410600b8410161715613ac4575081810a612c83565b613ace83836139ff565b8060001904821115613ae257613ae2613bd1565b029392505050565b6000816000190483118215151615613b0457613b04613bd1565b500290565b600082821015613b1b57613b1b613bd1565b500390565b6000612e6d368484613169565b60005b83811015613b48578181015183820152602001613b30565b838111156104d35750506000910152565b600181811c90821680613b6d57607f821691505b60208210811415613b8e57634e487b7160e01b600052602260045260246000fd5b50919050565b6000600019821415613ba857613ba8613bd1565b5060010190565b600082613bcc57634e487b7160e01b600052601260045260246000fd5b500690565b634e487b7160e01b600052601160045260246000fd5b634e487b7160e01b600052602160045260246000fd5b634e487b7160e01b600052603260045260246000fd5b634e487b7160e01b600052604160045260246000fd5b6001600160a01b038116811461240057600080fdfea264697066735822122092d2310e4d7c8a3e438c8a2c0fef1c99f82a450b5455a65059648e77fe55279264736f6c63430008070033",
  "linkReferences": {},
  "deployedLinkReferences": {}
}