{
  "_format": "hh-sol-artifact-1",
  "contractName": "Insurance",
  "sourceName": "contracts/Insurance.sol",
  "abi": [
    {
      "inputs": [
        {
          "internalType": "address",
          "name": "oracle",
          "type": "address"
        },
        {
          "internalType": "address",
          "name": "linkMaticAddress",
          "type": "address"
        },
        {
          "internalType": "address",
          "name": "maticUsdAddress",
          "type": "address"
        },
        {
          "internalType": "uint64",
          "name": "subscriptionId",
          "type": "uint64"
        }
      ],
      "stateMutability": "nonpayable",
      "type": "constructor"
    },
    {
      "inputs": [],
      "name": "EmptyArgs",
      "type": "error"
    },
    {
      "inputs": [],
      "name": "EmptySource",
      "type": "error"
    },
    {
      "inputs": [],
      "name": "NoInlineSecrets",
      "type": "error"
    },
    {
      "inputs": [
        {
          "internalType": "address",
          "name": "have",
          "type": "address"
        },
        {
          "internalType": "address",
          "name": "want",
          "type": "address"
        }
      ],
      "name": "OnlyCoordinatorCanFulfill",
      "type": "error"
    },
    {
      "inputs": [],
      "name": "RequestIsAlreadyPending",
      "type": "error"
    },
    {
      "inputs": [],
      "name": "RequestIsNotPending",
      "type": "error"
    },
    {
      "inputs": [],
      "name": "SenderIsNotRegistry",
      "type": "error"
    },
    {
      "anonymous": false,
      "inputs": [
        {
          "indexed": true,
          "internalType": "bytes32",
          "name": "requestId",
          "type": "bytes32"
        }
      ],
      "name": "OCRRequest",
      "type": "event"
    },
    {
      "anonymous": false,
      "inputs": [
        {
          "indexed": true,
          "internalType": "bytes32",
          "name": "requestId",
          "type": "bytes32"
        },
        {
          "indexed": false,
          "internalType": "bytes",
          "name": "result",
          "type": "bytes"
        },
        {
          "indexed": false,
          "internalType": "bytes",
          "name": "err",
          "type": "bytes"
        }
      ],
      "name": "OCRResponse",
      "type": "event"
    },
    {
      "anonymous": false,
      "inputs": [
        {
          "indexed": true,
          "internalType": "address",
          "name": "from",
          "type": "address"
        },
        {
          "indexed": true,
          "internalType": "address",
          "name": "to",
          "type": "address"
        }
      ],
      "name": "OwnershipTransferRequested",
      "type": "event"
    },
    {
      "anonymous": false,
      "inputs": [
        {
          "indexed": true,
          "internalType": "address",
          "name": "from",
          "type": "address"
        },
        {
          "indexed": true,
          "internalType": "address",
          "name": "to",
          "type": "address"
        }
      ],
      "name": "OwnershipTransferred",
      "type": "event"
    },
    {
      "anonymous": false,
      "inputs": [
        {
          "indexed": false,
          "internalType": "address",
          "name": "policyOwner",
          "type": "address"
        },
        {
          "indexed": false,
          "internalType": "uint256",
          "name": "policyIndex",
          "type": "uint256"
        },
        {
          "indexed": false,
          "internalType": "uint256",
          "name": "cost",
          "type": "uint256"
        }
      ],
      "name": "PolicyCreated",
      "type": "event"
    },
    {
      "anonymous": false,
      "inputs": [
        {
          "indexed": false,
          "internalType": "address",
          "name": "policyOwner",
          "type": "address"
        },
        {
          "indexed": false,
          "internalType": "uint256",
          "name": "policyIndex",
          "type": "uint256"
        }
      ],
      "name": "PolicyEnded",
      "type": "event"
    },
    {
      "anonymous": false,
      "inputs": [
        {
          "indexed": false,
          "internalType": "address",
          "name": "policyOwner",
          "type": "address"
        },
        {
          "indexed": false,
          "internalType": "uint256",
          "name": "policyIndex",
          "type": "uint256"
        }
      ],
      "name": "PolicyStarted",
      "type": "event"
    },
    {
      "anonymous": false,
      "inputs": [
        {
          "indexed": false,
          "internalType": "uint256",
          "name": "requestId",
          "type": "uint256"
        },
        {
          "indexed": false,
          "internalType": "uint256[]",
          "name": "randomWords",
          "type": "uint256[]"
        }
      ],
      "name": "RequestFulfilled",
      "type": "event"
    },
    {
      "anonymous": false,
      "inputs": [
        {
          "indexed": true,
          "internalType": "bytes32",
          "name": "id",
          "type": "bytes32"
        }
      ],
      "name": "RequestFulfilled",
      "type": "event"
    },
    {
      "anonymous": false,
      "inputs": [
        {
          "indexed": false,
          "internalType": "uint256",
          "name": "requestId",
          "type": "uint256"
        },
        {
          "indexed": false,
          "internalType": "uint32",
          "name": "numWords",
          "type": "uint32"
        }
      ],
      "name": "RequestSent",
      "type": "event"
    },
    {
      "anonymous": false,
      "inputs": [
        {
          "indexed": true,
          "internalType": "bytes32",
          "name": "id",
          "type": "bytes32"
        }
      ],
      "name": "RequestSent",
      "type": "event"
    },
    {
      "anonymous": false,
      "inputs": [
        {
          "indexed": false,
          "internalType": "address",
          "name": "userAddress",
          "type": "address"
        },
        {
          "indexed": false,
          "internalType": "uint256",
          "name": "payoutAmountInMatic",
          "type": "uint256"
        }
      ],
      "name": "UserPaid",
      "type": "event"
    },
    {
      "inputs": [],
      "name": "acceptOwnership",
      "outputs": [],
      "stateMutability": "nonpayable",
      "type": "function"
    },
    {
      "inputs": [
        {
          "internalType": "address",
          "name": "oracleAddress",
          "type": "address"
        },
        {
          "internalType": "bytes32",
          "name": "requestId",
          "type": "bytes32"
        }
      ],
      "name": "addSimulatedRequestId",
      "outputs": [],
      "stateMutability": "nonpayable",
      "type": "function"
    },
    {
      "inputs": [],
      "name": "boolInsuranceData",
      "outputs": [
        {
          "internalType": "bool",
          "name": "",
          "type": "bool"
        }
      ],
      "stateMutability": "view",
      "type": "function"
    },
    {
      "inputs": [
        {
          "internalType": "bytes",
          "name": "input",
          "type": "bytes"
        }
      ],
      "name": "bytesToUint256",
      "outputs": [
        {
          "internalType": "uint256",
          "name": "result",
          "type": "uint256"
        }
      ],
      "stateMutability": "pure",
      "type": "function"
    },
    {
      "inputs": [],
      "name": "checkPayoutContract",
      "outputs": [
        {
          "internalType": "address",
          "name": "",
          "type": "address"
        }
      ],
      "stateMutability": "view",
      "type": "function"
    },
    {
      "inputs": [],
      "name": "constructionTime",
      "outputs": [
        {
          "internalType": "uint256",
          "name": "",
          "type": "uint256"
        }
      ],
      "stateMutability": "view",
      "type": "function"
    },
    {
      "inputs": [],
      "name": "currentTime",
      "outputs": [
        {
          "internalType": "uint256",
          "name": "",
          "type": "uint256"
        }
      ],
      "stateMutability": "view",
      "type": "function"
    },
    {
      "inputs": [
        {
          "internalType": "address",
          "name": "policyOwner",
          "type": "address"
        },
        {
          "internalType": "uint256",
          "name": "policyIndex",
          "type": "uint256"
        }
      ],
      "name": "endPolicy",
      "outputs": [],
      "stateMutability": "nonpayable",
      "type": "function"
    },
    {
      "inputs": [
        {
          "components": [
            {
              "internalType": "enum Functions.Location",
              "name": "codeLocation",
              "type": "uint8"
            },
            {
              "internalType": "enum Functions.Location",
              "name": "secretsLocation",
              "type": "uint8"
            },
            {
              "internalType": "enum Functions.CodeLanguage",
              "name": "language",
              "type": "uint8"
            },
            {
              "internalType": "string",
              "name": "source",
              "type": "string"
            },
            {
              "internalType": "bytes",
              "name": "secrets",
              "type": "bytes"
            },
            {
              "internalType": "string[]",
              "name": "args",
              "type": "string[]"
            }
          ],
          "internalType": "struct Functions.Request",
          "name": "req",
          "type": "tuple"
        },
        {
          "internalType": "uint64",
          "name": "subscriptionId",
          "type": "uint64"
        },
        {
          "internalType": "uint32",
          "name": "gasLimit",
          "type": "uint32"
        },
        {
          "internalType": "uint256",
          "name": "gasPrice",
          "type": "uint256"
        }
      ],
      "name": "estimateCost",
      "outputs": [
        {
          "internalType": "uint96",
          "name": "",
          "type": "uint96"
        }
      ],
      "stateMutability": "view",
      "type": "function"
    },
    {
      "inputs": [
        {
          "internalType": "string",
          "name": "source",
          "type": "string"
        },
        {
          "internalType": "string[]",
          "name": "args",
          "type": "string[]"
        },
        {
          "internalType": "uint64",
          "name": "subscriptionId",
          "type": "uint64"
        },
        {
          "internalType": "uint32",
          "name": "gasLimit",
          "type": "uint32"
        }
      ],
      "name": "estimateInsurance",
      "outputs": [
        {
          "internalType": "bytes32",
          "name": "",
          "type": "bytes32"
        }
      ],
      "stateMutability": "payable",
      "type": "function"
    },
    {
      "inputs": [
        {
          "internalType": "address",
          "name": "user",
          "type": "address"
        }
      ],
      "name": "getAllUserPolicies",
      "outputs": [
        {
          "components": [
            {
              "internalType": "string",
              "name": "latNe",
              "type": "string"
            },
            {
              "internalType": "string",
              "name": "longNe",
              "type": "string"
            },
            {
              "internalType": "string",
              "name": "latSe",
              "type": "string"
            },
            {
              "internalType": "string",
              "name": "longSe",
              "type": "string"
            },
            {
              "internalType": "string",
              "name": "latSw",
              "type": "string"
            },
            {
              "internalType": "string",
              "name": "longSw",
              "type": "string"
            },
            {
              "internalType": "string",
              "name": "latNw",
              "type": "string"
            },
            {
              "internalType": "string",
              "name": "longNw",
              "type": "string"
            },
            {
              "internalType": "string",
              "name": "configParam",
              "type": "string"
            },
            {
              "internalType": "string",
              "name": "startTime",
              "type": "string"
            },
            {
              "internalType": "string",
              "name": "endTime",
              "type": "string"
            },
            {
              "internalType": "string",
              "name": "policyCreationTime",
              "type": "string"
            }
          ],
          "internalType": "struct Insurance.InsuranceData[]",
          "name": "",
          "type": "tuple[]"
        }
      ],
      "stateMutability": "view",
      "type": "function"
    },
    {
      "inputs": [],
      "name": "getCurrentTime",
      "outputs": [
        {
          "internalType": "uint256",
          "name": "",
          "type": "uint256"
        }
      ],
      "stateMutability": "view",
      "type": "function"
    },
    {
      "inputs": [],
      "name": "getDONPublicKey",
      "outputs": [
        {
          "internalType": "bytes",
          "name": "",
          "type": "bytes"
        }
      ],
      "stateMutability": "view",
      "type": "function"
    },
    {
      "inputs": [
        {
          "internalType": "bytes32",
          "name": "requestId",
          "type": "bytes32"
        }
      ],
      "name": "getInsuranceQuoteData",
      "outputs": [
        {
          "components": [
            {
              "internalType": "address",
              "name": "user",
              "type": "address"
            },
            {
              "internalType": "uint256",
              "name": "policyIndex",
              "type": "uint256"
            },
            {
              "internalType": "uint256",
              "name": "cost",
              "type": "uint256"
            }
          ],
          "internalType": "struct Insurance.InsuranceQuoteData",
          "name": "",
          "type": "tuple"
        }
      ],
      "stateMutability": "view",
      "type": "function"
    },
    {
      "inputs": [
        {
          "internalType": "uint256",
          "name": "_requestId",
          "type": "uint256"
        }
      ],
      "name": "getLastRandomWords",
      "outputs": [
        {
          "internalType": "uint256[]",
          "name": "",
          "type": "uint256[]"
        }
      ],
      "stateMutability": "view",
      "type": "function"
    },
    {
      "inputs": [
        {
          "internalType": "address",
          "name": "user",
          "type": "address"
        },
        {
          "internalType": "uint256",
          "name": "policyIndex",
          "type": "uint256"
        }
      ],
      "name": "getPolicyData",
      "outputs": [
        {
          "components": [
            {
              "internalType": "string",
              "name": "latNe",
              "type": "string"
            },
            {
              "internalType": "string",
              "name": "longNe",
              "type": "string"
            },
            {
              "internalType": "string",
              "name": "latSe",
              "type": "string"
            },
            {
              "internalType": "string",
              "name": "longSe",
              "type": "string"
            },
            {
              "internalType": "string",
              "name": "latSw",
              "type": "string"
            },
            {
              "internalType": "string",
              "name": "longSw",
              "type": "string"
            },
            {
              "internalType": "string",
              "name": "latNw",
              "type": "string"
            },
            {
              "internalType": "string",
              "name": "longNw",
              "type": "string"
            },
            {
              "internalType": "string",
              "name": "configParam",
              "type": "string"
            },
            {
              "internalType": "string",
              "name": "startTime",
              "type": "string"
            },
            {
              "internalType": "string",
              "name": "endTime",
              "type": "string"
            },
            {
              "internalType": "string",
              "name": "policyCreationTime",
              "type": "string"
            }
          ],
          "internalType": "struct Insurance.InsuranceData",
          "name": "",
          "type": "tuple"
        }
      ],
      "stateMutability": "view",
      "type": "function"
    },
    {
      "inputs": [
        {
          "internalType": "address",
          "name": "_address",
          "type": "address"
        },
        {
          "internalType": "uint256",
          "name": "_policyIndex",
          "type": "uint256"
        }
      ],
      "name": "getPolicyRequestId",
      "outputs": [
        {
          "internalType": "bytes32",
          "name": "",
          "type": "bytes32"
        }
      ],
      "stateMutability": "view",
      "type": "function"
    },
    {
      "inputs": [],
      "name": "getPriceLinkMatic",
      "outputs": [
        {
          "internalType": "int256",
          "name": "",
          "type": "int256"
        }
      ],
      "stateMutability": "view",
      "type": "function"
    },
    {
      "inputs": [],
      "name": "getPriceMaticUsd",
      "outputs": [
        {
          "internalType": "int256",
          "name": "",
          "type": "int256"
        }
      ],
      "stateMutability": "view",
      "type": "function"
    },
    {
      "inputs": [
        {
          "internalType": "uint256",
          "name": "_requestId",
          "type": "uint256"
        }
      ],
      "name": "getRequestStatus",
      "outputs": [
        {
          "internalType": "bool",
          "name": "fulfilled",
          "type": "bool"
        },
        {
          "internalType": "uint256[]",
          "name": "randomWords",
          "type": "uint256[]"
        }
      ],
      "stateMutability": "view",
      "type": "function"
    },
    {
      "inputs": [
        {
          "internalType": "bytes32",
          "name": "requestId",
          "type": "bytes32"
        },
        {
          "internalType": "bytes",
          "name": "response",
          "type": "bytes"
        },
        {
          "internalType": "bytes",
          "name": "err",
          "type": "bytes"
        }
      ],
      "name": "handleOracleFulfillment",
      "outputs": [],
      "stateMutability": "nonpayable",
      "type": "function"
    },
    {
      "inputs": [],
      "name": "helloWorld",
      "outputs": [
        {
          "internalType": "string",
          "name": "",
          "type": "string"
        }
      ],
      "stateMutability": "view",
      "type": "function"
    },
    {
      "inputs": [
        {
          "internalType": "address",
          "name": "",
          "type": "address"
        },
        {
          "internalType": "uint256",
          "name": "",
          "type": "uint256"
        }
      ],
      "name": "insurancePoliciesMapping",
      "outputs": [
        {
          "internalType": "string",
          "name": "latNe",
          "type": "string"
        },
        {
          "internalType": "string",
          "name": "longNe",
          "type": "string"
        },
        {
          "internalType": "string",
          "name": "latSe",
          "type": "string"
        },
        {
          "internalType": "string",
          "name": "longSe",
          "type": "string"
        },
        {
          "internalType": "string",
          "name": "latSw",
          "type": "string"
        },
        {
          "internalType": "string",
          "name": "longSw",
          "type": "string"
        },
        {
          "internalType": "string",
          "name": "latNw",
          "type": "string"
        },
        {
          "internalType": "string",
          "name": "longNw",
          "type": "string"
        },
        {
          "internalType": "string",
          "name": "configParam",
          "type": "string"
        },
        {
          "internalType": "string",
          "name": "startTime",
          "type": "string"
        },
        {
          "internalType": "string",
          "name": "endTime",
          "type": "string"
        },
        {
          "internalType": "string",
          "name": "policyCreationTime",
          "type": "string"
        }
      ],
      "stateMutability": "view",
      "type": "function"
    },
    {
      "inputs": [
        {
          "internalType": "bytes32",
          "name": "",
          "type": "bytes32"
        }
      ],
      "name": "insuranceQuoteData",
      "outputs": [
        {
          "internalType": "address",
          "name": "user",
          "type": "address"
        },
        {
          "internalType": "uint256",
          "name": "policyIndex",
          "type": "uint256"
        },
        {
          "internalType": "uint256",
          "name": "cost",
          "type": "uint256"
        }
      ],
      "stateMutability": "view",
      "type": "function"
    },
    {
      "inputs": [],
      "name": "lastRequestId",
      "outputs": [
        {
          "internalType": "uint256",
          "name": "",
          "type": "uint256"
        }
      ],
      "stateMutability": "view",
      "type": "function"
    },
    {
      "inputs": [],
      "name": "latestError",
      "outputs": [
        {
          "internalType": "bytes",
          "name": "",
          "type": "bytes"
        }
      ],
      "stateMutability": "view",
      "type": "function"
    },
    {
      "inputs": [],
      "name": "latestRequestId",
      "outputs": [
        {
          "internalType": "bytes32",
          "name": "",
          "type": "bytes32"
        }
      ],
      "stateMutability": "view",
      "type": "function"
    },
    {
      "inputs": [],
      "name": "latestResponse",
      "outputs": [
        {
          "internalType": "bytes",
          "name": "",
          "type": "bytes"
        }
      ],
      "stateMutability": "view",
      "type": "function"
    },
    {
      "inputs": [],
      "name": "linkMaticPriceFeed",
      "outputs": [
        {
          "internalType": "contract LinkMaticPriceFeed",
          "name": "",
          "type": "address"
        }
      ],
      "stateMutability": "view",
      "type": "function"
    },
    {
      "inputs": [],
      "name": "maticUsdPriceFeed",
      "outputs": [
        {
          "internalType": "contract MaticUsdPriceFeed",
          "name": "",
          "type": "address"
        }
      ],
      "stateMutability": "view",
      "type": "function"
    },
    {
      "inputs": [],
      "name": "owner",
      "outputs": [
        {
          "internalType": "address",
          "name": "",
          "type": "address"
        }
      ],
      "stateMutability": "view",
      "type": "function"
    },
    {
      "inputs": [
        {
          "internalType": "address payable",
          "name": "userAddress",
          "type": "address"
        },
        {
          "internalType": "uint256",
          "name": "payoutAmount",
          "type": "uint256"
        }
      ],
      "name": "payUser",
      "outputs": [],
      "stateMutability": "nonpayable",
      "type": "function"
    },
    {
      "inputs": [
        {
          "internalType": "address",
          "name": "",
          "type": "address"
        },
        {
          "internalType": "uint256",
          "name": "",
          "type": "uint256"
        }
      ],
      "name": "policyRequestIdMapping",
      "outputs": [
        {
          "internalType": "bytes32",
          "name": "",
          "type": "bytes32"
        }
      ],
      "stateMutability": "view",
      "type": "function"
    },
    {
      "inputs": [
        {
          "internalType": "address",
          "name": "",
          "type": "address"
        },
        {
          "internalType": "uint256",
          "name": "",
          "type": "uint256"
        }
      ],
      "name": "policyStatus",
      "outputs": [
        {
          "internalType": "enum Insurance.PolicyStatus",
          "name": "",
          "type": "uint8"
        }
      ],
      "stateMutability": "view",
      "type": "function"
    },
    {
      "inputs": [
        {
          "internalType": "uint256",
          "name": "",
          "type": "uint256"
        }
      ],
      "name": "randomnessRequesterAddress",
      "outputs": [
        {
          "internalType": "address",
          "name": "",
          "type": "address"
        }
      ],
      "stateMutability": "view",
      "type": "function"
    },
    {
      "inputs": [
        {
          "internalType": "uint256",
          "name": "requestId",
          "type": "uint256"
        },
        {
          "internalType": "uint256[]",
          "name": "randomWords",
          "type": "uint256[]"
        }
      ],
      "name": "rawFulfillRandomWords",
      "outputs": [],
      "stateMutability": "nonpayable",
      "type": "function"
    },
    {
      "inputs": [
        {
          "internalType": "uint256",
          "name": "",
          "type": "uint256"
        }
      ],
      "name": "requestIds",
      "outputs": [
        {
          "internalType": "uint256",
          "name": "",
          "type": "uint256"
        }
      ],
      "stateMutability": "view",
      "type": "function"
    },
    {
      "inputs": [],
      "name": "requestRandomWords",
      "outputs": [
        {
          "internalType": "uint256",
          "name": "requestId",
          "type": "uint256"
        }
      ],
      "stateMutability": "nonpayable",
      "type": "function"
    },
    {
      "inputs": [
        {
          "internalType": "uint256",
          "name": "",
          "type": "uint256"
        }
      ],
      "name": "s_requests",
      "outputs": [
        {
          "internalType": "bool",
          "name": "fulfilled",
          "type": "bool"
        },
        {
          "internalType": "bool",
          "name": "exists",
          "type": "bool"
        }
      ],
      "stateMutability": "view",
      "type": "function"
    },
    {
      "inputs": [
        {
          "internalType": "address",
          "name": "_checkPayoutContract",
          "type": "address"
        }
      ],
      "name": "setCheckPayoutContract",
      "outputs": [],
      "stateMutability": "nonpayable",
      "type": "function"
    },
    {
      "inputs": [
        {
          "internalType": "bytes32",
          "name": "requestId",
          "type": "bytes32"
        }
      ],
      "name": "startPolicy",
      "outputs": [
        {
          "internalType": "uint256",
          "name": "",
          "type": "uint256"
        }
      ],
      "stateMutability": "payable",
      "type": "function"
    },
    {
      "inputs": [
        {
          "internalType": "address",
          "name": "to",
          "type": "address"
        }
      ],
      "name": "transferOwnership",
      "outputs": [],
      "stateMutability": "nonpayable",
      "type": "function"
    },
    {
      "inputs": [
        {
          "internalType": "address",
          "name": "oracle",
          "type": "address"
        }
      ],
      "name": "updateOracleAddress",
      "outputs": [],
      "stateMutability": "nonpayable",
      "type": "function"
    }
  ],
  "bytecode": "0x60a06040527f4b09e658ed251bcafeebbc69400383d49f344ace09b9576fe248bb02c003fe9f600955600a80546001600160501b03191666030003000493e017905542600f553480156200005257600080fd5b5060405162005f4538038062005f458339810160408190526200007591620002a5565b600080546001600160a01b0319166001600160a01b0386161781557f7a1bac17ccc5b313516c5e16fb24f7659aa5ebed00000000000000000000000060805233908190816200010b5760405162461bcd60e51b815260206004820152601860248201527f43616e6e6f7420736574206f776e657220746f207a65726f000000000000000060448201526064015b60405180910390fd5b600280546001600160a01b0319166001600160a01b03848116919091179091558116156200013e576200013e81620001db565b5050600a80546001600160a01b039586166a010000000000000000000002600160501b600160f01b031990911617905550600b8054929093166001600160a01b031992831617909255600680546001600160401b03909316600160a01b026001600160e01b031990931692909217737a1bac17ccc5b313516c5e16fb24f7659aa5ebed179091554260055560048054909116331790555062000310565b6001600160a01b038116331415620002365760405162461bcd60e51b815260206004820152601760248201527f43616e6e6f74207472616e7366657220746f2073656c66000000000000000000604482015260640162000102565b600380546001600160a01b0319166001600160a01b03838116918217909255600254604051919216907fed8889f560326eb138920d842192f0eb3dd22b4f139c87a2c57538e05bae127890600090a350565b80516001600160a01b0381168114620002a057600080fd5b919050565b60008060008060808587031215620002bc57600080fd5b620002c78562000288565b9350620002d76020860162000288565b9250620002e76040860162000288565b60608601519092506001600160401b03811681146200030557600080fd5b939692955090935050565b60805160601c615c0f620003366000396000818161147e01526114d90152615c0f6000f3fe6080604052600436106102dc5760003560e01c8063b611094911610184578063e0c86289116100d6578063f06c56101161008a578063f7023bb611610064578063f7023bb614610927578063fc2a88c314610947578063fffeb84e1461095d57600080fd5b8063f06c5610146108a9578063f11da55b146108bf578063f2fde38b1461090757600080fd5b8063e3928b7f116100bb578063e3928b7f14610846578063e5c33f301461085b578063ecd831e81461088957600080fd5b8063e0c86289146107f9578063e0e2fa9a1461080e57600080fd5b8063c605f76c11610138578063d328a91e11610112578063d328a91e14610779578063d4b391751461078e578063d8a4676f146107cb57600080fd5b8063c605f76c1461072c578063cc9de25d14610741578063d18e81b31461076357600080fd5b8063bc58d68c11610169578063bc58d68c146106ca578063bef3a2f0146106ea578063c0303c371461070c57600080fd5b8063b611094914610665578063b655cd9b1461069257600080fd5b806361875d8d1161023d57806379ba5097116101f15780638da5cb5b116101cb5780638da5cb5b1461058c578063a168fa89146105aa578063b1011dbd146105fa57600080fd5b806379ba50971461052a578063808580261461053f5780638796ba8c1461056c57600080fd5b806369f8eaed1161022257806369f8eaed146104a75780636c6f9990146104c75780636ec7be7e146104e757600080fd5b806361875d8d1461046757806363d6634a1461049457600080fd5b80631fe543e31161029457806329cb924d1161027957806329cb924d146103e457806330bda99d146103f95780635ec7baca1461041957600080fd5b80631fe543e314610379578063215fc6251461039957600080fd5b80630b50567f116102c55780630b50567f1461032e5780630ca76175146103415780631aa46f591461036357600080fd5b806304b2303c146102e157806305f411d61461030b575b600080fd5b3480156102ed57600080fd5b506102f6610972565b60405190151581526020015b60405180910390f35b34801561031757600080fd5b5061032061119b565b604051908152602001610302565b61032061033c36600461505a565b611226565b34801561034d57600080fd5b5061036161035c36600461508c565b6113cd565b005b34801561036f57600080fd5b50610320600c5481565b34801561038557600080fd5b50610361610394366004615371565b611473565b3480156103a557600080fd5b506103b96103b436600461505a565b611514565b6040805182516001600160a01b03168152602080840151908201529181015190820152606001610302565b3480156103f057600080fd5b50600f54610320565b34801561040557600080fd5b5061036161041436600461502e565b61160d565b34801561042557600080fd5b5061044f61043436600461505a565b6014602052600090815260409020546001600160a01b031681565b6040516001600160a01b039091168152602001610302565b34801561047357600080fd5b5061048761048236600461502e565b61161f565b60405161030291906157e5565b6103206104a23660046151a4565b611da8565b3480156104b357600080fd5b506103616104c2366004614ff4565b612619565b3480156104d357600080fd5b50600b5461044f906001600160a01b031681565b3480156104f357600080fd5b5061032061050236600461502e565b6001600160a01b03919091166000908152601060209081526040808320938352929052205490565b34801561053657600080fd5b506103616126bb565b34801561054b57600080fd5b5061055f61055a366004614ff4565b612770565b60405161030291906155ef565b34801561057857600080fd5b5061032061058736600461505a565b612ebe565b34801561059857600080fd5b506002546001600160a01b031661044f565b3480156105b657600080fd5b506105e36105c536600461505a565b60156020526000908152604090205460ff8082169161010090041682565b604080519215158352901515602083015201610302565b34801561060657600080fd5b5061064061061536600461505a565b6012602052600090815260409020805460018201546002909201546001600160a01b03909116919083565b604080516001600160a01b039094168452602084019290925290820152606001610302565b34801561067157600080fd5b5061068561068036600461505a565b612edf565b6040516103029190615651565b34801561069e57600080fd5b506106b26106ad36600461502e565b613004565b6040516103029c9b9a999897969594939291906156df565b3480156106d657600080fd5b506103616106e536600461502e565b6136e1565b3480156106f657600080fd5b506106ff6137b3565b604051610302919061567f565b34801561071857600080fd5b5060045461044f906001600160a01b031681565b34801561073857600080fd5b506106ff613841565b34801561074d57600080fd5b5061032061075c3660046150f9565b6020015190565b34801561076f57600080fd5b50610320600f5481565b34801561078557600080fd5b506106ff6138b9565b34801561079a57600080fd5b506107ae6107a936600461525f565b613952565b6040516bffffffffffffffffffffffff9091168152602001610302565b3480156107d757600080fd5b506107eb6107e636600461505a565b6139e8565b604051610302929190615664565b34801561080557600080fd5b50610320613ae8565b34801561081a57600080fd5b5061032061082936600461502e565b601060209081526000928352604080842090915290825290205481565b34801561085257600080fd5b50610320613d05565b34801561086757600080fd5b50600a5461044f906a010000000000000000000090046001600160a01b031681565b34801561089557600080fd5b506103616108a436600461502e565b613d63565b3480156108b557600080fd5b5061032060055481565b3480156108cb57600080fd5b506108fa6108da36600461502e565b601160209081526000928352604080842090915290825290205460ff1681565b60405161030291906156b7565b34801561091357600080fd5b50610361610922366004614ff4565b613e75565b34801561093357600080fd5b50610361610942366004614ff4565b613e89565b34801561095357600080fd5b5061032060085481565b34801561096957600080fd5b506106ff613eaf565b33600090815260136020526040812080546109d45760405162461bcd60e51b815260206004820152601760248201527f4e6f20696e737572616e6365206461746120666f756e6400000000000000000060448201526064015b60405180910390fd5b60005b81548110156111925760008282815481106109f4576109f4615b98565b90600052602060002090600c020160405180610180016040529081600082018054610a1e90615aec565b80601f0160208091040260200160405190810160405280929190818152602001828054610a4a90615aec565b8015610a975780601f10610a6c57610100808354040283529160200191610a97565b820191906000526020600020905b815481529060010190602001808311610a7a57829003601f168201915b50505050508152602001600182018054610ab090615aec565b80601f0160208091040260200160405190810160405280929190818152602001828054610adc90615aec565b8015610b295780601f10610afe57610100808354040283529160200191610b29565b820191906000526020600020905b815481529060010190602001808311610b0c57829003601f168201915b50505050508152602001600282018054610b4290615aec565b80601f0160208091040260200160405190810160405280929190818152602001828054610b6e90615aec565b8015610bbb5780601f10610b9057610100808354040283529160200191610bbb565b820191906000526020600020905b815481529060010190602001808311610b9e57829003601f168201915b50505050508152602001600382018054610bd490615aec565b80601f0160208091040260200160405190810160405280929190818152602001828054610c0090615aec565b8015610c4d5780601f10610c2257610100808354040283529160200191610c4d565b820191906000526020600020905b815481529060010190602001808311610c3057829003601f168201915b50505050508152602001600482018054610c6690615aec565b80601f0160208091040260200160405190810160405280929190818152602001828054610c9290615aec565b8015610cdf5780601f10610cb457610100808354040283529160200191610cdf565b820191906000526020600020905b815481529060010190602001808311610cc257829003601f168201915b50505050508152602001600582018054610cf890615aec565b80601f0160208091040260200160405190810160405280929190818152602001828054610d2490615aec565b8015610d715780601f10610d4657610100808354040283529160200191610d71565b820191906000526020600020905b815481529060010190602001808311610d5457829003601f168201915b50505050508152602001600682018054610d8a90615aec565b80601f0160208091040260200160405190810160405280929190818152602001828054610db690615aec565b8015610e035780601f10610dd857610100808354040283529160200191610e03565b820191906000526020600020905b815481529060010190602001808311610de657829003601f168201915b50505050508152602001600782018054610e1c90615aec565b80601f0160208091040260200160405190810160405280929190818152602001828054610e4890615aec565b8015610e955780601f10610e6a57610100808354040283529160200191610e95565b820191906000526020600020905b815481529060010190602001808311610e7857829003601f168201915b50505050508152602001600882018054610eae90615aec565b80601f0160208091040260200160405190810160405280929190818152602001828054610eda90615aec565b8015610f275780601f10610efc57610100808354040283529160200191610f27565b820191906000526020600020905b815481529060010190602001808311610f0a57829003601f168201915b50505050508152602001600982018054610f4090615aec565b80601f0160208091040260200160405190810160405280929190818152602001828054610f6c90615aec565b8015610fb95780601f10610f8e57610100808354040283529160200191610fb9565b820191906000526020600020905b815481529060010190602001808311610f9c57829003601f168201915b50505050508152602001600a82018054610fd290615aec565b80601f0160208091040260200160405190810160405280929190818152602001828054610ffe90615aec565b801561104b5780601f106110205761010080835404028352916020019161104b565b820191906000526020600020905b81548152906001019060200180831161102e57829003601f168201915b50505050508152602001600b8201805461106490615aec565b80601f016020809104026020016040519081016040528092919081815260200182805461109090615aec565b80156110dd5780601f106110b2576101008083540402835291602001916110dd565b820191906000526020600020905b8154815290600101906020018083116110c057829003601f168201915b50505050508152505090508060c0015151600014158015611102575060e08101515115155b801561110f575080515115155b801561111f575060208101515115155b801561112f575060408101515115155b801561113f575060608101515115155b801561114f575060808101515115155b801561115f575060a08101515115155b801561117057506101008101515115155b1561117f576001935050505090565b508061118a81615b27565b9150506109d7565b50600091505090565b6000600a8054906101000a90046001600160a01b03166001600160a01b0316638e15f4736040518163ffffffff1660e01b815260040160206040518083038186803b1580156111e957600080fd5b505afa1580156111fd573d6000803e3d6000fd5b505050506040513d601f19601f820116820180604052508101906112219190615073565b905090565b600081815260126020908152604080832060028101546001820154338652601390945291842080549193918591908390811061126457611264615b98565b6000918252602080832033845260118252604080852087865290925290832054600c9290920201925060ff1660028111156112a1576112a1615b82565b146112ee5760405162461bcd60e51b815260206004820152601560248201527f506f6c696379206973206e6f742070656e64696e67000000000000000000000060448201526064016109cb565b60006112f8613d05565b905060008161130b866305f5e100615a8a565b611315919061598b565b9050803410156113675760405162461bcd60e51b815260206004820152601560248201527f4e6f7420656e6f756768204d617469632073656e74000000000000000000000060448201526064016109cb565b336000818152601160209081526040808320888452825291829020805460ff19166001179055815192835282018690527f153598a6c97963bd4d16e97786943eb68bcc8ca58077614327e965efe69fa110910160405180910390a1505050505050919050565b60008381526001602052604090205483906001600160a01b0316331461141f576040517fa0c5ec6300000000000000000000000000000000000000000000000000000000815260040160405180910390fd5b60008181526001602052604080822080546001600160a01b03191690555182917f85e1543bf2f84fe80c6badbce3648c8539ad1df4d2b3d822938ca0538be727e691a261146d848484613ebc565b50505050565b336001600160a01b037f00000000000000000000000000000000000000000000000000000000000000001614611506576040517f1cf993f40000000000000000000000000000000000000000000000000000000081523360048201526001600160a01b037f00000000000000000000000000000000000000000000000000000000000000001660248201526044016109cb565b6115108282613f9d565b5050565b611541604051806060016040528060006001600160a01b0316815260200160008152602001600081525090565b6000828152601260205260409020546001600160a01b03166115cb5760405162461bcd60e51b815260206004820152602560248201527f4e6f206461746120666f756e6420666f722074686520676976656e207265717560448201527f657374496400000000000000000000000000000000000000000000000000000060648201526084016109cb565b50600090815260126020908152604091829020825160608101845281546001600160a01b03168152600182015492810192909252600201549181019190915290565b611615614063565b61151082826140bf565b6116836040518061018001604052806060815260200160608152602001606081526020016060815260200160608152602001606081526020016060815260200160608152602001606081526020016060815260200160608152602001606081525090565b6001600160a01b03831660009081526013602052604090208054839081106116ad576116ad615b98565b90600052602060002090600c0201604051806101800160405290816000820180546116d790615aec565b80601f016020809104026020016040519081016040528092919081815260200182805461170390615aec565b80156117505780601f1061172557610100808354040283529160200191611750565b820191906000526020600020905b81548152906001019060200180831161173357829003601f168201915b5050505050815260200160018201805461176990615aec565b80601f016020809104026020016040519081016040528092919081815260200182805461179590615aec565b80156117e25780601f106117b7576101008083540402835291602001916117e2565b820191906000526020600020905b8154815290600101906020018083116117c557829003601f168201915b505050505081526020016002820180546117fb90615aec565b80601f016020809104026020016040519081016040528092919081815260200182805461182790615aec565b80156118745780601f1061184957610100808354040283529160200191611874565b820191906000526020600020905b81548152906001019060200180831161185757829003601f168201915b5050505050815260200160038201805461188d90615aec565b80601f01602080910402602001604051908101604052809291908181526020018280546118b990615aec565b80156119065780601f106118db57610100808354040283529160200191611906565b820191906000526020600020905b8154815290600101906020018083116118e957829003601f168201915b5050505050815260200160048201805461191f90615aec565b80601f016020809104026020016040519081016040528092919081815260200182805461194b90615aec565b80156119985780601f1061196d57610100808354040283529160200191611998565b820191906000526020600020905b81548152906001019060200180831161197b57829003601f168201915b505050505081526020016005820180546119b190615aec565b80601f01602080910402602001604051908101604052809291908181526020018280546119dd90615aec565b8015611a2a5780601f106119ff57610100808354040283529160200191611a2a565b820191906000526020600020905b815481529060010190602001808311611a0d57829003601f168201915b50505050508152602001600682018054611a4390615aec565b80601f0160208091040260200160405190810160405280929190818152602001828054611a6f90615aec565b8015611abc5780601f10611a9157610100808354040283529160200191611abc565b820191906000526020600020905b815481529060010190602001808311611a9f57829003601f168201915b50505050508152602001600782018054611ad590615aec565b80601f0160208091040260200160405190810160405280929190818152602001828054611b0190615aec565b8015611b4e5780601f10611b2357610100808354040283529160200191611b4e565b820191906000526020600020905b815481529060010190602001808311611b3157829003601f168201915b50505050508152602001600882018054611b6790615aec565b80601f0160208091040260200160405190810160405280929190818152602001828054611b9390615aec565b8015611be05780601f10611bb557610100808354040283529160200191611be0565b820191906000526020600020905b815481529060010190602001808311611bc357829003601f168201915b50505050508152602001600982018054611bf990615aec565b80601f0160208091040260200160405190810160405280929190818152602001828054611c2590615aec565b8015611c725780601f10611c4757610100808354040283529160200191611c72565b820191906000526020600020905b815481529060010190602001808311611c5557829003601f168201915b50505050508152602001600a82018054611c8b90615aec565b80601f0160208091040260200160405190810160405280929190818152602001828054611cb790615aec565b8015611d045780601f10611cd957610100808354040283529160200191611d04565b820191906000526020600020905b815481529060010190602001808311611ce757829003601f168201915b50505050508152602001600b82018054611d1d90615aec565b80601f0160208091040260200160405190810160405280929190818152602001828054611d4990615aec565b8015611d965780601f10611d6b57610100808354040283529160200191611d96565b820191906000526020600020905b815481529060010190602001808311611d7957829003601f168201915b50505050508152505090505b92915050565b6000600b8414611dfa5760405162461bcd60e51b815260206004820152601b60248201527f496e76616c6964206e756d626572206f6620617267756d656e7473000000000060448201526064016109cb565b33600090815260136020526040812090611e134261413f565b9050611e1e816141e9565b8160405180610180016040528089896000818110611e3e57611e3e615b98565b9050602002810190611e509190615886565b8080601f01602080910402602001604051908101604052809392919081815260200183838082843760009201919091525050509082525060200189896001818110611e9d57611e9d615b98565b9050602002810190611eaf9190615886565b8080601f01602080910402602001604051908101604052809392919081815260200183838082843760009201919091525050509082525060200189896002818110611efc57611efc615b98565b9050602002810190611f0e9190615886565b8080601f01602080910402602001604051908101604052809392919081815260200183838082843760009201919091525050509082525060200189896003818110611f5b57611f5b615b98565b9050602002810190611f6d9190615886565b8080601f01602080910402602001604051908101604052809392919081815260200183838082843760009201919091525050509082525060200189896004818110611fba57611fba615b98565b9050602002810190611fcc9190615886565b8080601f0160208091040260200160405190810160405280939291908181526020018383808284376000920191909152505050908252506020018989600581811061201957612019615b98565b905060200281019061202b9190615886565b8080601f0160208091040260200160405190810160405280939291908181526020018383808284376000920191909152505050908252506020018989600681811061207857612078615b98565b905060200281019061208a9190615886565b8080601f016020809104026020016040519081016040528093929190818152602001838380828437600092019190915250505090825250602001898960078181106120d7576120d7615b98565b90506020028101906120e99190615886565b8080601f0160208091040260200160405190810160405280939291908181526020018383808284376000920191909152505050908252506020018989600881811061213657612136615b98565b90506020028101906121489190615886565b8080601f0160208091040260200160405190810160405280939291908181526020018383808284376000920191909152505050908252506020018989600981811061219557612195615b98565b90506020028101906121a79190615886565b8080601f0160208091040260200160405190810160405280939291908181526020018383808284376000920191909152505050908252506020018989600a8181106121f4576121f4615b98565b90506020028101906122069190615886565b8080601f016020809104026020016040519081016040528093929190818152602001838380828437600092018290525093855250505060209182018590528354600181018555938152819020825180519394600c029091019261226c9284920190614d69565b5060208281015180516122859260018501920190614d69565b50604082015180516122a1916002840191602090910190614d69565b50606082015180516122bd916003840191602090910190614d69565b50608082015180516122d9916004840191602090910190614d69565b5060a082015180516122f5916005840191602090910190614d69565b5060c08201518051612311916006840191602090910190614d69565b5060e0820151805161232d916007840191602090910190614d69565b50610100820151805161234a916008840191602090910190614d69565b506101208201518051612367916009840191602090910190614d69565b50610140820151805161238491600a840191602090910190614d69565b5061016082015180516123a191600b840191602090910190614d69565b5050336000908152601360205260408120549091506123c290600190615aa9565b90506123fe6040805160c08101909152806000815260200160008152602001600081526020016060815260200160608152602001606081525090565b6124456000808d8d8080601f0160208091040260200160405190810160405280939291908181526020018383808284376000920191909152508795949392505061425a9050565b6000612452896001615973565b67ffffffffffffffff81111561246a5761246a615bae565b60405190808252806020026020018201604052801561249d57816020015b60608152602001906001900390816124885790505b50905060005b89811015612535578a8a828181106124bd576124bd615b98565b90506020028101906124cf9190615886565b8080601f016020809104026020016040519081016040528093929190818152602001838380828437600092019190915250508451859250849150811061251757612517615b98565b6020026020010181905250808061252d90615b27565b9150506124a3565b5083818b8b90508151811061254c5761254c615b98565b602090810291909101015261256182826142ee565b600061256e838a8a61432e565b60408051606081018252338082526020808301898152600084860181815287825260128452868220955186546001600160a01b0319166001600160a01b03909116178655915160018601559051600290940193909355600c859055908252601081528282208883529052818120839055905191925082917f0790d5075e76350b19c3d15f0de9144077f6fb31397b526ce8664d7faf7dde6b9190a29c9b505050505050505050505050565b6004546001600160a01b031633146126995760405162461bcd60e51b815260206004820152602e60248201527f43616c6c6572206973206e6f74207468652063757272656e7420436865636b5060448201527f61796f757420636f6e747261637400000000000000000000000000000000000060648201526084016109cb565b600480546001600160a01b0319166001600160a01b0392909216919091179055565b6003546001600160a01b031633146127155760405162461bcd60e51b815260206004820152601660248201527f4d7573742062652070726f706f736564206f776e65720000000000000000000060448201526064016109cb565b600280546001600160a01b0319808216339081179093556003805490911690556040516001600160a01b03909116919082907f8be0079c531659141344cd1fd0a4f28419497f9722a3daafe3b4186f6b6457e090600090a350565b6001600160a01b0381166000908152601360209081526040808320805482518185028101850190935280835260609492939192909184015b82821015612eb357838290600052602060002090600c0201604051806101800160405290816000820180546127dc90615aec565b80601f016020809104026020016040519081016040528092919081815260200182805461280890615aec565b80156128555780601f1061282a57610100808354040283529160200191612855565b820191906000526020600020905b81548152906001019060200180831161283857829003601f168201915b5050505050815260200160018201805461286e90615aec565b80601f016020809104026020016040519081016040528092919081815260200182805461289a90615aec565b80156128e75780601f106128bc576101008083540402835291602001916128e7565b820191906000526020600020905b8154815290600101906020018083116128ca57829003601f168201915b5050505050815260200160028201805461290090615aec565b80601f016020809104026020016040519081016040528092919081815260200182805461292c90615aec565b80156129795780601f1061294e57610100808354040283529160200191612979565b820191906000526020600020905b81548152906001019060200180831161295c57829003601f168201915b5050505050815260200160038201805461299290615aec565b80601f01602080910402602001604051908101604052809291908181526020018280546129be90615aec565b8015612a0b5780601f106129e057610100808354040283529160200191612a0b565b820191906000526020600020905b8154815290600101906020018083116129ee57829003601f168201915b50505050508152602001600482018054612a2490615aec565b80601f0160208091040260200160405190810160405280929190818152602001828054612a5090615aec565b8015612a9d5780601f10612a7257610100808354040283529160200191612a9d565b820191906000526020600020905b815481529060010190602001808311612a8057829003601f168201915b50505050508152602001600582018054612ab690615aec565b80601f0160208091040260200160405190810160405280929190818152602001828054612ae290615aec565b8015612b2f5780601f10612b0457610100808354040283529160200191612b2f565b820191906000526020600020905b815481529060010190602001808311612b1257829003601f168201915b50505050508152602001600682018054612b4890615aec565b80601f0160208091040260200160405190810160405280929190818152602001828054612b7490615aec565b8015612bc15780601f10612b9657610100808354040283529160200191612bc1565b820191906000526020600020905b815481529060010190602001808311612ba457829003601f168201915b50505050508152602001600782018054612bda90615aec565b80601f0160208091040260200160405190810160405280929190818152602001828054612c0690615aec565b8015612c535780601f10612c2857610100808354040283529160200191612c53565b820191906000526020600020905b815481529060010190602001808311612c3657829003601f168201915b50505050508152602001600882018054612c6c90615aec565b80601f0160208091040260200160405190810160405280929190818152602001828054612c9890615aec565b8015612ce55780601f10612cba57610100808354040283529160200191612ce5565b820191906000526020600020905b815481529060010190602001808311612cc857829003601f168201915b50505050508152602001600982018054612cfe90615aec565b80601f0160208091040260200160405190810160405280929190818152602001828054612d2a90615aec565b8015612d775780601f10612d4c57610100808354040283529160200191612d77565b820191906000526020600020905b815481529060010190602001808311612d5a57829003601f168201915b50505050508152602001600a82018054612d9090615aec565b80601f0160208091040260200160405190810160405280929190818152602001828054612dbc90615aec565b8015612e095780601f10612dde57610100808354040283529160200191612e09565b820191906000526020600020905b815481529060010190602001808311612dec57829003601f168201915b50505050508152602001600b82018054612e2290615aec565b80601f0160208091040260200160405190810160405280929190818152602001828054612e4e90615aec565b8015612e9b5780601f10612e7057610100808354040283529160200191612e9b565b820191906000526020600020905b815481529060010190602001808311612e7e57829003601f168201915b505050505081525050815260200190600101906127a8565b505050509050919050565b60078181548110612ece57600080fd5b600091825260209091200154905081565b600854600090815260156020526040902054606090610100900460ff16612f6e5760405162461bcd60e51b815260206004820152602760248201527f4e6f2072616e646f6d20776f7264732068617665206265656e2067656e65726160448201527f746564207965740000000000000000000000000000000000000000000000000060648201526084016109cb565b604080516003808252608082019092526000916020820160608036833701905050905060005b6003811015612ffd576008546000908152601560205260409020600101805482908110612fc357612fc3615b98565b9060005260206000200154828281518110612fe057612fe0615b98565b602090810291909101015280612ff581615b27565b915050612f94565b5092915050565b6013602052816000526040600020818154811061302057600080fd5b90600052602060002090600c02016000915091505080600001805461304490615aec565b80601f016020809104026020016040519081016040528092919081815260200182805461307090615aec565b80156130bd5780601f10613092576101008083540402835291602001916130bd565b820191906000526020600020905b8154815290600101906020018083116130a057829003601f168201915b5050505050908060010180546130d290615aec565b80601f01602080910402602001604051908101604052809291908181526020018280546130fe90615aec565b801561314b5780601f106131205761010080835404028352916020019161314b565b820191906000526020600020905b81548152906001019060200180831161312e57829003601f168201915b50505050509080600201805461316090615aec565b80601f016020809104026020016040519081016040528092919081815260200182805461318c90615aec565b80156131d95780601f106131ae576101008083540402835291602001916131d9565b820191906000526020600020905b8154815290600101906020018083116131bc57829003601f168201915b5050505050908060030180546131ee90615aec565b80601f016020809104026020016040519081016040528092919081815260200182805461321a90615aec565b80156132675780601f1061323c57610100808354040283529160200191613267565b820191906000526020600020905b81548152906001019060200180831161324a57829003601f168201915b50505050509080600401805461327c90615aec565b80601f01602080910402602001604051908101604052809291908181526020018280546132a890615aec565b80156132f55780601f106132ca576101008083540402835291602001916132f5565b820191906000526020600020905b8154815290600101906020018083116132d857829003601f168201915b50505050509080600501805461330a90615aec565b80601f016020809104026020016040519081016040528092919081815260200182805461333690615aec565b80156133835780601f1061335857610100808354040283529160200191613383565b820191906000526020600020905b81548152906001019060200180831161336657829003601f168201915b50505050509080600601805461339890615aec565b80601f01602080910402602001604051908101604052809291908181526020018280546133c490615aec565b80156134115780601f106133e657610100808354040283529160200191613411565b820191906000526020600020905b8154815290600101906020018083116133f457829003601f168201915b50505050509080600701805461342690615aec565b80601f016020809104026020016040519081016040528092919081815260200182805461345290615aec565b801561349f5780601f106134745761010080835404028352916020019161349f565b820191906000526020600020905b81548152906001019060200180831161348257829003601f168201915b5050505050908060080180546134b490615aec565b80601f01602080910402602001604051908101604052809291908181526020018280546134e090615aec565b801561352d5780601f106135025761010080835404028352916020019161352d565b820191906000526020600020905b81548152906001019060200180831161351057829003601f168201915b50505050509080600901805461354290615aec565b80601f016020809104026020016040519081016040528092919081815260200182805461356e90615aec565b80156135bb5780601f10613590576101008083540402835291602001916135bb565b820191906000526020600020905b81548152906001019060200180831161359e57829003601f168201915b50505050509080600a0180546135d090615aec565b80601f01602080910402602001604051908101604052809291908181526020018280546135fc90615aec565b80156136495780601f1061361e57610100808354040283529160200191613649565b820191906000526020600020905b81548152906001019060200180831161362c57829003601f168201915b50505050509080600b01805461365e90615aec565b80601f016020809104026020016040519081016040528092919081815260200182805461368a90615aec565b80156136d75780601f106136ac576101008083540402835291602001916136d7565b820191906000526020600020905b8154815290600101906020018083116136ba57829003601f168201915b505050505090508c565b6004546001600160a01b0316331461374a5760405162461bcd60e51b815260206004820152602660248201527f43616c6c6572206973206e6f742074686520436865636b5061796f757420636f6044820152651b9d1c9858dd60d21b60648201526084016109cb565b6001600160a01b0382166000818152601160209081526040808320858452825291829020805460ff19166002179055815192835282018390527f05e258a8da32249e7d7e1ebcd6b64f7c97c4235999db64b6687191b183d5e3f291015b60405180910390a15050565b600d80546137c090615aec565b80601f01602080910402602001604051908101604052809291908181526020018280546137ec90615aec565b80156138395780601f1061380e57610100808354040283529160200191613839565b820191906000526020600020905b81548152906001019060200180831161381c57829003601f168201915b505050505081565b60606138816040518060400160405280600481526020017f54657374000000000000000000000000000000000000000000000000000000008152506141e9565b5060408051808201909152600c81527f48656c6c6f20576f726c64210000000000000000000000000000000000000000602082015290565b60008054604080517fd328a91e00000000000000000000000000000000000000000000000000000000815290516060936001600160a01b039093169263d328a91e9260048082019391829003018186803b15801561391657600080fd5b505afa15801561392a573d6000803e3d6000fd5b505050506040513d6000823e601f3d908101601f191682016040526112219190810190615136565b600080546001600160a01b031663d227d2458561396e886144a0565b86866040518563ffffffff1660e01b815260040161398f949392919061584a565b60206040518083038186803b1580156139a757600080fd5b505afa1580156139bb573d6000803e3d6000fd5b505050506040513d601f19601f820116820180604052508101906139df9190615415565b95945050505050565b600081815260156020526040812054606090610100900460ff16613a4e5760405162461bcd60e51b815260206004820152601160248201527f72657175657374206e6f7420666f756e6400000000000000000000000000000060448201526064016109cb565b60008381526015602090815260408083208151606081018352815460ff8082161515835261010090910416151581850152600182018054845181870281018701865281815292959394860193830182828015613ac957602002820191906000526020600020905b815481526020019060010190808311613ab5575b5050505050815250509050806000015181604001519250925050915091565b6000613af2614063565b600654600954600a546040517f5d3b1d30000000000000000000000000000000000000000000000000000000008152600481019290925274010000000000000000000000000000000000000000830467ffffffffffffffff166024830152640100000000810461ffff16604483015263ffffffff808216606484015266010000000000009091041660848201526001600160a01b0390911690635d3b1d309060a401602060405180830381600087803b158015613bae57600080fd5b505af1158015613bc2573d6000803e3d6000fd5b505050506040513d601f19601f82011682018060405250810190613be69190615073565b6040805160608101825260008082526001602080840182815285518481528083018752858701908152878552601583529590932084518154945161ffff1990951690151561ff00191617610100941515949094029390931783559351805195965092949193613c5b9391850192910190614ded565b505060078054600181019091557fa66cc928b5edb82af9bd49922954155ab7b0942694bea4ce44661d9a8736c688018290555060088190556000818152601460209081526040918290208054336001600160a01b0319909116179055600a548251848152660100000000000090910463ffffffff16918101919091527fcc58b13ad3eab50626c6a6300b1d139cd6ebb1688a7cced9461c2f7e762665ee910160405180910390a190565b600b54604080517f8e15f47300000000000000000000000000000000000000000000000000000000815290516000926001600160a01b031691638e15f473916004808301926020929190829003018186803b1580156111e957600080fd5b6004546001600160a01b03163314613dcc5760405162461bcd60e51b815260206004820152602660248201527f43616c6c6572206973206e6f742074686520436865636b5061796f757420636f6044820152651b9d1c9858dd60d21b60648201526084016109cb565b6000613dd6613d05565b9050600081613de9846305f5e100615a8a565b613df3919061598b565b6040519091506001600160a01b0385169082156108fc029083906000818181858888f19350505050158015613e2c573d6000803e3d6000fd5b50604080516001600160a01b0386168152602081018390527f188c4d19b4fadd1889d9bd9bf0ab7c97e0719434751e6c05feac6339c1c001ec910160405180910390a150505050565b613e7d614063565b613e868161476c565b50565b613e91614063565b600080546001600160a01b0319166001600160a01b03831617905550565b600e80546137c090615aec565b600083815260126020526040812090613ed6846020015190565b600283018190558451909150613ef390600d906020870190614d69565b508251613f0790600e906020860190614d69565b50847f7bab0ec163b5c132c72b8146ac4d6e067e82ed58f8b131150aa71c92589115628585604051613f3a929190615692565b60405180910390a2815460018301546002840154604080516001600160a01b039094168452602084019290925282820152517f93aceb1c5e55aa194781a0423a101b97efa4a051e8d2fc2ba332ca75f4e4b6a79181900360600190a15050505050565b600082815260156020526040902054610100900460ff166140005760405162461bcd60e51b815260206004820152601160248201527f72657175657374206e6f7420666f756e6400000000000000000000000000000060448201526064016109cb565b6000828152601560209081526040909120805460ff1916600190811782558351614031939290910191840190614ded565b507ffe2e2d779dba245964d4e3ef9b994be63856fd568bf7d3ca9e224755cb1bd54d82826040516137a79291906157f8565b6002546001600160a01b031633146140bd5760405162461bcd60e51b815260206004820152601660248201527f4f6e6c792063616c6c61626c65206279206f776e65720000000000000000000060448201526064016109cb565b565b60008181526001602052604090205481906001600160a01b031615614110576040517f8b457ad200000000000000000000000000000000000000000000000000000000815260040160405180910390fd5b50600090815260016020526040902080546001600160a01b0319166001600160a01b0392909216919091179055565b6060600061414c83614817565b600101905060008167ffffffffffffffff81111561416c5761416c615bae565b6040519080825280601f01601f191660200182016040528015614196576020820181803683370190505b5090508181016020015b600019017f3031323334353637383961626364656600000000000000000000000000000000600a86061a8153600a85049450846141dc576141e1565b6141a0565b509392505050565b613e86816040516024016141fd919061567f565b60408051601f198184030181529190526020810180517bffffffffffffffffffffffffffffffffffffffffffffffffffffffff167f41304fac000000000000000000000000000000000000000000000000000000001790526148f9565b8051614292576040517f22ce3edd00000000000000000000000000000000000000000000000000000000815260040160405180910390fd5b838360018111156142a5576142a5615b82565b908160018111156142b8576142b8615b82565b905250604084018280156142ce576142ce615b82565b908180156142de576142de615b82565b9052506060909301929092525050565b8051614326576040517ffe936cb700000000000000000000000000000000000000000000000000000000815260040160405180910390fd5b60a090910152565b6000805481906001600160a01b03166328242b048561434c886144a0565b866040518463ffffffff1660e01b815260040161436b93929190615811565b602060405180830381600087803b15801561438557600080fd5b505af1158015614399573d6000803e3d6000fd5b505050506040513d601f19601f820116820180604052508101906143bd9190615073565b905060008054906101000a90046001600160a01b03166001600160a01b0316635ab1bd536040518163ffffffff1660e01b815260040160206040518083038186803b15801561440b57600080fd5b505afa15801561441f573d6000803e3d6000fd5b505050506040513d601f19601f820116820180604052508101906144439190615011565b60008281526001602052604080822080546001600160a01b0319166001600160a01b039490941693909317909255905182917f1131472297a800fee664d1d89cfa8f7676ff07189ecc53f80bbb5f4969099db891a2949350505050565b60606144aa614e27565b80516144b89061010061491a565b506144f8816040518060400160405280600c81526020017f636f64654c6f636174696f6e0000000000000000000000000000000000000000815250614991565b614517818460000151600181111561451257614512615b82565b6149af565b614556816040518060400160405280600881526020017f6c616e6775616765000000000000000000000000000000000000000000000000815250614991565b614570818460400151600081111561451257614512615b82565b6145af816040518060400160405280600681526020017f736f757263650000000000000000000000000000000000000000000000000000815250614991565b6145bd818460600151614991565b60a0830151511561466357614607816040518060400160405280600481526020017f6172677300000000000000000000000000000000000000000000000000000000815250614991565b614610816149e8565b60005b8360a001515181101561465957614647828560a00151838151811061463a5761463a615b98565b6020026020010151614991565b8061465181615b27565b915050614613565b5061466381614a0c565b608083015151156147645760008360200151600181111561468657614686615b82565b14156146be576040517fa80d31f700000000000000000000000000000000000000000000000000000000815260040160405180910390fd5b6146fd816040518060400160405280600f81526020017f736563726574734c6f636174696f6e0000000000000000000000000000000000815250614991565b614717818460200151600181111561451257614512615b82565b614756816040518060400160405280600781526020017f7365637265747300000000000000000000000000000000000000000000000000815250614991565b614764818460800151614a2a565b515192915050565b6001600160a01b0381163314156147c55760405162461bcd60e51b815260206004820152601760248201527f43616e6e6f74207472616e7366657220746f2073656c6600000000000000000060448201526064016109cb565b600380546001600160a01b0319166001600160a01b03838116918217909255600254604051919216907fed8889f560326eb138920d842192f0eb3dd22b4f139c87a2c57538e05bae127890600090a350565b6000807a184f03e93ff9f4daa797ed6e38ed64bf6a1f0100000000000000008310614860577a184f03e93ff9f4daa797ed6e38ed64bf6a1f010000000000000000830492506040015b6d04ee2d6d415b85acef8100000000831061488c576d04ee2d6d415b85acef8100000000830492506020015b662386f26fc1000083106148aa57662386f26fc10000830492506010015b6305f5e10083106148c2576305f5e100830492506008015b61271083106148d657612710830492506004015b606483106148e8576064830492506002015b600a8310611da25760010192915050565b80516a636f6e736f6c652e6c6f67602083016000808483855afa5050505050565b60408051808201909152606081526000602082015261493a602083615b42565b156149625761494a602083615b42565b614955906020615aa9565b61495f9083615973565b91505b60208084018390526040518085526000815290818401018181101561498657600080fd5b604052509192915050565b61499e8260038351614a33565b81516149aa9082614b54565b505050565b81516149bc9060c2614b7c565b5061151082826040516020016149d491815260200190565b604051602081830303815290604052614a2a565b6149f3816004614be5565b600181602001818151614a069190615973565b90525050565b614a17816007614be5565b600181602001818151614a069190615aa9565b61499e82600283515b60178167ffffffffffffffff1611614a5a57825161146d9060e0600585901b168317614b7c565b60ff8167ffffffffffffffff1611614a9c578251614a83906018611fe0600586901b1617614b7c565b50825161146d9067ffffffffffffffff83166001614bfc565b61ffff8167ffffffffffffffff1611614adf578251614ac6906019611fe0600586901b1617614b7c565b50825161146d9067ffffffffffffffff83166002614bfc565b63ffffffff8167ffffffffffffffff1611614b24578251614b0b90601a611fe0600586901b1617614b7c565b50825161146d9067ffffffffffffffff83166004614bfc565b8251614b3b90601b611fe0600586901b1617614b7c565b50825161146d9067ffffffffffffffff83166008614bfc565b604080518082019091526060815260006020820152614b7583838451614c81565b9392505050565b6040805180820190915260608152600060208201528251516000614ba1826001615973565b905084602001518210614bc257614bc285614bbd836002615a8a565b614d52565b8451602083820101858153508051821115614bdb578181525b5093949350505050565b81516149aa90601f611fe0600585901b1617614b7c565b6040805180820190915260608152600060208201528351516000614c208285615973565b90508560200151811115614c3d57614c3d86614bbd836002615a8a565b60006001614c4d866101006159e2565b614c579190615aa9565b90508651828101878319825116178152508051831115614c75578281525b50959695505050505050565b6040805180820190915260608152600060208201528251821115614ca457600080fd5b8351516000614cb38483615973565b90508560200151811115614cd057614cd086614bbd836002615a8a565b855180518382016020019160009180851115614cea578482525b505050602086015b60208610614d2a5780518252614d09602083615973565b9150614d16602082615973565b9050614d23602087615aa9565b9550614cf2565b51815160001960208890036101000a0190811690199190911617905250849150509392505050565b8151614d5e838361491a565b5061146d8382614b54565b828054614d7590615aec565b90600052602060002090601f016020900481019282614d975760008555614ddd565b82601f10614db057805160ff1916838001178555614ddd565b82800160010185558215614ddd579182015b82811115614ddd578251825591602001919060010190614dc2565b50614de9929150614e5c565b5090565b828054828255906000526020600020908101928215614ddd5791602002820182811115614ddd578251825591602001919060010190614dc2565b6040518060400160405280614e4f604051806040016040528060608152602001600081525090565b8152602001600081525090565b5b80821115614de95760008155600101614e5d565b60008083601f840112614e8357600080fd5b50813567ffffffffffffffff811115614e9b57600080fd5b6020830191508360208260051b8501011115614eb657600080fd5b9250929050565b600082601f830112614ece57600080fd5b81356020614ee3614ede83615927565b6158f6565b80838252828201915082860187848660051b8901011115614f0357600080fd5b6000805b86811015614f4657823567ffffffffffffffff811115614f25578283fd5b614f338b88838d0101614f54565b8652509385019391850191600101614f07565b509198975050505050505050565b600082601f830112614f6557600080fd5b8135614f73614ede8261594b565b818152846020838601011115614f8857600080fd5b816020850160208301376000918101602001919091529392505050565b803560018110614fb457600080fd5b919050565b803560028110614fb457600080fd5b803563ffffffff81168114614fb457600080fd5b803567ffffffffffffffff81168114614fb457600080fd5b60006020828403121561500657600080fd5b8135614b7581615bc4565b60006020828403121561502357600080fd5b8151614b7581615bc4565b6000806040838503121561504157600080fd5b823561504c81615bc4565b946020939093013593505050565b60006020828403121561506c57600080fd5b5035919050565b60006020828403121561508557600080fd5b5051919050565b6000806000606084860312156150a157600080fd5b83359250602084013567ffffffffffffffff808211156150c057600080fd5b6150cc87838801614f54565b935060408601359150808211156150e257600080fd5b506150ef86828701614f54565b9150509250925092565b60006020828403121561510b57600080fd5b813567ffffffffffffffff81111561512257600080fd5b61512e84828501614f54565b949350505050565b60006020828403121561514857600080fd5b815167ffffffffffffffff81111561515f57600080fd5b8201601f8101841361517057600080fd5b805161517e614ede8261594b565b81815285602083850101111561519357600080fd5b6139df826020830160208601615ac0565b600080600080600080608087890312156151bd57600080fd5b863567ffffffffffffffff808211156151d557600080fd5b818901915089601f8301126151e957600080fd5b8135818111156151f857600080fd5b8a602082850101111561520a57600080fd5b60209283019850965090880135908082111561522557600080fd5b5061523289828a01614e71565b9095509350615245905060408801614fdc565b915061525360608801614fc8565b90509295509295509295565b6000806000806080858703121561527557600080fd5b843567ffffffffffffffff8082111561528d57600080fd5b9086019060c082890312156152a157600080fd5b6152a96158cd565b6152b283614fb9565b81526152c060208401614fb9565b60208201526152d160408401614fa5565b60408201526060830135828111156152e857600080fd5b6152f48a828601614f54565b60608301525060808301358281111561530c57600080fd5b6153188a828601614f54565b60808301525060a08301358281111561533057600080fd5b61533c8a828601614ebd565b60a083015250955061535391505060208601614fdc565b925061536160408601614fc8565b9396929550929360600135925050565b6000806040838503121561538457600080fd5b8235915060208084013567ffffffffffffffff8111156153a357600080fd5b8401601f810186136153b457600080fd5b80356153c2614ede82615927565b80828252848201915084840189868560051b87010111156153e257600080fd5b600094505b838510156154055780358352600194909401939185019185016153e7565b5080955050505050509250929050565b60006020828403121561542757600080fd5b81516bffffffffffffffffffffffff81168114614b7557600080fd5b600081518084526020808501945080840160005b8381101561547357815187529582019590820190600101615457565b509495945050505050565b60008151808452615496816020860160208601615ac0565b601f01601f19169290920160200192915050565b600061018082518185526154c08286018261547e565b915050602083015184820360208601526154da828261547e565b915050604083015184820360408601526154f4828261547e565b9150506060830151848203606086015261550e828261547e565b91505060808301518482036080860152615528828261547e565b91505060a083015184820360a0860152615542828261547e565b91505060c083015184820360c086015261555c828261547e565b91505060e083015184820360e0860152615576828261547e565b9150506101008084015185830382870152615591838261547e565b9250505061012080840151858303828701526155ad838261547e565b9250505061014080840151858303828701526155c9838261547e565b9250505061016080840151858303828701526155e5838261547e565b9695505050505050565b6000602080830181845280855180835260408601915060408160051b870101925083870160005b8281101561564457603f198886030184526156328583516154aa565b94509285019290850190600101615616565b5092979650505050505050565b602081526000614b756020830184615443565b821515815260406020820152600061512e6040830184615443565b602081526000614b75602083018461547e565b6040815260006156a5604083018561547e565b82810360208401526139df818561547e565b60208101600383106156d957634e487b7160e01b600052602160045260246000fd5b91905290565b610180815260006156f461018083018f61547e565b8281036020840152615706818f61547e565b9050828103604084015261571a818e61547e565b9050828103606084015261572e818d61547e565b90508281036080840152615742818c61547e565b905082810360a0840152615756818b61547e565b905082810360c084015261576a818a61547e565b905082810360e084015261577e818961547e565b9050828103610100840152615793818861547e565b90508281036101208401526157a8818761547e565b90508281036101408401526157bd818661547e565b90508281036101608401526157d2818561547e565b9f9e505050505050505050505050505050565b602081526000614b7560208301846154aa565b82815260406020820152600061512e6040830184615443565b67ffffffffffffffff84168152606060208201526000615834606083018561547e565b905063ffffffff83166040830152949350505050565b67ffffffffffffffff8516815260806020820152600061586d608083018661547e565b63ffffffff949094166040830152506060015292915050565b6000808335601e1984360301811261589d57600080fd5b83018035915067ffffffffffffffff8211156158b857600080fd5b602001915036819003821315614eb657600080fd5b60405160c0810167ffffffffffffffff811182821017156158f0576158f0615bae565b60405290565b604051601f8201601f1916810167ffffffffffffffff8111828210171561591f5761591f615bae565b604052919050565b600067ffffffffffffffff82111561594157615941615bae565b5060051b60200190565b600067ffffffffffffffff82111561596557615965615bae565b50601f01601f191660200190565b6000821982111561598657615986615b56565b500190565b60008261599a5761599a615b6c565b500490565b600181815b808511156159da5781600019048211156159c0576159c0615b56565b808516156159cd57918102915b93841c93908002906159a4565b509250929050565b6000614b7583836000826159f857506001611da2565b81615a0557506000611da2565b8160018114615a1b5760028114615a2557615a41565b6001915050611da2565b60ff841115615a3657615a36615b56565b50506001821b611da2565b5060208310610133831016604e8410600b8410161715615a64575081810a611da2565b615a6e838361599f565b8060001904821115615a8257615a82615b56565b029392505050565b6000816000190483118215151615615aa457615aa4615b56565b500290565b600082821015615abb57615abb615b56565b500390565b60005b83811015615adb578181015183820152602001615ac3565b8381111561146d5750506000910152565b600181811c90821680615b0057607f821691505b60208210811415615b2157634e487b7160e01b600052602260045260246000fd5b50919050565b6000600019821415615b3b57615b3b615b56565b5060010190565b600082615b5157615b51615b6c565b500690565b634e487b7160e01b600052601160045260246000fd5b634e487b7160e01b600052601260045260246000fd5b634e487b7160e01b600052602160045260246000fd5b634e487b7160e01b600052603260045260246000fd5b634e487b7160e01b600052604160045260246000fd5b6001600160a01b0381168114613e8657600080fdfea2646970667358221220e5d6c59c0b97c08ffe32b886baa0031d1dc5a4b7a6430cd083de841199d7ec8664736f6c63430008070033",
  "linkReferences": {},
  "deployedLinkReferences": {}
}