{
  "_format": "hh-sol-artifact-1",
  "contractName": "Insurance",
  "sourceName": "contracts/Insurance.sol",
  "abi": [
    {
      "inputs": [
        {
          "internalType": "address",
          "name": "oracle",
          "type": "address"
        },
        {
          "internalType": "address",
          "name": "linkMaticPrice",
          "type": "address"
        },
        {
          "internalType": "address",
          "name": "randomness",
          "type": "address"
        }
      ],
      "stateMutability": "nonpayable",
      "type": "constructor"
    },
    {
      "inputs": [],
      "name": "EmptyArgs",
      "type": "error"
    },
    {
      "inputs": [],
      "name": "EmptySecrets",
      "type": "error"
    },
    {
      "inputs": [],
      "name": "EmptySource",
      "type": "error"
    },
    {
      "inputs": [],
      "name": "NoInlineSecrets",
      "type": "error"
    },
    {
      "inputs": [],
      "name": "RequestIsAlreadyPending",
      "type": "error"
    },
    {
      "inputs": [],
      "name": "RequestIsNotPending",
      "type": "error"
    },
    {
      "inputs": [],
      "name": "SenderIsNotRegistry",
      "type": "error"
    },
    {
      "anonymous": false,
      "inputs": [
        {
          "indexed": true,
          "internalType": "bytes32",
          "name": "requestId",
          "type": "bytes32"
        }
      ],
      "name": "OCRRequest",
      "type": "event"
    },
    {
      "anonymous": false,
      "inputs": [
        {
          "indexed": true,
          "internalType": "bytes32",
          "name": "requestId",
          "type": "bytes32"
        },
        {
          "indexed": false,
          "internalType": "bytes",
          "name": "result",
          "type": "bytes"
        },
        {
          "indexed": false,
          "internalType": "bytes",
          "name": "err",
          "type": "bytes"
        }
      ],
      "name": "OCRResponse",
      "type": "event"
    },
    {
      "anonymous": false,
      "inputs": [
        {
          "indexed": true,
          "internalType": "address",
          "name": "from",
          "type": "address"
        },
        {
          "indexed": true,
          "internalType": "address",
          "name": "to",
          "type": "address"
        }
      ],
      "name": "OwnershipTransferRequested",
      "type": "event"
    },
    {
      "anonymous": false,
      "inputs": [
        {
          "indexed": true,
          "internalType": "address",
          "name": "from",
          "type": "address"
        },
        {
          "indexed": true,
          "internalType": "address",
          "name": "to",
          "type": "address"
        }
      ],
      "name": "OwnershipTransferred",
      "type": "event"
    },
    {
      "anonymous": false,
      "inputs": [
        {
          "indexed": true,
          "internalType": "bytes32",
          "name": "id",
          "type": "bytes32"
        }
      ],
      "name": "RequestFulfilled",
      "type": "event"
    },
    {
      "anonymous": false,
      "inputs": [
        {
          "indexed": true,
          "internalType": "bytes32",
          "name": "id",
          "type": "bytes32"
        }
      ],
      "name": "RequestSent",
      "type": "event"
    },
    {
      "inputs": [],
      "name": "acceptOwnership",
      "outputs": [],
      "stateMutability": "nonpayable",
      "type": "function"
    },
    {
      "inputs": [
        {
          "internalType": "address",
          "name": "oracleAddress",
          "type": "address"
        },
        {
          "internalType": "bytes32",
          "name": "requestId",
          "type": "bytes32"
        }
      ],
      "name": "addSimulatedRequestId",
      "outputs": [],
      "stateMutability": "nonpayable",
      "type": "function"
    },
    {
      "inputs": [],
      "name": "checkInsuranceData",
      "outputs": [
        {
          "internalType": "bool",
          "name": "",
          "type": "bool"
        }
      ],
      "stateMutability": "view",
      "type": "function"
    },
    {
      "inputs": [],
      "name": "constructionTime",
      "outputs": [
        {
          "internalType": "uint256",
          "name": "",
          "type": "uint256"
        }
      ],
      "stateMutability": "view",
      "type": "function"
    },
    {
      "inputs": [],
      "name": "currentTime",
      "outputs": [
        {
          "internalType": "uint256",
          "name": "",
          "type": "uint256"
        }
      ],
      "stateMutability": "view",
      "type": "function"
    },
    {
      "inputs": [
        {
          "components": [
            {
              "internalType": "enum Functions.Location",
              "name": "codeLocation",
              "type": "uint8"
            },
            {
              "internalType": "enum Functions.Location",
              "name": "secretsLocation",
              "type": "uint8"
            },
            {
              "internalType": "enum Functions.CodeLanguage",
              "name": "language",
              "type": "uint8"
            },
            {
              "internalType": "string",
              "name": "source",
              "type": "string"
            },
            {
              "internalType": "bytes",
              "name": "secrets",
              "type": "bytes"
            },
            {
              "internalType": "string[]",
              "name": "args",
              "type": "string[]"
            }
          ],
          "internalType": "struct Functions.Request",
          "name": "req",
          "type": "tuple"
        },
        {
          "internalType": "uint64",
          "name": "subscriptionId",
          "type": "uint64"
        },
        {
          "internalType": "uint32",
          "name": "gasLimit",
          "type": "uint32"
        },
        {
          "internalType": "uint256",
          "name": "gasPrice",
          "type": "uint256"
        }
      ],
      "name": "estimateCost",
      "outputs": [
        {
          "internalType": "uint96",
          "name": "",
          "type": "uint96"
        }
      ],
      "stateMutability": "view",
      "type": "function"
    },
    {
      "inputs": [
        {
          "internalType": "string",
          "name": "source",
          "type": "string"
        },
        {
          "internalType": "bytes",
          "name": "secrets",
          "type": "bytes"
        },
        {
          "internalType": "string[]",
          "name": "args",
          "type": "string[]"
        },
        {
          "internalType": "uint64",
          "name": "subscriptionId",
          "type": "uint64"
        },
        {
          "internalType": "uint32",
          "name": "gasLimit",
          "type": "uint32"
        }
      ],
      "name": "estimateInsurance",
      "outputs": [
        {
          "internalType": "bytes32",
          "name": "",
          "type": "bytes32"
        }
      ],
      "stateMutability": "payable",
      "type": "function"
    },
    {
      "inputs": [],
      "name": "getCurrentTime",
      "outputs": [
        {
          "internalType": "uint256",
          "name": "",
          "type": "uint256"
        }
      ],
      "stateMutability": "view",
      "type": "function"
    },
    {
      "inputs": [],
      "name": "getDONPublicKey",
      "outputs": [
        {
          "internalType": "bytes",
          "name": "",
          "type": "bytes"
        }
      ],
      "stateMutability": "view",
      "type": "function"
    },
    {
      "inputs": [],
      "name": "getLatestPrice",
      "outputs": [
        {
          "internalType": "int256",
          "name": "",
          "type": "int256"
        }
      ],
      "stateMutability": "view",
      "type": "function"
    },
    {
      "inputs": [],
      "name": "getRandomWords",
      "outputs": [
        {
          "internalType": "bytes",
          "name": "",
          "type": "bytes"
        }
      ],
      "stateMutability": "nonpayable",
      "type": "function"
    },
    {
      "inputs": [],
      "name": "globalDayNumber",
      "outputs": [
        {
          "internalType": "int256",
          "name": "",
          "type": "int256"
        }
      ],
      "stateMutability": "view",
      "type": "function"
    },
    {
      "inputs": [
        {
          "internalType": "bytes32",
          "name": "requestId",
          "type": "bytes32"
        },
        {
          "internalType": "bytes",
          "name": "response",
          "type": "bytes"
        },
        {
          "internalType": "bytes",
          "name": "err",
          "type": "bytes"
        }
      ],
      "name": "handleOracleFulfillment",
      "outputs": [],
      "stateMutability": "nonpayable",
      "type": "function"
    },
    {
      "inputs": [],
      "name": "helloWorld",
      "outputs": [
        {
          "internalType": "string",
          "name": "",
          "type": "string"
        }
      ],
      "stateMutability": "view",
      "type": "function"
    },
    {
      "inputs": [
        {
          "internalType": "address",
          "name": "",
          "type": "address"
        },
        {
          "internalType": "uint256",
          "name": "",
          "type": "uint256"
        }
      ],
      "name": "insuranceDataMapping",
      "outputs": [
        {
          "internalType": "string",
          "name": "latNe",
          "type": "string"
        },
        {
          "internalType": "string",
          "name": "longNe",
          "type": "string"
        },
        {
          "internalType": "string",
          "name": "latSe",
          "type": "string"
        },
        {
          "internalType": "string",
          "name": "longSe",
          "type": "string"
        },
        {
          "internalType": "string",
          "name": "latSw",
          "type": "string"
        },
        {
          "internalType": "string",
          "name": "longSw",
          "type": "string"
        },
        {
          "internalType": "string",
          "name": "latNw",
          "type": "string"
        },
        {
          "internalType": "string",
          "name": "longNw",
          "type": "string"
        },
        {
          "internalType": "string",
          "name": "configParam",
          "type": "string"
        },
        {
          "internalType": "string",
          "name": "currentTime",
          "type": "string"
        },
        {
          "internalType": "string",
          "name": "startTime",
          "type": "string"
        },
        {
          "internalType": "string",
          "name": "endTime",
          "type": "string"
        }
      ],
      "stateMutability": "view",
      "type": "function"
    },
    {
      "inputs": [],
      "name": "latestError",
      "outputs": [
        {
          "internalType": "bytes",
          "name": "",
          "type": "bytes"
        }
      ],
      "stateMutability": "view",
      "type": "function"
    },
    {
      "inputs": [],
      "name": "latestRequestId",
      "outputs": [
        {
          "internalType": "bytes32",
          "name": "",
          "type": "bytes32"
        }
      ],
      "stateMutability": "view",
      "type": "function"
    },
    {
      "inputs": [],
      "name": "latestResponse",
      "outputs": [
        {
          "internalType": "bytes",
          "name": "",
          "type": "bytes"
        }
      ],
      "stateMutability": "view",
      "type": "function"
    },
    {
      "inputs": [],
      "name": "owner",
      "outputs": [
        {
          "internalType": "address",
          "name": "",
          "type": "address"
        }
      ],
      "stateMutability": "view",
      "type": "function"
    },
    {
      "inputs": [],
      "name": "priceFeed",
      "outputs": [
        {
          "internalType": "contract PriceConsumerV3",
          "name": "",
          "type": "address"
        }
      ],
      "stateMutability": "view",
      "type": "function"
    },
    {
      "inputs": [],
      "name": "randomFeed",
      "outputs": [
        {
          "internalType": "contract VRFv2Consumer",
          "name": "",
          "type": "address"
        }
      ],
      "stateMutability": "view",
      "type": "function"
    },
    {
      "inputs": [
        {
          "internalType": "uint256",
          "name": "requestId",
          "type": "uint256"
        },
        {
          "internalType": "uint256[]",
          "name": "randomWords",
          "type": "uint256[]"
        }
      ],
      "name": "receiveRandomness",
      "outputs": [],
      "stateMutability": "nonpayable",
      "type": "function"
    },
    {
      "inputs": [
        {
          "internalType": "bytes32",
          "name": "",
          "type": "bytes32"
        }
      ],
      "name": "requestOwners",
      "outputs": [
        {
          "internalType": "address",
          "name": "",
          "type": "address"
        }
      ],
      "stateMutability": "view",
      "type": "function"
    },
    {
      "inputs": [
        {
          "internalType": "bytes32",
          "name": "",
          "type": "bytes32"
        }
      ],
      "name": "responses",
      "outputs": [
        {
          "internalType": "bytes",
          "name": "",
          "type": "bytes"
        }
      ],
      "stateMutability": "view",
      "type": "function"
    },
    {
      "inputs": [
        {
          "internalType": "address",
          "name": "to",
          "type": "address"
        }
      ],
      "name": "transferOwnership",
      "outputs": [],
      "stateMutability": "nonpayable",
      "type": "function"
    },
    {
      "inputs": [
        {
          "internalType": "address",
          "name": "oracle",
          "type": "address"
        }
      ],
      "name": "updateOracleAddress",
      "outputs": [],
      "stateMutability": "nonpayable",
      "type": "function"
    }
  ],
  "bytecode": "0x608060405242600b553480156200001557600080fd5b50604051620041e1380380620041e18339810160408190526200003891620001f3565b600080546001600160a01b0319166001600160a01b038516178155339081906001600160a01b038216620000b35760405162461bcd60e51b815260206004820152601860248201527f43616e6e6f7420736574206f776e657220746f207a65726f000000000000000060448201526064015b60405180910390fd5b600280546001600160a01b0319166001600160a01b0384811691909117909155811615620000e657620000e68162000129565b5050600480546001600160a01b039485166001600160a01b0319918216179091556005805493909416921691909117909155505042600a5560006009556200023d565b6001600160a01b038116331415620001845760405162461bcd60e51b815260206004820152601760248201527f43616e6e6f74207472616e7366657220746f2073656c660000000000000000006044820152606401620000aa565b600380546001600160a01b0319166001600160a01b03838116918217909255600254604051919216907fed8889f560326eb138920d842192f0eb3dd22b4f139c87a2c57538e05bae127890600090a350565b80516001600160a01b0381168114620001ee57600080fd5b919050565b6000806000606084860312156200020957600080fd5b6200021484620001d6565b92506200022460208501620001d6565b91506200023460408501620001d6565b90509250925092565b613f94806200024d6000396000f3fe6080604052600436106101a15760003560e01c8063985454ff116100e1578063d328a91e1161008a578063f06c561011610064578063f06c561014610476578063f2fde38b1461048c578063f7023bb6146104ac578063fffeb84e146104cc57600080fd5b8063d328a91e146103ff578063d4b3917514610414578063e09191011461045157600080fd5b8063c605f76c116100bb578063c605f76c146103bf578063ce10b1fb146103d4578063d18e81b3146103e957600080fd5b8063985454ff14610361578063a0625a1e14610374578063bef3a2f0146103aa57600080fd5b806337f9c70d1161014e578063741bef1a11610128578063741bef1a146102f957806379ba5097146103195780638da5cb5b1461032e5780638e15f4731461034c57600080fd5b806337f9c70d146102965780634b11b4a1146102b657806372164a6c146102cc57600080fd5b80632142735a1161017f5780632142735a1461022957806329cb924d1461026157806330bda99d1461027657600080fd5b80630ca76175146101a6578063126455dd146101c85780631aa46f5914610205575b600080fd5b3480156101b257600080fd5b506101c66101c1366004613691565b6104e1565b005b3480156101d457600080fd5b506005546101e8906001600160a01b031681565b6040516001600160a01b0390911681526020015b60405180910390f35b34801561021157600080fd5b5061021b60065481565b6040519081526020016101fc565b34801561023557600080fd5b50610249610244366004613633565b610587565b6040516101fc9c9b9a99989796959493929190613a9f565b34801561026d57600080fd5b50600b5461021b565b34801561028257600080fd5b506101c6610291366004613633565b610c64565b3480156102a257600080fd5b506101c66102b1366004613969565b610c7a565b3480156102c257600080fd5b5061021b60095481565b3480156102d857600080fd5b506102ec6102e736600461365f565b610e8c565b6040516101fc9190613a67565b34801561030557600080fd5b506004546101e8906001600160a01b031681565b34801561032557600080fd5b506101c6610f26565b34801561033a57600080fd5b506002546001600160a01b03166101e8565b34801561035857600080fd5b5061021b610fdb565b61021b61036f36600461376c565b611068565b34801561038057600080fd5b506101e861038f36600461365f565b600d602052600090815260409020546001600160a01b031681565b3480156103b657600080fd5b506102ec611a07565b3480156103cb57600080fd5b506102ec611a14565b3480156103e057600080fd5b506102ec611a8c565b3480156103f557600080fd5b5061021b600b5481565b34801561040b57600080fd5b506102ec611ba1565b34801561042057600080fd5b5061043461042f366004613857565b611c3a565b6040516bffffffffffffffffffffffff90911681526020016101fc565b34801561045d57600080fd5b50610466611cd0565b60405190151581526020016101fc565b34801561048257600080fd5b5061021b600a5481565b34801561049857600080fd5b506101c66104a73660046135f9565b61254c565b3480156104b857600080fd5b506101c66104c73660046135f9565b612560565b3480156104d857600080fd5b506102ec612586565b60008381526001602052604090205483906001600160a01b03163314610533576040517fa0c5ec6300000000000000000000000000000000000000000000000000000000815260040160405180910390fd5b60008181526001602052604080822080546001600160a01b03191690555182917f85e1543bf2f84fe80c6badbce3648c8539ad1df4d2b3d822938ca0538be727e691a2610581848484612593565b50505050565b600e60205281600052604060002081815481106105a357600080fd5b90600052602060002090600d0201600091509150508060000180546105c790613e79565b80601f01602080910402602001604051908101604052809291908181526020018280546105f390613e79565b80156106405780601f1061061557610100808354040283529160200191610640565b820191906000526020600020905b81548152906001019060200180831161062357829003601f168201915b50505050509080600101805461065590613e79565b80601f016020809104026020016040519081016040528092919081815260200182805461068190613e79565b80156106ce5780601f106106a3576101008083540402835291602001916106ce565b820191906000526020600020905b8154815290600101906020018083116106b157829003601f168201915b5050505050908060020180546106e390613e79565b80601f016020809104026020016040519081016040528092919081815260200182805461070f90613e79565b801561075c5780601f106107315761010080835404028352916020019161075c565b820191906000526020600020905b81548152906001019060200180831161073f57829003601f168201915b50505050509080600301805461077190613e79565b80601f016020809104026020016040519081016040528092919081815260200182805461079d90613e79565b80156107ea5780601f106107bf576101008083540402835291602001916107ea565b820191906000526020600020905b8154815290600101906020018083116107cd57829003601f168201915b5050505050908060040180546107ff90613e79565b80601f016020809104026020016040519081016040528092919081815260200182805461082b90613e79565b80156108785780601f1061084d57610100808354040283529160200191610878565b820191906000526020600020905b81548152906001019060200180831161085b57829003601f168201915b50505050509080600501805461088d90613e79565b80601f01602080910402602001604051908101604052809291908181526020018280546108b990613e79565b80156109065780601f106108db57610100808354040283529160200191610906565b820191906000526020600020905b8154815290600101906020018083116108e957829003601f168201915b50505050509080600601805461091b90613e79565b80601f016020809104026020016040519081016040528092919081815260200182805461094790613e79565b80156109945780601f1061096957610100808354040283529160200191610994565b820191906000526020600020905b81548152906001019060200180831161097757829003601f168201915b5050505050908060070180546109a990613e79565b80601f01602080910402602001604051908101604052809291908181526020018280546109d590613e79565b8015610a225780601f106109f757610100808354040283529160200191610a22565b820191906000526020600020905b815481529060010190602001808311610a0557829003601f168201915b505050505090806008018054610a3790613e79565b80601f0160208091040260200160405190810160405280929190818152602001828054610a6390613e79565b8015610ab05780601f10610a8557610100808354040283529160200191610ab0565b820191906000526020600020905b815481529060010190602001808311610a9357829003601f168201915b505050505090806009018054610ac590613e79565b80601f0160208091040260200160405190810160405280929190818152602001828054610af190613e79565b8015610b3e5780601f10610b1357610100808354040283529160200191610b3e565b820191906000526020600020905b815481529060010190602001808311610b2157829003601f168201915b50505050509080600a018054610b5390613e79565b80601f0160208091040260200160405190810160405280929190818152602001828054610b7f90613e79565b8015610bcc5780601f10610ba157610100808354040283529160200191610bcc565b820191906000526020600020905b815481529060010190602001808311610baf57829003601f168201915b50505050509080600b018054610be190613e79565b80601f0160208091040260200160405190810160405280929190818152602001828054610c0d90613e79565b8015610c5a5780601f10610c2f57610100808354040283529160200191610c5a565b820191906000526020600020905b815481529060010190602001808311610c3d57829003601f168201915b505050505090508c565b610c6c61261a565b610c768282612676565b5050565b6005546001600160a01b03163314610cff5760405162461bcd60e51b815260206004820152602960248201527f4f6e6c79205652467632436f6e73756d65722063616e2063616c6c207468697360448201527f2066756e6374696f6e000000000000000000000000000000000000000000000060648201526084015b60405180910390fd5b8051600314610d765760405162461bcd60e51b815260206004820152602360248201527f556e6578706563746564206e756d626572206f662072616e646f6d206e756d6260448201527f65727300000000000000000000000000000000000000000000000000000000006064820152608401610cf6565b336000908152600e602052604090208054610df95760405162461bcd60e51b815260206004820152602e60248201527f4e6f20696e737572616e6365206461746120666f756e6420666f72207468652060448201527f726571756573742073656e6465720000000000000000000000000000000000006064820152608401610cf6565b80546000908290610e0c90600190613e29565b81548110610e1c57610e1c613f1d565b90600052602060002090600d0201905060005b6003811015610e8557838181518110610e4a57610e4a613f1d565b602002602001015182600c018281548110610e6757610e67613f1d565b60009182526020909120015580610e7d81613eb4565b915050610e2f565b5050505050565b600c6020526000908152604090208054610ea590613e79565b80601f0160208091040260200160405190810160405280929190818152602001828054610ed190613e79565b8015610f1e5780601f10610ef357610100808354040283529160200191610f1e565b820191906000526020600020905b815481529060010190602001808311610f0157829003601f168201915b505050505081565b6003546001600160a01b03163314610f805760405162461bcd60e51b815260206004820152601660248201527f4d7573742062652070726f706f736564206f776e6572000000000000000000006044820152606401610cf6565b600280546001600160a01b0319808216339081179093556003805490911690556040516001600160a01b03909116919082907f8be0079c531659141344cd1fd0a4f28419497f9722a3daafe3b4186f6b6457e090600090a350565b6000600460009054906101000a90046001600160a01b03166001600160a01b0316638e15f4736040518163ffffffff1660e01b815260040160206040518083038186803b15801561102b57600080fd5b505afa15801561103f573d6000803e3d6000fd5b505050506040513d601f19601f820116820180604052508101906110639190613678565b905090565b6000600c84146110ba5760405162461bcd60e51b815260206004820152601b60248201527f496e76616c6964206e756d626572206f6620617267756d656e747300000000006044820152606401610cf6565b6110f86040518060400160405280601581526020017f476f7420746865206c61746573742070726963652100000000000000000000008152506126f6565b336000908152600e6020526040812080549091906117695781604051806101a001604052808989600081811061113057611130613f1d565b90506020028101906111429190613c1a565b8080601f0160208091040260200160405190810160405280939291908181526020018383808284376000920191909152505050908252506020018989600181811061118f5761118f613f1d565b90506020028101906111a19190613c1a565b8080601f016020809104026020016040519081016040528093929190818152602001838380828437600092019190915250505090825250602001898960028181106111ee576111ee613f1d565b90506020028101906112009190613c1a565b8080601f0160208091040260200160405190810160405280939291908181526020018383808284376000920191909152505050908252506020018989600381811061124d5761124d613f1d565b905060200281019061125f9190613c1a565b8080601f016020809104026020016040519081016040528093929190818152602001838380828437600092019190915250505090825250602001898960048181106112ac576112ac613f1d565b90506020028101906112be9190613c1a565b8080601f0160208091040260200160405190810160405280939291908181526020018383808284376000920191909152505050908252506020018989600581811061130b5761130b613f1d565b905060200281019061131d9190613c1a565b8080601f0160208091040260200160405190810160405280939291908181526020018383808284376000920191909152505050908252506020018989600681811061136a5761136a613f1d565b905060200281019061137c9190613c1a565b8080601f016020809104026020016040519081016040528093929190818152602001838380828437600092019190915250505090825250602001898960078181106113c9576113c9613f1d565b90506020028101906113db9190613c1a565b8080601f0160208091040260200160405190810160405280939291908181526020018383808284376000920191909152505050908252506020018989600881811061142857611428613f1d565b905060200281019061143a9190613c1a565b8080601f0160208091040260200160405190810160405280939291908181526020018383808284376000920191909152505050908252506020018989600981811061148757611487613f1d565b90506020028101906114999190613c1a565b8080601f0160208091040260200160405190810160405280939291908181526020018383808284376000920191909152505050908252506020018989600a8181106114e6576114e6613f1d565b90506020028101906114f89190613c1a565b8080601f0160208091040260200160405190810160405280939291908181526020018383808284376000920191909152505050908252506020018989600b81811061154557611545613f1d565b90506020028101906115579190613c1a565b8080601f016020809104026020016040519081016040528093929190818152602001838380828437600092019190915250505090825250604080516003808252608082019092526020928301929091908201606080368337505050905281546001810183556000928352602092839020825180519394600d909302909101926115e39284920190613368565b5060208281015180516115fc9260018501920190613368565b5060408201518051611618916002840191602090910190613368565b5060608201518051611634916003840191602090910190613368565b5060808201518051611650916004840191602090910190613368565b5060a0820151805161166c916005840191602090910190613368565b5060c08201518051611688916006840191602090910190613368565b5060e082015180516116a4916007840191602090910190613368565b5061010082015180516116c1916008840191602090910190613368565b5061012082015180516116de916009840191602090910190613368565b5061014082015180516116fb91600a840191602090910190613368565b50610160820151805161171891600b840191602090910190613368565b50610180820151805161173591600c8401916020909101906133ec565b5050825483915061174890600190613e29565b8154811061175857611758613f1d565b90600052602060002090600d020190505b6117a36040805160c08101909152806000815260200160008152602001600081526020016060815260200160608152602001606081525090565b6117ea6000808e8e8080601f016020809104026020016040519081016040528093929190818152602001838380828437600092019190915250879594939250506127679050565b8815611832576118328a8a8080601f01602080910402602001604051908101604052809392919081815260200183838082843760009201919091525085939250506127fb9050565b861561184c5761184c611845888a613e40565b8290612842565b6000611859600a54612882565b90506000611868896001613d07565b67ffffffffffffffff81111561188057611880613f33565b6040519080825280602002602001820160405280156118b357816020015b606081526020019060019003908161189e5790505b50905060005b8981101561194b578a8a828181106118d3576118d3613f1d565b90506020028101906118e59190613c1a565b8080601f016020809104026020016040519081016040528093929190818152602001838380828437600092019190915250508451859250849150811061192d5761192d613f1d565b6020026020010181905250808061194390613eb4565b9150506118b9565b5081818b8b90508151811061196257611962613f1d565b602002602001018190525061199081600c8151811061198357611983613f1d565b60200260200101516126f6565b61199a8382612842565b60006119a7848a8a61292c565b60068190556000818152600d602052604080822080546001600160a01b031916331790555191925082917f0790d5075e76350b19c3d15f0de9144077f6fb31397b526ce8664d7faf7dde6b9190a29e9d5050505050505050505050505050565b60078054610ea590613e79565b6060611a546040518060400160405280600481526020017f54657374000000000000000000000000000000000000000000000000000000008152506126f6565b5060408051808201909152600c81527f48656c6c6f20576f726c64210000000000000000000000000000000000000000602082015290565b336000818152600e6020526040902080546060929190611b135760405162461bcd60e51b8152602060048201526024808201527f4e6f20696e737572616e6365206461746120666f756e6420666f72207468652060448201527f75736572000000000000000000000000000000000000000000000000000000006064820152608401610cf6565b600560009054906101000a90046001600160a01b03166001600160a01b031663e0c862896040518163ffffffff1660e01b8152600401602060405180830381600087803b158015611b6357600080fd5b505af1158015611b77573d6000803e3d6000fd5b505050506040513d601f19601f82011682018060405250810190611b9b9190613678565b50505090565b60008054604080517fd328a91e00000000000000000000000000000000000000000000000000000000815290516060936001600160a01b039093169263d328a91e9260048082019391829003018186803b158015611bfe57600080fd5b505afa158015611c12573d6000803e3d6000fd5b505050506040513d6000823e601f3d908101601f1916820160405261106391908101906136fe565b600080546001600160a01b031663d227d24585611c5688612a9e565b86866040518563ffffffff1660e01b8152600401611c779493929190613bde565b60206040518083038186803b158015611c8f57600080fd5b505afa158015611ca3573d6000803e3d6000fd5b505050506040513d601f19601f82011682018060405250810190611cc79190613a0d565b95945050505050565b336000908152600e602052604081208054611d2d5760405162461bcd60e51b815260206004820152601760248201527f4e6f20696e737572616e6365206461746120666f756e640000000000000000006044820152606401610cf6565b60005b8154811015612543576000828281548110611d4d57611d4d613f1d565b90600052602060002090600d0201604051806101a0016040529081600082018054611d7790613e79565b80601f0160208091040260200160405190810160405280929190818152602001828054611da390613e79565b8015611df05780601f10611dc557610100808354040283529160200191611df0565b820191906000526020600020905b815481529060010190602001808311611dd357829003601f168201915b50505050508152602001600182018054611e0990613e79565b80601f0160208091040260200160405190810160405280929190818152602001828054611e3590613e79565b8015611e825780601f10611e5757610100808354040283529160200191611e82565b820191906000526020600020905b815481529060010190602001808311611e6557829003601f168201915b50505050508152602001600282018054611e9b90613e79565b80601f0160208091040260200160405190810160405280929190818152602001828054611ec790613e79565b8015611f145780601f10611ee957610100808354040283529160200191611f14565b820191906000526020600020905b815481529060010190602001808311611ef757829003601f168201915b50505050508152602001600382018054611f2d90613e79565b80601f0160208091040260200160405190810160405280929190818152602001828054611f5990613e79565b8015611fa65780601f10611f7b57610100808354040283529160200191611fa6565b820191906000526020600020905b815481529060010190602001808311611f8957829003601f168201915b50505050508152602001600482018054611fbf90613e79565b80601f0160208091040260200160405190810160405280929190818152602001828054611feb90613e79565b80156120385780601f1061200d57610100808354040283529160200191612038565b820191906000526020600020905b81548152906001019060200180831161201b57829003601f168201915b5050505050815260200160058201805461205190613e79565b80601f016020809104026020016040519081016040528092919081815260200182805461207d90613e79565b80156120ca5780601f1061209f576101008083540402835291602001916120ca565b820191906000526020600020905b8154815290600101906020018083116120ad57829003601f168201915b505050505081526020016006820180546120e390613e79565b80601f016020809104026020016040519081016040528092919081815260200182805461210f90613e79565b801561215c5780601f106121315761010080835404028352916020019161215c565b820191906000526020600020905b81548152906001019060200180831161213f57829003601f168201915b5050505050815260200160078201805461217590613e79565b80601f01602080910402602001604051908101604052809291908181526020018280546121a190613e79565b80156121ee5780601f106121c3576101008083540402835291602001916121ee565b820191906000526020600020905b8154815290600101906020018083116121d157829003601f168201915b5050505050815260200160088201805461220790613e79565b80601f016020809104026020016040519081016040528092919081815260200182805461223390613e79565b80156122805780601f1061225557610100808354040283529160200191612280565b820191906000526020600020905b81548152906001019060200180831161226357829003601f168201915b5050505050815260200160098201805461229990613e79565b80601f01602080910402602001604051908101604052809291908181526020018280546122c590613e79565b80156123125780601f106122e757610100808354040283529160200191612312565b820191906000526020600020905b8154815290600101906020018083116122f557829003601f168201915b50505050508152602001600a8201805461232b90613e79565b80601f016020809104026020016040519081016040528092919081815260200182805461235790613e79565b80156123a45780601f10612379576101008083540402835291602001916123a4565b820191906000526020600020905b81548152906001019060200180831161238757829003601f168201915b50505050508152602001600b820180546123bd90613e79565b80601f01602080910402602001604051908101604052809291908181526020018280546123e990613e79565b80156124365780601f1061240b57610100808354040283529160200191612436565b820191906000526020600020905b81548152906001019060200180831161241957829003601f168201915b50505050508152602001600c820180548060200260200160405190810160405280929190818152602001828054801561248e57602002820191906000526020600020905b81548152602001906001019080831161247a575b50505050508152505090508060c00151516000141580156124b3575060e08101515115155b80156124c0575080515115155b80156124d0575060208101515115155b80156124e0575060408101515115155b80156124f0575060608101515115155b8015612500575060808101515115155b8015612510575060a08101515115155b801561252157506101008101515115155b15612530576001935050505090565b508061253b81613eb4565b915050611d30565b50600091505090565b61255461261a565b61255d81612d6a565b50565b61256861261a565b600080546001600160a01b0319166001600160a01b03831617905550565b60088054610ea590613e79565b6000838152600c6020908152604090912083516125b292850190613368565b5081516125c6906007906020850190613368565b5080516125da906008906020840190613368565b50827f7bab0ec163b5c132c72b8146ac4d6e067e82ed58f8b131150aa71c9258911562838360405161260d929190613a7a565b60405180910390a2505050565b6002546001600160a01b031633146126745760405162461bcd60e51b815260206004820152601660248201527f4f6e6c792063616c6c61626c65206279206f776e6572000000000000000000006044820152606401610cf6565b565b60008181526001602052604090205481906001600160a01b0316156126c7576040517f8b457ad200000000000000000000000000000000000000000000000000000000815260040160405180910390fd5b50600090815260016020526040902080546001600160a01b0319166001600160a01b0392909216919091179055565b61255d8160405160240161270a9190613a67565b60408051601f198184030181529190526020810180517bffffffffffffffffffffffffffffffffffffffffffffffffffffffff167f41304fac00000000000000000000000000000000000000000000000000000000179052612e15565b805161279f576040517f22ce3edd00000000000000000000000000000000000000000000000000000000815260040160405180910390fd5b838360018111156127b2576127b2613f07565b908160018111156127c5576127c5613f07565b905250604084018280156127db576127db613f07565b908180156127eb576127eb613f07565b9052506060909301929092525050565b8051612833576040517fe889636f00000000000000000000000000000000000000000000000000000000815260040160405180910390fd5b60016020830152608090910152565b805161287a576040517ffe936cb700000000000000000000000000000000000000000000000000000000815260040160405180910390fd5b60a090910152565b6060600061288f83612e36565b600101905060008167ffffffffffffffff8111156128af576128af613f33565b6040519080825280601f01601f1916602001820160405280156128d9576020820181803683370190505b5090508181016020015b600019017f3031323334353637383961626364656600000000000000000000000000000000600a86061a8153600a850494508461291f57612924565b6128e3565b509392505050565b6000805481906001600160a01b03166328242b048561294a88612a9e565b866040518463ffffffff1660e01b815260040161296993929190613ba5565b602060405180830381600087803b15801561298357600080fd5b505af1158015612997573d6000803e3d6000fd5b505050506040513d601f19601f820116820180604052508101906129bb9190613678565b905060008054906101000a90046001600160a01b03166001600160a01b0316635ab1bd536040518163ffffffff1660e01b815260040160206040518083038186803b158015612a0957600080fd5b505afa158015612a1d573d6000803e3d6000fd5b505050506040513d601f19601f82011682018060405250810190612a419190613616565b60008281526001602052604080822080546001600160a01b0319166001600160a01b039490941693909317909255905182917f1131472297a800fee664d1d89cfa8f7676ff07189ecc53f80bbb5f4969099db891a2949350505050565b6060612aa8613426565b8051612ab690610100612f19565b50612af6816040518060400160405280600c81526020017f636f64654c6f636174696f6e0000000000000000000000000000000000000000815250612f90565b612b158184600001516001811115612b1057612b10613f07565b612fae565b612b54816040518060400160405280600881526020017f6c616e6775616765000000000000000000000000000000000000000000000000815250612f90565b612b6e8184604001516000811115612b1057612b10613f07565b612bad816040518060400160405280600681526020017f736f757263650000000000000000000000000000000000000000000000000000815250612f90565b612bbb818460600151612f90565b60a08301515115612c6157612c05816040518060400160405280600481526020017f6172677300000000000000000000000000000000000000000000000000000000815250612f90565b612c0e81612fe7565b60005b8360a0015151811015612c5757612c45828560a001518381518110612c3857612c38613f1d565b6020026020010151612f90565b80612c4f81613eb4565b915050612c11565b50612c618161300b565b60808301515115612d6257600083602001516001811115612c8457612c84613f07565b1415612cbc576040517fa80d31f700000000000000000000000000000000000000000000000000000000815260040160405180910390fd5b612cfb816040518060400160405280600f81526020017f736563726574734c6f636174696f6e0000000000000000000000000000000000815250612f90565b612d158184602001516001811115612b1057612b10613f07565b612d54816040518060400160405280600781526020017f7365637265747300000000000000000000000000000000000000000000000000815250612f90565b612d62818460800151613029565b515192915050565b6001600160a01b038116331415612dc35760405162461bcd60e51b815260206004820152601760248201527f43616e6e6f74207472616e7366657220746f2073656c660000000000000000006044820152606401610cf6565b600380546001600160a01b0319166001600160a01b03838116918217909255600254604051919216907fed8889f560326eb138920d842192f0eb3dd22b4f139c87a2c57538e05bae127890600090a350565b80516a636f6e736f6c652e6c6f67602083016000808483855afa5050505050565b6000807a184f03e93ff9f4daa797ed6e38ed64bf6a1f0100000000000000008310612e7f577a184f03e93ff9f4daa797ed6e38ed64bf6a1f010000000000000000830492506040015b6d04ee2d6d415b85acef81000000008310612eab576d04ee2d6d415b85acef8100000000830492506020015b662386f26fc100008310612ec957662386f26fc10000830492506010015b6305f5e1008310612ee1576305f5e100830492506008015b6127108310612ef557612710830492506004015b60648310612f07576064830492506002015b600a8310612f13576001015b92915050565b604080518082019091526060815260006020820152612f39602083613ecf565b15612f6157612f49602083613ecf565b612f54906020613e29565b612f5e9083613d07565b91505b602080840183905260405180855260008152908184010181811015612f8557600080fd5b604052509192915050565b612f9d8260038351613032565b8151612fa99082613153565b505050565b8151612fbb9060c261317b565b50610c768282604051602001612fd391815260200190565b604051602081830303815290604052613029565b612ff28160046131e4565b6001816020018181516130059190613d07565b90525050565b6130168160076131e4565b6001816020018181516130059190613e29565b612f9d82600283515b60178167ffffffffffffffff16116130595782516105819060e0600585901b16831761317b565b60ff8167ffffffffffffffff161161309b578251613082906018611fe0600586901b161761317b565b5082516105819067ffffffffffffffff831660016131fb565b61ffff8167ffffffffffffffff16116130de5782516130c5906019611fe0600586901b161761317b565b5082516105819067ffffffffffffffff831660026131fb565b63ffffffff8167ffffffffffffffff161161312357825161310a90601a611fe0600586901b161761317b565b5082516105819067ffffffffffffffff831660046131fb565b825161313a90601b611fe0600586901b161761317b565b5082516105819067ffffffffffffffff831660086131fb565b60408051808201909152606081526000602082015261317483838451613280565b9392505050565b60408051808201909152606081526000602082015282515160006131a0826001613d07565b9050846020015182106131c1576131c1856131bc836002613e0a565b613351565b84516020838201018581535080518211156131da578181525b5093949350505050565b8151612fa990601f611fe0600585901b161761317b565b604080518082019091526060815260006020820152835151600061321f8285613d07565b9050856020015181111561323c5761323c866131bc836002613e0a565b6000600161324c86610100613d62565b6132569190613e29565b90508651828101878319825116178152508051831115613274578281525b50959695505050505050565b60408051808201909152606081526000602082015282518211156132a357600080fd5b83515160006132b28483613d07565b905085602001518111156132cf576132cf866131bc836002613e0a565b8551805183820160200191600091808511156132e9578482525b505050602086015b602086106133295780518252613308602083613d07565b9150613315602082613d07565b9050613322602087613e29565b95506132f1565b51815160001960208890036101000a0190811690199190911617905250849150509392505050565b815161335d8383612f19565b506105818382613153565b82805461337490613e79565b90600052602060002090601f01602090048101928261339657600085556133dc565b82601f106133af57805160ff19168380011785556133dc565b828001600101855582156133dc579182015b828111156133dc5782518255916020019190600101906133c1565b506133e892915061345b565b5090565b8280548282559060005260206000209081019282156133dc57916020028201828111156133dc5782518255916020019190600101906133c1565b604051806040016040528061344e604051806040016040528060608152602001600081525090565b8152602001600081525090565b5b808211156133e8576000815560010161345c565b600061348361347e84613cbb565b613c8a565b9050808382526020808301915083868660051b860111156134a357600080fd5b6000805b878110156134e457823567ffffffffffffffff8111156134c5578283fd5b6134d18a828a01613559565b86525093830193918301916001016134a7565b50505050509392505050565b600082601f83011261350157600080fd5b61317483833560208501613470565b60008083601f84011261352257600080fd5b50813567ffffffffffffffff81111561353a57600080fd5b60208301915083602082850101111561355257600080fd5b9250929050565b600082601f83011261356a57600080fd5b813561357861347e82613cdf565b81815284602083860101111561358d57600080fd5b816020850160208301376000918101602001919091529392505050565b8035600181106135b957600080fd5b919050565b8035600281106135b957600080fd5b803563ffffffff811681146135b957600080fd5b803567ffffffffffffffff811681146135b957600080fd5b60006020828403121561360b57600080fd5b813561317481613f49565b60006020828403121561362857600080fd5b815161317481613f49565b6000806040838503121561364657600080fd5b823561365181613f49565b946020939093013593505050565b60006020828403121561367157600080fd5b5035919050565b60006020828403121561368a57600080fd5b5051919050565b6000806000606084860312156136a657600080fd5b83359250602084013567ffffffffffffffff808211156136c557600080fd5b6136d187838801613559565b935060408601359150808211156136e757600080fd5b506136f486828701613559565b9150509250925092565b60006020828403121561371057600080fd5b815167ffffffffffffffff81111561372757600080fd5b8201601f8101841361373857600080fd5b805161374661347e82613cdf565b81815285602083850101111561375b57600080fd5b611cc7826020830160208601613e4d565b60008060008060008060008060a0898b03121561378857600080fd5b883567ffffffffffffffff808211156137a057600080fd5b6137ac8c838d01613510565b909a50985060208b01359150808211156137c557600080fd5b6137d18c838d01613510565b909850965060408b01359150808211156137ea57600080fd5b818b0191508b601f8301126137fe57600080fd5b81358181111561380d57600080fd5b8c60208260051b850101111561382257600080fd5b60208301965080955050505061383a60608a016135e1565b915061384860808a016135cd565b90509295985092959890939650565b6000806000806080858703121561386d57600080fd5b843567ffffffffffffffff8082111561388557600080fd5b9086019060c0828903121561389957600080fd5b6138a1613c61565b6138aa836135be565b81526138b8602084016135be565b60208201526138c9604084016135aa565b60408201526060830135828111156138e057600080fd5b6138ec8a828601613559565b60608301525060808301358281111561390457600080fd5b6139108a828601613559565b60808301525060a08301358281111561392857600080fd5b6139348a8286016134f0565b60a083015250955061394b915050602086016135e1565b9250613959604086016135cd565b9396929550929360600135925050565b6000806040838503121561397c57600080fd5b8235915060208084013567ffffffffffffffff81111561399b57600080fd5b8401601f810186136139ac57600080fd5b80356139ba61347e82613cbb565b80828252848201915084840189868560051b87010111156139da57600080fd5b600094505b838510156139fd5780358352600194909401939185019185016139df565b5080955050505050509250929050565b600060208284031215613a1f57600080fd5b81516bffffffffffffffffffffffff8116811461317457600080fd5b60008151808452613a53816020860160208601613e4d565b601f01601f19169290920160200192915050565b6020815260006131746020830184613a3b565b604081526000613a8d6040830185613a3b565b8281036020840152611cc78185613a3b565b61018081526000613ab461018083018f613a3b565b8281036020840152613ac6818f613a3b565b90508281036040840152613ada818e613a3b565b90508281036060840152613aee818d613a3b565b90508281036080840152613b02818c613a3b565b905082810360a0840152613b16818b613a3b565b905082810360c0840152613b2a818a613a3b565b905082810360e0840152613b3e8189613a3b565b9050828103610100840152613b538188613a3b565b9050828103610120840152613b688187613a3b565b9050828103610140840152613b7d8186613a3b565b9050828103610160840152613b928185613a3b565b9f9e505050505050505050505050505050565b67ffffffffffffffff84168152606060208201526000613bc86060830185613a3b565b905063ffffffff83166040830152949350505050565b67ffffffffffffffff85168152608060208201526000613c016080830186613a3b565b63ffffffff949094166040830152506060015292915050565b6000808335601e19843603018112613c3157600080fd5b83018035915067ffffffffffffffff821115613c4c57600080fd5b60200191503681900382131561355257600080fd5b60405160c0810167ffffffffffffffff81118282101715613c8457613c84613f33565b60405290565b604051601f8201601f1916810167ffffffffffffffff81118282101715613cb357613cb3613f33565b604052919050565b600067ffffffffffffffff821115613cd557613cd5613f33565b5060051b60200190565b600067ffffffffffffffff821115613cf957613cf9613f33565b50601f01601f191660200190565b60008219821115613d1a57613d1a613ef1565b500190565b600181815b80851115613d5a578160001904821115613d4057613d40613ef1565b80851615613d4d57918102915b93841c9390800290613d24565b509250929050565b60006131748383600082613d7857506001612f13565b81613d8557506000612f13565b8160018114613d9b5760028114613da557613dc1565b6001915050612f13565b60ff841115613db657613db6613ef1565b50506001821b612f13565b5060208310610133831016604e8410600b8410161715613de4575081810a612f13565b613dee8383613d1f565b8060001904821115613e0257613e02613ef1565b029392505050565b6000816000190483118215151615613e2457613e24613ef1565b500290565b600082821015613e3b57613e3b613ef1565b500390565b6000613174368484613470565b60005b83811015613e68578181015183820152602001613e50565b838111156105815750506000910152565b600181811c90821680613e8d57607f821691505b60208210811415613eae57634e487b7160e01b600052602260045260246000fd5b50919050565b6000600019821415613ec857613ec8613ef1565b5060010190565b600082613eec57634e487b7160e01b600052601260045260246000fd5b500690565b634e487b7160e01b600052601160045260246000fd5b634e487b7160e01b600052602160045260246000fd5b634e487b7160e01b600052603260045260246000fd5b634e487b7160e01b600052604160045260246000fd5b6001600160a01b038116811461255d57600080fdfea2646970667358221220240cb8cd550412942fa5c41db026a9ded1a75bf621a1325e65b1837c34bc53b064736f6c63430008070033",
  "linkReferences": {},
  "deployedLinkReferences": {}
}