{
  "_format": "hh-sol-artifact-1",
  "contractName": "Insurance",
  "sourceName": "contracts/Insurance.sol",
  "abi": [
    {
      "inputs": [
        {
          "internalType": "address",
          "name": "oracle",
          "type": "address"
        },
        {
          "internalType": "address",
          "name": "linkMaticPrice",
          "type": "address"
        },
        {
          "internalType": "address",
          "name": "randomness",
          "type": "address"
        }
      ],
      "stateMutability": "nonpayable",
      "type": "constructor"
    },
    {
      "inputs": [],
      "name": "EmptyArgs",
      "type": "error"
    },
    {
      "inputs": [],
      "name": "EmptySecrets",
      "type": "error"
    },
    {
      "inputs": [],
      "name": "EmptySource",
      "type": "error"
    },
    {
      "inputs": [],
      "name": "NoInlineSecrets",
      "type": "error"
    },
    {
      "inputs": [],
      "name": "RequestIsAlreadyPending",
      "type": "error"
    },
    {
      "inputs": [],
      "name": "RequestIsNotPending",
      "type": "error"
    },
    {
      "inputs": [],
      "name": "SenderIsNotRegistry",
      "type": "error"
    },
    {
      "anonymous": false,
      "inputs": [
        {
          "indexed": true,
          "internalType": "bytes32",
          "name": "requestId",
          "type": "bytes32"
        }
      ],
      "name": "OCRRequest",
      "type": "event"
    },
    {
      "anonymous": false,
      "inputs": [
        {
          "indexed": true,
          "internalType": "bytes32",
          "name": "requestId",
          "type": "bytes32"
        },
        {
          "indexed": false,
          "internalType": "bytes",
          "name": "result",
          "type": "bytes"
        },
        {
          "indexed": false,
          "internalType": "bytes",
          "name": "err",
          "type": "bytes"
        }
      ],
      "name": "OCRResponse",
      "type": "event"
    },
    {
      "anonymous": false,
      "inputs": [
        {
          "indexed": true,
          "internalType": "address",
          "name": "from",
          "type": "address"
        },
        {
          "indexed": true,
          "internalType": "address",
          "name": "to",
          "type": "address"
        }
      ],
      "name": "OwnershipTransferRequested",
      "type": "event"
    },
    {
      "anonymous": false,
      "inputs": [
        {
          "indexed": true,
          "internalType": "address",
          "name": "from",
          "type": "address"
        },
        {
          "indexed": true,
          "internalType": "address",
          "name": "to",
          "type": "address"
        }
      ],
      "name": "OwnershipTransferred",
      "type": "event"
    },
    {
      "anonymous": false,
      "inputs": [
        {
          "indexed": true,
          "internalType": "bytes32",
          "name": "id",
          "type": "bytes32"
        }
      ],
      "name": "RequestFulfilled",
      "type": "event"
    },
    {
      "anonymous": false,
      "inputs": [
        {
          "indexed": true,
          "internalType": "bytes32",
          "name": "id",
          "type": "bytes32"
        }
      ],
      "name": "RequestSent",
      "type": "event"
    },
    {
      "inputs": [],
      "name": "acceptOwnership",
      "outputs": [],
      "stateMutability": "nonpayable",
      "type": "function"
    },
    {
      "inputs": [
        {
          "internalType": "address",
          "name": "oracleAddress",
          "type": "address"
        },
        {
          "internalType": "bytes32",
          "name": "requestId",
          "type": "bytes32"
        }
      ],
      "name": "addSimulatedRequestId",
      "outputs": [],
      "stateMutability": "nonpayable",
      "type": "function"
    },
    {
      "inputs": [],
      "name": "checkInsuranceData",
      "outputs": [
        {
          "internalType": "bool",
          "name": "",
          "type": "bool"
        }
      ],
      "stateMutability": "view",
      "type": "function"
    },
    {
      "inputs": [],
      "name": "constructionTime",
      "outputs": [
        {
          "internalType": "uint256",
          "name": "",
          "type": "uint256"
        }
      ],
      "stateMutability": "view",
      "type": "function"
    },
    {
      "inputs": [],
      "name": "currentTime",
      "outputs": [
        {
          "internalType": "uint256",
          "name": "",
          "type": "uint256"
        }
      ],
      "stateMutability": "view",
      "type": "function"
    },
    {
      "inputs": [
        {
          "components": [
            {
              "internalType": "enum Functions.Location",
              "name": "codeLocation",
              "type": "uint8"
            },
            {
              "internalType": "enum Functions.Location",
              "name": "secretsLocation",
              "type": "uint8"
            },
            {
              "internalType": "enum Functions.CodeLanguage",
              "name": "language",
              "type": "uint8"
            },
            {
              "internalType": "string",
              "name": "source",
              "type": "string"
            },
            {
              "internalType": "bytes",
              "name": "secrets",
              "type": "bytes"
            },
            {
              "internalType": "string[]",
              "name": "args",
              "type": "string[]"
            }
          ],
          "internalType": "struct Functions.Request",
          "name": "req",
          "type": "tuple"
        },
        {
          "internalType": "uint64",
          "name": "subscriptionId",
          "type": "uint64"
        },
        {
          "internalType": "uint32",
          "name": "gasLimit",
          "type": "uint32"
        },
        {
          "internalType": "uint256",
          "name": "gasPrice",
          "type": "uint256"
        }
      ],
      "name": "estimateCost",
      "outputs": [
        {
          "internalType": "uint96",
          "name": "",
          "type": "uint96"
        }
      ],
      "stateMutability": "view",
      "type": "function"
    },
    {
      "inputs": [
        {
          "internalType": "string",
          "name": "source",
          "type": "string"
        },
        {
          "internalType": "bytes",
          "name": "secrets",
          "type": "bytes"
        },
        {
          "internalType": "string[]",
          "name": "args",
          "type": "string[]"
        },
        {
          "internalType": "uint64",
          "name": "subscriptionId",
          "type": "uint64"
        },
        {
          "internalType": "uint32",
          "name": "gasLimit",
          "type": "uint32"
        }
      ],
      "name": "estimateInsurance",
      "outputs": [
        {
          "internalType": "bytes32",
          "name": "",
          "type": "bytes32"
        }
      ],
      "stateMutability": "payable",
      "type": "function"
    },
    {
      "inputs": [],
      "name": "getCurrentTime",
      "outputs": [
        {
          "internalType": "uint256",
          "name": "",
          "type": "uint256"
        }
      ],
      "stateMutability": "view",
      "type": "function"
    },
    {
      "inputs": [],
      "name": "getDONPublicKey",
      "outputs": [
        {
          "internalType": "bytes",
          "name": "",
          "type": "bytes"
        }
      ],
      "stateMutability": "view",
      "type": "function"
    },
    {
      "inputs": [],
      "name": "getLatestPrice",
      "outputs": [
        {
          "internalType": "int256",
          "name": "",
          "type": "int256"
        }
      ],
      "stateMutability": "view",
      "type": "function"
    },
    {
      "inputs": [],
      "name": "getRandomWords",
      "outputs": [
        {
          "internalType": "bytes",
          "name": "",
          "type": "bytes"
        }
      ],
      "stateMutability": "nonpayable",
      "type": "function"
    },
    {
      "inputs": [],
      "name": "globalDayNumber",
      "outputs": [
        {
          "internalType": "int256",
          "name": "",
          "type": "int256"
        }
      ],
      "stateMutability": "view",
      "type": "function"
    },
    {
      "inputs": [
        {
          "internalType": "bytes32",
          "name": "requestId",
          "type": "bytes32"
        },
        {
          "internalType": "bytes",
          "name": "response",
          "type": "bytes"
        },
        {
          "internalType": "bytes",
          "name": "err",
          "type": "bytes"
        }
      ],
      "name": "handleOracleFulfillment",
      "outputs": [],
      "stateMutability": "nonpayable",
      "type": "function"
    },
    {
      "inputs": [],
      "name": "helloWorld",
      "outputs": [
        {
          "internalType": "string",
          "name": "",
          "type": "string"
        }
      ],
      "stateMutability": "view",
      "type": "function"
    },
    {
      "inputs": [
        {
          "internalType": "address",
          "name": "",
          "type": "address"
        },
        {
          "internalType": "uint256",
          "name": "",
          "type": "uint256"
        }
      ],
      "name": "insuranceDataMapping",
      "outputs": [
        {
          "internalType": "string",
          "name": "latNe",
          "type": "string"
        },
        {
          "internalType": "string",
          "name": "longNe",
          "type": "string"
        },
        {
          "internalType": "string",
          "name": "latSe",
          "type": "string"
        },
        {
          "internalType": "string",
          "name": "longSe",
          "type": "string"
        },
        {
          "internalType": "string",
          "name": "latSw",
          "type": "string"
        },
        {
          "internalType": "string",
          "name": "longSw",
          "type": "string"
        },
        {
          "internalType": "string",
          "name": "latNw",
          "type": "string"
        },
        {
          "internalType": "string",
          "name": "longNw",
          "type": "string"
        },
        {
          "internalType": "string",
          "name": "configParam",
          "type": "string"
        },
        {
          "internalType": "string",
          "name": "currentTime",
          "type": "string"
        },
        {
          "internalType": "string",
          "name": "startTime",
          "type": "string"
        },
        {
          "internalType": "string",
          "name": "endTime",
          "type": "string"
        }
      ],
      "stateMutability": "view",
      "type": "function"
    },
    {
      "inputs": [],
      "name": "latestError",
      "outputs": [
        {
          "internalType": "bytes",
          "name": "",
          "type": "bytes"
        }
      ],
      "stateMutability": "view",
      "type": "function"
    },
    {
      "inputs": [],
      "name": "latestRequestId",
      "outputs": [
        {
          "internalType": "bytes32",
          "name": "",
          "type": "bytes32"
        }
      ],
      "stateMutability": "view",
      "type": "function"
    },
    {
      "inputs": [],
      "name": "latestResponse",
      "outputs": [
        {
          "internalType": "bytes",
          "name": "",
          "type": "bytes"
        }
      ],
      "stateMutability": "view",
      "type": "function"
    },
    {
      "inputs": [],
      "name": "owner",
      "outputs": [
        {
          "internalType": "address",
          "name": "",
          "type": "address"
        }
      ],
      "stateMutability": "view",
      "type": "function"
    },
    {
      "inputs": [],
      "name": "priceFeed",
      "outputs": [
        {
          "internalType": "contract PriceConsumerV3",
          "name": "",
          "type": "address"
        }
      ],
      "stateMutability": "view",
      "type": "function"
    },
    {
      "inputs": [],
      "name": "randomFeed",
      "outputs": [
        {
          "internalType": "contract VRFv2Consumer",
          "name": "",
          "type": "address"
        }
      ],
      "stateMutability": "view",
      "type": "function"
    },
    {
      "inputs": [
        {
          "internalType": "uint256",
          "name": "requestId",
          "type": "uint256"
        },
        {
          "internalType": "uint256[]",
          "name": "randomWords",
          "type": "uint256[]"
        }
      ],
      "name": "receiveRandomness",
      "outputs": [],
      "stateMutability": "nonpayable",
      "type": "function"
    },
    {
      "inputs": [
        {
          "internalType": "bytes32",
          "name": "",
          "type": "bytes32"
        }
      ],
      "name": "requestOwners",
      "outputs": [
        {
          "internalType": "address",
          "name": "",
          "type": "address"
        }
      ],
      "stateMutability": "view",
      "type": "function"
    },
    {
      "inputs": [
        {
          "internalType": "bytes32",
          "name": "",
          "type": "bytes32"
        }
      ],
      "name": "responses",
      "outputs": [
        {
          "internalType": "bytes",
          "name": "",
          "type": "bytes"
        }
      ],
      "stateMutability": "view",
      "type": "function"
    },
    {
      "inputs": [
        {
          "internalType": "address",
          "name": "to",
          "type": "address"
        }
      ],
      "name": "transferOwnership",
      "outputs": [],
      "stateMutability": "nonpayable",
      "type": "function"
    },
    {
      "inputs": [
        {
          "internalType": "address",
          "name": "oracle",
          "type": "address"
        }
      ],
      "name": "updateOracleAddress",
      "outputs": [],
      "stateMutability": "nonpayable",
      "type": "function"
    }
  ],
  "bytecode": "0x608060405242600b553480156200001557600080fd5b50604051620042a5380380620042a58339810160408190526200003891620001f3565b600080546001600160a01b0319166001600160a01b038516178155339081906001600160a01b038216620000b35760405162461bcd60e51b815260206004820152601860248201527f43616e6e6f7420736574206f776e657220746f207a65726f000000000000000060448201526064015b60405180910390fd5b600280546001600160a01b0319166001600160a01b0384811691909117909155811615620000e657620000e68162000129565b5050600480546001600160a01b039485166001600160a01b0319918216179091556005805493909416921691909117909155505042600a5560006009556200023d565b6001600160a01b038116331415620001845760405162461bcd60e51b815260206004820152601760248201527f43616e6e6f74207472616e7366657220746f2073656c660000000000000000006044820152606401620000aa565b600380546001600160a01b0319166001600160a01b03838116918217909255600254604051919216907fed8889f560326eb138920d842192f0eb3dd22b4f139c87a2c57538e05bae127890600090a350565b80516001600160a01b0381168114620001ee57600080fd5b919050565b6000806000606084860312156200020957600080fd5b6200021484620001d6565b92506200022460208501620001d6565b91506200023460408501620001d6565b90509250925092565b614058806200024d6000396000f3fe6080604052600436106101a15760003560e01c8063985454ff116100e1578063d328a91e1161008a578063f06c561011610064578063f06c561014610476578063f2fde38b1461048c578063f7023bb6146104ac578063fffeb84e146104cc57600080fd5b8063d328a91e146103ff578063d4b3917514610414578063e09191011461045157600080fd5b8063c605f76c116100bb578063c605f76c146103bf578063ce10b1fb146103d4578063d18e81b3146103e957600080fd5b8063985454ff14610361578063a0625a1e14610374578063bef3a2f0146103aa57600080fd5b806337f9c70d1161014e578063741bef1a11610128578063741bef1a146102f957806379ba5097146103195780638da5cb5b1461032e5780638e15f4731461034c57600080fd5b806337f9c70d146102965780634b11b4a1146102b657806372164a6c146102cc57600080fd5b80632142735a1161017f5780632142735a1461022957806329cb924d1461026157806330bda99d1461027657600080fd5b80630ca76175146101a6578063126455dd146101c85780631aa46f5914610205575b600080fd5b3480156101b257600080fd5b506101c66101c1366004613755565b6104e1565b005b3480156101d457600080fd5b506005546101e8906001600160a01b031681565b6040516001600160a01b0390911681526020015b60405180910390f35b34801561021157600080fd5b5061021b60065481565b6040519081526020016101fc565b34801561023557600080fd5b506102496102443660046136f7565b610587565b6040516101fc9c9b9a99989796959493929190613b63565b34801561026d57600080fd5b50600b5461021b565b34801561028257600080fd5b506101c66102913660046136f7565b610c64565b3480156102a257600080fd5b506101c66102b1366004613a2d565b610c7a565b3480156102c257600080fd5b5061021b60095481565b3480156102d857600080fd5b506102ec6102e7366004613723565b610e8c565b6040516101fc9190613b2b565b34801561030557600080fd5b506004546101e8906001600160a01b031681565b34801561032557600080fd5b506101c6610f26565b34801561033a57600080fd5b506002546001600160a01b03166101e8565b34801561035857600080fd5b5061021b610fdb565b61021b61036f366004613830565b611068565b34801561038057600080fd5b506101e861038f366004613723565b600d602052600090815260409020546001600160a01b031681565b3480156103b657600080fd5b506102ec611a07565b3480156103cb57600080fd5b506102ec611a14565b3480156103e057600080fd5b506102ec611a8c565b3480156103f557600080fd5b5061021b600b5481565b34801561040b57600080fd5b506102ec611c65565b34801561042057600080fd5b5061043461042f36600461391b565b611cfe565b6040516bffffffffffffffffffffffff90911681526020016101fc565b34801561045d57600080fd5b50610466611d94565b60405190151581526020016101fc565b34801561048257600080fd5b5061021b600a5481565b34801561049857600080fd5b506101c66104a73660046136bd565b612610565b3480156104b857600080fd5b506101c66104c73660046136bd565b612624565b3480156104d857600080fd5b506102ec61264a565b60008381526001602052604090205483906001600160a01b03163314610533576040517fa0c5ec6300000000000000000000000000000000000000000000000000000000815260040160405180910390fd5b60008181526001602052604080822080546001600160a01b03191690555182917f85e1543bf2f84fe80c6badbce3648c8539ad1df4d2b3d822938ca0538be727e691a2610581848484612657565b50505050565b600e60205281600052604060002081815481106105a357600080fd5b90600052602060002090600d0201600091509150508060000180546105c790613f3d565b80601f01602080910402602001604051908101604052809291908181526020018280546105f390613f3d565b80156106405780601f1061061557610100808354040283529160200191610640565b820191906000526020600020905b81548152906001019060200180831161062357829003601f168201915b50505050509080600101805461065590613f3d565b80601f016020809104026020016040519081016040528092919081815260200182805461068190613f3d565b80156106ce5780601f106106a3576101008083540402835291602001916106ce565b820191906000526020600020905b8154815290600101906020018083116106b157829003601f168201915b5050505050908060020180546106e390613f3d565b80601f016020809104026020016040519081016040528092919081815260200182805461070f90613f3d565b801561075c5780601f106107315761010080835404028352916020019161075c565b820191906000526020600020905b81548152906001019060200180831161073f57829003601f168201915b50505050509080600301805461077190613f3d565b80601f016020809104026020016040519081016040528092919081815260200182805461079d90613f3d565b80156107ea5780601f106107bf576101008083540402835291602001916107ea565b820191906000526020600020905b8154815290600101906020018083116107cd57829003601f168201915b5050505050908060040180546107ff90613f3d565b80601f016020809104026020016040519081016040528092919081815260200182805461082b90613f3d565b80156108785780601f1061084d57610100808354040283529160200191610878565b820191906000526020600020905b81548152906001019060200180831161085b57829003601f168201915b50505050509080600501805461088d90613f3d565b80601f01602080910402602001604051908101604052809291908181526020018280546108b990613f3d565b80156109065780601f106108db57610100808354040283529160200191610906565b820191906000526020600020905b8154815290600101906020018083116108e957829003601f168201915b50505050509080600601805461091b90613f3d565b80601f016020809104026020016040519081016040528092919081815260200182805461094790613f3d565b80156109945780601f1061096957610100808354040283529160200191610994565b820191906000526020600020905b81548152906001019060200180831161097757829003601f168201915b5050505050908060070180546109a990613f3d565b80601f01602080910402602001604051908101604052809291908181526020018280546109d590613f3d565b8015610a225780601f106109f757610100808354040283529160200191610a22565b820191906000526020600020905b815481529060010190602001808311610a0557829003601f168201915b505050505090806008018054610a3790613f3d565b80601f0160208091040260200160405190810160405280929190818152602001828054610a6390613f3d565b8015610ab05780601f10610a8557610100808354040283529160200191610ab0565b820191906000526020600020905b815481529060010190602001808311610a9357829003601f168201915b505050505090806009018054610ac590613f3d565b80601f0160208091040260200160405190810160405280929190818152602001828054610af190613f3d565b8015610b3e5780601f10610b1357610100808354040283529160200191610b3e565b820191906000526020600020905b815481529060010190602001808311610b2157829003601f168201915b50505050509080600a018054610b5390613f3d565b80601f0160208091040260200160405190810160405280929190818152602001828054610b7f90613f3d565b8015610bcc5780601f10610ba157610100808354040283529160200191610bcc565b820191906000526020600020905b815481529060010190602001808311610baf57829003601f168201915b50505050509080600b018054610be190613f3d565b80601f0160208091040260200160405190810160405280929190818152602001828054610c0d90613f3d565b8015610c5a5780601f10610c2f57610100808354040283529160200191610c5a565b820191906000526020600020905b815481529060010190602001808311610c3d57829003601f168201915b505050505090508c565b610c6c6126de565b610c76828261273a565b5050565b6005546001600160a01b03163314610cff5760405162461bcd60e51b815260206004820152602960248201527f4f6e6c79205652467632436f6e73756d65722063616e2063616c6c207468697360448201527f2066756e6374696f6e000000000000000000000000000000000000000000000060648201526084015b60405180910390fd5b8051600314610d765760405162461bcd60e51b815260206004820152602360248201527f556e6578706563746564206e756d626572206f662072616e646f6d206e756d6260448201527f65727300000000000000000000000000000000000000000000000000000000006064820152608401610cf6565b336000908152600e602052604090208054610df95760405162461bcd60e51b815260206004820152602e60248201527f4e6f20696e737572616e6365206461746120666f756e6420666f72207468652060448201527f726571756573742073656e6465720000000000000000000000000000000000006064820152608401610cf6565b80546000908290610e0c90600190613eed565b81548110610e1c57610e1c613fe1565b90600052602060002090600d0201905060005b6003811015610e8557838181518110610e4a57610e4a613fe1565b602002602001015182600c018281548110610e6757610e67613fe1565b60009182526020909120015580610e7d81613f78565b915050610e2f565b5050505050565b600c6020526000908152604090208054610ea590613f3d565b80601f0160208091040260200160405190810160405280929190818152602001828054610ed190613f3d565b8015610f1e5780601f10610ef357610100808354040283529160200191610f1e565b820191906000526020600020905b815481529060010190602001808311610f0157829003601f168201915b505050505081565b6003546001600160a01b03163314610f805760405162461bcd60e51b815260206004820152601660248201527f4d7573742062652070726f706f736564206f776e6572000000000000000000006044820152606401610cf6565b600280546001600160a01b0319808216339081179093556003805490911690556040516001600160a01b03909116919082907f8be0079c531659141344cd1fd0a4f28419497f9722a3daafe3b4186f6b6457e090600090a350565b6000600460009054906101000a90046001600160a01b03166001600160a01b0316638e15f4736040518163ffffffff1660e01b815260040160206040518083038186803b15801561102b57600080fd5b505afa15801561103f573d6000803e3d6000fd5b505050506040513d601f19601f82011682018060405250810190611063919061373c565b905090565b6000600c84146110ba5760405162461bcd60e51b815260206004820152601b60248201527f496e76616c6964206e756d626572206f6620617267756d656e747300000000006044820152606401610cf6565b6110f86040518060400160405280601581526020017f476f7420746865206c61746573742070726963652100000000000000000000008152506127ba565b336000908152600e6020526040812080549091906117695781604051806101a001604052808989600081811061113057611130613fe1565b90506020028101906111429190613cde565b8080601f0160208091040260200160405190810160405280939291908181526020018383808284376000920191909152505050908252506020018989600181811061118f5761118f613fe1565b90506020028101906111a19190613cde565b8080601f016020809104026020016040519081016040528093929190818152602001838380828437600092019190915250505090825250602001898960028181106111ee576111ee613fe1565b90506020028101906112009190613cde565b8080601f0160208091040260200160405190810160405280939291908181526020018383808284376000920191909152505050908252506020018989600381811061124d5761124d613fe1565b905060200281019061125f9190613cde565b8080601f016020809104026020016040519081016040528093929190818152602001838380828437600092019190915250505090825250602001898960048181106112ac576112ac613fe1565b90506020028101906112be9190613cde565b8080601f0160208091040260200160405190810160405280939291908181526020018383808284376000920191909152505050908252506020018989600581811061130b5761130b613fe1565b905060200281019061131d9190613cde565b8080601f0160208091040260200160405190810160405280939291908181526020018383808284376000920191909152505050908252506020018989600681811061136a5761136a613fe1565b905060200281019061137c9190613cde565b8080601f016020809104026020016040519081016040528093929190818152602001838380828437600092019190915250505090825250602001898960078181106113c9576113c9613fe1565b90506020028101906113db9190613cde565b8080601f0160208091040260200160405190810160405280939291908181526020018383808284376000920191909152505050908252506020018989600881811061142857611428613fe1565b905060200281019061143a9190613cde565b8080601f0160208091040260200160405190810160405280939291908181526020018383808284376000920191909152505050908252506020018989600981811061148757611487613fe1565b90506020028101906114999190613cde565b8080601f0160208091040260200160405190810160405280939291908181526020018383808284376000920191909152505050908252506020018989600a8181106114e6576114e6613fe1565b90506020028101906114f89190613cde565b8080601f0160208091040260200160405190810160405280939291908181526020018383808284376000920191909152505050908252506020018989600b81811061154557611545613fe1565b90506020028101906115579190613cde565b8080601f016020809104026020016040519081016040528093929190818152602001838380828437600092019190915250505090825250604080516003808252608082019092526020928301929091908201606080368337505050905281546001810183556000928352602092839020825180519394600d909302909101926115e3928492019061342c565b5060208281015180516115fc926001850192019061342c565b506040820151805161161891600284019160209091019061342c565b506060820151805161163491600384019160209091019061342c565b506080820151805161165091600484019160209091019061342c565b5060a0820151805161166c91600584019160209091019061342c565b5060c0820151805161168891600684019160209091019061342c565b5060e082015180516116a491600784019160209091019061342c565b5061010082015180516116c191600884019160209091019061342c565b5061012082015180516116de91600984019160209091019061342c565b5061014082015180516116fb91600a84019160209091019061342c565b50610160820151805161171891600b84019160209091019061342c565b50610180820151805161173591600c8401916020909101906134b0565b5050825483915061174890600190613eed565b8154811061175857611758613fe1565b90600052602060002090600d020190505b6117a36040805160c08101909152806000815260200160008152602001600081526020016060815260200160608152602001606081525090565b6117ea6000808e8e8080601f0160208091040260200160405190810160405280939291908181526020018383808284376000920191909152508795949392505061282b9050565b8815611832576118328a8a8080601f01602080910402602001604051908101604052809392919081815260200183838082843760009201919091525085939250506128bf9050565b861561184c5761184c611845888a613f04565b8290612906565b6000611859600a54612946565b90506000611868896001613dcb565b67ffffffffffffffff81111561188057611880613ff7565b6040519080825280602002602001820160405280156118b357816020015b606081526020019060019003908161189e5790505b50905060005b8981101561194b578a8a828181106118d3576118d3613fe1565b90506020028101906118e59190613cde565b8080601f016020809104026020016040519081016040528093929190818152602001838380828437600092019190915250508451859250849150811061192d5761192d613fe1565b6020026020010181905250808061194390613f78565b9150506118b9565b5081818b8b90508151811061196257611962613fe1565b602002602001018190525061199081600c8151811061198357611983613fe1565b60200260200101516127ba565b61199a8382612906565b60006119a7848a8a6129f0565b60068190556000818152600d602052604080822080546001600160a01b031916331790555191925082917f0790d5075e76350b19c3d15f0de9144077f6fb31397b526ce8664d7faf7dde6b9190a29e9d5050505050505050505050505050565b60078054610ea590613f3d565b6060611a546040518060400160405280600481526020017f54657374000000000000000000000000000000000000000000000000000000008152506127ba565b5060408051808201909152600c81527f48656c6c6f20576f726c64210000000000000000000000000000000000000000602082015290565b336000818152600e6020526040902080546060929190611b135760405162461bcd60e51b8152602060048201526024808201527f4e6f20696e737572616e6365206461746120666f756e6420666f72207468652060448201527f75736572000000000000000000000000000000000000000000000000000000006064820152608401610cf6565b80546000908290611b2690600190613eed565b81548110611b3657611b36613fe1565b600091825260208220600d909102019150600c8201905b8154811015611bd457818181548110611b6857611b68613fe1565b9060005260206000200154600014611bc25760405162461bcd60e51b815260206004820152601c60248201527f4e6f6e2d7a65726f2072616e646f6d20706f696e747320666f756e64000000006044820152606401610cf6565b80611bcc81613f78565b915050611b4d565b50600560009054906101000a90046001600160a01b03166001600160a01b031663e0c862896040518163ffffffff1660e01b8152600401602060405180830381600087803b158015611c2557600080fd5b505af1158015611c39573d6000803e3d6000fd5b505050506040513d601f19601f82011682018060405250810190611c5d919061373c565b505050505090565b60008054604080517fd328a91e00000000000000000000000000000000000000000000000000000000815290516060936001600160a01b039093169263d328a91e9260048082019391829003018186803b158015611cc257600080fd5b505afa158015611cd6573d6000803e3d6000fd5b505050506040513d6000823e601f3d908101601f1916820160405261106391908101906137c2565b600080546001600160a01b031663d227d24585611d1a88612b62565b86866040518563ffffffff1660e01b8152600401611d3b9493929190613ca2565b60206040518083038186803b158015611d5357600080fd5b505afa158015611d67573d6000803e3d6000fd5b505050506040513d601f19601f82011682018060405250810190611d8b9190613ad1565b95945050505050565b336000908152600e602052604081208054611df15760405162461bcd60e51b815260206004820152601760248201527f4e6f20696e737572616e6365206461746120666f756e640000000000000000006044820152606401610cf6565b60005b8154811015612607576000828281548110611e1157611e11613fe1565b90600052602060002090600d0201604051806101a0016040529081600082018054611e3b90613f3d565b80601f0160208091040260200160405190810160405280929190818152602001828054611e6790613f3d565b8015611eb45780601f10611e8957610100808354040283529160200191611eb4565b820191906000526020600020905b815481529060010190602001808311611e9757829003601f168201915b50505050508152602001600182018054611ecd90613f3d565b80601f0160208091040260200160405190810160405280929190818152602001828054611ef990613f3d565b8015611f465780601f10611f1b57610100808354040283529160200191611f46565b820191906000526020600020905b815481529060010190602001808311611f2957829003601f168201915b50505050508152602001600282018054611f5f90613f3d565b80601f0160208091040260200160405190810160405280929190818152602001828054611f8b90613f3d565b8015611fd85780601f10611fad57610100808354040283529160200191611fd8565b820191906000526020600020905b815481529060010190602001808311611fbb57829003601f168201915b50505050508152602001600382018054611ff190613f3d565b80601f016020809104026020016040519081016040528092919081815260200182805461201d90613f3d565b801561206a5780601f1061203f5761010080835404028352916020019161206a565b820191906000526020600020905b81548152906001019060200180831161204d57829003601f168201915b5050505050815260200160048201805461208390613f3d565b80601f01602080910402602001604051908101604052809291908181526020018280546120af90613f3d565b80156120fc5780601f106120d1576101008083540402835291602001916120fc565b820191906000526020600020905b8154815290600101906020018083116120df57829003601f168201915b5050505050815260200160058201805461211590613f3d565b80601f016020809104026020016040519081016040528092919081815260200182805461214190613f3d565b801561218e5780601f106121635761010080835404028352916020019161218e565b820191906000526020600020905b81548152906001019060200180831161217157829003601f168201915b505050505081526020016006820180546121a790613f3d565b80601f01602080910402602001604051908101604052809291908181526020018280546121d390613f3d565b80156122205780601f106121f557610100808354040283529160200191612220565b820191906000526020600020905b81548152906001019060200180831161220357829003601f168201915b5050505050815260200160078201805461223990613f3d565b80601f016020809104026020016040519081016040528092919081815260200182805461226590613f3d565b80156122b25780601f10612287576101008083540402835291602001916122b2565b820191906000526020600020905b81548152906001019060200180831161229557829003601f168201915b505050505081526020016008820180546122cb90613f3d565b80601f01602080910402602001604051908101604052809291908181526020018280546122f790613f3d565b80156123445780601f1061231957610100808354040283529160200191612344565b820191906000526020600020905b81548152906001019060200180831161232757829003601f168201915b5050505050815260200160098201805461235d90613f3d565b80601f016020809104026020016040519081016040528092919081815260200182805461238990613f3d565b80156123d65780601f106123ab576101008083540402835291602001916123d6565b820191906000526020600020905b8154815290600101906020018083116123b957829003601f168201915b50505050508152602001600a820180546123ef90613f3d565b80601f016020809104026020016040519081016040528092919081815260200182805461241b90613f3d565b80156124685780601f1061243d57610100808354040283529160200191612468565b820191906000526020600020905b81548152906001019060200180831161244b57829003601f168201915b50505050508152602001600b8201805461248190613f3d565b80601f01602080910402602001604051908101604052809291908181526020018280546124ad90613f3d565b80156124fa5780601f106124cf576101008083540402835291602001916124fa565b820191906000526020600020905b8154815290600101906020018083116124dd57829003601f168201915b50505050508152602001600c820180548060200260200160405190810160405280929190818152602001828054801561255257602002820191906000526020600020905b81548152602001906001019080831161253e575b50505050508152505090508060c0015151600014158015612577575060e08101515115155b8015612584575080515115155b8015612594575060208101515115155b80156125a4575060408101515115155b80156125b4575060608101515115155b80156125c4575060808101515115155b80156125d4575060a08101515115155b80156125e557506101008101515115155b156125f4576001935050505090565b50806125ff81613f78565b915050611df4565b50600091505090565b6126186126de565b61262181612e2e565b50565b61262c6126de565b600080546001600160a01b0319166001600160a01b03831617905550565b60088054610ea590613f3d565b6000838152600c6020908152604090912083516126769285019061342c565b50815161268a90600790602085019061342c565b50805161269e90600890602084019061342c565b50827f7bab0ec163b5c132c72b8146ac4d6e067e82ed58f8b131150aa71c925891156283836040516126d1929190613b3e565b60405180910390a2505050565b6002546001600160a01b031633146127385760405162461bcd60e51b815260206004820152601660248201527f4f6e6c792063616c6c61626c65206279206f776e6572000000000000000000006044820152606401610cf6565b565b60008181526001602052604090205481906001600160a01b03161561278b576040517f8b457ad200000000000000000000000000000000000000000000000000000000815260040160405180910390fd5b50600090815260016020526040902080546001600160a01b0319166001600160a01b0392909216919091179055565b612621816040516024016127ce9190613b2b565b60408051601f198184030181529190526020810180517bffffffffffffffffffffffffffffffffffffffffffffffffffffffff167f41304fac00000000000000000000000000000000000000000000000000000000179052612ed9565b8051612863576040517f22ce3edd00000000000000000000000000000000000000000000000000000000815260040160405180910390fd5b8383600181111561287657612876613fcb565b9081600181111561288957612889613fcb565b9052506040840182801561289f5761289f613fcb565b908180156128af576128af613fcb565b9052506060909301929092525050565b80516128f7576040517fe889636f00000000000000000000000000000000000000000000000000000000815260040160405180910390fd5b60016020830152608090910152565b805161293e576040517ffe936cb700000000000000000000000000000000000000000000000000000000815260040160405180910390fd5b60a090910152565b6060600061295383612efa565b600101905060008167ffffffffffffffff81111561297357612973613ff7565b6040519080825280601f01601f19166020018201604052801561299d576020820181803683370190505b5090508181016020015b600019017f3031323334353637383961626364656600000000000000000000000000000000600a86061a8153600a85049450846129e3576129e8565b6129a7565b509392505050565b6000805481906001600160a01b03166328242b0485612a0e88612b62565b866040518463ffffffff1660e01b8152600401612a2d93929190613c69565b602060405180830381600087803b158015612a4757600080fd5b505af1158015612a5b573d6000803e3d6000fd5b505050506040513d601f19601f82011682018060405250810190612a7f919061373c565b905060008054906101000a90046001600160a01b03166001600160a01b0316635ab1bd536040518163ffffffff1660e01b815260040160206040518083038186803b158015612acd57600080fd5b505afa158015612ae1573d6000803e3d6000fd5b505050506040513d601f19601f82011682018060405250810190612b0591906136da565b60008281526001602052604080822080546001600160a01b0319166001600160a01b039490941693909317909255905182917f1131472297a800fee664d1d89cfa8f7676ff07189ecc53f80bbb5f4969099db891a2949350505050565b6060612b6c6134ea565b8051612b7a90610100612fdd565b50612bba816040518060400160405280600c81526020017f636f64654c6f636174696f6e0000000000000000000000000000000000000000815250613054565b612bd98184600001516001811115612bd457612bd4613fcb565b613072565b612c18816040518060400160405280600881526020017f6c616e6775616765000000000000000000000000000000000000000000000000815250613054565b612c328184604001516000811115612bd457612bd4613fcb565b612c71816040518060400160405280600681526020017f736f757263650000000000000000000000000000000000000000000000000000815250613054565b612c7f818460600151613054565b60a08301515115612d2557612cc9816040518060400160405280600481526020017f6172677300000000000000000000000000000000000000000000000000000000815250613054565b612cd2816130ab565b60005b8360a0015151811015612d1b57612d09828560a001518381518110612cfc57612cfc613fe1565b6020026020010151613054565b80612d1381613f78565b915050612cd5565b50612d25816130cf565b60808301515115612e2657600083602001516001811115612d4857612d48613fcb565b1415612d80576040517fa80d31f700000000000000000000000000000000000000000000000000000000815260040160405180910390fd5b612dbf816040518060400160405280600f81526020017f736563726574734c6f636174696f6e0000000000000000000000000000000000815250613054565b612dd98184602001516001811115612bd457612bd4613fcb565b612e18816040518060400160405280600781526020017f7365637265747300000000000000000000000000000000000000000000000000815250613054565b612e268184608001516130ed565b515192915050565b6001600160a01b038116331415612e875760405162461bcd60e51b815260206004820152601760248201527f43616e6e6f74207472616e7366657220746f2073656c660000000000000000006044820152606401610cf6565b600380546001600160a01b0319166001600160a01b03838116918217909255600254604051919216907fed8889f560326eb138920d842192f0eb3dd22b4f139c87a2c57538e05bae127890600090a350565b80516a636f6e736f6c652e6c6f67602083016000808483855afa5050505050565b6000807a184f03e93ff9f4daa797ed6e38ed64bf6a1f0100000000000000008310612f43577a184f03e93ff9f4daa797ed6e38ed64bf6a1f010000000000000000830492506040015b6d04ee2d6d415b85acef81000000008310612f6f576d04ee2d6d415b85acef8100000000830492506020015b662386f26fc100008310612f8d57662386f26fc10000830492506010015b6305f5e1008310612fa5576305f5e100830492506008015b6127108310612fb957612710830492506004015b60648310612fcb576064830492506002015b600a8310612fd7576001015b92915050565b604080518082019091526060815260006020820152612ffd602083613f93565b156130255761300d602083613f93565b613018906020613eed565b6130229083613dcb565b91505b60208084018390526040518085526000815290818401018181101561304957600080fd5b604052509192915050565b61306182600383516130f6565b815161306d9082613217565b505050565b815161307f9060c261323f565b50610c76828260405160200161309791815260200190565b6040516020818303038152906040526130ed565b6130b68160046132a8565b6001816020018181516130c99190613dcb565b90525050565b6130da8160076132a8565b6001816020018181516130c99190613eed565b61306182600283515b60178167ffffffffffffffff161161311d5782516105819060e0600585901b16831761323f565b60ff8167ffffffffffffffff161161315f578251613146906018611fe0600586901b161761323f565b5082516105819067ffffffffffffffff831660016132bf565b61ffff8167ffffffffffffffff16116131a2578251613189906019611fe0600586901b161761323f565b5082516105819067ffffffffffffffff831660026132bf565b63ffffffff8167ffffffffffffffff16116131e75782516131ce90601a611fe0600586901b161761323f565b5082516105819067ffffffffffffffff831660046132bf565b82516131fe90601b611fe0600586901b161761323f565b5082516105819067ffffffffffffffff831660086132bf565b60408051808201909152606081526000602082015261323883838451613344565b9392505050565b6040805180820190915260608152600060208201528251516000613264826001613dcb565b9050846020015182106132855761328585613280836002613ece565b613415565b845160208382010185815350805182111561329e578181525b5093949350505050565b815161306d90601f611fe0600585901b161761323f565b60408051808201909152606081526000602082015283515160006132e38285613dcb565b905085602001518111156133005761330086613280836002613ece565b6000600161331086610100613e26565b61331a9190613eed565b90508651828101878319825116178152508051831115613338578281525b50959695505050505050565b604080518082019091526060815260006020820152825182111561336757600080fd5b83515160006133768483613dcb565b905085602001518111156133935761339386613280836002613ece565b8551805183820160200191600091808511156133ad578482525b505050602086015b602086106133ed57805182526133cc602083613dcb565b91506133d9602082613dcb565b90506133e6602087613eed565b95506133b5565b51815160001960208890036101000a0190811690199190911617905250849150509392505050565b81516134218383612fdd565b506105818382613217565b82805461343890613f3d565b90600052602060002090601f01602090048101928261345a57600085556134a0565b82601f1061347357805160ff19168380011785556134a0565b828001600101855582156134a0579182015b828111156134a0578251825591602001919060010190613485565b506134ac92915061351f565b5090565b8280548282559060005260206000209081019282156134a057916020028201828111156134a0578251825591602001919060010190613485565b6040518060400160405280613512604051806040016040528060608152602001600081525090565b8152602001600081525090565b5b808211156134ac5760008155600101613520565b600061354761354284613d7f565b613d4e565b9050808382526020808301915083868660051b8601111561356757600080fd5b6000805b878110156135a857823567ffffffffffffffff811115613589578283fd5b6135958a828a0161361d565b865250938301939183019160010161356b565b50505050509392505050565b600082601f8301126135c557600080fd5b61323883833560208501613534565b60008083601f8401126135e657600080fd5b50813567ffffffffffffffff8111156135fe57600080fd5b60208301915083602082850101111561361657600080fd5b9250929050565b600082601f83011261362e57600080fd5b813561363c61354282613da3565b81815284602083860101111561365157600080fd5b816020850160208301376000918101602001919091529392505050565b80356001811061367d57600080fd5b919050565b80356002811061367d57600080fd5b803563ffffffff8116811461367d57600080fd5b803567ffffffffffffffff8116811461367d57600080fd5b6000602082840312156136cf57600080fd5b81356132388161400d565b6000602082840312156136ec57600080fd5b81516132388161400d565b6000806040838503121561370a57600080fd5b82356137158161400d565b946020939093013593505050565b60006020828403121561373557600080fd5b5035919050565b60006020828403121561374e57600080fd5b5051919050565b60008060006060848603121561376a57600080fd5b83359250602084013567ffffffffffffffff8082111561378957600080fd5b6137958783880161361d565b935060408601359150808211156137ab57600080fd5b506137b88682870161361d565b9150509250925092565b6000602082840312156137d457600080fd5b815167ffffffffffffffff8111156137eb57600080fd5b8201601f810184136137fc57600080fd5b805161380a61354282613da3565b81815285602083850101111561381f57600080fd5b611d8b826020830160208601613f11565b60008060008060008060008060a0898b03121561384c57600080fd5b883567ffffffffffffffff8082111561386457600080fd5b6138708c838d016135d4565b909a50985060208b013591508082111561388957600080fd5b6138958c838d016135d4565b909850965060408b01359150808211156138ae57600080fd5b818b0191508b601f8301126138c257600080fd5b8135818111156138d157600080fd5b8c60208260051b85010111156138e657600080fd5b6020830196508095505050506138fe60608a016136a5565b915061390c60808a01613691565b90509295985092959890939650565b6000806000806080858703121561393157600080fd5b843567ffffffffffffffff8082111561394957600080fd5b9086019060c0828903121561395d57600080fd5b613965613d25565b61396e83613682565b815261397c60208401613682565b602082015261398d6040840161366e565b60408201526060830135828111156139a457600080fd5b6139b08a82860161361d565b6060830152506080830135828111156139c857600080fd5b6139d48a82860161361d565b60808301525060a0830135828111156139ec57600080fd5b6139f88a8286016135b4565b60a0830152509550613a0f915050602086016136a5565b9250613a1d60408601613691565b9396929550929360600135925050565b60008060408385031215613a4057600080fd5b8235915060208084013567ffffffffffffffff811115613a5f57600080fd5b8401601f81018613613a7057600080fd5b8035613a7e61354282613d7f565b80828252848201915084840189868560051b8701011115613a9e57600080fd5b600094505b83851015613ac1578035835260019490940193918501918501613aa3565b5080955050505050509250929050565b600060208284031215613ae357600080fd5b81516bffffffffffffffffffffffff8116811461323857600080fd5b60008151808452613b17816020860160208601613f11565b601f01601f19169290920160200192915050565b6020815260006132386020830184613aff565b604081526000613b516040830185613aff565b8281036020840152611d8b8185613aff565b61018081526000613b7861018083018f613aff565b8281036020840152613b8a818f613aff565b90508281036040840152613b9e818e613aff565b90508281036060840152613bb2818d613aff565b90508281036080840152613bc6818c613aff565b905082810360a0840152613bda818b613aff565b905082810360c0840152613bee818a613aff565b905082810360e0840152613c028189613aff565b9050828103610100840152613c178188613aff565b9050828103610120840152613c2c8187613aff565b9050828103610140840152613c418186613aff565b9050828103610160840152613c568185613aff565b9f9e505050505050505050505050505050565b67ffffffffffffffff84168152606060208201526000613c8c6060830185613aff565b905063ffffffff83166040830152949350505050565b67ffffffffffffffff85168152608060208201526000613cc56080830186613aff565b63ffffffff949094166040830152506060015292915050565b6000808335601e19843603018112613cf557600080fd5b83018035915067ffffffffffffffff821115613d1057600080fd5b60200191503681900382131561361657600080fd5b60405160c0810167ffffffffffffffff81118282101715613d4857613d48613ff7565b60405290565b604051601f8201601f1916810167ffffffffffffffff81118282101715613d7757613d77613ff7565b604052919050565b600067ffffffffffffffff821115613d9957613d99613ff7565b5060051b60200190565b600067ffffffffffffffff821115613dbd57613dbd613ff7565b50601f01601f191660200190565b60008219821115613dde57613dde613fb5565b500190565b600181815b80851115613e1e578160001904821115613e0457613e04613fb5565b80851615613e1157918102915b93841c9390800290613de8565b509250929050565b60006132388383600082613e3c57506001612fd7565b81613e4957506000612fd7565b8160018114613e5f5760028114613e6957613e85565b6001915050612fd7565b60ff841115613e7a57613e7a613fb5565b50506001821b612fd7565b5060208310610133831016604e8410600b8410161715613ea8575081810a612fd7565b613eb28383613de3565b8060001904821115613ec657613ec6613fb5565b029392505050565b6000816000190483118215151615613ee857613ee8613fb5565b500290565b600082821015613eff57613eff613fb5565b500390565b6000613238368484613534565b60005b83811015613f2c578181015183820152602001613f14565b838111156105815750506000910152565b600181811c90821680613f5157607f821691505b60208210811415613f7257634e487b7160e01b600052602260045260246000fd5b50919050565b6000600019821415613f8c57613f8c613fb5565b5060010190565b600082613fb057634e487b7160e01b600052601260045260246000fd5b500690565b634e487b7160e01b600052601160045260246000fd5b634e487b7160e01b600052602160045260246000fd5b634e487b7160e01b600052603260045260246000fd5b634e487b7160e01b600052604160045260246000fd5b6001600160a01b038116811461262157600080fdfea26469706673582212200ccd261aab1a0eef26c76ced1819f378ebd3319d5704a72af01466322200b20664736f6c63430008070033",
  "linkReferences": {},
  "deployedLinkReferences": {}
}