{
  "_format": "hh-sol-artifact-1",
  "contractName": "Insurance",
  "sourceName": "contracts/Insurance.sol",
  "abi": [
    {
      "inputs": [
        {
          "internalType": "address",
          "name": "oracle",
          "type": "address"
        },
        {
          "internalType": "address",
          "name": "linkMaticAddress",
          "type": "address"
        },
        {
          "internalType": "address",
          "name": "maticUsdAddress",
          "type": "address"
        },
        {
          "internalType": "uint64",
          "name": "subscriptionId",
          "type": "uint64"
        }
      ],
      "stateMutability": "nonpayable",
      "type": "constructor"
    },
    {
      "inputs": [],
      "name": "EmptyArgs",
      "type": "error"
    },
    {
      "inputs": [],
      "name": "EmptySource",
      "type": "error"
    },
    {
      "inputs": [],
      "name": "NoInlineSecrets",
      "type": "error"
    },
    {
      "inputs": [
        {
          "internalType": "address",
          "name": "have",
          "type": "address"
        },
        {
          "internalType": "address",
          "name": "want",
          "type": "address"
        }
      ],
      "name": "OnlyCoordinatorCanFulfill",
      "type": "error"
    },
    {
      "inputs": [],
      "name": "RequestIsAlreadyPending",
      "type": "error"
    },
    {
      "inputs": [],
      "name": "RequestIsNotPending",
      "type": "error"
    },
    {
      "inputs": [],
      "name": "SenderIsNotRegistry",
      "type": "error"
    },
    {
      "anonymous": false,
      "inputs": [
        {
          "indexed": true,
          "internalType": "bytes32",
          "name": "requestId",
          "type": "bytes32"
        }
      ],
      "name": "OCRRequest",
      "type": "event"
    },
    {
      "anonymous": false,
      "inputs": [
        {
          "indexed": true,
          "internalType": "bytes32",
          "name": "requestId",
          "type": "bytes32"
        },
        {
          "indexed": false,
          "internalType": "bytes",
          "name": "result",
          "type": "bytes"
        },
        {
          "indexed": false,
          "internalType": "bytes",
          "name": "err",
          "type": "bytes"
        }
      ],
      "name": "OCRResponse",
      "type": "event"
    },
    {
      "anonymous": false,
      "inputs": [
        {
          "indexed": true,
          "internalType": "address",
          "name": "from",
          "type": "address"
        },
        {
          "indexed": true,
          "internalType": "address",
          "name": "to",
          "type": "address"
        }
      ],
      "name": "OwnershipTransferRequested",
      "type": "event"
    },
    {
      "anonymous": false,
      "inputs": [
        {
          "indexed": true,
          "internalType": "address",
          "name": "from",
          "type": "address"
        },
        {
          "indexed": true,
          "internalType": "address",
          "name": "to",
          "type": "address"
        }
      ],
      "name": "OwnershipTransferred",
      "type": "event"
    },
    {
      "anonymous": false,
      "inputs": [
        {
          "indexed": false,
          "internalType": "uint256",
          "name": "requestId",
          "type": "uint256"
        },
        {
          "indexed": false,
          "internalType": "uint256[]",
          "name": "randomWords",
          "type": "uint256[]"
        }
      ],
      "name": "RequestFulfilled",
      "type": "event"
    },
    {
      "anonymous": false,
      "inputs": [
        {
          "indexed": true,
          "internalType": "bytes32",
          "name": "id",
          "type": "bytes32"
        }
      ],
      "name": "RequestFulfilled",
      "type": "event"
    },
    {
      "anonymous": false,
      "inputs": [
        {
          "indexed": false,
          "internalType": "uint256",
          "name": "requestId",
          "type": "uint256"
        },
        {
          "indexed": false,
          "internalType": "uint32",
          "name": "numWords",
          "type": "uint32"
        }
      ],
      "name": "RequestSent",
      "type": "event"
    },
    {
      "anonymous": false,
      "inputs": [
        {
          "indexed": true,
          "internalType": "bytes32",
          "name": "id",
          "type": "bytes32"
        }
      ],
      "name": "RequestSent",
      "type": "event"
    },
    {
      "inputs": [],
      "name": "acceptOwnership",
      "outputs": [],
      "stateMutability": "nonpayable",
      "type": "function"
    },
    {
      "inputs": [
        {
          "internalType": "address",
          "name": "oracleAddress",
          "type": "address"
        },
        {
          "internalType": "bytes32",
          "name": "requestId",
          "type": "bytes32"
        }
      ],
      "name": "addSimulatedRequestId",
      "outputs": [],
      "stateMutability": "nonpayable",
      "type": "function"
    },
    {
      "inputs": [
        {
          "internalType": "bytes",
          "name": "input",
          "type": "bytes"
        }
      ],
      "name": "bytesToUint256",
      "outputs": [
        {
          "internalType": "uint256",
          "name": "result",
          "type": "uint256"
        }
      ],
      "stateMutability": "pure",
      "type": "function"
    },
    {
      "inputs": [],
      "name": "checkInsuranceData",
      "outputs": [
        {
          "internalType": "bool",
          "name": "",
          "type": "bool"
        }
      ],
      "stateMutability": "view",
      "type": "function"
    },
    {
      "inputs": [],
      "name": "checkPayoutContract",
      "outputs": [
        {
          "internalType": "address",
          "name": "",
          "type": "address"
        }
      ],
      "stateMutability": "view",
      "type": "function"
    },
    {
      "inputs": [],
      "name": "constructionTime",
      "outputs": [
        {
          "internalType": "uint256",
          "name": "",
          "type": "uint256"
        }
      ],
      "stateMutability": "view",
      "type": "function"
    },
    {
      "inputs": [],
      "name": "currentTime",
      "outputs": [
        {
          "internalType": "uint256",
          "name": "",
          "type": "uint256"
        }
      ],
      "stateMutability": "view",
      "type": "function"
    },
    {
      "inputs": [
        {
          "internalType": "address",
          "name": "policyOwner",
          "type": "address"
        },
        {
          "internalType": "uint256",
          "name": "policyIndex",
          "type": "uint256"
        }
      ],
      "name": "endPolicy",
      "outputs": [],
      "stateMutability": "nonpayable",
      "type": "function"
    },
    {
      "inputs": [
        {
          "components": [
            {
              "internalType": "enum Functions.Location",
              "name": "codeLocation",
              "type": "uint8"
            },
            {
              "internalType": "enum Functions.Location",
              "name": "secretsLocation",
              "type": "uint8"
            },
            {
              "internalType": "enum Functions.CodeLanguage",
              "name": "language",
              "type": "uint8"
            },
            {
              "internalType": "string",
              "name": "source",
              "type": "string"
            },
            {
              "internalType": "bytes",
              "name": "secrets",
              "type": "bytes"
            },
            {
              "internalType": "string[]",
              "name": "args",
              "type": "string[]"
            }
          ],
          "internalType": "struct Functions.Request",
          "name": "req",
          "type": "tuple"
        },
        {
          "internalType": "uint64",
          "name": "subscriptionId",
          "type": "uint64"
        },
        {
          "internalType": "uint32",
          "name": "gasLimit",
          "type": "uint32"
        },
        {
          "internalType": "uint256",
          "name": "gasPrice",
          "type": "uint256"
        }
      ],
      "name": "estimateCost",
      "outputs": [
        {
          "internalType": "uint96",
          "name": "",
          "type": "uint96"
        }
      ],
      "stateMutability": "view",
      "type": "function"
    },
    {
      "inputs": [
        {
          "internalType": "string",
          "name": "source",
          "type": "string"
        },
        {
          "internalType": "bytes",
          "name": "secrets",
          "type": "bytes"
        },
        {
          "internalType": "string[]",
          "name": "args",
          "type": "string[]"
        },
        {
          "internalType": "uint64",
          "name": "subscriptionId",
          "type": "uint64"
        },
        {
          "internalType": "uint32",
          "name": "gasLimit",
          "type": "uint32"
        }
      ],
      "name": "estimateInsurance",
      "outputs": [
        {
          "internalType": "bytes32",
          "name": "",
          "type": "bytes32"
        }
      ],
      "stateMutability": "payable",
      "type": "function"
    },
    {
      "inputs": [
        {
          "internalType": "bytes32",
          "name": "",
          "type": "bytes32"
        }
      ],
      "name": "functionsRequesterAddresses",
      "outputs": [
        {
          "internalType": "address",
          "name": "",
          "type": "address"
        }
      ],
      "stateMutability": "view",
      "type": "function"
    },
    {
      "inputs": [
        {
          "internalType": "address",
          "name": "user",
          "type": "address"
        }
      ],
      "name": "getAllUserPolicies",
      "outputs": [
        {
          "components": [
            {
              "internalType": "string",
              "name": "latNe",
              "type": "string"
            },
            {
              "internalType": "string",
              "name": "longNe",
              "type": "string"
            },
            {
              "internalType": "string",
              "name": "latSe",
              "type": "string"
            },
            {
              "internalType": "string",
              "name": "longSe",
              "type": "string"
            },
            {
              "internalType": "string",
              "name": "latSw",
              "type": "string"
            },
            {
              "internalType": "string",
              "name": "longSw",
              "type": "string"
            },
            {
              "internalType": "string",
              "name": "latNw",
              "type": "string"
            },
            {
              "internalType": "string",
              "name": "longNw",
              "type": "string"
            },
            {
              "internalType": "string",
              "name": "configParam",
              "type": "string"
            },
            {
              "internalType": "string",
              "name": "startTime",
              "type": "string"
            },
            {
              "internalType": "string",
              "name": "endTime",
              "type": "string"
            },
            {
              "internalType": "string",
              "name": "policyCreationTime",
              "type": "string"
            }
          ],
          "internalType": "struct Insurance.InsuranceData[]",
          "name": "",
          "type": "tuple[]"
        }
      ],
      "stateMutability": "view",
      "type": "function"
    },
    {
      "inputs": [],
      "name": "getCurrentTime",
      "outputs": [
        {
          "internalType": "uint256",
          "name": "",
          "type": "uint256"
        }
      ],
      "stateMutability": "view",
      "type": "function"
    },
    {
      "inputs": [],
      "name": "getDONPublicKey",
      "outputs": [
        {
          "internalType": "bytes",
          "name": "",
          "type": "bytes"
        }
      ],
      "stateMutability": "view",
      "type": "function"
    },
    {
      "inputs": [
        {
          "internalType": "uint256",
          "name": "_requestId",
          "type": "uint256"
        }
      ],
      "name": "getLastRandomWords",
      "outputs": [
        {
          "internalType": "uint256[]",
          "name": "",
          "type": "uint256[]"
        }
      ],
      "stateMutability": "view",
      "type": "function"
    },
    {
      "inputs": [
        {
          "internalType": "address",
          "name": "user",
          "type": "address"
        },
        {
          "internalType": "uint256",
          "name": "policyIndex",
          "type": "uint256"
        }
      ],
      "name": "getPolicyData",
      "outputs": [
        {
          "components": [
            {
              "internalType": "string",
              "name": "latNe",
              "type": "string"
            },
            {
              "internalType": "string",
              "name": "longNe",
              "type": "string"
            },
            {
              "internalType": "string",
              "name": "latSe",
              "type": "string"
            },
            {
              "internalType": "string",
              "name": "longSe",
              "type": "string"
            },
            {
              "internalType": "string",
              "name": "latSw",
              "type": "string"
            },
            {
              "internalType": "string",
              "name": "longSw",
              "type": "string"
            },
            {
              "internalType": "string",
              "name": "latNw",
              "type": "string"
            },
            {
              "internalType": "string",
              "name": "longNw",
              "type": "string"
            },
            {
              "internalType": "string",
              "name": "configParam",
              "type": "string"
            },
            {
              "internalType": "string",
              "name": "startTime",
              "type": "string"
            },
            {
              "internalType": "string",
              "name": "endTime",
              "type": "string"
            },
            {
              "internalType": "string",
              "name": "policyCreationTime",
              "type": "string"
            }
          ],
          "internalType": "struct Insurance.InsuranceData",
          "name": "",
          "type": "tuple"
        }
      ],
      "stateMutability": "view",
      "type": "function"
    },
    {
      "inputs": [],
      "name": "getPriceLinkMatic",
      "outputs": [
        {
          "internalType": "int256",
          "name": "",
          "type": "int256"
        }
      ],
      "stateMutability": "view",
      "type": "function"
    },
    {
      "inputs": [],
      "name": "getPriceMaticUsd",
      "outputs": [
        {
          "internalType": "int256",
          "name": "",
          "type": "int256"
        }
      ],
      "stateMutability": "view",
      "type": "function"
    },
    {
      "inputs": [
        {
          "internalType": "uint256",
          "name": "_requestId",
          "type": "uint256"
        }
      ],
      "name": "getRequestStatus",
      "outputs": [
        {
          "internalType": "bool",
          "name": "fulfilled",
          "type": "bool"
        },
        {
          "internalType": "uint256[]",
          "name": "randomWords",
          "type": "uint256[]"
        }
      ],
      "stateMutability": "view",
      "type": "function"
    },
    {
      "inputs": [
        {
          "internalType": "bytes32",
          "name": "requestId",
          "type": "bytes32"
        },
        {
          "internalType": "bytes",
          "name": "response",
          "type": "bytes"
        },
        {
          "internalType": "bytes",
          "name": "err",
          "type": "bytes"
        }
      ],
      "name": "handleOracleFulfillment",
      "outputs": [],
      "stateMutability": "nonpayable",
      "type": "function"
    },
    {
      "inputs": [],
      "name": "helloWorld",
      "outputs": [
        {
          "internalType": "string",
          "name": "",
          "type": "string"
        }
      ],
      "stateMutability": "view",
      "type": "function"
    },
    {
      "inputs": [
        {
          "internalType": "address",
          "name": "",
          "type": "address"
        },
        {
          "internalType": "uint256",
          "name": "",
          "type": "uint256"
        }
      ],
      "name": "insurancePoliciesMapping",
      "outputs": [
        {
          "internalType": "string",
          "name": "latNe",
          "type": "string"
        },
        {
          "internalType": "string",
          "name": "longNe",
          "type": "string"
        },
        {
          "internalType": "string",
          "name": "latSe",
          "type": "string"
        },
        {
          "internalType": "string",
          "name": "longSe",
          "type": "string"
        },
        {
          "internalType": "string",
          "name": "latSw",
          "type": "string"
        },
        {
          "internalType": "string",
          "name": "longSw",
          "type": "string"
        },
        {
          "internalType": "string",
          "name": "latNw",
          "type": "string"
        },
        {
          "internalType": "string",
          "name": "longNw",
          "type": "string"
        },
        {
          "internalType": "string",
          "name": "configParam",
          "type": "string"
        },
        {
          "internalType": "string",
          "name": "startTime",
          "type": "string"
        },
        {
          "internalType": "string",
          "name": "endTime",
          "type": "string"
        },
        {
          "internalType": "string",
          "name": "policyCreationTime",
          "type": "string"
        }
      ],
      "stateMutability": "view",
      "type": "function"
    },
    {
      "inputs": [],
      "name": "lastRequestId",
      "outputs": [
        {
          "internalType": "uint256",
          "name": "",
          "type": "uint256"
        }
      ],
      "stateMutability": "view",
      "type": "function"
    },
    {
      "inputs": [],
      "name": "latestError",
      "outputs": [
        {
          "internalType": "bytes",
          "name": "",
          "type": "bytes"
        }
      ],
      "stateMutability": "view",
      "type": "function"
    },
    {
      "inputs": [],
      "name": "latestRequestId",
      "outputs": [
        {
          "internalType": "bytes32",
          "name": "",
          "type": "bytes32"
        }
      ],
      "stateMutability": "view",
      "type": "function"
    },
    {
      "inputs": [],
      "name": "latestResponse",
      "outputs": [
        {
          "internalType": "bytes",
          "name": "",
          "type": "bytes"
        }
      ],
      "stateMutability": "view",
      "type": "function"
    },
    {
      "inputs": [],
      "name": "linkMaticPriceFeed",
      "outputs": [
        {
          "internalType": "contract LinkMaticPriceFeed",
          "name": "",
          "type": "address"
        }
      ],
      "stateMutability": "view",
      "type": "function"
    },
    {
      "inputs": [],
      "name": "maticUsdPriceFeed",
      "outputs": [
        {
          "internalType": "contract MaticUsdPriceFeed",
          "name": "",
          "type": "address"
        }
      ],
      "stateMutability": "view",
      "type": "function"
    },
    {
      "inputs": [],
      "name": "owner",
      "outputs": [
        {
          "internalType": "address",
          "name": "",
          "type": "address"
        }
      ],
      "stateMutability": "view",
      "type": "function"
    },
    {
      "inputs": [
        {
          "internalType": "address payable",
          "name": "userAddress",
          "type": "address"
        },
        {
          "internalType": "uint256",
          "name": "payoutAmount",
          "type": "uint256"
        }
      ],
      "name": "payUser",
      "outputs": [],
      "stateMutability": "nonpayable",
      "type": "function"
    },
    {
      "inputs": [
        {
          "internalType": "address",
          "name": "",
          "type": "address"
        },
        {
          "internalType": "uint256",
          "name": "",
          "type": "uint256"
        }
      ],
      "name": "policyStatus",
      "outputs": [
        {
          "internalType": "enum Insurance.PolicyStatus",
          "name": "",
          "type": "uint8"
        }
      ],
      "stateMutability": "view",
      "type": "function"
    },
    {
      "inputs": [
        {
          "internalType": "uint256",
          "name": "",
          "type": "uint256"
        }
      ],
      "name": "randomnessRequesterAddress",
      "outputs": [
        {
          "internalType": "address",
          "name": "",
          "type": "address"
        }
      ],
      "stateMutability": "view",
      "type": "function"
    },
    {
      "inputs": [
        {
          "internalType": "uint256",
          "name": "requestId",
          "type": "uint256"
        },
        {
          "internalType": "uint256[]",
          "name": "randomWords",
          "type": "uint256[]"
        }
      ],
      "name": "rawFulfillRandomWords",
      "outputs": [],
      "stateMutability": "nonpayable",
      "type": "function"
    },
    {
      "inputs": [
        {
          "internalType": "uint256",
          "name": "",
          "type": "uint256"
        }
      ],
      "name": "requestIds",
      "outputs": [
        {
          "internalType": "uint256",
          "name": "",
          "type": "uint256"
        }
      ],
      "stateMutability": "view",
      "type": "function"
    },
    {
      "inputs": [],
      "name": "requestRandomWords",
      "outputs": [
        {
          "internalType": "uint256",
          "name": "requestId",
          "type": "uint256"
        }
      ],
      "stateMutability": "nonpayable",
      "type": "function"
    },
    {
      "inputs": [
        {
          "internalType": "bytes32",
          "name": "",
          "type": "bytes32"
        }
      ],
      "name": "responseData",
      "outputs": [
        {
          "internalType": "address",
          "name": "user",
          "type": "address"
        },
        {
          "internalType": "uint256",
          "name": "policyIndex",
          "type": "uint256"
        },
        {
          "internalType": "uint256",
          "name": "cost",
          "type": "uint256"
        }
      ],
      "stateMutability": "view",
      "type": "function"
    },
    {
      "inputs": [
        {
          "internalType": "uint256",
          "name": "",
          "type": "uint256"
        }
      ],
      "name": "s_requests",
      "outputs": [
        {
          "internalType": "bool",
          "name": "fulfilled",
          "type": "bool"
        },
        {
          "internalType": "bool",
          "name": "exists",
          "type": "bool"
        }
      ],
      "stateMutability": "view",
      "type": "function"
    },
    {
      "inputs": [
        {
          "internalType": "address",
          "name": "_checkPayoutContract",
          "type": "address"
        }
      ],
      "name": "setCheckPayoutContract",
      "outputs": [],
      "stateMutability": "nonpayable",
      "type": "function"
    },
    {
      "inputs": [
        {
          "internalType": "bytes32",
          "name": "requestId",
          "type": "bytes32"
        }
      ],
      "name": "startPolicy",
      "outputs": [
        {
          "internalType": "uint256",
          "name": "",
          "type": "uint256"
        }
      ],
      "stateMutability": "payable",
      "type": "function"
    },
    {
      "inputs": [
        {
          "internalType": "address",
          "name": "to",
          "type": "address"
        }
      ],
      "name": "transferOwnership",
      "outputs": [],
      "stateMutability": "nonpayable",
      "type": "function"
    },
    {
      "inputs": [
        {
          "internalType": "address",
          "name": "oracle",
          "type": "address"
        }
      ],
      "name": "updateOracleAddress",
      "outputs": [],
      "stateMutability": "nonpayable",
      "type": "function"
    }
  ],
  "bytecode": "0x60a06040527f4b09e658ed251bcafeebbc69400383d49f344ace09b9576fe248bb02c003fe9f600955600a80546001600160501b03191666030003000493e017905542600f553480156200005257600080fd5b5060405162005cd538038062005cd58339810160408190526200007591620002a5565b600080546001600160a01b0319166001600160a01b0386161781557f7a1bac17ccc5b313516c5e16fb24f7659aa5ebed00000000000000000000000060805233908190816200010b5760405162461bcd60e51b815260206004820152601860248201527f43616e6e6f7420736574206f776e657220746f207a65726f000000000000000060448201526064015b60405180910390fd5b600280546001600160a01b0319166001600160a01b03848116919091179091558116156200013e576200013e81620001db565b5050600a80546001600160a01b039586166a010000000000000000000002600160501b600160f01b031990911617905550600b8054929093166001600160a01b031992831617909255600680546001600160401b03909316600160a01b026001600160e01b031990931692909217737a1bac17ccc5b313516c5e16fb24f7659aa5ebed179091554260055560048054909116331790555062000310565b6001600160a01b038116331415620002365760405162461bcd60e51b815260206004820152601760248201527f43616e6e6f74207472616e7366657220746f2073656c66000000000000000000604482015260640162000102565b600380546001600160a01b0319166001600160a01b03838116918217909255600254604051919216907fed8889f560326eb138920d842192f0eb3dd22b4f139c87a2c57538e05bae127890600090a350565b80516001600160a01b0381168114620002a057600080fd5b919050565b60008060008060808587031215620002bc57600080fd5b620002c78562000288565b9350620002d76020860162000288565b9250620002e76040860162000288565b60608601519092506001600160401b03811681146200030557600080fd5b939692955090935050565b60805160601c61599f6200033660003960008181610b800152610bdb015261599f6000f3fe6080604052600436106102c65760003560e01c8063bc58d68c11610179578063e0c86289116100d6578063f06c56101161008a578063f7023bb611610064578063f7023bb614610881578063fc2a88c3146108a1578063fffeb84e146108b757600080fd5b8063f06c561014610803578063f11da55b14610819578063f2fde38b1461086157600080fd5b8063e5c33f30116100bb578063e5c33f301461074a578063e7a363b014610778578063ecd831e8146107e357600080fd5b8063e0c8628914610720578063e3928b7f1461073557600080fd5b8063d18e81b31161012d578063d4b3917511610112578063d4b3917514610690578063d8a4676f146106cd578063e0919101146106fb57600080fd5b8063d18e81b314610665578063d328a91e1461067b57600080fd5b8063c0303c371161015e578063c0303c371461060e578063c605f76c1461062e578063cc9de25d1461064357600080fd5b8063bc58d68c146105cc578063bef3a2f0146105ec57600080fd5b80636c6f9990116102275780638da5cb5b116101db578063a168fa89116101c0578063a168fa8914610517578063b611094914610567578063b655cd9b1461059457600080fd5b80638da5cb5b146104e6578063985454ff1461050457600080fd5b80637a56ef891161020c5780637a56ef891461046357806380858026146104995780638796ba8c146104c657600080fd5b80636c6f99901461042e57806379ba50971461044e57600080fd5b806329cb924d1161027e5780635ec7baca116102635780635ec7baca1461039357806361875d8d146103e157806369f8eaed1461040e57600080fd5b806329cb924d1461035e57806330bda99d1461037357600080fd5b80630ca76175116102af5780630ca76175146103065780631aa46f59146103285780631fe543e31461033e57600080fd5b806305f411d6146102cb5780630b50567f146102f3575b600080fd5b3480156102d757600080fd5b506102e06108cc565b6040519081526020015b60405180910390f35b6102e0610301366004614dba565b610957565b34801561031257600080fd5b50610326610321366004614dec565b610acf565b005b34801561033457600080fd5b506102e0600c5481565b34801561034a57600080fd5b50610326610359366004615101565b610b75565b34801561036a57600080fd5b50600f546102e0565b34801561037f57600080fd5b5061032661038e366004614d8e565b610c16565b34801561039f57600080fd5b506103c96103ae366004614dba565b6014602052600090815260409020546001600160a01b031681565b6040516001600160a01b0390911681526020016102ea565b3480156103ed57600080fd5b506104016103fc366004614d8e565b610c28565b6040516102ea9190615575565b34801561041a57600080fd5b50610326610429366004614d54565b6113b1565b34801561043a57600080fd5b50600b546103c9906001600160a01b031681565b34801561045a57600080fd5b50610326611453565b34801561046f57600080fd5b506103c961047e366004614dba565b6012602052600090815260409020546001600160a01b031681565b3480156104a557600080fd5b506104b96104b4366004614d54565b611508565b6040516102ea919061537f565b3480156104d257600080fd5b506102e06104e1366004614dba565b611c56565b3480156104f257600080fd5b506002546001600160a01b03166103c9565b6102e0610512366004614f04565b611c77565b34801561052357600080fd5b50610550610532366004614dba565b60156020526000908152604090205460ff8082169161010090041682565b6040805192151583529015156020830152016102ea565b34801561057357600080fd5b50610587610582366004614dba565b6124e0565b6040516102ea91906153e1565b3480156105a057600080fd5b506105b46105af366004614d8e565b612605565b6040516102ea9c9b9a9998979695949392919061546f565b3480156105d857600080fd5b506103266105e7366004614d8e565b612ce2565b3480156105f857600080fd5b50610601612d7c565b6040516102ea919061540f565b34801561061a57600080fd5b506004546103c9906001600160a01b031681565b34801561063a57600080fd5b50610601612e0a565b34801561064f57600080fd5b506102e061065e366004614e59565b6020015190565b34801561067157600080fd5b506102e0600f5481565b34801561068757600080fd5b50610601612e82565b34801561069c57600080fd5b506106b06106ab366004614fef565b612f1b565b6040516bffffffffffffffffffffffff90911681526020016102ea565b3480156106d957600080fd5b506106ed6106e8366004614dba565b612fb1565b6040516102ea9291906153f4565b34801561070757600080fd5b506107106130b1565b60405190151581526020016102ea565b34801561072c57600080fd5b506102e06138d5565b34801561074157600080fd5b506102e0613af2565b34801561075657600080fd5b50600a546103c9906a010000000000000000000090046001600160a01b031681565b34801561078457600080fd5b506107be610793366004614dba565b6011602052600090815260409020805460018201546002909201546001600160a01b03909116919083565b604080516001600160a01b0390941684526020840192909252908201526060016102ea565b3480156107ef57600080fd5b506103266107fe366004614d8e565b613b50565b34801561080f57600080fd5b506102e060055481565b34801561082557600080fd5b50610854610834366004614d8e565b601060209081526000928352604080842090915290825290205460ff1681565b6040516102ea9190615447565b34801561086d57600080fd5b5061032661087c366004614d54565b613c20565b34801561088d57600080fd5b5061032661089c366004614d54565b613c34565b3480156108ad57600080fd5b506102e060085481565b3480156108c357600080fd5b50610601613c5a565b6000600a8054906101000a90046001600160a01b03166001600160a01b0316638e15f4736040518163ffffffff1660e01b815260040160206040518083038186803b15801561091a57600080fd5b505afa15801561092e573d6000803e3d6000fd5b505050506040513d601f19601f820116820180604052508101906109529190614dd3565b905090565b600081815260116020908152604080832060028101546001820154338652601390945291842080549193918591908390811061099557610995615928565b6000918252602080832033845260108252604080852087865290925290832054600c9290920201925060ff1660028111156109d2576109d2615912565b14610a245760405162461bcd60e51b815260206004820152601560248201527f506f6c696379206973206e6f742070656e64696e67000000000000000000000060448201526064015b60405180910390fd5b6000610a2e613af2565b9050600081610a41866305f5e10061581a565b610a4b919061571b565b905080341015610a9d5760405162461bcd60e51b815260206004820152601560248201527f4e6f7420656e6f756768204d617469632073656e7400000000000000000000006044820152606401610a1b565b505033600090815260106020908152604080832094835293905291909120805460ff1916600117905550919392505050565b60008381526001602052604090205483906001600160a01b03163314610b21576040517fa0c5ec6300000000000000000000000000000000000000000000000000000000815260040160405180910390fd5b60008181526001602052604080822080546001600160a01b03191690555182917f85e1543bf2f84fe80c6badbce3648c8539ad1df4d2b3d822938ca0538be727e691a2610b6f848484613c67565b50505050565b336001600160a01b037f00000000000000000000000000000000000000000000000000000000000000001614610c08576040517f1cf993f40000000000000000000000000000000000000000000000000000000081523360048201526001600160a01b037f0000000000000000000000000000000000000000000000000000000000000000166024820152604401610a1b565b610c128282613cf4565b5050565b610c1e613dc6565b610c128282613e22565b610c8c6040518061018001604052806060815260200160608152602001606081526020016060815260200160608152602001606081526020016060815260200160608152602001606081526020016060815260200160608152602001606081525090565b6001600160a01b0383166000908152601360205260409020805483908110610cb657610cb6615928565b90600052602060002090600c020160405180610180016040529081600082018054610ce09061587c565b80601f0160208091040260200160405190810160405280929190818152602001828054610d0c9061587c565b8015610d595780601f10610d2e57610100808354040283529160200191610d59565b820191906000526020600020905b815481529060010190602001808311610d3c57829003601f168201915b50505050508152602001600182018054610d729061587c565b80601f0160208091040260200160405190810160405280929190818152602001828054610d9e9061587c565b8015610deb5780601f10610dc057610100808354040283529160200191610deb565b820191906000526020600020905b815481529060010190602001808311610dce57829003601f168201915b50505050508152602001600282018054610e049061587c565b80601f0160208091040260200160405190810160405280929190818152602001828054610e309061587c565b8015610e7d5780601f10610e5257610100808354040283529160200191610e7d565b820191906000526020600020905b815481529060010190602001808311610e6057829003601f168201915b50505050508152602001600382018054610e969061587c565b80601f0160208091040260200160405190810160405280929190818152602001828054610ec29061587c565b8015610f0f5780601f10610ee457610100808354040283529160200191610f0f565b820191906000526020600020905b815481529060010190602001808311610ef257829003601f168201915b50505050508152602001600482018054610f289061587c565b80601f0160208091040260200160405190810160405280929190818152602001828054610f549061587c565b8015610fa15780601f10610f7657610100808354040283529160200191610fa1565b820191906000526020600020905b815481529060010190602001808311610f8457829003601f168201915b50505050508152602001600582018054610fba9061587c565b80601f0160208091040260200160405190810160405280929190818152602001828054610fe69061587c565b80156110335780601f1061100857610100808354040283529160200191611033565b820191906000526020600020905b81548152906001019060200180831161101657829003601f168201915b5050505050815260200160068201805461104c9061587c565b80601f01602080910402602001604051908101604052809291908181526020018280546110789061587c565b80156110c55780601f1061109a576101008083540402835291602001916110c5565b820191906000526020600020905b8154815290600101906020018083116110a857829003601f168201915b505050505081526020016007820180546110de9061587c565b80601f016020809104026020016040519081016040528092919081815260200182805461110a9061587c565b80156111575780601f1061112c57610100808354040283529160200191611157565b820191906000526020600020905b81548152906001019060200180831161113a57829003601f168201915b505050505081526020016008820180546111709061587c565b80601f016020809104026020016040519081016040528092919081815260200182805461119c9061587c565b80156111e95780601f106111be576101008083540402835291602001916111e9565b820191906000526020600020905b8154815290600101906020018083116111cc57829003601f168201915b505050505081526020016009820180546112029061587c565b80601f016020809104026020016040519081016040528092919081815260200182805461122e9061587c565b801561127b5780601f106112505761010080835404028352916020019161127b565b820191906000526020600020905b81548152906001019060200180831161125e57829003601f168201915b50505050508152602001600a820180546112949061587c565b80601f01602080910402602001604051908101604052809291908181526020018280546112c09061587c565b801561130d5780601f106112e25761010080835404028352916020019161130d565b820191906000526020600020905b8154815290600101906020018083116112f057829003601f168201915b50505050508152602001600b820180546113269061587c565b80601f01602080910402602001604051908101604052809291908181526020018280546113529061587c565b801561139f5780601f106113745761010080835404028352916020019161139f565b820191906000526020600020905b81548152906001019060200180831161138257829003601f168201915b50505050508152505090505b92915050565b6004546001600160a01b031633146114315760405162461bcd60e51b815260206004820152602e60248201527f43616c6c6572206973206e6f74207468652063757272656e7420436865636b5060448201527f61796f757420636f6e74726163740000000000000000000000000000000000006064820152608401610a1b565b600480546001600160a01b0319166001600160a01b0392909216919091179055565b6003546001600160a01b031633146114ad5760405162461bcd60e51b815260206004820152601660248201527f4d7573742062652070726f706f736564206f776e6572000000000000000000006044820152606401610a1b565b600280546001600160a01b0319808216339081179093556003805490911690556040516001600160a01b03909116919082907f8be0079c531659141344cd1fd0a4f28419497f9722a3daafe3b4186f6b6457e090600090a350565b6001600160a01b0381166000908152601360209081526040808320805482518185028101850190935280835260609492939192909184015b82821015611c4b57838290600052602060002090600c0201604051806101800160405290816000820180546115749061587c565b80601f01602080910402602001604051908101604052809291908181526020018280546115a09061587c565b80156115ed5780601f106115c2576101008083540402835291602001916115ed565b820191906000526020600020905b8154815290600101906020018083116115d057829003601f168201915b505050505081526020016001820180546116069061587c565b80601f01602080910402602001604051908101604052809291908181526020018280546116329061587c565b801561167f5780601f106116545761010080835404028352916020019161167f565b820191906000526020600020905b81548152906001019060200180831161166257829003601f168201915b505050505081526020016002820180546116989061587c565b80601f01602080910402602001604051908101604052809291908181526020018280546116c49061587c565b80156117115780601f106116e657610100808354040283529160200191611711565b820191906000526020600020905b8154815290600101906020018083116116f457829003601f168201915b5050505050815260200160038201805461172a9061587c565b80601f01602080910402602001604051908101604052809291908181526020018280546117569061587c565b80156117a35780601f10611778576101008083540402835291602001916117a3565b820191906000526020600020905b81548152906001019060200180831161178657829003601f168201915b505050505081526020016004820180546117bc9061587c565b80601f01602080910402602001604051908101604052809291908181526020018280546117e89061587c565b80156118355780601f1061180a57610100808354040283529160200191611835565b820191906000526020600020905b81548152906001019060200180831161181857829003601f168201915b5050505050815260200160058201805461184e9061587c565b80601f016020809104026020016040519081016040528092919081815260200182805461187a9061587c565b80156118c75780601f1061189c576101008083540402835291602001916118c7565b820191906000526020600020905b8154815290600101906020018083116118aa57829003601f168201915b505050505081526020016006820180546118e09061587c565b80601f016020809104026020016040519081016040528092919081815260200182805461190c9061587c565b80156119595780601f1061192e57610100808354040283529160200191611959565b820191906000526020600020905b81548152906001019060200180831161193c57829003601f168201915b505050505081526020016007820180546119729061587c565b80601f016020809104026020016040519081016040528092919081815260200182805461199e9061587c565b80156119eb5780601f106119c0576101008083540402835291602001916119eb565b820191906000526020600020905b8154815290600101906020018083116119ce57829003601f168201915b50505050508152602001600882018054611a049061587c565b80601f0160208091040260200160405190810160405280929190818152602001828054611a309061587c565b8015611a7d5780601f10611a5257610100808354040283529160200191611a7d565b820191906000526020600020905b815481529060010190602001808311611a6057829003601f168201915b50505050508152602001600982018054611a969061587c565b80601f0160208091040260200160405190810160405280929190818152602001828054611ac29061587c565b8015611b0f5780601f10611ae457610100808354040283529160200191611b0f565b820191906000526020600020905b815481529060010190602001808311611af257829003601f168201915b50505050508152602001600a82018054611b289061587c565b80601f0160208091040260200160405190810160405280929190818152602001828054611b549061587c565b8015611ba15780601f10611b7657610100808354040283529160200191611ba1565b820191906000526020600020905b815481529060010190602001808311611b8457829003601f168201915b50505050508152602001600b82018054611bba9061587c565b80601f0160208091040260200160405190810160405280929190818152602001828054611be69061587c565b8015611c335780601f10611c0857610100808354040283529160200191611c33565b820191906000526020600020905b815481529060010190602001808311611c1657829003601f168201915b50505050508152505081526020019060010190611540565b505050509050919050565b60078181548110611c6657600080fd5b600091825260209091200154905081565b6000600b8414611cc95760405162461bcd60e51b815260206004820152601b60248201527f496e76616c6964206e756d626572206f6620617267756d656e747300000000006044820152606401610a1b565b33600090815260136020526040812090611ce242613ea2565b90508160405180610180016040528089896000818110611d0457611d04615928565b9050602002810190611d169190615616565b8080601f01602080910402602001604051908101604052809392919081815260200183838082843760009201919091525050509082525060200189896001818110611d6357611d63615928565b9050602002810190611d759190615616565b8080601f01602080910402602001604051908101604052809392919081815260200183838082843760009201919091525050509082525060200189896002818110611dc257611dc2615928565b9050602002810190611dd49190615616565b8080601f01602080910402602001604051908101604052809392919081815260200183838082843760009201919091525050509082525060200189896003818110611e2157611e21615928565b9050602002810190611e339190615616565b8080601f01602080910402602001604051908101604052809392919081815260200183838082843760009201919091525050509082525060200189896004818110611e8057611e80615928565b9050602002810190611e929190615616565b8080601f01602080910402602001604051908101604052809392919081815260200183838082843760009201919091525050509082525060200189896005818110611edf57611edf615928565b9050602002810190611ef19190615616565b8080601f01602080910402602001604051908101604052809392919081815260200183838082843760009201919091525050509082525060200189896006818110611f3e57611f3e615928565b9050602002810190611f509190615616565b8080601f01602080910402602001604051908101604052809392919081815260200183838082843760009201919091525050509082525060200189896007818110611f9d57611f9d615928565b9050602002810190611faf9190615616565b8080601f01602080910402602001604051908101604052809392919081815260200183838082843760009201919091525050509082525060200189896008818110611ffc57611ffc615928565b905060200281019061200e9190615616565b8080601f0160208091040260200160405190810160405280939291908181526020018383808284376000920191909152505050908252506020018989600981811061205b5761205b615928565b905060200281019061206d9190615616565b8080601f0160208091040260200160405190810160405280939291908181526020018383808284376000920191909152505050908252506020018989600a8181106120ba576120ba615928565b90506020028101906120cc9190615616565b8080601f016020809104026020016040519081016040528093929190818152602001838380828437600092018290525093855250505060209182018590528354600181018555938152819020825180519394600c02909101926121329284920190614acc565b50602082810151805161214b9260018501920190614acc565b5060408201518051612167916002840191602090910190614acc565b5060608201518051612183916003840191602090910190614acc565b506080820151805161219f916004840191602090910190614acc565b5060a082015180516121bb916005840191602090910190614acc565b5060c082015180516121d7916006840191602090910190614acc565b5060e082015180516121f3916007840191602090910190614acc565b506101008201518051612210916008840191602090910190614acc565b50610120820151805161222d916009840191602090910190614acc565b50610140820151805161224a91600a840191602090910190614acc565b50610160820151805161226791600b840191602090910190614acc565b50503360009081526013602052604081205490915061228890600190615839565b90506122c46040805160c08101909152806000815260200160008152602001600081526020016060815260200160608152602001606081525090565b61230b6000808f8f8080601f01602080910402602001604051908101604052809392919081815260200183838082843760009201919091525087959493925050613f4c9050565b6000612318896001615703565b67ffffffffffffffff8111156123305761233061593e565b60405190808252806020026020018201604052801561236357816020015b606081526020019060019003908161234e5790505b50905060005b898110156123fb578a8a8281811061238357612383615928565b90506020028101906123959190615616565b8080601f01602080910402602001604051908101604052809392919081815260200183838082843760009201919091525050845185925084915081106123dd576123dd615928565b602002602001018190525080806123f3906158b7565b915050612369565b5083818b8b90508151811061241257612412615928565b60209081029190910101526124278282613fe0565b6000612434838a8a614020565b60408051606081018252338082526020808301898152600084860181815287825260118452868220955186546001600160a01b03919091166001600160a01b03199182161787559251600187015551600290950194909455600c869055601290915283832080549091169091179055905191925082917f0790d5075e76350b19c3d15f0de9144077f6fb31397b526ce8664d7faf7dde6b9190a29e9d5050505050505050505050505050565b600854600090815260156020526040902054606090610100900460ff1661256f5760405162461bcd60e51b815260206004820152602760248201527f4e6f2072616e646f6d20776f7264732068617665206265656e2067656e65726160448201527f74656420796574000000000000000000000000000000000000000000000000006064820152608401610a1b565b604080516003808252608082019092526000916020820160608036833701905050905060005b60038110156125fe5760085460009081526015602052604090206001018054829081106125c4576125c4615928565b90600052602060002001548282815181106125e1576125e1615928565b6020908102919091010152806125f6816158b7565b915050612595565b5092915050565b6013602052816000526040600020818154811061262157600080fd5b90600052602060002090600c0201600091509150508060000180546126459061587c565b80601f01602080910402602001604051908101604052809291908181526020018280546126719061587c565b80156126be5780601f10612693576101008083540402835291602001916126be565b820191906000526020600020905b8154815290600101906020018083116126a157829003601f168201915b5050505050908060010180546126d39061587c565b80601f01602080910402602001604051908101604052809291908181526020018280546126ff9061587c565b801561274c5780601f106127215761010080835404028352916020019161274c565b820191906000526020600020905b81548152906001019060200180831161272f57829003601f168201915b5050505050908060020180546127619061587c565b80601f016020809104026020016040519081016040528092919081815260200182805461278d9061587c565b80156127da5780601f106127af576101008083540402835291602001916127da565b820191906000526020600020905b8154815290600101906020018083116127bd57829003601f168201915b5050505050908060030180546127ef9061587c565b80601f016020809104026020016040519081016040528092919081815260200182805461281b9061587c565b80156128685780601f1061283d57610100808354040283529160200191612868565b820191906000526020600020905b81548152906001019060200180831161284b57829003601f168201915b50505050509080600401805461287d9061587c565b80601f01602080910402602001604051908101604052809291908181526020018280546128a99061587c565b80156128f65780601f106128cb576101008083540402835291602001916128f6565b820191906000526020600020905b8154815290600101906020018083116128d957829003601f168201915b50505050509080600501805461290b9061587c565b80601f01602080910402602001604051908101604052809291908181526020018280546129379061587c565b80156129845780601f1061295957610100808354040283529160200191612984565b820191906000526020600020905b81548152906001019060200180831161296757829003601f168201915b5050505050908060060180546129999061587c565b80601f01602080910402602001604051908101604052809291908181526020018280546129c59061587c565b8015612a125780601f106129e757610100808354040283529160200191612a12565b820191906000526020600020905b8154815290600101906020018083116129f557829003601f168201915b505050505090806007018054612a279061587c565b80601f0160208091040260200160405190810160405280929190818152602001828054612a539061587c565b8015612aa05780601f10612a7557610100808354040283529160200191612aa0565b820191906000526020600020905b815481529060010190602001808311612a8357829003601f168201915b505050505090806008018054612ab59061587c565b80601f0160208091040260200160405190810160405280929190818152602001828054612ae19061587c565b8015612b2e5780601f10612b0357610100808354040283529160200191612b2e565b820191906000526020600020905b815481529060010190602001808311612b1157829003601f168201915b505050505090806009018054612b439061587c565b80601f0160208091040260200160405190810160405280929190818152602001828054612b6f9061587c565b8015612bbc5780601f10612b9157610100808354040283529160200191612bbc565b820191906000526020600020905b815481529060010190602001808311612b9f57829003601f168201915b50505050509080600a018054612bd19061587c565b80601f0160208091040260200160405190810160405280929190818152602001828054612bfd9061587c565b8015612c4a5780601f10612c1f57610100808354040283529160200191612c4a565b820191906000526020600020905b815481529060010190602001808311612c2d57829003601f168201915b50505050509080600b018054612c5f9061587c565b80601f0160208091040260200160405190810160405280929190818152602001828054612c8b9061587c565b8015612cd85780601f10612cad57610100808354040283529160200191612cd8565b820191906000526020600020905b815481529060010190602001808311612cbb57829003601f168201915b505050505090508c565b6004546001600160a01b03163314612d4b5760405162461bcd60e51b815260206004820152602660248201527f43616c6c6572206973206e6f742074686520436865636b5061796f757420636f6044820152651b9d1c9858dd60d21b6064820152608401610a1b565b6001600160a01b0391909116600090815260106020908152604080832093835292905220805460ff19166002179055565b600d8054612d899061587c565b80601f0160208091040260200160405190810160405280929190818152602001828054612db59061587c565b8015612e025780601f10612dd757610100808354040283529160200191612e02565b820191906000526020600020905b815481529060010190602001808311612de557829003601f168201915b505050505081565b6060612e4a6040518060400160405280600481526020017f5465737400000000000000000000000000000000000000000000000000000000815250614192565b5060408051808201909152600c81527f48656c6c6f20576f726c64210000000000000000000000000000000000000000602082015290565b60008054604080517fd328a91e00000000000000000000000000000000000000000000000000000000815290516060936001600160a01b039093169263d328a91e9260048082019391829003018186803b158015612edf57600080fd5b505afa158015612ef3573d6000803e3d6000fd5b505050506040513d6000823e601f3d908101601f191682016040526109529190810190614e96565b600080546001600160a01b031663d227d24585612f3788614203565b86866040518563ffffffff1660e01b8152600401612f5894939291906155da565b60206040518083038186803b158015612f7057600080fd5b505afa158015612f84573d6000803e3d6000fd5b505050506040513d601f19601f82011682018060405250810190612fa891906151a5565b95945050505050565b600081815260156020526040812054606090610100900460ff166130175760405162461bcd60e51b815260206004820152601160248201527f72657175657374206e6f7420666f756e640000000000000000000000000000006044820152606401610a1b565b60008381526015602090815260408083208151606081018352815460ff808216151583526101009091041615158185015260018201805484518187028101870186528181529295939486019383018282801561309257602002820191906000526020600020905b81548152602001906001019080831161307e575b5050505050815250509050806000015181604001519250925050915091565b336000908152601360205260408120805461310e5760405162461bcd60e51b815260206004820152601760248201527f4e6f20696e737572616e6365206461746120666f756e640000000000000000006044820152606401610a1b565b60005b81548110156138cc57600082828154811061312e5761312e615928565b90600052602060002090600c0201604051806101800160405290816000820180546131589061587c565b80601f01602080910402602001604051908101604052809291908181526020018280546131849061587c565b80156131d15780601f106131a6576101008083540402835291602001916131d1565b820191906000526020600020905b8154815290600101906020018083116131b457829003601f168201915b505050505081526020016001820180546131ea9061587c565b80601f01602080910402602001604051908101604052809291908181526020018280546132169061587c565b80156132635780601f1061323857610100808354040283529160200191613263565b820191906000526020600020905b81548152906001019060200180831161324657829003601f168201915b5050505050815260200160028201805461327c9061587c565b80601f01602080910402602001604051908101604052809291908181526020018280546132a89061587c565b80156132f55780601f106132ca576101008083540402835291602001916132f5565b820191906000526020600020905b8154815290600101906020018083116132d857829003601f168201915b5050505050815260200160038201805461330e9061587c565b80601f016020809104026020016040519081016040528092919081815260200182805461333a9061587c565b80156133875780601f1061335c57610100808354040283529160200191613387565b820191906000526020600020905b81548152906001019060200180831161336a57829003601f168201915b505050505081526020016004820180546133a09061587c565b80601f01602080910402602001604051908101604052809291908181526020018280546133cc9061587c565b80156134195780601f106133ee57610100808354040283529160200191613419565b820191906000526020600020905b8154815290600101906020018083116133fc57829003601f168201915b505050505081526020016005820180546134329061587c565b80601f016020809104026020016040519081016040528092919081815260200182805461345e9061587c565b80156134ab5780601f10613480576101008083540402835291602001916134ab565b820191906000526020600020905b81548152906001019060200180831161348e57829003601f168201915b505050505081526020016006820180546134c49061587c565b80601f01602080910402602001604051908101604052809291908181526020018280546134f09061587c565b801561353d5780601f106135125761010080835404028352916020019161353d565b820191906000526020600020905b81548152906001019060200180831161352057829003601f168201915b505050505081526020016007820180546135569061587c565b80601f01602080910402602001604051908101604052809291908181526020018280546135829061587c565b80156135cf5780601f106135a4576101008083540402835291602001916135cf565b820191906000526020600020905b8154815290600101906020018083116135b257829003601f168201915b505050505081526020016008820180546135e89061587c565b80601f01602080910402602001604051908101604052809291908181526020018280546136149061587c565b80156136615780601f1061363657610100808354040283529160200191613661565b820191906000526020600020905b81548152906001019060200180831161364457829003601f168201915b5050505050815260200160098201805461367a9061587c565b80601f01602080910402602001604051908101604052809291908181526020018280546136a69061587c565b80156136f35780601f106136c8576101008083540402835291602001916136f3565b820191906000526020600020905b8154815290600101906020018083116136d657829003601f168201915b50505050508152602001600a8201805461370c9061587c565b80601f01602080910402602001604051908101604052809291908181526020018280546137389061587c565b80156137855780601f1061375a57610100808354040283529160200191613785565b820191906000526020600020905b81548152906001019060200180831161376857829003601f168201915b50505050508152602001600b8201805461379e9061587c565b80601f01602080910402602001604051908101604052809291908181526020018280546137ca9061587c565b80156138175780601f106137ec57610100808354040283529160200191613817565b820191906000526020600020905b8154815290600101906020018083116137fa57829003601f168201915b50505050508152505090508060c001515160001415801561383c575060e08101515115155b8015613849575080515115155b8015613859575060208101515115155b8015613869575060408101515115155b8015613879575060608101515115155b8015613889575060808101515115155b8015613899575060a08101515115155b80156138aa57506101008101515115155b156138b9576001935050505090565b50806138c4816158b7565b915050613111565b50600091505090565b60006138df613dc6565b600654600954600a546040517f5d3b1d30000000000000000000000000000000000000000000000000000000008152600481019290925274010000000000000000000000000000000000000000830467ffffffffffffffff166024830152640100000000810461ffff16604483015263ffffffff808216606484015266010000000000009091041660848201526001600160a01b0390911690635d3b1d309060a401602060405180830381600087803b15801561399b57600080fd5b505af11580156139af573d6000803e3d6000fd5b505050506040513d601f19601f820116820180604052508101906139d39190614dd3565b6040805160608101825260008082526001602080840182815285518481528083018752858701908152878552601583529590932084518154945161ffff1990951690151561ff00191617610100941515949094029390931783559351805195965092949193613a489391850192910190614b50565b505060078054600181019091557fa66cc928b5edb82af9bd49922954155ab7b0942694bea4ce44661d9a8736c688018290555060088190556000818152601460209081526040918290208054336001600160a01b0319909116179055600a548251848152660100000000000090910463ffffffff16918101919091527fcc58b13ad3eab50626c6a6300b1d139cd6ebb1688a7cced9461c2f7e762665ee910160405180910390a190565b600b54604080517f8e15f47300000000000000000000000000000000000000000000000000000000815290516000926001600160a01b031691638e15f473916004808301926020929190829003018186803b15801561091a57600080fd5b6004546001600160a01b03163314613bb95760405162461bcd60e51b815260206004820152602660248201527f43616c6c6572206973206e6f742074686520436865636b5061796f757420636f6044820152651b9d1c9858dd60d21b6064820152608401610a1b565b6000613bc3613af2565b9050600081613bd6846305f5e10061581a565b613be0919061571b565b6040519091506001600160a01b0385169082156108fc029083906000818181858888f19350505050158015613c19573d6000803e3d6000fd5b5050505050565b613c28613dc6565b613c31816144cf565b50565b613c3c613dc6565b600080546001600160a01b0319166001600160a01b03831617905550565b600e8054612d899061587c565b600083815260116020526040812090613c81846020015190565b600283018190558451909150613c9e90600d906020870190614acc565b508251613cb290600e906020860190614acc565b50847f7bab0ec163b5c132c72b8146ac4d6e067e82ed58f8b131150aa71c92589115628585604051613ce5929190615422565b60405180910390a25050505050565b600082815260156020526040902054610100900460ff16613d575760405162461bcd60e51b815260206004820152601160248201527f72657175657374206e6f7420666f756e640000000000000000000000000000006044820152606401610a1b565b6000828152601560209081526040909120805460ff1916600190811782558351613d88939290910191840190614b50565b507ffe2e2d779dba245964d4e3ef9b994be63856fd568bf7d3ca9e224755cb1bd54d8282604051613dba929190615588565b60405180910390a15050565b6002546001600160a01b03163314613e205760405162461bcd60e51b815260206004820152601660248201527f4f6e6c792063616c6c61626c65206279206f776e6572000000000000000000006044820152606401610a1b565b565b60008181526001602052604090205481906001600160a01b031615613e73576040517f8b457ad200000000000000000000000000000000000000000000000000000000815260040160405180910390fd5b50600090815260016020526040902080546001600160a01b0319166001600160a01b0392909216919091179055565b60606000613eaf8361457a565b600101905060008167ffffffffffffffff811115613ecf57613ecf61593e565b6040519080825280601f01601f191660200182016040528015613ef9576020820181803683370190505b5090508181016020015b600019017f3031323334353637383961626364656600000000000000000000000000000000600a86061a8153600a8504945084613f3f57613f44565b613f03565b509392505050565b8051613f84576040517f22ce3edd00000000000000000000000000000000000000000000000000000000815260040160405180910390fd5b83836001811115613f9757613f97615912565b90816001811115613faa57613faa615912565b90525060408401828015613fc057613fc0615912565b90818015613fd057613fd0615912565b9052506060909301929092525050565b8051614018576040517ffe936cb700000000000000000000000000000000000000000000000000000000815260040160405180910390fd5b60a090910152565b6000805481906001600160a01b03166328242b048561403e88614203565b866040518463ffffffff1660e01b815260040161405d939291906155a1565b602060405180830381600087803b15801561407757600080fd5b505af115801561408b573d6000803e3d6000fd5b505050506040513d601f19601f820116820180604052508101906140af9190614dd3565b905060008054906101000a90046001600160a01b03166001600160a01b0316635ab1bd536040518163ffffffff1660e01b815260040160206040518083038186803b1580156140fd57600080fd5b505afa158015614111573d6000803e3d6000fd5b505050506040513d601f19601f820116820180604052508101906141359190614d71565b60008281526001602052604080822080546001600160a01b0319166001600160a01b039490941693909317909255905182917f1131472297a800fee664d1d89cfa8f7676ff07189ecc53f80bbb5f4969099db891a2949350505050565b613c31816040516024016141a6919061540f565b60408051601f198184030181529190526020810180517bffffffffffffffffffffffffffffffffffffffffffffffffffffffff167f41304fac0000000000000000000000000000000000000000000000000000000017905261465c565b606061420d614b8a565b805161421b9061010061467d565b5061425b816040518060400160405280600c81526020017f636f64654c6f636174696f6e00000000000000000000000000000000000000008152506146f4565b61427a818460000151600181111561427557614275615912565b614712565b6142b9816040518060400160405280600881526020017f6c616e67756167650000000000000000000000000000000000000000000000008152506146f4565b6142d3818460400151600081111561427557614275615912565b614312816040518060400160405280600681526020017f736f7572636500000000000000000000000000000000000000000000000000008152506146f4565b6143208184606001516146f4565b60a083015151156143c65761436a816040518060400160405280600481526020017f61726773000000000000000000000000000000000000000000000000000000008152506146f4565b6143738161474b565b60005b8360a00151518110156143bc576143aa828560a00151838151811061439d5761439d615928565b60200260200101516146f4565b806143b4816158b7565b915050614376565b506143c68161476f565b608083015151156144c7576000836020015160018111156143e9576143e9615912565b1415614421576040517fa80d31f700000000000000000000000000000000000000000000000000000000815260040160405180910390fd5b614460816040518060400160405280600f81526020017f736563726574734c6f636174696f6e00000000000000000000000000000000008152506146f4565b61447a818460200151600181111561427557614275615912565b6144b9816040518060400160405280600781526020017f73656372657473000000000000000000000000000000000000000000000000008152506146f4565b6144c781846080015161478d565b515192915050565b6001600160a01b0381163314156145285760405162461bcd60e51b815260206004820152601760248201527f43616e6e6f74207472616e7366657220746f2073656c660000000000000000006044820152606401610a1b565b600380546001600160a01b0319166001600160a01b03838116918217909255600254604051919216907fed8889f560326eb138920d842192f0eb3dd22b4f139c87a2c57538e05bae127890600090a350565b6000807a184f03e93ff9f4daa797ed6e38ed64bf6a1f01000000000000000083106145c3577a184f03e93ff9f4daa797ed6e38ed64bf6a1f010000000000000000830492506040015b6d04ee2d6d415b85acef810000000083106145ef576d04ee2d6d415b85acef8100000000830492506020015b662386f26fc10000831061460d57662386f26fc10000830492506010015b6305f5e1008310614625576305f5e100830492506008015b612710831061463957612710830492506004015b6064831061464b576064830492506002015b600a83106113ab5760010192915050565b80516a636f6e736f6c652e6c6f67602083016000808483855afa5050505050565b60408051808201909152606081526000602082015261469d6020836158d2565b156146c5576146ad6020836158d2565b6146b8906020615839565b6146c29083615703565b91505b6020808401839052604051808552600081529081840101818110156146e957600080fd5b604052509192915050565b6147018260038351614796565b815161470d90826148b7565b505050565b815161471f9060c26148df565b50610c12828260405160200161473791815260200190565b60405160208183030381529060405261478d565b614756816004614948565b6001816020018181516147699190615703565b90525050565b61477a816007614948565b6001816020018181516147699190615839565b61470182600283515b60178167ffffffffffffffff16116147bd578251610b6f9060e0600585901b1683176148df565b60ff8167ffffffffffffffff16116147ff5782516147e6906018611fe0600586901b16176148df565b508251610b6f9067ffffffffffffffff8316600161495f565b61ffff8167ffffffffffffffff1611614842578251614829906019611fe0600586901b16176148df565b508251610b6f9067ffffffffffffffff8316600261495f565b63ffffffff8167ffffffffffffffff161161488757825161486e90601a611fe0600586901b16176148df565b508251610b6f9067ffffffffffffffff8316600461495f565b825161489e90601b611fe0600586901b16176148df565b508251610b6f9067ffffffffffffffff8316600861495f565b6040805180820190915260608152600060208201526148d8838384516149e4565b9392505050565b6040805180820190915260608152600060208201528251516000614904826001615703565b905084602001518210614925576149258561492083600261581a565b614ab5565b845160208382010185815350805182111561493e578181525b5093949350505050565b815161470d90601f611fe0600585901b16176148df565b60408051808201909152606081526000602082015283515160006149838285615703565b905085602001518111156149a0576149a08661492083600261581a565b600060016149b086610100615772565b6149ba9190615839565b905086518281018783198251161781525080518311156149d8578281525b50959695505050505050565b6040805180820190915260608152600060208201528251821115614a0757600080fd5b8351516000614a168483615703565b90508560200151811115614a3357614a338661492083600261581a565b855180518382016020019160009180851115614a4d578482525b505050602086015b60208610614a8d5780518252614a6c602083615703565b9150614a79602082615703565b9050614a86602087615839565b9550614a55565b51815160001960208890036101000a0190811690199190911617905250849150509392505050565b8151614ac1838361467d565b50610b6f83826148b7565b828054614ad89061587c565b90600052602060002090601f016020900481019282614afa5760008555614b40565b82601f10614b1357805160ff1916838001178555614b40565b82800160010185558215614b40579182015b82811115614b40578251825591602001919060010190614b25565b50614b4c929150614bbf565b5090565b828054828255906000526020600020908101928215614b405791602002820182811115614b40578251825591602001919060010190614b25565b6040518060400160405280614bb2604051806040016040528060608152602001600081525090565b8152602001600081525090565b5b80821115614b4c5760008155600101614bc0565b600082601f830112614be557600080fd5b81356020614bfa614bf5836156b7565b615686565b80838252828201915082860187848660051b8901011115614c1a57600080fd5b6000805b86811015614c5d57823567ffffffffffffffff811115614c3c578283fd5b614c4a8b88838d0101614cb4565b8652509385019391850191600101614c1e565b509198975050505050505050565b60008083601f840112614c7d57600080fd5b50813567ffffffffffffffff811115614c9557600080fd5b602083019150836020828501011115614cad57600080fd5b9250929050565b600082601f830112614cc557600080fd5b8135614cd3614bf5826156db565b818152846020838601011115614ce857600080fd5b816020850160208301376000918101602001919091529392505050565b803560018110614d1457600080fd5b919050565b803560028110614d1457600080fd5b803563ffffffff81168114614d1457600080fd5b803567ffffffffffffffff81168114614d1457600080fd5b600060208284031215614d6657600080fd5b81356148d881615954565b600060208284031215614d8357600080fd5b81516148d881615954565b60008060408385031215614da157600080fd5b8235614dac81615954565b946020939093013593505050565b600060208284031215614dcc57600080fd5b5035919050565b600060208284031215614de557600080fd5b5051919050565b600080600060608486031215614e0157600080fd5b83359250602084013567ffffffffffffffff80821115614e2057600080fd5b614e2c87838801614cb4565b93506040860135915080821115614e4257600080fd5b50614e4f86828701614cb4565b9150509250925092565b600060208284031215614e6b57600080fd5b813567ffffffffffffffff811115614e8257600080fd5b614e8e84828501614cb4565b949350505050565b600060208284031215614ea857600080fd5b815167ffffffffffffffff811115614ebf57600080fd5b8201601f81018413614ed057600080fd5b8051614ede614bf5826156db565b818152856020838501011115614ef357600080fd5b612fa8826020830160208601615850565b60008060008060008060008060a0898b031215614f2057600080fd5b883567ffffffffffffffff80821115614f3857600080fd5b614f448c838d01614c6b565b909a50985060208b0135915080821115614f5d57600080fd5b614f698c838d01614c6b565b909850965060408b0135915080821115614f8257600080fd5b818b0191508b601f830112614f9657600080fd5b813581811115614fa557600080fd5b8c60208260051b8501011115614fba57600080fd5b602083019650809550505050614fd260608a01614d3c565b9150614fe060808a01614d28565b90509295985092959890939650565b6000806000806080858703121561500557600080fd5b843567ffffffffffffffff8082111561501d57600080fd5b9086019060c0828903121561503157600080fd5b61503961565d565b61504283614d19565b815261505060208401614d19565b602082015261506160408401614d05565b604082015260608301358281111561507857600080fd5b6150848a828601614cb4565b60608301525060808301358281111561509c57600080fd5b6150a88a828601614cb4565b60808301525060a0830135828111156150c057600080fd5b6150cc8a828601614bd4565b60a08301525095506150e391505060208601614d3c565b92506150f160408601614d28565b9396929550929360600135925050565b6000806040838503121561511457600080fd5b8235915060208084013567ffffffffffffffff81111561513357600080fd5b8401601f8101861361514457600080fd5b8035615152614bf5826156b7565b80828252848201915084840189868560051b870101111561517257600080fd5b600094505b83851015615195578035835260019490940193918501918501615177565b5080955050505050509250929050565b6000602082840312156151b757600080fd5b81516bffffffffffffffffffffffff811681146148d857600080fd5b600081518084526020808501945080840160005b83811015615203578151875295820195908201906001016151e7565b509495945050505050565b60008151808452615226816020860160208601615850565b601f01601f19169290920160200192915050565b600061018082518185526152508286018261520e565b9150506020830151848203602086015261526a828261520e565b91505060408301518482036040860152615284828261520e565b9150506060830151848203606086015261529e828261520e565b915050608083015184820360808601526152b8828261520e565b91505060a083015184820360a08601526152d2828261520e565b91505060c083015184820360c08601526152ec828261520e565b91505060e083015184820360e0860152615306828261520e565b9150506101008084015185830382870152615321838261520e565b92505050610120808401518583038287015261533d838261520e565b925050506101408084015185830382870152615359838261520e565b925050506101608084015185830382870152615375838261520e565b9695505050505050565b6000602080830181845280855180835260408601915060408160051b870101925083870160005b828110156153d457603f198886030184526153c285835161523a565b945092850192908501906001016153a6565b5092979650505050505050565b6020815260006148d860208301846151d3565b8215158152604060208201526000614e8e60408301846151d3565b6020815260006148d8602083018461520e565b604081526000615435604083018561520e565b8281036020840152612fa8818561520e565b602081016003831061546957634e487b7160e01b600052602160045260246000fd5b91905290565b6101808152600061548461018083018f61520e565b8281036020840152615496818f61520e565b905082810360408401526154aa818e61520e565b905082810360608401526154be818d61520e565b905082810360808401526154d2818c61520e565b905082810360a08401526154e6818b61520e565b905082810360c08401526154fa818a61520e565b905082810360e084015261550e818961520e565b9050828103610100840152615523818861520e565b9050828103610120840152615538818761520e565b905082810361014084015261554d818661520e565b9050828103610160840152615562818561520e565b9f9e505050505050505050505050505050565b6020815260006148d8602083018461523a565b828152604060208201526000614e8e60408301846151d3565b67ffffffffffffffff841681526060602082015260006155c4606083018561520e565b905063ffffffff83166040830152949350505050565b67ffffffffffffffff851681526080602082015260006155fd608083018661520e565b63ffffffff949094166040830152506060015292915050565b6000808335601e1984360301811261562d57600080fd5b83018035915067ffffffffffffffff82111561564857600080fd5b602001915036819003821315614cad57600080fd5b60405160c0810167ffffffffffffffff811182821017156156805761568061593e565b60405290565b604051601f8201601f1916810167ffffffffffffffff811182821017156156af576156af61593e565b604052919050565b600067ffffffffffffffff8211156156d1576156d161593e565b5060051b60200190565b600067ffffffffffffffff8211156156f5576156f561593e565b50601f01601f191660200190565b60008219821115615716576157166158e6565b500190565b60008261572a5761572a6158fc565b500490565b600181815b8085111561576a578160001904821115615750576157506158e6565b8085161561575d57918102915b93841c9390800290615734565b509250929050565b60006148d88383600082615788575060016113ab565b81615795575060006113ab565b81600181146157ab57600281146157b5576157d1565b60019150506113ab565b60ff8411156157c6576157c66158e6565b50506001821b6113ab565b5060208310610133831016604e8410600b84101617156157f4575081810a6113ab565b6157fe838361572f565b8060001904821115615812576158126158e6565b029392505050565b6000816000190483118215151615615834576158346158e6565b500290565b60008282101561584b5761584b6158e6565b500390565b60005b8381101561586b578181015183820152602001615853565b83811115610b6f5750506000910152565b600181811c9082168061589057607f821691505b602082108114156158b157634e487b7160e01b600052602260045260246000fd5b50919050565b60006000198214156158cb576158cb6158e6565b5060010190565b6000826158e1576158e16158fc565b500690565b634e487b7160e01b600052601160045260246000fd5b634e487b7160e01b600052601260045260246000fd5b634e487b7160e01b600052602160045260246000fd5b634e487b7160e01b600052603260045260246000fd5b634e487b7160e01b600052604160045260246000fd5b6001600160a01b0381168114613c3157600080fdfea26469706673582212201e4b2f5413bcbd8de5e955079cba73c518bde139dbda358a96dc85415db617c364736f6c63430008070033",
  "linkReferences": {},
  "deployedLinkReferences": {}
}