{
  "_format": "hh-sol-artifact-1",
  "contractName": "Earthquake",
  "sourceName": "contracts/insurances/Earthquake.sol",
  "abi": [
    {
      "inputs": [],
      "name": "getType",
      "outputs": [
        {
          "internalType": "string",
          "name": "",
          "type": "string"
        }
      ],
      "stateMutability": "pure",
      "type": "function"
    }
  ],
  "bytecode": "0x608060405234801561001057600080fd5b5060fb8061001f6000396000f3fe6080604052348015600f57600080fd5b506004361060285760003560e01c806315dae03e14602d575b600080fd5b604080518082018252600a81527f65617274687175616b650000000000000000000000000000000000000000000060208201529051606a91906073565b60405180910390f35b600060208083528351808285015260005b81811015609e578581018301518582016040015282016084565b8181111560af576000604083870101525b50601f01601f191692909201604001939250505056fea2646970667358221220b48f844c565d10bae1cd82a1b7925d79ec2205a2db14e95f3f102af84ec7877864736f6c63430008070033",
  "linkReferences": {},
  "deployedLinkReferences": {}
}