{
  "_format": "hh-sol-artifact-1",
  "contractName": "VRFv2Consumer",
  "sourceName": "contracts/VRFv2Consumer.sol",
  "abi": [
    {
      "inputs": [
        {
          "internalType": "uint64",
          "name": "subscriptionId",
          "type": "uint64"
        }
      ],
      "stateMutability": "nonpayable",
      "type": "constructor"
    },
    {
      "inputs": [
        {
          "internalType": "address",
          "name": "have",
          "type": "address"
        },
        {
          "internalType": "address",
          "name": "want",
          "type": "address"
        }
      ],
      "name": "OnlyCoordinatorCanFulfill",
      "type": "error"
    },
    {
      "anonymous": false,
      "inputs": [
        {
          "indexed": true,
          "internalType": "address",
          "name": "from",
          "type": "address"
        },
        {
          "indexed": true,
          "internalType": "address",
          "name": "to",
          "type": "address"
        }
      ],
      "name": "OwnershipTransferRequested",
      "type": "event"
    },
    {
      "anonymous": false,
      "inputs": [
        {
          "indexed": true,
          "internalType": "address",
          "name": "from",
          "type": "address"
        },
        {
          "indexed": true,
          "internalType": "address",
          "name": "to",
          "type": "address"
        }
      ],
      "name": "OwnershipTransferred",
      "type": "event"
    },
    {
      "anonymous": false,
      "inputs": [
        {
          "indexed": false,
          "internalType": "uint256",
          "name": "requestId",
          "type": "uint256"
        },
        {
          "indexed": false,
          "internalType": "uint256[]",
          "name": "randomWords",
          "type": "uint256[]"
        }
      ],
      "name": "RequestFulfilled",
      "type": "event"
    },
    {
      "anonymous": false,
      "inputs": [
        {
          "indexed": false,
          "internalType": "uint256",
          "name": "requestId",
          "type": "uint256"
        },
        {
          "indexed": false,
          "internalType": "uint32",
          "name": "numWords",
          "type": "uint32"
        }
      ],
      "name": "RequestSent",
      "type": "event"
    },
    {
      "inputs": [],
      "name": "acceptOwnership",
      "outputs": [],
      "stateMutability": "nonpayable",
      "type": "function"
    },
    {
      "inputs": [],
      "name": "allowedContract",
      "outputs": [
        {
          "internalType": "address",
          "name": "",
          "type": "address"
        }
      ],
      "stateMutability": "view",
      "type": "function"
    },
    {
      "inputs": [
        {
          "internalType": "uint256",
          "name": "_requestId",
          "type": "uint256"
        }
      ],
      "name": "getRequestStatus",
      "outputs": [
        {
          "internalType": "bool",
          "name": "fulfilled",
          "type": "bool"
        },
        {
          "internalType": "uint256[]",
          "name": "randomWords",
          "type": "uint256[]"
        }
      ],
      "stateMutability": "view",
      "type": "function"
    },
    {
      "inputs": [],
      "name": "isAllowedContractSet",
      "outputs": [
        {
          "internalType": "bool",
          "name": "",
          "type": "bool"
        }
      ],
      "stateMutability": "view",
      "type": "function"
    },
    {
      "inputs": [],
      "name": "lastRequestId",
      "outputs": [
        {
          "internalType": "uint256",
          "name": "",
          "type": "uint256"
        }
      ],
      "stateMutability": "view",
      "type": "function"
    },
    {
      "inputs": [],
      "name": "owner",
      "outputs": [
        {
          "internalType": "address",
          "name": "",
          "type": "address"
        }
      ],
      "stateMutability": "view",
      "type": "function"
    },
    {
      "inputs": [
        {
          "internalType": "uint256",
          "name": "requestId",
          "type": "uint256"
        },
        {
          "internalType": "uint256[]",
          "name": "randomWords",
          "type": "uint256[]"
        }
      ],
      "name": "rawFulfillRandomWords",
      "outputs": [],
      "stateMutability": "nonpayable",
      "type": "function"
    },
    {
      "inputs": [
        {
          "internalType": "uint256",
          "name": "",
          "type": "uint256"
        }
      ],
      "name": "requestIds",
      "outputs": [
        {
          "internalType": "uint256",
          "name": "",
          "type": "uint256"
        }
      ],
      "stateMutability": "view",
      "type": "function"
    },
    {
      "inputs": [],
      "name": "requestRandomWords",
      "outputs": [
        {
          "internalType": "uint256",
          "name": "requestId",
          "type": "uint256"
        }
      ],
      "stateMutability": "nonpayable",
      "type": "function"
    },
    {
      "inputs": [
        {
          "internalType": "uint256",
          "name": "",
          "type": "uint256"
        }
      ],
      "name": "s_requests",
      "outputs": [
        {
          "internalType": "bool",
          "name": "fulfilled",
          "type": "bool"
        },
        {
          "internalType": "bool",
          "name": "exists",
          "type": "bool"
        }
      ],
      "stateMutability": "view",
      "type": "function"
    },
    {
      "inputs": [
        {
          "internalType": "address",
          "name": "_allowedContract",
          "type": "address"
        }
      ],
      "name": "setAllowedContract",
      "outputs": [],
      "stateMutability": "nonpayable",
      "type": "function"
    },
    {
      "inputs": [
        {
          "internalType": "address",
          "name": "to",
          "type": "address"
        }
      ],
      "name": "transferOwnership",
      "outputs": [],
      "stateMutability": "nonpayable",
      "type": "function"
    }
  ],
  "bytecode": "0x60a06040526006805460ff60a01b191690557f6e75b569a01ef56d18cab6a8e71e6600d6ce853834d4a5748b720d06f878b3a4600755600880546001600160501b03191666030003000186a017905534801561005a57600080fd5b50604051610ecd380380610ecd83398101604081905261007991610213565b7f8c7382f9d8f56b33781fe506e897a4f1e2d1725500000000000000000000000060805233806000816100f35760405162461bcd60e51b815260206004820152601860248201527f43616e6e6f7420736574206f776e657220746f207a65726f000000000000000060448201526064015b60405180910390fd5b600080546001600160a01b0319166001600160a01b03848116919091179091558116156101235761012381610169565b5050600380546001600160401b03909316600160a01b026001600160e01b031990931692909217738c7382f9d8f56b33781fe506e897a4f1e2d172551790915550610243565b6001600160a01b0381163314156101c25760405162461bcd60e51b815260206004820152601760248201527f43616e6e6f74207472616e7366657220746f2073656c6600000000000000000060448201526064016100ea565b600180546001600160a01b0319166001600160a01b0383811691821790925560008054604051929316917fed8889f560326eb138920d842192f0eb3dd22b4f139c87a2c57538e05bae12789190a350565b60006020828403121561022557600080fd5b81516001600160401b038116811461023c57600080fd5b9392505050565b60805160601c610c656102686000396000818161021e01526102790152610c656000f3fe608060405234801561001057600080fd5b50600436106100d45760003560e01c8063cb2db3f611610081578063e89d5a891161005b578063e89d5a89146101e4578063f2fde38b146101f7578063fc2a88c31461020a57600080fd5b8063cb2db3f614610197578063d8a4676f146101bb578063e0c86289146101dc57600080fd5b80638796ba8c116100b25780638796ba8c146101095780638da5cb5b1461012f578063a168fa891461015457600080fd5b80631fe543e3146100d957806379ba5097146100ee57806386e32ed0146100f6575b600080fd5b6100ec6100e7366004610ab8565b610213565b005b6100ec6102b9565b6100ec610104366004610a56565b610377565b61011c610117366004610a86565b610418565b6040519081526020015b60405180910390f35b6000546001600160a01b03165b6040516001600160a01b039091168152602001610126565b610180610162366004610a86565b60026020526000908152604090205460ff8082169161010090041682565b604080519215158352901515602083015201610126565b6006546101ab90600160a01b900460ff1681565b6040519015158152602001610126565b6101ce6101c9366004610a86565b610439565b604051610126929190610bc4565b61011c610539565b60065461013c906001600160a01b031681565b6100ec610205366004610a56565b610780565b61011c60055481565b336001600160a01b037f000000000000000000000000000000000000000000000000000000000000000016146102ab576040517f1cf993f40000000000000000000000000000000000000000000000000000000081523360048201526001600160a01b037f00000000000000000000000000000000000000000000000000000000000000001660248201526044015b60405180910390fd5b6102b58282610794565b5050565b6001546001600160a01b031633146103135760405162461bcd60e51b815260206004820152601660248201527f4d7573742062652070726f706f736564206f776e65720000000000000000000060448201526064016102a2565b600080543373ffffffffffffffffffffffffffffffffffffffff19808316821784556001805490911690556040516001600160a01b0390921692909183917f8be0079c531659141344cd1fd0a4f28419497f9722a3daafe3b4186f6b6457e091a350565b61037f6108e3565b600654600160a01b900460ff16156103d95760405162461bcd60e51b815260206004820152601f60248201527f416c6c6f77656420636f6e747261637420697320616c7265616479207365740060448201526064016102a2565b600680547fffffffffffffffffffffff000000000000000000000000000000000000000000166001600160a01b0390921691909117600160a01b179055565b6004818154811061042857600080fd5b600091825260209091200154905081565b600081815260026020526040812054606090610100900460ff1661049f5760405162461bcd60e51b815260206004820152601160248201527f72657175657374206e6f7420666f756e6400000000000000000000000000000060448201526064016102a2565b60008381526002602090815260408083208151606081018352815460ff808216151583526101009091041615158185015260018201805484518187028101870186528181529295939486019383018282801561051a57602002820191906000526020600020905b815481526020019060010190808311610506575b5050505050815250509050806000015181604001519250925050915091565b60006105436108e3565b6006546001600160a01b0316331461059d5760405162461bcd60e51b815260206004820152601860248201527f4e6f742074686520616c6c6f77656420636f6e7472616374000000000000000060448201526064016102a2565b6003546007546008546040517f5d3b1d300000000000000000000000000000000000000000000000000000000081526004810192909252600160a01b830467ffffffffffffffff166024830152640100000000810461ffff16604483015263ffffffff808216606484015266010000000000009091041660848201526001600160a01b0390911690635d3b1d309060a401602060405180830381600087803b15801561064857600080fd5b505af115801561065c573d6000803e3d6000fd5b505050506040513d601f19601f820116820180604052508101906106809190610a9f565b6040805160608101825260008082526001602080840182815285518481528083018752858701908152878552600283529590932084518154945161ffff1990951690151561ff001916176101009415159490940293909317835593518051959650929491936106f593918501929101906109f6565b5050600480546001810182556000919091527f8a35acfbc15ff81a39ae7d344fd709f28e8600b4aa8c65c6b64bfe7fe36bd19b0182905550600581905560085460408051838152660100000000000090920463ffffffff1660208301527fcc58b13ad3eab50626c6a6300b1d139cd6ebb1688a7cced9461c2f7e762665ee910160405180910390a190565b6107886108e3565b6107918161093f565b50565b600082815260026020526040902054610100900460ff166107f75760405162461bcd60e51b815260206004820152601160248201527f72657175657374206e6f7420666f756e6400000000000000000000000000000060448201526064016102a2565b6000828152600260209081526040909120805460ff19166001908117825583516108289392909101918401906109f6565b507ffe2e2d779dba245964d4e3ef9b994be63856fd568bf7d3ca9e224755cb1bd54d828260405161085a929190610be7565b60405180910390a16006546040517f37f9c70d0000000000000000000000000000000000000000000000000000000081526001600160a01b03909116906337f9c70d906108ad9085908590600401610be7565b600060405180830381600087803b1580156108c757600080fd5b505af11580156108db573d6000803e3d6000fd5b505050505050565b6000546001600160a01b0316331461093d5760405162461bcd60e51b815260206004820152601660248201527f4f6e6c792063616c6c61626c65206279206f776e65720000000000000000000060448201526064016102a2565b565b6001600160a01b0381163314156109985760405162461bcd60e51b815260206004820152601760248201527f43616e6e6f74207472616e7366657220746f2073656c6600000000000000000060448201526064016102a2565b6001805473ffffffffffffffffffffffffffffffffffffffff19166001600160a01b0383811691821790925560008054604051929316917fed8889f560326eb138920d842192f0eb3dd22b4f139c87a2c57538e05bae12789190a350565b828054828255906000526020600020908101928215610a31579160200282015b82811115610a31578251825591602001919060010190610a16565b50610a3d929150610a41565b5090565b5b80821115610a3d5760008155600101610a42565b600060208284031215610a6857600080fd5b81356001600160a01b0381168114610a7f57600080fd5b9392505050565b600060208284031215610a9857600080fd5b5035919050565b600060208284031215610ab157600080fd5b5051919050565b60008060408385031215610acb57600080fd5b8235915060208084013567ffffffffffffffff80821115610aeb57600080fd5b818601915086601f830112610aff57600080fd5b813581811115610b1157610b11610c00565b8060051b604051601f19603f83011681018181108582111715610b3657610b36610c00565b604052828152858101935084860182860187018b1015610b5557600080fd5b600095505b83861015610b78578035855260019590950194938601938601610b5a565b508096505050505050509250929050565b600081518084526020808501945080840160005b83811015610bb957815187529582019590820190600101610b9d565b509495945050505050565b8215158152604060208201526000610bdf6040830184610b89565b949350505050565b828152604060208201526000610bdf6040830184610b89565b7f4e487b7100000000000000000000000000000000000000000000000000000000600052604160045260246000fdfea26469706673582212200ced140fac342b00ccb72d3047fc685672fc52830c99aacc3e4484d4b6e2cd6e64736f6c63430008070033",
  "linkReferences": {},
  "deployedLinkReferences": {}
}