{
  "_format": "hh-sol-artifact-1",
  "contractName": "VRFv2Consumer",
  "sourceName": "contracts/VRFv2Consumer.sol",
  "abi": [
    {
      "inputs": [
        {
          "internalType": "uint64",
          "name": "subscriptionId",
          "type": "uint64"
        }
      ],
      "stateMutability": "nonpayable",
      "type": "constructor"
    },
    {
      "inputs": [
        {
          "internalType": "address",
          "name": "have",
          "type": "address"
        },
        {
          "internalType": "address",
          "name": "want",
          "type": "address"
        }
      ],
      "name": "OnlyCoordinatorCanFulfill",
      "type": "error"
    },
    {
      "anonymous": false,
      "inputs": [
        {
          "indexed": true,
          "internalType": "address",
          "name": "from",
          "type": "address"
        },
        {
          "indexed": true,
          "internalType": "address",
          "name": "to",
          "type": "address"
        }
      ],
      "name": "OwnershipTransferRequested",
      "type": "event"
    },
    {
      "anonymous": false,
      "inputs": [
        {
          "indexed": true,
          "internalType": "address",
          "name": "from",
          "type": "address"
        },
        {
          "indexed": true,
          "internalType": "address",
          "name": "to",
          "type": "address"
        }
      ],
      "name": "OwnershipTransferred",
      "type": "event"
    },
    {
      "anonymous": false,
      "inputs": [
        {
          "indexed": false,
          "internalType": "uint256",
          "name": "requestId",
          "type": "uint256"
        },
        {
          "indexed": false,
          "internalType": "uint256[]",
          "name": "randomWords",
          "type": "uint256[]"
        }
      ],
      "name": "RequestFulfilled",
      "type": "event"
    },
    {
      "anonymous": false,
      "inputs": [
        {
          "indexed": false,
          "internalType": "uint256",
          "name": "requestId",
          "type": "uint256"
        },
        {
          "indexed": false,
          "internalType": "uint32",
          "name": "numWords",
          "type": "uint32"
        }
      ],
      "name": "RequestSent",
      "type": "event"
    },
    {
      "inputs": [],
      "name": "acceptOwnership",
      "outputs": [],
      "stateMutability": "nonpayable",
      "type": "function"
    },
    {
      "inputs": [
        {
          "internalType": "uint256",
          "name": "_requestId",
          "type": "uint256"
        }
      ],
      "name": "getRequestStatus",
      "outputs": [
        {
          "internalType": "bool",
          "name": "fulfilled",
          "type": "bool"
        },
        {
          "internalType": "uint256[]",
          "name": "randomWords",
          "type": "uint256[]"
        }
      ],
      "stateMutability": "view",
      "type": "function"
    },
    {
      "inputs": [],
      "name": "lastRequestId",
      "outputs": [
        {
          "internalType": "uint256",
          "name": "",
          "type": "uint256"
        }
      ],
      "stateMutability": "view",
      "type": "function"
    },
    {
      "inputs": [],
      "name": "owner",
      "outputs": [
        {
          "internalType": "address",
          "name": "",
          "type": "address"
        }
      ],
      "stateMutability": "view",
      "type": "function"
    },
    {
      "inputs": [
        {
          "internalType": "uint256",
          "name": "requestId",
          "type": "uint256"
        },
        {
          "internalType": "uint256[]",
          "name": "randomWords",
          "type": "uint256[]"
        }
      ],
      "name": "rawFulfillRandomWords",
      "outputs": [],
      "stateMutability": "nonpayable",
      "type": "function"
    },
    {
      "inputs": [
        {
          "internalType": "uint256",
          "name": "",
          "type": "uint256"
        }
      ],
      "name": "requestIds",
      "outputs": [
        {
          "internalType": "uint256",
          "name": "",
          "type": "uint256"
        }
      ],
      "stateMutability": "view",
      "type": "function"
    },
    {
      "inputs": [],
      "name": "requestRandomWords",
      "outputs": [
        {
          "internalType": "uint256",
          "name": "requestId",
          "type": "uint256"
        }
      ],
      "stateMutability": "nonpayable",
      "type": "function"
    },
    {
      "inputs": [
        {
          "internalType": "uint256",
          "name": "",
          "type": "uint256"
        }
      ],
      "name": "s_requests",
      "outputs": [
        {
          "internalType": "bool",
          "name": "fulfilled",
          "type": "bool"
        },
        {
          "internalType": "bool",
          "name": "exists",
          "type": "bool"
        }
      ],
      "stateMutability": "view",
      "type": "function"
    },
    {
      "inputs": [
        {
          "internalType": "address",
          "name": "to",
          "type": "address"
        }
      ],
      "name": "transferOwnership",
      "outputs": [],
      "stateMutability": "nonpayable",
      "type": "function"
    }
  ],
  "bytecode": "0x60a06040527f4b09e658ed251bcafeebbc69400383d49f344ace09b9576fe248bb02c003fe9f600655600780546001600160501b03191666030003000186a017905534801561004d57600080fd5b50604051610cd4380380610cd483398101604081905261006c91610206565b7f7a1bac17ccc5b313516c5e16fb24f7659aa5ebed00000000000000000000000060805233806000816100e65760405162461bcd60e51b815260206004820152601860248201527f43616e6e6f7420736574206f776e657220746f207a65726f000000000000000060448201526064015b60405180910390fd5b600080546001600160a01b0319166001600160a01b0384811691909117909155811615610116576101168161015c565b5050600380546001600160401b03909316600160a01b026001600160e01b031990931692909217737a1bac17ccc5b313516c5e16fb24f7659aa5ebed1790915550610236565b6001600160a01b0381163314156101b55760405162461bcd60e51b815260206004820152601760248201527f43616e6e6f74207472616e7366657220746f2073656c6600000000000000000060448201526064016100dd565b600180546001600160a01b0319166001600160a01b0383811691821790925560008054604051929316917fed8889f560326eb138920d842192f0eb3dd22b4f139c87a2c57538e05bae12789190a350565b60006020828403121561021857600080fd5b81516001600160401b038116811461022f57600080fd5b9392505050565b60805160601c610a7961025b6000396000818161019901526101f40152610a796000f3fe608060405234801561001057600080fd5b50600436106100a35760003560e01c8063a168fa8911610076578063e0c862891161005b578063e0c862891461016a578063f2fde38b14610172578063fc2a88c31461018557600080fd5b8063a168fa8914610106578063d8a4676f1461014957600080fd5b80631fe543e3146100a857806379ba5097146100bd5780638796ba8c146100c55780638da5cb5b146100eb575b600080fd5b6100bb6100b63660046108cc565b61018e565b005b6100bb610234565b6100d86100d336600461089a565b6102f2565b6040519081526020015b60405180910390f35b6000546040516001600160a01b0390911681526020016100e2565b61013261011436600461089a565b60026020526000908152604090205460ff8082169161010090041682565b6040805192151583529015156020830152016100e2565b61015c61015736600461089a565b610313565b6040516100e29291906109d8565b6100d8610413565b6100bb61018036600461086a565b610611565b6100d860055481565b336001600160a01b037f00000000000000000000000000000000000000000000000000000000000000001614610226576040517f1cf993f40000000000000000000000000000000000000000000000000000000081523360048201526001600160a01b037f00000000000000000000000000000000000000000000000000000000000000001660248201526044015b60405180910390fd5b6102308282610625565b5050565b6001546001600160a01b0316331461028e5760405162461bcd60e51b815260206004820152601660248201527f4d7573742062652070726f706f736564206f776e657200000000000000000000604482015260640161021d565b600080543373ffffffffffffffffffffffffffffffffffffffff19808316821784556001805490911690556040516001600160a01b0390921692909183917f8be0079c531659141344cd1fd0a4f28419497f9722a3daafe3b4186f6b6457e091a350565b6004818154811061030257600080fd5b600091825260209091200154905081565b600081815260026020526040812054606090610100900460ff166103795760405162461bcd60e51b815260206004820152601160248201527f72657175657374206e6f7420666f756e64000000000000000000000000000000604482015260640161021d565b60008381526002602090815260408083208151606081018352815460ff80821615158352610100909104161515818501526001820180548451818702810187018652818152929593948601938301828280156103f457602002820191906000526020600020905b8154815260200190600101908083116103e0575b5050505050815250509050806000015181604001519250925050915091565b600061041d6106f7565b6003546006546007546040517f5d3b1d30000000000000000000000000000000000000000000000000000000008152600481019290925274010000000000000000000000000000000000000000830467ffffffffffffffff166024830152640100000000810461ffff16604483015263ffffffff808216606484015266010000000000009091041660848201526001600160a01b0390911690635d3b1d309060a401602060405180830381600087803b1580156104d957600080fd5b505af11580156104ed573d6000803e3d6000fd5b505050506040513d601f19601f8201168201806040525081019061051191906108b3565b6040805160608101825260008082526001602080840182815285518481528083018752858701908152878552600283529590932084518154945161ffff1990951690151561ff00191617610100941515949094029390931783559351805195965092949193610586939185019291019061080a565b5050600480546001810182556000919091527f8a35acfbc15ff81a39ae7d344fd709f28e8600b4aa8c65c6b64bfe7fe36bd19b0182905550600581905560075460408051838152660100000000000090920463ffffffff1660208301527fcc58b13ad3eab50626c6a6300b1d139cd6ebb1688a7cced9461c2f7e762665ee910160405180910390a190565b6106196106f7565b61062281610753565b50565b600082815260026020526040902054610100900460ff166106885760405162461bcd60e51b815260206004820152601160248201527f72657175657374206e6f7420666f756e64000000000000000000000000000000604482015260640161021d565b6000828152600260209081526040909120805460ff19166001908117825583516106b993929091019184019061080a565b507ffe2e2d779dba245964d4e3ef9b994be63856fd568bf7d3ca9e224755cb1bd54d82826040516106eb9291906109fb565b60405180910390a15050565b6000546001600160a01b031633146107515760405162461bcd60e51b815260206004820152601660248201527f4f6e6c792063616c6c61626c65206279206f776e657200000000000000000000604482015260640161021d565b565b6001600160a01b0381163314156107ac5760405162461bcd60e51b815260206004820152601760248201527f43616e6e6f74207472616e7366657220746f2073656c66000000000000000000604482015260640161021d565b6001805473ffffffffffffffffffffffffffffffffffffffff19166001600160a01b0383811691821790925560008054604051929316917fed8889f560326eb138920d842192f0eb3dd22b4f139c87a2c57538e05bae12789190a350565b828054828255906000526020600020908101928215610845579160200282015b8281111561084557825182559160200191906001019061082a565b50610851929150610855565b5090565b5b808211156108515760008155600101610856565b60006020828403121561087c57600080fd5b81356001600160a01b038116811461089357600080fd5b9392505050565b6000602082840312156108ac57600080fd5b5035919050565b6000602082840312156108c557600080fd5b5051919050565b600080604083850312156108df57600080fd5b8235915060208084013567ffffffffffffffff808211156108ff57600080fd5b818601915086601f83011261091357600080fd5b81358181111561092557610925610a14565b8060051b604051601f19603f8301168101818110858211171561094a5761094a610a14565b604052828152858101935084860182860187018b101561096957600080fd5b600095505b8386101561098c57803585526001959095019493860193860161096e565b508096505050505050509250929050565b600081518084526020808501945080840160005b838110156109cd578151875295820195908201906001016109b1565b509495945050505050565b82151581526040602082015260006109f3604083018461099d565b949350505050565b8281526040602082015260006109f3604083018461099d565b7f4e487b7100000000000000000000000000000000000000000000000000000000600052604160045260246000fdfea2646970667358221220d69d8bf028a03693256901bc49d1169a43939b3353a85244c2ff6af5a254efb864736f6c63430008070033",
  "linkReferences": {},
  "deployedLinkReferences": {}
}