{
  "_format": "hh-sol-artifact-1",
  "contractName": "VRFv2Consumer",
  "sourceName": "contracts/VRFv2Consumer.sol",
  "abi": [
    {
      "inputs": [
        {
          "internalType": "uint64",
          "name": "subscriptionId",
          "type": "uint64"
        }
      ],
      "stateMutability": "nonpayable",
      "type": "constructor"
    },
    {
      "inputs": [
        {
          "internalType": "address",
          "name": "have",
          "type": "address"
        },
        {
          "internalType": "address",
          "name": "want",
          "type": "address"
        }
      ],
      "name": "OnlyCoordinatorCanFulfill",
      "type": "error"
    },
    {
      "anonymous": false,
      "inputs": [
        {
          "indexed": false,
          "internalType": "uint256",
          "name": "requestId",
          "type": "uint256"
        },
        {
          "indexed": false,
          "internalType": "uint256[]",
          "name": "randomWords",
          "type": "uint256[]"
        }
      ],
      "name": "RequestFulfilled",
      "type": "event"
    },
    {
      "anonymous": false,
      "inputs": [
        {
          "indexed": false,
          "internalType": "uint256",
          "name": "requestId",
          "type": "uint256"
        },
        {
          "indexed": false,
          "internalType": "uint32",
          "name": "numWords",
          "type": "uint32"
        }
      ],
      "name": "RequestSent",
      "type": "event"
    },
    {
      "inputs": [],
      "name": "allowedContract",
      "outputs": [
        {
          "internalType": "address",
          "name": "",
          "type": "address"
        }
      ],
      "stateMutability": "view",
      "type": "function"
    },
    {
      "inputs": [
        {
          "internalType": "uint256",
          "name": "_requestId",
          "type": "uint256"
        }
      ],
      "name": "getRequestStatus",
      "outputs": [
        {
          "internalType": "bool",
          "name": "fulfilled",
          "type": "bool"
        },
        {
          "internalType": "uint256[]",
          "name": "randomWords",
          "type": "uint256[]"
        }
      ],
      "stateMutability": "view",
      "type": "function"
    },
    {
      "inputs": [],
      "name": "isAllowedContractSet",
      "outputs": [
        {
          "internalType": "bool",
          "name": "",
          "type": "bool"
        }
      ],
      "stateMutability": "view",
      "type": "function"
    },
    {
      "inputs": [],
      "name": "lastRequestId",
      "outputs": [
        {
          "internalType": "uint256",
          "name": "",
          "type": "uint256"
        }
      ],
      "stateMutability": "view",
      "type": "function"
    },
    {
      "inputs": [
        {
          "internalType": "uint256",
          "name": "requestId",
          "type": "uint256"
        },
        {
          "internalType": "uint256[]",
          "name": "randomWords",
          "type": "uint256[]"
        }
      ],
      "name": "rawFulfillRandomWords",
      "outputs": [],
      "stateMutability": "nonpayable",
      "type": "function"
    },
    {
      "inputs": [
        {
          "internalType": "uint256",
          "name": "",
          "type": "uint256"
        }
      ],
      "name": "requestIds",
      "outputs": [
        {
          "internalType": "uint256",
          "name": "",
          "type": "uint256"
        }
      ],
      "stateMutability": "view",
      "type": "function"
    },
    {
      "inputs": [],
      "name": "requestRandomWords",
      "outputs": [
        {
          "internalType": "uint256",
          "name": "requestId",
          "type": "uint256"
        }
      ],
      "stateMutability": "nonpayable",
      "type": "function"
    },
    {
      "inputs": [
        {
          "internalType": "uint256",
          "name": "",
          "type": "uint256"
        }
      ],
      "name": "s_requests",
      "outputs": [
        {
          "internalType": "bool",
          "name": "fulfilled",
          "type": "bool"
        },
        {
          "internalType": "bool",
          "name": "exists",
          "type": "bool"
        }
      ],
      "stateMutability": "view",
      "type": "function"
    },
    {
      "inputs": [
        {
          "internalType": "address",
          "name": "_allowedContract",
          "type": "address"
        }
      ],
      "name": "setAllowedContract",
      "outputs": [],
      "stateMutability": "nonpayable",
      "type": "function"
    }
  ],
  "bytecode": "0x60a06040526004805460ff60a01b191690557f6e75b569a01ef56d18cab6a8e71e6600d6ce853834d4a5748b720d06f878b3a4600555600680546001600160501b03191666030003000493e017905534801561005a57600080fd5b50604051610b46380380610b46833981016040819052610079916100df565b7f8c7382f9d8f56b33781fe506e897a4f1e2d17255000000000000000000000000608052600180546001600160401b03909216600160a01b026001600160e01b031990921691909117738c7382f9d8f56b33781fe506e897a4f1e2d1725517905561010f565b6000602082840312156100f157600080fd5b81516001600160401b038116811461010857600080fd5b9392505050565b60805160601c610a12610134600039600081816101c501526102200152610a126000f3fe608060405234801561001057600080fd5b50600436106100a35760003560e01c8063cb2db3f611610076578063e0c862891161005b578063e0c862891461017e578063e89d5a8914610186578063fc2a88c3146101b157600080fd5b8063cb2db3f614610139578063d8a4676f1461015d57600080fd5b80631fe543e3146100a857806386e32ed0146100bd5780638796ba8c146100d0578063a168fa89146100f6575b600080fd5b6100bb6100b6366004610865565b6101ba565b005b6100bb6100cb366004610803565b610260565b6100e36100de366004610833565b6102f9565b6040519081526020015b60405180910390f35b610122610104366004610833565b60006020819052908152604090205460ff8082169161010090041682565b6040805192151583529015156020830152016100ed565b60045461014d90600160a01b900460ff1681565b60405190151581526020016100ed565b61017061016b366004610833565b61031a565b6040516100ed929190610971565b6100e3610418565b600454610199906001600160a01b031681565b6040516001600160a01b0390911681526020016100ed565b6100e360035481565b336001600160a01b037f00000000000000000000000000000000000000000000000000000000000000001614610252576040517f1cf993f40000000000000000000000000000000000000000000000000000000081523360048201526001600160a01b037f00000000000000000000000000000000000000000000000000000000000000001660248201526044015b60405180910390fd5b61025c8282610657565b5050565b600454600160a01b900460ff16156102ba5760405162461bcd60e51b815260206004820152601f60248201527f416c6c6f77656420636f6e747261637420697320616c726561647920736574006044820152606401610249565b600480547fffffffffffffffffffffff000000000000000000000000000000000000000000166001600160a01b0390921691909117600160a01b179055565b6002818154811061030957600080fd5b600091825260209091200154905081565b600081815260208190526040812054606090610100900460ff166103805760405162461bcd60e51b815260206004820152601160248201527f72657175657374206e6f7420666f756e640000000000000000000000000000006044820152606401610249565b6000838152602081815260408083208151606081018352815460ff80821615158352610100909104161515818501526001820180548451818702810187018652818152929593948601938301828280156103f957602002820191906000526020600020905b8154815260200190600101908083116103e5575b5050505050815250509050806000015181604001519250925050915091565b6004546000906001600160a01b031633146104755760405162461bcd60e51b815260206004820152601860248201527f4e6f742074686520616c6c6f77656420636f6e747261637400000000000000006044820152606401610249565b6001546005546006546040517f5d3b1d300000000000000000000000000000000000000000000000000000000081526004810192909252600160a01b830467ffffffffffffffff166024830152640100000000810461ffff16604483015263ffffffff808216606484015266010000000000009091041660848201526001600160a01b0390911690635d3b1d309060a401602060405180830381600087803b15801561052057600080fd5b505af1158015610534573d6000803e3d6000fd5b505050506040513d601f19601f82011682018060405250810190610558919061084c565b60408051606081018252600080825260016020808401828152855184815280830187528587019081528785528483529590932084518154945161ffff1990951690151561ff001916176101009415159490940293909317835593518051959650929491936105cc93918501929101906107a3565b5050600280546001810182556000919091527f405787fa12a823e0f2b7631cc41b3ba8828b3321ca811111fa75cd3aa3bb5ace0182905550600381905560065460408051838152660100000000000090920463ffffffff1660208301527fcc58b13ad3eab50626c6a6300b1d139cd6ebb1688a7cced9461c2f7e762665ee910160405180910390a190565b600082815260208190526040902054610100900460ff166106ba5760405162461bcd60e51b815260206004820152601160248201527f72657175657374206e6f7420666f756e640000000000000000000000000000006044820152606401610249565b600082815260208181526040909120805460ff19166001908117825583516106e99392909101918401906107a3565b507ffe2e2d779dba245964d4e3ef9b994be63856fd568bf7d3ca9e224755cb1bd54d828260405161071b929190610994565b60405180910390a1600480546040517f37f9c70d0000000000000000000000000000000000000000000000000000000081526001600160a01b03909116916337f9c70d9161076d918691869101610994565b600060405180830381600087803b15801561078757600080fd5b505af115801561079b573d6000803e3d6000fd5b505050505050565b8280548282559060005260206000209081019282156107de579160200282015b828111156107de5782518255916020019190600101906107c3565b506107ea9291506107ee565b5090565b5b808211156107ea57600081556001016107ef565b60006020828403121561081557600080fd5b81356001600160a01b038116811461082c57600080fd5b9392505050565b60006020828403121561084557600080fd5b5035919050565b60006020828403121561085e57600080fd5b5051919050565b6000806040838503121561087857600080fd5b8235915060208084013567ffffffffffffffff8082111561089857600080fd5b818601915086601f8301126108ac57600080fd5b8135818111156108be576108be6109ad565b8060051b604051601f19603f830116810181811085821117156108e3576108e36109ad565b604052828152858101935084860182860187018b101561090257600080fd5b600095505b83861015610925578035855260019590950194938601938601610907565b508096505050505050509250929050565b600081518084526020808501945080840160005b838110156109665781518752958201959082019060010161094a565b509495945050505050565b821515815260406020820152600061098c6040830184610936565b949350505050565b82815260406020820152600061098c6040830184610936565b7f4e487b7100000000000000000000000000000000000000000000000000000000600052604160045260246000fdfea2646970667358221220fa5fcce17e89226e84a3331d55ad48c8a7a0a1eea6d311b1e43a2cce6fb7771964736f6c63430008070033",
  "linkReferences": {},
  "deployedLinkReferences": {}
}