{"contracts/Insurance.sol":{"Insurance":{"abi":[{"inputs":[{"internalType":"address","name":"oracle","type":"address"},{"internalType":"address","name":"linkMaticAddress","type":"address"},{"internalType":"address","name":"maticUsdAddress","type":"address"},{"internalType":"uint64","name":"subscriptionId","type":"uint64"}],"stateMutability":"nonpayable","type":"constructor"},{"inputs":[],"name":"EmptyArgs","type":"error"},{"inputs":[],"name":"EmptySource","type":"error"},{"inputs":[],"name":"NoInlineSecrets","type":"error"},{"inputs":[{"internalType":"address","name":"have","type":"address"},{"internalType":"address","name":"want","type":"address"}],"name":"OnlyCoordinatorCanFulfill","type":"error"},{"inputs":[],"name":"RequestIsAlreadyPending","type":"error"},{"inputs":[],"name":"RequestIsNotPending","type":"error"},{"inputs":[],"name":"SenderIsNotRegistry","type":"error"},{"anonymous":false,"inputs":[{"indexed":true,"internalType":"bytes32","name":"requestId","type":"bytes32"}],"name":"OCRRequest","type":"event"},{"anonymous":false,"inputs":[{"indexed":true,"internalType":"bytes32","name":"requestId","type":"bytes32"},{"indexed":false,"internalType":"bytes","name":"result","type":"bytes"},{"indexed":false,"internalType":"bytes","name":"err","type":"bytes"}],"name":"OCRResponse","type":"event"},{"anonymous":false,"inputs":[{"indexed":true,"internalType":"address","name":"from","type":"address"},{"indexed":true,"internalType":"address","name":"to","type":"address"}],"name":"OwnershipTransferRequested","type":"event"},{"anonymous":false,"inputs":[{"indexed":true,"internalType":"address","name":"from","type":"address"},{"indexed":true,"internalType":"address","name":"to","type":"address"}],"name":"OwnershipTransferred","type":"event"},{"anonymous":false,"inputs":[{"indexed":false,"internalType":"address","name":"policyOwner","type":"address"},{"indexed":false,"internalType":"uint256","name":"policyIndex","type":"uint256"},{"indexed":false,"internalType":"uint256","name":"cost","type":"uint256"}],"name":"PolicyCreated","type":"event"},{"anonymous":false,"inputs":[{"indexed":false,"internalType":"address","name":"policyOwner","type":"address"},{"indexed":false,"internalType":"uint256","name":"policyIndex","type":"uint256"}],"name":"PolicyEnded","type":"event"},{"anonymous":false,"inputs":[{"indexed":false,"internalType":"address","name":"policyOwner","type":"address"},{"indexed":false,"internalType":"uint256","name":"policyIndex","type":"uint256"}],"name":"PolicyStarted","type":"event"},{"anonymous":false,"inputs":[{"indexed":false,"internalType":"uint256","name":"requestId","type":"uint256"},{"indexed":false,"internalType":"uint256[]","name":"randomWords","type":"uint256[]"}],"name":"RequestFulfilled","type":"event"},{"anonymous":false,"inputs":[{"indexed":true,"internalType":"bytes32","name":"id","type":"bytes32"}],"name":"RequestFulfilled","type":"event"},{"anonymous":false,"inputs":[{"indexed":false,"internalType":"uint256","name":"requestId","type":"uint256"},{"indexed":false,"internalType":"uint32","name":"numWords","type":"uint32"}],"name":"RequestSent","type":"event"},{"anonymous":false,"inputs":[{"indexed":true,"internalType":"bytes32","name":"id","type":"bytes32"}],"name":"RequestSent","type":"event"},{"anonymous":false,"inputs":[{"indexed":false,"internalType":"address","name":"userAddress","type":"address"},{"indexed":false,"internalType":"uint256","name":"payoutAmountInMatic","type":"uint256"}],"name":"UserPaid","type":"event"},{"inputs":[],"name":"acceptOwnership","outputs":[],"stateMutability":"nonpayable","type":"function"},{"inputs":[{"internalType":"address","name":"oracleAddress","type":"address"},{"internalType":"bytes32","name":"requestId","type":"bytes32"}],"name":"addSimulatedRequestId","outputs":[],"stateMutability":"nonpayable","type":"function"},{"inputs":[],"name":"boolInsuranceData","outputs":[{"internalType":"bool","name":"","type":"bool"}],"stateMutability":"view","type":"function"},{"inputs":[{"internalType":"bytes","name":"input","type":"bytes"}],"name":"bytesToUint256","outputs":[{"internalType":"uint256","name":"result","type":"uint256"}],"stateMutability":"pure","type":"function"},{"inputs":[],"name":"checkPayoutContract","outputs":[{"internalType":"address","name":"","type":"address"}],"stateMutability":"view","type":"function"},{"inputs":[],"name":"constructionTime","outputs":[{"internalType":"uint256","name":"","type":"uint256"}],"stateMutability":"view","type":"function"},{"inputs":[],"name":"currentTime","outputs":[{"internalType":"uint256","name":"","type":"uint256"}],"stateMutability":"view","type":"function"},{"inputs":[{"internalType":"address","name":"policyOwner","type":"address"},{"internalType":"uint256","name":"policyIndex","type":"uint256"}],"name":"endPolicy","outputs":[],"stateMutability":"nonpayable","type":"function"},{"inputs":[{"components":[{"internalType":"enum Functions.Location","name":"codeLocation","type":"uint8"},{"internalType":"enum Functions.Location","name":"secretsLocation","type":"uint8"},{"internalType":"enum Functions.CodeLanguage","name":"language","type":"uint8"},{"internalType":"string","name":"source","type":"string"},{"internalType":"bytes","name":"secrets","type":"bytes"},{"internalType":"string[]","name":"args","type":"string[]"}],"internalType":"struct Functions.Request","name":"req","type":"tuple"},{"internalType":"uint64","name":"subscriptionId","type":"uint64"},{"internalType":"uint32","name":"gasLimit","type":"uint32"},{"internalType":"uint256","name":"gasPrice","type":"uint256"}],"name":"estimateCost","outputs":[{"internalType":"uint96","name":"","type":"uint96"}],"stateMutability":"view","type":"function"},{"inputs":[{"internalType":"string[]","name":"args","type":"string[]"},{"internalType":"uint64","name":"subscriptionId","type":"uint64"},{"internalType":"uint32","name":"gasLimit","type":"uint32"}],"name":"estimateInsurance","outputs":[{"internalType":"bytes32","name":"","type":"bytes32"}],"stateMutability":"payable","type":"function"},{"inputs":[{"internalType":"address","name":"user","type":"address"}],"name":"getAllUserPolicies","outputs":[{"components":[{"internalType":"string","name":"latNe","type":"string"},{"internalType":"string","name":"longNe","type":"string"},{"internalType":"string","name":"latSe","type":"string"},{"internalType":"string","name":"longSe","type":"string"},{"internalType":"string","name":"latSw","type":"string"},{"internalType":"string","name":"longSw","type":"string"},{"internalType":"string","name":"latNw","type":"string"},{"internalType":"string","name":"longNw","type":"string"},{"internalType":"string","name":"configParam","type":"string"},{"internalType":"string","name":"startTime","type":"string"},{"internalType":"string","name":"endTime","type":"string"},{"internalType":"string","name":"policyCreationTime","type":"string"}],"internalType":"struct Insurance.InsuranceData[]","name":"","type":"tuple[]"}],"stateMutability":"view","type":"function"},{"inputs":[],"name":"getCurrentTime","outputs":[{"internalType":"uint256","name":"","type":"uint256"}],"stateMutability":"view","type":"function"},{"inputs":[],"name":"getDONPublicKey","outputs":[{"internalType":"bytes","name":"","type":"bytes"}],"stateMutability":"view","type":"function"},{"inputs":[{"internalType":"bytes32","name":"requestId","type":"bytes32"}],"name":"getInsuranceQuoteData","outputs":[{"components":[{"internalType":"address","name":"user","type":"address"},{"internalType":"uint256","name":"policyIndex","type":"uint256"},{"internalType":"uint256","name":"cost","type":"uint256"}],"internalType":"struct Insurance.InsuranceQuoteData","name":"","type":"tuple"}],"stateMutability":"view","type":"function"},{"inputs":[],"name":"getLastRandomWord","outputs":[{"internalType":"uint256","name":"","type":"uint256"}],"stateMutability":"view","type":"function"},{"inputs":[{"internalType":"address","name":"user","type":"address"},{"internalType":"uint256","name":"policyIndex","type":"uint256"}],"name":"getPolicyData","outputs":[{"components":[{"internalType":"string","name":"latNe","type":"string"},{"internalType":"string","name":"longNe","type":"string"},{"internalType":"string","name":"latSe","type":"string"},{"internalType":"string","name":"longSe","type":"string"},{"internalType":"string","name":"latSw","type":"string"},{"internalType":"string","name":"longSw","type":"string"},{"internalType":"string","name":"latNw","type":"string"},{"internalType":"string","name":"longNw","type":"string"},{"internalType":"string","name":"configParam","type":"string"},{"internalType":"string","name":"startTime","type":"string"},{"internalType":"string","name":"endTime","type":"string"},{"internalType":"string","name":"policyCreationTime","type":"string"}],"internalType":"struct Insurance.InsuranceData","name":"","type":"tuple"}],"stateMutability":"view","type":"function"},{"inputs":[{"internalType":"address","name":"_address","type":"address"},{"internalType":"uint256","name":"_policyIndex","type":"uint256"}],"name":"getPolicyRequestId","outputs":[{"internalType":"bytes32","name":"","type":"bytes32"}],"stateMutability":"view","type":"function"},{"inputs":[],"name":"getPriceLinkMatic","outputs":[{"internalType":"int256","name":"","type":"int256"}],"stateMutability":"view","type":"function"},{"inputs":[],"name":"getPriceMaticUsd","outputs":[{"internalType":"int256","name":"","type":"int256"}],"stateMutability":"view","type":"function"},{"inputs":[{"internalType":"uint256","name":"_requestId","type":"uint256"}],"name":"getRequestStatus","outputs":[{"internalType":"bool","name":"fulfilled","type":"bool"},{"internalType":"uint256[]","name":"randomWords","type":"uint256[]"}],"stateMutability":"view","type":"function"},{"inputs":[],"name":"getSourceCode","outputs":[{"internalType":"string","name":"","type":"string"}],"stateMutability":"view","type":"function"},{"inputs":[{"internalType":"bytes32","name":"requestId","type":"bytes32"},{"internalType":"bytes","name":"response","type":"bytes"},{"internalType":"bytes","name":"err","type":"bytes"}],"name":"handleOracleFulfillment","outputs":[],"stateMutability":"nonpayable","type":"function"},{"inputs":[],"name":"helloWorld","outputs":[{"internalType":"string","name":"","type":"string"}],"stateMutability":"view","type":"function"},{"inputs":[{"internalType":"address","name":"","type":"address"},{"internalType":"uint256","name":"","type":"uint256"}],"name":"insurancePoliciesMapping","outputs":[{"internalType":"string","name":"latNe","type":"string"},{"internalType":"string","name":"longNe","type":"string"},{"internalType":"string","name":"latSe","type":"string"},{"internalType":"string","name":"longSe","type":"string"},{"internalType":"string","name":"latSw","type":"string"},{"internalType":"string","name":"longSw","type":"string"},{"internalType":"string","name":"latNw","type":"string"},{"internalType":"string","name":"longNw","type":"string"},{"internalType":"string","name":"configParam","type":"string"},{"internalType":"string","name":"startTime","type":"string"},{"internalType":"string","name":"endTime","type":"string"},{"internalType":"string","name":"policyCreationTime","type":"string"}],"stateMutability":"view","type":"function"},{"inputs":[{"internalType":"bytes32","name":"","type":"bytes32"}],"name":"insuranceQuoteData","outputs":[{"internalType":"address","name":"user","type":"address"},{"internalType":"uint256","name":"policyIndex","type":"uint256"},{"internalType":"uint256","name":"cost","type":"uint256"}],"stateMutability":"view","type":"function"},{"inputs":[],"name":"lastRequestId","outputs":[{"internalType":"uint256","name":"","type":"uint256"}],"stateMutability":"view","type":"function"},{"inputs":[],"name":"latestError","outputs":[{"internalType":"bytes","name":"","type":"bytes"}],"stateMutability":"view","type":"function"},{"inputs":[],"name":"latestRequestId","outputs":[{"internalType":"bytes32","name":"","type":"bytes32"}],"stateMutability":"view","type":"function"},{"inputs":[],"name":"latestResponse","outputs":[{"internalType":"bytes","name":"","type":"bytes"}],"stateMutability":"view","type":"function"},{"inputs":[],"name":"linkMaticPriceFeed","outputs":[{"internalType":"contract LinkMaticPriceFeed","name":"","type":"address"}],"stateMutability":"view","type":"function"},{"inputs":[],"name":"maticUsdPriceFeed","outputs":[{"internalType":"contract MaticUsdPriceFeed","name":"","type":"address"}],"stateMutability":"view","type":"function"},{"inputs":[],"name":"owner","outputs":[{"internalType":"address","name":"","type":"address"}],"stateMutability":"view","type":"function"},{"inputs":[{"internalType":"address payable","name":"userAddress","type":"address"},{"internalType":"uint256","name":"payoutAmount","type":"uint256"}],"name":"payUser","outputs":[],"stateMutability":"nonpayable","type":"function"},{"inputs":[{"internalType":"address","name":"","type":"address"},{"internalType":"uint256","name":"","type":"uint256"}],"name":"policyRequestIdMapping","outputs":[{"internalType":"bytes32","name":"","type":"bytes32"}],"stateMutability":"view","type":"function"},{"inputs":[{"internalType":"address","name":"","type":"address"},{"internalType":"uint256","name":"","type":"uint256"}],"name":"policyStatus","outputs":[{"internalType":"enum Insurance.PolicyStatus","name":"","type":"uint8"}],"stateMutability":"view","type":"function"},{"inputs":[{"internalType":"uint256","name":"","type":"uint256"}],"name":"randomnessRequesterAddress","outputs":[{"internalType":"address","name":"","type":"address"}],"stateMutability":"view","type":"function"},{"inputs":[{"internalType":"uint256","name":"requestId","type":"uint256"},{"internalType":"uint256[]","name":"randomWords","type":"uint256[]"}],"name":"rawFulfillRandomWords","outputs":[],"stateMutability":"nonpayable","type":"function"},{"inputs":[{"internalType":"uint256","name":"","type":"uint256"}],"name":"requestIds","outputs":[{"internalType":"uint256","name":"","type":"uint256"}],"stateMutability":"view","type":"function"},{"inputs":[],"name":"requestRandomWords","outputs":[{"internalType":"uint256","name":"requestId","type":"uint256"}],"stateMutability":"nonpayable","type":"function"},{"inputs":[{"internalType":"uint256","name":"","type":"uint256"}],"name":"s_requests","outputs":[{"internalType":"bool","name":"fulfilled","type":"bool"},{"internalType":"bool","name":"exists","type":"bool"}],"stateMutability":"view","type":"function"},{"inputs":[{"internalType":"address","name":"_checkPayoutContract","type":"address"}],"name":"setCheckPayoutContract","outputs":[],"stateMutability":"nonpayable","type":"function"},{"inputs":[{"internalType":"string","name":"_sourceCode","type":"string"}],"name":"setSourceCode","outputs":[],"stateMutability":"nonpayable","type":"function"},{"inputs":[],"name":"sourceCode","outputs":[{"internalType":"string","name":"","type":"string"}],"stateMutability":"view","type":"function"},{"inputs":[{"internalType":"bytes32","name":"requestId","type":"bytes32"}],"name":"startPolicy","outputs":[{"internalType":"uint256","name":"","type":"uint256"}],"stateMutability":"payable","type":"function"},{"inputs":[{"internalType":"address","name":"to","type":"address"}],"name":"transferOwnership","outputs":[],"stateMutability":"nonpayable","type":"function"},{"inputs":[{"internalType":"address","name":"oracle","type":"address"}],"name":"updateOracleAddress","outputs":[],"stateMutability":"nonpayable","type":"function"}],"evm":{"bytecode":{"linkReferences":{},"object":"60a06040527f4b09e658ed251bcafeebbc69400383d49f344ace09b9576fe248bb02c003fe9f600a55600b80546001600160501b03191666010003000493e0179055426010553480156200005257600080fd5b5060405162005e7138038062005e718339810160408190526200007591620002a5565b600080546001600160a01b0319166001600160a01b0386161781557f7a1bac17ccc5b313516c5e16fb24f7659aa5ebed00000000000000000000000060805233908190816200010b5760405162461bcd60e51b815260206004820152601860248201527f43616e6e6f7420736574206f776e657220746f207a65726f000000000000000060448201526064015b60405180910390fd5b600280546001600160a01b0319166001600160a01b03848116919091179091558116156200013e576200013e81620001db565b5050600b80546001600160a01b039586166a010000000000000000000002600160501b600160f01b031990911617905550600c8054929093166001600160a01b031992831617909255600780546001600160401b03909316600160a01b026001600160e01b031990931692909217737a1bac17ccc5b313516c5e16fb24f7659aa5ebed179091554260065560058054909116331790555062000310565b6001600160a01b038116331415620002365760405162461bcd60e51b815260206004820152601760248201527f43616e6e6f74207472616e7366657220746f2073656c66000000000000000000604482015260640162000102565b600380546001600160a01b0319166001600160a01b03838116918217909255600254604051919216907fed8889f560326eb138920d842192f0eb3dd22b4f139c87a2c57538e05bae127890600090a350565b80516001600160a01b0381168114620002a057600080fd5b919050565b60008060008060808587031215620002bc57600080fd5b620002c78562000288565b9350620002d76020860162000288565b9250620002e76040860162000288565b60608601519092506001600160401b03811681146200030557600080fd5b939692955090935050565b60805160601c615b3b6200033660003960008181611e710152611ecc0152615b3b6000f3fe6080604052600436106102fc5760003560e01c8063b1011dbd1161018f578063d8a4676f116100e1578063f06c56101161008a578063f7023bb611610064578063f7023bb6146109aa578063fc2a88c3146109ca578063fffeb84e146109e057600080fd5b8063f06c56101461092c578063f11da55b14610942578063f2fde38b1461098a57600080fd5b8063e3928b7f116100bb578063e3928b7f146108c9578063e5c33f30146108de578063ecd831e81461090c57600080fd5b8063d8a4676f1461084e578063e0c862891461087c578063e0e2fa9a1461089157600080fd5b8063c0303c3711610143578063d18e81b31161011d578063d18e81b3146107e6578063d328a91e146107fc578063d4b391751461081157600080fd5b8063c0303c371461075e578063c605f76c1461077e578063cc9de25d146107c457600080fd5b8063b91ce20511610174578063b91ce20514610714578063bc58d68c14610729578063bef3a2f01461074957600080fd5b8063b1011dbd14610671578063b655cd9b146106dc57600080fd5b806330bda99d116102535780636ec7be7e116101fc5780638796ba8c116101d65780638796ba8c146105e35780638da5cb5b14610603578063a168fa891461062157600080fd5b80636ec7be7e1461055e57806379ba5097146105a157806380858026146105b657600080fd5b8063698cd3ad1161022d578063698cd3ad1461050957806369f8eaed1461051e5780636c6f99901461053e57600080fd5b806330bda99d1461046e5780635ec7baca1461048e57806361875d8d146104dc57600080fd5b806313c60177116102b55780631fe543e31161028f5780631fe543e3146103ee578063215fc6251461040e57806329cb924d1461045957600080fd5b806313c60177146103a35780631aa1a081146103c55780631aa46f59146103d857600080fd5b806305f411d6116102e657806305f411d61461034d5780630b50567f146103705780630ca761751461038357600080fd5b8062b467671461030157806304b2303c14610323575b600080fd5b34801561030d57600080fd5b5061032161031c3660046150ec565b6109f5565b005b34801561032f57600080fd5b50610338610a14565b60405190151581526020015b60405180910390f35b34801561035957600080fd5b5061036261123d565b604051908152602001610344565b61036261037e36600461504d565b6112ca565b34801561038f57600080fd5b5061032161039e36600461507f565b611471565b3480156103af57600080fd5b506103b8611517565b60405161034491906155a4565b6103626103d3366004614fb8565b6115a5565b3480156103e457600080fd5b50610362600d5481565b3480156103fa57600080fd5b506103216104093660046152a9565b611e66565b34801561041a57600080fd5b5061042e61042936600461504d565b611f03565b6040805182516001600160a01b03168152602080840151908201529181015190820152606001610344565b34801561046557600080fd5b50601054610362565b34801561047a57600080fd5b50610321610489366004614f8c565b611ffc565b34801561049a57600080fd5b506104c46104a936600461504d565b6015602052600090815260409020546001600160a01b031681565b6040516001600160a01b039091168152602001610344565b3480156104e857600080fd5b506104fc6104f7366004614f8c565b61200e565b604051610344919061570a565b34801561051557600080fd5b506103b8612797565b34801561052a57600080fd5b50610321610539366004614f52565b612829565b34801561054a57600080fd5b50600c546104c4906001600160a01b031681565b34801561056a57600080fd5b50610362610579366004614f8c565b6001600160a01b03919091166000908152601160209081526040808320938352929052205490565b3480156105ad57600080fd5b50610321612853565b3480156105c257600080fd5b506105d66105d1366004614f52565b612908565b6040516103449190615527565b3480156105ef57600080fd5b506103626105fe36600461504d565b613056565b34801561060f57600080fd5b506002546001600160a01b03166104c4565b34801561062d57600080fd5b5061065a61063c36600461504d565b60166020526000908152604090205460ff8082169161010090041682565b604080519215158352901515602083015201610344565b34801561067d57600080fd5b506106b761068c36600461504d565b6013602052600090815260409020805460018201546002909201546001600160a01b03909116919083565b604080516001600160a01b039094168452602084019290925290820152606001610344565b3480156106e857600080fd5b506106fc6106f7366004614f8c565b613077565b6040516103449c9b9a99989796959493929190615604565b34801561072057600080fd5b50610362613754565b34801561073557600080fd5b50610321610744366004614f8c565b613816565b34801561075557600080fd5b506103b86138e8565b34801561076a57600080fd5b506005546104c4906001600160a01b031681565b34801561078a57600080fd5b5060408051808201909152600c81527f48656c6c6f20576f726c6421000000000000000000000000000000000000000060208201526103b8565b3480156107d057600080fd5b506103626107df3660046150ec565b6020015190565b3480156107f257600080fd5b5061036260105481565b34801561080857600080fd5b506103b86138f5565b34801561081d57600080fd5b5061083161082c366004615197565b61398e565b6040516bffffffffffffffffffffffff9091168152602001610344565b34801561085a57600080fd5b5061086e61086936600461504d565b613a24565b604051610344929190615589565b34801561088857600080fd5b50610362613b24565b34801561089d57600080fd5b506103626108ac366004614f8c565b601160209081526000928352604080842090915290825290205481565b3480156108d557600080fd5b50610362613d41565b3480156108ea57600080fd5b50600b546104c4906a010000000000000000000090046001600160a01b031681565b34801561091857600080fd5b50610321610927366004614f8c565b613d9f565b34801561093857600080fd5b5061036260065481565b34801561094e57600080fd5b5061097d61095d366004614f8c565b601260209081526000928352604080842090915290825290205460ff1681565b60405161034491906155dc565b34801561099657600080fd5b506103216109a5366004614f52565b613eb1565b3480156109b657600080fd5b506103216109c5366004614f52565b613ec5565b3480156109d657600080fd5b5061036260095481565b3480156109ec57600080fd5b506103b8613eeb565b6109fd613ef8565b8051610a10906004906020840190614d13565b5050565b3360009081526014602052604081208054610a765760405162461bcd60e51b815260206004820152601760248201527f4e6f20696e737572616e6365206461746120666f756e6400000000000000000060448201526064015b60405180910390fd5b60005b8154811015611234576000828281548110610a9657610a96615ac4565b90600052602060002090600c020160405180610180016040529081600082018054610ac090615a18565b80601f0160208091040260200160405190810160405280929190818152602001828054610aec90615a18565b8015610b395780601f10610b0e57610100808354040283529160200191610b39565b820191906000526020600020905b815481529060010190602001808311610b1c57829003601f168201915b50505050508152602001600182018054610b5290615a18565b80601f0160208091040260200160405190810160405280929190818152602001828054610b7e90615a18565b8015610bcb5780601f10610ba057610100808354040283529160200191610bcb565b820191906000526020600020905b815481529060010190602001808311610bae57829003601f168201915b50505050508152602001600282018054610be490615a18565b80601f0160208091040260200160405190810160405280929190818152602001828054610c1090615a18565b8015610c5d5780601f10610c3257610100808354040283529160200191610c5d565b820191906000526020600020905b815481529060010190602001808311610c4057829003601f168201915b50505050508152602001600382018054610c7690615a18565b80601f0160208091040260200160405190810160405280929190818152602001828054610ca290615a18565b8015610cef5780601f10610cc457610100808354040283529160200191610cef565b820191906000526020600020905b815481529060010190602001808311610cd257829003601f168201915b50505050508152602001600482018054610d0890615a18565b80601f0160208091040260200160405190810160405280929190818152602001828054610d3490615a18565b8015610d815780601f10610d5657610100808354040283529160200191610d81565b820191906000526020600020905b815481529060010190602001808311610d6457829003601f168201915b50505050508152602001600582018054610d9a90615a18565b80601f0160208091040260200160405190810160405280929190818152602001828054610dc690615a18565b8015610e135780601f10610de857610100808354040283529160200191610e13565b820191906000526020600020905b815481529060010190602001808311610df657829003601f168201915b50505050508152602001600682018054610e2c90615a18565b80601f0160208091040260200160405190810160405280929190818152602001828054610e5890615a18565b8015610ea55780601f10610e7a57610100808354040283529160200191610ea5565b820191906000526020600020905b815481529060010190602001808311610e8857829003601f168201915b50505050508152602001600782018054610ebe90615a18565b80601f0160208091040260200160405190810160405280929190818152602001828054610eea90615a18565b8015610f375780601f10610f0c57610100808354040283529160200191610f37565b820191906000526020600020905b815481529060010190602001808311610f1a57829003601f168201915b50505050508152602001600882018054610f5090615a18565b80601f0160208091040260200160405190810160405280929190818152602001828054610f7c90615a18565b8015610fc95780601f10610f9e57610100808354040283529160200191610fc9565b820191906000526020600020905b815481529060010190602001808311610fac57829003601f168201915b50505050508152602001600982018054610fe290615a18565b80601f016020809104026020016040519081016040528092919081815260200182805461100e90615a18565b801561105b5780601f106110305761010080835404028352916020019161105b565b820191906000526020600020905b81548152906001019060200180831161103e57829003601f168201915b50505050508152602001600a8201805461107490615a18565b80601f01602080910402602001604051908101604052809291908181526020018280546110a090615a18565b80156110ed5780601f106110c2576101008083540402835291602001916110ed565b820191906000526020600020905b8154815290600101906020018083116110d057829003601f168201915b50505050508152602001600b8201805461110690615a18565b80601f016020809104026020016040519081016040528092919081815260200182805461113290615a18565b801561117f5780601f106111545761010080835404028352916020019161117f565b820191906000526020600020905b81548152906001019060200180831161116257829003601f168201915b50505050508152505090508060c00151516000141580156111a4575060e08101515115155b80156111b1575080515115155b80156111c1575060208101515115155b80156111d1575060408101515115155b80156111e1575060608101515115155b80156111f1575060808101515115155b8015611201575060a08101515115155b801561121257506101008101515115155b15611221576001935050505090565b508061122c81615a53565b915050610a79565b50600091505090565b6000600b600a9054906101000a90046001600160a01b03166001600160a01b0316638e15f4736040518163ffffffff1660e01b815260040160206040518083038186803b15801561128d57600080fd5b505afa1580156112a1573d6000803e3d6000fd5b505050506040513d601f19601f820116820180604052508101906112c59190615066565b905090565b600081815260136020908152604080832060028101546001820154338652601490945291842080549193918591908390811061130857611308615ac4565b6000918252602080832033845260128252604080852087865290925290832054600c9290920201925060ff16600281111561134557611345615aae565b146113925760405162461bcd60e51b815260206004820152601560248201527f506f6c696379206973206e6f742070656e64696e6700000000000000000000006044820152606401610a6d565b600061139c613d41565b90506000816113af866305f5e1006159b6565b6113b991906158b7565b90508034101561140b5760405162461bcd60e51b815260206004820152601560248201527f4e6f7420656e6f756768204d617469632073656e7400000000000000000000006044820152606401610a6d565b336000818152601260209081526040808320888452825291829020805460ff19166001179055815192835282018690527f153598a6c97963bd4d16e97786943eb68bcc8ca58077614327e965efe69fa110910160405180910390a1505050505050919050565b60008381526001602052604090205483906001600160a01b031633146114c3576040517fa0c5ec6300000000000000000000000000000000000000000000000000000000815260040160405180910390fd5b60008181526001602052604080822080546001600160a01b03191690555182917f85e1543bf2f84fe80c6badbce3648c8539ad1df4d2b3d822938ca0538be727e691a2611511848484613f54565b50505050565b6004805461152490615a18565b80601f016020809104026020016040519081016040528092919081815260200182805461155090615a18565b801561159d5780601f106115725761010080835404028352916020019161159d565b820191906000526020600020905b81548152906001019060200180831161158057829003601f168201915b505050505081565b6000600b84146115f75760405162461bcd60e51b815260206004820152601b60248201527f496e76616c6964206e756d626572206f6620617267756d656e747300000000006044820152606401610a6d565b3360009081526014602052604081209061161042614035565b9050816040518061018001604052808989600081811061163257611632615ac4565b905060200281019061164491906157ab565b8080601f0160208091040260200160405190810160405280939291908181526020018383808284376000920191909152505050908252506020018989600181811061169157611691615ac4565b90506020028101906116a391906157ab565b8080601f016020809104026020016040519081016040528093929190818152602001838380828437600092019190915250505090825250602001898960028181106116f0576116f0615ac4565b905060200281019061170291906157ab565b8080601f0160208091040260200160405190810160405280939291908181526020018383808284376000920191909152505050908252506020018989600381811061174f5761174f615ac4565b905060200281019061176191906157ab565b8080601f016020809104026020016040519081016040528093929190818152602001838380828437600092019190915250505090825250602001898960048181106117ae576117ae615ac4565b90506020028101906117c091906157ab565b8080601f0160208091040260200160405190810160405280939291908181526020018383808284376000920191909152505050908252506020018989600581811061180d5761180d615ac4565b905060200281019061181f91906157ab565b8080601f0160208091040260200160405190810160405280939291908181526020018383808284376000920191909152505050908252506020018989600681811061186c5761186c615ac4565b905060200281019061187e91906157ab565b8080601f016020809104026020016040519081016040528093929190818152602001838380828437600092019190915250505090825250602001898960078181106118cb576118cb615ac4565b90506020028101906118dd91906157ab565b8080601f0160208091040260200160405190810160405280939291908181526020018383808284376000920191909152505050908252506020018989600881811061192a5761192a615ac4565b905060200281019061193c91906157ab565b8080601f0160208091040260200160405190810160405280939291908181526020018383808284376000920191909152505050908252506020018989600981811061198957611989615ac4565b905060200281019061199b91906157ab565b8080601f0160208091040260200160405190810160405280939291908181526020018383808284376000920191909152505050908252506020018989600a8181106119e8576119e8615ac4565b90506020028101906119fa91906157ab565b8080601f016020809104026020016040519081016040528093929190818152602001838380828437600092018290525093855250505060209182018590528354600181018555938152819020825180519394600c0290910192611a609284920190614d13565b506020828101518051611a799260018501920190614d13565b5060408201518051611a95916002840191602090910190614d13565b5060608201518051611ab1916003840191602090910190614d13565b5060808201518051611acd916004840191602090910190614d13565b5060a08201518051611ae9916005840191602090910190614d13565b5060c08201518051611b05916006840191602090910190614d13565b5060e08201518051611b21916007840191602090910190614d13565b506101008201518051611b3e916008840191602090910190614d13565b506101208201518051611b5b916009840191602090910190614d13565b506101408201518051611b7891600a840191602090910190614d13565b506101608201518051611b9591600b840191602090910190614d13565b505033600090815260146020526040812054909150611bb6906001906159d5565b9050611bf26040805160c08101909152806000815260200160008152602001600081526020016060815260200160608152602001606081525090565b611c9460008060048054611c0590615a18565b80601f0160208091040260200160405190810160405280929190818152602001828054611c3190615a18565b8015611c7e5780601f10611c5357610100808354040283529160200191611c7e565b820191906000526020600020905b815481529060010190602001808311611c6157829003601f168201915b5050505050846140df909392919063ffffffff16565b6000611ca189600161589f565b67ffffffffffffffff811115611cb957611cb9615ada565b604051908082528060200260200182016040528015611cec57816020015b6060815260200190600190039081611cd75790505b50905060005b89811015611d84578a8a82818110611d0c57611d0c615ac4565b9050602002810190611d1e91906157ab565b8080601f0160208091040260200160405190810160405280939291908181526020018383808284376000920191909152505084518592508491508110611d6657611d66615ac4565b60200260200101819052508080611d7c90615a53565b915050611cf2565b5083818b8b905081518110611d9b57611d9b615ac4565b6020908102919091010152611db08282614173565b6000611dbd838a8a6141b3565b60408051606081018252338082526020808301898152600084860181815287825260138452868220955186546001600160a01b0319166001600160a01b03909116178655915160018601559051600290940193909355600d859055908252601181528282208883529052818120839055905191925082917f0790d5075e76350b19c3d15f0de9144077f6fb31397b526ce8664d7faf7dde6b9190a29a9950505050505050505050565b336001600160a01b037f00000000000000000000000000000000000000000000000000000000000000001614611ef9576040517f1cf993f40000000000000000000000000000000000000000000000000000000081523360048201526001600160a01b037f0000000000000000000000000000000000000000000000000000000000000000166024820152604401610a6d565b610a108282614325565b611f30604051806060016040528060006001600160a01b0316815260200160008152602001600081525090565b6000828152601360205260409020546001600160a01b0316611fba5760405162461bcd60e51b815260206004820152602560248201527f4e6f206461746120666f756e6420666f722074686520676976656e207265717560448201527f65737449640000000000000000000000000000000000000000000000000000006064820152608401610a6d565b50600090815260136020908152604091829020825160608101845281546001600160a01b03168152600182015492810192909252600201549181019190915290565b612004613ef8565b610a1082826143eb565b6120726040518061018001604052806060815260200160608152602001606081526020016060815260200160608152602001606081526020016060815260200160608152602001606081526020016060815260200160608152602001606081525090565b6001600160a01b038316600090815260146020526040902080548390811061209c5761209c615ac4565b90600052602060002090600c0201604051806101800160405290816000820180546120c690615a18565b80601f01602080910402602001604051908101604052809291908181526020018280546120f290615a18565b801561213f5780601f106121145761010080835404028352916020019161213f565b820191906000526020600020905b81548152906001019060200180831161212257829003601f168201915b5050505050815260200160018201805461215890615a18565b80601f016020809104026020016040519081016040528092919081815260200182805461218490615a18565b80156121d15780601f106121a6576101008083540402835291602001916121d1565b820191906000526020600020905b8154815290600101906020018083116121b457829003601f168201915b505050505081526020016002820180546121ea90615a18565b80601f016020809104026020016040519081016040528092919081815260200182805461221690615a18565b80156122635780601f1061223857610100808354040283529160200191612263565b820191906000526020600020905b81548152906001019060200180831161224657829003601f168201915b5050505050815260200160038201805461227c90615a18565b80601f01602080910402602001604051908101604052809291908181526020018280546122a890615a18565b80156122f55780601f106122ca576101008083540402835291602001916122f5565b820191906000526020600020905b8154815290600101906020018083116122d857829003601f168201915b5050505050815260200160048201805461230e90615a18565b80601f016020809104026020016040519081016040528092919081815260200182805461233a90615a18565b80156123875780601f1061235c57610100808354040283529160200191612387565b820191906000526020600020905b81548152906001019060200180831161236a57829003601f168201915b505050505081526020016005820180546123a090615a18565b80601f01602080910402602001604051908101604052809291908181526020018280546123cc90615a18565b80156124195780601f106123ee57610100808354040283529160200191612419565b820191906000526020600020905b8154815290600101906020018083116123fc57829003601f168201915b5050505050815260200160068201805461243290615a18565b80601f016020809104026020016040519081016040528092919081815260200182805461245e90615a18565b80156124ab5780601f10612480576101008083540402835291602001916124ab565b820191906000526020600020905b81548152906001019060200180831161248e57829003601f168201915b505050505081526020016007820180546124c490615a18565b80601f01602080910402602001604051908101604052809291908181526020018280546124f090615a18565b801561253d5780601f106125125761010080835404028352916020019161253d565b820191906000526020600020905b81548152906001019060200180831161252057829003601f168201915b5050505050815260200160088201805461255690615a18565b80601f016020809104026020016040519081016040528092919081815260200182805461258290615a18565b80156125cf5780601f106125a4576101008083540402835291602001916125cf565b820191906000526020600020905b8154815290600101906020018083116125b257829003601f168201915b505050505081526020016009820180546125e890615a18565b80601f016020809104026020016040519081016040528092919081815260200182805461261490615a18565b80156126615780601f1061263657610100808354040283529160200191612661565b820191906000526020600020905b81548152906001019060200180831161264457829003601f168201915b50505050508152602001600a8201805461267a90615a18565b80601f01602080910402602001604051908101604052809291908181526020018280546126a690615a18565b80156126f35780601f106126c8576101008083540402835291602001916126f3565b820191906000526020600020905b8154815290600101906020018083116126d657829003601f168201915b50505050508152602001600b8201805461270c90615a18565b80601f016020809104026020016040519081016040528092919081815260200182805461273890615a18565b80156127855780601f1061275a57610100808354040283529160200191612785565b820191906000526020600020905b81548152906001019060200180831161276857829003601f168201915b50505050508152505090505b92915050565b6060600480546127a690615a18565b80601f01602080910402602001604051908101604052809291908181526020018280546127d290615a18565b801561281f5780601f106127f45761010080835404028352916020019161281f565b820191906000526020600020905b81548152906001019060200180831161280257829003601f168201915b5050505050905090565b612831613ef8565b600580546001600160a01b0319166001600160a01b0392909216919091179055565b6003546001600160a01b031633146128ad5760405162461bcd60e51b815260206004820152601660248201527f4d7573742062652070726f706f736564206f776e6572000000000000000000006044820152606401610a6d565b600280546001600160a01b0319808216339081179093556003805490911690556040516001600160a01b03909116919082907f8be0079c531659141344cd1fd0a4f28419497f9722a3daafe3b4186f6b6457e090600090a350565b6001600160a01b0381166000908152601460209081526040808320805482518185028101850190935280835260609492939192909184015b8282101561304b57838290600052602060002090600c02016040518061018001604052908160008201805461297490615a18565b80601f01602080910402602001604051908101604052809291908181526020018280546129a090615a18565b80156129ed5780601f106129c2576101008083540402835291602001916129ed565b820191906000526020600020905b8154815290600101906020018083116129d057829003601f168201915b50505050508152602001600182018054612a0690615a18565b80601f0160208091040260200160405190810160405280929190818152602001828054612a3290615a18565b8015612a7f5780601f10612a5457610100808354040283529160200191612a7f565b820191906000526020600020905b815481529060010190602001808311612a6257829003601f168201915b50505050508152602001600282018054612a9890615a18565b80601f0160208091040260200160405190810160405280929190818152602001828054612ac490615a18565b8015612b115780601f10612ae657610100808354040283529160200191612b11565b820191906000526020600020905b815481529060010190602001808311612af457829003601f168201915b50505050508152602001600382018054612b2a90615a18565b80601f0160208091040260200160405190810160405280929190818152602001828054612b5690615a18565b8015612ba35780601f10612b7857610100808354040283529160200191612ba3565b820191906000526020600020905b815481529060010190602001808311612b8657829003601f168201915b50505050508152602001600482018054612bbc90615a18565b80601f0160208091040260200160405190810160405280929190818152602001828054612be890615a18565b8015612c355780601f10612c0a57610100808354040283529160200191612c35565b820191906000526020600020905b815481529060010190602001808311612c1857829003601f168201915b50505050508152602001600582018054612c4e90615a18565b80601f0160208091040260200160405190810160405280929190818152602001828054612c7a90615a18565b8015612cc75780601f10612c9c57610100808354040283529160200191612cc7565b820191906000526020600020905b815481529060010190602001808311612caa57829003601f168201915b50505050508152602001600682018054612ce090615a18565b80601f0160208091040260200160405190810160405280929190818152602001828054612d0c90615a18565b8015612d595780601f10612d2e57610100808354040283529160200191612d59565b820191906000526020600020905b815481529060010190602001808311612d3c57829003601f168201915b50505050508152602001600782018054612d7290615a18565b80601f0160208091040260200160405190810160405280929190818152602001828054612d9e90615a18565b8015612deb5780601f10612dc057610100808354040283529160200191612deb565b820191906000526020600020905b815481529060010190602001808311612dce57829003601f168201915b50505050508152602001600882018054612e0490615a18565b80601f0160208091040260200160405190810160405280929190818152602001828054612e3090615a18565b8015612e7d5780601f10612e5257610100808354040283529160200191612e7d565b820191906000526020600020905b815481529060010190602001808311612e6057829003601f168201915b50505050508152602001600982018054612e9690615a18565b80601f0160208091040260200160405190810160405280929190818152602001828054612ec290615a18565b8015612f0f5780601f10612ee457610100808354040283529160200191612f0f565b820191906000526020600020905b815481529060010190602001808311612ef257829003601f168201915b50505050508152602001600a82018054612f2890615a18565b80601f0160208091040260200160405190810160405280929190818152602001828054612f5490615a18565b8015612fa15780601f10612f7657610100808354040283529160200191612fa1565b820191906000526020600020905b815481529060010190602001808311612f8457829003601f168201915b50505050508152602001600b82018054612fba90615a18565b80601f0160208091040260200160405190810160405280929190818152602001828054612fe690615a18565b80156130335780601f1061300857610100808354040283529160200191613033565b820191906000526020600020905b81548152906001019060200180831161301657829003601f168201915b50505050508152505081526020019060010190612940565b505050509050919050565b6008818154811061306657600080fd5b600091825260209091200154905081565b6014602052816000526040600020818154811061309357600080fd5b90600052602060002090600c0201600091509150508060000180546130b790615a18565b80601f01602080910402602001604051908101604052809291908181526020018280546130e390615a18565b80156131305780601f1061310557610100808354040283529160200191613130565b820191906000526020600020905b81548152906001019060200180831161311357829003601f168201915b50505050509080600101805461314590615a18565b80601f016020809104026020016040519081016040528092919081815260200182805461317190615a18565b80156131be5780601f10613193576101008083540402835291602001916131be565b820191906000526020600020905b8154815290600101906020018083116131a157829003601f168201915b5050505050908060020180546131d390615a18565b80601f01602080910402602001604051908101604052809291908181526020018280546131ff90615a18565b801561324c5780601f106132215761010080835404028352916020019161324c565b820191906000526020600020905b81548152906001019060200180831161322f57829003601f168201915b50505050509080600301805461326190615a18565b80601f016020809104026020016040519081016040528092919081815260200182805461328d90615a18565b80156132da5780601f106132af576101008083540402835291602001916132da565b820191906000526020600020905b8154815290600101906020018083116132bd57829003601f168201915b5050505050908060040180546132ef90615a18565b80601f016020809104026020016040519081016040528092919081815260200182805461331b90615a18565b80156133685780601f1061333d57610100808354040283529160200191613368565b820191906000526020600020905b81548152906001019060200180831161334b57829003601f168201915b50505050509080600501805461337d90615a18565b80601f01602080910402602001604051908101604052809291908181526020018280546133a990615a18565b80156133f65780601f106133cb576101008083540402835291602001916133f6565b820191906000526020600020905b8154815290600101906020018083116133d957829003601f168201915b50505050509080600601805461340b90615a18565b80601f016020809104026020016040519081016040528092919081815260200182805461343790615a18565b80156134845780601f1061345957610100808354040283529160200191613484565b820191906000526020600020905b81548152906001019060200180831161346757829003601f168201915b50505050509080600701805461349990615a18565b80601f01602080910402602001604051908101604052809291908181526020018280546134c590615a18565b80156135125780601f106134e757610100808354040283529160200191613512565b820191906000526020600020905b8154815290600101906020018083116134f557829003601f168201915b50505050509080600801805461352790615a18565b80601f016020809104026020016040519081016040528092919081815260200182805461355390615a18565b80156135a05780601f10613575576101008083540402835291602001916135a0565b820191906000526020600020905b81548152906001019060200180831161358357829003601f168201915b5050505050908060090180546135b590615a18565b80601f01602080910402602001604051908101604052809291908181526020018280546135e190615a18565b801561362e5780601f106136035761010080835404028352916020019161362e565b820191906000526020600020905b81548152906001019060200180831161361157829003601f168201915b50505050509080600a01805461364390615a18565b80601f016020809104026020016040519081016040528092919081815260200182805461366f90615a18565b80156136bc5780601f10613691576101008083540402835291602001916136bc565b820191906000526020600020905b81548152906001019060200180831161369f57829003601f168201915b50505050509080600b0180546136d190615a18565b80601f01602080910402602001604051908101604052809291908181526020018280546136fd90615a18565b801561374a5780601f1061371f5761010080835404028352916020019161374a565b820191906000526020600020905b81548152906001019060200180831161372d57829003601f168201915b505050505090508c565b600954600090815260166020526040812054610100900460ff166137e05760405162461bcd60e51b815260206004820152602760248201527f4e6f2072616e646f6d20776f7264732068617665206265656e2067656e65726160448201527f74656420796574000000000000000000000000000000000000000000000000006064820152608401610a6d565b60095460009081526016602052604081206001018054829061380457613804615ac4565b60009182526020909120015492915050565b6005546001600160a01b0316331461387f5760405162461bcd60e51b815260206004820152602660248201527f43616c6c6572206973206e6f742074686520436865636b5061796f757420636f6044820152651b9d1c9858dd60d21b6064820152608401610a6d565b6001600160a01b0382166000818152601260209081526040808320858452825291829020805460ff19166002179055815192835282018390527f05e258a8da32249e7d7e1ebcd6b64f7c97c4235999db64b6687191b183d5e3f291015b60405180910390a15050565b600e805461152490615a18565b60008054604080517fd328a91e00000000000000000000000000000000000000000000000000000000815290516060936001600160a01b039093169263d328a91e9260048082019391829003018186803b15801561395257600080fd5b505afa158015613966573d6000803e3d6000fd5b505050506040513d6000823e601f3d908101601f191682016040526112c59190810190615129565b600080546001600160a01b031663d227d245856139aa8861446b565b86866040518563ffffffff1660e01b81526004016139cb949392919061576f565b60206040518083038186803b1580156139e357600080fd5b505afa1580156139f7573d6000803e3d6000fd5b505050506040513d601f19601f82011682018060405250810190613a1b919061534d565b95945050505050565b600081815260166020526040812054606090610100900460ff16613a8a5760405162461bcd60e51b815260206004820152601160248201527f72657175657374206e6f7420666f756e640000000000000000000000000000006044820152606401610a6d565b60008381526016602090815260408083208151606081018352815460ff8082161515835261010090910416151581850152600182018054845181870281018701865281815292959394860193830182828015613b0557602002820191906000526020600020905b815481526020019060010190808311613af1575b5050505050815250509050806000015181604001519250925050915091565b6000613b2e613ef8565b600754600a54600b546040517f5d3b1d30000000000000000000000000000000000000000000000000000000008152600481019290925274010000000000000000000000000000000000000000830467ffffffffffffffff166024830152640100000000810461ffff16604483015263ffffffff808216606484015266010000000000009091041660848201526001600160a01b0390911690635d3b1d309060a401602060405180830381600087803b158015613bea57600080fd5b505af1158015613bfe573d6000803e3d6000fd5b505050506040513d601f19601f82011682018060405250810190613c229190615066565b6040805160608101825260008082526001602080840182815285518481528083018752858701908152878552601683529590932084518154945161ffff1990951690151561ff00191617610100941515949094029390931783559351805195965092949193613c979391850192910190614d97565b505060088054600181019091557ff3f7a9fe364faab93b216da50a3214154f22a0a2b415b23a84c8169e8b636ee3018290555060098190556000818152601560209081526040918290208054336001600160a01b0319909116179055600b548251848152660100000000000090910463ffffffff16918101919091527fcc58b13ad3eab50626c6a6300b1d139cd6ebb1688a7cced9461c2f7e762665ee910160405180910390a190565b600c54604080517f8e15f47300000000000000000000000000000000000000000000000000000000815290516000926001600160a01b031691638e15f473916004808301926020929190829003018186803b15801561128d57600080fd5b6005546001600160a01b03163314613e085760405162461bcd60e51b815260206004820152602660248201527f43616c6c6572206973206e6f742074686520436865636b5061796f757420636f6044820152651b9d1c9858dd60d21b6064820152608401610a6d565b6000613e12613d41565b9050600081613e25846305f5e1006159b6565b613e2f91906158b7565b6040519091506001600160a01b0385169082156108fc029083906000818181858888f19350505050158015613e68573d6000803e3d6000fd5b50604080516001600160a01b0386168152602081018390527f188c4d19b4fadd1889d9bd9bf0ab7c97e0719434751e6c05feac6339c1c001ec910160405180910390a150505050565b613eb9613ef8565b613ec281614737565b50565b613ecd613ef8565b600080546001600160a01b0319166001600160a01b03831617905550565b600f805461152490615a18565b6002546001600160a01b03163314613f525760405162461bcd60e51b815260206004820152601660248201527f4f6e6c792063616c6c61626c65206279206f776e6572000000000000000000006044820152606401610a6d565b565b600083815260136020526040812090613f6e846020015190565b600283018190558451909150613f8b90600e906020870190614d13565b508251613f9f90600f906020860190614d13565b50847f7bab0ec163b5c132c72b8146ac4d6e067e82ed58f8b131150aa71c92589115628585604051613fd29291906155b7565b60405180910390a2815460018301546002840154604080516001600160a01b039094168452602084019290925282820152517f93aceb1c5e55aa194781a0423a101b97efa4a051e8d2fc2ba332ca75f4e4b6a79181900360600190a15050505050565b60606000614042836147e2565b600101905060008167ffffffffffffffff81111561406257614062615ada565b6040519080825280601f01601f19166020018201604052801561408c576020820181803683370190505b5090508181016020015b600019017f3031323334353637383961626364656600000000000000000000000000000000600a86061a8153600a85049450846140d2576140d7565b614096565b509392505050565b8051614117576040517f22ce3edd00000000000000000000000000000000000000000000000000000000815260040160405180910390fd5b8383600181111561412a5761412a615aae565b9081600181111561413d5761413d615aae565b9052506040840182801561415357614153615aae565b9081801561416357614163615aae565b9052506060909301929092525050565b80516141ab576040517ffe936cb700000000000000000000000000000000000000000000000000000000815260040160405180910390fd5b60a090910152565b6000805481906001600160a01b03166328242b04856141d18861446b565b866040518463ffffffff1660e01b81526004016141f093929190615736565b602060405180830381600087803b15801561420a57600080fd5b505af115801561421e573d6000803e3d6000fd5b505050506040513d601f19601f820116820180604052508101906142429190615066565b905060008054906101000a90046001600160a01b03166001600160a01b0316635ab1bd536040518163ffffffff1660e01b815260040160206040518083038186803b15801561429057600080fd5b505afa1580156142a4573d6000803e3d6000fd5b505050506040513d601f19601f820116820180604052508101906142c89190614f6f565b60008281526001602052604080822080546001600160a01b0319166001600160a01b039490941693909317909255905182917f1131472297a800fee664d1d89cfa8f7676ff07189ecc53f80bbb5f4969099db891a2949350505050565b600082815260166020526040902054610100900460ff166143885760405162461bcd60e51b815260206004820152601160248201527f72657175657374206e6f7420666f756e640000000000000000000000000000006044820152606401610a6d565b6000828152601660209081526040909120805460ff19166001908117825583516143b9939290910191840190614d97565b507ffe2e2d779dba245964d4e3ef9b994be63856fd568bf7d3ca9e224755cb1bd54d82826040516138dc92919061571d565b60008181526001602052604090205481906001600160a01b03161561443c576040517f8b457ad200000000000000000000000000000000000000000000000000000000815260040160405180910390fd5b50600090815260016020526040902080546001600160a01b0319166001600160a01b0392909216919091179055565b6060614475614dd1565b8051614483906101006148c4565b506144c3816040518060400160405280600c81526020017f636f64654c6f636174696f6e000000000000000000000000000000000000000081525061493b565b6144e281846000015160018111156144dd576144dd615aae565b614959565b614521816040518060400160405280600881526020017f6c616e677561676500000000000000000000000000000000000000000000000081525061493b565b61453b81846040015160008111156144dd576144dd615aae565b61457a816040518060400160405280600681526020017f736f75726365000000000000000000000000000000000000000000000000000081525061493b565b61458881846060015161493b565b60a0830151511561462e576145d2816040518060400160405280600481526020017f617267730000000000000000000000000000000000000000000000000000000081525061493b565b6145db81614992565b60005b8360a001515181101561462457614612828560a00151838151811061460557614605615ac4565b602002602001015161493b565b8061461c81615a53565b9150506145de565b5061462e816149b6565b6080830151511561472f5760008360200151600181111561465157614651615aae565b1415614689576040517fa80d31f700000000000000000000000000000000000000000000000000000000815260040160405180910390fd5b6146c8816040518060400160405280600f81526020017f736563726574734c6f636174696f6e000000000000000000000000000000000081525061493b565b6146e281846020015160018111156144dd576144dd615aae565b614721816040518060400160405280600781526020017f736563726574730000000000000000000000000000000000000000000000000081525061493b565b61472f8184608001516149d4565b515192915050565b6001600160a01b0381163314156147905760405162461bcd60e51b815260206004820152601760248201527f43616e6e6f74207472616e7366657220746f2073656c660000000000000000006044820152606401610a6d565b600380546001600160a01b0319166001600160a01b03838116918217909255600254604051919216907fed8889f560326eb138920d842192f0eb3dd22b4f139c87a2c57538e05bae127890600090a350565b6000807a184f03e93ff9f4daa797ed6e38ed64bf6a1f010000000000000000831061482b577a184f03e93ff9f4daa797ed6e38ed64bf6a1f010000000000000000830492506040015b6d04ee2d6d415b85acef81000000008310614857576d04ee2d6d415b85acef8100000000830492506020015b662386f26fc10000831061487557662386f26fc10000830492506010015b6305f5e100831061488d576305f5e100830492506008015b61271083106148a157612710830492506004015b606483106148b3576064830492506002015b600a83106127915760010192915050565b6040805180820190915260608152600060208201526148e4602083615a6e565b1561490c576148f4602083615a6e565b6148ff9060206159d5565b614909908361589f565b91505b60208084018390526040518085526000815290818401018181101561493057600080fd5b604052509192915050565b61494882600383516149dd565b81516149549082614afe565b505050565b81516149669060c2614b26565b50610a10828260405160200161497e91815260200190565b6040516020818303038152906040526149d4565b61499d816004614b8f565b6001816020018181516149b0919061589f565b90525050565b6149c1816007614b8f565b6001816020018181516149b091906159d5565b61494882600283515b60178167ffffffffffffffff1611614a045782516115119060e0600585901b168317614b26565b60ff8167ffffffffffffffff1611614a46578251614a2d906018611fe0600586901b1617614b26565b5082516115119067ffffffffffffffff83166001614ba6565b61ffff8167ffffffffffffffff1611614a89578251614a70906019611fe0600586901b1617614b26565b5082516115119067ffffffffffffffff83166002614ba6565b63ffffffff8167ffffffffffffffff1611614ace578251614ab590601a611fe0600586901b1617614b26565b5082516115119067ffffffffffffffff83166004614ba6565b8251614ae590601b611fe0600586901b1617614b26565b5082516115119067ffffffffffffffff83166008614ba6565b604080518082019091526060815260006020820152614b1f83838451614c2b565b9392505050565b6040805180820190915260608152600060208201528251516000614b4b82600161589f565b905084602001518210614b6c57614b6c85614b678360026159b6565b614cfc565b8451602083820101858153508051821115614b85578181525b5093949350505050565b815161495490601f611fe0600585901b1617614b26565b6040805180820190915260608152600060208201528351516000614bca828561589f565b90508560200151811115614be757614be786614b678360026159b6565b60006001614bf78661010061590e565b614c0191906159d5565b90508651828101878319825116178152508051831115614c1f578281525b50959695505050505050565b6040805180820190915260608152600060208201528251821115614c4e57600080fd5b8351516000614c5d848361589f565b90508560200151811115614c7a57614c7a86614b678360026159b6565b855180518382016020019160009180851115614c94578482525b505050602086015b60208610614cd45780518252614cb360208361589f565b9150614cc060208261589f565b9050614ccd6020876159d5565b9550614c9c565b51815160001960208890036101000a0190811690199190911617905250849150509392505050565b8151614d0883836148c4565b506115118382614afe565b828054614d1f90615a18565b90600052602060002090601f016020900481019282614d415760008555614d87565b82601f10614d5a57805160ff1916838001178555614d87565b82800160010185558215614d87579182015b82811115614d87578251825591602001919060010190614d6c565b50614d93929150614e06565b5090565b828054828255906000526020600020908101928215614d875791602002820182811115614d87578251825591602001919060010190614d6c565b6040518060400160405280614df9604051806040016040528060608152602001600081525090565b8152602001600081525090565b5b80821115614d935760008155600101614e07565b600082601f830112614e2c57600080fd5b81356020614e41614e3c83615853565b615822565b80838252828201915082860187848660051b8901011115614e6157600080fd5b6000805b86811015614ea457823567ffffffffffffffff811115614e83578283fd5b614e918b88838d0101614eb2565b8652509385019391850191600101614e65565b509198975050505050505050565b600082601f830112614ec357600080fd5b8135614ed1614e3c82615877565b818152846020838601011115614ee657600080fd5b816020850160208301376000918101602001919091529392505050565b803560018110614f1257600080fd5b919050565b803560028110614f1257600080fd5b803563ffffffff81168114614f1257600080fd5b803567ffffffffffffffff81168114614f1257600080fd5b600060208284031215614f6457600080fd5b8135614b1f81615af0565b600060208284031215614f8157600080fd5b8151614b1f81615af0565b60008060408385031215614f9f57600080fd5b8235614faa81615af0565b946020939093013593505050565b60008060008060608587031215614fce57600080fd5b843567ffffffffffffffff80821115614fe657600080fd5b818701915087601f830112614ffa57600080fd5b81358181111561500957600080fd5b8860208260051b850101111561501e57600080fd5b6020928301965094506150349187019050614f3a565b915061504260408601614f26565b905092959194509250565b60006020828403121561505f57600080fd5b5035919050565b60006020828403121561507857600080fd5b5051919050565b60008060006060848603121561509457600080fd5b83359250602084013567ffffffffffffffff808211156150b357600080fd5b6150bf87838801614eb2565b935060408601359150808211156150d557600080fd5b506150e286828701614eb2565b9150509250925092565b6000602082840312156150fe57600080fd5b813567ffffffffffffffff81111561511557600080fd5b61512184828501614eb2565b949350505050565b60006020828403121561513b57600080fd5b815167ffffffffffffffff81111561515257600080fd5b8201601f8101841361516357600080fd5b8051615171614e3c82615877565b81815285602083850101111561518657600080fd5b613a1b8260208301602086016159ec565b600080600080608085870312156151ad57600080fd5b843567ffffffffffffffff808211156151c557600080fd5b9086019060c082890312156151d957600080fd5b6151e16157f9565b6151ea83614f17565b81526151f860208401614f17565b602082015261520960408401614f03565b604082015260608301358281111561522057600080fd5b61522c8a828601614eb2565b60608301525060808301358281111561524457600080fd5b6152508a828601614eb2565b60808301525060a08301358281111561526857600080fd5b6152748a828601614e1b565b60a083015250955061528b91505060208601614f3a565b925061529960408601614f26565b9396929550929360600135925050565b600080604083850312156152bc57600080fd5b8235915060208084013567ffffffffffffffff8111156152db57600080fd5b8401601f810186136152ec57600080fd5b80356152fa614e3c82615853565b80828252848201915084840189868560051b870101111561531a57600080fd5b600094505b8385101561533d57803583526001949094019391850191850161531f565b5080955050505050509250929050565b60006020828403121561535f57600080fd5b81516bffffffffffffffffffffffff81168114614b1f57600080fd5b600081518084526020808501945080840160005b838110156153ab5781518752958201959082019060010161538f565b509495945050505050565b600081518084526153ce8160208601602086016159ec565b601f01601f19169290920160200192915050565b600061018082518185526153f8828601826153b6565b9150506020830151848203602086015261541282826153b6565b9150506040830151848203604086015261542c82826153b6565b9150506060830151848203606086015261544682826153b6565b9150506080830151848203608086015261546082826153b6565b91505060a083015184820360a086015261547a82826153b6565b91505060c083015184820360c086015261549482826153b6565b91505060e083015184820360e08601526154ae82826153b6565b91505061010080840151858303828701526154c983826153b6565b9250505061012080840151858303828701526154e583826153b6565b92505050610140808401518583038287015261550183826153b6565b92505050610160808401518583038287015261551d83826153b6565b9695505050505050565b6000602080830181845280855180835260408601915060408160051b870101925083870160005b8281101561557c57603f1988860301845261556a8583516153e2565b9450928501929085019060010161554e565b5092979650505050505050565b8215158152604060208201526000615121604083018461537b565b602081526000614b1f60208301846153b6565b6040815260006155ca60408301856153b6565b8281036020840152613a1b81856153b6565b60208101600383106155fe57634e487b7160e01b600052602160045260246000fd5b91905290565b6101808152600061561961018083018f6153b6565b828103602084015261562b818f6153b6565b9050828103604084015261563f818e6153b6565b90508281036060840152615653818d6153b6565b90508281036080840152615667818c6153b6565b905082810360a084015261567b818b6153b6565b905082810360c084015261568f818a6153b6565b905082810360e08401526156a381896153b6565b90508281036101008401526156b881886153b6565b90508281036101208401526156cd81876153b6565b90508281036101408401526156e281866153b6565b90508281036101608401526156f781856153b6565b9f9e505050505050505050505050505050565b602081526000614b1f60208301846153e2565b828152604060208201526000615121604083018461537b565b67ffffffffffffffff8416815260606020820152600061575960608301856153b6565b905063ffffffff83166040830152949350505050565b67ffffffffffffffff8516815260806020820152600061579260808301866153b6565b63ffffffff949094166040830152506060015292915050565b6000808335601e198436030181126157c257600080fd5b83018035915067ffffffffffffffff8211156157dd57600080fd5b6020019150368190038213156157f257600080fd5b9250929050565b60405160c0810167ffffffffffffffff8111828210171561581c5761581c615ada565b60405290565b604051601f8201601f1916810167ffffffffffffffff8111828210171561584b5761584b615ada565b604052919050565b600067ffffffffffffffff82111561586d5761586d615ada565b5060051b60200190565b600067ffffffffffffffff82111561589157615891615ada565b50601f01601f191660200190565b600082198211156158b2576158b2615a82565b500190565b6000826158c6576158c6615a98565b500490565b600181815b808511156159065781600019048211156158ec576158ec615a82565b808516156158f957918102915b93841c93908002906158d0565b509250929050565b6000614b1f838360008261592457506001612791565b8161593157506000612791565b816001811461594757600281146159515761596d565b6001915050612791565b60ff84111561596257615962615a82565b50506001821b612791565b5060208310610133831016604e8410600b8410161715615990575081810a612791565b61599a83836158cb565b80600019048211156159ae576159ae615a82565b029392505050565b60008160001904831182151516156159d0576159d0615a82565b500290565b6000828210156159e7576159e7615a82565b500390565b60005b83811015615a075781810151838201526020016159ef565b838111156115115750506000910152565b600181811c90821680615a2c57607f821691505b60208210811415615a4d57634e487b7160e01b600052602260045260246000fd5b50919050565b6000600019821415615a6757615a67615a82565b5060010190565b600082615a7d57615a7d615a98565b500690565b634e487b7160e01b600052601160045260246000fd5b634e487b7160e01b600052601260045260246000fd5b634e487b7160e01b600052602160045260246000fd5b634e487b7160e01b600052603260045260246000fd5b634e487b7160e01b600052604160045260246000fd5b6001600160a01b0381168114613ec257600080fdfea264697066735822122023db2f316ca8c32fb2808be1edcd782536b6b687614d779e17f3dac3f16cd0f464736f6c63430008070033","opcodes":"PUSH1 0xA0 PUSH1 0x40 MSTORE PUSH32 0x4B09E658ED251BCAFEEBBC69400383D49F344ACE09B9576FE248BB02C003FE9F PUSH1 0xA SSTORE PUSH1 0xB DUP1 SLOAD PUSH1 0x1 PUSH1 0x1 PUSH1 0x50 SHL SUB NOT AND PUSH7 0x10003000493E0 OR SWAP1 SSTORE TIMESTAMP PUSH1 0x10 SSTORE CALLVALUE DUP1 ISZERO PUSH3 0x52 JUMPI PUSH1 0x0 DUP1 REVERT JUMPDEST POP PUSH1 0x40 MLOAD PUSH3 0x5E71 CODESIZE SUB DUP1 PUSH3 0x5E71 DUP4 CODECOPY DUP2 ADD PUSH1 0x40 DUP2 SWAP1 MSTORE PUSH3 0x75 SWAP2 PUSH3 0x2A5 JUMP JUMPDEST PUSH1 0x0 DUP1 SLOAD PUSH1 0x1 PUSH1 0x1 PUSH1 0xA0 SHL SUB NOT AND PUSH1 0x1 PUSH1 0x1 PUSH1 0xA0 SHL SUB DUP7 AND OR DUP2 SSTORE PUSH32 0x7A1BAC17CCC5B313516C5E16FB24F7659AA5EBED000000000000000000000000 PUSH1 0x80 MSTORE CALLER SWAP1 DUP2 SWAP1 DUP2 PUSH3 0x10B JUMPI PUSH1 0x40 MLOAD PUSH3 0x461BCD PUSH1 0xE5 SHL DUP2 MSTORE PUSH1 0x20 PUSH1 0x4 DUP3 ADD MSTORE PUSH1 0x18 PUSH1 0x24 DUP3 ADD MSTORE PUSH32 0x43616E6E6F7420736574206F776E657220746F207A65726F0000000000000000 PUSH1 0x44 DUP3 ADD MSTORE PUSH1 0x64 ADD JUMPDEST PUSH1 0x40 MLOAD DUP1 SWAP2 SUB SWAP1 REVERT JUMPDEST PUSH1 0x2 DUP1 SLOAD PUSH1 0x1 PUSH1 0x1 PUSH1 0xA0 SHL SUB NOT AND PUSH1 0x1 PUSH1 0x1 PUSH1 0xA0 SHL SUB DUP5 DUP2 AND SWAP2 SWAP1 SWAP2 OR SWAP1 SWAP2 SSTORE DUP2 AND ISZERO PUSH3 0x13E JUMPI PUSH3 0x13E DUP2 PUSH3 0x1DB JUMP JUMPDEST POP POP PUSH1 0xB DUP1 SLOAD PUSH1 0x1 PUSH1 0x1 PUSH1 0xA0 SHL SUB SWAP6 DUP7 AND PUSH11 0x100000000000000000000 MUL PUSH1 0x1 PUSH1 0x50 SHL PUSH1 0x1 PUSH1 0xF0 SHL SUB NOT SWAP1 SWAP2 AND OR SWAP1 SSTORE POP PUSH1 0xC DUP1 SLOAD SWAP3 SWAP1 SWAP4 AND PUSH1 0x1 PUSH1 0x1 PUSH1 0xA0 SHL SUB NOT SWAP3 DUP4 AND OR SWAP1 SWAP3 SSTORE PUSH1 0x7 DUP1 SLOAD PUSH1 0x1 PUSH1 0x1 PUSH1 0x40 SHL SUB SWAP1 SWAP4 AND PUSH1 0x1 PUSH1 0xA0 SHL MUL PUSH1 0x1 PUSH1 0x1 PUSH1 0xE0 SHL SUB NOT SWAP1 SWAP4 AND SWAP3 SWAP1 SWAP3 OR PUSH20 0x7A1BAC17CCC5B313516C5E16FB24F7659AA5EBED OR SWAP1 SWAP2 SSTORE TIMESTAMP PUSH1 0x6 SSTORE PUSH1 0x5 DUP1 SLOAD SWAP1 SWAP2 AND CALLER OR SWAP1 SSTORE POP PUSH3 0x310 JUMP JUMPDEST PUSH1 0x1 PUSH1 0x1 PUSH1 0xA0 SHL SUB DUP2 AND CALLER EQ ISZERO PUSH3 0x236 JUMPI PUSH1 0x40 MLOAD PUSH3 0x461BCD PUSH1 0xE5 SHL DUP2 MSTORE PUSH1 0x20 PUSH1 0x4 DUP3 ADD MSTORE PUSH1 0x17 PUSH1 0x24 DUP3 ADD MSTORE PUSH32 0x43616E6E6F74207472616E7366657220746F2073656C66000000000000000000 PUSH1 0x44 DUP3 ADD MSTORE PUSH1 0x64 ADD PUSH3 0x102 JUMP JUMPDEST PUSH1 0x3 DUP1 SLOAD PUSH1 0x1 PUSH1 0x1 PUSH1 0xA0 SHL SUB NOT AND PUSH1 0x1 PUSH1 0x1 PUSH1 0xA0 SHL SUB DUP4 DUP2 AND SWAP2 DUP3 OR SWAP1 SWAP3 SSTORE PUSH1 0x2 SLOAD PUSH1 0x40 MLOAD SWAP2 SWAP3 AND SWAP1 PUSH32 0xED8889F560326EB138920D842192F0EB3DD22B4F139C87A2C57538E05BAE1278 SWAP1 PUSH1 0x0 SWAP1 LOG3 POP JUMP JUMPDEST DUP1 MLOAD PUSH1 0x1 PUSH1 0x1 PUSH1 0xA0 SHL SUB DUP2 AND DUP2 EQ PUSH3 0x2A0 JUMPI PUSH1 0x0 DUP1 REVERT JUMPDEST SWAP2 SWAP1 POP JUMP JUMPDEST PUSH1 0x0 DUP1 PUSH1 0x0 DUP1 PUSH1 0x80 DUP6 DUP8 SUB SLT ISZERO PUSH3 0x2BC JUMPI PUSH1 0x0 DUP1 REVERT JUMPDEST PUSH3 0x2C7 DUP6 PUSH3 0x288 JUMP JUMPDEST SWAP4 POP PUSH3 0x2D7 PUSH1 0x20 DUP7 ADD PUSH3 0x288 JUMP JUMPDEST SWAP3 POP PUSH3 0x2E7 PUSH1 0x40 DUP7 ADD PUSH3 0x288 JUMP JUMPDEST PUSH1 0x60 DUP7 ADD MLOAD SWAP1 SWAP3 POP PUSH1 0x1 PUSH1 0x1 PUSH1 0x40 SHL SUB DUP2 AND DUP2 EQ PUSH3 0x305 JUMPI PUSH1 0x0 DUP1 REVERT JUMPDEST SWAP4 SWAP7 SWAP3 SWAP6 POP SWAP1 SWAP4 POP POP JUMP JUMPDEST PUSH1 0x80 MLOAD PUSH1 0x60 SHR PUSH2 0x5B3B PUSH3 0x336 PUSH1 0x0 CODECOPY PUSH1 0x0 DUP2 DUP2 PUSH2 0x1E71 ADD MSTORE PUSH2 0x1ECC ADD MSTORE PUSH2 0x5B3B PUSH1 0x0 RETURN INVALID PUSH1 0x80 PUSH1 0x40 MSTORE PUSH1 0x4 CALLDATASIZE LT PUSH2 0x2FC JUMPI PUSH1 0x0 CALLDATALOAD PUSH1 0xE0 SHR DUP1 PUSH4 0xB1011DBD GT PUSH2 0x18F JUMPI DUP1 PUSH4 0xD8A4676F GT PUSH2 0xE1 JUMPI DUP1 PUSH4 0xF06C5610 GT PUSH2 0x8A JUMPI DUP1 PUSH4 0xF7023BB6 GT PUSH2 0x64 JUMPI DUP1 PUSH4 0xF7023BB6 EQ PUSH2 0x9AA JUMPI DUP1 PUSH4 0xFC2A88C3 EQ PUSH2 0x9CA JUMPI DUP1 PUSH4 0xFFFEB84E EQ PUSH2 0x9E0 JUMPI PUSH1 0x0 DUP1 REVERT JUMPDEST DUP1 PUSH4 0xF06C5610 EQ PUSH2 0x92C JUMPI DUP1 PUSH4 0xF11DA55B EQ PUSH2 0x942 JUMPI DUP1 PUSH4 0xF2FDE38B EQ PUSH2 0x98A JUMPI PUSH1 0x0 DUP1 REVERT JUMPDEST DUP1 PUSH4 0xE3928B7F GT PUSH2 0xBB JUMPI DUP1 PUSH4 0xE3928B7F EQ PUSH2 0x8C9 JUMPI DUP1 PUSH4 0xE5C33F30 EQ PUSH2 0x8DE JUMPI DUP1 PUSH4 0xECD831E8 EQ PUSH2 0x90C JUMPI PUSH1 0x0 DUP1 REVERT JUMPDEST DUP1 PUSH4 0xD8A4676F EQ PUSH2 0x84E JUMPI DUP1 PUSH4 0xE0C86289 EQ PUSH2 0x87C JUMPI DUP1 PUSH4 0xE0E2FA9A EQ PUSH2 0x891 JUMPI PUSH1 0x0 DUP1 REVERT JUMPDEST DUP1 PUSH4 0xC0303C37 GT PUSH2 0x143 JUMPI DUP1 PUSH4 0xD18E81B3 GT PUSH2 0x11D JUMPI DUP1 PUSH4 0xD18E81B3 EQ PUSH2 0x7E6 JUMPI DUP1 PUSH4 0xD328A91E EQ PUSH2 0x7FC JUMPI DUP1 PUSH4 0xD4B39175 EQ PUSH2 0x811 JUMPI PUSH1 0x0 DUP1 REVERT JUMPDEST DUP1 PUSH4 0xC0303C37 EQ PUSH2 0x75E JUMPI DUP1 PUSH4 0xC605F76C EQ PUSH2 0x77E JUMPI DUP1 PUSH4 0xCC9DE25D EQ PUSH2 0x7C4 JUMPI PUSH1 0x0 DUP1 REVERT JUMPDEST DUP1 PUSH4 0xB91CE205 GT PUSH2 0x174 JUMPI DUP1 PUSH4 0xB91CE205 EQ PUSH2 0x714 JUMPI DUP1 PUSH4 0xBC58D68C EQ PUSH2 0x729 JUMPI DUP1 PUSH4 0xBEF3A2F0 EQ PUSH2 0x749 JUMPI PUSH1 0x0 DUP1 REVERT JUMPDEST DUP1 PUSH4 0xB1011DBD EQ PUSH2 0x671 JUMPI DUP1 PUSH4 0xB655CD9B EQ PUSH2 0x6DC JUMPI PUSH1 0x0 DUP1 REVERT JUMPDEST DUP1 PUSH4 0x30BDA99D GT PUSH2 0x253 JUMPI DUP1 PUSH4 0x6EC7BE7E GT PUSH2 0x1FC JUMPI DUP1 PUSH4 0x8796BA8C GT PUSH2 0x1D6 JUMPI DUP1 PUSH4 0x8796BA8C EQ PUSH2 0x5E3 JUMPI DUP1 PUSH4 0x8DA5CB5B EQ PUSH2 0x603 JUMPI DUP1 PUSH4 0xA168FA89 EQ PUSH2 0x621 JUMPI PUSH1 0x0 DUP1 REVERT JUMPDEST DUP1 PUSH4 0x6EC7BE7E EQ PUSH2 0x55E JUMPI DUP1 PUSH4 0x79BA5097 EQ PUSH2 0x5A1 JUMPI DUP1 PUSH4 0x80858026 EQ PUSH2 0x5B6 JUMPI PUSH1 0x0 DUP1 REVERT JUMPDEST DUP1 PUSH4 0x698CD3AD GT PUSH2 0x22D JUMPI DUP1 PUSH4 0x698CD3AD EQ PUSH2 0x509 JUMPI DUP1 PUSH4 0x69F8EAED EQ PUSH2 0x51E JUMPI DUP1 PUSH4 0x6C6F9990 EQ PUSH2 0x53E JUMPI PUSH1 0x0 DUP1 REVERT JUMPDEST DUP1 PUSH4 0x30BDA99D EQ PUSH2 0x46E JUMPI DUP1 PUSH4 0x5EC7BACA EQ PUSH2 0x48E JUMPI DUP1 PUSH4 0x61875D8D EQ PUSH2 0x4DC JUMPI PUSH1 0x0 DUP1 REVERT JUMPDEST DUP1 PUSH4 0x13C60177 GT PUSH2 0x2B5 JUMPI DUP1 PUSH4 0x1FE543E3 GT PUSH2 0x28F JUMPI DUP1 PUSH4 0x1FE543E3 EQ PUSH2 0x3EE JUMPI DUP1 PUSH4 0x215FC625 EQ PUSH2 0x40E JUMPI DUP1 PUSH4 0x29CB924D EQ PUSH2 0x459 JUMPI PUSH1 0x0 DUP1 REVERT JUMPDEST DUP1 PUSH4 0x13C60177 EQ PUSH2 0x3A3 JUMPI DUP1 PUSH4 0x1AA1A081 EQ PUSH2 0x3C5 JUMPI DUP1 PUSH4 0x1AA46F59 EQ PUSH2 0x3D8 JUMPI PUSH1 0x0 DUP1 REVERT JUMPDEST DUP1 PUSH4 0x5F411D6 GT PUSH2 0x2E6 JUMPI DUP1 PUSH4 0x5F411D6 EQ PUSH2 0x34D JUMPI DUP1 PUSH4 0xB50567F EQ PUSH2 0x370 JUMPI DUP1 PUSH4 0xCA76175 EQ PUSH2 0x383 JUMPI PUSH1 0x0 DUP1 REVERT JUMPDEST DUP1 PUSH3 0xB46767 EQ PUSH2 0x301 JUMPI DUP1 PUSH4 0x4B2303C EQ PUSH2 0x323 JUMPI JUMPDEST PUSH1 0x0 DUP1 REVERT JUMPDEST CALLVALUE DUP1 ISZERO PUSH2 0x30D JUMPI PUSH1 0x0 DUP1 REVERT JUMPDEST POP PUSH2 0x321 PUSH2 0x31C CALLDATASIZE PUSH1 0x4 PUSH2 0x50EC JUMP JUMPDEST PUSH2 0x9F5 JUMP JUMPDEST STOP JUMPDEST CALLVALUE DUP1 ISZERO PUSH2 0x32F JUMPI PUSH1 0x0 DUP1 REVERT JUMPDEST POP PUSH2 0x338 PUSH2 0xA14 JUMP JUMPDEST PUSH1 0x40 MLOAD SWAP1 ISZERO ISZERO DUP2 MSTORE PUSH1 0x20 ADD JUMPDEST PUSH1 0x40 MLOAD DUP1 SWAP2 SUB SWAP1 RETURN JUMPDEST CALLVALUE DUP1 ISZERO PUSH2 0x359 JUMPI PUSH1 0x0 DUP1 REVERT JUMPDEST POP PUSH2 0x362 PUSH2 0x123D JUMP JUMPDEST PUSH1 0x40 MLOAD SWAP1 DUP2 MSTORE PUSH1 0x20 ADD PUSH2 0x344 JUMP JUMPDEST PUSH2 0x362 PUSH2 0x37E CALLDATASIZE PUSH1 0x4 PUSH2 0x504D JUMP JUMPDEST PUSH2 0x12CA JUMP JUMPDEST CALLVALUE DUP1 ISZERO PUSH2 0x38F JUMPI PUSH1 0x0 DUP1 REVERT JUMPDEST POP PUSH2 0x321 PUSH2 0x39E CALLDATASIZE PUSH1 0x4 PUSH2 0x507F JUMP JUMPDEST PUSH2 0x1471 JUMP JUMPDEST CALLVALUE DUP1 ISZERO PUSH2 0x3AF JUMPI PUSH1 0x0 DUP1 REVERT JUMPDEST POP PUSH2 0x3B8 PUSH2 0x1517 JUMP JUMPDEST PUSH1 0x40 MLOAD PUSH2 0x344 SWAP2 SWAP1 PUSH2 0x55A4 JUMP JUMPDEST PUSH2 0x362 PUSH2 0x3D3 CALLDATASIZE PUSH1 0x4 PUSH2 0x4FB8 JUMP JUMPDEST PUSH2 0x15A5 JUMP JUMPDEST CALLVALUE DUP1 ISZERO PUSH2 0x3E4 JUMPI PUSH1 0x0 DUP1 REVERT JUMPDEST POP PUSH2 0x362 PUSH1 0xD SLOAD DUP2 JUMP JUMPDEST CALLVALUE DUP1 ISZERO PUSH2 0x3FA JUMPI PUSH1 0x0 DUP1 REVERT JUMPDEST POP PUSH2 0x321 PUSH2 0x409 CALLDATASIZE PUSH1 0x4 PUSH2 0x52A9 JUMP JUMPDEST PUSH2 0x1E66 JUMP JUMPDEST CALLVALUE DUP1 ISZERO PUSH2 0x41A JUMPI PUSH1 0x0 DUP1 REVERT JUMPDEST POP PUSH2 0x42E PUSH2 0x429 CALLDATASIZE PUSH1 0x4 PUSH2 0x504D JUMP JUMPDEST PUSH2 0x1F03 JUMP JUMPDEST PUSH1 0x40 DUP1 MLOAD DUP3 MLOAD PUSH1 0x1 PUSH1 0x1 PUSH1 0xA0 SHL SUB AND DUP2 MSTORE PUSH1 0x20 DUP1 DUP5 ADD MLOAD SWAP1 DUP3 ADD MSTORE SWAP2 DUP2 ADD MLOAD SWAP1 DUP3 ADD MSTORE PUSH1 0x60 ADD PUSH2 0x344 JUMP JUMPDEST CALLVALUE DUP1 ISZERO PUSH2 0x465 JUMPI PUSH1 0x0 DUP1 REVERT JUMPDEST POP PUSH1 0x10 SLOAD PUSH2 0x362 JUMP JUMPDEST CALLVALUE DUP1 ISZERO PUSH2 0x47A JUMPI PUSH1 0x0 DUP1 REVERT JUMPDEST POP PUSH2 0x321 PUSH2 0x489 CALLDATASIZE PUSH1 0x4 PUSH2 0x4F8C JUMP JUMPDEST PUSH2 0x1FFC JUMP JUMPDEST CALLVALUE DUP1 ISZERO PUSH2 0x49A JUMPI PUSH1 0x0 DUP1 REVERT JUMPDEST POP PUSH2 0x4C4 PUSH2 0x4A9 CALLDATASIZE PUSH1 0x4 PUSH2 0x504D JUMP JUMPDEST PUSH1 0x15 PUSH1 0x20 MSTORE PUSH1 0x0 SWAP1 DUP2 MSTORE PUSH1 0x40 SWAP1 KECCAK256 SLOAD PUSH1 0x1 PUSH1 0x1 PUSH1 0xA0 SHL SUB AND DUP2 JUMP JUMPDEST PUSH1 0x40 MLOAD PUSH1 0x1 PUSH1 0x1 PUSH1 0xA0 SHL SUB SWAP1 SWAP2 AND DUP2 MSTORE PUSH1 0x20 ADD PUSH2 0x344 JUMP JUMPDEST CALLVALUE DUP1 ISZERO PUSH2 0x4E8 JUMPI PUSH1 0x0 DUP1 REVERT JUMPDEST POP PUSH2 0x4FC PUSH2 0x4F7 CALLDATASIZE PUSH1 0x4 PUSH2 0x4F8C JUMP JUMPDEST PUSH2 0x200E JUMP JUMPDEST PUSH1 0x40 MLOAD PUSH2 0x344 SWAP2 SWAP1 PUSH2 0x570A JUMP JUMPDEST CALLVALUE DUP1 ISZERO PUSH2 0x515 JUMPI PUSH1 0x0 DUP1 REVERT JUMPDEST POP PUSH2 0x3B8 PUSH2 0x2797 JUMP JUMPDEST CALLVALUE DUP1 ISZERO PUSH2 0x52A JUMPI PUSH1 0x0 DUP1 REVERT JUMPDEST POP PUSH2 0x321 PUSH2 0x539 CALLDATASIZE PUSH1 0x4 PUSH2 0x4F52 JUMP JUMPDEST PUSH2 0x2829 JUMP JUMPDEST CALLVALUE DUP1 ISZERO PUSH2 0x54A JUMPI PUSH1 0x0 DUP1 REVERT JUMPDEST POP PUSH1 0xC SLOAD PUSH2 0x4C4 SWAP1 PUSH1 0x1 PUSH1 0x1 PUSH1 0xA0 SHL SUB AND DUP2 JUMP JUMPDEST CALLVALUE DUP1 ISZERO PUSH2 0x56A JUMPI PUSH1 0x0 DUP1 REVERT JUMPDEST POP PUSH2 0x362 PUSH2 0x579 CALLDATASIZE PUSH1 0x4 PUSH2 0x4F8C JUMP JUMPDEST PUSH1 0x1 PUSH1 0x1 PUSH1 0xA0 SHL SUB SWAP2 SWAP1 SWAP2 AND PUSH1 0x0 SWAP1 DUP2 MSTORE PUSH1 0x11 PUSH1 0x20 SWAP1 DUP2 MSTORE PUSH1 0x40 DUP1 DUP4 KECCAK256 SWAP4 DUP4 MSTORE SWAP3 SWAP1 MSTORE KECCAK256 SLOAD SWAP1 JUMP JUMPDEST CALLVALUE DUP1 ISZERO PUSH2 0x5AD JUMPI PUSH1 0x0 DUP1 REVERT JUMPDEST POP PUSH2 0x321 PUSH2 0x2853 JUMP JUMPDEST CALLVALUE DUP1 ISZERO PUSH2 0x5C2 JUMPI PUSH1 0x0 DUP1 REVERT JUMPDEST POP PUSH2 0x5D6 PUSH2 0x5D1 CALLDATASIZE PUSH1 0x4 PUSH2 0x4F52 JUMP JUMPDEST PUSH2 0x2908 JUMP JUMPDEST PUSH1 0x40 MLOAD PUSH2 0x344 SWAP2 SWAP1 PUSH2 0x5527 JUMP JUMPDEST CALLVALUE DUP1 ISZERO PUSH2 0x5EF JUMPI PUSH1 0x0 DUP1 REVERT JUMPDEST POP PUSH2 0x362 PUSH2 0x5FE CALLDATASIZE PUSH1 0x4 PUSH2 0x504D JUMP JUMPDEST PUSH2 0x3056 JUMP JUMPDEST CALLVALUE DUP1 ISZERO PUSH2 0x60F JUMPI PUSH1 0x0 DUP1 REVERT JUMPDEST POP PUSH1 0x2 SLOAD PUSH1 0x1 PUSH1 0x1 PUSH1 0xA0 SHL SUB AND PUSH2 0x4C4 JUMP JUMPDEST CALLVALUE DUP1 ISZERO PUSH2 0x62D JUMPI PUSH1 0x0 DUP1 REVERT JUMPDEST POP PUSH2 0x65A PUSH2 0x63C CALLDATASIZE PUSH1 0x4 PUSH2 0x504D JUMP JUMPDEST PUSH1 0x16 PUSH1 0x20 MSTORE PUSH1 0x0 SWAP1 DUP2 MSTORE PUSH1 0x40 SWAP1 KECCAK256 SLOAD PUSH1 0xFF DUP1 DUP3 AND SWAP2 PUSH2 0x100 SWAP1 DIV AND DUP3 JUMP JUMPDEST PUSH1 0x40 DUP1 MLOAD SWAP3 ISZERO ISZERO DUP4 MSTORE SWAP1 ISZERO ISZERO PUSH1 0x20 DUP4 ADD MSTORE ADD PUSH2 0x344 JUMP JUMPDEST CALLVALUE DUP1 ISZERO PUSH2 0x67D JUMPI PUSH1 0x0 DUP1 REVERT JUMPDEST POP PUSH2 0x6B7 PUSH2 0x68C CALLDATASIZE PUSH1 0x4 PUSH2 0x504D JUMP JUMPDEST PUSH1 0x13 PUSH1 0x20 MSTORE PUSH1 0x0 SWAP1 DUP2 MSTORE PUSH1 0x40 SWAP1 KECCAK256 DUP1 SLOAD PUSH1 0x1 DUP3 ADD SLOAD PUSH1 0x2 SWAP1 SWAP3 ADD SLOAD PUSH1 0x1 PUSH1 0x1 PUSH1 0xA0 SHL SUB SWAP1 SWAP2 AND SWAP2 SWAP1 DUP4 JUMP JUMPDEST PUSH1 0x40 DUP1 MLOAD PUSH1 0x1 PUSH1 0x1 PUSH1 0xA0 SHL SUB SWAP1 SWAP5 AND DUP5 MSTORE PUSH1 0x20 DUP5 ADD SWAP3 SWAP1 SWAP3 MSTORE SWAP1 DUP3 ADD MSTORE PUSH1 0x60 ADD PUSH2 0x344 JUMP JUMPDEST CALLVALUE DUP1 ISZERO PUSH2 0x6E8 JUMPI PUSH1 0x0 DUP1 REVERT JUMPDEST POP PUSH2 0x6FC PUSH2 0x6F7 CALLDATASIZE PUSH1 0x4 PUSH2 0x4F8C JUMP JUMPDEST PUSH2 0x3077 JUMP JUMPDEST PUSH1 0x40 MLOAD PUSH2 0x344 SWAP13 SWAP12 SWAP11 SWAP10 SWAP9 SWAP8 SWAP7 SWAP6 SWAP5 SWAP4 SWAP3 SWAP2 SWAP1 PUSH2 0x5604 JUMP JUMPDEST CALLVALUE DUP1 ISZERO PUSH2 0x720 JUMPI PUSH1 0x0 DUP1 REVERT JUMPDEST POP PUSH2 0x362 PUSH2 0x3754 JUMP JUMPDEST CALLVALUE DUP1 ISZERO PUSH2 0x735 JUMPI PUSH1 0x0 DUP1 REVERT JUMPDEST POP PUSH2 0x321 PUSH2 0x744 CALLDATASIZE PUSH1 0x4 PUSH2 0x4F8C JUMP JUMPDEST PUSH2 0x3816 JUMP JUMPDEST CALLVALUE DUP1 ISZERO PUSH2 0x755 JUMPI PUSH1 0x0 DUP1 REVERT JUMPDEST POP PUSH2 0x3B8 PUSH2 0x38E8 JUMP JUMPDEST CALLVALUE DUP1 ISZERO PUSH2 0x76A JUMPI PUSH1 0x0 DUP1 REVERT JUMPDEST POP PUSH1 0x5 SLOAD PUSH2 0x4C4 SWAP1 PUSH1 0x1 PUSH1 0x1 PUSH1 0xA0 SHL SUB AND DUP2 JUMP JUMPDEST CALLVALUE DUP1 ISZERO PUSH2 0x78A JUMPI PUSH1 0x0 DUP1 REVERT JUMPDEST POP PUSH1 0x40 DUP1 MLOAD DUP1 DUP3 ADD SWAP1 SWAP2 MSTORE PUSH1 0xC DUP2 MSTORE PUSH32 0x48656C6C6F20576F726C64210000000000000000000000000000000000000000 PUSH1 0x20 DUP3 ADD MSTORE PUSH2 0x3B8 JUMP JUMPDEST CALLVALUE DUP1 ISZERO PUSH2 0x7D0 JUMPI PUSH1 0x0 DUP1 REVERT JUMPDEST POP PUSH2 0x362 PUSH2 0x7DF CALLDATASIZE PUSH1 0x4 PUSH2 0x50EC JUMP JUMPDEST PUSH1 0x20 ADD MLOAD SWAP1 JUMP JUMPDEST CALLVALUE DUP1 ISZERO PUSH2 0x7F2 JUMPI PUSH1 0x0 DUP1 REVERT JUMPDEST POP PUSH2 0x362 PUSH1 0x10 SLOAD DUP2 JUMP JUMPDEST CALLVALUE DUP1 ISZERO PUSH2 0x808 JUMPI PUSH1 0x0 DUP1 REVERT JUMPDEST POP PUSH2 0x3B8 PUSH2 0x38F5 JUMP JUMPDEST CALLVALUE DUP1 ISZERO PUSH2 0x81D JUMPI PUSH1 0x0 DUP1 REVERT JUMPDEST POP PUSH2 0x831 PUSH2 0x82C CALLDATASIZE PUSH1 0x4 PUSH2 0x5197 JUMP JUMPDEST PUSH2 0x398E JUMP JUMPDEST PUSH1 0x40 MLOAD PUSH12 0xFFFFFFFFFFFFFFFFFFFFFFFF SWAP1 SWAP2 AND DUP2 MSTORE PUSH1 0x20 ADD PUSH2 0x344 JUMP JUMPDEST CALLVALUE DUP1 ISZERO PUSH2 0x85A JUMPI PUSH1 0x0 DUP1 REVERT JUMPDEST POP PUSH2 0x86E PUSH2 0x869 CALLDATASIZE PUSH1 0x4 PUSH2 0x504D JUMP JUMPDEST PUSH2 0x3A24 JUMP JUMPDEST PUSH1 0x40 MLOAD PUSH2 0x344 SWAP3 SWAP2 SWAP1 PUSH2 0x5589 JUMP JUMPDEST CALLVALUE DUP1 ISZERO PUSH2 0x888 JUMPI PUSH1 0x0 DUP1 REVERT JUMPDEST POP PUSH2 0x362 PUSH2 0x3B24 JUMP JUMPDEST CALLVALUE DUP1 ISZERO PUSH2 0x89D JUMPI PUSH1 0x0 DUP1 REVERT JUMPDEST POP PUSH2 0x362 PUSH2 0x8AC CALLDATASIZE PUSH1 0x4 PUSH2 0x4F8C JUMP JUMPDEST PUSH1 0x11 PUSH1 0x20 SWAP1 DUP2 MSTORE PUSH1 0x0 SWAP3 DUP4 MSTORE PUSH1 0x40 DUP1 DUP5 KECCAK256 SWAP1 SWAP2 MSTORE SWAP1 DUP3 MSTORE SWAP1 KECCAK256 SLOAD DUP2 JUMP JUMPDEST CALLVALUE DUP1 ISZERO PUSH2 0x8D5 JUMPI PUSH1 0x0 DUP1 REVERT JUMPDEST POP PUSH2 0x362 PUSH2 0x3D41 JUMP JUMPDEST CALLVALUE DUP1 ISZERO PUSH2 0x8EA JUMPI PUSH1 0x0 DUP1 REVERT JUMPDEST POP PUSH1 0xB SLOAD PUSH2 0x4C4 SWAP1 PUSH11 0x100000000000000000000 SWAP1 DIV PUSH1 0x1 PUSH1 0x1 PUSH1 0xA0 SHL SUB AND DUP2 JUMP JUMPDEST CALLVALUE DUP1 ISZERO PUSH2 0x918 JUMPI PUSH1 0x0 DUP1 REVERT JUMPDEST POP PUSH2 0x321 PUSH2 0x927 CALLDATASIZE PUSH1 0x4 PUSH2 0x4F8C JUMP JUMPDEST PUSH2 0x3D9F JUMP JUMPDEST CALLVALUE DUP1 ISZERO PUSH2 0x938 JUMPI PUSH1 0x0 DUP1 REVERT JUMPDEST POP PUSH2 0x362 PUSH1 0x6 SLOAD DUP2 JUMP JUMPDEST CALLVALUE DUP1 ISZERO PUSH2 0x94E JUMPI PUSH1 0x0 DUP1 REVERT JUMPDEST POP PUSH2 0x97D PUSH2 0x95D CALLDATASIZE PUSH1 0x4 PUSH2 0x4F8C JUMP JUMPDEST PUSH1 0x12 PUSH1 0x20 SWAP1 DUP2 MSTORE PUSH1 0x0 SWAP3 DUP4 MSTORE PUSH1 0x40 DUP1 DUP5 KECCAK256 SWAP1 SWAP2 MSTORE SWAP1 DUP3 MSTORE SWAP1 KECCAK256 SLOAD PUSH1 0xFF AND DUP2 JUMP JUMPDEST PUSH1 0x40 MLOAD PUSH2 0x344 SWAP2 SWAP1 PUSH2 0x55DC JUMP JUMPDEST CALLVALUE DUP1 ISZERO PUSH2 0x996 JUMPI PUSH1 0x0 DUP1 REVERT JUMPDEST POP PUSH2 0x321 PUSH2 0x9A5 CALLDATASIZE PUSH1 0x4 PUSH2 0x4F52 JUMP JUMPDEST PUSH2 0x3EB1 JUMP JUMPDEST CALLVALUE DUP1 ISZERO PUSH2 0x9B6 JUMPI PUSH1 0x0 DUP1 REVERT JUMPDEST POP PUSH2 0x321 PUSH2 0x9C5 CALLDATASIZE PUSH1 0x4 PUSH2 0x4F52 JUMP JUMPDEST PUSH2 0x3EC5 JUMP JUMPDEST CALLVALUE DUP1 ISZERO PUSH2 0x9D6 JUMPI PUSH1 0x0 DUP1 REVERT JUMPDEST POP PUSH2 0x362 PUSH1 0x9 SLOAD DUP2 JUMP JUMPDEST CALLVALUE DUP1 ISZERO PUSH2 0x9EC JUMPI PUSH1 0x0 DUP1 REVERT JUMPDEST POP PUSH2 0x3B8 PUSH2 0x3EEB JUMP JUMPDEST PUSH2 0x9FD PUSH2 0x3EF8 JUMP JUMPDEST DUP1 MLOAD PUSH2 0xA10 SWAP1 PUSH1 0x4 SWAP1 PUSH1 0x20 DUP5 ADD SWAP1 PUSH2 0x4D13 JUMP JUMPDEST POP POP JUMP JUMPDEST CALLER PUSH1 0x0 SWAP1 DUP2 MSTORE PUSH1 0x14 PUSH1 0x20 MSTORE PUSH1 0x40 DUP2 KECCAK256 DUP1 SLOAD PUSH2 0xA76 JUMPI PUSH1 0x40 MLOAD PUSH3 0x461BCD PUSH1 0xE5 SHL DUP2 MSTORE PUSH1 0x20 PUSH1 0x4 DUP3 ADD MSTORE PUSH1 0x17 PUSH1 0x24 DUP3 ADD MSTORE PUSH32 0x4E6F20696E737572616E6365206461746120666F756E64000000000000000000 PUSH1 0x44 DUP3 ADD MSTORE PUSH1 0x64 ADD JUMPDEST PUSH1 0x40 MLOAD DUP1 SWAP2 SUB SWAP1 REVERT JUMPDEST PUSH1 0x0 JUMPDEST DUP2 SLOAD DUP2 LT ISZERO PUSH2 0x1234 JUMPI PUSH1 0x0 DUP3 DUP3 DUP2 SLOAD DUP2 LT PUSH2 0xA96 JUMPI PUSH2 0xA96 PUSH2 0x5AC4 JUMP JUMPDEST SWAP1 PUSH1 0x0 MSTORE PUSH1 0x20 PUSH1 0x0 KECCAK256 SWAP1 PUSH1 0xC MUL ADD PUSH1 0x40 MLOAD DUP1 PUSH2 0x180 ADD PUSH1 0x40 MSTORE SWAP1 DUP2 PUSH1 0x0 DUP3 ADD DUP1 SLOAD PUSH2 0xAC0 SWAP1 PUSH2 0x5A18 JUMP JUMPDEST DUP1 PUSH1 0x1F ADD PUSH1 0x20 DUP1 SWAP2 DIV MUL PUSH1 0x20 ADD PUSH1 0x40 MLOAD SWAP1 DUP2 ADD PUSH1 0x40 MSTORE DUP1 SWAP3 SWAP2 SWAP1 DUP2 DUP2 MSTORE PUSH1 0x20 ADD DUP3 DUP1 SLOAD PUSH2 0xAEC SWAP1 PUSH2 0x5A18 JUMP JUMPDEST DUP1 ISZERO PUSH2 0xB39 JUMPI DUP1 PUSH1 0x1F LT PUSH2 0xB0E JUMPI PUSH2 0x100 DUP1 DUP4 SLOAD DIV MUL DUP4 MSTORE SWAP2 PUSH1 0x20 ADD SWAP2 PUSH2 0xB39 JUMP JUMPDEST DUP3 ADD SWAP2 SWAP1 PUSH1 0x0 MSTORE PUSH1 0x20 PUSH1 0x0 KECCAK256 SWAP1 JUMPDEST DUP2 SLOAD DUP2 MSTORE SWAP1 PUSH1 0x1 ADD SWAP1 PUSH1 0x20 ADD DUP1 DUP4 GT PUSH2 0xB1C JUMPI DUP3 SWAP1 SUB PUSH1 0x1F AND DUP3 ADD SWAP2 JUMPDEST POP POP POP POP POP DUP2 MSTORE PUSH1 0x20 ADD PUSH1 0x1 DUP3 ADD DUP1 SLOAD PUSH2 0xB52 SWAP1 PUSH2 0x5A18 JUMP JUMPDEST DUP1 PUSH1 0x1F ADD PUSH1 0x20 DUP1 SWAP2 DIV MUL PUSH1 0x20 ADD PUSH1 0x40 MLOAD SWAP1 DUP2 ADD PUSH1 0x40 MSTORE DUP1 SWAP3 SWAP2 SWAP1 DUP2 DUP2 MSTORE PUSH1 0x20 ADD DUP3 DUP1 SLOAD PUSH2 0xB7E SWAP1 PUSH2 0x5A18 JUMP JUMPDEST DUP1 ISZERO PUSH2 0xBCB JUMPI DUP1 PUSH1 0x1F LT PUSH2 0xBA0 JUMPI PUSH2 0x100 DUP1 DUP4 SLOAD DIV MUL DUP4 MSTORE SWAP2 PUSH1 0x20 ADD SWAP2 PUSH2 0xBCB JUMP JUMPDEST DUP3 ADD SWAP2 SWAP1 PUSH1 0x0 MSTORE PUSH1 0x20 PUSH1 0x0 KECCAK256 SWAP1 JUMPDEST DUP2 SLOAD DUP2 MSTORE SWAP1 PUSH1 0x1 ADD SWAP1 PUSH1 0x20 ADD DUP1 DUP4 GT PUSH2 0xBAE JUMPI DUP3 SWAP1 SUB PUSH1 0x1F AND DUP3 ADD SWAP2 JUMPDEST POP POP POP POP POP DUP2 MSTORE PUSH1 0x20 ADD PUSH1 0x2 DUP3 ADD DUP1 SLOAD PUSH2 0xBE4 SWAP1 PUSH2 0x5A18 JUMP JUMPDEST DUP1 PUSH1 0x1F ADD PUSH1 0x20 DUP1 SWAP2 DIV MUL PUSH1 0x20 ADD PUSH1 0x40 MLOAD SWAP1 DUP2 ADD PUSH1 0x40 MSTORE DUP1 SWAP3 SWAP2 SWAP1 DUP2 DUP2 MSTORE PUSH1 0x20 ADD DUP3 DUP1 SLOAD PUSH2 0xC10 SWAP1 PUSH2 0x5A18 JUMP JUMPDEST DUP1 ISZERO PUSH2 0xC5D JUMPI DUP1 PUSH1 0x1F LT PUSH2 0xC32 JUMPI PUSH2 0x100 DUP1 DUP4 SLOAD DIV MUL DUP4 MSTORE SWAP2 PUSH1 0x20 ADD SWAP2 PUSH2 0xC5D JUMP JUMPDEST DUP3 ADD SWAP2 SWAP1 PUSH1 0x0 MSTORE PUSH1 0x20 PUSH1 0x0 KECCAK256 SWAP1 JUMPDEST DUP2 SLOAD DUP2 MSTORE SWAP1 PUSH1 0x1 ADD SWAP1 PUSH1 0x20 ADD DUP1 DUP4 GT PUSH2 0xC40 JUMPI DUP3 SWAP1 SUB PUSH1 0x1F AND DUP3 ADD SWAP2 JUMPDEST POP POP POP POP POP DUP2 MSTORE PUSH1 0x20 ADD PUSH1 0x3 DUP3 ADD DUP1 SLOAD PUSH2 0xC76 SWAP1 PUSH2 0x5A18 JUMP JUMPDEST DUP1 PUSH1 0x1F ADD PUSH1 0x20 DUP1 SWAP2 DIV MUL PUSH1 0x20 ADD PUSH1 0x40 MLOAD SWAP1 DUP2 ADD PUSH1 0x40 MSTORE DUP1 SWAP3 SWAP2 SWAP1 DUP2 DUP2 MSTORE PUSH1 0x20 ADD DUP3 DUP1 SLOAD PUSH2 0xCA2 SWAP1 PUSH2 0x5A18 JUMP JUMPDEST DUP1 ISZERO PUSH2 0xCEF JUMPI DUP1 PUSH1 0x1F LT PUSH2 0xCC4 JUMPI PUSH2 0x100 DUP1 DUP4 SLOAD DIV MUL DUP4 MSTORE SWAP2 PUSH1 0x20 ADD SWAP2 PUSH2 0xCEF JUMP JUMPDEST DUP3 ADD SWAP2 SWAP1 PUSH1 0x0 MSTORE PUSH1 0x20 PUSH1 0x0 KECCAK256 SWAP1 JUMPDEST DUP2 SLOAD DUP2 MSTORE SWAP1 PUSH1 0x1 ADD SWAP1 PUSH1 0x20 ADD DUP1 DUP4 GT PUSH2 0xCD2 JUMPI DUP3 SWAP1 SUB PUSH1 0x1F AND DUP3 ADD SWAP2 JUMPDEST POP POP POP POP POP DUP2 MSTORE PUSH1 0x20 ADD PUSH1 0x4 DUP3 ADD DUP1 SLOAD PUSH2 0xD08 SWAP1 PUSH2 0x5A18 JUMP JUMPDEST DUP1 PUSH1 0x1F ADD PUSH1 0x20 DUP1 SWAP2 DIV MUL PUSH1 0x20 ADD PUSH1 0x40 MLOAD SWAP1 DUP2 ADD PUSH1 0x40 MSTORE DUP1 SWAP3 SWAP2 SWAP1 DUP2 DUP2 MSTORE PUSH1 0x20 ADD DUP3 DUP1 SLOAD PUSH2 0xD34 SWAP1 PUSH2 0x5A18 JUMP JUMPDEST DUP1 ISZERO PUSH2 0xD81 JUMPI DUP1 PUSH1 0x1F LT PUSH2 0xD56 JUMPI PUSH2 0x100 DUP1 DUP4 SLOAD DIV MUL DUP4 MSTORE SWAP2 PUSH1 0x20 ADD SWAP2 PUSH2 0xD81 JUMP JUMPDEST DUP3 ADD SWAP2 SWAP1 PUSH1 0x0 MSTORE PUSH1 0x20 PUSH1 0x0 KECCAK256 SWAP1 JUMPDEST DUP2 SLOAD DUP2 MSTORE SWAP1 PUSH1 0x1 ADD SWAP1 PUSH1 0x20 ADD DUP1 DUP4 GT PUSH2 0xD64 JUMPI DUP3 SWAP1 SUB PUSH1 0x1F AND DUP3 ADD SWAP2 JUMPDEST POP POP POP POP POP DUP2 MSTORE PUSH1 0x20 ADD PUSH1 0x5 DUP3 ADD DUP1 SLOAD PUSH2 0xD9A SWAP1 PUSH2 0x5A18 JUMP JUMPDEST DUP1 PUSH1 0x1F ADD PUSH1 0x20 DUP1 SWAP2 DIV MUL PUSH1 0x20 ADD PUSH1 0x40 MLOAD SWAP1 DUP2 ADD PUSH1 0x40 MSTORE DUP1 SWAP3 SWAP2 SWAP1 DUP2 DUP2 MSTORE PUSH1 0x20 ADD DUP3 DUP1 SLOAD PUSH2 0xDC6 SWAP1 PUSH2 0x5A18 JUMP JUMPDEST DUP1 ISZERO PUSH2 0xE13 JUMPI DUP1 PUSH1 0x1F LT PUSH2 0xDE8 JUMPI PUSH2 0x100 DUP1 DUP4 SLOAD DIV MUL DUP4 MSTORE SWAP2 PUSH1 0x20 ADD SWAP2 PUSH2 0xE13 JUMP JUMPDEST DUP3 ADD SWAP2 SWAP1 PUSH1 0x0 MSTORE PUSH1 0x20 PUSH1 0x0 KECCAK256 SWAP1 JUMPDEST DUP2 SLOAD DUP2 MSTORE SWAP1 PUSH1 0x1 ADD SWAP1 PUSH1 0x20 ADD DUP1 DUP4 GT PUSH2 0xDF6 JUMPI DUP3 SWAP1 SUB PUSH1 0x1F AND DUP3 ADD SWAP2 JUMPDEST POP POP POP POP POP DUP2 MSTORE PUSH1 0x20 ADD PUSH1 0x6 DUP3 ADD DUP1 SLOAD PUSH2 0xE2C SWAP1 PUSH2 0x5A18 JUMP JUMPDEST DUP1 PUSH1 0x1F ADD PUSH1 0x20 DUP1 SWAP2 DIV MUL PUSH1 0x20 ADD PUSH1 0x40 MLOAD SWAP1 DUP2 ADD PUSH1 0x40 MSTORE DUP1 SWAP3 SWAP2 SWAP1 DUP2 DUP2 MSTORE PUSH1 0x20 ADD DUP3 DUP1 SLOAD PUSH2 0xE58 SWAP1 PUSH2 0x5A18 JUMP JUMPDEST DUP1 ISZERO PUSH2 0xEA5 JUMPI DUP1 PUSH1 0x1F LT PUSH2 0xE7A JUMPI PUSH2 0x100 DUP1 DUP4 SLOAD DIV MUL DUP4 MSTORE SWAP2 PUSH1 0x20 ADD SWAP2 PUSH2 0xEA5 JUMP JUMPDEST DUP3 ADD SWAP2 SWAP1 PUSH1 0x0 MSTORE PUSH1 0x20 PUSH1 0x0 KECCAK256 SWAP1 JUMPDEST DUP2 SLOAD DUP2 MSTORE SWAP1 PUSH1 0x1 ADD SWAP1 PUSH1 0x20 ADD DUP1 DUP4 GT PUSH2 0xE88 JUMPI DUP3 SWAP1 SUB PUSH1 0x1F AND DUP3 ADD SWAP2 JUMPDEST POP POP POP POP POP DUP2 MSTORE PUSH1 0x20 ADD PUSH1 0x7 DUP3 ADD DUP1 SLOAD PUSH2 0xEBE SWAP1 PUSH2 0x5A18 JUMP JUMPDEST DUP1 PUSH1 0x1F ADD PUSH1 0x20 DUP1 SWAP2 DIV MUL PUSH1 0x20 ADD PUSH1 0x40 MLOAD SWAP1 DUP2 ADD PUSH1 0x40 MSTORE DUP1 SWAP3 SWAP2 SWAP1 DUP2 DUP2 MSTORE PUSH1 0x20 ADD DUP3 DUP1 SLOAD PUSH2 0xEEA SWAP1 PUSH2 0x5A18 JUMP JUMPDEST DUP1 ISZERO PUSH2 0xF37 JUMPI DUP1 PUSH1 0x1F LT PUSH2 0xF0C JUMPI PUSH2 0x100 DUP1 DUP4 SLOAD DIV MUL DUP4 MSTORE SWAP2 PUSH1 0x20 ADD SWAP2 PUSH2 0xF37 JUMP JUMPDEST DUP3 ADD SWAP2 SWAP1 PUSH1 0x0 MSTORE PUSH1 0x20 PUSH1 0x0 KECCAK256 SWAP1 JUMPDEST DUP2 SLOAD DUP2 MSTORE SWAP1 PUSH1 0x1 ADD SWAP1 PUSH1 0x20 ADD DUP1 DUP4 GT PUSH2 0xF1A JUMPI DUP3 SWAP1 SUB PUSH1 0x1F AND DUP3 ADD SWAP2 JUMPDEST POP POP POP POP POP DUP2 MSTORE PUSH1 0x20 ADD PUSH1 0x8 DUP3 ADD DUP1 SLOAD PUSH2 0xF50 SWAP1 PUSH2 0x5A18 JUMP JUMPDEST DUP1 PUSH1 0x1F ADD PUSH1 0x20 DUP1 SWAP2 DIV MUL PUSH1 0x20 ADD PUSH1 0x40 MLOAD SWAP1 DUP2 ADD PUSH1 0x40 MSTORE DUP1 SWAP3 SWAP2 SWAP1 DUP2 DUP2 MSTORE PUSH1 0x20 ADD DUP3 DUP1 SLOAD PUSH2 0xF7C SWAP1 PUSH2 0x5A18 JUMP JUMPDEST DUP1 ISZERO PUSH2 0xFC9 JUMPI DUP1 PUSH1 0x1F LT PUSH2 0xF9E JUMPI PUSH2 0x100 DUP1 DUP4 SLOAD DIV MUL DUP4 MSTORE SWAP2 PUSH1 0x20 ADD SWAP2 PUSH2 0xFC9 JUMP JUMPDEST DUP3 ADD SWAP2 SWAP1 PUSH1 0x0 MSTORE PUSH1 0x20 PUSH1 0x0 KECCAK256 SWAP1 JUMPDEST DUP2 SLOAD DUP2 MSTORE SWAP1 PUSH1 0x1 ADD SWAP1 PUSH1 0x20 ADD DUP1 DUP4 GT PUSH2 0xFAC JUMPI DUP3 SWAP1 SUB PUSH1 0x1F AND DUP3 ADD SWAP2 JUMPDEST POP POP POP POP POP DUP2 MSTORE PUSH1 0x20 ADD PUSH1 0x9 DUP3 ADD DUP1 SLOAD PUSH2 0xFE2 SWAP1 PUSH2 0x5A18 JUMP JUMPDEST DUP1 PUSH1 0x1F ADD PUSH1 0x20 DUP1 SWAP2 DIV MUL PUSH1 0x20 ADD PUSH1 0x40 MLOAD SWAP1 DUP2 ADD PUSH1 0x40 MSTORE DUP1 SWAP3 SWAP2 SWAP1 DUP2 DUP2 MSTORE PUSH1 0x20 ADD DUP3 DUP1 SLOAD PUSH2 0x100E SWAP1 PUSH2 0x5A18 JUMP JUMPDEST DUP1 ISZERO PUSH2 0x105B JUMPI DUP1 PUSH1 0x1F LT PUSH2 0x1030 JUMPI PUSH2 0x100 DUP1 DUP4 SLOAD DIV MUL DUP4 MSTORE SWAP2 PUSH1 0x20 ADD SWAP2 PUSH2 0x105B JUMP JUMPDEST DUP3 ADD SWAP2 SWAP1 PUSH1 0x0 MSTORE PUSH1 0x20 PUSH1 0x0 KECCAK256 SWAP1 JUMPDEST DUP2 SLOAD DUP2 MSTORE SWAP1 PUSH1 0x1 ADD SWAP1 PUSH1 0x20 ADD DUP1 DUP4 GT PUSH2 0x103E JUMPI DUP3 SWAP1 SUB PUSH1 0x1F AND DUP3 ADD SWAP2 JUMPDEST POP POP POP POP POP DUP2 MSTORE PUSH1 0x20 ADD PUSH1 0xA DUP3 ADD DUP1 SLOAD PUSH2 0x1074 SWAP1 PUSH2 0x5A18 JUMP JUMPDEST DUP1 PUSH1 0x1F ADD PUSH1 0x20 DUP1 SWAP2 DIV MUL PUSH1 0x20 ADD PUSH1 0x40 MLOAD SWAP1 DUP2 ADD PUSH1 0x40 MSTORE DUP1 SWAP3 SWAP2 SWAP1 DUP2 DUP2 MSTORE PUSH1 0x20 ADD DUP3 DUP1 SLOAD PUSH2 0x10A0 SWAP1 PUSH2 0x5A18 JUMP JUMPDEST DUP1 ISZERO PUSH2 0x10ED JUMPI DUP1 PUSH1 0x1F LT PUSH2 0x10C2 JUMPI PUSH2 0x100 DUP1 DUP4 SLOAD DIV MUL DUP4 MSTORE SWAP2 PUSH1 0x20 ADD SWAP2 PUSH2 0x10ED JUMP JUMPDEST DUP3 ADD SWAP2 SWAP1 PUSH1 0x0 MSTORE PUSH1 0x20 PUSH1 0x0 KECCAK256 SWAP1 JUMPDEST DUP2 SLOAD DUP2 MSTORE SWAP1 PUSH1 0x1 ADD SWAP1 PUSH1 0x20 ADD DUP1 DUP4 GT PUSH2 0x10D0 JUMPI DUP3 SWAP1 SUB PUSH1 0x1F AND DUP3 ADD SWAP2 JUMPDEST POP POP POP POP POP DUP2 MSTORE PUSH1 0x20 ADD PUSH1 0xB DUP3 ADD DUP1 SLOAD PUSH2 0x1106 SWAP1 PUSH2 0x5A18 JUMP JUMPDEST DUP1 PUSH1 0x1F ADD PUSH1 0x20 DUP1 SWAP2 DIV MUL PUSH1 0x20 ADD PUSH1 0x40 MLOAD SWAP1 DUP2 ADD PUSH1 0x40 MSTORE DUP1 SWAP3 SWAP2 SWAP1 DUP2 DUP2 MSTORE PUSH1 0x20 ADD DUP3 DUP1 SLOAD PUSH2 0x1132 SWAP1 PUSH2 0x5A18 JUMP JUMPDEST DUP1 ISZERO PUSH2 0x117F JUMPI DUP1 PUSH1 0x1F LT PUSH2 0x1154 JUMPI PUSH2 0x100 DUP1 DUP4 SLOAD DIV MUL DUP4 MSTORE SWAP2 PUSH1 0x20 ADD SWAP2 PUSH2 0x117F JUMP JUMPDEST DUP3 ADD SWAP2 SWAP1 PUSH1 0x0 MSTORE PUSH1 0x20 PUSH1 0x0 KECCAK256 SWAP1 JUMPDEST DUP2 SLOAD DUP2 MSTORE SWAP1 PUSH1 0x1 ADD SWAP1 PUSH1 0x20 ADD DUP1 DUP4 GT PUSH2 0x1162 JUMPI DUP3 SWAP1 SUB PUSH1 0x1F AND DUP3 ADD SWAP2 JUMPDEST POP POP POP POP POP DUP2 MSTORE POP POP SWAP1 POP DUP1 PUSH1 0xC0 ADD MLOAD MLOAD PUSH1 0x0 EQ ISZERO DUP1 ISZERO PUSH2 0x11A4 JUMPI POP PUSH1 0xE0 DUP2 ADD MLOAD MLOAD ISZERO ISZERO JUMPDEST DUP1 ISZERO PUSH2 0x11B1 JUMPI POP DUP1 MLOAD MLOAD ISZERO ISZERO JUMPDEST DUP1 ISZERO PUSH2 0x11C1 JUMPI POP PUSH1 0x20 DUP2 ADD MLOAD MLOAD ISZERO ISZERO JUMPDEST DUP1 ISZERO PUSH2 0x11D1 JUMPI POP PUSH1 0x40 DUP2 ADD MLOAD MLOAD ISZERO ISZERO JUMPDEST DUP1 ISZERO PUSH2 0x11E1 JUMPI POP PUSH1 0x60 DUP2 ADD MLOAD MLOAD ISZERO ISZERO JUMPDEST DUP1 ISZERO PUSH2 0x11F1 JUMPI POP PUSH1 0x80 DUP2 ADD MLOAD MLOAD ISZERO ISZERO JUMPDEST DUP1 ISZERO PUSH2 0x1201 JUMPI POP PUSH1 0xA0 DUP2 ADD MLOAD MLOAD ISZERO ISZERO JUMPDEST DUP1 ISZERO PUSH2 0x1212 JUMPI POP PUSH2 0x100 DUP2 ADD MLOAD MLOAD ISZERO ISZERO JUMPDEST ISZERO PUSH2 0x1221 JUMPI PUSH1 0x1 SWAP4 POP POP POP POP SWAP1 JUMP JUMPDEST POP DUP1 PUSH2 0x122C DUP2 PUSH2 0x5A53 JUMP JUMPDEST SWAP2 POP POP PUSH2 0xA79 JUMP JUMPDEST POP PUSH1 0x0 SWAP2 POP POP SWAP1 JUMP JUMPDEST PUSH1 0x0 PUSH1 0xB PUSH1 0xA SWAP1 SLOAD SWAP1 PUSH2 0x100 EXP SWAP1 DIV PUSH1 0x1 PUSH1 0x1 PUSH1 0xA0 SHL SUB AND PUSH1 0x1 PUSH1 0x1 PUSH1 0xA0 SHL SUB AND PUSH4 0x8E15F473 PUSH1 0x40 MLOAD DUP2 PUSH4 0xFFFFFFFF AND PUSH1 0xE0 SHL DUP2 MSTORE PUSH1 0x4 ADD PUSH1 0x20 PUSH1 0x40 MLOAD DUP1 DUP4 SUB DUP2 DUP7 DUP1 EXTCODESIZE ISZERO DUP1 ISZERO PUSH2 0x128D JUMPI PUSH1 0x0 DUP1 REVERT JUMPDEST POP GAS STATICCALL ISZERO DUP1 ISZERO PUSH2 0x12A1 JUMPI RETURNDATASIZE PUSH1 0x0 DUP1 RETURNDATACOPY RETURNDATASIZE PUSH1 0x0 REVERT JUMPDEST POP POP POP POP PUSH1 0x40 MLOAD RETURNDATASIZE PUSH1 0x1F NOT PUSH1 0x1F DUP3 ADD AND DUP3 ADD DUP1 PUSH1 0x40 MSTORE POP DUP2 ADD SWAP1 PUSH2 0x12C5 SWAP2 SWAP1 PUSH2 0x5066 JUMP JUMPDEST SWAP1 POP SWAP1 JUMP JUMPDEST PUSH1 0x0 DUP2 DUP2 MSTORE PUSH1 0x13 PUSH1 0x20 SWAP1 DUP2 MSTORE PUSH1 0x40 DUP1 DUP4 KECCAK256 PUSH1 0x2 DUP2 ADD SLOAD PUSH1 0x1 DUP3 ADD SLOAD CALLER DUP7 MSTORE PUSH1 0x14 SWAP1 SWAP5 MSTORE SWAP2 DUP5 KECCAK256 DUP1 SLOAD SWAP2 SWAP4 SWAP2 DUP6 SWAP2 SWAP1 DUP4 SWAP1 DUP2 LT PUSH2 0x1308 JUMPI PUSH2 0x1308 PUSH2 0x5AC4 JUMP JUMPDEST PUSH1 0x0 SWAP2 DUP3 MSTORE PUSH1 0x20 DUP1 DUP4 KECCAK256 CALLER DUP5 MSTORE PUSH1 0x12 DUP3 MSTORE PUSH1 0x40 DUP1 DUP6 KECCAK256 DUP8 DUP7 MSTORE SWAP1 SWAP3 MSTORE SWAP1 DUP4 KECCAK256 SLOAD PUSH1 0xC SWAP3 SWAP1 SWAP3 MUL ADD SWAP3 POP PUSH1 0xFF AND PUSH1 0x2 DUP2 GT ISZERO PUSH2 0x1345 JUMPI PUSH2 0x1345 PUSH2 0x5AAE JUMP JUMPDEST EQ PUSH2 0x1392 JUMPI PUSH1 0x40 MLOAD PUSH3 0x461BCD PUSH1 0xE5 SHL DUP2 MSTORE PUSH1 0x20 PUSH1 0x4 DUP3 ADD MSTORE PUSH1 0x15 PUSH1 0x24 DUP3 ADD MSTORE PUSH32 0x506F6C696379206973206E6F742070656E64696E670000000000000000000000 PUSH1 0x44 DUP3 ADD MSTORE PUSH1 0x64 ADD PUSH2 0xA6D JUMP JUMPDEST PUSH1 0x0 PUSH2 0x139C PUSH2 0x3D41 JUMP JUMPDEST SWAP1 POP PUSH1 0x0 DUP2 PUSH2 0x13AF DUP7 PUSH4 0x5F5E100 PUSH2 0x59B6 JUMP JUMPDEST PUSH2 0x13B9 SWAP2 SWAP1 PUSH2 0x58B7 JUMP JUMPDEST SWAP1 POP DUP1 CALLVALUE LT ISZERO PUSH2 0x140B JUMPI PUSH1 0x40 MLOAD PUSH3 0x461BCD PUSH1 0xE5 SHL DUP2 MSTORE PUSH1 0x20 PUSH1 0x4 DUP3 ADD MSTORE PUSH1 0x15 PUSH1 0x24 DUP3 ADD MSTORE PUSH32 0x4E6F7420656E6F756768204D617469632073656E740000000000000000000000 PUSH1 0x44 DUP3 ADD MSTORE PUSH1 0x64 ADD PUSH2 0xA6D JUMP JUMPDEST CALLER PUSH1 0x0 DUP2 DUP2 MSTORE PUSH1 0x12 PUSH1 0x20 SWAP1 DUP2 MSTORE PUSH1 0x40 DUP1 DUP4 KECCAK256 DUP9 DUP5 MSTORE DUP3 MSTORE SWAP2 DUP3 SWAP1 KECCAK256 DUP1 SLOAD PUSH1 0xFF NOT AND PUSH1 0x1 OR SWAP1 SSTORE DUP2 MLOAD SWAP3 DUP4 MSTORE DUP3 ADD DUP7 SWAP1 MSTORE PUSH32 0x153598A6C97963BD4D16E97786943EB68BCC8CA58077614327E965EFE69FA110 SWAP2 ADD PUSH1 0x40 MLOAD DUP1 SWAP2 SUB SWAP1 LOG1 POP POP POP POP POP POP SWAP2 SWAP1 POP JUMP JUMPDEST PUSH1 0x0 DUP4 DUP2 MSTORE PUSH1 0x1 PUSH1 0x20 MSTORE PUSH1 0x40 SWAP1 KECCAK256 SLOAD DUP4 SWAP1 PUSH1 0x1 PUSH1 0x1 PUSH1 0xA0 SHL SUB AND CALLER EQ PUSH2 0x14C3 JUMPI PUSH1 0x40 MLOAD PUSH32 0xA0C5EC6300000000000000000000000000000000000000000000000000000000 DUP2 MSTORE PUSH1 0x4 ADD PUSH1 0x40 MLOAD DUP1 SWAP2 SUB SWAP1 REVERT JUMPDEST PUSH1 0x0 DUP2 DUP2 MSTORE PUSH1 0x1 PUSH1 0x20 MSTORE PUSH1 0x40 DUP1 DUP3 KECCAK256 DUP1 SLOAD PUSH1 0x1 PUSH1 0x1 PUSH1 0xA0 SHL SUB NOT AND SWAP1 SSTORE MLOAD DUP3 SWAP2 PUSH32 0x85E1543BF2F84FE80C6BADBCE3648C8539AD1DF4D2B3D822938CA0538BE727E6 SWAP2 LOG2 PUSH2 0x1511 DUP5 DUP5 DUP5 PUSH2 0x3F54 JUMP JUMPDEST POP POP POP POP JUMP JUMPDEST PUSH1 0x4 DUP1 SLOAD PUSH2 0x1524 SWAP1 PUSH2 0x5A18 JUMP JUMPDEST DUP1 PUSH1 0x1F ADD PUSH1 0x20 DUP1 SWAP2 DIV MUL PUSH1 0x20 ADD PUSH1 0x40 MLOAD SWAP1 DUP2 ADD PUSH1 0x40 MSTORE DUP1 SWAP3 SWAP2 SWAP1 DUP2 DUP2 MSTORE PUSH1 0x20 ADD DUP3 DUP1 SLOAD PUSH2 0x1550 SWAP1 PUSH2 0x5A18 JUMP JUMPDEST DUP1 ISZERO PUSH2 0x159D JUMPI DUP1 PUSH1 0x1F LT PUSH2 0x1572 JUMPI PUSH2 0x100 DUP1 DUP4 SLOAD DIV MUL DUP4 MSTORE SWAP2 PUSH1 0x20 ADD SWAP2 PUSH2 0x159D JUMP JUMPDEST DUP3 ADD SWAP2 SWAP1 PUSH1 0x0 MSTORE PUSH1 0x20 PUSH1 0x0 KECCAK256 SWAP1 JUMPDEST DUP2 SLOAD DUP2 MSTORE SWAP1 PUSH1 0x1 ADD SWAP1 PUSH1 0x20 ADD DUP1 DUP4 GT PUSH2 0x1580 JUMPI DUP3 SWAP1 SUB PUSH1 0x1F AND DUP3 ADD SWAP2 JUMPDEST POP POP POP POP POP DUP2 JUMP JUMPDEST PUSH1 0x0 PUSH1 0xB DUP5 EQ PUSH2 0x15F7 JUMPI PUSH1 0x40 MLOAD PUSH3 0x461BCD PUSH1 0xE5 SHL DUP2 MSTORE PUSH1 0x20 PUSH1 0x4 DUP3 ADD MSTORE PUSH1 0x1B PUSH1 0x24 DUP3 ADD MSTORE PUSH32 0x496E76616C6964206E756D626572206F6620617267756D656E74730000000000 PUSH1 0x44 DUP3 ADD MSTORE PUSH1 0x64 ADD PUSH2 0xA6D JUMP JUMPDEST CALLER PUSH1 0x0 SWAP1 DUP2 MSTORE PUSH1 0x14 PUSH1 0x20 MSTORE PUSH1 0x40 DUP2 KECCAK256 SWAP1 PUSH2 0x1610 TIMESTAMP PUSH2 0x4035 JUMP JUMPDEST SWAP1 POP DUP2 PUSH1 0x40 MLOAD DUP1 PUSH2 0x180 ADD PUSH1 0x40 MSTORE DUP1 DUP10 DUP10 PUSH1 0x0 DUP2 DUP2 LT PUSH2 0x1632 JUMPI PUSH2 0x1632 PUSH2 0x5AC4 JUMP JUMPDEST SWAP1 POP PUSH1 0x20 MUL DUP2 ADD SWAP1 PUSH2 0x1644 SWAP2 SWAP1 PUSH2 0x57AB JUMP JUMPDEST DUP1 DUP1 PUSH1 0x1F ADD PUSH1 0x20 DUP1 SWAP2 DIV MUL PUSH1 0x20 ADD PUSH1 0x40 MLOAD SWAP1 DUP2 ADD PUSH1 0x40 MSTORE DUP1 SWAP4 SWAP3 SWAP2 SWAP1 DUP2 DUP2 MSTORE PUSH1 0x20 ADD DUP4 DUP4 DUP1 DUP3 DUP5 CALLDATACOPY PUSH1 0x0 SWAP3 ADD SWAP2 SWAP1 SWAP2 MSTORE POP POP POP SWAP1 DUP3 MSTORE POP PUSH1 0x20 ADD DUP10 DUP10 PUSH1 0x1 DUP2 DUP2 LT PUSH2 0x1691 JUMPI PUSH2 0x1691 PUSH2 0x5AC4 JUMP JUMPDEST SWAP1 POP PUSH1 0x20 MUL DUP2 ADD SWAP1 PUSH2 0x16A3 SWAP2 SWAP1 PUSH2 0x57AB JUMP JUMPDEST DUP1 DUP1 PUSH1 0x1F ADD PUSH1 0x20 DUP1 SWAP2 DIV MUL PUSH1 0x20 ADD PUSH1 0x40 MLOAD SWAP1 DUP2 ADD PUSH1 0x40 MSTORE DUP1 SWAP4 SWAP3 SWAP2 SWAP1 DUP2 DUP2 MSTORE PUSH1 0x20 ADD DUP4 DUP4 DUP1 DUP3 DUP5 CALLDATACOPY PUSH1 0x0 SWAP3 ADD SWAP2 SWAP1 SWAP2 MSTORE POP POP POP SWAP1 DUP3 MSTORE POP PUSH1 0x20 ADD DUP10 DUP10 PUSH1 0x2 DUP2 DUP2 LT PUSH2 0x16F0 JUMPI PUSH2 0x16F0 PUSH2 0x5AC4 JUMP JUMPDEST SWAP1 POP PUSH1 0x20 MUL DUP2 ADD SWAP1 PUSH2 0x1702 SWAP2 SWAP1 PUSH2 0x57AB JUMP JUMPDEST DUP1 DUP1 PUSH1 0x1F ADD PUSH1 0x20 DUP1 SWAP2 DIV MUL PUSH1 0x20 ADD PUSH1 0x40 MLOAD SWAP1 DUP2 ADD PUSH1 0x40 MSTORE DUP1 SWAP4 SWAP3 SWAP2 SWAP1 DUP2 DUP2 MSTORE PUSH1 0x20 ADD DUP4 DUP4 DUP1 DUP3 DUP5 CALLDATACOPY PUSH1 0x0 SWAP3 ADD SWAP2 SWAP1 SWAP2 MSTORE POP POP POP SWAP1 DUP3 MSTORE POP PUSH1 0x20 ADD DUP10 DUP10 PUSH1 0x3 DUP2 DUP2 LT PUSH2 0x174F JUMPI PUSH2 0x174F PUSH2 0x5AC4 JUMP JUMPDEST SWAP1 POP PUSH1 0x20 MUL DUP2 ADD SWAP1 PUSH2 0x1761 SWAP2 SWAP1 PUSH2 0x57AB JUMP JUMPDEST DUP1 DUP1 PUSH1 0x1F ADD PUSH1 0x20 DUP1 SWAP2 DIV MUL PUSH1 0x20 ADD PUSH1 0x40 MLOAD SWAP1 DUP2 ADD PUSH1 0x40 MSTORE DUP1 SWAP4 SWAP3 SWAP2 SWAP1 DUP2 DUP2 MSTORE PUSH1 0x20 ADD DUP4 DUP4 DUP1 DUP3 DUP5 CALLDATACOPY PUSH1 0x0 SWAP3 ADD SWAP2 SWAP1 SWAP2 MSTORE POP POP POP SWAP1 DUP3 MSTORE POP PUSH1 0x20 ADD DUP10 DUP10 PUSH1 0x4 DUP2 DUP2 LT PUSH2 0x17AE JUMPI PUSH2 0x17AE PUSH2 0x5AC4 JUMP JUMPDEST SWAP1 POP PUSH1 0x20 MUL DUP2 ADD SWAP1 PUSH2 0x17C0 SWAP2 SWAP1 PUSH2 0x57AB JUMP JUMPDEST DUP1 DUP1 PUSH1 0x1F ADD PUSH1 0x20 DUP1 SWAP2 DIV MUL PUSH1 0x20 ADD PUSH1 0x40 MLOAD SWAP1 DUP2 ADD PUSH1 0x40 MSTORE DUP1 SWAP4 SWAP3 SWAP2 SWAP1 DUP2 DUP2 MSTORE PUSH1 0x20 ADD DUP4 DUP4 DUP1 DUP3 DUP5 CALLDATACOPY PUSH1 0x0 SWAP3 ADD SWAP2 SWAP1 SWAP2 MSTORE POP POP POP SWAP1 DUP3 MSTORE POP PUSH1 0x20 ADD DUP10 DUP10 PUSH1 0x5 DUP2 DUP2 LT PUSH2 0x180D JUMPI PUSH2 0x180D PUSH2 0x5AC4 JUMP JUMPDEST SWAP1 POP PUSH1 0x20 MUL DUP2 ADD SWAP1 PUSH2 0x181F SWAP2 SWAP1 PUSH2 0x57AB JUMP JUMPDEST DUP1 DUP1 PUSH1 0x1F ADD PUSH1 0x20 DUP1 SWAP2 DIV MUL PUSH1 0x20 ADD PUSH1 0x40 MLOAD SWAP1 DUP2 ADD PUSH1 0x40 MSTORE DUP1 SWAP4 SWAP3 SWAP2 SWAP1 DUP2 DUP2 MSTORE PUSH1 0x20 ADD DUP4 DUP4 DUP1 DUP3 DUP5 CALLDATACOPY PUSH1 0x0 SWAP3 ADD SWAP2 SWAP1 SWAP2 MSTORE POP POP POP SWAP1 DUP3 MSTORE POP PUSH1 0x20 ADD DUP10 DUP10 PUSH1 0x6 DUP2 DUP2 LT PUSH2 0x186C JUMPI PUSH2 0x186C PUSH2 0x5AC4 JUMP JUMPDEST SWAP1 POP PUSH1 0x20 MUL DUP2 ADD SWAP1 PUSH2 0x187E SWAP2 SWAP1 PUSH2 0x57AB JUMP JUMPDEST DUP1 DUP1 PUSH1 0x1F ADD PUSH1 0x20 DUP1 SWAP2 DIV MUL PUSH1 0x20 ADD PUSH1 0x40 MLOAD SWAP1 DUP2 ADD PUSH1 0x40 MSTORE DUP1 SWAP4 SWAP3 SWAP2 SWAP1 DUP2 DUP2 MSTORE PUSH1 0x20 ADD DUP4 DUP4 DUP1 DUP3 DUP5 CALLDATACOPY PUSH1 0x0 SWAP3 ADD SWAP2 SWAP1 SWAP2 MSTORE POP POP POP SWAP1 DUP3 MSTORE POP PUSH1 0x20 ADD DUP10 DUP10 PUSH1 0x7 DUP2 DUP2 LT PUSH2 0x18CB JUMPI PUSH2 0x18CB PUSH2 0x5AC4 JUMP JUMPDEST SWAP1 POP PUSH1 0x20 MUL DUP2 ADD SWAP1 PUSH2 0x18DD SWAP2 SWAP1 PUSH2 0x57AB JUMP JUMPDEST DUP1 DUP1 PUSH1 0x1F ADD PUSH1 0x20 DUP1 SWAP2 DIV MUL PUSH1 0x20 ADD PUSH1 0x40 MLOAD SWAP1 DUP2 ADD PUSH1 0x40 MSTORE DUP1 SWAP4 SWAP3 SWAP2 SWAP1 DUP2 DUP2 MSTORE PUSH1 0x20 ADD DUP4 DUP4 DUP1 DUP3 DUP5 CALLDATACOPY PUSH1 0x0 SWAP3 ADD SWAP2 SWAP1 SWAP2 MSTORE POP POP POP SWAP1 DUP3 MSTORE POP PUSH1 0x20 ADD DUP10 DUP10 PUSH1 0x8 DUP2 DUP2 LT PUSH2 0x192A JUMPI PUSH2 0x192A PUSH2 0x5AC4 JUMP JUMPDEST SWAP1 POP PUSH1 0x20 MUL DUP2 ADD SWAP1 PUSH2 0x193C SWAP2 SWAP1 PUSH2 0x57AB JUMP JUMPDEST DUP1 DUP1 PUSH1 0x1F ADD PUSH1 0x20 DUP1 SWAP2 DIV MUL PUSH1 0x20 ADD PUSH1 0x40 MLOAD SWAP1 DUP2 ADD PUSH1 0x40 MSTORE DUP1 SWAP4 SWAP3 SWAP2 SWAP1 DUP2 DUP2 MSTORE PUSH1 0x20 ADD DUP4 DUP4 DUP1 DUP3 DUP5 CALLDATACOPY PUSH1 0x0 SWAP3 ADD SWAP2 SWAP1 SWAP2 MSTORE POP POP POP SWAP1 DUP3 MSTORE POP PUSH1 0x20 ADD DUP10 DUP10 PUSH1 0x9 DUP2 DUP2 LT PUSH2 0x1989 JUMPI PUSH2 0x1989 PUSH2 0x5AC4 JUMP JUMPDEST SWAP1 POP PUSH1 0x20 MUL DUP2 ADD SWAP1 PUSH2 0x199B SWAP2 SWAP1 PUSH2 0x57AB JUMP JUMPDEST DUP1 DUP1 PUSH1 0x1F ADD PUSH1 0x20 DUP1 SWAP2 DIV MUL PUSH1 0x20 ADD PUSH1 0x40 MLOAD SWAP1 DUP2 ADD PUSH1 0x40 MSTORE DUP1 SWAP4 SWAP3 SWAP2 SWAP1 DUP2 DUP2 MSTORE PUSH1 0x20 ADD DUP4 DUP4 DUP1 DUP3 DUP5 CALLDATACOPY PUSH1 0x0 SWAP3 ADD SWAP2 SWAP1 SWAP2 MSTORE POP POP POP SWAP1 DUP3 MSTORE POP PUSH1 0x20 ADD DUP10 DUP10 PUSH1 0xA DUP2 DUP2 LT PUSH2 0x19E8 JUMPI PUSH2 0x19E8 PUSH2 0x5AC4 JUMP JUMPDEST SWAP1 POP PUSH1 0x20 MUL DUP2 ADD SWAP1 PUSH2 0x19FA SWAP2 SWAP1 PUSH2 0x57AB JUMP JUMPDEST DUP1 DUP1 PUSH1 0x1F ADD PUSH1 0x20 DUP1 SWAP2 DIV MUL PUSH1 0x20 ADD PUSH1 0x40 MLOAD SWAP1 DUP2 ADD PUSH1 0x40 MSTORE DUP1 SWAP4 SWAP3 SWAP2 SWAP1 DUP2 DUP2 MSTORE PUSH1 0x20 ADD DUP4 DUP4 DUP1 DUP3 DUP5 CALLDATACOPY PUSH1 0x0 SWAP3 ADD DUP3 SWAP1 MSTORE POP SWAP4 DUP6 MSTORE POP POP POP PUSH1 0x20 SWAP2 DUP3 ADD DUP6 SWAP1 MSTORE DUP4 SLOAD PUSH1 0x1 DUP2 ADD DUP6 SSTORE SWAP4 DUP2 MSTORE DUP2 SWAP1 KECCAK256 DUP3 MLOAD DUP1 MLOAD SWAP4 SWAP5 PUSH1 0xC MUL SWAP1 SWAP2 ADD SWAP3 PUSH2 0x1A60 SWAP3 DUP5 SWAP3 ADD SWAP1 PUSH2 0x4D13 JUMP JUMPDEST POP PUSH1 0x20 DUP3 DUP2 ADD MLOAD DUP1 MLOAD PUSH2 0x1A79 SWAP3 PUSH1 0x1 DUP6 ADD SWAP3 ADD SWAP1 PUSH2 0x4D13 JUMP JUMPDEST POP PUSH1 0x40 DUP3 ADD MLOAD DUP1 MLOAD PUSH2 0x1A95 SWAP2 PUSH1 0x2 DUP5 ADD SWAP2 PUSH1 0x20 SWAP1 SWAP2 ADD SWAP1 PUSH2 0x4D13 JUMP JUMPDEST POP PUSH1 0x60 DUP3 ADD MLOAD DUP1 MLOAD PUSH2 0x1AB1 SWAP2 PUSH1 0x3 DUP5 ADD SWAP2 PUSH1 0x20 SWAP1 SWAP2 ADD SWAP1 PUSH2 0x4D13 JUMP JUMPDEST POP PUSH1 0x80 DUP3 ADD MLOAD DUP1 MLOAD PUSH2 0x1ACD SWAP2 PUSH1 0x4 DUP5 ADD SWAP2 PUSH1 0x20 SWAP1 SWAP2 ADD SWAP1 PUSH2 0x4D13 JUMP JUMPDEST POP PUSH1 0xA0 DUP3 ADD MLOAD DUP1 MLOAD PUSH2 0x1AE9 SWAP2 PUSH1 0x5 DUP5 ADD SWAP2 PUSH1 0x20 SWAP1 SWAP2 ADD SWAP1 PUSH2 0x4D13 JUMP JUMPDEST POP PUSH1 0xC0 DUP3 ADD MLOAD DUP1 MLOAD PUSH2 0x1B05 SWAP2 PUSH1 0x6 DUP5 ADD SWAP2 PUSH1 0x20 SWAP1 SWAP2 ADD SWAP1 PUSH2 0x4D13 JUMP JUMPDEST POP PUSH1 0xE0 DUP3 ADD MLOAD DUP1 MLOAD PUSH2 0x1B21 SWAP2 PUSH1 0x7 DUP5 ADD SWAP2 PUSH1 0x20 SWAP1 SWAP2 ADD SWAP1 PUSH2 0x4D13 JUMP JUMPDEST POP PUSH2 0x100 DUP3 ADD MLOAD DUP1 MLOAD PUSH2 0x1B3E SWAP2 PUSH1 0x8 DUP5 ADD SWAP2 PUSH1 0x20 SWAP1 SWAP2 ADD SWAP1 PUSH2 0x4D13 JUMP JUMPDEST POP PUSH2 0x120 DUP3 ADD MLOAD DUP1 MLOAD PUSH2 0x1B5B SWAP2 PUSH1 0x9 DUP5 ADD SWAP2 PUSH1 0x20 SWAP1 SWAP2 ADD SWAP1 PUSH2 0x4D13 JUMP JUMPDEST POP PUSH2 0x140 DUP3 ADD MLOAD DUP1 MLOAD PUSH2 0x1B78 SWAP2 PUSH1 0xA DUP5 ADD SWAP2 PUSH1 0x20 SWAP1 SWAP2 ADD SWAP1 PUSH2 0x4D13 JUMP JUMPDEST POP PUSH2 0x160 DUP3 ADD MLOAD DUP1 MLOAD PUSH2 0x1B95 SWAP2 PUSH1 0xB DUP5 ADD SWAP2 PUSH1 0x20 SWAP1 SWAP2 ADD SWAP1 PUSH2 0x4D13 JUMP JUMPDEST POP POP CALLER PUSH1 0x0 SWAP1 DUP2 MSTORE PUSH1 0x14 PUSH1 0x20 MSTORE PUSH1 0x40 DUP2 KECCAK256 SLOAD SWAP1 SWAP2 POP PUSH2 0x1BB6 SWAP1 PUSH1 0x1 SWAP1 PUSH2 0x59D5 JUMP JUMPDEST SWAP1 POP PUSH2 0x1BF2 PUSH1 0x40 DUP1 MLOAD PUSH1 0xC0 DUP2 ADD SWAP1 SWAP2 MSTORE DUP1 PUSH1 0x0 DUP2 MSTORE PUSH1 0x20 ADD PUSH1 0x0 DUP2 MSTORE PUSH1 0x20 ADD PUSH1 0x0 DUP2 MSTORE PUSH1 0x20 ADD PUSH1 0x60 DUP2 MSTORE PUSH1 0x20 ADD PUSH1 0x60 DUP2 MSTORE PUSH1 0x20 ADD PUSH1 0x60 DUP2 MSTORE POP SWAP1 JUMP JUMPDEST PUSH2 0x1C94 PUSH1 0x0 DUP1 PUSH1 0x4 DUP1 SLOAD PUSH2 0x1C05 SWAP1 PUSH2 0x5A18 JUMP JUMPDEST DUP1 PUSH1 0x1F ADD PUSH1 0x20 DUP1 SWAP2 DIV MUL PUSH1 0x20 ADD PUSH1 0x40 MLOAD SWAP1 DUP2 ADD PUSH1 0x40 MSTORE DUP1 SWAP3 SWAP2 SWAP1 DUP2 DUP2 MSTORE PUSH1 0x20 ADD DUP3 DUP1 SLOAD PUSH2 0x1C31 SWAP1 PUSH2 0x5A18 JUMP JUMPDEST DUP1 ISZERO PUSH2 0x1C7E JUMPI DUP1 PUSH1 0x1F LT PUSH2 0x1C53 JUMPI PUSH2 0x100 DUP1 DUP4 SLOAD DIV MUL DUP4 MSTORE SWAP2 PUSH1 0x20 ADD SWAP2 PUSH2 0x1C7E JUMP JUMPDEST DUP3 ADD SWAP2 SWAP1 PUSH1 0x0 MSTORE PUSH1 0x20 PUSH1 0x0 KECCAK256 SWAP1 JUMPDEST DUP2 SLOAD DUP2 MSTORE SWAP1 PUSH1 0x1 ADD SWAP1 PUSH1 0x20 ADD DUP1 DUP4 GT PUSH2 0x1C61 JUMPI DUP3 SWAP1 SUB PUSH1 0x1F AND DUP3 ADD SWAP2 JUMPDEST POP POP POP POP POP DUP5 PUSH2 0x40DF SWAP1 SWAP4 SWAP3 SWAP2 SWAP1 PUSH4 0xFFFFFFFF AND JUMP JUMPDEST PUSH1 0x0 PUSH2 0x1CA1 DUP10 PUSH1 0x1 PUSH2 0x589F JUMP JUMPDEST PUSH8 0xFFFFFFFFFFFFFFFF DUP2 GT ISZERO PUSH2 0x1CB9 JUMPI PUSH2 0x1CB9 PUSH2 0x5ADA JUMP JUMPDEST PUSH1 0x40 MLOAD SWAP1 DUP1 DUP3 MSTORE DUP1 PUSH1 0x20 MUL PUSH1 0x20 ADD DUP3 ADD PUSH1 0x40 MSTORE DUP1 ISZERO PUSH2 0x1CEC JUMPI DUP2 PUSH1 0x20 ADD JUMPDEST PUSH1 0x60 DUP2 MSTORE PUSH1 0x20 ADD SWAP1 PUSH1 0x1 SWAP1 SUB SWAP1 DUP2 PUSH2 0x1CD7 JUMPI SWAP1 POP JUMPDEST POP SWAP1 POP PUSH1 0x0 JUMPDEST DUP10 DUP2 LT ISZERO PUSH2 0x1D84 JUMPI DUP11 DUP11 DUP3 DUP2 DUP2 LT PUSH2 0x1D0C JUMPI PUSH2 0x1D0C PUSH2 0x5AC4 JUMP JUMPDEST SWAP1 POP PUSH1 0x20 MUL DUP2 ADD SWAP1 PUSH2 0x1D1E SWAP2 SWAP1 PUSH2 0x57AB JUMP JUMPDEST DUP1 DUP1 PUSH1 0x1F ADD PUSH1 0x20 DUP1 SWAP2 DIV MUL PUSH1 0x20 ADD PUSH1 0x40 MLOAD SWAP1 DUP2 ADD PUSH1 0x40 MSTORE DUP1 SWAP4 SWAP3 SWAP2 SWAP1 DUP2 DUP2 MSTORE PUSH1 0x20 ADD DUP4 DUP4 DUP1 DUP3 DUP5 CALLDATACOPY PUSH1 0x0 SWAP3 ADD SWAP2 SWAP1 SWAP2 MSTORE POP POP DUP5 MLOAD DUP6 SWAP3 POP DUP5 SWAP2 POP DUP2 LT PUSH2 0x1D66 JUMPI PUSH2 0x1D66 PUSH2 0x5AC4 JUMP JUMPDEST PUSH1 0x20 MUL PUSH1 0x20 ADD ADD DUP2 SWAP1 MSTORE POP DUP1 DUP1 PUSH2 0x1D7C SWAP1 PUSH2 0x5A53 JUMP JUMPDEST SWAP2 POP POP PUSH2 0x1CF2 JUMP JUMPDEST POP DUP4 DUP2 DUP12 DUP12 SWAP1 POP DUP2 MLOAD DUP2 LT PUSH2 0x1D9B JUMPI PUSH2 0x1D9B PUSH2 0x5AC4 JUMP JUMPDEST PUSH1 0x20 SWAP1 DUP2 MUL SWAP2 SWAP1 SWAP2 ADD ADD MSTORE PUSH2 0x1DB0 DUP3 DUP3 PUSH2 0x4173 JUMP JUMPDEST PUSH1 0x0 PUSH2 0x1DBD DUP4 DUP11 DUP11 PUSH2 0x41B3 JUMP JUMPDEST PUSH1 0x40 DUP1 MLOAD PUSH1 0x60 DUP2 ADD DUP3 MSTORE CALLER DUP1 DUP3 MSTORE PUSH1 0x20 DUP1 DUP4 ADD DUP10 DUP2 MSTORE PUSH1 0x0 DUP5 DUP7 ADD DUP2 DUP2 MSTORE DUP8 DUP3 MSTORE PUSH1 0x13 DUP5 MSTORE DUP7 DUP3 KECCAK256 SWAP6 MLOAD DUP7 SLOAD PUSH1 0x1 PUSH1 0x1 PUSH1 0xA0 SHL SUB NOT AND PUSH1 0x1 PUSH1 0x1 PUSH1 0xA0 SHL SUB SWAP1 SWAP2 AND OR DUP7 SSTORE SWAP2 MLOAD PUSH1 0x1 DUP7 ADD SSTORE SWAP1 MLOAD PUSH1 0x2 SWAP1 SWAP5 ADD SWAP4 SWAP1 SWAP4 SSTORE PUSH1 0xD DUP6 SWAP1 SSTORE SWAP1 DUP3 MSTORE PUSH1 0x11 DUP2 MSTORE DUP3 DUP3 KECCAK256 DUP9 DUP4 MSTORE SWAP1 MSTORE DUP2 DUP2 KECCAK256 DUP4 SWAP1 SSTORE SWAP1 MLOAD SWAP2 SWAP3 POP DUP3 SWAP2 PUSH32 0x790D5075E76350B19C3D15F0DE9144077F6FB31397B526CE8664D7FAF7DDE6B SWAP2 SWAP1 LOG2 SWAP11 SWAP10 POP POP POP POP POP POP POP POP POP POP JUMP JUMPDEST CALLER PUSH1 0x1 PUSH1 0x1 PUSH1 0xA0 SHL SUB PUSH32 0x0 AND EQ PUSH2 0x1EF9 JUMPI PUSH1 0x40 MLOAD PUSH32 0x1CF993F400000000000000000000000000000000000000000000000000000000 DUP2 MSTORE CALLER PUSH1 0x4 DUP3 ADD MSTORE PUSH1 0x1 PUSH1 0x1 PUSH1 0xA0 SHL SUB PUSH32 0x0 AND PUSH1 0x24 DUP3 ADD MSTORE PUSH1 0x44 ADD PUSH2 0xA6D JUMP JUMPDEST PUSH2 0xA10 DUP3 DUP3 PUSH2 0x4325 JUMP JUMPDEST PUSH2 0x1F30 PUSH1 0x40 MLOAD DUP1 PUSH1 0x60 ADD PUSH1 0x40 MSTORE DUP1 PUSH1 0x0 PUSH1 0x1 PUSH1 0x1 PUSH1 0xA0 SHL SUB AND DUP2 MSTORE PUSH1 0x20 ADD PUSH1 0x0 DUP2 MSTORE PUSH1 0x20 ADD PUSH1 0x0 DUP2 MSTORE POP SWAP1 JUMP JUMPDEST PUSH1 0x0 DUP3 DUP2 MSTORE PUSH1 0x13 PUSH1 0x20 MSTORE PUSH1 0x40 SWAP1 KECCAK256 SLOAD PUSH1 0x1 PUSH1 0x1 PUSH1 0xA0 SHL SUB AND PUSH2 0x1FBA JUMPI PUSH1 0x40 MLOAD PUSH3 0x461BCD PUSH1 0xE5 SHL DUP2 MSTORE PUSH1 0x20 PUSH1 0x4 DUP3 ADD MSTORE PUSH1 0x25 PUSH1 0x24 DUP3 ADD MSTORE PUSH32 0x4E6F206461746120666F756E6420666F722074686520676976656E2072657175 PUSH1 0x44 DUP3 ADD MSTORE PUSH32 0x6573744964000000000000000000000000000000000000000000000000000000 PUSH1 0x64 DUP3 ADD MSTORE PUSH1 0x84 ADD PUSH2 0xA6D JUMP JUMPDEST POP PUSH1 0x0 SWAP1 DUP2 MSTORE PUSH1 0x13 PUSH1 0x20 SWAP1 DUP2 MSTORE PUSH1 0x40 SWAP2 DUP3 SWAP1 KECCAK256 DUP3 MLOAD PUSH1 0x60 DUP2 ADD DUP5 MSTORE DUP2 SLOAD PUSH1 0x1 PUSH1 0x1 PUSH1 0xA0 SHL SUB AND DUP2 MSTORE PUSH1 0x1 DUP3 ADD SLOAD SWAP3 DUP2 ADD SWAP3 SWAP1 SWAP3 MSTORE PUSH1 0x2 ADD SLOAD SWAP2 DUP2 ADD SWAP2 SWAP1 SWAP2 MSTORE SWAP1 JUMP JUMPDEST PUSH2 0x2004 PUSH2 0x3EF8 JUMP JUMPDEST PUSH2 0xA10 DUP3 DUP3 PUSH2 0x43EB JUMP JUMPDEST PUSH2 0x2072 PUSH1 0x40 MLOAD DUP1 PUSH2 0x180 ADD PUSH1 0x40 MSTORE DUP1 PUSH1 0x60 DUP2 MSTORE PUSH1 0x20 ADD PUSH1 0x60 DUP2 MSTORE PUSH1 0x20 ADD PUSH1 0x60 DUP2 MSTORE PUSH1 0x20 ADD PUSH1 0x60 DUP2 MSTORE PUSH1 0x20 ADD PUSH1 0x60 DUP2 MSTORE PUSH1 0x20 ADD PUSH1 0x60 DUP2 MSTORE PUSH1 0x20 ADD PUSH1 0x60 DUP2 MSTORE PUSH1 0x20 ADD PUSH1 0x60 DUP2 MSTORE PUSH1 0x20 ADD PUSH1 0x60 DUP2 MSTORE PUSH1 0x20 ADD PUSH1 0x60 DUP2 MSTORE PUSH1 0x20 ADD PUSH1 0x60 DUP2 MSTORE PUSH1 0x20 ADD PUSH1 0x60 DUP2 MSTORE POP SWAP1 JUMP JUMPDEST PUSH1 0x1 PUSH1 0x1 PUSH1 0xA0 SHL SUB DUP4 AND PUSH1 0x0 SWAP1 DUP2 MSTORE PUSH1 0x14 PUSH1 0x20 MSTORE PUSH1 0x40 SWAP1 KECCAK256 DUP1 SLOAD DUP4 SWAP1 DUP2 LT PUSH2 0x209C JUMPI PUSH2 0x209C PUSH2 0x5AC4 JUMP JUMPDEST SWAP1 PUSH1 0x0 MSTORE PUSH1 0x20 PUSH1 0x0 KECCAK256 SWAP1 PUSH1 0xC MUL ADD PUSH1 0x40 MLOAD DUP1 PUSH2 0x180 ADD PUSH1 0x40 MSTORE SWAP1 DUP2 PUSH1 0x0 DUP3 ADD DUP1 SLOAD PUSH2 0x20C6 SWAP1 PUSH2 0x5A18 JUMP JUMPDEST DUP1 PUSH1 0x1F ADD PUSH1 0x20 DUP1 SWAP2 DIV MUL PUSH1 0x20 ADD PUSH1 0x40 MLOAD SWAP1 DUP2 ADD PUSH1 0x40 MSTORE DUP1 SWAP3 SWAP2 SWAP1 DUP2 DUP2 MSTORE PUSH1 0x20 ADD DUP3 DUP1 SLOAD PUSH2 0x20F2 SWAP1 PUSH2 0x5A18 JUMP JUMPDEST DUP1 ISZERO PUSH2 0x213F JUMPI DUP1 PUSH1 0x1F LT PUSH2 0x2114 JUMPI PUSH2 0x100 DUP1 DUP4 SLOAD DIV MUL DUP4 MSTORE SWAP2 PUSH1 0x20 ADD SWAP2 PUSH2 0x213F JUMP JUMPDEST DUP3 ADD SWAP2 SWAP1 PUSH1 0x0 MSTORE PUSH1 0x20 PUSH1 0x0 KECCAK256 SWAP1 JUMPDEST DUP2 SLOAD DUP2 MSTORE SWAP1 PUSH1 0x1 ADD SWAP1 PUSH1 0x20 ADD DUP1 DUP4 GT PUSH2 0x2122 JUMPI DUP3 SWAP1 SUB PUSH1 0x1F AND DUP3 ADD SWAP2 JUMPDEST POP POP POP POP POP DUP2 MSTORE PUSH1 0x20 ADD PUSH1 0x1 DUP3 ADD DUP1 SLOAD PUSH2 0x2158 SWAP1 PUSH2 0x5A18 JUMP JUMPDEST DUP1 PUSH1 0x1F ADD PUSH1 0x20 DUP1 SWAP2 DIV MUL PUSH1 0x20 ADD PUSH1 0x40 MLOAD SWAP1 DUP2 ADD PUSH1 0x40 MSTORE DUP1 SWAP3 SWAP2 SWAP1 DUP2 DUP2 MSTORE PUSH1 0x20 ADD DUP3 DUP1 SLOAD PUSH2 0x2184 SWAP1 PUSH2 0x5A18 JUMP JUMPDEST DUP1 ISZERO PUSH2 0x21D1 JUMPI DUP1 PUSH1 0x1F LT PUSH2 0x21A6 JUMPI PUSH2 0x100 DUP1 DUP4 SLOAD DIV MUL DUP4 MSTORE SWAP2 PUSH1 0x20 ADD SWAP2 PUSH2 0x21D1 JUMP JUMPDEST DUP3 ADD SWAP2 SWAP1 PUSH1 0x0 MSTORE PUSH1 0x20 PUSH1 0x0 KECCAK256 SWAP1 JUMPDEST DUP2 SLOAD DUP2 MSTORE SWAP1 PUSH1 0x1 ADD SWAP1 PUSH1 0x20 ADD DUP1 DUP4 GT PUSH2 0x21B4 JUMPI DUP3 SWAP1 SUB PUSH1 0x1F AND DUP3 ADD SWAP2 JUMPDEST POP POP POP POP POP DUP2 MSTORE PUSH1 0x20 ADD PUSH1 0x2 DUP3 ADD DUP1 SLOAD PUSH2 0x21EA SWAP1 PUSH2 0x5A18 JUMP JUMPDEST DUP1 PUSH1 0x1F ADD PUSH1 0x20 DUP1 SWAP2 DIV MUL PUSH1 0x20 ADD PUSH1 0x40 MLOAD SWAP1 DUP2 ADD PUSH1 0x40 MSTORE DUP1 SWAP3 SWAP2 SWAP1 DUP2 DUP2 MSTORE PUSH1 0x20 ADD DUP3 DUP1 SLOAD PUSH2 0x2216 SWAP1 PUSH2 0x5A18 JUMP JUMPDEST DUP1 ISZERO PUSH2 0x2263 JUMPI DUP1 PUSH1 0x1F LT PUSH2 0x2238 JUMPI PUSH2 0x100 DUP1 DUP4 SLOAD DIV MUL DUP4 MSTORE SWAP2 PUSH1 0x20 ADD SWAP2 PUSH2 0x2263 JUMP JUMPDEST DUP3 ADD SWAP2 SWAP1 PUSH1 0x0 MSTORE PUSH1 0x20 PUSH1 0x0 KECCAK256 SWAP1 JUMPDEST DUP2 SLOAD DUP2 MSTORE SWAP1 PUSH1 0x1 ADD SWAP1 PUSH1 0x20 ADD DUP1 DUP4 GT PUSH2 0x2246 JUMPI DUP3 SWAP1 SUB PUSH1 0x1F AND DUP3 ADD SWAP2 JUMPDEST POP POP POP POP POP DUP2 MSTORE PUSH1 0x20 ADD PUSH1 0x3 DUP3 ADD DUP1 SLOAD PUSH2 0x227C SWAP1 PUSH2 0x5A18 JUMP JUMPDEST DUP1 PUSH1 0x1F ADD PUSH1 0x20 DUP1 SWAP2 DIV MUL PUSH1 0x20 ADD PUSH1 0x40 MLOAD SWAP1 DUP2 ADD PUSH1 0x40 MSTORE DUP1 SWAP3 SWAP2 SWAP1 DUP2 DUP2 MSTORE PUSH1 0x20 ADD DUP3 DUP1 SLOAD PUSH2 0x22A8 SWAP1 PUSH2 0x5A18 JUMP JUMPDEST DUP1 ISZERO PUSH2 0x22F5 JUMPI DUP1 PUSH1 0x1F LT PUSH2 0x22CA JUMPI PUSH2 0x100 DUP1 DUP4 SLOAD DIV MUL DUP4 MSTORE SWAP2 PUSH1 0x20 ADD SWAP2 PUSH2 0x22F5 JUMP JUMPDEST DUP3 ADD SWAP2 SWAP1 PUSH1 0x0 MSTORE PUSH1 0x20 PUSH1 0x0 KECCAK256 SWAP1 JUMPDEST DUP2 SLOAD DUP2 MSTORE SWAP1 PUSH1 0x1 ADD SWAP1 PUSH1 0x20 ADD DUP1 DUP4 GT PUSH2 0x22D8 JUMPI DUP3 SWAP1 SUB PUSH1 0x1F AND DUP3 ADD SWAP2 JUMPDEST POP POP POP POP POP DUP2 MSTORE PUSH1 0x20 ADD PUSH1 0x4 DUP3 ADD DUP1 SLOAD PUSH2 0x230E SWAP1 PUSH2 0x5A18 JUMP JUMPDEST DUP1 PUSH1 0x1F ADD PUSH1 0x20 DUP1 SWAP2 DIV MUL PUSH1 0x20 ADD PUSH1 0x40 MLOAD SWAP1 DUP2 ADD PUSH1 0x40 MSTORE DUP1 SWAP3 SWAP2 SWAP1 DUP2 DUP2 MSTORE PUSH1 0x20 ADD DUP3 DUP1 SLOAD PUSH2 0x233A SWAP1 PUSH2 0x5A18 JUMP JUMPDEST DUP1 ISZERO PUSH2 0x2387 JUMPI DUP1 PUSH1 0x1F LT PUSH2 0x235C JUMPI PUSH2 0x100 DUP1 DUP4 SLOAD DIV MUL DUP4 MSTORE SWAP2 PUSH1 0x20 ADD SWAP2 PUSH2 0x2387 JUMP JUMPDEST DUP3 ADD SWAP2 SWAP1 PUSH1 0x0 MSTORE PUSH1 0x20 PUSH1 0x0 KECCAK256 SWAP1 JUMPDEST DUP2 SLOAD DUP2 MSTORE SWAP1 PUSH1 0x1 ADD SWAP1 PUSH1 0x20 ADD DUP1 DUP4 GT PUSH2 0x236A JUMPI DUP3 SWAP1 SUB PUSH1 0x1F AND DUP3 ADD SWAP2 JUMPDEST POP POP POP POP POP DUP2 MSTORE PUSH1 0x20 ADD PUSH1 0x5 DUP3 ADD DUP1 SLOAD PUSH2 0x23A0 SWAP1 PUSH2 0x5A18 JUMP JUMPDEST DUP1 PUSH1 0x1F ADD PUSH1 0x20 DUP1 SWAP2 DIV MUL PUSH1 0x20 ADD PUSH1 0x40 MLOAD SWAP1 DUP2 ADD PUSH1 0x40 MSTORE DUP1 SWAP3 SWAP2 SWAP1 DUP2 DUP2 MSTORE PUSH1 0x20 ADD DUP3 DUP1 SLOAD PUSH2 0x23CC SWAP1 PUSH2 0x5A18 JUMP JUMPDEST DUP1 ISZERO PUSH2 0x2419 JUMPI DUP1 PUSH1 0x1F LT PUSH2 0x23EE JUMPI PUSH2 0x100 DUP1 DUP4 SLOAD DIV MUL DUP4 MSTORE SWAP2 PUSH1 0x20 ADD SWAP2 PUSH2 0x2419 JUMP JUMPDEST DUP3 ADD SWAP2 SWAP1 PUSH1 0x0 MSTORE PUSH1 0x20 PUSH1 0x0 KECCAK256 SWAP1 JUMPDEST DUP2 SLOAD DUP2 MSTORE SWAP1 PUSH1 0x1 ADD SWAP1 PUSH1 0x20 ADD DUP1 DUP4 GT PUSH2 0x23FC JUMPI DUP3 SWAP1 SUB PUSH1 0x1F AND DUP3 ADD SWAP2 JUMPDEST POP POP POP POP POP DUP2 MSTORE PUSH1 0x20 ADD PUSH1 0x6 DUP3 ADD DUP1 SLOAD PUSH2 0x2432 SWAP1 PUSH2 0x5A18 JUMP JUMPDEST DUP1 PUSH1 0x1F ADD PUSH1 0x20 DUP1 SWAP2 DIV MUL PUSH1 0x20 ADD PUSH1 0x40 MLOAD SWAP1 DUP2 ADD PUSH1 0x40 MSTORE DUP1 SWAP3 SWAP2 SWAP1 DUP2 DUP2 MSTORE PUSH1 0x20 ADD DUP3 DUP1 SLOAD PUSH2 0x245E SWAP1 PUSH2 0x5A18 JUMP JUMPDEST DUP1 ISZERO PUSH2 0x24AB JUMPI DUP1 PUSH1 0x1F LT PUSH2 0x2480 JUMPI PUSH2 0x100 DUP1 DUP4 SLOAD DIV MUL DUP4 MSTORE SWAP2 PUSH1 0x20 ADD SWAP2 PUSH2 0x24AB JUMP JUMPDEST DUP3 ADD SWAP2 SWAP1 PUSH1 0x0 MSTORE PUSH1 0x20 PUSH1 0x0 KECCAK256 SWAP1 JUMPDEST DUP2 SLOAD DUP2 MSTORE SWAP1 PUSH1 0x1 ADD SWAP1 PUSH1 0x20 ADD DUP1 DUP4 GT PUSH2 0x248E JUMPI DUP3 SWAP1 SUB PUSH1 0x1F AND DUP3 ADD SWAP2 JUMPDEST POP POP POP POP POP DUP2 MSTORE PUSH1 0x20 ADD PUSH1 0x7 DUP3 ADD DUP1 SLOAD PUSH2 0x24C4 SWAP1 PUSH2 0x5A18 JUMP JUMPDEST DUP1 PUSH1 0x1F ADD PUSH1 0x20 DUP1 SWAP2 DIV MUL PUSH1 0x20 ADD PUSH1 0x40 MLOAD SWAP1 DUP2 ADD PUSH1 0x40 MSTORE DUP1 SWAP3 SWAP2 SWAP1 DUP2 DUP2 MSTORE PUSH1 0x20 ADD DUP3 DUP1 SLOAD PUSH2 0x24F0 SWAP1 PUSH2 0x5A18 JUMP JUMPDEST DUP1 ISZERO PUSH2 0x253D JUMPI DUP1 PUSH1 0x1F LT PUSH2 0x2512 JUMPI PUSH2 0x100 DUP1 DUP4 SLOAD DIV MUL DUP4 MSTORE SWAP2 PUSH1 0x20 ADD SWAP2 PUSH2 0x253D JUMP JUMPDEST DUP3 ADD SWAP2 SWAP1 PUSH1 0x0 MSTORE PUSH1 0x20 PUSH1 0x0 KECCAK256 SWAP1 JUMPDEST DUP2 SLOAD DUP2 MSTORE SWAP1 PUSH1 0x1 ADD SWAP1 PUSH1 0x20 ADD DUP1 DUP4 GT PUSH2 0x2520 JUMPI DUP3 SWAP1 SUB PUSH1 0x1F AND DUP3 ADD SWAP2 JUMPDEST POP POP POP POP POP DUP2 MSTORE PUSH1 0x20 ADD PUSH1 0x8 DUP3 ADD DUP1 SLOAD PUSH2 0x2556 SWAP1 PUSH2 0x5A18 JUMP JUMPDEST DUP1 PUSH1 0x1F ADD PUSH1 0x20 DUP1 SWAP2 DIV MUL PUSH1 0x20 ADD PUSH1 0x40 MLOAD SWAP1 DUP2 ADD PUSH1 0x40 MSTORE DUP1 SWAP3 SWAP2 SWAP1 DUP2 DUP2 MSTORE PUSH1 0x20 ADD DUP3 DUP1 SLOAD PUSH2 0x2582 SWAP1 PUSH2 0x5A18 JUMP JUMPDEST DUP1 ISZERO PUSH2 0x25CF JUMPI DUP1 PUSH1 0x1F LT PUSH2 0x25A4 JUMPI PUSH2 0x100 DUP1 DUP4 SLOAD DIV MUL DUP4 MSTORE SWAP2 PUSH1 0x20 ADD SWAP2 PUSH2 0x25CF JUMP JUMPDEST DUP3 ADD SWAP2 SWAP1 PUSH1 0x0 MSTORE PUSH1 0x20 PUSH1 0x0 KECCAK256 SWAP1 JUMPDEST DUP2 SLOAD DUP2 MSTORE SWAP1 PUSH1 0x1 ADD SWAP1 PUSH1 0x20 ADD DUP1 DUP4 GT PUSH2 0x25B2 JUMPI DUP3 SWAP1 SUB PUSH1 0x1F AND DUP3 ADD SWAP2 JUMPDEST POP POP POP POP POP DUP2 MSTORE PUSH1 0x20 ADD PUSH1 0x9 DUP3 ADD DUP1 SLOAD PUSH2 0x25E8 SWAP1 PUSH2 0x5A18 JUMP JUMPDEST DUP1 PUSH1 0x1F ADD PUSH1 0x20 DUP1 SWAP2 DIV MUL PUSH1 0x20 ADD PUSH1 0x40 MLOAD SWAP1 DUP2 ADD PUSH1 0x40 MSTORE DUP1 SWAP3 SWAP2 SWAP1 DUP2 DUP2 MSTORE PUSH1 0x20 ADD DUP3 DUP1 SLOAD PUSH2 0x2614 SWAP1 PUSH2 0x5A18 JUMP JUMPDEST DUP1 ISZERO PUSH2 0x2661 JUMPI DUP1 PUSH1 0x1F LT PUSH2 0x2636 JUMPI PUSH2 0x100 DUP1 DUP4 SLOAD DIV MUL DUP4 MSTORE SWAP2 PUSH1 0x20 ADD SWAP2 PUSH2 0x2661 JUMP JUMPDEST DUP3 ADD SWAP2 SWAP1 PUSH1 0x0 MSTORE PUSH1 0x20 PUSH1 0x0 KECCAK256 SWAP1 JUMPDEST DUP2 SLOAD DUP2 MSTORE SWAP1 PUSH1 0x1 ADD SWAP1 PUSH1 0x20 ADD DUP1 DUP4 GT PUSH2 0x2644 JUMPI DUP3 SWAP1 SUB PUSH1 0x1F AND DUP3 ADD SWAP2 JUMPDEST POP POP POP POP POP DUP2 MSTORE PUSH1 0x20 ADD PUSH1 0xA DUP3 ADD DUP1 SLOAD PUSH2 0x267A SWAP1 PUSH2 0x5A18 JUMP JUMPDEST DUP1 PUSH1 0x1F ADD PUSH1 0x20 DUP1 SWAP2 DIV MUL PUSH1 0x20 ADD PUSH1 0x40 MLOAD SWAP1 DUP2 ADD PUSH1 0x40 MSTORE DUP1 SWAP3 SWAP2 SWAP1 DUP2 DUP2 MSTORE PUSH1 0x20 ADD DUP3 DUP1 SLOAD PUSH2 0x26A6 SWAP1 PUSH2 0x5A18 JUMP JUMPDEST DUP1 ISZERO PUSH2 0x26F3 JUMPI DUP1 PUSH1 0x1F LT PUSH2 0x26C8 JUMPI PUSH2 0x100 DUP1 DUP4 SLOAD DIV MUL DUP4 MSTORE SWAP2 PUSH1 0x20 ADD SWAP2 PUSH2 0x26F3 JUMP JUMPDEST DUP3 ADD SWAP2 SWAP1 PUSH1 0x0 MSTORE PUSH1 0x20 PUSH1 0x0 KECCAK256 SWAP1 JUMPDEST DUP2 SLOAD DUP2 MSTORE SWAP1 PUSH1 0x1 ADD SWAP1 PUSH1 0x20 ADD DUP1 DUP4 GT PUSH2 0x26D6 JUMPI DUP3 SWAP1 SUB PUSH1 0x1F AND DUP3 ADD SWAP2 JUMPDEST POP POP POP POP POP DUP2 MSTORE PUSH1 0x20 ADD PUSH1 0xB DUP3 ADD DUP1 SLOAD PUSH2 0x270C SWAP1 PUSH2 0x5A18 JUMP JUMPDEST DUP1 PUSH1 0x1F ADD PUSH1 0x20 DUP1 SWAP2 DIV MUL PUSH1 0x20 ADD PUSH1 0x40 MLOAD SWAP1 DUP2 ADD PUSH1 0x40 MSTORE DUP1 SWAP3 SWAP2 SWAP1 DUP2 DUP2 MSTORE PUSH1 0x20 ADD DUP3 DUP1 SLOAD PUSH2 0x2738 SWAP1 PUSH2 0x5A18 JUMP JUMPDEST DUP1 ISZERO PUSH2 0x2785 JUMPI DUP1 PUSH1 0x1F LT PUSH2 0x275A JUMPI PUSH2 0x100 DUP1 DUP4 SLOAD DIV MUL DUP4 MSTORE SWAP2 PUSH1 0x20 ADD SWAP2 PUSH2 0x2785 JUMP JUMPDEST DUP3 ADD SWAP2 SWAP1 PUSH1 0x0 MSTORE PUSH1 0x20 PUSH1 0x0 KECCAK256 SWAP1 JUMPDEST DUP2 SLOAD DUP2 MSTORE SWAP1 PUSH1 0x1 ADD SWAP1 PUSH1 0x20 ADD DUP1 DUP4 GT PUSH2 0x2768 JUMPI DUP3 SWAP1 SUB PUSH1 0x1F AND DUP3 ADD SWAP2 JUMPDEST POP POP POP POP POP DUP2 MSTORE POP POP SWAP1 POP JUMPDEST SWAP3 SWAP2 POP POP JUMP JUMPDEST PUSH1 0x60 PUSH1 0x4 DUP1 SLOAD PUSH2 0x27A6 SWAP1 PUSH2 0x5A18 JUMP JUMPDEST DUP1 PUSH1 0x1F ADD PUSH1 0x20 DUP1 SWAP2 DIV MUL PUSH1 0x20 ADD PUSH1 0x40 MLOAD SWAP1 DUP2 ADD PUSH1 0x40 MSTORE DUP1 SWAP3 SWAP2 SWAP1 DUP2 DUP2 MSTORE PUSH1 0x20 ADD DUP3 DUP1 SLOAD PUSH2 0x27D2 SWAP1 PUSH2 0x5A18 JUMP JUMPDEST DUP1 ISZERO PUSH2 0x281F JUMPI DUP1 PUSH1 0x1F LT PUSH2 0x27F4 JUMPI PUSH2 0x100 DUP1 DUP4 SLOAD DIV MUL DUP4 MSTORE SWAP2 PUSH1 0x20 ADD SWAP2 PUSH2 0x281F JUMP JUMPDEST DUP3 ADD SWAP2 SWAP1 PUSH1 0x0 MSTORE PUSH1 0x20 PUSH1 0x0 KECCAK256 SWAP1 JUMPDEST DUP2 SLOAD DUP2 MSTORE SWAP1 PUSH1 0x1 ADD SWAP1 PUSH1 0x20 ADD DUP1 DUP4 GT PUSH2 0x2802 JUMPI DUP3 SWAP1 SUB PUSH1 0x1F AND DUP3 ADD SWAP2 JUMPDEST POP POP POP POP POP SWAP1 POP SWAP1 JUMP JUMPDEST PUSH2 0x2831 PUSH2 0x3EF8 JUMP JUMPDEST PUSH1 0x5 DUP1 SLOAD PUSH1 0x1 PUSH1 0x1 PUSH1 0xA0 SHL SUB NOT AND PUSH1 0x1 PUSH1 0x1 PUSH1 0xA0 SHL SUB SWAP3 SWAP1 SWAP3 AND SWAP2 SWAP1 SWAP2 OR SWAP1 SSTORE JUMP JUMPDEST PUSH1 0x3 SLOAD PUSH1 0x1 PUSH1 0x1 PUSH1 0xA0 SHL SUB AND CALLER EQ PUSH2 0x28AD JUMPI PUSH1 0x40 MLOAD PUSH3 0x461BCD PUSH1 0xE5 SHL DUP2 MSTORE PUSH1 0x20 PUSH1 0x4 DUP3 ADD MSTORE PUSH1 0x16 PUSH1 0x24 DUP3 ADD MSTORE PUSH32 0x4D7573742062652070726F706F736564206F776E657200000000000000000000 PUSH1 0x44 DUP3 ADD MSTORE PUSH1 0x64 ADD PUSH2 0xA6D JUMP JUMPDEST PUSH1 0x2 DUP1 SLOAD PUSH1 0x1 PUSH1 0x1 PUSH1 0xA0 SHL SUB NOT DUP1 DUP3 AND CALLER SWAP1 DUP2 OR SWAP1 SWAP4 SSTORE PUSH1 0x3 DUP1 SLOAD SWAP1 SWAP2 AND SWAP1 SSTORE PUSH1 0x40 MLOAD PUSH1 0x1 PUSH1 0x1 PUSH1 0xA0 SHL SUB SWAP1 SWAP2 AND SWAP2 SWAP1 DUP3 SWAP1 PUSH32 0x8BE0079C531659141344CD1FD0A4F28419497F9722A3DAAFE3B4186F6B6457E0 SWAP1 PUSH1 0x0 SWAP1 LOG3 POP JUMP JUMPDEST PUSH1 0x1 PUSH1 0x1 PUSH1 0xA0 SHL SUB DUP2 AND PUSH1 0x0 SWAP1 DUP2 MSTORE PUSH1 0x14 PUSH1 0x20 SWAP1 DUP2 MSTORE PUSH1 0x40 DUP1 DUP4 KECCAK256 DUP1 SLOAD DUP3 MLOAD DUP2 DUP6 MUL DUP2 ADD DUP6 ADD SWAP1 SWAP4 MSTORE DUP1 DUP4 MSTORE PUSH1 0x60 SWAP5 SWAP3 SWAP4 SWAP2 SWAP3 SWAP1 SWAP2 DUP5 ADD JUMPDEST DUP3 DUP3 LT ISZERO PUSH2 0x304B JUMPI DUP4 DUP3 SWAP1 PUSH1 0x0 MSTORE PUSH1 0x20 PUSH1 0x0 KECCAK256 SWAP1 PUSH1 0xC MUL ADD PUSH1 0x40 MLOAD DUP1 PUSH2 0x180 ADD PUSH1 0x40 MSTORE SWAP1 DUP2 PUSH1 0x0 DUP3 ADD DUP1 SLOAD PUSH2 0x2974 SWAP1 PUSH2 0x5A18 JUMP JUMPDEST DUP1 PUSH1 0x1F ADD PUSH1 0x20 DUP1 SWAP2 DIV MUL PUSH1 0x20 ADD PUSH1 0x40 MLOAD SWAP1 DUP2 ADD PUSH1 0x40 MSTORE DUP1 SWAP3 SWAP2 SWAP1 DUP2 DUP2 MSTORE PUSH1 0x20 ADD DUP3 DUP1 SLOAD PUSH2 0x29A0 SWAP1 PUSH2 0x5A18 JUMP JUMPDEST DUP1 ISZERO PUSH2 0x29ED JUMPI DUP1 PUSH1 0x1F LT PUSH2 0x29C2 JUMPI PUSH2 0x100 DUP1 DUP4 SLOAD DIV MUL DUP4 MSTORE SWAP2 PUSH1 0x20 ADD SWAP2 PUSH2 0x29ED JUMP JUMPDEST DUP3 ADD SWAP2 SWAP1 PUSH1 0x0 MSTORE PUSH1 0x20 PUSH1 0x0 KECCAK256 SWAP1 JUMPDEST DUP2 SLOAD DUP2 MSTORE SWAP1 PUSH1 0x1 ADD SWAP1 PUSH1 0x20 ADD DUP1 DUP4 GT PUSH2 0x29D0 JUMPI DUP3 SWAP1 SUB PUSH1 0x1F AND DUP3 ADD SWAP2 JUMPDEST POP POP POP POP POP DUP2 MSTORE PUSH1 0x20 ADD PUSH1 0x1 DUP3 ADD DUP1 SLOAD PUSH2 0x2A06 SWAP1 PUSH2 0x5A18 JUMP JUMPDEST DUP1 PUSH1 0x1F ADD PUSH1 0x20 DUP1 SWAP2 DIV MUL PUSH1 0x20 ADD PUSH1 0x40 MLOAD SWAP1 DUP2 ADD PUSH1 0x40 MSTORE DUP1 SWAP3 SWAP2 SWAP1 DUP2 DUP2 MSTORE PUSH1 0x20 ADD DUP3 DUP1 SLOAD PUSH2 0x2A32 SWAP1 PUSH2 0x5A18 JUMP JUMPDEST DUP1 ISZERO PUSH2 0x2A7F JUMPI DUP1 PUSH1 0x1F LT PUSH2 0x2A54 JUMPI PUSH2 0x100 DUP1 DUP4 SLOAD DIV MUL DUP4 MSTORE SWAP2 PUSH1 0x20 ADD SWAP2 PUSH2 0x2A7F JUMP JUMPDEST DUP3 ADD SWAP2 SWAP1 PUSH1 0x0 MSTORE PUSH1 0x20 PUSH1 0x0 KECCAK256 SWAP1 JUMPDEST DUP2 SLOAD DUP2 MSTORE SWAP1 PUSH1 0x1 ADD SWAP1 PUSH1 0x20 ADD DUP1 DUP4 GT PUSH2 0x2A62 JUMPI DUP3 SWAP1 SUB PUSH1 0x1F AND DUP3 ADD SWAP2 JUMPDEST POP POP POP POP POP DUP2 MSTORE PUSH1 0x20 ADD PUSH1 0x2 DUP3 ADD DUP1 SLOAD PUSH2 0x2A98 SWAP1 PUSH2 0x5A18 JUMP JUMPDEST DUP1 PUSH1 0x1F ADD PUSH1 0x20 DUP1 SWAP2 DIV MUL PUSH1 0x20 ADD PUSH1 0x40 MLOAD SWAP1 DUP2 ADD PUSH1 0x40 MSTORE DUP1 SWAP3 SWAP2 SWAP1 DUP2 DUP2 MSTORE PUSH1 0x20 ADD DUP3 DUP1 SLOAD PUSH2 0x2AC4 SWAP1 PUSH2 0x5A18 JUMP JUMPDEST DUP1 ISZERO PUSH2 0x2B11 JUMPI DUP1 PUSH1 0x1F LT PUSH2 0x2AE6 JUMPI PUSH2 0x100 DUP1 DUP4 SLOAD DIV MUL DUP4 MSTORE SWAP2 PUSH1 0x20 ADD SWAP2 PUSH2 0x2B11 JUMP JUMPDEST DUP3 ADD SWAP2 SWAP1 PUSH1 0x0 MSTORE PUSH1 0x20 PUSH1 0x0 KECCAK256 SWAP1 JUMPDEST DUP2 SLOAD DUP2 MSTORE SWAP1 PUSH1 0x1 ADD SWAP1 PUSH1 0x20 ADD DUP1 DUP4 GT PUSH2 0x2AF4 JUMPI DUP3 SWAP1 SUB PUSH1 0x1F AND DUP3 ADD SWAP2 JUMPDEST POP POP POP POP POP DUP2 MSTORE PUSH1 0x20 ADD PUSH1 0x3 DUP3 ADD DUP1 SLOAD PUSH2 0x2B2A SWAP1 PUSH2 0x5A18 JUMP JUMPDEST DUP1 PUSH1 0x1F ADD PUSH1 0x20 DUP1 SWAP2 DIV MUL PUSH1 0x20 ADD PUSH1 0x40 MLOAD SWAP1 DUP2 ADD PUSH1 0x40 MSTORE DUP1 SWAP3 SWAP2 SWAP1 DUP2 DUP2 MSTORE PUSH1 0x20 ADD DUP3 DUP1 SLOAD PUSH2 0x2B56 SWAP1 PUSH2 0x5A18 JUMP JUMPDEST DUP1 ISZERO PUSH2 0x2BA3 JUMPI DUP1 PUSH1 0x1F LT PUSH2 0x2B78 JUMPI PUSH2 0x100 DUP1 DUP4 SLOAD DIV MUL DUP4 MSTORE SWAP2 PUSH1 0x20 ADD SWAP2 PUSH2 0x2BA3 JUMP JUMPDEST DUP3 ADD SWAP2 SWAP1 PUSH1 0x0 MSTORE PUSH1 0x20 PUSH1 0x0 KECCAK256 SWAP1 JUMPDEST DUP2 SLOAD DUP2 MSTORE SWAP1 PUSH1 0x1 ADD SWAP1 PUSH1 0x20 ADD DUP1 DUP4 GT PUSH2 0x2B86 JUMPI DUP3 SWAP1 SUB PUSH1 0x1F AND DUP3 ADD SWAP2 JUMPDEST POP POP POP POP POP DUP2 MSTORE PUSH1 0x20 ADD PUSH1 0x4 DUP3 ADD DUP1 SLOAD PUSH2 0x2BBC SWAP1 PUSH2 0x5A18 JUMP JUMPDEST DUP1 PUSH1 0x1F ADD PUSH1 0x20 DUP1 SWAP2 DIV MUL PUSH1 0x20 ADD PUSH1 0x40 MLOAD SWAP1 DUP2 ADD PUSH1 0x40 MSTORE DUP1 SWAP3 SWAP2 SWAP1 DUP2 DUP2 MSTORE PUSH1 0x20 ADD DUP3 DUP1 SLOAD PUSH2 0x2BE8 SWAP1 PUSH2 0x5A18 JUMP JUMPDEST DUP1 ISZERO PUSH2 0x2C35 JUMPI DUP1 PUSH1 0x1F LT PUSH2 0x2C0A JUMPI PUSH2 0x100 DUP1 DUP4 SLOAD DIV MUL DUP4 MSTORE SWAP2 PUSH1 0x20 ADD SWAP2 PUSH2 0x2C35 JUMP JUMPDEST DUP3 ADD SWAP2 SWAP1 PUSH1 0x0 MSTORE PUSH1 0x20 PUSH1 0x0 KECCAK256 SWAP1 JUMPDEST DUP2 SLOAD DUP2 MSTORE SWAP1 PUSH1 0x1 ADD SWAP1 PUSH1 0x20 ADD DUP1 DUP4 GT PUSH2 0x2C18 JUMPI DUP3 SWAP1 SUB PUSH1 0x1F AND DUP3 ADD SWAP2 JUMPDEST POP POP POP POP POP DUP2 MSTORE PUSH1 0x20 ADD PUSH1 0x5 DUP3 ADD DUP1 SLOAD PUSH2 0x2C4E SWAP1 PUSH2 0x5A18 JUMP JUMPDEST DUP1 PUSH1 0x1F ADD PUSH1 0x20 DUP1 SWAP2 DIV MUL PUSH1 0x20 ADD PUSH1 0x40 MLOAD SWAP1 DUP2 ADD PUSH1 0x40 MSTORE DUP1 SWAP3 SWAP2 SWAP1 DUP2 DUP2 MSTORE PUSH1 0x20 ADD DUP3 DUP1 SLOAD PUSH2 0x2C7A SWAP1 PUSH2 0x5A18 JUMP JUMPDEST DUP1 ISZERO PUSH2 0x2CC7 JUMPI DUP1 PUSH1 0x1F LT PUSH2 0x2C9C JUMPI PUSH2 0x100 DUP1 DUP4 SLOAD DIV MUL DUP4 MSTORE SWAP2 PUSH1 0x20 ADD SWAP2 PUSH2 0x2CC7 JUMP JUMPDEST DUP3 ADD SWAP2 SWAP1 PUSH1 0x0 MSTORE PUSH1 0x20 PUSH1 0x0 KECCAK256 SWAP1 JUMPDEST DUP2 SLOAD DUP2 MSTORE SWAP1 PUSH1 0x1 ADD SWAP1 PUSH1 0x20 ADD DUP1 DUP4 GT PUSH2 0x2CAA JUMPI DUP3 SWAP1 SUB PUSH1 0x1F AND DUP3 ADD SWAP2 JUMPDEST POP POP POP POP POP DUP2 MSTORE PUSH1 0x20 ADD PUSH1 0x6 DUP3 ADD DUP1 SLOAD PUSH2 0x2CE0 SWAP1 PUSH2 0x5A18 JUMP JUMPDEST DUP1 PUSH1 0x1F ADD PUSH1 0x20 DUP1 SWAP2 DIV MUL PUSH1 0x20 ADD PUSH1 0x40 MLOAD SWAP1 DUP2 ADD PUSH1 0x40 MSTORE DUP1 SWAP3 SWAP2 SWAP1 DUP2 DUP2 MSTORE PUSH1 0x20 ADD DUP3 DUP1 SLOAD PUSH2 0x2D0C SWAP1 PUSH2 0x5A18 JUMP JUMPDEST DUP1 ISZERO PUSH2 0x2D59 JUMPI DUP1 PUSH1 0x1F LT PUSH2 0x2D2E JUMPI PUSH2 0x100 DUP1 DUP4 SLOAD DIV MUL DUP4 MSTORE SWAP2 PUSH1 0x20 ADD SWAP2 PUSH2 0x2D59 JUMP JUMPDEST DUP3 ADD SWAP2 SWAP1 PUSH1 0x0 MSTORE PUSH1 0x20 PUSH1 0x0 KECCAK256 SWAP1 JUMPDEST DUP2 SLOAD DUP2 MSTORE SWAP1 PUSH1 0x1 ADD SWAP1 PUSH1 0x20 ADD DUP1 DUP4 GT PUSH2 0x2D3C JUMPI DUP3 SWAP1 SUB PUSH1 0x1F AND DUP3 ADD SWAP2 JUMPDEST POP POP POP POP POP DUP2 MSTORE PUSH1 0x20 ADD PUSH1 0x7 DUP3 ADD DUP1 SLOAD PUSH2 0x2D72 SWAP1 PUSH2 0x5A18 JUMP JUMPDEST DUP1 PUSH1 0x1F ADD PUSH1 0x20 DUP1 SWAP2 DIV MUL PUSH1 0x20 ADD PUSH1 0x40 MLOAD SWAP1 DUP2 ADD PUSH1 0x40 MSTORE DUP1 SWAP3 SWAP2 SWAP1 DUP2 DUP2 MSTORE PUSH1 0x20 ADD DUP3 DUP1 SLOAD PUSH2 0x2D9E SWAP1 PUSH2 0x5A18 JUMP JUMPDEST DUP1 ISZERO PUSH2 0x2DEB JUMPI DUP1 PUSH1 0x1F LT PUSH2 0x2DC0 JUMPI PUSH2 0x100 DUP1 DUP4 SLOAD DIV MUL DUP4 MSTORE SWAP2 PUSH1 0x20 ADD SWAP2 PUSH2 0x2DEB JUMP JUMPDEST DUP3 ADD SWAP2 SWAP1 PUSH1 0x0 MSTORE PUSH1 0x20 PUSH1 0x0 KECCAK256 SWAP1 JUMPDEST DUP2 SLOAD DUP2 MSTORE SWAP1 PUSH1 0x1 ADD SWAP1 PUSH1 0x20 ADD DUP1 DUP4 GT PUSH2 0x2DCE JUMPI DUP3 SWAP1 SUB PUSH1 0x1F AND DUP3 ADD SWAP2 JUMPDEST POP POP POP POP POP DUP2 MSTORE PUSH1 0x20 ADD PUSH1 0x8 DUP3 ADD DUP1 SLOAD PUSH2 0x2E04 SWAP1 PUSH2 0x5A18 JUMP JUMPDEST DUP1 PUSH1 0x1F ADD PUSH1 0x20 DUP1 SWAP2 DIV MUL PUSH1 0x20 ADD PUSH1 0x40 MLOAD SWAP1 DUP2 ADD PUSH1 0x40 MSTORE DUP1 SWAP3 SWAP2 SWAP1 DUP2 DUP2 MSTORE PUSH1 0x20 ADD DUP3 DUP1 SLOAD PUSH2 0x2E30 SWAP1 PUSH2 0x5A18 JUMP JUMPDEST DUP1 ISZERO PUSH2 0x2E7D JUMPI DUP1 PUSH1 0x1F LT PUSH2 0x2E52 JUMPI PUSH2 0x100 DUP1 DUP4 SLOAD DIV MUL DUP4 MSTORE SWAP2 PUSH1 0x20 ADD SWAP2 PUSH2 0x2E7D JUMP JUMPDEST DUP3 ADD SWAP2 SWAP1 PUSH1 0x0 MSTORE PUSH1 0x20 PUSH1 0x0 KECCAK256 SWAP1 JUMPDEST DUP2 SLOAD DUP2 MSTORE SWAP1 PUSH1 0x1 ADD SWAP1 PUSH1 0x20 ADD DUP1 DUP4 GT PUSH2 0x2E60 JUMPI DUP3 SWAP1 SUB PUSH1 0x1F AND DUP3 ADD SWAP2 JUMPDEST POP POP POP POP POP DUP2 MSTORE PUSH1 0x20 ADD PUSH1 0x9 DUP3 ADD DUP1 SLOAD PUSH2 0x2E96 SWAP1 PUSH2 0x5A18 JUMP JUMPDEST DUP1 PUSH1 0x1F ADD PUSH1 0x20 DUP1 SWAP2 DIV MUL PUSH1 0x20 ADD PUSH1 0x40 MLOAD SWAP1 DUP2 ADD PUSH1 0x40 MSTORE DUP1 SWAP3 SWAP2 SWAP1 DUP2 DUP2 MSTORE PUSH1 0x20 ADD DUP3 DUP1 SLOAD PUSH2 0x2EC2 SWAP1 PUSH2 0x5A18 JUMP JUMPDEST DUP1 ISZERO PUSH2 0x2F0F JUMPI DUP1 PUSH1 0x1F LT PUSH2 0x2EE4 JUMPI PUSH2 0x100 DUP1 DUP4 SLOAD DIV MUL DUP4 MSTORE SWAP2 PUSH1 0x20 ADD SWAP2 PUSH2 0x2F0F JUMP JUMPDEST DUP3 ADD SWAP2 SWAP1 PUSH1 0x0 MSTORE PUSH1 0x20 PUSH1 0x0 KECCAK256 SWAP1 JUMPDEST DUP2 SLOAD DUP2 MSTORE SWAP1 PUSH1 0x1 ADD SWAP1 PUSH1 0x20 ADD DUP1 DUP4 GT PUSH2 0x2EF2 JUMPI DUP3 SWAP1 SUB PUSH1 0x1F AND DUP3 ADD SWAP2 JUMPDEST POP POP POP POP POP DUP2 MSTORE PUSH1 0x20 ADD PUSH1 0xA DUP3 ADD DUP1 SLOAD PUSH2 0x2F28 SWAP1 PUSH2 0x5A18 JUMP JUMPDEST DUP1 PUSH1 0x1F ADD PUSH1 0x20 DUP1 SWAP2 DIV MUL PUSH1 0x20 ADD PUSH1 0x40 MLOAD SWAP1 DUP2 ADD PUSH1 0x40 MSTORE DUP1 SWAP3 SWAP2 SWAP1 DUP2 DUP2 MSTORE PUSH1 0x20 ADD DUP3 DUP1 SLOAD PUSH2 0x2F54 SWAP1 PUSH2 0x5A18 JUMP JUMPDEST DUP1 ISZERO PUSH2 0x2FA1 JUMPI DUP1 PUSH1 0x1F LT PUSH2 0x2F76 JUMPI PUSH2 0x100 DUP1 DUP4 SLOAD DIV MUL DUP4 MSTORE SWAP2 PUSH1 0x20 ADD SWAP2 PUSH2 0x2FA1 JUMP JUMPDEST DUP3 ADD SWAP2 SWAP1 PUSH1 0x0 MSTORE PUSH1 0x20 PUSH1 0x0 KECCAK256 SWAP1 JUMPDEST DUP2 SLOAD DUP2 MSTORE SWAP1 PUSH1 0x1 ADD SWAP1 PUSH1 0x20 ADD DUP1 DUP4 GT PUSH2 0x2F84 JUMPI DUP3 SWAP1 SUB PUSH1 0x1F AND DUP3 ADD SWAP2 JUMPDEST POP POP POP POP POP DUP2 MSTORE PUSH1 0x20 ADD PUSH1 0xB DUP3 ADD DUP1 SLOAD PUSH2 0x2FBA SWAP1 PUSH2 0x5A18 JUMP JUMPDEST DUP1 PUSH1 0x1F ADD PUSH1 0x20 DUP1 SWAP2 DIV MUL PUSH1 0x20 ADD PUSH1 0x40 MLOAD SWAP1 DUP2 ADD PUSH1 0x40 MSTORE DUP1 SWAP3 SWAP2 SWAP1 DUP2 DUP2 MSTORE PUSH1 0x20 ADD DUP3 DUP1 SLOAD PUSH2 0x2FE6 SWAP1 PUSH2 0x5A18 JUMP JUMPDEST DUP1 ISZERO PUSH2 0x3033 JUMPI DUP1 PUSH1 0x1F LT PUSH2 0x3008 JUMPI PUSH2 0x100 DUP1 DUP4 SLOAD DIV MUL DUP4 MSTORE SWAP2 PUSH1 0x20 ADD SWAP2 PUSH2 0x3033 JUMP JUMPDEST DUP3 ADD SWAP2 SWAP1 PUSH1 0x0 MSTORE PUSH1 0x20 PUSH1 0x0 KECCAK256 SWAP1 JUMPDEST DUP2 SLOAD DUP2 MSTORE SWAP1 PUSH1 0x1 ADD SWAP1 PUSH1 0x20 ADD DUP1 DUP4 GT PUSH2 0x3016 JUMPI DUP3 SWAP1 SUB PUSH1 0x1F AND DUP3 ADD SWAP2 JUMPDEST POP POP POP POP POP DUP2 MSTORE POP POP DUP2 MSTORE PUSH1 0x20 ADD SWAP1 PUSH1 0x1 ADD SWAP1 PUSH2 0x2940 JUMP JUMPDEST POP POP POP POP SWAP1 POP SWAP2 SWAP1 POP JUMP JUMPDEST PUSH1 0x8 DUP2 DUP2 SLOAD DUP2 LT PUSH2 0x3066 JUMPI PUSH1 0x0 DUP1 REVERT JUMPDEST PUSH1 0x0 SWAP2 DUP3 MSTORE PUSH1 0x20 SWAP1 SWAP2 KECCAK256 ADD SLOAD SWAP1 POP DUP2 JUMP JUMPDEST PUSH1 0x14 PUSH1 0x20 MSTORE DUP2 PUSH1 0x0 MSTORE PUSH1 0x40 PUSH1 0x0 KECCAK256 DUP2 DUP2 SLOAD DUP2 LT PUSH2 0x3093 JUMPI PUSH1 0x0 DUP1 REVERT JUMPDEST SWAP1 PUSH1 0x0 MSTORE PUSH1 0x20 PUSH1 0x0 KECCAK256 SWAP1 PUSH1 0xC MUL ADD PUSH1 0x0 SWAP2 POP SWAP2 POP POP DUP1 PUSH1 0x0 ADD DUP1 SLOAD PUSH2 0x30B7 SWAP1 PUSH2 0x5A18 JUMP JUMPDEST DUP1 PUSH1 0x1F ADD PUSH1 0x20 DUP1 SWAP2 DIV MUL PUSH1 0x20 ADD PUSH1 0x40 MLOAD SWAP1 DUP2 ADD PUSH1 0x40 MSTORE DUP1 SWAP3 SWAP2 SWAP1 DUP2 DUP2 MSTORE PUSH1 0x20 ADD DUP3 DUP1 SLOAD PUSH2 0x30E3 SWAP1 PUSH2 0x5A18 JUMP JUMPDEST DUP1 ISZERO PUSH2 0x3130 JUMPI DUP1 PUSH1 0x1F LT PUSH2 0x3105 JUMPI PUSH2 0x100 DUP1 DUP4 SLOAD DIV MUL DUP4 MSTORE SWAP2 PUSH1 0x20 ADD SWAP2 PUSH2 0x3130 JUMP JUMPDEST DUP3 ADD SWAP2 SWAP1 PUSH1 0x0 MSTORE PUSH1 0x20 PUSH1 0x0 KECCAK256 SWAP1 JUMPDEST DUP2 SLOAD DUP2 MSTORE SWAP1 PUSH1 0x1 ADD SWAP1 PUSH1 0x20 ADD DUP1 DUP4 GT PUSH2 0x3113 JUMPI DUP3 SWAP1 SUB PUSH1 0x1F AND DUP3 ADD SWAP2 JUMPDEST POP POP POP POP POP SWAP1 DUP1 PUSH1 0x1 ADD DUP1 SLOAD PUSH2 0x3145 SWAP1 PUSH2 0x5A18 JUMP JUMPDEST DUP1 PUSH1 0x1F ADD PUSH1 0x20 DUP1 SWAP2 DIV MUL PUSH1 0x20 ADD PUSH1 0x40 MLOAD SWAP1 DUP2 ADD PUSH1 0x40 MSTORE DUP1 SWAP3 SWAP2 SWAP1 DUP2 DUP2 MSTORE PUSH1 0x20 ADD DUP3 DUP1 SLOAD PUSH2 0x3171 SWAP1 PUSH2 0x5A18 JUMP JUMPDEST DUP1 ISZERO PUSH2 0x31BE JUMPI DUP1 PUSH1 0x1F LT PUSH2 0x3193 JUMPI PUSH2 0x100 DUP1 DUP4 SLOAD DIV MUL DUP4 MSTORE SWAP2 PUSH1 0x20 ADD SWAP2 PUSH2 0x31BE JUMP JUMPDEST DUP3 ADD SWAP2 SWAP1 PUSH1 0x0 MSTORE PUSH1 0x20 PUSH1 0x0 KECCAK256 SWAP1 JUMPDEST DUP2 SLOAD DUP2 MSTORE SWAP1 PUSH1 0x1 ADD SWAP1 PUSH1 0x20 ADD DUP1 DUP4 GT PUSH2 0x31A1 JUMPI DUP3 SWAP1 SUB PUSH1 0x1F AND DUP3 ADD SWAP2 JUMPDEST POP POP POP POP POP SWAP1 DUP1 PUSH1 0x2 ADD DUP1 SLOAD PUSH2 0x31D3 SWAP1 PUSH2 0x5A18 JUMP JUMPDEST DUP1 PUSH1 0x1F ADD PUSH1 0x20 DUP1 SWAP2 DIV MUL PUSH1 0x20 ADD PUSH1 0x40 MLOAD SWAP1 DUP2 ADD PUSH1 0x40 MSTORE DUP1 SWAP3 SWAP2 SWAP1 DUP2 DUP2 MSTORE PUSH1 0x20 ADD DUP3 DUP1 SLOAD PUSH2 0x31FF SWAP1 PUSH2 0x5A18 JUMP JUMPDEST DUP1 ISZERO PUSH2 0x324C JUMPI DUP1 PUSH1 0x1F LT PUSH2 0x3221 JUMPI PUSH2 0x100 DUP1 DUP4 SLOAD DIV MUL DUP4 MSTORE SWAP2 PUSH1 0x20 ADD SWAP2 PUSH2 0x324C JUMP JUMPDEST DUP3 ADD SWAP2 SWAP1 PUSH1 0x0 MSTORE PUSH1 0x20 PUSH1 0x0 KECCAK256 SWAP1 JUMPDEST DUP2 SLOAD DUP2 MSTORE SWAP1 PUSH1 0x1 ADD SWAP1 PUSH1 0x20 ADD DUP1 DUP4 GT PUSH2 0x322F JUMPI DUP3 SWAP1 SUB PUSH1 0x1F AND DUP3 ADD SWAP2 JUMPDEST POP POP POP POP POP SWAP1 DUP1 PUSH1 0x3 ADD DUP1 SLOAD PUSH2 0x3261 SWAP1 PUSH2 0x5A18 JUMP JUMPDEST DUP1 PUSH1 0x1F ADD PUSH1 0x20 DUP1 SWAP2 DIV MUL PUSH1 0x20 ADD PUSH1 0x40 MLOAD SWAP1 DUP2 ADD PUSH1 0x40 MSTORE DUP1 SWAP3 SWAP2 SWAP1 DUP2 DUP2 MSTORE PUSH1 0x20 ADD DUP3 DUP1 SLOAD PUSH2 0x328D SWAP1 PUSH2 0x5A18 JUMP JUMPDEST DUP1 ISZERO PUSH2 0x32DA JUMPI DUP1 PUSH1 0x1F LT PUSH2 0x32AF JUMPI PUSH2 0x100 DUP1 DUP4 SLOAD DIV MUL DUP4 MSTORE SWAP2 PUSH1 0x20 ADD SWAP2 PUSH2 0x32DA JUMP JUMPDEST DUP3 ADD SWAP2 SWAP1 PUSH1 0x0 MSTORE PUSH1 0x20 PUSH1 0x0 KECCAK256 SWAP1 JUMPDEST DUP2 SLOAD DUP2 MSTORE SWAP1 PUSH1 0x1 ADD SWAP1 PUSH1 0x20 ADD DUP1 DUP4 GT PUSH2 0x32BD JUMPI DUP3 SWAP1 SUB PUSH1 0x1F AND DUP3 ADD SWAP2 JUMPDEST POP POP POP POP POP SWAP1 DUP1 PUSH1 0x4 ADD DUP1 SLOAD PUSH2 0x32EF SWAP1 PUSH2 0x5A18 JUMP JUMPDEST DUP1 PUSH1 0x1F ADD PUSH1 0x20 DUP1 SWAP2 DIV MUL PUSH1 0x20 ADD PUSH1 0x40 MLOAD SWAP1 DUP2 ADD PUSH1 0x40 MSTORE DUP1 SWAP3 SWAP2 SWAP1 DUP2 DUP2 MSTORE PUSH1 0x20 ADD DUP3 DUP1 SLOAD PUSH2 0x331B SWAP1 PUSH2 0x5A18 JUMP JUMPDEST DUP1 ISZERO PUSH2 0x3368 JUMPI DUP1 PUSH1 0x1F LT PUSH2 0x333D JUMPI PUSH2 0x100 DUP1 DUP4 SLOAD DIV MUL DUP4 MSTORE SWAP2 PUSH1 0x20 ADD SWAP2 PUSH2 0x3368 JUMP JUMPDEST DUP3 ADD SWAP2 SWAP1 PUSH1 0x0 MSTORE PUSH1 0x20 PUSH1 0x0 KECCAK256 SWAP1 JUMPDEST DUP2 SLOAD DUP2 MSTORE SWAP1 PUSH1 0x1 ADD SWAP1 PUSH1 0x20 ADD DUP1 DUP4 GT PUSH2 0x334B JUMPI DUP3 SWAP1 SUB PUSH1 0x1F AND DUP3 ADD SWAP2 JUMPDEST POP POP POP POP POP SWAP1 DUP1 PUSH1 0x5 ADD DUP1 SLOAD PUSH2 0x337D SWAP1 PUSH2 0x5A18 JUMP JUMPDEST DUP1 PUSH1 0x1F ADD PUSH1 0x20 DUP1 SWAP2 DIV MUL PUSH1 0x20 ADD PUSH1 0x40 MLOAD SWAP1 DUP2 ADD PUSH1 0x40 MSTORE DUP1 SWAP3 SWAP2 SWAP1 DUP2 DUP2 MSTORE PUSH1 0x20 ADD DUP3 DUP1 SLOAD PUSH2 0x33A9 SWAP1 PUSH2 0x5A18 JUMP JUMPDEST DUP1 ISZERO PUSH2 0x33F6 JUMPI DUP1 PUSH1 0x1F LT PUSH2 0x33CB JUMPI PUSH2 0x100 DUP1 DUP4 SLOAD DIV MUL DUP4 MSTORE SWAP2 PUSH1 0x20 ADD SWAP2 PUSH2 0x33F6 JUMP JUMPDEST DUP3 ADD SWAP2 SWAP1 PUSH1 0x0 MSTORE PUSH1 0x20 PUSH1 0x0 KECCAK256 SWAP1 JUMPDEST DUP2 SLOAD DUP2 MSTORE SWAP1 PUSH1 0x1 ADD SWAP1 PUSH1 0x20 ADD DUP1 DUP4 GT PUSH2 0x33D9 JUMPI DUP3 SWAP1 SUB PUSH1 0x1F AND DUP3 ADD SWAP2 JUMPDEST POP POP POP POP POP SWAP1 DUP1 PUSH1 0x6 ADD DUP1 SLOAD PUSH2 0x340B SWAP1 PUSH2 0x5A18 JUMP JUMPDEST DUP1 PUSH1 0x1F ADD PUSH1 0x20 DUP1 SWAP2 DIV MUL PUSH1 0x20 ADD PUSH1 0x40 MLOAD SWAP1 DUP2 ADD PUSH1 0x40 MSTORE DUP1 SWAP3 SWAP2 SWAP1 DUP2 DUP2 MSTORE PUSH1 0x20 ADD DUP3 DUP1 SLOAD PUSH2 0x3437 SWAP1 PUSH2 0x5A18 JUMP JUMPDEST DUP1 ISZERO PUSH2 0x3484 JUMPI DUP1 PUSH1 0x1F LT PUSH2 0x3459 JUMPI PUSH2 0x100 DUP1 DUP4 SLOAD DIV MUL DUP4 MSTORE SWAP2 PUSH1 0x20 ADD SWAP2 PUSH2 0x3484 JUMP JUMPDEST DUP3 ADD SWAP2 SWAP1 PUSH1 0x0 MSTORE PUSH1 0x20 PUSH1 0x0 KECCAK256 SWAP1 JUMPDEST DUP2 SLOAD DUP2 MSTORE SWAP1 PUSH1 0x1 ADD SWAP1 PUSH1 0x20 ADD DUP1 DUP4 GT PUSH2 0x3467 JUMPI DUP3 SWAP1 SUB PUSH1 0x1F AND DUP3 ADD SWAP2 JUMPDEST POP POP POP POP POP SWAP1 DUP1 PUSH1 0x7 ADD DUP1 SLOAD PUSH2 0x3499 SWAP1 PUSH2 0x5A18 JUMP JUMPDEST DUP1 PUSH1 0x1F ADD PUSH1 0x20 DUP1 SWAP2 DIV MUL PUSH1 0x20 ADD PUSH1 0x40 MLOAD SWAP1 DUP2 ADD PUSH1 0x40 MSTORE DUP1 SWAP3 SWAP2 SWAP1 DUP2 DUP2 MSTORE PUSH1 0x20 ADD DUP3 DUP1 SLOAD PUSH2 0x34C5 SWAP1 PUSH2 0x5A18 JUMP JUMPDEST DUP1 ISZERO PUSH2 0x3512 JUMPI DUP1 PUSH1 0x1F LT PUSH2 0x34E7 JUMPI PUSH2 0x100 DUP1 DUP4 SLOAD DIV MUL DUP4 MSTORE SWAP2 PUSH1 0x20 ADD SWAP2 PUSH2 0x3512 JUMP JUMPDEST DUP3 ADD SWAP2 SWAP1 PUSH1 0x0 MSTORE PUSH1 0x20 PUSH1 0x0 KECCAK256 SWAP1 JUMPDEST DUP2 SLOAD DUP2 MSTORE SWAP1 PUSH1 0x1 ADD SWAP1 PUSH1 0x20 ADD DUP1 DUP4 GT PUSH2 0x34F5 JUMPI DUP3 SWAP1 SUB PUSH1 0x1F AND DUP3 ADD SWAP2 JUMPDEST POP POP POP POP POP SWAP1 DUP1 PUSH1 0x8 ADD DUP1 SLOAD PUSH2 0x3527 SWAP1 PUSH2 0x5A18 JUMP JUMPDEST DUP1 PUSH1 0x1F ADD PUSH1 0x20 DUP1 SWAP2 DIV MUL PUSH1 0x20 ADD PUSH1 0x40 MLOAD SWAP1 DUP2 ADD PUSH1 0x40 MSTORE DUP1 SWAP3 SWAP2 SWAP1 DUP2 DUP2 MSTORE PUSH1 0x20 ADD DUP3 DUP1 SLOAD PUSH2 0x3553 SWAP1 PUSH2 0x5A18 JUMP JUMPDEST DUP1 ISZERO PUSH2 0x35A0 JUMPI DUP1 PUSH1 0x1F LT PUSH2 0x3575 JUMPI PUSH2 0x100 DUP1 DUP4 SLOAD DIV MUL DUP4 MSTORE SWAP2 PUSH1 0x20 ADD SWAP2 PUSH2 0x35A0 JUMP JUMPDEST DUP3 ADD SWAP2 SWAP1 PUSH1 0x0 MSTORE PUSH1 0x20 PUSH1 0x0 KECCAK256 SWAP1 JUMPDEST DUP2 SLOAD DUP2 MSTORE SWAP1 PUSH1 0x1 ADD SWAP1 PUSH1 0x20 ADD DUP1 DUP4 GT PUSH2 0x3583 JUMPI DUP3 SWAP1 SUB PUSH1 0x1F AND DUP3 ADD SWAP2 JUMPDEST POP POP POP POP POP SWAP1 DUP1 PUSH1 0x9 ADD DUP1 SLOAD PUSH2 0x35B5 SWAP1 PUSH2 0x5A18 JUMP JUMPDEST DUP1 PUSH1 0x1F ADD PUSH1 0x20 DUP1 SWAP2 DIV MUL PUSH1 0x20 ADD PUSH1 0x40 MLOAD SWAP1 DUP2 ADD PUSH1 0x40 MSTORE DUP1 SWAP3 SWAP2 SWAP1 DUP2 DUP2 MSTORE PUSH1 0x20 ADD DUP3 DUP1 SLOAD PUSH2 0x35E1 SWAP1 PUSH2 0x5A18 JUMP JUMPDEST DUP1 ISZERO PUSH2 0x362E JUMPI DUP1 PUSH1 0x1F LT PUSH2 0x3603 JUMPI PUSH2 0x100 DUP1 DUP4 SLOAD DIV MUL DUP4 MSTORE SWAP2 PUSH1 0x20 ADD SWAP2 PUSH2 0x362E JUMP JUMPDEST DUP3 ADD SWAP2 SWAP1 PUSH1 0x0 MSTORE PUSH1 0x20 PUSH1 0x0 KECCAK256 SWAP1 JUMPDEST DUP2 SLOAD DUP2 MSTORE SWAP1 PUSH1 0x1 ADD SWAP1 PUSH1 0x20 ADD DUP1 DUP4 GT PUSH2 0x3611 JUMPI DUP3 SWAP1 SUB PUSH1 0x1F AND DUP3 ADD SWAP2 JUMPDEST POP POP POP POP POP SWAP1 DUP1 PUSH1 0xA ADD DUP1 SLOAD PUSH2 0x3643 SWAP1 PUSH2 0x5A18 JUMP JUMPDEST DUP1 PUSH1 0x1F ADD PUSH1 0x20 DUP1 SWAP2 DIV MUL PUSH1 0x20 ADD PUSH1 0x40 MLOAD SWAP1 DUP2 ADD PUSH1 0x40 MSTORE DUP1 SWAP3 SWAP2 SWAP1 DUP2 DUP2 MSTORE PUSH1 0x20 ADD DUP3 DUP1 SLOAD PUSH2 0x366F SWAP1 PUSH2 0x5A18 JUMP JUMPDEST DUP1 ISZERO PUSH2 0x36BC JUMPI DUP1 PUSH1 0x1F LT PUSH2 0x3691 JUMPI PUSH2 0x100 DUP1 DUP4 SLOAD DIV MUL DUP4 MSTORE SWAP2 PUSH1 0x20 ADD SWAP2 PUSH2 0x36BC JUMP JUMPDEST DUP3 ADD SWAP2 SWAP1 PUSH1 0x0 MSTORE PUSH1 0x20 PUSH1 0x0 KECCAK256 SWAP1 JUMPDEST DUP2 SLOAD DUP2 MSTORE SWAP1 PUSH1 0x1 ADD SWAP1 PUSH1 0x20 ADD DUP1 DUP4 GT PUSH2 0x369F JUMPI DUP3 SWAP1 SUB PUSH1 0x1F AND DUP3 ADD SWAP2 JUMPDEST POP POP POP POP POP SWAP1 DUP1 PUSH1 0xB ADD DUP1 SLOAD PUSH2 0x36D1 SWAP1 PUSH2 0x5A18 JUMP JUMPDEST DUP1 PUSH1 0x1F ADD PUSH1 0x20 DUP1 SWAP2 DIV MUL PUSH1 0x20 ADD PUSH1 0x40 MLOAD SWAP1 DUP2 ADD PUSH1 0x40 MSTORE DUP1 SWAP3 SWAP2 SWAP1 DUP2 DUP2 MSTORE PUSH1 0x20 ADD DUP3 DUP1 SLOAD PUSH2 0x36FD SWAP1 PUSH2 0x5A18 JUMP JUMPDEST DUP1 ISZERO PUSH2 0x374A JUMPI DUP1 PUSH1 0x1F LT PUSH2 0x371F JUMPI PUSH2 0x100 DUP1 DUP4 SLOAD DIV MUL DUP4 MSTORE SWAP2 PUSH1 0x20 ADD SWAP2 PUSH2 0x374A JUMP JUMPDEST DUP3 ADD SWAP2 SWAP1 PUSH1 0x0 MSTORE PUSH1 0x20 PUSH1 0x0 KECCAK256 SWAP1 JUMPDEST DUP2 SLOAD DUP2 MSTORE SWAP1 PUSH1 0x1 ADD SWAP1 PUSH1 0x20 ADD DUP1 DUP4 GT PUSH2 0x372D JUMPI DUP3 SWAP1 SUB PUSH1 0x1F AND DUP3 ADD SWAP2 JUMPDEST POP POP POP POP POP SWAP1 POP DUP13 JUMP JUMPDEST PUSH1 0x9 SLOAD PUSH1 0x0 SWAP1 DUP2 MSTORE PUSH1 0x16 PUSH1 0x20 MSTORE PUSH1 0x40 DUP2 KECCAK256 SLOAD PUSH2 0x100 SWAP1 DIV PUSH1 0xFF AND PUSH2 0x37E0 JUMPI PUSH1 0x40 MLOAD PUSH3 0x461BCD PUSH1 0xE5 SHL DUP2 MSTORE PUSH1 0x20 PUSH1 0x4 DUP3 ADD MSTORE PUSH1 0x27 PUSH1 0x24 DUP3 ADD MSTORE PUSH32 0x4E6F2072616E646F6D20776F7264732068617665206265656E2067656E657261 PUSH1 0x44 DUP3 ADD MSTORE PUSH32 0x7465642079657400000000000000000000000000000000000000000000000000 PUSH1 0x64 DUP3 ADD MSTORE PUSH1 0x84 ADD PUSH2 0xA6D JUMP JUMPDEST PUSH1 0x9 SLOAD PUSH1 0x0 SWAP1 DUP2 MSTORE PUSH1 0x16 PUSH1 0x20 MSTORE PUSH1 0x40 DUP2 KECCAK256 PUSH1 0x1 ADD DUP1 SLOAD DUP3 SWAP1 PUSH2 0x3804 JUMPI PUSH2 0x3804 PUSH2 0x5AC4 JUMP JUMPDEST PUSH1 0x0 SWAP2 DUP3 MSTORE PUSH1 0x20 SWAP1 SWAP2 KECCAK256 ADD SLOAD SWAP3 SWAP2 POP POP JUMP JUMPDEST PUSH1 0x5 SLOAD PUSH1 0x1 PUSH1 0x1 PUSH1 0xA0 SHL SUB AND CALLER EQ PUSH2 0x387F JUMPI PUSH1 0x40 MLOAD PUSH3 0x461BCD PUSH1 0xE5 SHL DUP2 MSTORE PUSH1 0x20 PUSH1 0x4 DUP3 ADD MSTORE PUSH1 0x26 PUSH1 0x24 DUP3 ADD MSTORE PUSH32 0x43616C6C6572206973206E6F742074686520436865636B5061796F757420636F PUSH1 0x44 DUP3 ADD MSTORE PUSH6 0x1B9D1C9858DD PUSH1 0xD2 SHL PUSH1 0x64 DUP3 ADD MSTORE PUSH1 0x84 ADD PUSH2 0xA6D JUMP JUMPDEST PUSH1 0x1 PUSH1 0x1 PUSH1 0xA0 SHL SUB DUP3 AND PUSH1 0x0 DUP2 DUP2 MSTORE PUSH1 0x12 PUSH1 0x20 SWAP1 DUP2 MSTORE PUSH1 0x40 DUP1 DUP4 KECCAK256 DUP6 DUP5 MSTORE DUP3 MSTORE SWAP2 DUP3 SWAP1 KECCAK256 DUP1 SLOAD PUSH1 0xFF NOT AND PUSH1 0x2 OR SWAP1 SSTORE DUP2 MLOAD SWAP3 DUP4 MSTORE DUP3 ADD DUP4 SWAP1 MSTORE PUSH32 0x5E258A8DA32249E7D7E1EBCD6B64F7C97C4235999DB64B6687191B183D5E3F2 SWAP2 ADD JUMPDEST PUSH1 0x40 MLOAD DUP1 SWAP2 SUB SWAP1 LOG1 POP POP JUMP JUMPDEST PUSH1 0xE DUP1 SLOAD PUSH2 0x1524 SWAP1 PUSH2 0x5A18 JUMP JUMPDEST PUSH1 0x0 DUP1 SLOAD PUSH1 0x40 DUP1 MLOAD PUSH32 0xD328A91E00000000000000000000000000000000000000000000000000000000 DUP2 MSTORE SWAP1 MLOAD PUSH1 0x60 SWAP4 PUSH1 0x1 PUSH1 0x1 PUSH1 0xA0 SHL SUB SWAP1 SWAP4 AND SWAP3 PUSH4 0xD328A91E SWAP3 PUSH1 0x4 DUP1 DUP3 ADD SWAP4 SWAP2 DUP3 SWAP1 SUB ADD DUP2 DUP7 DUP1 EXTCODESIZE ISZERO DUP1 ISZERO PUSH2 0x3952 JUMPI PUSH1 0x0 DUP1 REVERT JUMPDEST POP GAS STATICCALL ISZERO DUP1 ISZERO PUSH2 0x3966 JUMPI RETURNDATASIZE PUSH1 0x0 DUP1 RETURNDATACOPY RETURNDATASIZE PUSH1 0x0 REVERT JUMPDEST POP POP POP POP PUSH1 0x40 MLOAD RETURNDATASIZE PUSH1 0x0 DUP3 RETURNDATACOPY PUSH1 0x1F RETURNDATASIZE SWAP1 DUP2 ADD PUSH1 0x1F NOT AND DUP3 ADD PUSH1 0x40 MSTORE PUSH2 0x12C5 SWAP2 SWAP1 DUP2 ADD SWAP1 PUSH2 0x5129 JUMP JUMPDEST PUSH1 0x0 DUP1 SLOAD PUSH1 0x1 PUSH1 0x1 PUSH1 0xA0 SHL SUB AND PUSH4 0xD227D245 DUP6 PUSH2 0x39AA DUP9 PUSH2 0x446B JUMP JUMPDEST DUP7 DUP7 PUSH1 0x40 MLOAD DUP6 PUSH4 0xFFFFFFFF AND PUSH1 0xE0 SHL DUP2 MSTORE PUSH1 0x4 ADD PUSH2 0x39CB SWAP5 SWAP4 SWAP3 SWAP2 SWAP1 PUSH2 0x576F JUMP JUMPDEST PUSH1 0x20 PUSH1 0x40 MLOAD DUP1 DUP4 SUB DUP2 DUP7 DUP1 EXTCODESIZE ISZERO DUP1 ISZERO PUSH2 0x39E3 JUMPI PUSH1 0x0 DUP1 REVERT JUMPDEST POP GAS STATICCALL ISZERO DUP1 ISZERO PUSH2 0x39F7 JUMPI RETURNDATASIZE PUSH1 0x0 DUP1 RETURNDATACOPY RETURNDATASIZE PUSH1 0x0 REVERT JUMPDEST POP POP POP POP PUSH1 0x40 MLOAD RETURNDATASIZE PUSH1 0x1F NOT PUSH1 0x1F DUP3 ADD AND DUP3 ADD DUP1 PUSH1 0x40 MSTORE POP DUP2 ADD SWAP1 PUSH2 0x3A1B SWAP2 SWAP1 PUSH2 0x534D JUMP JUMPDEST SWAP6 SWAP5 POP POP POP POP POP JUMP JUMPDEST PUSH1 0x0 DUP2 DUP2 MSTORE PUSH1 0x16 PUSH1 0x20 MSTORE PUSH1 0x40 DUP2 KECCAK256 SLOAD PUSH1 0x60 SWAP1 PUSH2 0x100 SWAP1 DIV PUSH1 0xFF AND PUSH2 0x3A8A JUMPI PUSH1 0x40 MLOAD PUSH3 0x461BCD PUSH1 0xE5 SHL DUP2 MSTORE PUSH1 0x20 PUSH1 0x4 DUP3 ADD MSTORE PUSH1 0x11 PUSH1 0x24 DUP3 ADD MSTORE PUSH32 0x72657175657374206E6F7420666F756E64000000000000000000000000000000 PUSH1 0x44 DUP3 ADD MSTORE PUSH1 0x64 ADD PUSH2 0xA6D JUMP JUMPDEST PUSH1 0x0 DUP4 DUP2 MSTORE PUSH1 0x16 PUSH1 0x20 SWAP1 DUP2 MSTORE PUSH1 0x40 DUP1 DUP4 KECCAK256 DUP2 MLOAD PUSH1 0x60 DUP2 ADD DUP4 MSTORE DUP2 SLOAD PUSH1 0xFF DUP1 DUP3 AND ISZERO ISZERO DUP4 MSTORE PUSH2 0x100 SWAP1 SWAP2 DIV AND ISZERO ISZERO DUP2 DUP6 ADD MSTORE PUSH1 0x1 DUP3 ADD DUP1 SLOAD DUP5 MLOAD DUP2 DUP8 MUL DUP2 ADD DUP8 ADD DUP7 MSTORE DUP2 DUP2 MSTORE SWAP3 SWAP6 SWAP4 SWAP5 DUP7 ADD SWAP4 DUP4 ADD DUP3 DUP3 DUP1 ISZERO PUSH2 0x3B05 JUMPI PUSH1 0x20 MUL DUP3 ADD SWAP2 SWAP1 PUSH1 0x0 MSTORE PUSH1 0x20 PUSH1 0x0 KECCAK256 SWAP1 JUMPDEST DUP2 SLOAD DUP2 MSTORE PUSH1 0x20 ADD SWAP1 PUSH1 0x1 ADD SWAP1 DUP1 DUP4 GT PUSH2 0x3AF1 JUMPI JUMPDEST POP POP POP POP POP DUP2 MSTORE POP POP SWAP1 POP DUP1 PUSH1 0x0 ADD MLOAD DUP2 PUSH1 0x40 ADD MLOAD SWAP3 POP SWAP3 POP POP SWAP2 POP SWAP2 JUMP JUMPDEST PUSH1 0x0 PUSH2 0x3B2E PUSH2 0x3EF8 JUMP JUMPDEST PUSH1 0x7 SLOAD PUSH1 0xA SLOAD PUSH1 0xB SLOAD PUSH1 0x40 MLOAD PUSH32 0x5D3B1D3000000000000000000000000000000000000000000000000000000000 DUP2 MSTORE PUSH1 0x4 DUP2 ADD SWAP3 SWAP1 SWAP3 MSTORE PUSH21 0x10000000000000000000000000000000000000000 DUP4 DIV PUSH8 0xFFFFFFFFFFFFFFFF AND PUSH1 0x24 DUP4 ADD MSTORE PUSH5 0x100000000 DUP2 DIV PUSH2 0xFFFF AND PUSH1 0x44 DUP4 ADD MSTORE PUSH4 0xFFFFFFFF DUP1 DUP3 AND PUSH1 0x64 DUP5 ADD MSTORE PUSH7 0x1000000000000 SWAP1 SWAP2 DIV AND PUSH1 0x84 DUP3 ADD MSTORE PUSH1 0x1 PUSH1 0x1 PUSH1 0xA0 SHL SUB SWAP1 SWAP2 AND SWAP1 PUSH4 0x5D3B1D30 SWAP1 PUSH1 0xA4 ADD PUSH1 0x20 PUSH1 0x40 MLOAD DUP1 DUP4 SUB DUP2 PUSH1 0x0 DUP8 DUP1 EXTCODESIZE ISZERO DUP1 ISZERO PUSH2 0x3BEA JUMPI PUSH1 0x0 DUP1 REVERT JUMPDEST POP GAS CALL ISZERO DUP1 ISZERO PUSH2 0x3BFE JUMPI RETURNDATASIZE PUSH1 0x0 DUP1 RETURNDATACOPY RETURNDATASIZE PUSH1 0x0 REVERT JUMPDEST POP POP POP POP PUSH1 0x40 MLOAD RETURNDATASIZE PUSH1 0x1F NOT PUSH1 0x1F DUP3 ADD AND DUP3 ADD DUP1 PUSH1 0x40 MSTORE POP DUP2 ADD SWAP1 PUSH2 0x3C22 SWAP2 SWAP1 PUSH2 0x5066 JUMP JUMPDEST PUSH1 0x40 DUP1 MLOAD PUSH1 0x60 DUP2 ADD DUP3 MSTORE PUSH1 0x0 DUP1 DUP3 MSTORE PUSH1 0x1 PUSH1 0x20 DUP1 DUP5 ADD DUP3 DUP2 MSTORE DUP6 MLOAD DUP5 DUP2 MSTORE DUP1 DUP4 ADD DUP8 MSTORE DUP6 DUP8 ADD SWAP1 DUP2 MSTORE DUP8 DUP6 MSTORE PUSH1 0x16 DUP4 MSTORE SWAP6 SWAP1 SWAP4 KECCAK256 DUP5 MLOAD DUP2 SLOAD SWAP5 MLOAD PUSH2 0xFFFF NOT SWAP1 SWAP6 AND SWAP1 ISZERO ISZERO PUSH2 0xFF00 NOT AND OR PUSH2 0x100 SWAP5 ISZERO ISZERO SWAP5 SWAP1 SWAP5 MUL SWAP4 SWAP1 SWAP4 OR DUP4 SSTORE SWAP4 MLOAD DUP1 MLOAD SWAP6 SWAP7 POP SWAP3 SWAP5 SWAP2 SWAP4 PUSH2 0x3C97 SWAP4 SWAP2 DUP6 ADD SWAP3 SWAP2 ADD SWAP1 PUSH2 0x4D97 JUMP JUMPDEST POP POP PUSH1 0x8 DUP1 SLOAD PUSH1 0x1 DUP2 ADD SWAP1 SWAP2 SSTORE PUSH32 0xF3F7A9FE364FAAB93B216DA50A3214154F22A0A2B415B23A84C8169E8B636EE3 ADD DUP3 SWAP1 SSTORE POP PUSH1 0x9 DUP2 SWAP1 SSTORE PUSH1 0x0 DUP2 DUP2 MSTORE PUSH1 0x15 PUSH1 0x20 SWAP1 DUP2 MSTORE PUSH1 0x40 SWAP2 DUP3 SWAP1 KECCAK256 DUP1 SLOAD CALLER PUSH1 0x1 PUSH1 0x1 PUSH1 0xA0 SHL SUB NOT SWAP1 SWAP2 AND OR SWAP1 SSTORE PUSH1 0xB SLOAD DUP3 MLOAD DUP5 DUP2 MSTORE PUSH7 0x1000000000000 SWAP1 SWAP2 DIV PUSH4 0xFFFFFFFF AND SWAP2 DUP2 ADD SWAP2 SWAP1 SWAP2 MSTORE PUSH32 0xCC58B13AD3EAB50626C6A6300B1D139CD6EBB1688A7CCED9461C2F7E762665EE SWAP2 ADD PUSH1 0x40 MLOAD DUP1 SWAP2 SUB SWAP1 LOG1 SWAP1 JUMP JUMPDEST PUSH1 0xC SLOAD PUSH1 0x40 DUP1 MLOAD PUSH32 0x8E15F47300000000000000000000000000000000000000000000000000000000 DUP2 MSTORE SWAP1 MLOAD PUSH1 0x0 SWAP3 PUSH1 0x1 PUSH1 0x1 PUSH1 0xA0 SHL SUB AND SWAP2 PUSH4 0x8E15F473 SWAP2 PUSH1 0x4 DUP1 DUP4 ADD SWAP3 PUSH1 0x20 SWAP3 SWAP2 SWAP1 DUP3 SWAP1 SUB ADD DUP2 DUP7 DUP1 EXTCODESIZE ISZERO DUP1 ISZERO PUSH2 0x128D JUMPI PUSH1 0x0 DUP1 REVERT JUMPDEST PUSH1 0x5 SLOAD PUSH1 0x1 PUSH1 0x1 PUSH1 0xA0 SHL SUB AND CALLER EQ PUSH2 0x3E08 JUMPI PUSH1 0x40 MLOAD PUSH3 0x461BCD PUSH1 0xE5 SHL DUP2 MSTORE PUSH1 0x20 PUSH1 0x4 DUP3 ADD MSTORE PUSH1 0x26 PUSH1 0x24 DUP3 ADD MSTORE PUSH32 0x43616C6C6572206973206E6F742074686520436865636B5061796F757420636F PUSH1 0x44 DUP3 ADD MSTORE PUSH6 0x1B9D1C9858DD PUSH1 0xD2 SHL PUSH1 0x64 DUP3 ADD MSTORE PUSH1 0x84 ADD PUSH2 0xA6D JUMP JUMPDEST PUSH1 0x0 PUSH2 0x3E12 PUSH2 0x3D41 JUMP JUMPDEST SWAP1 POP PUSH1 0x0 DUP2 PUSH2 0x3E25 DUP5 PUSH4 0x5F5E100 PUSH2 0x59B6 JUMP JUMPDEST PUSH2 0x3E2F SWAP2 SWAP1 PUSH2 0x58B7 JUMP JUMPDEST PUSH1 0x40 MLOAD SWAP1 SWAP2 POP PUSH1 0x1 PUSH1 0x1 PUSH1 0xA0 SHL SUB DUP6 AND SWAP1 DUP3 ISZERO PUSH2 0x8FC MUL SWAP1 DUP4 SWAP1 PUSH1 0x0 DUP2 DUP2 DUP2 DUP6 DUP9 DUP9 CALL SWAP4 POP POP POP POP ISZERO DUP1 ISZERO PUSH2 0x3E68 JUMPI RETURNDATASIZE PUSH1 0x0 DUP1 RETURNDATACOPY RETURNDATASIZE PUSH1 0x0 REVERT JUMPDEST POP PUSH1 0x40 DUP1 MLOAD PUSH1 0x1 PUSH1 0x1 PUSH1 0xA0 SHL SUB DUP7 AND DUP2 MSTORE PUSH1 0x20 DUP2 ADD DUP4 SWAP1 MSTORE PUSH32 0x188C4D19B4FADD1889D9BD9BF0AB7C97E0719434751E6C05FEAC6339C1C001EC SWAP2 ADD PUSH1 0x40 MLOAD DUP1 SWAP2 SUB SWAP1 LOG1 POP POP POP POP JUMP JUMPDEST PUSH2 0x3EB9 PUSH2 0x3EF8 JUMP JUMPDEST PUSH2 0x3EC2 DUP2 PUSH2 0x4737 JUMP JUMPDEST POP JUMP JUMPDEST PUSH2 0x3ECD PUSH2 0x3EF8 JUMP JUMPDEST PUSH1 0x0 DUP1 SLOAD PUSH1 0x1 PUSH1 0x1 PUSH1 0xA0 SHL SUB NOT AND PUSH1 0x1 PUSH1 0x1 PUSH1 0xA0 SHL SUB DUP4 AND OR SWAP1 SSTORE POP JUMP JUMPDEST PUSH1 0xF DUP1 SLOAD PUSH2 0x1524 SWAP1 PUSH2 0x5A18 JUMP JUMPDEST PUSH1 0x2 SLOAD PUSH1 0x1 PUSH1 0x1 PUSH1 0xA0 SHL SUB AND CALLER EQ PUSH2 0x3F52 JUMPI PUSH1 0x40 MLOAD PUSH3 0x461BCD PUSH1 0xE5 SHL DUP2 MSTORE PUSH1 0x20 PUSH1 0x4 DUP3 ADD MSTORE PUSH1 0x16 PUSH1 0x24 DUP3 ADD MSTORE PUSH32 0x4F6E6C792063616C6C61626C65206279206F776E657200000000000000000000 PUSH1 0x44 DUP3 ADD MSTORE PUSH1 0x64 ADD PUSH2 0xA6D JUMP JUMPDEST JUMP JUMPDEST PUSH1 0x0 DUP4 DUP2 MSTORE PUSH1 0x13 PUSH1 0x20 MSTORE PUSH1 0x40 DUP2 KECCAK256 SWAP1 PUSH2 0x3F6E DUP5 PUSH1 0x20 ADD MLOAD SWAP1 JUMP JUMPDEST PUSH1 0x2 DUP4 ADD DUP2 SWAP1 SSTORE DUP5 MLOAD SWAP1 SWAP2 POP PUSH2 0x3F8B SWAP1 PUSH1 0xE SWAP1 PUSH1 0x20 DUP8 ADD SWAP1 PUSH2 0x4D13 JUMP JUMPDEST POP DUP3 MLOAD PUSH2 0x3F9F SWAP1 PUSH1 0xF SWAP1 PUSH1 0x20 DUP7 ADD SWAP1 PUSH2 0x4D13 JUMP JUMPDEST POP DUP5 PUSH32 0x7BAB0EC163B5C132C72B8146AC4D6E067E82ED58F8B131150AA71C9258911562 DUP6 DUP6 PUSH1 0x40 MLOAD PUSH2 0x3FD2 SWAP3 SWAP2 SWAP1 PUSH2 0x55B7 JUMP JUMPDEST PUSH1 0x40 MLOAD DUP1 SWAP2 SUB SWAP1 LOG2 DUP2 SLOAD PUSH1 0x1 DUP4 ADD SLOAD PUSH1 0x2 DUP5 ADD SLOAD PUSH1 0x40 DUP1 MLOAD PUSH1 0x1 PUSH1 0x1 PUSH1 0xA0 SHL SUB SWAP1 SWAP5 AND DUP5 MSTORE PUSH1 0x20 DUP5 ADD SWAP3 SWAP1 SWAP3 MSTORE DUP3 DUP3 ADD MSTORE MLOAD PUSH32 0x93ACEB1C5E55AA194781A0423A101B97EFA4A051E8D2FC2BA332CA75F4E4B6A7 SWAP2 DUP2 SWAP1 SUB PUSH1 0x60 ADD SWAP1 LOG1 POP POP POP POP POP JUMP JUMPDEST PUSH1 0x60 PUSH1 0x0 PUSH2 0x4042 DUP4 PUSH2 0x47E2 JUMP JUMPDEST PUSH1 0x1 ADD SWAP1 POP PUSH1 0x0 DUP2 PUSH8 0xFFFFFFFFFFFFFFFF DUP2 GT ISZERO PUSH2 0x4062 JUMPI PUSH2 0x4062 PUSH2 0x5ADA JUMP JUMPDEST PUSH1 0x40 MLOAD SWAP1 DUP1 DUP3 MSTORE DUP1 PUSH1 0x1F ADD PUSH1 0x1F NOT AND PUSH1 0x20 ADD DUP3 ADD PUSH1 0x40 MSTORE DUP1 ISZERO PUSH2 0x408C JUMPI PUSH1 0x20 DUP3 ADD DUP2 DUP1 CALLDATASIZE DUP4 CALLDATACOPY ADD SWAP1 POP JUMPDEST POP SWAP1 POP DUP2 DUP2 ADD PUSH1 0x20 ADD JUMPDEST PUSH1 0x0 NOT ADD PUSH32 0x3031323334353637383961626364656600000000000000000000000000000000 PUSH1 0xA DUP7 MOD BYTE DUP2 MSTORE8 PUSH1 0xA DUP6 DIV SWAP5 POP DUP5 PUSH2 0x40D2 JUMPI PUSH2 0x40D7 JUMP JUMPDEST PUSH2 0x4096 JUMP JUMPDEST POP SWAP4 SWAP3 POP POP POP JUMP JUMPDEST DUP1 MLOAD PUSH2 0x4117 JUMPI PUSH1 0x40 MLOAD PUSH32 0x22CE3EDD00000000000000000000000000000000000000000000000000000000 DUP2 MSTORE PUSH1 0x4 ADD PUSH1 0x40 MLOAD DUP1 SWAP2 SUB SWAP1 REVERT JUMPDEST DUP4 DUP4 PUSH1 0x1 DUP2 GT ISZERO PUSH2 0x412A JUMPI PUSH2 0x412A PUSH2 0x5AAE JUMP JUMPDEST SWAP1 DUP2 PUSH1 0x1 DUP2 GT ISZERO PUSH2 0x413D JUMPI PUSH2 0x413D PUSH2 0x5AAE JUMP JUMPDEST SWAP1 MSTORE POP PUSH1 0x40 DUP5 ADD DUP3 DUP1 ISZERO PUSH2 0x4153 JUMPI PUSH2 0x4153 PUSH2 0x5AAE JUMP JUMPDEST SWAP1 DUP2 DUP1 ISZERO PUSH2 0x4163 JUMPI PUSH2 0x4163 PUSH2 0x5AAE JUMP JUMPDEST SWAP1 MSTORE POP PUSH1 0x60 SWAP1 SWAP4 ADD SWAP3 SWAP1 SWAP3 MSTORE POP POP JUMP JUMPDEST DUP1 MLOAD PUSH2 0x41AB JUMPI PUSH1 0x40 MLOAD PUSH32 0xFE936CB700000000000000000000000000000000000000000000000000000000 DUP2 MSTORE PUSH1 0x4 ADD PUSH1 0x40 MLOAD DUP1 SWAP2 SUB SWAP1 REVERT JUMPDEST PUSH1 0xA0 SWAP1 SWAP2 ADD MSTORE JUMP JUMPDEST PUSH1 0x0 DUP1 SLOAD DUP2 SWAP1 PUSH1 0x1 PUSH1 0x1 PUSH1 0xA0 SHL SUB AND PUSH4 0x28242B04 DUP6 PUSH2 0x41D1 DUP9 PUSH2 0x446B JUMP JUMPDEST DUP7 PUSH1 0x40 MLOAD DUP5 PUSH4 0xFFFFFFFF AND PUSH1 0xE0 SHL DUP2 MSTORE PUSH1 0x4 ADD PUSH2 0x41F0 SWAP4 SWAP3 SWAP2 SWAP1 PUSH2 0x5736 JUMP JUMPDEST PUSH1 0x20 PUSH1 0x40 MLOAD DUP1 DUP4 SUB DUP2 PUSH1 0x0 DUP8 DUP1 EXTCODESIZE ISZERO DUP1 ISZERO PUSH2 0x420A JUMPI PUSH1 0x0 DUP1 REVERT JUMPDEST POP GAS CALL ISZERO DUP1 ISZERO PUSH2 0x421E JUMPI RETURNDATASIZE PUSH1 0x0 DUP1 RETURNDATACOPY RETURNDATASIZE PUSH1 0x0 REVERT JUMPDEST POP POP POP POP PUSH1 0x40 MLOAD RETURNDATASIZE PUSH1 0x1F NOT PUSH1 0x1F DUP3 ADD AND DUP3 ADD DUP1 PUSH1 0x40 MSTORE POP DUP2 ADD SWAP1 PUSH2 0x4242 SWAP2 SWAP1 PUSH2 0x5066 JUMP JUMPDEST SWAP1 POP PUSH1 0x0 DUP1 SLOAD SWAP1 PUSH2 0x100 EXP SWAP1 DIV PUSH1 0x1 PUSH1 0x1 PUSH1 0xA0 SHL SUB AND PUSH1 0x1 PUSH1 0x1 PUSH1 0xA0 SHL SUB AND PUSH4 0x5AB1BD53 PUSH1 0x40 MLOAD DUP2 PUSH4 0xFFFFFFFF AND PUSH1 0xE0 SHL DUP2 MSTORE PUSH1 0x4 ADD PUSH1 0x20 PUSH1 0x40 MLOAD DUP1 DUP4 SUB DUP2 DUP7 DUP1 EXTCODESIZE ISZERO DUP1 ISZERO PUSH2 0x4290 JUMPI PUSH1 0x0 DUP1 REVERT JUMPDEST POP GAS STATICCALL ISZERO DUP1 ISZERO PUSH2 0x42A4 JUMPI RETURNDATASIZE PUSH1 0x0 DUP1 RETURNDATACOPY RETURNDATASIZE PUSH1 0x0 REVERT JUMPDEST POP POP POP POP PUSH1 0x40 MLOAD RETURNDATASIZE PUSH1 0x1F NOT PUSH1 0x1F DUP3 ADD AND DUP3 ADD DUP1 PUSH1 0x40 MSTORE POP DUP2 ADD SWAP1 PUSH2 0x42C8 SWAP2 SWAP1 PUSH2 0x4F6F JUMP JUMPDEST PUSH1 0x0 DUP3 DUP2 MSTORE PUSH1 0x1 PUSH1 0x20 MSTORE PUSH1 0x40 DUP1 DUP3 KECCAK256 DUP1 SLOAD PUSH1 0x1 PUSH1 0x1 PUSH1 0xA0 SHL SUB NOT AND PUSH1 0x1 PUSH1 0x1 PUSH1 0xA0 SHL SUB SWAP5 SWAP1 SWAP5 AND SWAP4 SWAP1 SWAP4 OR SWAP1 SWAP3 SSTORE SWAP1 MLOAD DUP3 SWAP2 PUSH32 0x1131472297A800FEE664D1D89CFA8F7676FF07189ECC53F80BBB5F4969099DB8 SWAP2 LOG2 SWAP5 SWAP4 POP POP POP POP JUMP JUMPDEST PUSH1 0x0 DUP3 DUP2 MSTORE PUSH1 0x16 PUSH1 0x20 MSTORE PUSH1 0x40 SWAP1 KECCAK256 SLOAD PUSH2 0x100 SWAP1 DIV PUSH1 0xFF AND PUSH2 0x4388 JUMPI PUSH1 0x40 MLOAD PUSH3 0x461BCD PUSH1 0xE5 SHL DUP2 MSTORE PUSH1 0x20 PUSH1 0x4 DUP3 ADD MSTORE PUSH1 0x11 PUSH1 0x24 DUP3 ADD MSTORE PUSH32 0x72657175657374206E6F7420666F756E64000000000000000000000000000000 PUSH1 0x44 DUP3 ADD MSTORE PUSH1 0x64 ADD PUSH2 0xA6D JUMP JUMPDEST PUSH1 0x0 DUP3 DUP2 MSTORE PUSH1 0x16 PUSH1 0x20 SWAP1 DUP2 MSTORE PUSH1 0x40 SWAP1 SWAP2 KECCAK256 DUP1 SLOAD PUSH1 0xFF NOT AND PUSH1 0x1 SWAP1 DUP2 OR DUP3 SSTORE DUP4 MLOAD PUSH2 0x43B9 SWAP4 SWAP3 SWAP1 SWAP2 ADD SWAP2 DUP5 ADD SWAP1 PUSH2 0x4D97 JUMP JUMPDEST POP PUSH32 0xFE2E2D779DBA245964D4E3EF9B994BE63856FD568BF7D3CA9E224755CB1BD54D DUP3 DUP3 PUSH1 0x40 MLOAD PUSH2 0x38DC SWAP3 SWAP2 SWAP1 PUSH2 0x571D JUMP JUMPDEST PUSH1 0x0 DUP2 DUP2 MSTORE PUSH1 0x1 PUSH1 0x20 MSTORE PUSH1 0x40 SWAP1 KECCAK256 SLOAD DUP2 SWAP1 PUSH1 0x1 PUSH1 0x1 PUSH1 0xA0 SHL SUB AND ISZERO PUSH2 0x443C JUMPI PUSH1 0x40 MLOAD PUSH32 0x8B457AD200000000000000000000000000000000000000000000000000000000 DUP2 MSTORE PUSH1 0x4 ADD PUSH1 0x40 MLOAD DUP1 SWAP2 SUB SWAP1 REVERT JUMPDEST POP PUSH1 0x0 SWAP1 DUP2 MSTORE PUSH1 0x1 PUSH1 0x20 MSTORE PUSH1 0x40 SWAP1 KECCAK256 DUP1 SLOAD PUSH1 0x1 PUSH1 0x1 PUSH1 0xA0 SHL SUB NOT AND PUSH1 0x1 PUSH1 0x1 PUSH1 0xA0 SHL SUB SWAP3 SWAP1 SWAP3 AND SWAP2 SWAP1 SWAP2 OR SWAP1 SSTORE JUMP JUMPDEST PUSH1 0x60 PUSH2 0x4475 PUSH2 0x4DD1 JUMP JUMPDEST DUP1 MLOAD PUSH2 0x4483 SWAP1 PUSH2 0x100 PUSH2 0x48C4 JUMP JUMPDEST POP PUSH2 0x44C3 DUP2 PUSH1 0x40 MLOAD DUP1 PUSH1 0x40 ADD PUSH1 0x40 MSTORE DUP1 PUSH1 0xC DUP2 MSTORE PUSH1 0x20 ADD PUSH32 0x636F64654C6F636174696F6E0000000000000000000000000000000000000000 DUP2 MSTORE POP PUSH2 0x493B JUMP JUMPDEST PUSH2 0x44E2 DUP2 DUP5 PUSH1 0x0 ADD MLOAD PUSH1 0x1 DUP2 GT ISZERO PUSH2 0x44DD JUMPI PUSH2 0x44DD PUSH2 0x5AAE JUMP JUMPDEST PUSH2 0x4959 JUMP JUMPDEST PUSH2 0x4521 DUP2 PUSH1 0x40 MLOAD DUP1 PUSH1 0x40 ADD PUSH1 0x40 MSTORE DUP1 PUSH1 0x8 DUP2 MSTORE PUSH1 0x20 ADD PUSH32 0x6C616E6775616765000000000000000000000000000000000000000000000000 DUP2 MSTORE POP PUSH2 0x493B JUMP JUMPDEST PUSH2 0x453B DUP2 DUP5 PUSH1 0x40 ADD MLOAD PUSH1 0x0 DUP2 GT ISZERO PUSH2 0x44DD JUMPI PUSH2 0x44DD PUSH2 0x5AAE JUMP JUMPDEST PUSH2 0x457A DUP2 PUSH1 0x40 MLOAD DUP1 PUSH1 0x40 ADD PUSH1 0x40 MSTORE DUP1 PUSH1 0x6 DUP2 MSTORE PUSH1 0x20 ADD PUSH32 0x736F757263650000000000000000000000000000000000000000000000000000 DUP2 MSTORE POP PUSH2 0x493B JUMP JUMPDEST PUSH2 0x4588 DUP2 DUP5 PUSH1 0x60 ADD MLOAD PUSH2 0x493B JUMP JUMPDEST PUSH1 0xA0 DUP4 ADD MLOAD MLOAD ISZERO PUSH2 0x462E JUMPI PUSH2 0x45D2 DUP2 PUSH1 0x40 MLOAD DUP1 PUSH1 0x40 ADD PUSH1 0x40 MSTORE DUP1 PUSH1 0x4 DUP2 MSTORE PUSH1 0x20 ADD PUSH32 0x6172677300000000000000000000000000000000000000000000000000000000 DUP2 MSTORE POP PUSH2 0x493B JUMP JUMPDEST PUSH2 0x45DB DUP2 PUSH2 0x4992 JUMP JUMPDEST PUSH1 0x0 JUMPDEST DUP4 PUSH1 0xA0 ADD MLOAD MLOAD DUP2 LT ISZERO PUSH2 0x4624 JUMPI PUSH2 0x4612 DUP3 DUP6 PUSH1 0xA0 ADD MLOAD DUP4 DUP2 MLOAD DUP2 LT PUSH2 0x4605 JUMPI PUSH2 0x4605 PUSH2 0x5AC4 JUMP JUMPDEST PUSH1 0x20 MUL PUSH1 0x20 ADD ADD MLOAD PUSH2 0x493B JUMP JUMPDEST DUP1 PUSH2 0x461C DUP2 PUSH2 0x5A53 JUMP JUMPDEST SWAP2 POP POP PUSH2 0x45DE JUMP JUMPDEST POP PUSH2 0x462E DUP2 PUSH2 0x49B6 JUMP JUMPDEST PUSH1 0x80 DUP4 ADD MLOAD MLOAD ISZERO PUSH2 0x472F JUMPI PUSH1 0x0 DUP4 PUSH1 0x20 ADD MLOAD PUSH1 0x1 DUP2 GT ISZERO PUSH2 0x4651 JUMPI PUSH2 0x4651 PUSH2 0x5AAE JUMP JUMPDEST EQ ISZERO PUSH2 0x4689 JUMPI PUSH1 0x40 MLOAD PUSH32 0xA80D31F700000000000000000000000000000000000000000000000000000000 DUP2 MSTORE PUSH1 0x4 ADD PUSH1 0x40 MLOAD DUP1 SWAP2 SUB SWAP1 REVERT JUMPDEST PUSH2 0x46C8 DUP2 PUSH1 0x40 MLOAD DUP1 PUSH1 0x40 ADD PUSH1 0x40 MSTORE DUP1 PUSH1 0xF DUP2 MSTORE PUSH1 0x20 ADD PUSH32 0x736563726574734C6F636174696F6E0000000000000000000000000000000000 DUP2 MSTORE POP PUSH2 0x493B JUMP JUMPDEST PUSH2 0x46E2 DUP2 DUP5 PUSH1 0x20 ADD MLOAD PUSH1 0x1 DUP2 GT ISZERO PUSH2 0x44DD JUMPI PUSH2 0x44DD PUSH2 0x5AAE JUMP JUMPDEST PUSH2 0x4721 DUP2 PUSH1 0x40 MLOAD DUP1 PUSH1 0x40 ADD PUSH1 0x40 MSTORE DUP1 PUSH1 0x7 DUP2 MSTORE PUSH1 0x20 ADD PUSH32 0x7365637265747300000000000000000000000000000000000000000000000000 DUP2 MSTORE POP PUSH2 0x493B JUMP JUMPDEST PUSH2 0x472F DUP2 DUP5 PUSH1 0x80 ADD MLOAD PUSH2 0x49D4 JUMP JUMPDEST MLOAD MLOAD SWAP3 SWAP2 POP POP JUMP JUMPDEST PUSH1 0x1 PUSH1 0x1 PUSH1 0xA0 SHL SUB DUP2 AND CALLER EQ ISZERO PUSH2 0x4790 JUMPI PUSH1 0x40 MLOAD PUSH3 0x461BCD PUSH1 0xE5 SHL DUP2 MSTORE PUSH1 0x20 PUSH1 0x4 DUP3 ADD MSTORE PUSH1 0x17 PUSH1 0x24 DUP3 ADD MSTORE PUSH32 0x43616E6E6F74207472616E7366657220746F2073656C66000000000000000000 PUSH1 0x44 DUP3 ADD MSTORE PUSH1 0x64 ADD PUSH2 0xA6D JUMP JUMPDEST PUSH1 0x3 DUP1 SLOAD PUSH1 0x1 PUSH1 0x1 PUSH1 0xA0 SHL SUB NOT AND PUSH1 0x1 PUSH1 0x1 PUSH1 0xA0 SHL SUB DUP4 DUP2 AND SWAP2 DUP3 OR SWAP1 SWAP3 SSTORE PUSH1 0x2 SLOAD PUSH1 0x40 MLOAD SWAP2 SWAP3 AND SWAP1 PUSH32 0xED8889F560326EB138920D842192F0EB3DD22B4F139C87A2C57538E05BAE1278 SWAP1 PUSH1 0x0 SWAP1 LOG3 POP JUMP JUMPDEST PUSH1 0x0 DUP1 PUSH27 0x184F03E93FF9F4DAA797ED6E38ED64BF6A1F010000000000000000 DUP4 LT PUSH2 0x482B JUMPI PUSH27 0x184F03E93FF9F4DAA797ED6E38ED64BF6A1F010000000000000000 DUP4 DIV SWAP3 POP PUSH1 0x40 ADD JUMPDEST PUSH14 0x4EE2D6D415B85ACEF8100000000 DUP4 LT PUSH2 0x4857 JUMPI PUSH14 0x4EE2D6D415B85ACEF8100000000 DUP4 DIV SWAP3 POP PUSH1 0x20 ADD JUMPDEST PUSH7 0x2386F26FC10000 DUP4 LT PUSH2 0x4875 JUMPI PUSH7 0x2386F26FC10000 DUP4 DIV SWAP3 POP PUSH1 0x10 ADD JUMPDEST PUSH4 0x5F5E100 DUP4 LT PUSH2 0x488D JUMPI PUSH4 0x5F5E100 DUP4 DIV SWAP3 POP PUSH1 0x8 ADD JUMPDEST PUSH2 0x2710 DUP4 LT PUSH2 0x48A1 JUMPI PUSH2 0x2710 DUP4 DIV SWAP3 POP PUSH1 0x4 ADD JUMPDEST PUSH1 0x64 DUP4 LT PUSH2 0x48B3 JUMPI PUSH1 0x64 DUP4 DIV SWAP3 POP PUSH1 0x2 ADD JUMPDEST PUSH1 0xA DUP4 LT PUSH2 0x2791 JUMPI PUSH1 0x1 ADD SWAP3 SWAP2 POP POP JUMP JUMPDEST PUSH1 0x40 DUP1 MLOAD DUP1 DUP3 ADD SWAP1 SWAP2 MSTORE PUSH1 0x60 DUP2 MSTORE PUSH1 0x0 PUSH1 0x20 DUP3 ADD MSTORE PUSH2 0x48E4 PUSH1 0x20 DUP4 PUSH2 0x5A6E JUMP JUMPDEST ISZERO PUSH2 0x490C JUMPI PUSH2 0x48F4 PUSH1 0x20 DUP4 PUSH2 0x5A6E JUMP JUMPDEST PUSH2 0x48FF SWAP1 PUSH1 0x20 PUSH2 0x59D5 JUMP JUMPDEST PUSH2 0x4909 SWAP1 DUP4 PUSH2 0x589F JUMP JUMPDEST SWAP2 POP JUMPDEST PUSH1 0x20 DUP1 DUP5 ADD DUP4 SWAP1 MSTORE PUSH1 0x40 MLOAD DUP1 DUP6 MSTORE PUSH1 0x0 DUP2 MSTORE SWAP1 DUP2 DUP5 ADD ADD DUP2 DUP2 LT ISZERO PUSH2 0x4930 JUMPI PUSH1 0x0 DUP1 REVERT JUMPDEST PUSH1 0x40 MSTORE POP SWAP2 SWAP3 SWAP2 POP POP JUMP JUMPDEST PUSH2 0x4948 DUP3 PUSH1 0x3 DUP4 MLOAD PUSH2 0x49DD JUMP JUMPDEST DUP2 MLOAD PUSH2 0x4954 SWAP1 DUP3 PUSH2 0x4AFE JUMP JUMPDEST POP POP POP JUMP JUMPDEST DUP2 MLOAD PUSH2 0x4966 SWAP1 PUSH1 0xC2 PUSH2 0x4B26 JUMP JUMPDEST POP PUSH2 0xA10 DUP3 DUP3 PUSH1 0x40 MLOAD PUSH1 0x20 ADD PUSH2 0x497E SWAP2 DUP2 MSTORE PUSH1 0x20 ADD SWAP1 JUMP JUMPDEST PUSH1 0x40 MLOAD PUSH1 0x20 DUP2 DUP4 SUB SUB DUP2 MSTORE SWAP1 PUSH1 0x40 MSTORE PUSH2 0x49D4 JUMP JUMPDEST PUSH2 0x499D DUP2 PUSH1 0x4 PUSH2 0x4B8F JUMP JUMPDEST PUSH1 0x1 DUP2 PUSH1 0x20 ADD DUP2 DUP2 MLOAD PUSH2 0x49B0 SWAP2 SWAP1 PUSH2 0x589F JUMP JUMPDEST SWAP1 MSTORE POP POP JUMP JUMPDEST PUSH2 0x49C1 DUP2 PUSH1 0x7 PUSH2 0x4B8F JUMP JUMPDEST PUSH1 0x1 DUP2 PUSH1 0x20 ADD DUP2 DUP2 MLOAD PUSH2 0x49B0 SWAP2 SWAP1 PUSH2 0x59D5 JUMP JUMPDEST PUSH2 0x4948 DUP3 PUSH1 0x2 DUP4 MLOAD JUMPDEST PUSH1 0x17 DUP2 PUSH8 0xFFFFFFFFFFFFFFFF AND GT PUSH2 0x4A04 JUMPI DUP3 MLOAD PUSH2 0x1511 SWAP1 PUSH1 0xE0 PUSH1 0x5 DUP6 SWAP1 SHL AND DUP4 OR PUSH2 0x4B26 JUMP JUMPDEST PUSH1 0xFF DUP2 PUSH8 0xFFFFFFFFFFFFFFFF AND GT PUSH2 0x4A46 JUMPI DUP3 MLOAD PUSH2 0x4A2D SWAP1 PUSH1 0x18 PUSH2 0x1FE0 PUSH1 0x5 DUP7 SWAP1 SHL AND OR PUSH2 0x4B26 JUMP JUMPDEST POP DUP3 MLOAD PUSH2 0x1511 SWAP1 PUSH8 0xFFFFFFFFFFFFFFFF DUP4 AND PUSH1 0x1 PUSH2 0x4BA6 JUMP JUMPDEST PUSH2 0xFFFF DUP2 PUSH8 0xFFFFFFFFFFFFFFFF AND GT PUSH2 0x4A89 JUMPI DUP3 MLOAD PUSH2 0x4A70 SWAP1 PUSH1 0x19 PUSH2 0x1FE0 PUSH1 0x5 DUP7 SWAP1 SHL AND OR PUSH2 0x4B26 JUMP JUMPDEST POP DUP3 MLOAD PUSH2 0x1511 SWAP1 PUSH8 0xFFFFFFFFFFFFFFFF DUP4 AND PUSH1 0x2 PUSH2 0x4BA6 JUMP JUMPDEST PUSH4 0xFFFFFFFF DUP2 PUSH8 0xFFFFFFFFFFFFFFFF AND GT PUSH2 0x4ACE JUMPI DUP3 MLOAD PUSH2 0x4AB5 SWAP1 PUSH1 0x1A PUSH2 0x1FE0 PUSH1 0x5 DUP7 SWAP1 SHL AND OR PUSH2 0x4B26 JUMP JUMPDEST POP DUP3 MLOAD PUSH2 0x1511 SWAP1 PUSH8 0xFFFFFFFFFFFFFFFF DUP4 AND PUSH1 0x4 PUSH2 0x4BA6 JUMP JUMPDEST DUP3 MLOAD PUSH2 0x4AE5 SWAP1 PUSH1 0x1B PUSH2 0x1FE0 PUSH1 0x5 DUP7 SWAP1 SHL AND OR PUSH2 0x4B26 JUMP JUMPDEST POP DUP3 MLOAD PUSH2 0x1511 SWAP1 PUSH8 0xFFFFFFFFFFFFFFFF DUP4 AND PUSH1 0x8 PUSH2 0x4BA6 JUMP JUMPDEST PUSH1 0x40 DUP1 MLOAD DUP1 DUP3 ADD SWAP1 SWAP2 MSTORE PUSH1 0x60 DUP2 MSTORE PUSH1 0x0 PUSH1 0x20 DUP3 ADD MSTORE PUSH2 0x4B1F DUP4 DUP4 DUP5 MLOAD PUSH2 0x4C2B JUMP JUMPDEST SWAP4 SWAP3 POP POP POP JUMP JUMPDEST PUSH1 0x40 DUP1 MLOAD DUP1 DUP3 ADD SWAP1 SWAP2 MSTORE PUSH1 0x60 DUP2 MSTORE PUSH1 0x0 PUSH1 0x20 DUP3 ADD MSTORE DUP3 MLOAD MLOAD PUSH1 0x0 PUSH2 0x4B4B DUP3 PUSH1 0x1 PUSH2 0x589F JUMP JUMPDEST SWAP1 POP DUP5 PUSH1 0x20 ADD MLOAD DUP3 LT PUSH2 0x4B6C JUMPI PUSH2 0x4B6C DUP6 PUSH2 0x4B67 DUP4 PUSH1 0x2 PUSH2 0x59B6 JUMP JUMPDEST PUSH2 0x4CFC JUMP JUMPDEST DUP5 MLOAD PUSH1 0x20 DUP4 DUP3 ADD ADD DUP6 DUP2 MSTORE8 POP DUP1 MLOAD DUP3 GT ISZERO PUSH2 0x4B85 JUMPI DUP2 DUP2 MSTORE JUMPDEST POP SWAP4 SWAP5 SWAP4 POP POP POP POP JUMP JUMPDEST DUP2 MLOAD PUSH2 0x4954 SWAP1 PUSH1 0x1F PUSH2 0x1FE0 PUSH1 0x5 DUP6 SWAP1 SHL AND OR PUSH2 0x4B26 JUMP JUMPDEST PUSH1 0x40 DUP1 MLOAD DUP1 DUP3 ADD SWAP1 SWAP2 MSTORE PUSH1 0x60 DUP2 MSTORE PUSH1 0x0 PUSH1 0x20 DUP3 ADD MSTORE DUP4 MLOAD MLOAD PUSH1 0x0 PUSH2 0x4BCA DUP3 DUP6 PUSH2 0x589F JUMP JUMPDEST SWAP1 POP DUP6 PUSH1 0x20 ADD MLOAD DUP2 GT ISZERO PUSH2 0x4BE7 JUMPI PUSH2 0x4BE7 DUP7 PUSH2 0x4B67 DUP4 PUSH1 0x2 PUSH2 0x59B6 JUMP JUMPDEST PUSH1 0x0 PUSH1 0x1 PUSH2 0x4BF7 DUP7 PUSH2 0x100 PUSH2 0x590E JUMP JUMPDEST PUSH2 0x4C01 SWAP2 SWAP1 PUSH2 0x59D5 JUMP JUMPDEST SWAP1 POP DUP7 MLOAD DUP3 DUP2 ADD DUP8 DUP4 NOT DUP3 MLOAD AND OR DUP2 MSTORE POP DUP1 MLOAD DUP4 GT ISZERO PUSH2 0x4C1F JUMPI DUP3 DUP2 MSTORE JUMPDEST POP SWAP6 SWAP7 SWAP6 POP POP POP POP POP POP JUMP JUMPDEST PUSH1 0x40 DUP1 MLOAD DUP1 DUP3 ADD SWAP1 SWAP2 MSTORE PUSH1 0x60 DUP2 MSTORE PUSH1 0x0 PUSH1 0x20 DUP3 ADD MSTORE DUP3 MLOAD DUP3 GT ISZERO PUSH2 0x4C4E JUMPI PUSH1 0x0 DUP1 REVERT JUMPDEST DUP4 MLOAD MLOAD PUSH1 0x0 PUSH2 0x4C5D DUP5 DUP4 PUSH2 0x589F JUMP JUMPDEST SWAP1 POP DUP6 PUSH1 0x20 ADD MLOAD DUP2 GT ISZERO PUSH2 0x4C7A JUMPI PUSH2 0x4C7A DUP7 PUSH2 0x4B67 DUP4 PUSH1 0x2 PUSH2 0x59B6 JUMP JUMPDEST DUP6 MLOAD DUP1 MLOAD DUP4 DUP3 ADD PUSH1 0x20 ADD SWAP2 PUSH1 0x0 SWAP2 DUP1 DUP6 GT ISZERO PUSH2 0x4C94 JUMPI DUP5 DUP3 MSTORE JUMPDEST POP POP POP PUSH1 0x20 DUP7 ADD JUMPDEST PUSH1 0x20 DUP7 LT PUSH2 0x4CD4 JUMPI DUP1 MLOAD DUP3 MSTORE PUSH2 0x4CB3 PUSH1 0x20 DUP4 PUSH2 0x589F JUMP JUMPDEST SWAP2 POP PUSH2 0x4CC0 PUSH1 0x20 DUP3 PUSH2 0x589F JUMP JUMPDEST SWAP1 POP PUSH2 0x4CCD PUSH1 0x20 DUP8 PUSH2 0x59D5 JUMP JUMPDEST SWAP6 POP PUSH2 0x4C9C JUMP JUMPDEST MLOAD DUP2 MLOAD PUSH1 0x0 NOT PUSH1 0x20 DUP9 SWAP1 SUB PUSH2 0x100 EXP ADD SWAP1 DUP2 AND SWAP1 NOT SWAP2 SWAP1 SWAP2 AND OR SWAP1 MSTORE POP DUP5 SWAP2 POP POP SWAP4 SWAP3 POP POP POP JUMP JUMPDEST DUP2 MLOAD PUSH2 0x4D08 DUP4 DUP4 PUSH2 0x48C4 JUMP JUMPDEST POP PUSH2 0x1511 DUP4 DUP3 PUSH2 0x4AFE JUMP JUMPDEST DUP3 DUP1 SLOAD PUSH2 0x4D1F SWAP1 PUSH2 0x5A18 JUMP JUMPDEST SWAP1 PUSH1 0x0 MSTORE PUSH1 0x20 PUSH1 0x0 KECCAK256 SWAP1 PUSH1 0x1F ADD PUSH1 0x20 SWAP1 DIV DUP2 ADD SWAP3 DUP3 PUSH2 0x4D41 JUMPI PUSH1 0x0 DUP6 SSTORE PUSH2 0x4D87 JUMP JUMPDEST DUP3 PUSH1 0x1F LT PUSH2 0x4D5A JUMPI DUP1 MLOAD PUSH1 0xFF NOT AND DUP4 DUP1 ADD OR DUP6 SSTORE PUSH2 0x4D87 JUMP JUMPDEST DUP3 DUP1 ADD PUSH1 0x1 ADD DUP6 SSTORE DUP3 ISZERO PUSH2 0x4D87 JUMPI SWAP2 DUP3 ADD JUMPDEST DUP3 DUP2 GT ISZERO PUSH2 0x4D87 JUMPI DUP3 MLOAD DUP3 SSTORE SWAP2 PUSH1 0x20 ADD SWAP2 SWAP1 PUSH1 0x1 ADD SWAP1 PUSH2 0x4D6C JUMP JUMPDEST POP PUSH2 0x4D93 SWAP3 SWAP2 POP PUSH2 0x4E06 JUMP JUMPDEST POP SWAP1 JUMP JUMPDEST DUP3 DUP1 SLOAD DUP3 DUP3 SSTORE SWAP1 PUSH1 0x0 MSTORE PUSH1 0x20 PUSH1 0x0 KECCAK256 SWAP1 DUP2 ADD SWAP3 DUP3 ISZERO PUSH2 0x4D87 JUMPI SWAP2 PUSH1 0x20 MUL DUP3 ADD DUP3 DUP2 GT ISZERO PUSH2 0x4D87 JUMPI DUP3 MLOAD DUP3 SSTORE SWAP2 PUSH1 0x20 ADD SWAP2 SWAP1 PUSH1 0x1 ADD SWAP1 PUSH2 0x4D6C JUMP JUMPDEST PUSH1 0x40 MLOAD DUP1 PUSH1 0x40 ADD PUSH1 0x40 MSTORE DUP1 PUSH2 0x4DF9 PUSH1 0x40 MLOAD DUP1 PUSH1 0x40 ADD PUSH1 0x40 MSTORE DUP1 PUSH1 0x60 DUP2 MSTORE PUSH1 0x20 ADD PUSH1 0x0 DUP2 MSTORE POP SWAP1 JUMP JUMPDEST DUP2 MSTORE PUSH1 0x20 ADD PUSH1 0x0 DUP2 MSTORE POP SWAP1 JUMP JUMPDEST JUMPDEST DUP1 DUP3 GT ISZERO PUSH2 0x4D93 JUMPI PUSH1 0x0 DUP2 SSTORE PUSH1 0x1 ADD PUSH2 0x4E07 JUMP JUMPDEST PUSH1 0x0 DUP3 PUSH1 0x1F DUP4 ADD SLT PUSH2 0x4E2C JUMPI PUSH1 0x0 DUP1 REVERT JUMPDEST DUP2 CALLDATALOAD PUSH1 0x20 PUSH2 0x4E41 PUSH2 0x4E3C DUP4 PUSH2 0x5853 JUMP JUMPDEST PUSH2 0x5822 JUMP JUMPDEST DUP1 DUP4 DUP3 MSTORE DUP3 DUP3 ADD SWAP2 POP DUP3 DUP7 ADD DUP8 DUP5 DUP7 PUSH1 0x5 SHL DUP10 ADD ADD GT ISZERO PUSH2 0x4E61 JUMPI PUSH1 0x0 DUP1 REVERT JUMPDEST PUSH1 0x0 DUP1 JUMPDEST DUP7 DUP2 LT ISZERO PUSH2 0x4EA4 JUMPI DUP3 CALLDATALOAD PUSH8 0xFFFFFFFFFFFFFFFF DUP2 GT ISZERO PUSH2 0x4E83 JUMPI DUP3 DUP4 REVERT JUMPDEST PUSH2 0x4E91 DUP12 DUP9 DUP4 DUP14 ADD ADD PUSH2 0x4EB2 JUMP JUMPDEST DUP7 MSTORE POP SWAP4 DUP6 ADD SWAP4 SWAP2 DUP6 ADD SWAP2 PUSH1 0x1 ADD PUSH2 0x4E65 JUMP JUMPDEST POP SWAP2 SWAP9 SWAP8 POP POP POP POP POP POP POP POP JUMP JUMPDEST PUSH1 0x0 DUP3 PUSH1 0x1F DUP4 ADD SLT PUSH2 0x4EC3 JUMPI PUSH1 0x0 DUP1 REVERT JUMPDEST DUP2 CALLDATALOAD PUSH2 0x4ED1 PUSH2 0x4E3C DUP3 PUSH2 0x5877 JUMP JUMPDEST DUP2 DUP2 MSTORE DUP5 PUSH1 0x20 DUP4 DUP7 ADD ADD GT ISZERO PUSH2 0x4EE6 JUMPI PUSH1 0x0 DUP1 REVERT JUMPDEST DUP2 PUSH1 0x20 DUP6 ADD PUSH1 0x20 DUP4 ADD CALLDATACOPY PUSH1 0x0 SWAP2 DUP2 ADD PUSH1 0x20 ADD SWAP2 SWAP1 SWAP2 MSTORE SWAP4 SWAP3 POP POP POP JUMP JUMPDEST DUP1 CALLDATALOAD PUSH1 0x1 DUP2 LT PUSH2 0x4F12 JUMPI PUSH1 0x0 DUP1 REVERT JUMPDEST SWAP2 SWAP1 POP JUMP JUMPDEST DUP1 CALLDATALOAD PUSH1 0x2 DUP2 LT PUSH2 0x4F12 JUMPI PUSH1 0x0 DUP1 REVERT JUMPDEST DUP1 CALLDATALOAD PUSH4 0xFFFFFFFF DUP2 AND DUP2 EQ PUSH2 0x4F12 JUMPI PUSH1 0x0 DUP1 REVERT JUMPDEST DUP1 CALLDATALOAD PUSH8 0xFFFFFFFFFFFFFFFF DUP2 AND DUP2 EQ PUSH2 0x4F12 JUMPI PUSH1 0x0 DUP1 REVERT JUMPDEST PUSH1 0x0 PUSH1 0x20 DUP3 DUP5 SUB SLT ISZERO PUSH2 0x4F64 JUMPI PUSH1 0x0 DUP1 REVERT JUMPDEST DUP2 CALLDATALOAD PUSH2 0x4B1F DUP2 PUSH2 0x5AF0 JUMP JUMPDEST PUSH1 0x0 PUSH1 0x20 DUP3 DUP5 SUB SLT ISZERO PUSH2 0x4F81 JUMPI PUSH1 0x0 DUP1 REVERT JUMPDEST DUP2 MLOAD PUSH2 0x4B1F DUP2 PUSH2 0x5AF0 JUMP JUMPDEST PUSH1 0x0 DUP1 PUSH1 0x40 DUP4 DUP6 SUB SLT ISZERO PUSH2 0x4F9F JUMPI PUSH1 0x0 DUP1 REVERT JUMPDEST DUP3 CALLDATALOAD PUSH2 0x4FAA DUP2 PUSH2 0x5AF0 JUMP JUMPDEST SWAP5 PUSH1 0x20 SWAP4 SWAP1 SWAP4 ADD CALLDATALOAD SWAP4 POP POP POP JUMP JUMPDEST PUSH1 0x0 DUP1 PUSH1 0x0 DUP1 PUSH1 0x60 DUP6 DUP8 SUB SLT ISZERO PUSH2 0x4FCE JUMPI PUSH1 0x0 DUP1 REVERT JUMPDEST DUP5 CALLDATALOAD PUSH8 0xFFFFFFFFFFFFFFFF DUP1 DUP3 GT ISZERO PUSH2 0x4FE6 JUMPI PUSH1 0x0 DUP1 REVERT JUMPDEST DUP2 DUP8 ADD SWAP2 POP DUP8 PUSH1 0x1F DUP4 ADD SLT PUSH2 0x4FFA JUMPI PUSH1 0x0 DUP1 REVERT JUMPDEST DUP2 CALLDATALOAD DUP2 DUP2 GT ISZERO PUSH2 0x5009 JUMPI PUSH1 0x0 DUP1 REVERT JUMPDEST DUP9 PUSH1 0x20 DUP3 PUSH1 0x5 SHL DUP6 ADD ADD GT ISZERO PUSH2 0x501E JUMPI PUSH1 0x0 DUP1 REVERT JUMPDEST PUSH1 0x20 SWAP3 DUP4 ADD SWAP7 POP SWAP5 POP PUSH2 0x5034 SWAP2 DUP8 ADD SWAP1 POP PUSH2 0x4F3A JUMP JUMPDEST SWAP2 POP PUSH2 0x5042 PUSH1 0x40 DUP7 ADD PUSH2 0x4F26 JUMP JUMPDEST SWAP1 POP SWAP3 SWAP6 SWAP2 SWAP5 POP SWAP3 POP JUMP JUMPDEST PUSH1 0x0 PUSH1 0x20 DUP3 DUP5 SUB SLT ISZERO PUSH2 0x505F JUMPI PUSH1 0x0 DUP1 REVERT JUMPDEST POP CALLDATALOAD SWAP2 SWAP1 POP JUMP JUMPDEST PUSH1 0x0 PUSH1 0x20 DUP3 DUP5 SUB SLT ISZERO PUSH2 0x5078 JUMPI PUSH1 0x0 DUP1 REVERT JUMPDEST POP MLOAD SWAP2 SWAP1 POP JUMP JUMPDEST PUSH1 0x0 DUP1 PUSH1 0x0 PUSH1 0x60 DUP5 DUP7 SUB SLT ISZERO PUSH2 0x5094 JUMPI PUSH1 0x0 DUP1 REVERT JUMPDEST DUP4 CALLDATALOAD SWAP3 POP PUSH1 0x20 DUP5 ADD CALLDATALOAD PUSH8 0xFFFFFFFFFFFFFFFF DUP1 DUP3 GT ISZERO PUSH2 0x50B3 JUMPI PUSH1 0x0 DUP1 REVERT JUMPDEST PUSH2 0x50BF DUP8 DUP4 DUP9 ADD PUSH2 0x4EB2 JUMP JUMPDEST SWAP4 POP PUSH1 0x40 DUP7 ADD CALLDATALOAD SWAP2 POP DUP1 DUP3 GT ISZERO PUSH2 0x50D5 JUMPI PUSH1 0x0 DUP1 REVERT JUMPDEST POP PUSH2 0x50E2 DUP7 DUP3 DUP8 ADD PUSH2 0x4EB2 JUMP JUMPDEST SWAP2 POP POP SWAP3 POP SWAP3 POP SWAP3 JUMP JUMPDEST PUSH1 0x0 PUSH1 0x20 DUP3 DUP5 SUB SLT ISZERO PUSH2 0x50FE JUMPI PUSH1 0x0 DUP1 REVERT JUMPDEST DUP2 CALLDATALOAD PUSH8 0xFFFFFFFFFFFFFFFF DUP2 GT ISZERO PUSH2 0x5115 JUMPI PUSH1 0x0 DUP1 REVERT JUMPDEST PUSH2 0x5121 DUP5 DUP3 DUP6 ADD PUSH2 0x4EB2 JUMP JUMPDEST SWAP5 SWAP4 POP POP POP POP JUMP JUMPDEST PUSH1 0x0 PUSH1 0x20 DUP3 DUP5 SUB SLT ISZERO PUSH2 0x513B JUMPI PUSH1 0x0 DUP1 REVERT JUMPDEST DUP2 MLOAD PUSH8 0xFFFFFFFFFFFFFFFF DUP2 GT ISZERO PUSH2 0x5152 JUMPI PUSH1 0x0 DUP1 REVERT JUMPDEST DUP3 ADD PUSH1 0x1F DUP2 ADD DUP5 SGT PUSH2 0x5163 JUMPI PUSH1 0x0 DUP1 REVERT JUMPDEST DUP1 MLOAD PUSH2 0x5171 PUSH2 0x4E3C DUP3 PUSH2 0x5877 JUMP JUMPDEST DUP2 DUP2 MSTORE DUP6 PUSH1 0x20 DUP4 DUP6 ADD ADD GT ISZERO PUSH2 0x5186 JUMPI PUSH1 0x0 DUP1 REVERT JUMPDEST PUSH2 0x3A1B DUP3 PUSH1 0x20 DUP4 ADD PUSH1 0x20 DUP7 ADD PUSH2 0x59EC JUMP JUMPDEST PUSH1 0x0 DUP1 PUSH1 0x0 DUP1 PUSH1 0x80 DUP6 DUP8 SUB SLT ISZERO PUSH2 0x51AD JUMPI PUSH1 0x0 DUP1 REVERT JUMPDEST DUP5 CALLDATALOAD PUSH8 0xFFFFFFFFFFFFFFFF DUP1 DUP3 GT ISZERO PUSH2 0x51C5 JUMPI PUSH1 0x0 DUP1 REVERT JUMPDEST SWAP1 DUP7 ADD SWAP1 PUSH1 0xC0 DUP3 DUP10 SUB SLT ISZERO PUSH2 0x51D9 JUMPI PUSH1 0x0 DUP1 REVERT JUMPDEST PUSH2 0x51E1 PUSH2 0x57F9 JUMP JUMPDEST PUSH2 0x51EA DUP4 PUSH2 0x4F17 JUMP JUMPDEST DUP2 MSTORE PUSH2 0x51F8 PUSH1 0x20 DUP5 ADD PUSH2 0x4F17 JUMP JUMPDEST PUSH1 0x20 DUP3 ADD MSTORE PUSH2 0x5209 PUSH1 0x40 DUP5 ADD PUSH2 0x4F03 JUMP JUMPDEST PUSH1 0x40 DUP3 ADD MSTORE PUSH1 0x60 DUP4 ADD CALLDATALOAD DUP3 DUP2 GT ISZERO PUSH2 0x5220 JUMPI PUSH1 0x0 DUP1 REVERT JUMPDEST PUSH2 0x522C DUP11 DUP3 DUP7 ADD PUSH2 0x4EB2 JUMP JUMPDEST PUSH1 0x60 DUP4 ADD MSTORE POP PUSH1 0x80 DUP4 ADD CALLDATALOAD DUP3 DUP2 GT ISZERO PUSH2 0x5244 JUMPI PUSH1 0x0 DUP1 REVERT JUMPDEST PUSH2 0x5250 DUP11 DUP3 DUP7 ADD PUSH2 0x4EB2 JUMP JUMPDEST PUSH1 0x80 DUP4 ADD MSTORE POP PUSH1 0xA0 DUP4 ADD CALLDATALOAD DUP3 DUP2 GT ISZERO PUSH2 0x5268 JUMPI PUSH1 0x0 DUP1 REVERT JUMPDEST PUSH2 0x5274 DUP11 DUP3 DUP7 ADD PUSH2 0x4E1B JUMP JUMPDEST PUSH1 0xA0 DUP4 ADD MSTORE POP SWAP6 POP PUSH2 0x528B SWAP2 POP POP PUSH1 0x20 DUP7 ADD PUSH2 0x4F3A JUMP JUMPDEST SWAP3 POP PUSH2 0x5299 PUSH1 0x40 DUP7 ADD PUSH2 0x4F26 JUMP JUMPDEST SWAP4 SWAP7 SWAP3 SWAP6 POP SWAP3 SWAP4 PUSH1 0x60 ADD CALLDATALOAD SWAP3 POP POP JUMP JUMPDEST PUSH1 0x0 DUP1 PUSH1 0x40 DUP4 DUP6 SUB SLT ISZERO PUSH2 0x52BC JUMPI PUSH1 0x0 DUP1 REVERT JUMPDEST DUP3 CALLDATALOAD SWAP2 POP PUSH1 0x20 DUP1 DUP5 ADD CALLDATALOAD PUSH8 0xFFFFFFFFFFFFFFFF DUP2 GT ISZERO PUSH2 0x52DB JUMPI PUSH1 0x0 DUP1 REVERT JUMPDEST DUP5 ADD PUSH1 0x1F DUP2 ADD DUP7 SGT PUSH2 0x52EC JUMPI PUSH1 0x0 DUP1 REVERT JUMPDEST DUP1 CALLDATALOAD PUSH2 0x52FA PUSH2 0x4E3C DUP3 PUSH2 0x5853 JUMP JUMPDEST DUP1 DUP3 DUP3 MSTORE DUP5 DUP3 ADD SWAP2 POP DUP5 DUP5 ADD DUP10 DUP7 DUP6 PUSH1 0x5 SHL DUP8 ADD ADD GT ISZERO PUSH2 0x531A JUMPI PUSH1 0x0 DUP1 REVERT JUMPDEST PUSH1 0x0 SWAP5 POP JUMPDEST DUP4 DUP6 LT ISZERO PUSH2 0x533D JUMPI DUP1 CALLDATALOAD DUP4 MSTORE PUSH1 0x1 SWAP5 SWAP1 SWAP5 ADD SWAP4 SWAP2 DUP6 ADD SWAP2 DUP6 ADD PUSH2 0x531F JUMP JUMPDEST POP DUP1 SWAP6 POP POP POP POP POP POP SWAP3 POP SWAP3 SWAP1 POP JUMP JUMPDEST PUSH1 0x0 PUSH1 0x20 DUP3 DUP5 SUB SLT ISZERO PUSH2 0x535F JUMPI PUSH1 0x0 DUP1 REVERT JUMPDEST DUP2 MLOAD PUSH12 0xFFFFFFFFFFFFFFFFFFFFFFFF DUP2 AND DUP2 EQ PUSH2 0x4B1F JUMPI PUSH1 0x0 DUP1 REVERT JUMPDEST PUSH1 0x0 DUP2 MLOAD DUP1 DUP5 MSTORE PUSH1 0x20 DUP1 DUP6 ADD SWAP5 POP DUP1 DUP5 ADD PUSH1 0x0 JUMPDEST DUP4 DUP2 LT ISZERO PUSH2 0x53AB JUMPI DUP2 MLOAD DUP8 MSTORE SWAP6 DUP3 ADD SWAP6 SWAP1 DUP3 ADD SWAP1 PUSH1 0x1 ADD PUSH2 0x538F JUMP JUMPDEST POP SWAP5 SWAP6 SWAP5 POP POP POP POP POP JUMP JUMPDEST PUSH1 0x0 DUP2 MLOAD DUP1 DUP5 MSTORE PUSH2 0x53CE DUP2 PUSH1 0x20 DUP7 ADD PUSH1 0x20 DUP7 ADD PUSH2 0x59EC JUMP JUMPDEST PUSH1 0x1F ADD PUSH1 0x1F NOT AND SWAP3 SWAP1 SWAP3 ADD PUSH1 0x20 ADD SWAP3 SWAP2 POP POP JUMP JUMPDEST PUSH1 0x0 PUSH2 0x180 DUP3 MLOAD DUP2 DUP6 MSTORE PUSH2 0x53F8 DUP3 DUP7 ADD DUP3 PUSH2 0x53B6 JUMP JUMPDEST SWAP2 POP POP PUSH1 0x20 DUP4 ADD MLOAD DUP5 DUP3 SUB PUSH1 0x20 DUP7 ADD MSTORE PUSH2 0x5412 DUP3 DUP3 PUSH2 0x53B6 JUMP JUMPDEST SWAP2 POP POP PUSH1 0x40 DUP4 ADD MLOAD DUP5 DUP3 SUB PUSH1 0x40 DUP7 ADD MSTORE PUSH2 0x542C DUP3 DUP3 PUSH2 0x53B6 JUMP JUMPDEST SWAP2 POP POP PUSH1 0x60 DUP4 ADD MLOAD DUP5 DUP3 SUB PUSH1 0x60 DUP7 ADD MSTORE PUSH2 0x5446 DUP3 DUP3 PUSH2 0x53B6 JUMP JUMPDEST SWAP2 POP POP PUSH1 0x80 DUP4 ADD MLOAD DUP5 DUP3 SUB PUSH1 0x80 DUP7 ADD MSTORE PUSH2 0x5460 DUP3 DUP3 PUSH2 0x53B6 JUMP JUMPDEST SWAP2 POP POP PUSH1 0xA0 DUP4 ADD MLOAD DUP5 DUP3 SUB PUSH1 0xA0 DUP7 ADD MSTORE PUSH2 0x547A DUP3 DUP3 PUSH2 0x53B6 JUMP JUMPDEST SWAP2 POP POP PUSH1 0xC0 DUP4 ADD MLOAD DUP5 DUP3 SUB PUSH1 0xC0 DUP7 ADD MSTORE PUSH2 0x5494 DUP3 DUP3 PUSH2 0x53B6 JUMP JUMPDEST SWAP2 POP POP PUSH1 0xE0 DUP4 ADD MLOAD DUP5 DUP3 SUB PUSH1 0xE0 DUP7 ADD MSTORE PUSH2 0x54AE DUP3 DUP3 PUSH2 0x53B6 JUMP JUMPDEST SWAP2 POP POP PUSH2 0x100 DUP1 DUP5 ADD MLOAD DUP6 DUP4 SUB DUP3 DUP8 ADD MSTORE PUSH2 0x54C9 DUP4 DUP3 PUSH2 0x53B6 JUMP JUMPDEST SWAP3 POP POP POP PUSH2 0x120 DUP1 DUP5 ADD MLOAD DUP6 DUP4 SUB DUP3 DUP8 ADD MSTORE PUSH2 0x54E5 DUP4 DUP3 PUSH2 0x53B6 JUMP JUMPDEST SWAP3 POP POP POP PUSH2 0x140 DUP1 DUP5 ADD MLOAD DUP6 DUP4 SUB DUP3 DUP8 ADD MSTORE PUSH2 0x5501 DUP4 DUP3 PUSH2 0x53B6 JUMP JUMPDEST SWAP3 POP POP POP PUSH2 0x160 DUP1 DUP5 ADD MLOAD DUP6 DUP4 SUB DUP3 DUP8 ADD MSTORE PUSH2 0x551D DUP4 DUP3 PUSH2 0x53B6 JUMP JUMPDEST SWAP7 SWAP6 POP POP POP POP POP POP JUMP JUMPDEST PUSH1 0x0 PUSH1 0x20 DUP1 DUP4 ADD DUP2 DUP5 MSTORE DUP1 DUP6 MLOAD DUP1 DUP4 MSTORE PUSH1 0x40 DUP7 ADD SWAP2 POP PUSH1 0x40 DUP2 PUSH1 0x5 SHL DUP8 ADD ADD SWAP3 POP DUP4 DUP8 ADD PUSH1 0x0 JUMPDEST DUP3 DUP2 LT ISZERO PUSH2 0x557C JUMPI PUSH1 0x3F NOT DUP9 DUP7 SUB ADD DUP5 MSTORE PUSH2 0x556A DUP6 DUP4 MLOAD PUSH2 0x53E2 JUMP JUMPDEST SWAP5 POP SWAP3 DUP6 ADD SWAP3 SWAP1 DUP6 ADD SWAP1 PUSH1 0x1 ADD PUSH2 0x554E JUMP JUMPDEST POP SWAP3 SWAP8 SWAP7 POP POP POP POP POP POP POP JUMP JUMPDEST DUP3 ISZERO ISZERO DUP2 MSTORE PUSH1 0x40 PUSH1 0x20 DUP3 ADD MSTORE PUSH1 0x0 PUSH2 0x5121 PUSH1 0x40 DUP4 ADD DUP5 PUSH2 0x537B JUMP JUMPDEST PUSH1 0x20 DUP2 MSTORE PUSH1 0x0 PUSH2 0x4B1F PUSH1 0x20 DUP4 ADD DUP5 PUSH2 0x53B6 JUMP JUMPDEST PUSH1 0x40 DUP2 MSTORE PUSH1 0x0 PUSH2 0x55CA PUSH1 0x40 DUP4 ADD DUP6 PUSH2 0x53B6 JUMP JUMPDEST DUP3 DUP2 SUB PUSH1 0x20 DUP5 ADD MSTORE PUSH2 0x3A1B DUP2 DUP6 PUSH2 0x53B6 JUMP JUMPDEST PUSH1 0x20 DUP2 ADD PUSH1 0x3 DUP4 LT PUSH2 0x55FE JUMPI PUSH4 0x4E487B71 PUSH1 0xE0 SHL PUSH1 0x0 MSTORE PUSH1 0x21 PUSH1 0x4 MSTORE PUSH1 0x24 PUSH1 0x0 REVERT JUMPDEST SWAP2 SWAP1 MSTORE SWAP1 JUMP JUMPDEST PUSH2 0x180 DUP2 MSTORE PUSH1 0x0 PUSH2 0x5619 PUSH2 0x180 DUP4 ADD DUP16 PUSH2 0x53B6 JUMP JUMPDEST DUP3 DUP2 SUB PUSH1 0x20 DUP5 ADD MSTORE PUSH2 0x562B DUP2 DUP16 PUSH2 0x53B6 JUMP JUMPDEST SWAP1 POP DUP3 DUP2 SUB PUSH1 0x40 DUP5 ADD MSTORE PUSH2 0x563F DUP2 DUP15 PUSH2 0x53B6 JUMP JUMPDEST SWAP1 POP DUP3 DUP2 SUB PUSH1 0x60 DUP5 ADD MSTORE PUSH2 0x5653 DUP2 DUP14 PUSH2 0x53B6 JUMP JUMPDEST SWAP1 POP DUP3 DUP2 SUB PUSH1 0x80 DUP5 ADD MSTORE PUSH2 0x5667 DUP2 DUP13 PUSH2 0x53B6 JUMP JUMPDEST SWAP1 POP DUP3 DUP2 SUB PUSH1 0xA0 DUP5 ADD MSTORE PUSH2 0x567B DUP2 DUP12 PUSH2 0x53B6 JUMP JUMPDEST SWAP1 POP DUP3 DUP2 SUB PUSH1 0xC0 DUP5 ADD MSTORE PUSH2 0x568F DUP2 DUP11 PUSH2 0x53B6 JUMP JUMPDEST SWAP1 POP DUP3 DUP2 SUB PUSH1 0xE0 DUP5 ADD MSTORE PUSH2 0x56A3 DUP2 DUP10 PUSH2 0x53B6 JUMP JUMPDEST SWAP1 POP DUP3 DUP2 SUB PUSH2 0x100 DUP5 ADD MSTORE PUSH2 0x56B8 DUP2 DUP9 PUSH2 0x53B6 JUMP JUMPDEST SWAP1 POP DUP3 DUP2 SUB PUSH2 0x120 DUP5 ADD MSTORE PUSH2 0x56CD DUP2 DUP8 PUSH2 0x53B6 JUMP JUMPDEST SWAP1 POP DUP3 DUP2 SUB PUSH2 0x140 DUP5 ADD MSTORE PUSH2 0x56E2 DUP2 DUP7 PUSH2 0x53B6 JUMP JUMPDEST SWAP1 POP DUP3 DUP2 SUB PUSH2 0x160 DUP5 ADD MSTORE PUSH2 0x56F7 DUP2 DUP6 PUSH2 0x53B6 JUMP JUMPDEST SWAP16 SWAP15 POP POP POP POP POP POP POP POP POP POP POP POP POP POP POP JUMP JUMPDEST PUSH1 0x20 DUP2 MSTORE PUSH1 0x0 PUSH2 0x4B1F PUSH1 0x20 DUP4 ADD DUP5 PUSH2 0x53E2 JUMP JUMPDEST DUP3 DUP2 MSTORE PUSH1 0x40 PUSH1 0x20 DUP3 ADD MSTORE PUSH1 0x0 PUSH2 0x5121 PUSH1 0x40 DUP4 ADD DUP5 PUSH2 0x537B JUMP JUMPDEST PUSH8 0xFFFFFFFFFFFFFFFF DUP5 AND DUP2 MSTORE PUSH1 0x60 PUSH1 0x20 DUP3 ADD MSTORE PUSH1 0x0 PUSH2 0x5759 PUSH1 0x60 DUP4 ADD DUP6 PUSH2 0x53B6 JUMP JUMPDEST SWAP1 POP PUSH4 0xFFFFFFFF DUP4 AND PUSH1 0x40 DUP4 ADD MSTORE SWAP5 SWAP4 POP POP POP POP JUMP JUMPDEST PUSH8 0xFFFFFFFFFFFFFFFF DUP6 AND DUP2 MSTORE PUSH1 0x80 PUSH1 0x20 DUP3 ADD MSTORE PUSH1 0x0 PUSH2 0x5792 PUSH1 0x80 DUP4 ADD DUP7 PUSH2 0x53B6 JUMP JUMPDEST PUSH4 0xFFFFFFFF SWAP5 SWAP1 SWAP5 AND PUSH1 0x40 DUP4 ADD MSTORE POP PUSH1 0x60 ADD MSTORE SWAP3 SWAP2 POP POP JUMP JUMPDEST PUSH1 0x0 DUP1 DUP4 CALLDATALOAD PUSH1 0x1E NOT DUP5 CALLDATASIZE SUB ADD DUP2 SLT PUSH2 0x57C2 JUMPI PUSH1 0x0 DUP1 REVERT JUMPDEST DUP4 ADD DUP1 CALLDATALOAD SWAP2 POP PUSH8 0xFFFFFFFFFFFFFFFF DUP3 GT ISZERO PUSH2 0x57DD JUMPI PUSH1 0x0 DUP1 REVERT JUMPDEST PUSH1 0x20 ADD SWAP2 POP CALLDATASIZE DUP2 SWAP1 SUB DUP3 SGT ISZERO PUSH2 0x57F2 JUMPI PUSH1 0x0 DUP1 REVERT JUMPDEST SWAP3 POP SWAP3 SWAP1 POP JUMP JUMPDEST PUSH1 0x40 MLOAD PUSH1 0xC0 DUP2 ADD PUSH8 0xFFFFFFFFFFFFFFFF DUP2 GT DUP3 DUP3 LT OR ISZERO PUSH2 0x581C JUMPI PUSH2 0x581C PUSH2 0x5ADA JUMP JUMPDEST PUSH1 0x40 MSTORE SWAP1 JUMP JUMPDEST PUSH1 0x40 MLOAD PUSH1 0x1F DUP3 ADD PUSH1 0x1F NOT AND DUP2 ADD PUSH8 0xFFFFFFFFFFFFFFFF DUP2 GT DUP3 DUP3 LT OR ISZERO PUSH2 0x584B JUMPI PUSH2 0x584B PUSH2 0x5ADA JUMP JUMPDEST PUSH1 0x40 MSTORE SWAP2 SWAP1 POP JUMP JUMPDEST PUSH1 0x0 PUSH8 0xFFFFFFFFFFFFFFFF DUP3 GT ISZERO PUSH2 0x586D JUMPI PUSH2 0x586D PUSH2 0x5ADA JUMP JUMPDEST POP PUSH1 0x5 SHL PUSH1 0x20 ADD SWAP1 JUMP JUMPDEST PUSH1 0x0 PUSH8 0xFFFFFFFFFFFFFFFF DUP3 GT ISZERO PUSH2 0x5891 JUMPI PUSH2 0x5891 PUSH2 0x5ADA JUMP JUMPDEST POP PUSH1 0x1F ADD PUSH1 0x1F NOT AND PUSH1 0x20 ADD SWAP1 JUMP JUMPDEST PUSH1 0x0 DUP3 NOT DUP3 GT ISZERO PUSH2 0x58B2 JUMPI PUSH2 0x58B2 PUSH2 0x5A82 JUMP JUMPDEST POP ADD SWAP1 JUMP JUMPDEST PUSH1 0x0 DUP3 PUSH2 0x58C6 JUMPI PUSH2 0x58C6 PUSH2 0x5A98 JUMP JUMPDEST POP DIV SWAP1 JUMP JUMPDEST PUSH1 0x1 DUP2 DUP2 JUMPDEST DUP1 DUP6 GT ISZERO PUSH2 0x5906 JUMPI DUP2 PUSH1 0x0 NOT DIV DUP3 GT ISZERO PUSH2 0x58EC JUMPI PUSH2 0x58EC PUSH2 0x5A82 JUMP JUMPDEST DUP1 DUP6 AND ISZERO PUSH2 0x58F9 JUMPI SWAP2 DUP2 MUL SWAP2 JUMPDEST SWAP4 DUP5 SHR SWAP4 SWAP1 DUP1 MUL SWAP1 PUSH2 0x58D0 JUMP JUMPDEST POP SWAP3 POP SWAP3 SWAP1 POP JUMP JUMPDEST PUSH1 0x0 PUSH2 0x4B1F DUP4 DUP4 PUSH1 0x0 DUP3 PUSH2 0x5924 JUMPI POP PUSH1 0x1 PUSH2 0x2791 JUMP JUMPDEST DUP2 PUSH2 0x5931 JUMPI POP PUSH1 0x0 PUSH2 0x2791 JUMP JUMPDEST DUP2 PUSH1 0x1 DUP2 EQ PUSH2 0x5947 JUMPI PUSH1 0x2 DUP2 EQ PUSH2 0x5951 JUMPI PUSH2 0x596D JUMP JUMPDEST PUSH1 0x1 SWAP2 POP POP PUSH2 0x2791 JUMP JUMPDEST PUSH1 0xFF DUP5 GT ISZERO PUSH2 0x5962 JUMPI PUSH2 0x5962 PUSH2 0x5A82 JUMP JUMPDEST POP POP PUSH1 0x1 DUP3 SHL PUSH2 0x2791 JUMP JUMPDEST POP PUSH1 0x20 DUP4 LT PUSH2 0x133 DUP4 LT AND PUSH1 0x4E DUP5 LT PUSH1 0xB DUP5 LT AND OR ISZERO PUSH2 0x5990 JUMPI POP DUP2 DUP2 EXP PUSH2 0x2791 JUMP JUMPDEST PUSH2 0x599A DUP4 DUP4 PUSH2 0x58CB JUMP JUMPDEST DUP1 PUSH1 0x0 NOT DIV DUP3 GT ISZERO PUSH2 0x59AE JUMPI PUSH2 0x59AE PUSH2 0x5A82 JUMP JUMPDEST MUL SWAP4 SWAP3 POP POP POP JUMP JUMPDEST PUSH1 0x0 DUP2 PUSH1 0x0 NOT DIV DUP4 GT DUP3 ISZERO ISZERO AND ISZERO PUSH2 0x59D0 JUMPI PUSH2 0x59D0 PUSH2 0x5A82 JUMP JUMPDEST POP MUL SWAP1 JUMP JUMPDEST PUSH1 0x0 DUP3 DUP3 LT ISZERO PUSH2 0x59E7 JUMPI PUSH2 0x59E7 PUSH2 0x5A82 JUMP JUMPDEST POP SUB SWAP1 JUMP JUMPDEST PUSH1 0x0 JUMPDEST DUP4 DUP2 LT ISZERO PUSH2 0x5A07 JUMPI DUP2 DUP2 ADD MLOAD DUP4 DUP3 ADD MSTORE PUSH1 0x20 ADD PUSH2 0x59EF JUMP JUMPDEST DUP4 DUP2 GT ISZERO PUSH2 0x1511 JUMPI POP POP PUSH1 0x0 SWAP2 ADD MSTORE JUMP JUMPDEST PUSH1 0x1 DUP2 DUP2 SHR SWAP1 DUP3 AND DUP1 PUSH2 0x5A2C JUMPI PUSH1 0x7F DUP3 AND SWAP2 POP JUMPDEST PUSH1 0x20 DUP3 LT DUP2 EQ ISZERO PUSH2 0x5A4D JUMPI PUSH4 0x4E487B71 PUSH1 0xE0 SHL PUSH1 0x0 MSTORE PUSH1 0x22 PUSH1 0x4 MSTORE PUSH1 0x24 PUSH1 0x0 REVERT JUMPDEST POP SWAP2 SWAP1 POP JUMP JUMPDEST PUSH1 0x0 PUSH1 0x0 NOT DUP3 EQ ISZERO PUSH2 0x5A67 JUMPI PUSH2 0x5A67 PUSH2 0x5A82 JUMP JUMPDEST POP PUSH1 0x1 ADD SWAP1 JUMP JUMPDEST PUSH1 0x0 DUP3 PUSH2 0x5A7D JUMPI PUSH2 0x5A7D PUSH2 0x5A98 JUMP JUMPDEST POP MOD SWAP1 JUMP JUMPDEST PUSH4 0x4E487B71 PUSH1 0xE0 SHL PUSH1 0x0 MSTORE PUSH1 0x11 PUSH1 0x4 MSTORE PUSH1 0x24 PUSH1 0x0 REVERT JUMPDEST PUSH4 0x4E487B71 PUSH1 0xE0 SHL PUSH1 0x0 MSTORE PUSH1 0x12 PUSH1 0x4 MSTORE PUSH1 0x24 PUSH1 0x0 REVERT JUMPDEST PUSH4 0x4E487B71 PUSH1 0xE0 SHL PUSH1 0x0 MSTORE PUSH1 0x21 PUSH1 0x4 MSTORE PUSH1 0x24 PUSH1 0x0 REVERT JUMPDEST PUSH4 0x4E487B71 PUSH1 0xE0 SHL PUSH1 0x0 MSTORE PUSH1 0x32 PUSH1 0x4 MSTORE PUSH1 0x24 PUSH1 0x0 REVERT JUMPDEST PUSH4 0x4E487B71 PUSH1 0xE0 SHL PUSH1 0x0 MSTORE PUSH1 0x41 PUSH1 0x4 MSTORE PUSH1 0x24 PUSH1 0x0 REVERT JUMPDEST PUSH1 0x1 PUSH1 0x1 PUSH1 0xA0 SHL SUB DUP2 AND DUP2 EQ PUSH2 0x3EC2 JUMPI PUSH1 0x0 DUP1 REVERT INVALID LOG2 PUSH5 0x6970667358 0x22 SLT KECCAK256 0x23 0xDB 0x2F BALANCE PUSH13 0xA8C32FB2808BE1EDCD782536B6 0xB6 DUP8 PUSH2 0x4D77 SWAP15 OR RETURN 0xDA 0xC3 CALL PUSH13 0xD0F464736F6C63430008070033 "},"methodIdentifiers":{"acceptOwnership()":"79ba5097","addSimulatedRequestId(address,bytes32)":"30bda99d","boolInsuranceData()":"04b2303c","bytesToUint256(bytes)":"cc9de25d","checkPayoutContract()":"c0303c37","constructionTime()":"f06c5610","currentTime()":"d18e81b3","endPolicy(address,uint256)":"bc58d68c","estimateCost((uint8,uint8,uint8,string,bytes,string[]),uint64,uint32,uint256)":"d4b39175","estimateInsurance(string[],uint64,uint32)":"1aa1a081","getAllUserPolicies(address)":"80858026","getCurrentTime()":"29cb924d","getDONPublicKey()":"d328a91e","getInsuranceQuoteData(bytes32)":"215fc625","getLastRandomWord()":"b91ce205","getPolicyData(address,uint256)":"61875d8d","getPolicyRequestId(address,uint256)":"6ec7be7e","getPriceLinkMatic()":"05f411d6","getPriceMaticUsd()":"e3928b7f","getRequestStatus(uint256)":"d8a4676f","getSourceCode()":"698cd3ad","handleOracleFulfillment(bytes32,bytes,bytes)":"0ca76175","helloWorld()":"c605f76c","insurancePoliciesMapping(address,uint256)":"b655cd9b","insuranceQuoteData(bytes32)":"b1011dbd","lastRequestId()":"fc2a88c3","latestError()":"fffeb84e","latestRequestId()":"1aa46f59","latestResponse()":"bef3a2f0","linkMaticPriceFeed()":"e5c33f30","maticUsdPriceFeed()":"6c6f9990","owner()":"8da5cb5b","payUser(address,uint256)":"ecd831e8","policyRequestIdMapping(address,uint256)":"e0e2fa9a","policyStatus(address,uint256)":"f11da55b","randomnessRequesterAddress(uint256)":"5ec7baca","rawFulfillRandomWords(uint256,uint256[])":"1fe543e3","requestIds(uint256)":"8796ba8c","requestRandomWords()":"e0c86289","s_requests(uint256)":"a168fa89","setCheckPayoutContract(address)":"69f8eaed","setSourceCode(string)":"00b46767","sourceCode()":"13c60177","startPolicy(bytes32)":"0b50567f","transferOwnership(address)":"f2fde38b","updateOracleAddress(address)":"f7023bb6"}},"storageLayout":{"storage":[{"astId":3542,"contract":"contracts/Insurance.sol:Insurance","label":"s_oracle","offset":0,"slot":"0","type":"t_contract(FunctionsOracleInterface)3976"},{"astId":3546,"contract":"contracts/Insurance.sol:Insurance","label":"s_pendingRequests","offset":0,"slot":"1","type":"t_mapping(t_bytes32,t_address)"},{"astId":27,"contract":"contracts/Insurance.sol:Insurance","label":"s_owner","offset":0,"slot":"2","type":"t_address"},{"astId":29,"contract":"contracts/Insurance.sol:Insurance","label":"s_pendingOwner","offset":0,"slot":"3","type":"t_address"},{"astId":2058,"contract":"contracts/Insurance.sol:Insurance","label":"sourceCode","offset":0,"slot":"4","type":"t_string_storage"},{"astId":2091,"contract":"contracts/Insurance.sol:Insurance","label":"checkPayoutContract","offset":0,"slot":"5","type":"t_address"},{"astId":2093,"contract":"contracts/Insurance.sol:Insurance","label":"constructionTime","offset":0,"slot":"6","type":"t_uint256"},{"astId":2096,"contract":"contracts/Insurance.sol:Insurance","label":"COORDINATOR","offset":0,"slot":"7","type":"t_contract(VRFCoordinatorV2Interface)397"},{"astId":2098,"contract":"contracts/Insurance.sol:Insurance","label":"s_subscriptionId","offset":20,"slot":"7","type":"t_uint64"},{"astId":2101,"contract":"contracts/Insurance.sol:Insurance","label":"requestIds","offset":0,"slot":"8","type":"t_array(t_uint256)dyn_storage"},{"astId":2103,"contract":"contracts/Insurance.sol:Insurance","label":"lastRequestId","offset":0,"slot":"9","type":"t_uint256"},{"astId":2106,"contract":"contracts/Insurance.sol:Insurance","label":"keyHash","offset":0,"slot":"10","type":"t_bytes32"},{"astId":2109,"contract":"contracts/Insurance.sol:Insurance","label":"callbackGasLimit","offset":0,"slot":"11","type":"t_uint32"},{"astId":2112,"contract":"contracts/Insurance.sol:Insurance","label":"requestConfirmations","offset":4,"slot":"11","type":"t_uint16"},{"astId":2115,"contract":"contracts/Insurance.sol:Insurance","label":"numWords","offset":6,"slot":"11","type":"t_uint32"},{"astId":2118,"contract":"contracts/Insurance.sol:Insurance","label":"linkMaticPriceFeed","offset":10,"slot":"11","type":"t_contract(LinkMaticPriceFeed)3153"},{"astId":2121,"contract":"contracts/Insurance.sol:Insurance","label":"maticUsdPriceFeed","offset":0,"slot":"12","type":"t_contract(MaticUsdPriceFeed)3186"},{"astId":2127,"contract":"contracts/Insurance.sol:Insurance","label":"latestRequestId","offset":0,"slot":"13","type":"t_bytes32"},{"astId":2129,"contract":"contracts/Insurance.sol:Insurance","label":"latestResponse","offset":0,"slot":"14","type":"t_bytes_storage"},{"astId":2131,"contract":"contracts/Insurance.sol:Insurance","label":"latestError","offset":0,"slot":"15","type":"t_bytes_storage"},{"astId":2201,"contract":"contracts/Insurance.sol:Insurance","label":"currentTime","offset":0,"slot":"16","type":"t_uint256"},{"astId":2232,"contract":"contracts/Insurance.sol:Insurance","label":"policyRequestIdMapping","offset":0,"slot":"17","type":"t_mapping(t_address,t_mapping(t_uint256,t_bytes32))"},{"astId":2239,"contract":"contracts/Insurance.sol:Insurance","label":"policyStatus","offset":0,"slot":"18","type":"t_mapping(t_address,t_mapping(t_uint256,t_enum(PolicyStatus)2070))"},{"astId":2244,"contract":"contracts/Insurance.sol:Insurance","label":"insuranceQuoteData","offset":0,"slot":"19","type":"t_mapping(t_bytes32,t_struct(InsuranceQuoteData)2077_storage)"},{"astId":2250,"contract":"contracts/Insurance.sol:Insurance","label":"insurancePoliciesMapping","offset":0,"slot":"20","type":"t_mapping(t_address,t_array(t_struct(InsuranceData)2226_storage)dyn_storage)"},{"astId":2254,"contract":"contracts/Insurance.sol:Insurance","label":"randomnessRequesterAddress","offset":0,"slot":"21","type":"t_mapping(t_uint256,t_address)"},{"astId":2259,"contract":"contracts/Insurance.sol:Insurance","label":"s_requests","offset":0,"slot":"22","type":"t_mapping(t_uint256,t_struct(RequestStatus)2066_storage)"}],"types":{"t_address":{"encoding":"inplace","label":"address","numberOfBytes":"20"},"t_array(t_struct(InsuranceData)2226_storage)dyn_storage":{"base":"t_struct(InsuranceData)2226_storage","encoding":"dynamic_array","label":"struct Insurance.InsuranceData[]","numberOfBytes":"32"},"t_array(t_uint256)dyn_storage":{"base":"t_uint256","encoding":"dynamic_array","label":"uint256[]","numberOfBytes":"32"},"t_bool":{"encoding":"inplace","label":"bool","numberOfBytes":"1"},"t_bytes32":{"encoding":"inplace","label":"bytes32","numberOfBytes":"32"},"t_bytes_storage":{"encoding":"bytes","label":"bytes","numberOfBytes":"32"},"t_contract(FunctionsOracleInterface)3976":{"encoding":"inplace","label":"contract FunctionsOracleInterface","numberOfBytes":"20"},"t_contract(LinkMaticPriceFeed)3153":{"encoding":"inplace","label":"contract LinkMaticPriceFeed","numberOfBytes":"20"},"t_contract(MaticUsdPriceFeed)3186":{"encoding":"inplace","label":"contract MaticUsdPriceFeed","numberOfBytes":"20"},"t_contract(VRFCoordinatorV2Interface)397":{"encoding":"inplace","label":"contract VRFCoordinatorV2Interface","numberOfBytes":"20"},"t_enum(PolicyStatus)2070":{"encoding":"inplace","label":"enum Insurance.PolicyStatus","numberOfBytes":"1"},"t_mapping(t_address,t_array(t_struct(InsuranceData)2226_storage)dyn_storage)":{"encoding":"mapping","key":"t_address","label":"mapping(address => struct Insurance.InsuranceData[])","numberOfBytes":"32","value":"t_array(t_struct(InsuranceData)2226_storage)dyn_storage"},"t_mapping(t_address,t_mapping(t_uint256,t_bytes32))":{"encoding":"mapping","key":"t_address","label":"mapping(address => mapping(uint256 => bytes32))","numberOfBytes":"32","value":"t_mapping(t_uint256,t_bytes32)"},"t_mapping(t_address,t_mapping(t_uint256,t_enum(PolicyStatus)2070))":{"encoding":"mapping","key":"t_address","label":"mapping(address => mapping(uint256 => enum Insurance.PolicyStatus))","numberOfBytes":"32","value":"t_mapping(t_uint256,t_enum(PolicyStatus)2070)"},"t_mapping(t_bytes32,t_address)":{"encoding":"mapping","key":"t_bytes32","label":"mapping(bytes32 => address)","numberOfBytes":"32","value":"t_address"},"t_mapping(t_bytes32,t_struct(InsuranceQuoteData)2077_storage)":{"encoding":"mapping","key":"t_bytes32","label":"mapping(bytes32 => struct Insurance.InsuranceQuoteData)","numberOfBytes":"32","value":"t_struct(InsuranceQuoteData)2077_storage"},"t_mapping(t_uint256,t_address)":{"encoding":"mapping","key":"t_uint256","label":"mapping(uint256 => address)","numberOfBytes":"32","value":"t_address"},"t_mapping(t_uint256,t_bytes32)":{"encoding":"mapping","key":"t_uint256","label":"mapping(uint256 => bytes32)","numberOfBytes":"32","value":"t_bytes32"},"t_mapping(t_uint256,t_enum(PolicyStatus)2070)":{"encoding":"mapping","key":"t_uint256","label":"mapping(uint256 => enum Insurance.PolicyStatus)","numberOfBytes":"32","value":"t_enum(PolicyStatus)2070"},"t_mapping(t_uint256,t_struct(RequestStatus)2066_storage)":{"encoding":"mapping","key":"t_uint256","label":"mapping(uint256 => struct Insurance.RequestStatus)","numberOfBytes":"32","value":"t_struct(RequestStatus)2066_storage"},"t_string_storage":{"encoding":"bytes","label":"string","numberOfBytes":"32"},"t_struct(InsuranceData)2226_storage":{"encoding":"inplace","label":"struct Insurance.InsuranceData","members":[{"astId":2203,"contract":"contracts/Insurance.sol:Insurance","label":"latNe","offset":0,"slot":"0","type":"t_string_storage"},{"astId":2205,"contract":"contracts/Insurance.sol:Insurance","label":"longNe","offset":0,"slot":"1","type":"t_string_storage"},{"astId":2207,"contract":"contracts/Insurance.sol:Insurance","label":"latSe","offset":0,"slot":"2","type":"t_string_storage"},{"astId":2209,"contract":"contracts/Insurance.sol:Insurance","label":"longSe","offset":0,"slot":"3","type":"t_string_storage"},{"astId":2211,"contract":"contracts/Insurance.sol:Insurance","label":"latSw","offset":0,"slot":"4","type":"t_string_storage"},{"astId":2213,"contract":"contracts/Insurance.sol:Insurance","label":"longSw","offset":0,"slot":"5","type":"t_string_storage"},{"astId":2215,"contract":"contracts/Insurance.sol:Insurance","label":"latNw","offset":0,"slot":"6","type":"t_string_storage"},{"astId":2217,"contract":"contracts/Insurance.sol:Insurance","label":"longNw","offset":0,"slot":"7","type":"t_string_storage"},{"astId":2219,"contract":"contracts/Insurance.sol:Insurance","label":"configParam","offset":0,"slot":"8","type":"t_string_storage"},{"astId":2221,"contract":"contracts/Insurance.sol:Insurance","label":"startTime","offset":0,"slot":"9","type":"t_string_storage"},{"astId":2223,"contract":"contracts/Insurance.sol:Insurance","label":"endTime","offset":0,"slot":"10","type":"t_string_storage"},{"astId":2225,"contract":"contracts/Insurance.sol:Insurance","label":"policyCreationTime","offset":0,"slot":"11","type":"t_string_storage"}],"numberOfBytes":"384"},"t_struct(InsuranceQuoteData)2077_storage":{"encoding":"inplace","label":"struct Insurance.InsuranceQuoteData","members":[{"astId":2072,"contract":"contracts/Insurance.sol:Insurance","label":"user","offset":0,"slot":"0","type":"t_address"},{"astId":2074,"contract":"contracts/Insurance.sol:Insurance","label":"policyIndex","offset":0,"slot":"1","type":"t_uint256"},{"astId":2076,"contract":"contracts/Insurance.sol:Insurance","label":"cost","offset":0,"slot":"2","type":"t_uint256"}],"numberOfBytes":"96"},"t_struct(RequestStatus)2066_storage":{"encoding":"inplace","label":"struct Insurance.RequestStatus","members":[{"astId":2060,"contract":"contracts/Insurance.sol:Insurance","label":"fulfilled","offset":0,"slot":"0","type":"t_bool"},{"astId":2062,"contract":"contracts/Insurance.sol:Insurance","label":"exists","offset":1,"slot":"0","type":"t_bool"},{"astId":2065,"contract":"contracts/Insurance.sol:Insurance","label":"randomWords","offset":0,"slot":"1","type":"t_array(t_uint256)dyn_storage"}],"numberOfBytes":"64"},"t_uint16":{"encoding":"inplace","label":"uint16","numberOfBytes":"2"},"t_uint256":{"encoding":"inplace","label":"uint256","numberOfBytes":"32"},"t_uint32":{"encoding":"inplace","label":"uint32","numberOfBytes":"4"},"t_uint64":{"encoding":"inplace","label":"uint64","numberOfBytes":"8"}}}}}}