{"contracts/CheckPayout.sol":{"CheckPayout":{"abi":[{"inputs":[{"internalType":"address","name":"oracle","type":"address"},{"internalType":"address","name":"insuranceAddress","type":"address"}],"stateMutability":"nonpayable","type":"constructor"},{"inputs":[],"name":"EmptyArgs","type":"error"},{"inputs":[],"name":"EmptySource","type":"error"},{"inputs":[],"name":"NoInlineSecrets","type":"error"},{"inputs":[],"name":"RequestIsAlreadyPending","type":"error"},{"inputs":[],"name":"RequestIsNotPending","type":"error"},{"inputs":[],"name":"SenderIsNotRegistry","type":"error"},{"anonymous":false,"inputs":[{"indexed":true,"internalType":"bytes32","name":"requestId","type":"bytes32"},{"indexed":false,"internalType":"bytes","name":"result","type":"bytes"},{"indexed":false,"internalType":"bytes","name":"err","type":"bytes"}],"name":"OCRResponse","type":"event"},{"anonymous":false,"inputs":[{"indexed":true,"internalType":"address","name":"from","type":"address"},{"indexed":true,"internalType":"address","name":"to","type":"address"}],"name":"OwnershipTransferRequested","type":"event"},{"anonymous":false,"inputs":[{"indexed":true,"internalType":"address","name":"from","type":"address"},{"indexed":true,"internalType":"address","name":"to","type":"address"}],"name":"OwnershipTransferred","type":"event"},{"anonymous":false,"inputs":[{"indexed":false,"internalType":"address","name":"originalSender","type":"address"},{"indexed":false,"internalType":"uint256","name":"payoutAmount","type":"uint256"}],"name":"Payout","type":"event"},{"anonymous":false,"inputs":[{"indexed":false,"internalType":"address","name":"originalSender","type":"address"},{"indexed":false,"internalType":"uint256","name":"policyIndex","type":"uint256"}],"name":"PolicyEnded","type":"event"},{"anonymous":false,"inputs":[{"indexed":true,"internalType":"bytes32","name":"id","type":"bytes32"}],"name":"RequestFulfilled","type":"event"},{"anonymous":false,"inputs":[{"indexed":true,"internalType":"bytes32","name":"id","type":"bytes32"}],"name":"RequestSent","type":"event"},{"anonymous":false,"inputs":[{"indexed":false,"internalType":"address","name":"originalSender","type":"address"},{"indexed":false,"internalType":"uint256","name":"policyIndex","type":"uint256"},{"indexed":false,"internalType":"uint256","name":"timeRemaining","type":"uint256"}],"name":"TimeRemaining","type":"event"},{"anonymous":false,"inputs":[{"indexed":false,"internalType":"string[]","name":"args","type":"string[]"}],"name":"UsingArgs","type":"event"},{"inputs":[],"name":"acceptOwnership","outputs":[],"stateMutability":"nonpayable","type":"function"},{"inputs":[{"internalType":"address","name":"oracleAddress","type":"address"},{"internalType":"bytes32","name":"requestId","type":"bytes32"}],"name":"addSimulatedRequestId","outputs":[],"stateMutability":"nonpayable","type":"function"},{"inputs":[{"internalType":"uint64","name":"subscriptionId","type":"uint64"},{"internalType":"uint32","name":"gasLimit","type":"uint32"},{"internalType":"uint256","name":"policyIndex","type":"uint256"}],"name":"checkPolicy","outputs":[{"internalType":"bytes32","name":"","type":"bytes32"}],"stateMutability":"nonpayable","type":"function"},{"inputs":[{"components":[{"internalType":"enum Functions.Location","name":"codeLocation","type":"uint8"},{"internalType":"enum Functions.Location","name":"secretsLocation","type":"uint8"},{"internalType":"enum Functions.CodeLanguage","name":"language","type":"uint8"},{"internalType":"string","name":"source","type":"string"},{"internalType":"bytes","name":"secrets","type":"bytes"},{"internalType":"string[]","name":"args","type":"string[]"}],"internalType":"struct Functions.Request","name":"req","type":"tuple"},{"internalType":"uint64","name":"subscriptionId","type":"uint64"},{"internalType":"uint32","name":"gasLimit","type":"uint32"},{"internalType":"uint256","name":"gasPrice","type":"uint256"}],"name":"estimateCost","outputs":[{"internalType":"uint96","name":"","type":"uint96"}],"stateMutability":"view","type":"function"},{"inputs":[],"name":"getDONPublicKey","outputs":[{"internalType":"bytes","name":"","type":"bytes"}],"stateMutability":"view","type":"function"},{"inputs":[],"name":"getSourceCode","outputs":[{"internalType":"string","name":"","type":"string"}],"stateMutability":"view","type":"function"},{"inputs":[{"internalType":"bytes32","name":"requestId","type":"bytes32"},{"internalType":"bytes","name":"response","type":"bytes"},{"internalType":"bytes","name":"err","type":"bytes"}],"name":"handleOracleFulfillment","outputs":[],"stateMutability":"nonpayable","type":"function"},{"inputs":[],"name":"insuranceContract","outputs":[{"internalType":"contract Insurance","name":"","type":"address"}],"stateMutability":"view","type":"function"},{"inputs":[],"name":"latestError","outputs":[{"internalType":"bytes","name":"","type":"bytes"}],"stateMutability":"view","type":"function"},{"inputs":[],"name":"latestRequestId","outputs":[{"internalType":"bytes32","name":"","type":"bytes32"}],"stateMutability":"view","type":"function"},{"inputs":[],"name":"latestResponse","outputs":[{"internalType":"bytes","name":"","type":"bytes"}],"stateMutability":"view","type":"function"},{"inputs":[],"name":"owner","outputs":[{"internalType":"address","name":"","type":"address"}],"stateMutability":"view","type":"function"},{"inputs":[{"internalType":"bytes32","name":"","type":"bytes32"}],"name":"requestIdToPolicyIndex","outputs":[{"internalType":"uint256","name":"","type":"uint256"}],"stateMutability":"view","type":"function"},{"inputs":[{"internalType":"bytes32","name":"","type":"bytes32"}],"name":"requestIdToSender","outputs":[{"internalType":"address","name":"","type":"address"}],"stateMutability":"view","type":"function"},{"inputs":[{"internalType":"string","name":"_sourceCode","type":"string"}],"name":"setSourceCode","outputs":[],"stateMutability":"nonpayable","type":"function"},{"inputs":[],"name":"sourceCode","outputs":[{"internalType":"string","name":"","type":"string"}],"stateMutability":"view","type":"function"},{"inputs":[{"internalType":"string","name":"s","type":"string"}],"name":"stringToUint256","outputs":[{"internalType":"uint256","name":"","type":"uint256"}],"stateMutability":"pure","type":"function"},{"inputs":[{"internalType":"address","name":"to","type":"address"}],"name":"transferOwnership","outputs":[],"stateMutability":"nonpayable","type":"function"},{"inputs":[{"internalType":"address","name":"oracle","type":"address"}],"name":"updateOracleAddress","outputs":[],"stateMutability":"nonpayable","type":"function"}],"evm":{"bytecode":{"linkReferences":{},"object":"60806040523480156200001157600080fd5b5060405162002d0838038062002d088339810160408190526200003491620001d8565b600080546001600160a01b0319166001600160a01b038416178155339081906001600160a01b038216620000af5760405162461bcd60e51b815260206004820152601860248201527f43616e6e6f7420736574206f776e657220746f207a65726f000000000000000060448201526064015b60405180910390fd5b600280546001600160a01b0319166001600160a01b0384811691909117909155811615620000e257620000e2816200010e565b5050600880546001600160a01b0319166001600160a01b03939093169290921790915550620002109050565b6001600160a01b038116331415620001695760405162461bcd60e51b815260206004820152601760248201527f43616e6e6f74207472616e7366657220746f2073656c660000000000000000006044820152606401620000a6565b600380546001600160a01b0319166001600160a01b03838116918217909255600254604051919216907fed8889f560326eb138920d842192f0eb3dd22b4f139c87a2c57538e05bae127890600090a350565b80516001600160a01b0381168114620001d357600080fd5b919050565b60008060408385031215620001ec57600080fd5b620001f783620001bb565b91506200020760208401620001bb565b90509250929050565b612ae880620002206000396000f3fe608060405234801561001057600080fd5b50600436106101505760003560e01c806379ba5097116100cd578063d328a91e11610081578063f2fde38b11610066578063f2fde38b146102c0578063f7023bb6146102d3578063fffeb84e146102e657600080fd5b8063d328a91e14610288578063d4b391751461029057600080fd5b8063ac5d3723116100b2578063ac5d37231461025a578063bef3a2f01461026d578063d012a5a81461027557600080fd5b806379ba5097146102415780638da5cb5b1461024957600080fd5b8063219c0eee11610124578063448af93711610109578063448af937146102065780634732889d14610219578063698cd3ad1461023957600080fd5b8063219c0eee146101b257806330bda99d146101f357600080fd5b8062b46767146101555780630ca761751461016a57806313c601771461017d5780631aa46f591461019b575b600080fd5b610168610163366004612270565b6102ee565b005b6101686101783660046121b2565b61030d565b6101856103b3565b6040516101929190612715565b60405180910390f35b6101a460055481565b604051908152602001610192565b6101db6101c0366004612180565b600a602052600090815260409020546001600160a01b031681565b6040516001600160a01b039091168152602001610192565b610168610201366004612154565b610441565b6101a461021436600461261d565b610453565b6101a4610227366004612180565b60096020526000908152604090205481565b610185610a63565b610168610af5565b6002546001600160a01b03166101db565b6101a4610268366004612270565b610baf565b610185610c31565b6008546101db906001600160a01b031681565b610185610c3e565b6102a361029e36600461250b565b610cdc565b6040516bffffffffffffffffffffffff9091168152602001610192565b6101686102ce36600461211a565b610d72565b6101686102e136600461211a565b610d86565b610185610dac565b6102f6610db9565b8051610309906004906020840190611e21565b5050565b60008381526001602052604090205483906001600160a01b0316331461035f576040517fa0c5ec6300000000000000000000000000000000000000000000000000000000815260040160405180910390fd5b60008181526001602052604080822080546001600160a01b03191690555182917f85e1543bf2f84fe80c6badbce3648c8539ad1df4d2b3d822938ca0538be727e691a26103ad848484610e15565b50505050565b600480546103c0906129cd565b80601f01602080910402602001604051908101604052809291908181526020018280546103ec906129cd565b80156104395780601f1061040e57610100808354040283529160200191610439565b820191906000526020600020905b81548152906001019060200180831161041c57829003601f168201915b505050505081565b610449610db9565b6103098282611217565b600061045d611ea5565b6008546040516361875d8d60e01b8152336004820152602481018590526001600160a01b03909116906361875d8d9060440160006040518083038186803b1580156104a757600080fd5b505afa1580156104bb573d6000803e3d6000fd5b505050506040513d6000823e601f3d908101601f191682016040526104e391908101906122a5565b81526008546040517f6ec7be7e000000000000000000000000000000000000000000000000000000008152336004820152602481018590526000916001600160a01b031690636ec7be7e9060440160206040518083038186803b15801561054957600080fd5b505afa15801561055d573d6000803e3d6000fd5b505050506040513d601f19601f820116820180604052508101906105819190612199565b6008546040517f215fc625000000000000000000000000000000000000000000000000000000008152600481018390529192506001600160a01b03169063215fc6259060240160606040518083038186803b1580156105df57600080fd5b505afa1580156105f3573d6000803e3d6000fd5b505050506040513d601f19601f8201168201806040525081019061061791906124a9565b60208381018290526040918201518251600e8082526101e08201909452909260009282015b606081526020019060019003908161063c575050845151815191925090829060009061066a5761066a612a71565b60200260200101819052508360000151602001518160018151811061069157610691612a71565b6020026020010181905250836000015160400151816002815181106106b8576106b8612a71565b6020026020010181905250836000015160600151816003815181106106df576106df612a71565b60200260200101819052508360000151608001518160048151811061070657610706612a71565b6020026020010181905250836000015160a001518160058151811061072d5761072d612a71565b6020026020010181905250836000015160c001518160068151811061075457610754612a71565b6020026020010181905250836000015160e001518160078151811061077b5761077b612a71565b602002602001018190525083600001516101000151816008815181106107a3576107a3612a71565b602002602001018190525083600001516101200151816009815181106107cb576107cb612a71565b60200260200101819052508360000151610140015181600a815181106107f3576107f3612a71565b602002602001018190525061080742611297565b81600b8151811061081a5761081a612a71565b60200260200101819052508360000151610160015181600c8151811061084257610842612a71565b60200260200101819052506108db600860009054906101000a90046001600160a01b03166001600160a01b031663b91ce2056040518163ffffffff1660e01b815260040160206040518083038186803b15801561089e57600080fd5b505afa1580156108b2573d6000803e3d6000fd5b505050506040513d601f19601f820116820180604052508101906108d69190612199565b611297565b81600d815181106108ee576108ee612a71565b60200260200101819052506109336040805160c08101909152806000815260200160008152602001600081526020016060815260200160608152602001606081525090565b6109d560008060048054610946906129cd565b80601f0160208091040260200160405190810160405280929190818152602001828054610972906129cd565b80156109bf5780601f10610994576101008083540402835291602001916109bf565b820191906000526020600020905b8154815290600101906020018083116109a257829003601f168201915b505050505084611339909392919063ffffffff16565b6109df81836113cd565b7f930a61d412ee04b567f790d1232c1fe3d797de7bfa1f99ba4b6e7fcc7448521f82604051610a0e91906126b3565b60405180910390a16000610a23828b8b61140d565b600581905560008181526009602090815260408083208c9055600a909152902080546001600160a01b0319163317905596505050505050505b9392505050565b606060048054610a72906129cd565b80601f0160208091040260200160405190810160405280929190818152602001828054610a9e906129cd565b8015610aeb5780601f10610ac057610100808354040283529160200191610aeb565b820191906000526020600020905b815481529060010190602001808311610ace57829003601f168201915b5050505050905090565b6003546001600160a01b03163314610b545760405162461bcd60e51b815260206004820152601660248201527f4d7573742062652070726f706f736564206f776e65720000000000000000000060448201526064015b60405180910390fd5b600280546001600160a01b0319808216339081179093556003805490911690556040516001600160a01b03909116919082907f8be0079c531659141344cd1fd0a4f28419497f9722a3daafe3b4186f6b6457e090600090a350565b60008181805b8251811015610c29576000838281518110610bd257610bd2612a71565b016020015160f81c905060308110801590610bee575060398111155b15610c1657610bfe60308261298a565b610c0984600a61296b565b610c139190612868565b92505b5080610c2181612a08565b915050610bb5565b509392505050565b600680546103c0906129cd565b60008054604080517fd328a91e00000000000000000000000000000000000000000000000000000000815290516060936001600160a01b039093169263d328a91e9260048082019391829003018186803b158015610c9b57600080fd5b505afa158015610caf573d6000803e3d6000fd5b505050506040513d6000823e601f3d908101601f19168201604052610cd7919081019061221f565b905090565b600080546001600160a01b031663d227d24585610cf88861157f565b86866040518563ffffffff1660e01b8152600401610d199493929190612786565b60206040518083038186803b158015610d3157600080fd5b505afa158015610d45573d6000803e3d6000fd5b505050506040513d601f19601f82011682018060405250810190610d699190612659565b95945050505050565b610d7a610db9565b610d838161184b565b50565b610d8e610db9565b600080546001600160a01b0319166001600160a01b03831617905550565b600780546103c0906129cd565b6002546001600160a01b03163314610e135760405162461bcd60e51b815260206004820152601660248201527f4f6e6c792063616c6c61626c65206279206f776e6572000000000000000000006044820152606401610b4b565b565b8151610e28906006906020850190611e21565b508051610e3c906007906020840190611e21565b50827f7bab0ec163b5c132c72b8146ac4d6e067e82ed58f8b131150aa71c92589115628383604051610e6f929190612728565b60405180910390a2600083815260096020908152604080832054600a9092528083205460085491516361875d8d60e01b81526001600160a01b03918216600482018190526024820185905293949291909116906361875d8d9060440160006040518083038186803b158015610ee357600080fd5b505afa158015610ef7573d6000803e3d6000fd5b505050506040513d6000823e601f3d908101601f19168201604052610f1f91908101906122a5565b6008546040517fcc9de25d0000000000000000000000000000000000000000000000000000000081529192506000916001600160a01b039091169063cc9de25d90610f6e908990600401612715565b60206040518083038186803b158015610f8657600080fd5b505afa158015610f9a573d6000803e3d6000fd5b505050506040513d601f19601f82011682018060405250810190610fbe9190612199565b905080156110f3576008546040517fecd831e80000000000000000000000000000000000000000000000000000000081526001600160a01b038581166004830152602482018490529091169063ecd831e890604401600060405180830381600087803b15801561102d57600080fd5b505af1158015611041573d6000803e3d6000fd5b5050600854604051632f1635a360e21b81526001600160a01b03878116600483015260248201899052909116925063bc58d68c9150604401600060405180830381600087803b15801561109357600080fd5b505af11580156110a7573d6000803e3d6000fd5b5050604080516001600160a01b0387168152602081018590527f5afeca38b2064c23a692c4cf353015d80ab3ecc417b4f893f372690c11fbd9a6935001905060405180910390a161120e565b6000611103836101400151610baf565b9050804211156111b757600854604051632f1635a360e21b81526001600160a01b038681166004830152602482018890529091169063bc58d68c90604401600060405180830381600087803b15801561115b57600080fd5b505af115801561116f573d6000803e3d6000fd5b5050604080516001600160a01b0388168152602081018990527f05e258a8da32249e7d7e1ebcd6b64f7c97c4235999db64b6687191b183d5e3f2935001905060405180910390a15b7f59d77641060cafc4d86dddd4bd9c687bbfbd23fb4b1962869afe9f54507105ea84866111e4428561298a565b604080516001600160a01b03909416845260208401929092529082015260600160405180910390a1505b50505050505050565b60008181526001602052604090205481906001600160a01b031615611268576040517f8b457ad200000000000000000000000000000000000000000000000000000000815260040160405180910390fd5b50600090815260016020526040902080546001600160a01b0319166001600160a01b0392909216919091179055565b606060006112a4836118f6565b600101905060008167ffffffffffffffff8111156112c4576112c4612a87565b6040519080825280601f01601f1916602001820160405280156112ee576020820181803683370190505b5090508181016020015b600019017f3031323334353637383961626364656600000000000000000000000000000000600a86061a8153600a850494508461133457610c29565b6112f8565b8051611371576040517f22ce3edd00000000000000000000000000000000000000000000000000000000815260040160405180910390fd5b8383600181111561138457611384612a5b565b9081600181111561139757611397612a5b565b905250604084018280156113ad576113ad612a5b565b908180156113bd576113bd612a5b565b9052506060909301929092525050565b8051611405576040517ffe936cb700000000000000000000000000000000000000000000000000000000815260040160405180910390fd5b60a090910152565b6000805481906001600160a01b03166328242b048561142b8861157f565b866040518463ffffffff1660e01b815260040161144a9392919061274d565b602060405180830381600087803b15801561146457600080fd5b505af1158015611478573d6000803e3d6000fd5b505050506040513d601f19601f8201168201806040525081019061149c9190612199565b905060008054906101000a90046001600160a01b03166001600160a01b0316635ab1bd536040518163ffffffff1660e01b815260040160206040518083038186803b1580156114ea57600080fd5b505afa1580156114fe573d6000803e3d6000fd5b505050506040513d601f19601f820116820180604052508101906115229190612137565b60008281526001602052604080822080546001600160a01b0319166001600160a01b039490941693909317909255905182917f1131472297a800fee664d1d89cfa8f7676ff07189ecc53f80bbb5f4969099db891a2949350505050565b6060611589611f37565b8051611597906101006119d9565b506115d7816040518060400160405280600c81526020017f636f64654c6f636174696f6e0000000000000000000000000000000000000000815250611a50565b6115f681846000015160018111156115f1576115f1612a5b565b611a6e565b611635816040518060400160405280600881526020017f6c616e6775616765000000000000000000000000000000000000000000000000815250611a50565b61164f81846040015160008111156115f1576115f1612a5b565b61168e816040518060400160405280600681526020017f736f757263650000000000000000000000000000000000000000000000000000815250611a50565b61169c818460600151611a50565b60a08301515115611742576116e6816040518060400160405280600481526020017f6172677300000000000000000000000000000000000000000000000000000000815250611a50565b6116ef81611aa7565b60005b8360a001515181101561173857611726828560a00151838151811061171957611719612a71565b6020026020010151611a50565b8061173081612a08565b9150506116f2565b5061174281611acb565b608083015151156118435760008360200151600181111561176557611765612a5b565b141561179d576040517fa80d31f700000000000000000000000000000000000000000000000000000000815260040160405180910390fd5b6117dc816040518060400160405280600f81526020017f736563726574734c6f636174696f6e0000000000000000000000000000000000815250611a50565b6117f681846020015160018111156115f1576115f1612a5b565b611835816040518060400160405280600781526020017f7365637265747300000000000000000000000000000000000000000000000000815250611a50565b611843818460800151611ae9565b515192915050565b6001600160a01b0381163314156118a45760405162461bcd60e51b815260206004820152601760248201527f43616e6e6f74207472616e7366657220746f2073656c660000000000000000006044820152606401610b4b565b600380546001600160a01b0319166001600160a01b03838116918217909255600254604051919216907fed8889f560326eb138920d842192f0eb3dd22b4f139c87a2c57538e05bae127890600090a350565b6000807a184f03e93ff9f4daa797ed6e38ed64bf6a1f010000000000000000831061193f577a184f03e93ff9f4daa797ed6e38ed64bf6a1f010000000000000000830492506040015b6d04ee2d6d415b85acef8100000000831061196b576d04ee2d6d415b85acef8100000000830492506020015b662386f26fc10000831061198957662386f26fc10000830492506010015b6305f5e10083106119a1576305f5e100830492506008015b61271083106119b557612710830492506004015b606483106119c7576064830492506002015b600a83106119d3576001015b92915050565b6040805180820190915260608152600060208201526119f9602083612a23565b15611a2157611a09602083612a23565b611a1490602061298a565b611a1e9083612868565b91505b602080840183905260405180855260008152908184010181811015611a4557600080fd5b604052509192915050565b611a5d8260038351611af2565b8151611a699082611c13565b505050565b8151611a7b9060c2611c34565b506103098282604051602001611a9391815260200190565b604051602081830303815290604052611ae9565b611ab2816004611c9d565b600181602001818151611ac59190612868565b90525050565b611ad6816007611c9d565b600181602001818151611ac5919061298a565b611a5d82600283515b60178167ffffffffffffffff1611611b195782516103ad9060e0600585901b168317611c34565b60ff8167ffffffffffffffff1611611b5b578251611b42906018611fe0600586901b1617611c34565b5082516103ad9067ffffffffffffffff83166001611cb4565b61ffff8167ffffffffffffffff1611611b9e578251611b85906019611fe0600586901b1617611c34565b5082516103ad9067ffffffffffffffff83166002611cb4565b63ffffffff8167ffffffffffffffff1611611be3578251611bca90601a611fe0600586901b1617611c34565b5082516103ad9067ffffffffffffffff83166004611cb4565b8251611bfa90601b611fe0600586901b1617611c34565b5082516103ad9067ffffffffffffffff83166008611cb4565b604080518082019091526060815260006020820152610a5c83838451611d39565b6040805180820190915260608152600060208201528251516000611c59826001612868565b905084602001518210611c7a57611c7a85611c7583600261296b565b611e0a565b8451602083820101858153508051821115611c93578181525b5093949350505050565b8151611a6990601f611fe0600585901b1617611c34565b6040805180820190915260608152600060208201528351516000611cd88285612868565b90508560200151811115611cf557611cf586611c7583600261296b565b60006001611d05866101006128c3565b611d0f919061298a565b90508651828101878319825116178152508051831115611d2d578281525b50959695505050505050565b6040805180820190915260608152600060208201528251821115611d5c57600080fd5b8351516000611d6b8483612868565b90508560200151811115611d8857611d8886611c7583600261296b565b855180518382016020019160009180851115611da2578482525b505050602086015b60208610611de25780518252611dc1602083612868565b9150611dce602082612868565b9050611ddb60208761298a565b9550611daa565b51815160001960208890036101000a0190811690199190911617905250849150509392505050565b8151611e1683836119d9565b506103ad8382611c13565b828054611e2d906129cd565b90600052602060002090601f016020900481019282611e4f5760008555611e95565b82601f10611e6857805160ff1916838001178555611e95565b82800160010185558215611e95579182015b82811115611e95578251825591602001919060010190611e7a565b50611ea1929150611f6c565b5090565b6040518060400160405280611f146040518061018001604052806060815260200160608152602001606081526020016060815260200160608152602001606081526020016060815260200160608152602001606081526020016060815260200160608152602001606081525090565b815260408051606081018252600080825260208281018290529282015291015290565b6040518060400160405280611f5f604051806040016040528060608152602001600081525090565b8152602001600081525090565b5b80821115611ea15760008155600101611f6d565b6000611f94611f8f84612840565b61280f565b9050828152838383011115611fa857600080fd5b610a5c8360208301846129a1565b600082601f830112611fc757600080fd5b8135602067ffffffffffffffff80831115611fe457611fe4612a87565b8260051b611ff383820161280f565b8481528381019087850183890186018a101561200e57600080fd5b60009350835b8781101561204b5781358681111561202a578586fd5b6120388c89838e010161205a565b8552509286019290860190600101612014565b50909998505050505050505050565b600082601f83011261206b57600080fd5b8135612079611f8f82612840565b81815284602083860101111561208e57600080fd5b816020850160208301376000918101602001919091529392505050565b8035600181106120ba57600080fd5b919050565b8035600281106120ba57600080fd5b600082601f8301126120df57600080fd5b610a5c83835160208501611f81565b803563ffffffff811681146120ba57600080fd5b803567ffffffffffffffff811681146120ba57600080fd5b60006020828403121561212c57600080fd5b8135610a5c81612a9d565b60006020828403121561214957600080fd5b8151610a5c81612a9d565b6000806040838503121561216757600080fd5b823561217281612a9d565b946020939093013593505050565b60006020828403121561219257600080fd5b5035919050565b6000602082840312156121ab57600080fd5b5051919050565b6000806000606084860312156121c757600080fd5b83359250602084013567ffffffffffffffff808211156121e657600080fd5b6121f28783880161205a565b9350604086013591508082111561220857600080fd5b506122158682870161205a565b9150509250925092565b60006020828403121561223157600080fd5b815167ffffffffffffffff81111561224857600080fd5b8201601f8101841361225957600080fd5b61226884825160208401611f81565b949350505050565b60006020828403121561228257600080fd5b813567ffffffffffffffff81111561229957600080fd5b6122688482850161205a565b6000602082840312156122b757600080fd5b815167ffffffffffffffff808211156122cf57600080fd5b9083019061018082860312156122e457600080fd5b6122ec6127c2565b8251828111156122fb57600080fd5b612307878286016120ce565b82525060208301518281111561231c57600080fd5b612328878286016120ce565b60208301525060408301518281111561234057600080fd5b61234c878286016120ce565b60408301525060608301518281111561236457600080fd5b612370878286016120ce565b60608301525060808301518281111561238857600080fd5b612394878286016120ce565b60808301525060a0830151828111156123ac57600080fd5b6123b8878286016120ce565b60a08301525060c0830151828111156123d057600080fd5b6123dc878286016120ce565b60c08301525060e0830151828111156123f457600080fd5b612400878286016120ce565b60e083015250610100808401518381111561241a57600080fd5b612426888287016120ce565b828401525050610120808401518381111561244057600080fd5b61244c888287016120ce565b828401525050610140808401518381111561246657600080fd5b612472888287016120ce565b828401525050610160808401518381111561248c57600080fd5b612498888287016120ce565b918301919091525095945050505050565b6000606082840312156124bb57600080fd5b6040516060810181811067ffffffffffffffff821117156124de576124de612a87565b60405282516124ec81612a9d565b8152602083810151908201526040928301519281019290925250919050565b6000806000806080858703121561252157600080fd5b843567ffffffffffffffff8082111561253957600080fd5b9086019060c0828903121561254d57600080fd5b6125556127ec565b61255e836120bf565b815261256c602084016120bf565b602082015261257d604084016120ab565b604082015260608301358281111561259457600080fd5b6125a08a82860161205a565b6060830152506080830135828111156125b857600080fd5b6125c48a82860161205a565b60808301525060a0830135828111156125dc57600080fd5b6125e88a828601611fb6565b60a08301525095506125ff91505060208601612102565b925061260d604086016120ee565b9396929550929360600135925050565b60008060006060848603121561263257600080fd5b61263b84612102565b9250612649602085016120ee565b9150604084013590509250925092565b60006020828403121561266b57600080fd5b81516bffffffffffffffffffffffff81168114610a5c57600080fd5b6000815180845261269f8160208601602086016129a1565b601f01601f19169290920160200192915050565b6000602080830181845280855180835260408601915060408160051b870101925083870160005b8281101561270857603f198886030184526126f6858351612687565b945092850192908501906001016126da565b5092979650505050505050565b602081526000610a5c6020830184612687565b60408152600061273b6040830185612687565b8281036020840152610d698185612687565b67ffffffffffffffff841681526060602082015260006127706060830185612687565b905063ffffffff83166040830152949350505050565b67ffffffffffffffff851681526080602082015260006127a96080830186612687565b63ffffffff949094166040830152506060015292915050565b604051610180810167ffffffffffffffff811182821017156127e6576127e6612a87565b60405290565b60405160c0810167ffffffffffffffff811182821017156127e6576127e6612a87565b604051601f8201601f1916810167ffffffffffffffff8111828210171561283857612838612a87565b604052919050565b600067ffffffffffffffff82111561285a5761285a612a87565b50601f01601f191660200190565b6000821982111561287b5761287b612a45565b500190565b600181815b808511156128bb5781600019048211156128a1576128a1612a45565b808516156128ae57918102915b93841c9390800290612885565b509250929050565b6000610a5c83836000826128d9575060016119d3565b816128e6575060006119d3565b81600181146128fc576002811461290657612922565b60019150506119d3565b60ff84111561291757612917612a45565b50506001821b6119d3565b5060208310610133831016604e8410600b8410161715612945575081810a6119d3565b61294f8383612880565b806000190482111561296357612963612a45565b029392505050565b600081600019048311821515161561298557612985612a45565b500290565b60008282101561299c5761299c612a45565b500390565b60005b838110156129bc5781810151838201526020016129a4565b838111156103ad5750506000910152565b600181811c908216806129e157607f821691505b60208210811415612a0257634e487b7160e01b600052602260045260246000fd5b50919050565b6000600019821415612a1c57612a1c612a45565b5060010190565b600082612a4057634e487b7160e01b600052601260045260246000fd5b500690565b634e487b7160e01b600052601160045260246000fd5b634e487b7160e01b600052602160045260246000fd5b634e487b7160e01b600052603260045260246000fd5b634e487b7160e01b600052604160045260246000fd5b6001600160a01b0381168114610d8357600080fdfea2646970667358221220dfdf326c4a1ea99a14eff336056ff6bd1cdf57198521508131f1fdec77b708ab64736f6c63430008070033","opcodes":"PUSH1 0x80 PUSH1 0x40 MSTORE CALLVALUE DUP1 ISZERO PUSH3 0x11 JUMPI PUSH1 0x0 DUP1 REVERT JUMPDEST POP PUSH1 0x40 MLOAD PUSH3 0x2D08 CODESIZE SUB DUP1 PUSH3 0x2D08 DUP4 CODECOPY DUP2 ADD PUSH1 0x40 DUP2 SWAP1 MSTORE PUSH3 0x34 SWAP2 PUSH3 0x1D8 JUMP JUMPDEST PUSH1 0x0 DUP1 SLOAD PUSH1 0x1 PUSH1 0x1 PUSH1 0xA0 SHL SUB NOT AND PUSH1 0x1 PUSH1 0x1 PUSH1 0xA0 SHL SUB DUP5 AND OR DUP2 SSTORE CALLER SWAP1 DUP2 SWAP1 PUSH1 0x1 PUSH1 0x1 PUSH1 0xA0 SHL SUB DUP3 AND PUSH3 0xAF JUMPI PUSH1 0x40 MLOAD PUSH3 0x461BCD PUSH1 0xE5 SHL DUP2 MSTORE PUSH1 0x20 PUSH1 0x4 DUP3 ADD MSTORE PUSH1 0x18 PUSH1 0x24 DUP3 ADD MSTORE PUSH32 0x43616E6E6F7420736574206F776E657220746F207A65726F0000000000000000 PUSH1 0x44 DUP3 ADD MSTORE PUSH1 0x64 ADD JUMPDEST PUSH1 0x40 MLOAD DUP1 SWAP2 SUB SWAP1 REVERT JUMPDEST PUSH1 0x2 DUP1 SLOAD PUSH1 0x1 PUSH1 0x1 PUSH1 0xA0 SHL SUB NOT AND PUSH1 0x1 PUSH1 0x1 PUSH1 0xA0 SHL SUB DUP5 DUP2 AND SWAP2 SWAP1 SWAP2 OR SWAP1 SWAP2 SSTORE DUP2 AND ISZERO PUSH3 0xE2 JUMPI PUSH3 0xE2 DUP2 PUSH3 0x10E JUMP JUMPDEST POP POP PUSH1 0x8 DUP1 SLOAD PUSH1 0x1 PUSH1 0x1 PUSH1 0xA0 SHL SUB NOT AND PUSH1 0x1 PUSH1 0x1 PUSH1 0xA0 SHL SUB SWAP4 SWAP1 SWAP4 AND SWAP3 SWAP1 SWAP3 OR SWAP1 SWAP2 SSTORE POP PUSH3 0x210 SWAP1 POP JUMP JUMPDEST PUSH1 0x1 PUSH1 0x1 PUSH1 0xA0 SHL SUB DUP2 AND CALLER EQ ISZERO PUSH3 0x169 JUMPI PUSH1 0x40 MLOAD PUSH3 0x461BCD PUSH1 0xE5 SHL DUP2 MSTORE PUSH1 0x20 PUSH1 0x4 DUP3 ADD MSTORE PUSH1 0x17 PUSH1 0x24 DUP3 ADD MSTORE PUSH32 0x43616E6E6F74207472616E7366657220746F2073656C66000000000000000000 PUSH1 0x44 DUP3 ADD MSTORE PUSH1 0x64 ADD PUSH3 0xA6 JUMP JUMPDEST PUSH1 0x3 DUP1 SLOAD PUSH1 0x1 PUSH1 0x1 PUSH1 0xA0 SHL SUB NOT AND PUSH1 0x1 PUSH1 0x1 PUSH1 0xA0 SHL SUB DUP4 DUP2 AND SWAP2 DUP3 OR SWAP1 SWAP3 SSTORE PUSH1 0x2 SLOAD PUSH1 0x40 MLOAD SWAP2 SWAP3 AND SWAP1 PUSH32 0xED8889F560326EB138920D842192F0EB3DD22B4F139C87A2C57538E05BAE1278 SWAP1 PUSH1 0x0 SWAP1 LOG3 POP JUMP JUMPDEST DUP1 MLOAD PUSH1 0x1 PUSH1 0x1 PUSH1 0xA0 SHL SUB DUP2 AND DUP2 EQ PUSH3 0x1D3 JUMPI PUSH1 0x0 DUP1 REVERT JUMPDEST SWAP2 SWAP1 POP JUMP JUMPDEST PUSH1 0x0 DUP1 PUSH1 0x40 DUP4 DUP6 SUB SLT ISZERO PUSH3 0x1EC JUMPI PUSH1 0x0 DUP1 REVERT JUMPDEST PUSH3 0x1F7 DUP4 PUSH3 0x1BB JUMP JUMPDEST SWAP2 POP PUSH3 0x207 PUSH1 0x20 DUP5 ADD PUSH3 0x1BB JUMP JUMPDEST SWAP1 POP SWAP3 POP SWAP3 SWAP1 POP JUMP JUMPDEST PUSH2 0x2AE8 DUP1 PUSH3 0x220 PUSH1 0x0 CODECOPY PUSH1 0x0 RETURN INVALID PUSH1 0x80 PUSH1 0x40 MSTORE CALLVALUE DUP1 ISZERO PUSH2 0x10 JUMPI PUSH1 0x0 DUP1 REVERT JUMPDEST POP PUSH1 0x4 CALLDATASIZE LT PUSH2 0x150 JUMPI PUSH1 0x0 CALLDATALOAD PUSH1 0xE0 SHR DUP1 PUSH4 0x79BA5097 GT PUSH2 0xCD JUMPI DUP1 PUSH4 0xD328A91E GT PUSH2 0x81 JUMPI DUP1 PUSH4 0xF2FDE38B GT PUSH2 0x66 JUMPI DUP1 PUSH4 0xF2FDE38B EQ PUSH2 0x2C0 JUMPI DUP1 PUSH4 0xF7023BB6 EQ PUSH2 0x2D3 JUMPI DUP1 PUSH4 0xFFFEB84E EQ PUSH2 0x2E6 JUMPI PUSH1 0x0 DUP1 REVERT JUMPDEST DUP1 PUSH4 0xD328A91E EQ PUSH2 0x288 JUMPI DUP1 PUSH4 0xD4B39175 EQ PUSH2 0x290 JUMPI PUSH1 0x0 DUP1 REVERT JUMPDEST DUP1 PUSH4 0xAC5D3723 GT PUSH2 0xB2 JUMPI DUP1 PUSH4 0xAC5D3723 EQ PUSH2 0x25A JUMPI DUP1 PUSH4 0xBEF3A2F0 EQ PUSH2 0x26D JUMPI DUP1 PUSH4 0xD012A5A8 EQ PUSH2 0x275 JUMPI PUSH1 0x0 DUP1 REVERT JUMPDEST DUP1 PUSH4 0x79BA5097 EQ PUSH2 0x241 JUMPI DUP1 PUSH4 0x8DA5CB5B EQ PUSH2 0x249 JUMPI PUSH1 0x0 DUP1 REVERT JUMPDEST DUP1 PUSH4 0x219C0EEE GT PUSH2 0x124 JUMPI DUP1 PUSH4 0x448AF937 GT PUSH2 0x109 JUMPI DUP1 PUSH4 0x448AF937 EQ PUSH2 0x206 JUMPI DUP1 PUSH4 0x4732889D EQ PUSH2 0x219 JUMPI DUP1 PUSH4 0x698CD3AD EQ PUSH2 0x239 JUMPI PUSH1 0x0 DUP1 REVERT JUMPDEST DUP1 PUSH4 0x219C0EEE EQ PUSH2 0x1B2 JUMPI DUP1 PUSH4 0x30BDA99D EQ PUSH2 0x1F3 JUMPI PUSH1 0x0 DUP1 REVERT JUMPDEST DUP1 PUSH3 0xB46767 EQ PUSH2 0x155 JUMPI DUP1 PUSH4 0xCA76175 EQ PUSH2 0x16A JUMPI DUP1 PUSH4 0x13C60177 EQ PUSH2 0x17D JUMPI DUP1 PUSH4 0x1AA46F59 EQ PUSH2 0x19B JUMPI JUMPDEST PUSH1 0x0 DUP1 REVERT JUMPDEST PUSH2 0x168 PUSH2 0x163 CALLDATASIZE PUSH1 0x4 PUSH2 0x2270 JUMP JUMPDEST PUSH2 0x2EE JUMP JUMPDEST STOP JUMPDEST PUSH2 0x168 PUSH2 0x178 CALLDATASIZE PUSH1 0x4 PUSH2 0x21B2 JUMP JUMPDEST PUSH2 0x30D JUMP JUMPDEST PUSH2 0x185 PUSH2 0x3B3 JUMP JUMPDEST PUSH1 0x40 MLOAD PUSH2 0x192 SWAP2 SWAP1 PUSH2 0x2715 JUMP JUMPDEST PUSH1 0x40 MLOAD DUP1 SWAP2 SUB SWAP1 RETURN JUMPDEST PUSH2 0x1A4 PUSH1 0x5 SLOAD DUP2 JUMP JUMPDEST PUSH1 0x40 MLOAD SWAP1 DUP2 MSTORE PUSH1 0x20 ADD PUSH2 0x192 JUMP JUMPDEST PUSH2 0x1DB PUSH2 0x1C0 CALLDATASIZE PUSH1 0x4 PUSH2 0x2180 JUMP JUMPDEST PUSH1 0xA PUSH1 0x20 MSTORE PUSH1 0x0 SWAP1 DUP2 MSTORE PUSH1 0x40 SWAP1 KECCAK256 SLOAD PUSH1 0x1 PUSH1 0x1 PUSH1 0xA0 SHL SUB AND DUP2 JUMP JUMPDEST PUSH1 0x40 MLOAD PUSH1 0x1 PUSH1 0x1 PUSH1 0xA0 SHL SUB SWAP1 SWAP2 AND DUP2 MSTORE PUSH1 0x20 ADD PUSH2 0x192 JUMP JUMPDEST PUSH2 0x168 PUSH2 0x201 CALLDATASIZE PUSH1 0x4 PUSH2 0x2154 JUMP JUMPDEST PUSH2 0x441 JUMP JUMPDEST PUSH2 0x1A4 PUSH2 0x214 CALLDATASIZE PUSH1 0x4 PUSH2 0x261D JUMP JUMPDEST PUSH2 0x453 JUMP JUMPDEST PUSH2 0x1A4 PUSH2 0x227 CALLDATASIZE PUSH1 0x4 PUSH2 0x2180 JUMP JUMPDEST PUSH1 0x9 PUSH1 0x20 MSTORE PUSH1 0x0 SWAP1 DUP2 MSTORE PUSH1 0x40 SWAP1 KECCAK256 SLOAD DUP2 JUMP JUMPDEST PUSH2 0x185 PUSH2 0xA63 JUMP JUMPDEST PUSH2 0x168 PUSH2 0xAF5 JUMP JUMPDEST PUSH1 0x2 SLOAD PUSH1 0x1 PUSH1 0x1 PUSH1 0xA0 SHL SUB AND PUSH2 0x1DB JUMP JUMPDEST PUSH2 0x1A4 PUSH2 0x268 CALLDATASIZE PUSH1 0x4 PUSH2 0x2270 JUMP JUMPDEST PUSH2 0xBAF JUMP JUMPDEST PUSH2 0x185 PUSH2 0xC31 JUMP JUMPDEST PUSH1 0x8 SLOAD PUSH2 0x1DB SWAP1 PUSH1 0x1 PUSH1 0x1 PUSH1 0xA0 SHL SUB AND DUP2 JUMP JUMPDEST PUSH2 0x185 PUSH2 0xC3E JUMP JUMPDEST PUSH2 0x2A3 PUSH2 0x29E CALLDATASIZE PUSH1 0x4 PUSH2 0x250B JUMP JUMPDEST PUSH2 0xCDC JUMP JUMPDEST PUSH1 0x40 MLOAD PUSH12 0xFFFFFFFFFFFFFFFFFFFFFFFF SWAP1 SWAP2 AND DUP2 MSTORE PUSH1 0x20 ADD PUSH2 0x192 JUMP JUMPDEST PUSH2 0x168 PUSH2 0x2CE CALLDATASIZE PUSH1 0x4 PUSH2 0x211A JUMP JUMPDEST PUSH2 0xD72 JUMP JUMPDEST PUSH2 0x168 PUSH2 0x2E1 CALLDATASIZE PUSH1 0x4 PUSH2 0x211A JUMP JUMPDEST PUSH2 0xD86 JUMP JUMPDEST PUSH2 0x185 PUSH2 0xDAC JUMP JUMPDEST PUSH2 0x2F6 PUSH2 0xDB9 JUMP JUMPDEST DUP1 MLOAD PUSH2 0x309 SWAP1 PUSH1 0x4 SWAP1 PUSH1 0x20 DUP5 ADD SWAP1 PUSH2 0x1E21 JUMP JUMPDEST POP POP JUMP JUMPDEST PUSH1 0x0 DUP4 DUP2 MSTORE PUSH1 0x1 PUSH1 0x20 MSTORE PUSH1 0x40 SWAP1 KECCAK256 SLOAD DUP4 SWAP1 PUSH1 0x1 PUSH1 0x1 PUSH1 0xA0 SHL SUB AND CALLER EQ PUSH2 0x35F JUMPI PUSH1 0x40 MLOAD PUSH32 0xA0C5EC6300000000000000000000000000000000000000000000000000000000 DUP2 MSTORE PUSH1 0x4 ADD PUSH1 0x40 MLOAD DUP1 SWAP2 SUB SWAP1 REVERT JUMPDEST PUSH1 0x0 DUP2 DUP2 MSTORE PUSH1 0x1 PUSH1 0x20 MSTORE PUSH1 0x40 DUP1 DUP3 KECCAK256 DUP1 SLOAD PUSH1 0x1 PUSH1 0x1 PUSH1 0xA0 SHL SUB NOT AND SWAP1 SSTORE MLOAD DUP3 SWAP2 PUSH32 0x85E1543BF2F84FE80C6BADBCE3648C8539AD1DF4D2B3D822938CA0538BE727E6 SWAP2 LOG2 PUSH2 0x3AD DUP5 DUP5 DUP5 PUSH2 0xE15 JUMP JUMPDEST POP POP POP POP JUMP JUMPDEST PUSH1 0x4 DUP1 SLOAD PUSH2 0x3C0 SWAP1 PUSH2 0x29CD JUMP JUMPDEST DUP1 PUSH1 0x1F ADD PUSH1 0x20 DUP1 SWAP2 DIV MUL PUSH1 0x20 ADD PUSH1 0x40 MLOAD SWAP1 DUP2 ADD PUSH1 0x40 MSTORE DUP1 SWAP3 SWAP2 SWAP1 DUP2 DUP2 MSTORE PUSH1 0x20 ADD DUP3 DUP1 SLOAD PUSH2 0x3EC SWAP1 PUSH2 0x29CD JUMP JUMPDEST DUP1 ISZERO PUSH2 0x439 JUMPI DUP1 PUSH1 0x1F LT PUSH2 0x40E JUMPI PUSH2 0x100 DUP1 DUP4 SLOAD DIV MUL DUP4 MSTORE SWAP2 PUSH1 0x20 ADD SWAP2 PUSH2 0x439 JUMP JUMPDEST DUP3 ADD SWAP2 SWAP1 PUSH1 0x0 MSTORE PUSH1 0x20 PUSH1 0x0 KECCAK256 SWAP1 JUMPDEST DUP2 SLOAD DUP2 MSTORE SWAP1 PUSH1 0x1 ADD SWAP1 PUSH1 0x20 ADD DUP1 DUP4 GT PUSH2 0x41C JUMPI DUP3 SWAP1 SUB PUSH1 0x1F AND DUP3 ADD SWAP2 JUMPDEST POP POP POP POP POP DUP2 JUMP JUMPDEST PUSH2 0x449 PUSH2 0xDB9 JUMP JUMPDEST PUSH2 0x309 DUP3 DUP3 PUSH2 0x1217 JUMP JUMPDEST PUSH1 0x0 PUSH2 0x45D PUSH2 0x1EA5 JUMP JUMPDEST PUSH1 0x8 SLOAD PUSH1 0x40 MLOAD PUSH4 0x61875D8D PUSH1 0xE0 SHL DUP2 MSTORE CALLER PUSH1 0x4 DUP3 ADD MSTORE PUSH1 0x24 DUP2 ADD DUP6 SWAP1 MSTORE PUSH1 0x1 PUSH1 0x1 PUSH1 0xA0 SHL SUB SWAP1 SWAP2 AND SWAP1 PUSH4 0x61875D8D SWAP1 PUSH1 0x44 ADD PUSH1 0x0 PUSH1 0x40 MLOAD DUP1 DUP4 SUB DUP2 DUP7 DUP1 EXTCODESIZE ISZERO DUP1 ISZERO PUSH2 0x4A7 JUMPI PUSH1 0x0 DUP1 REVERT JUMPDEST POP GAS STATICCALL ISZERO DUP1 ISZERO PUSH2 0x4BB JUMPI RETURNDATASIZE PUSH1 0x0 DUP1 RETURNDATACOPY RETURNDATASIZE PUSH1 0x0 REVERT JUMPDEST POP POP POP POP PUSH1 0x40 MLOAD RETURNDATASIZE PUSH1 0x0 DUP3 RETURNDATACOPY PUSH1 0x1F RETURNDATASIZE SWAP1 DUP2 ADD PUSH1 0x1F NOT AND DUP3 ADD PUSH1 0x40 MSTORE PUSH2 0x4E3 SWAP2 SWAP1 DUP2 ADD SWAP1 PUSH2 0x22A5 JUMP JUMPDEST DUP2 MSTORE PUSH1 0x8 SLOAD PUSH1 0x40 MLOAD PUSH32 0x6EC7BE7E00000000000000000000000000000000000000000000000000000000 DUP2 MSTORE CALLER PUSH1 0x4 DUP3 ADD MSTORE PUSH1 0x24 DUP2 ADD DUP6 SWAP1 MSTORE PUSH1 0x0 SWAP2 PUSH1 0x1 PUSH1 0x1 PUSH1 0xA0 SHL SUB AND SWAP1 PUSH4 0x6EC7BE7E SWAP1 PUSH1 0x44 ADD PUSH1 0x20 PUSH1 0x40 MLOAD DUP1 DUP4 SUB DUP2 DUP7 DUP1 EXTCODESIZE ISZERO DUP1 ISZERO PUSH2 0x549 JUMPI PUSH1 0x0 DUP1 REVERT JUMPDEST POP GAS STATICCALL ISZERO DUP1 ISZERO PUSH2 0x55D JUMPI RETURNDATASIZE PUSH1 0x0 DUP1 RETURNDATACOPY RETURNDATASIZE PUSH1 0x0 REVERT JUMPDEST POP POP POP POP PUSH1 0x40 MLOAD RETURNDATASIZE PUSH1 0x1F NOT PUSH1 0x1F DUP3 ADD AND DUP3 ADD DUP1 PUSH1 0x40 MSTORE POP DUP2 ADD SWAP1 PUSH2 0x581 SWAP2 SWAP1 PUSH2 0x2199 JUMP JUMPDEST PUSH1 0x8 SLOAD PUSH1 0x40 MLOAD PUSH32 0x215FC62500000000000000000000000000000000000000000000000000000000 DUP2 MSTORE PUSH1 0x4 DUP2 ADD DUP4 SWAP1 MSTORE SWAP2 SWAP3 POP PUSH1 0x1 PUSH1 0x1 PUSH1 0xA0 SHL SUB AND SWAP1 PUSH4 0x215FC625 SWAP1 PUSH1 0x24 ADD PUSH1 0x60 PUSH1 0x40 MLOAD DUP1 DUP4 SUB DUP2 DUP7 DUP1 EXTCODESIZE ISZERO DUP1 ISZERO PUSH2 0x5DF JUMPI PUSH1 0x0 DUP1 REVERT JUMPDEST POP GAS STATICCALL ISZERO DUP1 ISZERO PUSH2 0x5F3 JUMPI RETURNDATASIZE PUSH1 0x0 DUP1 RETURNDATACOPY RETURNDATASIZE PUSH1 0x0 REVERT JUMPDEST POP POP POP POP PUSH1 0x40 MLOAD RETURNDATASIZE PUSH1 0x1F NOT PUSH1 0x1F DUP3 ADD AND DUP3 ADD DUP1 PUSH1 0x40 MSTORE POP DUP2 ADD SWAP1 PUSH2 0x617 SWAP2 SWAP1 PUSH2 0x24A9 JUMP JUMPDEST PUSH1 0x20 DUP4 DUP2 ADD DUP3 SWAP1 MSTORE PUSH1 0x40 SWAP2 DUP3 ADD MLOAD DUP3 MLOAD PUSH1 0xE DUP1 DUP3 MSTORE PUSH2 0x1E0 DUP3 ADD SWAP1 SWAP5 MSTORE SWAP1 SWAP3 PUSH1 0x0 SWAP3 DUP3 ADD JUMPDEST PUSH1 0x60 DUP2 MSTORE PUSH1 0x20 ADD SWAP1 PUSH1 0x1 SWAP1 SUB SWAP1 DUP2 PUSH2 0x63C JUMPI POP POP DUP5 MLOAD MLOAD DUP2 MLOAD SWAP2 SWAP3 POP SWAP1 DUP3 SWAP1 PUSH1 0x0 SWAP1 PUSH2 0x66A JUMPI PUSH2 0x66A PUSH2 0x2A71 JUMP JUMPDEST PUSH1 0x20 MUL PUSH1 0x20 ADD ADD DUP2 SWAP1 MSTORE POP DUP4 PUSH1 0x0 ADD MLOAD PUSH1 0x20 ADD MLOAD DUP2 PUSH1 0x1 DUP2 MLOAD DUP2 LT PUSH2 0x691 JUMPI PUSH2 0x691 PUSH2 0x2A71 JUMP JUMPDEST PUSH1 0x20 MUL PUSH1 0x20 ADD ADD DUP2 SWAP1 MSTORE POP DUP4 PUSH1 0x0 ADD MLOAD PUSH1 0x40 ADD MLOAD DUP2 PUSH1 0x2 DUP2 MLOAD DUP2 LT PUSH2 0x6B8 JUMPI PUSH2 0x6B8 PUSH2 0x2A71 JUMP JUMPDEST PUSH1 0x20 MUL PUSH1 0x20 ADD ADD DUP2 SWAP1 MSTORE POP DUP4 PUSH1 0x0 ADD MLOAD PUSH1 0x60 ADD MLOAD DUP2 PUSH1 0x3 DUP2 MLOAD DUP2 LT PUSH2 0x6DF JUMPI PUSH2 0x6DF PUSH2 0x2A71 JUMP JUMPDEST PUSH1 0x20 MUL PUSH1 0x20 ADD ADD DUP2 SWAP1 MSTORE POP DUP4 PUSH1 0x0 ADD MLOAD PUSH1 0x80 ADD MLOAD DUP2 PUSH1 0x4 DUP2 MLOAD DUP2 LT PUSH2 0x706 JUMPI PUSH2 0x706 PUSH2 0x2A71 JUMP JUMPDEST PUSH1 0x20 MUL PUSH1 0x20 ADD ADD DUP2 SWAP1 MSTORE POP DUP4 PUSH1 0x0 ADD MLOAD PUSH1 0xA0 ADD MLOAD DUP2 PUSH1 0x5 DUP2 MLOAD DUP2 LT PUSH2 0x72D JUMPI PUSH2 0x72D PUSH2 0x2A71 JUMP JUMPDEST PUSH1 0x20 MUL PUSH1 0x20 ADD ADD DUP2 SWAP1 MSTORE POP DUP4 PUSH1 0x0 ADD MLOAD PUSH1 0xC0 ADD MLOAD DUP2 PUSH1 0x6 DUP2 MLOAD DUP2 LT PUSH2 0x754 JUMPI PUSH2 0x754 PUSH2 0x2A71 JUMP JUMPDEST PUSH1 0x20 MUL PUSH1 0x20 ADD ADD DUP2 SWAP1 MSTORE POP DUP4 PUSH1 0x0 ADD MLOAD PUSH1 0xE0 ADD MLOAD DUP2 PUSH1 0x7 DUP2 MLOAD DUP2 LT PUSH2 0x77B JUMPI PUSH2 0x77B PUSH2 0x2A71 JUMP JUMPDEST PUSH1 0x20 MUL PUSH1 0x20 ADD ADD DUP2 SWAP1 MSTORE POP DUP4 PUSH1 0x0 ADD MLOAD PUSH2 0x100 ADD MLOAD DUP2 PUSH1 0x8 DUP2 MLOAD DUP2 LT PUSH2 0x7A3 JUMPI PUSH2 0x7A3 PUSH2 0x2A71 JUMP JUMPDEST PUSH1 0x20 MUL PUSH1 0x20 ADD ADD DUP2 SWAP1 MSTORE POP DUP4 PUSH1 0x0 ADD MLOAD PUSH2 0x120 ADD MLOAD DUP2 PUSH1 0x9 DUP2 MLOAD DUP2 LT PUSH2 0x7CB JUMPI PUSH2 0x7CB PUSH2 0x2A71 JUMP JUMPDEST PUSH1 0x20 MUL PUSH1 0x20 ADD ADD DUP2 SWAP1 MSTORE POP DUP4 PUSH1 0x0 ADD MLOAD PUSH2 0x140 ADD MLOAD DUP2 PUSH1 0xA DUP2 MLOAD DUP2 LT PUSH2 0x7F3 JUMPI PUSH2 0x7F3 PUSH2 0x2A71 JUMP JUMPDEST PUSH1 0x20 MUL PUSH1 0x20 ADD ADD DUP2 SWAP1 MSTORE POP PUSH2 0x807 TIMESTAMP PUSH2 0x1297 JUMP JUMPDEST DUP2 PUSH1 0xB DUP2 MLOAD DUP2 LT PUSH2 0x81A JUMPI PUSH2 0x81A PUSH2 0x2A71 JUMP JUMPDEST PUSH1 0x20 MUL PUSH1 0x20 ADD ADD DUP2 SWAP1 MSTORE POP DUP4 PUSH1 0x0 ADD MLOAD PUSH2 0x160 ADD MLOAD DUP2 PUSH1 0xC DUP2 MLOAD DUP2 LT PUSH2 0x842 JUMPI PUSH2 0x842 PUSH2 0x2A71 JUMP JUMPDEST PUSH1 0x20 MUL PUSH1 0x20 ADD ADD DUP2 SWAP1 MSTORE POP PUSH2 0x8DB PUSH1 0x8 PUSH1 0x0 SWAP1 SLOAD SWAP1 PUSH2 0x100 EXP SWAP1 DIV PUSH1 0x1 PUSH1 0x1 PUSH1 0xA0 SHL SUB AND PUSH1 0x1 PUSH1 0x1 PUSH1 0xA0 SHL SUB AND PUSH4 0xB91CE205 PUSH1 0x40 MLOAD DUP2 PUSH4 0xFFFFFFFF AND PUSH1 0xE0 SHL DUP2 MSTORE PUSH1 0x4 ADD PUSH1 0x20 PUSH1 0x40 MLOAD DUP1 DUP4 SUB DUP2 DUP7 DUP1 EXTCODESIZE ISZERO DUP1 ISZERO PUSH2 0x89E JUMPI PUSH1 0x0 DUP1 REVERT JUMPDEST POP GAS STATICCALL ISZERO DUP1 ISZERO PUSH2 0x8B2 JUMPI RETURNDATASIZE PUSH1 0x0 DUP1 RETURNDATACOPY RETURNDATASIZE PUSH1 0x0 REVERT JUMPDEST POP POP POP POP PUSH1 0x40 MLOAD RETURNDATASIZE PUSH1 0x1F NOT PUSH1 0x1F DUP3 ADD AND DUP3 ADD DUP1 PUSH1 0x40 MSTORE POP DUP2 ADD SWAP1 PUSH2 0x8D6 SWAP2 SWAP1 PUSH2 0x2199 JUMP JUMPDEST PUSH2 0x1297 JUMP JUMPDEST DUP2 PUSH1 0xD DUP2 MLOAD DUP2 LT PUSH2 0x8EE JUMPI PUSH2 0x8EE PUSH2 0x2A71 JUMP JUMPDEST PUSH1 0x20 MUL PUSH1 0x20 ADD ADD DUP2 SWAP1 MSTORE POP PUSH2 0x933 PUSH1 0x40 DUP1 MLOAD PUSH1 0xC0 DUP2 ADD SWAP1 SWAP2 MSTORE DUP1 PUSH1 0x0 DUP2 MSTORE PUSH1 0x20 ADD PUSH1 0x0 DUP2 MSTORE PUSH1 0x20 ADD PUSH1 0x0 DUP2 MSTORE PUSH1 0x20 ADD PUSH1 0x60 DUP2 MSTORE PUSH1 0x20 ADD PUSH1 0x60 DUP2 MSTORE PUSH1 0x20 ADD PUSH1 0x60 DUP2 MSTORE POP SWAP1 JUMP JUMPDEST PUSH2 0x9D5 PUSH1 0x0 DUP1 PUSH1 0x4 DUP1 SLOAD PUSH2 0x946 SWAP1 PUSH2 0x29CD JUMP JUMPDEST DUP1 PUSH1 0x1F ADD PUSH1 0x20 DUP1 SWAP2 DIV MUL PUSH1 0x20 ADD PUSH1 0x40 MLOAD SWAP1 DUP2 ADD PUSH1 0x40 MSTORE DUP1 SWAP3 SWAP2 SWAP1 DUP2 DUP2 MSTORE PUSH1 0x20 ADD DUP3 DUP1 SLOAD PUSH2 0x972 SWAP1 PUSH2 0x29CD JUMP JUMPDEST DUP1 ISZERO PUSH2 0x9BF JUMPI DUP1 PUSH1 0x1F LT PUSH2 0x994 JUMPI PUSH2 0x100 DUP1 DUP4 SLOAD DIV MUL DUP4 MSTORE SWAP2 PUSH1 0x20 ADD SWAP2 PUSH2 0x9BF JUMP JUMPDEST DUP3 ADD SWAP2 SWAP1 PUSH1 0x0 MSTORE PUSH1 0x20 PUSH1 0x0 KECCAK256 SWAP1 JUMPDEST DUP2 SLOAD DUP2 MSTORE SWAP1 PUSH1 0x1 ADD SWAP1 PUSH1 0x20 ADD DUP1 DUP4 GT PUSH2 0x9A2 JUMPI DUP3 SWAP1 SUB PUSH1 0x1F AND DUP3 ADD SWAP2 JUMPDEST POP POP POP POP POP DUP5 PUSH2 0x1339 SWAP1 SWAP4 SWAP3 SWAP2 SWAP1 PUSH4 0xFFFFFFFF AND JUMP JUMPDEST PUSH2 0x9DF DUP2 DUP4 PUSH2 0x13CD JUMP JUMPDEST PUSH32 0x930A61D412EE04B567F790D1232C1FE3D797DE7BFA1F99BA4B6E7FCC7448521F DUP3 PUSH1 0x40 MLOAD PUSH2 0xA0E SWAP2 SWAP1 PUSH2 0x26B3 JUMP JUMPDEST PUSH1 0x40 MLOAD DUP1 SWAP2 SUB SWAP1 LOG1 PUSH1 0x0 PUSH2 0xA23 DUP3 DUP12 DUP12 PUSH2 0x140D JUMP JUMPDEST PUSH1 0x5 DUP2 SWAP1 SSTORE PUSH1 0x0 DUP2 DUP2 MSTORE PUSH1 0x9 PUSH1 0x20 SWAP1 DUP2 MSTORE PUSH1 0x40 DUP1 DUP4 KECCAK256 DUP13 SWAP1 SSTORE PUSH1 0xA SWAP1 SWAP2 MSTORE SWAP1 KECCAK256 DUP1 SLOAD PUSH1 0x1 PUSH1 0x1 PUSH1 0xA0 SHL SUB NOT AND CALLER OR SWAP1 SSTORE SWAP7 POP POP POP POP POP POP POP JUMPDEST SWAP4 SWAP3 POP POP POP JUMP JUMPDEST PUSH1 0x60 PUSH1 0x4 DUP1 SLOAD PUSH2 0xA72 SWAP1 PUSH2 0x29CD JUMP JUMPDEST DUP1 PUSH1 0x1F ADD PUSH1 0x20 DUP1 SWAP2 DIV MUL PUSH1 0x20 ADD PUSH1 0x40 MLOAD SWAP1 DUP2 ADD PUSH1 0x40 MSTORE DUP1 SWAP3 SWAP2 SWAP1 DUP2 DUP2 MSTORE PUSH1 0x20 ADD DUP3 DUP1 SLOAD PUSH2 0xA9E SWAP1 PUSH2 0x29CD JUMP JUMPDEST DUP1 ISZERO PUSH2 0xAEB JUMPI DUP1 PUSH1 0x1F LT PUSH2 0xAC0 JUMPI PUSH2 0x100 DUP1 DUP4 SLOAD DIV MUL DUP4 MSTORE SWAP2 PUSH1 0x20 ADD SWAP2 PUSH2 0xAEB JUMP JUMPDEST DUP3 ADD SWAP2 SWAP1 PUSH1 0x0 MSTORE PUSH1 0x20 PUSH1 0x0 KECCAK256 SWAP1 JUMPDEST DUP2 SLOAD DUP2 MSTORE SWAP1 PUSH1 0x1 ADD SWAP1 PUSH1 0x20 ADD DUP1 DUP4 GT PUSH2 0xACE JUMPI DUP3 SWAP1 SUB PUSH1 0x1F AND DUP3 ADD SWAP2 JUMPDEST POP POP POP POP POP SWAP1 POP SWAP1 JUMP JUMPDEST PUSH1 0x3 SLOAD PUSH1 0x1 PUSH1 0x1 PUSH1 0xA0 SHL SUB AND CALLER EQ PUSH2 0xB54 JUMPI PUSH1 0x40 MLOAD PUSH3 0x461BCD PUSH1 0xE5 SHL DUP2 MSTORE PUSH1 0x20 PUSH1 0x4 DUP3 ADD MSTORE PUSH1 0x16 PUSH1 0x24 DUP3 ADD MSTORE PUSH32 0x4D7573742062652070726F706F736564206F776E657200000000000000000000 PUSH1 0x44 DUP3 ADD MSTORE PUSH1 0x64 ADD JUMPDEST PUSH1 0x40 MLOAD DUP1 SWAP2 SUB SWAP1 REVERT JUMPDEST PUSH1 0x2 DUP1 SLOAD PUSH1 0x1 PUSH1 0x1 PUSH1 0xA0 SHL SUB NOT DUP1 DUP3 AND CALLER SWAP1 DUP2 OR SWAP1 SWAP4 SSTORE PUSH1 0x3 DUP1 SLOAD SWAP1 SWAP2 AND SWAP1 SSTORE PUSH1 0x40 MLOAD PUSH1 0x1 PUSH1 0x1 PUSH1 0xA0 SHL SUB SWAP1 SWAP2 AND SWAP2 SWAP1 DUP3 SWAP1 PUSH32 0x8BE0079C531659141344CD1FD0A4F28419497F9722A3DAAFE3B4186F6B6457E0 SWAP1 PUSH1 0x0 SWAP1 LOG3 POP JUMP JUMPDEST PUSH1 0x0 DUP2 DUP2 DUP1 JUMPDEST DUP3 MLOAD DUP2 LT ISZERO PUSH2 0xC29 JUMPI PUSH1 0x0 DUP4 DUP3 DUP2 MLOAD DUP2 LT PUSH2 0xBD2 JUMPI PUSH2 0xBD2 PUSH2 0x2A71 JUMP JUMPDEST ADD PUSH1 0x20 ADD MLOAD PUSH1 0xF8 SHR SWAP1 POP PUSH1 0x30 DUP2 LT DUP1 ISZERO SWAP1 PUSH2 0xBEE JUMPI POP PUSH1 0x39 DUP2 GT ISZERO JUMPDEST ISZERO PUSH2 0xC16 JUMPI PUSH2 0xBFE PUSH1 0x30 DUP3 PUSH2 0x298A JUMP JUMPDEST PUSH2 0xC09 DUP5 PUSH1 0xA PUSH2 0x296B JUMP JUMPDEST PUSH2 0xC13 SWAP2 SWAP1 PUSH2 0x2868 JUMP JUMPDEST SWAP3 POP JUMPDEST POP DUP1 PUSH2 0xC21 DUP2 PUSH2 0x2A08 JUMP JUMPDEST SWAP2 POP POP PUSH2 0xBB5 JUMP JUMPDEST POP SWAP4 SWAP3 POP POP POP JUMP JUMPDEST PUSH1 0x6 DUP1 SLOAD PUSH2 0x3C0 SWAP1 PUSH2 0x29CD JUMP JUMPDEST PUSH1 0x0 DUP1 SLOAD PUSH1 0x40 DUP1 MLOAD PUSH32 0xD328A91E00000000000000000000000000000000000000000000000000000000 DUP2 MSTORE SWAP1 MLOAD PUSH1 0x60 SWAP4 PUSH1 0x1 PUSH1 0x1 PUSH1 0xA0 SHL SUB SWAP1 SWAP4 AND SWAP3 PUSH4 0xD328A91E SWAP3 PUSH1 0x4 DUP1 DUP3 ADD SWAP4 SWAP2 DUP3 SWAP1 SUB ADD DUP2 DUP7 DUP1 EXTCODESIZE ISZERO DUP1 ISZERO PUSH2 0xC9B JUMPI PUSH1 0x0 DUP1 REVERT JUMPDEST POP GAS STATICCALL ISZERO DUP1 ISZERO PUSH2 0xCAF JUMPI RETURNDATASIZE PUSH1 0x0 DUP1 RETURNDATACOPY RETURNDATASIZE PUSH1 0x0 REVERT JUMPDEST POP POP POP POP PUSH1 0x40 MLOAD RETURNDATASIZE PUSH1 0x0 DUP3 RETURNDATACOPY PUSH1 0x1F RETURNDATASIZE SWAP1 DUP2 ADD PUSH1 0x1F NOT AND DUP3 ADD PUSH1 0x40 MSTORE PUSH2 0xCD7 SWAP2 SWAP1 DUP2 ADD SWAP1 PUSH2 0x221F JUMP JUMPDEST SWAP1 POP SWAP1 JUMP JUMPDEST PUSH1 0x0 DUP1 SLOAD PUSH1 0x1 PUSH1 0x1 PUSH1 0xA0 SHL SUB AND PUSH4 0xD227D245 DUP6 PUSH2 0xCF8 DUP9 PUSH2 0x157F JUMP JUMPDEST DUP7 DUP7 PUSH1 0x40 MLOAD DUP6 PUSH4 0xFFFFFFFF AND PUSH1 0xE0 SHL DUP2 MSTORE PUSH1 0x4 ADD PUSH2 0xD19 SWAP5 SWAP4 SWAP3 SWAP2 SWAP1 PUSH2 0x2786 JUMP JUMPDEST PUSH1 0x20 PUSH1 0x40 MLOAD DUP1 DUP4 SUB DUP2 DUP7 DUP1 EXTCODESIZE ISZERO DUP1 ISZERO PUSH2 0xD31 JUMPI PUSH1 0x0 DUP1 REVERT JUMPDEST POP GAS STATICCALL ISZERO DUP1 ISZERO PUSH2 0xD45 JUMPI RETURNDATASIZE PUSH1 0x0 DUP1 RETURNDATACOPY RETURNDATASIZE PUSH1 0x0 REVERT JUMPDEST POP POP POP POP PUSH1 0x40 MLOAD RETURNDATASIZE PUSH1 0x1F NOT PUSH1 0x1F DUP3 ADD AND DUP3 ADD DUP1 PUSH1 0x40 MSTORE POP DUP2 ADD SWAP1 PUSH2 0xD69 SWAP2 SWAP1 PUSH2 0x2659 JUMP JUMPDEST SWAP6 SWAP5 POP POP POP POP POP JUMP JUMPDEST PUSH2 0xD7A PUSH2 0xDB9 JUMP JUMPDEST PUSH2 0xD83 DUP2 PUSH2 0x184B JUMP JUMPDEST POP JUMP JUMPDEST PUSH2 0xD8E PUSH2 0xDB9 JUMP JUMPDEST PUSH1 0x0 DUP1 SLOAD PUSH1 0x1 PUSH1 0x1 PUSH1 0xA0 SHL SUB NOT AND PUSH1 0x1 PUSH1 0x1 PUSH1 0xA0 SHL SUB DUP4 AND OR SWAP1 SSTORE POP JUMP JUMPDEST PUSH1 0x7 DUP1 SLOAD PUSH2 0x3C0 SWAP1 PUSH2 0x29CD JUMP JUMPDEST PUSH1 0x2 SLOAD PUSH1 0x1 PUSH1 0x1 PUSH1 0xA0 SHL SUB AND CALLER EQ PUSH2 0xE13 JUMPI PUSH1 0x40 MLOAD PUSH3 0x461BCD PUSH1 0xE5 SHL DUP2 MSTORE PUSH1 0x20 PUSH1 0x4 DUP3 ADD MSTORE PUSH1 0x16 PUSH1 0x24 DUP3 ADD MSTORE PUSH32 0x4F6E6C792063616C6C61626C65206279206F776E657200000000000000000000 PUSH1 0x44 DUP3 ADD MSTORE PUSH1 0x64 ADD PUSH2 0xB4B JUMP JUMPDEST JUMP JUMPDEST DUP2 MLOAD PUSH2 0xE28 SWAP1 PUSH1 0x6 SWAP1 PUSH1 0x20 DUP6 ADD SWAP1 PUSH2 0x1E21 JUMP JUMPDEST POP DUP1 MLOAD PUSH2 0xE3C SWAP1 PUSH1 0x7 SWAP1 PUSH1 0x20 DUP5 ADD SWAP1 PUSH2 0x1E21 JUMP JUMPDEST POP DUP3 PUSH32 0x7BAB0EC163B5C132C72B8146AC4D6E067E82ED58F8B131150AA71C9258911562 DUP4 DUP4 PUSH1 0x40 MLOAD PUSH2 0xE6F SWAP3 SWAP2 SWAP1 PUSH2 0x2728 JUMP JUMPDEST PUSH1 0x40 MLOAD DUP1 SWAP2 SUB SWAP1 LOG2 PUSH1 0x0 DUP4 DUP2 MSTORE PUSH1 0x9 PUSH1 0x20 SWAP1 DUP2 MSTORE PUSH1 0x40 DUP1 DUP4 KECCAK256 SLOAD PUSH1 0xA SWAP1 SWAP3 MSTORE DUP1 DUP4 KECCAK256 SLOAD PUSH1 0x8 SLOAD SWAP2 MLOAD PUSH4 0x61875D8D PUSH1 0xE0 SHL DUP2 MSTORE PUSH1 0x1 PUSH1 0x1 PUSH1 0xA0 SHL SUB SWAP2 DUP3 AND PUSH1 0x4 DUP3 ADD DUP2 SWAP1 MSTORE PUSH1 0x24 DUP3 ADD DUP6 SWAP1 MSTORE SWAP4 SWAP5 SWAP3 SWAP2 SWAP1 SWAP2 AND SWAP1 PUSH4 0x61875D8D SWAP1 PUSH1 0x44 ADD PUSH1 0x0 PUSH1 0x40 MLOAD DUP1 DUP4 SUB DUP2 DUP7 DUP1 EXTCODESIZE ISZERO DUP1 ISZERO PUSH2 0xEE3 JUMPI PUSH1 0x0 DUP1 REVERT JUMPDEST POP GAS STATICCALL ISZERO DUP1 ISZERO PUSH2 0xEF7 JUMPI RETURNDATASIZE PUSH1 0x0 DUP1 RETURNDATACOPY RETURNDATASIZE PUSH1 0x0 REVERT JUMPDEST POP POP POP POP PUSH1 0x40 MLOAD RETURNDATASIZE PUSH1 0x0 DUP3 RETURNDATACOPY PUSH1 0x1F RETURNDATASIZE SWAP1 DUP2 ADD PUSH1 0x1F NOT AND DUP3 ADD PUSH1 0x40 MSTORE PUSH2 0xF1F SWAP2 SWAP1 DUP2 ADD SWAP1 PUSH2 0x22A5 JUMP JUMPDEST PUSH1 0x8 SLOAD PUSH1 0x40 MLOAD PUSH32 0xCC9DE25D00000000000000000000000000000000000000000000000000000000 DUP2 MSTORE SWAP2 SWAP3 POP PUSH1 0x0 SWAP2 PUSH1 0x1 PUSH1 0x1 PUSH1 0xA0 SHL SUB SWAP1 SWAP2 AND SWAP1 PUSH4 0xCC9DE25D SWAP1 PUSH2 0xF6E SWAP1 DUP10 SWAP1 PUSH1 0x4 ADD PUSH2 0x2715 JUMP JUMPDEST PUSH1 0x20 PUSH1 0x40 MLOAD DUP1 DUP4 SUB DUP2 DUP7 DUP1 EXTCODESIZE ISZERO DUP1 ISZERO PUSH2 0xF86 JUMPI PUSH1 0x0 DUP1 REVERT JUMPDEST POP GAS STATICCALL ISZERO DUP1 ISZERO PUSH2 0xF9A JUMPI RETURNDATASIZE PUSH1 0x0 DUP1 RETURNDATACOPY RETURNDATASIZE PUSH1 0x0 REVERT JUMPDEST POP POP POP POP PUSH1 0x40 MLOAD RETURNDATASIZE PUSH1 0x1F NOT PUSH1 0x1F DUP3 ADD AND DUP3 ADD DUP1 PUSH1 0x40 MSTORE POP DUP2 ADD SWAP1 PUSH2 0xFBE SWAP2 SWAP1 PUSH2 0x2199 JUMP JUMPDEST SWAP1 POP DUP1 ISZERO PUSH2 0x10F3 JUMPI PUSH1 0x8 SLOAD PUSH1 0x40 MLOAD PUSH32 0xECD831E800000000000000000000000000000000000000000000000000000000 DUP2 MSTORE PUSH1 0x1 PUSH1 0x1 PUSH1 0xA0 SHL SUB DUP6 DUP2 AND PUSH1 0x4 DUP4 ADD MSTORE PUSH1 0x24 DUP3 ADD DUP5 SWAP1 MSTORE SWAP1 SWAP2 AND SWAP1 PUSH4 0xECD831E8 SWAP1 PUSH1 0x44 ADD PUSH1 0x0 PUSH1 0x40 MLOAD DUP1 DUP4 SUB DUP2 PUSH1 0x0 DUP8 DUP1 EXTCODESIZE ISZERO DUP1 ISZERO PUSH2 0x102D JUMPI PUSH1 0x0 DUP1 REVERT JUMPDEST POP GAS CALL ISZERO DUP1 ISZERO PUSH2 0x1041 JUMPI RETURNDATASIZE PUSH1 0x0 DUP1 RETURNDATACOPY RETURNDATASIZE PUSH1 0x0 REVERT JUMPDEST POP POP PUSH1 0x8 SLOAD PUSH1 0x40 MLOAD PUSH4 0x2F1635A3 PUSH1 0xE2 SHL DUP2 MSTORE PUSH1 0x1 PUSH1 0x1 PUSH1 0xA0 SHL SUB DUP8 DUP2 AND PUSH1 0x4 DUP4 ADD MSTORE PUSH1 0x24 DUP3 ADD DUP10 SWAP1 MSTORE SWAP1 SWAP2 AND SWAP3 POP PUSH4 0xBC58D68C SWAP2 POP PUSH1 0x44 ADD PUSH1 0x0 PUSH1 0x40 MLOAD DUP1 DUP4 SUB DUP2 PUSH1 0x0 DUP8 DUP1 EXTCODESIZE ISZERO DUP1 ISZERO PUSH2 0x1093 JUMPI PUSH1 0x0 DUP1 REVERT JUMPDEST POP GAS CALL ISZERO DUP1 ISZERO PUSH2 0x10A7 JUMPI RETURNDATASIZE PUSH1 0x0 DUP1 RETURNDATACOPY RETURNDATASIZE PUSH1 0x0 REVERT JUMPDEST POP POP PUSH1 0x40 DUP1 MLOAD PUSH1 0x1 PUSH1 0x1 PUSH1 0xA0 SHL SUB DUP8 AND DUP2 MSTORE PUSH1 0x20 DUP2 ADD DUP6 SWAP1 MSTORE PUSH32 0x5AFECA38B2064C23A692C4CF353015D80AB3ECC417B4F893F372690C11FBD9A6 SWAP4 POP ADD SWAP1 POP PUSH1 0x40 MLOAD DUP1 SWAP2 SUB SWAP1 LOG1 PUSH2 0x120E JUMP JUMPDEST PUSH1 0x0 PUSH2 0x1103 DUP4 PUSH2 0x140 ADD MLOAD PUSH2 0xBAF JUMP JUMPDEST SWAP1 POP DUP1 TIMESTAMP GT ISZERO PUSH2 0x11B7 JUMPI PUSH1 0x8 SLOAD PUSH1 0x40 MLOAD PUSH4 0x2F1635A3 PUSH1 0xE2 SHL DUP2 MSTORE PUSH1 0x1 PUSH1 0x1 PUSH1 0xA0 SHL SUB DUP7 DUP2 AND PUSH1 0x4 DUP4 ADD MSTORE PUSH1 0x24 DUP3 ADD DUP9 SWAP1 MSTORE SWAP1 SWAP2 AND SWAP1 PUSH4 0xBC58D68C SWAP1 PUSH1 0x44 ADD PUSH1 0x0 PUSH1 0x40 MLOAD DUP1 DUP4 SUB DUP2 PUSH1 0x0 DUP8 DUP1 EXTCODESIZE ISZERO DUP1 ISZERO PUSH2 0x115B JUMPI PUSH1 0x0 DUP1 REVERT JUMPDEST POP GAS CALL ISZERO DUP1 ISZERO PUSH2 0x116F JUMPI RETURNDATASIZE PUSH1 0x0 DUP1 RETURNDATACOPY RETURNDATASIZE PUSH1 0x0 REVERT JUMPDEST POP POP PUSH1 0x40 DUP1 MLOAD PUSH1 0x1 PUSH1 0x1 PUSH1 0xA0 SHL SUB DUP9 AND DUP2 MSTORE PUSH1 0x20 DUP2 ADD DUP10 SWAP1 MSTORE PUSH32 0x5E258A8DA32249E7D7E1EBCD6B64F7C97C4235999DB64B6687191B183D5E3F2 SWAP4 POP ADD SWAP1 POP PUSH1 0x40 MLOAD DUP1 SWAP2 SUB SWAP1 LOG1 JUMPDEST PUSH32 0x59D77641060CAFC4D86DDDD4BD9C687BBFBD23FB4B1962869AFE9F54507105EA DUP5 DUP7 PUSH2 0x11E4 TIMESTAMP DUP6 PUSH2 0x298A JUMP JUMPDEST PUSH1 0x40 DUP1 MLOAD PUSH1 0x1 PUSH1 0x1 PUSH1 0xA0 SHL SUB SWAP1 SWAP5 AND DUP5 MSTORE PUSH1 0x20 DUP5 ADD SWAP3 SWAP1 SWAP3 MSTORE SWAP1 DUP3 ADD MSTORE PUSH1 0x60 ADD PUSH1 0x40 MLOAD DUP1 SWAP2 SUB SWAP1 LOG1 POP JUMPDEST POP POP POP POP POP POP POP JUMP JUMPDEST PUSH1 0x0 DUP2 DUP2 MSTORE PUSH1 0x1 PUSH1 0x20 MSTORE PUSH1 0x40 SWAP1 KECCAK256 SLOAD DUP2 SWAP1 PUSH1 0x1 PUSH1 0x1 PUSH1 0xA0 SHL SUB AND ISZERO PUSH2 0x1268 JUMPI PUSH1 0x40 MLOAD PUSH32 0x8B457AD200000000000000000000000000000000000000000000000000000000 DUP2 MSTORE PUSH1 0x4 ADD PUSH1 0x40 MLOAD DUP1 SWAP2 SUB SWAP1 REVERT JUMPDEST POP PUSH1 0x0 SWAP1 DUP2 MSTORE PUSH1 0x1 PUSH1 0x20 MSTORE PUSH1 0x40 SWAP1 KECCAK256 DUP1 SLOAD PUSH1 0x1 PUSH1 0x1 PUSH1 0xA0 SHL SUB NOT AND PUSH1 0x1 PUSH1 0x1 PUSH1 0xA0 SHL SUB SWAP3 SWAP1 SWAP3 AND SWAP2 SWAP1 SWAP2 OR SWAP1 SSTORE JUMP JUMPDEST PUSH1 0x60 PUSH1 0x0 PUSH2 0x12A4 DUP4 PUSH2 0x18F6 JUMP JUMPDEST PUSH1 0x1 ADD SWAP1 POP PUSH1 0x0 DUP2 PUSH8 0xFFFFFFFFFFFFFFFF DUP2 GT ISZERO PUSH2 0x12C4 JUMPI PUSH2 0x12C4 PUSH2 0x2A87 JUMP JUMPDEST PUSH1 0x40 MLOAD SWAP1 DUP1 DUP3 MSTORE DUP1 PUSH1 0x1F ADD PUSH1 0x1F NOT AND PUSH1 0x20 ADD DUP3 ADD PUSH1 0x40 MSTORE DUP1 ISZERO PUSH2 0x12EE JUMPI PUSH1 0x20 DUP3 ADD DUP2 DUP1 CALLDATASIZE DUP4 CALLDATACOPY ADD SWAP1 POP JUMPDEST POP SWAP1 POP DUP2 DUP2 ADD PUSH1 0x20 ADD JUMPDEST PUSH1 0x0 NOT ADD PUSH32 0x3031323334353637383961626364656600000000000000000000000000000000 PUSH1 0xA DUP7 MOD BYTE DUP2 MSTORE8 PUSH1 0xA DUP6 DIV SWAP5 POP DUP5 PUSH2 0x1334 JUMPI PUSH2 0xC29 JUMP JUMPDEST PUSH2 0x12F8 JUMP JUMPDEST DUP1 MLOAD PUSH2 0x1371 JUMPI PUSH1 0x40 MLOAD PUSH32 0x22CE3EDD00000000000000000000000000000000000000000000000000000000 DUP2 MSTORE PUSH1 0x4 ADD PUSH1 0x40 MLOAD DUP1 SWAP2 SUB SWAP1 REVERT JUMPDEST DUP4 DUP4 PUSH1 0x1 DUP2 GT ISZERO PUSH2 0x1384 JUMPI PUSH2 0x1384 PUSH2 0x2A5B JUMP JUMPDEST SWAP1 DUP2 PUSH1 0x1 DUP2 GT ISZERO PUSH2 0x1397 JUMPI PUSH2 0x1397 PUSH2 0x2A5B JUMP JUMPDEST SWAP1 MSTORE POP PUSH1 0x40 DUP5 ADD DUP3 DUP1 ISZERO PUSH2 0x13AD JUMPI PUSH2 0x13AD PUSH2 0x2A5B JUMP JUMPDEST SWAP1 DUP2 DUP1 ISZERO PUSH2 0x13BD JUMPI PUSH2 0x13BD PUSH2 0x2A5B JUMP JUMPDEST SWAP1 MSTORE POP PUSH1 0x60 SWAP1 SWAP4 ADD SWAP3 SWAP1 SWAP3 MSTORE POP POP JUMP JUMPDEST DUP1 MLOAD PUSH2 0x1405 JUMPI PUSH1 0x40 MLOAD PUSH32 0xFE936CB700000000000000000000000000000000000000000000000000000000 DUP2 MSTORE PUSH1 0x4 ADD PUSH1 0x40 MLOAD DUP1 SWAP2 SUB SWAP1 REVERT JUMPDEST PUSH1 0xA0 SWAP1 SWAP2 ADD MSTORE JUMP JUMPDEST PUSH1 0x0 DUP1 SLOAD DUP2 SWAP1 PUSH1 0x1 PUSH1 0x1 PUSH1 0xA0 SHL SUB AND PUSH4 0x28242B04 DUP6 PUSH2 0x142B DUP9 PUSH2 0x157F JUMP JUMPDEST DUP7 PUSH1 0x40 MLOAD DUP5 PUSH4 0xFFFFFFFF AND PUSH1 0xE0 SHL DUP2 MSTORE PUSH1 0x4 ADD PUSH2 0x144A SWAP4 SWAP3 SWAP2 SWAP1 PUSH2 0x274D JUMP JUMPDEST PUSH1 0x20 PUSH1 0x40 MLOAD DUP1 DUP4 SUB DUP2 PUSH1 0x0 DUP8 DUP1 EXTCODESIZE ISZERO DUP1 ISZERO PUSH2 0x1464 JUMPI PUSH1 0x0 DUP1 REVERT JUMPDEST POP GAS CALL ISZERO DUP1 ISZERO PUSH2 0x1478 JUMPI RETURNDATASIZE PUSH1 0x0 DUP1 RETURNDATACOPY RETURNDATASIZE PUSH1 0x0 REVERT JUMPDEST POP POP POP POP PUSH1 0x40 MLOAD RETURNDATASIZE PUSH1 0x1F NOT PUSH1 0x1F DUP3 ADD AND DUP3 ADD DUP1 PUSH1 0x40 MSTORE POP DUP2 ADD SWAP1 PUSH2 0x149C SWAP2 SWAP1 PUSH2 0x2199 JUMP JUMPDEST SWAP1 POP PUSH1 0x0 DUP1 SLOAD SWAP1 PUSH2 0x100 EXP SWAP1 DIV PUSH1 0x1 PUSH1 0x1 PUSH1 0xA0 SHL SUB AND PUSH1 0x1 PUSH1 0x1 PUSH1 0xA0 SHL SUB AND PUSH4 0x5AB1BD53 PUSH1 0x40 MLOAD DUP2 PUSH4 0xFFFFFFFF AND PUSH1 0xE0 SHL DUP2 MSTORE PUSH1 0x4 ADD PUSH1 0x20 PUSH1 0x40 MLOAD DUP1 DUP4 SUB DUP2 DUP7 DUP1 EXTCODESIZE ISZERO DUP1 ISZERO PUSH2 0x14EA JUMPI PUSH1 0x0 DUP1 REVERT JUMPDEST POP GAS STATICCALL ISZERO DUP1 ISZERO PUSH2 0x14FE JUMPI RETURNDATASIZE PUSH1 0x0 DUP1 RETURNDATACOPY RETURNDATASIZE PUSH1 0x0 REVERT JUMPDEST POP POP POP POP PUSH1 0x40 MLOAD RETURNDATASIZE PUSH1 0x1F NOT PUSH1 0x1F DUP3 ADD AND DUP3 ADD DUP1 PUSH1 0x40 MSTORE POP DUP2 ADD SWAP1 PUSH2 0x1522 SWAP2 SWAP1 PUSH2 0x2137 JUMP JUMPDEST PUSH1 0x0 DUP3 DUP2 MSTORE PUSH1 0x1 PUSH1 0x20 MSTORE PUSH1 0x40 DUP1 DUP3 KECCAK256 DUP1 SLOAD PUSH1 0x1 PUSH1 0x1 PUSH1 0xA0 SHL SUB NOT AND PUSH1 0x1 PUSH1 0x1 PUSH1 0xA0 SHL SUB SWAP5 SWAP1 SWAP5 AND SWAP4 SWAP1 SWAP4 OR SWAP1 SWAP3 SSTORE SWAP1 MLOAD DUP3 SWAP2 PUSH32 0x1131472297A800FEE664D1D89CFA8F7676FF07189ECC53F80BBB5F4969099DB8 SWAP2 LOG2 SWAP5 SWAP4 POP POP POP POP JUMP JUMPDEST PUSH1 0x60 PUSH2 0x1589 PUSH2 0x1F37 JUMP JUMPDEST DUP1 MLOAD PUSH2 0x1597 SWAP1 PUSH2 0x100 PUSH2 0x19D9 JUMP JUMPDEST POP PUSH2 0x15D7 DUP2 PUSH1 0x40 MLOAD DUP1 PUSH1 0x40 ADD PUSH1 0x40 MSTORE DUP1 PUSH1 0xC DUP2 MSTORE PUSH1 0x20 ADD PUSH32 0x636F64654C6F636174696F6E0000000000000000000000000000000000000000 DUP2 MSTORE POP PUSH2 0x1A50 JUMP JUMPDEST PUSH2 0x15F6 DUP2 DUP5 PUSH1 0x0 ADD MLOAD PUSH1 0x1 DUP2 GT ISZERO PUSH2 0x15F1 JUMPI PUSH2 0x15F1 PUSH2 0x2A5B JUMP JUMPDEST PUSH2 0x1A6E JUMP JUMPDEST PUSH2 0x1635 DUP2 PUSH1 0x40 MLOAD DUP1 PUSH1 0x40 ADD PUSH1 0x40 MSTORE DUP1 PUSH1 0x8 DUP2 MSTORE PUSH1 0x20 ADD PUSH32 0x6C616E6775616765000000000000000000000000000000000000000000000000 DUP2 MSTORE POP PUSH2 0x1A50 JUMP JUMPDEST PUSH2 0x164F DUP2 DUP5 PUSH1 0x40 ADD MLOAD PUSH1 0x0 DUP2 GT ISZERO PUSH2 0x15F1 JUMPI PUSH2 0x15F1 PUSH2 0x2A5B JUMP JUMPDEST PUSH2 0x168E DUP2 PUSH1 0x40 MLOAD DUP1 PUSH1 0x40 ADD PUSH1 0x40 MSTORE DUP1 PUSH1 0x6 DUP2 MSTORE PUSH1 0x20 ADD PUSH32 0x736F757263650000000000000000000000000000000000000000000000000000 DUP2 MSTORE POP PUSH2 0x1A50 JUMP JUMPDEST PUSH2 0x169C DUP2 DUP5 PUSH1 0x60 ADD MLOAD PUSH2 0x1A50 JUMP JUMPDEST PUSH1 0xA0 DUP4 ADD MLOAD MLOAD ISZERO PUSH2 0x1742 JUMPI PUSH2 0x16E6 DUP2 PUSH1 0x40 MLOAD DUP1 PUSH1 0x40 ADD PUSH1 0x40 MSTORE DUP1 PUSH1 0x4 DUP2 MSTORE PUSH1 0x20 ADD PUSH32 0x6172677300000000000000000000000000000000000000000000000000000000 DUP2 MSTORE POP PUSH2 0x1A50 JUMP JUMPDEST PUSH2 0x16EF DUP2 PUSH2 0x1AA7 JUMP JUMPDEST PUSH1 0x0 JUMPDEST DUP4 PUSH1 0xA0 ADD MLOAD MLOAD DUP2 LT ISZERO PUSH2 0x1738 JUMPI PUSH2 0x1726 DUP3 DUP6 PUSH1 0xA0 ADD MLOAD DUP4 DUP2 MLOAD DUP2 LT PUSH2 0x1719 JUMPI PUSH2 0x1719 PUSH2 0x2A71 JUMP JUMPDEST PUSH1 0x20 MUL PUSH1 0x20 ADD ADD MLOAD PUSH2 0x1A50 JUMP JUMPDEST DUP1 PUSH2 0x1730 DUP2 PUSH2 0x2A08 JUMP JUMPDEST SWAP2 POP POP PUSH2 0x16F2 JUMP JUMPDEST POP PUSH2 0x1742 DUP2 PUSH2 0x1ACB JUMP JUMPDEST PUSH1 0x80 DUP4 ADD MLOAD MLOAD ISZERO PUSH2 0x1843 JUMPI PUSH1 0x0 DUP4 PUSH1 0x20 ADD MLOAD PUSH1 0x1 DUP2 GT ISZERO PUSH2 0x1765 JUMPI PUSH2 0x1765 PUSH2 0x2A5B JUMP JUMPDEST EQ ISZERO PUSH2 0x179D JUMPI PUSH1 0x40 MLOAD PUSH32 0xA80D31F700000000000000000000000000000000000000000000000000000000 DUP2 MSTORE PUSH1 0x4 ADD PUSH1 0x40 MLOAD DUP1 SWAP2 SUB SWAP1 REVERT JUMPDEST PUSH2 0x17DC DUP2 PUSH1 0x40 MLOAD DUP1 PUSH1 0x40 ADD PUSH1 0x40 MSTORE DUP1 PUSH1 0xF DUP2 MSTORE PUSH1 0x20 ADD PUSH32 0x736563726574734C6F636174696F6E0000000000000000000000000000000000 DUP2 MSTORE POP PUSH2 0x1A50 JUMP JUMPDEST PUSH2 0x17F6 DUP2 DUP5 PUSH1 0x20 ADD MLOAD PUSH1 0x1 DUP2 GT ISZERO PUSH2 0x15F1 JUMPI PUSH2 0x15F1 PUSH2 0x2A5B JUMP JUMPDEST PUSH2 0x1835 DUP2 PUSH1 0x40 MLOAD DUP1 PUSH1 0x40 ADD PUSH1 0x40 MSTORE DUP1 PUSH1 0x7 DUP2 MSTORE PUSH1 0x20 ADD PUSH32 0x7365637265747300000000000000000000000000000000000000000000000000 DUP2 MSTORE POP PUSH2 0x1A50 JUMP JUMPDEST PUSH2 0x1843 DUP2 DUP5 PUSH1 0x80 ADD MLOAD PUSH2 0x1AE9 JUMP JUMPDEST MLOAD MLOAD SWAP3 SWAP2 POP POP JUMP JUMPDEST PUSH1 0x1 PUSH1 0x1 PUSH1 0xA0 SHL SUB DUP2 AND CALLER EQ ISZERO PUSH2 0x18A4 JUMPI PUSH1 0x40 MLOAD PUSH3 0x461BCD PUSH1 0xE5 SHL DUP2 MSTORE PUSH1 0x20 PUSH1 0x4 DUP3 ADD MSTORE PUSH1 0x17 PUSH1 0x24 DUP3 ADD MSTORE PUSH32 0x43616E6E6F74207472616E7366657220746F2073656C66000000000000000000 PUSH1 0x44 DUP3 ADD MSTORE PUSH1 0x64 ADD PUSH2 0xB4B JUMP JUMPDEST PUSH1 0x3 DUP1 SLOAD PUSH1 0x1 PUSH1 0x1 PUSH1 0xA0 SHL SUB NOT AND PUSH1 0x1 PUSH1 0x1 PUSH1 0xA0 SHL SUB DUP4 DUP2 AND SWAP2 DUP3 OR SWAP1 SWAP3 SSTORE PUSH1 0x2 SLOAD PUSH1 0x40 MLOAD SWAP2 SWAP3 AND SWAP1 PUSH32 0xED8889F560326EB138920D842192F0EB3DD22B4F139C87A2C57538E05BAE1278 SWAP1 PUSH1 0x0 SWAP1 LOG3 POP JUMP JUMPDEST PUSH1 0x0 DUP1 PUSH27 0x184F03E93FF9F4DAA797ED6E38ED64BF6A1F010000000000000000 DUP4 LT PUSH2 0x193F JUMPI PUSH27 0x184F03E93FF9F4DAA797ED6E38ED64BF6A1F010000000000000000 DUP4 DIV SWAP3 POP PUSH1 0x40 ADD JUMPDEST PUSH14 0x4EE2D6D415B85ACEF8100000000 DUP4 LT PUSH2 0x196B JUMPI PUSH14 0x4EE2D6D415B85ACEF8100000000 DUP4 DIV SWAP3 POP PUSH1 0x20 ADD JUMPDEST PUSH7 0x2386F26FC10000 DUP4 LT PUSH2 0x1989 JUMPI PUSH7 0x2386F26FC10000 DUP4 DIV SWAP3 POP PUSH1 0x10 ADD JUMPDEST PUSH4 0x5F5E100 DUP4 LT PUSH2 0x19A1 JUMPI PUSH4 0x5F5E100 DUP4 DIV SWAP3 POP PUSH1 0x8 ADD JUMPDEST PUSH2 0x2710 DUP4 LT PUSH2 0x19B5 JUMPI PUSH2 0x2710 DUP4 DIV SWAP3 POP PUSH1 0x4 ADD JUMPDEST PUSH1 0x64 DUP4 LT PUSH2 0x19C7 JUMPI PUSH1 0x64 DUP4 DIV SWAP3 POP PUSH1 0x2 ADD JUMPDEST PUSH1 0xA DUP4 LT PUSH2 0x19D3 JUMPI PUSH1 0x1 ADD JUMPDEST SWAP3 SWAP2 POP POP JUMP JUMPDEST PUSH1 0x40 DUP1 MLOAD DUP1 DUP3 ADD SWAP1 SWAP2 MSTORE PUSH1 0x60 DUP2 MSTORE PUSH1 0x0 PUSH1 0x20 DUP3 ADD MSTORE PUSH2 0x19F9 PUSH1 0x20 DUP4 PUSH2 0x2A23 JUMP JUMPDEST ISZERO PUSH2 0x1A21 JUMPI PUSH2 0x1A09 PUSH1 0x20 DUP4 PUSH2 0x2A23 JUMP JUMPDEST PUSH2 0x1A14 SWAP1 PUSH1 0x20 PUSH2 0x298A JUMP JUMPDEST PUSH2 0x1A1E SWAP1 DUP4 PUSH2 0x2868 JUMP JUMPDEST SWAP2 POP JUMPDEST PUSH1 0x20 DUP1 DUP5 ADD DUP4 SWAP1 MSTORE PUSH1 0x40 MLOAD DUP1 DUP6 MSTORE PUSH1 0x0 DUP2 MSTORE SWAP1 DUP2 DUP5 ADD ADD DUP2 DUP2 LT ISZERO PUSH2 0x1A45 JUMPI PUSH1 0x0 DUP1 REVERT JUMPDEST PUSH1 0x40 MSTORE POP SWAP2 SWAP3 SWAP2 POP POP JUMP JUMPDEST PUSH2 0x1A5D DUP3 PUSH1 0x3 DUP4 MLOAD PUSH2 0x1AF2 JUMP JUMPDEST DUP2 MLOAD PUSH2 0x1A69 SWAP1 DUP3 PUSH2 0x1C13 JUMP JUMPDEST POP POP POP JUMP JUMPDEST DUP2 MLOAD PUSH2 0x1A7B SWAP1 PUSH1 0xC2 PUSH2 0x1C34 JUMP JUMPDEST POP PUSH2 0x309 DUP3 DUP3 PUSH1 0x40 MLOAD PUSH1 0x20 ADD PUSH2 0x1A93 SWAP2 DUP2 MSTORE PUSH1 0x20 ADD SWAP1 JUMP JUMPDEST PUSH1 0x40 MLOAD PUSH1 0x20 DUP2 DUP4 SUB SUB DUP2 MSTORE SWAP1 PUSH1 0x40 MSTORE PUSH2 0x1AE9 JUMP JUMPDEST PUSH2 0x1AB2 DUP2 PUSH1 0x4 PUSH2 0x1C9D JUMP JUMPDEST PUSH1 0x1 DUP2 PUSH1 0x20 ADD DUP2 DUP2 MLOAD PUSH2 0x1AC5 SWAP2 SWAP1 PUSH2 0x2868 JUMP JUMPDEST SWAP1 MSTORE POP POP JUMP JUMPDEST PUSH2 0x1AD6 DUP2 PUSH1 0x7 PUSH2 0x1C9D JUMP JUMPDEST PUSH1 0x1 DUP2 PUSH1 0x20 ADD DUP2 DUP2 MLOAD PUSH2 0x1AC5 SWAP2 SWAP1 PUSH2 0x298A JUMP JUMPDEST PUSH2 0x1A5D DUP3 PUSH1 0x2 DUP4 MLOAD JUMPDEST PUSH1 0x17 DUP2 PUSH8 0xFFFFFFFFFFFFFFFF AND GT PUSH2 0x1B19 JUMPI DUP3 MLOAD PUSH2 0x3AD SWAP1 PUSH1 0xE0 PUSH1 0x5 DUP6 SWAP1 SHL AND DUP4 OR PUSH2 0x1C34 JUMP JUMPDEST PUSH1 0xFF DUP2 PUSH8 0xFFFFFFFFFFFFFFFF AND GT PUSH2 0x1B5B JUMPI DUP3 MLOAD PUSH2 0x1B42 SWAP1 PUSH1 0x18 PUSH2 0x1FE0 PUSH1 0x5 DUP7 SWAP1 SHL AND OR PUSH2 0x1C34 JUMP JUMPDEST POP DUP3 MLOAD PUSH2 0x3AD SWAP1 PUSH8 0xFFFFFFFFFFFFFFFF DUP4 AND PUSH1 0x1 PUSH2 0x1CB4 JUMP JUMPDEST PUSH2 0xFFFF DUP2 PUSH8 0xFFFFFFFFFFFFFFFF AND GT PUSH2 0x1B9E JUMPI DUP3 MLOAD PUSH2 0x1B85 SWAP1 PUSH1 0x19 PUSH2 0x1FE0 PUSH1 0x5 DUP7 SWAP1 SHL AND OR PUSH2 0x1C34 JUMP JUMPDEST POP DUP3 MLOAD PUSH2 0x3AD SWAP1 PUSH8 0xFFFFFFFFFFFFFFFF DUP4 AND PUSH1 0x2 PUSH2 0x1CB4 JUMP JUMPDEST PUSH4 0xFFFFFFFF DUP2 PUSH8 0xFFFFFFFFFFFFFFFF AND GT PUSH2 0x1BE3 JUMPI DUP3 MLOAD PUSH2 0x1BCA SWAP1 PUSH1 0x1A PUSH2 0x1FE0 PUSH1 0x5 DUP7 SWAP1 SHL AND OR PUSH2 0x1C34 JUMP JUMPDEST POP DUP3 MLOAD PUSH2 0x3AD SWAP1 PUSH8 0xFFFFFFFFFFFFFFFF DUP4 AND PUSH1 0x4 PUSH2 0x1CB4 JUMP JUMPDEST DUP3 MLOAD PUSH2 0x1BFA SWAP1 PUSH1 0x1B PUSH2 0x1FE0 PUSH1 0x5 DUP7 SWAP1 SHL AND OR PUSH2 0x1C34 JUMP JUMPDEST POP DUP3 MLOAD PUSH2 0x3AD SWAP1 PUSH8 0xFFFFFFFFFFFFFFFF DUP4 AND PUSH1 0x8 PUSH2 0x1CB4 JUMP JUMPDEST PUSH1 0x40 DUP1 MLOAD DUP1 DUP3 ADD SWAP1 SWAP2 MSTORE PUSH1 0x60 DUP2 MSTORE PUSH1 0x0 PUSH1 0x20 DUP3 ADD MSTORE PUSH2 0xA5C DUP4 DUP4 DUP5 MLOAD PUSH2 0x1D39 JUMP JUMPDEST PUSH1 0x40 DUP1 MLOAD DUP1 DUP3 ADD SWAP1 SWAP2 MSTORE PUSH1 0x60 DUP2 MSTORE PUSH1 0x0 PUSH1 0x20 DUP3 ADD MSTORE DUP3 MLOAD MLOAD PUSH1 0x0 PUSH2 0x1C59 DUP3 PUSH1 0x1 PUSH2 0x2868 JUMP JUMPDEST SWAP1 POP DUP5 PUSH1 0x20 ADD MLOAD DUP3 LT PUSH2 0x1C7A JUMPI PUSH2 0x1C7A DUP6 PUSH2 0x1C75 DUP4 PUSH1 0x2 PUSH2 0x296B JUMP JUMPDEST PUSH2 0x1E0A JUMP JUMPDEST DUP5 MLOAD PUSH1 0x20 DUP4 DUP3 ADD ADD DUP6 DUP2 MSTORE8 POP DUP1 MLOAD DUP3 GT ISZERO PUSH2 0x1C93 JUMPI DUP2 DUP2 MSTORE JUMPDEST POP SWAP4 SWAP5 SWAP4 POP POP POP POP JUMP JUMPDEST DUP2 MLOAD PUSH2 0x1A69 SWAP1 PUSH1 0x1F PUSH2 0x1FE0 PUSH1 0x5 DUP6 SWAP1 SHL AND OR PUSH2 0x1C34 JUMP JUMPDEST PUSH1 0x40 DUP1 MLOAD DUP1 DUP3 ADD SWAP1 SWAP2 MSTORE PUSH1 0x60 DUP2 MSTORE PUSH1 0x0 PUSH1 0x20 DUP3 ADD MSTORE DUP4 MLOAD MLOAD PUSH1 0x0 PUSH2 0x1CD8 DUP3 DUP6 PUSH2 0x2868 JUMP JUMPDEST SWAP1 POP DUP6 PUSH1 0x20 ADD MLOAD DUP2 GT ISZERO PUSH2 0x1CF5 JUMPI PUSH2 0x1CF5 DUP7 PUSH2 0x1C75 DUP4 PUSH1 0x2 PUSH2 0x296B JUMP JUMPDEST PUSH1 0x0 PUSH1 0x1 PUSH2 0x1D05 DUP7 PUSH2 0x100 PUSH2 0x28C3 JUMP JUMPDEST PUSH2 0x1D0F SWAP2 SWAP1 PUSH2 0x298A JUMP JUMPDEST SWAP1 POP DUP7 MLOAD DUP3 DUP2 ADD DUP8 DUP4 NOT DUP3 MLOAD AND OR DUP2 MSTORE POP DUP1 MLOAD DUP4 GT ISZERO PUSH2 0x1D2D JUMPI DUP3 DUP2 MSTORE JUMPDEST POP SWAP6 SWAP7 SWAP6 POP POP POP POP POP POP JUMP JUMPDEST PUSH1 0x40 DUP1 MLOAD DUP1 DUP3 ADD SWAP1 SWAP2 MSTORE PUSH1 0x60 DUP2 MSTORE PUSH1 0x0 PUSH1 0x20 DUP3 ADD MSTORE DUP3 MLOAD DUP3 GT ISZERO PUSH2 0x1D5C JUMPI PUSH1 0x0 DUP1 REVERT JUMPDEST DUP4 MLOAD MLOAD PUSH1 0x0 PUSH2 0x1D6B DUP5 DUP4 PUSH2 0x2868 JUMP JUMPDEST SWAP1 POP DUP6 PUSH1 0x20 ADD MLOAD DUP2 GT ISZERO PUSH2 0x1D88 JUMPI PUSH2 0x1D88 DUP7 PUSH2 0x1C75 DUP4 PUSH1 0x2 PUSH2 0x296B JUMP JUMPDEST DUP6 MLOAD DUP1 MLOAD DUP4 DUP3 ADD PUSH1 0x20 ADD SWAP2 PUSH1 0x0 SWAP2 DUP1 DUP6 GT ISZERO PUSH2 0x1DA2 JUMPI DUP5 DUP3 MSTORE JUMPDEST POP POP POP PUSH1 0x20 DUP7 ADD JUMPDEST PUSH1 0x20 DUP7 LT PUSH2 0x1DE2 JUMPI DUP1 MLOAD DUP3 MSTORE PUSH2 0x1DC1 PUSH1 0x20 DUP4 PUSH2 0x2868 JUMP JUMPDEST SWAP2 POP PUSH2 0x1DCE PUSH1 0x20 DUP3 PUSH2 0x2868 JUMP JUMPDEST SWAP1 POP PUSH2 0x1DDB PUSH1 0x20 DUP8 PUSH2 0x298A JUMP JUMPDEST SWAP6 POP PUSH2 0x1DAA JUMP JUMPDEST MLOAD DUP2 MLOAD PUSH1 0x0 NOT PUSH1 0x20 DUP9 SWAP1 SUB PUSH2 0x100 EXP ADD SWAP1 DUP2 AND SWAP1 NOT SWAP2 SWAP1 SWAP2 AND OR SWAP1 MSTORE POP DUP5 SWAP2 POP POP SWAP4 SWAP3 POP POP POP JUMP JUMPDEST DUP2 MLOAD PUSH2 0x1E16 DUP4 DUP4 PUSH2 0x19D9 JUMP JUMPDEST POP PUSH2 0x3AD DUP4 DUP3 PUSH2 0x1C13 JUMP JUMPDEST DUP3 DUP1 SLOAD PUSH2 0x1E2D SWAP1 PUSH2 0x29CD JUMP JUMPDEST SWAP1 PUSH1 0x0 MSTORE PUSH1 0x20 PUSH1 0x0 KECCAK256 SWAP1 PUSH1 0x1F ADD PUSH1 0x20 SWAP1 DIV DUP2 ADD SWAP3 DUP3 PUSH2 0x1E4F JUMPI PUSH1 0x0 DUP6 SSTORE PUSH2 0x1E95 JUMP JUMPDEST DUP3 PUSH1 0x1F LT PUSH2 0x1E68 JUMPI DUP1 MLOAD PUSH1 0xFF NOT AND DUP4 DUP1 ADD OR DUP6 SSTORE PUSH2 0x1E95 JUMP JUMPDEST DUP3 DUP1 ADD PUSH1 0x1 ADD DUP6 SSTORE DUP3 ISZERO PUSH2 0x1E95 JUMPI SWAP2 DUP3 ADD JUMPDEST DUP3 DUP2 GT ISZERO PUSH2 0x1E95 JUMPI DUP3 MLOAD DUP3 SSTORE SWAP2 PUSH1 0x20 ADD SWAP2 SWAP1 PUSH1 0x1 ADD SWAP1 PUSH2 0x1E7A JUMP JUMPDEST POP PUSH2 0x1EA1 SWAP3 SWAP2 POP PUSH2 0x1F6C JUMP JUMPDEST POP SWAP1 JUMP JUMPDEST PUSH1 0x40 MLOAD DUP1 PUSH1 0x40 ADD PUSH1 0x40 MSTORE DUP1 PUSH2 0x1F14 PUSH1 0x40 MLOAD DUP1 PUSH2 0x180 ADD PUSH1 0x40 MSTORE DUP1 PUSH1 0x60 DUP2 MSTORE PUSH1 0x20 ADD PUSH1 0x60 DUP2 MSTORE PUSH1 0x20 ADD PUSH1 0x60 DUP2 MSTORE PUSH1 0x20 ADD PUSH1 0x60 DUP2 MSTORE PUSH1 0x20 ADD PUSH1 0x60 DUP2 MSTORE PUSH1 0x20 ADD PUSH1 0x60 DUP2 MSTORE PUSH1 0x20 ADD PUSH1 0x60 DUP2 MSTORE PUSH1 0x20 ADD PUSH1 0x60 DUP2 MSTORE PUSH1 0x20 ADD PUSH1 0x60 DUP2 MSTORE PUSH1 0x20 ADD PUSH1 0x60 DUP2 MSTORE PUSH1 0x20 ADD PUSH1 0x60 DUP2 MSTORE PUSH1 0x20 ADD PUSH1 0x60 DUP2 MSTORE POP SWAP1 JUMP JUMPDEST DUP2 MSTORE PUSH1 0x40 DUP1 MLOAD PUSH1 0x60 DUP2 ADD DUP3 MSTORE PUSH1 0x0 DUP1 DUP3 MSTORE PUSH1 0x20 DUP3 DUP2 ADD DUP3 SWAP1 MSTORE SWAP3 DUP3 ADD MSTORE SWAP2 ADD MSTORE SWAP1 JUMP JUMPDEST PUSH1 0x40 MLOAD DUP1 PUSH1 0x40 ADD PUSH1 0x40 MSTORE DUP1 PUSH2 0x1F5F PUSH1 0x40 MLOAD DUP1 PUSH1 0x40 ADD PUSH1 0x40 MSTORE DUP1 PUSH1 0x60 DUP2 MSTORE PUSH1 0x20 ADD PUSH1 0x0 DUP2 MSTORE POP SWAP1 JUMP JUMPDEST DUP2 MSTORE PUSH1 0x20 ADD PUSH1 0x0 DUP2 MSTORE POP SWAP1 JUMP JUMPDEST JUMPDEST DUP1 DUP3 GT ISZERO PUSH2 0x1EA1 JUMPI PUSH1 0x0 DUP2 SSTORE PUSH1 0x1 ADD PUSH2 0x1F6D JUMP JUMPDEST PUSH1 0x0 PUSH2 0x1F94 PUSH2 0x1F8F DUP5 PUSH2 0x2840 JUMP JUMPDEST PUSH2 0x280F JUMP JUMPDEST SWAP1 POP DUP3 DUP2 MSTORE DUP4 DUP4 DUP4 ADD GT ISZERO PUSH2 0x1FA8 JUMPI PUSH1 0x0 DUP1 REVERT JUMPDEST PUSH2 0xA5C DUP4 PUSH1 0x20 DUP4 ADD DUP5 PUSH2 0x29A1 JUMP JUMPDEST PUSH1 0x0 DUP3 PUSH1 0x1F DUP4 ADD SLT PUSH2 0x1FC7 JUMPI PUSH1 0x0 DUP1 REVERT JUMPDEST DUP2 CALLDATALOAD PUSH1 0x20 PUSH8 0xFFFFFFFFFFFFFFFF DUP1 DUP4 GT ISZERO PUSH2 0x1FE4 JUMPI PUSH2 0x1FE4 PUSH2 0x2A87 JUMP JUMPDEST DUP3 PUSH1 0x5 SHL PUSH2 0x1FF3 DUP4 DUP3 ADD PUSH2 0x280F JUMP JUMPDEST DUP5 DUP2 MSTORE DUP4 DUP2 ADD SWAP1 DUP8 DUP6 ADD DUP4 DUP10 ADD DUP7 ADD DUP11 LT ISZERO PUSH2 0x200E JUMPI PUSH1 0x0 DUP1 REVERT JUMPDEST PUSH1 0x0 SWAP4 POP DUP4 JUMPDEST DUP8 DUP2 LT ISZERO PUSH2 0x204B JUMPI DUP2 CALLDATALOAD DUP7 DUP2 GT ISZERO PUSH2 0x202A JUMPI DUP6 DUP7 REVERT JUMPDEST PUSH2 0x2038 DUP13 DUP10 DUP4 DUP15 ADD ADD PUSH2 0x205A JUMP JUMPDEST DUP6 MSTORE POP SWAP3 DUP7 ADD SWAP3 SWAP1 DUP7 ADD SWAP1 PUSH1 0x1 ADD PUSH2 0x2014 JUMP JUMPDEST POP SWAP1 SWAP10 SWAP9 POP POP POP POP POP POP POP POP POP JUMP JUMPDEST PUSH1 0x0 DUP3 PUSH1 0x1F DUP4 ADD SLT PUSH2 0x206B JUMPI PUSH1 0x0 DUP1 REVERT JUMPDEST DUP2 CALLDATALOAD PUSH2 0x2079 PUSH2 0x1F8F DUP3 PUSH2 0x2840 JUMP JUMPDEST DUP2 DUP2 MSTORE DUP5 PUSH1 0x20 DUP4 DUP7 ADD ADD GT ISZERO PUSH2 0x208E JUMPI PUSH1 0x0 DUP1 REVERT JUMPDEST DUP2 PUSH1 0x20 DUP6 ADD PUSH1 0x20 DUP4 ADD CALLDATACOPY PUSH1 0x0 SWAP2 DUP2 ADD PUSH1 0x20 ADD SWAP2 SWAP1 SWAP2 MSTORE SWAP4 SWAP3 POP POP POP JUMP JUMPDEST DUP1 CALLDATALOAD PUSH1 0x1 DUP2 LT PUSH2 0x20BA JUMPI PUSH1 0x0 DUP1 REVERT JUMPDEST SWAP2 SWAP1 POP JUMP JUMPDEST DUP1 CALLDATALOAD PUSH1 0x2 DUP2 LT PUSH2 0x20BA JUMPI PUSH1 0x0 DUP1 REVERT JUMPDEST PUSH1 0x0 DUP3 PUSH1 0x1F DUP4 ADD SLT PUSH2 0x20DF JUMPI PUSH1 0x0 DUP1 REVERT JUMPDEST PUSH2 0xA5C DUP4 DUP4 MLOAD PUSH1 0x20 DUP6 ADD PUSH2 0x1F81 JUMP JUMPDEST DUP1 CALLDATALOAD PUSH4 0xFFFFFFFF DUP2 AND DUP2 EQ PUSH2 0x20BA JUMPI PUSH1 0x0 DUP1 REVERT JUMPDEST DUP1 CALLDATALOAD PUSH8 0xFFFFFFFFFFFFFFFF DUP2 AND DUP2 EQ PUSH2 0x20BA JUMPI PUSH1 0x0 DUP1 REVERT JUMPDEST PUSH1 0x0 PUSH1 0x20 DUP3 DUP5 SUB SLT ISZERO PUSH2 0x212C JUMPI PUSH1 0x0 DUP1 REVERT JUMPDEST DUP2 CALLDATALOAD PUSH2 0xA5C DUP2 PUSH2 0x2A9D JUMP JUMPDEST PUSH1 0x0 PUSH1 0x20 DUP3 DUP5 SUB SLT ISZERO PUSH2 0x2149 JUMPI PUSH1 0x0 DUP1 REVERT JUMPDEST DUP2 MLOAD PUSH2 0xA5C DUP2 PUSH2 0x2A9D JUMP JUMPDEST PUSH1 0x0 DUP1 PUSH1 0x40 DUP4 DUP6 SUB SLT ISZERO PUSH2 0x2167 JUMPI PUSH1 0x0 DUP1 REVERT JUMPDEST DUP3 CALLDATALOAD PUSH2 0x2172 DUP2 PUSH2 0x2A9D JUMP JUMPDEST SWAP5 PUSH1 0x20 SWAP4 SWAP1 SWAP4 ADD CALLDATALOAD SWAP4 POP POP POP JUMP JUMPDEST PUSH1 0x0 PUSH1 0x20 DUP3 DUP5 SUB SLT ISZERO PUSH2 0x2192 JUMPI PUSH1 0x0 DUP1 REVERT JUMPDEST POP CALLDATALOAD SWAP2 SWAP1 POP JUMP JUMPDEST PUSH1 0x0 PUSH1 0x20 DUP3 DUP5 SUB SLT ISZERO PUSH2 0x21AB JUMPI PUSH1 0x0 DUP1 REVERT JUMPDEST POP MLOAD SWAP2 SWAP1 POP JUMP JUMPDEST PUSH1 0x0 DUP1 PUSH1 0x0 PUSH1 0x60 DUP5 DUP7 SUB SLT ISZERO PUSH2 0x21C7 JUMPI PUSH1 0x0 DUP1 REVERT JUMPDEST DUP4 CALLDATALOAD SWAP3 POP PUSH1 0x20 DUP5 ADD CALLDATALOAD PUSH8 0xFFFFFFFFFFFFFFFF DUP1 DUP3 GT ISZERO PUSH2 0x21E6 JUMPI PUSH1 0x0 DUP1 REVERT JUMPDEST PUSH2 0x21F2 DUP8 DUP4 DUP9 ADD PUSH2 0x205A JUMP JUMPDEST SWAP4 POP PUSH1 0x40 DUP7 ADD CALLDATALOAD SWAP2 POP DUP1 DUP3 GT ISZERO PUSH2 0x2208 JUMPI PUSH1 0x0 DUP1 REVERT JUMPDEST POP PUSH2 0x2215 DUP7 DUP3 DUP8 ADD PUSH2 0x205A JUMP JUMPDEST SWAP2 POP POP SWAP3 POP SWAP3 POP SWAP3 JUMP JUMPDEST PUSH1 0x0 PUSH1 0x20 DUP3 DUP5 SUB SLT ISZERO PUSH2 0x2231 JUMPI PUSH1 0x0 DUP1 REVERT JUMPDEST DUP2 MLOAD PUSH8 0xFFFFFFFFFFFFFFFF DUP2 GT ISZERO PUSH2 0x2248 JUMPI PUSH1 0x0 DUP1 REVERT JUMPDEST DUP3 ADD PUSH1 0x1F DUP2 ADD DUP5 SGT PUSH2 0x2259 JUMPI PUSH1 0x0 DUP1 REVERT JUMPDEST PUSH2 0x2268 DUP5 DUP3 MLOAD PUSH1 0x20 DUP5 ADD PUSH2 0x1F81 JUMP JUMPDEST SWAP5 SWAP4 POP POP POP POP JUMP JUMPDEST PUSH1 0x0 PUSH1 0x20 DUP3 DUP5 SUB SLT ISZERO PUSH2 0x2282 JUMPI PUSH1 0x0 DUP1 REVERT JUMPDEST DUP2 CALLDATALOAD PUSH8 0xFFFFFFFFFFFFFFFF DUP2 GT ISZERO PUSH2 0x2299 JUMPI PUSH1 0x0 DUP1 REVERT JUMPDEST PUSH2 0x2268 DUP5 DUP3 DUP6 ADD PUSH2 0x205A JUMP JUMPDEST PUSH1 0x0 PUSH1 0x20 DUP3 DUP5 SUB SLT ISZERO PUSH2 0x22B7 JUMPI PUSH1 0x0 DUP1 REVERT JUMPDEST DUP2 MLOAD PUSH8 0xFFFFFFFFFFFFFFFF DUP1 DUP3 GT ISZERO PUSH2 0x22CF JUMPI PUSH1 0x0 DUP1 REVERT JUMPDEST SWAP1 DUP4 ADD SWAP1 PUSH2 0x180 DUP3 DUP7 SUB SLT ISZERO PUSH2 0x22E4 JUMPI PUSH1 0x0 DUP1 REVERT JUMPDEST PUSH2 0x22EC PUSH2 0x27C2 JUMP JUMPDEST DUP3 MLOAD DUP3 DUP2 GT ISZERO PUSH2 0x22FB JUMPI PUSH1 0x0 DUP1 REVERT JUMPDEST PUSH2 0x2307 DUP8 DUP3 DUP7 ADD PUSH2 0x20CE JUMP JUMPDEST DUP3 MSTORE POP PUSH1 0x20 DUP4 ADD MLOAD DUP3 DUP2 GT ISZERO PUSH2 0x231C JUMPI PUSH1 0x0 DUP1 REVERT JUMPDEST PUSH2 0x2328 DUP8 DUP3 DUP7 ADD PUSH2 0x20CE JUMP JUMPDEST PUSH1 0x20 DUP4 ADD MSTORE POP PUSH1 0x40 DUP4 ADD MLOAD DUP3 DUP2 GT ISZERO PUSH2 0x2340 JUMPI PUSH1 0x0 DUP1 REVERT JUMPDEST PUSH2 0x234C DUP8 DUP3 DUP7 ADD PUSH2 0x20CE JUMP JUMPDEST PUSH1 0x40 DUP4 ADD MSTORE POP PUSH1 0x60 DUP4 ADD MLOAD DUP3 DUP2 GT ISZERO PUSH2 0x2364 JUMPI PUSH1 0x0 DUP1 REVERT JUMPDEST PUSH2 0x2370 DUP8 DUP3 DUP7 ADD PUSH2 0x20CE JUMP JUMPDEST PUSH1 0x60 DUP4 ADD MSTORE POP PUSH1 0x80 DUP4 ADD MLOAD DUP3 DUP2 GT ISZERO PUSH2 0x2388 JUMPI PUSH1 0x0 DUP1 REVERT JUMPDEST PUSH2 0x2394 DUP8 DUP3 DUP7 ADD PUSH2 0x20CE JUMP JUMPDEST PUSH1 0x80 DUP4 ADD MSTORE POP PUSH1 0xA0 DUP4 ADD MLOAD DUP3 DUP2 GT ISZERO PUSH2 0x23AC JUMPI PUSH1 0x0 DUP1 REVERT JUMPDEST PUSH2 0x23B8 DUP8 DUP3 DUP7 ADD PUSH2 0x20CE JUMP JUMPDEST PUSH1 0xA0 DUP4 ADD MSTORE POP PUSH1 0xC0 DUP4 ADD MLOAD DUP3 DUP2 GT ISZERO PUSH2 0x23D0 JUMPI PUSH1 0x0 DUP1 REVERT JUMPDEST PUSH2 0x23DC DUP8 DUP3 DUP7 ADD PUSH2 0x20CE JUMP JUMPDEST PUSH1 0xC0 DUP4 ADD MSTORE POP PUSH1 0xE0 DUP4 ADD MLOAD DUP3 DUP2 GT ISZERO PUSH2 0x23F4 JUMPI PUSH1 0x0 DUP1 REVERT JUMPDEST PUSH2 0x2400 DUP8 DUP3 DUP7 ADD PUSH2 0x20CE JUMP JUMPDEST PUSH1 0xE0 DUP4 ADD MSTORE POP PUSH2 0x100 DUP1 DUP5 ADD MLOAD DUP4 DUP2 GT ISZERO PUSH2 0x241A JUMPI PUSH1 0x0 DUP1 REVERT JUMPDEST PUSH2 0x2426 DUP9 DUP3 DUP8 ADD PUSH2 0x20CE JUMP JUMPDEST DUP3 DUP5 ADD MSTORE POP POP PUSH2 0x120 DUP1 DUP5 ADD MLOAD DUP4 DUP2 GT ISZERO PUSH2 0x2440 JUMPI PUSH1 0x0 DUP1 REVERT JUMPDEST PUSH2 0x244C DUP9 DUP3 DUP8 ADD PUSH2 0x20CE JUMP JUMPDEST DUP3 DUP5 ADD MSTORE POP POP PUSH2 0x140 DUP1 DUP5 ADD MLOAD DUP4 DUP2 GT ISZERO PUSH2 0x2466 JUMPI PUSH1 0x0 DUP1 REVERT JUMPDEST PUSH2 0x2472 DUP9 DUP3 DUP8 ADD PUSH2 0x20CE JUMP JUMPDEST DUP3 DUP5 ADD MSTORE POP POP PUSH2 0x160 DUP1 DUP5 ADD MLOAD DUP4 DUP2 GT ISZERO PUSH2 0x248C JUMPI PUSH1 0x0 DUP1 REVERT JUMPDEST PUSH2 0x2498 DUP9 DUP3 DUP8 ADD PUSH2 0x20CE JUMP JUMPDEST SWAP2 DUP4 ADD SWAP2 SWAP1 SWAP2 MSTORE POP SWAP6 SWAP5 POP POP POP POP POP JUMP JUMPDEST PUSH1 0x0 PUSH1 0x60 DUP3 DUP5 SUB SLT ISZERO PUSH2 0x24BB JUMPI PUSH1 0x0 DUP1 REVERT JUMPDEST PUSH1 0x40 MLOAD PUSH1 0x60 DUP2 ADD DUP2 DUP2 LT PUSH8 0xFFFFFFFFFFFFFFFF DUP3 GT OR ISZERO PUSH2 0x24DE JUMPI PUSH2 0x24DE PUSH2 0x2A87 JUMP JUMPDEST PUSH1 0x40 MSTORE DUP3 MLOAD PUSH2 0x24EC DUP2 PUSH2 0x2A9D JUMP JUMPDEST DUP2 MSTORE PUSH1 0x20 DUP4 DUP2 ADD MLOAD SWAP1 DUP3 ADD MSTORE PUSH1 0x40 SWAP3 DUP4 ADD MLOAD SWAP3 DUP2 ADD SWAP3 SWAP1 SWAP3 MSTORE POP SWAP2 SWAP1 POP JUMP JUMPDEST PUSH1 0x0 DUP1 PUSH1 0x0 DUP1 PUSH1 0x80 DUP6 DUP8 SUB SLT ISZERO PUSH2 0x2521 JUMPI PUSH1 0x0 DUP1 REVERT JUMPDEST DUP5 CALLDATALOAD PUSH8 0xFFFFFFFFFFFFFFFF DUP1 DUP3 GT ISZERO PUSH2 0x2539 JUMPI PUSH1 0x0 DUP1 REVERT JUMPDEST SWAP1 DUP7 ADD SWAP1 PUSH1 0xC0 DUP3 DUP10 SUB SLT ISZERO PUSH2 0x254D JUMPI PUSH1 0x0 DUP1 REVERT JUMPDEST PUSH2 0x2555 PUSH2 0x27EC JUMP JUMPDEST PUSH2 0x255E DUP4 PUSH2 0x20BF JUMP JUMPDEST DUP2 MSTORE PUSH2 0x256C PUSH1 0x20 DUP5 ADD PUSH2 0x20BF JUMP JUMPDEST PUSH1 0x20 DUP3 ADD MSTORE PUSH2 0x257D PUSH1 0x40 DUP5 ADD PUSH2 0x20AB JUMP JUMPDEST PUSH1 0x40 DUP3 ADD MSTORE PUSH1 0x60 DUP4 ADD CALLDATALOAD DUP3 DUP2 GT ISZERO PUSH2 0x2594 JUMPI PUSH1 0x0 DUP1 REVERT JUMPDEST PUSH2 0x25A0 DUP11 DUP3 DUP7 ADD PUSH2 0x205A JUMP JUMPDEST PUSH1 0x60 DUP4 ADD MSTORE POP PUSH1 0x80 DUP4 ADD CALLDATALOAD DUP3 DUP2 GT ISZERO PUSH2 0x25B8 JUMPI PUSH1 0x0 DUP1 REVERT JUMPDEST PUSH2 0x25C4 DUP11 DUP3 DUP7 ADD PUSH2 0x205A JUMP JUMPDEST PUSH1 0x80 DUP4 ADD MSTORE POP PUSH1 0xA0 DUP4 ADD CALLDATALOAD DUP3 DUP2 GT ISZERO PUSH2 0x25DC JUMPI PUSH1 0x0 DUP1 REVERT JUMPDEST PUSH2 0x25E8 DUP11 DUP3 DUP7 ADD PUSH2 0x1FB6 JUMP JUMPDEST PUSH1 0xA0 DUP4 ADD MSTORE POP SWAP6 POP PUSH2 0x25FF SWAP2 POP POP PUSH1 0x20 DUP7 ADD PUSH2 0x2102 JUMP JUMPDEST SWAP3 POP PUSH2 0x260D PUSH1 0x40 DUP7 ADD PUSH2 0x20EE JUMP JUMPDEST SWAP4 SWAP7 SWAP3 SWAP6 POP SWAP3 SWAP4 PUSH1 0x60 ADD CALLDATALOAD SWAP3 POP POP JUMP JUMPDEST PUSH1 0x0 DUP1 PUSH1 0x0 PUSH1 0x60 DUP5 DUP7 SUB SLT ISZERO PUSH2 0x2632 JUMPI PUSH1 0x0 DUP1 REVERT JUMPDEST PUSH2 0x263B DUP5 PUSH2 0x2102 JUMP JUMPDEST SWAP3 POP PUSH2 0x2649 PUSH1 0x20 DUP6 ADD PUSH2 0x20EE JUMP JUMPDEST SWAP2 POP PUSH1 0x40 DUP5 ADD CALLDATALOAD SWAP1 POP SWAP3 POP SWAP3 POP SWAP3 JUMP JUMPDEST PUSH1 0x0 PUSH1 0x20 DUP3 DUP5 SUB SLT ISZERO PUSH2 0x266B JUMPI PUSH1 0x0 DUP1 REVERT JUMPDEST DUP2 MLOAD PUSH12 0xFFFFFFFFFFFFFFFFFFFFFFFF DUP2 AND DUP2 EQ PUSH2 0xA5C JUMPI PUSH1 0x0 DUP1 REVERT JUMPDEST PUSH1 0x0 DUP2 MLOAD DUP1 DUP5 MSTORE PUSH2 0x269F DUP2 PUSH1 0x20 DUP7 ADD PUSH1 0x20 DUP7 ADD PUSH2 0x29A1 JUMP JUMPDEST PUSH1 0x1F ADD PUSH1 0x1F NOT AND SWAP3 SWAP1 SWAP3 ADD PUSH1 0x20 ADD SWAP3 SWAP2 POP POP JUMP JUMPDEST PUSH1 0x0 PUSH1 0x20 DUP1 DUP4 ADD DUP2 DUP5 MSTORE DUP1 DUP6 MLOAD DUP1 DUP4 MSTORE PUSH1 0x40 DUP7 ADD SWAP2 POP PUSH1 0x40 DUP2 PUSH1 0x5 SHL DUP8 ADD ADD SWAP3 POP DUP4 DUP8 ADD PUSH1 0x0 JUMPDEST DUP3 DUP2 LT ISZERO PUSH2 0x2708 JUMPI PUSH1 0x3F NOT DUP9 DUP7 SUB ADD DUP5 MSTORE PUSH2 0x26F6 DUP6 DUP4 MLOAD PUSH2 0x2687 JUMP JUMPDEST SWAP5 POP SWAP3 DUP6 ADD SWAP3 SWAP1 DUP6 ADD SWAP1 PUSH1 0x1 ADD PUSH2 0x26DA JUMP JUMPDEST POP SWAP3 SWAP8 SWAP7 POP POP POP POP POP POP POP JUMP JUMPDEST PUSH1 0x20 DUP2 MSTORE PUSH1 0x0 PUSH2 0xA5C PUSH1 0x20 DUP4 ADD DUP5 PUSH2 0x2687 JUMP JUMPDEST PUSH1 0x40 DUP2 MSTORE PUSH1 0x0 PUSH2 0x273B PUSH1 0x40 DUP4 ADD DUP6 PUSH2 0x2687 JUMP JUMPDEST DUP3 DUP2 SUB PUSH1 0x20 DUP5 ADD MSTORE PUSH2 0xD69 DUP2 DUP6 PUSH2 0x2687 JUMP JUMPDEST PUSH8 0xFFFFFFFFFFFFFFFF DUP5 AND DUP2 MSTORE PUSH1 0x60 PUSH1 0x20 DUP3 ADD MSTORE PUSH1 0x0 PUSH2 0x2770 PUSH1 0x60 DUP4 ADD DUP6 PUSH2 0x2687 JUMP JUMPDEST SWAP1 POP PUSH4 0xFFFFFFFF DUP4 AND PUSH1 0x40 DUP4 ADD MSTORE SWAP5 SWAP4 POP POP POP POP JUMP JUMPDEST PUSH8 0xFFFFFFFFFFFFFFFF DUP6 AND DUP2 MSTORE PUSH1 0x80 PUSH1 0x20 DUP3 ADD MSTORE PUSH1 0x0 PUSH2 0x27A9 PUSH1 0x80 DUP4 ADD DUP7 PUSH2 0x2687 JUMP JUMPDEST PUSH4 0xFFFFFFFF SWAP5 SWAP1 SWAP5 AND PUSH1 0x40 DUP4 ADD MSTORE POP PUSH1 0x60 ADD MSTORE SWAP3 SWAP2 POP POP JUMP JUMPDEST PUSH1 0x40 MLOAD PUSH2 0x180 DUP2 ADD PUSH8 0xFFFFFFFFFFFFFFFF DUP2 GT DUP3 DUP3 LT OR ISZERO PUSH2 0x27E6 JUMPI PUSH2 0x27E6 PUSH2 0x2A87 JUMP JUMPDEST PUSH1 0x40 MSTORE SWAP1 JUMP JUMPDEST PUSH1 0x40 MLOAD PUSH1 0xC0 DUP2 ADD PUSH8 0xFFFFFFFFFFFFFFFF DUP2 GT DUP3 DUP3 LT OR ISZERO PUSH2 0x27E6 JUMPI PUSH2 0x27E6 PUSH2 0x2A87 JUMP JUMPDEST PUSH1 0x40 MLOAD PUSH1 0x1F DUP3 ADD PUSH1 0x1F NOT AND DUP2 ADD PUSH8 0xFFFFFFFFFFFFFFFF DUP2 GT DUP3 DUP3 LT OR ISZERO PUSH2 0x2838 JUMPI PUSH2 0x2838 PUSH2 0x2A87 JUMP JUMPDEST PUSH1 0x40 MSTORE SWAP2 SWAP1 POP JUMP JUMPDEST PUSH1 0x0 PUSH8 0xFFFFFFFFFFFFFFFF DUP3 GT ISZERO PUSH2 0x285A JUMPI PUSH2 0x285A PUSH2 0x2A87 JUMP JUMPDEST POP PUSH1 0x1F ADD PUSH1 0x1F NOT AND PUSH1 0x20 ADD SWAP1 JUMP JUMPDEST PUSH1 0x0 DUP3 NOT DUP3 GT ISZERO PUSH2 0x287B JUMPI PUSH2 0x287B PUSH2 0x2A45 JUMP JUMPDEST POP ADD SWAP1 JUMP JUMPDEST PUSH1 0x1 DUP2 DUP2 JUMPDEST DUP1 DUP6 GT ISZERO PUSH2 0x28BB JUMPI DUP2 PUSH1 0x0 NOT DIV DUP3 GT ISZERO PUSH2 0x28A1 JUMPI PUSH2 0x28A1 PUSH2 0x2A45 JUMP JUMPDEST DUP1 DUP6 AND ISZERO PUSH2 0x28AE JUMPI SWAP2 DUP2 MUL SWAP2 JUMPDEST SWAP4 DUP5 SHR SWAP4 SWAP1 DUP1 MUL SWAP1 PUSH2 0x2885 JUMP JUMPDEST POP SWAP3 POP SWAP3 SWAP1 POP JUMP JUMPDEST PUSH1 0x0 PUSH2 0xA5C DUP4 DUP4 PUSH1 0x0 DUP3 PUSH2 0x28D9 JUMPI POP PUSH1 0x1 PUSH2 0x19D3 JUMP JUMPDEST DUP2 PUSH2 0x28E6 JUMPI POP PUSH1 0x0 PUSH2 0x19D3 JUMP JUMPDEST DUP2 PUSH1 0x1 DUP2 EQ PUSH2 0x28FC JUMPI PUSH1 0x2 DUP2 EQ PUSH2 0x2906 JUMPI PUSH2 0x2922 JUMP JUMPDEST PUSH1 0x1 SWAP2 POP POP PUSH2 0x19D3 JUMP JUMPDEST PUSH1 0xFF DUP5 GT ISZERO PUSH2 0x2917 JUMPI PUSH2 0x2917 PUSH2 0x2A45 JUMP JUMPDEST POP POP PUSH1 0x1 DUP3 SHL PUSH2 0x19D3 JUMP JUMPDEST POP PUSH1 0x20 DUP4 LT PUSH2 0x133 DUP4 LT AND PUSH1 0x4E DUP5 LT PUSH1 0xB DUP5 LT AND OR ISZERO PUSH2 0x2945 JUMPI POP DUP2 DUP2 EXP PUSH2 0x19D3 JUMP JUMPDEST PUSH2 0x294F DUP4 DUP4 PUSH2 0x2880 JUMP JUMPDEST DUP1 PUSH1 0x0 NOT DIV DUP3 GT ISZERO PUSH2 0x2963 JUMPI PUSH2 0x2963 PUSH2 0x2A45 JUMP JUMPDEST MUL SWAP4 SWAP3 POP POP POP JUMP JUMPDEST PUSH1 0x0 DUP2 PUSH1 0x0 NOT DIV DUP4 GT DUP3 ISZERO ISZERO AND ISZERO PUSH2 0x2985 JUMPI PUSH2 0x2985 PUSH2 0x2A45 JUMP JUMPDEST POP MUL SWAP1 JUMP JUMPDEST PUSH1 0x0 DUP3 DUP3 LT ISZERO PUSH2 0x299C JUMPI PUSH2 0x299C PUSH2 0x2A45 JUMP JUMPDEST POP SUB SWAP1 JUMP JUMPDEST PUSH1 0x0 JUMPDEST DUP4 DUP2 LT ISZERO PUSH2 0x29BC JUMPI DUP2 DUP2 ADD MLOAD DUP4 DUP3 ADD MSTORE PUSH1 0x20 ADD PUSH2 0x29A4 JUMP JUMPDEST DUP4 DUP2 GT ISZERO PUSH2 0x3AD JUMPI POP POP PUSH1 0x0 SWAP2 ADD MSTORE JUMP JUMPDEST PUSH1 0x1 DUP2 DUP2 SHR SWAP1 DUP3 AND DUP1 PUSH2 0x29E1 JUMPI PUSH1 0x7F DUP3 AND SWAP2 POP JUMPDEST PUSH1 0x20 DUP3 LT DUP2 EQ ISZERO PUSH2 0x2A02 JUMPI PUSH4 0x4E487B71 PUSH1 0xE0 SHL PUSH1 0x0 MSTORE PUSH1 0x22 PUSH1 0x4 MSTORE PUSH1 0x24 PUSH1 0x0 REVERT JUMPDEST POP SWAP2 SWAP1 POP JUMP JUMPDEST PUSH1 0x0 PUSH1 0x0 NOT DUP3 EQ ISZERO PUSH2 0x2A1C JUMPI PUSH2 0x2A1C PUSH2 0x2A45 JUMP JUMPDEST POP PUSH1 0x1 ADD SWAP1 JUMP JUMPDEST PUSH1 0x0 DUP3 PUSH2 0x2A40 JUMPI PUSH4 0x4E487B71 PUSH1 0xE0 SHL PUSH1 0x0 MSTORE PUSH1 0x12 PUSH1 0x4 MSTORE PUSH1 0x24 PUSH1 0x0 REVERT JUMPDEST POP MOD SWAP1 JUMP JUMPDEST PUSH4 0x4E487B71 PUSH1 0xE0 SHL PUSH1 0x0 MSTORE PUSH1 0x11 PUSH1 0x4 MSTORE PUSH1 0x24 PUSH1 0x0 REVERT JUMPDEST PUSH4 0x4E487B71 PUSH1 0xE0 SHL PUSH1 0x0 MSTORE PUSH1 0x21 PUSH1 0x4 MSTORE PUSH1 0x24 PUSH1 0x0 REVERT JUMPDEST PUSH4 0x4E487B71 PUSH1 0xE0 SHL PUSH1 0x0 MSTORE PUSH1 0x32 PUSH1 0x4 MSTORE PUSH1 0x24 PUSH1 0x0 REVERT JUMPDEST PUSH4 0x4E487B71 PUSH1 0xE0 SHL PUSH1 0x0 MSTORE PUSH1 0x41 PUSH1 0x4 MSTORE PUSH1 0x24 PUSH1 0x0 REVERT JUMPDEST PUSH1 0x1 PUSH1 0x1 PUSH1 0xA0 SHL SUB DUP2 AND DUP2 EQ PUSH2 0xD83 JUMPI PUSH1 0x0 DUP1 REVERT INVALID LOG2 PUSH5 0x6970667358 0x22 SLT KECCAK256 0xDF 0xDF ORIGIN PUSH13 0x4A1EA99A14EFF336056FF6BD1C 0xDF JUMPI NOT DUP6 0x21 POP DUP2 BALANCE CALL REVERT 0xEC PUSH24 0xB708AB64736F6C6343000807003300000000000000000000 "},"methodIdentifiers":{"acceptOwnership()":"79ba5097","addSimulatedRequestId(address,bytes32)":"30bda99d","checkPolicy(uint64,uint32,uint256)":"448af937","estimateCost((uint8,uint8,uint8,string,bytes,string[]),uint64,uint32,uint256)":"d4b39175","getDONPublicKey()":"d328a91e","getSourceCode()":"698cd3ad","handleOracleFulfillment(bytes32,bytes,bytes)":"0ca76175","insuranceContract()":"d012a5a8","latestError()":"fffeb84e","latestRequestId()":"1aa46f59","latestResponse()":"bef3a2f0","owner()":"8da5cb5b","requestIdToPolicyIndex(bytes32)":"4732889d","requestIdToSender(bytes32)":"219c0eee","setSourceCode(string)":"00b46767","sourceCode()":"13c60177","stringToUint256(string)":"ac5d3723","transferOwnership(address)":"f2fde38b","updateOracleAddress(address)":"f7023bb6"}},"storageLayout":{"storage":[{"astId":3542,"contract":"contracts/CheckPayout.sol:CheckPayout","label":"s_oracle","offset":0,"slot":"0","type":"t_contract(FunctionsOracleInterface)3976"},{"astId":3546,"contract":"contracts/CheckPayout.sol:CheckPayout","label":"s_pendingRequests","offset":0,"slot":"1","type":"t_mapping(t_bytes32,t_address)"},{"astId":27,"contract":"contracts/CheckPayout.sol:CheckPayout","label":"s_owner","offset":0,"slot":"2","type":"t_address"},{"astId":29,"contract":"contracts/CheckPayout.sol:CheckPayout","label":"s_pendingOwner","offset":0,"slot":"3","type":"t_address"},{"astId":1484,"contract":"contracts/CheckPayout.sol:CheckPayout","label":"sourceCode","offset":0,"slot":"4","type":"t_string_storage"},{"astId":1490,"contract":"contracts/CheckPayout.sol:CheckPayout","label":"latestRequestId","offset":0,"slot":"5","type":"t_bytes32"},{"astId":1492,"contract":"contracts/CheckPayout.sol:CheckPayout","label":"latestResponse","offset":0,"slot":"6","type":"t_bytes_storage"},{"astId":1494,"contract":"contracts/CheckPayout.sol:CheckPayout","label":"latestError","offset":0,"slot":"7","type":"t_bytes_storage"},{"astId":1505,"contract":"contracts/CheckPayout.sol:CheckPayout","label":"insuranceContract","offset":0,"slot":"8","type":"t_contract(Insurance)3120"},{"astId":1509,"contract":"contracts/CheckPayout.sol:CheckPayout","label":"requestIdToPolicyIndex","offset":0,"slot":"9","type":"t_mapping(t_bytes32,t_uint256)"},{"astId":1513,"contract":"contracts/CheckPayout.sol:CheckPayout","label":"requestIdToSender","offset":0,"slot":"10","type":"t_mapping(t_bytes32,t_address)"}],"types":{"t_address":{"encoding":"inplace","label":"address","numberOfBytes":"20"},"t_bytes32":{"encoding":"inplace","label":"bytes32","numberOfBytes":"32"},"t_bytes_storage":{"encoding":"bytes","label":"bytes","numberOfBytes":"32"},"t_contract(FunctionsOracleInterface)3976":{"encoding":"inplace","label":"contract FunctionsOracleInterface","numberOfBytes":"20"},"t_contract(Insurance)3120":{"encoding":"inplace","label":"contract Insurance","numberOfBytes":"20"},"t_mapping(t_bytes32,t_address)":{"encoding":"mapping","key":"t_bytes32","label":"mapping(bytes32 => address)","numberOfBytes":"32","value":"t_address"},"t_mapping(t_bytes32,t_uint256)":{"encoding":"mapping","key":"t_bytes32","label":"mapping(bytes32 => uint256)","numberOfBytes":"32","value":"t_uint256"},"t_string_storage":{"encoding":"bytes","label":"string","numberOfBytes":"32"},"t_uint256":{"encoding":"inplace","label":"uint256","numberOfBytes":"32"}}}}}}