{"contracts/Insurance.sol":{"Insurance":{"abi":[{"inputs":[{"internalType":"address","name":"oracle","type":"address"},{"internalType":"address","name":"linkMaticPrice","type":"address"},{"internalType":"address","name":"randomness","type":"address"}],"stateMutability":"nonpayable","type":"constructor"},{"inputs":[],"name":"EmptyArgs","type":"error"},{"inputs":[],"name":"EmptySecrets","type":"error"},{"inputs":[],"name":"EmptySource","type":"error"},{"inputs":[],"name":"NoInlineSecrets","type":"error"},{"inputs":[],"name":"RequestIsAlreadyPending","type":"error"},{"inputs":[],"name":"RequestIsNotPending","type":"error"},{"inputs":[],"name":"SenderIsNotRegistry","type":"error"},{"anonymous":false,"inputs":[{"indexed":true,"internalType":"bytes32","name":"requestId","type":"bytes32"},{"indexed":false,"internalType":"bytes","name":"result","type":"bytes"},{"indexed":false,"internalType":"bytes","name":"err","type":"bytes"}],"name":"OCRResponse","type":"event"},{"anonymous":false,"inputs":[{"indexed":true,"internalType":"address","name":"from","type":"address"},{"indexed":true,"internalType":"address","name":"to","type":"address"}],"name":"OwnershipTransferRequested","type":"event"},{"anonymous":false,"inputs":[{"indexed":true,"internalType":"address","name":"from","type":"address"},{"indexed":true,"internalType":"address","name":"to","type":"address"}],"name":"OwnershipTransferred","type":"event"},{"anonymous":false,"inputs":[{"indexed":true,"internalType":"bytes32","name":"id","type":"bytes32"}],"name":"RequestFulfilled","type":"event"},{"anonymous":false,"inputs":[{"indexed":true,"internalType":"bytes32","name":"id","type":"bytes32"}],"name":"RequestSent","type":"event"},{"inputs":[],"name":"acceptOwnership","outputs":[],"stateMutability":"nonpayable","type":"function"},{"inputs":[{"internalType":"address","name":"oracleAddress","type":"address"},{"internalType":"bytes32","name":"requestId","type":"bytes32"}],"name":"addSimulatedRequestId","outputs":[],"stateMutability":"nonpayable","type":"function"},{"inputs":[],"name":"checkInsuranceData","outputs":[{"internalType":"bool","name":"","type":"bool"}],"stateMutability":"view","type":"function"},{"inputs":[],"name":"constructionTime","outputs":[{"internalType":"uint256","name":"","type":"uint256"}],"stateMutability":"view","type":"function"},{"inputs":[],"name":"currentTime","outputs":[{"internalType":"uint256","name":"","type":"uint256"}],"stateMutability":"view","type":"function"},{"inputs":[{"components":[{"internalType":"enum Functions.Location","name":"codeLocation","type":"uint8"},{"internalType":"enum Functions.Location","name":"secretsLocation","type":"uint8"},{"internalType":"enum Functions.CodeLanguage","name":"language","type":"uint8"},{"internalType":"string","name":"source","type":"string"},{"internalType":"bytes","name":"secrets","type":"bytes"},{"internalType":"string[]","name":"args","type":"string[]"}],"internalType":"struct Functions.Request","name":"req","type":"tuple"},{"internalType":"uint64","name":"subscriptionId","type":"uint64"},{"internalType":"uint32","name":"gasLimit","type":"uint32"},{"internalType":"uint256","name":"gasPrice","type":"uint256"}],"name":"estimateCost","outputs":[{"internalType":"uint96","name":"","type":"uint96"}],"stateMutability":"view","type":"function"},{"inputs":[{"internalType":"string","name":"source","type":"string"},{"internalType":"bytes","name":"secrets","type":"bytes"},{"internalType":"string[]","name":"args","type":"string[]"},{"internalType":"uint64","name":"subscriptionId","type":"uint64"},{"internalType":"uint32","name":"gasLimit","type":"uint32"}],"name":"estimateInsurance","outputs":[{"internalType":"bytes32","name":"","type":"bytes32"}],"stateMutability":"payable","type":"function"},{"inputs":[],"name":"getCurrentTime","outputs":[{"internalType":"uint256","name":"","type":"uint256"}],"stateMutability":"view","type":"function"},{"inputs":[],"name":"getDONPublicKey","outputs":[{"internalType":"bytes","name":"","type":"bytes"}],"stateMutability":"view","type":"function"},{"inputs":[],"name":"getLatestPrice","outputs":[{"internalType":"int256","name":"","type":"int256"}],"stateMutability":"view","type":"function"},{"inputs":[],"name":"getRandomWords","outputs":[{"internalType":"bytes","name":"","type":"bytes"}],"stateMutability":"nonpayable","type":"function"},{"inputs":[],"name":"globalDayNumber","outputs":[{"internalType":"int256","name":"","type":"int256"}],"stateMutability":"view","type":"function"},{"inputs":[{"internalType":"bytes32","name":"requestId","type":"bytes32"},{"internalType":"bytes","name":"response","type":"bytes"},{"internalType":"bytes","name":"err","type":"bytes"}],"name":"handleOracleFulfillment","outputs":[],"stateMutability":"nonpayable","type":"function"},{"inputs":[],"name":"helloWorld","outputs":[{"internalType":"string","name":"","type":"string"}],"stateMutability":"view","type":"function"},{"inputs":[{"internalType":"address","name":"","type":"address"},{"internalType":"uint256","name":"","type":"uint256"}],"name":"insuranceDataMapping","outputs":[{"internalType":"string","name":"latNe","type":"string"},{"internalType":"string","name":"longNe","type":"string"},{"internalType":"string","name":"latSe","type":"string"},{"internalType":"string","name":"longSe","type":"string"},{"internalType":"string","name":"latSw","type":"string"},{"internalType":"string","name":"longSw","type":"string"},{"internalType":"string","name":"latNw","type":"string"},{"internalType":"string","name":"longNw","type":"string"},{"internalType":"string","name":"configParam","type":"string"},{"internalType":"string","name":"currentTime","type":"string"},{"internalType":"string","name":"startTime","type":"string"},{"internalType":"string","name":"endTime","type":"string"}],"stateMutability":"view","type":"function"},{"inputs":[],"name":"latestError","outputs":[{"internalType":"bytes","name":"","type":"bytes"}],"stateMutability":"view","type":"function"},{"inputs":[],"name":"latestRequestId","outputs":[{"internalType":"bytes32","name":"","type":"bytes32"}],"stateMutability":"view","type":"function"},{"inputs":[],"name":"latestResponse","outputs":[{"internalType":"bytes","name":"","type":"bytes"}],"stateMutability":"view","type":"function"},{"inputs":[],"name":"owner","outputs":[{"internalType":"address","name":"","type":"address"}],"stateMutability":"view","type":"function"},{"inputs":[],"name":"priceFeed","outputs":[{"internalType":"contract PriceConsumerV3","name":"","type":"address"}],"stateMutability":"view","type":"function"},{"inputs":[],"name":"randomFeed","outputs":[{"internalType":"contract VRFv2Consumer","name":"","type":"address"}],"stateMutability":"view","type":"function"},{"inputs":[{"internalType":"uint256","name":"requestId","type":"uint256"},{"internalType":"uint256[]","name":"randomWords","type":"uint256[]"}],"name":"receiveRandomness","outputs":[],"stateMutability":"nonpayable","type":"function"},{"inputs":[{"internalType":"address","name":"to","type":"address"}],"name":"transferOwnership","outputs":[],"stateMutability":"nonpayable","type":"function"},{"inputs":[{"internalType":"address","name":"oracle","type":"address"}],"name":"updateOracleAddress","outputs":[],"stateMutability":"nonpayable","type":"function"}],"evm":{"bytecode":{"linkReferences":{},"object":"608060405242600b553480156200001557600080fd5b506040516200419f3803806200419f8339810160408190526200003891620001f3565b600080546001600160a01b0319166001600160a01b038516178155339081906001600160a01b038216620000b35760405162461bcd60e51b815260206004820152601860248201527f43616e6e6f7420736574206f776e657220746f207a65726f000000000000000060448201526064015b60405180910390fd5b600280546001600160a01b0319166001600160a01b0384811691909117909155811615620000e657620000e68162000129565b5050600480546001600160a01b039485166001600160a01b0319918216179091556005805493909416921691909117909155505042600a5560006009556200023d565b6001600160a01b038116331415620001845760405162461bcd60e51b815260206004820152601760248201527f43616e6e6f74207472616e7366657220746f2073656c660000000000000000006044820152606401620000aa565b600380546001600160a01b0319166001600160a01b03838116918217909255600254604051919216907fed8889f560326eb138920d842192f0eb3dd22b4f139c87a2c57538e05bae127890600090a350565b80516001600160a01b0381168114620001ee57600080fd5b919050565b6000806000606084860312156200020957600080fd5b6200021484620001d6565b92506200022460208501620001d6565b91506200023460408501620001d6565b90509250925092565b613f52806200024d6000396000f3fe60806040526004361061018b5760003560e01c8063985454ff116100d6578063d4b391751161007f578063f2fde38b11610059578063f2fde38b14610420578063f7023bb614610440578063fffeb84e1461046057600080fd5b8063d4b39175146103a8578063e0919101146103e5578063f06c56101461040a57600080fd5b8063ce10b1fb116100b0578063ce10b1fb14610368578063d18e81b31461037d578063d328a91e1461039357600080fd5b8063985454ff1461031e578063bef3a2f014610331578063c605f76c1461035357600080fd5b806337f9c70d1161013857806379ba50971161011257806379ba5097146102d65780638da5cb5b146102eb5780638e15f4731461030957600080fd5b806337f9c70d146102805780634b11b4a1146102a0578063741bef1a146102b657600080fd5b80632142735a116101695780632142735a1461021357806329cb924d1461024b57806330bda99d1461026057600080fd5b80630ca7617514610190578063126455dd146101b25780631aa46f59146101ef575b600080fd5b34801561019c57600080fd5b506101b06101ab36600461364f565b610475565b005b3480156101be57600080fd5b506005546101d2906001600160a01b031681565b6040516001600160a01b0390911681526020015b60405180910390f35b3480156101fb57600080fd5b5061020560065481565b6040519081526020016101e6565b34801561021f57600080fd5b5061023361022e36600461360a565b61051b565b6040516101e69c9b9a99989796959493929190613a5d565b34801561025757600080fd5b50600b54610205565b34801561026c57600080fd5b506101b061027b36600461360a565b610bf8565b34801561028c57600080fd5b506101b061029b366004613927565b610c0e565b3480156102ac57600080fd5b5061020560095481565b3480156102c257600080fd5b506004546101d2906001600160a01b031681565b3480156102e257600080fd5b506101b0610e20565b3480156102f757600080fd5b506002546001600160a01b03166101d2565b34801561031557600080fd5b50610205610ed5565b61020561032c36600461372a565b610f62565b34801561033d57600080fd5b506103466118b9565b6040516101e69190613a25565b34801561035f57600080fd5b50610346611947565b34801561037457600080fd5b506103466119bf565b34801561038957600080fd5b50610205600b5481565b34801561039f57600080fd5b50610346611b98565b3480156103b457600080fd5b506103c86103c3366004613815565b611c31565b6040516bffffffffffffffffffffffff90911681526020016101e6565b3480156103f157600080fd5b506103fa611cc7565b60405190151581526020016101e6565b34801561041657600080fd5b50610205600a5481565b34801561042c57600080fd5b506101b061043b3660046135d0565b612543565b34801561044c57600080fd5b506101b061045b3660046135d0565b612557565b34801561046c57600080fd5b5061034661257d565b60008381526001602052604090205483906001600160a01b031633146104c7576040517fa0c5ec6300000000000000000000000000000000000000000000000000000000815260040160405180910390fd5b60008181526001602052604080822080546001600160a01b03191690555182917f85e1543bf2f84fe80c6badbce3648c8539ad1df4d2b3d822938ca0538be727e691a261051584848461258a565b50505050565b600c602052816000526040600020818154811061053757600080fd5b90600052602060002090600d02016000915091505080600001805461055b90613e37565b80601f016020809104026020016040519081016040528092919081815260200182805461058790613e37565b80156105d45780601f106105a9576101008083540402835291602001916105d4565b820191906000526020600020905b8154815290600101906020018083116105b757829003601f168201915b5050505050908060010180546105e990613e37565b80601f016020809104026020016040519081016040528092919081815260200182805461061590613e37565b80156106625780601f1061063757610100808354040283529160200191610662565b820191906000526020600020905b81548152906001019060200180831161064557829003601f168201915b50505050509080600201805461067790613e37565b80601f01602080910402602001604051908101604052809291908181526020018280546106a390613e37565b80156106f05780601f106106c5576101008083540402835291602001916106f0565b820191906000526020600020905b8154815290600101906020018083116106d357829003601f168201915b50505050509080600301805461070590613e37565b80601f016020809104026020016040519081016040528092919081815260200182805461073190613e37565b801561077e5780601f106107535761010080835404028352916020019161077e565b820191906000526020600020905b81548152906001019060200180831161076157829003601f168201915b50505050509080600401805461079390613e37565b80601f01602080910402602001604051908101604052809291908181526020018280546107bf90613e37565b801561080c5780601f106107e15761010080835404028352916020019161080c565b820191906000526020600020905b8154815290600101906020018083116107ef57829003601f168201915b50505050509080600501805461082190613e37565b80601f016020809104026020016040519081016040528092919081815260200182805461084d90613e37565b801561089a5780601f1061086f5761010080835404028352916020019161089a565b820191906000526020600020905b81548152906001019060200180831161087d57829003601f168201915b5050505050908060060180546108af90613e37565b80601f01602080910402602001604051908101604052809291908181526020018280546108db90613e37565b80156109285780601f106108fd57610100808354040283529160200191610928565b820191906000526020600020905b81548152906001019060200180831161090b57829003601f168201915b50505050509080600701805461093d90613e37565b80601f016020809104026020016040519081016040528092919081815260200182805461096990613e37565b80156109b65780601f1061098b576101008083540402835291602001916109b6565b820191906000526020600020905b81548152906001019060200180831161099957829003601f168201915b5050505050908060080180546109cb90613e37565b80601f01602080910402602001604051908101604052809291908181526020018280546109f790613e37565b8015610a445780601f10610a1957610100808354040283529160200191610a44565b820191906000526020600020905b815481529060010190602001808311610a2757829003601f168201915b505050505090806009018054610a5990613e37565b80601f0160208091040260200160405190810160405280929190818152602001828054610a8590613e37565b8015610ad25780601f10610aa757610100808354040283529160200191610ad2565b820191906000526020600020905b815481529060010190602001808311610ab557829003601f168201915b50505050509080600a018054610ae790613e37565b80601f0160208091040260200160405190810160405280929190818152602001828054610b1390613e37565b8015610b605780601f10610b3557610100808354040283529160200191610b60565b820191906000526020600020905b815481529060010190602001808311610b4357829003601f168201915b50505050509080600b018054610b7590613e37565b80601f0160208091040260200160405190810160405280929190818152602001828054610ba190613e37565b8015610bee5780601f10610bc357610100808354040283529160200191610bee565b820191906000526020600020905b815481529060010190602001808311610bd157829003601f168201915b505050505090508c565b610c006125f1565b610c0a828261264d565b5050565b6005546001600160a01b03163314610c935760405162461bcd60e51b815260206004820152602960248201527f4f6e6c79205652467632436f6e73756d65722063616e2063616c6c207468697360448201527f2066756e6374696f6e000000000000000000000000000000000000000000000060648201526084015b60405180910390fd5b8051600314610d0a5760405162461bcd60e51b815260206004820152602360248201527f556e6578706563746564206e756d626572206f662072616e646f6d206e756d6260448201527f65727300000000000000000000000000000000000000000000000000000000006064820152608401610c8a565b336000908152600c602052604090208054610d8d5760405162461bcd60e51b815260206004820152602e60248201527f4e6f20696e737572616e6365206461746120666f756e6420666f72207468652060448201527f726571756573742073656e6465720000000000000000000000000000000000006064820152608401610c8a565b80546000908290610da090600190613de7565b81548110610db057610db0613edb565b90600052602060002090600d0201905060005b6003811015610e1957838181518110610dde57610dde613edb565b602002602001015182600c018281548110610dfb57610dfb613edb565b60009182526020909120015580610e1181613e72565b915050610dc3565b5050505050565b6003546001600160a01b03163314610e7a5760405162461bcd60e51b815260206004820152601660248201527f4d7573742062652070726f706f736564206f776e6572000000000000000000006044820152606401610c8a565b600280546001600160a01b0319808216339081179093556003805490911690556040516001600160a01b03909116919082907f8be0079c531659141344cd1fd0a4f28419497f9722a3daafe3b4186f6b6457e090600090a350565b6000600460009054906101000a90046001600160a01b03166001600160a01b0316638e15f4736040518163ffffffff1660e01b815260040160206040518083038186803b158015610f2557600080fd5b505afa158015610f39573d6000803e3d6000fd5b505050506040513d601f19601f82011682018060405250810190610f5d9190613636565b905090565b6000600c8414610fb45760405162461bcd60e51b815260206004820152601b60248201527f496e76616c6964206e756d626572206f6620617267756d656e747300000000006044820152606401610c8a565b610ff26040518060400160405280601581526020017f476f7420746865206c61746573742070726963652100000000000000000000008152506126cd565b336000908152600c6020526040812080549091906116635781604051806101a001604052808989600081811061102a5761102a613edb565b905060200281019061103c9190613bd8565b8080601f0160208091040260200160405190810160405280939291908181526020018383808284376000920191909152505050908252506020018989600181811061108957611089613edb565b905060200281019061109b9190613bd8565b8080601f016020809104026020016040519081016040528093929190818152602001838380828437600092019190915250505090825250602001898960028181106110e8576110e8613edb565b90506020028101906110fa9190613bd8565b8080601f0160208091040260200160405190810160405280939291908181526020018383808284376000920191909152505050908252506020018989600381811061114757611147613edb565b90506020028101906111599190613bd8565b8080601f016020809104026020016040519081016040528093929190818152602001838380828437600092019190915250505090825250602001898960048181106111a6576111a6613edb565b90506020028101906111b89190613bd8565b8080601f0160208091040260200160405190810160405280939291908181526020018383808284376000920191909152505050908252506020018989600581811061120557611205613edb565b90506020028101906112179190613bd8565b8080601f0160208091040260200160405190810160405280939291908181526020018383808284376000920191909152505050908252506020018989600681811061126457611264613edb565b90506020028101906112769190613bd8565b8080601f016020809104026020016040519081016040528093929190818152602001838380828437600092019190915250505090825250602001898960078181106112c3576112c3613edb565b90506020028101906112d59190613bd8565b8080601f0160208091040260200160405190810160405280939291908181526020018383808284376000920191909152505050908252506020018989600881811061132257611322613edb565b90506020028101906113349190613bd8565b8080601f0160208091040260200160405190810160405280939291908181526020018383808284376000920191909152505050908252506020018989600981811061138157611381613edb565b90506020028101906113939190613bd8565b8080601f0160208091040260200160405190810160405280939291908181526020018383808284376000920191909152505050908252506020018989600a8181106113e0576113e0613edb565b90506020028101906113f29190613bd8565b8080601f0160208091040260200160405190810160405280939291908181526020018383808284376000920191909152505050908252506020018989600b81811061143f5761143f613edb565b90506020028101906114519190613bd8565b8080601f016020809104026020016040519081016040528093929190818152602001838380828437600092019190915250505090825250604080516003808252608082019092526020928301929091908201606080368337505050905281546001810183556000928352602092839020825180519394600d909302909101926114dd928492019061333f565b5060208281015180516114f6926001850192019061333f565b506040820151805161151291600284019160209091019061333f565b506060820151805161152e91600384019160209091019061333f565b506080820151805161154a91600484019160209091019061333f565b5060a0820151805161156691600584019160209091019061333f565b5060c0820151805161158291600684019160209091019061333f565b5060e0820151805161159e91600784019160209091019061333f565b5061010082015180516115bb91600884019160209091019061333f565b5061012082015180516115d891600984019160209091019061333f565b5061014082015180516115f591600a84019160209091019061333f565b50610160820151805161161291600b84019160209091019061333f565b50610180820151805161162f91600c8401916020909101906133c3565b5050825483915061164290600190613de7565b8154811061165257611652613edb565b90600052602060002090600d020190505b61169d6040805160c08101909152806000815260200160008152602001600081526020016060815260200160608152602001606081525090565b6116e46000808e8e8080601f0160208091040260200160405190810160405280939291908181526020018383808284376000920191909152508795949392505061273e9050565b881561172c5761172c8a8a8080601f01602080910402602001604051908101604052809392919081815260200183838082843760009201919091525085939250506127d29050565b86156117465761174661173f888a613dfe565b8290612819565b6000611753600a54612859565b90506000611762896001613cc5565b67ffffffffffffffff81111561177a5761177a613ef1565b6040519080825280602002602001820160405280156117ad57816020015b60608152602001906001900390816117985790505b50905060005b89811015611845578a8a828181106117cd576117cd613edb565b90506020028101906117df9190613bd8565b8080601f016020809104026020016040519081016040528093929190818152602001838380828437600092019190915250508451859250849150811061182757611827613edb565b6020026020010181905250808061183d90613e72565b9150506117b3565b5081818b8b90508151811061185c5761185c613edb565b602002602001018190525061188a81600c8151811061187d5761187d613edb565b60200260200101516126cd565b6118948382612819565b60006118a1848a8a612903565b60068190559f9e505050505050505050505050505050565b600780546118c690613e37565b80601f01602080910402602001604051908101604052809291908181526020018280546118f290613e37565b801561193f5780601f106119145761010080835404028352916020019161193f565b820191906000526020600020905b81548152906001019060200180831161192257829003601f168201915b505050505081565b60606119876040518060400160405280600481526020017f54657374000000000000000000000000000000000000000000000000000000008152506126cd565b5060408051808201909152600c81527f48656c6c6f20576f726c64210000000000000000000000000000000000000000602082015290565b336000818152600c6020526040902080546060929190611a465760405162461bcd60e51b8152602060048201526024808201527f4e6f20696e737572616e6365206461746120666f756e6420666f72207468652060448201527f75736572000000000000000000000000000000000000000000000000000000006064820152608401610c8a565b80546000908290611a5990600190613de7565b81548110611a6957611a69613edb565b600091825260208220600d909102019150600c8201905b8154811015611b0757818181548110611a9b57611a9b613edb565b9060005260206000200154600014611af55760405162461bcd60e51b815260206004820152601c60248201527f4e6f6e2d7a65726f2072616e646f6d20706f696e747320666f756e64000000006044820152606401610c8a565b80611aff81613e72565b915050611a80565b50600560009054906101000a90046001600160a01b03166001600160a01b031663e0c862896040518163ffffffff1660e01b8152600401602060405180830381600087803b158015611b5857600080fd5b505af1158015611b6c573d6000803e3d6000fd5b505050506040513d601f19601f82011682018060405250810190611b909190613636565b505050505090565b60008054604080517fd328a91e00000000000000000000000000000000000000000000000000000000815290516060936001600160a01b039093169263d328a91e9260048082019391829003018186803b158015611bf557600080fd5b505afa158015611c09573d6000803e3d6000fd5b505050506040513d6000823e601f3d908101601f19168201604052610f5d91908101906136bc565b600080546001600160a01b031663d227d24585611c4d88612a75565b86866040518563ffffffff1660e01b8152600401611c6e9493929190613b9c565b60206040518083038186803b158015611c8657600080fd5b505afa158015611c9a573d6000803e3d6000fd5b505050506040513d601f19601f82011682018060405250810190611cbe91906139cb565b95945050505050565b336000908152600c602052604081208054611d245760405162461bcd60e51b815260206004820152601760248201527f4e6f20696e737572616e6365206461746120666f756e640000000000000000006044820152606401610c8a565b60005b815481101561253a576000828281548110611d4457611d44613edb565b90600052602060002090600d0201604051806101a0016040529081600082018054611d6e90613e37565b80601f0160208091040260200160405190810160405280929190818152602001828054611d9a90613e37565b8015611de75780601f10611dbc57610100808354040283529160200191611de7565b820191906000526020600020905b815481529060010190602001808311611dca57829003601f168201915b50505050508152602001600182018054611e0090613e37565b80601f0160208091040260200160405190810160405280929190818152602001828054611e2c90613e37565b8015611e795780601f10611e4e57610100808354040283529160200191611e79565b820191906000526020600020905b815481529060010190602001808311611e5c57829003601f168201915b50505050508152602001600282018054611e9290613e37565b80601f0160208091040260200160405190810160405280929190818152602001828054611ebe90613e37565b8015611f0b5780601f10611ee057610100808354040283529160200191611f0b565b820191906000526020600020905b815481529060010190602001808311611eee57829003601f168201915b50505050508152602001600382018054611f2490613e37565b80601f0160208091040260200160405190810160405280929190818152602001828054611f5090613e37565b8015611f9d5780601f10611f7257610100808354040283529160200191611f9d565b820191906000526020600020905b815481529060010190602001808311611f8057829003601f168201915b50505050508152602001600482018054611fb690613e37565b80601f0160208091040260200160405190810160405280929190818152602001828054611fe290613e37565b801561202f5780601f106120045761010080835404028352916020019161202f565b820191906000526020600020905b81548152906001019060200180831161201257829003601f168201915b5050505050815260200160058201805461204890613e37565b80601f016020809104026020016040519081016040528092919081815260200182805461207490613e37565b80156120c15780601f10612096576101008083540402835291602001916120c1565b820191906000526020600020905b8154815290600101906020018083116120a457829003601f168201915b505050505081526020016006820180546120da90613e37565b80601f016020809104026020016040519081016040528092919081815260200182805461210690613e37565b80156121535780601f1061212857610100808354040283529160200191612153565b820191906000526020600020905b81548152906001019060200180831161213657829003601f168201915b5050505050815260200160078201805461216c90613e37565b80601f016020809104026020016040519081016040528092919081815260200182805461219890613e37565b80156121e55780601f106121ba576101008083540402835291602001916121e5565b820191906000526020600020905b8154815290600101906020018083116121c857829003601f168201915b505050505081526020016008820180546121fe90613e37565b80601f016020809104026020016040519081016040528092919081815260200182805461222a90613e37565b80156122775780601f1061224c57610100808354040283529160200191612277565b820191906000526020600020905b81548152906001019060200180831161225a57829003601f168201915b5050505050815260200160098201805461229090613e37565b80601f01602080910402602001604051908101604052809291908181526020018280546122bc90613e37565b80156123095780601f106122de57610100808354040283529160200191612309565b820191906000526020600020905b8154815290600101906020018083116122ec57829003601f168201915b50505050508152602001600a8201805461232290613e37565b80601f016020809104026020016040519081016040528092919081815260200182805461234e90613e37565b801561239b5780601f106123705761010080835404028352916020019161239b565b820191906000526020600020905b81548152906001019060200180831161237e57829003601f168201915b50505050508152602001600b820180546123b490613e37565b80601f01602080910402602001604051908101604052809291908181526020018280546123e090613e37565b801561242d5780601f106124025761010080835404028352916020019161242d565b820191906000526020600020905b81548152906001019060200180831161241057829003601f168201915b50505050508152602001600c820180548060200260200160405190810160405280929190818152602001828054801561248557602002820191906000526020600020905b815481526020019060010190808311612471575b50505050508152505090508060c00151516000141580156124aa575060e08101515115155b80156124b7575080515115155b80156124c7575060208101515115155b80156124d7575060408101515115155b80156124e7575060608101515115155b80156124f7575060808101515115155b8015612507575060a08101515115155b801561251857506101008101515115155b15612527576001935050505090565b508061253281613e72565b915050611d27565b50600091505090565b61254b6125f1565b61255481612d41565b50565b61255f6125f1565b600080546001600160a01b0319166001600160a01b03831617905550565b600880546118c690613e37565b815161259d90600790602085019061333f565b5080516125b190600890602084019061333f565b50827f7bab0ec163b5c132c72b8146ac4d6e067e82ed58f8b131150aa71c925891156283836040516125e4929190613a38565b60405180910390a2505050565b6002546001600160a01b0316331461264b5760405162461bcd60e51b815260206004820152601660248201527f4f6e6c792063616c6c61626c65206279206f776e6572000000000000000000006044820152606401610c8a565b565b60008181526001602052604090205481906001600160a01b03161561269e576040517f8b457ad200000000000000000000000000000000000000000000000000000000815260040160405180910390fd5b50600090815260016020526040902080546001600160a01b0319166001600160a01b0392909216919091179055565b612554816040516024016126e19190613a25565b60408051601f198184030181529190526020810180517bffffffffffffffffffffffffffffffffffffffffffffffffffffffff167f41304fac00000000000000000000000000000000000000000000000000000000179052612dec565b8051612776576040517f22ce3edd00000000000000000000000000000000000000000000000000000000815260040160405180910390fd5b8383600181111561278957612789613ec5565b9081600181111561279c5761279c613ec5565b905250604084018280156127b2576127b2613ec5565b908180156127c2576127c2613ec5565b9052506060909301929092525050565b805161280a576040517fe889636f00000000000000000000000000000000000000000000000000000000815260040160405180910390fd5b60016020830152608090910152565b8051612851576040517ffe936cb700000000000000000000000000000000000000000000000000000000815260040160405180910390fd5b60a090910152565b6060600061286683612e0d565b600101905060008167ffffffffffffffff81111561288657612886613ef1565b6040519080825280601f01601f1916602001820160405280156128b0576020820181803683370190505b5090508181016020015b600019017f3031323334353637383961626364656600000000000000000000000000000000600a86061a8153600a85049450846128f6576128fb565b6128ba565b509392505050565b6000805481906001600160a01b03166328242b048561292188612a75565b866040518463ffffffff1660e01b815260040161294093929190613b63565b602060405180830381600087803b15801561295a57600080fd5b505af115801561296e573d6000803e3d6000fd5b505050506040513d601f19601f820116820180604052508101906129929190613636565b905060008054906101000a90046001600160a01b03166001600160a01b0316635ab1bd536040518163ffffffff1660e01b815260040160206040518083038186803b1580156129e057600080fd5b505afa1580156129f4573d6000803e3d6000fd5b505050506040513d601f19601f82011682018060405250810190612a1891906135ed565b60008281526001602052604080822080546001600160a01b0319166001600160a01b039490941693909317909255905182917f1131472297a800fee664d1d89cfa8f7676ff07189ecc53f80bbb5f4969099db891a2949350505050565b6060612a7f6133fd565b8051612a8d90610100612ef0565b50612acd816040518060400160405280600c81526020017f636f64654c6f636174696f6e0000000000000000000000000000000000000000815250612f67565b612aec8184600001516001811115612ae757612ae7613ec5565b612f85565b612b2b816040518060400160405280600881526020017f6c616e6775616765000000000000000000000000000000000000000000000000815250612f67565b612b458184604001516000811115612ae757612ae7613ec5565b612b84816040518060400160405280600681526020017f736f757263650000000000000000000000000000000000000000000000000000815250612f67565b612b92818460600151612f67565b60a08301515115612c3857612bdc816040518060400160405280600481526020017f6172677300000000000000000000000000000000000000000000000000000000815250612f67565b612be581612fbe565b60005b8360a0015151811015612c2e57612c1c828560a001518381518110612c0f57612c0f613edb565b6020026020010151612f67565b80612c2681613e72565b915050612be8565b50612c3881612fe2565b60808301515115612d3957600083602001516001811115612c5b57612c5b613ec5565b1415612c93576040517fa80d31f700000000000000000000000000000000000000000000000000000000815260040160405180910390fd5b612cd2816040518060400160405280600f81526020017f736563726574734c6f636174696f6e0000000000000000000000000000000000815250612f67565b612cec8184602001516001811115612ae757612ae7613ec5565b612d2b816040518060400160405280600781526020017f7365637265747300000000000000000000000000000000000000000000000000815250612f67565b612d39818460800151613000565b515192915050565b6001600160a01b038116331415612d9a5760405162461bcd60e51b815260206004820152601760248201527f43616e6e6f74207472616e7366657220746f2073656c660000000000000000006044820152606401610c8a565b600380546001600160a01b0319166001600160a01b03838116918217909255600254604051919216907fed8889f560326eb138920d842192f0eb3dd22b4f139c87a2c57538e05bae127890600090a350565b80516a636f6e736f6c652e6c6f67602083016000808483855afa5050505050565b6000807a184f03e93ff9f4daa797ed6e38ed64bf6a1f0100000000000000008310612e56577a184f03e93ff9f4daa797ed6e38ed64bf6a1f010000000000000000830492506040015b6d04ee2d6d415b85acef81000000008310612e82576d04ee2d6d415b85acef8100000000830492506020015b662386f26fc100008310612ea057662386f26fc10000830492506010015b6305f5e1008310612eb8576305f5e100830492506008015b6127108310612ecc57612710830492506004015b60648310612ede576064830492506002015b600a8310612eea576001015b92915050565b604080518082019091526060815260006020820152612f10602083613e8d565b15612f3857612f20602083613e8d565b612f2b906020613de7565b612f359083613cc5565b91505b602080840183905260405180855260008152908184010181811015612f5c57600080fd5b604052509192915050565b612f748260038351613009565b8151612f80908261312a565b505050565b8151612f929060c2613152565b50610c0a8282604051602001612faa91815260200190565b604051602081830303815290604052613000565b612fc98160046131bb565b600181602001818151612fdc9190613cc5565b90525050565b612fed8160076131bb565b600181602001818151612fdc9190613de7565b612f7482600283515b60178167ffffffffffffffff16116130305782516105159060e0600585901b168317613152565b60ff8167ffffffffffffffff1611613072578251613059906018611fe0600586901b1617613152565b5082516105159067ffffffffffffffff831660016131d2565b61ffff8167ffffffffffffffff16116130b557825161309c906019611fe0600586901b1617613152565b5082516105159067ffffffffffffffff831660026131d2565b63ffffffff8167ffffffffffffffff16116130fa5782516130e190601a611fe0600586901b1617613152565b5082516105159067ffffffffffffffff831660046131d2565b825161311190601b611fe0600586901b1617613152565b5082516105159067ffffffffffffffff831660086131d2565b60408051808201909152606081526000602082015261314b83838451613257565b9392505050565b6040805180820190915260608152600060208201528251516000613177826001613cc5565b9050846020015182106131985761319885613193836002613dc8565b613328565b84516020838201018581535080518211156131b1578181525b5093949350505050565b8151612f8090601f611fe0600585901b1617613152565b60408051808201909152606081526000602082015283515160006131f68285613cc5565b905085602001518111156132135761321386613193836002613dc8565b6000600161322386610100613d20565b61322d9190613de7565b9050865182810187831982511617815250805183111561324b578281525b50959695505050505050565b604080518082019091526060815260006020820152825182111561327a57600080fd5b83515160006132898483613cc5565b905085602001518111156132a6576132a686613193836002613dc8565b8551805183820160200191600091808511156132c0578482525b505050602086015b6020861061330057805182526132df602083613cc5565b91506132ec602082613cc5565b90506132f9602087613de7565b95506132c8565b51815160001960208890036101000a0190811690199190911617905250849150509392505050565b81516133348383612ef0565b50610515838261312a565b82805461334b90613e37565b90600052602060002090601f01602090048101928261336d57600085556133b3565b82601f1061338657805160ff19168380011785556133b3565b828001600101855582156133b3579182015b828111156133b3578251825591602001919060010190613398565b506133bf929150613432565b5090565b8280548282559060005260206000209081019282156133b357916020028201828111156133b3578251825591602001919060010190613398565b6040518060400160405280613425604051806040016040528060608152602001600081525090565b8152602001600081525090565b5b808211156133bf5760008155600101613433565b600061345a61345584613c79565b613c48565b9050808382526020808301915083868660051b8601111561347a57600080fd5b6000805b878110156134bb57823567ffffffffffffffff81111561349c578283fd5b6134a88a828a01613530565b865250938301939183019160010161347e565b50505050509392505050565b600082601f8301126134d857600080fd5b61314b83833560208501613447565b60008083601f8401126134f957600080fd5b50813567ffffffffffffffff81111561351157600080fd5b60208301915083602082850101111561352957600080fd5b9250929050565b600082601f83011261354157600080fd5b813561354f61345582613c9d565b81815284602083860101111561356457600080fd5b816020850160208301376000918101602001919091529392505050565b80356001811061359057600080fd5b919050565b80356002811061359057600080fd5b803563ffffffff8116811461359057600080fd5b803567ffffffffffffffff8116811461359057600080fd5b6000602082840312156135e257600080fd5b813561314b81613f07565b6000602082840312156135ff57600080fd5b815161314b81613f07565b6000806040838503121561361d57600080fd5b823561362881613f07565b946020939093013593505050565b60006020828403121561364857600080fd5b5051919050565b60008060006060848603121561366457600080fd5b83359250602084013567ffffffffffffffff8082111561368357600080fd5b61368f87838801613530565b935060408601359150808211156136a557600080fd5b506136b286828701613530565b9150509250925092565b6000602082840312156136ce57600080fd5b815167ffffffffffffffff8111156136e557600080fd5b8201601f810184136136f657600080fd5b805161370461345582613c9d565b81815285602083850101111561371957600080fd5b611cbe826020830160208601613e0b565b60008060008060008060008060a0898b03121561374657600080fd5b883567ffffffffffffffff8082111561375e57600080fd5b61376a8c838d016134e7565b909a50985060208b013591508082111561378357600080fd5b61378f8c838d016134e7565b909850965060408b01359150808211156137a857600080fd5b818b0191508b601f8301126137bc57600080fd5b8135818111156137cb57600080fd5b8c60208260051b85010111156137e057600080fd5b6020830196508095505050506137f860608a016135b8565b915061380660808a016135a4565b90509295985092959890939650565b6000806000806080858703121561382b57600080fd5b843567ffffffffffffffff8082111561384357600080fd5b9086019060c0828903121561385757600080fd5b61385f613c1f565b61386883613595565b815261387660208401613595565b602082015261388760408401613581565b604082015260608301358281111561389e57600080fd5b6138aa8a828601613530565b6060830152506080830135828111156138c257600080fd5b6138ce8a828601613530565b60808301525060a0830135828111156138e657600080fd5b6138f28a8286016134c7565b60a0830152509550613909915050602086016135b8565b9250613917604086016135a4565b9396929550929360600135925050565b6000806040838503121561393a57600080fd5b8235915060208084013567ffffffffffffffff81111561395957600080fd5b8401601f8101861361396a57600080fd5b803561397861345582613c79565b80828252848201915084840189868560051b870101111561399857600080fd5b600094505b838510156139bb57803583526001949094019391850191850161399d565b5080955050505050509250929050565b6000602082840312156139dd57600080fd5b81516bffffffffffffffffffffffff8116811461314b57600080fd5b60008151808452613a11816020860160208601613e0b565b601f01601f19169290920160200192915050565b60208152600061314b60208301846139f9565b604081526000613a4b60408301856139f9565b8281036020840152611cbe81856139f9565b61018081526000613a7261018083018f6139f9565b8281036020840152613a84818f6139f9565b90508281036040840152613a98818e6139f9565b90508281036060840152613aac818d6139f9565b90508281036080840152613ac0818c6139f9565b905082810360a0840152613ad4818b6139f9565b905082810360c0840152613ae8818a6139f9565b905082810360e0840152613afc81896139f9565b9050828103610100840152613b1181886139f9565b9050828103610120840152613b2681876139f9565b9050828103610140840152613b3b81866139f9565b9050828103610160840152613b5081856139f9565b9f9e505050505050505050505050505050565b67ffffffffffffffff84168152606060208201526000613b8660608301856139f9565b905063ffffffff83166040830152949350505050565b67ffffffffffffffff85168152608060208201526000613bbf60808301866139f9565b63ffffffff949094166040830152506060015292915050565b6000808335601e19843603018112613bef57600080fd5b83018035915067ffffffffffffffff821115613c0a57600080fd5b60200191503681900382131561352957600080fd5b60405160c0810167ffffffffffffffff81118282101715613c4257613c42613ef1565b60405290565b604051601f8201601f1916810167ffffffffffffffff81118282101715613c7157613c71613ef1565b604052919050565b600067ffffffffffffffff821115613c9357613c93613ef1565b5060051b60200190565b600067ffffffffffffffff821115613cb757613cb7613ef1565b50601f01601f191660200190565b60008219821115613cd857613cd8613eaf565b500190565b600181815b80851115613d18578160001904821115613cfe57613cfe613eaf565b80851615613d0b57918102915b93841c9390800290613ce2565b509250929050565b600061314b8383600082613d3657506001612eea565b81613d4357506000612eea565b8160018114613d595760028114613d6357613d7f565b6001915050612eea565b60ff841115613d7457613d74613eaf565b50506001821b612eea565b5060208310610133831016604e8410600b8410161715613da2575081810a612eea565b613dac8383613cdd565b8060001904821115613dc057613dc0613eaf565b029392505050565b6000816000190483118215151615613de257613de2613eaf565b500290565b600082821015613df957613df9613eaf565b500390565b600061314b368484613447565b60005b83811015613e26578181015183820152602001613e0e565b838111156105155750506000910152565b600181811c90821680613e4b57607f821691505b60208210811415613e6c57634e487b7160e01b600052602260045260246000fd5b50919050565b6000600019821415613e8657613e86613eaf565b5060010190565b600082613eaa57634e487b7160e01b600052601260045260246000fd5b500690565b634e487b7160e01b600052601160045260246000fd5b634e487b7160e01b600052602160045260246000fd5b634e487b7160e01b600052603260045260246000fd5b634e487b7160e01b600052604160045260246000fd5b6001600160a01b038116811461255457600080fdfea26469706673582212202633a54346774a7ac8c9300fc59f95653995cd5371efc18695dca77cbc0e949864736f6c63430008070033","opcodes":"PUSH1 0x80 PUSH1 0x40 MSTORE TIMESTAMP PUSH1 0xB SSTORE CALLVALUE DUP1 ISZERO PUSH3 0x15 JUMPI PUSH1 0x0 DUP1 REVERT JUMPDEST POP PUSH1 0x40 MLOAD PUSH3 0x419F CODESIZE SUB DUP1 PUSH3 0x419F DUP4 CODECOPY DUP2 ADD PUSH1 0x40 DUP2 SWAP1 MSTORE PUSH3 0x38 SWAP2 PUSH3 0x1F3 JUMP JUMPDEST PUSH1 0x0 DUP1 SLOAD PUSH1 0x1 PUSH1 0x1 PUSH1 0xA0 SHL SUB NOT AND PUSH1 0x1 PUSH1 0x1 PUSH1 0xA0 SHL SUB DUP6 AND OR DUP2 SSTORE CALLER SWAP1 DUP2 SWAP1 PUSH1 0x1 PUSH1 0x1 PUSH1 0xA0 SHL SUB DUP3 AND PUSH3 0xB3 JUMPI PUSH1 0x40 MLOAD PUSH3 0x461BCD PUSH1 0xE5 SHL DUP2 MSTORE PUSH1 0x20 PUSH1 0x4 DUP3 ADD MSTORE PUSH1 0x18 PUSH1 0x24 DUP3 ADD MSTORE PUSH32 0x43616E6E6F7420736574206F776E657220746F207A65726F0000000000000000 PUSH1 0x44 DUP3 ADD MSTORE PUSH1 0x64 ADD JUMPDEST PUSH1 0x40 MLOAD DUP1 SWAP2 SUB SWAP1 REVERT JUMPDEST PUSH1 0x2 DUP1 SLOAD PUSH1 0x1 PUSH1 0x1 PUSH1 0xA0 SHL SUB NOT AND PUSH1 0x1 PUSH1 0x1 PUSH1 0xA0 SHL SUB DUP5 DUP2 AND SWAP2 SWAP1 SWAP2 OR SWAP1 SWAP2 SSTORE DUP2 AND ISZERO PUSH3 0xE6 JUMPI PUSH3 0xE6 DUP2 PUSH3 0x129 JUMP JUMPDEST POP POP PUSH1 0x4 DUP1 SLOAD PUSH1 0x1 PUSH1 0x1 PUSH1 0xA0 SHL SUB SWAP5 DUP6 AND PUSH1 0x1 PUSH1 0x1 PUSH1 0xA0 SHL SUB NOT SWAP2 DUP3 AND OR SWAP1 SWAP2 SSTORE PUSH1 0x5 DUP1 SLOAD SWAP4 SWAP1 SWAP5 AND SWAP3 AND SWAP2 SWAP1 SWAP2 OR SWAP1 SWAP2 SSTORE POP POP TIMESTAMP PUSH1 0xA SSTORE PUSH1 0x0 PUSH1 0x9 SSTORE PUSH3 0x23D JUMP JUMPDEST PUSH1 0x1 PUSH1 0x1 PUSH1 0xA0 SHL SUB DUP2 AND CALLER EQ ISZERO PUSH3 0x184 JUMPI PUSH1 0x40 MLOAD PUSH3 0x461BCD PUSH1 0xE5 SHL DUP2 MSTORE PUSH1 0x20 PUSH1 0x4 DUP3 ADD MSTORE PUSH1 0x17 PUSH1 0x24 DUP3 ADD MSTORE PUSH32 0x43616E6E6F74207472616E7366657220746F2073656C66000000000000000000 PUSH1 0x44 DUP3 ADD MSTORE PUSH1 0x64 ADD PUSH3 0xAA JUMP JUMPDEST PUSH1 0x3 DUP1 SLOAD PUSH1 0x1 PUSH1 0x1 PUSH1 0xA0 SHL SUB NOT AND PUSH1 0x1 PUSH1 0x1 PUSH1 0xA0 SHL SUB DUP4 DUP2 AND SWAP2 DUP3 OR SWAP1 SWAP3 SSTORE PUSH1 0x2 SLOAD PUSH1 0x40 MLOAD SWAP2 SWAP3 AND SWAP1 PUSH32 0xED8889F560326EB138920D842192F0EB3DD22B4F139C87A2C57538E05BAE1278 SWAP1 PUSH1 0x0 SWAP1 LOG3 POP JUMP JUMPDEST DUP1 MLOAD PUSH1 0x1 PUSH1 0x1 PUSH1 0xA0 SHL SUB DUP2 AND DUP2 EQ PUSH3 0x1EE JUMPI PUSH1 0x0 DUP1 REVERT JUMPDEST SWAP2 SWAP1 POP JUMP JUMPDEST PUSH1 0x0 DUP1 PUSH1 0x0 PUSH1 0x60 DUP5 DUP7 SUB SLT ISZERO PUSH3 0x209 JUMPI PUSH1 0x0 DUP1 REVERT JUMPDEST PUSH3 0x214 DUP5 PUSH3 0x1D6 JUMP JUMPDEST SWAP3 POP PUSH3 0x224 PUSH1 0x20 DUP6 ADD PUSH3 0x1D6 JUMP JUMPDEST SWAP2 POP PUSH3 0x234 PUSH1 0x40 DUP6 ADD PUSH3 0x1D6 JUMP JUMPDEST SWAP1 POP SWAP3 POP SWAP3 POP SWAP3 JUMP JUMPDEST PUSH2 0x3F52 DUP1 PUSH3 0x24D PUSH1 0x0 CODECOPY PUSH1 0x0 RETURN INVALID PUSH1 0x80 PUSH1 0x40 MSTORE PUSH1 0x4 CALLDATASIZE LT PUSH2 0x18B JUMPI PUSH1 0x0 CALLDATALOAD PUSH1 0xE0 SHR DUP1 PUSH4 0x985454FF GT PUSH2 0xD6 JUMPI DUP1 PUSH4 0xD4B39175 GT PUSH2 0x7F JUMPI DUP1 PUSH4 0xF2FDE38B GT PUSH2 0x59 JUMPI DUP1 PUSH4 0xF2FDE38B EQ PUSH2 0x420 JUMPI DUP1 PUSH4 0xF7023BB6 EQ PUSH2 0x440 JUMPI DUP1 PUSH4 0xFFFEB84E EQ PUSH2 0x460 JUMPI PUSH1 0x0 DUP1 REVERT JUMPDEST DUP1 PUSH4 0xD4B39175 EQ PUSH2 0x3A8 JUMPI DUP1 PUSH4 0xE0919101 EQ PUSH2 0x3E5 JUMPI DUP1 PUSH4 0xF06C5610 EQ PUSH2 0x40A JUMPI PUSH1 0x0 DUP1 REVERT JUMPDEST DUP1 PUSH4 0xCE10B1FB GT PUSH2 0xB0 JUMPI DUP1 PUSH4 0xCE10B1FB EQ PUSH2 0x368 JUMPI DUP1 PUSH4 0xD18E81B3 EQ PUSH2 0x37D JUMPI DUP1 PUSH4 0xD328A91E EQ PUSH2 0x393 JUMPI PUSH1 0x0 DUP1 REVERT JUMPDEST DUP1 PUSH4 0x985454FF EQ PUSH2 0x31E JUMPI DUP1 PUSH4 0xBEF3A2F0 EQ PUSH2 0x331 JUMPI DUP1 PUSH4 0xC605F76C EQ PUSH2 0x353 JUMPI PUSH1 0x0 DUP1 REVERT JUMPDEST DUP1 PUSH4 0x37F9C70D GT PUSH2 0x138 JUMPI DUP1 PUSH4 0x79BA5097 GT PUSH2 0x112 JUMPI DUP1 PUSH4 0x79BA5097 EQ PUSH2 0x2D6 JUMPI DUP1 PUSH4 0x8DA5CB5B EQ PUSH2 0x2EB JUMPI DUP1 PUSH4 0x8E15F473 EQ PUSH2 0x309 JUMPI PUSH1 0x0 DUP1 REVERT JUMPDEST DUP1 PUSH4 0x37F9C70D EQ PUSH2 0x280 JUMPI DUP1 PUSH4 0x4B11B4A1 EQ PUSH2 0x2A0 JUMPI DUP1 PUSH4 0x741BEF1A EQ PUSH2 0x2B6 JUMPI PUSH1 0x0 DUP1 REVERT JUMPDEST DUP1 PUSH4 0x2142735A GT PUSH2 0x169 JUMPI DUP1 PUSH4 0x2142735A EQ PUSH2 0x213 JUMPI DUP1 PUSH4 0x29CB924D EQ PUSH2 0x24B JUMPI DUP1 PUSH4 0x30BDA99D EQ PUSH2 0x260 JUMPI PUSH1 0x0 DUP1 REVERT JUMPDEST DUP1 PUSH4 0xCA76175 EQ PUSH2 0x190 JUMPI DUP1 PUSH4 0x126455DD EQ PUSH2 0x1B2 JUMPI DUP1 PUSH4 0x1AA46F59 EQ PUSH2 0x1EF JUMPI JUMPDEST PUSH1 0x0 DUP1 REVERT JUMPDEST CALLVALUE DUP1 ISZERO PUSH2 0x19C JUMPI PUSH1 0x0 DUP1 REVERT JUMPDEST POP PUSH2 0x1B0 PUSH2 0x1AB CALLDATASIZE PUSH1 0x4 PUSH2 0x364F JUMP JUMPDEST PUSH2 0x475 JUMP JUMPDEST STOP JUMPDEST CALLVALUE DUP1 ISZERO PUSH2 0x1BE JUMPI PUSH1 0x0 DUP1 REVERT JUMPDEST POP PUSH1 0x5 SLOAD PUSH2 0x1D2 SWAP1 PUSH1 0x1 PUSH1 0x1 PUSH1 0xA0 SHL SUB AND DUP2 JUMP JUMPDEST PUSH1 0x40 MLOAD PUSH1 0x1 PUSH1 0x1 PUSH1 0xA0 SHL SUB SWAP1 SWAP2 AND DUP2 MSTORE PUSH1 0x20 ADD JUMPDEST PUSH1 0x40 MLOAD DUP1 SWAP2 SUB SWAP1 RETURN JUMPDEST CALLVALUE DUP1 ISZERO PUSH2 0x1FB JUMPI PUSH1 0x0 DUP1 REVERT JUMPDEST POP PUSH2 0x205 PUSH1 0x6 SLOAD DUP2 JUMP JUMPDEST PUSH1 0x40 MLOAD SWAP1 DUP2 MSTORE PUSH1 0x20 ADD PUSH2 0x1E6 JUMP JUMPDEST CALLVALUE DUP1 ISZERO PUSH2 0x21F JUMPI PUSH1 0x0 DUP1 REVERT JUMPDEST POP PUSH2 0x233 PUSH2 0x22E CALLDATASIZE PUSH1 0x4 PUSH2 0x360A JUMP JUMPDEST PUSH2 0x51B JUMP JUMPDEST PUSH1 0x40 MLOAD PUSH2 0x1E6 SWAP13 SWAP12 SWAP11 SWAP10 SWAP9 SWAP8 SWAP7 SWAP6 SWAP5 SWAP4 SWAP3 SWAP2 SWAP1 PUSH2 0x3A5D JUMP JUMPDEST CALLVALUE DUP1 ISZERO PUSH2 0x257 JUMPI PUSH1 0x0 DUP1 REVERT JUMPDEST POP PUSH1 0xB SLOAD PUSH2 0x205 JUMP JUMPDEST CALLVALUE DUP1 ISZERO PUSH2 0x26C JUMPI PUSH1 0x0 DUP1 REVERT JUMPDEST POP PUSH2 0x1B0 PUSH2 0x27B CALLDATASIZE PUSH1 0x4 PUSH2 0x360A JUMP JUMPDEST PUSH2 0xBF8 JUMP JUMPDEST CALLVALUE DUP1 ISZERO PUSH2 0x28C JUMPI PUSH1 0x0 DUP1 REVERT JUMPDEST POP PUSH2 0x1B0 PUSH2 0x29B CALLDATASIZE PUSH1 0x4 PUSH2 0x3927 JUMP JUMPDEST PUSH2 0xC0E JUMP JUMPDEST CALLVALUE DUP1 ISZERO PUSH2 0x2AC JUMPI PUSH1 0x0 DUP1 REVERT JUMPDEST POP PUSH2 0x205 PUSH1 0x9 SLOAD DUP2 JUMP JUMPDEST CALLVALUE DUP1 ISZERO PUSH2 0x2C2 JUMPI PUSH1 0x0 DUP1 REVERT JUMPDEST POP PUSH1 0x4 SLOAD PUSH2 0x1D2 SWAP1 PUSH1 0x1 PUSH1 0x1 PUSH1 0xA0 SHL SUB AND DUP2 JUMP JUMPDEST CALLVALUE DUP1 ISZERO PUSH2 0x2E2 JUMPI PUSH1 0x0 DUP1 REVERT JUMPDEST POP PUSH2 0x1B0 PUSH2 0xE20 JUMP JUMPDEST CALLVALUE DUP1 ISZERO PUSH2 0x2F7 JUMPI PUSH1 0x0 DUP1 REVERT JUMPDEST POP PUSH1 0x2 SLOAD PUSH1 0x1 PUSH1 0x1 PUSH1 0xA0 SHL SUB AND PUSH2 0x1D2 JUMP JUMPDEST CALLVALUE DUP1 ISZERO PUSH2 0x315 JUMPI PUSH1 0x0 DUP1 REVERT JUMPDEST POP PUSH2 0x205 PUSH2 0xED5 JUMP JUMPDEST PUSH2 0x205 PUSH2 0x32C CALLDATASIZE PUSH1 0x4 PUSH2 0x372A JUMP JUMPDEST PUSH2 0xF62 JUMP JUMPDEST CALLVALUE DUP1 ISZERO PUSH2 0x33D JUMPI PUSH1 0x0 DUP1 REVERT JUMPDEST POP PUSH2 0x346 PUSH2 0x18B9 JUMP JUMPDEST PUSH1 0x40 MLOAD PUSH2 0x1E6 SWAP2 SWAP1 PUSH2 0x3A25 JUMP JUMPDEST CALLVALUE DUP1 ISZERO PUSH2 0x35F JUMPI PUSH1 0x0 DUP1 REVERT JUMPDEST POP PUSH2 0x346 PUSH2 0x1947 JUMP JUMPDEST CALLVALUE DUP1 ISZERO PUSH2 0x374 JUMPI PUSH1 0x0 DUP1 REVERT JUMPDEST POP PUSH2 0x346 PUSH2 0x19BF JUMP JUMPDEST CALLVALUE DUP1 ISZERO PUSH2 0x389 JUMPI PUSH1 0x0 DUP1 REVERT JUMPDEST POP PUSH2 0x205 PUSH1 0xB SLOAD DUP2 JUMP JUMPDEST CALLVALUE DUP1 ISZERO PUSH2 0x39F JUMPI PUSH1 0x0 DUP1 REVERT JUMPDEST POP PUSH2 0x346 PUSH2 0x1B98 JUMP JUMPDEST CALLVALUE DUP1 ISZERO PUSH2 0x3B4 JUMPI PUSH1 0x0 DUP1 REVERT JUMPDEST POP PUSH2 0x3C8 PUSH2 0x3C3 CALLDATASIZE PUSH1 0x4 PUSH2 0x3815 JUMP JUMPDEST PUSH2 0x1C31 JUMP JUMPDEST PUSH1 0x40 MLOAD PUSH12 0xFFFFFFFFFFFFFFFFFFFFFFFF SWAP1 SWAP2 AND DUP2 MSTORE PUSH1 0x20 ADD PUSH2 0x1E6 JUMP JUMPDEST CALLVALUE DUP1 ISZERO PUSH2 0x3F1 JUMPI PUSH1 0x0 DUP1 REVERT JUMPDEST POP PUSH2 0x3FA PUSH2 0x1CC7 JUMP JUMPDEST PUSH1 0x40 MLOAD SWAP1 ISZERO ISZERO DUP2 MSTORE PUSH1 0x20 ADD PUSH2 0x1E6 JUMP JUMPDEST CALLVALUE DUP1 ISZERO PUSH2 0x416 JUMPI PUSH1 0x0 DUP1 REVERT JUMPDEST POP PUSH2 0x205 PUSH1 0xA SLOAD DUP2 JUMP JUMPDEST CALLVALUE DUP1 ISZERO PUSH2 0x42C JUMPI PUSH1 0x0 DUP1 REVERT JUMPDEST POP PUSH2 0x1B0 PUSH2 0x43B CALLDATASIZE PUSH1 0x4 PUSH2 0x35D0 JUMP JUMPDEST PUSH2 0x2543 JUMP JUMPDEST CALLVALUE DUP1 ISZERO PUSH2 0x44C JUMPI PUSH1 0x0 DUP1 REVERT JUMPDEST POP PUSH2 0x1B0 PUSH2 0x45B CALLDATASIZE PUSH1 0x4 PUSH2 0x35D0 JUMP JUMPDEST PUSH2 0x2557 JUMP JUMPDEST CALLVALUE DUP1 ISZERO PUSH2 0x46C JUMPI PUSH1 0x0 DUP1 REVERT JUMPDEST POP PUSH2 0x346 PUSH2 0x257D JUMP JUMPDEST PUSH1 0x0 DUP4 DUP2 MSTORE PUSH1 0x1 PUSH1 0x20 MSTORE PUSH1 0x40 SWAP1 KECCAK256 SLOAD DUP4 SWAP1 PUSH1 0x1 PUSH1 0x1 PUSH1 0xA0 SHL SUB AND CALLER EQ PUSH2 0x4C7 JUMPI PUSH1 0x40 MLOAD PUSH32 0xA0C5EC6300000000000000000000000000000000000000000000000000000000 DUP2 MSTORE PUSH1 0x4 ADD PUSH1 0x40 MLOAD DUP1 SWAP2 SUB SWAP1 REVERT JUMPDEST PUSH1 0x0 DUP2 DUP2 MSTORE PUSH1 0x1 PUSH1 0x20 MSTORE PUSH1 0x40 DUP1 DUP3 KECCAK256 DUP1 SLOAD PUSH1 0x1 PUSH1 0x1 PUSH1 0xA0 SHL SUB NOT AND SWAP1 SSTORE MLOAD DUP3 SWAP2 PUSH32 0x85E1543BF2F84FE80C6BADBCE3648C8539AD1DF4D2B3D822938CA0538BE727E6 SWAP2 LOG2 PUSH2 0x515 DUP5 DUP5 DUP5 PUSH2 0x258A JUMP JUMPDEST POP POP POP POP JUMP JUMPDEST PUSH1 0xC PUSH1 0x20 MSTORE DUP2 PUSH1 0x0 MSTORE PUSH1 0x40 PUSH1 0x0 KECCAK256 DUP2 DUP2 SLOAD DUP2 LT PUSH2 0x537 JUMPI PUSH1 0x0 DUP1 REVERT JUMPDEST SWAP1 PUSH1 0x0 MSTORE PUSH1 0x20 PUSH1 0x0 KECCAK256 SWAP1 PUSH1 0xD MUL ADD PUSH1 0x0 SWAP2 POP SWAP2 POP POP DUP1 PUSH1 0x0 ADD DUP1 SLOAD PUSH2 0x55B SWAP1 PUSH2 0x3E37 JUMP JUMPDEST DUP1 PUSH1 0x1F ADD PUSH1 0x20 DUP1 SWAP2 DIV MUL PUSH1 0x20 ADD PUSH1 0x40 MLOAD SWAP1 DUP2 ADD PUSH1 0x40 MSTORE DUP1 SWAP3 SWAP2 SWAP1 DUP2 DUP2 MSTORE PUSH1 0x20 ADD DUP3 DUP1 SLOAD PUSH2 0x587 SWAP1 PUSH2 0x3E37 JUMP JUMPDEST DUP1 ISZERO PUSH2 0x5D4 JUMPI DUP1 PUSH1 0x1F LT PUSH2 0x5A9 JUMPI PUSH2 0x100 DUP1 DUP4 SLOAD DIV MUL DUP4 MSTORE SWAP2 PUSH1 0x20 ADD SWAP2 PUSH2 0x5D4 JUMP JUMPDEST DUP3 ADD SWAP2 SWAP1 PUSH1 0x0 MSTORE PUSH1 0x20 PUSH1 0x0 KECCAK256 SWAP1 JUMPDEST DUP2 SLOAD DUP2 MSTORE SWAP1 PUSH1 0x1 ADD SWAP1 PUSH1 0x20 ADD DUP1 DUP4 GT PUSH2 0x5B7 JUMPI DUP3 SWAP1 SUB PUSH1 0x1F AND DUP3 ADD SWAP2 JUMPDEST POP POP POP POP POP SWAP1 DUP1 PUSH1 0x1 ADD DUP1 SLOAD PUSH2 0x5E9 SWAP1 PUSH2 0x3E37 JUMP JUMPDEST DUP1 PUSH1 0x1F ADD PUSH1 0x20 DUP1 SWAP2 DIV MUL PUSH1 0x20 ADD PUSH1 0x40 MLOAD SWAP1 DUP2 ADD PUSH1 0x40 MSTORE DUP1 SWAP3 SWAP2 SWAP1 DUP2 DUP2 MSTORE PUSH1 0x20 ADD DUP3 DUP1 SLOAD PUSH2 0x615 SWAP1 PUSH2 0x3E37 JUMP JUMPDEST DUP1 ISZERO PUSH2 0x662 JUMPI DUP1 PUSH1 0x1F LT PUSH2 0x637 JUMPI PUSH2 0x100 DUP1 DUP4 SLOAD DIV MUL DUP4 MSTORE SWAP2 PUSH1 0x20 ADD SWAP2 PUSH2 0x662 JUMP JUMPDEST DUP3 ADD SWAP2 SWAP1 PUSH1 0x0 MSTORE PUSH1 0x20 PUSH1 0x0 KECCAK256 SWAP1 JUMPDEST DUP2 SLOAD DUP2 MSTORE SWAP1 PUSH1 0x1 ADD SWAP1 PUSH1 0x20 ADD DUP1 DUP4 GT PUSH2 0x645 JUMPI DUP3 SWAP1 SUB PUSH1 0x1F AND DUP3 ADD SWAP2 JUMPDEST POP POP POP POP POP SWAP1 DUP1 PUSH1 0x2 ADD DUP1 SLOAD PUSH2 0x677 SWAP1 PUSH2 0x3E37 JUMP JUMPDEST DUP1 PUSH1 0x1F ADD PUSH1 0x20 DUP1 SWAP2 DIV MUL PUSH1 0x20 ADD PUSH1 0x40 MLOAD SWAP1 DUP2 ADD PUSH1 0x40 MSTORE DUP1 SWAP3 SWAP2 SWAP1 DUP2 DUP2 MSTORE PUSH1 0x20 ADD DUP3 DUP1 SLOAD PUSH2 0x6A3 SWAP1 PUSH2 0x3E37 JUMP JUMPDEST DUP1 ISZERO PUSH2 0x6F0 JUMPI DUP1 PUSH1 0x1F LT PUSH2 0x6C5 JUMPI PUSH2 0x100 DUP1 DUP4 SLOAD DIV MUL DUP4 MSTORE SWAP2 PUSH1 0x20 ADD SWAP2 PUSH2 0x6F0 JUMP JUMPDEST DUP3 ADD SWAP2 SWAP1 PUSH1 0x0 MSTORE PUSH1 0x20 PUSH1 0x0 KECCAK256 SWAP1 JUMPDEST DUP2 SLOAD DUP2 MSTORE SWAP1 PUSH1 0x1 ADD SWAP1 PUSH1 0x20 ADD DUP1 DUP4 GT PUSH2 0x6D3 JUMPI DUP3 SWAP1 SUB PUSH1 0x1F AND DUP3 ADD SWAP2 JUMPDEST POP POP POP POP POP SWAP1 DUP1 PUSH1 0x3 ADD DUP1 SLOAD PUSH2 0x705 SWAP1 PUSH2 0x3E37 JUMP JUMPDEST DUP1 PUSH1 0x1F ADD PUSH1 0x20 DUP1 SWAP2 DIV MUL PUSH1 0x20 ADD PUSH1 0x40 MLOAD SWAP1 DUP2 ADD PUSH1 0x40 MSTORE DUP1 SWAP3 SWAP2 SWAP1 DUP2 DUP2 MSTORE PUSH1 0x20 ADD DUP3 DUP1 SLOAD PUSH2 0x731 SWAP1 PUSH2 0x3E37 JUMP JUMPDEST DUP1 ISZERO PUSH2 0x77E JUMPI DUP1 PUSH1 0x1F LT PUSH2 0x753 JUMPI PUSH2 0x100 DUP1 DUP4 SLOAD DIV MUL DUP4 MSTORE SWAP2 PUSH1 0x20 ADD SWAP2 PUSH2 0x77E JUMP JUMPDEST DUP3 ADD SWAP2 SWAP1 PUSH1 0x0 MSTORE PUSH1 0x20 PUSH1 0x0 KECCAK256 SWAP1 JUMPDEST DUP2 SLOAD DUP2 MSTORE SWAP1 PUSH1 0x1 ADD SWAP1 PUSH1 0x20 ADD DUP1 DUP4 GT PUSH2 0x761 JUMPI DUP3 SWAP1 SUB PUSH1 0x1F AND DUP3 ADD SWAP2 JUMPDEST POP POP POP POP POP SWAP1 DUP1 PUSH1 0x4 ADD DUP1 SLOAD PUSH2 0x793 SWAP1 PUSH2 0x3E37 JUMP JUMPDEST DUP1 PUSH1 0x1F ADD PUSH1 0x20 DUP1 SWAP2 DIV MUL PUSH1 0x20 ADD PUSH1 0x40 MLOAD SWAP1 DUP2 ADD PUSH1 0x40 MSTORE DUP1 SWAP3 SWAP2 SWAP1 DUP2 DUP2 MSTORE PUSH1 0x20 ADD DUP3 DUP1 SLOAD PUSH2 0x7BF SWAP1 PUSH2 0x3E37 JUMP JUMPDEST DUP1 ISZERO PUSH2 0x80C JUMPI DUP1 PUSH1 0x1F LT PUSH2 0x7E1 JUMPI PUSH2 0x100 DUP1 DUP4 SLOAD DIV MUL DUP4 MSTORE SWAP2 PUSH1 0x20 ADD SWAP2 PUSH2 0x80C JUMP JUMPDEST DUP3 ADD SWAP2 SWAP1 PUSH1 0x0 MSTORE PUSH1 0x20 PUSH1 0x0 KECCAK256 SWAP1 JUMPDEST DUP2 SLOAD DUP2 MSTORE SWAP1 PUSH1 0x1 ADD SWAP1 PUSH1 0x20 ADD DUP1 DUP4 GT PUSH2 0x7EF JUMPI DUP3 SWAP1 SUB PUSH1 0x1F AND DUP3 ADD SWAP2 JUMPDEST POP POP POP POP POP SWAP1 DUP1 PUSH1 0x5 ADD DUP1 SLOAD PUSH2 0x821 SWAP1 PUSH2 0x3E37 JUMP JUMPDEST DUP1 PUSH1 0x1F ADD PUSH1 0x20 DUP1 SWAP2 DIV MUL PUSH1 0x20 ADD PUSH1 0x40 MLOAD SWAP1 DUP2 ADD PUSH1 0x40 MSTORE DUP1 SWAP3 SWAP2 SWAP1 DUP2 DUP2 MSTORE PUSH1 0x20 ADD DUP3 DUP1 SLOAD PUSH2 0x84D SWAP1 PUSH2 0x3E37 JUMP JUMPDEST DUP1 ISZERO PUSH2 0x89A JUMPI DUP1 PUSH1 0x1F LT PUSH2 0x86F JUMPI PUSH2 0x100 DUP1 DUP4 SLOAD DIV MUL DUP4 MSTORE SWAP2 PUSH1 0x20 ADD SWAP2 PUSH2 0x89A JUMP JUMPDEST DUP3 ADD SWAP2 SWAP1 PUSH1 0x0 MSTORE PUSH1 0x20 PUSH1 0x0 KECCAK256 SWAP1 JUMPDEST DUP2 SLOAD DUP2 MSTORE SWAP1 PUSH1 0x1 ADD SWAP1 PUSH1 0x20 ADD DUP1 DUP4 GT PUSH2 0x87D JUMPI DUP3 SWAP1 SUB PUSH1 0x1F AND DUP3 ADD SWAP2 JUMPDEST POP POP POP POP POP SWAP1 DUP1 PUSH1 0x6 ADD DUP1 SLOAD PUSH2 0x8AF SWAP1 PUSH2 0x3E37 JUMP JUMPDEST DUP1 PUSH1 0x1F ADD PUSH1 0x20 DUP1 SWAP2 DIV MUL PUSH1 0x20 ADD PUSH1 0x40 MLOAD SWAP1 DUP2 ADD PUSH1 0x40 MSTORE DUP1 SWAP3 SWAP2 SWAP1 DUP2 DUP2 MSTORE PUSH1 0x20 ADD DUP3 DUP1 SLOAD PUSH2 0x8DB SWAP1 PUSH2 0x3E37 JUMP JUMPDEST DUP1 ISZERO PUSH2 0x928 JUMPI DUP1 PUSH1 0x1F LT PUSH2 0x8FD JUMPI PUSH2 0x100 DUP1 DUP4 SLOAD DIV MUL DUP4 MSTORE SWAP2 PUSH1 0x20 ADD SWAP2 PUSH2 0x928 JUMP JUMPDEST DUP3 ADD SWAP2 SWAP1 PUSH1 0x0 MSTORE PUSH1 0x20 PUSH1 0x0 KECCAK256 SWAP1 JUMPDEST DUP2 SLOAD DUP2 MSTORE SWAP1 PUSH1 0x1 ADD SWAP1 PUSH1 0x20 ADD DUP1 DUP4 GT PUSH2 0x90B JUMPI DUP3 SWAP1 SUB PUSH1 0x1F AND DUP3 ADD SWAP2 JUMPDEST POP POP POP POP POP SWAP1 DUP1 PUSH1 0x7 ADD DUP1 SLOAD PUSH2 0x93D SWAP1 PUSH2 0x3E37 JUMP JUMPDEST DUP1 PUSH1 0x1F ADD PUSH1 0x20 DUP1 SWAP2 DIV MUL PUSH1 0x20 ADD PUSH1 0x40 MLOAD SWAP1 DUP2 ADD PUSH1 0x40 MSTORE DUP1 SWAP3 SWAP2 SWAP1 DUP2 DUP2 MSTORE PUSH1 0x20 ADD DUP3 DUP1 SLOAD PUSH2 0x969 SWAP1 PUSH2 0x3E37 JUMP JUMPDEST DUP1 ISZERO PUSH2 0x9B6 JUMPI DUP1 PUSH1 0x1F LT PUSH2 0x98B JUMPI PUSH2 0x100 DUP1 DUP4 SLOAD DIV MUL DUP4 MSTORE SWAP2 PUSH1 0x20 ADD SWAP2 PUSH2 0x9B6 JUMP JUMPDEST DUP3 ADD SWAP2 SWAP1 PUSH1 0x0 MSTORE PUSH1 0x20 PUSH1 0x0 KECCAK256 SWAP1 JUMPDEST DUP2 SLOAD DUP2 MSTORE SWAP1 PUSH1 0x1 ADD SWAP1 PUSH1 0x20 ADD DUP1 DUP4 GT PUSH2 0x999 JUMPI DUP3 SWAP1 SUB PUSH1 0x1F AND DUP3 ADD SWAP2 JUMPDEST POP POP POP POP POP SWAP1 DUP1 PUSH1 0x8 ADD DUP1 SLOAD PUSH2 0x9CB SWAP1 PUSH2 0x3E37 JUMP JUMPDEST DUP1 PUSH1 0x1F ADD PUSH1 0x20 DUP1 SWAP2 DIV MUL PUSH1 0x20 ADD PUSH1 0x40 MLOAD SWAP1 DUP2 ADD PUSH1 0x40 MSTORE DUP1 SWAP3 SWAP2 SWAP1 DUP2 DUP2 MSTORE PUSH1 0x20 ADD DUP3 DUP1 SLOAD PUSH2 0x9F7 SWAP1 PUSH2 0x3E37 JUMP JUMPDEST DUP1 ISZERO PUSH2 0xA44 JUMPI DUP1 PUSH1 0x1F LT PUSH2 0xA19 JUMPI PUSH2 0x100 DUP1 DUP4 SLOAD DIV MUL DUP4 MSTORE SWAP2 PUSH1 0x20 ADD SWAP2 PUSH2 0xA44 JUMP JUMPDEST DUP3 ADD SWAP2 SWAP1 PUSH1 0x0 MSTORE PUSH1 0x20 PUSH1 0x0 KECCAK256 SWAP1 JUMPDEST DUP2 SLOAD DUP2 MSTORE SWAP1 PUSH1 0x1 ADD SWAP1 PUSH1 0x20 ADD DUP1 DUP4 GT PUSH2 0xA27 JUMPI DUP3 SWAP1 SUB PUSH1 0x1F AND DUP3 ADD SWAP2 JUMPDEST POP POP POP POP POP SWAP1 DUP1 PUSH1 0x9 ADD DUP1 SLOAD PUSH2 0xA59 SWAP1 PUSH2 0x3E37 JUMP JUMPDEST DUP1 PUSH1 0x1F ADD PUSH1 0x20 DUP1 SWAP2 DIV MUL PUSH1 0x20 ADD PUSH1 0x40 MLOAD SWAP1 DUP2 ADD PUSH1 0x40 MSTORE DUP1 SWAP3 SWAP2 SWAP1 DUP2 DUP2 MSTORE PUSH1 0x20 ADD DUP3 DUP1 SLOAD PUSH2 0xA85 SWAP1 PUSH2 0x3E37 JUMP JUMPDEST DUP1 ISZERO PUSH2 0xAD2 JUMPI DUP1 PUSH1 0x1F LT PUSH2 0xAA7 JUMPI PUSH2 0x100 DUP1 DUP4 SLOAD DIV MUL DUP4 MSTORE SWAP2 PUSH1 0x20 ADD SWAP2 PUSH2 0xAD2 JUMP JUMPDEST DUP3 ADD SWAP2 SWAP1 PUSH1 0x0 MSTORE PUSH1 0x20 PUSH1 0x0 KECCAK256 SWAP1 JUMPDEST DUP2 SLOAD DUP2 MSTORE SWAP1 PUSH1 0x1 ADD SWAP1 PUSH1 0x20 ADD DUP1 DUP4 GT PUSH2 0xAB5 JUMPI DUP3 SWAP1 SUB PUSH1 0x1F AND DUP3 ADD SWAP2 JUMPDEST POP POP POP POP POP SWAP1 DUP1 PUSH1 0xA ADD DUP1 SLOAD PUSH2 0xAE7 SWAP1 PUSH2 0x3E37 JUMP JUMPDEST DUP1 PUSH1 0x1F ADD PUSH1 0x20 DUP1 SWAP2 DIV MUL PUSH1 0x20 ADD PUSH1 0x40 MLOAD SWAP1 DUP2 ADD PUSH1 0x40 MSTORE DUP1 SWAP3 SWAP2 SWAP1 DUP2 DUP2 MSTORE PUSH1 0x20 ADD DUP3 DUP1 SLOAD PUSH2 0xB13 SWAP1 PUSH2 0x3E37 JUMP JUMPDEST DUP1 ISZERO PUSH2 0xB60 JUMPI DUP1 PUSH1 0x1F LT PUSH2 0xB35 JUMPI PUSH2 0x100 DUP1 DUP4 SLOAD DIV MUL DUP4 MSTORE SWAP2 PUSH1 0x20 ADD SWAP2 PUSH2 0xB60 JUMP JUMPDEST DUP3 ADD SWAP2 SWAP1 PUSH1 0x0 MSTORE PUSH1 0x20 PUSH1 0x0 KECCAK256 SWAP1 JUMPDEST DUP2 SLOAD DUP2 MSTORE SWAP1 PUSH1 0x1 ADD SWAP1 PUSH1 0x20 ADD DUP1 DUP4 GT PUSH2 0xB43 JUMPI DUP3 SWAP1 SUB PUSH1 0x1F AND DUP3 ADD SWAP2 JUMPDEST POP POP POP POP POP SWAP1 DUP1 PUSH1 0xB ADD DUP1 SLOAD PUSH2 0xB75 SWAP1 PUSH2 0x3E37 JUMP JUMPDEST DUP1 PUSH1 0x1F ADD PUSH1 0x20 DUP1 SWAP2 DIV MUL PUSH1 0x20 ADD PUSH1 0x40 MLOAD SWAP1 DUP2 ADD PUSH1 0x40 MSTORE DUP1 SWAP3 SWAP2 SWAP1 DUP2 DUP2 MSTORE PUSH1 0x20 ADD DUP3 DUP1 SLOAD PUSH2 0xBA1 SWAP1 PUSH2 0x3E37 JUMP JUMPDEST DUP1 ISZERO PUSH2 0xBEE JUMPI DUP1 PUSH1 0x1F LT PUSH2 0xBC3 JUMPI PUSH2 0x100 DUP1 DUP4 SLOAD DIV MUL DUP4 MSTORE SWAP2 PUSH1 0x20 ADD SWAP2 PUSH2 0xBEE JUMP JUMPDEST DUP3 ADD SWAP2 SWAP1 PUSH1 0x0 MSTORE PUSH1 0x20 PUSH1 0x0 KECCAK256 SWAP1 JUMPDEST DUP2 SLOAD DUP2 MSTORE SWAP1 PUSH1 0x1 ADD SWAP1 PUSH1 0x20 ADD DUP1 DUP4 GT PUSH2 0xBD1 JUMPI DUP3 SWAP1 SUB PUSH1 0x1F AND DUP3 ADD SWAP2 JUMPDEST POP POP POP POP POP SWAP1 POP DUP13 JUMP JUMPDEST PUSH2 0xC00 PUSH2 0x25F1 JUMP JUMPDEST PUSH2 0xC0A DUP3 DUP3 PUSH2 0x264D JUMP JUMPDEST POP POP JUMP JUMPDEST PUSH1 0x5 SLOAD PUSH1 0x1 PUSH1 0x1 PUSH1 0xA0 SHL SUB AND CALLER EQ PUSH2 0xC93 JUMPI PUSH1 0x40 MLOAD PUSH3 0x461BCD PUSH1 0xE5 SHL DUP2 MSTORE PUSH1 0x20 PUSH1 0x4 DUP3 ADD MSTORE PUSH1 0x29 PUSH1 0x24 DUP3 ADD MSTORE PUSH32 0x4F6E6C79205652467632436F6E73756D65722063616E2063616C6C2074686973 PUSH1 0x44 DUP3 ADD MSTORE PUSH32 0x2066756E6374696F6E0000000000000000000000000000000000000000000000 PUSH1 0x64 DUP3 ADD MSTORE PUSH1 0x84 ADD JUMPDEST PUSH1 0x40 MLOAD DUP1 SWAP2 SUB SWAP1 REVERT JUMPDEST DUP1 MLOAD PUSH1 0x3 EQ PUSH2 0xD0A JUMPI PUSH1 0x40 MLOAD PUSH3 0x461BCD PUSH1 0xE5 SHL DUP2 MSTORE PUSH1 0x20 PUSH1 0x4 DUP3 ADD MSTORE PUSH1 0x23 PUSH1 0x24 DUP3 ADD MSTORE PUSH32 0x556E6578706563746564206E756D626572206F662072616E646F6D206E756D62 PUSH1 0x44 DUP3 ADD MSTORE PUSH32 0x6572730000000000000000000000000000000000000000000000000000000000 PUSH1 0x64 DUP3 ADD MSTORE PUSH1 0x84 ADD PUSH2 0xC8A JUMP JUMPDEST CALLER PUSH1 0x0 SWAP1 DUP2 MSTORE PUSH1 0xC PUSH1 0x20 MSTORE PUSH1 0x40 SWAP1 KECCAK256 DUP1 SLOAD PUSH2 0xD8D JUMPI PUSH1 0x40 MLOAD PUSH3 0x461BCD PUSH1 0xE5 SHL DUP2 MSTORE PUSH1 0x20 PUSH1 0x4 DUP3 ADD MSTORE PUSH1 0x2E PUSH1 0x24 DUP3 ADD MSTORE PUSH32 0x4E6F20696E737572616E6365206461746120666F756E6420666F722074686520 PUSH1 0x44 DUP3 ADD MSTORE PUSH32 0x726571756573742073656E646572000000000000000000000000000000000000 PUSH1 0x64 DUP3 ADD MSTORE PUSH1 0x84 ADD PUSH2 0xC8A JUMP JUMPDEST DUP1 SLOAD PUSH1 0x0 SWAP1 DUP3 SWAP1 PUSH2 0xDA0 SWAP1 PUSH1 0x1 SWAP1 PUSH2 0x3DE7 JUMP JUMPDEST DUP2 SLOAD DUP2 LT PUSH2 0xDB0 JUMPI PUSH2 0xDB0 PUSH2 0x3EDB JUMP JUMPDEST SWAP1 PUSH1 0x0 MSTORE PUSH1 0x20 PUSH1 0x0 KECCAK256 SWAP1 PUSH1 0xD MUL ADD SWAP1 POP PUSH1 0x0 JUMPDEST PUSH1 0x3 DUP2 LT ISZERO PUSH2 0xE19 JUMPI DUP4 DUP2 DUP2 MLOAD DUP2 LT PUSH2 0xDDE JUMPI PUSH2 0xDDE PUSH2 0x3EDB JUMP JUMPDEST PUSH1 0x20 MUL PUSH1 0x20 ADD ADD MLOAD DUP3 PUSH1 0xC ADD DUP3 DUP2 SLOAD DUP2 LT PUSH2 0xDFB JUMPI PUSH2 0xDFB PUSH2 0x3EDB JUMP JUMPDEST PUSH1 0x0 SWAP2 DUP3 MSTORE PUSH1 0x20 SWAP1 SWAP2 KECCAK256 ADD SSTORE DUP1 PUSH2 0xE11 DUP2 PUSH2 0x3E72 JUMP JUMPDEST SWAP2 POP POP PUSH2 0xDC3 JUMP JUMPDEST POP POP POP POP POP JUMP JUMPDEST PUSH1 0x3 SLOAD PUSH1 0x1 PUSH1 0x1 PUSH1 0xA0 SHL SUB AND CALLER EQ PUSH2 0xE7A JUMPI PUSH1 0x40 MLOAD PUSH3 0x461BCD PUSH1 0xE5 SHL DUP2 MSTORE PUSH1 0x20 PUSH1 0x4 DUP3 ADD MSTORE PUSH1 0x16 PUSH1 0x24 DUP3 ADD MSTORE PUSH32 0x4D7573742062652070726F706F736564206F776E657200000000000000000000 PUSH1 0x44 DUP3 ADD MSTORE PUSH1 0x64 ADD PUSH2 0xC8A JUMP JUMPDEST PUSH1 0x2 DUP1 SLOAD PUSH1 0x1 PUSH1 0x1 PUSH1 0xA0 SHL SUB NOT DUP1 DUP3 AND CALLER SWAP1 DUP2 OR SWAP1 SWAP4 SSTORE PUSH1 0x3 DUP1 SLOAD SWAP1 SWAP2 AND SWAP1 SSTORE PUSH1 0x40 MLOAD PUSH1 0x1 PUSH1 0x1 PUSH1 0xA0 SHL SUB SWAP1 SWAP2 AND SWAP2 SWAP1 DUP3 SWAP1 PUSH32 0x8BE0079C531659141344CD1FD0A4F28419497F9722A3DAAFE3B4186F6B6457E0 SWAP1 PUSH1 0x0 SWAP1 LOG3 POP JUMP JUMPDEST PUSH1 0x0 PUSH1 0x4 PUSH1 0x0 SWAP1 SLOAD SWAP1 PUSH2 0x100 EXP SWAP1 DIV PUSH1 0x1 PUSH1 0x1 PUSH1 0xA0 SHL SUB AND PUSH1 0x1 PUSH1 0x1 PUSH1 0xA0 SHL SUB AND PUSH4 0x8E15F473 PUSH1 0x40 MLOAD DUP2 PUSH4 0xFFFFFFFF AND PUSH1 0xE0 SHL DUP2 MSTORE PUSH1 0x4 ADD PUSH1 0x20 PUSH1 0x40 MLOAD DUP1 DUP4 SUB DUP2 DUP7 DUP1 EXTCODESIZE ISZERO DUP1 ISZERO PUSH2 0xF25 JUMPI PUSH1 0x0 DUP1 REVERT JUMPDEST POP GAS STATICCALL ISZERO DUP1 ISZERO PUSH2 0xF39 JUMPI RETURNDATASIZE PUSH1 0x0 DUP1 RETURNDATACOPY RETURNDATASIZE PUSH1 0x0 REVERT JUMPDEST POP POP POP POP PUSH1 0x40 MLOAD RETURNDATASIZE PUSH1 0x1F NOT PUSH1 0x1F DUP3 ADD AND DUP3 ADD DUP1 PUSH1 0x40 MSTORE POP DUP2 ADD SWAP1 PUSH2 0xF5D SWAP2 SWAP1 PUSH2 0x3636 JUMP JUMPDEST SWAP1 POP SWAP1 JUMP JUMPDEST PUSH1 0x0 PUSH1 0xC DUP5 EQ PUSH2 0xFB4 JUMPI PUSH1 0x40 MLOAD PUSH3 0x461BCD PUSH1 0xE5 SHL DUP2 MSTORE PUSH1 0x20 PUSH1 0x4 DUP3 ADD MSTORE PUSH1 0x1B PUSH1 0x24 DUP3 ADD MSTORE PUSH32 0x496E76616C6964206E756D626572206F6620617267756D656E74730000000000 PUSH1 0x44 DUP3 ADD MSTORE PUSH1 0x64 ADD PUSH2 0xC8A JUMP JUMPDEST PUSH2 0xFF2 PUSH1 0x40 MLOAD DUP1 PUSH1 0x40 ADD PUSH1 0x40 MSTORE DUP1 PUSH1 0x15 DUP2 MSTORE PUSH1 0x20 ADD PUSH32 0x476F7420746865206C6174657374207072696365210000000000000000000000 DUP2 MSTORE POP PUSH2 0x26CD JUMP JUMPDEST CALLER PUSH1 0x0 SWAP1 DUP2 MSTORE PUSH1 0xC PUSH1 0x20 MSTORE PUSH1 0x40 DUP2 KECCAK256 DUP1 SLOAD SWAP1 SWAP2 SWAP1 PUSH2 0x1663 JUMPI DUP2 PUSH1 0x40 MLOAD DUP1 PUSH2 0x1A0 ADD PUSH1 0x40 MSTORE DUP1 DUP10 DUP10 PUSH1 0x0 DUP2 DUP2 LT PUSH2 0x102A JUMPI PUSH2 0x102A PUSH2 0x3EDB JUMP JUMPDEST SWAP1 POP PUSH1 0x20 MUL DUP2 ADD SWAP1 PUSH2 0x103C SWAP2 SWAP1 PUSH2 0x3BD8 JUMP JUMPDEST DUP1 DUP1 PUSH1 0x1F ADD PUSH1 0x20 DUP1 SWAP2 DIV MUL PUSH1 0x20 ADD PUSH1 0x40 MLOAD SWAP1 DUP2 ADD PUSH1 0x40 MSTORE DUP1 SWAP4 SWAP3 SWAP2 SWAP1 DUP2 DUP2 MSTORE PUSH1 0x20 ADD DUP4 DUP4 DUP1 DUP3 DUP5 CALLDATACOPY PUSH1 0x0 SWAP3 ADD SWAP2 SWAP1 SWAP2 MSTORE POP POP POP SWAP1 DUP3 MSTORE POP PUSH1 0x20 ADD DUP10 DUP10 PUSH1 0x1 DUP2 DUP2 LT PUSH2 0x1089 JUMPI PUSH2 0x1089 PUSH2 0x3EDB JUMP JUMPDEST SWAP1 POP PUSH1 0x20 MUL DUP2 ADD SWAP1 PUSH2 0x109B SWAP2 SWAP1 PUSH2 0x3BD8 JUMP JUMPDEST DUP1 DUP1 PUSH1 0x1F ADD PUSH1 0x20 DUP1 SWAP2 DIV MUL PUSH1 0x20 ADD PUSH1 0x40 MLOAD SWAP1 DUP2 ADD PUSH1 0x40 MSTORE DUP1 SWAP4 SWAP3 SWAP2 SWAP1 DUP2 DUP2 MSTORE PUSH1 0x20 ADD DUP4 DUP4 DUP1 DUP3 DUP5 CALLDATACOPY PUSH1 0x0 SWAP3 ADD SWAP2 SWAP1 SWAP2 MSTORE POP POP POP SWAP1 DUP3 MSTORE POP PUSH1 0x20 ADD DUP10 DUP10 PUSH1 0x2 DUP2 DUP2 LT PUSH2 0x10E8 JUMPI PUSH2 0x10E8 PUSH2 0x3EDB JUMP JUMPDEST SWAP1 POP PUSH1 0x20 MUL DUP2 ADD SWAP1 PUSH2 0x10FA SWAP2 SWAP1 PUSH2 0x3BD8 JUMP JUMPDEST DUP1 DUP1 PUSH1 0x1F ADD PUSH1 0x20 DUP1 SWAP2 DIV MUL PUSH1 0x20 ADD PUSH1 0x40 MLOAD SWAP1 DUP2 ADD PUSH1 0x40 MSTORE DUP1 SWAP4 SWAP3 SWAP2 SWAP1 DUP2 DUP2 MSTORE PUSH1 0x20 ADD DUP4 DUP4 DUP1 DUP3 DUP5 CALLDATACOPY PUSH1 0x0 SWAP3 ADD SWAP2 SWAP1 SWAP2 MSTORE POP POP POP SWAP1 DUP3 MSTORE POP PUSH1 0x20 ADD DUP10 DUP10 PUSH1 0x3 DUP2 DUP2 LT PUSH2 0x1147 JUMPI PUSH2 0x1147 PUSH2 0x3EDB JUMP JUMPDEST SWAP1 POP PUSH1 0x20 MUL DUP2 ADD SWAP1 PUSH2 0x1159 SWAP2 SWAP1 PUSH2 0x3BD8 JUMP JUMPDEST DUP1 DUP1 PUSH1 0x1F ADD PUSH1 0x20 DUP1 SWAP2 DIV MUL PUSH1 0x20 ADD PUSH1 0x40 MLOAD SWAP1 DUP2 ADD PUSH1 0x40 MSTORE DUP1 SWAP4 SWAP3 SWAP2 SWAP1 DUP2 DUP2 MSTORE PUSH1 0x20 ADD DUP4 DUP4 DUP1 DUP3 DUP5 CALLDATACOPY PUSH1 0x0 SWAP3 ADD SWAP2 SWAP1 SWAP2 MSTORE POP POP POP SWAP1 DUP3 MSTORE POP PUSH1 0x20 ADD DUP10 DUP10 PUSH1 0x4 DUP2 DUP2 LT PUSH2 0x11A6 JUMPI PUSH2 0x11A6 PUSH2 0x3EDB JUMP JUMPDEST SWAP1 POP PUSH1 0x20 MUL DUP2 ADD SWAP1 PUSH2 0x11B8 SWAP2 SWAP1 PUSH2 0x3BD8 JUMP JUMPDEST DUP1 DUP1 PUSH1 0x1F ADD PUSH1 0x20 DUP1 SWAP2 DIV MUL PUSH1 0x20 ADD PUSH1 0x40 MLOAD SWAP1 DUP2 ADD PUSH1 0x40 MSTORE DUP1 SWAP4 SWAP3 SWAP2 SWAP1 DUP2 DUP2 MSTORE PUSH1 0x20 ADD DUP4 DUP4 DUP1 DUP3 DUP5 CALLDATACOPY PUSH1 0x0 SWAP3 ADD SWAP2 SWAP1 SWAP2 MSTORE POP POP POP SWAP1 DUP3 MSTORE POP PUSH1 0x20 ADD DUP10 DUP10 PUSH1 0x5 DUP2 DUP2 LT PUSH2 0x1205 JUMPI PUSH2 0x1205 PUSH2 0x3EDB JUMP JUMPDEST SWAP1 POP PUSH1 0x20 MUL DUP2 ADD SWAP1 PUSH2 0x1217 SWAP2 SWAP1 PUSH2 0x3BD8 JUMP JUMPDEST DUP1 DUP1 PUSH1 0x1F ADD PUSH1 0x20 DUP1 SWAP2 DIV MUL PUSH1 0x20 ADD PUSH1 0x40 MLOAD SWAP1 DUP2 ADD PUSH1 0x40 MSTORE DUP1 SWAP4 SWAP3 SWAP2 SWAP1 DUP2 DUP2 MSTORE PUSH1 0x20 ADD DUP4 DUP4 DUP1 DUP3 DUP5 CALLDATACOPY PUSH1 0x0 SWAP3 ADD SWAP2 SWAP1 SWAP2 MSTORE POP POP POP SWAP1 DUP3 MSTORE POP PUSH1 0x20 ADD DUP10 DUP10 PUSH1 0x6 DUP2 DUP2 LT PUSH2 0x1264 JUMPI PUSH2 0x1264 PUSH2 0x3EDB JUMP JUMPDEST SWAP1 POP PUSH1 0x20 MUL DUP2 ADD SWAP1 PUSH2 0x1276 SWAP2 SWAP1 PUSH2 0x3BD8 JUMP JUMPDEST DUP1 DUP1 PUSH1 0x1F ADD PUSH1 0x20 DUP1 SWAP2 DIV MUL PUSH1 0x20 ADD PUSH1 0x40 MLOAD SWAP1 DUP2 ADD PUSH1 0x40 MSTORE DUP1 SWAP4 SWAP3 SWAP2 SWAP1 DUP2 DUP2 MSTORE PUSH1 0x20 ADD DUP4 DUP4 DUP1 DUP3 DUP5 CALLDATACOPY PUSH1 0x0 SWAP3 ADD SWAP2 SWAP1 SWAP2 MSTORE POP POP POP SWAP1 DUP3 MSTORE POP PUSH1 0x20 ADD DUP10 DUP10 PUSH1 0x7 DUP2 DUP2 LT PUSH2 0x12C3 JUMPI PUSH2 0x12C3 PUSH2 0x3EDB JUMP JUMPDEST SWAP1 POP PUSH1 0x20 MUL DUP2 ADD SWAP1 PUSH2 0x12D5 SWAP2 SWAP1 PUSH2 0x3BD8 JUMP JUMPDEST DUP1 DUP1 PUSH1 0x1F ADD PUSH1 0x20 DUP1 SWAP2 DIV MUL PUSH1 0x20 ADD PUSH1 0x40 MLOAD SWAP1 DUP2 ADD PUSH1 0x40 MSTORE DUP1 SWAP4 SWAP3 SWAP2 SWAP1 DUP2 DUP2 MSTORE PUSH1 0x20 ADD DUP4 DUP4 DUP1 DUP3 DUP5 CALLDATACOPY PUSH1 0x0 SWAP3 ADD SWAP2 SWAP1 SWAP2 MSTORE POP POP POP SWAP1 DUP3 MSTORE POP PUSH1 0x20 ADD DUP10 DUP10 PUSH1 0x8 DUP2 DUP2 LT PUSH2 0x1322 JUMPI PUSH2 0x1322 PUSH2 0x3EDB JUMP JUMPDEST SWAP1 POP PUSH1 0x20 MUL DUP2 ADD SWAP1 PUSH2 0x1334 SWAP2 SWAP1 PUSH2 0x3BD8 JUMP JUMPDEST DUP1 DUP1 PUSH1 0x1F ADD PUSH1 0x20 DUP1 SWAP2 DIV MUL PUSH1 0x20 ADD PUSH1 0x40 MLOAD SWAP1 DUP2 ADD PUSH1 0x40 MSTORE DUP1 SWAP4 SWAP3 SWAP2 SWAP1 DUP2 DUP2 MSTORE PUSH1 0x20 ADD DUP4 DUP4 DUP1 DUP3 DUP5 CALLDATACOPY PUSH1 0x0 SWAP3 ADD SWAP2 SWAP1 SWAP2 MSTORE POP POP POP SWAP1 DUP3 MSTORE POP PUSH1 0x20 ADD DUP10 DUP10 PUSH1 0x9 DUP2 DUP2 LT PUSH2 0x1381 JUMPI PUSH2 0x1381 PUSH2 0x3EDB JUMP JUMPDEST SWAP1 POP PUSH1 0x20 MUL DUP2 ADD SWAP1 PUSH2 0x1393 SWAP2 SWAP1 PUSH2 0x3BD8 JUMP JUMPDEST DUP1 DUP1 PUSH1 0x1F ADD PUSH1 0x20 DUP1 SWAP2 DIV MUL PUSH1 0x20 ADD PUSH1 0x40 MLOAD SWAP1 DUP2 ADD PUSH1 0x40 MSTORE DUP1 SWAP4 SWAP3 SWAP2 SWAP1 DUP2 DUP2 MSTORE PUSH1 0x20 ADD DUP4 DUP4 DUP1 DUP3 DUP5 CALLDATACOPY PUSH1 0x0 SWAP3 ADD SWAP2 SWAP1 SWAP2 MSTORE POP POP POP SWAP1 DUP3 MSTORE POP PUSH1 0x20 ADD DUP10 DUP10 PUSH1 0xA DUP2 DUP2 LT PUSH2 0x13E0 JUMPI PUSH2 0x13E0 PUSH2 0x3EDB JUMP JUMPDEST SWAP1 POP PUSH1 0x20 MUL DUP2 ADD SWAP1 PUSH2 0x13F2 SWAP2 SWAP1 PUSH2 0x3BD8 JUMP JUMPDEST DUP1 DUP1 PUSH1 0x1F ADD PUSH1 0x20 DUP1 SWAP2 DIV MUL PUSH1 0x20 ADD PUSH1 0x40 MLOAD SWAP1 DUP2 ADD PUSH1 0x40 MSTORE DUP1 SWAP4 SWAP3 SWAP2 SWAP1 DUP2 DUP2 MSTORE PUSH1 0x20 ADD DUP4 DUP4 DUP1 DUP3 DUP5 CALLDATACOPY PUSH1 0x0 SWAP3 ADD SWAP2 SWAP1 SWAP2 MSTORE POP POP POP SWAP1 DUP3 MSTORE POP PUSH1 0x20 ADD DUP10 DUP10 PUSH1 0xB DUP2 DUP2 LT PUSH2 0x143F JUMPI PUSH2 0x143F PUSH2 0x3EDB JUMP JUMPDEST SWAP1 POP PUSH1 0x20 MUL DUP2 ADD SWAP1 PUSH2 0x1451 SWAP2 SWAP1 PUSH2 0x3BD8 JUMP JUMPDEST DUP1 DUP1 PUSH1 0x1F ADD PUSH1 0x20 DUP1 SWAP2 DIV MUL PUSH1 0x20 ADD PUSH1 0x40 MLOAD SWAP1 DUP2 ADD PUSH1 0x40 MSTORE DUP1 SWAP4 SWAP3 SWAP2 SWAP1 DUP2 DUP2 MSTORE PUSH1 0x20 ADD DUP4 DUP4 DUP1 DUP3 DUP5 CALLDATACOPY PUSH1 0x0 SWAP3 ADD SWAP2 SWAP1 SWAP2 MSTORE POP POP POP SWAP1 DUP3 MSTORE POP PUSH1 0x40 DUP1 MLOAD PUSH1 0x3 DUP1 DUP3 MSTORE PUSH1 0x80 DUP3 ADD SWAP1 SWAP3 MSTORE PUSH1 0x20 SWAP3 DUP4 ADD SWAP3 SWAP1 SWAP2 SWAP1 DUP3 ADD PUSH1 0x60 DUP1 CALLDATASIZE DUP4 CALLDATACOPY POP POP POP SWAP1 MSTORE DUP2 SLOAD PUSH1 0x1 DUP2 ADD DUP4 SSTORE PUSH1 0x0 SWAP3 DUP4 MSTORE PUSH1 0x20 SWAP3 DUP4 SWAP1 KECCAK256 DUP3 MLOAD DUP1 MLOAD SWAP4 SWAP5 PUSH1 0xD SWAP1 SWAP4 MUL SWAP1 SWAP2 ADD SWAP3 PUSH2 0x14DD SWAP3 DUP5 SWAP3 ADD SWAP1 PUSH2 0x333F JUMP JUMPDEST POP PUSH1 0x20 DUP3 DUP2 ADD MLOAD DUP1 MLOAD PUSH2 0x14F6 SWAP3 PUSH1 0x1 DUP6 ADD SWAP3 ADD SWAP1 PUSH2 0x333F JUMP JUMPDEST POP PUSH1 0x40 DUP3 ADD MLOAD DUP1 MLOAD PUSH2 0x1512 SWAP2 PUSH1 0x2 DUP5 ADD SWAP2 PUSH1 0x20 SWAP1 SWAP2 ADD SWAP1 PUSH2 0x333F JUMP JUMPDEST POP PUSH1 0x60 DUP3 ADD MLOAD DUP1 MLOAD PUSH2 0x152E SWAP2 PUSH1 0x3 DUP5 ADD SWAP2 PUSH1 0x20 SWAP1 SWAP2 ADD SWAP1 PUSH2 0x333F JUMP JUMPDEST POP PUSH1 0x80 DUP3 ADD MLOAD DUP1 MLOAD PUSH2 0x154A SWAP2 PUSH1 0x4 DUP5 ADD SWAP2 PUSH1 0x20 SWAP1 SWAP2 ADD SWAP1 PUSH2 0x333F JUMP JUMPDEST POP PUSH1 0xA0 DUP3 ADD MLOAD DUP1 MLOAD PUSH2 0x1566 SWAP2 PUSH1 0x5 DUP5 ADD SWAP2 PUSH1 0x20 SWAP1 SWAP2 ADD SWAP1 PUSH2 0x333F JUMP JUMPDEST POP PUSH1 0xC0 DUP3 ADD MLOAD DUP1 MLOAD PUSH2 0x1582 SWAP2 PUSH1 0x6 DUP5 ADD SWAP2 PUSH1 0x20 SWAP1 SWAP2 ADD SWAP1 PUSH2 0x333F JUMP JUMPDEST POP PUSH1 0xE0 DUP3 ADD MLOAD DUP1 MLOAD PUSH2 0x159E SWAP2 PUSH1 0x7 DUP5 ADD SWAP2 PUSH1 0x20 SWAP1 SWAP2 ADD SWAP1 PUSH2 0x333F JUMP JUMPDEST POP PUSH2 0x100 DUP3 ADD MLOAD DUP1 MLOAD PUSH2 0x15BB SWAP2 PUSH1 0x8 DUP5 ADD SWAP2 PUSH1 0x20 SWAP1 SWAP2 ADD SWAP1 PUSH2 0x333F JUMP JUMPDEST POP PUSH2 0x120 DUP3 ADD MLOAD DUP1 MLOAD PUSH2 0x15D8 SWAP2 PUSH1 0x9 DUP5 ADD SWAP2 PUSH1 0x20 SWAP1 SWAP2 ADD SWAP1 PUSH2 0x333F JUMP JUMPDEST POP PUSH2 0x140 DUP3 ADD MLOAD DUP1 MLOAD PUSH2 0x15F5 SWAP2 PUSH1 0xA DUP5 ADD SWAP2 PUSH1 0x20 SWAP1 SWAP2 ADD SWAP1 PUSH2 0x333F JUMP JUMPDEST POP PUSH2 0x160 DUP3 ADD MLOAD DUP1 MLOAD PUSH2 0x1612 SWAP2 PUSH1 0xB DUP5 ADD SWAP2 PUSH1 0x20 SWAP1 SWAP2 ADD SWAP1 PUSH2 0x333F JUMP JUMPDEST POP PUSH2 0x180 DUP3 ADD MLOAD DUP1 MLOAD PUSH2 0x162F SWAP2 PUSH1 0xC DUP5 ADD SWAP2 PUSH1 0x20 SWAP1 SWAP2 ADD SWAP1 PUSH2 0x33C3 JUMP JUMPDEST POP POP DUP3 SLOAD DUP4 SWAP2 POP PUSH2 0x1642 SWAP1 PUSH1 0x1 SWAP1 PUSH2 0x3DE7 JUMP JUMPDEST DUP2 SLOAD DUP2 LT PUSH2 0x1652 JUMPI PUSH2 0x1652 PUSH2 0x3EDB JUMP JUMPDEST SWAP1 PUSH1 0x0 MSTORE PUSH1 0x20 PUSH1 0x0 KECCAK256 SWAP1 PUSH1 0xD MUL ADD SWAP1 POP JUMPDEST PUSH2 0x169D PUSH1 0x40 DUP1 MLOAD PUSH1 0xC0 DUP2 ADD SWAP1 SWAP2 MSTORE DUP1 PUSH1 0x0 DUP2 MSTORE PUSH1 0x20 ADD PUSH1 0x0 DUP2 MSTORE PUSH1 0x20 ADD PUSH1 0x0 DUP2 MSTORE PUSH1 0x20 ADD PUSH1 0x60 DUP2 MSTORE PUSH1 0x20 ADD PUSH1 0x60 DUP2 MSTORE PUSH1 0x20 ADD PUSH1 0x60 DUP2 MSTORE POP SWAP1 JUMP JUMPDEST PUSH2 0x16E4 PUSH1 0x0 DUP1 DUP15 DUP15 DUP1 DUP1 PUSH1 0x1F ADD PUSH1 0x20 DUP1 SWAP2 DIV MUL PUSH1 0x20 ADD PUSH1 0x40 MLOAD SWAP1 DUP2 ADD PUSH1 0x40 MSTORE DUP1 SWAP4 SWAP3 SWAP2 SWAP1 DUP2 DUP2 MSTORE PUSH1 0x20 ADD DUP4 DUP4 DUP1 DUP3 DUP5 CALLDATACOPY PUSH1 0x0 SWAP3 ADD SWAP2 SWAP1 SWAP2 MSTORE POP DUP8 SWAP6 SWAP5 SWAP4 SWAP3 POP POP PUSH2 0x273E SWAP1 POP JUMP JUMPDEST DUP9 ISZERO PUSH2 0x172C JUMPI PUSH2 0x172C DUP11 DUP11 DUP1 DUP1 PUSH1 0x1F ADD PUSH1 0x20 DUP1 SWAP2 DIV MUL PUSH1 0x20 ADD PUSH1 0x40 MLOAD SWAP1 DUP2 ADD PUSH1 0x40 MSTORE DUP1 SWAP4 SWAP3 SWAP2 SWAP1 DUP2 DUP2 MSTORE PUSH1 0x20 ADD DUP4 DUP4 DUP1 DUP3 DUP5 CALLDATACOPY PUSH1 0x0 SWAP3 ADD SWAP2 SWAP1 SWAP2 MSTORE POP DUP6 SWAP4 SWAP3 POP POP PUSH2 0x27D2 SWAP1 POP JUMP JUMPDEST DUP7 ISZERO PUSH2 0x1746 JUMPI PUSH2 0x1746 PUSH2 0x173F DUP9 DUP11 PUSH2 0x3DFE JUMP JUMPDEST DUP3 SWAP1 PUSH2 0x2819 JUMP JUMPDEST PUSH1 0x0 PUSH2 0x1753 PUSH1 0xA SLOAD PUSH2 0x2859 JUMP JUMPDEST SWAP1 POP PUSH1 0x0 PUSH2 0x1762 DUP10 PUSH1 0x1 PUSH2 0x3CC5 JUMP JUMPDEST PUSH8 0xFFFFFFFFFFFFFFFF DUP2 GT ISZERO PUSH2 0x177A JUMPI PUSH2 0x177A PUSH2 0x3EF1 JUMP JUMPDEST PUSH1 0x40 MLOAD SWAP1 DUP1 DUP3 MSTORE DUP1 PUSH1 0x20 MUL PUSH1 0x20 ADD DUP3 ADD PUSH1 0x40 MSTORE DUP1 ISZERO PUSH2 0x17AD JUMPI DUP2 PUSH1 0x20 ADD JUMPDEST PUSH1 0x60 DUP2 MSTORE PUSH1 0x20 ADD SWAP1 PUSH1 0x1 SWAP1 SUB SWAP1 DUP2 PUSH2 0x1798 JUMPI SWAP1 POP JUMPDEST POP SWAP1 POP PUSH1 0x0 JUMPDEST DUP10 DUP2 LT ISZERO PUSH2 0x1845 JUMPI DUP11 DUP11 DUP3 DUP2 DUP2 LT PUSH2 0x17CD JUMPI PUSH2 0x17CD PUSH2 0x3EDB JUMP JUMPDEST SWAP1 POP PUSH1 0x20 MUL DUP2 ADD SWAP1 PUSH2 0x17DF SWAP2 SWAP1 PUSH2 0x3BD8 JUMP JUMPDEST DUP1 DUP1 PUSH1 0x1F ADD PUSH1 0x20 DUP1 SWAP2 DIV MUL PUSH1 0x20 ADD PUSH1 0x40 MLOAD SWAP1 DUP2 ADD PUSH1 0x40 MSTORE DUP1 SWAP4 SWAP3 SWAP2 SWAP1 DUP2 DUP2 MSTORE PUSH1 0x20 ADD DUP4 DUP4 DUP1 DUP3 DUP5 CALLDATACOPY PUSH1 0x0 SWAP3 ADD SWAP2 SWAP1 SWAP2 MSTORE POP POP DUP5 MLOAD DUP6 SWAP3 POP DUP5 SWAP2 POP DUP2 LT PUSH2 0x1827 JUMPI PUSH2 0x1827 PUSH2 0x3EDB JUMP JUMPDEST PUSH1 0x20 MUL PUSH1 0x20 ADD ADD DUP2 SWAP1 MSTORE POP DUP1 DUP1 PUSH2 0x183D SWAP1 PUSH2 0x3E72 JUMP JUMPDEST SWAP2 POP POP PUSH2 0x17B3 JUMP JUMPDEST POP DUP2 DUP2 DUP12 DUP12 SWAP1 POP DUP2 MLOAD DUP2 LT PUSH2 0x185C JUMPI PUSH2 0x185C PUSH2 0x3EDB JUMP JUMPDEST PUSH1 0x20 MUL PUSH1 0x20 ADD ADD DUP2 SWAP1 MSTORE POP PUSH2 0x188A DUP2 PUSH1 0xC DUP2 MLOAD DUP2 LT PUSH2 0x187D JUMPI PUSH2 0x187D PUSH2 0x3EDB JUMP JUMPDEST PUSH1 0x20 MUL PUSH1 0x20 ADD ADD MLOAD PUSH2 0x26CD JUMP JUMPDEST PUSH2 0x1894 DUP4 DUP3 PUSH2 0x2819 JUMP JUMPDEST PUSH1 0x0 PUSH2 0x18A1 DUP5 DUP11 DUP11 PUSH2 0x2903 JUMP JUMPDEST PUSH1 0x6 DUP2 SWAP1 SSTORE SWAP16 SWAP15 POP POP POP POP POP POP POP POP POP POP POP POP POP POP POP JUMP JUMPDEST PUSH1 0x7 DUP1 SLOAD PUSH2 0x18C6 SWAP1 PUSH2 0x3E37 JUMP JUMPDEST DUP1 PUSH1 0x1F ADD PUSH1 0x20 DUP1 SWAP2 DIV MUL PUSH1 0x20 ADD PUSH1 0x40 MLOAD SWAP1 DUP2 ADD PUSH1 0x40 MSTORE DUP1 SWAP3 SWAP2 SWAP1 DUP2 DUP2 MSTORE PUSH1 0x20 ADD DUP3 DUP1 SLOAD PUSH2 0x18F2 SWAP1 PUSH2 0x3E37 JUMP JUMPDEST DUP1 ISZERO PUSH2 0x193F JUMPI DUP1 PUSH1 0x1F LT PUSH2 0x1914 JUMPI PUSH2 0x100 DUP1 DUP4 SLOAD DIV MUL DUP4 MSTORE SWAP2 PUSH1 0x20 ADD SWAP2 PUSH2 0x193F JUMP JUMPDEST DUP3 ADD SWAP2 SWAP1 PUSH1 0x0 MSTORE PUSH1 0x20 PUSH1 0x0 KECCAK256 SWAP1 JUMPDEST DUP2 SLOAD DUP2 MSTORE SWAP1 PUSH1 0x1 ADD SWAP1 PUSH1 0x20 ADD DUP1 DUP4 GT PUSH2 0x1922 JUMPI DUP3 SWAP1 SUB PUSH1 0x1F AND DUP3 ADD SWAP2 JUMPDEST POP POP POP POP POP DUP2 JUMP JUMPDEST PUSH1 0x60 PUSH2 0x1987 PUSH1 0x40 MLOAD DUP1 PUSH1 0x40 ADD PUSH1 0x40 MSTORE DUP1 PUSH1 0x4 DUP2 MSTORE PUSH1 0x20 ADD PUSH32 0x5465737400000000000000000000000000000000000000000000000000000000 DUP2 MSTORE POP PUSH2 0x26CD JUMP JUMPDEST POP PUSH1 0x40 DUP1 MLOAD DUP1 DUP3 ADD SWAP1 SWAP2 MSTORE PUSH1 0xC DUP2 MSTORE PUSH32 0x48656C6C6F20576F726C64210000000000000000000000000000000000000000 PUSH1 0x20 DUP3 ADD MSTORE SWAP1 JUMP JUMPDEST CALLER PUSH1 0x0 DUP2 DUP2 MSTORE PUSH1 0xC PUSH1 0x20 MSTORE PUSH1 0x40 SWAP1 KECCAK256 DUP1 SLOAD PUSH1 0x60 SWAP3 SWAP2 SWAP1 PUSH2 0x1A46 JUMPI PUSH1 0x40 MLOAD PUSH3 0x461BCD PUSH1 0xE5 SHL DUP2 MSTORE PUSH1 0x20 PUSH1 0x4 DUP3 ADD MSTORE PUSH1 0x24 DUP1 DUP3 ADD MSTORE PUSH32 0x4E6F20696E737572616E6365206461746120666F756E6420666F722074686520 PUSH1 0x44 DUP3 ADD MSTORE PUSH32 0x7573657200000000000000000000000000000000000000000000000000000000 PUSH1 0x64 DUP3 ADD MSTORE PUSH1 0x84 ADD PUSH2 0xC8A JUMP JUMPDEST DUP1 SLOAD PUSH1 0x0 SWAP1 DUP3 SWAP1 PUSH2 0x1A59 SWAP1 PUSH1 0x1 SWAP1 PUSH2 0x3DE7 JUMP JUMPDEST DUP2 SLOAD DUP2 LT PUSH2 0x1A69 JUMPI PUSH2 0x1A69 PUSH2 0x3EDB JUMP JUMPDEST PUSH1 0x0 SWAP2 DUP3 MSTORE PUSH1 0x20 DUP3 KECCAK256 PUSH1 0xD SWAP1 SWAP2 MUL ADD SWAP2 POP PUSH1 0xC DUP3 ADD SWAP1 JUMPDEST DUP2 SLOAD DUP2 LT ISZERO PUSH2 0x1B07 JUMPI DUP2 DUP2 DUP2 SLOAD DUP2 LT PUSH2 0x1A9B JUMPI PUSH2 0x1A9B PUSH2 0x3EDB JUMP JUMPDEST SWAP1 PUSH1 0x0 MSTORE PUSH1 0x20 PUSH1 0x0 KECCAK256 ADD SLOAD PUSH1 0x0 EQ PUSH2 0x1AF5 JUMPI PUSH1 0x40 MLOAD PUSH3 0x461BCD PUSH1 0xE5 SHL DUP2 MSTORE PUSH1 0x20 PUSH1 0x4 DUP3 ADD MSTORE PUSH1 0x1C PUSH1 0x24 DUP3 ADD MSTORE PUSH32 0x4E6F6E2D7A65726F2072616E646F6D20706F696E747320666F756E6400000000 PUSH1 0x44 DUP3 ADD MSTORE PUSH1 0x64 ADD PUSH2 0xC8A JUMP JUMPDEST DUP1 PUSH2 0x1AFF DUP2 PUSH2 0x3E72 JUMP JUMPDEST SWAP2 POP POP PUSH2 0x1A80 JUMP JUMPDEST POP PUSH1 0x5 PUSH1 0x0 SWAP1 SLOAD SWAP1 PUSH2 0x100 EXP SWAP1 DIV PUSH1 0x1 PUSH1 0x1 PUSH1 0xA0 SHL SUB AND PUSH1 0x1 PUSH1 0x1 PUSH1 0xA0 SHL SUB AND PUSH4 0xE0C86289 PUSH1 0x40 MLOAD DUP2 PUSH4 0xFFFFFFFF AND PUSH1 0xE0 SHL DUP2 MSTORE PUSH1 0x4 ADD PUSH1 0x20 PUSH1 0x40 MLOAD DUP1 DUP4 SUB DUP2 PUSH1 0x0 DUP8 DUP1 EXTCODESIZE ISZERO DUP1 ISZERO PUSH2 0x1B58 JUMPI PUSH1 0x0 DUP1 REVERT JUMPDEST POP GAS CALL ISZERO DUP1 ISZERO PUSH2 0x1B6C JUMPI RETURNDATASIZE PUSH1 0x0 DUP1 RETURNDATACOPY RETURNDATASIZE PUSH1 0x0 REVERT JUMPDEST POP POP POP POP PUSH1 0x40 MLOAD RETURNDATASIZE PUSH1 0x1F NOT PUSH1 0x1F DUP3 ADD AND DUP3 ADD DUP1 PUSH1 0x40 MSTORE POP DUP2 ADD SWAP1 PUSH2 0x1B90 SWAP2 SWAP1 PUSH2 0x3636 JUMP JUMPDEST POP POP POP POP POP SWAP1 JUMP JUMPDEST PUSH1 0x0 DUP1 SLOAD PUSH1 0x40 DUP1 MLOAD PUSH32 0xD328A91E00000000000000000000000000000000000000000000000000000000 DUP2 MSTORE SWAP1 MLOAD PUSH1 0x60 SWAP4 PUSH1 0x1 PUSH1 0x1 PUSH1 0xA0 SHL SUB SWAP1 SWAP4 AND SWAP3 PUSH4 0xD328A91E SWAP3 PUSH1 0x4 DUP1 DUP3 ADD SWAP4 SWAP2 DUP3 SWAP1 SUB ADD DUP2 DUP7 DUP1 EXTCODESIZE ISZERO DUP1 ISZERO PUSH2 0x1BF5 JUMPI PUSH1 0x0 DUP1 REVERT JUMPDEST POP GAS STATICCALL ISZERO DUP1 ISZERO PUSH2 0x1C09 JUMPI RETURNDATASIZE PUSH1 0x0 DUP1 RETURNDATACOPY RETURNDATASIZE PUSH1 0x0 REVERT JUMPDEST POP POP POP POP PUSH1 0x40 MLOAD RETURNDATASIZE PUSH1 0x0 DUP3 RETURNDATACOPY PUSH1 0x1F RETURNDATASIZE SWAP1 DUP2 ADD PUSH1 0x1F NOT AND DUP3 ADD PUSH1 0x40 MSTORE PUSH2 0xF5D SWAP2 SWAP1 DUP2 ADD SWAP1 PUSH2 0x36BC JUMP JUMPDEST PUSH1 0x0 DUP1 SLOAD PUSH1 0x1 PUSH1 0x1 PUSH1 0xA0 SHL SUB AND PUSH4 0xD227D245 DUP6 PUSH2 0x1C4D DUP9 PUSH2 0x2A75 JUMP JUMPDEST DUP7 DUP7 PUSH1 0x40 MLOAD DUP6 PUSH4 0xFFFFFFFF AND PUSH1 0xE0 SHL DUP2 MSTORE PUSH1 0x4 ADD PUSH2 0x1C6E SWAP5 SWAP4 SWAP3 SWAP2 SWAP1 PUSH2 0x3B9C JUMP JUMPDEST PUSH1 0x20 PUSH1 0x40 MLOAD DUP1 DUP4 SUB DUP2 DUP7 DUP1 EXTCODESIZE ISZERO DUP1 ISZERO PUSH2 0x1C86 JUMPI PUSH1 0x0 DUP1 REVERT JUMPDEST POP GAS STATICCALL ISZERO DUP1 ISZERO PUSH2 0x1C9A JUMPI RETURNDATASIZE PUSH1 0x0 DUP1 RETURNDATACOPY RETURNDATASIZE PUSH1 0x0 REVERT JUMPDEST POP POP POP POP PUSH1 0x40 MLOAD RETURNDATASIZE PUSH1 0x1F NOT PUSH1 0x1F DUP3 ADD AND DUP3 ADD DUP1 PUSH1 0x40 MSTORE POP DUP2 ADD SWAP1 PUSH2 0x1CBE SWAP2 SWAP1 PUSH2 0x39CB JUMP JUMPDEST SWAP6 SWAP5 POP POP POP POP POP JUMP JUMPDEST CALLER PUSH1 0x0 SWAP1 DUP2 MSTORE PUSH1 0xC PUSH1 0x20 MSTORE PUSH1 0x40 DUP2 KECCAK256 DUP1 SLOAD PUSH2 0x1D24 JUMPI PUSH1 0x40 MLOAD PUSH3 0x461BCD PUSH1 0xE5 SHL DUP2 MSTORE PUSH1 0x20 PUSH1 0x4 DUP3 ADD MSTORE PUSH1 0x17 PUSH1 0x24 DUP3 ADD MSTORE PUSH32 0x4E6F20696E737572616E6365206461746120666F756E64000000000000000000 PUSH1 0x44 DUP3 ADD MSTORE PUSH1 0x64 ADD PUSH2 0xC8A JUMP JUMPDEST PUSH1 0x0 JUMPDEST DUP2 SLOAD DUP2 LT ISZERO PUSH2 0x253A JUMPI PUSH1 0x0 DUP3 DUP3 DUP2 SLOAD DUP2 LT PUSH2 0x1D44 JUMPI PUSH2 0x1D44 PUSH2 0x3EDB JUMP JUMPDEST SWAP1 PUSH1 0x0 MSTORE PUSH1 0x20 PUSH1 0x0 KECCAK256 SWAP1 PUSH1 0xD MUL ADD PUSH1 0x40 MLOAD DUP1 PUSH2 0x1A0 ADD PUSH1 0x40 MSTORE SWAP1 DUP2 PUSH1 0x0 DUP3 ADD DUP1 SLOAD PUSH2 0x1D6E SWAP1 PUSH2 0x3E37 JUMP JUMPDEST DUP1 PUSH1 0x1F ADD PUSH1 0x20 DUP1 SWAP2 DIV MUL PUSH1 0x20 ADD PUSH1 0x40 MLOAD SWAP1 DUP2 ADD PUSH1 0x40 MSTORE DUP1 SWAP3 SWAP2 SWAP1 DUP2 DUP2 MSTORE PUSH1 0x20 ADD DUP3 DUP1 SLOAD PUSH2 0x1D9A SWAP1 PUSH2 0x3E37 JUMP JUMPDEST DUP1 ISZERO PUSH2 0x1DE7 JUMPI DUP1 PUSH1 0x1F LT PUSH2 0x1DBC JUMPI PUSH2 0x100 DUP1 DUP4 SLOAD DIV MUL DUP4 MSTORE SWAP2 PUSH1 0x20 ADD SWAP2 PUSH2 0x1DE7 JUMP JUMPDEST DUP3 ADD SWAP2 SWAP1 PUSH1 0x0 MSTORE PUSH1 0x20 PUSH1 0x0 KECCAK256 SWAP1 JUMPDEST DUP2 SLOAD DUP2 MSTORE SWAP1 PUSH1 0x1 ADD SWAP1 PUSH1 0x20 ADD DUP1 DUP4 GT PUSH2 0x1DCA JUMPI DUP3 SWAP1 SUB PUSH1 0x1F AND DUP3 ADD SWAP2 JUMPDEST POP POP POP POP POP DUP2 MSTORE PUSH1 0x20 ADD PUSH1 0x1 DUP3 ADD DUP1 SLOAD PUSH2 0x1E00 SWAP1 PUSH2 0x3E37 JUMP JUMPDEST DUP1 PUSH1 0x1F ADD PUSH1 0x20 DUP1 SWAP2 DIV MUL PUSH1 0x20 ADD PUSH1 0x40 MLOAD SWAP1 DUP2 ADD PUSH1 0x40 MSTORE DUP1 SWAP3 SWAP2 SWAP1 DUP2 DUP2 MSTORE PUSH1 0x20 ADD DUP3 DUP1 SLOAD PUSH2 0x1E2C SWAP1 PUSH2 0x3E37 JUMP JUMPDEST DUP1 ISZERO PUSH2 0x1E79 JUMPI DUP1 PUSH1 0x1F LT PUSH2 0x1E4E JUMPI PUSH2 0x100 DUP1 DUP4 SLOAD DIV MUL DUP4 MSTORE SWAP2 PUSH1 0x20 ADD SWAP2 PUSH2 0x1E79 JUMP JUMPDEST DUP3 ADD SWAP2 SWAP1 PUSH1 0x0 MSTORE PUSH1 0x20 PUSH1 0x0 KECCAK256 SWAP1 JUMPDEST DUP2 SLOAD DUP2 MSTORE SWAP1 PUSH1 0x1 ADD SWAP1 PUSH1 0x20 ADD DUP1 DUP4 GT PUSH2 0x1E5C JUMPI DUP3 SWAP1 SUB PUSH1 0x1F AND DUP3 ADD SWAP2 JUMPDEST POP POP POP POP POP DUP2 MSTORE PUSH1 0x20 ADD PUSH1 0x2 DUP3 ADD DUP1 SLOAD PUSH2 0x1E92 SWAP1 PUSH2 0x3E37 JUMP JUMPDEST DUP1 PUSH1 0x1F ADD PUSH1 0x20 DUP1 SWAP2 DIV MUL PUSH1 0x20 ADD PUSH1 0x40 MLOAD SWAP1 DUP2 ADD PUSH1 0x40 MSTORE DUP1 SWAP3 SWAP2 SWAP1 DUP2 DUP2 MSTORE PUSH1 0x20 ADD DUP3 DUP1 SLOAD PUSH2 0x1EBE SWAP1 PUSH2 0x3E37 JUMP JUMPDEST DUP1 ISZERO PUSH2 0x1F0B JUMPI DUP1 PUSH1 0x1F LT PUSH2 0x1EE0 JUMPI PUSH2 0x100 DUP1 DUP4 SLOAD DIV MUL DUP4 MSTORE SWAP2 PUSH1 0x20 ADD SWAP2 PUSH2 0x1F0B JUMP JUMPDEST DUP3 ADD SWAP2 SWAP1 PUSH1 0x0 MSTORE PUSH1 0x20 PUSH1 0x0 KECCAK256 SWAP1 JUMPDEST DUP2 SLOAD DUP2 MSTORE SWAP1 PUSH1 0x1 ADD SWAP1 PUSH1 0x20 ADD DUP1 DUP4 GT PUSH2 0x1EEE JUMPI DUP3 SWAP1 SUB PUSH1 0x1F AND DUP3 ADD SWAP2 JUMPDEST POP POP POP POP POP DUP2 MSTORE PUSH1 0x20 ADD PUSH1 0x3 DUP3 ADD DUP1 SLOAD PUSH2 0x1F24 SWAP1 PUSH2 0x3E37 JUMP JUMPDEST DUP1 PUSH1 0x1F ADD PUSH1 0x20 DUP1 SWAP2 DIV MUL PUSH1 0x20 ADD PUSH1 0x40 MLOAD SWAP1 DUP2 ADD PUSH1 0x40 MSTORE DUP1 SWAP3 SWAP2 SWAP1 DUP2 DUP2 MSTORE PUSH1 0x20 ADD DUP3 DUP1 SLOAD PUSH2 0x1F50 SWAP1 PUSH2 0x3E37 JUMP JUMPDEST DUP1 ISZERO PUSH2 0x1F9D JUMPI DUP1 PUSH1 0x1F LT PUSH2 0x1F72 JUMPI PUSH2 0x100 DUP1 DUP4 SLOAD DIV MUL DUP4 MSTORE SWAP2 PUSH1 0x20 ADD SWAP2 PUSH2 0x1F9D JUMP JUMPDEST DUP3 ADD SWAP2 SWAP1 PUSH1 0x0 MSTORE PUSH1 0x20 PUSH1 0x0 KECCAK256 SWAP1 JUMPDEST DUP2 SLOAD DUP2 MSTORE SWAP1 PUSH1 0x1 ADD SWAP1 PUSH1 0x20 ADD DUP1 DUP4 GT PUSH2 0x1F80 JUMPI DUP3 SWAP1 SUB PUSH1 0x1F AND DUP3 ADD SWAP2 JUMPDEST POP POP POP POP POP DUP2 MSTORE PUSH1 0x20 ADD PUSH1 0x4 DUP3 ADD DUP1 SLOAD PUSH2 0x1FB6 SWAP1 PUSH2 0x3E37 JUMP JUMPDEST DUP1 PUSH1 0x1F ADD PUSH1 0x20 DUP1 SWAP2 DIV MUL PUSH1 0x20 ADD PUSH1 0x40 MLOAD SWAP1 DUP2 ADD PUSH1 0x40 MSTORE DUP1 SWAP3 SWAP2 SWAP1 DUP2 DUP2 MSTORE PUSH1 0x20 ADD DUP3 DUP1 SLOAD PUSH2 0x1FE2 SWAP1 PUSH2 0x3E37 JUMP JUMPDEST DUP1 ISZERO PUSH2 0x202F JUMPI DUP1 PUSH1 0x1F LT PUSH2 0x2004 JUMPI PUSH2 0x100 DUP1 DUP4 SLOAD DIV MUL DUP4 MSTORE SWAP2 PUSH1 0x20 ADD SWAP2 PUSH2 0x202F JUMP JUMPDEST DUP3 ADD SWAP2 SWAP1 PUSH1 0x0 MSTORE PUSH1 0x20 PUSH1 0x0 KECCAK256 SWAP1 JUMPDEST DUP2 SLOAD DUP2 MSTORE SWAP1 PUSH1 0x1 ADD SWAP1 PUSH1 0x20 ADD DUP1 DUP4 GT PUSH2 0x2012 JUMPI DUP3 SWAP1 SUB PUSH1 0x1F AND DUP3 ADD SWAP2 JUMPDEST POP POP POP POP POP DUP2 MSTORE PUSH1 0x20 ADD PUSH1 0x5 DUP3 ADD DUP1 SLOAD PUSH2 0x2048 SWAP1 PUSH2 0x3E37 JUMP JUMPDEST DUP1 PUSH1 0x1F ADD PUSH1 0x20 DUP1 SWAP2 DIV MUL PUSH1 0x20 ADD PUSH1 0x40 MLOAD SWAP1 DUP2 ADD PUSH1 0x40 MSTORE DUP1 SWAP3 SWAP2 SWAP1 DUP2 DUP2 MSTORE PUSH1 0x20 ADD DUP3 DUP1 SLOAD PUSH2 0x2074 SWAP1 PUSH2 0x3E37 JUMP JUMPDEST DUP1 ISZERO PUSH2 0x20C1 JUMPI DUP1 PUSH1 0x1F LT PUSH2 0x2096 JUMPI PUSH2 0x100 DUP1 DUP4 SLOAD DIV MUL DUP4 MSTORE SWAP2 PUSH1 0x20 ADD SWAP2 PUSH2 0x20C1 JUMP JUMPDEST DUP3 ADD SWAP2 SWAP1 PUSH1 0x0 MSTORE PUSH1 0x20 PUSH1 0x0 KECCAK256 SWAP1 JUMPDEST DUP2 SLOAD DUP2 MSTORE SWAP1 PUSH1 0x1 ADD SWAP1 PUSH1 0x20 ADD DUP1 DUP4 GT PUSH2 0x20A4 JUMPI DUP3 SWAP1 SUB PUSH1 0x1F AND DUP3 ADD SWAP2 JUMPDEST POP POP POP POP POP DUP2 MSTORE PUSH1 0x20 ADD PUSH1 0x6 DUP3 ADD DUP1 SLOAD PUSH2 0x20DA SWAP1 PUSH2 0x3E37 JUMP JUMPDEST DUP1 PUSH1 0x1F ADD PUSH1 0x20 DUP1 SWAP2 DIV MUL PUSH1 0x20 ADD PUSH1 0x40 MLOAD SWAP1 DUP2 ADD PUSH1 0x40 MSTORE DUP1 SWAP3 SWAP2 SWAP1 DUP2 DUP2 MSTORE PUSH1 0x20 ADD DUP3 DUP1 SLOAD PUSH2 0x2106 SWAP1 PUSH2 0x3E37 JUMP JUMPDEST DUP1 ISZERO PUSH2 0x2153 JUMPI DUP1 PUSH1 0x1F LT PUSH2 0x2128 JUMPI PUSH2 0x100 DUP1 DUP4 SLOAD DIV MUL DUP4 MSTORE SWAP2 PUSH1 0x20 ADD SWAP2 PUSH2 0x2153 JUMP JUMPDEST DUP3 ADD SWAP2 SWAP1 PUSH1 0x0 MSTORE PUSH1 0x20 PUSH1 0x0 KECCAK256 SWAP1 JUMPDEST DUP2 SLOAD DUP2 MSTORE SWAP1 PUSH1 0x1 ADD SWAP1 PUSH1 0x20 ADD DUP1 DUP4 GT PUSH2 0x2136 JUMPI DUP3 SWAP1 SUB PUSH1 0x1F AND DUP3 ADD SWAP2 JUMPDEST POP POP POP POP POP DUP2 MSTORE PUSH1 0x20 ADD PUSH1 0x7 DUP3 ADD DUP1 SLOAD PUSH2 0x216C SWAP1 PUSH2 0x3E37 JUMP JUMPDEST DUP1 PUSH1 0x1F ADD PUSH1 0x20 DUP1 SWAP2 DIV MUL PUSH1 0x20 ADD PUSH1 0x40 MLOAD SWAP1 DUP2 ADD PUSH1 0x40 MSTORE DUP1 SWAP3 SWAP2 SWAP1 DUP2 DUP2 MSTORE PUSH1 0x20 ADD DUP3 DUP1 SLOAD PUSH2 0x2198 SWAP1 PUSH2 0x3E37 JUMP JUMPDEST DUP1 ISZERO PUSH2 0x21E5 JUMPI DUP1 PUSH1 0x1F LT PUSH2 0x21BA JUMPI PUSH2 0x100 DUP1 DUP4 SLOAD DIV MUL DUP4 MSTORE SWAP2 PUSH1 0x20 ADD SWAP2 PUSH2 0x21E5 JUMP JUMPDEST DUP3 ADD SWAP2 SWAP1 PUSH1 0x0 MSTORE PUSH1 0x20 PUSH1 0x0 KECCAK256 SWAP1 JUMPDEST DUP2 SLOAD DUP2 MSTORE SWAP1 PUSH1 0x1 ADD SWAP1 PUSH1 0x20 ADD DUP1 DUP4 GT PUSH2 0x21C8 JUMPI DUP3 SWAP1 SUB PUSH1 0x1F AND DUP3 ADD SWAP2 JUMPDEST POP POP POP POP POP DUP2 MSTORE PUSH1 0x20 ADD PUSH1 0x8 DUP3 ADD DUP1 SLOAD PUSH2 0x21FE SWAP1 PUSH2 0x3E37 JUMP JUMPDEST DUP1 PUSH1 0x1F ADD PUSH1 0x20 DUP1 SWAP2 DIV MUL PUSH1 0x20 ADD PUSH1 0x40 MLOAD SWAP1 DUP2 ADD PUSH1 0x40 MSTORE DUP1 SWAP3 SWAP2 SWAP1 DUP2 DUP2 MSTORE PUSH1 0x20 ADD DUP3 DUP1 SLOAD PUSH2 0x222A SWAP1 PUSH2 0x3E37 JUMP JUMPDEST DUP1 ISZERO PUSH2 0x2277 JUMPI DUP1 PUSH1 0x1F LT PUSH2 0x224C JUMPI PUSH2 0x100 DUP1 DUP4 SLOAD DIV MUL DUP4 MSTORE SWAP2 PUSH1 0x20 ADD SWAP2 PUSH2 0x2277 JUMP JUMPDEST DUP3 ADD SWAP2 SWAP1 PUSH1 0x0 MSTORE PUSH1 0x20 PUSH1 0x0 KECCAK256 SWAP1 JUMPDEST DUP2 SLOAD DUP2 MSTORE SWAP1 PUSH1 0x1 ADD SWAP1 PUSH1 0x20 ADD DUP1 DUP4 GT PUSH2 0x225A JUMPI DUP3 SWAP1 SUB PUSH1 0x1F AND DUP3 ADD SWAP2 JUMPDEST POP POP POP POP POP DUP2 MSTORE PUSH1 0x20 ADD PUSH1 0x9 DUP3 ADD DUP1 SLOAD PUSH2 0x2290 SWAP1 PUSH2 0x3E37 JUMP JUMPDEST DUP1 PUSH1 0x1F ADD PUSH1 0x20 DUP1 SWAP2 DIV MUL PUSH1 0x20 ADD PUSH1 0x40 MLOAD SWAP1 DUP2 ADD PUSH1 0x40 MSTORE DUP1 SWAP3 SWAP2 SWAP1 DUP2 DUP2 MSTORE PUSH1 0x20 ADD DUP3 DUP1 SLOAD PUSH2 0x22BC SWAP1 PUSH2 0x3E37 JUMP JUMPDEST DUP1 ISZERO PUSH2 0x2309 JUMPI DUP1 PUSH1 0x1F LT PUSH2 0x22DE JUMPI PUSH2 0x100 DUP1 DUP4 SLOAD DIV MUL DUP4 MSTORE SWAP2 PUSH1 0x20 ADD SWAP2 PUSH2 0x2309 JUMP JUMPDEST DUP3 ADD SWAP2 SWAP1 PUSH1 0x0 MSTORE PUSH1 0x20 PUSH1 0x0 KECCAK256 SWAP1 JUMPDEST DUP2 SLOAD DUP2 MSTORE SWAP1 PUSH1 0x1 ADD SWAP1 PUSH1 0x20 ADD DUP1 DUP4 GT PUSH2 0x22EC JUMPI DUP3 SWAP1 SUB PUSH1 0x1F AND DUP3 ADD SWAP2 JUMPDEST POP POP POP POP POP DUP2 MSTORE PUSH1 0x20 ADD PUSH1 0xA DUP3 ADD DUP1 SLOAD PUSH2 0x2322 SWAP1 PUSH2 0x3E37 JUMP JUMPDEST DUP1 PUSH1 0x1F ADD PUSH1 0x20 DUP1 SWAP2 DIV MUL PUSH1 0x20 ADD PUSH1 0x40 MLOAD SWAP1 DUP2 ADD PUSH1 0x40 MSTORE DUP1 SWAP3 SWAP2 SWAP1 DUP2 DUP2 MSTORE PUSH1 0x20 ADD DUP3 DUP1 SLOAD PUSH2 0x234E SWAP1 PUSH2 0x3E37 JUMP JUMPDEST DUP1 ISZERO PUSH2 0x239B JUMPI DUP1 PUSH1 0x1F LT PUSH2 0x2370 JUMPI PUSH2 0x100 DUP1 DUP4 SLOAD DIV MUL DUP4 MSTORE SWAP2 PUSH1 0x20 ADD SWAP2 PUSH2 0x239B JUMP JUMPDEST DUP3 ADD SWAP2 SWAP1 PUSH1 0x0 MSTORE PUSH1 0x20 PUSH1 0x0 KECCAK256 SWAP1 JUMPDEST DUP2 SLOAD DUP2 MSTORE SWAP1 PUSH1 0x1 ADD SWAP1 PUSH1 0x20 ADD DUP1 DUP4 GT PUSH2 0x237E JUMPI DUP3 SWAP1 SUB PUSH1 0x1F AND DUP3 ADD SWAP2 JUMPDEST POP POP POP POP POP DUP2 MSTORE PUSH1 0x20 ADD PUSH1 0xB DUP3 ADD DUP1 SLOAD PUSH2 0x23B4 SWAP1 PUSH2 0x3E37 JUMP JUMPDEST DUP1 PUSH1 0x1F ADD PUSH1 0x20 DUP1 SWAP2 DIV MUL PUSH1 0x20 ADD PUSH1 0x40 MLOAD SWAP1 DUP2 ADD PUSH1 0x40 MSTORE DUP1 SWAP3 SWAP2 SWAP1 DUP2 DUP2 MSTORE PUSH1 0x20 ADD DUP3 DUP1 SLOAD PUSH2 0x23E0 SWAP1 PUSH2 0x3E37 JUMP JUMPDEST DUP1 ISZERO PUSH2 0x242D JUMPI DUP1 PUSH1 0x1F LT PUSH2 0x2402 JUMPI PUSH2 0x100 DUP1 DUP4 SLOAD DIV MUL DUP4 MSTORE SWAP2 PUSH1 0x20 ADD SWAP2 PUSH2 0x242D JUMP JUMPDEST DUP3 ADD SWAP2 SWAP1 PUSH1 0x0 MSTORE PUSH1 0x20 PUSH1 0x0 KECCAK256 SWAP1 JUMPDEST DUP2 SLOAD DUP2 MSTORE SWAP1 PUSH1 0x1 ADD SWAP1 PUSH1 0x20 ADD DUP1 DUP4 GT PUSH2 0x2410 JUMPI DUP3 SWAP1 SUB PUSH1 0x1F AND DUP3 ADD SWAP2 JUMPDEST POP POP POP POP POP DUP2 MSTORE PUSH1 0x20 ADD PUSH1 0xC DUP3 ADD DUP1 SLOAD DUP1 PUSH1 0x20 MUL PUSH1 0x20 ADD PUSH1 0x40 MLOAD SWAP1 DUP2 ADD PUSH1 0x40 MSTORE DUP1 SWAP3 SWAP2 SWAP1 DUP2 DUP2 MSTORE PUSH1 0x20 ADD DUP3 DUP1 SLOAD DUP1 ISZERO PUSH2 0x2485 JUMPI PUSH1 0x20 MUL DUP3 ADD SWAP2 SWAP1 PUSH1 0x0 MSTORE PUSH1 0x20 PUSH1 0x0 KECCAK256 SWAP1 JUMPDEST DUP2 SLOAD DUP2 MSTORE PUSH1 0x20 ADD SWAP1 PUSH1 0x1 ADD SWAP1 DUP1 DUP4 GT PUSH2 0x2471 JUMPI JUMPDEST POP POP POP POP POP DUP2 MSTORE POP POP SWAP1 POP DUP1 PUSH1 0xC0 ADD MLOAD MLOAD PUSH1 0x0 EQ ISZERO DUP1 ISZERO PUSH2 0x24AA JUMPI POP PUSH1 0xE0 DUP2 ADD MLOAD MLOAD ISZERO ISZERO JUMPDEST DUP1 ISZERO PUSH2 0x24B7 JUMPI POP DUP1 MLOAD MLOAD ISZERO ISZERO JUMPDEST DUP1 ISZERO PUSH2 0x24C7 JUMPI POP PUSH1 0x20 DUP2 ADD MLOAD MLOAD ISZERO ISZERO JUMPDEST DUP1 ISZERO PUSH2 0x24D7 JUMPI POP PUSH1 0x40 DUP2 ADD MLOAD MLOAD ISZERO ISZERO JUMPDEST DUP1 ISZERO PUSH2 0x24E7 JUMPI POP PUSH1 0x60 DUP2 ADD MLOAD MLOAD ISZERO ISZERO JUMPDEST DUP1 ISZERO PUSH2 0x24F7 JUMPI POP PUSH1 0x80 DUP2 ADD MLOAD MLOAD ISZERO ISZERO JUMPDEST DUP1 ISZERO PUSH2 0x2507 JUMPI POP PUSH1 0xA0 DUP2 ADD MLOAD MLOAD ISZERO ISZERO JUMPDEST DUP1 ISZERO PUSH2 0x2518 JUMPI POP PUSH2 0x100 DUP2 ADD MLOAD MLOAD ISZERO ISZERO JUMPDEST ISZERO PUSH2 0x2527 JUMPI PUSH1 0x1 SWAP4 POP POP POP POP SWAP1 JUMP JUMPDEST POP DUP1 PUSH2 0x2532 DUP2 PUSH2 0x3E72 JUMP JUMPDEST SWAP2 POP POP PUSH2 0x1D27 JUMP JUMPDEST POP PUSH1 0x0 SWAP2 POP POP SWAP1 JUMP JUMPDEST PUSH2 0x254B PUSH2 0x25F1 JUMP JUMPDEST PUSH2 0x2554 DUP2 PUSH2 0x2D41 JUMP JUMPDEST POP JUMP JUMPDEST PUSH2 0x255F PUSH2 0x25F1 JUMP JUMPDEST PUSH1 0x0 DUP1 SLOAD PUSH1 0x1 PUSH1 0x1 PUSH1 0xA0 SHL SUB NOT AND PUSH1 0x1 PUSH1 0x1 PUSH1 0xA0 SHL SUB DUP4 AND OR SWAP1 SSTORE POP JUMP JUMPDEST PUSH1 0x8 DUP1 SLOAD PUSH2 0x18C6 SWAP1 PUSH2 0x3E37 JUMP JUMPDEST DUP2 MLOAD PUSH2 0x259D SWAP1 PUSH1 0x7 SWAP1 PUSH1 0x20 DUP6 ADD SWAP1 PUSH2 0x333F JUMP JUMPDEST POP DUP1 MLOAD PUSH2 0x25B1 SWAP1 PUSH1 0x8 SWAP1 PUSH1 0x20 DUP5 ADD SWAP1 PUSH2 0x333F JUMP JUMPDEST POP DUP3 PUSH32 0x7BAB0EC163B5C132C72B8146AC4D6E067E82ED58F8B131150AA71C9258911562 DUP4 DUP4 PUSH1 0x40 MLOAD PUSH2 0x25E4 SWAP3 SWAP2 SWAP1 PUSH2 0x3A38 JUMP JUMPDEST PUSH1 0x40 MLOAD DUP1 SWAP2 SUB SWAP1 LOG2 POP POP POP JUMP JUMPDEST PUSH1 0x2 SLOAD PUSH1 0x1 PUSH1 0x1 PUSH1 0xA0 SHL SUB AND CALLER EQ PUSH2 0x264B JUMPI PUSH1 0x40 MLOAD PUSH3 0x461BCD PUSH1 0xE5 SHL DUP2 MSTORE PUSH1 0x20 PUSH1 0x4 DUP3 ADD MSTORE PUSH1 0x16 PUSH1 0x24 DUP3 ADD MSTORE PUSH32 0x4F6E6C792063616C6C61626C65206279206F776E657200000000000000000000 PUSH1 0x44 DUP3 ADD MSTORE PUSH1 0x64 ADD PUSH2 0xC8A JUMP JUMPDEST JUMP JUMPDEST PUSH1 0x0 DUP2 DUP2 MSTORE PUSH1 0x1 PUSH1 0x20 MSTORE PUSH1 0x40 SWAP1 KECCAK256 SLOAD DUP2 SWAP1 PUSH1 0x1 PUSH1 0x1 PUSH1 0xA0 SHL SUB AND ISZERO PUSH2 0x269E JUMPI PUSH1 0x40 MLOAD PUSH32 0x8B457AD200000000000000000000000000000000000000000000000000000000 DUP2 MSTORE PUSH1 0x4 ADD PUSH1 0x40 MLOAD DUP1 SWAP2 SUB SWAP1 REVERT JUMPDEST POP PUSH1 0x0 SWAP1 DUP2 MSTORE PUSH1 0x1 PUSH1 0x20 MSTORE PUSH1 0x40 SWAP1 KECCAK256 DUP1 SLOAD PUSH1 0x1 PUSH1 0x1 PUSH1 0xA0 SHL SUB NOT AND PUSH1 0x1 PUSH1 0x1 PUSH1 0xA0 SHL SUB SWAP3 SWAP1 SWAP3 AND SWAP2 SWAP1 SWAP2 OR SWAP1 SSTORE JUMP JUMPDEST PUSH2 0x2554 DUP2 PUSH1 0x40 MLOAD PUSH1 0x24 ADD PUSH2 0x26E1 SWAP2 SWAP1 PUSH2 0x3A25 JUMP JUMPDEST PUSH1 0x40 DUP1 MLOAD PUSH1 0x1F NOT DUP2 DUP5 SUB ADD DUP2 MSTORE SWAP2 SWAP1 MSTORE PUSH1 0x20 DUP2 ADD DUP1 MLOAD PUSH28 0xFFFFFFFFFFFFFFFFFFFFFFFFFFFFFFFFFFFFFFFFFFFFFFFFFFFFFFFF AND PUSH32 0x41304FAC00000000000000000000000000000000000000000000000000000000 OR SWAP1 MSTORE PUSH2 0x2DEC JUMP JUMPDEST DUP1 MLOAD PUSH2 0x2776 JUMPI PUSH1 0x40 MLOAD PUSH32 0x22CE3EDD00000000000000000000000000000000000000000000000000000000 DUP2 MSTORE PUSH1 0x4 ADD PUSH1 0x40 MLOAD DUP1 SWAP2 SUB SWAP1 REVERT JUMPDEST DUP4 DUP4 PUSH1 0x1 DUP2 GT ISZERO PUSH2 0x2789 JUMPI PUSH2 0x2789 PUSH2 0x3EC5 JUMP JUMPDEST SWAP1 DUP2 PUSH1 0x1 DUP2 GT ISZERO PUSH2 0x279C JUMPI PUSH2 0x279C PUSH2 0x3EC5 JUMP JUMPDEST SWAP1 MSTORE POP PUSH1 0x40 DUP5 ADD DUP3 DUP1 ISZERO PUSH2 0x27B2 JUMPI PUSH2 0x27B2 PUSH2 0x3EC5 JUMP JUMPDEST SWAP1 DUP2 DUP1 ISZERO PUSH2 0x27C2 JUMPI PUSH2 0x27C2 PUSH2 0x3EC5 JUMP JUMPDEST SWAP1 MSTORE POP PUSH1 0x60 SWAP1 SWAP4 ADD SWAP3 SWAP1 SWAP3 MSTORE POP POP JUMP JUMPDEST DUP1 MLOAD PUSH2 0x280A JUMPI PUSH1 0x40 MLOAD PUSH32 0xE889636F00000000000000000000000000000000000000000000000000000000 DUP2 MSTORE PUSH1 0x4 ADD PUSH1 0x40 MLOAD DUP1 SWAP2 SUB SWAP1 REVERT JUMPDEST PUSH1 0x1 PUSH1 0x20 DUP4 ADD MSTORE PUSH1 0x80 SWAP1 SWAP2 ADD MSTORE JUMP JUMPDEST DUP1 MLOAD PUSH2 0x2851 JUMPI PUSH1 0x40 MLOAD PUSH32 0xFE936CB700000000000000000000000000000000000000000000000000000000 DUP2 MSTORE PUSH1 0x4 ADD PUSH1 0x40 MLOAD DUP1 SWAP2 SUB SWAP1 REVERT JUMPDEST PUSH1 0xA0 SWAP1 SWAP2 ADD MSTORE JUMP JUMPDEST PUSH1 0x60 PUSH1 0x0 PUSH2 0x2866 DUP4 PUSH2 0x2E0D JUMP JUMPDEST PUSH1 0x1 ADD SWAP1 POP PUSH1 0x0 DUP2 PUSH8 0xFFFFFFFFFFFFFFFF DUP2 GT ISZERO PUSH2 0x2886 JUMPI PUSH2 0x2886 PUSH2 0x3EF1 JUMP JUMPDEST PUSH1 0x40 MLOAD SWAP1 DUP1 DUP3 MSTORE DUP1 PUSH1 0x1F ADD PUSH1 0x1F NOT AND PUSH1 0x20 ADD DUP3 ADD PUSH1 0x40 MSTORE DUP1 ISZERO PUSH2 0x28B0 JUMPI PUSH1 0x20 DUP3 ADD DUP2 DUP1 CALLDATASIZE DUP4 CALLDATACOPY ADD SWAP1 POP JUMPDEST POP SWAP1 POP DUP2 DUP2 ADD PUSH1 0x20 ADD JUMPDEST PUSH1 0x0 NOT ADD PUSH32 0x3031323334353637383961626364656600000000000000000000000000000000 PUSH1 0xA DUP7 MOD BYTE DUP2 MSTORE8 PUSH1 0xA DUP6 DIV SWAP5 POP DUP5 PUSH2 0x28F6 JUMPI PUSH2 0x28FB JUMP JUMPDEST PUSH2 0x28BA JUMP JUMPDEST POP SWAP4 SWAP3 POP POP POP JUMP JUMPDEST PUSH1 0x0 DUP1 SLOAD DUP2 SWAP1 PUSH1 0x1 PUSH1 0x1 PUSH1 0xA0 SHL SUB AND PUSH4 0x28242B04 DUP6 PUSH2 0x2921 DUP9 PUSH2 0x2A75 JUMP JUMPDEST DUP7 PUSH1 0x40 MLOAD DUP5 PUSH4 0xFFFFFFFF AND PUSH1 0xE0 SHL DUP2 MSTORE PUSH1 0x4 ADD PUSH2 0x2940 SWAP4 SWAP3 SWAP2 SWAP1 PUSH2 0x3B63 JUMP JUMPDEST PUSH1 0x20 PUSH1 0x40 MLOAD DUP1 DUP4 SUB DUP2 PUSH1 0x0 DUP8 DUP1 EXTCODESIZE ISZERO DUP1 ISZERO PUSH2 0x295A JUMPI PUSH1 0x0 DUP1 REVERT JUMPDEST POP GAS CALL ISZERO DUP1 ISZERO PUSH2 0x296E JUMPI RETURNDATASIZE PUSH1 0x0 DUP1 RETURNDATACOPY RETURNDATASIZE PUSH1 0x0 REVERT JUMPDEST POP POP POP POP PUSH1 0x40 MLOAD RETURNDATASIZE PUSH1 0x1F NOT PUSH1 0x1F DUP3 ADD AND DUP3 ADD DUP1 PUSH1 0x40 MSTORE POP DUP2 ADD SWAP1 PUSH2 0x2992 SWAP2 SWAP1 PUSH2 0x3636 JUMP JUMPDEST SWAP1 POP PUSH1 0x0 DUP1 SLOAD SWAP1 PUSH2 0x100 EXP SWAP1 DIV PUSH1 0x1 PUSH1 0x1 PUSH1 0xA0 SHL SUB AND PUSH1 0x1 PUSH1 0x1 PUSH1 0xA0 SHL SUB AND PUSH4 0x5AB1BD53 PUSH1 0x40 MLOAD DUP2 PUSH4 0xFFFFFFFF AND PUSH1 0xE0 SHL DUP2 MSTORE PUSH1 0x4 ADD PUSH1 0x20 PUSH1 0x40 MLOAD DUP1 DUP4 SUB DUP2 DUP7 DUP1 EXTCODESIZE ISZERO DUP1 ISZERO PUSH2 0x29E0 JUMPI PUSH1 0x0 DUP1 REVERT JUMPDEST POP GAS STATICCALL ISZERO DUP1 ISZERO PUSH2 0x29F4 JUMPI RETURNDATASIZE PUSH1 0x0 DUP1 RETURNDATACOPY RETURNDATASIZE PUSH1 0x0 REVERT JUMPDEST POP POP POP POP PUSH1 0x40 MLOAD RETURNDATASIZE PUSH1 0x1F NOT PUSH1 0x1F DUP3 ADD AND DUP3 ADD DUP1 PUSH1 0x40 MSTORE POP DUP2 ADD SWAP1 PUSH2 0x2A18 SWAP2 SWAP1 PUSH2 0x35ED JUMP JUMPDEST PUSH1 0x0 DUP3 DUP2 MSTORE PUSH1 0x1 PUSH1 0x20 MSTORE PUSH1 0x40 DUP1 DUP3 KECCAK256 DUP1 SLOAD PUSH1 0x1 PUSH1 0x1 PUSH1 0xA0 SHL SUB NOT AND PUSH1 0x1 PUSH1 0x1 PUSH1 0xA0 SHL SUB SWAP5 SWAP1 SWAP5 AND SWAP4 SWAP1 SWAP4 OR SWAP1 SWAP3 SSTORE SWAP1 MLOAD DUP3 SWAP2 PUSH32 0x1131472297A800FEE664D1D89CFA8F7676FF07189ECC53F80BBB5F4969099DB8 SWAP2 LOG2 SWAP5 SWAP4 POP POP POP POP JUMP JUMPDEST PUSH1 0x60 PUSH2 0x2A7F PUSH2 0x33FD JUMP JUMPDEST DUP1 MLOAD PUSH2 0x2A8D SWAP1 PUSH2 0x100 PUSH2 0x2EF0 JUMP JUMPDEST POP PUSH2 0x2ACD DUP2 PUSH1 0x40 MLOAD DUP1 PUSH1 0x40 ADD PUSH1 0x40 MSTORE DUP1 PUSH1 0xC DUP2 MSTORE PUSH1 0x20 ADD PUSH32 0x636F64654C6F636174696F6E0000000000000000000000000000000000000000 DUP2 MSTORE POP PUSH2 0x2F67 JUMP JUMPDEST PUSH2 0x2AEC DUP2 DUP5 PUSH1 0x0 ADD MLOAD PUSH1 0x1 DUP2 GT ISZERO PUSH2 0x2AE7 JUMPI PUSH2 0x2AE7 PUSH2 0x3EC5 JUMP JUMPDEST PUSH2 0x2F85 JUMP JUMPDEST PUSH2 0x2B2B DUP2 PUSH1 0x40 MLOAD DUP1 PUSH1 0x40 ADD PUSH1 0x40 MSTORE DUP1 PUSH1 0x8 DUP2 MSTORE PUSH1 0x20 ADD PUSH32 0x6C616E6775616765000000000000000000000000000000000000000000000000 DUP2 MSTORE POP PUSH2 0x2F67 JUMP JUMPDEST PUSH2 0x2B45 DUP2 DUP5 PUSH1 0x40 ADD MLOAD PUSH1 0x0 DUP2 GT ISZERO PUSH2 0x2AE7 JUMPI PUSH2 0x2AE7 PUSH2 0x3EC5 JUMP JUMPDEST PUSH2 0x2B84 DUP2 PUSH1 0x40 MLOAD DUP1 PUSH1 0x40 ADD PUSH1 0x40 MSTORE DUP1 PUSH1 0x6 DUP2 MSTORE PUSH1 0x20 ADD PUSH32 0x736F757263650000000000000000000000000000000000000000000000000000 DUP2 MSTORE POP PUSH2 0x2F67 JUMP JUMPDEST PUSH2 0x2B92 DUP2 DUP5 PUSH1 0x60 ADD MLOAD PUSH2 0x2F67 JUMP JUMPDEST PUSH1 0xA0 DUP4 ADD MLOAD MLOAD ISZERO PUSH2 0x2C38 JUMPI PUSH2 0x2BDC DUP2 PUSH1 0x40 MLOAD DUP1 PUSH1 0x40 ADD PUSH1 0x40 MSTORE DUP1 PUSH1 0x4 DUP2 MSTORE PUSH1 0x20 ADD PUSH32 0x6172677300000000000000000000000000000000000000000000000000000000 DUP2 MSTORE POP PUSH2 0x2F67 JUMP JUMPDEST PUSH2 0x2BE5 DUP2 PUSH2 0x2FBE JUMP JUMPDEST PUSH1 0x0 JUMPDEST DUP4 PUSH1 0xA0 ADD MLOAD MLOAD DUP2 LT ISZERO PUSH2 0x2C2E JUMPI PUSH2 0x2C1C DUP3 DUP6 PUSH1 0xA0 ADD MLOAD DUP4 DUP2 MLOAD DUP2 LT PUSH2 0x2C0F JUMPI PUSH2 0x2C0F PUSH2 0x3EDB JUMP JUMPDEST PUSH1 0x20 MUL PUSH1 0x20 ADD ADD MLOAD PUSH2 0x2F67 JUMP JUMPDEST DUP1 PUSH2 0x2C26 DUP2 PUSH2 0x3E72 JUMP JUMPDEST SWAP2 POP POP PUSH2 0x2BE8 JUMP JUMPDEST POP PUSH2 0x2C38 DUP2 PUSH2 0x2FE2 JUMP JUMPDEST PUSH1 0x80 DUP4 ADD MLOAD MLOAD ISZERO PUSH2 0x2D39 JUMPI PUSH1 0x0 DUP4 PUSH1 0x20 ADD MLOAD PUSH1 0x1 DUP2 GT ISZERO PUSH2 0x2C5B JUMPI PUSH2 0x2C5B PUSH2 0x3EC5 JUMP JUMPDEST EQ ISZERO PUSH2 0x2C93 JUMPI PUSH1 0x40 MLOAD PUSH32 0xA80D31F700000000000000000000000000000000000000000000000000000000 DUP2 MSTORE PUSH1 0x4 ADD PUSH1 0x40 MLOAD DUP1 SWAP2 SUB SWAP1 REVERT JUMPDEST PUSH2 0x2CD2 DUP2 PUSH1 0x40 MLOAD DUP1 PUSH1 0x40 ADD PUSH1 0x40 MSTORE DUP1 PUSH1 0xF DUP2 MSTORE PUSH1 0x20 ADD PUSH32 0x736563726574734C6F636174696F6E0000000000000000000000000000000000 DUP2 MSTORE POP PUSH2 0x2F67 JUMP JUMPDEST PUSH2 0x2CEC DUP2 DUP5 PUSH1 0x20 ADD MLOAD PUSH1 0x1 DUP2 GT ISZERO PUSH2 0x2AE7 JUMPI PUSH2 0x2AE7 PUSH2 0x3EC5 JUMP JUMPDEST PUSH2 0x2D2B DUP2 PUSH1 0x40 MLOAD DUP1 PUSH1 0x40 ADD PUSH1 0x40 MSTORE DUP1 PUSH1 0x7 DUP2 MSTORE PUSH1 0x20 ADD PUSH32 0x7365637265747300000000000000000000000000000000000000000000000000 DUP2 MSTORE POP PUSH2 0x2F67 JUMP JUMPDEST PUSH2 0x2D39 DUP2 DUP5 PUSH1 0x80 ADD MLOAD PUSH2 0x3000 JUMP JUMPDEST MLOAD MLOAD SWAP3 SWAP2 POP POP JUMP JUMPDEST PUSH1 0x1 PUSH1 0x1 PUSH1 0xA0 SHL SUB DUP2 AND CALLER EQ ISZERO PUSH2 0x2D9A JUMPI PUSH1 0x40 MLOAD PUSH3 0x461BCD PUSH1 0xE5 SHL DUP2 MSTORE PUSH1 0x20 PUSH1 0x4 DUP3 ADD MSTORE PUSH1 0x17 PUSH1 0x24 DUP3 ADD MSTORE PUSH32 0x43616E6E6F74207472616E7366657220746F2073656C66000000000000000000 PUSH1 0x44 DUP3 ADD MSTORE PUSH1 0x64 ADD PUSH2 0xC8A JUMP JUMPDEST PUSH1 0x3 DUP1 SLOAD PUSH1 0x1 PUSH1 0x1 PUSH1 0xA0 SHL SUB NOT AND PUSH1 0x1 PUSH1 0x1 PUSH1 0xA0 SHL SUB DUP4 DUP2 AND SWAP2 DUP3 OR SWAP1 SWAP3 SSTORE PUSH1 0x2 SLOAD PUSH1 0x40 MLOAD SWAP2 SWAP3 AND SWAP1 PUSH32 0xED8889F560326EB138920D842192F0EB3DD22B4F139C87A2C57538E05BAE1278 SWAP1 PUSH1 0x0 SWAP1 LOG3 POP JUMP JUMPDEST DUP1 MLOAD PUSH11 0x636F6E736F6C652E6C6F67 PUSH1 0x20 DUP4 ADD PUSH1 0x0 DUP1 DUP5 DUP4 DUP6 GAS STATICCALL POP POP POP POP POP JUMP JUMPDEST PUSH1 0x0 DUP1 PUSH27 0x184F03E93FF9F4DAA797ED6E38ED64BF6A1F010000000000000000 DUP4 LT PUSH2 0x2E56 JUMPI PUSH27 0x184F03E93FF9F4DAA797ED6E38ED64BF6A1F010000000000000000 DUP4 DIV SWAP3 POP PUSH1 0x40 ADD JUMPDEST PUSH14 0x4EE2D6D415B85ACEF8100000000 DUP4 LT PUSH2 0x2E82 JUMPI PUSH14 0x4EE2D6D415B85ACEF8100000000 DUP4 DIV SWAP3 POP PUSH1 0x20 ADD JUMPDEST PUSH7 0x2386F26FC10000 DUP4 LT PUSH2 0x2EA0 JUMPI PUSH7 0x2386F26FC10000 DUP4 DIV SWAP3 POP PUSH1 0x10 ADD JUMPDEST PUSH4 0x5F5E100 DUP4 LT PUSH2 0x2EB8 JUMPI PUSH4 0x5F5E100 DUP4 DIV SWAP3 POP PUSH1 0x8 ADD JUMPDEST PUSH2 0x2710 DUP4 LT PUSH2 0x2ECC JUMPI PUSH2 0x2710 DUP4 DIV SWAP3 POP PUSH1 0x4 ADD JUMPDEST PUSH1 0x64 DUP4 LT PUSH2 0x2EDE JUMPI PUSH1 0x64 DUP4 DIV SWAP3 POP PUSH1 0x2 ADD JUMPDEST PUSH1 0xA DUP4 LT PUSH2 0x2EEA JUMPI PUSH1 0x1 ADD JUMPDEST SWAP3 SWAP2 POP POP JUMP JUMPDEST PUSH1 0x40 DUP1 MLOAD DUP1 DUP3 ADD SWAP1 SWAP2 MSTORE PUSH1 0x60 DUP2 MSTORE PUSH1 0x0 PUSH1 0x20 DUP3 ADD MSTORE PUSH2 0x2F10 PUSH1 0x20 DUP4 PUSH2 0x3E8D JUMP JUMPDEST ISZERO PUSH2 0x2F38 JUMPI PUSH2 0x2F20 PUSH1 0x20 DUP4 PUSH2 0x3E8D JUMP JUMPDEST PUSH2 0x2F2B SWAP1 PUSH1 0x20 PUSH2 0x3DE7 JUMP JUMPDEST PUSH2 0x2F35 SWAP1 DUP4 PUSH2 0x3CC5 JUMP JUMPDEST SWAP2 POP JUMPDEST PUSH1 0x20 DUP1 DUP5 ADD DUP4 SWAP1 MSTORE PUSH1 0x40 MLOAD DUP1 DUP6 MSTORE PUSH1 0x0 DUP2 MSTORE SWAP1 DUP2 DUP5 ADD ADD DUP2 DUP2 LT ISZERO PUSH2 0x2F5C JUMPI PUSH1 0x0 DUP1 REVERT JUMPDEST PUSH1 0x40 MSTORE POP SWAP2 SWAP3 SWAP2 POP POP JUMP JUMPDEST PUSH2 0x2F74 DUP3 PUSH1 0x3 DUP4 MLOAD PUSH2 0x3009 JUMP JUMPDEST DUP2 MLOAD PUSH2 0x2F80 SWAP1 DUP3 PUSH2 0x312A JUMP JUMPDEST POP POP POP JUMP JUMPDEST DUP2 MLOAD PUSH2 0x2F92 SWAP1 PUSH1 0xC2 PUSH2 0x3152 JUMP JUMPDEST POP PUSH2 0xC0A DUP3 DUP3 PUSH1 0x40 MLOAD PUSH1 0x20 ADD PUSH2 0x2FAA SWAP2 DUP2 MSTORE PUSH1 0x20 ADD SWAP1 JUMP JUMPDEST PUSH1 0x40 MLOAD PUSH1 0x20 DUP2 DUP4 SUB SUB DUP2 MSTORE SWAP1 PUSH1 0x40 MSTORE PUSH2 0x3000 JUMP JUMPDEST PUSH2 0x2FC9 DUP2 PUSH1 0x4 PUSH2 0x31BB JUMP JUMPDEST PUSH1 0x1 DUP2 PUSH1 0x20 ADD DUP2 DUP2 MLOAD PUSH2 0x2FDC SWAP2 SWAP1 PUSH2 0x3CC5 JUMP JUMPDEST SWAP1 MSTORE POP POP JUMP JUMPDEST PUSH2 0x2FED DUP2 PUSH1 0x7 PUSH2 0x31BB JUMP JUMPDEST PUSH1 0x1 DUP2 PUSH1 0x20 ADD DUP2 DUP2 MLOAD PUSH2 0x2FDC SWAP2 SWAP1 PUSH2 0x3DE7 JUMP JUMPDEST PUSH2 0x2F74 DUP3 PUSH1 0x2 DUP4 MLOAD JUMPDEST PUSH1 0x17 DUP2 PUSH8 0xFFFFFFFFFFFFFFFF AND GT PUSH2 0x3030 JUMPI DUP3 MLOAD PUSH2 0x515 SWAP1 PUSH1 0xE0 PUSH1 0x5 DUP6 SWAP1 SHL AND DUP4 OR PUSH2 0x3152 JUMP JUMPDEST PUSH1 0xFF DUP2 PUSH8 0xFFFFFFFFFFFFFFFF AND GT PUSH2 0x3072 JUMPI DUP3 MLOAD PUSH2 0x3059 SWAP1 PUSH1 0x18 PUSH2 0x1FE0 PUSH1 0x5 DUP7 SWAP1 SHL AND OR PUSH2 0x3152 JUMP JUMPDEST POP DUP3 MLOAD PUSH2 0x515 SWAP1 PUSH8 0xFFFFFFFFFFFFFFFF DUP4 AND PUSH1 0x1 PUSH2 0x31D2 JUMP JUMPDEST PUSH2 0xFFFF DUP2 PUSH8 0xFFFFFFFFFFFFFFFF AND GT PUSH2 0x30B5 JUMPI DUP3 MLOAD PUSH2 0x309C SWAP1 PUSH1 0x19 PUSH2 0x1FE0 PUSH1 0x5 DUP7 SWAP1 SHL AND OR PUSH2 0x3152 JUMP JUMPDEST POP DUP3 MLOAD PUSH2 0x515 SWAP1 PUSH8 0xFFFFFFFFFFFFFFFF DUP4 AND PUSH1 0x2 PUSH2 0x31D2 JUMP JUMPDEST PUSH4 0xFFFFFFFF DUP2 PUSH8 0xFFFFFFFFFFFFFFFF AND GT PUSH2 0x30FA JUMPI DUP3 MLOAD PUSH2 0x30E1 SWAP1 PUSH1 0x1A PUSH2 0x1FE0 PUSH1 0x5 DUP7 SWAP1 SHL AND OR PUSH2 0x3152 JUMP JUMPDEST POP DUP3 MLOAD PUSH2 0x515 SWAP1 PUSH8 0xFFFFFFFFFFFFFFFF DUP4 AND PUSH1 0x4 PUSH2 0x31D2 JUMP JUMPDEST DUP3 MLOAD PUSH2 0x3111 SWAP1 PUSH1 0x1B PUSH2 0x1FE0 PUSH1 0x5 DUP7 SWAP1 SHL AND OR PUSH2 0x3152 JUMP JUMPDEST POP DUP3 MLOAD PUSH2 0x515 SWAP1 PUSH8 0xFFFFFFFFFFFFFFFF DUP4 AND PUSH1 0x8 PUSH2 0x31D2 JUMP JUMPDEST PUSH1 0x40 DUP1 MLOAD DUP1 DUP3 ADD SWAP1 SWAP2 MSTORE PUSH1 0x60 DUP2 MSTORE PUSH1 0x0 PUSH1 0x20 DUP3 ADD MSTORE PUSH2 0x314B DUP4 DUP4 DUP5 MLOAD PUSH2 0x3257 JUMP JUMPDEST SWAP4 SWAP3 POP POP POP JUMP JUMPDEST PUSH1 0x40 DUP1 MLOAD DUP1 DUP3 ADD SWAP1 SWAP2 MSTORE PUSH1 0x60 DUP2 MSTORE PUSH1 0x0 PUSH1 0x20 DUP3 ADD MSTORE DUP3 MLOAD MLOAD PUSH1 0x0 PUSH2 0x3177 DUP3 PUSH1 0x1 PUSH2 0x3CC5 JUMP JUMPDEST SWAP1 POP DUP5 PUSH1 0x20 ADD MLOAD DUP3 LT PUSH2 0x3198 JUMPI PUSH2 0x3198 DUP6 PUSH2 0x3193 DUP4 PUSH1 0x2 PUSH2 0x3DC8 JUMP JUMPDEST PUSH2 0x3328 JUMP JUMPDEST DUP5 MLOAD PUSH1 0x20 DUP4 DUP3 ADD ADD DUP6 DUP2 MSTORE8 POP DUP1 MLOAD DUP3 GT ISZERO PUSH2 0x31B1 JUMPI DUP2 DUP2 MSTORE JUMPDEST POP SWAP4 SWAP5 SWAP4 POP POP POP POP JUMP JUMPDEST DUP2 MLOAD PUSH2 0x2F80 SWAP1 PUSH1 0x1F PUSH2 0x1FE0 PUSH1 0x5 DUP6 SWAP1 SHL AND OR PUSH2 0x3152 JUMP JUMPDEST PUSH1 0x40 DUP1 MLOAD DUP1 DUP3 ADD SWAP1 SWAP2 MSTORE PUSH1 0x60 DUP2 MSTORE PUSH1 0x0 PUSH1 0x20 DUP3 ADD MSTORE DUP4 MLOAD MLOAD PUSH1 0x0 PUSH2 0x31F6 DUP3 DUP6 PUSH2 0x3CC5 JUMP JUMPDEST SWAP1 POP DUP6 PUSH1 0x20 ADD MLOAD DUP2 GT ISZERO PUSH2 0x3213 JUMPI PUSH2 0x3213 DUP7 PUSH2 0x3193 DUP4 PUSH1 0x2 PUSH2 0x3DC8 JUMP JUMPDEST PUSH1 0x0 PUSH1 0x1 PUSH2 0x3223 DUP7 PUSH2 0x100 PUSH2 0x3D20 JUMP JUMPDEST PUSH2 0x322D SWAP2 SWAP1 PUSH2 0x3DE7 JUMP JUMPDEST SWAP1 POP DUP7 MLOAD DUP3 DUP2 ADD DUP8 DUP4 NOT DUP3 MLOAD AND OR DUP2 MSTORE POP DUP1 MLOAD DUP4 GT ISZERO PUSH2 0x324B JUMPI DUP3 DUP2 MSTORE JUMPDEST POP SWAP6 SWAP7 SWAP6 POP POP POP POP POP POP JUMP JUMPDEST PUSH1 0x40 DUP1 MLOAD DUP1 DUP3 ADD SWAP1 SWAP2 MSTORE PUSH1 0x60 DUP2 MSTORE PUSH1 0x0 PUSH1 0x20 DUP3 ADD MSTORE DUP3 MLOAD DUP3 GT ISZERO PUSH2 0x327A JUMPI PUSH1 0x0 DUP1 REVERT JUMPDEST DUP4 MLOAD MLOAD PUSH1 0x0 PUSH2 0x3289 DUP5 DUP4 PUSH2 0x3CC5 JUMP JUMPDEST SWAP1 POP DUP6 PUSH1 0x20 ADD MLOAD DUP2 GT ISZERO PUSH2 0x32A6 JUMPI PUSH2 0x32A6 DUP7 PUSH2 0x3193 DUP4 PUSH1 0x2 PUSH2 0x3DC8 JUMP JUMPDEST DUP6 MLOAD DUP1 MLOAD DUP4 DUP3 ADD PUSH1 0x20 ADD SWAP2 PUSH1 0x0 SWAP2 DUP1 DUP6 GT ISZERO PUSH2 0x32C0 JUMPI DUP5 DUP3 MSTORE JUMPDEST POP POP POP PUSH1 0x20 DUP7 ADD JUMPDEST PUSH1 0x20 DUP7 LT PUSH2 0x3300 JUMPI DUP1 MLOAD DUP3 MSTORE PUSH2 0x32DF PUSH1 0x20 DUP4 PUSH2 0x3CC5 JUMP JUMPDEST SWAP2 POP PUSH2 0x32EC PUSH1 0x20 DUP3 PUSH2 0x3CC5 JUMP JUMPDEST SWAP1 POP PUSH2 0x32F9 PUSH1 0x20 DUP8 PUSH2 0x3DE7 JUMP JUMPDEST SWAP6 POP PUSH2 0x32C8 JUMP JUMPDEST MLOAD DUP2 MLOAD PUSH1 0x0 NOT PUSH1 0x20 DUP9 SWAP1 SUB PUSH2 0x100 EXP ADD SWAP1 DUP2 AND SWAP1 NOT SWAP2 SWAP1 SWAP2 AND OR SWAP1 MSTORE POP DUP5 SWAP2 POP POP SWAP4 SWAP3 POP POP POP JUMP JUMPDEST DUP2 MLOAD PUSH2 0x3334 DUP4 DUP4 PUSH2 0x2EF0 JUMP JUMPDEST POP PUSH2 0x515 DUP4 DUP3 PUSH2 0x312A JUMP JUMPDEST DUP3 DUP1 SLOAD PUSH2 0x334B SWAP1 PUSH2 0x3E37 JUMP JUMPDEST SWAP1 PUSH1 0x0 MSTORE PUSH1 0x20 PUSH1 0x0 KECCAK256 SWAP1 PUSH1 0x1F ADD PUSH1 0x20 SWAP1 DIV DUP2 ADD SWAP3 DUP3 PUSH2 0x336D JUMPI PUSH1 0x0 DUP6 SSTORE PUSH2 0x33B3 JUMP JUMPDEST DUP3 PUSH1 0x1F LT PUSH2 0x3386 JUMPI DUP1 MLOAD PUSH1 0xFF NOT AND DUP4 DUP1 ADD OR DUP6 SSTORE PUSH2 0x33B3 JUMP JUMPDEST DUP3 DUP1 ADD PUSH1 0x1 ADD DUP6 SSTORE DUP3 ISZERO PUSH2 0x33B3 JUMPI SWAP2 DUP3 ADD JUMPDEST DUP3 DUP2 GT ISZERO PUSH2 0x33B3 JUMPI DUP3 MLOAD DUP3 SSTORE SWAP2 PUSH1 0x20 ADD SWAP2 SWAP1 PUSH1 0x1 ADD SWAP1 PUSH2 0x3398 JUMP JUMPDEST POP PUSH2 0x33BF SWAP3 SWAP2 POP PUSH2 0x3432 JUMP JUMPDEST POP SWAP1 JUMP JUMPDEST DUP3 DUP1 SLOAD DUP3 DUP3 SSTORE SWAP1 PUSH1 0x0 MSTORE PUSH1 0x20 PUSH1 0x0 KECCAK256 SWAP1 DUP2 ADD SWAP3 DUP3 ISZERO PUSH2 0x33B3 JUMPI SWAP2 PUSH1 0x20 MUL DUP3 ADD DUP3 DUP2 GT ISZERO PUSH2 0x33B3 JUMPI DUP3 MLOAD DUP3 SSTORE SWAP2 PUSH1 0x20 ADD SWAP2 SWAP1 PUSH1 0x1 ADD SWAP1 PUSH2 0x3398 JUMP JUMPDEST PUSH1 0x40 MLOAD DUP1 PUSH1 0x40 ADD PUSH1 0x40 MSTORE DUP1 PUSH2 0x3425 PUSH1 0x40 MLOAD DUP1 PUSH1 0x40 ADD PUSH1 0x40 MSTORE DUP1 PUSH1 0x60 DUP2 MSTORE PUSH1 0x20 ADD PUSH1 0x0 DUP2 MSTORE POP SWAP1 JUMP JUMPDEST DUP2 MSTORE PUSH1 0x20 ADD PUSH1 0x0 DUP2 MSTORE POP SWAP1 JUMP JUMPDEST JUMPDEST DUP1 DUP3 GT ISZERO PUSH2 0x33BF JUMPI PUSH1 0x0 DUP2 SSTORE PUSH1 0x1 ADD PUSH2 0x3433 JUMP JUMPDEST PUSH1 0x0 PUSH2 0x345A PUSH2 0x3455 DUP5 PUSH2 0x3C79 JUMP JUMPDEST PUSH2 0x3C48 JUMP JUMPDEST SWAP1 POP DUP1 DUP4 DUP3 MSTORE PUSH1 0x20 DUP1 DUP4 ADD SWAP2 POP DUP4 DUP7 DUP7 PUSH1 0x5 SHL DUP7 ADD GT ISZERO PUSH2 0x347A JUMPI PUSH1 0x0 DUP1 REVERT JUMPDEST PUSH1 0x0 DUP1 JUMPDEST DUP8 DUP2 LT ISZERO PUSH2 0x34BB JUMPI DUP3 CALLDATALOAD PUSH8 0xFFFFFFFFFFFFFFFF DUP2 GT ISZERO PUSH2 0x349C JUMPI DUP3 DUP4 REVERT JUMPDEST PUSH2 0x34A8 DUP11 DUP3 DUP11 ADD PUSH2 0x3530 JUMP JUMPDEST DUP7 MSTORE POP SWAP4 DUP4 ADD SWAP4 SWAP2 DUP4 ADD SWAP2 PUSH1 0x1 ADD PUSH2 0x347E JUMP JUMPDEST POP POP POP POP POP SWAP4 SWAP3 POP POP POP JUMP JUMPDEST PUSH1 0x0 DUP3 PUSH1 0x1F DUP4 ADD SLT PUSH2 0x34D8 JUMPI PUSH1 0x0 DUP1 REVERT JUMPDEST PUSH2 0x314B DUP4 DUP4 CALLDATALOAD PUSH1 0x20 DUP6 ADD PUSH2 0x3447 JUMP JUMPDEST PUSH1 0x0 DUP1 DUP4 PUSH1 0x1F DUP5 ADD SLT PUSH2 0x34F9 JUMPI PUSH1 0x0 DUP1 REVERT JUMPDEST POP DUP2 CALLDATALOAD PUSH8 0xFFFFFFFFFFFFFFFF DUP2 GT ISZERO PUSH2 0x3511 JUMPI PUSH1 0x0 DUP1 REVERT JUMPDEST PUSH1 0x20 DUP4 ADD SWAP2 POP DUP4 PUSH1 0x20 DUP3 DUP6 ADD ADD GT ISZERO PUSH2 0x3529 JUMPI PUSH1 0x0 DUP1 REVERT JUMPDEST SWAP3 POP SWAP3 SWAP1 POP JUMP JUMPDEST PUSH1 0x0 DUP3 PUSH1 0x1F DUP4 ADD SLT PUSH2 0x3541 JUMPI PUSH1 0x0 DUP1 REVERT JUMPDEST DUP2 CALLDATALOAD PUSH2 0x354F PUSH2 0x3455 DUP3 PUSH2 0x3C9D JUMP JUMPDEST DUP2 DUP2 MSTORE DUP5 PUSH1 0x20 DUP4 DUP7 ADD ADD GT ISZERO PUSH2 0x3564 JUMPI PUSH1 0x0 DUP1 REVERT JUMPDEST DUP2 PUSH1 0x20 DUP6 ADD PUSH1 0x20 DUP4 ADD CALLDATACOPY PUSH1 0x0 SWAP2 DUP2 ADD PUSH1 0x20 ADD SWAP2 SWAP1 SWAP2 MSTORE SWAP4 SWAP3 POP POP POP JUMP JUMPDEST DUP1 CALLDATALOAD PUSH1 0x1 DUP2 LT PUSH2 0x3590 JUMPI PUSH1 0x0 DUP1 REVERT JUMPDEST SWAP2 SWAP1 POP JUMP JUMPDEST DUP1 CALLDATALOAD PUSH1 0x2 DUP2 LT PUSH2 0x3590 JUMPI PUSH1 0x0 DUP1 REVERT JUMPDEST DUP1 CALLDATALOAD PUSH4 0xFFFFFFFF DUP2 AND DUP2 EQ PUSH2 0x3590 JUMPI PUSH1 0x0 DUP1 REVERT JUMPDEST DUP1 CALLDATALOAD PUSH8 0xFFFFFFFFFFFFFFFF DUP2 AND DUP2 EQ PUSH2 0x3590 JUMPI PUSH1 0x0 DUP1 REVERT JUMPDEST PUSH1 0x0 PUSH1 0x20 DUP3 DUP5 SUB SLT ISZERO PUSH2 0x35E2 JUMPI PUSH1 0x0 DUP1 REVERT JUMPDEST DUP2 CALLDATALOAD PUSH2 0x314B DUP2 PUSH2 0x3F07 JUMP JUMPDEST PUSH1 0x0 PUSH1 0x20 DUP3 DUP5 SUB SLT ISZERO PUSH2 0x35FF JUMPI PUSH1 0x0 DUP1 REVERT JUMPDEST DUP2 MLOAD PUSH2 0x314B DUP2 PUSH2 0x3F07 JUMP JUMPDEST PUSH1 0x0 DUP1 PUSH1 0x40 DUP4 DUP6 SUB SLT ISZERO PUSH2 0x361D JUMPI PUSH1 0x0 DUP1 REVERT JUMPDEST DUP3 CALLDATALOAD PUSH2 0x3628 DUP2 PUSH2 0x3F07 JUMP JUMPDEST SWAP5 PUSH1 0x20 SWAP4 SWAP1 SWAP4 ADD CALLDATALOAD SWAP4 POP POP POP JUMP JUMPDEST PUSH1 0x0 PUSH1 0x20 DUP3 DUP5 SUB SLT ISZERO PUSH2 0x3648 JUMPI PUSH1 0x0 DUP1 REVERT JUMPDEST POP MLOAD SWAP2 SWAP1 POP JUMP JUMPDEST PUSH1 0x0 DUP1 PUSH1 0x0 PUSH1 0x60 DUP5 DUP7 SUB SLT ISZERO PUSH2 0x3664 JUMPI PUSH1 0x0 DUP1 REVERT JUMPDEST DUP4 CALLDATALOAD SWAP3 POP PUSH1 0x20 DUP5 ADD CALLDATALOAD PUSH8 0xFFFFFFFFFFFFFFFF DUP1 DUP3 GT ISZERO PUSH2 0x3683 JUMPI PUSH1 0x0 DUP1 REVERT JUMPDEST PUSH2 0x368F DUP8 DUP4 DUP9 ADD PUSH2 0x3530 JUMP JUMPDEST SWAP4 POP PUSH1 0x40 DUP7 ADD CALLDATALOAD SWAP2 POP DUP1 DUP3 GT ISZERO PUSH2 0x36A5 JUMPI PUSH1 0x0 DUP1 REVERT JUMPDEST POP PUSH2 0x36B2 DUP7 DUP3 DUP8 ADD PUSH2 0x3530 JUMP JUMPDEST SWAP2 POP POP SWAP3 POP SWAP3 POP SWAP3 JUMP JUMPDEST PUSH1 0x0 PUSH1 0x20 DUP3 DUP5 SUB SLT ISZERO PUSH2 0x36CE JUMPI PUSH1 0x0 DUP1 REVERT JUMPDEST DUP2 MLOAD PUSH8 0xFFFFFFFFFFFFFFFF DUP2 GT ISZERO PUSH2 0x36E5 JUMPI PUSH1 0x0 DUP1 REVERT JUMPDEST DUP3 ADD PUSH1 0x1F DUP2 ADD DUP5 SGT PUSH2 0x36F6 JUMPI PUSH1 0x0 DUP1 REVERT JUMPDEST DUP1 MLOAD PUSH2 0x3704 PUSH2 0x3455 DUP3 PUSH2 0x3C9D JUMP JUMPDEST DUP2 DUP2 MSTORE DUP6 PUSH1 0x20 DUP4 DUP6 ADD ADD GT ISZERO PUSH2 0x3719 JUMPI PUSH1 0x0 DUP1 REVERT JUMPDEST PUSH2 0x1CBE DUP3 PUSH1 0x20 DUP4 ADD PUSH1 0x20 DUP7 ADD PUSH2 0x3E0B JUMP JUMPDEST PUSH1 0x0 DUP1 PUSH1 0x0 DUP1 PUSH1 0x0 DUP1 PUSH1 0x0 DUP1 PUSH1 0xA0 DUP10 DUP12 SUB SLT ISZERO PUSH2 0x3746 JUMPI PUSH1 0x0 DUP1 REVERT JUMPDEST DUP9 CALLDATALOAD PUSH8 0xFFFFFFFFFFFFFFFF DUP1 DUP3 GT ISZERO PUSH2 0x375E JUMPI PUSH1 0x0 DUP1 REVERT JUMPDEST PUSH2 0x376A DUP13 DUP4 DUP14 ADD PUSH2 0x34E7 JUMP JUMPDEST SWAP1 SWAP11 POP SWAP9 POP PUSH1 0x20 DUP12 ADD CALLDATALOAD SWAP2 POP DUP1 DUP3 GT ISZERO PUSH2 0x3783 JUMPI PUSH1 0x0 DUP1 REVERT JUMPDEST PUSH2 0x378F DUP13 DUP4 DUP14 ADD PUSH2 0x34E7 JUMP JUMPDEST SWAP1 SWAP9 POP SWAP7 POP PUSH1 0x40 DUP12 ADD CALLDATALOAD SWAP2 POP DUP1 DUP3 GT ISZERO PUSH2 0x37A8 JUMPI PUSH1 0x0 DUP1 REVERT JUMPDEST DUP2 DUP12 ADD SWAP2 POP DUP12 PUSH1 0x1F DUP4 ADD SLT PUSH2 0x37BC JUMPI PUSH1 0x0 DUP1 REVERT JUMPDEST DUP2 CALLDATALOAD DUP2 DUP2 GT ISZERO PUSH2 0x37CB JUMPI PUSH1 0x0 DUP1 REVERT JUMPDEST DUP13 PUSH1 0x20 DUP3 PUSH1 0x5 SHL DUP6 ADD ADD GT ISZERO PUSH2 0x37E0 JUMPI PUSH1 0x0 DUP1 REVERT JUMPDEST PUSH1 0x20 DUP4 ADD SWAP7 POP DUP1 SWAP6 POP POP POP POP PUSH2 0x37F8 PUSH1 0x60 DUP11 ADD PUSH2 0x35B8 JUMP JUMPDEST SWAP2 POP PUSH2 0x3806 PUSH1 0x80 DUP11 ADD PUSH2 0x35A4 JUMP JUMPDEST SWAP1 POP SWAP3 SWAP6 SWAP9 POP SWAP3 SWAP6 SWAP9 SWAP1 SWAP4 SWAP7 POP JUMP JUMPDEST PUSH1 0x0 DUP1 PUSH1 0x0 DUP1 PUSH1 0x80 DUP6 DUP8 SUB SLT ISZERO PUSH2 0x382B JUMPI PUSH1 0x0 DUP1 REVERT JUMPDEST DUP5 CALLDATALOAD PUSH8 0xFFFFFFFFFFFFFFFF DUP1 DUP3 GT ISZERO PUSH2 0x3843 JUMPI PUSH1 0x0 DUP1 REVERT JUMPDEST SWAP1 DUP7 ADD SWAP1 PUSH1 0xC0 DUP3 DUP10 SUB SLT ISZERO PUSH2 0x3857 JUMPI PUSH1 0x0 DUP1 REVERT JUMPDEST PUSH2 0x385F PUSH2 0x3C1F JUMP JUMPDEST PUSH2 0x3868 DUP4 PUSH2 0x3595 JUMP JUMPDEST DUP2 MSTORE PUSH2 0x3876 PUSH1 0x20 DUP5 ADD PUSH2 0x3595 JUMP JUMPDEST PUSH1 0x20 DUP3 ADD MSTORE PUSH2 0x3887 PUSH1 0x40 DUP5 ADD PUSH2 0x3581 JUMP JUMPDEST PUSH1 0x40 DUP3 ADD MSTORE PUSH1 0x60 DUP4 ADD CALLDATALOAD DUP3 DUP2 GT ISZERO PUSH2 0x389E JUMPI PUSH1 0x0 DUP1 REVERT JUMPDEST PUSH2 0x38AA DUP11 DUP3 DUP7 ADD PUSH2 0x3530 JUMP JUMPDEST PUSH1 0x60 DUP4 ADD MSTORE POP PUSH1 0x80 DUP4 ADD CALLDATALOAD DUP3 DUP2 GT ISZERO PUSH2 0x38C2 JUMPI PUSH1 0x0 DUP1 REVERT JUMPDEST PUSH2 0x38CE DUP11 DUP3 DUP7 ADD PUSH2 0x3530 JUMP JUMPDEST PUSH1 0x80 DUP4 ADD MSTORE POP PUSH1 0xA0 DUP4 ADD CALLDATALOAD DUP3 DUP2 GT ISZERO PUSH2 0x38E6 JUMPI PUSH1 0x0 DUP1 REVERT JUMPDEST PUSH2 0x38F2 DUP11 DUP3 DUP7 ADD PUSH2 0x34C7 JUMP JUMPDEST PUSH1 0xA0 DUP4 ADD MSTORE POP SWAP6 POP PUSH2 0x3909 SWAP2 POP POP PUSH1 0x20 DUP7 ADD PUSH2 0x35B8 JUMP JUMPDEST SWAP3 POP PUSH2 0x3917 PUSH1 0x40 DUP7 ADD PUSH2 0x35A4 JUMP JUMPDEST SWAP4 SWAP7 SWAP3 SWAP6 POP SWAP3 SWAP4 PUSH1 0x60 ADD CALLDATALOAD SWAP3 POP POP JUMP JUMPDEST PUSH1 0x0 DUP1 PUSH1 0x40 DUP4 DUP6 SUB SLT ISZERO PUSH2 0x393A JUMPI PUSH1 0x0 DUP1 REVERT JUMPDEST DUP3 CALLDATALOAD SWAP2 POP PUSH1 0x20 DUP1 DUP5 ADD CALLDATALOAD PUSH8 0xFFFFFFFFFFFFFFFF DUP2 GT ISZERO PUSH2 0x3959 JUMPI PUSH1 0x0 DUP1 REVERT JUMPDEST DUP5 ADD PUSH1 0x1F DUP2 ADD DUP7 SGT PUSH2 0x396A JUMPI PUSH1 0x0 DUP1 REVERT JUMPDEST DUP1 CALLDATALOAD PUSH2 0x3978 PUSH2 0x3455 DUP3 PUSH2 0x3C79 JUMP JUMPDEST DUP1 DUP3 DUP3 MSTORE DUP5 DUP3 ADD SWAP2 POP DUP5 DUP5 ADD DUP10 DUP7 DUP6 PUSH1 0x5 SHL DUP8 ADD ADD GT ISZERO PUSH2 0x3998 JUMPI PUSH1 0x0 DUP1 REVERT JUMPDEST PUSH1 0x0 SWAP5 POP JUMPDEST DUP4 DUP6 LT ISZERO PUSH2 0x39BB JUMPI DUP1 CALLDATALOAD DUP4 MSTORE PUSH1 0x1 SWAP5 SWAP1 SWAP5 ADD SWAP4 SWAP2 DUP6 ADD SWAP2 DUP6 ADD PUSH2 0x399D JUMP JUMPDEST POP DUP1 SWAP6 POP POP POP POP POP POP SWAP3 POP SWAP3 SWAP1 POP JUMP JUMPDEST PUSH1 0x0 PUSH1 0x20 DUP3 DUP5 SUB SLT ISZERO PUSH2 0x39DD JUMPI PUSH1 0x0 DUP1 REVERT JUMPDEST DUP2 MLOAD PUSH12 0xFFFFFFFFFFFFFFFFFFFFFFFF DUP2 AND DUP2 EQ PUSH2 0x314B JUMPI PUSH1 0x0 DUP1 REVERT JUMPDEST PUSH1 0x0 DUP2 MLOAD DUP1 DUP5 MSTORE PUSH2 0x3A11 DUP2 PUSH1 0x20 DUP7 ADD PUSH1 0x20 DUP7 ADD PUSH2 0x3E0B JUMP JUMPDEST PUSH1 0x1F ADD PUSH1 0x1F NOT AND SWAP3 SWAP1 SWAP3 ADD PUSH1 0x20 ADD SWAP3 SWAP2 POP POP JUMP JUMPDEST PUSH1 0x20 DUP2 MSTORE PUSH1 0x0 PUSH2 0x314B PUSH1 0x20 DUP4 ADD DUP5 PUSH2 0x39F9 JUMP JUMPDEST PUSH1 0x40 DUP2 MSTORE PUSH1 0x0 PUSH2 0x3A4B PUSH1 0x40 DUP4 ADD DUP6 PUSH2 0x39F9 JUMP JUMPDEST DUP3 DUP2 SUB PUSH1 0x20 DUP5 ADD MSTORE PUSH2 0x1CBE DUP2 DUP6 PUSH2 0x39F9 JUMP JUMPDEST PUSH2 0x180 DUP2 MSTORE PUSH1 0x0 PUSH2 0x3A72 PUSH2 0x180 DUP4 ADD DUP16 PUSH2 0x39F9 JUMP JUMPDEST DUP3 DUP2 SUB PUSH1 0x20 DUP5 ADD MSTORE PUSH2 0x3A84 DUP2 DUP16 PUSH2 0x39F9 JUMP JUMPDEST SWAP1 POP DUP3 DUP2 SUB PUSH1 0x40 DUP5 ADD MSTORE PUSH2 0x3A98 DUP2 DUP15 PUSH2 0x39F9 JUMP JUMPDEST SWAP1 POP DUP3 DUP2 SUB PUSH1 0x60 DUP5 ADD MSTORE PUSH2 0x3AAC DUP2 DUP14 PUSH2 0x39F9 JUMP JUMPDEST SWAP1 POP DUP3 DUP2 SUB PUSH1 0x80 DUP5 ADD MSTORE PUSH2 0x3AC0 DUP2 DUP13 PUSH2 0x39F9 JUMP JUMPDEST SWAP1 POP DUP3 DUP2 SUB PUSH1 0xA0 DUP5 ADD MSTORE PUSH2 0x3AD4 DUP2 DUP12 PUSH2 0x39F9 JUMP JUMPDEST SWAP1 POP DUP3 DUP2 SUB PUSH1 0xC0 DUP5 ADD MSTORE PUSH2 0x3AE8 DUP2 DUP11 PUSH2 0x39F9 JUMP JUMPDEST SWAP1 POP DUP3 DUP2 SUB PUSH1 0xE0 DUP5 ADD MSTORE PUSH2 0x3AFC DUP2 DUP10 PUSH2 0x39F9 JUMP JUMPDEST SWAP1 POP DUP3 DUP2 SUB PUSH2 0x100 DUP5 ADD MSTORE PUSH2 0x3B11 DUP2 DUP9 PUSH2 0x39F9 JUMP JUMPDEST SWAP1 POP DUP3 DUP2 SUB PUSH2 0x120 DUP5 ADD MSTORE PUSH2 0x3B26 DUP2 DUP8 PUSH2 0x39F9 JUMP JUMPDEST SWAP1 POP DUP3 DUP2 SUB PUSH2 0x140 DUP5 ADD MSTORE PUSH2 0x3B3B DUP2 DUP7 PUSH2 0x39F9 JUMP JUMPDEST SWAP1 POP DUP3 DUP2 SUB PUSH2 0x160 DUP5 ADD MSTORE PUSH2 0x3B50 DUP2 DUP6 PUSH2 0x39F9 JUMP JUMPDEST SWAP16 SWAP15 POP POP POP POP POP POP POP POP POP POP POP POP POP POP POP JUMP JUMPDEST PUSH8 0xFFFFFFFFFFFFFFFF DUP5 AND DUP2 MSTORE PUSH1 0x60 PUSH1 0x20 DUP3 ADD MSTORE PUSH1 0x0 PUSH2 0x3B86 PUSH1 0x60 DUP4 ADD DUP6 PUSH2 0x39F9 JUMP JUMPDEST SWAP1 POP PUSH4 0xFFFFFFFF DUP4 AND PUSH1 0x40 DUP4 ADD MSTORE SWAP5 SWAP4 POP POP POP POP JUMP JUMPDEST PUSH8 0xFFFFFFFFFFFFFFFF DUP6 AND DUP2 MSTORE PUSH1 0x80 PUSH1 0x20 DUP3 ADD MSTORE PUSH1 0x0 PUSH2 0x3BBF PUSH1 0x80 DUP4 ADD DUP7 PUSH2 0x39F9 JUMP JUMPDEST PUSH4 0xFFFFFFFF SWAP5 SWAP1 SWAP5 AND PUSH1 0x40 DUP4 ADD MSTORE POP PUSH1 0x60 ADD MSTORE SWAP3 SWAP2 POP POP JUMP JUMPDEST PUSH1 0x0 DUP1 DUP4 CALLDATALOAD PUSH1 0x1E NOT DUP5 CALLDATASIZE SUB ADD DUP2 SLT PUSH2 0x3BEF JUMPI PUSH1 0x0 DUP1 REVERT JUMPDEST DUP4 ADD DUP1 CALLDATALOAD SWAP2 POP PUSH8 0xFFFFFFFFFFFFFFFF DUP3 GT ISZERO PUSH2 0x3C0A JUMPI PUSH1 0x0 DUP1 REVERT JUMPDEST PUSH1 0x20 ADD SWAP2 POP CALLDATASIZE DUP2 SWAP1 SUB DUP3 SGT ISZERO PUSH2 0x3529 JUMPI PUSH1 0x0 DUP1 REVERT JUMPDEST PUSH1 0x40 MLOAD PUSH1 0xC0 DUP2 ADD PUSH8 0xFFFFFFFFFFFFFFFF DUP2 GT DUP3 DUP3 LT OR ISZERO PUSH2 0x3C42 JUMPI PUSH2 0x3C42 PUSH2 0x3EF1 JUMP JUMPDEST PUSH1 0x40 MSTORE SWAP1 JUMP JUMPDEST PUSH1 0x40 MLOAD PUSH1 0x1F DUP3 ADD PUSH1 0x1F NOT AND DUP2 ADD PUSH8 0xFFFFFFFFFFFFFFFF DUP2 GT DUP3 DUP3 LT OR ISZERO PUSH2 0x3C71 JUMPI PUSH2 0x3C71 PUSH2 0x3EF1 JUMP JUMPDEST PUSH1 0x40 MSTORE SWAP2 SWAP1 POP JUMP JUMPDEST PUSH1 0x0 PUSH8 0xFFFFFFFFFFFFFFFF DUP3 GT ISZERO PUSH2 0x3C93 JUMPI PUSH2 0x3C93 PUSH2 0x3EF1 JUMP JUMPDEST POP PUSH1 0x5 SHL PUSH1 0x20 ADD SWAP1 JUMP JUMPDEST PUSH1 0x0 PUSH8 0xFFFFFFFFFFFFFFFF DUP3 GT ISZERO PUSH2 0x3CB7 JUMPI PUSH2 0x3CB7 PUSH2 0x3EF1 JUMP JUMPDEST POP PUSH1 0x1F ADD PUSH1 0x1F NOT AND PUSH1 0x20 ADD SWAP1 JUMP JUMPDEST PUSH1 0x0 DUP3 NOT DUP3 GT ISZERO PUSH2 0x3CD8 JUMPI PUSH2 0x3CD8 PUSH2 0x3EAF JUMP JUMPDEST POP ADD SWAP1 JUMP JUMPDEST PUSH1 0x1 DUP2 DUP2 JUMPDEST DUP1 DUP6 GT ISZERO PUSH2 0x3D18 JUMPI DUP2 PUSH1 0x0 NOT DIV DUP3 GT ISZERO PUSH2 0x3CFE JUMPI PUSH2 0x3CFE PUSH2 0x3EAF JUMP JUMPDEST DUP1 DUP6 AND ISZERO PUSH2 0x3D0B JUMPI SWAP2 DUP2 MUL SWAP2 JUMPDEST SWAP4 DUP5 SHR SWAP4 SWAP1 DUP1 MUL SWAP1 PUSH2 0x3CE2 JUMP JUMPDEST POP SWAP3 POP SWAP3 SWAP1 POP JUMP JUMPDEST PUSH1 0x0 PUSH2 0x314B DUP4 DUP4 PUSH1 0x0 DUP3 PUSH2 0x3D36 JUMPI POP PUSH1 0x1 PUSH2 0x2EEA JUMP JUMPDEST DUP2 PUSH2 0x3D43 JUMPI POP PUSH1 0x0 PUSH2 0x2EEA JUMP JUMPDEST DUP2 PUSH1 0x1 DUP2 EQ PUSH2 0x3D59 JUMPI PUSH1 0x2 DUP2 EQ PUSH2 0x3D63 JUMPI PUSH2 0x3D7F JUMP JUMPDEST PUSH1 0x1 SWAP2 POP POP PUSH2 0x2EEA JUMP JUMPDEST PUSH1 0xFF DUP5 GT ISZERO PUSH2 0x3D74 JUMPI PUSH2 0x3D74 PUSH2 0x3EAF JUMP JUMPDEST POP POP PUSH1 0x1 DUP3 SHL PUSH2 0x2EEA JUMP JUMPDEST POP PUSH1 0x20 DUP4 LT PUSH2 0x133 DUP4 LT AND PUSH1 0x4E DUP5 LT PUSH1 0xB DUP5 LT AND OR ISZERO PUSH2 0x3DA2 JUMPI POP DUP2 DUP2 EXP PUSH2 0x2EEA JUMP JUMPDEST PUSH2 0x3DAC DUP4 DUP4 PUSH2 0x3CDD JUMP JUMPDEST DUP1 PUSH1 0x0 NOT DIV DUP3 GT ISZERO PUSH2 0x3DC0 JUMPI PUSH2 0x3DC0 PUSH2 0x3EAF JUMP JUMPDEST MUL SWAP4 SWAP3 POP POP POP JUMP JUMPDEST PUSH1 0x0 DUP2 PUSH1 0x0 NOT DIV DUP4 GT DUP3 ISZERO ISZERO AND ISZERO PUSH2 0x3DE2 JUMPI PUSH2 0x3DE2 PUSH2 0x3EAF JUMP JUMPDEST POP MUL SWAP1 JUMP JUMPDEST PUSH1 0x0 DUP3 DUP3 LT ISZERO PUSH2 0x3DF9 JUMPI PUSH2 0x3DF9 PUSH2 0x3EAF JUMP JUMPDEST POP SUB SWAP1 JUMP JUMPDEST PUSH1 0x0 PUSH2 0x314B CALLDATASIZE DUP5 DUP5 PUSH2 0x3447 JUMP JUMPDEST PUSH1 0x0 JUMPDEST DUP4 DUP2 LT ISZERO PUSH2 0x3E26 JUMPI DUP2 DUP2 ADD MLOAD DUP4 DUP3 ADD MSTORE PUSH1 0x20 ADD PUSH2 0x3E0E JUMP JUMPDEST DUP4 DUP2 GT ISZERO PUSH2 0x515 JUMPI POP POP PUSH1 0x0 SWAP2 ADD MSTORE JUMP JUMPDEST PUSH1 0x1 DUP2 DUP2 SHR SWAP1 DUP3 AND DUP1 PUSH2 0x3E4B JUMPI PUSH1 0x7F DUP3 AND SWAP2 POP JUMPDEST PUSH1 0x20 DUP3 LT DUP2 EQ ISZERO PUSH2 0x3E6C JUMPI PUSH4 0x4E487B71 PUSH1 0xE0 SHL PUSH1 0x0 MSTORE PUSH1 0x22 PUSH1 0x4 MSTORE PUSH1 0x24 PUSH1 0x0 REVERT JUMPDEST POP SWAP2 SWAP1 POP JUMP JUMPDEST PUSH1 0x0 PUSH1 0x0 NOT DUP3 EQ ISZERO PUSH2 0x3E86 JUMPI PUSH2 0x3E86 PUSH2 0x3EAF JUMP JUMPDEST POP PUSH1 0x1 ADD SWAP1 JUMP JUMPDEST PUSH1 0x0 DUP3 PUSH2 0x3EAA JUMPI PUSH4 0x4E487B71 PUSH1 0xE0 SHL PUSH1 0x0 MSTORE PUSH1 0x12 PUSH1 0x4 MSTORE PUSH1 0x24 PUSH1 0x0 REVERT JUMPDEST POP MOD SWAP1 JUMP JUMPDEST PUSH4 0x4E487B71 PUSH1 0xE0 SHL PUSH1 0x0 MSTORE PUSH1 0x11 PUSH1 0x4 MSTORE PUSH1 0x24 PUSH1 0x0 REVERT JUMPDEST PUSH4 0x4E487B71 PUSH1 0xE0 SHL PUSH1 0x0 MSTORE PUSH1 0x21 PUSH1 0x4 MSTORE PUSH1 0x24 PUSH1 0x0 REVERT JUMPDEST PUSH4 0x4E487B71 PUSH1 0xE0 SHL PUSH1 0x0 MSTORE PUSH1 0x32 PUSH1 0x4 MSTORE PUSH1 0x24 PUSH1 0x0 REVERT JUMPDEST PUSH4 0x4E487B71 PUSH1 0xE0 SHL PUSH1 0x0 MSTORE PUSH1 0x41 PUSH1 0x4 MSTORE PUSH1 0x24 PUSH1 0x0 REVERT JUMPDEST PUSH1 0x1 PUSH1 0x1 PUSH1 0xA0 SHL SUB DUP2 AND DUP2 EQ PUSH2 0x2554 JUMPI PUSH1 0x0 DUP1 REVERT INVALID LOG2 PUSH5 0x6970667358 0x22 SLT KECCAK256 0x26 CALLER 0xA5 NUMBER CHAINID PUSH24 0x4A7AC8C9300FC59F95653995CD5371EFC18695DCA77CBC0E SWAP5 SWAP9 PUSH5 0x736F6C6343 STOP ADDMOD SMOD STOP CALLER "},"methodIdentifiers":{"acceptOwnership()":"79ba5097","addSimulatedRequestId(address,bytes32)":"30bda99d","checkInsuranceData()":"e0919101","constructionTime()":"f06c5610","currentTime()":"d18e81b3","estimateCost((uint8,uint8,uint8,string,bytes,string[]),uint64,uint32,uint256)":"d4b39175","estimateInsurance(string,bytes,string[],uint64,uint32)":"985454ff","getCurrentTime()":"29cb924d","getDONPublicKey()":"d328a91e","getLatestPrice()":"8e15f473","getRandomWords()":"ce10b1fb","globalDayNumber()":"4b11b4a1","handleOracleFulfillment(bytes32,bytes,bytes)":"0ca76175","helloWorld()":"c605f76c","insuranceDataMapping(address,uint256)":"2142735a","latestError()":"fffeb84e","latestRequestId()":"1aa46f59","latestResponse()":"bef3a2f0","owner()":"8da5cb5b","priceFeed()":"741bef1a","randomFeed()":"126455dd","receiveRandomness(uint256,uint256[])":"37f9c70d","transferOwnership(address)":"f2fde38b","updateOracleAddress(address)":"f7023bb6"}},"storageLayout":{"storage":[{"astId":2803,"contract":"contracts/Insurance.sol:Insurance","label":"s_oracle","offset":0,"slot":"0","type":"t_contract(FunctionsOracleInterface)3237"},{"astId":2807,"contract":"contracts/Insurance.sol:Insurance","label":"s_pendingRequests","offset":0,"slot":"1","type":"t_mapping(t_bytes32,t_address)"},{"astId":27,"contract":"contracts/Insurance.sol:Insurance","label":"s_owner","offset":0,"slot":"2","type":"t_address"},{"astId":29,"contract":"contracts/Insurance.sol:Insurance","label":"s_pendingOwner","offset":0,"slot":"3","type":"t_address"},{"astId":1464,"contract":"contracts/Insurance.sol:Insurance","label":"priceFeed","offset":0,"slot":"4","type":"t_contract(PriceConsumerV3)2195"},{"astId":1467,"contract":"contracts/Insurance.sol:Insurance","label":"randomFeed","offset":0,"slot":"5","type":"t_contract(VRFv2Consumer)2447"},{"astId":1473,"contract":"contracts/Insurance.sol:Insurance","label":"latestRequestId","offset":0,"slot":"6","type":"t_bytes32"},{"astId":1475,"contract":"contracts/Insurance.sol:Insurance","label":"latestResponse","offset":0,"slot":"7","type":"t_bytes_storage"},{"astId":1477,"contract":"contracts/Insurance.sol:Insurance","label":"latestError","offset":0,"slot":"8","type":"t_bytes_storage"},{"astId":1479,"contract":"contracts/Insurance.sol:Insurance","label":"globalDayNumber","offset":0,"slot":"9","type":"t_int256"},{"astId":1481,"contract":"contracts/Insurance.sol:Insurance","label":"constructionTime","offset":0,"slot":"10","type":"t_uint256"},{"astId":1531,"contract":"contracts/Insurance.sol:Insurance","label":"currentTime","offset":0,"slot":"11","type":"t_uint256"},{"astId":1628,"contract":"contracts/Insurance.sol:Insurance","label":"insuranceDataMapping","offset":0,"slot":"12","type":"t_mapping(t_address,t_array(t_struct(InsuranceData)1559_storage)dyn_storage)"}],"types":{"t_address":{"encoding":"inplace","label":"address","numberOfBytes":"20"},"t_array(t_struct(InsuranceData)1559_storage)dyn_storage":{"base":"t_struct(InsuranceData)1559_storage","encoding":"dynamic_array","label":"struct Insurance.InsuranceData[]","numberOfBytes":"32"},"t_array(t_uint256)dyn_storage":{"base":"t_uint256","encoding":"dynamic_array","label":"uint256[]","numberOfBytes":"32"},"t_bytes32":{"encoding":"inplace","label":"bytes32","numberOfBytes":"32"},"t_bytes_storage":{"encoding":"bytes","label":"bytes","numberOfBytes":"32"},"t_contract(FunctionsOracleInterface)3237":{"encoding":"inplace","label":"contract FunctionsOracleInterface","numberOfBytes":"20"},"t_contract(PriceConsumerV3)2195":{"encoding":"inplace","label":"contract PriceConsumerV3","numberOfBytes":"20"},"t_contract(VRFv2Consumer)2447":{"encoding":"inplace","label":"contract VRFv2Consumer","numberOfBytes":"20"},"t_int256":{"encoding":"inplace","label":"int256","numberOfBytes":"32"},"t_mapping(t_address,t_array(t_struct(InsuranceData)1559_storage)dyn_storage)":{"encoding":"mapping","key":"t_address","label":"mapping(address => struct Insurance.InsuranceData[])","numberOfBytes":"32","value":"t_array(t_struct(InsuranceData)1559_storage)dyn_storage"},"t_mapping(t_bytes32,t_address)":{"encoding":"mapping","key":"t_bytes32","label":"mapping(bytes32 => address)","numberOfBytes":"32","value":"t_address"},"t_string_storage":{"encoding":"bytes","label":"string","numberOfBytes":"32"},"t_struct(InsuranceData)1559_storage":{"encoding":"inplace","label":"struct Insurance.InsuranceData","members":[{"astId":1533,"contract":"contracts/Insurance.sol:Insurance","label":"latNe","offset":0,"slot":"0","type":"t_string_storage"},{"astId":1535,"contract":"contracts/Insurance.sol:Insurance","label":"longNe","offset":0,"slot":"1","type":"t_string_storage"},{"astId":1537,"contract":"contracts/Insurance.sol:Insurance","label":"latSe","offset":0,"slot":"2","type":"t_string_storage"},{"astId":1539,"contract":"contracts/Insurance.sol:Insurance","label":"longSe","offset":0,"slot":"3","type":"t_string_storage"},{"astId":1541,"contract":"contracts/Insurance.sol:Insurance","label":"latSw","offset":0,"slot":"4","type":"t_string_storage"},{"astId":1543,"contract":"contracts/Insurance.sol:Insurance","label":"longSw","offset":0,"slot":"5","type":"t_string_storage"},{"astId":1545,"contract":"contracts/Insurance.sol:Insurance","label":"latNw","offset":0,"slot":"6","type":"t_string_storage"},{"astId":1547,"contract":"contracts/Insurance.sol:Insurance","label":"longNw","offset":0,"slot":"7","type":"t_string_storage"},{"astId":1549,"contract":"contracts/Insurance.sol:Insurance","label":"configParam","offset":0,"slot":"8","type":"t_string_storage"},{"astId":1551,"contract":"contracts/Insurance.sol:Insurance","label":"currentTime","offset":0,"slot":"9","type":"t_string_storage"},{"astId":1553,"contract":"contracts/Insurance.sol:Insurance","label":"startTime","offset":0,"slot":"10","type":"t_string_storage"},{"astId":1555,"contract":"contracts/Insurance.sol:Insurance","label":"endTime","offset":0,"slot":"11","type":"t_string_storage"},{"astId":1558,"contract":"contracts/Insurance.sol:Insurance","label":"randomPoints","offset":0,"slot":"12","type":"t_array(t_uint256)dyn_storage"}],"numberOfBytes":"416"},"t_uint256":{"encoding":"inplace","label":"uint256","numberOfBytes":"32"}}}}}}