{"contracts/CheckPayout.sol":{"CheckPayout":{"abi":[{"inputs":[{"internalType":"address","name":"oracle","type":"address"},{"internalType":"address","name":"insuranceAddress","type":"address"}],"stateMutability":"nonpayable","type":"constructor"},{"inputs":[],"name":"EmptyArgs","type":"error"},{"inputs":[],"name":"EmptySource","type":"error"},{"inputs":[],"name":"NoInlineSecrets","type":"error"},{"inputs":[],"name":"RequestIsAlreadyPending","type":"error"},{"inputs":[],"name":"RequestIsNotPending","type":"error"},{"inputs":[],"name":"SenderIsNotRegistry","type":"error"},{"anonymous":false,"inputs":[{"indexed":true,"internalType":"bytes32","name":"requestId","type":"bytes32"},{"indexed":false,"internalType":"bytes","name":"result","type":"bytes"},{"indexed":false,"internalType":"bytes","name":"err","type":"bytes"}],"name":"OCRResponse","type":"event"},{"anonymous":false,"inputs":[{"indexed":true,"internalType":"address","name":"from","type":"address"},{"indexed":true,"internalType":"address","name":"to","type":"address"}],"name":"OwnershipTransferRequested","type":"event"},{"anonymous":false,"inputs":[{"indexed":true,"internalType":"address","name":"from","type":"address"},{"indexed":true,"internalType":"address","name":"to","type":"address"}],"name":"OwnershipTransferred","type":"event"},{"anonymous":false,"inputs":[{"indexed":true,"internalType":"bytes32","name":"id","type":"bytes32"}],"name":"RequestFulfilled","type":"event"},{"anonymous":false,"inputs":[{"indexed":true,"internalType":"bytes32","name":"id","type":"bytes32"}],"name":"RequestSent","type":"event"},{"inputs":[],"name":"acceptOwnership","outputs":[],"stateMutability":"nonpayable","type":"function"},{"inputs":[{"internalType":"address","name":"oracleAddress","type":"address"},{"internalType":"bytes32","name":"requestId","type":"bytes32"}],"name":"addSimulatedRequestId","outputs":[],"stateMutability":"nonpayable","type":"function"},{"inputs":[{"internalType":"string","name":"source","type":"string"},{"internalType":"string[]","name":"args","type":"string[]"},{"internalType":"uint64","name":"subscriptionId","type":"uint64"},{"internalType":"uint32","name":"gasLimit","type":"uint32"},{"internalType":"uint256","name":"policyIndex","type":"uint256"}],"name":"checkPolicy","outputs":[{"internalType":"bytes32","name":"","type":"bytes32"}],"stateMutability":"nonpayable","type":"function"},{"inputs":[{"components":[{"internalType":"enum Functions.Location","name":"codeLocation","type":"uint8"},{"internalType":"enum Functions.Location","name":"secretsLocation","type":"uint8"},{"internalType":"enum Functions.CodeLanguage","name":"language","type":"uint8"},{"internalType":"string","name":"source","type":"string"},{"internalType":"bytes","name":"secrets","type":"bytes"},{"internalType":"string[]","name":"args","type":"string[]"}],"internalType":"struct Functions.Request","name":"req","type":"tuple"},{"internalType":"uint64","name":"subscriptionId","type":"uint64"},{"internalType":"uint32","name":"gasLimit","type":"uint32"},{"internalType":"uint256","name":"gasPrice","type":"uint256"}],"name":"estimateCost","outputs":[{"internalType":"uint96","name":"","type":"uint96"}],"stateMutability":"view","type":"function"},{"inputs":[],"name":"getDONPublicKey","outputs":[{"internalType":"bytes","name":"","type":"bytes"}],"stateMutability":"view","type":"function"},{"inputs":[{"internalType":"bytes32","name":"requestId","type":"bytes32"},{"internalType":"bytes","name":"response","type":"bytes"},{"internalType":"bytes","name":"err","type":"bytes"}],"name":"handleOracleFulfillment","outputs":[],"stateMutability":"nonpayable","type":"function"},{"inputs":[],"name":"insuranceContract","outputs":[{"internalType":"contract Insurance","name":"","type":"address"}],"stateMutability":"view","type":"function"},{"inputs":[],"name":"latestError","outputs":[{"internalType":"bytes","name":"","type":"bytes"}],"stateMutability":"view","type":"function"},{"inputs":[],"name":"latestRequestId","outputs":[{"internalType":"bytes32","name":"","type":"bytes32"}],"stateMutability":"view","type":"function"},{"inputs":[],"name":"latestResponse","outputs":[{"internalType":"bytes","name":"","type":"bytes"}],"stateMutability":"view","type":"function"},{"inputs":[],"name":"owner","outputs":[{"internalType":"address","name":"","type":"address"}],"stateMutability":"view","type":"function"},{"inputs":[{"internalType":"bytes32","name":"","type":"bytes32"}],"name":"requestIdToPolicyIndex","outputs":[{"internalType":"uint256","name":"","type":"uint256"}],"stateMutability":"view","type":"function"},{"inputs":[{"internalType":"bytes32","name":"","type":"bytes32"}],"name":"requestIdToSender","outputs":[{"internalType":"address","name":"","type":"address"}],"stateMutability":"view","type":"function"},{"inputs":[{"internalType":"string","name":"s","type":"string"}],"name":"stringToUint256","outputs":[{"internalType":"uint256","name":"","type":"uint256"}],"stateMutability":"pure","type":"function"},{"inputs":[{"internalType":"address","name":"to","type":"address"}],"name":"transferOwnership","outputs":[],"stateMutability":"nonpayable","type":"function"},{"inputs":[{"internalType":"address","name":"oracle","type":"address"}],"name":"updateOracleAddress","outputs":[],"stateMutability":"nonpayable","type":"function"}],"evm":{"bytecode":{"linkReferences":{},"object":"60806040523480156200001157600080fd5b5060405162002404380380620024048339810160408190526200003491620001d8565b600080546001600160a01b0319166001600160a01b038416178155339081906001600160a01b038216620000af5760405162461bcd60e51b815260206004820152601860248201527f43616e6e6f7420736574206f776e657220746f207a65726f000000000000000060448201526064015b60405180910390fd5b600280546001600160a01b0319166001600160a01b0384811691909117909155811615620000e257620000e2816200010e565b5050600780546001600160a01b0319166001600160a01b03939093169290921790915550620002109050565b6001600160a01b038116331415620001695760405162461bcd60e51b815260206004820152601760248201527f43616e6e6f74207472616e7366657220746f2073656c660000000000000000006044820152606401620000a6565b600380546001600160a01b0319166001600160a01b03838116918217909255600254604051919216907fed8889f560326eb138920d842192f0eb3dd22b4f139c87a2c57538e05bae127890600090a350565b80516001600160a01b0381168114620001d357600080fd5b919050565b60008060408385031215620001ec57600080fd5b620001f783620001bb565b91506200020760208401620001bb565b90509250929050565b6121e480620002206000396000f3fe608060405234801561001057600080fd5b50600436106101005760003560e01c8063ac5d372311610097578063d4b3917511610066578063d4b3917514610219578063f2fde38b14610249578063f7023bb61461025c578063fffeb84e1461026f57600080fd5b8063ac5d3723146101d6578063bef3a2f0146101e9578063d012a5a8146101fe578063d328a91e1461021157600080fd5b80634732889d116100d35780634732889d1461018a57806379ba5097146101aa5780637f30dfa9146101b25780638da5cb5b146101c557600080fd5b80630ca76175146101055780631aa46f591461011a578063219c0eee1461013657806330bda99d14610177575b600080fd5b6101186101133660046118db565b610277565b005b61012360045481565b6040519081526020015b60405180910390f35b61015f6101443660046118a9565b6009602052600090815260409020546001600160a01b031681565b6040516001600160a01b03909116815260200161012d565b61011861018536600461187d565b61031d565b6101236101983660046118a9565b60086020526000908152604090205481565b610118610333565b6101236101c0366004611999565b6103ed565b6002546001600160a01b031661015f565b6101236101e4366004611a5f565b6104d6565b6101f1610558565b60405161012d9190611e04565b60075461015f906001600160a01b031681565b6101f16105e6565b61022c610227366004611c98565b610684565b6040516bffffffffffffffffffffffff909116815260200161012d565b610118610257366004611843565b61071a565b61011861026a366004611843565b61072e565b6101f1610754565b60008381526001602052604090205483906001600160a01b031633146102c9576040517fa0c5ec6300000000000000000000000000000000000000000000000000000000815260040160405180910390fd5b60008181526001602052604080822080546001600160a01b03191690555182917f85e1543bf2f84fe80c6badbce3648c8539ad1df4d2b3d822938ca0538be727e691a2610317848484610761565b50505050565b610325610aa2565b61032f8282610afe565b5050565b6003546001600160a01b031633146103925760405162461bcd60e51b815260206004820152601660248201527f4d7573742062652070726f706f736564206f776e65720000000000000000000060448201526064015b60405180910390fd5b600280546001600160a01b0319808216339081179093556003805490911690556040516001600160a01b03909116919082907f8be0079c531659141344cd1fd0a4f28419497f9722a3daafe3b4186f6b6457e090600090a350565b60006104296040805160c08101909152806000815260200160008152602001600081526020016060815260200160608152602001606081525090565b6104706000808b8b8080601f01602080910402602001604051908101604052809392919081815260200183838082843760009201919091525087959493925050610b7e9050565b851561048a5761048a6104838789612090565b8290610c12565b6000610497828787610c52565b600481905560008181526008602090815260408083208890556009909152902080546001600160a01b0319163317905592505050979650505050505050565b60008181805b82518110156105505760008382815181106104f9576104f961216d565b016020015160f81c905060308110801590610515575060398111155b1561053d57610525603082612079565b61053084600a61205a565b61053a9190611f57565b92505b508061054881612104565b9150506104dc565b509392505050565b60058054610565906120c9565b80601f0160208091040260200160405190810160405280929190818152602001828054610591906120c9565b80156105de5780601f106105b3576101008083540402835291602001916105de565b820191906000526020600020905b8154815290600101906020018083116105c157829003601f168201915b505050505081565b60008054604080517fd328a91e00000000000000000000000000000000000000000000000000000000815290516060936001600160a01b039093169263d328a91e9260048082019391829003018186803b15801561064357600080fd5b505afa158015610657573d6000803e3d6000fd5b505050506040513d6000823e601f3d908101601f1916820160405261067f9190810190611948565b905090565b600080546001600160a01b031663d227d245856106a088610dc6565b86866040518563ffffffff1660e01b81526004016106c19493929190611e75565b60206040518083038186803b1580156106d957600080fd5b505afa1580156106ed573d6000803e3d6000fd5b505050506040513d601f19601f820116820180604052508101906107119190611daa565b95945050505050565b610722610aa2565b61072b81611092565b50565b610736610aa2565b600080546001600160a01b0319166001600160a01b03831617905550565b60068054610565906120c9565b8151610774906005906020850190611588565b508051610788906006906020840190611588565b50827f7bab0ec163b5c132c72b8146ac4d6e067e82ed58f8b131150aa71c925891156283836040516107bb929190611e17565b60405180910390a260008381526008602090815260408083205460099092528083205460075491517f61875d8d0000000000000000000000000000000000000000000000000000000081523360048201526024810184905292936001600160a01b0391821693909291909116906361875d8d9060440160006040518083038186803b15801561084957600080fd5b505afa15801561085d573d6000803e3d6000fd5b505050506040513d6000823e601f3d908101601f191682016040526108859190810190611a94565b6007546040517fcc9de25d0000000000000000000000000000000000000000000000000000000081529192506000916001600160a01b039091169063cc9de25d906108d4908990600401611e04565b60206040518083038186803b1580156108ec57600080fd5b505afa158015610900573d6000803e3d6000fd5b505050506040513d601f19601f8201168201806040525081019061092491906118c2565b90508015610a16576007546040517fecd831e80000000000000000000000000000000000000000000000000000000081526001600160a01b038581166004830152602482018490529091169063ecd831e890604401600060405180830381600087803b15801561099357600080fd5b505af11580156109a7573d6000803e3d6000fd5b5050600754604051632f1635a360e21b81526001600160a01b03878116600483015260248201899052909116925063bc58d68c9150604401600060405180830381600087803b1580156109f957600080fd5b505af1158015610a0d573d6000803e3d6000fd5b50505050610a99565b6000610a268361014001516104d6565b905080421115610a9757600754604051632f1635a360e21b81526001600160a01b038681166004830152602482018890529091169063bc58d68c90604401600060405180830381600087803b158015610a7e57600080fd5b505af1158015610a92573d6000803e3d6000fd5b505050505b505b50505050505050565b6002546001600160a01b03163314610afc5760405162461bcd60e51b815260206004820152601660248201527f4f6e6c792063616c6c61626c65206279206f776e6572000000000000000000006044820152606401610389565b565b60008181526001602052604090205481906001600160a01b031615610b4f576040517f8b457ad200000000000000000000000000000000000000000000000000000000815260040160405180910390fd5b50600090815260016020526040902080546001600160a01b0319166001600160a01b0392909216919091179055565b8051610bb6576040517f22ce3edd00000000000000000000000000000000000000000000000000000000815260040160405180910390fd5b83836001811115610bc957610bc9612157565b90816001811115610bdc57610bdc612157565b90525060408401828015610bf257610bf2612157565b90818015610c0257610c02612157565b9052506060909301929092525050565b8051610c4a576040517ffe936cb700000000000000000000000000000000000000000000000000000000815260040160405180910390fd5b60a090910152565b6000805481906001600160a01b03166328242b0485610c7088610dc6565b866040518463ffffffff1660e01b8152600401610c8f93929190611e3c565b602060405180830381600087803b158015610ca957600080fd5b505af1158015610cbd573d6000803e3d6000fd5b505050506040513d601f19601f82011682018060405250810190610ce191906118c2565b905060008054906101000a90046001600160a01b03166001600160a01b0316635ab1bd536040518163ffffffff1660e01b815260040160206040518083038186803b158015610d2f57600080fd5b505afa158015610d43573d6000803e3d6000fd5b505050506040513d601f19601f82011682018060405250810190610d679190611860565b60008281526001602052604080822080546001600160a01b0319166001600160a01b039490941693909317909255905182917f1131472297a800fee664d1d89cfa8f7676ff07189ecc53f80bbb5f4969099db891a290505b9392505050565b6060610dd061160c565b8051610dde9061010061113d565b50610e1e816040518060400160405280600c81526020017f636f64654c6f636174696f6e00000000000000000000000000000000000000008152506111b7565b610e3d8184600001516001811115610e3857610e38612157565b6111d5565b610e7c816040518060400160405280600881526020017f6c616e67756167650000000000000000000000000000000000000000000000008152506111b7565b610e968184604001516000811115610e3857610e38612157565b610ed5816040518060400160405280600681526020017f736f7572636500000000000000000000000000000000000000000000000000008152506111b7565b610ee38184606001516111b7565b60a08301515115610f8957610f2d816040518060400160405280600481526020017f61726773000000000000000000000000000000000000000000000000000000008152506111b7565b610f368161120e565b60005b8360a0015151811015610f7f57610f6d828560a001518381518110610f6057610f6061216d565b60200260200101516111b7565b80610f7781612104565b915050610f39565b50610f8981611232565b6080830151511561108a57600083602001516001811115610fac57610fac612157565b1415610fe4576040517fa80d31f700000000000000000000000000000000000000000000000000000000815260040160405180910390fd5b611023816040518060400160405280600f81526020017f736563726574734c6f636174696f6e00000000000000000000000000000000008152506111b7565b61103d8184602001516001811115610e3857610e38612157565b61107c816040518060400160405280600781526020017f73656372657473000000000000000000000000000000000000000000000000008152506111b7565b61108a818460800151611250565b515192915050565b6001600160a01b0381163314156110eb5760405162461bcd60e51b815260206004820152601760248201527f43616e6e6f74207472616e7366657220746f2073656c660000000000000000006044820152606401610389565b600380546001600160a01b0319166001600160a01b03838116918217909255600254604051919216907fed8889f560326eb138920d842192f0eb3dd22b4f139c87a2c57538e05bae127890600090a350565b60408051808201909152606081526000602082015261115d60208361211f565b156111855761116d60208361211f565b611178906020612079565b6111829083611f57565b91505b6020808401839052604051808552600081529081840101818110156111a957600080fd5b604052508290505b92915050565b6111c48260038351611259565b81516111d0908261137a565b505050565b81516111e29060c261139b565b5061032f82826040516020016111fa91815260200190565b604051602081830303815290604052611250565b611219816004611404565b60018160200181815161122c9190611f57565b90525050565b61123d816007611404565b60018160200181815161122c9190612079565b6111c482600283515b60178167ffffffffffffffff16116112805782516103179060e0600585901b16831761139b565b60ff8167ffffffffffffffff16116112c25782516112a9906018611fe0600586901b161761139b565b5082516103179067ffffffffffffffff8316600161141b565b61ffff8167ffffffffffffffff16116113055782516112ec906019611fe0600586901b161761139b565b5082516103179067ffffffffffffffff8316600261141b565b63ffffffff8167ffffffffffffffff161161134a57825161133190601a611fe0600586901b161761139b565b5082516103179067ffffffffffffffff8316600461141b565b825161136190601b611fe0600586901b161761139b565b5082516103179067ffffffffffffffff8316600861141b565b604080518082019091526060815260006020820152610dbf838384516114a0565b60408051808201909152606081526000602082015282515160006113c0826001611f57565b9050846020015182106113e1576113e1856113dc83600261205a565b611571565b84516020838201018581535080518211156113fa578181525b5093949350505050565b81516111d090601f611fe0600585901b161761139b565b604080518082019091526060815260006020820152835151600061143f8285611f57565b9050856020015181111561145c5761145c866113dc83600261205a565b6000600161146c86610100611fb2565b6114769190612079565b90508651828101878319825116178152508051831115611494578281525b50959695505050505050565b60408051808201909152606081526000602082015282518211156114c357600080fd5b83515160006114d28483611f57565b905085602001518111156114ef576114ef866113dc83600261205a565b855180518382016020019160009180851115611509578482525b505050602086015b602086106115495780518252611528602083611f57565b9150611535602082611f57565b9050611542602087612079565b9550611511565b51815160001960208890036101000a0190811690199190911617905250849150509392505050565b815161157d838361113d565b50610317838261137a565b828054611594906120c9565b90600052602060002090601f0160209004810192826115b657600085556115fc565b82601f106115cf57805160ff19168380011785556115fc565b828001600101855582156115fc579182015b828111156115fc5782518255916020019190600101906115e1565b50611608929150611641565b5090565b6040518060400160405280611634604051806040016040528060608152602001600081525090565b8152602001600081525090565b5b808211156116085760008155600101611642565b600067ffffffffffffffff8084111561167157611671612183565b8360051b6020611682818301611efe565b86815293508084018583810189101561169a57600080fd5b60009350835b888110156116d5578135868111156116b6578586fd5b6116c28b828b01611783565b84525091830191908301906001016116a0565b5050505050509392505050565b60006116f56116f084611f2f565b611efe565b905082815283838301111561170957600080fd5b610dbf83602083018461209d565b60008083601f84011261172957600080fd5b50813567ffffffffffffffff81111561174157600080fd5b6020830191508360208260051b850101111561175c57600080fd5b9250929050565b600082601f83011261177457600080fd5b610dbf83833560208501611656565b600082601f83011261179457600080fd5b81356117a26116f082611f2f565b8181528460208386010111156117b757600080fd5b816020850160208301376000918101602001919091529392505050565b8035600181106117e357600080fd5b919050565b8035600281106117e357600080fd5b600082601f83011261180857600080fd5b610dbf838351602085016116e2565b803563ffffffff811681146117e357600080fd5b803567ffffffffffffffff811681146117e357600080fd5b60006020828403121561185557600080fd5b8135610dbf81612199565b60006020828403121561187257600080fd5b8151610dbf81612199565b6000806040838503121561189057600080fd5b823561189b81612199565b946020939093013593505050565b6000602082840312156118bb57600080fd5b5035919050565b6000602082840312156118d457600080fd5b5051919050565b6000806000606084860312156118f057600080fd5b83359250602084013567ffffffffffffffff8082111561190f57600080fd5b61191b87838801611783565b9350604086013591508082111561193157600080fd5b5061193e86828701611783565b9150509250925092565b60006020828403121561195a57600080fd5b815167ffffffffffffffff81111561197157600080fd5b8201601f8101841361198257600080fd5b611991848251602084016116e2565b949350505050565b600080600080600080600060a0888a0312156119b457600080fd5b873567ffffffffffffffff808211156119cc57600080fd5b818a0191508a601f8301126119e057600080fd5b8135818111156119ef57600080fd5b8b6020828501011115611a0157600080fd5b602092830199509750908901359080821115611a1c57600080fd5b50611a298a828b01611717565b9096509450611a3c90506040890161182b565b9250611a4a60608901611817565b91506080880135905092959891949750929550565b600060208284031215611a7157600080fd5b813567ffffffffffffffff811115611a8857600080fd5b61199184828501611783565b600060208284031215611aa657600080fd5b815167ffffffffffffffff80821115611abe57600080fd5b908301906101808286031215611ad357600080fd5b611adb611eb1565b825182811115611aea57600080fd5b611af6878286016117f7565b825250602083015182811115611b0b57600080fd5b611b17878286016117f7565b602083015250604083015182811115611b2f57600080fd5b611b3b878286016117f7565b604083015250606083015182811115611b5357600080fd5b611b5f878286016117f7565b606083015250608083015182811115611b7757600080fd5b611b83878286016117f7565b60808301525060a083015182811115611b9b57600080fd5b611ba7878286016117f7565b60a08301525060c083015182811115611bbf57600080fd5b611bcb878286016117f7565b60c08301525060e083015182811115611be357600080fd5b611bef878286016117f7565b60e0830152506101008084015183811115611c0957600080fd5b611c15888287016117f7565b8284015250506101208084015183811115611c2f57600080fd5b611c3b888287016117f7565b8284015250506101408084015183811115611c5557600080fd5b611c61888287016117f7565b8284015250506101608084015183811115611c7b57600080fd5b611c87888287016117f7565b918301919091525095945050505050565b60008060008060808587031215611cae57600080fd5b843567ffffffffffffffff80821115611cc657600080fd5b9086019060c08289031215611cda57600080fd5b611ce2611edb565b611ceb836117e8565b8152611cf9602084016117e8565b6020820152611d0a604084016117d4565b6040820152606083013582811115611d2157600080fd5b611d2d8a828601611783565b606083015250608083013582811115611d4557600080fd5b611d518a828601611783565b60808301525060a083013582811115611d6957600080fd5b611d758a828601611763565b60a0830152509550611d8c9150506020860161182b565b9250611d9a60408601611817565b9396929550929360600135925050565b600060208284031215611dbc57600080fd5b81516bffffffffffffffffffffffff81168114610dbf57600080fd5b60008151808452611df081602086016020860161209d565b601f01601f19169290920160200192915050565b602081526000610dbf6020830184611dd8565b604081526000611e2a6040830185611dd8565b82810360208401526107118185611dd8565b67ffffffffffffffff84168152606060208201526000611e5f6060830185611dd8565b905063ffffffff83166040830152949350505050565b67ffffffffffffffff85168152608060208201526000611e986080830186611dd8565b63ffffffff949094166040830152506060015292915050565b604051610180810167ffffffffffffffff81118282101715611ed557611ed5612183565b60405290565b60405160c0810167ffffffffffffffff81118282101715611ed557611ed5612183565b604051601f8201601f1916810167ffffffffffffffff81118282101715611f2757611f27612183565b604052919050565b600067ffffffffffffffff821115611f4957611f49612183565b50601f01601f191660200190565b60008219821115611f6a57611f6a612141565b500190565b600181815b80851115611faa578160001904821115611f9057611f90612141565b80851615611f9d57918102915b93841c9390800290611f74565b509250929050565b6000610dbf8383600082611fc8575060016111b1565b81611fd5575060006111b1565b8160018114611feb5760028114611ff557612011565b60019150506111b1565b60ff84111561200657612006612141565b50506001821b6111b1565b5060208310610133831016604e8410600b8410161715612034575081810a6111b1565b61203e8383611f6f565b806000190482111561205257612052612141565b029392505050565b600081600019048311821515161561207457612074612141565b500290565b60008282101561208b5761208b612141565b500390565b6000610dbf368484611656565b60005b838110156120b85781810151838201526020016120a0565b838111156103175750506000910152565b600181811c908216806120dd57607f821691505b602082108114156120fe57634e487b7160e01b600052602260045260246000fd5b50919050565b600060001982141561211857612118612141565b5060010190565b60008261213c57634e487b7160e01b600052601260045260246000fd5b500690565b634e487b7160e01b600052601160045260246000fd5b634e487b7160e01b600052602160045260246000fd5b634e487b7160e01b600052603260045260246000fd5b634e487b7160e01b600052604160045260246000fd5b6001600160a01b038116811461072b57600080fdfea264697066735822122080f65937b06f67b1d5b5aa1a03839aa811d20cc1e3bf8bdd1842a476316b540c64736f6c63430008070033","opcodes":"PUSH1 0x80 PUSH1 0x40 MSTORE CALLVALUE DUP1 ISZERO PUSH3 0x11 JUMPI PUSH1 0x0 DUP1 REVERT JUMPDEST POP PUSH1 0x40 MLOAD PUSH3 0x2404 CODESIZE SUB DUP1 PUSH3 0x2404 DUP4 CODECOPY DUP2 ADD PUSH1 0x40 DUP2 SWAP1 MSTORE PUSH3 0x34 SWAP2 PUSH3 0x1D8 JUMP JUMPDEST PUSH1 0x0 DUP1 SLOAD PUSH1 0x1 PUSH1 0x1 PUSH1 0xA0 SHL SUB NOT AND PUSH1 0x1 PUSH1 0x1 PUSH1 0xA0 SHL SUB DUP5 AND OR DUP2 SSTORE CALLER SWAP1 DUP2 SWAP1 PUSH1 0x1 PUSH1 0x1 PUSH1 0xA0 SHL SUB DUP3 AND PUSH3 0xAF JUMPI PUSH1 0x40 MLOAD PUSH3 0x461BCD PUSH1 0xE5 SHL DUP2 MSTORE PUSH1 0x20 PUSH1 0x4 DUP3 ADD MSTORE PUSH1 0x18 PUSH1 0x24 DUP3 ADD MSTORE PUSH32 0x43616E6E6F7420736574206F776E657220746F207A65726F0000000000000000 PUSH1 0x44 DUP3 ADD MSTORE PUSH1 0x64 ADD JUMPDEST PUSH1 0x40 MLOAD DUP1 SWAP2 SUB SWAP1 REVERT JUMPDEST PUSH1 0x2 DUP1 SLOAD PUSH1 0x1 PUSH1 0x1 PUSH1 0xA0 SHL SUB NOT AND PUSH1 0x1 PUSH1 0x1 PUSH1 0xA0 SHL SUB DUP5 DUP2 AND SWAP2 SWAP1 SWAP2 OR SWAP1 SWAP2 SSTORE DUP2 AND ISZERO PUSH3 0xE2 JUMPI PUSH3 0xE2 DUP2 PUSH3 0x10E JUMP JUMPDEST POP POP PUSH1 0x7 DUP1 SLOAD PUSH1 0x1 PUSH1 0x1 PUSH1 0xA0 SHL SUB NOT AND PUSH1 0x1 PUSH1 0x1 PUSH1 0xA0 SHL SUB SWAP4 SWAP1 SWAP4 AND SWAP3 SWAP1 SWAP3 OR SWAP1 SWAP2 SSTORE POP PUSH3 0x210 SWAP1 POP JUMP JUMPDEST PUSH1 0x1 PUSH1 0x1 PUSH1 0xA0 SHL SUB DUP2 AND CALLER EQ ISZERO PUSH3 0x169 JUMPI PUSH1 0x40 MLOAD PUSH3 0x461BCD PUSH1 0xE5 SHL DUP2 MSTORE PUSH1 0x20 PUSH1 0x4 DUP3 ADD MSTORE PUSH1 0x17 PUSH1 0x24 DUP3 ADD MSTORE PUSH32 0x43616E6E6F74207472616E7366657220746F2073656C66000000000000000000 PUSH1 0x44 DUP3 ADD MSTORE PUSH1 0x64 ADD PUSH3 0xA6 JUMP JUMPDEST PUSH1 0x3 DUP1 SLOAD PUSH1 0x1 PUSH1 0x1 PUSH1 0xA0 SHL SUB NOT AND PUSH1 0x1 PUSH1 0x1 PUSH1 0xA0 SHL SUB DUP4 DUP2 AND SWAP2 DUP3 OR SWAP1 SWAP3 SSTORE PUSH1 0x2 SLOAD PUSH1 0x40 MLOAD SWAP2 SWAP3 AND SWAP1 PUSH32 0xED8889F560326EB138920D842192F0EB3DD22B4F139C87A2C57538E05BAE1278 SWAP1 PUSH1 0x0 SWAP1 LOG3 POP JUMP JUMPDEST DUP1 MLOAD PUSH1 0x1 PUSH1 0x1 PUSH1 0xA0 SHL SUB DUP2 AND DUP2 EQ PUSH3 0x1D3 JUMPI PUSH1 0x0 DUP1 REVERT JUMPDEST SWAP2 SWAP1 POP JUMP JUMPDEST PUSH1 0x0 DUP1 PUSH1 0x40 DUP4 DUP6 SUB SLT ISZERO PUSH3 0x1EC JUMPI PUSH1 0x0 DUP1 REVERT JUMPDEST PUSH3 0x1F7 DUP4 PUSH3 0x1BB JUMP JUMPDEST SWAP2 POP PUSH3 0x207 PUSH1 0x20 DUP5 ADD PUSH3 0x1BB JUMP JUMPDEST SWAP1 POP SWAP3 POP SWAP3 SWAP1 POP JUMP JUMPDEST PUSH2 0x21E4 DUP1 PUSH3 0x220 PUSH1 0x0 CODECOPY PUSH1 0x0 RETURN INVALID PUSH1 0x80 PUSH1 0x40 MSTORE CALLVALUE DUP1 ISZERO PUSH2 0x10 JUMPI PUSH1 0x0 DUP1 REVERT JUMPDEST POP PUSH1 0x4 CALLDATASIZE LT PUSH2 0x100 JUMPI PUSH1 0x0 CALLDATALOAD PUSH1 0xE0 SHR DUP1 PUSH4 0xAC5D3723 GT PUSH2 0x97 JUMPI DUP1 PUSH4 0xD4B39175 GT PUSH2 0x66 JUMPI DUP1 PUSH4 0xD4B39175 EQ PUSH2 0x219 JUMPI DUP1 PUSH4 0xF2FDE38B EQ PUSH2 0x249 JUMPI DUP1 PUSH4 0xF7023BB6 EQ PUSH2 0x25C JUMPI DUP1 PUSH4 0xFFFEB84E EQ PUSH2 0x26F JUMPI PUSH1 0x0 DUP1 REVERT JUMPDEST DUP1 PUSH4 0xAC5D3723 EQ PUSH2 0x1D6 JUMPI DUP1 PUSH4 0xBEF3A2F0 EQ PUSH2 0x1E9 JUMPI DUP1 PUSH4 0xD012A5A8 EQ PUSH2 0x1FE JUMPI DUP1 PUSH4 0xD328A91E EQ PUSH2 0x211 JUMPI PUSH1 0x0 DUP1 REVERT JUMPDEST DUP1 PUSH4 0x4732889D GT PUSH2 0xD3 JUMPI DUP1 PUSH4 0x4732889D EQ PUSH2 0x18A JUMPI DUP1 PUSH4 0x79BA5097 EQ PUSH2 0x1AA JUMPI DUP1 PUSH4 0x7F30DFA9 EQ PUSH2 0x1B2 JUMPI DUP1 PUSH4 0x8DA5CB5B EQ PUSH2 0x1C5 JUMPI PUSH1 0x0 DUP1 REVERT JUMPDEST DUP1 PUSH4 0xCA76175 EQ PUSH2 0x105 JUMPI DUP1 PUSH4 0x1AA46F59 EQ PUSH2 0x11A JUMPI DUP1 PUSH4 0x219C0EEE EQ PUSH2 0x136 JUMPI DUP1 PUSH4 0x30BDA99D EQ PUSH2 0x177 JUMPI JUMPDEST PUSH1 0x0 DUP1 REVERT JUMPDEST PUSH2 0x118 PUSH2 0x113 CALLDATASIZE PUSH1 0x4 PUSH2 0x18DB JUMP JUMPDEST PUSH2 0x277 JUMP JUMPDEST STOP JUMPDEST PUSH2 0x123 PUSH1 0x4 SLOAD DUP2 JUMP JUMPDEST PUSH1 0x40 MLOAD SWAP1 DUP2 MSTORE PUSH1 0x20 ADD JUMPDEST PUSH1 0x40 MLOAD DUP1 SWAP2 SUB SWAP1 RETURN JUMPDEST PUSH2 0x15F PUSH2 0x144 CALLDATASIZE PUSH1 0x4 PUSH2 0x18A9 JUMP JUMPDEST PUSH1 0x9 PUSH1 0x20 MSTORE PUSH1 0x0 SWAP1 DUP2 MSTORE PUSH1 0x40 SWAP1 KECCAK256 SLOAD PUSH1 0x1 PUSH1 0x1 PUSH1 0xA0 SHL SUB AND DUP2 JUMP JUMPDEST PUSH1 0x40 MLOAD PUSH1 0x1 PUSH1 0x1 PUSH1 0xA0 SHL SUB SWAP1 SWAP2 AND DUP2 MSTORE PUSH1 0x20 ADD PUSH2 0x12D JUMP JUMPDEST PUSH2 0x118 PUSH2 0x185 CALLDATASIZE PUSH1 0x4 PUSH2 0x187D JUMP JUMPDEST PUSH2 0x31D JUMP JUMPDEST PUSH2 0x123 PUSH2 0x198 CALLDATASIZE PUSH1 0x4 PUSH2 0x18A9 JUMP JUMPDEST PUSH1 0x8 PUSH1 0x20 MSTORE PUSH1 0x0 SWAP1 DUP2 MSTORE PUSH1 0x40 SWAP1 KECCAK256 SLOAD DUP2 JUMP JUMPDEST PUSH2 0x118 PUSH2 0x333 JUMP JUMPDEST PUSH2 0x123 PUSH2 0x1C0 CALLDATASIZE PUSH1 0x4 PUSH2 0x1999 JUMP JUMPDEST PUSH2 0x3ED JUMP JUMPDEST PUSH1 0x2 SLOAD PUSH1 0x1 PUSH1 0x1 PUSH1 0xA0 SHL SUB AND PUSH2 0x15F JUMP JUMPDEST PUSH2 0x123 PUSH2 0x1E4 CALLDATASIZE PUSH1 0x4 PUSH2 0x1A5F JUMP JUMPDEST PUSH2 0x4D6 JUMP JUMPDEST PUSH2 0x1F1 PUSH2 0x558 JUMP JUMPDEST PUSH1 0x40 MLOAD PUSH2 0x12D SWAP2 SWAP1 PUSH2 0x1E04 JUMP JUMPDEST PUSH1 0x7 SLOAD PUSH2 0x15F SWAP1 PUSH1 0x1 PUSH1 0x1 PUSH1 0xA0 SHL SUB AND DUP2 JUMP JUMPDEST PUSH2 0x1F1 PUSH2 0x5E6 JUMP JUMPDEST PUSH2 0x22C PUSH2 0x227 CALLDATASIZE PUSH1 0x4 PUSH2 0x1C98 JUMP JUMPDEST PUSH2 0x684 JUMP JUMPDEST PUSH1 0x40 MLOAD PUSH12 0xFFFFFFFFFFFFFFFFFFFFFFFF SWAP1 SWAP2 AND DUP2 MSTORE PUSH1 0x20 ADD PUSH2 0x12D JUMP JUMPDEST PUSH2 0x118 PUSH2 0x257 CALLDATASIZE PUSH1 0x4 PUSH2 0x1843 JUMP JUMPDEST PUSH2 0x71A JUMP JUMPDEST PUSH2 0x118 PUSH2 0x26A CALLDATASIZE PUSH1 0x4 PUSH2 0x1843 JUMP JUMPDEST PUSH2 0x72E JUMP JUMPDEST PUSH2 0x1F1 PUSH2 0x754 JUMP JUMPDEST PUSH1 0x0 DUP4 DUP2 MSTORE PUSH1 0x1 PUSH1 0x20 MSTORE PUSH1 0x40 SWAP1 KECCAK256 SLOAD DUP4 SWAP1 PUSH1 0x1 PUSH1 0x1 PUSH1 0xA0 SHL SUB AND CALLER EQ PUSH2 0x2C9 JUMPI PUSH1 0x40 MLOAD PUSH32 0xA0C5EC6300000000000000000000000000000000000000000000000000000000 DUP2 MSTORE PUSH1 0x4 ADD PUSH1 0x40 MLOAD DUP1 SWAP2 SUB SWAP1 REVERT JUMPDEST PUSH1 0x0 DUP2 DUP2 MSTORE PUSH1 0x1 PUSH1 0x20 MSTORE PUSH1 0x40 DUP1 DUP3 KECCAK256 DUP1 SLOAD PUSH1 0x1 PUSH1 0x1 PUSH1 0xA0 SHL SUB NOT AND SWAP1 SSTORE MLOAD DUP3 SWAP2 PUSH32 0x85E1543BF2F84FE80C6BADBCE3648C8539AD1DF4D2B3D822938CA0538BE727E6 SWAP2 LOG2 PUSH2 0x317 DUP5 DUP5 DUP5 PUSH2 0x761 JUMP JUMPDEST POP POP POP POP JUMP JUMPDEST PUSH2 0x325 PUSH2 0xAA2 JUMP JUMPDEST PUSH2 0x32F DUP3 DUP3 PUSH2 0xAFE JUMP JUMPDEST POP POP JUMP JUMPDEST PUSH1 0x3 SLOAD PUSH1 0x1 PUSH1 0x1 PUSH1 0xA0 SHL SUB AND CALLER EQ PUSH2 0x392 JUMPI PUSH1 0x40 MLOAD PUSH3 0x461BCD PUSH1 0xE5 SHL DUP2 MSTORE PUSH1 0x20 PUSH1 0x4 DUP3 ADD MSTORE PUSH1 0x16 PUSH1 0x24 DUP3 ADD MSTORE PUSH32 0x4D7573742062652070726F706F736564206F776E657200000000000000000000 PUSH1 0x44 DUP3 ADD MSTORE PUSH1 0x64 ADD JUMPDEST PUSH1 0x40 MLOAD DUP1 SWAP2 SUB SWAP1 REVERT JUMPDEST PUSH1 0x2 DUP1 SLOAD PUSH1 0x1 PUSH1 0x1 PUSH1 0xA0 SHL SUB NOT DUP1 DUP3 AND CALLER SWAP1 DUP2 OR SWAP1 SWAP4 SSTORE PUSH1 0x3 DUP1 SLOAD SWAP1 SWAP2 AND SWAP1 SSTORE PUSH1 0x40 MLOAD PUSH1 0x1 PUSH1 0x1 PUSH1 0xA0 SHL SUB SWAP1 SWAP2 AND SWAP2 SWAP1 DUP3 SWAP1 PUSH32 0x8BE0079C531659141344CD1FD0A4F28419497F9722A3DAAFE3B4186F6B6457E0 SWAP1 PUSH1 0x0 SWAP1 LOG3 POP JUMP JUMPDEST PUSH1 0x0 PUSH2 0x429 PUSH1 0x40 DUP1 MLOAD PUSH1 0xC0 DUP2 ADD SWAP1 SWAP2 MSTORE DUP1 PUSH1 0x0 DUP2 MSTORE PUSH1 0x20 ADD PUSH1 0x0 DUP2 MSTORE PUSH1 0x20 ADD PUSH1 0x0 DUP2 MSTORE PUSH1 0x20 ADD PUSH1 0x60 DUP2 MSTORE PUSH1 0x20 ADD PUSH1 0x60 DUP2 MSTORE PUSH1 0x20 ADD PUSH1 0x60 DUP2 MSTORE POP SWAP1 JUMP JUMPDEST PUSH2 0x470 PUSH1 0x0 DUP1 DUP12 DUP12 DUP1 DUP1 PUSH1 0x1F ADD PUSH1 0x20 DUP1 SWAP2 DIV MUL PUSH1 0x20 ADD PUSH1 0x40 MLOAD SWAP1 DUP2 ADD PUSH1 0x40 MSTORE DUP1 SWAP4 SWAP3 SWAP2 SWAP1 DUP2 DUP2 MSTORE PUSH1 0x20 ADD DUP4 DUP4 DUP1 DUP3 DUP5 CALLDATACOPY PUSH1 0x0 SWAP3 ADD SWAP2 SWAP1 SWAP2 MSTORE POP DUP8 SWAP6 SWAP5 SWAP4 SWAP3 POP POP PUSH2 0xB7E SWAP1 POP JUMP JUMPDEST DUP6 ISZERO PUSH2 0x48A JUMPI PUSH2 0x48A PUSH2 0x483 DUP8 DUP10 PUSH2 0x2090 JUMP JUMPDEST DUP3 SWAP1 PUSH2 0xC12 JUMP JUMPDEST PUSH1 0x0 PUSH2 0x497 DUP3 DUP8 DUP8 PUSH2 0xC52 JUMP JUMPDEST PUSH1 0x4 DUP2 SWAP1 SSTORE PUSH1 0x0 DUP2 DUP2 MSTORE PUSH1 0x8 PUSH1 0x20 SWAP1 DUP2 MSTORE PUSH1 0x40 DUP1 DUP4 KECCAK256 DUP9 SWAP1 SSTORE PUSH1 0x9 SWAP1 SWAP2 MSTORE SWAP1 KECCAK256 DUP1 SLOAD PUSH1 0x1 PUSH1 0x1 PUSH1 0xA0 SHL SUB NOT AND CALLER OR SWAP1 SSTORE SWAP3 POP POP POP SWAP8 SWAP7 POP POP POP POP POP POP POP JUMP JUMPDEST PUSH1 0x0 DUP2 DUP2 DUP1 JUMPDEST DUP3 MLOAD DUP2 LT ISZERO PUSH2 0x550 JUMPI PUSH1 0x0 DUP4 DUP3 DUP2 MLOAD DUP2 LT PUSH2 0x4F9 JUMPI PUSH2 0x4F9 PUSH2 0x216D JUMP JUMPDEST ADD PUSH1 0x20 ADD MLOAD PUSH1 0xF8 SHR SWAP1 POP PUSH1 0x30 DUP2 LT DUP1 ISZERO SWAP1 PUSH2 0x515 JUMPI POP PUSH1 0x39 DUP2 GT ISZERO JUMPDEST ISZERO PUSH2 0x53D JUMPI PUSH2 0x525 PUSH1 0x30 DUP3 PUSH2 0x2079 JUMP JUMPDEST PUSH2 0x530 DUP5 PUSH1 0xA PUSH2 0x205A JUMP JUMPDEST PUSH2 0x53A SWAP2 SWAP1 PUSH2 0x1F57 JUMP JUMPDEST SWAP3 POP JUMPDEST POP DUP1 PUSH2 0x548 DUP2 PUSH2 0x2104 JUMP JUMPDEST SWAP2 POP POP PUSH2 0x4DC JUMP JUMPDEST POP SWAP4 SWAP3 POP POP POP JUMP JUMPDEST PUSH1 0x5 DUP1 SLOAD PUSH2 0x565 SWAP1 PUSH2 0x20C9 JUMP JUMPDEST DUP1 PUSH1 0x1F ADD PUSH1 0x20 DUP1 SWAP2 DIV MUL PUSH1 0x20 ADD PUSH1 0x40 MLOAD SWAP1 DUP2 ADD PUSH1 0x40 MSTORE DUP1 SWAP3 SWAP2 SWAP1 DUP2 DUP2 MSTORE PUSH1 0x20 ADD DUP3 DUP1 SLOAD PUSH2 0x591 SWAP1 PUSH2 0x20C9 JUMP JUMPDEST DUP1 ISZERO PUSH2 0x5DE JUMPI DUP1 PUSH1 0x1F LT PUSH2 0x5B3 JUMPI PUSH2 0x100 DUP1 DUP4 SLOAD DIV MUL DUP4 MSTORE SWAP2 PUSH1 0x20 ADD SWAP2 PUSH2 0x5DE JUMP JUMPDEST DUP3 ADD SWAP2 SWAP1 PUSH1 0x0 MSTORE PUSH1 0x20 PUSH1 0x0 KECCAK256 SWAP1 JUMPDEST DUP2 SLOAD DUP2 MSTORE SWAP1 PUSH1 0x1 ADD SWAP1 PUSH1 0x20 ADD DUP1 DUP4 GT PUSH2 0x5C1 JUMPI DUP3 SWAP1 SUB PUSH1 0x1F AND DUP3 ADD SWAP2 JUMPDEST POP POP POP POP POP DUP2 JUMP JUMPDEST PUSH1 0x0 DUP1 SLOAD PUSH1 0x40 DUP1 MLOAD PUSH32 0xD328A91E00000000000000000000000000000000000000000000000000000000 DUP2 MSTORE SWAP1 MLOAD PUSH1 0x60 SWAP4 PUSH1 0x1 PUSH1 0x1 PUSH1 0xA0 SHL SUB SWAP1 SWAP4 AND SWAP3 PUSH4 0xD328A91E SWAP3 PUSH1 0x4 DUP1 DUP3 ADD SWAP4 SWAP2 DUP3 SWAP1 SUB ADD DUP2 DUP7 DUP1 EXTCODESIZE ISZERO DUP1 ISZERO PUSH2 0x643 JUMPI PUSH1 0x0 DUP1 REVERT JUMPDEST POP GAS STATICCALL ISZERO DUP1 ISZERO PUSH2 0x657 JUMPI RETURNDATASIZE PUSH1 0x0 DUP1 RETURNDATACOPY RETURNDATASIZE PUSH1 0x0 REVERT JUMPDEST POP POP POP POP PUSH1 0x40 MLOAD RETURNDATASIZE PUSH1 0x0 DUP3 RETURNDATACOPY PUSH1 0x1F RETURNDATASIZE SWAP1 DUP2 ADD PUSH1 0x1F NOT AND DUP3 ADD PUSH1 0x40 MSTORE PUSH2 0x67F SWAP2 SWAP1 DUP2 ADD SWAP1 PUSH2 0x1948 JUMP JUMPDEST SWAP1 POP SWAP1 JUMP JUMPDEST PUSH1 0x0 DUP1 SLOAD PUSH1 0x1 PUSH1 0x1 PUSH1 0xA0 SHL SUB AND PUSH4 0xD227D245 DUP6 PUSH2 0x6A0 DUP9 PUSH2 0xDC6 JUMP JUMPDEST DUP7 DUP7 PUSH1 0x40 MLOAD DUP6 PUSH4 0xFFFFFFFF AND PUSH1 0xE0 SHL DUP2 MSTORE PUSH1 0x4 ADD PUSH2 0x6C1 SWAP5 SWAP4 SWAP3 SWAP2 SWAP1 PUSH2 0x1E75 JUMP JUMPDEST PUSH1 0x20 PUSH1 0x40 MLOAD DUP1 DUP4 SUB DUP2 DUP7 DUP1 EXTCODESIZE ISZERO DUP1 ISZERO PUSH2 0x6D9 JUMPI PUSH1 0x0 DUP1 REVERT JUMPDEST POP GAS STATICCALL ISZERO DUP1 ISZERO PUSH2 0x6ED JUMPI RETURNDATASIZE PUSH1 0x0 DUP1 RETURNDATACOPY RETURNDATASIZE PUSH1 0x0 REVERT JUMPDEST POP POP POP POP PUSH1 0x40 MLOAD RETURNDATASIZE PUSH1 0x1F NOT PUSH1 0x1F DUP3 ADD AND DUP3 ADD DUP1 PUSH1 0x40 MSTORE POP DUP2 ADD SWAP1 PUSH2 0x711 SWAP2 SWAP1 PUSH2 0x1DAA JUMP JUMPDEST SWAP6 SWAP5 POP POP POP POP POP JUMP JUMPDEST PUSH2 0x722 PUSH2 0xAA2 JUMP JUMPDEST PUSH2 0x72B DUP2 PUSH2 0x1092 JUMP JUMPDEST POP JUMP JUMPDEST PUSH2 0x736 PUSH2 0xAA2 JUMP JUMPDEST PUSH1 0x0 DUP1 SLOAD PUSH1 0x1 PUSH1 0x1 PUSH1 0xA0 SHL SUB NOT AND PUSH1 0x1 PUSH1 0x1 PUSH1 0xA0 SHL SUB DUP4 AND OR SWAP1 SSTORE POP JUMP JUMPDEST PUSH1 0x6 DUP1 SLOAD PUSH2 0x565 SWAP1 PUSH2 0x20C9 JUMP JUMPDEST DUP2 MLOAD PUSH2 0x774 SWAP1 PUSH1 0x5 SWAP1 PUSH1 0x20 DUP6 ADD SWAP1 PUSH2 0x1588 JUMP JUMPDEST POP DUP1 MLOAD PUSH2 0x788 SWAP1 PUSH1 0x6 SWAP1 PUSH1 0x20 DUP5 ADD SWAP1 PUSH2 0x1588 JUMP JUMPDEST POP DUP3 PUSH32 0x7BAB0EC163B5C132C72B8146AC4D6E067E82ED58F8B131150AA71C9258911562 DUP4 DUP4 PUSH1 0x40 MLOAD PUSH2 0x7BB SWAP3 SWAP2 SWAP1 PUSH2 0x1E17 JUMP JUMPDEST PUSH1 0x40 MLOAD DUP1 SWAP2 SUB SWAP1 LOG2 PUSH1 0x0 DUP4 DUP2 MSTORE PUSH1 0x8 PUSH1 0x20 SWAP1 DUP2 MSTORE PUSH1 0x40 DUP1 DUP4 KECCAK256 SLOAD PUSH1 0x9 SWAP1 SWAP3 MSTORE DUP1 DUP4 KECCAK256 SLOAD PUSH1 0x7 SLOAD SWAP2 MLOAD PUSH32 0x61875D8D00000000000000000000000000000000000000000000000000000000 DUP2 MSTORE CALLER PUSH1 0x4 DUP3 ADD MSTORE PUSH1 0x24 DUP2 ADD DUP5 SWAP1 MSTORE SWAP3 SWAP4 PUSH1 0x1 PUSH1 0x1 PUSH1 0xA0 SHL SUB SWAP2 DUP3 AND SWAP4 SWAP1 SWAP3 SWAP2 SWAP1 SWAP2 AND SWAP1 PUSH4 0x61875D8D SWAP1 PUSH1 0x44 ADD PUSH1 0x0 PUSH1 0x40 MLOAD DUP1 DUP4 SUB DUP2 DUP7 DUP1 EXTCODESIZE ISZERO DUP1 ISZERO PUSH2 0x849 JUMPI PUSH1 0x0 DUP1 REVERT JUMPDEST POP GAS STATICCALL ISZERO DUP1 ISZERO PUSH2 0x85D JUMPI RETURNDATASIZE PUSH1 0x0 DUP1 RETURNDATACOPY RETURNDATASIZE PUSH1 0x0 REVERT JUMPDEST POP POP POP POP PUSH1 0x40 MLOAD RETURNDATASIZE PUSH1 0x0 DUP3 RETURNDATACOPY PUSH1 0x1F RETURNDATASIZE SWAP1 DUP2 ADD PUSH1 0x1F NOT AND DUP3 ADD PUSH1 0x40 MSTORE PUSH2 0x885 SWAP2 SWAP1 DUP2 ADD SWAP1 PUSH2 0x1A94 JUMP JUMPDEST PUSH1 0x7 SLOAD PUSH1 0x40 MLOAD PUSH32 0xCC9DE25D00000000000000000000000000000000000000000000000000000000 DUP2 MSTORE SWAP2 SWAP3 POP PUSH1 0x0 SWAP2 PUSH1 0x1 PUSH1 0x1 PUSH1 0xA0 SHL SUB SWAP1 SWAP2 AND SWAP1 PUSH4 0xCC9DE25D SWAP1 PUSH2 0x8D4 SWAP1 DUP10 SWAP1 PUSH1 0x4 ADD PUSH2 0x1E04 JUMP JUMPDEST PUSH1 0x20 PUSH1 0x40 MLOAD DUP1 DUP4 SUB DUP2 DUP7 DUP1 EXTCODESIZE ISZERO DUP1 ISZERO PUSH2 0x8EC JUMPI PUSH1 0x0 DUP1 REVERT JUMPDEST POP GAS STATICCALL ISZERO DUP1 ISZERO PUSH2 0x900 JUMPI RETURNDATASIZE PUSH1 0x0 DUP1 RETURNDATACOPY RETURNDATASIZE PUSH1 0x0 REVERT JUMPDEST POP POP POP POP PUSH1 0x40 MLOAD RETURNDATASIZE PUSH1 0x1F NOT PUSH1 0x1F DUP3 ADD AND DUP3 ADD DUP1 PUSH1 0x40 MSTORE POP DUP2 ADD SWAP1 PUSH2 0x924 SWAP2 SWAP1 PUSH2 0x18C2 JUMP JUMPDEST SWAP1 POP DUP1 ISZERO PUSH2 0xA16 JUMPI PUSH1 0x7 SLOAD PUSH1 0x40 MLOAD PUSH32 0xECD831E800000000000000000000000000000000000000000000000000000000 DUP2 MSTORE PUSH1 0x1 PUSH1 0x1 PUSH1 0xA0 SHL SUB DUP6 DUP2 AND PUSH1 0x4 DUP4 ADD MSTORE PUSH1 0x24 DUP3 ADD DUP5 SWAP1 MSTORE SWAP1 SWAP2 AND SWAP1 PUSH4 0xECD831E8 SWAP1 PUSH1 0x44 ADD PUSH1 0x0 PUSH1 0x40 MLOAD DUP1 DUP4 SUB DUP2 PUSH1 0x0 DUP8 DUP1 EXTCODESIZE ISZERO DUP1 ISZERO PUSH2 0x993 JUMPI PUSH1 0x0 DUP1 REVERT JUMPDEST POP GAS CALL ISZERO DUP1 ISZERO PUSH2 0x9A7 JUMPI RETURNDATASIZE PUSH1 0x0 DUP1 RETURNDATACOPY RETURNDATASIZE PUSH1 0x0 REVERT JUMPDEST POP POP PUSH1 0x7 SLOAD PUSH1 0x40 MLOAD PUSH4 0x2F1635A3 PUSH1 0xE2 SHL DUP2 MSTORE PUSH1 0x1 PUSH1 0x1 PUSH1 0xA0 SHL SUB DUP8 DUP2 AND PUSH1 0x4 DUP4 ADD MSTORE PUSH1 0x24 DUP3 ADD DUP10 SWAP1 MSTORE SWAP1 SWAP2 AND SWAP3 POP PUSH4 0xBC58D68C SWAP2 POP PUSH1 0x44 ADD PUSH1 0x0 PUSH1 0x40 MLOAD DUP1 DUP4 SUB DUP2 PUSH1 0x0 DUP8 DUP1 EXTCODESIZE ISZERO DUP1 ISZERO PUSH2 0x9F9 JUMPI PUSH1 0x0 DUP1 REVERT JUMPDEST POP GAS CALL ISZERO DUP1 ISZERO PUSH2 0xA0D JUMPI RETURNDATASIZE PUSH1 0x0 DUP1 RETURNDATACOPY RETURNDATASIZE PUSH1 0x0 REVERT JUMPDEST POP POP POP POP PUSH2 0xA99 JUMP JUMPDEST PUSH1 0x0 PUSH2 0xA26 DUP4 PUSH2 0x140 ADD MLOAD PUSH2 0x4D6 JUMP JUMPDEST SWAP1 POP DUP1 TIMESTAMP GT ISZERO PUSH2 0xA97 JUMPI PUSH1 0x7 SLOAD PUSH1 0x40 MLOAD PUSH4 0x2F1635A3 PUSH1 0xE2 SHL DUP2 MSTORE PUSH1 0x1 PUSH1 0x1 PUSH1 0xA0 SHL SUB DUP7 DUP2 AND PUSH1 0x4 DUP4 ADD MSTORE PUSH1 0x24 DUP3 ADD DUP9 SWAP1 MSTORE SWAP1 SWAP2 AND SWAP1 PUSH4 0xBC58D68C SWAP1 PUSH1 0x44 ADD PUSH1 0x0 PUSH1 0x40 MLOAD DUP1 DUP4 SUB DUP2 PUSH1 0x0 DUP8 DUP1 EXTCODESIZE ISZERO DUP1 ISZERO PUSH2 0xA7E JUMPI PUSH1 0x0 DUP1 REVERT JUMPDEST POP GAS CALL ISZERO DUP1 ISZERO PUSH2 0xA92 JUMPI RETURNDATASIZE PUSH1 0x0 DUP1 RETURNDATACOPY RETURNDATASIZE PUSH1 0x0 REVERT JUMPDEST POP POP POP POP JUMPDEST POP JUMPDEST POP POP POP POP POP POP POP JUMP JUMPDEST PUSH1 0x2 SLOAD PUSH1 0x1 PUSH1 0x1 PUSH1 0xA0 SHL SUB AND CALLER EQ PUSH2 0xAFC JUMPI PUSH1 0x40 MLOAD PUSH3 0x461BCD PUSH1 0xE5 SHL DUP2 MSTORE PUSH1 0x20 PUSH1 0x4 DUP3 ADD MSTORE PUSH1 0x16 PUSH1 0x24 DUP3 ADD MSTORE PUSH32 0x4F6E6C792063616C6C61626C65206279206F776E657200000000000000000000 PUSH1 0x44 DUP3 ADD MSTORE PUSH1 0x64 ADD PUSH2 0x389 JUMP JUMPDEST JUMP JUMPDEST PUSH1 0x0 DUP2 DUP2 MSTORE PUSH1 0x1 PUSH1 0x20 MSTORE PUSH1 0x40 SWAP1 KECCAK256 SLOAD DUP2 SWAP1 PUSH1 0x1 PUSH1 0x1 PUSH1 0xA0 SHL SUB AND ISZERO PUSH2 0xB4F JUMPI PUSH1 0x40 MLOAD PUSH32 0x8B457AD200000000000000000000000000000000000000000000000000000000 DUP2 MSTORE PUSH1 0x4 ADD PUSH1 0x40 MLOAD DUP1 SWAP2 SUB SWAP1 REVERT JUMPDEST POP PUSH1 0x0 SWAP1 DUP2 MSTORE PUSH1 0x1 PUSH1 0x20 MSTORE PUSH1 0x40 SWAP1 KECCAK256 DUP1 SLOAD PUSH1 0x1 PUSH1 0x1 PUSH1 0xA0 SHL SUB NOT AND PUSH1 0x1 PUSH1 0x1 PUSH1 0xA0 SHL SUB SWAP3 SWAP1 SWAP3 AND SWAP2 SWAP1 SWAP2 OR SWAP1 SSTORE JUMP JUMPDEST DUP1 MLOAD PUSH2 0xBB6 JUMPI PUSH1 0x40 MLOAD PUSH32 0x22CE3EDD00000000000000000000000000000000000000000000000000000000 DUP2 MSTORE PUSH1 0x4 ADD PUSH1 0x40 MLOAD DUP1 SWAP2 SUB SWAP1 REVERT JUMPDEST DUP4 DUP4 PUSH1 0x1 DUP2 GT ISZERO PUSH2 0xBC9 JUMPI PUSH2 0xBC9 PUSH2 0x2157 JUMP JUMPDEST SWAP1 DUP2 PUSH1 0x1 DUP2 GT ISZERO PUSH2 0xBDC JUMPI PUSH2 0xBDC PUSH2 0x2157 JUMP JUMPDEST SWAP1 MSTORE POP PUSH1 0x40 DUP5 ADD DUP3 DUP1 ISZERO PUSH2 0xBF2 JUMPI PUSH2 0xBF2 PUSH2 0x2157 JUMP JUMPDEST SWAP1 DUP2 DUP1 ISZERO PUSH2 0xC02 JUMPI PUSH2 0xC02 PUSH2 0x2157 JUMP JUMPDEST SWAP1 MSTORE POP PUSH1 0x60 SWAP1 SWAP4 ADD SWAP3 SWAP1 SWAP3 MSTORE POP POP JUMP JUMPDEST DUP1 MLOAD PUSH2 0xC4A JUMPI PUSH1 0x40 MLOAD PUSH32 0xFE936CB700000000000000000000000000000000000000000000000000000000 DUP2 MSTORE PUSH1 0x4 ADD PUSH1 0x40 MLOAD DUP1 SWAP2 SUB SWAP1 REVERT JUMPDEST PUSH1 0xA0 SWAP1 SWAP2 ADD MSTORE JUMP JUMPDEST PUSH1 0x0 DUP1 SLOAD DUP2 SWAP1 PUSH1 0x1 PUSH1 0x1 PUSH1 0xA0 SHL SUB AND PUSH4 0x28242B04 DUP6 PUSH2 0xC70 DUP9 PUSH2 0xDC6 JUMP JUMPDEST DUP7 PUSH1 0x40 MLOAD DUP5 PUSH4 0xFFFFFFFF AND PUSH1 0xE0 SHL DUP2 MSTORE PUSH1 0x4 ADD PUSH2 0xC8F SWAP4 SWAP3 SWAP2 SWAP1 PUSH2 0x1E3C JUMP JUMPDEST PUSH1 0x20 PUSH1 0x40 MLOAD DUP1 DUP4 SUB DUP2 PUSH1 0x0 DUP8 DUP1 EXTCODESIZE ISZERO DUP1 ISZERO PUSH2 0xCA9 JUMPI PUSH1 0x0 DUP1 REVERT JUMPDEST POP GAS CALL ISZERO DUP1 ISZERO PUSH2 0xCBD JUMPI RETURNDATASIZE PUSH1 0x0 DUP1 RETURNDATACOPY RETURNDATASIZE PUSH1 0x0 REVERT JUMPDEST POP POP POP POP PUSH1 0x40 MLOAD RETURNDATASIZE PUSH1 0x1F NOT PUSH1 0x1F DUP3 ADD AND DUP3 ADD DUP1 PUSH1 0x40 MSTORE POP DUP2 ADD SWAP1 PUSH2 0xCE1 SWAP2 SWAP1 PUSH2 0x18C2 JUMP JUMPDEST SWAP1 POP PUSH1 0x0 DUP1 SLOAD SWAP1 PUSH2 0x100 EXP SWAP1 DIV PUSH1 0x1 PUSH1 0x1 PUSH1 0xA0 SHL SUB AND PUSH1 0x1 PUSH1 0x1 PUSH1 0xA0 SHL SUB AND PUSH4 0x5AB1BD53 PUSH1 0x40 MLOAD DUP2 PUSH4 0xFFFFFFFF AND PUSH1 0xE0 SHL DUP2 MSTORE PUSH1 0x4 ADD PUSH1 0x20 PUSH1 0x40 MLOAD DUP1 DUP4 SUB DUP2 DUP7 DUP1 EXTCODESIZE ISZERO DUP1 ISZERO PUSH2 0xD2F JUMPI PUSH1 0x0 DUP1 REVERT JUMPDEST POP GAS STATICCALL ISZERO DUP1 ISZERO PUSH2 0xD43 JUMPI RETURNDATASIZE PUSH1 0x0 DUP1 RETURNDATACOPY RETURNDATASIZE PUSH1 0x0 REVERT JUMPDEST POP POP POP POP PUSH1 0x40 MLOAD RETURNDATASIZE PUSH1 0x1F NOT PUSH1 0x1F DUP3 ADD AND DUP3 ADD DUP1 PUSH1 0x40 MSTORE POP DUP2 ADD SWAP1 PUSH2 0xD67 SWAP2 SWAP1 PUSH2 0x1860 JUMP JUMPDEST PUSH1 0x0 DUP3 DUP2 MSTORE PUSH1 0x1 PUSH1 0x20 MSTORE PUSH1 0x40 DUP1 DUP3 KECCAK256 DUP1 SLOAD PUSH1 0x1 PUSH1 0x1 PUSH1 0xA0 SHL SUB NOT AND PUSH1 0x1 PUSH1 0x1 PUSH1 0xA0 SHL SUB SWAP5 SWAP1 SWAP5 AND SWAP4 SWAP1 SWAP4 OR SWAP1 SWAP3 SSTORE SWAP1 MLOAD DUP3 SWAP2 PUSH32 0x1131472297A800FEE664D1D89CFA8F7676FF07189ECC53F80BBB5F4969099DB8 SWAP2 LOG2 SWAP1 POP JUMPDEST SWAP4 SWAP3 POP POP POP JUMP JUMPDEST PUSH1 0x60 PUSH2 0xDD0 PUSH2 0x160C JUMP JUMPDEST DUP1 MLOAD PUSH2 0xDDE SWAP1 PUSH2 0x100 PUSH2 0x113D JUMP JUMPDEST POP PUSH2 0xE1E DUP2 PUSH1 0x40 MLOAD DUP1 PUSH1 0x40 ADD PUSH1 0x40 MSTORE DUP1 PUSH1 0xC DUP2 MSTORE PUSH1 0x20 ADD PUSH32 0x636F64654C6F636174696F6E0000000000000000000000000000000000000000 DUP2 MSTORE POP PUSH2 0x11B7 JUMP JUMPDEST PUSH2 0xE3D DUP2 DUP5 PUSH1 0x0 ADD MLOAD PUSH1 0x1 DUP2 GT ISZERO PUSH2 0xE38 JUMPI PUSH2 0xE38 PUSH2 0x2157 JUMP JUMPDEST PUSH2 0x11D5 JUMP JUMPDEST PUSH2 0xE7C DUP2 PUSH1 0x40 MLOAD DUP1 PUSH1 0x40 ADD PUSH1 0x40 MSTORE DUP1 PUSH1 0x8 DUP2 MSTORE PUSH1 0x20 ADD PUSH32 0x6C616E6775616765000000000000000000000000000000000000000000000000 DUP2 MSTORE POP PUSH2 0x11B7 JUMP JUMPDEST PUSH2 0xE96 DUP2 DUP5 PUSH1 0x40 ADD MLOAD PUSH1 0x0 DUP2 GT ISZERO PUSH2 0xE38 JUMPI PUSH2 0xE38 PUSH2 0x2157 JUMP JUMPDEST PUSH2 0xED5 DUP2 PUSH1 0x40 MLOAD DUP1 PUSH1 0x40 ADD PUSH1 0x40 MSTORE DUP1 PUSH1 0x6 DUP2 MSTORE PUSH1 0x20 ADD PUSH32 0x736F757263650000000000000000000000000000000000000000000000000000 DUP2 MSTORE POP PUSH2 0x11B7 JUMP JUMPDEST PUSH2 0xEE3 DUP2 DUP5 PUSH1 0x60 ADD MLOAD PUSH2 0x11B7 JUMP JUMPDEST PUSH1 0xA0 DUP4 ADD MLOAD MLOAD ISZERO PUSH2 0xF89 JUMPI PUSH2 0xF2D DUP2 PUSH1 0x40 MLOAD DUP1 PUSH1 0x40 ADD PUSH1 0x40 MSTORE DUP1 PUSH1 0x4 DUP2 MSTORE PUSH1 0x20 ADD PUSH32 0x6172677300000000000000000000000000000000000000000000000000000000 DUP2 MSTORE POP PUSH2 0x11B7 JUMP JUMPDEST PUSH2 0xF36 DUP2 PUSH2 0x120E JUMP JUMPDEST PUSH1 0x0 JUMPDEST DUP4 PUSH1 0xA0 ADD MLOAD MLOAD DUP2 LT ISZERO PUSH2 0xF7F JUMPI PUSH2 0xF6D DUP3 DUP6 PUSH1 0xA0 ADD MLOAD DUP4 DUP2 MLOAD DUP2 LT PUSH2 0xF60 JUMPI PUSH2 0xF60 PUSH2 0x216D JUMP JUMPDEST PUSH1 0x20 MUL PUSH1 0x20 ADD ADD MLOAD PUSH2 0x11B7 JUMP JUMPDEST DUP1 PUSH2 0xF77 DUP2 PUSH2 0x2104 JUMP JUMPDEST SWAP2 POP POP PUSH2 0xF39 JUMP JUMPDEST POP PUSH2 0xF89 DUP2 PUSH2 0x1232 JUMP JUMPDEST PUSH1 0x80 DUP4 ADD MLOAD MLOAD ISZERO PUSH2 0x108A JUMPI PUSH1 0x0 DUP4 PUSH1 0x20 ADD MLOAD PUSH1 0x1 DUP2 GT ISZERO PUSH2 0xFAC JUMPI PUSH2 0xFAC PUSH2 0x2157 JUMP JUMPDEST EQ ISZERO PUSH2 0xFE4 JUMPI PUSH1 0x40 MLOAD PUSH32 0xA80D31F700000000000000000000000000000000000000000000000000000000 DUP2 MSTORE PUSH1 0x4 ADD PUSH1 0x40 MLOAD DUP1 SWAP2 SUB SWAP1 REVERT JUMPDEST PUSH2 0x1023 DUP2 PUSH1 0x40 MLOAD DUP1 PUSH1 0x40 ADD PUSH1 0x40 MSTORE DUP1 PUSH1 0xF DUP2 MSTORE PUSH1 0x20 ADD PUSH32 0x736563726574734C6F636174696F6E0000000000000000000000000000000000 DUP2 MSTORE POP PUSH2 0x11B7 JUMP JUMPDEST PUSH2 0x103D DUP2 DUP5 PUSH1 0x20 ADD MLOAD PUSH1 0x1 DUP2 GT ISZERO PUSH2 0xE38 JUMPI PUSH2 0xE38 PUSH2 0x2157 JUMP JUMPDEST PUSH2 0x107C DUP2 PUSH1 0x40 MLOAD DUP1 PUSH1 0x40 ADD PUSH1 0x40 MSTORE DUP1 PUSH1 0x7 DUP2 MSTORE PUSH1 0x20 ADD PUSH32 0x7365637265747300000000000000000000000000000000000000000000000000 DUP2 MSTORE POP PUSH2 0x11B7 JUMP JUMPDEST PUSH2 0x108A DUP2 DUP5 PUSH1 0x80 ADD MLOAD PUSH2 0x1250 JUMP JUMPDEST MLOAD MLOAD SWAP3 SWAP2 POP POP JUMP JUMPDEST PUSH1 0x1 PUSH1 0x1 PUSH1 0xA0 SHL SUB DUP2 AND CALLER EQ ISZERO PUSH2 0x10EB JUMPI PUSH1 0x40 MLOAD PUSH3 0x461BCD PUSH1 0xE5 SHL DUP2 MSTORE PUSH1 0x20 PUSH1 0x4 DUP3 ADD MSTORE PUSH1 0x17 PUSH1 0x24 DUP3 ADD MSTORE PUSH32 0x43616E6E6F74207472616E7366657220746F2073656C66000000000000000000 PUSH1 0x44 DUP3 ADD MSTORE PUSH1 0x64 ADD PUSH2 0x389 JUMP JUMPDEST PUSH1 0x3 DUP1 SLOAD PUSH1 0x1 PUSH1 0x1 PUSH1 0xA0 SHL SUB NOT AND PUSH1 0x1 PUSH1 0x1 PUSH1 0xA0 SHL SUB DUP4 DUP2 AND SWAP2 DUP3 OR SWAP1 SWAP3 SSTORE PUSH1 0x2 SLOAD PUSH1 0x40 MLOAD SWAP2 SWAP3 AND SWAP1 PUSH32 0xED8889F560326EB138920D842192F0EB3DD22B4F139C87A2C57538E05BAE1278 SWAP1 PUSH1 0x0 SWAP1 LOG3 POP JUMP JUMPDEST PUSH1 0x40 DUP1 MLOAD DUP1 DUP3 ADD SWAP1 SWAP2 MSTORE PUSH1 0x60 DUP2 MSTORE PUSH1 0x0 PUSH1 0x20 DUP3 ADD MSTORE PUSH2 0x115D PUSH1 0x20 DUP4 PUSH2 0x211F JUMP JUMPDEST ISZERO PUSH2 0x1185 JUMPI PUSH2 0x116D PUSH1 0x20 DUP4 PUSH2 0x211F JUMP JUMPDEST PUSH2 0x1178 SWAP1 PUSH1 0x20 PUSH2 0x2079 JUMP JUMPDEST PUSH2 0x1182 SWAP1 DUP4 PUSH2 0x1F57 JUMP JUMPDEST SWAP2 POP JUMPDEST PUSH1 0x20 DUP1 DUP5 ADD DUP4 SWAP1 MSTORE PUSH1 0x40 MLOAD DUP1 DUP6 MSTORE PUSH1 0x0 DUP2 MSTORE SWAP1 DUP2 DUP5 ADD ADD DUP2 DUP2 LT ISZERO PUSH2 0x11A9 JUMPI PUSH1 0x0 DUP1 REVERT JUMPDEST PUSH1 0x40 MSTORE POP DUP3 SWAP1 POP JUMPDEST SWAP3 SWAP2 POP POP JUMP JUMPDEST PUSH2 0x11C4 DUP3 PUSH1 0x3 DUP4 MLOAD PUSH2 0x1259 JUMP JUMPDEST DUP2 MLOAD PUSH2 0x11D0 SWAP1 DUP3 PUSH2 0x137A JUMP JUMPDEST POP POP POP JUMP JUMPDEST DUP2 MLOAD PUSH2 0x11E2 SWAP1 PUSH1 0xC2 PUSH2 0x139B JUMP JUMPDEST POP PUSH2 0x32F DUP3 DUP3 PUSH1 0x40 MLOAD PUSH1 0x20 ADD PUSH2 0x11FA SWAP2 DUP2 MSTORE PUSH1 0x20 ADD SWAP1 JUMP JUMPDEST PUSH1 0x40 MLOAD PUSH1 0x20 DUP2 DUP4 SUB SUB DUP2 MSTORE SWAP1 PUSH1 0x40 MSTORE PUSH2 0x1250 JUMP JUMPDEST PUSH2 0x1219 DUP2 PUSH1 0x4 PUSH2 0x1404 JUMP JUMPDEST PUSH1 0x1 DUP2 PUSH1 0x20 ADD DUP2 DUP2 MLOAD PUSH2 0x122C SWAP2 SWAP1 PUSH2 0x1F57 JUMP JUMPDEST SWAP1 MSTORE POP POP JUMP JUMPDEST PUSH2 0x123D DUP2 PUSH1 0x7 PUSH2 0x1404 JUMP JUMPDEST PUSH1 0x1 DUP2 PUSH1 0x20 ADD DUP2 DUP2 MLOAD PUSH2 0x122C SWAP2 SWAP1 PUSH2 0x2079 JUMP JUMPDEST PUSH2 0x11C4 DUP3 PUSH1 0x2 DUP4 MLOAD JUMPDEST PUSH1 0x17 DUP2 PUSH8 0xFFFFFFFFFFFFFFFF AND GT PUSH2 0x1280 JUMPI DUP3 MLOAD PUSH2 0x317 SWAP1 PUSH1 0xE0 PUSH1 0x5 DUP6 SWAP1 SHL AND DUP4 OR PUSH2 0x139B JUMP JUMPDEST PUSH1 0xFF DUP2 PUSH8 0xFFFFFFFFFFFFFFFF AND GT PUSH2 0x12C2 JUMPI DUP3 MLOAD PUSH2 0x12A9 SWAP1 PUSH1 0x18 PUSH2 0x1FE0 PUSH1 0x5 DUP7 SWAP1 SHL AND OR PUSH2 0x139B JUMP JUMPDEST POP DUP3 MLOAD PUSH2 0x317 SWAP1 PUSH8 0xFFFFFFFFFFFFFFFF DUP4 AND PUSH1 0x1 PUSH2 0x141B JUMP JUMPDEST PUSH2 0xFFFF DUP2 PUSH8 0xFFFFFFFFFFFFFFFF AND GT PUSH2 0x1305 JUMPI DUP3 MLOAD PUSH2 0x12EC SWAP1 PUSH1 0x19 PUSH2 0x1FE0 PUSH1 0x5 DUP7 SWAP1 SHL AND OR PUSH2 0x139B JUMP JUMPDEST POP DUP3 MLOAD PUSH2 0x317 SWAP1 PUSH8 0xFFFFFFFFFFFFFFFF DUP4 AND PUSH1 0x2 PUSH2 0x141B JUMP JUMPDEST PUSH4 0xFFFFFFFF DUP2 PUSH8 0xFFFFFFFFFFFFFFFF AND GT PUSH2 0x134A JUMPI DUP3 MLOAD PUSH2 0x1331 SWAP1 PUSH1 0x1A PUSH2 0x1FE0 PUSH1 0x5 DUP7 SWAP1 SHL AND OR PUSH2 0x139B JUMP JUMPDEST POP DUP3 MLOAD PUSH2 0x317 SWAP1 PUSH8 0xFFFFFFFFFFFFFFFF DUP4 AND PUSH1 0x4 PUSH2 0x141B JUMP JUMPDEST DUP3 MLOAD PUSH2 0x1361 SWAP1 PUSH1 0x1B PUSH2 0x1FE0 PUSH1 0x5 DUP7 SWAP1 SHL AND OR PUSH2 0x139B JUMP JUMPDEST POP DUP3 MLOAD PUSH2 0x317 SWAP1 PUSH8 0xFFFFFFFFFFFFFFFF DUP4 AND PUSH1 0x8 PUSH2 0x141B JUMP JUMPDEST PUSH1 0x40 DUP1 MLOAD DUP1 DUP3 ADD SWAP1 SWAP2 MSTORE PUSH1 0x60 DUP2 MSTORE PUSH1 0x0 PUSH1 0x20 DUP3 ADD MSTORE PUSH2 0xDBF DUP4 DUP4 DUP5 MLOAD PUSH2 0x14A0 JUMP JUMPDEST PUSH1 0x40 DUP1 MLOAD DUP1 DUP3 ADD SWAP1 SWAP2 MSTORE PUSH1 0x60 DUP2 MSTORE PUSH1 0x0 PUSH1 0x20 DUP3 ADD MSTORE DUP3 MLOAD MLOAD PUSH1 0x0 PUSH2 0x13C0 DUP3 PUSH1 0x1 PUSH2 0x1F57 JUMP JUMPDEST SWAP1 POP DUP5 PUSH1 0x20 ADD MLOAD DUP3 LT PUSH2 0x13E1 JUMPI PUSH2 0x13E1 DUP6 PUSH2 0x13DC DUP4 PUSH1 0x2 PUSH2 0x205A JUMP JUMPDEST PUSH2 0x1571 JUMP JUMPDEST DUP5 MLOAD PUSH1 0x20 DUP4 DUP3 ADD ADD DUP6 DUP2 MSTORE8 POP DUP1 MLOAD DUP3 GT ISZERO PUSH2 0x13FA JUMPI DUP2 DUP2 MSTORE JUMPDEST POP SWAP4 SWAP5 SWAP4 POP POP POP POP JUMP JUMPDEST DUP2 MLOAD PUSH2 0x11D0 SWAP1 PUSH1 0x1F PUSH2 0x1FE0 PUSH1 0x5 DUP6 SWAP1 SHL AND OR PUSH2 0x139B JUMP JUMPDEST PUSH1 0x40 DUP1 MLOAD DUP1 DUP3 ADD SWAP1 SWAP2 MSTORE PUSH1 0x60 DUP2 MSTORE PUSH1 0x0 PUSH1 0x20 DUP3 ADD MSTORE DUP4 MLOAD MLOAD PUSH1 0x0 PUSH2 0x143F DUP3 DUP6 PUSH2 0x1F57 JUMP JUMPDEST SWAP1 POP DUP6 PUSH1 0x20 ADD MLOAD DUP2 GT ISZERO PUSH2 0x145C JUMPI PUSH2 0x145C DUP7 PUSH2 0x13DC DUP4 PUSH1 0x2 PUSH2 0x205A JUMP JUMPDEST PUSH1 0x0 PUSH1 0x1 PUSH2 0x146C DUP7 PUSH2 0x100 PUSH2 0x1FB2 JUMP JUMPDEST PUSH2 0x1476 SWAP2 SWAP1 PUSH2 0x2079 JUMP JUMPDEST SWAP1 POP DUP7 MLOAD DUP3 DUP2 ADD DUP8 DUP4 NOT DUP3 MLOAD AND OR DUP2 MSTORE POP DUP1 MLOAD DUP4 GT ISZERO PUSH2 0x1494 JUMPI DUP3 DUP2 MSTORE JUMPDEST POP SWAP6 SWAP7 SWAP6 POP POP POP POP POP POP JUMP JUMPDEST PUSH1 0x40 DUP1 MLOAD DUP1 DUP3 ADD SWAP1 SWAP2 MSTORE PUSH1 0x60 DUP2 MSTORE PUSH1 0x0 PUSH1 0x20 DUP3 ADD MSTORE DUP3 MLOAD DUP3 GT ISZERO PUSH2 0x14C3 JUMPI PUSH1 0x0 DUP1 REVERT JUMPDEST DUP4 MLOAD MLOAD PUSH1 0x0 PUSH2 0x14D2 DUP5 DUP4 PUSH2 0x1F57 JUMP JUMPDEST SWAP1 POP DUP6 PUSH1 0x20 ADD MLOAD DUP2 GT ISZERO PUSH2 0x14EF JUMPI PUSH2 0x14EF DUP7 PUSH2 0x13DC DUP4 PUSH1 0x2 PUSH2 0x205A JUMP JUMPDEST DUP6 MLOAD DUP1 MLOAD DUP4 DUP3 ADD PUSH1 0x20 ADD SWAP2 PUSH1 0x0 SWAP2 DUP1 DUP6 GT ISZERO PUSH2 0x1509 JUMPI DUP5 DUP3 MSTORE JUMPDEST POP POP POP PUSH1 0x20 DUP7 ADD JUMPDEST PUSH1 0x20 DUP7 LT PUSH2 0x1549 JUMPI DUP1 MLOAD DUP3 MSTORE PUSH2 0x1528 PUSH1 0x20 DUP4 PUSH2 0x1F57 JUMP JUMPDEST SWAP2 POP PUSH2 0x1535 PUSH1 0x20 DUP3 PUSH2 0x1F57 JUMP JUMPDEST SWAP1 POP PUSH2 0x1542 PUSH1 0x20 DUP8 PUSH2 0x2079 JUMP JUMPDEST SWAP6 POP PUSH2 0x1511 JUMP JUMPDEST MLOAD DUP2 MLOAD PUSH1 0x0 NOT PUSH1 0x20 DUP9 SWAP1 SUB PUSH2 0x100 EXP ADD SWAP1 DUP2 AND SWAP1 NOT SWAP2 SWAP1 SWAP2 AND OR SWAP1 MSTORE POP DUP5 SWAP2 POP POP SWAP4 SWAP3 POP POP POP JUMP JUMPDEST DUP2 MLOAD PUSH2 0x157D DUP4 DUP4 PUSH2 0x113D JUMP JUMPDEST POP PUSH2 0x317 DUP4 DUP3 PUSH2 0x137A JUMP JUMPDEST DUP3 DUP1 SLOAD PUSH2 0x1594 SWAP1 PUSH2 0x20C9 JUMP JUMPDEST SWAP1 PUSH1 0x0 MSTORE PUSH1 0x20 PUSH1 0x0 KECCAK256 SWAP1 PUSH1 0x1F ADD PUSH1 0x20 SWAP1 DIV DUP2 ADD SWAP3 DUP3 PUSH2 0x15B6 JUMPI PUSH1 0x0 DUP6 SSTORE PUSH2 0x15FC JUMP JUMPDEST DUP3 PUSH1 0x1F LT PUSH2 0x15CF JUMPI DUP1 MLOAD PUSH1 0xFF NOT AND DUP4 DUP1 ADD OR DUP6 SSTORE PUSH2 0x15FC JUMP JUMPDEST DUP3 DUP1 ADD PUSH1 0x1 ADD DUP6 SSTORE DUP3 ISZERO PUSH2 0x15FC JUMPI SWAP2 DUP3 ADD JUMPDEST DUP3 DUP2 GT ISZERO PUSH2 0x15FC JUMPI DUP3 MLOAD DUP3 SSTORE SWAP2 PUSH1 0x20 ADD SWAP2 SWAP1 PUSH1 0x1 ADD SWAP1 PUSH2 0x15E1 JUMP JUMPDEST POP PUSH2 0x1608 SWAP3 SWAP2 POP PUSH2 0x1641 JUMP JUMPDEST POP SWAP1 JUMP JUMPDEST PUSH1 0x40 MLOAD DUP1 PUSH1 0x40 ADD PUSH1 0x40 MSTORE DUP1 PUSH2 0x1634 PUSH1 0x40 MLOAD DUP1 PUSH1 0x40 ADD PUSH1 0x40 MSTORE DUP1 PUSH1 0x60 DUP2 MSTORE PUSH1 0x20 ADD PUSH1 0x0 DUP2 MSTORE POP SWAP1 JUMP JUMPDEST DUP2 MSTORE PUSH1 0x20 ADD PUSH1 0x0 DUP2 MSTORE POP SWAP1 JUMP JUMPDEST JUMPDEST DUP1 DUP3 GT ISZERO PUSH2 0x1608 JUMPI PUSH1 0x0 DUP2 SSTORE PUSH1 0x1 ADD PUSH2 0x1642 JUMP JUMPDEST PUSH1 0x0 PUSH8 0xFFFFFFFFFFFFFFFF DUP1 DUP5 GT ISZERO PUSH2 0x1671 JUMPI PUSH2 0x1671 PUSH2 0x2183 JUMP JUMPDEST DUP4 PUSH1 0x5 SHL PUSH1 0x20 PUSH2 0x1682 DUP2 DUP4 ADD PUSH2 0x1EFE JUMP JUMPDEST DUP7 DUP2 MSTORE SWAP4 POP DUP1 DUP5 ADD DUP6 DUP4 DUP2 ADD DUP10 LT ISZERO PUSH2 0x169A JUMPI PUSH1 0x0 DUP1 REVERT JUMPDEST PUSH1 0x0 SWAP4 POP DUP4 JUMPDEST DUP9 DUP2 LT ISZERO PUSH2 0x16D5 JUMPI DUP2 CALLDATALOAD DUP7 DUP2 GT ISZERO PUSH2 0x16B6 JUMPI DUP6 DUP7 REVERT JUMPDEST PUSH2 0x16C2 DUP12 DUP3 DUP12 ADD PUSH2 0x1783 JUMP JUMPDEST DUP5 MSTORE POP SWAP2 DUP4 ADD SWAP2 SWAP1 DUP4 ADD SWAP1 PUSH1 0x1 ADD PUSH2 0x16A0 JUMP JUMPDEST POP POP POP POP POP POP SWAP4 SWAP3 POP POP POP JUMP JUMPDEST PUSH1 0x0 PUSH2 0x16F5 PUSH2 0x16F0 DUP5 PUSH2 0x1F2F JUMP JUMPDEST PUSH2 0x1EFE JUMP JUMPDEST SWAP1 POP DUP3 DUP2 MSTORE DUP4 DUP4 DUP4 ADD GT ISZERO PUSH2 0x1709 JUMPI PUSH1 0x0 DUP1 REVERT JUMPDEST PUSH2 0xDBF DUP4 PUSH1 0x20 DUP4 ADD DUP5 PUSH2 0x209D JUMP JUMPDEST PUSH1 0x0 DUP1 DUP4 PUSH1 0x1F DUP5 ADD SLT PUSH2 0x1729 JUMPI PUSH1 0x0 DUP1 REVERT JUMPDEST POP DUP2 CALLDATALOAD PUSH8 0xFFFFFFFFFFFFFFFF DUP2 GT ISZERO PUSH2 0x1741 JUMPI PUSH1 0x0 DUP1 REVERT JUMPDEST PUSH1 0x20 DUP4 ADD SWAP2 POP DUP4 PUSH1 0x20 DUP3 PUSH1 0x5 SHL DUP6 ADD ADD GT ISZERO PUSH2 0x175C JUMPI PUSH1 0x0 DUP1 REVERT JUMPDEST SWAP3 POP SWAP3 SWAP1 POP JUMP JUMPDEST PUSH1 0x0 DUP3 PUSH1 0x1F DUP4 ADD SLT PUSH2 0x1774 JUMPI PUSH1 0x0 DUP1 REVERT JUMPDEST PUSH2 0xDBF DUP4 DUP4 CALLDATALOAD PUSH1 0x20 DUP6 ADD PUSH2 0x1656 JUMP JUMPDEST PUSH1 0x0 DUP3 PUSH1 0x1F DUP4 ADD SLT PUSH2 0x1794 JUMPI PUSH1 0x0 DUP1 REVERT JUMPDEST DUP2 CALLDATALOAD PUSH2 0x17A2 PUSH2 0x16F0 DUP3 PUSH2 0x1F2F JUMP JUMPDEST DUP2 DUP2 MSTORE DUP5 PUSH1 0x20 DUP4 DUP7 ADD ADD GT ISZERO PUSH2 0x17B7 JUMPI PUSH1 0x0 DUP1 REVERT JUMPDEST DUP2 PUSH1 0x20 DUP6 ADD PUSH1 0x20 DUP4 ADD CALLDATACOPY PUSH1 0x0 SWAP2 DUP2 ADD PUSH1 0x20 ADD SWAP2 SWAP1 SWAP2 MSTORE SWAP4 SWAP3 POP POP POP JUMP JUMPDEST DUP1 CALLDATALOAD PUSH1 0x1 DUP2 LT PUSH2 0x17E3 JUMPI PUSH1 0x0 DUP1 REVERT JUMPDEST SWAP2 SWAP1 POP JUMP JUMPDEST DUP1 CALLDATALOAD PUSH1 0x2 DUP2 LT PUSH2 0x17E3 JUMPI PUSH1 0x0 DUP1 REVERT JUMPDEST PUSH1 0x0 DUP3 PUSH1 0x1F DUP4 ADD SLT PUSH2 0x1808 JUMPI PUSH1 0x0 DUP1 REVERT JUMPDEST PUSH2 0xDBF DUP4 DUP4 MLOAD PUSH1 0x20 DUP6 ADD PUSH2 0x16E2 JUMP JUMPDEST DUP1 CALLDATALOAD PUSH4 0xFFFFFFFF DUP2 AND DUP2 EQ PUSH2 0x17E3 JUMPI PUSH1 0x0 DUP1 REVERT JUMPDEST DUP1 CALLDATALOAD PUSH8 0xFFFFFFFFFFFFFFFF DUP2 AND DUP2 EQ PUSH2 0x17E3 JUMPI PUSH1 0x0 DUP1 REVERT JUMPDEST PUSH1 0x0 PUSH1 0x20 DUP3 DUP5 SUB SLT ISZERO PUSH2 0x1855 JUMPI PUSH1 0x0 DUP1 REVERT JUMPDEST DUP2 CALLDATALOAD PUSH2 0xDBF DUP2 PUSH2 0x2199 JUMP JUMPDEST PUSH1 0x0 PUSH1 0x20 DUP3 DUP5 SUB SLT ISZERO PUSH2 0x1872 JUMPI PUSH1 0x0 DUP1 REVERT JUMPDEST DUP2 MLOAD PUSH2 0xDBF DUP2 PUSH2 0x2199 JUMP JUMPDEST PUSH1 0x0 DUP1 PUSH1 0x40 DUP4 DUP6 SUB SLT ISZERO PUSH2 0x1890 JUMPI PUSH1 0x0 DUP1 REVERT JUMPDEST DUP3 CALLDATALOAD PUSH2 0x189B DUP2 PUSH2 0x2199 JUMP JUMPDEST SWAP5 PUSH1 0x20 SWAP4 SWAP1 SWAP4 ADD CALLDATALOAD SWAP4 POP POP POP JUMP JUMPDEST PUSH1 0x0 PUSH1 0x20 DUP3 DUP5 SUB SLT ISZERO PUSH2 0x18BB JUMPI PUSH1 0x0 DUP1 REVERT JUMPDEST POP CALLDATALOAD SWAP2 SWAP1 POP JUMP JUMPDEST PUSH1 0x0 PUSH1 0x20 DUP3 DUP5 SUB SLT ISZERO PUSH2 0x18D4 JUMPI PUSH1 0x0 DUP1 REVERT JUMPDEST POP MLOAD SWAP2 SWAP1 POP JUMP JUMPDEST PUSH1 0x0 DUP1 PUSH1 0x0 PUSH1 0x60 DUP5 DUP7 SUB SLT ISZERO PUSH2 0x18F0 JUMPI PUSH1 0x0 DUP1 REVERT JUMPDEST DUP4 CALLDATALOAD SWAP3 POP PUSH1 0x20 DUP5 ADD CALLDATALOAD PUSH8 0xFFFFFFFFFFFFFFFF DUP1 DUP3 GT ISZERO PUSH2 0x190F JUMPI PUSH1 0x0 DUP1 REVERT JUMPDEST PUSH2 0x191B DUP8 DUP4 DUP9 ADD PUSH2 0x1783 JUMP JUMPDEST SWAP4 POP PUSH1 0x40 DUP7 ADD CALLDATALOAD SWAP2 POP DUP1 DUP3 GT ISZERO PUSH2 0x1931 JUMPI PUSH1 0x0 DUP1 REVERT JUMPDEST POP PUSH2 0x193E DUP7 DUP3 DUP8 ADD PUSH2 0x1783 JUMP JUMPDEST SWAP2 POP POP SWAP3 POP SWAP3 POP SWAP3 JUMP JUMPDEST PUSH1 0x0 PUSH1 0x20 DUP3 DUP5 SUB SLT ISZERO PUSH2 0x195A JUMPI PUSH1 0x0 DUP1 REVERT JUMPDEST DUP2 MLOAD PUSH8 0xFFFFFFFFFFFFFFFF DUP2 GT ISZERO PUSH2 0x1971 JUMPI PUSH1 0x0 DUP1 REVERT JUMPDEST DUP3 ADD PUSH1 0x1F DUP2 ADD DUP5 SGT PUSH2 0x1982 JUMPI PUSH1 0x0 DUP1 REVERT JUMPDEST PUSH2 0x1991 DUP5 DUP3 MLOAD PUSH1 0x20 DUP5 ADD PUSH2 0x16E2 JUMP JUMPDEST SWAP5 SWAP4 POP POP POP POP JUMP JUMPDEST PUSH1 0x0 DUP1 PUSH1 0x0 DUP1 PUSH1 0x0 DUP1 PUSH1 0x0 PUSH1 0xA0 DUP9 DUP11 SUB SLT ISZERO PUSH2 0x19B4 JUMPI PUSH1 0x0 DUP1 REVERT JUMPDEST DUP8 CALLDATALOAD PUSH8 0xFFFFFFFFFFFFFFFF DUP1 DUP3 GT ISZERO PUSH2 0x19CC JUMPI PUSH1 0x0 DUP1 REVERT JUMPDEST DUP2 DUP11 ADD SWAP2 POP DUP11 PUSH1 0x1F DUP4 ADD SLT PUSH2 0x19E0 JUMPI PUSH1 0x0 DUP1 REVERT JUMPDEST DUP2 CALLDATALOAD DUP2 DUP2 GT ISZERO PUSH2 0x19EF JUMPI PUSH1 0x0 DUP1 REVERT JUMPDEST DUP12 PUSH1 0x20 DUP3 DUP6 ADD ADD GT ISZERO PUSH2 0x1A01 JUMPI PUSH1 0x0 DUP1 REVERT JUMPDEST PUSH1 0x20 SWAP3 DUP4 ADD SWAP10 POP SWAP8 POP SWAP1 DUP10 ADD CALLDATALOAD SWAP1 DUP1 DUP3 GT ISZERO PUSH2 0x1A1C JUMPI PUSH1 0x0 DUP1 REVERT JUMPDEST POP PUSH2 0x1A29 DUP11 DUP3 DUP12 ADD PUSH2 0x1717 JUMP JUMPDEST SWAP1 SWAP7 POP SWAP5 POP PUSH2 0x1A3C SWAP1 POP PUSH1 0x40 DUP10 ADD PUSH2 0x182B JUMP JUMPDEST SWAP3 POP PUSH2 0x1A4A PUSH1 0x60 DUP10 ADD PUSH2 0x1817 JUMP JUMPDEST SWAP2 POP PUSH1 0x80 DUP9 ADD CALLDATALOAD SWAP1 POP SWAP3 SWAP6 SWAP9 SWAP2 SWAP5 SWAP8 POP SWAP3 SWAP6 POP JUMP JUMPDEST PUSH1 0x0 PUSH1 0x20 DUP3 DUP5 SUB SLT ISZERO PUSH2 0x1A71 JUMPI PUSH1 0x0 DUP1 REVERT JUMPDEST DUP2 CALLDATALOAD PUSH8 0xFFFFFFFFFFFFFFFF DUP2 GT ISZERO PUSH2 0x1A88 JUMPI PUSH1 0x0 DUP1 REVERT JUMPDEST PUSH2 0x1991 DUP5 DUP3 DUP6 ADD PUSH2 0x1783 JUMP JUMPDEST PUSH1 0x0 PUSH1 0x20 DUP3 DUP5 SUB SLT ISZERO PUSH2 0x1AA6 JUMPI PUSH1 0x0 DUP1 REVERT JUMPDEST DUP2 MLOAD PUSH8 0xFFFFFFFFFFFFFFFF DUP1 DUP3 GT ISZERO PUSH2 0x1ABE JUMPI PUSH1 0x0 DUP1 REVERT JUMPDEST SWAP1 DUP4 ADD SWAP1 PUSH2 0x180 DUP3 DUP7 SUB SLT ISZERO PUSH2 0x1AD3 JUMPI PUSH1 0x0 DUP1 REVERT JUMPDEST PUSH2 0x1ADB PUSH2 0x1EB1 JUMP JUMPDEST DUP3 MLOAD DUP3 DUP2 GT ISZERO PUSH2 0x1AEA JUMPI PUSH1 0x0 DUP1 REVERT JUMPDEST PUSH2 0x1AF6 DUP8 DUP3 DUP7 ADD PUSH2 0x17F7 JUMP JUMPDEST DUP3 MSTORE POP PUSH1 0x20 DUP4 ADD MLOAD DUP3 DUP2 GT ISZERO PUSH2 0x1B0B JUMPI PUSH1 0x0 DUP1 REVERT JUMPDEST PUSH2 0x1B17 DUP8 DUP3 DUP7 ADD PUSH2 0x17F7 JUMP JUMPDEST PUSH1 0x20 DUP4 ADD MSTORE POP PUSH1 0x40 DUP4 ADD MLOAD DUP3 DUP2 GT ISZERO PUSH2 0x1B2F JUMPI PUSH1 0x0 DUP1 REVERT JUMPDEST PUSH2 0x1B3B DUP8 DUP3 DUP7 ADD PUSH2 0x17F7 JUMP JUMPDEST PUSH1 0x40 DUP4 ADD MSTORE POP PUSH1 0x60 DUP4 ADD MLOAD DUP3 DUP2 GT ISZERO PUSH2 0x1B53 JUMPI PUSH1 0x0 DUP1 REVERT JUMPDEST PUSH2 0x1B5F DUP8 DUP3 DUP7 ADD PUSH2 0x17F7 JUMP JUMPDEST PUSH1 0x60 DUP4 ADD MSTORE POP PUSH1 0x80 DUP4 ADD MLOAD DUP3 DUP2 GT ISZERO PUSH2 0x1B77 JUMPI PUSH1 0x0 DUP1 REVERT JUMPDEST PUSH2 0x1B83 DUP8 DUP3 DUP7 ADD PUSH2 0x17F7 JUMP JUMPDEST PUSH1 0x80 DUP4 ADD MSTORE POP PUSH1 0xA0 DUP4 ADD MLOAD DUP3 DUP2 GT ISZERO PUSH2 0x1B9B JUMPI PUSH1 0x0 DUP1 REVERT JUMPDEST PUSH2 0x1BA7 DUP8 DUP3 DUP7 ADD PUSH2 0x17F7 JUMP JUMPDEST PUSH1 0xA0 DUP4 ADD MSTORE POP PUSH1 0xC0 DUP4 ADD MLOAD DUP3 DUP2 GT ISZERO PUSH2 0x1BBF JUMPI PUSH1 0x0 DUP1 REVERT JUMPDEST PUSH2 0x1BCB DUP8 DUP3 DUP7 ADD PUSH2 0x17F7 JUMP JUMPDEST PUSH1 0xC0 DUP4 ADD MSTORE POP PUSH1 0xE0 DUP4 ADD MLOAD DUP3 DUP2 GT ISZERO PUSH2 0x1BE3 JUMPI PUSH1 0x0 DUP1 REVERT JUMPDEST PUSH2 0x1BEF DUP8 DUP3 DUP7 ADD PUSH2 0x17F7 JUMP JUMPDEST PUSH1 0xE0 DUP4 ADD MSTORE POP PUSH2 0x100 DUP1 DUP5 ADD MLOAD DUP4 DUP2 GT ISZERO PUSH2 0x1C09 JUMPI PUSH1 0x0 DUP1 REVERT JUMPDEST PUSH2 0x1C15 DUP9 DUP3 DUP8 ADD PUSH2 0x17F7 JUMP JUMPDEST DUP3 DUP5 ADD MSTORE POP POP PUSH2 0x120 DUP1 DUP5 ADD MLOAD DUP4 DUP2 GT ISZERO PUSH2 0x1C2F JUMPI PUSH1 0x0 DUP1 REVERT JUMPDEST PUSH2 0x1C3B DUP9 DUP3 DUP8 ADD PUSH2 0x17F7 JUMP JUMPDEST DUP3 DUP5 ADD MSTORE POP POP PUSH2 0x140 DUP1 DUP5 ADD MLOAD DUP4 DUP2 GT ISZERO PUSH2 0x1C55 JUMPI PUSH1 0x0 DUP1 REVERT JUMPDEST PUSH2 0x1C61 DUP9 DUP3 DUP8 ADD PUSH2 0x17F7 JUMP JUMPDEST DUP3 DUP5 ADD MSTORE POP POP PUSH2 0x160 DUP1 DUP5 ADD MLOAD DUP4 DUP2 GT ISZERO PUSH2 0x1C7B JUMPI PUSH1 0x0 DUP1 REVERT JUMPDEST PUSH2 0x1C87 DUP9 DUP3 DUP8 ADD PUSH2 0x17F7 JUMP JUMPDEST SWAP2 DUP4 ADD SWAP2 SWAP1 SWAP2 MSTORE POP SWAP6 SWAP5 POP POP POP POP POP JUMP JUMPDEST PUSH1 0x0 DUP1 PUSH1 0x0 DUP1 PUSH1 0x80 DUP6 DUP8 SUB SLT ISZERO PUSH2 0x1CAE JUMPI PUSH1 0x0 DUP1 REVERT JUMPDEST DUP5 CALLDATALOAD PUSH8 0xFFFFFFFFFFFFFFFF DUP1 DUP3 GT ISZERO PUSH2 0x1CC6 JUMPI PUSH1 0x0 DUP1 REVERT JUMPDEST SWAP1 DUP7 ADD SWAP1 PUSH1 0xC0 DUP3 DUP10 SUB SLT ISZERO PUSH2 0x1CDA JUMPI PUSH1 0x0 DUP1 REVERT JUMPDEST PUSH2 0x1CE2 PUSH2 0x1EDB JUMP JUMPDEST PUSH2 0x1CEB DUP4 PUSH2 0x17E8 JUMP JUMPDEST DUP2 MSTORE PUSH2 0x1CF9 PUSH1 0x20 DUP5 ADD PUSH2 0x17E8 JUMP JUMPDEST PUSH1 0x20 DUP3 ADD MSTORE PUSH2 0x1D0A PUSH1 0x40 DUP5 ADD PUSH2 0x17D4 JUMP JUMPDEST PUSH1 0x40 DUP3 ADD MSTORE PUSH1 0x60 DUP4 ADD CALLDATALOAD DUP3 DUP2 GT ISZERO PUSH2 0x1D21 JUMPI PUSH1 0x0 DUP1 REVERT JUMPDEST PUSH2 0x1D2D DUP11 DUP3 DUP7 ADD PUSH2 0x1783 JUMP JUMPDEST PUSH1 0x60 DUP4 ADD MSTORE POP PUSH1 0x80 DUP4 ADD CALLDATALOAD DUP3 DUP2 GT ISZERO PUSH2 0x1D45 JUMPI PUSH1 0x0 DUP1 REVERT JUMPDEST PUSH2 0x1D51 DUP11 DUP3 DUP7 ADD PUSH2 0x1783 JUMP JUMPDEST PUSH1 0x80 DUP4 ADD MSTORE POP PUSH1 0xA0 DUP4 ADD CALLDATALOAD DUP3 DUP2 GT ISZERO PUSH2 0x1D69 JUMPI PUSH1 0x0 DUP1 REVERT JUMPDEST PUSH2 0x1D75 DUP11 DUP3 DUP7 ADD PUSH2 0x1763 JUMP JUMPDEST PUSH1 0xA0 DUP4 ADD MSTORE POP SWAP6 POP PUSH2 0x1D8C SWAP2 POP POP PUSH1 0x20 DUP7 ADD PUSH2 0x182B JUMP JUMPDEST SWAP3 POP PUSH2 0x1D9A PUSH1 0x40 DUP7 ADD PUSH2 0x1817 JUMP JUMPDEST SWAP4 SWAP7 SWAP3 SWAP6 POP SWAP3 SWAP4 PUSH1 0x60 ADD CALLDATALOAD SWAP3 POP POP JUMP JUMPDEST PUSH1 0x0 PUSH1 0x20 DUP3 DUP5 SUB SLT ISZERO PUSH2 0x1DBC JUMPI PUSH1 0x0 DUP1 REVERT JUMPDEST DUP2 MLOAD PUSH12 0xFFFFFFFFFFFFFFFFFFFFFFFF DUP2 AND DUP2 EQ PUSH2 0xDBF JUMPI PUSH1 0x0 DUP1 REVERT JUMPDEST PUSH1 0x0 DUP2 MLOAD DUP1 DUP5 MSTORE PUSH2 0x1DF0 DUP2 PUSH1 0x20 DUP7 ADD PUSH1 0x20 DUP7 ADD PUSH2 0x209D JUMP JUMPDEST PUSH1 0x1F ADD PUSH1 0x1F NOT AND SWAP3 SWAP1 SWAP3 ADD PUSH1 0x20 ADD SWAP3 SWAP2 POP POP JUMP JUMPDEST PUSH1 0x20 DUP2 MSTORE PUSH1 0x0 PUSH2 0xDBF PUSH1 0x20 DUP4 ADD DUP5 PUSH2 0x1DD8 JUMP JUMPDEST PUSH1 0x40 DUP2 MSTORE PUSH1 0x0 PUSH2 0x1E2A PUSH1 0x40 DUP4 ADD DUP6 PUSH2 0x1DD8 JUMP JUMPDEST DUP3 DUP2 SUB PUSH1 0x20 DUP5 ADD MSTORE PUSH2 0x711 DUP2 DUP6 PUSH2 0x1DD8 JUMP JUMPDEST PUSH8 0xFFFFFFFFFFFFFFFF DUP5 AND DUP2 MSTORE PUSH1 0x60 PUSH1 0x20 DUP3 ADD MSTORE PUSH1 0x0 PUSH2 0x1E5F PUSH1 0x60 DUP4 ADD DUP6 PUSH2 0x1DD8 JUMP JUMPDEST SWAP1 POP PUSH4 0xFFFFFFFF DUP4 AND PUSH1 0x40 DUP4 ADD MSTORE SWAP5 SWAP4 POP POP POP POP JUMP JUMPDEST PUSH8 0xFFFFFFFFFFFFFFFF DUP6 AND DUP2 MSTORE PUSH1 0x80 PUSH1 0x20 DUP3 ADD MSTORE PUSH1 0x0 PUSH2 0x1E98 PUSH1 0x80 DUP4 ADD DUP7 PUSH2 0x1DD8 JUMP JUMPDEST PUSH4 0xFFFFFFFF SWAP5 SWAP1 SWAP5 AND PUSH1 0x40 DUP4 ADD MSTORE POP PUSH1 0x60 ADD MSTORE SWAP3 SWAP2 POP POP JUMP JUMPDEST PUSH1 0x40 MLOAD PUSH2 0x180 DUP2 ADD PUSH8 0xFFFFFFFFFFFFFFFF DUP2 GT DUP3 DUP3 LT OR ISZERO PUSH2 0x1ED5 JUMPI PUSH2 0x1ED5 PUSH2 0x2183 JUMP JUMPDEST PUSH1 0x40 MSTORE SWAP1 JUMP JUMPDEST PUSH1 0x40 MLOAD PUSH1 0xC0 DUP2 ADD PUSH8 0xFFFFFFFFFFFFFFFF DUP2 GT DUP3 DUP3 LT OR ISZERO PUSH2 0x1ED5 JUMPI PUSH2 0x1ED5 PUSH2 0x2183 JUMP JUMPDEST PUSH1 0x40 MLOAD PUSH1 0x1F DUP3 ADD PUSH1 0x1F NOT AND DUP2 ADD PUSH8 0xFFFFFFFFFFFFFFFF DUP2 GT DUP3 DUP3 LT OR ISZERO PUSH2 0x1F27 JUMPI PUSH2 0x1F27 PUSH2 0x2183 JUMP JUMPDEST PUSH1 0x40 MSTORE SWAP2 SWAP1 POP JUMP JUMPDEST PUSH1 0x0 PUSH8 0xFFFFFFFFFFFFFFFF DUP3 GT ISZERO PUSH2 0x1F49 JUMPI PUSH2 0x1F49 PUSH2 0x2183 JUMP JUMPDEST POP PUSH1 0x1F ADD PUSH1 0x1F NOT AND PUSH1 0x20 ADD SWAP1 JUMP JUMPDEST PUSH1 0x0 DUP3 NOT DUP3 GT ISZERO PUSH2 0x1F6A JUMPI PUSH2 0x1F6A PUSH2 0x2141 JUMP JUMPDEST POP ADD SWAP1 JUMP JUMPDEST PUSH1 0x1 DUP2 DUP2 JUMPDEST DUP1 DUP6 GT ISZERO PUSH2 0x1FAA JUMPI DUP2 PUSH1 0x0 NOT DIV DUP3 GT ISZERO PUSH2 0x1F90 JUMPI PUSH2 0x1F90 PUSH2 0x2141 JUMP JUMPDEST DUP1 DUP6 AND ISZERO PUSH2 0x1F9D JUMPI SWAP2 DUP2 MUL SWAP2 JUMPDEST SWAP4 DUP5 SHR SWAP4 SWAP1 DUP1 MUL SWAP1 PUSH2 0x1F74 JUMP JUMPDEST POP SWAP3 POP SWAP3 SWAP1 POP JUMP JUMPDEST PUSH1 0x0 PUSH2 0xDBF DUP4 DUP4 PUSH1 0x0 DUP3 PUSH2 0x1FC8 JUMPI POP PUSH1 0x1 PUSH2 0x11B1 JUMP JUMPDEST DUP2 PUSH2 0x1FD5 JUMPI POP PUSH1 0x0 PUSH2 0x11B1 JUMP JUMPDEST DUP2 PUSH1 0x1 DUP2 EQ PUSH2 0x1FEB JUMPI PUSH1 0x2 DUP2 EQ PUSH2 0x1FF5 JUMPI PUSH2 0x2011 JUMP JUMPDEST PUSH1 0x1 SWAP2 POP POP PUSH2 0x11B1 JUMP JUMPDEST PUSH1 0xFF DUP5 GT ISZERO PUSH2 0x2006 JUMPI PUSH2 0x2006 PUSH2 0x2141 JUMP JUMPDEST POP POP PUSH1 0x1 DUP3 SHL PUSH2 0x11B1 JUMP JUMPDEST POP PUSH1 0x20 DUP4 LT PUSH2 0x133 DUP4 LT AND PUSH1 0x4E DUP5 LT PUSH1 0xB DUP5 LT AND OR ISZERO PUSH2 0x2034 JUMPI POP DUP2 DUP2 EXP PUSH2 0x11B1 JUMP JUMPDEST PUSH2 0x203E DUP4 DUP4 PUSH2 0x1F6F JUMP JUMPDEST DUP1 PUSH1 0x0 NOT DIV DUP3 GT ISZERO PUSH2 0x2052 JUMPI PUSH2 0x2052 PUSH2 0x2141 JUMP JUMPDEST MUL SWAP4 SWAP3 POP POP POP JUMP JUMPDEST PUSH1 0x0 DUP2 PUSH1 0x0 NOT DIV DUP4 GT DUP3 ISZERO ISZERO AND ISZERO PUSH2 0x2074 JUMPI PUSH2 0x2074 PUSH2 0x2141 JUMP JUMPDEST POP MUL SWAP1 JUMP JUMPDEST PUSH1 0x0 DUP3 DUP3 LT ISZERO PUSH2 0x208B JUMPI PUSH2 0x208B PUSH2 0x2141 JUMP JUMPDEST POP SUB SWAP1 JUMP JUMPDEST PUSH1 0x0 PUSH2 0xDBF CALLDATASIZE DUP5 DUP5 PUSH2 0x1656 JUMP JUMPDEST PUSH1 0x0 JUMPDEST DUP4 DUP2 LT ISZERO PUSH2 0x20B8 JUMPI DUP2 DUP2 ADD MLOAD DUP4 DUP3 ADD MSTORE PUSH1 0x20 ADD PUSH2 0x20A0 JUMP JUMPDEST DUP4 DUP2 GT ISZERO PUSH2 0x317 JUMPI POP POP PUSH1 0x0 SWAP2 ADD MSTORE JUMP JUMPDEST PUSH1 0x1 DUP2 DUP2 SHR SWAP1 DUP3 AND DUP1 PUSH2 0x20DD JUMPI PUSH1 0x7F DUP3 AND SWAP2 POP JUMPDEST PUSH1 0x20 DUP3 LT DUP2 EQ ISZERO PUSH2 0x20FE JUMPI PUSH4 0x4E487B71 PUSH1 0xE0 SHL PUSH1 0x0 MSTORE PUSH1 0x22 PUSH1 0x4 MSTORE PUSH1 0x24 PUSH1 0x0 REVERT JUMPDEST POP SWAP2 SWAP1 POP JUMP JUMPDEST PUSH1 0x0 PUSH1 0x0 NOT DUP3 EQ ISZERO PUSH2 0x2118 JUMPI PUSH2 0x2118 PUSH2 0x2141 JUMP JUMPDEST POP PUSH1 0x1 ADD SWAP1 JUMP JUMPDEST PUSH1 0x0 DUP3 PUSH2 0x213C JUMPI PUSH4 0x4E487B71 PUSH1 0xE0 SHL PUSH1 0x0 MSTORE PUSH1 0x12 PUSH1 0x4 MSTORE PUSH1 0x24 PUSH1 0x0 REVERT JUMPDEST POP MOD SWAP1 JUMP JUMPDEST PUSH4 0x4E487B71 PUSH1 0xE0 SHL PUSH1 0x0 MSTORE PUSH1 0x11 PUSH1 0x4 MSTORE PUSH1 0x24 PUSH1 0x0 REVERT JUMPDEST PUSH4 0x4E487B71 PUSH1 0xE0 SHL PUSH1 0x0 MSTORE PUSH1 0x21 PUSH1 0x4 MSTORE PUSH1 0x24 PUSH1 0x0 REVERT JUMPDEST PUSH4 0x4E487B71 PUSH1 0xE0 SHL PUSH1 0x0 MSTORE PUSH1 0x32 PUSH1 0x4 MSTORE PUSH1 0x24 PUSH1 0x0 REVERT JUMPDEST PUSH4 0x4E487B71 PUSH1 0xE0 SHL PUSH1 0x0 MSTORE PUSH1 0x41 PUSH1 0x4 MSTORE PUSH1 0x24 PUSH1 0x0 REVERT JUMPDEST PUSH1 0x1 PUSH1 0x1 PUSH1 0xA0 SHL SUB DUP2 AND DUP2 EQ PUSH2 0x72B JUMPI PUSH1 0x0 DUP1 REVERT INVALID LOG2 PUSH5 0x6970667358 0x22 SLT KECCAK256 DUP1 0xF6 MSIZE CALLDATACOPY 0xB0 PUSH16 0x67B1D5B5AA1A03839AA811D20CC1E3BF DUP12 0xDD XOR TIMESTAMP LOG4 PUSH23 0x316B540C64736F6C634300080700330000000000000000 "},"methodIdentifiers":{"acceptOwnership()":"79ba5097","addSimulatedRequestId(address,bytes32)":"30bda99d","checkPolicy(string,string[],uint64,uint32,uint256)":"7f30dfa9","estimateCost((uint8,uint8,uint8,string,bytes,string[]),uint64,uint32,uint256)":"d4b39175","getDONPublicKey()":"d328a91e","handleOracleFulfillment(bytes32,bytes,bytes)":"0ca76175","insuranceContract()":"d012a5a8","latestError()":"fffeb84e","latestRequestId()":"1aa46f59","latestResponse()":"bef3a2f0","owner()":"8da5cb5b","requestIdToPolicyIndex(bytes32)":"4732889d","requestIdToSender(bytes32)":"219c0eee","stringToUint256(string)":"ac5d3723","transferOwnership(address)":"f2fde38b","updateOracleAddress(address)":"f7023bb6"}},"storageLayout":{"storage":[{"astId":3302,"contract":"contracts/CheckPayout.sol:CheckPayout","label":"s_oracle","offset":0,"slot":"0","type":"t_contract(FunctionsOracleInterface)3736"},{"astId":3306,"contract":"contracts/CheckPayout.sol:CheckPayout","label":"s_pendingRequests","offset":0,"slot":"1","type":"t_mapping(t_bytes32,t_address)"},{"astId":27,"contract":"contracts/CheckPayout.sol:CheckPayout","label":"s_owner","offset":0,"slot":"2","type":"t_address"},{"astId":29,"contract":"contracts/CheckPayout.sol:CheckPayout","label":"s_pendingOwner","offset":0,"slot":"3","type":"t_address"},{"astId":1463,"contract":"contracts/CheckPayout.sol:CheckPayout","label":"latestRequestId","offset":0,"slot":"4","type":"t_bytes32"},{"astId":1465,"contract":"contracts/CheckPayout.sol:CheckPayout","label":"latestResponse","offset":0,"slot":"5","type":"t_bytes_storage"},{"astId":1467,"contract":"contracts/CheckPayout.sol:CheckPayout","label":"latestError","offset":0,"slot":"6","type":"t_bytes_storage"},{"astId":1478,"contract":"contracts/CheckPayout.sol:CheckPayout","label":"insuranceContract","offset":0,"slot":"7","type":"t_contract(Insurance)2880"},{"astId":1482,"contract":"contracts/CheckPayout.sol:CheckPayout","label":"requestIdToPolicyIndex","offset":0,"slot":"8","type":"t_mapping(t_bytes32,t_uint256)"},{"astId":1486,"contract":"contracts/CheckPayout.sol:CheckPayout","label":"requestIdToSender","offset":0,"slot":"9","type":"t_mapping(t_bytes32,t_address)"}],"types":{"t_address":{"encoding":"inplace","label":"address","numberOfBytes":"20"},"t_bytes32":{"encoding":"inplace","label":"bytes32","numberOfBytes":"32"},"t_bytes_storage":{"encoding":"bytes","label":"bytes","numberOfBytes":"32"},"t_contract(FunctionsOracleInterface)3736":{"encoding":"inplace","label":"contract FunctionsOracleInterface","numberOfBytes":"20"},"t_contract(Insurance)2880":{"encoding":"inplace","label":"contract Insurance","numberOfBytes":"20"},"t_mapping(t_bytes32,t_address)":{"encoding":"mapping","key":"t_bytes32","label":"mapping(bytes32 => address)","numberOfBytes":"32","value":"t_address"},"t_mapping(t_bytes32,t_uint256)":{"encoding":"mapping","key":"t_bytes32","label":"mapping(bytes32 => uint256)","numberOfBytes":"32","value":"t_uint256"},"t_uint256":{"encoding":"inplace","label":"uint256","numberOfBytes":"32"}}}}}}