{"contracts/Insurance.sol":{"Insurance":{"abi":[{"inputs":[{"internalType":"address","name":"oracle","type":"address"},{"internalType":"address","name":"linkMaticPrice","type":"address"},{"internalType":"address","name":"randomness","type":"address"}],"stateMutability":"nonpayable","type":"constructor"},{"inputs":[],"name":"EmptyArgs","type":"error"},{"inputs":[],"name":"EmptySecrets","type":"error"},{"inputs":[],"name":"EmptySource","type":"error"},{"inputs":[],"name":"NoInlineSecrets","type":"error"},{"inputs":[],"name":"RequestIsAlreadyPending","type":"error"},{"inputs":[],"name":"RequestIsNotPending","type":"error"},{"inputs":[],"name":"SenderIsNotRegistry","type":"error"},{"anonymous":false,"inputs":[{"indexed":true,"internalType":"bytes32","name":"requestId","type":"bytes32"},{"indexed":false,"internalType":"bytes","name":"result","type":"bytes"},{"indexed":false,"internalType":"bytes","name":"err","type":"bytes"}],"name":"OCRResponse","type":"event"},{"anonymous":false,"inputs":[{"indexed":true,"internalType":"address","name":"from","type":"address"},{"indexed":true,"internalType":"address","name":"to","type":"address"}],"name":"OwnershipTransferRequested","type":"event"},{"anonymous":false,"inputs":[{"indexed":true,"internalType":"address","name":"from","type":"address"},{"indexed":true,"internalType":"address","name":"to","type":"address"}],"name":"OwnershipTransferred","type":"event"},{"anonymous":false,"inputs":[{"indexed":true,"internalType":"bytes32","name":"id","type":"bytes32"}],"name":"RequestFulfilled","type":"event"},{"anonymous":false,"inputs":[{"indexed":true,"internalType":"bytes32","name":"id","type":"bytes32"}],"name":"RequestSent","type":"event"},{"inputs":[],"name":"acceptOwnership","outputs":[],"stateMutability":"nonpayable","type":"function"},{"inputs":[{"internalType":"address","name":"oracleAddress","type":"address"},{"internalType":"bytes32","name":"requestId","type":"bytes32"}],"name":"addSimulatedRequestId","outputs":[],"stateMutability":"nonpayable","type":"function"},{"inputs":[],"name":"checkInsuranceData","outputs":[{"internalType":"bool","name":"","type":"bool"}],"stateMutability":"view","type":"function"},{"inputs":[],"name":"currentTime","outputs":[{"internalType":"uint256","name":"","type":"uint256"}],"stateMutability":"view","type":"function"},{"inputs":[{"components":[{"internalType":"enum Functions.Location","name":"codeLocation","type":"uint8"},{"internalType":"enum Functions.Location","name":"secretsLocation","type":"uint8"},{"internalType":"enum Functions.CodeLanguage","name":"language","type":"uint8"},{"internalType":"string","name":"source","type":"string"},{"internalType":"bytes","name":"secrets","type":"bytes"},{"internalType":"string[]","name":"args","type":"string[]"}],"internalType":"struct Functions.Request","name":"req","type":"tuple"},{"internalType":"uint64","name":"subscriptionId","type":"uint64"},{"internalType":"uint32","name":"gasLimit","type":"uint32"},{"internalType":"uint256","name":"gasPrice","type":"uint256"}],"name":"estimateCost","outputs":[{"internalType":"uint96","name":"","type":"uint96"}],"stateMutability":"view","type":"function"},{"inputs":[{"internalType":"string","name":"source","type":"string"},{"internalType":"bytes","name":"secrets","type":"bytes"},{"internalType":"string[]","name":"args","type":"string[]"},{"internalType":"uint64","name":"subscriptionId","type":"uint64"},{"internalType":"uint32","name":"gasLimit","type":"uint32"}],"name":"estimateInsurance","outputs":[{"internalType":"bytes32","name":"","type":"bytes32"}],"stateMutability":"payable","type":"function"},{"inputs":[],"name":"getCurrentTime","outputs":[{"internalType":"uint256","name":"","type":"uint256"}],"stateMutability":"view","type":"function"},{"inputs":[],"name":"getDONPublicKey","outputs":[{"internalType":"bytes","name":"","type":"bytes"}],"stateMutability":"view","type":"function"},{"inputs":[],"name":"getLatestPrice","outputs":[{"internalType":"int256","name":"","type":"int256"}],"stateMutability":"view","type":"function"},{"inputs":[],"name":"getRandomWords","outputs":[{"internalType":"bytes","name":"","type":"bytes"}],"stateMutability":"nonpayable","type":"function"},{"inputs":[{"internalType":"bytes32","name":"requestId","type":"bytes32"},{"internalType":"bytes","name":"response","type":"bytes"},{"internalType":"bytes","name":"err","type":"bytes"}],"name":"handleOracleFulfillment","outputs":[],"stateMutability":"nonpayable","type":"function"},{"inputs":[],"name":"helloWorld","outputs":[{"internalType":"string","name":"","type":"string"}],"stateMutability":"view","type":"function"},{"inputs":[{"internalType":"address","name":"","type":"address"},{"internalType":"uint256","name":"","type":"uint256"}],"name":"insuranceDataMapping","outputs":[{"internalType":"string","name":"latNe","type":"string"},{"internalType":"string","name":"longNe","type":"string"},{"internalType":"string","name":"latSe","type":"string"},{"internalType":"string","name":"longSe","type":"string"},{"internalType":"string","name":"latSw","type":"string"},{"internalType":"string","name":"longSw","type":"string"},{"internalType":"string","name":"latNw","type":"string"},{"internalType":"string","name":"longNw","type":"string"},{"internalType":"string","name":"configParam","type":"string"},{"internalType":"string","name":"currentDay","type":"string"},{"internalType":"string","name":"startDay","type":"string"},{"internalType":"string","name":"endDay","type":"string"}],"stateMutability":"view","type":"function"},{"inputs":[],"name":"latestError","outputs":[{"internalType":"bytes","name":"","type":"bytes"}],"stateMutability":"view","type":"function"},{"inputs":[],"name":"latestRequestId","outputs":[{"internalType":"bytes32","name":"","type":"bytes32"}],"stateMutability":"view","type":"function"},{"inputs":[],"name":"latestResponse","outputs":[{"internalType":"bytes","name":"","type":"bytes"}],"stateMutability":"view","type":"function"},{"inputs":[],"name":"owner","outputs":[{"internalType":"address","name":"","type":"address"}],"stateMutability":"view","type":"function"},{"inputs":[],"name":"priceFeed","outputs":[{"internalType":"contract PriceConsumerV3","name":"","type":"address"}],"stateMutability":"view","type":"function"},{"inputs":[],"name":"randomFeed","outputs":[{"internalType":"contract VRFv2Consumer","name":"","type":"address"}],"stateMutability":"view","type":"function"},{"inputs":[{"internalType":"uint256","name":"requestId","type":"uint256"},{"internalType":"uint256[]","name":"randomWords","type":"uint256[]"}],"name":"receiveRandomness","outputs":[],"stateMutability":"nonpayable","type":"function"},{"inputs":[{"internalType":"address","name":"to","type":"address"}],"name":"transferOwnership","outputs":[],"stateMutability":"nonpayable","type":"function"},{"inputs":[{"internalType":"address","name":"oracle","type":"address"}],"name":"updateOracleAddress","outputs":[],"stateMutability":"nonpayable","type":"function"}],"evm":{"bytecode":{"linkReferences":{},"object":"6080604052426009553480156200001557600080fd5b5060405162003df538038062003df58339810160408190526200003891620001eb565b600080546001600160a01b0319166001600160a01b038516178155339081906001600160a01b038216620000b35760405162461bcd60e51b815260206004820152601860248201527f43616e6e6f7420736574206f776e657220746f207a65726f000000000000000060448201526064015b60405180910390fd5b600280546001600160a01b0319166001600160a01b0384811691909117909155811615620000e657620000e68162000121565b5050600480546001600160a01b039485166001600160a01b031991821617909155600580549390941692169190911790915550620002359050565b6001600160a01b0381163314156200017c5760405162461bcd60e51b815260206004820152601760248201527f43616e6e6f74207472616e7366657220746f2073656c660000000000000000006044820152606401620000aa565b600380546001600160a01b0319166001600160a01b03838116918217909255600254604051919216907fed8889f560326eb138920d842192f0eb3dd22b4f139c87a2c57538e05bae127890600090a350565b80516001600160a01b0381168114620001e657600080fd5b919050565b6000806000606084860312156200020157600080fd5b6200020c84620001ce565b92506200021c60208501620001ce565b91506200022c60408501620001ce565b90509250925092565b613bb080620002456000396000f3fe6080604052600436106101755760003560e01c8063985454ff116100cb578063d328a91e1161007f578063f2fde38b11610059578063f2fde38b146103de578063f7023bb6146103fe578063fffeb84e1461041e57600080fd5b8063d328a91e14610367578063d4b391751461037c578063e0919101146103b957600080fd5b8063c605f76c116100b0578063c605f76c14610327578063ce10b1fb1461033c578063d18e81b31461035157600080fd5b8063985454ff146102f2578063bef3a2f01461030557600080fd5b806330bda99d1161012d57806379ba50971161010757806379ba5097146102aa5780638da5cb5b146102bf5780638e15f473146102dd57600080fd5b806330bda99d1461024a57806337f9c70d1461026a578063741bef1a1461028a57600080fd5b80631aa46f591161015e5780631aa46f59146101d95780632142735a146101fd57806329cb924d1461023557600080fd5b80630ca761751461017a578063126455dd1461019c575b600080fd5b34801561018657600080fd5b5061019a6101953660046132ad565b610433565b005b3480156101a857600080fd5b506005546101bc906001600160a01b031681565b6040516001600160a01b0390911681526020015b60405180910390f35b3480156101e557600080fd5b506101ef60065481565b6040519081526020016101d0565b34801561020957600080fd5b5061021d610218366004613268565b6104d9565b6040516101d09c9b9a999897969594939291906136bb565b34801561024157600080fd5b506009546101ef565b34801561025657600080fd5b5061019a610265366004613268565b610bb6565b34801561027657600080fd5b5061019a610285366004613585565b610bcc565b34801561029657600080fd5b506004546101bc906001600160a01b031681565b3480156102b657600080fd5b5061019a610dde565b3480156102cb57600080fd5b506002546001600160a01b03166101bc565b3480156102e957600080fd5b506101ef610e93565b6101ef610300366004613388565b610f20565b34801561031157600080fd5b5061031a611765565b6040516101d09190613683565b34801561033357600080fd5b5061031a6117f3565b34801561034857600080fd5b5061031a61186b565b34801561035d57600080fd5b506101ef60095481565b34801561037357600080fd5b5061031a611980565b34801561038857600080fd5b5061039c610397366004613473565b611a19565b6040516bffffffffffffffffffffffff90911681526020016101d0565b3480156103c557600080fd5b506103ce611aaf565b60405190151581526020016101d0565b3480156103ea57600080fd5b5061019a6103f936600461322e565b61232b565b34801561040a57600080fd5b5061019a61041936600461322e565b61233f565b34801561042a57600080fd5b5061031a612365565b60008381526001602052604090205483906001600160a01b03163314610485576040517fa0c5ec6300000000000000000000000000000000000000000000000000000000815260040160405180910390fd5b60008181526001602052604080822080546001600160a01b03191690555182917f85e1543bf2f84fe80c6badbce3648c8539ad1df4d2b3d822938ca0538be727e691a26104d3848484612372565b50505050565b600a60205281600052604060002081815481106104f557600080fd5b90600052602060002090600d02016000915091505080600001805461051990613a95565b80601f016020809104026020016040519081016040528092919081815260200182805461054590613a95565b80156105925780601f1061056757610100808354040283529160200191610592565b820191906000526020600020905b81548152906001019060200180831161057557829003601f168201915b5050505050908060010180546105a790613a95565b80601f01602080910402602001604051908101604052809291908181526020018280546105d390613a95565b80156106205780601f106105f557610100808354040283529160200191610620565b820191906000526020600020905b81548152906001019060200180831161060357829003601f168201915b50505050509080600201805461063590613a95565b80601f016020809104026020016040519081016040528092919081815260200182805461066190613a95565b80156106ae5780601f10610683576101008083540402835291602001916106ae565b820191906000526020600020905b81548152906001019060200180831161069157829003601f168201915b5050505050908060030180546106c390613a95565b80601f01602080910402602001604051908101604052809291908181526020018280546106ef90613a95565b801561073c5780601f106107115761010080835404028352916020019161073c565b820191906000526020600020905b81548152906001019060200180831161071f57829003601f168201915b50505050509080600401805461075190613a95565b80601f016020809104026020016040519081016040528092919081815260200182805461077d90613a95565b80156107ca5780601f1061079f576101008083540402835291602001916107ca565b820191906000526020600020905b8154815290600101906020018083116107ad57829003601f168201915b5050505050908060050180546107df90613a95565b80601f016020809104026020016040519081016040528092919081815260200182805461080b90613a95565b80156108585780601f1061082d57610100808354040283529160200191610858565b820191906000526020600020905b81548152906001019060200180831161083b57829003601f168201915b50505050509080600601805461086d90613a95565b80601f016020809104026020016040519081016040528092919081815260200182805461089990613a95565b80156108e65780601f106108bb576101008083540402835291602001916108e6565b820191906000526020600020905b8154815290600101906020018083116108c957829003601f168201915b5050505050908060070180546108fb90613a95565b80601f016020809104026020016040519081016040528092919081815260200182805461092790613a95565b80156109745780601f1061094957610100808354040283529160200191610974565b820191906000526020600020905b81548152906001019060200180831161095757829003601f168201915b50505050509080600801805461098990613a95565b80601f01602080910402602001604051908101604052809291908181526020018280546109b590613a95565b8015610a025780601f106109d757610100808354040283529160200191610a02565b820191906000526020600020905b8154815290600101906020018083116109e557829003601f168201915b505050505090806009018054610a1790613a95565b80601f0160208091040260200160405190810160405280929190818152602001828054610a4390613a95565b8015610a905780601f10610a6557610100808354040283529160200191610a90565b820191906000526020600020905b815481529060010190602001808311610a7357829003601f168201915b50505050509080600a018054610aa590613a95565b80601f0160208091040260200160405190810160405280929190818152602001828054610ad190613a95565b8015610b1e5780601f10610af357610100808354040283529160200191610b1e565b820191906000526020600020905b815481529060010190602001808311610b0157829003601f168201915b50505050509080600b018054610b3390613a95565b80601f0160208091040260200160405190810160405280929190818152602001828054610b5f90613a95565b8015610bac5780601f10610b8157610100808354040283529160200191610bac565b820191906000526020600020905b815481529060010190602001808311610b8f57829003601f168201915b505050505090508c565b610bbe6123d9565b610bc88282612435565b5050565b6005546001600160a01b03163314610c515760405162461bcd60e51b815260206004820152602960248201527f4f6e6c79205652467632436f6e73756d65722063616e2063616c6c207468697360448201527f2066756e6374696f6e000000000000000000000000000000000000000000000060648201526084015b60405180910390fd5b8051600314610cc85760405162461bcd60e51b815260206004820152602360248201527f556e6578706563746564206e756d626572206f662072616e646f6d206e756d6260448201527f65727300000000000000000000000000000000000000000000000000000000006064820152608401610c48565b336000908152600a602052604090208054610d4b5760405162461bcd60e51b815260206004820152602e60248201527f4e6f20696e737572616e6365206461746120666f756e6420666f72207468652060448201527f726571756573742073656e6465720000000000000000000000000000000000006064820152608401610c48565b80546000908290610d5e90600190613a45565b81548110610d6e57610d6e613b39565b90600052602060002090600d0201905060005b6003811015610dd757838181518110610d9c57610d9c613b39565b602002602001015182600c018281548110610db957610db9613b39565b60009182526020909120015580610dcf81613ad0565b915050610d81565b5050505050565b6003546001600160a01b03163314610e385760405162461bcd60e51b815260206004820152601660248201527f4d7573742062652070726f706f736564206f776e6572000000000000000000006044820152606401610c48565b600280546001600160a01b0319808216339081179093556003805490911690556040516001600160a01b03909116919082907f8be0079c531659141344cd1fd0a4f28419497f9722a3daafe3b4186f6b6457e090600090a350565b6000600460009054906101000a90046001600160a01b03166001600160a01b0316638e15f4736040518163ffffffff1660e01b815260040160206040518083038186803b158015610ee357600080fd5b505afa158015610ef7573d6000803e3d6000fd5b505050506040513d601f19601f82011682018060405250810190610f1b9190613294565b905090565b6000600c8414610f725760405162461bcd60e51b815260206004820152601b60248201527f496e76616c6964206e756d626572206f6620617267756d656e747300000000006044820152606401610c48565b610fb06040518060400160405280601581526020017f476f7420746865206c61746573742070726963652100000000000000000000008152506124b5565b336000908152600a6020526040812080549091906116215781604051806101a0016040528089896000818110610fe857610fe8613b39565b9050602002810190610ffa9190613836565b8080601f0160208091040260200160405190810160405280939291908181526020018383808284376000920191909152505050908252506020018989600181811061104757611047613b39565b90506020028101906110599190613836565b8080601f016020809104026020016040519081016040528093929190818152602001838380828437600092019190915250505090825250602001898960028181106110a6576110a6613b39565b90506020028101906110b89190613836565b8080601f0160208091040260200160405190810160405280939291908181526020018383808284376000920191909152505050908252506020018989600381811061110557611105613b39565b90506020028101906111179190613836565b8080601f0160208091040260200160405190810160405280939291908181526020018383808284376000920191909152505050908252506020018989600481811061116457611164613b39565b90506020028101906111769190613836565b8080601f016020809104026020016040519081016040528093929190818152602001838380828437600092019190915250505090825250602001898960058181106111c3576111c3613b39565b90506020028101906111d59190613836565b8080601f0160208091040260200160405190810160405280939291908181526020018383808284376000920191909152505050908252506020018989600681811061122257611222613b39565b90506020028101906112349190613836565b8080601f0160208091040260200160405190810160405280939291908181526020018383808284376000920191909152505050908252506020018989600781811061128157611281613b39565b90506020028101906112939190613836565b8080601f016020809104026020016040519081016040528093929190818152602001838380828437600092019190915250505090825250602001898960088181106112e0576112e0613b39565b90506020028101906112f29190613836565b8080601f0160208091040260200160405190810160405280939291908181526020018383808284376000920191909152505050908252506020018989600981811061133f5761133f613b39565b90506020028101906113519190613836565b8080601f0160208091040260200160405190810160405280939291908181526020018383808284376000920191909152505050908252506020018989600a81811061139e5761139e613b39565b90506020028101906113b09190613836565b8080601f0160208091040260200160405190810160405280939291908181526020018383808284376000920191909152505050908252506020018989600b8181106113fd576113fd613b39565b905060200281019061140f9190613836565b8080601f016020809104026020016040519081016040528093929190818152602001838380828437600092019190915250505090825250604080516003808252608082019092526020928301929091908201606080368337505050905281546001810183556000928352602092839020825180519394600d9093029091019261149b9284920190612f9d565b5060208281015180516114b49260018501920190612f9d565b50604082015180516114d0916002840191602090910190612f9d565b50606082015180516114ec916003840191602090910190612f9d565b5060808201518051611508916004840191602090910190612f9d565b5060a08201518051611524916005840191602090910190612f9d565b5060c08201518051611540916006840191602090910190612f9d565b5060e0820151805161155c916007840191602090910190612f9d565b506101008201518051611579916008840191602090910190612f9d565b506101208201518051611596916009840191602090910190612f9d565b5061014082015180516115b391600a840191602090910190612f9d565b5061016082015180516115d091600b840191602090910190612f9d565b5061018082015180516115ed91600c840191602090910190613021565b5050825483915061160090600190613a45565b8154811061161057611610613b39565b90600052602060002090600d020190505b61165f6040518060400160405280600a81526020017f61742072657175657374000000000000000000000000000000000000000000008152506124b5565b6116996040805160c08101909152806000815260200160008152602001600081526020016060815260200160608152602001606081525090565b6116e06000808e8e8080601f016020809104026020016040519081016040528093929190818152602001838380828437600092019190915250879594939250506125269050565b8815611728576117288a8a8080601f01602080910402602001604051908101604052809392919081815260200183838082843760009201919091525085939250506125ba9050565b86156117425761174261173b888a613a5c565b8290612601565b600061174f828888612641565b60068190559d9c50505050505050505050505050565b6007805461177290613a95565b80601f016020809104026020016040519081016040528092919081815260200182805461179e90613a95565b80156117eb5780601f106117c0576101008083540402835291602001916117eb565b820191906000526020600020905b8154815290600101906020018083116117ce57829003601f168201915b505050505081565b60606118336040518060400160405280600481526020017f54657374000000000000000000000000000000000000000000000000000000008152506124b5565b5060408051808201909152600c81527f48656c6c6f20576f726c64210000000000000000000000000000000000000000602082015290565b336000818152600a60205260409020805460609291906118f25760405162461bcd60e51b8152602060048201526024808201527f4e6f20696e737572616e6365206461746120666f756e6420666f72207468652060448201527f75736572000000000000000000000000000000000000000000000000000000006064820152608401610c48565b600560009054906101000a90046001600160a01b03166001600160a01b031663e0c862896040518163ffffffff1660e01b8152600401602060405180830381600087803b15801561194257600080fd5b505af1158015611956573d6000803e3d6000fd5b505050506040513d601f19601f8201168201806040525081019061197a9190613294565b50505090565b60008054604080517fd328a91e00000000000000000000000000000000000000000000000000000000815290516060936001600160a01b039093169263d328a91e9260048082019391829003018186803b1580156119dd57600080fd5b505afa1580156119f1573d6000803e3d6000fd5b505050506040513d6000823e601f3d908101601f19168201604052610f1b919081019061331a565b600080546001600160a01b031663d227d24585611a35886127b3565b86866040518563ffffffff1660e01b8152600401611a5694939291906137fa565b60206040518083038186803b158015611a6e57600080fd5b505afa158015611a82573d6000803e3d6000fd5b505050506040513d601f19601f82011682018060405250810190611aa69190613629565b95945050505050565b336000908152600a602052604081208054611b0c5760405162461bcd60e51b815260206004820152601760248201527f4e6f20696e737572616e6365206461746120666f756e640000000000000000006044820152606401610c48565b60005b8154811015612322576000828281548110611b2c57611b2c613b39565b90600052602060002090600d0201604051806101a0016040529081600082018054611b5690613a95565b80601f0160208091040260200160405190810160405280929190818152602001828054611b8290613a95565b8015611bcf5780601f10611ba457610100808354040283529160200191611bcf565b820191906000526020600020905b815481529060010190602001808311611bb257829003601f168201915b50505050508152602001600182018054611be890613a95565b80601f0160208091040260200160405190810160405280929190818152602001828054611c1490613a95565b8015611c615780601f10611c3657610100808354040283529160200191611c61565b820191906000526020600020905b815481529060010190602001808311611c4457829003601f168201915b50505050508152602001600282018054611c7a90613a95565b80601f0160208091040260200160405190810160405280929190818152602001828054611ca690613a95565b8015611cf35780601f10611cc857610100808354040283529160200191611cf3565b820191906000526020600020905b815481529060010190602001808311611cd657829003601f168201915b50505050508152602001600382018054611d0c90613a95565b80601f0160208091040260200160405190810160405280929190818152602001828054611d3890613a95565b8015611d855780601f10611d5a57610100808354040283529160200191611d85565b820191906000526020600020905b815481529060010190602001808311611d6857829003601f168201915b50505050508152602001600482018054611d9e90613a95565b80601f0160208091040260200160405190810160405280929190818152602001828054611dca90613a95565b8015611e175780601f10611dec57610100808354040283529160200191611e17565b820191906000526020600020905b815481529060010190602001808311611dfa57829003601f168201915b50505050508152602001600582018054611e3090613a95565b80601f0160208091040260200160405190810160405280929190818152602001828054611e5c90613a95565b8015611ea95780601f10611e7e57610100808354040283529160200191611ea9565b820191906000526020600020905b815481529060010190602001808311611e8c57829003601f168201915b50505050508152602001600682018054611ec290613a95565b80601f0160208091040260200160405190810160405280929190818152602001828054611eee90613a95565b8015611f3b5780601f10611f1057610100808354040283529160200191611f3b565b820191906000526020600020905b815481529060010190602001808311611f1e57829003601f168201915b50505050508152602001600782018054611f5490613a95565b80601f0160208091040260200160405190810160405280929190818152602001828054611f8090613a95565b8015611fcd5780601f10611fa257610100808354040283529160200191611fcd565b820191906000526020600020905b815481529060010190602001808311611fb057829003601f168201915b50505050508152602001600882018054611fe690613a95565b80601f016020809104026020016040519081016040528092919081815260200182805461201290613a95565b801561205f5780601f106120345761010080835404028352916020019161205f565b820191906000526020600020905b81548152906001019060200180831161204257829003601f168201915b5050505050815260200160098201805461207890613a95565b80601f01602080910402602001604051908101604052809291908181526020018280546120a490613a95565b80156120f15780601f106120c6576101008083540402835291602001916120f1565b820191906000526020600020905b8154815290600101906020018083116120d457829003601f168201915b50505050508152602001600a8201805461210a90613a95565b80601f016020809104026020016040519081016040528092919081815260200182805461213690613a95565b80156121835780601f1061215857610100808354040283529160200191612183565b820191906000526020600020905b81548152906001019060200180831161216657829003601f168201915b50505050508152602001600b8201805461219c90613a95565b80601f01602080910402602001604051908101604052809291908181526020018280546121c890613a95565b80156122155780601f106121ea57610100808354040283529160200191612215565b820191906000526020600020905b8154815290600101906020018083116121f857829003601f168201915b50505050508152602001600c820180548060200260200160405190810160405280929190818152602001828054801561226d57602002820191906000526020600020905b815481526020019060010190808311612259575b50505050508152505090508060c0015151600014158015612292575060e08101515115155b801561229f575080515115155b80156122af575060208101515115155b80156122bf575060408101515115155b80156122cf575060608101515115155b80156122df575060808101515115155b80156122ef575060a08101515115155b801561230057506101008101515115155b1561230f576001935050505090565b508061231a81613ad0565b915050611b0f565b50600091505090565b6123336123d9565b61233c81612a7f565b50565b6123476123d9565b600080546001600160a01b0319166001600160a01b03831617905550565b6008805461177290613a95565b8151612385906007906020850190612f9d565b508051612399906008906020840190612f9d565b50827f7bab0ec163b5c132c72b8146ac4d6e067e82ed58f8b131150aa71c925891156283836040516123cc929190613696565b60405180910390a2505050565b6002546001600160a01b031633146124335760405162461bcd60e51b815260206004820152601660248201527f4f6e6c792063616c6c61626c65206279206f776e6572000000000000000000006044820152606401610c48565b565b60008181526001602052604090205481906001600160a01b031615612486576040517f8b457ad200000000000000000000000000000000000000000000000000000000815260040160405180910390fd5b50600090815260016020526040902080546001600160a01b0319166001600160a01b0392909216919091179055565b61233c816040516024016124c99190613683565b60408051601f198184030181529190526020810180517bffffffffffffffffffffffffffffffffffffffffffffffffffffffff167f41304fac00000000000000000000000000000000000000000000000000000000179052612b2a565b805161255e576040517f22ce3edd00000000000000000000000000000000000000000000000000000000815260040160405180910390fd5b8383600181111561257157612571613b23565b9081600181111561258457612584613b23565b9052506040840182801561259a5761259a613b23565b908180156125aa576125aa613b23565b9052506060909301929092525050565b80516125f2576040517fe889636f00000000000000000000000000000000000000000000000000000000815260040160405180910390fd5b60016020830152608090910152565b8051612639576040517ffe936cb700000000000000000000000000000000000000000000000000000000815260040160405180910390fd5b60a090910152565b6000805481906001600160a01b03166328242b048561265f886127b3565b866040518463ffffffff1660e01b815260040161267e939291906137c1565b602060405180830381600087803b15801561269857600080fd5b505af11580156126ac573d6000803e3d6000fd5b505050506040513d601f19601f820116820180604052508101906126d09190613294565b905060008054906101000a90046001600160a01b03166001600160a01b0316635ab1bd536040518163ffffffff1660e01b815260040160206040518083038186803b15801561271e57600080fd5b505afa158015612732573d6000803e3d6000fd5b505050506040513d601f19601f82011682018060405250810190612756919061324b565b60008281526001602052604080822080546001600160a01b0319166001600160a01b039490941693909317909255905182917f1131472297a800fee664d1d89cfa8f7676ff07189ecc53f80bbb5f4969099db891a2949350505050565b60606127bd61305b565b80516127cb90610100612b4b565b5061280b816040518060400160405280600c81526020017f636f64654c6f636174696f6e0000000000000000000000000000000000000000815250612bc5565b61282a818460000151600181111561282557612825613b23565b612be3565b612869816040518060400160405280600881526020017f6c616e6775616765000000000000000000000000000000000000000000000000815250612bc5565b612883818460400151600081111561282557612825613b23565b6128c2816040518060400160405280600681526020017f736f757263650000000000000000000000000000000000000000000000000000815250612bc5565b6128d0818460600151612bc5565b60a083015151156129765761291a816040518060400160405280600481526020017f6172677300000000000000000000000000000000000000000000000000000000815250612bc5565b61292381612c1c565b60005b8360a001515181101561296c5761295a828560a00151838151811061294d5761294d613b39565b6020026020010151612bc5565b8061296481613ad0565b915050612926565b5061297681612c40565b60808301515115612a775760008360200151600181111561299957612999613b23565b14156129d1576040517fa80d31f700000000000000000000000000000000000000000000000000000000815260040160405180910390fd5b612a10816040518060400160405280600f81526020017f736563726574734c6f636174696f6e0000000000000000000000000000000000815250612bc5565b612a2a818460200151600181111561282557612825613b23565b612a69816040518060400160405280600781526020017f7365637265747300000000000000000000000000000000000000000000000000815250612bc5565b612a77818460800151612c5e565b515192915050565b6001600160a01b038116331415612ad85760405162461bcd60e51b815260206004820152601760248201527f43616e6e6f74207472616e7366657220746f2073656c660000000000000000006044820152606401610c48565b600380546001600160a01b0319166001600160a01b03838116918217909255600254604051919216907fed8889f560326eb138920d842192f0eb3dd22b4f139c87a2c57538e05bae127890600090a350565b80516a636f6e736f6c652e6c6f67602083016000808483855afa5050505050565b604080518082019091526060815260006020820152612b6b602083613aeb565b15612b9357612b7b602083613aeb565b612b86906020613a45565b612b909083613923565b91505b602080840183905260405180855260008152908184010181811015612bb757600080fd5b604052508290505b92915050565b612bd28260038351612c67565b8151612bde9082612d88565b505050565b8151612bf09060c2612db0565b50610bc88282604051602001612c0891815260200190565b604051602081830303815290604052612c5e565b612c27816004612e19565b600181602001818151612c3a9190613923565b90525050565b612c4b816007612e19565b600181602001818151612c3a9190613a45565b612bd282600283515b60178167ffffffffffffffff1611612c8e5782516104d39060e0600585901b168317612db0565b60ff8167ffffffffffffffff1611612cd0578251612cb7906018611fe0600586901b1617612db0565b5082516104d39067ffffffffffffffff83166001612e30565b61ffff8167ffffffffffffffff1611612d13578251612cfa906019611fe0600586901b1617612db0565b5082516104d39067ffffffffffffffff83166002612e30565b63ffffffff8167ffffffffffffffff1611612d58578251612d3f90601a611fe0600586901b1617612db0565b5082516104d39067ffffffffffffffff83166004612e30565b8251612d6f90601b611fe0600586901b1617612db0565b5082516104d39067ffffffffffffffff83166008612e30565b604080518082019091526060815260006020820152612da983838451612eb5565b9392505050565b6040805180820190915260608152600060208201528251516000612dd5826001613923565b905084602001518210612df657612df685612df1836002613a26565b612f86565b8451602083820101858153508051821115612e0f578181525b5093949350505050565b8151612bde90601f611fe0600585901b1617612db0565b6040805180820190915260608152600060208201528351516000612e548285613923565b90508560200151811115612e7157612e7186612df1836002613a26565b60006001612e818661010061397e565b612e8b9190613a45565b90508651828101878319825116178152508051831115612ea9578281525b50959695505050505050565b6040805180820190915260608152600060208201528251821115612ed857600080fd5b8351516000612ee78483613923565b90508560200151811115612f0457612f0486612df1836002613a26565b855180518382016020019160009180851115612f1e578482525b505050602086015b60208610612f5e5780518252612f3d602083613923565b9150612f4a602082613923565b9050612f57602087613a45565b9550612f26565b51815160001960208890036101000a0190811690199190911617905250849150509392505050565b8151612f928383612b4b565b506104d38382612d88565b828054612fa990613a95565b90600052602060002090601f016020900481019282612fcb5760008555613011565b82601f10612fe457805160ff1916838001178555613011565b82800160010185558215613011579182015b82811115613011578251825591602001919060010190612ff6565b5061301d929150613090565b5090565b8280548282559060005260206000209081019282156130115791602002820182811115613011578251825591602001919060010190612ff6565b6040518060400160405280613083604051806040016040528060608152602001600081525090565b8152602001600081525090565b5b8082111561301d5760008155600101613091565b60006130b86130b3846138d7565b6138a6565b9050808382526020808301915083868660051b860111156130d857600080fd5b6000805b8781101561311957823567ffffffffffffffff8111156130fa578283fd5b6131068a828a0161318e565b86525093830193918301916001016130dc565b50505050509392505050565b600082601f83011261313657600080fd5b612da9838335602085016130a5565b60008083601f84011261315757600080fd5b50813567ffffffffffffffff81111561316f57600080fd5b60208301915083602082850101111561318757600080fd5b9250929050565b600082601f83011261319f57600080fd5b81356131ad6130b3826138fb565b8181528460208386010111156131c257600080fd5b816020850160208301376000918101602001919091529392505050565b8035600181106131ee57600080fd5b919050565b8035600281106131ee57600080fd5b803563ffffffff811681146131ee57600080fd5b803567ffffffffffffffff811681146131ee57600080fd5b60006020828403121561324057600080fd5b8135612da981613b65565b60006020828403121561325d57600080fd5b8151612da981613b65565b6000806040838503121561327b57600080fd5b823561328681613b65565b946020939093013593505050565b6000602082840312156132a657600080fd5b5051919050565b6000806000606084860312156132c257600080fd5b83359250602084013567ffffffffffffffff808211156132e157600080fd5b6132ed8783880161318e565b9350604086013591508082111561330357600080fd5b506133108682870161318e565b9150509250925092565b60006020828403121561332c57600080fd5b815167ffffffffffffffff81111561334357600080fd5b8201601f8101841361335457600080fd5b80516133626130b3826138fb565b81815285602083850101111561337757600080fd5b611aa6826020830160208601613a69565b60008060008060008060008060a0898b0312156133a457600080fd5b883567ffffffffffffffff808211156133bc57600080fd5b6133c88c838d01613145565b909a50985060208b01359150808211156133e157600080fd5b6133ed8c838d01613145565b909850965060408b013591508082111561340657600080fd5b818b0191508b601f83011261341a57600080fd5b81358181111561342957600080fd5b8c60208260051b850101111561343e57600080fd5b60208301965080955050505061345660608a01613216565b915061346460808a01613202565b90509295985092959890939650565b6000806000806080858703121561348957600080fd5b843567ffffffffffffffff808211156134a157600080fd5b9086019060c082890312156134b557600080fd5b6134bd61387d565b6134c6836131f3565b81526134d4602084016131f3565b60208201526134e5604084016131df565b60408201526060830135828111156134fc57600080fd5b6135088a82860161318e565b60608301525060808301358281111561352057600080fd5b61352c8a82860161318e565b60808301525060a08301358281111561354457600080fd5b6135508a828601613125565b60a083015250955061356791505060208601613216565b925061357560408601613202565b9396929550929360600135925050565b6000806040838503121561359857600080fd5b8235915060208084013567ffffffffffffffff8111156135b757600080fd5b8401601f810186136135c857600080fd5b80356135d66130b3826138d7565b80828252848201915084840189868560051b87010111156135f657600080fd5b600094505b838510156136195780358352600194909401939185019185016135fb565b5080955050505050509250929050565b60006020828403121561363b57600080fd5b81516bffffffffffffffffffffffff81168114612da957600080fd5b6000815180845261366f816020860160208601613a69565b601f01601f19169290920160200192915050565b602081526000612da96020830184613657565b6040815260006136a96040830185613657565b8281036020840152611aa68185613657565b610180815260006136d061018083018f613657565b82810360208401526136e2818f613657565b905082810360408401526136f6818e613657565b9050828103606084015261370a818d613657565b9050828103608084015261371e818c613657565b905082810360a0840152613732818b613657565b905082810360c0840152613746818a613657565b905082810360e084015261375a8189613657565b905082810361010084015261376f8188613657565b90508281036101208401526137848187613657565b90508281036101408401526137998186613657565b90508281036101608401526137ae8185613657565b9f9e505050505050505050505050505050565b67ffffffffffffffff841681526060602082015260006137e46060830185613657565b905063ffffffff83166040830152949350505050565b67ffffffffffffffff8516815260806020820152600061381d6080830186613657565b63ffffffff949094166040830152506060015292915050565b6000808335601e1984360301811261384d57600080fd5b83018035915067ffffffffffffffff82111561386857600080fd5b60200191503681900382131561318757600080fd5b60405160c0810167ffffffffffffffff811182821017156138a0576138a0613b4f565b60405290565b604051601f8201601f1916810167ffffffffffffffff811182821017156138cf576138cf613b4f565b604052919050565b600067ffffffffffffffff8211156138f1576138f1613b4f565b5060051b60200190565b600067ffffffffffffffff82111561391557613915613b4f565b50601f01601f191660200190565b6000821982111561393657613936613b0d565b500190565b600181815b8085111561397657816000190482111561395c5761395c613b0d565b8085161561396957918102915b93841c9390800290613940565b509250929050565b6000612da9838360008261399457506001612bbf565b816139a157506000612bbf565b81600181146139b757600281146139c1576139dd565b6001915050612bbf565b60ff8411156139d2576139d2613b0d565b50506001821b612bbf565b5060208310610133831016604e8410600b8410161715613a00575081810a612bbf565b613a0a838361393b565b8060001904821115613a1e57613a1e613b0d565b029392505050565b6000816000190483118215151615613a4057613a40613b0d565b500290565b600082821015613a5757613a57613b0d565b500390565b6000612da93684846130a5565b60005b83811015613a84578181015183820152602001613a6c565b838111156104d35750506000910152565b600181811c90821680613aa957607f821691505b60208210811415613aca57634e487b7160e01b600052602260045260246000fd5b50919050565b6000600019821415613ae457613ae4613b0d565b5060010190565b600082613b0857634e487b7160e01b600052601260045260246000fd5b500690565b634e487b7160e01b600052601160045260246000fd5b634e487b7160e01b600052602160045260246000fd5b634e487b7160e01b600052603260045260246000fd5b634e487b7160e01b600052604160045260246000fd5b6001600160a01b038116811461233c57600080fdfea26469706673582212203a2dd8e9543c7335387af86c8e80775719d7252d732a54634e34a851517b342764736f6c63430008070033","opcodes":"PUSH1 0x80 PUSH1 0x40 MSTORE TIMESTAMP PUSH1 0x9 SSTORE CALLVALUE DUP1 ISZERO PUSH3 0x15 JUMPI PUSH1 0x0 DUP1 REVERT JUMPDEST POP PUSH1 0x40 MLOAD PUSH3 0x3DF5 CODESIZE SUB DUP1 PUSH3 0x3DF5 DUP4 CODECOPY DUP2 ADD PUSH1 0x40 DUP2 SWAP1 MSTORE PUSH3 0x38 SWAP2 PUSH3 0x1EB JUMP JUMPDEST PUSH1 0x0 DUP1 SLOAD PUSH1 0x1 PUSH1 0x1 PUSH1 0xA0 SHL SUB NOT AND PUSH1 0x1 PUSH1 0x1 PUSH1 0xA0 SHL SUB DUP6 AND OR DUP2 SSTORE CALLER SWAP1 DUP2 SWAP1 PUSH1 0x1 PUSH1 0x1 PUSH1 0xA0 SHL SUB DUP3 AND PUSH3 0xB3 JUMPI PUSH1 0x40 MLOAD PUSH3 0x461BCD PUSH1 0xE5 SHL DUP2 MSTORE PUSH1 0x20 PUSH1 0x4 DUP3 ADD MSTORE PUSH1 0x18 PUSH1 0x24 DUP3 ADD MSTORE PUSH32 0x43616E6E6F7420736574206F776E657220746F207A65726F0000000000000000 PUSH1 0x44 DUP3 ADD MSTORE PUSH1 0x64 ADD JUMPDEST PUSH1 0x40 MLOAD DUP1 SWAP2 SUB SWAP1 REVERT JUMPDEST PUSH1 0x2 DUP1 SLOAD PUSH1 0x1 PUSH1 0x1 PUSH1 0xA0 SHL SUB NOT AND PUSH1 0x1 PUSH1 0x1 PUSH1 0xA0 SHL SUB DUP5 DUP2 AND SWAP2 SWAP1 SWAP2 OR SWAP1 SWAP2 SSTORE DUP2 AND ISZERO PUSH3 0xE6 JUMPI PUSH3 0xE6 DUP2 PUSH3 0x121 JUMP JUMPDEST POP POP PUSH1 0x4 DUP1 SLOAD PUSH1 0x1 PUSH1 0x1 PUSH1 0xA0 SHL SUB SWAP5 DUP6 AND PUSH1 0x1 PUSH1 0x1 PUSH1 0xA0 SHL SUB NOT SWAP2 DUP3 AND OR SWAP1 SWAP2 SSTORE PUSH1 0x5 DUP1 SLOAD SWAP4 SWAP1 SWAP5 AND SWAP3 AND SWAP2 SWAP1 SWAP2 OR SWAP1 SWAP2 SSTORE POP PUSH3 0x235 SWAP1 POP JUMP JUMPDEST PUSH1 0x1 PUSH1 0x1 PUSH1 0xA0 SHL SUB DUP2 AND CALLER EQ ISZERO PUSH3 0x17C JUMPI PUSH1 0x40 MLOAD PUSH3 0x461BCD PUSH1 0xE5 SHL DUP2 MSTORE PUSH1 0x20 PUSH1 0x4 DUP3 ADD MSTORE PUSH1 0x17 PUSH1 0x24 DUP3 ADD MSTORE PUSH32 0x43616E6E6F74207472616E7366657220746F2073656C66000000000000000000 PUSH1 0x44 DUP3 ADD MSTORE PUSH1 0x64 ADD PUSH3 0xAA JUMP JUMPDEST PUSH1 0x3 DUP1 SLOAD PUSH1 0x1 PUSH1 0x1 PUSH1 0xA0 SHL SUB NOT AND PUSH1 0x1 PUSH1 0x1 PUSH1 0xA0 SHL SUB DUP4 DUP2 AND SWAP2 DUP3 OR SWAP1 SWAP3 SSTORE PUSH1 0x2 SLOAD PUSH1 0x40 MLOAD SWAP2 SWAP3 AND SWAP1 PUSH32 0xED8889F560326EB138920D842192F0EB3DD22B4F139C87A2C57538E05BAE1278 SWAP1 PUSH1 0x0 SWAP1 LOG3 POP JUMP JUMPDEST DUP1 MLOAD PUSH1 0x1 PUSH1 0x1 PUSH1 0xA0 SHL SUB DUP2 AND DUP2 EQ PUSH3 0x1E6 JUMPI PUSH1 0x0 DUP1 REVERT JUMPDEST SWAP2 SWAP1 POP JUMP JUMPDEST PUSH1 0x0 DUP1 PUSH1 0x0 PUSH1 0x60 DUP5 DUP7 SUB SLT ISZERO PUSH3 0x201 JUMPI PUSH1 0x0 DUP1 REVERT JUMPDEST PUSH3 0x20C DUP5 PUSH3 0x1CE JUMP JUMPDEST SWAP3 POP PUSH3 0x21C PUSH1 0x20 DUP6 ADD PUSH3 0x1CE JUMP JUMPDEST SWAP2 POP PUSH3 0x22C PUSH1 0x40 DUP6 ADD PUSH3 0x1CE JUMP JUMPDEST SWAP1 POP SWAP3 POP SWAP3 POP SWAP3 JUMP JUMPDEST PUSH2 0x3BB0 DUP1 PUSH3 0x245 PUSH1 0x0 CODECOPY PUSH1 0x0 RETURN INVALID PUSH1 0x80 PUSH1 0x40 MSTORE PUSH1 0x4 CALLDATASIZE LT PUSH2 0x175 JUMPI PUSH1 0x0 CALLDATALOAD PUSH1 0xE0 SHR DUP1 PUSH4 0x985454FF GT PUSH2 0xCB JUMPI DUP1 PUSH4 0xD328A91E GT PUSH2 0x7F JUMPI DUP1 PUSH4 0xF2FDE38B GT PUSH2 0x59 JUMPI DUP1 PUSH4 0xF2FDE38B EQ PUSH2 0x3DE JUMPI DUP1 PUSH4 0xF7023BB6 EQ PUSH2 0x3FE JUMPI DUP1 PUSH4 0xFFFEB84E EQ PUSH2 0x41E JUMPI PUSH1 0x0 DUP1 REVERT JUMPDEST DUP1 PUSH4 0xD328A91E EQ PUSH2 0x367 JUMPI DUP1 PUSH4 0xD4B39175 EQ PUSH2 0x37C JUMPI DUP1 PUSH4 0xE0919101 EQ PUSH2 0x3B9 JUMPI PUSH1 0x0 DUP1 REVERT JUMPDEST DUP1 PUSH4 0xC605F76C GT PUSH2 0xB0 JUMPI DUP1 PUSH4 0xC605F76C EQ PUSH2 0x327 JUMPI DUP1 PUSH4 0xCE10B1FB EQ PUSH2 0x33C JUMPI DUP1 PUSH4 0xD18E81B3 EQ PUSH2 0x351 JUMPI PUSH1 0x0 DUP1 REVERT JUMPDEST DUP1 PUSH4 0x985454FF EQ PUSH2 0x2F2 JUMPI DUP1 PUSH4 0xBEF3A2F0 EQ PUSH2 0x305 JUMPI PUSH1 0x0 DUP1 REVERT JUMPDEST DUP1 PUSH4 0x30BDA99D GT PUSH2 0x12D JUMPI DUP1 PUSH4 0x79BA5097 GT PUSH2 0x107 JUMPI DUP1 PUSH4 0x79BA5097 EQ PUSH2 0x2AA JUMPI DUP1 PUSH4 0x8DA5CB5B EQ PUSH2 0x2BF JUMPI DUP1 PUSH4 0x8E15F473 EQ PUSH2 0x2DD JUMPI PUSH1 0x0 DUP1 REVERT JUMPDEST DUP1 PUSH4 0x30BDA99D EQ PUSH2 0x24A JUMPI DUP1 PUSH4 0x37F9C70D EQ PUSH2 0x26A JUMPI DUP1 PUSH4 0x741BEF1A EQ PUSH2 0x28A JUMPI PUSH1 0x0 DUP1 REVERT JUMPDEST DUP1 PUSH4 0x1AA46F59 GT PUSH2 0x15E JUMPI DUP1 PUSH4 0x1AA46F59 EQ PUSH2 0x1D9 JUMPI DUP1 PUSH4 0x2142735A EQ PUSH2 0x1FD JUMPI DUP1 PUSH4 0x29CB924D EQ PUSH2 0x235 JUMPI PUSH1 0x0 DUP1 REVERT JUMPDEST DUP1 PUSH4 0xCA76175 EQ PUSH2 0x17A JUMPI DUP1 PUSH4 0x126455DD EQ PUSH2 0x19C JUMPI JUMPDEST PUSH1 0x0 DUP1 REVERT JUMPDEST CALLVALUE DUP1 ISZERO PUSH2 0x186 JUMPI PUSH1 0x0 DUP1 REVERT JUMPDEST POP PUSH2 0x19A PUSH2 0x195 CALLDATASIZE PUSH1 0x4 PUSH2 0x32AD JUMP JUMPDEST PUSH2 0x433 JUMP JUMPDEST STOP JUMPDEST CALLVALUE DUP1 ISZERO PUSH2 0x1A8 JUMPI PUSH1 0x0 DUP1 REVERT JUMPDEST POP PUSH1 0x5 SLOAD PUSH2 0x1BC SWAP1 PUSH1 0x1 PUSH1 0x1 PUSH1 0xA0 SHL SUB AND DUP2 JUMP JUMPDEST PUSH1 0x40 MLOAD PUSH1 0x1 PUSH1 0x1 PUSH1 0xA0 SHL SUB SWAP1 SWAP2 AND DUP2 MSTORE PUSH1 0x20 ADD JUMPDEST PUSH1 0x40 MLOAD DUP1 SWAP2 SUB SWAP1 RETURN JUMPDEST CALLVALUE DUP1 ISZERO PUSH2 0x1E5 JUMPI PUSH1 0x0 DUP1 REVERT JUMPDEST POP PUSH2 0x1EF PUSH1 0x6 SLOAD DUP2 JUMP JUMPDEST PUSH1 0x40 MLOAD SWAP1 DUP2 MSTORE PUSH1 0x20 ADD PUSH2 0x1D0 JUMP JUMPDEST CALLVALUE DUP1 ISZERO PUSH2 0x209 JUMPI PUSH1 0x0 DUP1 REVERT JUMPDEST POP PUSH2 0x21D PUSH2 0x218 CALLDATASIZE PUSH1 0x4 PUSH2 0x3268 JUMP JUMPDEST PUSH2 0x4D9 JUMP JUMPDEST PUSH1 0x40 MLOAD PUSH2 0x1D0 SWAP13 SWAP12 SWAP11 SWAP10 SWAP9 SWAP8 SWAP7 SWAP6 SWAP5 SWAP4 SWAP3 SWAP2 SWAP1 PUSH2 0x36BB JUMP JUMPDEST CALLVALUE DUP1 ISZERO PUSH2 0x241 JUMPI PUSH1 0x0 DUP1 REVERT JUMPDEST POP PUSH1 0x9 SLOAD PUSH2 0x1EF JUMP JUMPDEST CALLVALUE DUP1 ISZERO PUSH2 0x256 JUMPI PUSH1 0x0 DUP1 REVERT JUMPDEST POP PUSH2 0x19A PUSH2 0x265 CALLDATASIZE PUSH1 0x4 PUSH2 0x3268 JUMP JUMPDEST PUSH2 0xBB6 JUMP JUMPDEST CALLVALUE DUP1 ISZERO PUSH2 0x276 JUMPI PUSH1 0x0 DUP1 REVERT JUMPDEST POP PUSH2 0x19A PUSH2 0x285 CALLDATASIZE PUSH1 0x4 PUSH2 0x3585 JUMP JUMPDEST PUSH2 0xBCC JUMP JUMPDEST CALLVALUE DUP1 ISZERO PUSH2 0x296 JUMPI PUSH1 0x0 DUP1 REVERT JUMPDEST POP PUSH1 0x4 SLOAD PUSH2 0x1BC SWAP1 PUSH1 0x1 PUSH1 0x1 PUSH1 0xA0 SHL SUB AND DUP2 JUMP JUMPDEST CALLVALUE DUP1 ISZERO PUSH2 0x2B6 JUMPI PUSH1 0x0 DUP1 REVERT JUMPDEST POP PUSH2 0x19A PUSH2 0xDDE JUMP JUMPDEST CALLVALUE DUP1 ISZERO PUSH2 0x2CB JUMPI PUSH1 0x0 DUP1 REVERT JUMPDEST POP PUSH1 0x2 SLOAD PUSH1 0x1 PUSH1 0x1 PUSH1 0xA0 SHL SUB AND PUSH2 0x1BC JUMP JUMPDEST CALLVALUE DUP1 ISZERO PUSH2 0x2E9 JUMPI PUSH1 0x0 DUP1 REVERT JUMPDEST POP PUSH2 0x1EF PUSH2 0xE93 JUMP JUMPDEST PUSH2 0x1EF PUSH2 0x300 CALLDATASIZE PUSH1 0x4 PUSH2 0x3388 JUMP JUMPDEST PUSH2 0xF20 JUMP JUMPDEST CALLVALUE DUP1 ISZERO PUSH2 0x311 JUMPI PUSH1 0x0 DUP1 REVERT JUMPDEST POP PUSH2 0x31A PUSH2 0x1765 JUMP JUMPDEST PUSH1 0x40 MLOAD PUSH2 0x1D0 SWAP2 SWAP1 PUSH2 0x3683 JUMP JUMPDEST CALLVALUE DUP1 ISZERO PUSH2 0x333 JUMPI PUSH1 0x0 DUP1 REVERT JUMPDEST POP PUSH2 0x31A PUSH2 0x17F3 JUMP JUMPDEST CALLVALUE DUP1 ISZERO PUSH2 0x348 JUMPI PUSH1 0x0 DUP1 REVERT JUMPDEST POP PUSH2 0x31A PUSH2 0x186B JUMP JUMPDEST CALLVALUE DUP1 ISZERO PUSH2 0x35D JUMPI PUSH1 0x0 DUP1 REVERT JUMPDEST POP PUSH2 0x1EF PUSH1 0x9 SLOAD DUP2 JUMP JUMPDEST CALLVALUE DUP1 ISZERO PUSH2 0x373 JUMPI PUSH1 0x0 DUP1 REVERT JUMPDEST POP PUSH2 0x31A PUSH2 0x1980 JUMP JUMPDEST CALLVALUE DUP1 ISZERO PUSH2 0x388 JUMPI PUSH1 0x0 DUP1 REVERT JUMPDEST POP PUSH2 0x39C PUSH2 0x397 CALLDATASIZE PUSH1 0x4 PUSH2 0x3473 JUMP JUMPDEST PUSH2 0x1A19 JUMP JUMPDEST PUSH1 0x40 MLOAD PUSH12 0xFFFFFFFFFFFFFFFFFFFFFFFF SWAP1 SWAP2 AND DUP2 MSTORE PUSH1 0x20 ADD PUSH2 0x1D0 JUMP JUMPDEST CALLVALUE DUP1 ISZERO PUSH2 0x3C5 JUMPI PUSH1 0x0 DUP1 REVERT JUMPDEST POP PUSH2 0x3CE PUSH2 0x1AAF JUMP JUMPDEST PUSH1 0x40 MLOAD SWAP1 ISZERO ISZERO DUP2 MSTORE PUSH1 0x20 ADD PUSH2 0x1D0 JUMP JUMPDEST CALLVALUE DUP1 ISZERO PUSH2 0x3EA JUMPI PUSH1 0x0 DUP1 REVERT JUMPDEST POP PUSH2 0x19A PUSH2 0x3F9 CALLDATASIZE PUSH1 0x4 PUSH2 0x322E JUMP JUMPDEST PUSH2 0x232B JUMP JUMPDEST CALLVALUE DUP1 ISZERO PUSH2 0x40A JUMPI PUSH1 0x0 DUP1 REVERT JUMPDEST POP PUSH2 0x19A PUSH2 0x419 CALLDATASIZE PUSH1 0x4 PUSH2 0x322E JUMP JUMPDEST PUSH2 0x233F JUMP JUMPDEST CALLVALUE DUP1 ISZERO PUSH2 0x42A JUMPI PUSH1 0x0 DUP1 REVERT JUMPDEST POP PUSH2 0x31A PUSH2 0x2365 JUMP JUMPDEST PUSH1 0x0 DUP4 DUP2 MSTORE PUSH1 0x1 PUSH1 0x20 MSTORE PUSH1 0x40 SWAP1 KECCAK256 SLOAD DUP4 SWAP1 PUSH1 0x1 PUSH1 0x1 PUSH1 0xA0 SHL SUB AND CALLER EQ PUSH2 0x485 JUMPI PUSH1 0x40 MLOAD PUSH32 0xA0C5EC6300000000000000000000000000000000000000000000000000000000 DUP2 MSTORE PUSH1 0x4 ADD PUSH1 0x40 MLOAD DUP1 SWAP2 SUB SWAP1 REVERT JUMPDEST PUSH1 0x0 DUP2 DUP2 MSTORE PUSH1 0x1 PUSH1 0x20 MSTORE PUSH1 0x40 DUP1 DUP3 KECCAK256 DUP1 SLOAD PUSH1 0x1 PUSH1 0x1 PUSH1 0xA0 SHL SUB NOT AND SWAP1 SSTORE MLOAD DUP3 SWAP2 PUSH32 0x85E1543BF2F84FE80C6BADBCE3648C8539AD1DF4D2B3D822938CA0538BE727E6 SWAP2 LOG2 PUSH2 0x4D3 DUP5 DUP5 DUP5 PUSH2 0x2372 JUMP JUMPDEST POP POP POP POP JUMP JUMPDEST PUSH1 0xA PUSH1 0x20 MSTORE DUP2 PUSH1 0x0 MSTORE PUSH1 0x40 PUSH1 0x0 KECCAK256 DUP2 DUP2 SLOAD DUP2 LT PUSH2 0x4F5 JUMPI PUSH1 0x0 DUP1 REVERT JUMPDEST SWAP1 PUSH1 0x0 MSTORE PUSH1 0x20 PUSH1 0x0 KECCAK256 SWAP1 PUSH1 0xD MUL ADD PUSH1 0x0 SWAP2 POP SWAP2 POP POP DUP1 PUSH1 0x0 ADD DUP1 SLOAD PUSH2 0x519 SWAP1 PUSH2 0x3A95 JUMP JUMPDEST DUP1 PUSH1 0x1F ADD PUSH1 0x20 DUP1 SWAP2 DIV MUL PUSH1 0x20 ADD PUSH1 0x40 MLOAD SWAP1 DUP2 ADD PUSH1 0x40 MSTORE DUP1 SWAP3 SWAP2 SWAP1 DUP2 DUP2 MSTORE PUSH1 0x20 ADD DUP3 DUP1 SLOAD PUSH2 0x545 SWAP1 PUSH2 0x3A95 JUMP JUMPDEST DUP1 ISZERO PUSH2 0x592 JUMPI DUP1 PUSH1 0x1F LT PUSH2 0x567 JUMPI PUSH2 0x100 DUP1 DUP4 SLOAD DIV MUL DUP4 MSTORE SWAP2 PUSH1 0x20 ADD SWAP2 PUSH2 0x592 JUMP JUMPDEST DUP3 ADD SWAP2 SWAP1 PUSH1 0x0 MSTORE PUSH1 0x20 PUSH1 0x0 KECCAK256 SWAP1 JUMPDEST DUP2 SLOAD DUP2 MSTORE SWAP1 PUSH1 0x1 ADD SWAP1 PUSH1 0x20 ADD DUP1 DUP4 GT PUSH2 0x575 JUMPI DUP3 SWAP1 SUB PUSH1 0x1F AND DUP3 ADD SWAP2 JUMPDEST POP POP POP POP POP SWAP1 DUP1 PUSH1 0x1 ADD DUP1 SLOAD PUSH2 0x5A7 SWAP1 PUSH2 0x3A95 JUMP JUMPDEST DUP1 PUSH1 0x1F ADD PUSH1 0x20 DUP1 SWAP2 DIV MUL PUSH1 0x20 ADD PUSH1 0x40 MLOAD SWAP1 DUP2 ADD PUSH1 0x40 MSTORE DUP1 SWAP3 SWAP2 SWAP1 DUP2 DUP2 MSTORE PUSH1 0x20 ADD DUP3 DUP1 SLOAD PUSH2 0x5D3 SWAP1 PUSH2 0x3A95 JUMP JUMPDEST DUP1 ISZERO PUSH2 0x620 JUMPI DUP1 PUSH1 0x1F LT PUSH2 0x5F5 JUMPI PUSH2 0x100 DUP1 DUP4 SLOAD DIV MUL DUP4 MSTORE SWAP2 PUSH1 0x20 ADD SWAP2 PUSH2 0x620 JUMP JUMPDEST DUP3 ADD SWAP2 SWAP1 PUSH1 0x0 MSTORE PUSH1 0x20 PUSH1 0x0 KECCAK256 SWAP1 JUMPDEST DUP2 SLOAD DUP2 MSTORE SWAP1 PUSH1 0x1 ADD SWAP1 PUSH1 0x20 ADD DUP1 DUP4 GT PUSH2 0x603 JUMPI DUP3 SWAP1 SUB PUSH1 0x1F AND DUP3 ADD SWAP2 JUMPDEST POP POP POP POP POP SWAP1 DUP1 PUSH1 0x2 ADD DUP1 SLOAD PUSH2 0x635 SWAP1 PUSH2 0x3A95 JUMP JUMPDEST DUP1 PUSH1 0x1F ADD PUSH1 0x20 DUP1 SWAP2 DIV MUL PUSH1 0x20 ADD PUSH1 0x40 MLOAD SWAP1 DUP2 ADD PUSH1 0x40 MSTORE DUP1 SWAP3 SWAP2 SWAP1 DUP2 DUP2 MSTORE PUSH1 0x20 ADD DUP3 DUP1 SLOAD PUSH2 0x661 SWAP1 PUSH2 0x3A95 JUMP JUMPDEST DUP1 ISZERO PUSH2 0x6AE JUMPI DUP1 PUSH1 0x1F LT PUSH2 0x683 JUMPI PUSH2 0x100 DUP1 DUP4 SLOAD DIV MUL DUP4 MSTORE SWAP2 PUSH1 0x20 ADD SWAP2 PUSH2 0x6AE JUMP JUMPDEST DUP3 ADD SWAP2 SWAP1 PUSH1 0x0 MSTORE PUSH1 0x20 PUSH1 0x0 KECCAK256 SWAP1 JUMPDEST DUP2 SLOAD DUP2 MSTORE SWAP1 PUSH1 0x1 ADD SWAP1 PUSH1 0x20 ADD DUP1 DUP4 GT PUSH2 0x691 JUMPI DUP3 SWAP1 SUB PUSH1 0x1F AND DUP3 ADD SWAP2 JUMPDEST POP POP POP POP POP SWAP1 DUP1 PUSH1 0x3 ADD DUP1 SLOAD PUSH2 0x6C3 SWAP1 PUSH2 0x3A95 JUMP JUMPDEST DUP1 PUSH1 0x1F ADD PUSH1 0x20 DUP1 SWAP2 DIV MUL PUSH1 0x20 ADD PUSH1 0x40 MLOAD SWAP1 DUP2 ADD PUSH1 0x40 MSTORE DUP1 SWAP3 SWAP2 SWAP1 DUP2 DUP2 MSTORE PUSH1 0x20 ADD DUP3 DUP1 SLOAD PUSH2 0x6EF SWAP1 PUSH2 0x3A95 JUMP JUMPDEST DUP1 ISZERO PUSH2 0x73C JUMPI DUP1 PUSH1 0x1F LT PUSH2 0x711 JUMPI PUSH2 0x100 DUP1 DUP4 SLOAD DIV MUL DUP4 MSTORE SWAP2 PUSH1 0x20 ADD SWAP2 PUSH2 0x73C JUMP JUMPDEST DUP3 ADD SWAP2 SWAP1 PUSH1 0x0 MSTORE PUSH1 0x20 PUSH1 0x0 KECCAK256 SWAP1 JUMPDEST DUP2 SLOAD DUP2 MSTORE SWAP1 PUSH1 0x1 ADD SWAP1 PUSH1 0x20 ADD DUP1 DUP4 GT PUSH2 0x71F JUMPI DUP3 SWAP1 SUB PUSH1 0x1F AND DUP3 ADD SWAP2 JUMPDEST POP POP POP POP POP SWAP1 DUP1 PUSH1 0x4 ADD DUP1 SLOAD PUSH2 0x751 SWAP1 PUSH2 0x3A95 JUMP JUMPDEST DUP1 PUSH1 0x1F ADD PUSH1 0x20 DUP1 SWAP2 DIV MUL PUSH1 0x20 ADD PUSH1 0x40 MLOAD SWAP1 DUP2 ADD PUSH1 0x40 MSTORE DUP1 SWAP3 SWAP2 SWAP1 DUP2 DUP2 MSTORE PUSH1 0x20 ADD DUP3 DUP1 SLOAD PUSH2 0x77D SWAP1 PUSH2 0x3A95 JUMP JUMPDEST DUP1 ISZERO PUSH2 0x7CA JUMPI DUP1 PUSH1 0x1F LT PUSH2 0x79F JUMPI PUSH2 0x100 DUP1 DUP4 SLOAD DIV MUL DUP4 MSTORE SWAP2 PUSH1 0x20 ADD SWAP2 PUSH2 0x7CA JUMP JUMPDEST DUP3 ADD SWAP2 SWAP1 PUSH1 0x0 MSTORE PUSH1 0x20 PUSH1 0x0 KECCAK256 SWAP1 JUMPDEST DUP2 SLOAD DUP2 MSTORE SWAP1 PUSH1 0x1 ADD SWAP1 PUSH1 0x20 ADD DUP1 DUP4 GT PUSH2 0x7AD JUMPI DUP3 SWAP1 SUB PUSH1 0x1F AND DUP3 ADD SWAP2 JUMPDEST POP POP POP POP POP SWAP1 DUP1 PUSH1 0x5 ADD DUP1 SLOAD PUSH2 0x7DF SWAP1 PUSH2 0x3A95 JUMP JUMPDEST DUP1 PUSH1 0x1F ADD PUSH1 0x20 DUP1 SWAP2 DIV MUL PUSH1 0x20 ADD PUSH1 0x40 MLOAD SWAP1 DUP2 ADD PUSH1 0x40 MSTORE DUP1 SWAP3 SWAP2 SWAP1 DUP2 DUP2 MSTORE PUSH1 0x20 ADD DUP3 DUP1 SLOAD PUSH2 0x80B SWAP1 PUSH2 0x3A95 JUMP JUMPDEST DUP1 ISZERO PUSH2 0x858 JUMPI DUP1 PUSH1 0x1F LT PUSH2 0x82D JUMPI PUSH2 0x100 DUP1 DUP4 SLOAD DIV MUL DUP4 MSTORE SWAP2 PUSH1 0x20 ADD SWAP2 PUSH2 0x858 JUMP JUMPDEST DUP3 ADD SWAP2 SWAP1 PUSH1 0x0 MSTORE PUSH1 0x20 PUSH1 0x0 KECCAK256 SWAP1 JUMPDEST DUP2 SLOAD DUP2 MSTORE SWAP1 PUSH1 0x1 ADD SWAP1 PUSH1 0x20 ADD DUP1 DUP4 GT PUSH2 0x83B JUMPI DUP3 SWAP1 SUB PUSH1 0x1F AND DUP3 ADD SWAP2 JUMPDEST POP POP POP POP POP SWAP1 DUP1 PUSH1 0x6 ADD DUP1 SLOAD PUSH2 0x86D SWAP1 PUSH2 0x3A95 JUMP JUMPDEST DUP1 PUSH1 0x1F ADD PUSH1 0x20 DUP1 SWAP2 DIV MUL PUSH1 0x20 ADD PUSH1 0x40 MLOAD SWAP1 DUP2 ADD PUSH1 0x40 MSTORE DUP1 SWAP3 SWAP2 SWAP1 DUP2 DUP2 MSTORE PUSH1 0x20 ADD DUP3 DUP1 SLOAD PUSH2 0x899 SWAP1 PUSH2 0x3A95 JUMP JUMPDEST DUP1 ISZERO PUSH2 0x8E6 JUMPI DUP1 PUSH1 0x1F LT PUSH2 0x8BB JUMPI PUSH2 0x100 DUP1 DUP4 SLOAD DIV MUL DUP4 MSTORE SWAP2 PUSH1 0x20 ADD SWAP2 PUSH2 0x8E6 JUMP JUMPDEST DUP3 ADD SWAP2 SWAP1 PUSH1 0x0 MSTORE PUSH1 0x20 PUSH1 0x0 KECCAK256 SWAP1 JUMPDEST DUP2 SLOAD DUP2 MSTORE SWAP1 PUSH1 0x1 ADD SWAP1 PUSH1 0x20 ADD DUP1 DUP4 GT PUSH2 0x8C9 JUMPI DUP3 SWAP1 SUB PUSH1 0x1F AND DUP3 ADD SWAP2 JUMPDEST POP POP POP POP POP SWAP1 DUP1 PUSH1 0x7 ADD DUP1 SLOAD PUSH2 0x8FB SWAP1 PUSH2 0x3A95 JUMP JUMPDEST DUP1 PUSH1 0x1F ADD PUSH1 0x20 DUP1 SWAP2 DIV MUL PUSH1 0x20 ADD PUSH1 0x40 MLOAD SWAP1 DUP2 ADD PUSH1 0x40 MSTORE DUP1 SWAP3 SWAP2 SWAP1 DUP2 DUP2 MSTORE PUSH1 0x20 ADD DUP3 DUP1 SLOAD PUSH2 0x927 SWAP1 PUSH2 0x3A95 JUMP JUMPDEST DUP1 ISZERO PUSH2 0x974 JUMPI DUP1 PUSH1 0x1F LT PUSH2 0x949 JUMPI PUSH2 0x100 DUP1 DUP4 SLOAD DIV MUL DUP4 MSTORE SWAP2 PUSH1 0x20 ADD SWAP2 PUSH2 0x974 JUMP JUMPDEST DUP3 ADD SWAP2 SWAP1 PUSH1 0x0 MSTORE PUSH1 0x20 PUSH1 0x0 KECCAK256 SWAP1 JUMPDEST DUP2 SLOAD DUP2 MSTORE SWAP1 PUSH1 0x1 ADD SWAP1 PUSH1 0x20 ADD DUP1 DUP4 GT PUSH2 0x957 JUMPI DUP3 SWAP1 SUB PUSH1 0x1F AND DUP3 ADD SWAP2 JUMPDEST POP POP POP POP POP SWAP1 DUP1 PUSH1 0x8 ADD DUP1 SLOAD PUSH2 0x989 SWAP1 PUSH2 0x3A95 JUMP JUMPDEST DUP1 PUSH1 0x1F ADD PUSH1 0x20 DUP1 SWAP2 DIV MUL PUSH1 0x20 ADD PUSH1 0x40 MLOAD SWAP1 DUP2 ADD PUSH1 0x40 MSTORE DUP1 SWAP3 SWAP2 SWAP1 DUP2 DUP2 MSTORE PUSH1 0x20 ADD DUP3 DUP1 SLOAD PUSH2 0x9B5 SWAP1 PUSH2 0x3A95 JUMP JUMPDEST DUP1 ISZERO PUSH2 0xA02 JUMPI DUP1 PUSH1 0x1F LT PUSH2 0x9D7 JUMPI PUSH2 0x100 DUP1 DUP4 SLOAD DIV MUL DUP4 MSTORE SWAP2 PUSH1 0x20 ADD SWAP2 PUSH2 0xA02 JUMP JUMPDEST DUP3 ADD SWAP2 SWAP1 PUSH1 0x0 MSTORE PUSH1 0x20 PUSH1 0x0 KECCAK256 SWAP1 JUMPDEST DUP2 SLOAD DUP2 MSTORE SWAP1 PUSH1 0x1 ADD SWAP1 PUSH1 0x20 ADD DUP1 DUP4 GT PUSH2 0x9E5 JUMPI DUP3 SWAP1 SUB PUSH1 0x1F AND DUP3 ADD SWAP2 JUMPDEST POP POP POP POP POP SWAP1 DUP1 PUSH1 0x9 ADD DUP1 SLOAD PUSH2 0xA17 SWAP1 PUSH2 0x3A95 JUMP JUMPDEST DUP1 PUSH1 0x1F ADD PUSH1 0x20 DUP1 SWAP2 DIV MUL PUSH1 0x20 ADD PUSH1 0x40 MLOAD SWAP1 DUP2 ADD PUSH1 0x40 MSTORE DUP1 SWAP3 SWAP2 SWAP1 DUP2 DUP2 MSTORE PUSH1 0x20 ADD DUP3 DUP1 SLOAD PUSH2 0xA43 SWAP1 PUSH2 0x3A95 JUMP JUMPDEST DUP1 ISZERO PUSH2 0xA90 JUMPI DUP1 PUSH1 0x1F LT PUSH2 0xA65 JUMPI PUSH2 0x100 DUP1 DUP4 SLOAD DIV MUL DUP4 MSTORE SWAP2 PUSH1 0x20 ADD SWAP2 PUSH2 0xA90 JUMP JUMPDEST DUP3 ADD SWAP2 SWAP1 PUSH1 0x0 MSTORE PUSH1 0x20 PUSH1 0x0 KECCAK256 SWAP1 JUMPDEST DUP2 SLOAD DUP2 MSTORE SWAP1 PUSH1 0x1 ADD SWAP1 PUSH1 0x20 ADD DUP1 DUP4 GT PUSH2 0xA73 JUMPI DUP3 SWAP1 SUB PUSH1 0x1F AND DUP3 ADD SWAP2 JUMPDEST POP POP POP POP POP SWAP1 DUP1 PUSH1 0xA ADD DUP1 SLOAD PUSH2 0xAA5 SWAP1 PUSH2 0x3A95 JUMP JUMPDEST DUP1 PUSH1 0x1F ADD PUSH1 0x20 DUP1 SWAP2 DIV MUL PUSH1 0x20 ADD PUSH1 0x40 MLOAD SWAP1 DUP2 ADD PUSH1 0x40 MSTORE DUP1 SWAP3 SWAP2 SWAP1 DUP2 DUP2 MSTORE PUSH1 0x20 ADD DUP3 DUP1 SLOAD PUSH2 0xAD1 SWAP1 PUSH2 0x3A95 JUMP JUMPDEST DUP1 ISZERO PUSH2 0xB1E JUMPI DUP1 PUSH1 0x1F LT PUSH2 0xAF3 JUMPI PUSH2 0x100 DUP1 DUP4 SLOAD DIV MUL DUP4 MSTORE SWAP2 PUSH1 0x20 ADD SWAP2 PUSH2 0xB1E JUMP JUMPDEST DUP3 ADD SWAP2 SWAP1 PUSH1 0x0 MSTORE PUSH1 0x20 PUSH1 0x0 KECCAK256 SWAP1 JUMPDEST DUP2 SLOAD DUP2 MSTORE SWAP1 PUSH1 0x1 ADD SWAP1 PUSH1 0x20 ADD DUP1 DUP4 GT PUSH2 0xB01 JUMPI DUP3 SWAP1 SUB PUSH1 0x1F AND DUP3 ADD SWAP2 JUMPDEST POP POP POP POP POP SWAP1 DUP1 PUSH1 0xB ADD DUP1 SLOAD PUSH2 0xB33 SWAP1 PUSH2 0x3A95 JUMP JUMPDEST DUP1 PUSH1 0x1F ADD PUSH1 0x20 DUP1 SWAP2 DIV MUL PUSH1 0x20 ADD PUSH1 0x40 MLOAD SWAP1 DUP2 ADD PUSH1 0x40 MSTORE DUP1 SWAP3 SWAP2 SWAP1 DUP2 DUP2 MSTORE PUSH1 0x20 ADD DUP3 DUP1 SLOAD PUSH2 0xB5F SWAP1 PUSH2 0x3A95 JUMP JUMPDEST DUP1 ISZERO PUSH2 0xBAC JUMPI DUP1 PUSH1 0x1F LT PUSH2 0xB81 JUMPI PUSH2 0x100 DUP1 DUP4 SLOAD DIV MUL DUP4 MSTORE SWAP2 PUSH1 0x20 ADD SWAP2 PUSH2 0xBAC JUMP JUMPDEST DUP3 ADD SWAP2 SWAP1 PUSH1 0x0 MSTORE PUSH1 0x20 PUSH1 0x0 KECCAK256 SWAP1 JUMPDEST DUP2 SLOAD DUP2 MSTORE SWAP1 PUSH1 0x1 ADD SWAP1 PUSH1 0x20 ADD DUP1 DUP4 GT PUSH2 0xB8F JUMPI DUP3 SWAP1 SUB PUSH1 0x1F AND DUP3 ADD SWAP2 JUMPDEST POP POP POP POP POP SWAP1 POP DUP13 JUMP JUMPDEST PUSH2 0xBBE PUSH2 0x23D9 JUMP JUMPDEST PUSH2 0xBC8 DUP3 DUP3 PUSH2 0x2435 JUMP JUMPDEST POP POP JUMP JUMPDEST PUSH1 0x5 SLOAD PUSH1 0x1 PUSH1 0x1 PUSH1 0xA0 SHL SUB AND CALLER EQ PUSH2 0xC51 JUMPI PUSH1 0x40 MLOAD PUSH3 0x461BCD PUSH1 0xE5 SHL DUP2 MSTORE PUSH1 0x20 PUSH1 0x4 DUP3 ADD MSTORE PUSH1 0x29 PUSH1 0x24 DUP3 ADD MSTORE PUSH32 0x4F6E6C79205652467632436F6E73756D65722063616E2063616C6C2074686973 PUSH1 0x44 DUP3 ADD MSTORE PUSH32 0x2066756E6374696F6E0000000000000000000000000000000000000000000000 PUSH1 0x64 DUP3 ADD MSTORE PUSH1 0x84 ADD JUMPDEST PUSH1 0x40 MLOAD DUP1 SWAP2 SUB SWAP1 REVERT JUMPDEST DUP1 MLOAD PUSH1 0x3 EQ PUSH2 0xCC8 JUMPI PUSH1 0x40 MLOAD PUSH3 0x461BCD PUSH1 0xE5 SHL DUP2 MSTORE PUSH1 0x20 PUSH1 0x4 DUP3 ADD MSTORE PUSH1 0x23 PUSH1 0x24 DUP3 ADD MSTORE PUSH32 0x556E6578706563746564206E756D626572206F662072616E646F6D206E756D62 PUSH1 0x44 DUP3 ADD MSTORE PUSH32 0x6572730000000000000000000000000000000000000000000000000000000000 PUSH1 0x64 DUP3 ADD MSTORE PUSH1 0x84 ADD PUSH2 0xC48 JUMP JUMPDEST CALLER PUSH1 0x0 SWAP1 DUP2 MSTORE PUSH1 0xA PUSH1 0x20 MSTORE PUSH1 0x40 SWAP1 KECCAK256 DUP1 SLOAD PUSH2 0xD4B JUMPI PUSH1 0x40 MLOAD PUSH3 0x461BCD PUSH1 0xE5 SHL DUP2 MSTORE PUSH1 0x20 PUSH1 0x4 DUP3 ADD MSTORE PUSH1 0x2E PUSH1 0x24 DUP3 ADD MSTORE PUSH32 0x4E6F20696E737572616E6365206461746120666F756E6420666F722074686520 PUSH1 0x44 DUP3 ADD MSTORE PUSH32 0x726571756573742073656E646572000000000000000000000000000000000000 PUSH1 0x64 DUP3 ADD MSTORE PUSH1 0x84 ADD PUSH2 0xC48 JUMP JUMPDEST DUP1 SLOAD PUSH1 0x0 SWAP1 DUP3 SWAP1 PUSH2 0xD5E SWAP1 PUSH1 0x1 SWAP1 PUSH2 0x3A45 JUMP JUMPDEST DUP2 SLOAD DUP2 LT PUSH2 0xD6E JUMPI PUSH2 0xD6E PUSH2 0x3B39 JUMP JUMPDEST SWAP1 PUSH1 0x0 MSTORE PUSH1 0x20 PUSH1 0x0 KECCAK256 SWAP1 PUSH1 0xD MUL ADD SWAP1 POP PUSH1 0x0 JUMPDEST PUSH1 0x3 DUP2 LT ISZERO PUSH2 0xDD7 JUMPI DUP4 DUP2 DUP2 MLOAD DUP2 LT PUSH2 0xD9C JUMPI PUSH2 0xD9C PUSH2 0x3B39 JUMP JUMPDEST PUSH1 0x20 MUL PUSH1 0x20 ADD ADD MLOAD DUP3 PUSH1 0xC ADD DUP3 DUP2 SLOAD DUP2 LT PUSH2 0xDB9 JUMPI PUSH2 0xDB9 PUSH2 0x3B39 JUMP JUMPDEST PUSH1 0x0 SWAP2 DUP3 MSTORE PUSH1 0x20 SWAP1 SWAP2 KECCAK256 ADD SSTORE DUP1 PUSH2 0xDCF DUP2 PUSH2 0x3AD0 JUMP JUMPDEST SWAP2 POP POP PUSH2 0xD81 JUMP JUMPDEST POP POP POP POP POP JUMP JUMPDEST PUSH1 0x3 SLOAD PUSH1 0x1 PUSH1 0x1 PUSH1 0xA0 SHL SUB AND CALLER EQ PUSH2 0xE38 JUMPI PUSH1 0x40 MLOAD PUSH3 0x461BCD PUSH1 0xE5 SHL DUP2 MSTORE PUSH1 0x20 PUSH1 0x4 DUP3 ADD MSTORE PUSH1 0x16 PUSH1 0x24 DUP3 ADD MSTORE PUSH32 0x4D7573742062652070726F706F736564206F776E657200000000000000000000 PUSH1 0x44 DUP3 ADD MSTORE PUSH1 0x64 ADD PUSH2 0xC48 JUMP JUMPDEST PUSH1 0x2 DUP1 SLOAD PUSH1 0x1 PUSH1 0x1 PUSH1 0xA0 SHL SUB NOT DUP1 DUP3 AND CALLER SWAP1 DUP2 OR SWAP1 SWAP4 SSTORE PUSH1 0x3 DUP1 SLOAD SWAP1 SWAP2 AND SWAP1 SSTORE PUSH1 0x40 MLOAD PUSH1 0x1 PUSH1 0x1 PUSH1 0xA0 SHL SUB SWAP1 SWAP2 AND SWAP2 SWAP1 DUP3 SWAP1 PUSH32 0x8BE0079C531659141344CD1FD0A4F28419497F9722A3DAAFE3B4186F6B6457E0 SWAP1 PUSH1 0x0 SWAP1 LOG3 POP JUMP JUMPDEST PUSH1 0x0 PUSH1 0x4 PUSH1 0x0 SWAP1 SLOAD SWAP1 PUSH2 0x100 EXP SWAP1 DIV PUSH1 0x1 PUSH1 0x1 PUSH1 0xA0 SHL SUB AND PUSH1 0x1 PUSH1 0x1 PUSH1 0xA0 SHL SUB AND PUSH4 0x8E15F473 PUSH1 0x40 MLOAD DUP2 PUSH4 0xFFFFFFFF AND PUSH1 0xE0 SHL DUP2 MSTORE PUSH1 0x4 ADD PUSH1 0x20 PUSH1 0x40 MLOAD DUP1 DUP4 SUB DUP2 DUP7 DUP1 EXTCODESIZE ISZERO DUP1 ISZERO PUSH2 0xEE3 JUMPI PUSH1 0x0 DUP1 REVERT JUMPDEST POP GAS STATICCALL ISZERO DUP1 ISZERO PUSH2 0xEF7 JUMPI RETURNDATASIZE PUSH1 0x0 DUP1 RETURNDATACOPY RETURNDATASIZE PUSH1 0x0 REVERT JUMPDEST POP POP POP POP PUSH1 0x40 MLOAD RETURNDATASIZE PUSH1 0x1F NOT PUSH1 0x1F DUP3 ADD AND DUP3 ADD DUP1 PUSH1 0x40 MSTORE POP DUP2 ADD SWAP1 PUSH2 0xF1B SWAP2 SWAP1 PUSH2 0x3294 JUMP JUMPDEST SWAP1 POP SWAP1 JUMP JUMPDEST PUSH1 0x0 PUSH1 0xC DUP5 EQ PUSH2 0xF72 JUMPI PUSH1 0x40 MLOAD PUSH3 0x461BCD PUSH1 0xE5 SHL DUP2 MSTORE PUSH1 0x20 PUSH1 0x4 DUP3 ADD MSTORE PUSH1 0x1B PUSH1 0x24 DUP3 ADD MSTORE PUSH32 0x496E76616C6964206E756D626572206F6620617267756D656E74730000000000 PUSH1 0x44 DUP3 ADD MSTORE PUSH1 0x64 ADD PUSH2 0xC48 JUMP JUMPDEST PUSH2 0xFB0 PUSH1 0x40 MLOAD DUP1 PUSH1 0x40 ADD PUSH1 0x40 MSTORE DUP1 PUSH1 0x15 DUP2 MSTORE PUSH1 0x20 ADD PUSH32 0x476F7420746865206C6174657374207072696365210000000000000000000000 DUP2 MSTORE POP PUSH2 0x24B5 JUMP JUMPDEST CALLER PUSH1 0x0 SWAP1 DUP2 MSTORE PUSH1 0xA PUSH1 0x20 MSTORE PUSH1 0x40 DUP2 KECCAK256 DUP1 SLOAD SWAP1 SWAP2 SWAP1 PUSH2 0x1621 JUMPI DUP2 PUSH1 0x40 MLOAD DUP1 PUSH2 0x1A0 ADD PUSH1 0x40 MSTORE DUP1 DUP10 DUP10 PUSH1 0x0 DUP2 DUP2 LT PUSH2 0xFE8 JUMPI PUSH2 0xFE8 PUSH2 0x3B39 JUMP JUMPDEST SWAP1 POP PUSH1 0x20 MUL DUP2 ADD SWAP1 PUSH2 0xFFA SWAP2 SWAP1 PUSH2 0x3836 JUMP JUMPDEST DUP1 DUP1 PUSH1 0x1F ADD PUSH1 0x20 DUP1 SWAP2 DIV MUL PUSH1 0x20 ADD PUSH1 0x40 MLOAD SWAP1 DUP2 ADD PUSH1 0x40 MSTORE DUP1 SWAP4 SWAP3 SWAP2 SWAP1 DUP2 DUP2 MSTORE PUSH1 0x20 ADD DUP4 DUP4 DUP1 DUP3 DUP5 CALLDATACOPY PUSH1 0x0 SWAP3 ADD SWAP2 SWAP1 SWAP2 MSTORE POP POP POP SWAP1 DUP3 MSTORE POP PUSH1 0x20 ADD DUP10 DUP10 PUSH1 0x1 DUP2 DUP2 LT PUSH2 0x1047 JUMPI PUSH2 0x1047 PUSH2 0x3B39 JUMP JUMPDEST SWAP1 POP PUSH1 0x20 MUL DUP2 ADD SWAP1 PUSH2 0x1059 SWAP2 SWAP1 PUSH2 0x3836 JUMP JUMPDEST DUP1 DUP1 PUSH1 0x1F ADD PUSH1 0x20 DUP1 SWAP2 DIV MUL PUSH1 0x20 ADD PUSH1 0x40 MLOAD SWAP1 DUP2 ADD PUSH1 0x40 MSTORE DUP1 SWAP4 SWAP3 SWAP2 SWAP1 DUP2 DUP2 MSTORE PUSH1 0x20 ADD DUP4 DUP4 DUP1 DUP3 DUP5 CALLDATACOPY PUSH1 0x0 SWAP3 ADD SWAP2 SWAP1 SWAP2 MSTORE POP POP POP SWAP1 DUP3 MSTORE POP PUSH1 0x20 ADD DUP10 DUP10 PUSH1 0x2 DUP2 DUP2 LT PUSH2 0x10A6 JUMPI PUSH2 0x10A6 PUSH2 0x3B39 JUMP JUMPDEST SWAP1 POP PUSH1 0x20 MUL DUP2 ADD SWAP1 PUSH2 0x10B8 SWAP2 SWAP1 PUSH2 0x3836 JUMP JUMPDEST DUP1 DUP1 PUSH1 0x1F ADD PUSH1 0x20 DUP1 SWAP2 DIV MUL PUSH1 0x20 ADD PUSH1 0x40 MLOAD SWAP1 DUP2 ADD PUSH1 0x40 MSTORE DUP1 SWAP4 SWAP3 SWAP2 SWAP1 DUP2 DUP2 MSTORE PUSH1 0x20 ADD DUP4 DUP4 DUP1 DUP3 DUP5 CALLDATACOPY PUSH1 0x0 SWAP3 ADD SWAP2 SWAP1 SWAP2 MSTORE POP POP POP SWAP1 DUP3 MSTORE POP PUSH1 0x20 ADD DUP10 DUP10 PUSH1 0x3 DUP2 DUP2 LT PUSH2 0x1105 JUMPI PUSH2 0x1105 PUSH2 0x3B39 JUMP JUMPDEST SWAP1 POP PUSH1 0x20 MUL DUP2 ADD SWAP1 PUSH2 0x1117 SWAP2 SWAP1 PUSH2 0x3836 JUMP JUMPDEST DUP1 DUP1 PUSH1 0x1F ADD PUSH1 0x20 DUP1 SWAP2 DIV MUL PUSH1 0x20 ADD PUSH1 0x40 MLOAD SWAP1 DUP2 ADD PUSH1 0x40 MSTORE DUP1 SWAP4 SWAP3 SWAP2 SWAP1 DUP2 DUP2 MSTORE PUSH1 0x20 ADD DUP4 DUP4 DUP1 DUP3 DUP5 CALLDATACOPY PUSH1 0x0 SWAP3 ADD SWAP2 SWAP1 SWAP2 MSTORE POP POP POP SWAP1 DUP3 MSTORE POP PUSH1 0x20 ADD DUP10 DUP10 PUSH1 0x4 DUP2 DUP2 LT PUSH2 0x1164 JUMPI PUSH2 0x1164 PUSH2 0x3B39 JUMP JUMPDEST SWAP1 POP PUSH1 0x20 MUL DUP2 ADD SWAP1 PUSH2 0x1176 SWAP2 SWAP1 PUSH2 0x3836 JUMP JUMPDEST DUP1 DUP1 PUSH1 0x1F ADD PUSH1 0x20 DUP1 SWAP2 DIV MUL PUSH1 0x20 ADD PUSH1 0x40 MLOAD SWAP1 DUP2 ADD PUSH1 0x40 MSTORE DUP1 SWAP4 SWAP3 SWAP2 SWAP1 DUP2 DUP2 MSTORE PUSH1 0x20 ADD DUP4 DUP4 DUP1 DUP3 DUP5 CALLDATACOPY PUSH1 0x0 SWAP3 ADD SWAP2 SWAP1 SWAP2 MSTORE POP POP POP SWAP1 DUP3 MSTORE POP PUSH1 0x20 ADD DUP10 DUP10 PUSH1 0x5 DUP2 DUP2 LT PUSH2 0x11C3 JUMPI PUSH2 0x11C3 PUSH2 0x3B39 JUMP JUMPDEST SWAP1 POP PUSH1 0x20 MUL DUP2 ADD SWAP1 PUSH2 0x11D5 SWAP2 SWAP1 PUSH2 0x3836 JUMP JUMPDEST DUP1 DUP1 PUSH1 0x1F ADD PUSH1 0x20 DUP1 SWAP2 DIV MUL PUSH1 0x20 ADD PUSH1 0x40 MLOAD SWAP1 DUP2 ADD PUSH1 0x40 MSTORE DUP1 SWAP4 SWAP3 SWAP2 SWAP1 DUP2 DUP2 MSTORE PUSH1 0x20 ADD DUP4 DUP4 DUP1 DUP3 DUP5 CALLDATACOPY PUSH1 0x0 SWAP3 ADD SWAP2 SWAP1 SWAP2 MSTORE POP POP POP SWAP1 DUP3 MSTORE POP PUSH1 0x20 ADD DUP10 DUP10 PUSH1 0x6 DUP2 DUP2 LT PUSH2 0x1222 JUMPI PUSH2 0x1222 PUSH2 0x3B39 JUMP JUMPDEST SWAP1 POP PUSH1 0x20 MUL DUP2 ADD SWAP1 PUSH2 0x1234 SWAP2 SWAP1 PUSH2 0x3836 JUMP JUMPDEST DUP1 DUP1 PUSH1 0x1F ADD PUSH1 0x20 DUP1 SWAP2 DIV MUL PUSH1 0x20 ADD PUSH1 0x40 MLOAD SWAP1 DUP2 ADD PUSH1 0x40 MSTORE DUP1 SWAP4 SWAP3 SWAP2 SWAP1 DUP2 DUP2 MSTORE PUSH1 0x20 ADD DUP4 DUP4 DUP1 DUP3 DUP5 CALLDATACOPY PUSH1 0x0 SWAP3 ADD SWAP2 SWAP1 SWAP2 MSTORE POP POP POP SWAP1 DUP3 MSTORE POP PUSH1 0x20 ADD DUP10 DUP10 PUSH1 0x7 DUP2 DUP2 LT PUSH2 0x1281 JUMPI PUSH2 0x1281 PUSH2 0x3B39 JUMP JUMPDEST SWAP1 POP PUSH1 0x20 MUL DUP2 ADD SWAP1 PUSH2 0x1293 SWAP2 SWAP1 PUSH2 0x3836 JUMP JUMPDEST DUP1 DUP1 PUSH1 0x1F ADD PUSH1 0x20 DUP1 SWAP2 DIV MUL PUSH1 0x20 ADD PUSH1 0x40 MLOAD SWAP1 DUP2 ADD PUSH1 0x40 MSTORE DUP1 SWAP4 SWAP3 SWAP2 SWAP1 DUP2 DUP2 MSTORE PUSH1 0x20 ADD DUP4 DUP4 DUP1 DUP3 DUP5 CALLDATACOPY PUSH1 0x0 SWAP3 ADD SWAP2 SWAP1 SWAP2 MSTORE POP POP POP SWAP1 DUP3 MSTORE POP PUSH1 0x20 ADD DUP10 DUP10 PUSH1 0x8 DUP2 DUP2 LT PUSH2 0x12E0 JUMPI PUSH2 0x12E0 PUSH2 0x3B39 JUMP JUMPDEST SWAP1 POP PUSH1 0x20 MUL DUP2 ADD SWAP1 PUSH2 0x12F2 SWAP2 SWAP1 PUSH2 0x3836 JUMP JUMPDEST DUP1 DUP1 PUSH1 0x1F ADD PUSH1 0x20 DUP1 SWAP2 DIV MUL PUSH1 0x20 ADD PUSH1 0x40 MLOAD SWAP1 DUP2 ADD PUSH1 0x40 MSTORE DUP1 SWAP4 SWAP3 SWAP2 SWAP1 DUP2 DUP2 MSTORE PUSH1 0x20 ADD DUP4 DUP4 DUP1 DUP3 DUP5 CALLDATACOPY PUSH1 0x0 SWAP3 ADD SWAP2 SWAP1 SWAP2 MSTORE POP POP POP SWAP1 DUP3 MSTORE POP PUSH1 0x20 ADD DUP10 DUP10 PUSH1 0x9 DUP2 DUP2 LT PUSH2 0x133F JUMPI PUSH2 0x133F PUSH2 0x3B39 JUMP JUMPDEST SWAP1 POP PUSH1 0x20 MUL DUP2 ADD SWAP1 PUSH2 0x1351 SWAP2 SWAP1 PUSH2 0x3836 JUMP JUMPDEST DUP1 DUP1 PUSH1 0x1F ADD PUSH1 0x20 DUP1 SWAP2 DIV MUL PUSH1 0x20 ADD PUSH1 0x40 MLOAD SWAP1 DUP2 ADD PUSH1 0x40 MSTORE DUP1 SWAP4 SWAP3 SWAP2 SWAP1 DUP2 DUP2 MSTORE PUSH1 0x20 ADD DUP4 DUP4 DUP1 DUP3 DUP5 CALLDATACOPY PUSH1 0x0 SWAP3 ADD SWAP2 SWAP1 SWAP2 MSTORE POP POP POP SWAP1 DUP3 MSTORE POP PUSH1 0x20 ADD DUP10 DUP10 PUSH1 0xA DUP2 DUP2 LT PUSH2 0x139E JUMPI PUSH2 0x139E PUSH2 0x3B39 JUMP JUMPDEST SWAP1 POP PUSH1 0x20 MUL DUP2 ADD SWAP1 PUSH2 0x13B0 SWAP2 SWAP1 PUSH2 0x3836 JUMP JUMPDEST DUP1 DUP1 PUSH1 0x1F ADD PUSH1 0x20 DUP1 SWAP2 DIV MUL PUSH1 0x20 ADD PUSH1 0x40 MLOAD SWAP1 DUP2 ADD PUSH1 0x40 MSTORE DUP1 SWAP4 SWAP3 SWAP2 SWAP1 DUP2 DUP2 MSTORE PUSH1 0x20 ADD DUP4 DUP4 DUP1 DUP3 DUP5 CALLDATACOPY PUSH1 0x0 SWAP3 ADD SWAP2 SWAP1 SWAP2 MSTORE POP POP POP SWAP1 DUP3 MSTORE POP PUSH1 0x20 ADD DUP10 DUP10 PUSH1 0xB DUP2 DUP2 LT PUSH2 0x13FD JUMPI PUSH2 0x13FD PUSH2 0x3B39 JUMP JUMPDEST SWAP1 POP PUSH1 0x20 MUL DUP2 ADD SWAP1 PUSH2 0x140F SWAP2 SWAP1 PUSH2 0x3836 JUMP JUMPDEST DUP1 DUP1 PUSH1 0x1F ADD PUSH1 0x20 DUP1 SWAP2 DIV MUL PUSH1 0x20 ADD PUSH1 0x40 MLOAD SWAP1 DUP2 ADD PUSH1 0x40 MSTORE DUP1 SWAP4 SWAP3 SWAP2 SWAP1 DUP2 DUP2 MSTORE PUSH1 0x20 ADD DUP4 DUP4 DUP1 DUP3 DUP5 CALLDATACOPY PUSH1 0x0 SWAP3 ADD SWAP2 SWAP1 SWAP2 MSTORE POP POP POP SWAP1 DUP3 MSTORE POP PUSH1 0x40 DUP1 MLOAD PUSH1 0x3 DUP1 DUP3 MSTORE PUSH1 0x80 DUP3 ADD SWAP1 SWAP3 MSTORE PUSH1 0x20 SWAP3 DUP4 ADD SWAP3 SWAP1 SWAP2 SWAP1 DUP3 ADD PUSH1 0x60 DUP1 CALLDATASIZE DUP4 CALLDATACOPY POP POP POP SWAP1 MSTORE DUP2 SLOAD PUSH1 0x1 DUP2 ADD DUP4 SSTORE PUSH1 0x0 SWAP3 DUP4 MSTORE PUSH1 0x20 SWAP3 DUP4 SWAP1 KECCAK256 DUP3 MLOAD DUP1 MLOAD SWAP4 SWAP5 PUSH1 0xD SWAP1 SWAP4 MUL SWAP1 SWAP2 ADD SWAP3 PUSH2 0x149B SWAP3 DUP5 SWAP3 ADD SWAP1 PUSH2 0x2F9D JUMP JUMPDEST POP PUSH1 0x20 DUP3 DUP2 ADD MLOAD DUP1 MLOAD PUSH2 0x14B4 SWAP3 PUSH1 0x1 DUP6 ADD SWAP3 ADD SWAP1 PUSH2 0x2F9D JUMP JUMPDEST POP PUSH1 0x40 DUP3 ADD MLOAD DUP1 MLOAD PUSH2 0x14D0 SWAP2 PUSH1 0x2 DUP5 ADD SWAP2 PUSH1 0x20 SWAP1 SWAP2 ADD SWAP1 PUSH2 0x2F9D JUMP JUMPDEST POP PUSH1 0x60 DUP3 ADD MLOAD DUP1 MLOAD PUSH2 0x14EC SWAP2 PUSH1 0x3 DUP5 ADD SWAP2 PUSH1 0x20 SWAP1 SWAP2 ADD SWAP1 PUSH2 0x2F9D JUMP JUMPDEST POP PUSH1 0x80 DUP3 ADD MLOAD DUP1 MLOAD PUSH2 0x1508 SWAP2 PUSH1 0x4 DUP5 ADD SWAP2 PUSH1 0x20 SWAP1 SWAP2 ADD SWAP1 PUSH2 0x2F9D JUMP JUMPDEST POP PUSH1 0xA0 DUP3 ADD MLOAD DUP1 MLOAD PUSH2 0x1524 SWAP2 PUSH1 0x5 DUP5 ADD SWAP2 PUSH1 0x20 SWAP1 SWAP2 ADD SWAP1 PUSH2 0x2F9D JUMP JUMPDEST POP PUSH1 0xC0 DUP3 ADD MLOAD DUP1 MLOAD PUSH2 0x1540 SWAP2 PUSH1 0x6 DUP5 ADD SWAP2 PUSH1 0x20 SWAP1 SWAP2 ADD SWAP1 PUSH2 0x2F9D JUMP JUMPDEST POP PUSH1 0xE0 DUP3 ADD MLOAD DUP1 MLOAD PUSH2 0x155C SWAP2 PUSH1 0x7 DUP5 ADD SWAP2 PUSH1 0x20 SWAP1 SWAP2 ADD SWAP1 PUSH2 0x2F9D JUMP JUMPDEST POP PUSH2 0x100 DUP3 ADD MLOAD DUP1 MLOAD PUSH2 0x1579 SWAP2 PUSH1 0x8 DUP5 ADD SWAP2 PUSH1 0x20 SWAP1 SWAP2 ADD SWAP1 PUSH2 0x2F9D JUMP JUMPDEST POP PUSH2 0x120 DUP3 ADD MLOAD DUP1 MLOAD PUSH2 0x1596 SWAP2 PUSH1 0x9 DUP5 ADD SWAP2 PUSH1 0x20 SWAP1 SWAP2 ADD SWAP1 PUSH2 0x2F9D JUMP JUMPDEST POP PUSH2 0x140 DUP3 ADD MLOAD DUP1 MLOAD PUSH2 0x15B3 SWAP2 PUSH1 0xA DUP5 ADD SWAP2 PUSH1 0x20 SWAP1 SWAP2 ADD SWAP1 PUSH2 0x2F9D JUMP JUMPDEST POP PUSH2 0x160 DUP3 ADD MLOAD DUP1 MLOAD PUSH2 0x15D0 SWAP2 PUSH1 0xB DUP5 ADD SWAP2 PUSH1 0x20 SWAP1 SWAP2 ADD SWAP1 PUSH2 0x2F9D JUMP JUMPDEST POP PUSH2 0x180 DUP3 ADD MLOAD DUP1 MLOAD PUSH2 0x15ED SWAP2 PUSH1 0xC DUP5 ADD SWAP2 PUSH1 0x20 SWAP1 SWAP2 ADD SWAP1 PUSH2 0x3021 JUMP JUMPDEST POP POP DUP3 SLOAD DUP4 SWAP2 POP PUSH2 0x1600 SWAP1 PUSH1 0x1 SWAP1 PUSH2 0x3A45 JUMP JUMPDEST DUP2 SLOAD DUP2 LT PUSH2 0x1610 JUMPI PUSH2 0x1610 PUSH2 0x3B39 JUMP JUMPDEST SWAP1 PUSH1 0x0 MSTORE PUSH1 0x20 PUSH1 0x0 KECCAK256 SWAP1 PUSH1 0xD MUL ADD SWAP1 POP JUMPDEST PUSH2 0x165F PUSH1 0x40 MLOAD DUP1 PUSH1 0x40 ADD PUSH1 0x40 MSTORE DUP1 PUSH1 0xA DUP2 MSTORE PUSH1 0x20 ADD PUSH32 0x6174207265717565737400000000000000000000000000000000000000000000 DUP2 MSTORE POP PUSH2 0x24B5 JUMP JUMPDEST PUSH2 0x1699 PUSH1 0x40 DUP1 MLOAD PUSH1 0xC0 DUP2 ADD SWAP1 SWAP2 MSTORE DUP1 PUSH1 0x0 DUP2 MSTORE PUSH1 0x20 ADD PUSH1 0x0 DUP2 MSTORE PUSH1 0x20 ADD PUSH1 0x0 DUP2 MSTORE PUSH1 0x20 ADD PUSH1 0x60 DUP2 MSTORE PUSH1 0x20 ADD PUSH1 0x60 DUP2 MSTORE PUSH1 0x20 ADD PUSH1 0x60 DUP2 MSTORE POP SWAP1 JUMP JUMPDEST PUSH2 0x16E0 PUSH1 0x0 DUP1 DUP15 DUP15 DUP1 DUP1 PUSH1 0x1F ADD PUSH1 0x20 DUP1 SWAP2 DIV MUL PUSH1 0x20 ADD PUSH1 0x40 MLOAD SWAP1 DUP2 ADD PUSH1 0x40 MSTORE DUP1 SWAP4 SWAP3 SWAP2 SWAP1 DUP2 DUP2 MSTORE PUSH1 0x20 ADD DUP4 DUP4 DUP1 DUP3 DUP5 CALLDATACOPY PUSH1 0x0 SWAP3 ADD SWAP2 SWAP1 SWAP2 MSTORE POP DUP8 SWAP6 SWAP5 SWAP4 SWAP3 POP POP PUSH2 0x2526 SWAP1 POP JUMP JUMPDEST DUP9 ISZERO PUSH2 0x1728 JUMPI PUSH2 0x1728 DUP11 DUP11 DUP1 DUP1 PUSH1 0x1F ADD PUSH1 0x20 DUP1 SWAP2 DIV MUL PUSH1 0x20 ADD PUSH1 0x40 MLOAD SWAP1 DUP2 ADD PUSH1 0x40 MSTORE DUP1 SWAP4 SWAP3 SWAP2 SWAP1 DUP2 DUP2 MSTORE PUSH1 0x20 ADD DUP4 DUP4 DUP1 DUP3 DUP5 CALLDATACOPY PUSH1 0x0 SWAP3 ADD SWAP2 SWAP1 SWAP2 MSTORE POP DUP6 SWAP4 SWAP3 POP POP PUSH2 0x25BA SWAP1 POP JUMP JUMPDEST DUP7 ISZERO PUSH2 0x1742 JUMPI PUSH2 0x1742 PUSH2 0x173B DUP9 DUP11 PUSH2 0x3A5C JUMP JUMPDEST DUP3 SWAP1 PUSH2 0x2601 JUMP JUMPDEST PUSH1 0x0 PUSH2 0x174F DUP3 DUP9 DUP9 PUSH2 0x2641 JUMP JUMPDEST PUSH1 0x6 DUP2 SWAP1 SSTORE SWAP14 SWAP13 POP POP POP POP POP POP POP POP POP POP POP POP POP JUMP JUMPDEST PUSH1 0x7 DUP1 SLOAD PUSH2 0x1772 SWAP1 PUSH2 0x3A95 JUMP JUMPDEST DUP1 PUSH1 0x1F ADD PUSH1 0x20 DUP1 SWAP2 DIV MUL PUSH1 0x20 ADD PUSH1 0x40 MLOAD SWAP1 DUP2 ADD PUSH1 0x40 MSTORE DUP1 SWAP3 SWAP2 SWAP1 DUP2 DUP2 MSTORE PUSH1 0x20 ADD DUP3 DUP1 SLOAD PUSH2 0x179E SWAP1 PUSH2 0x3A95 JUMP JUMPDEST DUP1 ISZERO PUSH2 0x17EB JUMPI DUP1 PUSH1 0x1F LT PUSH2 0x17C0 JUMPI PUSH2 0x100 DUP1 DUP4 SLOAD DIV MUL DUP4 MSTORE SWAP2 PUSH1 0x20 ADD SWAP2 PUSH2 0x17EB JUMP JUMPDEST DUP3 ADD SWAP2 SWAP1 PUSH1 0x0 MSTORE PUSH1 0x20 PUSH1 0x0 KECCAK256 SWAP1 JUMPDEST DUP2 SLOAD DUP2 MSTORE SWAP1 PUSH1 0x1 ADD SWAP1 PUSH1 0x20 ADD DUP1 DUP4 GT PUSH2 0x17CE JUMPI DUP3 SWAP1 SUB PUSH1 0x1F AND DUP3 ADD SWAP2 JUMPDEST POP POP POP POP POP DUP2 JUMP JUMPDEST PUSH1 0x60 PUSH2 0x1833 PUSH1 0x40 MLOAD DUP1 PUSH1 0x40 ADD PUSH1 0x40 MSTORE DUP1 PUSH1 0x4 DUP2 MSTORE PUSH1 0x20 ADD PUSH32 0x5465737400000000000000000000000000000000000000000000000000000000 DUP2 MSTORE POP PUSH2 0x24B5 JUMP JUMPDEST POP PUSH1 0x40 DUP1 MLOAD DUP1 DUP3 ADD SWAP1 SWAP2 MSTORE PUSH1 0xC DUP2 MSTORE PUSH32 0x48656C6C6F20576F726C64210000000000000000000000000000000000000000 PUSH1 0x20 DUP3 ADD MSTORE SWAP1 JUMP JUMPDEST CALLER PUSH1 0x0 DUP2 DUP2 MSTORE PUSH1 0xA PUSH1 0x20 MSTORE PUSH1 0x40 SWAP1 KECCAK256 DUP1 SLOAD PUSH1 0x60 SWAP3 SWAP2 SWAP1 PUSH2 0x18F2 JUMPI PUSH1 0x40 MLOAD PUSH3 0x461BCD PUSH1 0xE5 SHL DUP2 MSTORE PUSH1 0x20 PUSH1 0x4 DUP3 ADD MSTORE PUSH1 0x24 DUP1 DUP3 ADD MSTORE PUSH32 0x4E6F20696E737572616E6365206461746120666F756E6420666F722074686520 PUSH1 0x44 DUP3 ADD MSTORE PUSH32 0x7573657200000000000000000000000000000000000000000000000000000000 PUSH1 0x64 DUP3 ADD MSTORE PUSH1 0x84 ADD PUSH2 0xC48 JUMP JUMPDEST PUSH1 0x5 PUSH1 0x0 SWAP1 SLOAD SWAP1 PUSH2 0x100 EXP SWAP1 DIV PUSH1 0x1 PUSH1 0x1 PUSH1 0xA0 SHL SUB AND PUSH1 0x1 PUSH1 0x1 PUSH1 0xA0 SHL SUB AND PUSH4 0xE0C86289 PUSH1 0x40 MLOAD DUP2 PUSH4 0xFFFFFFFF AND PUSH1 0xE0 SHL DUP2 MSTORE PUSH1 0x4 ADD PUSH1 0x20 PUSH1 0x40 MLOAD DUP1 DUP4 SUB DUP2 PUSH1 0x0 DUP8 DUP1 EXTCODESIZE ISZERO DUP1 ISZERO PUSH2 0x1942 JUMPI PUSH1 0x0 DUP1 REVERT JUMPDEST POP GAS CALL ISZERO DUP1 ISZERO PUSH2 0x1956 JUMPI RETURNDATASIZE PUSH1 0x0 DUP1 RETURNDATACOPY RETURNDATASIZE PUSH1 0x0 REVERT JUMPDEST POP POP POP POP PUSH1 0x40 MLOAD RETURNDATASIZE PUSH1 0x1F NOT PUSH1 0x1F DUP3 ADD AND DUP3 ADD DUP1 PUSH1 0x40 MSTORE POP DUP2 ADD SWAP1 PUSH2 0x197A SWAP2 SWAP1 PUSH2 0x3294 JUMP JUMPDEST POP POP POP SWAP1 JUMP JUMPDEST PUSH1 0x0 DUP1 SLOAD PUSH1 0x40 DUP1 MLOAD PUSH32 0xD328A91E00000000000000000000000000000000000000000000000000000000 DUP2 MSTORE SWAP1 MLOAD PUSH1 0x60 SWAP4 PUSH1 0x1 PUSH1 0x1 PUSH1 0xA0 SHL SUB SWAP1 SWAP4 AND SWAP3 PUSH4 0xD328A91E SWAP3 PUSH1 0x4 DUP1 DUP3 ADD SWAP4 SWAP2 DUP3 SWAP1 SUB ADD DUP2 DUP7 DUP1 EXTCODESIZE ISZERO DUP1 ISZERO PUSH2 0x19DD JUMPI PUSH1 0x0 DUP1 REVERT JUMPDEST POP GAS STATICCALL ISZERO DUP1 ISZERO PUSH2 0x19F1 JUMPI RETURNDATASIZE PUSH1 0x0 DUP1 RETURNDATACOPY RETURNDATASIZE PUSH1 0x0 REVERT JUMPDEST POP POP POP POP PUSH1 0x40 MLOAD RETURNDATASIZE PUSH1 0x0 DUP3 RETURNDATACOPY PUSH1 0x1F RETURNDATASIZE SWAP1 DUP2 ADD PUSH1 0x1F NOT AND DUP3 ADD PUSH1 0x40 MSTORE PUSH2 0xF1B SWAP2 SWAP1 DUP2 ADD SWAP1 PUSH2 0x331A JUMP JUMPDEST PUSH1 0x0 DUP1 SLOAD PUSH1 0x1 PUSH1 0x1 PUSH1 0xA0 SHL SUB AND PUSH4 0xD227D245 DUP6 PUSH2 0x1A35 DUP9 PUSH2 0x27B3 JUMP JUMPDEST DUP7 DUP7 PUSH1 0x40 MLOAD DUP6 PUSH4 0xFFFFFFFF AND PUSH1 0xE0 SHL DUP2 MSTORE PUSH1 0x4 ADD PUSH2 0x1A56 SWAP5 SWAP4 SWAP3 SWAP2 SWAP1 PUSH2 0x37FA JUMP JUMPDEST PUSH1 0x20 PUSH1 0x40 MLOAD DUP1 DUP4 SUB DUP2 DUP7 DUP1 EXTCODESIZE ISZERO DUP1 ISZERO PUSH2 0x1A6E JUMPI PUSH1 0x0 DUP1 REVERT JUMPDEST POP GAS STATICCALL ISZERO DUP1 ISZERO PUSH2 0x1A82 JUMPI RETURNDATASIZE PUSH1 0x0 DUP1 RETURNDATACOPY RETURNDATASIZE PUSH1 0x0 REVERT JUMPDEST POP POP POP POP PUSH1 0x40 MLOAD RETURNDATASIZE PUSH1 0x1F NOT PUSH1 0x1F DUP3 ADD AND DUP3 ADD DUP1 PUSH1 0x40 MSTORE POP DUP2 ADD SWAP1 PUSH2 0x1AA6 SWAP2 SWAP1 PUSH2 0x3629 JUMP JUMPDEST SWAP6 SWAP5 POP POP POP POP POP JUMP JUMPDEST CALLER PUSH1 0x0 SWAP1 DUP2 MSTORE PUSH1 0xA PUSH1 0x20 MSTORE PUSH1 0x40 DUP2 KECCAK256 DUP1 SLOAD PUSH2 0x1B0C JUMPI PUSH1 0x40 MLOAD PUSH3 0x461BCD PUSH1 0xE5 SHL DUP2 MSTORE PUSH1 0x20 PUSH1 0x4 DUP3 ADD MSTORE PUSH1 0x17 PUSH1 0x24 DUP3 ADD MSTORE PUSH32 0x4E6F20696E737572616E6365206461746120666F756E64000000000000000000 PUSH1 0x44 DUP3 ADD MSTORE PUSH1 0x64 ADD PUSH2 0xC48 JUMP JUMPDEST PUSH1 0x0 JUMPDEST DUP2 SLOAD DUP2 LT ISZERO PUSH2 0x2322 JUMPI PUSH1 0x0 DUP3 DUP3 DUP2 SLOAD DUP2 LT PUSH2 0x1B2C JUMPI PUSH2 0x1B2C PUSH2 0x3B39 JUMP JUMPDEST SWAP1 PUSH1 0x0 MSTORE PUSH1 0x20 PUSH1 0x0 KECCAK256 SWAP1 PUSH1 0xD MUL ADD PUSH1 0x40 MLOAD DUP1 PUSH2 0x1A0 ADD PUSH1 0x40 MSTORE SWAP1 DUP2 PUSH1 0x0 DUP3 ADD DUP1 SLOAD PUSH2 0x1B56 SWAP1 PUSH2 0x3A95 JUMP JUMPDEST DUP1 PUSH1 0x1F ADD PUSH1 0x20 DUP1 SWAP2 DIV MUL PUSH1 0x20 ADD PUSH1 0x40 MLOAD SWAP1 DUP2 ADD PUSH1 0x40 MSTORE DUP1 SWAP3 SWAP2 SWAP1 DUP2 DUP2 MSTORE PUSH1 0x20 ADD DUP3 DUP1 SLOAD PUSH2 0x1B82 SWAP1 PUSH2 0x3A95 JUMP JUMPDEST DUP1 ISZERO PUSH2 0x1BCF JUMPI DUP1 PUSH1 0x1F LT PUSH2 0x1BA4 JUMPI PUSH2 0x100 DUP1 DUP4 SLOAD DIV MUL DUP4 MSTORE SWAP2 PUSH1 0x20 ADD SWAP2 PUSH2 0x1BCF JUMP JUMPDEST DUP3 ADD SWAP2 SWAP1 PUSH1 0x0 MSTORE PUSH1 0x20 PUSH1 0x0 KECCAK256 SWAP1 JUMPDEST DUP2 SLOAD DUP2 MSTORE SWAP1 PUSH1 0x1 ADD SWAP1 PUSH1 0x20 ADD DUP1 DUP4 GT PUSH2 0x1BB2 JUMPI DUP3 SWAP1 SUB PUSH1 0x1F AND DUP3 ADD SWAP2 JUMPDEST POP POP POP POP POP DUP2 MSTORE PUSH1 0x20 ADD PUSH1 0x1 DUP3 ADD DUP1 SLOAD PUSH2 0x1BE8 SWAP1 PUSH2 0x3A95 JUMP JUMPDEST DUP1 PUSH1 0x1F ADD PUSH1 0x20 DUP1 SWAP2 DIV MUL PUSH1 0x20 ADD PUSH1 0x40 MLOAD SWAP1 DUP2 ADD PUSH1 0x40 MSTORE DUP1 SWAP3 SWAP2 SWAP1 DUP2 DUP2 MSTORE PUSH1 0x20 ADD DUP3 DUP1 SLOAD PUSH2 0x1C14 SWAP1 PUSH2 0x3A95 JUMP JUMPDEST DUP1 ISZERO PUSH2 0x1C61 JUMPI DUP1 PUSH1 0x1F LT PUSH2 0x1C36 JUMPI PUSH2 0x100 DUP1 DUP4 SLOAD DIV MUL DUP4 MSTORE SWAP2 PUSH1 0x20 ADD SWAP2 PUSH2 0x1C61 JUMP JUMPDEST DUP3 ADD SWAP2 SWAP1 PUSH1 0x0 MSTORE PUSH1 0x20 PUSH1 0x0 KECCAK256 SWAP1 JUMPDEST DUP2 SLOAD DUP2 MSTORE SWAP1 PUSH1 0x1 ADD SWAP1 PUSH1 0x20 ADD DUP1 DUP4 GT PUSH2 0x1C44 JUMPI DUP3 SWAP1 SUB PUSH1 0x1F AND DUP3 ADD SWAP2 JUMPDEST POP POP POP POP POP DUP2 MSTORE PUSH1 0x20 ADD PUSH1 0x2 DUP3 ADD DUP1 SLOAD PUSH2 0x1C7A SWAP1 PUSH2 0x3A95 JUMP JUMPDEST DUP1 PUSH1 0x1F ADD PUSH1 0x20 DUP1 SWAP2 DIV MUL PUSH1 0x20 ADD PUSH1 0x40 MLOAD SWAP1 DUP2 ADD PUSH1 0x40 MSTORE DUP1 SWAP3 SWAP2 SWAP1 DUP2 DUP2 MSTORE PUSH1 0x20 ADD DUP3 DUP1 SLOAD PUSH2 0x1CA6 SWAP1 PUSH2 0x3A95 JUMP JUMPDEST DUP1 ISZERO PUSH2 0x1CF3 JUMPI DUP1 PUSH1 0x1F LT PUSH2 0x1CC8 JUMPI PUSH2 0x100 DUP1 DUP4 SLOAD DIV MUL DUP4 MSTORE SWAP2 PUSH1 0x20 ADD SWAP2 PUSH2 0x1CF3 JUMP JUMPDEST DUP3 ADD SWAP2 SWAP1 PUSH1 0x0 MSTORE PUSH1 0x20 PUSH1 0x0 KECCAK256 SWAP1 JUMPDEST DUP2 SLOAD DUP2 MSTORE SWAP1 PUSH1 0x1 ADD SWAP1 PUSH1 0x20 ADD DUP1 DUP4 GT PUSH2 0x1CD6 JUMPI DUP3 SWAP1 SUB PUSH1 0x1F AND DUP3 ADD SWAP2 JUMPDEST POP POP POP POP POP DUP2 MSTORE PUSH1 0x20 ADD PUSH1 0x3 DUP3 ADD DUP1 SLOAD PUSH2 0x1D0C SWAP1 PUSH2 0x3A95 JUMP JUMPDEST DUP1 PUSH1 0x1F ADD PUSH1 0x20 DUP1 SWAP2 DIV MUL PUSH1 0x20 ADD PUSH1 0x40 MLOAD SWAP1 DUP2 ADD PUSH1 0x40 MSTORE DUP1 SWAP3 SWAP2 SWAP1 DUP2 DUP2 MSTORE PUSH1 0x20 ADD DUP3 DUP1 SLOAD PUSH2 0x1D38 SWAP1 PUSH2 0x3A95 JUMP JUMPDEST DUP1 ISZERO PUSH2 0x1D85 JUMPI DUP1 PUSH1 0x1F LT PUSH2 0x1D5A JUMPI PUSH2 0x100 DUP1 DUP4 SLOAD DIV MUL DUP4 MSTORE SWAP2 PUSH1 0x20 ADD SWAP2 PUSH2 0x1D85 JUMP JUMPDEST DUP3 ADD SWAP2 SWAP1 PUSH1 0x0 MSTORE PUSH1 0x20 PUSH1 0x0 KECCAK256 SWAP1 JUMPDEST DUP2 SLOAD DUP2 MSTORE SWAP1 PUSH1 0x1 ADD SWAP1 PUSH1 0x20 ADD DUP1 DUP4 GT PUSH2 0x1D68 JUMPI DUP3 SWAP1 SUB PUSH1 0x1F AND DUP3 ADD SWAP2 JUMPDEST POP POP POP POP POP DUP2 MSTORE PUSH1 0x20 ADD PUSH1 0x4 DUP3 ADD DUP1 SLOAD PUSH2 0x1D9E SWAP1 PUSH2 0x3A95 JUMP JUMPDEST DUP1 PUSH1 0x1F ADD PUSH1 0x20 DUP1 SWAP2 DIV MUL PUSH1 0x20 ADD PUSH1 0x40 MLOAD SWAP1 DUP2 ADD PUSH1 0x40 MSTORE DUP1 SWAP3 SWAP2 SWAP1 DUP2 DUP2 MSTORE PUSH1 0x20 ADD DUP3 DUP1 SLOAD PUSH2 0x1DCA SWAP1 PUSH2 0x3A95 JUMP JUMPDEST DUP1 ISZERO PUSH2 0x1E17 JUMPI DUP1 PUSH1 0x1F LT PUSH2 0x1DEC JUMPI PUSH2 0x100 DUP1 DUP4 SLOAD DIV MUL DUP4 MSTORE SWAP2 PUSH1 0x20 ADD SWAP2 PUSH2 0x1E17 JUMP JUMPDEST DUP3 ADD SWAP2 SWAP1 PUSH1 0x0 MSTORE PUSH1 0x20 PUSH1 0x0 KECCAK256 SWAP1 JUMPDEST DUP2 SLOAD DUP2 MSTORE SWAP1 PUSH1 0x1 ADD SWAP1 PUSH1 0x20 ADD DUP1 DUP4 GT PUSH2 0x1DFA JUMPI DUP3 SWAP1 SUB PUSH1 0x1F AND DUP3 ADD SWAP2 JUMPDEST POP POP POP POP POP DUP2 MSTORE PUSH1 0x20 ADD PUSH1 0x5 DUP3 ADD DUP1 SLOAD PUSH2 0x1E30 SWAP1 PUSH2 0x3A95 JUMP JUMPDEST DUP1 PUSH1 0x1F ADD PUSH1 0x20 DUP1 SWAP2 DIV MUL PUSH1 0x20 ADD PUSH1 0x40 MLOAD SWAP1 DUP2 ADD PUSH1 0x40 MSTORE DUP1 SWAP3 SWAP2 SWAP1 DUP2 DUP2 MSTORE PUSH1 0x20 ADD DUP3 DUP1 SLOAD PUSH2 0x1E5C SWAP1 PUSH2 0x3A95 JUMP JUMPDEST DUP1 ISZERO PUSH2 0x1EA9 JUMPI DUP1 PUSH1 0x1F LT PUSH2 0x1E7E JUMPI PUSH2 0x100 DUP1 DUP4 SLOAD DIV MUL DUP4 MSTORE SWAP2 PUSH1 0x20 ADD SWAP2 PUSH2 0x1EA9 JUMP JUMPDEST DUP3 ADD SWAP2 SWAP1 PUSH1 0x0 MSTORE PUSH1 0x20 PUSH1 0x0 KECCAK256 SWAP1 JUMPDEST DUP2 SLOAD DUP2 MSTORE SWAP1 PUSH1 0x1 ADD SWAP1 PUSH1 0x20 ADD DUP1 DUP4 GT PUSH2 0x1E8C JUMPI DUP3 SWAP1 SUB PUSH1 0x1F AND DUP3 ADD SWAP2 JUMPDEST POP POP POP POP POP DUP2 MSTORE PUSH1 0x20 ADD PUSH1 0x6 DUP3 ADD DUP1 SLOAD PUSH2 0x1EC2 SWAP1 PUSH2 0x3A95 JUMP JUMPDEST DUP1 PUSH1 0x1F ADD PUSH1 0x20 DUP1 SWAP2 DIV MUL PUSH1 0x20 ADD PUSH1 0x40 MLOAD SWAP1 DUP2 ADD PUSH1 0x40 MSTORE DUP1 SWAP3 SWAP2 SWAP1 DUP2 DUP2 MSTORE PUSH1 0x20 ADD DUP3 DUP1 SLOAD PUSH2 0x1EEE SWAP1 PUSH2 0x3A95 JUMP JUMPDEST DUP1 ISZERO PUSH2 0x1F3B JUMPI DUP1 PUSH1 0x1F LT PUSH2 0x1F10 JUMPI PUSH2 0x100 DUP1 DUP4 SLOAD DIV MUL DUP4 MSTORE SWAP2 PUSH1 0x20 ADD SWAP2 PUSH2 0x1F3B JUMP JUMPDEST DUP3 ADD SWAP2 SWAP1 PUSH1 0x0 MSTORE PUSH1 0x20 PUSH1 0x0 KECCAK256 SWAP1 JUMPDEST DUP2 SLOAD DUP2 MSTORE SWAP1 PUSH1 0x1 ADD SWAP1 PUSH1 0x20 ADD DUP1 DUP4 GT PUSH2 0x1F1E JUMPI DUP3 SWAP1 SUB PUSH1 0x1F AND DUP3 ADD SWAP2 JUMPDEST POP POP POP POP POP DUP2 MSTORE PUSH1 0x20 ADD PUSH1 0x7 DUP3 ADD DUP1 SLOAD PUSH2 0x1F54 SWAP1 PUSH2 0x3A95 JUMP JUMPDEST DUP1 PUSH1 0x1F ADD PUSH1 0x20 DUP1 SWAP2 DIV MUL PUSH1 0x20 ADD PUSH1 0x40 MLOAD SWAP1 DUP2 ADD PUSH1 0x40 MSTORE DUP1 SWAP3 SWAP2 SWAP1 DUP2 DUP2 MSTORE PUSH1 0x20 ADD DUP3 DUP1 SLOAD PUSH2 0x1F80 SWAP1 PUSH2 0x3A95 JUMP JUMPDEST DUP1 ISZERO PUSH2 0x1FCD JUMPI DUP1 PUSH1 0x1F LT PUSH2 0x1FA2 JUMPI PUSH2 0x100 DUP1 DUP4 SLOAD DIV MUL DUP4 MSTORE SWAP2 PUSH1 0x20 ADD SWAP2 PUSH2 0x1FCD JUMP JUMPDEST DUP3 ADD SWAP2 SWAP1 PUSH1 0x0 MSTORE PUSH1 0x20 PUSH1 0x0 KECCAK256 SWAP1 JUMPDEST DUP2 SLOAD DUP2 MSTORE SWAP1 PUSH1 0x1 ADD SWAP1 PUSH1 0x20 ADD DUP1 DUP4 GT PUSH2 0x1FB0 JUMPI DUP3 SWAP1 SUB PUSH1 0x1F AND DUP3 ADD SWAP2 JUMPDEST POP POP POP POP POP DUP2 MSTORE PUSH1 0x20 ADD PUSH1 0x8 DUP3 ADD DUP1 SLOAD PUSH2 0x1FE6 SWAP1 PUSH2 0x3A95 JUMP JUMPDEST DUP1 PUSH1 0x1F ADD PUSH1 0x20 DUP1 SWAP2 DIV MUL PUSH1 0x20 ADD PUSH1 0x40 MLOAD SWAP1 DUP2 ADD PUSH1 0x40 MSTORE DUP1 SWAP3 SWAP2 SWAP1 DUP2 DUP2 MSTORE PUSH1 0x20 ADD DUP3 DUP1 SLOAD PUSH2 0x2012 SWAP1 PUSH2 0x3A95 JUMP JUMPDEST DUP1 ISZERO PUSH2 0x205F JUMPI DUP1 PUSH1 0x1F LT PUSH2 0x2034 JUMPI PUSH2 0x100 DUP1 DUP4 SLOAD DIV MUL DUP4 MSTORE SWAP2 PUSH1 0x20 ADD SWAP2 PUSH2 0x205F JUMP JUMPDEST DUP3 ADD SWAP2 SWAP1 PUSH1 0x0 MSTORE PUSH1 0x20 PUSH1 0x0 KECCAK256 SWAP1 JUMPDEST DUP2 SLOAD DUP2 MSTORE SWAP1 PUSH1 0x1 ADD SWAP1 PUSH1 0x20 ADD DUP1 DUP4 GT PUSH2 0x2042 JUMPI DUP3 SWAP1 SUB PUSH1 0x1F AND DUP3 ADD SWAP2 JUMPDEST POP POP POP POP POP DUP2 MSTORE PUSH1 0x20 ADD PUSH1 0x9 DUP3 ADD DUP1 SLOAD PUSH2 0x2078 SWAP1 PUSH2 0x3A95 JUMP JUMPDEST DUP1 PUSH1 0x1F ADD PUSH1 0x20 DUP1 SWAP2 DIV MUL PUSH1 0x20 ADD PUSH1 0x40 MLOAD SWAP1 DUP2 ADD PUSH1 0x40 MSTORE DUP1 SWAP3 SWAP2 SWAP1 DUP2 DUP2 MSTORE PUSH1 0x20 ADD DUP3 DUP1 SLOAD PUSH2 0x20A4 SWAP1 PUSH2 0x3A95 JUMP JUMPDEST DUP1 ISZERO PUSH2 0x20F1 JUMPI DUP1 PUSH1 0x1F LT PUSH2 0x20C6 JUMPI PUSH2 0x100 DUP1 DUP4 SLOAD DIV MUL DUP4 MSTORE SWAP2 PUSH1 0x20 ADD SWAP2 PUSH2 0x20F1 JUMP JUMPDEST DUP3 ADD SWAP2 SWAP1 PUSH1 0x0 MSTORE PUSH1 0x20 PUSH1 0x0 KECCAK256 SWAP1 JUMPDEST DUP2 SLOAD DUP2 MSTORE SWAP1 PUSH1 0x1 ADD SWAP1 PUSH1 0x20 ADD DUP1 DUP4 GT PUSH2 0x20D4 JUMPI DUP3 SWAP1 SUB PUSH1 0x1F AND DUP3 ADD SWAP2 JUMPDEST POP POP POP POP POP DUP2 MSTORE PUSH1 0x20 ADD PUSH1 0xA DUP3 ADD DUP1 SLOAD PUSH2 0x210A SWAP1 PUSH2 0x3A95 JUMP JUMPDEST DUP1 PUSH1 0x1F ADD PUSH1 0x20 DUP1 SWAP2 DIV MUL PUSH1 0x20 ADD PUSH1 0x40 MLOAD SWAP1 DUP2 ADD PUSH1 0x40 MSTORE DUP1 SWAP3 SWAP2 SWAP1 DUP2 DUP2 MSTORE PUSH1 0x20 ADD DUP3 DUP1 SLOAD PUSH2 0x2136 SWAP1 PUSH2 0x3A95 JUMP JUMPDEST DUP1 ISZERO PUSH2 0x2183 JUMPI DUP1 PUSH1 0x1F LT PUSH2 0x2158 JUMPI PUSH2 0x100 DUP1 DUP4 SLOAD DIV MUL DUP4 MSTORE SWAP2 PUSH1 0x20 ADD SWAP2 PUSH2 0x2183 JUMP JUMPDEST DUP3 ADD SWAP2 SWAP1 PUSH1 0x0 MSTORE PUSH1 0x20 PUSH1 0x0 KECCAK256 SWAP1 JUMPDEST DUP2 SLOAD DUP2 MSTORE SWAP1 PUSH1 0x1 ADD SWAP1 PUSH1 0x20 ADD DUP1 DUP4 GT PUSH2 0x2166 JUMPI DUP3 SWAP1 SUB PUSH1 0x1F AND DUP3 ADD SWAP2 JUMPDEST POP POP POP POP POP DUP2 MSTORE PUSH1 0x20 ADD PUSH1 0xB DUP3 ADD DUP1 SLOAD PUSH2 0x219C SWAP1 PUSH2 0x3A95 JUMP JUMPDEST DUP1 PUSH1 0x1F ADD PUSH1 0x20 DUP1 SWAP2 DIV MUL PUSH1 0x20 ADD PUSH1 0x40 MLOAD SWAP1 DUP2 ADD PUSH1 0x40 MSTORE DUP1 SWAP3 SWAP2 SWAP1 DUP2 DUP2 MSTORE PUSH1 0x20 ADD DUP3 DUP1 SLOAD PUSH2 0x21C8 SWAP1 PUSH2 0x3A95 JUMP JUMPDEST DUP1 ISZERO PUSH2 0x2215 JUMPI DUP1 PUSH1 0x1F LT PUSH2 0x21EA JUMPI PUSH2 0x100 DUP1 DUP4 SLOAD DIV MUL DUP4 MSTORE SWAP2 PUSH1 0x20 ADD SWAP2 PUSH2 0x2215 JUMP JUMPDEST DUP3 ADD SWAP2 SWAP1 PUSH1 0x0 MSTORE PUSH1 0x20 PUSH1 0x0 KECCAK256 SWAP1 JUMPDEST DUP2 SLOAD DUP2 MSTORE SWAP1 PUSH1 0x1 ADD SWAP1 PUSH1 0x20 ADD DUP1 DUP4 GT PUSH2 0x21F8 JUMPI DUP3 SWAP1 SUB PUSH1 0x1F AND DUP3 ADD SWAP2 JUMPDEST POP POP POP POP POP DUP2 MSTORE PUSH1 0x20 ADD PUSH1 0xC DUP3 ADD DUP1 SLOAD DUP1 PUSH1 0x20 MUL PUSH1 0x20 ADD PUSH1 0x40 MLOAD SWAP1 DUP2 ADD PUSH1 0x40 MSTORE DUP1 SWAP3 SWAP2 SWAP1 DUP2 DUP2 MSTORE PUSH1 0x20 ADD DUP3 DUP1 SLOAD DUP1 ISZERO PUSH2 0x226D JUMPI PUSH1 0x20 MUL DUP3 ADD SWAP2 SWAP1 PUSH1 0x0 MSTORE PUSH1 0x20 PUSH1 0x0 KECCAK256 SWAP1 JUMPDEST DUP2 SLOAD DUP2 MSTORE PUSH1 0x20 ADD SWAP1 PUSH1 0x1 ADD SWAP1 DUP1 DUP4 GT PUSH2 0x2259 JUMPI JUMPDEST POP POP POP POP POP DUP2 MSTORE POP POP SWAP1 POP DUP1 PUSH1 0xC0 ADD MLOAD MLOAD PUSH1 0x0 EQ ISZERO DUP1 ISZERO PUSH2 0x2292 JUMPI POP PUSH1 0xE0 DUP2 ADD MLOAD MLOAD ISZERO ISZERO JUMPDEST DUP1 ISZERO PUSH2 0x229F JUMPI POP DUP1 MLOAD MLOAD ISZERO ISZERO JUMPDEST DUP1 ISZERO PUSH2 0x22AF JUMPI POP PUSH1 0x20 DUP2 ADD MLOAD MLOAD ISZERO ISZERO JUMPDEST DUP1 ISZERO PUSH2 0x22BF JUMPI POP PUSH1 0x40 DUP2 ADD MLOAD MLOAD ISZERO ISZERO JUMPDEST DUP1 ISZERO PUSH2 0x22CF JUMPI POP PUSH1 0x60 DUP2 ADD MLOAD MLOAD ISZERO ISZERO JUMPDEST DUP1 ISZERO PUSH2 0x22DF JUMPI POP PUSH1 0x80 DUP2 ADD MLOAD MLOAD ISZERO ISZERO JUMPDEST DUP1 ISZERO PUSH2 0x22EF JUMPI POP PUSH1 0xA0 DUP2 ADD MLOAD MLOAD ISZERO ISZERO JUMPDEST DUP1 ISZERO PUSH2 0x2300 JUMPI POP PUSH2 0x100 DUP2 ADD MLOAD MLOAD ISZERO ISZERO JUMPDEST ISZERO PUSH2 0x230F JUMPI PUSH1 0x1 SWAP4 POP POP POP POP SWAP1 JUMP JUMPDEST POP DUP1 PUSH2 0x231A DUP2 PUSH2 0x3AD0 JUMP JUMPDEST SWAP2 POP POP PUSH2 0x1B0F JUMP JUMPDEST POP PUSH1 0x0 SWAP2 POP POP SWAP1 JUMP JUMPDEST PUSH2 0x2333 PUSH2 0x23D9 JUMP JUMPDEST PUSH2 0x233C DUP2 PUSH2 0x2A7F JUMP JUMPDEST POP JUMP JUMPDEST PUSH2 0x2347 PUSH2 0x23D9 JUMP JUMPDEST PUSH1 0x0 DUP1 SLOAD PUSH1 0x1 PUSH1 0x1 PUSH1 0xA0 SHL SUB NOT AND PUSH1 0x1 PUSH1 0x1 PUSH1 0xA0 SHL SUB DUP4 AND OR SWAP1 SSTORE POP JUMP JUMPDEST PUSH1 0x8 DUP1 SLOAD PUSH2 0x1772 SWAP1 PUSH2 0x3A95 JUMP JUMPDEST DUP2 MLOAD PUSH2 0x2385 SWAP1 PUSH1 0x7 SWAP1 PUSH1 0x20 DUP6 ADD SWAP1 PUSH2 0x2F9D JUMP JUMPDEST POP DUP1 MLOAD PUSH2 0x2399 SWAP1 PUSH1 0x8 SWAP1 PUSH1 0x20 DUP5 ADD SWAP1 PUSH2 0x2F9D JUMP JUMPDEST POP DUP3 PUSH32 0x7BAB0EC163B5C132C72B8146AC4D6E067E82ED58F8B131150AA71C9258911562 DUP4 DUP4 PUSH1 0x40 MLOAD PUSH2 0x23CC SWAP3 SWAP2 SWAP1 PUSH2 0x3696 JUMP JUMPDEST PUSH1 0x40 MLOAD DUP1 SWAP2 SUB SWAP1 LOG2 POP POP POP JUMP JUMPDEST PUSH1 0x2 SLOAD PUSH1 0x1 PUSH1 0x1 PUSH1 0xA0 SHL SUB AND CALLER EQ PUSH2 0x2433 JUMPI PUSH1 0x40 MLOAD PUSH3 0x461BCD PUSH1 0xE5 SHL DUP2 MSTORE PUSH1 0x20 PUSH1 0x4 DUP3 ADD MSTORE PUSH1 0x16 PUSH1 0x24 DUP3 ADD MSTORE PUSH32 0x4F6E6C792063616C6C61626C65206279206F776E657200000000000000000000 PUSH1 0x44 DUP3 ADD MSTORE PUSH1 0x64 ADD PUSH2 0xC48 JUMP JUMPDEST JUMP JUMPDEST PUSH1 0x0 DUP2 DUP2 MSTORE PUSH1 0x1 PUSH1 0x20 MSTORE PUSH1 0x40 SWAP1 KECCAK256 SLOAD DUP2 SWAP1 PUSH1 0x1 PUSH1 0x1 PUSH1 0xA0 SHL SUB AND ISZERO PUSH2 0x2486 JUMPI PUSH1 0x40 MLOAD PUSH32 0x8B457AD200000000000000000000000000000000000000000000000000000000 DUP2 MSTORE PUSH1 0x4 ADD PUSH1 0x40 MLOAD DUP1 SWAP2 SUB SWAP1 REVERT JUMPDEST POP PUSH1 0x0 SWAP1 DUP2 MSTORE PUSH1 0x1 PUSH1 0x20 MSTORE PUSH1 0x40 SWAP1 KECCAK256 DUP1 SLOAD PUSH1 0x1 PUSH1 0x1 PUSH1 0xA0 SHL SUB NOT AND PUSH1 0x1 PUSH1 0x1 PUSH1 0xA0 SHL SUB SWAP3 SWAP1 SWAP3 AND SWAP2 SWAP1 SWAP2 OR SWAP1 SSTORE JUMP JUMPDEST PUSH2 0x233C DUP2 PUSH1 0x40 MLOAD PUSH1 0x24 ADD PUSH2 0x24C9 SWAP2 SWAP1 PUSH2 0x3683 JUMP JUMPDEST PUSH1 0x40 DUP1 MLOAD PUSH1 0x1F NOT DUP2 DUP5 SUB ADD DUP2 MSTORE SWAP2 SWAP1 MSTORE PUSH1 0x20 DUP2 ADD DUP1 MLOAD PUSH28 0xFFFFFFFFFFFFFFFFFFFFFFFFFFFFFFFFFFFFFFFFFFFFFFFFFFFFFFFF AND PUSH32 0x41304FAC00000000000000000000000000000000000000000000000000000000 OR SWAP1 MSTORE PUSH2 0x2B2A JUMP JUMPDEST DUP1 MLOAD PUSH2 0x255E JUMPI PUSH1 0x40 MLOAD PUSH32 0x22CE3EDD00000000000000000000000000000000000000000000000000000000 DUP2 MSTORE PUSH1 0x4 ADD PUSH1 0x40 MLOAD DUP1 SWAP2 SUB SWAP1 REVERT JUMPDEST DUP4 DUP4 PUSH1 0x1 DUP2 GT ISZERO PUSH2 0x2571 JUMPI PUSH2 0x2571 PUSH2 0x3B23 JUMP JUMPDEST SWAP1 DUP2 PUSH1 0x1 DUP2 GT ISZERO PUSH2 0x2584 JUMPI PUSH2 0x2584 PUSH2 0x3B23 JUMP JUMPDEST SWAP1 MSTORE POP PUSH1 0x40 DUP5 ADD DUP3 DUP1 ISZERO PUSH2 0x259A JUMPI PUSH2 0x259A PUSH2 0x3B23 JUMP JUMPDEST SWAP1 DUP2 DUP1 ISZERO PUSH2 0x25AA JUMPI PUSH2 0x25AA PUSH2 0x3B23 JUMP JUMPDEST SWAP1 MSTORE POP PUSH1 0x60 SWAP1 SWAP4 ADD SWAP3 SWAP1 SWAP3 MSTORE POP POP JUMP JUMPDEST DUP1 MLOAD PUSH2 0x25F2 JUMPI PUSH1 0x40 MLOAD PUSH32 0xE889636F00000000000000000000000000000000000000000000000000000000 DUP2 MSTORE PUSH1 0x4 ADD PUSH1 0x40 MLOAD DUP1 SWAP2 SUB SWAP1 REVERT JUMPDEST PUSH1 0x1 PUSH1 0x20 DUP4 ADD MSTORE PUSH1 0x80 SWAP1 SWAP2 ADD MSTORE JUMP JUMPDEST DUP1 MLOAD PUSH2 0x2639 JUMPI PUSH1 0x40 MLOAD PUSH32 0xFE936CB700000000000000000000000000000000000000000000000000000000 DUP2 MSTORE PUSH1 0x4 ADD PUSH1 0x40 MLOAD DUP1 SWAP2 SUB SWAP1 REVERT JUMPDEST PUSH1 0xA0 SWAP1 SWAP2 ADD MSTORE JUMP JUMPDEST PUSH1 0x0 DUP1 SLOAD DUP2 SWAP1 PUSH1 0x1 PUSH1 0x1 PUSH1 0xA0 SHL SUB AND PUSH4 0x28242B04 DUP6 PUSH2 0x265F DUP9 PUSH2 0x27B3 JUMP JUMPDEST DUP7 PUSH1 0x40 MLOAD DUP5 PUSH4 0xFFFFFFFF AND PUSH1 0xE0 SHL DUP2 MSTORE PUSH1 0x4 ADD PUSH2 0x267E SWAP4 SWAP3 SWAP2 SWAP1 PUSH2 0x37C1 JUMP JUMPDEST PUSH1 0x20 PUSH1 0x40 MLOAD DUP1 DUP4 SUB DUP2 PUSH1 0x0 DUP8 DUP1 EXTCODESIZE ISZERO DUP1 ISZERO PUSH2 0x2698 JUMPI PUSH1 0x0 DUP1 REVERT JUMPDEST POP GAS CALL ISZERO DUP1 ISZERO PUSH2 0x26AC JUMPI RETURNDATASIZE PUSH1 0x0 DUP1 RETURNDATACOPY RETURNDATASIZE PUSH1 0x0 REVERT JUMPDEST POP POP POP POP PUSH1 0x40 MLOAD RETURNDATASIZE PUSH1 0x1F NOT PUSH1 0x1F DUP3 ADD AND DUP3 ADD DUP1 PUSH1 0x40 MSTORE POP DUP2 ADD SWAP1 PUSH2 0x26D0 SWAP2 SWAP1 PUSH2 0x3294 JUMP JUMPDEST SWAP1 POP PUSH1 0x0 DUP1 SLOAD SWAP1 PUSH2 0x100 EXP SWAP1 DIV PUSH1 0x1 PUSH1 0x1 PUSH1 0xA0 SHL SUB AND PUSH1 0x1 PUSH1 0x1 PUSH1 0xA0 SHL SUB AND PUSH4 0x5AB1BD53 PUSH1 0x40 MLOAD DUP2 PUSH4 0xFFFFFFFF AND PUSH1 0xE0 SHL DUP2 MSTORE PUSH1 0x4 ADD PUSH1 0x20 PUSH1 0x40 MLOAD DUP1 DUP4 SUB DUP2 DUP7 DUP1 EXTCODESIZE ISZERO DUP1 ISZERO PUSH2 0x271E JUMPI PUSH1 0x0 DUP1 REVERT JUMPDEST POP GAS STATICCALL ISZERO DUP1 ISZERO PUSH2 0x2732 JUMPI RETURNDATASIZE PUSH1 0x0 DUP1 RETURNDATACOPY RETURNDATASIZE PUSH1 0x0 REVERT JUMPDEST POP POP POP POP PUSH1 0x40 MLOAD RETURNDATASIZE PUSH1 0x1F NOT PUSH1 0x1F DUP3 ADD AND DUP3 ADD DUP1 PUSH1 0x40 MSTORE POP DUP2 ADD SWAP1 PUSH2 0x2756 SWAP2 SWAP1 PUSH2 0x324B JUMP JUMPDEST PUSH1 0x0 DUP3 DUP2 MSTORE PUSH1 0x1 PUSH1 0x20 MSTORE PUSH1 0x40 DUP1 DUP3 KECCAK256 DUP1 SLOAD PUSH1 0x1 PUSH1 0x1 PUSH1 0xA0 SHL SUB NOT AND PUSH1 0x1 PUSH1 0x1 PUSH1 0xA0 SHL SUB SWAP5 SWAP1 SWAP5 AND SWAP4 SWAP1 SWAP4 OR SWAP1 SWAP3 SSTORE SWAP1 MLOAD DUP3 SWAP2 PUSH32 0x1131472297A800FEE664D1D89CFA8F7676FF07189ECC53F80BBB5F4969099DB8 SWAP2 LOG2 SWAP5 SWAP4 POP POP POP POP JUMP JUMPDEST PUSH1 0x60 PUSH2 0x27BD PUSH2 0x305B JUMP JUMPDEST DUP1 MLOAD PUSH2 0x27CB SWAP1 PUSH2 0x100 PUSH2 0x2B4B JUMP JUMPDEST POP PUSH2 0x280B DUP2 PUSH1 0x40 MLOAD DUP1 PUSH1 0x40 ADD PUSH1 0x40 MSTORE DUP1 PUSH1 0xC DUP2 MSTORE PUSH1 0x20 ADD PUSH32 0x636F64654C6F636174696F6E0000000000000000000000000000000000000000 DUP2 MSTORE POP PUSH2 0x2BC5 JUMP JUMPDEST PUSH2 0x282A DUP2 DUP5 PUSH1 0x0 ADD MLOAD PUSH1 0x1 DUP2 GT ISZERO PUSH2 0x2825 JUMPI PUSH2 0x2825 PUSH2 0x3B23 JUMP JUMPDEST PUSH2 0x2BE3 JUMP JUMPDEST PUSH2 0x2869 DUP2 PUSH1 0x40 MLOAD DUP1 PUSH1 0x40 ADD PUSH1 0x40 MSTORE DUP1 PUSH1 0x8 DUP2 MSTORE PUSH1 0x20 ADD PUSH32 0x6C616E6775616765000000000000000000000000000000000000000000000000 DUP2 MSTORE POP PUSH2 0x2BC5 JUMP JUMPDEST PUSH2 0x2883 DUP2 DUP5 PUSH1 0x40 ADD MLOAD PUSH1 0x0 DUP2 GT ISZERO PUSH2 0x2825 JUMPI PUSH2 0x2825 PUSH2 0x3B23 JUMP JUMPDEST PUSH2 0x28C2 DUP2 PUSH1 0x40 MLOAD DUP1 PUSH1 0x40 ADD PUSH1 0x40 MSTORE DUP1 PUSH1 0x6 DUP2 MSTORE PUSH1 0x20 ADD PUSH32 0x736F757263650000000000000000000000000000000000000000000000000000 DUP2 MSTORE POP PUSH2 0x2BC5 JUMP JUMPDEST PUSH2 0x28D0 DUP2 DUP5 PUSH1 0x60 ADD MLOAD PUSH2 0x2BC5 JUMP JUMPDEST PUSH1 0xA0 DUP4 ADD MLOAD MLOAD ISZERO PUSH2 0x2976 JUMPI PUSH2 0x291A DUP2 PUSH1 0x40 MLOAD DUP1 PUSH1 0x40 ADD PUSH1 0x40 MSTORE DUP1 PUSH1 0x4 DUP2 MSTORE PUSH1 0x20 ADD PUSH32 0x6172677300000000000000000000000000000000000000000000000000000000 DUP2 MSTORE POP PUSH2 0x2BC5 JUMP JUMPDEST PUSH2 0x2923 DUP2 PUSH2 0x2C1C JUMP JUMPDEST PUSH1 0x0 JUMPDEST DUP4 PUSH1 0xA0 ADD MLOAD MLOAD DUP2 LT ISZERO PUSH2 0x296C JUMPI PUSH2 0x295A DUP3 DUP6 PUSH1 0xA0 ADD MLOAD DUP4 DUP2 MLOAD DUP2 LT PUSH2 0x294D JUMPI PUSH2 0x294D PUSH2 0x3B39 JUMP JUMPDEST PUSH1 0x20 MUL PUSH1 0x20 ADD ADD MLOAD PUSH2 0x2BC5 JUMP JUMPDEST DUP1 PUSH2 0x2964 DUP2 PUSH2 0x3AD0 JUMP JUMPDEST SWAP2 POP POP PUSH2 0x2926 JUMP JUMPDEST POP PUSH2 0x2976 DUP2 PUSH2 0x2C40 JUMP JUMPDEST PUSH1 0x80 DUP4 ADD MLOAD MLOAD ISZERO PUSH2 0x2A77 JUMPI PUSH1 0x0 DUP4 PUSH1 0x20 ADD MLOAD PUSH1 0x1 DUP2 GT ISZERO PUSH2 0x2999 JUMPI PUSH2 0x2999 PUSH2 0x3B23 JUMP JUMPDEST EQ ISZERO PUSH2 0x29D1 JUMPI PUSH1 0x40 MLOAD PUSH32 0xA80D31F700000000000000000000000000000000000000000000000000000000 DUP2 MSTORE PUSH1 0x4 ADD PUSH1 0x40 MLOAD DUP1 SWAP2 SUB SWAP1 REVERT JUMPDEST PUSH2 0x2A10 DUP2 PUSH1 0x40 MLOAD DUP1 PUSH1 0x40 ADD PUSH1 0x40 MSTORE DUP1 PUSH1 0xF DUP2 MSTORE PUSH1 0x20 ADD PUSH32 0x736563726574734C6F636174696F6E0000000000000000000000000000000000 DUP2 MSTORE POP PUSH2 0x2BC5 JUMP JUMPDEST PUSH2 0x2A2A DUP2 DUP5 PUSH1 0x20 ADD MLOAD PUSH1 0x1 DUP2 GT ISZERO PUSH2 0x2825 JUMPI PUSH2 0x2825 PUSH2 0x3B23 JUMP JUMPDEST PUSH2 0x2A69 DUP2 PUSH1 0x40 MLOAD DUP1 PUSH1 0x40 ADD PUSH1 0x40 MSTORE DUP1 PUSH1 0x7 DUP2 MSTORE PUSH1 0x20 ADD PUSH32 0x7365637265747300000000000000000000000000000000000000000000000000 DUP2 MSTORE POP PUSH2 0x2BC5 JUMP JUMPDEST PUSH2 0x2A77 DUP2 DUP5 PUSH1 0x80 ADD MLOAD PUSH2 0x2C5E JUMP JUMPDEST MLOAD MLOAD SWAP3 SWAP2 POP POP JUMP JUMPDEST PUSH1 0x1 PUSH1 0x1 PUSH1 0xA0 SHL SUB DUP2 AND CALLER EQ ISZERO PUSH2 0x2AD8 JUMPI PUSH1 0x40 MLOAD PUSH3 0x461BCD PUSH1 0xE5 SHL DUP2 MSTORE PUSH1 0x20 PUSH1 0x4 DUP3 ADD MSTORE PUSH1 0x17 PUSH1 0x24 DUP3 ADD MSTORE PUSH32 0x43616E6E6F74207472616E7366657220746F2073656C66000000000000000000 PUSH1 0x44 DUP3 ADD MSTORE PUSH1 0x64 ADD PUSH2 0xC48 JUMP JUMPDEST PUSH1 0x3 DUP1 SLOAD PUSH1 0x1 PUSH1 0x1 PUSH1 0xA0 SHL SUB NOT AND PUSH1 0x1 PUSH1 0x1 PUSH1 0xA0 SHL SUB DUP4 DUP2 AND SWAP2 DUP3 OR SWAP1 SWAP3 SSTORE PUSH1 0x2 SLOAD PUSH1 0x40 MLOAD SWAP2 SWAP3 AND SWAP1 PUSH32 0xED8889F560326EB138920D842192F0EB3DD22B4F139C87A2C57538E05BAE1278 SWAP1 PUSH1 0x0 SWAP1 LOG3 POP JUMP JUMPDEST DUP1 MLOAD PUSH11 0x636F6E736F6C652E6C6F67 PUSH1 0x20 DUP4 ADD PUSH1 0x0 DUP1 DUP5 DUP4 DUP6 GAS STATICCALL POP POP POP POP POP JUMP JUMPDEST PUSH1 0x40 DUP1 MLOAD DUP1 DUP3 ADD SWAP1 SWAP2 MSTORE PUSH1 0x60 DUP2 MSTORE PUSH1 0x0 PUSH1 0x20 DUP3 ADD MSTORE PUSH2 0x2B6B PUSH1 0x20 DUP4 PUSH2 0x3AEB JUMP JUMPDEST ISZERO PUSH2 0x2B93 JUMPI PUSH2 0x2B7B PUSH1 0x20 DUP4 PUSH2 0x3AEB JUMP JUMPDEST PUSH2 0x2B86 SWAP1 PUSH1 0x20 PUSH2 0x3A45 JUMP JUMPDEST PUSH2 0x2B90 SWAP1 DUP4 PUSH2 0x3923 JUMP JUMPDEST SWAP2 POP JUMPDEST PUSH1 0x20 DUP1 DUP5 ADD DUP4 SWAP1 MSTORE PUSH1 0x40 MLOAD DUP1 DUP6 MSTORE PUSH1 0x0 DUP2 MSTORE SWAP1 DUP2 DUP5 ADD ADD DUP2 DUP2 LT ISZERO PUSH2 0x2BB7 JUMPI PUSH1 0x0 DUP1 REVERT JUMPDEST PUSH1 0x40 MSTORE POP DUP3 SWAP1 POP JUMPDEST SWAP3 SWAP2 POP POP JUMP JUMPDEST PUSH2 0x2BD2 DUP3 PUSH1 0x3 DUP4 MLOAD PUSH2 0x2C67 JUMP JUMPDEST DUP2 MLOAD PUSH2 0x2BDE SWAP1 DUP3 PUSH2 0x2D88 JUMP JUMPDEST POP POP POP JUMP JUMPDEST DUP2 MLOAD PUSH2 0x2BF0 SWAP1 PUSH1 0xC2 PUSH2 0x2DB0 JUMP JUMPDEST POP PUSH2 0xBC8 DUP3 DUP3 PUSH1 0x40 MLOAD PUSH1 0x20 ADD PUSH2 0x2C08 SWAP2 DUP2 MSTORE PUSH1 0x20 ADD SWAP1 JUMP JUMPDEST PUSH1 0x40 MLOAD PUSH1 0x20 DUP2 DUP4 SUB SUB DUP2 MSTORE SWAP1 PUSH1 0x40 MSTORE PUSH2 0x2C5E JUMP JUMPDEST PUSH2 0x2C27 DUP2 PUSH1 0x4 PUSH2 0x2E19 JUMP JUMPDEST PUSH1 0x1 DUP2 PUSH1 0x20 ADD DUP2 DUP2 MLOAD PUSH2 0x2C3A SWAP2 SWAP1 PUSH2 0x3923 JUMP JUMPDEST SWAP1 MSTORE POP POP JUMP JUMPDEST PUSH2 0x2C4B DUP2 PUSH1 0x7 PUSH2 0x2E19 JUMP JUMPDEST PUSH1 0x1 DUP2 PUSH1 0x20 ADD DUP2 DUP2 MLOAD PUSH2 0x2C3A SWAP2 SWAP1 PUSH2 0x3A45 JUMP JUMPDEST PUSH2 0x2BD2 DUP3 PUSH1 0x2 DUP4 MLOAD JUMPDEST PUSH1 0x17 DUP2 PUSH8 0xFFFFFFFFFFFFFFFF AND GT PUSH2 0x2C8E JUMPI DUP3 MLOAD PUSH2 0x4D3 SWAP1 PUSH1 0xE0 PUSH1 0x5 DUP6 SWAP1 SHL AND DUP4 OR PUSH2 0x2DB0 JUMP JUMPDEST PUSH1 0xFF DUP2 PUSH8 0xFFFFFFFFFFFFFFFF AND GT PUSH2 0x2CD0 JUMPI DUP3 MLOAD PUSH2 0x2CB7 SWAP1 PUSH1 0x18 PUSH2 0x1FE0 PUSH1 0x5 DUP7 SWAP1 SHL AND OR PUSH2 0x2DB0 JUMP JUMPDEST POP DUP3 MLOAD PUSH2 0x4D3 SWAP1 PUSH8 0xFFFFFFFFFFFFFFFF DUP4 AND PUSH1 0x1 PUSH2 0x2E30 JUMP JUMPDEST PUSH2 0xFFFF DUP2 PUSH8 0xFFFFFFFFFFFFFFFF AND GT PUSH2 0x2D13 JUMPI DUP3 MLOAD PUSH2 0x2CFA SWAP1 PUSH1 0x19 PUSH2 0x1FE0 PUSH1 0x5 DUP7 SWAP1 SHL AND OR PUSH2 0x2DB0 JUMP JUMPDEST POP DUP3 MLOAD PUSH2 0x4D3 SWAP1 PUSH8 0xFFFFFFFFFFFFFFFF DUP4 AND PUSH1 0x2 PUSH2 0x2E30 JUMP JUMPDEST PUSH4 0xFFFFFFFF DUP2 PUSH8 0xFFFFFFFFFFFFFFFF AND GT PUSH2 0x2D58 JUMPI DUP3 MLOAD PUSH2 0x2D3F SWAP1 PUSH1 0x1A PUSH2 0x1FE0 PUSH1 0x5 DUP7 SWAP1 SHL AND OR PUSH2 0x2DB0 JUMP JUMPDEST POP DUP3 MLOAD PUSH2 0x4D3 SWAP1 PUSH8 0xFFFFFFFFFFFFFFFF DUP4 AND PUSH1 0x4 PUSH2 0x2E30 JUMP JUMPDEST DUP3 MLOAD PUSH2 0x2D6F SWAP1 PUSH1 0x1B PUSH2 0x1FE0 PUSH1 0x5 DUP7 SWAP1 SHL AND OR PUSH2 0x2DB0 JUMP JUMPDEST POP DUP3 MLOAD PUSH2 0x4D3 SWAP1 PUSH8 0xFFFFFFFFFFFFFFFF DUP4 AND PUSH1 0x8 PUSH2 0x2E30 JUMP JUMPDEST PUSH1 0x40 DUP1 MLOAD DUP1 DUP3 ADD SWAP1 SWAP2 MSTORE PUSH1 0x60 DUP2 MSTORE PUSH1 0x0 PUSH1 0x20 DUP3 ADD MSTORE PUSH2 0x2DA9 DUP4 DUP4 DUP5 MLOAD PUSH2 0x2EB5 JUMP JUMPDEST SWAP4 SWAP3 POP POP POP JUMP JUMPDEST PUSH1 0x40 DUP1 MLOAD DUP1 DUP3 ADD SWAP1 SWAP2 MSTORE PUSH1 0x60 DUP2 MSTORE PUSH1 0x0 PUSH1 0x20 DUP3 ADD MSTORE DUP3 MLOAD MLOAD PUSH1 0x0 PUSH2 0x2DD5 DUP3 PUSH1 0x1 PUSH2 0x3923 JUMP JUMPDEST SWAP1 POP DUP5 PUSH1 0x20 ADD MLOAD DUP3 LT PUSH2 0x2DF6 JUMPI PUSH2 0x2DF6 DUP6 PUSH2 0x2DF1 DUP4 PUSH1 0x2 PUSH2 0x3A26 JUMP JUMPDEST PUSH2 0x2F86 JUMP JUMPDEST DUP5 MLOAD PUSH1 0x20 DUP4 DUP3 ADD ADD DUP6 DUP2 MSTORE8 POP DUP1 MLOAD DUP3 GT ISZERO PUSH2 0x2E0F JUMPI DUP2 DUP2 MSTORE JUMPDEST POP SWAP4 SWAP5 SWAP4 POP POP POP POP JUMP JUMPDEST DUP2 MLOAD PUSH2 0x2BDE SWAP1 PUSH1 0x1F PUSH2 0x1FE0 PUSH1 0x5 DUP6 SWAP1 SHL AND OR PUSH2 0x2DB0 JUMP JUMPDEST PUSH1 0x40 DUP1 MLOAD DUP1 DUP3 ADD SWAP1 SWAP2 MSTORE PUSH1 0x60 DUP2 MSTORE PUSH1 0x0 PUSH1 0x20 DUP3 ADD MSTORE DUP4 MLOAD MLOAD PUSH1 0x0 PUSH2 0x2E54 DUP3 DUP6 PUSH2 0x3923 JUMP JUMPDEST SWAP1 POP DUP6 PUSH1 0x20 ADD MLOAD DUP2 GT ISZERO PUSH2 0x2E71 JUMPI PUSH2 0x2E71 DUP7 PUSH2 0x2DF1 DUP4 PUSH1 0x2 PUSH2 0x3A26 JUMP JUMPDEST PUSH1 0x0 PUSH1 0x1 PUSH2 0x2E81 DUP7 PUSH2 0x100 PUSH2 0x397E JUMP JUMPDEST PUSH2 0x2E8B SWAP2 SWAP1 PUSH2 0x3A45 JUMP JUMPDEST SWAP1 POP DUP7 MLOAD DUP3 DUP2 ADD DUP8 DUP4 NOT DUP3 MLOAD AND OR DUP2 MSTORE POP DUP1 MLOAD DUP4 GT ISZERO PUSH2 0x2EA9 JUMPI DUP3 DUP2 MSTORE JUMPDEST POP SWAP6 SWAP7 SWAP6 POP POP POP POP POP POP JUMP JUMPDEST PUSH1 0x40 DUP1 MLOAD DUP1 DUP3 ADD SWAP1 SWAP2 MSTORE PUSH1 0x60 DUP2 MSTORE PUSH1 0x0 PUSH1 0x20 DUP3 ADD MSTORE DUP3 MLOAD DUP3 GT ISZERO PUSH2 0x2ED8 JUMPI PUSH1 0x0 DUP1 REVERT JUMPDEST DUP4 MLOAD MLOAD PUSH1 0x0 PUSH2 0x2EE7 DUP5 DUP4 PUSH2 0x3923 JUMP JUMPDEST SWAP1 POP DUP6 PUSH1 0x20 ADD MLOAD DUP2 GT ISZERO PUSH2 0x2F04 JUMPI PUSH2 0x2F04 DUP7 PUSH2 0x2DF1 DUP4 PUSH1 0x2 PUSH2 0x3A26 JUMP JUMPDEST DUP6 MLOAD DUP1 MLOAD DUP4 DUP3 ADD PUSH1 0x20 ADD SWAP2 PUSH1 0x0 SWAP2 DUP1 DUP6 GT ISZERO PUSH2 0x2F1E JUMPI DUP5 DUP3 MSTORE JUMPDEST POP POP POP PUSH1 0x20 DUP7 ADD JUMPDEST PUSH1 0x20 DUP7 LT PUSH2 0x2F5E JUMPI DUP1 MLOAD DUP3 MSTORE PUSH2 0x2F3D PUSH1 0x20 DUP4 PUSH2 0x3923 JUMP JUMPDEST SWAP2 POP PUSH2 0x2F4A PUSH1 0x20 DUP3 PUSH2 0x3923 JUMP JUMPDEST SWAP1 POP PUSH2 0x2F57 PUSH1 0x20 DUP8 PUSH2 0x3A45 JUMP JUMPDEST SWAP6 POP PUSH2 0x2F26 JUMP JUMPDEST MLOAD DUP2 MLOAD PUSH1 0x0 NOT PUSH1 0x20 DUP9 SWAP1 SUB PUSH2 0x100 EXP ADD SWAP1 DUP2 AND SWAP1 NOT SWAP2 SWAP1 SWAP2 AND OR SWAP1 MSTORE POP DUP5 SWAP2 POP POP SWAP4 SWAP3 POP POP POP JUMP JUMPDEST DUP2 MLOAD PUSH2 0x2F92 DUP4 DUP4 PUSH2 0x2B4B JUMP JUMPDEST POP PUSH2 0x4D3 DUP4 DUP3 PUSH2 0x2D88 JUMP JUMPDEST DUP3 DUP1 SLOAD PUSH2 0x2FA9 SWAP1 PUSH2 0x3A95 JUMP JUMPDEST SWAP1 PUSH1 0x0 MSTORE PUSH1 0x20 PUSH1 0x0 KECCAK256 SWAP1 PUSH1 0x1F ADD PUSH1 0x20 SWAP1 DIV DUP2 ADD SWAP3 DUP3 PUSH2 0x2FCB JUMPI PUSH1 0x0 DUP6 SSTORE PUSH2 0x3011 JUMP JUMPDEST DUP3 PUSH1 0x1F LT PUSH2 0x2FE4 JUMPI DUP1 MLOAD PUSH1 0xFF NOT AND DUP4 DUP1 ADD OR DUP6 SSTORE PUSH2 0x3011 JUMP JUMPDEST DUP3 DUP1 ADD PUSH1 0x1 ADD DUP6 SSTORE DUP3 ISZERO PUSH2 0x3011 JUMPI SWAP2 DUP3 ADD JUMPDEST DUP3 DUP2 GT ISZERO PUSH2 0x3011 JUMPI DUP3 MLOAD DUP3 SSTORE SWAP2 PUSH1 0x20 ADD SWAP2 SWAP1 PUSH1 0x1 ADD SWAP1 PUSH2 0x2FF6 JUMP JUMPDEST POP PUSH2 0x301D SWAP3 SWAP2 POP PUSH2 0x3090 JUMP JUMPDEST POP SWAP1 JUMP JUMPDEST DUP3 DUP1 SLOAD DUP3 DUP3 SSTORE SWAP1 PUSH1 0x0 MSTORE PUSH1 0x20 PUSH1 0x0 KECCAK256 SWAP1 DUP2 ADD SWAP3 DUP3 ISZERO PUSH2 0x3011 JUMPI SWAP2 PUSH1 0x20 MUL DUP3 ADD DUP3 DUP2 GT ISZERO PUSH2 0x3011 JUMPI DUP3 MLOAD DUP3 SSTORE SWAP2 PUSH1 0x20 ADD SWAP2 SWAP1 PUSH1 0x1 ADD SWAP1 PUSH2 0x2FF6 JUMP JUMPDEST PUSH1 0x40 MLOAD DUP1 PUSH1 0x40 ADD PUSH1 0x40 MSTORE DUP1 PUSH2 0x3083 PUSH1 0x40 MLOAD DUP1 PUSH1 0x40 ADD PUSH1 0x40 MSTORE DUP1 PUSH1 0x60 DUP2 MSTORE PUSH1 0x20 ADD PUSH1 0x0 DUP2 MSTORE POP SWAP1 JUMP JUMPDEST DUP2 MSTORE PUSH1 0x20 ADD PUSH1 0x0 DUP2 MSTORE POP SWAP1 JUMP JUMPDEST JUMPDEST DUP1 DUP3 GT ISZERO PUSH2 0x301D JUMPI PUSH1 0x0 DUP2 SSTORE PUSH1 0x1 ADD PUSH2 0x3091 JUMP JUMPDEST PUSH1 0x0 PUSH2 0x30B8 PUSH2 0x30B3 DUP5 PUSH2 0x38D7 JUMP JUMPDEST PUSH2 0x38A6 JUMP JUMPDEST SWAP1 POP DUP1 DUP4 DUP3 MSTORE PUSH1 0x20 DUP1 DUP4 ADD SWAP2 POP DUP4 DUP7 DUP7 PUSH1 0x5 SHL DUP7 ADD GT ISZERO PUSH2 0x30D8 JUMPI PUSH1 0x0 DUP1 REVERT JUMPDEST PUSH1 0x0 DUP1 JUMPDEST DUP8 DUP2 LT ISZERO PUSH2 0x3119 JUMPI DUP3 CALLDATALOAD PUSH8 0xFFFFFFFFFFFFFFFF DUP2 GT ISZERO PUSH2 0x30FA JUMPI DUP3 DUP4 REVERT JUMPDEST PUSH2 0x3106 DUP11 DUP3 DUP11 ADD PUSH2 0x318E JUMP JUMPDEST DUP7 MSTORE POP SWAP4 DUP4 ADD SWAP4 SWAP2 DUP4 ADD SWAP2 PUSH1 0x1 ADD PUSH2 0x30DC JUMP JUMPDEST POP POP POP POP POP SWAP4 SWAP3 POP POP POP JUMP JUMPDEST PUSH1 0x0 DUP3 PUSH1 0x1F DUP4 ADD SLT PUSH2 0x3136 JUMPI PUSH1 0x0 DUP1 REVERT JUMPDEST PUSH2 0x2DA9 DUP4 DUP4 CALLDATALOAD PUSH1 0x20 DUP6 ADD PUSH2 0x30A5 JUMP JUMPDEST PUSH1 0x0 DUP1 DUP4 PUSH1 0x1F DUP5 ADD SLT PUSH2 0x3157 JUMPI PUSH1 0x0 DUP1 REVERT JUMPDEST POP DUP2 CALLDATALOAD PUSH8 0xFFFFFFFFFFFFFFFF DUP2 GT ISZERO PUSH2 0x316F JUMPI PUSH1 0x0 DUP1 REVERT JUMPDEST PUSH1 0x20 DUP4 ADD SWAP2 POP DUP4 PUSH1 0x20 DUP3 DUP6 ADD ADD GT ISZERO PUSH2 0x3187 JUMPI PUSH1 0x0 DUP1 REVERT JUMPDEST SWAP3 POP SWAP3 SWAP1 POP JUMP JUMPDEST PUSH1 0x0 DUP3 PUSH1 0x1F DUP4 ADD SLT PUSH2 0x319F JUMPI PUSH1 0x0 DUP1 REVERT JUMPDEST DUP2 CALLDATALOAD PUSH2 0x31AD PUSH2 0x30B3 DUP3 PUSH2 0x38FB JUMP JUMPDEST DUP2 DUP2 MSTORE DUP5 PUSH1 0x20 DUP4 DUP7 ADD ADD GT ISZERO PUSH2 0x31C2 JUMPI PUSH1 0x0 DUP1 REVERT JUMPDEST DUP2 PUSH1 0x20 DUP6 ADD PUSH1 0x20 DUP4 ADD CALLDATACOPY PUSH1 0x0 SWAP2 DUP2 ADD PUSH1 0x20 ADD SWAP2 SWAP1 SWAP2 MSTORE SWAP4 SWAP3 POP POP POP JUMP JUMPDEST DUP1 CALLDATALOAD PUSH1 0x1 DUP2 LT PUSH2 0x31EE JUMPI PUSH1 0x0 DUP1 REVERT JUMPDEST SWAP2 SWAP1 POP JUMP JUMPDEST DUP1 CALLDATALOAD PUSH1 0x2 DUP2 LT PUSH2 0x31EE JUMPI PUSH1 0x0 DUP1 REVERT JUMPDEST DUP1 CALLDATALOAD PUSH4 0xFFFFFFFF DUP2 AND DUP2 EQ PUSH2 0x31EE JUMPI PUSH1 0x0 DUP1 REVERT JUMPDEST DUP1 CALLDATALOAD PUSH8 0xFFFFFFFFFFFFFFFF DUP2 AND DUP2 EQ PUSH2 0x31EE JUMPI PUSH1 0x0 DUP1 REVERT JUMPDEST PUSH1 0x0 PUSH1 0x20 DUP3 DUP5 SUB SLT ISZERO PUSH2 0x3240 JUMPI PUSH1 0x0 DUP1 REVERT JUMPDEST DUP2 CALLDATALOAD PUSH2 0x2DA9 DUP2 PUSH2 0x3B65 JUMP JUMPDEST PUSH1 0x0 PUSH1 0x20 DUP3 DUP5 SUB SLT ISZERO PUSH2 0x325D JUMPI PUSH1 0x0 DUP1 REVERT JUMPDEST DUP2 MLOAD PUSH2 0x2DA9 DUP2 PUSH2 0x3B65 JUMP JUMPDEST PUSH1 0x0 DUP1 PUSH1 0x40 DUP4 DUP6 SUB SLT ISZERO PUSH2 0x327B JUMPI PUSH1 0x0 DUP1 REVERT JUMPDEST DUP3 CALLDATALOAD PUSH2 0x3286 DUP2 PUSH2 0x3B65 JUMP JUMPDEST SWAP5 PUSH1 0x20 SWAP4 SWAP1 SWAP4 ADD CALLDATALOAD SWAP4 POP POP POP JUMP JUMPDEST PUSH1 0x0 PUSH1 0x20 DUP3 DUP5 SUB SLT ISZERO PUSH2 0x32A6 JUMPI PUSH1 0x0 DUP1 REVERT JUMPDEST POP MLOAD SWAP2 SWAP1 POP JUMP JUMPDEST PUSH1 0x0 DUP1 PUSH1 0x0 PUSH1 0x60 DUP5 DUP7 SUB SLT ISZERO PUSH2 0x32C2 JUMPI PUSH1 0x0 DUP1 REVERT JUMPDEST DUP4 CALLDATALOAD SWAP3 POP PUSH1 0x20 DUP5 ADD CALLDATALOAD PUSH8 0xFFFFFFFFFFFFFFFF DUP1 DUP3 GT ISZERO PUSH2 0x32E1 JUMPI PUSH1 0x0 DUP1 REVERT JUMPDEST PUSH2 0x32ED DUP8 DUP4 DUP9 ADD PUSH2 0x318E JUMP JUMPDEST SWAP4 POP PUSH1 0x40 DUP7 ADD CALLDATALOAD SWAP2 POP DUP1 DUP3 GT ISZERO PUSH2 0x3303 JUMPI PUSH1 0x0 DUP1 REVERT JUMPDEST POP PUSH2 0x3310 DUP7 DUP3 DUP8 ADD PUSH2 0x318E JUMP JUMPDEST SWAP2 POP POP SWAP3 POP SWAP3 POP SWAP3 JUMP JUMPDEST PUSH1 0x0 PUSH1 0x20 DUP3 DUP5 SUB SLT ISZERO PUSH2 0x332C JUMPI PUSH1 0x0 DUP1 REVERT JUMPDEST DUP2 MLOAD PUSH8 0xFFFFFFFFFFFFFFFF DUP2 GT ISZERO PUSH2 0x3343 JUMPI PUSH1 0x0 DUP1 REVERT JUMPDEST DUP3 ADD PUSH1 0x1F DUP2 ADD DUP5 SGT PUSH2 0x3354 JUMPI PUSH1 0x0 DUP1 REVERT JUMPDEST DUP1 MLOAD PUSH2 0x3362 PUSH2 0x30B3 DUP3 PUSH2 0x38FB JUMP JUMPDEST DUP2 DUP2 MSTORE DUP6 PUSH1 0x20 DUP4 DUP6 ADD ADD GT ISZERO PUSH2 0x3377 JUMPI PUSH1 0x0 DUP1 REVERT JUMPDEST PUSH2 0x1AA6 DUP3 PUSH1 0x20 DUP4 ADD PUSH1 0x20 DUP7 ADD PUSH2 0x3A69 JUMP JUMPDEST PUSH1 0x0 DUP1 PUSH1 0x0 DUP1 PUSH1 0x0 DUP1 PUSH1 0x0 DUP1 PUSH1 0xA0 DUP10 DUP12 SUB SLT ISZERO PUSH2 0x33A4 JUMPI PUSH1 0x0 DUP1 REVERT JUMPDEST DUP9 CALLDATALOAD PUSH8 0xFFFFFFFFFFFFFFFF DUP1 DUP3 GT ISZERO PUSH2 0x33BC JUMPI PUSH1 0x0 DUP1 REVERT JUMPDEST PUSH2 0x33C8 DUP13 DUP4 DUP14 ADD PUSH2 0x3145 JUMP JUMPDEST SWAP1 SWAP11 POP SWAP9 POP PUSH1 0x20 DUP12 ADD CALLDATALOAD SWAP2 POP DUP1 DUP3 GT ISZERO PUSH2 0x33E1 JUMPI PUSH1 0x0 DUP1 REVERT JUMPDEST PUSH2 0x33ED DUP13 DUP4 DUP14 ADD PUSH2 0x3145 JUMP JUMPDEST SWAP1 SWAP9 POP SWAP7 POP PUSH1 0x40 DUP12 ADD CALLDATALOAD SWAP2 POP DUP1 DUP3 GT ISZERO PUSH2 0x3406 JUMPI PUSH1 0x0 DUP1 REVERT JUMPDEST DUP2 DUP12 ADD SWAP2 POP DUP12 PUSH1 0x1F DUP4 ADD SLT PUSH2 0x341A JUMPI PUSH1 0x0 DUP1 REVERT JUMPDEST DUP2 CALLDATALOAD DUP2 DUP2 GT ISZERO PUSH2 0x3429 JUMPI PUSH1 0x0 DUP1 REVERT JUMPDEST DUP13 PUSH1 0x20 DUP3 PUSH1 0x5 SHL DUP6 ADD ADD GT ISZERO PUSH2 0x343E JUMPI PUSH1 0x0 DUP1 REVERT JUMPDEST PUSH1 0x20 DUP4 ADD SWAP7 POP DUP1 SWAP6 POP POP POP POP PUSH2 0x3456 PUSH1 0x60 DUP11 ADD PUSH2 0x3216 JUMP JUMPDEST SWAP2 POP PUSH2 0x3464 PUSH1 0x80 DUP11 ADD PUSH2 0x3202 JUMP JUMPDEST SWAP1 POP SWAP3 SWAP6 SWAP9 POP SWAP3 SWAP6 SWAP9 SWAP1 SWAP4 SWAP7 POP JUMP JUMPDEST PUSH1 0x0 DUP1 PUSH1 0x0 DUP1 PUSH1 0x80 DUP6 DUP8 SUB SLT ISZERO PUSH2 0x3489 JUMPI PUSH1 0x0 DUP1 REVERT JUMPDEST DUP5 CALLDATALOAD PUSH8 0xFFFFFFFFFFFFFFFF DUP1 DUP3 GT ISZERO PUSH2 0x34A1 JUMPI PUSH1 0x0 DUP1 REVERT JUMPDEST SWAP1 DUP7 ADD SWAP1 PUSH1 0xC0 DUP3 DUP10 SUB SLT ISZERO PUSH2 0x34B5 JUMPI PUSH1 0x0 DUP1 REVERT JUMPDEST PUSH2 0x34BD PUSH2 0x387D JUMP JUMPDEST PUSH2 0x34C6 DUP4 PUSH2 0x31F3 JUMP JUMPDEST DUP2 MSTORE PUSH2 0x34D4 PUSH1 0x20 DUP5 ADD PUSH2 0x31F3 JUMP JUMPDEST PUSH1 0x20 DUP3 ADD MSTORE PUSH2 0x34E5 PUSH1 0x40 DUP5 ADD PUSH2 0x31DF JUMP JUMPDEST PUSH1 0x40 DUP3 ADD MSTORE PUSH1 0x60 DUP4 ADD CALLDATALOAD DUP3 DUP2 GT ISZERO PUSH2 0x34FC JUMPI PUSH1 0x0 DUP1 REVERT JUMPDEST PUSH2 0x3508 DUP11 DUP3 DUP7 ADD PUSH2 0x318E JUMP JUMPDEST PUSH1 0x60 DUP4 ADD MSTORE POP PUSH1 0x80 DUP4 ADD CALLDATALOAD DUP3 DUP2 GT ISZERO PUSH2 0x3520 JUMPI PUSH1 0x0 DUP1 REVERT JUMPDEST PUSH2 0x352C DUP11 DUP3 DUP7 ADD PUSH2 0x318E JUMP JUMPDEST PUSH1 0x80 DUP4 ADD MSTORE POP PUSH1 0xA0 DUP4 ADD CALLDATALOAD DUP3 DUP2 GT ISZERO PUSH2 0x3544 JUMPI PUSH1 0x0 DUP1 REVERT JUMPDEST PUSH2 0x3550 DUP11 DUP3 DUP7 ADD PUSH2 0x3125 JUMP JUMPDEST PUSH1 0xA0 DUP4 ADD MSTORE POP SWAP6 POP PUSH2 0x3567 SWAP2 POP POP PUSH1 0x20 DUP7 ADD PUSH2 0x3216 JUMP JUMPDEST SWAP3 POP PUSH2 0x3575 PUSH1 0x40 DUP7 ADD PUSH2 0x3202 JUMP JUMPDEST SWAP4 SWAP7 SWAP3 SWAP6 POP SWAP3 SWAP4 PUSH1 0x60 ADD CALLDATALOAD SWAP3 POP POP JUMP JUMPDEST PUSH1 0x0 DUP1 PUSH1 0x40 DUP4 DUP6 SUB SLT ISZERO PUSH2 0x3598 JUMPI PUSH1 0x0 DUP1 REVERT JUMPDEST DUP3 CALLDATALOAD SWAP2 POP PUSH1 0x20 DUP1 DUP5 ADD CALLDATALOAD PUSH8 0xFFFFFFFFFFFFFFFF DUP2 GT ISZERO PUSH2 0x35B7 JUMPI PUSH1 0x0 DUP1 REVERT JUMPDEST DUP5 ADD PUSH1 0x1F DUP2 ADD DUP7 SGT PUSH2 0x35C8 JUMPI PUSH1 0x0 DUP1 REVERT JUMPDEST DUP1 CALLDATALOAD PUSH2 0x35D6 PUSH2 0x30B3 DUP3 PUSH2 0x38D7 JUMP JUMPDEST DUP1 DUP3 DUP3 MSTORE DUP5 DUP3 ADD SWAP2 POP DUP5 DUP5 ADD DUP10 DUP7 DUP6 PUSH1 0x5 SHL DUP8 ADD ADD GT ISZERO PUSH2 0x35F6 JUMPI PUSH1 0x0 DUP1 REVERT JUMPDEST PUSH1 0x0 SWAP5 POP JUMPDEST DUP4 DUP6 LT ISZERO PUSH2 0x3619 JUMPI DUP1 CALLDATALOAD DUP4 MSTORE PUSH1 0x1 SWAP5 SWAP1 SWAP5 ADD SWAP4 SWAP2 DUP6 ADD SWAP2 DUP6 ADD PUSH2 0x35FB JUMP JUMPDEST POP DUP1 SWAP6 POP POP POP POP POP POP SWAP3 POP SWAP3 SWAP1 POP JUMP JUMPDEST PUSH1 0x0 PUSH1 0x20 DUP3 DUP5 SUB SLT ISZERO PUSH2 0x363B JUMPI PUSH1 0x0 DUP1 REVERT JUMPDEST DUP2 MLOAD PUSH12 0xFFFFFFFFFFFFFFFFFFFFFFFF DUP2 AND DUP2 EQ PUSH2 0x2DA9 JUMPI PUSH1 0x0 DUP1 REVERT JUMPDEST PUSH1 0x0 DUP2 MLOAD DUP1 DUP5 MSTORE PUSH2 0x366F DUP2 PUSH1 0x20 DUP7 ADD PUSH1 0x20 DUP7 ADD PUSH2 0x3A69 JUMP JUMPDEST PUSH1 0x1F ADD PUSH1 0x1F NOT AND SWAP3 SWAP1 SWAP3 ADD PUSH1 0x20 ADD SWAP3 SWAP2 POP POP JUMP JUMPDEST PUSH1 0x20 DUP2 MSTORE PUSH1 0x0 PUSH2 0x2DA9 PUSH1 0x20 DUP4 ADD DUP5 PUSH2 0x3657 JUMP JUMPDEST PUSH1 0x40 DUP2 MSTORE PUSH1 0x0 PUSH2 0x36A9 PUSH1 0x40 DUP4 ADD DUP6 PUSH2 0x3657 JUMP JUMPDEST DUP3 DUP2 SUB PUSH1 0x20 DUP5 ADD MSTORE PUSH2 0x1AA6 DUP2 DUP6 PUSH2 0x3657 JUMP JUMPDEST PUSH2 0x180 DUP2 MSTORE PUSH1 0x0 PUSH2 0x36D0 PUSH2 0x180 DUP4 ADD DUP16 PUSH2 0x3657 JUMP JUMPDEST DUP3 DUP2 SUB PUSH1 0x20 DUP5 ADD MSTORE PUSH2 0x36E2 DUP2 DUP16 PUSH2 0x3657 JUMP JUMPDEST SWAP1 POP DUP3 DUP2 SUB PUSH1 0x40 DUP5 ADD MSTORE PUSH2 0x36F6 DUP2 DUP15 PUSH2 0x3657 JUMP JUMPDEST SWAP1 POP DUP3 DUP2 SUB PUSH1 0x60 DUP5 ADD MSTORE PUSH2 0x370A DUP2 DUP14 PUSH2 0x3657 JUMP JUMPDEST SWAP1 POP DUP3 DUP2 SUB PUSH1 0x80 DUP5 ADD MSTORE PUSH2 0x371E DUP2 DUP13 PUSH2 0x3657 JUMP JUMPDEST SWAP1 POP DUP3 DUP2 SUB PUSH1 0xA0 DUP5 ADD MSTORE PUSH2 0x3732 DUP2 DUP12 PUSH2 0x3657 JUMP JUMPDEST SWAP1 POP DUP3 DUP2 SUB PUSH1 0xC0 DUP5 ADD MSTORE PUSH2 0x3746 DUP2 DUP11 PUSH2 0x3657 JUMP JUMPDEST SWAP1 POP DUP3 DUP2 SUB PUSH1 0xE0 DUP5 ADD MSTORE PUSH2 0x375A DUP2 DUP10 PUSH2 0x3657 JUMP JUMPDEST SWAP1 POP DUP3 DUP2 SUB PUSH2 0x100 DUP5 ADD MSTORE PUSH2 0x376F DUP2 DUP9 PUSH2 0x3657 JUMP JUMPDEST SWAP1 POP DUP3 DUP2 SUB PUSH2 0x120 DUP5 ADD MSTORE PUSH2 0x3784 DUP2 DUP8 PUSH2 0x3657 JUMP JUMPDEST SWAP1 POP DUP3 DUP2 SUB PUSH2 0x140 DUP5 ADD MSTORE PUSH2 0x3799 DUP2 DUP7 PUSH2 0x3657 JUMP JUMPDEST SWAP1 POP DUP3 DUP2 SUB PUSH2 0x160 DUP5 ADD MSTORE PUSH2 0x37AE DUP2 DUP6 PUSH2 0x3657 JUMP JUMPDEST SWAP16 SWAP15 POP POP POP POP POP POP POP POP POP POP POP POP POP POP POP JUMP JUMPDEST PUSH8 0xFFFFFFFFFFFFFFFF DUP5 AND DUP2 MSTORE PUSH1 0x60 PUSH1 0x20 DUP3 ADD MSTORE PUSH1 0x0 PUSH2 0x37E4 PUSH1 0x60 DUP4 ADD DUP6 PUSH2 0x3657 JUMP JUMPDEST SWAP1 POP PUSH4 0xFFFFFFFF DUP4 AND PUSH1 0x40 DUP4 ADD MSTORE SWAP5 SWAP4 POP POP POP POP JUMP JUMPDEST PUSH8 0xFFFFFFFFFFFFFFFF DUP6 AND DUP2 MSTORE PUSH1 0x80 PUSH1 0x20 DUP3 ADD MSTORE PUSH1 0x0 PUSH2 0x381D PUSH1 0x80 DUP4 ADD DUP7 PUSH2 0x3657 JUMP JUMPDEST PUSH4 0xFFFFFFFF SWAP5 SWAP1 SWAP5 AND PUSH1 0x40 DUP4 ADD MSTORE POP PUSH1 0x60 ADD MSTORE SWAP3 SWAP2 POP POP JUMP JUMPDEST PUSH1 0x0 DUP1 DUP4 CALLDATALOAD PUSH1 0x1E NOT DUP5 CALLDATASIZE SUB ADD DUP2 SLT PUSH2 0x384D JUMPI PUSH1 0x0 DUP1 REVERT JUMPDEST DUP4 ADD DUP1 CALLDATALOAD SWAP2 POP PUSH8 0xFFFFFFFFFFFFFFFF DUP3 GT ISZERO PUSH2 0x3868 JUMPI PUSH1 0x0 DUP1 REVERT JUMPDEST PUSH1 0x20 ADD SWAP2 POP CALLDATASIZE DUP2 SWAP1 SUB DUP3 SGT ISZERO PUSH2 0x3187 JUMPI PUSH1 0x0 DUP1 REVERT JUMPDEST PUSH1 0x40 MLOAD PUSH1 0xC0 DUP2 ADD PUSH8 0xFFFFFFFFFFFFFFFF DUP2 GT DUP3 DUP3 LT OR ISZERO PUSH2 0x38A0 JUMPI PUSH2 0x38A0 PUSH2 0x3B4F JUMP JUMPDEST PUSH1 0x40 MSTORE SWAP1 JUMP JUMPDEST PUSH1 0x40 MLOAD PUSH1 0x1F DUP3 ADD PUSH1 0x1F NOT AND DUP2 ADD PUSH8 0xFFFFFFFFFFFFFFFF DUP2 GT DUP3 DUP3 LT OR ISZERO PUSH2 0x38CF JUMPI PUSH2 0x38CF PUSH2 0x3B4F JUMP JUMPDEST PUSH1 0x40 MSTORE SWAP2 SWAP1 POP JUMP JUMPDEST PUSH1 0x0 PUSH8 0xFFFFFFFFFFFFFFFF DUP3 GT ISZERO PUSH2 0x38F1 JUMPI PUSH2 0x38F1 PUSH2 0x3B4F JUMP JUMPDEST POP PUSH1 0x5 SHL PUSH1 0x20 ADD SWAP1 JUMP JUMPDEST PUSH1 0x0 PUSH8 0xFFFFFFFFFFFFFFFF DUP3 GT ISZERO PUSH2 0x3915 JUMPI PUSH2 0x3915 PUSH2 0x3B4F JUMP JUMPDEST POP PUSH1 0x1F ADD PUSH1 0x1F NOT AND PUSH1 0x20 ADD SWAP1 JUMP JUMPDEST PUSH1 0x0 DUP3 NOT DUP3 GT ISZERO PUSH2 0x3936 JUMPI PUSH2 0x3936 PUSH2 0x3B0D JUMP JUMPDEST POP ADD SWAP1 JUMP JUMPDEST PUSH1 0x1 DUP2 DUP2 JUMPDEST DUP1 DUP6 GT ISZERO PUSH2 0x3976 JUMPI DUP2 PUSH1 0x0 NOT DIV DUP3 GT ISZERO PUSH2 0x395C JUMPI PUSH2 0x395C PUSH2 0x3B0D JUMP JUMPDEST DUP1 DUP6 AND ISZERO PUSH2 0x3969 JUMPI SWAP2 DUP2 MUL SWAP2 JUMPDEST SWAP4 DUP5 SHR SWAP4 SWAP1 DUP1 MUL SWAP1 PUSH2 0x3940 JUMP JUMPDEST POP SWAP3 POP SWAP3 SWAP1 POP JUMP JUMPDEST PUSH1 0x0 PUSH2 0x2DA9 DUP4 DUP4 PUSH1 0x0 DUP3 PUSH2 0x3994 JUMPI POP PUSH1 0x1 PUSH2 0x2BBF JUMP JUMPDEST DUP2 PUSH2 0x39A1 JUMPI POP PUSH1 0x0 PUSH2 0x2BBF JUMP JUMPDEST DUP2 PUSH1 0x1 DUP2 EQ PUSH2 0x39B7 JUMPI PUSH1 0x2 DUP2 EQ PUSH2 0x39C1 JUMPI PUSH2 0x39DD JUMP JUMPDEST PUSH1 0x1 SWAP2 POP POP PUSH2 0x2BBF JUMP JUMPDEST PUSH1 0xFF DUP5 GT ISZERO PUSH2 0x39D2 JUMPI PUSH2 0x39D2 PUSH2 0x3B0D JUMP JUMPDEST POP POP PUSH1 0x1 DUP3 SHL PUSH2 0x2BBF JUMP JUMPDEST POP PUSH1 0x20 DUP4 LT PUSH2 0x133 DUP4 LT AND PUSH1 0x4E DUP5 LT PUSH1 0xB DUP5 LT AND OR ISZERO PUSH2 0x3A00 JUMPI POP DUP2 DUP2 EXP PUSH2 0x2BBF JUMP JUMPDEST PUSH2 0x3A0A DUP4 DUP4 PUSH2 0x393B JUMP JUMPDEST DUP1 PUSH1 0x0 NOT DIV DUP3 GT ISZERO PUSH2 0x3A1E JUMPI PUSH2 0x3A1E PUSH2 0x3B0D JUMP JUMPDEST MUL SWAP4 SWAP3 POP POP POP JUMP JUMPDEST PUSH1 0x0 DUP2 PUSH1 0x0 NOT DIV DUP4 GT DUP3 ISZERO ISZERO AND ISZERO PUSH2 0x3A40 JUMPI PUSH2 0x3A40 PUSH2 0x3B0D JUMP JUMPDEST POP MUL SWAP1 JUMP JUMPDEST PUSH1 0x0 DUP3 DUP3 LT ISZERO PUSH2 0x3A57 JUMPI PUSH2 0x3A57 PUSH2 0x3B0D JUMP JUMPDEST POP SUB SWAP1 JUMP JUMPDEST PUSH1 0x0 PUSH2 0x2DA9 CALLDATASIZE DUP5 DUP5 PUSH2 0x30A5 JUMP JUMPDEST PUSH1 0x0 JUMPDEST DUP4 DUP2 LT ISZERO PUSH2 0x3A84 JUMPI DUP2 DUP2 ADD MLOAD DUP4 DUP3 ADD MSTORE PUSH1 0x20 ADD PUSH2 0x3A6C JUMP JUMPDEST DUP4 DUP2 GT ISZERO PUSH2 0x4D3 JUMPI POP POP PUSH1 0x0 SWAP2 ADD MSTORE JUMP JUMPDEST PUSH1 0x1 DUP2 DUP2 SHR SWAP1 DUP3 AND DUP1 PUSH2 0x3AA9 JUMPI PUSH1 0x7F DUP3 AND SWAP2 POP JUMPDEST PUSH1 0x20 DUP3 LT DUP2 EQ ISZERO PUSH2 0x3ACA JUMPI PUSH4 0x4E487B71 PUSH1 0xE0 SHL PUSH1 0x0 MSTORE PUSH1 0x22 PUSH1 0x4 MSTORE PUSH1 0x24 PUSH1 0x0 REVERT JUMPDEST POP SWAP2 SWAP1 POP JUMP JUMPDEST PUSH1 0x0 PUSH1 0x0 NOT DUP3 EQ ISZERO PUSH2 0x3AE4 JUMPI PUSH2 0x3AE4 PUSH2 0x3B0D JUMP JUMPDEST POP PUSH1 0x1 ADD SWAP1 JUMP JUMPDEST PUSH1 0x0 DUP3 PUSH2 0x3B08 JUMPI PUSH4 0x4E487B71 PUSH1 0xE0 SHL PUSH1 0x0 MSTORE PUSH1 0x12 PUSH1 0x4 MSTORE PUSH1 0x24 PUSH1 0x0 REVERT JUMPDEST POP MOD SWAP1 JUMP JUMPDEST PUSH4 0x4E487B71 PUSH1 0xE0 SHL PUSH1 0x0 MSTORE PUSH1 0x11 PUSH1 0x4 MSTORE PUSH1 0x24 PUSH1 0x0 REVERT JUMPDEST PUSH4 0x4E487B71 PUSH1 0xE0 SHL PUSH1 0x0 MSTORE PUSH1 0x21 PUSH1 0x4 MSTORE PUSH1 0x24 PUSH1 0x0 REVERT JUMPDEST PUSH4 0x4E487B71 PUSH1 0xE0 SHL PUSH1 0x0 MSTORE PUSH1 0x32 PUSH1 0x4 MSTORE PUSH1 0x24 PUSH1 0x0 REVERT JUMPDEST PUSH4 0x4E487B71 PUSH1 0xE0 SHL PUSH1 0x0 MSTORE PUSH1 0x41 PUSH1 0x4 MSTORE PUSH1 0x24 PUSH1 0x0 REVERT JUMPDEST PUSH1 0x1 PUSH1 0x1 PUSH1 0xA0 SHL SUB DUP2 AND DUP2 EQ PUSH2 0x233C JUMPI PUSH1 0x0 DUP1 REVERT INVALID LOG2 PUSH5 0x6970667358 0x22 SLT KECCAK256 GASPRICE 0x2D 0xD8 0xE9 SLOAD EXTCODECOPY PUSH20 0x35387AF86C8E80775719D7252D732A54634E34A8 MLOAD MLOAD PUSH28 0x342764736F6C63430008070033000000000000000000000000000000 "},"methodIdentifiers":{"acceptOwnership()":"79ba5097","addSimulatedRequestId(address,bytes32)":"30bda99d","checkInsuranceData()":"e0919101","currentTime()":"d18e81b3","estimateCost((uint8,uint8,uint8,string,bytes,string[]),uint64,uint32,uint256)":"d4b39175","estimateInsurance(string,bytes,string[],uint64,uint32)":"985454ff","getCurrentTime()":"29cb924d","getDONPublicKey()":"d328a91e","getLatestPrice()":"8e15f473","getRandomWords()":"ce10b1fb","handleOracleFulfillment(bytes32,bytes,bytes)":"0ca76175","helloWorld()":"c605f76c","insuranceDataMapping(address,uint256)":"2142735a","latestError()":"fffeb84e","latestRequestId()":"1aa46f59","latestResponse()":"bef3a2f0","owner()":"8da5cb5b","priceFeed()":"741bef1a","randomFeed()":"126455dd","receiveRandomness(uint256,uint256[])":"37f9c70d","transferOwnership(address)":"f2fde38b","updateOracleAddress(address)":"f7023bb6"}},"storageLayout":{"storage":[{"astId":1656,"contract":"contracts/Insurance.sol:Insurance","label":"s_oracle","offset":0,"slot":"0","type":"t_contract(FunctionsOracleInterface)2090"},{"astId":1660,"contract":"contracts/Insurance.sol:Insurance","label":"s_pendingRequests","offset":0,"slot":"1","type":"t_mapping(t_bytes32,t_address)"},{"astId":27,"contract":"contracts/Insurance.sol:Insurance","label":"s_owner","offset":0,"slot":"2","type":"t_address"},{"astId":29,"contract":"contracts/Insurance.sol:Insurance","label":"s_pendingOwner","offset":0,"slot":"3","type":"t_address"},{"astId":427,"contract":"contracts/Insurance.sol:Insurance","label":"priceFeed","offset":0,"slot":"4","type":"t_contract(PriceConsumerV3)1048"},{"astId":430,"contract":"contracts/Insurance.sol:Insurance","label":"randomFeed","offset":0,"slot":"5","type":"t_contract(VRFv2Consumer)1300"},{"astId":436,"contract":"contracts/Insurance.sol:Insurance","label":"latestRequestId","offset":0,"slot":"6","type":"t_bytes32"},{"astId":438,"contract":"contracts/Insurance.sol:Insurance","label":"latestResponse","offset":0,"slot":"7","type":"t_bytes_storage"},{"astId":440,"contract":"contracts/Insurance.sol:Insurance","label":"latestError","offset":0,"slot":"8","type":"t_bytes_storage"},{"astId":481,"contract":"contracts/Insurance.sol:Insurance","label":"currentTime","offset":0,"slot":"9","type":"t_uint256"},{"astId":538,"contract":"contracts/Insurance.sol:Insurance","label":"insuranceDataMapping","offset":0,"slot":"10","type":"t_mapping(t_address,t_array(t_struct(InsuranceData)509_storage)dyn_storage)"}],"types":{"t_address":{"encoding":"inplace","label":"address","numberOfBytes":"20"},"t_array(t_struct(InsuranceData)509_storage)dyn_storage":{"base":"t_struct(InsuranceData)509_storage","encoding":"dynamic_array","label":"struct Insurance.InsuranceData[]","numberOfBytes":"32"},"t_array(t_uint256)dyn_storage":{"base":"t_uint256","encoding":"dynamic_array","label":"uint256[]","numberOfBytes":"32"},"t_bytes32":{"encoding":"inplace","label":"bytes32","numberOfBytes":"32"},"t_bytes_storage":{"encoding":"bytes","label":"bytes","numberOfBytes":"32"},"t_contract(FunctionsOracleInterface)2090":{"encoding":"inplace","label":"contract FunctionsOracleInterface","numberOfBytes":"20"},"t_contract(PriceConsumerV3)1048":{"encoding":"inplace","label":"contract PriceConsumerV3","numberOfBytes":"20"},"t_contract(VRFv2Consumer)1300":{"encoding":"inplace","label":"contract VRFv2Consumer","numberOfBytes":"20"},"t_mapping(t_address,t_array(t_struct(InsuranceData)509_storage)dyn_storage)":{"encoding":"mapping","key":"t_address","label":"mapping(address => struct Insurance.InsuranceData[])","numberOfBytes":"32","value":"t_array(t_struct(InsuranceData)509_storage)dyn_storage"},"t_mapping(t_bytes32,t_address)":{"encoding":"mapping","key":"t_bytes32","label":"mapping(bytes32 => address)","numberOfBytes":"32","value":"t_address"},"t_string_storage":{"encoding":"bytes","label":"string","numberOfBytes":"32"},"t_struct(InsuranceData)509_storage":{"encoding":"inplace","label":"struct Insurance.InsuranceData","members":[{"astId":483,"contract":"contracts/Insurance.sol:Insurance","label":"latNe","offset":0,"slot":"0","type":"t_string_storage"},{"astId":485,"contract":"contracts/Insurance.sol:Insurance","label":"longNe","offset":0,"slot":"1","type":"t_string_storage"},{"astId":487,"contract":"contracts/Insurance.sol:Insurance","label":"latSe","offset":0,"slot":"2","type":"t_string_storage"},{"astId":489,"contract":"contracts/Insurance.sol:Insurance","label":"longSe","offset":0,"slot":"3","type":"t_string_storage"},{"astId":491,"contract":"contracts/Insurance.sol:Insurance","label":"latSw","offset":0,"slot":"4","type":"t_string_storage"},{"astId":493,"contract":"contracts/Insurance.sol:Insurance","label":"longSw","offset":0,"slot":"5","type":"t_string_storage"},{"astId":495,"contract":"contracts/Insurance.sol:Insurance","label":"latNw","offset":0,"slot":"6","type":"t_string_storage"},{"astId":497,"contract":"contracts/Insurance.sol:Insurance","label":"longNw","offset":0,"slot":"7","type":"t_string_storage"},{"astId":499,"contract":"contracts/Insurance.sol:Insurance","label":"configParam","offset":0,"slot":"8","type":"t_string_storage"},{"astId":501,"contract":"contracts/Insurance.sol:Insurance","label":"currentDay","offset":0,"slot":"9","type":"t_string_storage"},{"astId":503,"contract":"contracts/Insurance.sol:Insurance","label":"startDay","offset":0,"slot":"10","type":"t_string_storage"},{"astId":505,"contract":"contracts/Insurance.sol:Insurance","label":"endDay","offset":0,"slot":"11","type":"t_string_storage"},{"astId":508,"contract":"contracts/Insurance.sol:Insurance","label":"randomPoints","offset":0,"slot":"12","type":"t_array(t_uint256)dyn_storage"}],"numberOfBytes":"416"},"t_uint256":{"encoding":"inplace","label":"uint256","numberOfBytes":"32"}}}}}}