{"contracts/VRFv2Consumer.sol":{"VRFv2Consumer":{"abi":[{"inputs":[{"internalType":"uint64","name":"subscriptionId","type":"uint64"}],"stateMutability":"nonpayable","type":"constructor"},{"inputs":[{"internalType":"address","name":"have","type":"address"},{"internalType":"address","name":"want","type":"address"}],"name":"OnlyCoordinatorCanFulfill","type":"error"},{"anonymous":false,"inputs":[{"indexed":true,"internalType":"address","name":"from","type":"address"},{"indexed":true,"internalType":"address","name":"to","type":"address"}],"name":"OwnershipTransferRequested","type":"event"},{"anonymous":false,"inputs":[{"indexed":true,"internalType":"address","name":"from","type":"address"},{"indexed":true,"internalType":"address","name":"to","type":"address"}],"name":"OwnershipTransferred","type":"event"},{"anonymous":false,"inputs":[{"indexed":false,"internalType":"uint256","name":"requestId","type":"uint256"},{"indexed":false,"internalType":"uint256[]","name":"randomWords","type":"uint256[]"}],"name":"RequestFulfilled","type":"event"},{"anonymous":false,"inputs":[{"indexed":false,"internalType":"uint256","name":"requestId","type":"uint256"},{"indexed":false,"internalType":"uint32","name":"numWords","type":"uint32"}],"name":"RequestSent","type":"event"},{"inputs":[],"name":"acceptOwnership","outputs":[],"stateMutability":"nonpayable","type":"function"},{"inputs":[],"name":"allowedContract","outputs":[{"internalType":"address","name":"","type":"address"}],"stateMutability":"view","type":"function"},{"inputs":[{"internalType":"uint256","name":"_requestId","type":"uint256"}],"name":"getRequestStatus","outputs":[{"internalType":"bool","name":"fulfilled","type":"bool"},{"internalType":"uint256[]","name":"randomWords","type":"uint256[]"}],"stateMutability":"view","type":"function"},{"inputs":[],"name":"isAllowedContractSet","outputs":[{"internalType":"bool","name":"","type":"bool"}],"stateMutability":"view","type":"function"},{"inputs":[],"name":"lastRequestId","outputs":[{"internalType":"uint256","name":"","type":"uint256"}],"stateMutability":"view","type":"function"},{"inputs":[],"name":"owner","outputs":[{"internalType":"address","name":"","type":"address"}],"stateMutability":"view","type":"function"},{"inputs":[{"internalType":"uint256","name":"requestId","type":"uint256"},{"internalType":"uint256[]","name":"randomWords","type":"uint256[]"}],"name":"rawFulfillRandomWords","outputs":[],"stateMutability":"nonpayable","type":"function"},{"inputs":[{"internalType":"uint256","name":"","type":"uint256"}],"name":"requestIds","outputs":[{"internalType":"uint256","name":"","type":"uint256"}],"stateMutability":"view","type":"function"},{"inputs":[],"name":"requestRandomWords","outputs":[{"internalType":"uint256","name":"requestId","type":"uint256"}],"stateMutability":"nonpayable","type":"function"},{"inputs":[{"internalType":"uint256","name":"","type":"uint256"}],"name":"s_requests","outputs":[{"internalType":"bool","name":"fulfilled","type":"bool"},{"internalType":"bool","name":"exists","type":"bool"}],"stateMutability":"view","type":"function"},{"inputs":[{"internalType":"address","name":"_allowedContract","type":"address"}],"name":"setAllowedContract","outputs":[],"stateMutability":"nonpayable","type":"function"},{"inputs":[{"internalType":"address","name":"to","type":"address"}],"name":"transferOwnership","outputs":[],"stateMutability":"nonpayable","type":"function"}],"evm":{"bytecode":{"linkReferences":{},"object":"60a06040526006805460ff60a01b191690557f6e75b569a01ef56d18cab6a8e71e6600d6ce853834d4a5748b720d06f878b3a4600755600880546001600160501b03191666030003000186a017905534801561005a57600080fd5b50604051610ecd380380610ecd83398101604081905261007991610213565b7f8c7382f9d8f56b33781fe506e897a4f1e2d1725500000000000000000000000060805233806000816100f35760405162461bcd60e51b815260206004820152601860248201527f43616e6e6f7420736574206f776e657220746f207a65726f000000000000000060448201526064015b60405180910390fd5b600080546001600160a01b0319166001600160a01b03848116919091179091558116156101235761012381610169565b5050600380546001600160401b03909316600160a01b026001600160e01b031990931692909217738c7382f9d8f56b33781fe506e897a4f1e2d172551790915550610243565b6001600160a01b0381163314156101c25760405162461bcd60e51b815260206004820152601760248201527f43616e6e6f74207472616e7366657220746f2073656c6600000000000000000060448201526064016100ea565b600180546001600160a01b0319166001600160a01b0383811691821790925560008054604051929316917fed8889f560326eb138920d842192f0eb3dd22b4f139c87a2c57538e05bae12789190a350565b60006020828403121561022557600080fd5b81516001600160401b038116811461023c57600080fd5b9392505050565b60805160601c610c656102686000396000818161021e01526102790152610c656000f3fe608060405234801561001057600080fd5b50600436106100d45760003560e01c8063cb2db3f611610081578063e89d5a891161005b578063e89d5a89146101e4578063f2fde38b146101f7578063fc2a88c31461020a57600080fd5b8063cb2db3f614610197578063d8a4676f146101bb578063e0c86289146101dc57600080fd5b80638796ba8c116100b25780638796ba8c146101095780638da5cb5b1461012f578063a168fa891461015457600080fd5b80631fe543e3146100d957806379ba5097146100ee57806386e32ed0146100f6575b600080fd5b6100ec6100e7366004610ab8565b610213565b005b6100ec6102b9565b6100ec610104366004610a56565b610377565b61011c610117366004610a86565b610418565b6040519081526020015b60405180910390f35b6000546001600160a01b03165b6040516001600160a01b039091168152602001610126565b610180610162366004610a86565b60026020526000908152604090205460ff8082169161010090041682565b604080519215158352901515602083015201610126565b6006546101ab90600160a01b900460ff1681565b6040519015158152602001610126565b6101ce6101c9366004610a86565b610439565b604051610126929190610bc4565b61011c610539565b60065461013c906001600160a01b031681565b6100ec610205366004610a56565b610780565b61011c60055481565b336001600160a01b037f000000000000000000000000000000000000000000000000000000000000000016146102ab576040517f1cf993f40000000000000000000000000000000000000000000000000000000081523360048201526001600160a01b037f00000000000000000000000000000000000000000000000000000000000000001660248201526044015b60405180910390fd5b6102b58282610794565b5050565b6001546001600160a01b031633146103135760405162461bcd60e51b815260206004820152601660248201527f4d7573742062652070726f706f736564206f776e65720000000000000000000060448201526064016102a2565b600080543373ffffffffffffffffffffffffffffffffffffffff19808316821784556001805490911690556040516001600160a01b0390921692909183917f8be0079c531659141344cd1fd0a4f28419497f9722a3daafe3b4186f6b6457e091a350565b61037f6108e3565b600654600160a01b900460ff16156103d95760405162461bcd60e51b815260206004820152601f60248201527f416c6c6f77656420636f6e747261637420697320616c7265616479207365740060448201526064016102a2565b600680547fffffffffffffffffffffff000000000000000000000000000000000000000000166001600160a01b0390921691909117600160a01b179055565b6004818154811061042857600080fd5b600091825260209091200154905081565b600081815260026020526040812054606090610100900460ff1661049f5760405162461bcd60e51b815260206004820152601160248201527f72657175657374206e6f7420666f756e6400000000000000000000000000000060448201526064016102a2565b60008381526002602090815260408083208151606081018352815460ff808216151583526101009091041615158185015260018201805484518187028101870186528181529295939486019383018282801561051a57602002820191906000526020600020905b815481526020019060010190808311610506575b5050505050815250509050806000015181604001519250925050915091565b60006105436108e3565b6006546001600160a01b0316331461059d5760405162461bcd60e51b815260206004820152601860248201527f4e6f742074686520616c6c6f77656420636f6e7472616374000000000000000060448201526064016102a2565b6003546007546008546040517f5d3b1d300000000000000000000000000000000000000000000000000000000081526004810192909252600160a01b830467ffffffffffffffff166024830152640100000000810461ffff16604483015263ffffffff808216606484015266010000000000009091041660848201526001600160a01b0390911690635d3b1d309060a401602060405180830381600087803b15801561064857600080fd5b505af115801561065c573d6000803e3d6000fd5b505050506040513d601f19601f820116820180604052508101906106809190610a9f565b6040805160608101825260008082526001602080840182815285518481528083018752858701908152878552600283529590932084518154945161ffff1990951690151561ff001916176101009415159490940293909317835593518051959650929491936106f593918501929101906109f6565b5050600480546001810182556000919091527f8a35acfbc15ff81a39ae7d344fd709f28e8600b4aa8c65c6b64bfe7fe36bd19b0182905550600581905560085460408051838152660100000000000090920463ffffffff1660208301527fcc58b13ad3eab50626c6a6300b1d139cd6ebb1688a7cced9461c2f7e762665ee910160405180910390a190565b6107886108e3565b6107918161093f565b50565b600082815260026020526040902054610100900460ff166107f75760405162461bcd60e51b815260206004820152601160248201527f72657175657374206e6f7420666f756e6400000000000000000000000000000060448201526064016102a2565b6000828152600260209081526040909120805460ff19166001908117825583516108289392909101918401906109f6565b507ffe2e2d779dba245964d4e3ef9b994be63856fd568bf7d3ca9e224755cb1bd54d828260405161085a929190610be7565b60405180910390a16006546040517f37f9c70d0000000000000000000000000000000000000000000000000000000081526001600160a01b03909116906337f9c70d906108ad9085908590600401610be7565b600060405180830381600087803b1580156108c757600080fd5b505af11580156108db573d6000803e3d6000fd5b505050505050565b6000546001600160a01b0316331461093d5760405162461bcd60e51b815260206004820152601660248201527f4f6e6c792063616c6c61626c65206279206f776e65720000000000000000000060448201526064016102a2565b565b6001600160a01b0381163314156109985760405162461bcd60e51b815260206004820152601760248201527f43616e6e6f74207472616e7366657220746f2073656c6600000000000000000060448201526064016102a2565b6001805473ffffffffffffffffffffffffffffffffffffffff19166001600160a01b0383811691821790925560008054604051929316917fed8889f560326eb138920d842192f0eb3dd22b4f139c87a2c57538e05bae12789190a350565b828054828255906000526020600020908101928215610a31579160200282015b82811115610a31578251825591602001919060010190610a16565b50610a3d929150610a41565b5090565b5b80821115610a3d5760008155600101610a42565b600060208284031215610a6857600080fd5b81356001600160a01b0381168114610a7f57600080fd5b9392505050565b600060208284031215610a9857600080fd5b5035919050565b600060208284031215610ab157600080fd5b5051919050565b60008060408385031215610acb57600080fd5b8235915060208084013567ffffffffffffffff80821115610aeb57600080fd5b818601915086601f830112610aff57600080fd5b813581811115610b1157610b11610c00565b8060051b604051601f19603f83011681018181108582111715610b3657610b36610c00565b604052828152858101935084860182860187018b1015610b5557600080fd5b600095505b83861015610b78578035855260019590950194938601938601610b5a565b508096505050505050509250929050565b600081518084526020808501945080840160005b83811015610bb957815187529582019590820190600101610b9d565b509495945050505050565b8215158152604060208201526000610bdf6040830184610b89565b949350505050565b828152604060208201526000610bdf6040830184610b89565b7f4e487b7100000000000000000000000000000000000000000000000000000000600052604160045260246000fdfea26469706673582212200ced140fac342b00ccb72d3047fc685672fc52830c99aacc3e4484d4b6e2cd6e64736f6c63430008070033","opcodes":"PUSH1 0xA0 PUSH1 0x40 MSTORE PUSH1 0x6 DUP1 SLOAD PUSH1 0xFF PUSH1 0xA0 SHL NOT AND SWAP1 SSTORE PUSH32 0x6E75B569A01EF56D18CAB6A8E71E6600D6CE853834D4A5748B720D06F878B3A4 PUSH1 0x7 SSTORE PUSH1 0x8 DUP1 SLOAD PUSH1 0x1 PUSH1 0x1 PUSH1 0x50 SHL SUB NOT AND PUSH7 0x30003000186A0 OR SWAP1 SSTORE CALLVALUE DUP1 ISZERO PUSH2 0x5A JUMPI PUSH1 0x0 DUP1 REVERT JUMPDEST POP PUSH1 0x40 MLOAD PUSH2 0xECD CODESIZE SUB DUP1 PUSH2 0xECD DUP4 CODECOPY DUP2 ADD PUSH1 0x40 DUP2 SWAP1 MSTORE PUSH2 0x79 SWAP2 PUSH2 0x213 JUMP JUMPDEST PUSH32 0x8C7382F9D8F56B33781FE506E897A4F1E2D17255000000000000000000000000 PUSH1 0x80 MSTORE CALLER DUP1 PUSH1 0x0 DUP2 PUSH2 0xF3 JUMPI PUSH1 0x40 MLOAD PUSH3 0x461BCD PUSH1 0xE5 SHL DUP2 MSTORE PUSH1 0x20 PUSH1 0x4 DUP3 ADD MSTORE PUSH1 0x18 PUSH1 0x24 DUP3 ADD MSTORE PUSH32 0x43616E6E6F7420736574206F776E657220746F207A65726F0000000000000000 PUSH1 0x44 DUP3 ADD MSTORE PUSH1 0x64 ADD JUMPDEST PUSH1 0x40 MLOAD DUP1 SWAP2 SUB SWAP1 REVERT JUMPDEST PUSH1 0x0 DUP1 SLOAD PUSH1 0x1 PUSH1 0x1 PUSH1 0xA0 SHL SUB NOT AND PUSH1 0x1 PUSH1 0x1 PUSH1 0xA0 SHL SUB DUP5 DUP2 AND SWAP2 SWAP1 SWAP2 OR SWAP1 SWAP2 SSTORE DUP2 AND ISZERO PUSH2 0x123 JUMPI PUSH2 0x123 DUP2 PUSH2 0x169 JUMP JUMPDEST POP POP PUSH1 0x3 DUP1 SLOAD PUSH1 0x1 PUSH1 0x1 PUSH1 0x40 SHL SUB SWAP1 SWAP4 AND PUSH1 0x1 PUSH1 0xA0 SHL MUL PUSH1 0x1 PUSH1 0x1 PUSH1 0xE0 SHL SUB NOT SWAP1 SWAP4 AND SWAP3 SWAP1 SWAP3 OR PUSH20 0x8C7382F9D8F56B33781FE506E897A4F1E2D17255 OR SWAP1 SWAP2 SSTORE POP PUSH2 0x243 JUMP JUMPDEST PUSH1 0x1 PUSH1 0x1 PUSH1 0xA0 SHL SUB DUP2 AND CALLER EQ ISZERO PUSH2 0x1C2 JUMPI PUSH1 0x40 MLOAD PUSH3 0x461BCD PUSH1 0xE5 SHL DUP2 MSTORE PUSH1 0x20 PUSH1 0x4 DUP3 ADD MSTORE PUSH1 0x17 PUSH1 0x24 DUP3 ADD MSTORE PUSH32 0x43616E6E6F74207472616E7366657220746F2073656C66000000000000000000 PUSH1 0x44 DUP3 ADD MSTORE PUSH1 0x64 ADD PUSH2 0xEA JUMP JUMPDEST PUSH1 0x1 DUP1 SLOAD PUSH1 0x1 PUSH1 0x1 PUSH1 0xA0 SHL SUB NOT AND PUSH1 0x1 PUSH1 0x1 PUSH1 0xA0 SHL SUB DUP4 DUP2 AND SWAP2 DUP3 OR SWAP1 SWAP3 SSTORE PUSH1 0x0 DUP1 SLOAD PUSH1 0x40 MLOAD SWAP3 SWAP4 AND SWAP2 PUSH32 0xED8889F560326EB138920D842192F0EB3DD22B4F139C87A2C57538E05BAE1278 SWAP2 SWAP1 LOG3 POP JUMP JUMPDEST PUSH1 0x0 PUSH1 0x20 DUP3 DUP5 SUB SLT ISZERO PUSH2 0x225 JUMPI PUSH1 0x0 DUP1 REVERT JUMPDEST DUP2 MLOAD PUSH1 0x1 PUSH1 0x1 PUSH1 0x40 SHL SUB DUP2 AND DUP2 EQ PUSH2 0x23C JUMPI PUSH1 0x0 DUP1 REVERT JUMPDEST SWAP4 SWAP3 POP POP POP JUMP JUMPDEST PUSH1 0x80 MLOAD PUSH1 0x60 SHR PUSH2 0xC65 PUSH2 0x268 PUSH1 0x0 CODECOPY PUSH1 0x0 DUP2 DUP2 PUSH2 0x21E ADD MSTORE PUSH2 0x279 ADD MSTORE PUSH2 0xC65 PUSH1 0x0 RETURN INVALID PUSH1 0x80 PUSH1 0x40 MSTORE CALLVALUE DUP1 ISZERO PUSH2 0x10 JUMPI PUSH1 0x0 DUP1 REVERT JUMPDEST POP PUSH1 0x4 CALLDATASIZE LT PUSH2 0xD4 JUMPI PUSH1 0x0 CALLDATALOAD PUSH1 0xE0 SHR DUP1 PUSH4 0xCB2DB3F6 GT PUSH2 0x81 JUMPI DUP1 PUSH4 0xE89D5A89 GT PUSH2 0x5B JUMPI DUP1 PUSH4 0xE89D5A89 EQ PUSH2 0x1E4 JUMPI DUP1 PUSH4 0xF2FDE38B EQ PUSH2 0x1F7 JUMPI DUP1 PUSH4 0xFC2A88C3 EQ PUSH2 0x20A JUMPI PUSH1 0x0 DUP1 REVERT JUMPDEST DUP1 PUSH4 0xCB2DB3F6 EQ PUSH2 0x197 JUMPI DUP1 PUSH4 0xD8A4676F EQ PUSH2 0x1BB JUMPI DUP1 PUSH4 0xE0C86289 EQ PUSH2 0x1DC JUMPI PUSH1 0x0 DUP1 REVERT JUMPDEST DUP1 PUSH4 0x8796BA8C GT PUSH2 0xB2 JUMPI DUP1 PUSH4 0x8796BA8C EQ PUSH2 0x109 JUMPI DUP1 PUSH4 0x8DA5CB5B EQ PUSH2 0x12F JUMPI DUP1 PUSH4 0xA168FA89 EQ PUSH2 0x154 JUMPI PUSH1 0x0 DUP1 REVERT JUMPDEST DUP1 PUSH4 0x1FE543E3 EQ PUSH2 0xD9 JUMPI DUP1 PUSH4 0x79BA5097 EQ PUSH2 0xEE JUMPI DUP1 PUSH4 0x86E32ED0 EQ PUSH2 0xF6 JUMPI JUMPDEST PUSH1 0x0 DUP1 REVERT JUMPDEST PUSH2 0xEC PUSH2 0xE7 CALLDATASIZE PUSH1 0x4 PUSH2 0xAB8 JUMP JUMPDEST PUSH2 0x213 JUMP JUMPDEST STOP JUMPDEST PUSH2 0xEC PUSH2 0x2B9 JUMP JUMPDEST PUSH2 0xEC PUSH2 0x104 CALLDATASIZE PUSH1 0x4 PUSH2 0xA56 JUMP JUMPDEST PUSH2 0x377 JUMP JUMPDEST PUSH2 0x11C PUSH2 0x117 CALLDATASIZE PUSH1 0x4 PUSH2 0xA86 JUMP JUMPDEST PUSH2 0x418 JUMP JUMPDEST PUSH1 0x40 MLOAD SWAP1 DUP2 MSTORE PUSH1 0x20 ADD JUMPDEST PUSH1 0x40 MLOAD DUP1 SWAP2 SUB SWAP1 RETURN JUMPDEST PUSH1 0x0 SLOAD PUSH1 0x1 PUSH1 0x1 PUSH1 0xA0 SHL SUB AND JUMPDEST PUSH1 0x40 MLOAD PUSH1 0x1 PUSH1 0x1 PUSH1 0xA0 SHL SUB SWAP1 SWAP2 AND DUP2 MSTORE PUSH1 0x20 ADD PUSH2 0x126 JUMP JUMPDEST PUSH2 0x180 PUSH2 0x162 CALLDATASIZE PUSH1 0x4 PUSH2 0xA86 JUMP JUMPDEST PUSH1 0x2 PUSH1 0x20 MSTORE PUSH1 0x0 SWAP1 DUP2 MSTORE PUSH1 0x40 SWAP1 KECCAK256 SLOAD PUSH1 0xFF DUP1 DUP3 AND SWAP2 PUSH2 0x100 SWAP1 DIV AND DUP3 JUMP JUMPDEST PUSH1 0x40 DUP1 MLOAD SWAP3 ISZERO ISZERO DUP4 MSTORE SWAP1 ISZERO ISZERO PUSH1 0x20 DUP4 ADD MSTORE ADD PUSH2 0x126 JUMP JUMPDEST PUSH1 0x6 SLOAD PUSH2 0x1AB SWAP1 PUSH1 0x1 PUSH1 0xA0 SHL SWAP1 DIV PUSH1 0xFF AND DUP2 JUMP JUMPDEST PUSH1 0x40 MLOAD SWAP1 ISZERO ISZERO DUP2 MSTORE PUSH1 0x20 ADD PUSH2 0x126 JUMP JUMPDEST PUSH2 0x1CE PUSH2 0x1C9 CALLDATASIZE PUSH1 0x4 PUSH2 0xA86 JUMP JUMPDEST PUSH2 0x439 JUMP JUMPDEST PUSH1 0x40 MLOAD PUSH2 0x126 SWAP3 SWAP2 SWAP1 PUSH2 0xBC4 JUMP JUMPDEST PUSH2 0x11C PUSH2 0x539 JUMP JUMPDEST PUSH1 0x6 SLOAD PUSH2 0x13C SWAP1 PUSH1 0x1 PUSH1 0x1 PUSH1 0xA0 SHL SUB AND DUP2 JUMP JUMPDEST PUSH2 0xEC PUSH2 0x205 CALLDATASIZE PUSH1 0x4 PUSH2 0xA56 JUMP JUMPDEST PUSH2 0x780 JUMP JUMPDEST PUSH2 0x11C PUSH1 0x5 SLOAD DUP2 JUMP JUMPDEST CALLER PUSH1 0x1 PUSH1 0x1 PUSH1 0xA0 SHL SUB PUSH32 0x0 AND EQ PUSH2 0x2AB JUMPI PUSH1 0x40 MLOAD PUSH32 0x1CF993F400000000000000000000000000000000000000000000000000000000 DUP2 MSTORE CALLER PUSH1 0x4 DUP3 ADD MSTORE PUSH1 0x1 PUSH1 0x1 PUSH1 0xA0 SHL SUB PUSH32 0x0 AND PUSH1 0x24 DUP3 ADD MSTORE PUSH1 0x44 ADD JUMPDEST PUSH1 0x40 MLOAD DUP1 SWAP2 SUB SWAP1 REVERT JUMPDEST PUSH2 0x2B5 DUP3 DUP3 PUSH2 0x794 JUMP JUMPDEST POP POP JUMP JUMPDEST PUSH1 0x1 SLOAD PUSH1 0x1 PUSH1 0x1 PUSH1 0xA0 SHL SUB AND CALLER EQ PUSH2 0x313 JUMPI PUSH1 0x40 MLOAD PUSH3 0x461BCD PUSH1 0xE5 SHL DUP2 MSTORE PUSH1 0x20 PUSH1 0x4 DUP3 ADD MSTORE PUSH1 0x16 PUSH1 0x24 DUP3 ADD MSTORE PUSH32 0x4D7573742062652070726F706F736564206F776E657200000000000000000000 PUSH1 0x44 DUP3 ADD MSTORE PUSH1 0x64 ADD PUSH2 0x2A2 JUMP JUMPDEST PUSH1 0x0 DUP1 SLOAD CALLER PUSH20 0xFFFFFFFFFFFFFFFFFFFFFFFFFFFFFFFFFFFFFFFF NOT DUP1 DUP4 AND DUP3 OR DUP5 SSTORE PUSH1 0x1 DUP1 SLOAD SWAP1 SWAP2 AND SWAP1 SSTORE PUSH1 0x40 MLOAD PUSH1 0x1 PUSH1 0x1 PUSH1 0xA0 SHL SUB SWAP1 SWAP3 AND SWAP3 SWAP1 SWAP2 DUP4 SWAP2 PUSH32 0x8BE0079C531659141344CD1FD0A4F28419497F9722A3DAAFE3B4186F6B6457E0 SWAP2 LOG3 POP JUMP JUMPDEST PUSH2 0x37F PUSH2 0x8E3 JUMP JUMPDEST PUSH1 0x6 SLOAD PUSH1 0x1 PUSH1 0xA0 SHL SWAP1 DIV PUSH1 0xFF AND ISZERO PUSH2 0x3D9 JUMPI PUSH1 0x40 MLOAD PUSH3 0x461BCD PUSH1 0xE5 SHL DUP2 MSTORE PUSH1 0x20 PUSH1 0x4 DUP3 ADD MSTORE PUSH1 0x1F PUSH1 0x24 DUP3 ADD MSTORE PUSH32 0x416C6C6F77656420636F6E747261637420697320616C72656164792073657400 PUSH1 0x44 DUP3 ADD MSTORE PUSH1 0x64 ADD PUSH2 0x2A2 JUMP JUMPDEST PUSH1 0x6 DUP1 SLOAD PUSH32 0xFFFFFFFFFFFFFFFFFFFFFF000000000000000000000000000000000000000000 AND PUSH1 0x1 PUSH1 0x1 PUSH1 0xA0 SHL SUB SWAP1 SWAP3 AND SWAP2 SWAP1 SWAP2 OR PUSH1 0x1 PUSH1 0xA0 SHL OR SWAP1 SSTORE JUMP JUMPDEST PUSH1 0x4 DUP2 DUP2 SLOAD DUP2 LT PUSH2 0x428 JUMPI PUSH1 0x0 DUP1 REVERT JUMPDEST PUSH1 0x0 SWAP2 DUP3 MSTORE PUSH1 0x20 SWAP1 SWAP2 KECCAK256 ADD SLOAD SWAP1 POP DUP2 JUMP JUMPDEST PUSH1 0x0 DUP2 DUP2 MSTORE PUSH1 0x2 PUSH1 0x20 MSTORE PUSH1 0x40 DUP2 KECCAK256 SLOAD PUSH1 0x60 SWAP1 PUSH2 0x100 SWAP1 DIV PUSH1 0xFF AND PUSH2 0x49F JUMPI PUSH1 0x40 MLOAD PUSH3 0x461BCD PUSH1 0xE5 SHL DUP2 MSTORE PUSH1 0x20 PUSH1 0x4 DUP3 ADD MSTORE PUSH1 0x11 PUSH1 0x24 DUP3 ADD MSTORE PUSH32 0x72657175657374206E6F7420666F756E64000000000000000000000000000000 PUSH1 0x44 DUP3 ADD MSTORE PUSH1 0x64 ADD PUSH2 0x2A2 JUMP JUMPDEST PUSH1 0x0 DUP4 DUP2 MSTORE PUSH1 0x2 PUSH1 0x20 SWAP1 DUP2 MSTORE PUSH1 0x40 DUP1 DUP4 KECCAK256 DUP2 MLOAD PUSH1 0x60 DUP2 ADD DUP4 MSTORE DUP2 SLOAD PUSH1 0xFF DUP1 DUP3 AND ISZERO ISZERO DUP4 MSTORE PUSH2 0x100 SWAP1 SWAP2 DIV AND ISZERO ISZERO DUP2 DUP6 ADD MSTORE PUSH1 0x1 DUP3 ADD DUP1 SLOAD DUP5 MLOAD DUP2 DUP8 MUL DUP2 ADD DUP8 ADD DUP7 MSTORE DUP2 DUP2 MSTORE SWAP3 SWAP6 SWAP4 SWAP5 DUP7 ADD SWAP4 DUP4 ADD DUP3 DUP3 DUP1 ISZERO PUSH2 0x51A JUMPI PUSH1 0x20 MUL DUP3 ADD SWAP2 SWAP1 PUSH1 0x0 MSTORE PUSH1 0x20 PUSH1 0x0 KECCAK256 SWAP1 JUMPDEST DUP2 SLOAD DUP2 MSTORE PUSH1 0x20 ADD SWAP1 PUSH1 0x1 ADD SWAP1 DUP1 DUP4 GT PUSH2 0x506 JUMPI JUMPDEST POP POP POP POP POP DUP2 MSTORE POP POP SWAP1 POP DUP1 PUSH1 0x0 ADD MLOAD DUP2 PUSH1 0x40 ADD MLOAD SWAP3 POP SWAP3 POP POP SWAP2 POP SWAP2 JUMP JUMPDEST PUSH1 0x0 PUSH2 0x543 PUSH2 0x8E3 JUMP JUMPDEST PUSH1 0x6 SLOAD PUSH1 0x1 PUSH1 0x1 PUSH1 0xA0 SHL SUB AND CALLER EQ PUSH2 0x59D JUMPI PUSH1 0x40 MLOAD PUSH3 0x461BCD PUSH1 0xE5 SHL DUP2 MSTORE PUSH1 0x20 PUSH1 0x4 DUP3 ADD MSTORE PUSH1 0x18 PUSH1 0x24 DUP3 ADD MSTORE PUSH32 0x4E6F742074686520616C6C6F77656420636F6E74726163740000000000000000 PUSH1 0x44 DUP3 ADD MSTORE PUSH1 0x64 ADD PUSH2 0x2A2 JUMP JUMPDEST PUSH1 0x3 SLOAD PUSH1 0x7 SLOAD PUSH1 0x8 SLOAD PUSH1 0x40 MLOAD PUSH32 0x5D3B1D3000000000000000000000000000000000000000000000000000000000 DUP2 MSTORE PUSH1 0x4 DUP2 ADD SWAP3 SWAP1 SWAP3 MSTORE PUSH1 0x1 PUSH1 0xA0 SHL DUP4 DIV PUSH8 0xFFFFFFFFFFFFFFFF AND PUSH1 0x24 DUP4 ADD MSTORE PUSH5 0x100000000 DUP2 DIV PUSH2 0xFFFF AND PUSH1 0x44 DUP4 ADD MSTORE PUSH4 0xFFFFFFFF DUP1 DUP3 AND PUSH1 0x64 DUP5 ADD MSTORE PUSH7 0x1000000000000 SWAP1 SWAP2 DIV AND PUSH1 0x84 DUP3 ADD MSTORE PUSH1 0x1 PUSH1 0x1 PUSH1 0xA0 SHL SUB SWAP1 SWAP2 AND SWAP1 PUSH4 0x5D3B1D30 SWAP1 PUSH1 0xA4 ADD PUSH1 0x20 PUSH1 0x40 MLOAD DUP1 DUP4 SUB DUP2 PUSH1 0x0 DUP8 DUP1 EXTCODESIZE ISZERO DUP1 ISZERO PUSH2 0x648 JUMPI PUSH1 0x0 DUP1 REVERT JUMPDEST POP GAS CALL ISZERO DUP1 ISZERO PUSH2 0x65C JUMPI RETURNDATASIZE PUSH1 0x0 DUP1 RETURNDATACOPY RETURNDATASIZE PUSH1 0x0 REVERT JUMPDEST POP POP POP POP PUSH1 0x40 MLOAD RETURNDATASIZE PUSH1 0x1F NOT PUSH1 0x1F DUP3 ADD AND DUP3 ADD DUP1 PUSH1 0x40 MSTORE POP DUP2 ADD SWAP1 PUSH2 0x680 SWAP2 SWAP1 PUSH2 0xA9F JUMP JUMPDEST PUSH1 0x40 DUP1 MLOAD PUSH1 0x60 DUP2 ADD DUP3 MSTORE PUSH1 0x0 DUP1 DUP3 MSTORE PUSH1 0x1 PUSH1 0x20 DUP1 DUP5 ADD DUP3 DUP2 MSTORE DUP6 MLOAD DUP5 DUP2 MSTORE DUP1 DUP4 ADD DUP8 MSTORE DUP6 DUP8 ADD SWAP1 DUP2 MSTORE DUP8 DUP6 MSTORE PUSH1 0x2 DUP4 MSTORE SWAP6 SWAP1 SWAP4 KECCAK256 DUP5 MLOAD DUP2 SLOAD SWAP5 MLOAD PUSH2 0xFFFF NOT SWAP1 SWAP6 AND SWAP1 ISZERO ISZERO PUSH2 0xFF00 NOT AND OR PUSH2 0x100 SWAP5 ISZERO ISZERO SWAP5 SWAP1 SWAP5 MUL SWAP4 SWAP1 SWAP4 OR DUP4 SSTORE SWAP4 MLOAD DUP1 MLOAD SWAP6 SWAP7 POP SWAP3 SWAP5 SWAP2 SWAP4 PUSH2 0x6F5 SWAP4 SWAP2 DUP6 ADD SWAP3 SWAP2 ADD SWAP1 PUSH2 0x9F6 JUMP JUMPDEST POP POP PUSH1 0x4 DUP1 SLOAD PUSH1 0x1 DUP2 ADD DUP3 SSTORE PUSH1 0x0 SWAP2 SWAP1 SWAP2 MSTORE PUSH32 0x8A35ACFBC15FF81A39AE7D344FD709F28E8600B4AA8C65C6B64BFE7FE36BD19B ADD DUP3 SWAP1 SSTORE POP PUSH1 0x5 DUP2 SWAP1 SSTORE PUSH1 0x8 SLOAD PUSH1 0x40 DUP1 MLOAD DUP4 DUP2 MSTORE PUSH7 0x1000000000000 SWAP1 SWAP3 DIV PUSH4 0xFFFFFFFF AND PUSH1 0x20 DUP4 ADD MSTORE PUSH32 0xCC58B13AD3EAB50626C6A6300B1D139CD6EBB1688A7CCED9461C2F7E762665EE SWAP2 ADD PUSH1 0x40 MLOAD DUP1 SWAP2 SUB SWAP1 LOG1 SWAP1 JUMP JUMPDEST PUSH2 0x788 PUSH2 0x8E3 JUMP JUMPDEST PUSH2 0x791 DUP2 PUSH2 0x93F JUMP JUMPDEST POP JUMP JUMPDEST PUSH1 0x0 DUP3 DUP2 MSTORE PUSH1 0x2 PUSH1 0x20 MSTORE PUSH1 0x40 SWAP1 KECCAK256 SLOAD PUSH2 0x100 SWAP1 DIV PUSH1 0xFF AND PUSH2 0x7F7 JUMPI PUSH1 0x40 MLOAD PUSH3 0x461BCD PUSH1 0xE5 SHL DUP2 MSTORE PUSH1 0x20 PUSH1 0x4 DUP3 ADD MSTORE PUSH1 0x11 PUSH1 0x24 DUP3 ADD MSTORE PUSH32 0x72657175657374206E6F7420666F756E64000000000000000000000000000000 PUSH1 0x44 DUP3 ADD MSTORE PUSH1 0x64 ADD PUSH2 0x2A2 JUMP JUMPDEST PUSH1 0x0 DUP3 DUP2 MSTORE PUSH1 0x2 PUSH1 0x20 SWAP1 DUP2 MSTORE PUSH1 0x40 SWAP1 SWAP2 KECCAK256 DUP1 SLOAD PUSH1 0xFF NOT AND PUSH1 0x1 SWAP1 DUP2 OR DUP3 SSTORE DUP4 MLOAD PUSH2 0x828 SWAP4 SWAP3 SWAP1 SWAP2 ADD SWAP2 DUP5 ADD SWAP1 PUSH2 0x9F6 JUMP JUMPDEST POP PUSH32 0xFE2E2D779DBA245964D4E3EF9B994BE63856FD568BF7D3CA9E224755CB1BD54D DUP3 DUP3 PUSH1 0x40 MLOAD PUSH2 0x85A SWAP3 SWAP2 SWAP1 PUSH2 0xBE7 JUMP JUMPDEST PUSH1 0x40 MLOAD DUP1 SWAP2 SUB SWAP1 LOG1 PUSH1 0x6 SLOAD PUSH1 0x40 MLOAD PUSH32 0x37F9C70D00000000000000000000000000000000000000000000000000000000 DUP2 MSTORE PUSH1 0x1 PUSH1 0x1 PUSH1 0xA0 SHL SUB SWAP1 SWAP2 AND SWAP1 PUSH4 0x37F9C70D SWAP1 PUSH2 0x8AD SWAP1 DUP6 SWAP1 DUP6 SWAP1 PUSH1 0x4 ADD PUSH2 0xBE7 JUMP JUMPDEST PUSH1 0x0 PUSH1 0x40 MLOAD DUP1 DUP4 SUB DUP2 PUSH1 0x0 DUP8 DUP1 EXTCODESIZE ISZERO DUP1 ISZERO PUSH2 0x8C7 JUMPI PUSH1 0x0 DUP1 REVERT JUMPDEST POP GAS CALL ISZERO DUP1 ISZERO PUSH2 0x8DB JUMPI RETURNDATASIZE PUSH1 0x0 DUP1 RETURNDATACOPY RETURNDATASIZE PUSH1 0x0 REVERT JUMPDEST POP POP POP POP POP POP JUMP JUMPDEST PUSH1 0x0 SLOAD PUSH1 0x1 PUSH1 0x1 PUSH1 0xA0 SHL SUB AND CALLER EQ PUSH2 0x93D JUMPI PUSH1 0x40 MLOAD PUSH3 0x461BCD PUSH1 0xE5 SHL DUP2 MSTORE PUSH1 0x20 PUSH1 0x4 DUP3 ADD MSTORE PUSH1 0x16 PUSH1 0x24 DUP3 ADD MSTORE PUSH32 0x4F6E6C792063616C6C61626C65206279206F776E657200000000000000000000 PUSH1 0x44 DUP3 ADD MSTORE PUSH1 0x64 ADD PUSH2 0x2A2 JUMP JUMPDEST JUMP JUMPDEST PUSH1 0x1 PUSH1 0x1 PUSH1 0xA0 SHL SUB DUP2 AND CALLER EQ ISZERO PUSH2 0x998 JUMPI PUSH1 0x40 MLOAD PUSH3 0x461BCD PUSH1 0xE5 SHL DUP2 MSTORE PUSH1 0x20 PUSH1 0x4 DUP3 ADD MSTORE PUSH1 0x17 PUSH1 0x24 DUP3 ADD MSTORE PUSH32 0x43616E6E6F74207472616E7366657220746F2073656C66000000000000000000 PUSH1 0x44 DUP3 ADD MSTORE PUSH1 0x64 ADD PUSH2 0x2A2 JUMP JUMPDEST PUSH1 0x1 DUP1 SLOAD PUSH20 0xFFFFFFFFFFFFFFFFFFFFFFFFFFFFFFFFFFFFFFFF NOT AND PUSH1 0x1 PUSH1 0x1 PUSH1 0xA0 SHL SUB DUP4 DUP2 AND SWAP2 DUP3 OR SWAP1 SWAP3 SSTORE PUSH1 0x0 DUP1 SLOAD PUSH1 0x40 MLOAD SWAP3 SWAP4 AND SWAP2 PUSH32 0xED8889F560326EB138920D842192F0EB3DD22B4F139C87A2C57538E05BAE1278 SWAP2 SWAP1 LOG3 POP JUMP JUMPDEST DUP3 DUP1 SLOAD DUP3 DUP3 SSTORE SWAP1 PUSH1 0x0 MSTORE PUSH1 0x20 PUSH1 0x0 KECCAK256 SWAP1 DUP2 ADD SWAP3 DUP3 ISZERO PUSH2 0xA31 JUMPI SWAP2 PUSH1 0x20 MUL DUP3 ADD JUMPDEST DUP3 DUP2 GT ISZERO PUSH2 0xA31 JUMPI DUP3 MLOAD DUP3 SSTORE SWAP2 PUSH1 0x20 ADD SWAP2 SWAP1 PUSH1 0x1 ADD SWAP1 PUSH2 0xA16 JUMP JUMPDEST POP PUSH2 0xA3D SWAP3 SWAP2 POP PUSH2 0xA41 JUMP JUMPDEST POP SWAP1 JUMP JUMPDEST JUMPDEST DUP1 DUP3 GT ISZERO PUSH2 0xA3D JUMPI PUSH1 0x0 DUP2 SSTORE PUSH1 0x1 ADD PUSH2 0xA42 JUMP JUMPDEST PUSH1 0x0 PUSH1 0x20 DUP3 DUP5 SUB SLT ISZERO PUSH2 0xA68 JUMPI PUSH1 0x0 DUP1 REVERT JUMPDEST DUP2 CALLDATALOAD PUSH1 0x1 PUSH1 0x1 PUSH1 0xA0 SHL SUB DUP2 AND DUP2 EQ PUSH2 0xA7F JUMPI PUSH1 0x0 DUP1 REVERT JUMPDEST SWAP4 SWAP3 POP POP POP JUMP JUMPDEST PUSH1 0x0 PUSH1 0x20 DUP3 DUP5 SUB SLT ISZERO PUSH2 0xA98 JUMPI PUSH1 0x0 DUP1 REVERT JUMPDEST POP CALLDATALOAD SWAP2 SWAP1 POP JUMP JUMPDEST PUSH1 0x0 PUSH1 0x20 DUP3 DUP5 SUB SLT ISZERO PUSH2 0xAB1 JUMPI PUSH1 0x0 DUP1 REVERT JUMPDEST POP MLOAD SWAP2 SWAP1 POP JUMP JUMPDEST PUSH1 0x0 DUP1 PUSH1 0x40 DUP4 DUP6 SUB SLT ISZERO PUSH2 0xACB JUMPI PUSH1 0x0 DUP1 REVERT JUMPDEST DUP3 CALLDATALOAD SWAP2 POP PUSH1 0x20 DUP1 DUP5 ADD CALLDATALOAD PUSH8 0xFFFFFFFFFFFFFFFF DUP1 DUP3 GT ISZERO PUSH2 0xAEB JUMPI PUSH1 0x0 DUP1 REVERT JUMPDEST DUP2 DUP7 ADD SWAP2 POP DUP7 PUSH1 0x1F DUP4 ADD SLT PUSH2 0xAFF JUMPI PUSH1 0x0 DUP1 REVERT JUMPDEST DUP2 CALLDATALOAD DUP2 DUP2 GT ISZERO PUSH2 0xB11 JUMPI PUSH2 0xB11 PUSH2 0xC00 JUMP JUMPDEST DUP1 PUSH1 0x5 SHL PUSH1 0x40 MLOAD PUSH1 0x1F NOT PUSH1 0x3F DUP4 ADD AND DUP2 ADD DUP2 DUP2 LT DUP6 DUP3 GT OR ISZERO PUSH2 0xB36 JUMPI PUSH2 0xB36 PUSH2 0xC00 JUMP JUMPDEST PUSH1 0x40 MSTORE DUP3 DUP2 MSTORE DUP6 DUP2 ADD SWAP4 POP DUP5 DUP7 ADD DUP3 DUP7 ADD DUP8 ADD DUP12 LT ISZERO PUSH2 0xB55 JUMPI PUSH1 0x0 DUP1 REVERT JUMPDEST PUSH1 0x0 SWAP6 POP JUMPDEST DUP4 DUP7 LT ISZERO PUSH2 0xB78 JUMPI DUP1 CALLDATALOAD DUP6 MSTORE PUSH1 0x1 SWAP6 SWAP1 SWAP6 ADD SWAP5 SWAP4 DUP7 ADD SWAP4 DUP7 ADD PUSH2 0xB5A JUMP JUMPDEST POP DUP1 SWAP7 POP POP POP POP POP POP POP SWAP3 POP SWAP3 SWAP1 POP JUMP JUMPDEST PUSH1 0x0 DUP2 MLOAD DUP1 DUP5 MSTORE PUSH1 0x20 DUP1 DUP6 ADD SWAP5 POP DUP1 DUP5 ADD PUSH1 0x0 JUMPDEST DUP4 DUP2 LT ISZERO PUSH2 0xBB9 JUMPI DUP2 MLOAD DUP8 MSTORE SWAP6 DUP3 ADD SWAP6 SWAP1 DUP3 ADD SWAP1 PUSH1 0x1 ADD PUSH2 0xB9D JUMP JUMPDEST POP SWAP5 SWAP6 SWAP5 POP POP POP POP POP JUMP JUMPDEST DUP3 ISZERO ISZERO DUP2 MSTORE PUSH1 0x40 PUSH1 0x20 DUP3 ADD MSTORE PUSH1 0x0 PUSH2 0xBDF PUSH1 0x40 DUP4 ADD DUP5 PUSH2 0xB89 JUMP JUMPDEST SWAP5 SWAP4 POP POP POP POP JUMP JUMPDEST DUP3 DUP2 MSTORE PUSH1 0x40 PUSH1 0x20 DUP3 ADD MSTORE PUSH1 0x0 PUSH2 0xBDF PUSH1 0x40 DUP4 ADD DUP5 PUSH2 0xB89 JUMP JUMPDEST PUSH32 0x4E487B7100000000000000000000000000000000000000000000000000000000 PUSH1 0x0 MSTORE PUSH1 0x41 PUSH1 0x4 MSTORE PUSH1 0x24 PUSH1 0x0 REVERT INVALID LOG2 PUSH5 0x6970667358 0x22 SLT KECCAK256 0xC 0xED EQ 0xF 0xAC CALLVALUE 0x2B STOP 0xCC 0xB7 0x2D ADDRESS SELFBALANCE 0xFC PUSH9 0x5672FC52830C99AACC RETURNDATACOPY DIFFICULTY DUP5 0xD4 0xB6 0xE2 0xCD PUSH15 0x64736F6C6343000807003300000000 "},"methodIdentifiers":{"acceptOwnership()":"79ba5097","allowedContract()":"e89d5a89","getRequestStatus(uint256)":"d8a4676f","isAllowedContractSet()":"cb2db3f6","lastRequestId()":"fc2a88c3","owner()":"8da5cb5b","rawFulfillRandomWords(uint256,uint256[])":"1fe543e3","requestIds(uint256)":"8796ba8c","requestRandomWords()":"e0c86289","s_requests(uint256)":"a168fa89","setAllowedContract(address)":"86e32ed0","transferOwnership(address)":"f2fde38b"}},"storageLayout":{"storage":[{"astId":27,"contract":"contracts/VRFv2Consumer.sol:VRFv2Consumer","label":"s_owner","offset":0,"slot":"0","type":"t_address"},{"astId":29,"contract":"contracts/VRFv2Consumer.sol:VRFv2Consumer","label":"s_pendingOwner","offset":0,"slot":"1","type":"t_address"},{"astId":1092,"contract":"contracts/VRFv2Consumer.sol:VRFv2Consumer","label":"s_requests","offset":0,"slot":"2","type":"t_mapping(t_uint256,t_struct(RequestStatus)1087_storage)"},{"astId":1095,"contract":"contracts/VRFv2Consumer.sol:VRFv2Consumer","label":"COORDINATOR","offset":0,"slot":"3","type":"t_contract(VRFCoordinatorV2Interface)397"},{"astId":1097,"contract":"contracts/VRFv2Consumer.sol:VRFv2Consumer","label":"s_subscriptionId","offset":20,"slot":"3","type":"t_uint64"},{"astId":1100,"contract":"contracts/VRFv2Consumer.sol:VRFv2Consumer","label":"requestIds","offset":0,"slot":"4","type":"t_array(t_uint256)dyn_storage"},{"astId":1102,"contract":"contracts/VRFv2Consumer.sol:VRFv2Consumer","label":"lastRequestId","offset":0,"slot":"5","type":"t_uint256"},{"astId":1104,"contract":"contracts/VRFv2Consumer.sol:VRFv2Consumer","label":"allowedContract","offset":0,"slot":"6","type":"t_address"},{"astId":1107,"contract":"contracts/VRFv2Consumer.sol:VRFv2Consumer","label":"isAllowedContractSet","offset":20,"slot":"6","type":"t_bool"},{"astId":1110,"contract":"contracts/VRFv2Consumer.sol:VRFv2Consumer","label":"keyHash","offset":0,"slot":"7","type":"t_bytes32"},{"astId":1113,"contract":"contracts/VRFv2Consumer.sol:VRFv2Consumer","label":"callbackGasLimit","offset":0,"slot":"8","type":"t_uint32"},{"astId":1116,"contract":"contracts/VRFv2Consumer.sol:VRFv2Consumer","label":"requestConfirmations","offset":4,"slot":"8","type":"t_uint16"},{"astId":1119,"contract":"contracts/VRFv2Consumer.sol:VRFv2Consumer","label":"numWords","offset":6,"slot":"8","type":"t_uint32"}],"types":{"t_address":{"encoding":"inplace","label":"address","numberOfBytes":"20"},"t_array(t_uint256)dyn_storage":{"base":"t_uint256","encoding":"dynamic_array","label":"uint256[]","numberOfBytes":"32"},"t_bool":{"encoding":"inplace","label":"bool","numberOfBytes":"1"},"t_bytes32":{"encoding":"inplace","label":"bytes32","numberOfBytes":"32"},"t_contract(VRFCoordinatorV2Interface)397":{"encoding":"inplace","label":"contract VRFCoordinatorV2Interface","numberOfBytes":"20"},"t_mapping(t_uint256,t_struct(RequestStatus)1087_storage)":{"encoding":"mapping","key":"t_uint256","label":"mapping(uint256 => struct VRFv2Consumer.RequestStatus)","numberOfBytes":"32","value":"t_struct(RequestStatus)1087_storage"},"t_struct(RequestStatus)1087_storage":{"encoding":"inplace","label":"struct VRFv2Consumer.RequestStatus","members":[{"astId":1081,"contract":"contracts/VRFv2Consumer.sol:VRFv2Consumer","label":"fulfilled","offset":0,"slot":"0","type":"t_bool"},{"astId":1083,"contract":"contracts/VRFv2Consumer.sol:VRFv2Consumer","label":"exists","offset":1,"slot":"0","type":"t_bool"},{"astId":1086,"contract":"contracts/VRFv2Consumer.sol:VRFv2Consumer","label":"randomWords","offset":0,"slot":"1","type":"t_array(t_uint256)dyn_storage"}],"numberOfBytes":"64"},"t_uint16":{"encoding":"inplace","label":"uint16","numberOfBytes":"2"},"t_uint256":{"encoding":"inplace","label":"uint256","numberOfBytes":"32"},"t_uint32":{"encoding":"inplace","label":"uint32","numberOfBytes":"4"},"t_uint64":{"encoding":"inplace","label":"uint64","numberOfBytes":"8"}}}}}}