{"contracts/CheckInsurance.sol":{"AutomatedFunctionsConsumer":{"abi":[{"inputs":[{"internalType":"address","name":"oracle","type":"address"},{"internalType":"uint64","name":"_subscriptionId","type":"uint64"},{"internalType":"uint32","name":"_fulfillGasLimit","type":"uint32"},{"internalType":"uint256","name":"_updateInterval","type":"uint256"}],"stateMutability":"nonpayable","type":"constructor"},{"inputs":[],"name":"EmptyArgs","type":"error"},{"inputs":[],"name":"EmptySecrets","type":"error"},{"inputs":[],"name":"EmptySource","type":"error"},{"inputs":[],"name":"NoInlineSecrets","type":"error"},{"inputs":[],"name":"RequestIsAlreadyPending","type":"error"},{"inputs":[],"name":"RequestIsNotPending","type":"error"},{"inputs":[],"name":"SenderIsNotRegistry","type":"error"},{"anonymous":false,"inputs":[{"indexed":true,"internalType":"bytes32","name":"requestId","type":"bytes32"},{"indexed":false,"internalType":"bytes","name":"result","type":"bytes"},{"indexed":false,"internalType":"bytes","name":"err","type":"bytes"}],"name":"OCRResponse","type":"event"},{"anonymous":false,"inputs":[{"indexed":true,"internalType":"address","name":"from","type":"address"},{"indexed":true,"internalType":"address","name":"to","type":"address"}],"name":"OwnershipTransferRequested","type":"event"},{"anonymous":false,"inputs":[{"indexed":true,"internalType":"address","name":"from","type":"address"},{"indexed":true,"internalType":"address","name":"to","type":"address"}],"name":"OwnershipTransferred","type":"event"},{"anonymous":false,"inputs":[{"indexed":true,"internalType":"bytes32","name":"id","type":"bytes32"}],"name":"RequestFulfilled","type":"event"},{"anonymous":false,"inputs":[{"indexed":true,"internalType":"bytes32","name":"id","type":"bytes32"}],"name":"RequestSent","type":"event"},{"inputs":[],"name":"acceptOwnership","outputs":[],"stateMutability":"nonpayable","type":"function"},{"inputs":[{"internalType":"bytes","name":"","type":"bytes"}],"name":"checkUpkeep","outputs":[{"internalType":"bool","name":"upkeepNeeded","type":"bool"},{"internalType":"bytes","name":"","type":"bytes"}],"stateMutability":"view","type":"function"},{"inputs":[{"components":[{"internalType":"enum Functions.Location","name":"codeLocation","type":"uint8"},{"internalType":"enum Functions.Location","name":"secretsLocation","type":"uint8"},{"internalType":"enum Functions.CodeLanguage","name":"language","type":"uint8"},{"internalType":"string","name":"source","type":"string"},{"internalType":"bytes","name":"secrets","type":"bytes"},{"internalType":"string[]","name":"args","type":"string[]"}],"internalType":"struct Functions.Request","name":"req","type":"tuple"},{"internalType":"uint64","name":"subscriptionId","type":"uint64"},{"internalType":"uint32","name":"gasLimit","type":"uint32"},{"internalType":"uint256","name":"gasPrice","type":"uint256"}],"name":"estimateCost","outputs":[{"internalType":"uint96","name":"","type":"uint96"}],"stateMutability":"view","type":"function"},{"inputs":[],"name":"fulfillGasLimit","outputs":[{"internalType":"uint32","name":"","type":"uint32"}],"stateMutability":"view","type":"function"},{"inputs":[{"internalType":"string","name":"source","type":"string"},{"internalType":"bytes","name":"secrets","type":"bytes"},{"internalType":"string[]","name":"args","type":"string[]"}],"name":"generateRequest","outputs":[{"internalType":"bytes","name":"","type":"bytes"}],"stateMutability":"pure","type":"function"},{"inputs":[],"name":"getDONPublicKey","outputs":[{"internalType":"bytes","name":"","type":"bytes"}],"stateMutability":"view","type":"function"},{"inputs":[{"internalType":"bytes32","name":"requestId","type":"bytes32"},{"internalType":"bytes","name":"response","type":"bytes"},{"internalType":"bytes","name":"err","type":"bytes"}],"name":"handleOracleFulfillment","outputs":[],"stateMutability":"nonpayable","type":"function"},{"inputs":[],"name":"lastUpkeepTimeStamp","outputs":[{"internalType":"uint256","name":"","type":"uint256"}],"stateMutability":"view","type":"function"},{"inputs":[],"name":"latestError","outputs":[{"internalType":"bytes","name":"","type":"bytes"}],"stateMutability":"view","type":"function"},{"inputs":[],"name":"latestRequestId","outputs":[{"internalType":"bytes32","name":"","type":"bytes32"}],"stateMutability":"view","type":"function"},{"inputs":[],"name":"latestResponse","outputs":[{"internalType":"bytes","name":"","type":"bytes"}],"stateMutability":"view","type":"function"},{"inputs":[],"name":"owner","outputs":[{"internalType":"address","name":"","type":"address"}],"stateMutability":"view","type":"function"},{"inputs":[{"internalType":"bytes","name":"","type":"bytes"}],"name":"performUpkeep","outputs":[],"stateMutability":"nonpayable","type":"function"},{"inputs":[],"name":"requestCBOR","outputs":[{"internalType":"bytes","name":"","type":"bytes"}],"stateMutability":"view","type":"function"},{"inputs":[],"name":"responseCounter","outputs":[{"internalType":"uint256","name":"","type":"uint256"}],"stateMutability":"view","type":"function"},{"inputs":[{"internalType":"uint64","name":"_subscriptionId","type":"uint64"},{"internalType":"uint32","name":"_fulfillGasLimit","type":"uint32"},{"internalType":"uint256","name":"_updateInterval","type":"uint256"},{"internalType":"bytes","name":"newRequestCBOR","type":"bytes"}],"name":"setRequest","outputs":[],"stateMutability":"nonpayable","type":"function"},{"inputs":[],"name":"subscriptionId","outputs":[{"internalType":"uint64","name":"","type":"uint64"}],"stateMutability":"view","type":"function"},{"inputs":[{"internalType":"address","name":"to","type":"address"}],"name":"transferOwnership","outputs":[],"stateMutability":"nonpayable","type":"function"},{"inputs":[],"name":"updateInterval","outputs":[{"internalType":"uint256","name":"","type":"uint256"}],"stateMutability":"view","type":"function"},{"inputs":[{"internalType":"address","name":"oracle","type":"address"}],"name":"updateOracleAddress","outputs":[],"stateMutability":"nonpayable","type":"function"},{"inputs":[],"name":"upkeepCounter","outputs":[{"internalType":"uint256","name":"","type":"uint256"}],"stateMutability":"view","type":"function"}],"evm":{"bytecode":{"linkReferences":{},"object":"60806040523480156200001157600080fd5b50604051620021e4380380620021e48339810160408190526200003491620001d5565b600080546001600160a01b0319166001600160a01b038616178155339081906001600160a01b038216620000af5760405162461bcd60e51b815260206004820152601860248201527f43616e6e6f7420736574206f776e657220746f207a65726f000000000000000060448201526064015b60405180910390fd5b600280546001600160a01b0319166001600160a01b0384811691909117909155811615620000e257620000e28162000128565b5050506009556008805463ffffffff90921668010000000000000000026001600160601b03199092166001600160401b03909316929092171790555042600a556200024d565b6001600160a01b038116331415620001835760405162461bcd60e51b815260206004820152601760248201527f43616e6e6f74207472616e7366657220746f2073656c660000000000000000006044820152606401620000a6565b600380546001600160a01b0319166001600160a01b03838116918217909255600254604051919216907fed8889f560326eb138920d842192f0eb3dd22b4f139c87a2c57538e05bae127890600090a350565b60008060008060808587031215620001ec57600080fd5b84516001600160a01b03811681146200020457600080fd5b60208601519094506001600160401b03811681146200022257600080fd5b604086015190935063ffffffff811681146200023d57600080fd5b6060959095015193969295505050565b611f87806200025d6000396000f3fe608060405234801561001057600080fd5b50600436106101775760003560e01c80638da5cb5b116100d8578063eb197c771161008c578063fd2c80ae11610066578063fd2c80ae1461030b578063fe08301214610314578063fffeb84e1461032757600080fd5b8063eb197c77146102d2578063f2fde38b146102e5578063f7023bb6146102f857600080fd5b8063bef3a2f0116100bd578063bef3a2f014610292578063d328a91e1461029a578063d4b39175146102a257600080fd5b80638da5cb5b1461026e578063a3d3c0d21461028957600080fd5b8063381fc4b51161012f578063688ecfd111610114578063688ecfd1146102305780636e04ff0d1461024557806379ba50971461026657600080fd5b8063381fc4b5146102145780634585e33b1461021d57600080fd5b80630ca76175116101605780630ca76175146101c55780631aa46f59146101da57806324b93e3e146101e357600080fd5b8063089ea02e1461017c57806309c1ba2e14610198575b600080fd5b610185600a5481565b6040519081526020015b60405180910390f35b6008546101ac9067ffffffffffffffff1681565b60405167ffffffffffffffff909116815260200161018f565b6101d86101d3366004611723565b61032f565b005b61018560055481565b6008546101ff9068010000000000000000900463ffffffff1681565b60405163ffffffff909116815260200161018f565b610185600c5481565b6101d861022b366004611790565b6103d5565b6102386105fb565b60405161018f9190611b3d565b6102586102533660046117d2565b610689565b60405161018f929190611b22565b6101d86106a6565b6002546040516001600160a01b03909116815260200161018f565b610185600b5481565b61023861075b565b610238610768565b6102b56102b0366004611947565b610806565b6040516bffffffffffffffffffffffff909116815260200161018f565b6101d86102e0366004611a59565b61089e565b6101d86102f33660046116d0565b6108f5565b6101d86103063660046116d0565b610909565b61018560095481565b61023861032236600461187e565b61092f565b610238610a29565b60008381526001602052604090205483906001600160a01b03163314610381576040517fa0c5ec6300000000000000000000000000000000000000000000000000000000815260040160405180910390fd5b60008181526001602052604080822080546001600160a01b03191690555182917f85e1543bf2f84fe80c6badbce3648c8539ad1df4d2b3d822938ca0538be727e691a26103cf848484610a36565b50505050565b60006103ef60405180602001604052806000815250610689565b509050806104445760405162461bcd60e51b815260206004820152601560248201527f54696d6520696e74657276616c206e6f74206d6574000000000000000000000060448201526064015b60405180910390fd5b42600a55600b54610456906001611cfa565b600b55600080546008546040517f28242b040000000000000000000000000000000000000000000000000000000081526001600160a01b03909216916328242b04916104c69167ffffffffffffffff8216916004916801000000000000000090910463ffffffff16908201611bb1565b602060405180830381600087803b1580156104e057600080fd5b505af11580156104f4573d6000803e3d6000fd5b505050506040513d601f19601f82011682018060405250810190610518919061170a565b905060008054906101000a90046001600160a01b03166001600160a01b0316635ab1bd536040518163ffffffff1660e01b815260040160206040518083038186803b15801561056657600080fd5b505afa15801561057a573d6000803e3d6000fd5b505050506040513d601f19601f8201168201806040525081019061059e91906116ed565b60008281526001602052604080822080546001600160a01b0319166001600160a01b039490941693909317909255905182917f1131472297a800fee664d1d89cfa8f7676ff07189ecc53f80bbb5f4969099db891a2600555505050565b6004805461060890611e6c565b80601f016020809104026020016040519081016040528092919081815260200182805461063490611e6c565b80156106815780601f1061065657610100808354040283529160200191610681565b820191906000526020600020905b81548152906001019060200180831161066457829003601f168201915b505050505081565b60006060600954600a544261069e9190611e1c565b119150915091565b6003546001600160a01b031633146107005760405162461bcd60e51b815260206004820152601660248201527f4d7573742062652070726f706f736564206f776e657200000000000000000000604482015260640161043b565b600280546001600160a01b0319808216339081179093556003805490911690556040516001600160a01b03909116919082907f8be0079c531659141344cd1fd0a4f28419497f9722a3daafe3b4186f6b6457e090600090a350565b6006805461060890611e6c565b60008054604080517fd328a91e00000000000000000000000000000000000000000000000000000000815290516060936001600160a01b039093169263d328a91e9260048082019391829003018186803b1580156107c557600080fd5b505afa1580156107d9573d6000803e3d6000fd5b505050506040513d6000823e601f3d908101601f191682016040526108019190810190611807565b905090565b600080546001600160a01b031663d227d2458561082288610ab0565b86866040518563ffffffff1660e01b81526004016108439493929190611b75565b60206040518083038186803b15801561085b57600080fd5b505afa15801561086f573d6000803e3d6000fd5b505050506040513d601f19601f820116820180604052508101906108939190611ac8565b90505b949350505050565b6108a6610d7c565b60098390556008805463ffffffff861668010000000000000000026bffffffffffffffffffffffff1990911667ffffffffffffffff8816171790556108ed600483836113f4565b505050505050565b6108fd610d7c565b61090681610dd8565b50565b610911610d7c565b600080546001600160a01b0319166001600160a01b03831617905550565b606061096b6040805160c08101909152806000815260200160008152602001600081526020016060815260200160608152602001606081525090565b6109b26000808a8a8080601f01602080910402602001604051908101604052809392919081815260200183838082843760009201919091525087959493925050610e839050565b84156109fa576109fa86868080601f0160208091040260200160405190810160405280939291908181526020018383808284376000920191909152508593925050610f179050565b8215610a1457610a14610a0d8486611e33565b8290610f5e565b610a1d81610ab0565b98975050505050505050565b6007805461060890611e6c565b8151610a49906006906020850190611478565b508051610a5d906007906020840190611478565b50600c54610a6c906001611cfa565b600c5560405183907f7bab0ec163b5c132c72b8146ac4d6e067e82ed58f8b131150aa71c925891156290610aa39085908590611b50565b60405180910390a2505050565b6060610aba6114ec565b8051610ac890610100610f9e565b50610b08816040518060400160405280600c81526020017f636f64654c6f636174696f6e0000000000000000000000000000000000000000815250611018565b610b278184600001516001811115610b2257610b22611efa565b611036565b610b66816040518060400160405280600881526020017f6c616e6775616765000000000000000000000000000000000000000000000000815250611018565b610b808184604001516000811115610b2257610b22611efa565b610bbf816040518060400160405280600681526020017f736f757263650000000000000000000000000000000000000000000000000000815250611018565b610bcd818460600151611018565b60a08301515115610c7357610c17816040518060400160405280600481526020017f6172677300000000000000000000000000000000000000000000000000000000815250611018565b610c2081611073565b60005b8360a0015151811015610c6957610c57828560a001518381518110610c4a57610c4a611f10565b6020026020010151611018565b80610c6181611ea7565b915050610c23565b50610c7381611097565b60808301515115610d7457600083602001516001811115610c9657610c96611efa565b1415610cce576040517fa80d31f700000000000000000000000000000000000000000000000000000000815260040160405180910390fd5b610d0d816040518060400160405280600f81526020017f736563726574734c6f636174696f6e0000000000000000000000000000000000815250611018565b610d278184602001516001811115610b2257610b22611efa565b610d66816040518060400160405280600781526020017f7365637265747300000000000000000000000000000000000000000000000000815250611018565b610d748184608001516110b5565b515192915050565b6002546001600160a01b03163314610dd65760405162461bcd60e51b815260206004820152601660248201527f4f6e6c792063616c6c61626c65206279206f776e657200000000000000000000604482015260640161043b565b565b6001600160a01b038116331415610e315760405162461bcd60e51b815260206004820152601760248201527f43616e6e6f74207472616e7366657220746f2073656c66000000000000000000604482015260640161043b565b600380546001600160a01b0319166001600160a01b03838116918217909255600254604051919216907fed8889f560326eb138920d842192f0eb3dd22b4f139c87a2c57538e05bae127890600090a350565b8051610ebb576040517f22ce3edd00000000000000000000000000000000000000000000000000000000815260040160405180910390fd5b83836001811115610ece57610ece611efa565b90816001811115610ee157610ee1611efa565b90525060408401828015610ef757610ef7611efa565b90818015610f0757610f07611efa565b9052506060909301929092525050565b8051610f4f576040517fe889636f00000000000000000000000000000000000000000000000000000000815260040160405180910390fd5b60016020830152608090910152565b8051610f96576040517ffe936cb700000000000000000000000000000000000000000000000000000000815260040160405180910390fd5b60a090910152565b604080518082019091526060815260006020820152610fbe602083611ec2565b15610fe657610fce602083611ec2565b610fd9906020611e1c565b610fe39083611cfa565b91505b60208084018390526040518085526000815290818401018181101561100a57600080fd5b604052508290505b92915050565b61102582600383516110be565b815161103190826111df565b505050565b81516110439060c2611207565b5061106f828260405160200161105b91815260200190565b6040516020818303038152906040526110b5565b5050565b61107e816004611270565b6001816020018181516110919190611cfa565b90525050565b6110a2816007611270565b6001816020018181516110919190611e1c565b61102582600283515b60178167ffffffffffffffff16116110e55782516103cf9060e0600585901b168317611207565b60ff8167ffffffffffffffff161161112757825161110e906018611fe0600586901b1617611207565b5082516103cf9067ffffffffffffffff83166001611287565b61ffff8167ffffffffffffffff161161116a578251611151906019611fe0600586901b1617611207565b5082516103cf9067ffffffffffffffff83166002611287565b63ffffffff8167ffffffffffffffff16116111af57825161119690601a611fe0600586901b1617611207565b5082516103cf9067ffffffffffffffff83166004611287565b82516111c690601b611fe0600586901b1617611207565b5082516103cf9067ffffffffffffffff83166008611287565b6040805180820190915260608152600060208201526112008383845161130c565b9392505050565b604080518082019091526060815260006020820152825151600061122c826001611cfa565b90508460200151821061124d5761124d85611248836002611dfd565b6113dd565b8451602083820101858153508051821115611266578181525b5093949350505050565b815161103190601f611fe0600585901b1617611207565b60408051808201909152606081526000602082015283515160006112ab8285611cfa565b905085602001518111156112c8576112c886611248836002611dfd565b600060016112d886610100611d55565b6112e29190611e1c565b90508651828101878319825116178152508051831115611300578281525b50959695505050505050565b604080518082019091526060815260006020820152825182111561132f57600080fd5b835151600061133e8483611cfa565b9050856020015181111561135b5761135b86611248836002611dfd565b855180518382016020019160009180851115611375578482525b505050602086015b602086106113b55780518252611394602083611cfa565b91506113a1602082611cfa565b90506113ae602087611e1c565b955061137d565b51815160001960208890036101000a0190811690199190911617905250849150509392505050565b81516113e98383610f9e565b506103cf83826111df565b82805461140090611e6c565b90600052602060002090601f0160209004810192826114225760008555611468565b82601f1061143b5782800160ff19823516178555611468565b82800160010185558215611468579182015b8281111561146857823582559160200191906001019061144d565b50611474929150611521565b5090565b82805461148490611e6c565b90600052602060002090601f0160209004810192826114a65760008555611468565b82601f106114bf57805160ff1916838001178555611468565b82800160010185558215611468579182015b828111156114685782518255916020019190600101906114d1565b6040518060400160405280611514604051806040016040528060608152602001600081525090565b8152602001600081525090565b5b808211156114745760008155600101611522565b600067ffffffffffffffff8084111561155157611551611f26565b8360051b6020611562818301611ca1565b86815293508084018583810189101561157a57600080fd5b60009350835b888110156115b557813586811115611596578586fd5b6115a28b828b0161162b565b8452509183019190830190600101611580565b5050505050509392505050565b600082601f8301126115d357600080fd5b61120083833560208501611536565b60008083601f8401126115f457600080fd5b50813567ffffffffffffffff81111561160c57600080fd5b60208301915083602082850101111561162457600080fd5b9250929050565b600082601f83011261163c57600080fd5b813561164f61164a82611cd2565b611ca1565b81815284602083860101111561166457600080fd5b816020850160208301376000918101602001919091529392505050565b80356001811061169057600080fd5b919050565b80356002811061169057600080fd5b803563ffffffff8116811461169057600080fd5b803567ffffffffffffffff8116811461169057600080fd5b6000602082840312156116e257600080fd5b813561120081611f3c565b6000602082840312156116ff57600080fd5b815161120081611f3c565b60006020828403121561171c57600080fd5b5051919050565b60008060006060848603121561173857600080fd5b83359250602084013567ffffffffffffffff8082111561175757600080fd5b6117638783880161162b565b9350604086013591508082111561177957600080fd5b506117868682870161162b565b9150509250925092565b600080602083850312156117a357600080fd5b823567ffffffffffffffff8111156117ba57600080fd5b6117c6858286016115e2565b90969095509350505050565b6000602082840312156117e457600080fd5b813567ffffffffffffffff8111156117fb57600080fd5b6108968482850161162b565b60006020828403121561181957600080fd5b815167ffffffffffffffff81111561183057600080fd5b8201601f8101841361184157600080fd5b805161184f61164a82611cd2565b81815285602083850101111561186457600080fd5b611875826020830160208601611e40565b95945050505050565b6000806000806000806060878903121561189757600080fd5b863567ffffffffffffffff808211156118af57600080fd5b6118bb8a838b016115e2565b909850965060208901359150808211156118d457600080fd5b6118e08a838b016115e2565b909650945060408901359150808211156118f957600080fd5b818901915089601f83011261190d57600080fd5b81358181111561191c57600080fd5b8a60208260051b850101111561193157600080fd5b6020830194508093505050509295509295509295565b6000806000806080858703121561195d57600080fd5b843567ffffffffffffffff8082111561197557600080fd5b9086019060c0828903121561198957600080fd5b611991611c78565b61199a83611695565b81526119a860208401611695565b60208201526119b960408401611681565b60408201526060830135828111156119d057600080fd5b6119dc8a82860161162b565b6060830152506080830135828111156119f457600080fd5b611a008a82860161162b565b60808301525060a083013582811115611a1857600080fd5b611a248a8286016115c2565b60a0830152509550611a3b915050602086016116b8565b9250611a49604086016116a4565b9396929550929360600135925050565b600080600080600060808688031215611a7157600080fd5b611a7a866116b8565b9450611a88602087016116a4565b935060408601359250606086013567ffffffffffffffff811115611aab57600080fd5b611ab7888289016115e2565b969995985093965092949392505050565b600060208284031215611ada57600080fd5b81516bffffffffffffffffffffffff8116811461120057600080fd5b60008151808452611b0e816020860160208601611e40565b601f01601f19169290920160200192915050565b82151581526040602082015260006108966040830184611af6565b6020815260006112006020830184611af6565b604081526000611b636040830185611af6565b82810360208401526118758185611af6565b67ffffffffffffffff85168152608060208201526000611b986080830186611af6565b63ffffffff949094166040830152506060015292915050565b67ffffffffffffffff84168152600060206060818401526000855481600182811c915080831680611be357607f831692505b858310811415611c0157634e487b7160e01b85526022600452602485fd5b6060880183905260808801818015611c205760018114611c3157611c5c565b60ff19861682528782019650611c5c565b60008c81526020902060005b86811015611c5657815484820152908501908901611c3d565b83019750505b50505063ffffffff881660408801525091935061089692505050565b60405160c0810167ffffffffffffffff81118282101715611c9b57611c9b611f26565b60405290565b604051601f8201601f1916810167ffffffffffffffff81118282101715611cca57611cca611f26565b604052919050565b600067ffffffffffffffff821115611cec57611cec611f26565b50601f01601f191660200190565b60008219821115611d0d57611d0d611ee4565b500190565b600181815b80851115611d4d578160001904821115611d3357611d33611ee4565b80851615611d4057918102915b93841c9390800290611d17565b509250929050565b60006112008383600082611d6b57506001611012565b81611d7857506000611012565b8160018114611d8e5760028114611d9857611db4565b6001915050611012565b60ff841115611da957611da9611ee4565b50506001821b611012565b5060208310610133831016604e8410600b8410161715611dd7575081810a611012565b611de18383611d12565b8060001904821115611df557611df5611ee4565b029392505050565b6000816000190483118215151615611e1757611e17611ee4565b500290565b600082821015611e2e57611e2e611ee4565b500390565b6000611200368484611536565b60005b83811015611e5b578181015183820152602001611e43565b838111156103cf5750506000910152565b600181811c90821680611e8057607f821691505b60208210811415611ea157634e487b7160e01b600052602260045260246000fd5b50919050565b6000600019821415611ebb57611ebb611ee4565b5060010190565b600082611edf57634e487b7160e01b600052601260045260246000fd5b500690565b634e487b7160e01b600052601160045260246000fd5b634e487b7160e01b600052602160045260246000fd5b634e487b7160e01b600052603260045260246000fd5b634e487b7160e01b600052604160045260246000fd5b6001600160a01b038116811461090657600080fdfea26469706673582212209dd9edbc72a75dc943c4bbb0d0ccdbac5a78c719b6b10b3a58f44eccc59e5f0c64736f6c63430008070033","opcodes":"PUSH1 0x80 PUSH1 0x40 MSTORE CALLVALUE DUP1 ISZERO PUSH3 0x11 JUMPI PUSH1 0x0 DUP1 REVERT JUMPDEST POP PUSH1 0x40 MLOAD PUSH3 0x21E4 CODESIZE SUB DUP1 PUSH3 0x21E4 DUP4 CODECOPY DUP2 ADD PUSH1 0x40 DUP2 SWAP1 MSTORE PUSH3 0x34 SWAP2 PUSH3 0x1D5 JUMP JUMPDEST PUSH1 0x0 DUP1 SLOAD PUSH1 0x1 PUSH1 0x1 PUSH1 0xA0 SHL SUB NOT AND PUSH1 0x1 PUSH1 0x1 PUSH1 0xA0 SHL SUB DUP7 AND OR DUP2 SSTORE CALLER SWAP1 DUP2 SWAP1 PUSH1 0x1 PUSH1 0x1 PUSH1 0xA0 SHL SUB DUP3 AND PUSH3 0xAF JUMPI PUSH1 0x40 MLOAD PUSH3 0x461BCD PUSH1 0xE5 SHL DUP2 MSTORE PUSH1 0x20 PUSH1 0x4 DUP3 ADD MSTORE PUSH1 0x18 PUSH1 0x24 DUP3 ADD MSTORE PUSH32 0x43616E6E6F7420736574206F776E657220746F207A65726F0000000000000000 PUSH1 0x44 DUP3 ADD MSTORE PUSH1 0x64 ADD JUMPDEST PUSH1 0x40 MLOAD DUP1 SWAP2 SUB SWAP1 REVERT JUMPDEST PUSH1 0x2 DUP1 SLOAD PUSH1 0x1 PUSH1 0x1 PUSH1 0xA0 SHL SUB NOT AND PUSH1 0x1 PUSH1 0x1 PUSH1 0xA0 SHL SUB DUP5 DUP2 AND SWAP2 SWAP1 SWAP2 OR SWAP1 SWAP2 SSTORE DUP2 AND ISZERO PUSH3 0xE2 JUMPI PUSH3 0xE2 DUP2 PUSH3 0x128 JUMP JUMPDEST POP POP POP PUSH1 0x9 SSTORE PUSH1 0x8 DUP1 SLOAD PUSH4 0xFFFFFFFF SWAP1 SWAP3 AND PUSH9 0x10000000000000000 MUL PUSH1 0x1 PUSH1 0x1 PUSH1 0x60 SHL SUB NOT SWAP1 SWAP3 AND PUSH1 0x1 PUSH1 0x1 PUSH1 0x40 SHL SUB SWAP1 SWAP4 AND SWAP3 SWAP1 SWAP3 OR OR SWAP1 SSTORE POP TIMESTAMP PUSH1 0xA SSTORE PUSH3 0x24D JUMP JUMPDEST PUSH1 0x1 PUSH1 0x1 PUSH1 0xA0 SHL SUB DUP2 AND CALLER EQ ISZERO PUSH3 0x183 JUMPI PUSH1 0x40 MLOAD PUSH3 0x461BCD PUSH1 0xE5 SHL DUP2 MSTORE PUSH1 0x20 PUSH1 0x4 DUP3 ADD MSTORE PUSH1 0x17 PUSH1 0x24 DUP3 ADD MSTORE PUSH32 0x43616E6E6F74207472616E7366657220746F2073656C66000000000000000000 PUSH1 0x44 DUP3 ADD MSTORE PUSH1 0x64 ADD PUSH3 0xA6 JUMP JUMPDEST PUSH1 0x3 DUP1 SLOAD PUSH1 0x1 PUSH1 0x1 PUSH1 0xA0 SHL SUB NOT AND PUSH1 0x1 PUSH1 0x1 PUSH1 0xA0 SHL SUB DUP4 DUP2 AND SWAP2 DUP3 OR SWAP1 SWAP3 SSTORE PUSH1 0x2 SLOAD PUSH1 0x40 MLOAD SWAP2 SWAP3 AND SWAP1 PUSH32 0xED8889F560326EB138920D842192F0EB3DD22B4F139C87A2C57538E05BAE1278 SWAP1 PUSH1 0x0 SWAP1 LOG3 POP JUMP JUMPDEST PUSH1 0x0 DUP1 PUSH1 0x0 DUP1 PUSH1 0x80 DUP6 DUP8 SUB SLT ISZERO PUSH3 0x1EC JUMPI PUSH1 0x0 DUP1 REVERT JUMPDEST DUP5 MLOAD PUSH1 0x1 PUSH1 0x1 PUSH1 0xA0 SHL SUB DUP2 AND DUP2 EQ PUSH3 0x204 JUMPI PUSH1 0x0 DUP1 REVERT JUMPDEST PUSH1 0x20 DUP7 ADD MLOAD SWAP1 SWAP5 POP PUSH1 0x1 PUSH1 0x1 PUSH1 0x40 SHL SUB DUP2 AND DUP2 EQ PUSH3 0x222 JUMPI PUSH1 0x0 DUP1 REVERT JUMPDEST PUSH1 0x40 DUP7 ADD MLOAD SWAP1 SWAP4 POP PUSH4 0xFFFFFFFF DUP2 AND DUP2 EQ PUSH3 0x23D JUMPI PUSH1 0x0 DUP1 REVERT JUMPDEST PUSH1 0x60 SWAP6 SWAP1 SWAP6 ADD MLOAD SWAP4 SWAP7 SWAP3 SWAP6 POP POP POP JUMP JUMPDEST PUSH2 0x1F87 DUP1 PUSH3 0x25D PUSH1 0x0 CODECOPY PUSH1 0x0 RETURN INVALID PUSH1 0x80 PUSH1 0x40 MSTORE CALLVALUE DUP1 ISZERO PUSH2 0x10 JUMPI PUSH1 0x0 DUP1 REVERT JUMPDEST POP PUSH1 0x4 CALLDATASIZE LT PUSH2 0x177 JUMPI PUSH1 0x0 CALLDATALOAD PUSH1 0xE0 SHR DUP1 PUSH4 0x8DA5CB5B GT PUSH2 0xD8 JUMPI DUP1 PUSH4 0xEB197C77 GT PUSH2 0x8C JUMPI DUP1 PUSH4 0xFD2C80AE GT PUSH2 0x66 JUMPI DUP1 PUSH4 0xFD2C80AE EQ PUSH2 0x30B JUMPI DUP1 PUSH4 0xFE083012 EQ PUSH2 0x314 JUMPI DUP1 PUSH4 0xFFFEB84E EQ PUSH2 0x327 JUMPI PUSH1 0x0 DUP1 REVERT JUMPDEST DUP1 PUSH4 0xEB197C77 EQ PUSH2 0x2D2 JUMPI DUP1 PUSH4 0xF2FDE38B EQ PUSH2 0x2E5 JUMPI DUP1 PUSH4 0xF7023BB6 EQ PUSH2 0x2F8 JUMPI PUSH1 0x0 DUP1 REVERT JUMPDEST DUP1 PUSH4 0xBEF3A2F0 GT PUSH2 0xBD JUMPI DUP1 PUSH4 0xBEF3A2F0 EQ PUSH2 0x292 JUMPI DUP1 PUSH4 0xD328A91E EQ PUSH2 0x29A JUMPI DUP1 PUSH4 0xD4B39175 EQ PUSH2 0x2A2 JUMPI PUSH1 0x0 DUP1 REVERT JUMPDEST DUP1 PUSH4 0x8DA5CB5B EQ PUSH2 0x26E JUMPI DUP1 PUSH4 0xA3D3C0D2 EQ PUSH2 0x289 JUMPI PUSH1 0x0 DUP1 REVERT JUMPDEST DUP1 PUSH4 0x381FC4B5 GT PUSH2 0x12F JUMPI DUP1 PUSH4 0x688ECFD1 GT PUSH2 0x114 JUMPI DUP1 PUSH4 0x688ECFD1 EQ PUSH2 0x230 JUMPI DUP1 PUSH4 0x6E04FF0D EQ PUSH2 0x245 JUMPI DUP1 PUSH4 0x79BA5097 EQ PUSH2 0x266 JUMPI PUSH1 0x0 DUP1 REVERT JUMPDEST DUP1 PUSH4 0x381FC4B5 EQ PUSH2 0x214 JUMPI DUP1 PUSH4 0x4585E33B EQ PUSH2 0x21D JUMPI PUSH1 0x0 DUP1 REVERT JUMPDEST DUP1 PUSH4 0xCA76175 GT PUSH2 0x160 JUMPI DUP1 PUSH4 0xCA76175 EQ PUSH2 0x1C5 JUMPI DUP1 PUSH4 0x1AA46F59 EQ PUSH2 0x1DA JUMPI DUP1 PUSH4 0x24B93E3E EQ PUSH2 0x1E3 JUMPI PUSH1 0x0 DUP1 REVERT JUMPDEST DUP1 PUSH4 0x89EA02E EQ PUSH2 0x17C JUMPI DUP1 PUSH4 0x9C1BA2E EQ PUSH2 0x198 JUMPI JUMPDEST PUSH1 0x0 DUP1 REVERT JUMPDEST PUSH2 0x185 PUSH1 0xA SLOAD DUP2 JUMP JUMPDEST PUSH1 0x40 MLOAD SWAP1 DUP2 MSTORE PUSH1 0x20 ADD JUMPDEST PUSH1 0x40 MLOAD DUP1 SWAP2 SUB SWAP1 RETURN JUMPDEST PUSH1 0x8 SLOAD PUSH2 0x1AC SWAP1 PUSH8 0xFFFFFFFFFFFFFFFF AND DUP2 JUMP JUMPDEST PUSH1 0x40 MLOAD PUSH8 0xFFFFFFFFFFFFFFFF SWAP1 SWAP2 AND DUP2 MSTORE PUSH1 0x20 ADD PUSH2 0x18F JUMP JUMPDEST PUSH2 0x1D8 PUSH2 0x1D3 CALLDATASIZE PUSH1 0x4 PUSH2 0x1723 JUMP JUMPDEST PUSH2 0x32F JUMP JUMPDEST STOP JUMPDEST PUSH2 0x185 PUSH1 0x5 SLOAD DUP2 JUMP JUMPDEST PUSH1 0x8 SLOAD PUSH2 0x1FF SWAP1 PUSH9 0x10000000000000000 SWAP1 DIV PUSH4 0xFFFFFFFF AND DUP2 JUMP JUMPDEST PUSH1 0x40 MLOAD PUSH4 0xFFFFFFFF SWAP1 SWAP2 AND DUP2 MSTORE PUSH1 0x20 ADD PUSH2 0x18F JUMP JUMPDEST PUSH2 0x185 PUSH1 0xC SLOAD DUP2 JUMP JUMPDEST PUSH2 0x1D8 PUSH2 0x22B CALLDATASIZE PUSH1 0x4 PUSH2 0x1790 JUMP JUMPDEST PUSH2 0x3D5 JUMP JUMPDEST PUSH2 0x238 PUSH2 0x5FB JUMP JUMPDEST PUSH1 0x40 MLOAD PUSH2 0x18F SWAP2 SWAP1 PUSH2 0x1B3D JUMP JUMPDEST PUSH2 0x258 PUSH2 0x253 CALLDATASIZE PUSH1 0x4 PUSH2 0x17D2 JUMP JUMPDEST PUSH2 0x689 JUMP JUMPDEST PUSH1 0x40 MLOAD PUSH2 0x18F SWAP3 SWAP2 SWAP1 PUSH2 0x1B22 JUMP JUMPDEST PUSH2 0x1D8 PUSH2 0x6A6 JUMP JUMPDEST PUSH1 0x2 SLOAD PUSH1 0x40 MLOAD PUSH1 0x1 PUSH1 0x1 PUSH1 0xA0 SHL SUB SWAP1 SWAP2 AND DUP2 MSTORE PUSH1 0x20 ADD PUSH2 0x18F JUMP JUMPDEST PUSH2 0x185 PUSH1 0xB SLOAD DUP2 JUMP JUMPDEST PUSH2 0x238 PUSH2 0x75B JUMP JUMPDEST PUSH2 0x238 PUSH2 0x768 JUMP JUMPDEST PUSH2 0x2B5 PUSH2 0x2B0 CALLDATASIZE PUSH1 0x4 PUSH2 0x1947 JUMP JUMPDEST PUSH2 0x806 JUMP JUMPDEST PUSH1 0x40 MLOAD PUSH12 0xFFFFFFFFFFFFFFFFFFFFFFFF SWAP1 SWAP2 AND DUP2 MSTORE PUSH1 0x20 ADD PUSH2 0x18F JUMP JUMPDEST PUSH2 0x1D8 PUSH2 0x2E0 CALLDATASIZE PUSH1 0x4 PUSH2 0x1A59 JUMP JUMPDEST PUSH2 0x89E JUMP JUMPDEST PUSH2 0x1D8 PUSH2 0x2F3 CALLDATASIZE PUSH1 0x4 PUSH2 0x16D0 JUMP JUMPDEST PUSH2 0x8F5 JUMP JUMPDEST PUSH2 0x1D8 PUSH2 0x306 CALLDATASIZE PUSH1 0x4 PUSH2 0x16D0 JUMP JUMPDEST PUSH2 0x909 JUMP JUMPDEST PUSH2 0x185 PUSH1 0x9 SLOAD DUP2 JUMP JUMPDEST PUSH2 0x238 PUSH2 0x322 CALLDATASIZE PUSH1 0x4 PUSH2 0x187E JUMP JUMPDEST PUSH2 0x92F JUMP JUMPDEST PUSH2 0x238 PUSH2 0xA29 JUMP JUMPDEST PUSH1 0x0 DUP4 DUP2 MSTORE PUSH1 0x1 PUSH1 0x20 MSTORE PUSH1 0x40 SWAP1 KECCAK256 SLOAD DUP4 SWAP1 PUSH1 0x1 PUSH1 0x1 PUSH1 0xA0 SHL SUB AND CALLER EQ PUSH2 0x381 JUMPI PUSH1 0x40 MLOAD PUSH32 0xA0C5EC6300000000000000000000000000000000000000000000000000000000 DUP2 MSTORE PUSH1 0x4 ADD PUSH1 0x40 MLOAD DUP1 SWAP2 SUB SWAP1 REVERT JUMPDEST PUSH1 0x0 DUP2 DUP2 MSTORE PUSH1 0x1 PUSH1 0x20 MSTORE PUSH1 0x40 DUP1 DUP3 KECCAK256 DUP1 SLOAD PUSH1 0x1 PUSH1 0x1 PUSH1 0xA0 SHL SUB NOT AND SWAP1 SSTORE MLOAD DUP3 SWAP2 PUSH32 0x85E1543BF2F84FE80C6BADBCE3648C8539AD1DF4D2B3D822938CA0538BE727E6 SWAP2 LOG2 PUSH2 0x3CF DUP5 DUP5 DUP5 PUSH2 0xA36 JUMP JUMPDEST POP POP POP POP JUMP JUMPDEST PUSH1 0x0 PUSH2 0x3EF PUSH1 0x40 MLOAD DUP1 PUSH1 0x20 ADD PUSH1 0x40 MSTORE DUP1 PUSH1 0x0 DUP2 MSTORE POP PUSH2 0x689 JUMP JUMPDEST POP SWAP1 POP DUP1 PUSH2 0x444 JUMPI PUSH1 0x40 MLOAD PUSH3 0x461BCD PUSH1 0xE5 SHL DUP2 MSTORE PUSH1 0x20 PUSH1 0x4 DUP3 ADD MSTORE PUSH1 0x15 PUSH1 0x24 DUP3 ADD MSTORE PUSH32 0x54696D6520696E74657276616C206E6F74206D65740000000000000000000000 PUSH1 0x44 DUP3 ADD MSTORE PUSH1 0x64 ADD JUMPDEST PUSH1 0x40 MLOAD DUP1 SWAP2 SUB SWAP1 REVERT JUMPDEST TIMESTAMP PUSH1 0xA SSTORE PUSH1 0xB SLOAD PUSH2 0x456 SWAP1 PUSH1 0x1 PUSH2 0x1CFA JUMP JUMPDEST PUSH1 0xB SSTORE PUSH1 0x0 DUP1 SLOAD PUSH1 0x8 SLOAD PUSH1 0x40 MLOAD PUSH32 0x28242B0400000000000000000000000000000000000000000000000000000000 DUP2 MSTORE PUSH1 0x1 PUSH1 0x1 PUSH1 0xA0 SHL SUB SWAP1 SWAP3 AND SWAP2 PUSH4 0x28242B04 SWAP2 PUSH2 0x4C6 SWAP2 PUSH8 0xFFFFFFFFFFFFFFFF DUP3 AND SWAP2 PUSH1 0x4 SWAP2 PUSH9 0x10000000000000000 SWAP1 SWAP2 DIV PUSH4 0xFFFFFFFF AND SWAP1 DUP3 ADD PUSH2 0x1BB1 JUMP JUMPDEST PUSH1 0x20 PUSH1 0x40 MLOAD DUP1 DUP4 SUB DUP2 PUSH1 0x0 DUP8 DUP1 EXTCODESIZE ISZERO DUP1 ISZERO PUSH2 0x4E0 JUMPI PUSH1 0x0 DUP1 REVERT JUMPDEST POP GAS CALL ISZERO DUP1 ISZERO PUSH2 0x4F4 JUMPI RETURNDATASIZE PUSH1 0x0 DUP1 RETURNDATACOPY RETURNDATASIZE PUSH1 0x0 REVERT JUMPDEST POP POP POP POP PUSH1 0x40 MLOAD RETURNDATASIZE PUSH1 0x1F NOT PUSH1 0x1F DUP3 ADD AND DUP3 ADD DUP1 PUSH1 0x40 MSTORE POP DUP2 ADD SWAP1 PUSH2 0x518 SWAP2 SWAP1 PUSH2 0x170A JUMP JUMPDEST SWAP1 POP PUSH1 0x0 DUP1 SLOAD SWAP1 PUSH2 0x100 EXP SWAP1 DIV PUSH1 0x1 PUSH1 0x1 PUSH1 0xA0 SHL SUB AND PUSH1 0x1 PUSH1 0x1 PUSH1 0xA0 SHL SUB AND PUSH4 0x5AB1BD53 PUSH1 0x40 MLOAD DUP2 PUSH4 0xFFFFFFFF AND PUSH1 0xE0 SHL DUP2 MSTORE PUSH1 0x4 ADD PUSH1 0x20 PUSH1 0x40 MLOAD DUP1 DUP4 SUB DUP2 DUP7 DUP1 EXTCODESIZE ISZERO DUP1 ISZERO PUSH2 0x566 JUMPI PUSH1 0x0 DUP1 REVERT JUMPDEST POP GAS STATICCALL ISZERO DUP1 ISZERO PUSH2 0x57A JUMPI RETURNDATASIZE PUSH1 0x0 DUP1 RETURNDATACOPY RETURNDATASIZE PUSH1 0x0 REVERT JUMPDEST POP POP POP POP PUSH1 0x40 MLOAD RETURNDATASIZE PUSH1 0x1F NOT PUSH1 0x1F DUP3 ADD AND DUP3 ADD DUP1 PUSH1 0x40 MSTORE POP DUP2 ADD SWAP1 PUSH2 0x59E SWAP2 SWAP1 PUSH2 0x16ED JUMP JUMPDEST PUSH1 0x0 DUP3 DUP2 MSTORE PUSH1 0x1 PUSH1 0x20 MSTORE PUSH1 0x40 DUP1 DUP3 KECCAK256 DUP1 SLOAD PUSH1 0x1 PUSH1 0x1 PUSH1 0xA0 SHL SUB NOT AND PUSH1 0x1 PUSH1 0x1 PUSH1 0xA0 SHL SUB SWAP5 SWAP1 SWAP5 AND SWAP4 SWAP1 SWAP4 OR SWAP1 SWAP3 SSTORE SWAP1 MLOAD DUP3 SWAP2 PUSH32 0x1131472297A800FEE664D1D89CFA8F7676FF07189ECC53F80BBB5F4969099DB8 SWAP2 LOG2 PUSH1 0x5 SSTORE POP POP POP JUMP JUMPDEST PUSH1 0x4 DUP1 SLOAD PUSH2 0x608 SWAP1 PUSH2 0x1E6C JUMP JUMPDEST DUP1 PUSH1 0x1F ADD PUSH1 0x20 DUP1 SWAP2 DIV MUL PUSH1 0x20 ADD PUSH1 0x40 MLOAD SWAP1 DUP2 ADD PUSH1 0x40 MSTORE DUP1 SWAP3 SWAP2 SWAP1 DUP2 DUP2 MSTORE PUSH1 0x20 ADD DUP3 DUP1 SLOAD PUSH2 0x634 SWAP1 PUSH2 0x1E6C JUMP JUMPDEST DUP1 ISZERO PUSH2 0x681 JUMPI DUP1 PUSH1 0x1F LT PUSH2 0x656 JUMPI PUSH2 0x100 DUP1 DUP4 SLOAD DIV MUL DUP4 MSTORE SWAP2 PUSH1 0x20 ADD SWAP2 PUSH2 0x681 JUMP JUMPDEST DUP3 ADD SWAP2 SWAP1 PUSH1 0x0 MSTORE PUSH1 0x20 PUSH1 0x0 KECCAK256 SWAP1 JUMPDEST DUP2 SLOAD DUP2 MSTORE SWAP1 PUSH1 0x1 ADD SWAP1 PUSH1 0x20 ADD DUP1 DUP4 GT PUSH2 0x664 JUMPI DUP3 SWAP1 SUB PUSH1 0x1F AND DUP3 ADD SWAP2 JUMPDEST POP POP POP POP POP DUP2 JUMP JUMPDEST PUSH1 0x0 PUSH1 0x60 PUSH1 0x9 SLOAD PUSH1 0xA SLOAD TIMESTAMP PUSH2 0x69E SWAP2 SWAP1 PUSH2 0x1E1C JUMP JUMPDEST GT SWAP2 POP SWAP2 POP SWAP2 JUMP JUMPDEST PUSH1 0x3 SLOAD PUSH1 0x1 PUSH1 0x1 PUSH1 0xA0 SHL SUB AND CALLER EQ PUSH2 0x700 JUMPI PUSH1 0x40 MLOAD PUSH3 0x461BCD PUSH1 0xE5 SHL DUP2 MSTORE PUSH1 0x20 PUSH1 0x4 DUP3 ADD MSTORE PUSH1 0x16 PUSH1 0x24 DUP3 ADD MSTORE PUSH32 0x4D7573742062652070726F706F736564206F776E657200000000000000000000 PUSH1 0x44 DUP3 ADD MSTORE PUSH1 0x64 ADD PUSH2 0x43B JUMP JUMPDEST PUSH1 0x2 DUP1 SLOAD PUSH1 0x1 PUSH1 0x1 PUSH1 0xA0 SHL SUB NOT DUP1 DUP3 AND CALLER SWAP1 DUP2 OR SWAP1 SWAP4 SSTORE PUSH1 0x3 DUP1 SLOAD SWAP1 SWAP2 AND SWAP1 SSTORE PUSH1 0x40 MLOAD PUSH1 0x1 PUSH1 0x1 PUSH1 0xA0 SHL SUB SWAP1 SWAP2 AND SWAP2 SWAP1 DUP3 SWAP1 PUSH32 0x8BE0079C531659141344CD1FD0A4F28419497F9722A3DAAFE3B4186F6B6457E0 SWAP1 PUSH1 0x0 SWAP1 LOG3 POP JUMP JUMPDEST PUSH1 0x6 DUP1 SLOAD PUSH2 0x608 SWAP1 PUSH2 0x1E6C JUMP JUMPDEST PUSH1 0x0 DUP1 SLOAD PUSH1 0x40 DUP1 MLOAD PUSH32 0xD328A91E00000000000000000000000000000000000000000000000000000000 DUP2 MSTORE SWAP1 MLOAD PUSH1 0x60 SWAP4 PUSH1 0x1 PUSH1 0x1 PUSH1 0xA0 SHL SUB SWAP1 SWAP4 AND SWAP3 PUSH4 0xD328A91E SWAP3 PUSH1 0x4 DUP1 DUP3 ADD SWAP4 SWAP2 DUP3 SWAP1 SUB ADD DUP2 DUP7 DUP1 EXTCODESIZE ISZERO DUP1 ISZERO PUSH2 0x7C5 JUMPI PUSH1 0x0 DUP1 REVERT JUMPDEST POP GAS STATICCALL ISZERO DUP1 ISZERO PUSH2 0x7D9 JUMPI RETURNDATASIZE PUSH1 0x0 DUP1 RETURNDATACOPY RETURNDATASIZE PUSH1 0x0 REVERT JUMPDEST POP POP POP POP PUSH1 0x40 MLOAD RETURNDATASIZE PUSH1 0x0 DUP3 RETURNDATACOPY PUSH1 0x1F RETURNDATASIZE SWAP1 DUP2 ADD PUSH1 0x1F NOT AND DUP3 ADD PUSH1 0x40 MSTORE PUSH2 0x801 SWAP2 SWAP1 DUP2 ADD SWAP1 PUSH2 0x1807 JUMP JUMPDEST SWAP1 POP SWAP1 JUMP JUMPDEST PUSH1 0x0 DUP1 SLOAD PUSH1 0x1 PUSH1 0x1 PUSH1 0xA0 SHL SUB AND PUSH4 0xD227D245 DUP6 PUSH2 0x822 DUP9 PUSH2 0xAB0 JUMP JUMPDEST DUP7 DUP7 PUSH1 0x40 MLOAD DUP6 PUSH4 0xFFFFFFFF AND PUSH1 0xE0 SHL DUP2 MSTORE PUSH1 0x4 ADD PUSH2 0x843 SWAP5 SWAP4 SWAP3 SWAP2 SWAP1 PUSH2 0x1B75 JUMP JUMPDEST PUSH1 0x20 PUSH1 0x40 MLOAD DUP1 DUP4 SUB DUP2 DUP7 DUP1 EXTCODESIZE ISZERO DUP1 ISZERO PUSH2 0x85B JUMPI PUSH1 0x0 DUP1 REVERT JUMPDEST POP GAS STATICCALL ISZERO DUP1 ISZERO PUSH2 0x86F JUMPI RETURNDATASIZE PUSH1 0x0 DUP1 RETURNDATACOPY RETURNDATASIZE PUSH1 0x0 REVERT JUMPDEST POP POP POP POP PUSH1 0x40 MLOAD RETURNDATASIZE PUSH1 0x1F NOT PUSH1 0x1F DUP3 ADD AND DUP3 ADD DUP1 PUSH1 0x40 MSTORE POP DUP2 ADD SWAP1 PUSH2 0x893 SWAP2 SWAP1 PUSH2 0x1AC8 JUMP JUMPDEST SWAP1 POP JUMPDEST SWAP5 SWAP4 POP POP POP POP JUMP JUMPDEST PUSH2 0x8A6 PUSH2 0xD7C JUMP JUMPDEST PUSH1 0x9 DUP4 SWAP1 SSTORE PUSH1 0x8 DUP1 SLOAD PUSH4 0xFFFFFFFF DUP7 AND PUSH9 0x10000000000000000 MUL PUSH12 0xFFFFFFFFFFFFFFFFFFFFFFFF NOT SWAP1 SWAP2 AND PUSH8 0xFFFFFFFFFFFFFFFF DUP9 AND OR OR SWAP1 SSTORE PUSH2 0x8ED PUSH1 0x4 DUP4 DUP4 PUSH2 0x13F4 JUMP JUMPDEST POP POP POP POP POP POP JUMP JUMPDEST PUSH2 0x8FD PUSH2 0xD7C JUMP JUMPDEST PUSH2 0x906 DUP2 PUSH2 0xDD8 JUMP JUMPDEST POP JUMP JUMPDEST PUSH2 0x911 PUSH2 0xD7C JUMP JUMPDEST PUSH1 0x0 DUP1 SLOAD PUSH1 0x1 PUSH1 0x1 PUSH1 0xA0 SHL SUB NOT AND PUSH1 0x1 PUSH1 0x1 PUSH1 0xA0 SHL SUB DUP4 AND OR SWAP1 SSTORE POP JUMP JUMPDEST PUSH1 0x60 PUSH2 0x96B PUSH1 0x40 DUP1 MLOAD PUSH1 0xC0 DUP2 ADD SWAP1 SWAP2 MSTORE DUP1 PUSH1 0x0 DUP2 MSTORE PUSH1 0x20 ADD PUSH1 0x0 DUP2 MSTORE PUSH1 0x20 ADD PUSH1 0x0 DUP2 MSTORE PUSH1 0x20 ADD PUSH1 0x60 DUP2 MSTORE PUSH1 0x20 ADD PUSH1 0x60 DUP2 MSTORE PUSH1 0x20 ADD PUSH1 0x60 DUP2 MSTORE POP SWAP1 JUMP JUMPDEST PUSH2 0x9B2 PUSH1 0x0 DUP1 DUP11 DUP11 DUP1 DUP1 PUSH1 0x1F ADD PUSH1 0x20 DUP1 SWAP2 DIV MUL PUSH1 0x20 ADD PUSH1 0x40 MLOAD SWAP1 DUP2 ADD PUSH1 0x40 MSTORE DUP1 SWAP4 SWAP3 SWAP2 SWAP1 DUP2 DUP2 MSTORE PUSH1 0x20 ADD DUP4 DUP4 DUP1 DUP3 DUP5 CALLDATACOPY PUSH1 0x0 SWAP3 ADD SWAP2 SWAP1 SWAP2 MSTORE POP DUP8 SWAP6 SWAP5 SWAP4 SWAP3 POP POP PUSH2 0xE83 SWAP1 POP JUMP JUMPDEST DUP5 ISZERO PUSH2 0x9FA JUMPI PUSH2 0x9FA DUP7 DUP7 DUP1 DUP1 PUSH1 0x1F ADD PUSH1 0x20 DUP1 SWAP2 DIV MUL PUSH1 0x20 ADD PUSH1 0x40 MLOAD SWAP1 DUP2 ADD PUSH1 0x40 MSTORE DUP1 SWAP4 SWAP3 SWAP2 SWAP1 DUP2 DUP2 MSTORE PUSH1 0x20 ADD DUP4 DUP4 DUP1 DUP3 DUP5 CALLDATACOPY PUSH1 0x0 SWAP3 ADD SWAP2 SWAP1 SWAP2 MSTORE POP DUP6 SWAP4 SWAP3 POP POP PUSH2 0xF17 SWAP1 POP JUMP JUMPDEST DUP3 ISZERO PUSH2 0xA14 JUMPI PUSH2 0xA14 PUSH2 0xA0D DUP5 DUP7 PUSH2 0x1E33 JUMP JUMPDEST DUP3 SWAP1 PUSH2 0xF5E JUMP JUMPDEST PUSH2 0xA1D DUP2 PUSH2 0xAB0 JUMP JUMPDEST SWAP9 SWAP8 POP POP POP POP POP POP POP POP JUMP JUMPDEST PUSH1 0x7 DUP1 SLOAD PUSH2 0x608 SWAP1 PUSH2 0x1E6C JUMP JUMPDEST DUP2 MLOAD PUSH2 0xA49 SWAP1 PUSH1 0x6 SWAP1 PUSH1 0x20 DUP6 ADD SWAP1 PUSH2 0x1478 JUMP JUMPDEST POP DUP1 MLOAD PUSH2 0xA5D SWAP1 PUSH1 0x7 SWAP1 PUSH1 0x20 DUP5 ADD SWAP1 PUSH2 0x1478 JUMP JUMPDEST POP PUSH1 0xC SLOAD PUSH2 0xA6C SWAP1 PUSH1 0x1 PUSH2 0x1CFA JUMP JUMPDEST PUSH1 0xC SSTORE PUSH1 0x40 MLOAD DUP4 SWAP1 PUSH32 0x7BAB0EC163B5C132C72B8146AC4D6E067E82ED58F8B131150AA71C9258911562 SWAP1 PUSH2 0xAA3 SWAP1 DUP6 SWAP1 DUP6 SWAP1 PUSH2 0x1B50 JUMP JUMPDEST PUSH1 0x40 MLOAD DUP1 SWAP2 SUB SWAP1 LOG2 POP POP POP JUMP JUMPDEST PUSH1 0x60 PUSH2 0xABA PUSH2 0x14EC JUMP JUMPDEST DUP1 MLOAD PUSH2 0xAC8 SWAP1 PUSH2 0x100 PUSH2 0xF9E JUMP JUMPDEST POP PUSH2 0xB08 DUP2 PUSH1 0x40 MLOAD DUP1 PUSH1 0x40 ADD PUSH1 0x40 MSTORE DUP1 PUSH1 0xC DUP2 MSTORE PUSH1 0x20 ADD PUSH32 0x636F64654C6F636174696F6E0000000000000000000000000000000000000000 DUP2 MSTORE POP PUSH2 0x1018 JUMP JUMPDEST PUSH2 0xB27 DUP2 DUP5 PUSH1 0x0 ADD MLOAD PUSH1 0x1 DUP2 GT ISZERO PUSH2 0xB22 JUMPI PUSH2 0xB22 PUSH2 0x1EFA JUMP JUMPDEST PUSH2 0x1036 JUMP JUMPDEST PUSH2 0xB66 DUP2 PUSH1 0x40 MLOAD DUP1 PUSH1 0x40 ADD PUSH1 0x40 MSTORE DUP1 PUSH1 0x8 DUP2 MSTORE PUSH1 0x20 ADD PUSH32 0x6C616E6775616765000000000000000000000000000000000000000000000000 DUP2 MSTORE POP PUSH2 0x1018 JUMP JUMPDEST PUSH2 0xB80 DUP2 DUP5 PUSH1 0x40 ADD MLOAD PUSH1 0x0 DUP2 GT ISZERO PUSH2 0xB22 JUMPI PUSH2 0xB22 PUSH2 0x1EFA JUMP JUMPDEST PUSH2 0xBBF DUP2 PUSH1 0x40 MLOAD DUP1 PUSH1 0x40 ADD PUSH1 0x40 MSTORE DUP1 PUSH1 0x6 DUP2 MSTORE PUSH1 0x20 ADD PUSH32 0x736F757263650000000000000000000000000000000000000000000000000000 DUP2 MSTORE POP PUSH2 0x1018 JUMP JUMPDEST PUSH2 0xBCD DUP2 DUP5 PUSH1 0x60 ADD MLOAD PUSH2 0x1018 JUMP JUMPDEST PUSH1 0xA0 DUP4 ADD MLOAD MLOAD ISZERO PUSH2 0xC73 JUMPI PUSH2 0xC17 DUP2 PUSH1 0x40 MLOAD DUP1 PUSH1 0x40 ADD PUSH1 0x40 MSTORE DUP1 PUSH1 0x4 DUP2 MSTORE PUSH1 0x20 ADD PUSH32 0x6172677300000000000000000000000000000000000000000000000000000000 DUP2 MSTORE POP PUSH2 0x1018 JUMP JUMPDEST PUSH2 0xC20 DUP2 PUSH2 0x1073 JUMP JUMPDEST PUSH1 0x0 JUMPDEST DUP4 PUSH1 0xA0 ADD MLOAD MLOAD DUP2 LT ISZERO PUSH2 0xC69 JUMPI PUSH2 0xC57 DUP3 DUP6 PUSH1 0xA0 ADD MLOAD DUP4 DUP2 MLOAD DUP2 LT PUSH2 0xC4A JUMPI PUSH2 0xC4A PUSH2 0x1F10 JUMP JUMPDEST PUSH1 0x20 MUL PUSH1 0x20 ADD ADD MLOAD PUSH2 0x1018 JUMP JUMPDEST DUP1 PUSH2 0xC61 DUP2 PUSH2 0x1EA7 JUMP JUMPDEST SWAP2 POP POP PUSH2 0xC23 JUMP JUMPDEST POP PUSH2 0xC73 DUP2 PUSH2 0x1097 JUMP JUMPDEST PUSH1 0x80 DUP4 ADD MLOAD MLOAD ISZERO PUSH2 0xD74 JUMPI PUSH1 0x0 DUP4 PUSH1 0x20 ADD MLOAD PUSH1 0x1 DUP2 GT ISZERO PUSH2 0xC96 JUMPI PUSH2 0xC96 PUSH2 0x1EFA JUMP JUMPDEST EQ ISZERO PUSH2 0xCCE JUMPI PUSH1 0x40 MLOAD PUSH32 0xA80D31F700000000000000000000000000000000000000000000000000000000 DUP2 MSTORE PUSH1 0x4 ADD PUSH1 0x40 MLOAD DUP1 SWAP2 SUB SWAP1 REVERT JUMPDEST PUSH2 0xD0D DUP2 PUSH1 0x40 MLOAD DUP1 PUSH1 0x40 ADD PUSH1 0x40 MSTORE DUP1 PUSH1 0xF DUP2 MSTORE PUSH1 0x20 ADD PUSH32 0x736563726574734C6F636174696F6E0000000000000000000000000000000000 DUP2 MSTORE POP PUSH2 0x1018 JUMP JUMPDEST PUSH2 0xD27 DUP2 DUP5 PUSH1 0x20 ADD MLOAD PUSH1 0x1 DUP2 GT ISZERO PUSH2 0xB22 JUMPI PUSH2 0xB22 PUSH2 0x1EFA JUMP JUMPDEST PUSH2 0xD66 DUP2 PUSH1 0x40 MLOAD DUP1 PUSH1 0x40 ADD PUSH1 0x40 MSTORE DUP1 PUSH1 0x7 DUP2 MSTORE PUSH1 0x20 ADD PUSH32 0x7365637265747300000000000000000000000000000000000000000000000000 DUP2 MSTORE POP PUSH2 0x1018 JUMP JUMPDEST PUSH2 0xD74 DUP2 DUP5 PUSH1 0x80 ADD MLOAD PUSH2 0x10B5 JUMP JUMPDEST MLOAD MLOAD SWAP3 SWAP2 POP POP JUMP JUMPDEST PUSH1 0x2 SLOAD PUSH1 0x1 PUSH1 0x1 PUSH1 0xA0 SHL SUB AND CALLER EQ PUSH2 0xDD6 JUMPI PUSH1 0x40 MLOAD PUSH3 0x461BCD PUSH1 0xE5 SHL DUP2 MSTORE PUSH1 0x20 PUSH1 0x4 DUP3 ADD MSTORE PUSH1 0x16 PUSH1 0x24 DUP3 ADD MSTORE PUSH32 0x4F6E6C792063616C6C61626C65206279206F776E657200000000000000000000 PUSH1 0x44 DUP3 ADD MSTORE PUSH1 0x64 ADD PUSH2 0x43B JUMP JUMPDEST JUMP JUMPDEST PUSH1 0x1 PUSH1 0x1 PUSH1 0xA0 SHL SUB DUP2 AND CALLER EQ ISZERO PUSH2 0xE31 JUMPI PUSH1 0x40 MLOAD PUSH3 0x461BCD PUSH1 0xE5 SHL DUP2 MSTORE PUSH1 0x20 PUSH1 0x4 DUP3 ADD MSTORE PUSH1 0x17 PUSH1 0x24 DUP3 ADD MSTORE PUSH32 0x43616E6E6F74207472616E7366657220746F2073656C66000000000000000000 PUSH1 0x44 DUP3 ADD MSTORE PUSH1 0x64 ADD PUSH2 0x43B JUMP JUMPDEST PUSH1 0x3 DUP1 SLOAD PUSH1 0x1 PUSH1 0x1 PUSH1 0xA0 SHL SUB NOT AND PUSH1 0x1 PUSH1 0x1 PUSH1 0xA0 SHL SUB DUP4 DUP2 AND SWAP2 DUP3 OR SWAP1 SWAP3 SSTORE PUSH1 0x2 SLOAD PUSH1 0x40 MLOAD SWAP2 SWAP3 AND SWAP1 PUSH32 0xED8889F560326EB138920D842192F0EB3DD22B4F139C87A2C57538E05BAE1278 SWAP1 PUSH1 0x0 SWAP1 LOG3 POP JUMP JUMPDEST DUP1 MLOAD PUSH2 0xEBB JUMPI PUSH1 0x40 MLOAD PUSH32 0x22CE3EDD00000000000000000000000000000000000000000000000000000000 DUP2 MSTORE PUSH1 0x4 ADD PUSH1 0x40 MLOAD DUP1 SWAP2 SUB SWAP1 REVERT JUMPDEST DUP4 DUP4 PUSH1 0x1 DUP2 GT ISZERO PUSH2 0xECE JUMPI PUSH2 0xECE PUSH2 0x1EFA JUMP JUMPDEST SWAP1 DUP2 PUSH1 0x1 DUP2 GT ISZERO PUSH2 0xEE1 JUMPI PUSH2 0xEE1 PUSH2 0x1EFA JUMP JUMPDEST SWAP1 MSTORE POP PUSH1 0x40 DUP5 ADD DUP3 DUP1 ISZERO PUSH2 0xEF7 JUMPI PUSH2 0xEF7 PUSH2 0x1EFA JUMP JUMPDEST SWAP1 DUP2 DUP1 ISZERO PUSH2 0xF07 JUMPI PUSH2 0xF07 PUSH2 0x1EFA JUMP JUMPDEST SWAP1 MSTORE POP PUSH1 0x60 SWAP1 SWAP4 ADD SWAP3 SWAP1 SWAP3 MSTORE POP POP JUMP JUMPDEST DUP1 MLOAD PUSH2 0xF4F JUMPI PUSH1 0x40 MLOAD PUSH32 0xE889636F00000000000000000000000000000000000000000000000000000000 DUP2 MSTORE PUSH1 0x4 ADD PUSH1 0x40 MLOAD DUP1 SWAP2 SUB SWAP1 REVERT JUMPDEST PUSH1 0x1 PUSH1 0x20 DUP4 ADD MSTORE PUSH1 0x80 SWAP1 SWAP2 ADD MSTORE JUMP JUMPDEST DUP1 MLOAD PUSH2 0xF96 JUMPI PUSH1 0x40 MLOAD PUSH32 0xFE936CB700000000000000000000000000000000000000000000000000000000 DUP2 MSTORE PUSH1 0x4 ADD PUSH1 0x40 MLOAD DUP1 SWAP2 SUB SWAP1 REVERT JUMPDEST PUSH1 0xA0 SWAP1 SWAP2 ADD MSTORE JUMP JUMPDEST PUSH1 0x40 DUP1 MLOAD DUP1 DUP3 ADD SWAP1 SWAP2 MSTORE PUSH1 0x60 DUP2 MSTORE PUSH1 0x0 PUSH1 0x20 DUP3 ADD MSTORE PUSH2 0xFBE PUSH1 0x20 DUP4 PUSH2 0x1EC2 JUMP JUMPDEST ISZERO PUSH2 0xFE6 JUMPI PUSH2 0xFCE PUSH1 0x20 DUP4 PUSH2 0x1EC2 JUMP JUMPDEST PUSH2 0xFD9 SWAP1 PUSH1 0x20 PUSH2 0x1E1C JUMP JUMPDEST PUSH2 0xFE3 SWAP1 DUP4 PUSH2 0x1CFA JUMP JUMPDEST SWAP2 POP JUMPDEST PUSH1 0x20 DUP1 DUP5 ADD DUP4 SWAP1 MSTORE PUSH1 0x40 MLOAD DUP1 DUP6 MSTORE PUSH1 0x0 DUP2 MSTORE SWAP1 DUP2 DUP5 ADD ADD DUP2 DUP2 LT ISZERO PUSH2 0x100A JUMPI PUSH1 0x0 DUP1 REVERT JUMPDEST PUSH1 0x40 MSTORE POP DUP3 SWAP1 POP JUMPDEST SWAP3 SWAP2 POP POP JUMP JUMPDEST PUSH2 0x1025 DUP3 PUSH1 0x3 DUP4 MLOAD PUSH2 0x10BE JUMP JUMPDEST DUP2 MLOAD PUSH2 0x1031 SWAP1 DUP3 PUSH2 0x11DF JUMP JUMPDEST POP POP POP JUMP JUMPDEST DUP2 MLOAD PUSH2 0x1043 SWAP1 PUSH1 0xC2 PUSH2 0x1207 JUMP JUMPDEST POP PUSH2 0x106F DUP3 DUP3 PUSH1 0x40 MLOAD PUSH1 0x20 ADD PUSH2 0x105B SWAP2 DUP2 MSTORE PUSH1 0x20 ADD SWAP1 JUMP JUMPDEST PUSH1 0x40 MLOAD PUSH1 0x20 DUP2 DUP4 SUB SUB DUP2 MSTORE SWAP1 PUSH1 0x40 MSTORE PUSH2 0x10B5 JUMP JUMPDEST POP POP JUMP JUMPDEST PUSH2 0x107E DUP2 PUSH1 0x4 PUSH2 0x1270 JUMP JUMPDEST PUSH1 0x1 DUP2 PUSH1 0x20 ADD DUP2 DUP2 MLOAD PUSH2 0x1091 SWAP2 SWAP1 PUSH2 0x1CFA JUMP JUMPDEST SWAP1 MSTORE POP POP JUMP JUMPDEST PUSH2 0x10A2 DUP2 PUSH1 0x7 PUSH2 0x1270 JUMP JUMPDEST PUSH1 0x1 DUP2 PUSH1 0x20 ADD DUP2 DUP2 MLOAD PUSH2 0x1091 SWAP2 SWAP1 PUSH2 0x1E1C JUMP JUMPDEST PUSH2 0x1025 DUP3 PUSH1 0x2 DUP4 MLOAD JUMPDEST PUSH1 0x17 DUP2 PUSH8 0xFFFFFFFFFFFFFFFF AND GT PUSH2 0x10E5 JUMPI DUP3 MLOAD PUSH2 0x3CF SWAP1 PUSH1 0xE0 PUSH1 0x5 DUP6 SWAP1 SHL AND DUP4 OR PUSH2 0x1207 JUMP JUMPDEST PUSH1 0xFF DUP2 PUSH8 0xFFFFFFFFFFFFFFFF AND GT PUSH2 0x1127 JUMPI DUP3 MLOAD PUSH2 0x110E SWAP1 PUSH1 0x18 PUSH2 0x1FE0 PUSH1 0x5 DUP7 SWAP1 SHL AND OR PUSH2 0x1207 JUMP JUMPDEST POP DUP3 MLOAD PUSH2 0x3CF SWAP1 PUSH8 0xFFFFFFFFFFFFFFFF DUP4 AND PUSH1 0x1 PUSH2 0x1287 JUMP JUMPDEST PUSH2 0xFFFF DUP2 PUSH8 0xFFFFFFFFFFFFFFFF AND GT PUSH2 0x116A JUMPI DUP3 MLOAD PUSH2 0x1151 SWAP1 PUSH1 0x19 PUSH2 0x1FE0 PUSH1 0x5 DUP7 SWAP1 SHL AND OR PUSH2 0x1207 JUMP JUMPDEST POP DUP3 MLOAD PUSH2 0x3CF SWAP1 PUSH8 0xFFFFFFFFFFFFFFFF DUP4 AND PUSH1 0x2 PUSH2 0x1287 JUMP JUMPDEST PUSH4 0xFFFFFFFF DUP2 PUSH8 0xFFFFFFFFFFFFFFFF AND GT PUSH2 0x11AF JUMPI DUP3 MLOAD PUSH2 0x1196 SWAP1 PUSH1 0x1A PUSH2 0x1FE0 PUSH1 0x5 DUP7 SWAP1 SHL AND OR PUSH2 0x1207 JUMP JUMPDEST POP DUP3 MLOAD PUSH2 0x3CF SWAP1 PUSH8 0xFFFFFFFFFFFFFFFF DUP4 AND PUSH1 0x4 PUSH2 0x1287 JUMP JUMPDEST DUP3 MLOAD PUSH2 0x11C6 SWAP1 PUSH1 0x1B PUSH2 0x1FE0 PUSH1 0x5 DUP7 SWAP1 SHL AND OR PUSH2 0x1207 JUMP JUMPDEST POP DUP3 MLOAD PUSH2 0x3CF SWAP1 PUSH8 0xFFFFFFFFFFFFFFFF DUP4 AND PUSH1 0x8 PUSH2 0x1287 JUMP JUMPDEST PUSH1 0x40 DUP1 MLOAD DUP1 DUP3 ADD SWAP1 SWAP2 MSTORE PUSH1 0x60 DUP2 MSTORE PUSH1 0x0 PUSH1 0x20 DUP3 ADD MSTORE PUSH2 0x1200 DUP4 DUP4 DUP5 MLOAD PUSH2 0x130C JUMP JUMPDEST SWAP4 SWAP3 POP POP POP JUMP JUMPDEST PUSH1 0x40 DUP1 MLOAD DUP1 DUP3 ADD SWAP1 SWAP2 MSTORE PUSH1 0x60 DUP2 MSTORE PUSH1 0x0 PUSH1 0x20 DUP3 ADD MSTORE DUP3 MLOAD MLOAD PUSH1 0x0 PUSH2 0x122C DUP3 PUSH1 0x1 PUSH2 0x1CFA JUMP JUMPDEST SWAP1 POP DUP5 PUSH1 0x20 ADD MLOAD DUP3 LT PUSH2 0x124D JUMPI PUSH2 0x124D DUP6 PUSH2 0x1248 DUP4 PUSH1 0x2 PUSH2 0x1DFD JUMP JUMPDEST PUSH2 0x13DD JUMP JUMPDEST DUP5 MLOAD PUSH1 0x20 DUP4 DUP3 ADD ADD DUP6 DUP2 MSTORE8 POP DUP1 MLOAD DUP3 GT ISZERO PUSH2 0x1266 JUMPI DUP2 DUP2 MSTORE JUMPDEST POP SWAP4 SWAP5 SWAP4 POP POP POP POP JUMP JUMPDEST DUP2 MLOAD PUSH2 0x1031 SWAP1 PUSH1 0x1F PUSH2 0x1FE0 PUSH1 0x5 DUP6 SWAP1 SHL AND OR PUSH2 0x1207 JUMP JUMPDEST PUSH1 0x40 DUP1 MLOAD DUP1 DUP3 ADD SWAP1 SWAP2 MSTORE PUSH1 0x60 DUP2 MSTORE PUSH1 0x0 PUSH1 0x20 DUP3 ADD MSTORE DUP4 MLOAD MLOAD PUSH1 0x0 PUSH2 0x12AB DUP3 DUP6 PUSH2 0x1CFA JUMP JUMPDEST SWAP1 POP DUP6 PUSH1 0x20 ADD MLOAD DUP2 GT ISZERO PUSH2 0x12C8 JUMPI PUSH2 0x12C8 DUP7 PUSH2 0x1248 DUP4 PUSH1 0x2 PUSH2 0x1DFD JUMP JUMPDEST PUSH1 0x0 PUSH1 0x1 PUSH2 0x12D8 DUP7 PUSH2 0x100 PUSH2 0x1D55 JUMP JUMPDEST PUSH2 0x12E2 SWAP2 SWAP1 PUSH2 0x1E1C JUMP JUMPDEST SWAP1 POP DUP7 MLOAD DUP3 DUP2 ADD DUP8 DUP4 NOT DUP3 MLOAD AND OR DUP2 MSTORE POP DUP1 MLOAD DUP4 GT ISZERO PUSH2 0x1300 JUMPI DUP3 DUP2 MSTORE JUMPDEST POP SWAP6 SWAP7 SWAP6 POP POP POP POP POP POP JUMP JUMPDEST PUSH1 0x40 DUP1 MLOAD DUP1 DUP3 ADD SWAP1 SWAP2 MSTORE PUSH1 0x60 DUP2 MSTORE PUSH1 0x0 PUSH1 0x20 DUP3 ADD MSTORE DUP3 MLOAD DUP3 GT ISZERO PUSH2 0x132F JUMPI PUSH1 0x0 DUP1 REVERT JUMPDEST DUP4 MLOAD MLOAD PUSH1 0x0 PUSH2 0x133E DUP5 DUP4 PUSH2 0x1CFA JUMP JUMPDEST SWAP1 POP DUP6 PUSH1 0x20 ADD MLOAD DUP2 GT ISZERO PUSH2 0x135B JUMPI PUSH2 0x135B DUP7 PUSH2 0x1248 DUP4 PUSH1 0x2 PUSH2 0x1DFD JUMP JUMPDEST DUP6 MLOAD DUP1 MLOAD DUP4 DUP3 ADD PUSH1 0x20 ADD SWAP2 PUSH1 0x0 SWAP2 DUP1 DUP6 GT ISZERO PUSH2 0x1375 JUMPI DUP5 DUP3 MSTORE JUMPDEST POP POP POP PUSH1 0x20 DUP7 ADD JUMPDEST PUSH1 0x20 DUP7 LT PUSH2 0x13B5 JUMPI DUP1 MLOAD DUP3 MSTORE PUSH2 0x1394 PUSH1 0x20 DUP4 PUSH2 0x1CFA JUMP JUMPDEST SWAP2 POP PUSH2 0x13A1 PUSH1 0x20 DUP3 PUSH2 0x1CFA JUMP JUMPDEST SWAP1 POP PUSH2 0x13AE PUSH1 0x20 DUP8 PUSH2 0x1E1C JUMP JUMPDEST SWAP6 POP PUSH2 0x137D JUMP JUMPDEST MLOAD DUP2 MLOAD PUSH1 0x0 NOT PUSH1 0x20 DUP9 SWAP1 SUB PUSH2 0x100 EXP ADD SWAP1 DUP2 AND SWAP1 NOT SWAP2 SWAP1 SWAP2 AND OR SWAP1 MSTORE POP DUP5 SWAP2 POP POP SWAP4 SWAP3 POP POP POP JUMP JUMPDEST DUP2 MLOAD PUSH2 0x13E9 DUP4 DUP4 PUSH2 0xF9E JUMP JUMPDEST POP PUSH2 0x3CF DUP4 DUP3 PUSH2 0x11DF JUMP JUMPDEST DUP3 DUP1 SLOAD PUSH2 0x1400 SWAP1 PUSH2 0x1E6C JUMP JUMPDEST SWAP1 PUSH1 0x0 MSTORE PUSH1 0x20 PUSH1 0x0 KECCAK256 SWAP1 PUSH1 0x1F ADD PUSH1 0x20 SWAP1 DIV DUP2 ADD SWAP3 DUP3 PUSH2 0x1422 JUMPI PUSH1 0x0 DUP6 SSTORE PUSH2 0x1468 JUMP JUMPDEST DUP3 PUSH1 0x1F LT PUSH2 0x143B JUMPI DUP3 DUP1 ADD PUSH1 0xFF NOT DUP3 CALLDATALOAD AND OR DUP6 SSTORE PUSH2 0x1468 JUMP JUMPDEST DUP3 DUP1 ADD PUSH1 0x1 ADD DUP6 SSTORE DUP3 ISZERO PUSH2 0x1468 JUMPI SWAP2 DUP3 ADD JUMPDEST DUP3 DUP2 GT ISZERO PUSH2 0x1468 JUMPI DUP3 CALLDATALOAD DUP3 SSTORE SWAP2 PUSH1 0x20 ADD SWAP2 SWAP1 PUSH1 0x1 ADD SWAP1 PUSH2 0x144D JUMP JUMPDEST POP PUSH2 0x1474 SWAP3 SWAP2 POP PUSH2 0x1521 JUMP JUMPDEST POP SWAP1 JUMP JUMPDEST DUP3 DUP1 SLOAD PUSH2 0x1484 SWAP1 PUSH2 0x1E6C JUMP JUMPDEST SWAP1 PUSH1 0x0 MSTORE PUSH1 0x20 PUSH1 0x0 KECCAK256 SWAP1 PUSH1 0x1F ADD PUSH1 0x20 SWAP1 DIV DUP2 ADD SWAP3 DUP3 PUSH2 0x14A6 JUMPI PUSH1 0x0 DUP6 SSTORE PUSH2 0x1468 JUMP JUMPDEST DUP3 PUSH1 0x1F LT PUSH2 0x14BF JUMPI DUP1 MLOAD PUSH1 0xFF NOT AND DUP4 DUP1 ADD OR DUP6 SSTORE PUSH2 0x1468 JUMP JUMPDEST DUP3 DUP1 ADD PUSH1 0x1 ADD DUP6 SSTORE DUP3 ISZERO PUSH2 0x1468 JUMPI SWAP2 DUP3 ADD JUMPDEST DUP3 DUP2 GT ISZERO PUSH2 0x1468 JUMPI DUP3 MLOAD DUP3 SSTORE SWAP2 PUSH1 0x20 ADD SWAP2 SWAP1 PUSH1 0x1 ADD SWAP1 PUSH2 0x14D1 JUMP JUMPDEST PUSH1 0x40 MLOAD DUP1 PUSH1 0x40 ADD PUSH1 0x40 MSTORE DUP1 PUSH2 0x1514 PUSH1 0x40 MLOAD DUP1 PUSH1 0x40 ADD PUSH1 0x40 MSTORE DUP1 PUSH1 0x60 DUP2 MSTORE PUSH1 0x20 ADD PUSH1 0x0 DUP2 MSTORE POP SWAP1 JUMP JUMPDEST DUP2 MSTORE PUSH1 0x20 ADD PUSH1 0x0 DUP2 MSTORE POP SWAP1 JUMP JUMPDEST JUMPDEST DUP1 DUP3 GT ISZERO PUSH2 0x1474 JUMPI PUSH1 0x0 DUP2 SSTORE PUSH1 0x1 ADD PUSH2 0x1522 JUMP JUMPDEST PUSH1 0x0 PUSH8 0xFFFFFFFFFFFFFFFF DUP1 DUP5 GT ISZERO PUSH2 0x1551 JUMPI PUSH2 0x1551 PUSH2 0x1F26 JUMP JUMPDEST DUP4 PUSH1 0x5 SHL PUSH1 0x20 PUSH2 0x1562 DUP2 DUP4 ADD PUSH2 0x1CA1 JUMP JUMPDEST DUP7 DUP2 MSTORE SWAP4 POP DUP1 DUP5 ADD DUP6 DUP4 DUP2 ADD DUP10 LT ISZERO PUSH2 0x157A JUMPI PUSH1 0x0 DUP1 REVERT JUMPDEST PUSH1 0x0 SWAP4 POP DUP4 JUMPDEST DUP9 DUP2 LT ISZERO PUSH2 0x15B5 JUMPI DUP2 CALLDATALOAD DUP7 DUP2 GT ISZERO PUSH2 0x1596 JUMPI DUP6 DUP7 REVERT JUMPDEST PUSH2 0x15A2 DUP12 DUP3 DUP12 ADD PUSH2 0x162B JUMP JUMPDEST DUP5 MSTORE POP SWAP2 DUP4 ADD SWAP2 SWAP1 DUP4 ADD SWAP1 PUSH1 0x1 ADD PUSH2 0x1580 JUMP JUMPDEST POP POP POP POP POP POP SWAP4 SWAP3 POP POP POP JUMP JUMPDEST PUSH1 0x0 DUP3 PUSH1 0x1F DUP4 ADD SLT PUSH2 0x15D3 JUMPI PUSH1 0x0 DUP1 REVERT JUMPDEST PUSH2 0x1200 DUP4 DUP4 CALLDATALOAD PUSH1 0x20 DUP6 ADD PUSH2 0x1536 JUMP JUMPDEST PUSH1 0x0 DUP1 DUP4 PUSH1 0x1F DUP5 ADD SLT PUSH2 0x15F4 JUMPI PUSH1 0x0 DUP1 REVERT JUMPDEST POP DUP2 CALLDATALOAD PUSH8 0xFFFFFFFFFFFFFFFF DUP2 GT ISZERO PUSH2 0x160C JUMPI PUSH1 0x0 DUP1 REVERT JUMPDEST PUSH1 0x20 DUP4 ADD SWAP2 POP DUP4 PUSH1 0x20 DUP3 DUP6 ADD ADD GT ISZERO PUSH2 0x1624 JUMPI PUSH1 0x0 DUP1 REVERT JUMPDEST SWAP3 POP SWAP3 SWAP1 POP JUMP JUMPDEST PUSH1 0x0 DUP3 PUSH1 0x1F DUP4 ADD SLT PUSH2 0x163C JUMPI PUSH1 0x0 DUP1 REVERT JUMPDEST DUP2 CALLDATALOAD PUSH2 0x164F PUSH2 0x164A DUP3 PUSH2 0x1CD2 JUMP JUMPDEST PUSH2 0x1CA1 JUMP JUMPDEST DUP2 DUP2 MSTORE DUP5 PUSH1 0x20 DUP4 DUP7 ADD ADD GT ISZERO PUSH2 0x1664 JUMPI PUSH1 0x0 DUP1 REVERT JUMPDEST DUP2 PUSH1 0x20 DUP6 ADD PUSH1 0x20 DUP4 ADD CALLDATACOPY PUSH1 0x0 SWAP2 DUP2 ADD PUSH1 0x20 ADD SWAP2 SWAP1 SWAP2 MSTORE SWAP4 SWAP3 POP POP POP JUMP JUMPDEST DUP1 CALLDATALOAD PUSH1 0x1 DUP2 LT PUSH2 0x1690 JUMPI PUSH1 0x0 DUP1 REVERT JUMPDEST SWAP2 SWAP1 POP JUMP JUMPDEST DUP1 CALLDATALOAD PUSH1 0x2 DUP2 LT PUSH2 0x1690 JUMPI PUSH1 0x0 DUP1 REVERT JUMPDEST DUP1 CALLDATALOAD PUSH4 0xFFFFFFFF DUP2 AND DUP2 EQ PUSH2 0x1690 JUMPI PUSH1 0x0 DUP1 REVERT JUMPDEST DUP1 CALLDATALOAD PUSH8 0xFFFFFFFFFFFFFFFF DUP2 AND DUP2 EQ PUSH2 0x1690 JUMPI PUSH1 0x0 DUP1 REVERT JUMPDEST PUSH1 0x0 PUSH1 0x20 DUP3 DUP5 SUB SLT ISZERO PUSH2 0x16E2 JUMPI PUSH1 0x0 DUP1 REVERT JUMPDEST DUP2 CALLDATALOAD PUSH2 0x1200 DUP2 PUSH2 0x1F3C JUMP JUMPDEST PUSH1 0x0 PUSH1 0x20 DUP3 DUP5 SUB SLT ISZERO PUSH2 0x16FF JUMPI PUSH1 0x0 DUP1 REVERT JUMPDEST DUP2 MLOAD PUSH2 0x1200 DUP2 PUSH2 0x1F3C JUMP JUMPDEST PUSH1 0x0 PUSH1 0x20 DUP3 DUP5 SUB SLT ISZERO PUSH2 0x171C JUMPI PUSH1 0x0 DUP1 REVERT JUMPDEST POP MLOAD SWAP2 SWAP1 POP JUMP JUMPDEST PUSH1 0x0 DUP1 PUSH1 0x0 PUSH1 0x60 DUP5 DUP7 SUB SLT ISZERO PUSH2 0x1738 JUMPI PUSH1 0x0 DUP1 REVERT JUMPDEST DUP4 CALLDATALOAD SWAP3 POP PUSH1 0x20 DUP5 ADD CALLDATALOAD PUSH8 0xFFFFFFFFFFFFFFFF DUP1 DUP3 GT ISZERO PUSH2 0x1757 JUMPI PUSH1 0x0 DUP1 REVERT JUMPDEST PUSH2 0x1763 DUP8 DUP4 DUP9 ADD PUSH2 0x162B JUMP JUMPDEST SWAP4 POP PUSH1 0x40 DUP7 ADD CALLDATALOAD SWAP2 POP DUP1 DUP3 GT ISZERO PUSH2 0x1779 JUMPI PUSH1 0x0 DUP1 REVERT JUMPDEST POP PUSH2 0x1786 DUP7 DUP3 DUP8 ADD PUSH2 0x162B JUMP JUMPDEST SWAP2 POP POP SWAP3 POP SWAP3 POP SWAP3 JUMP JUMPDEST PUSH1 0x0 DUP1 PUSH1 0x20 DUP4 DUP6 SUB SLT ISZERO PUSH2 0x17A3 JUMPI PUSH1 0x0 DUP1 REVERT JUMPDEST DUP3 CALLDATALOAD PUSH8 0xFFFFFFFFFFFFFFFF DUP2 GT ISZERO PUSH2 0x17BA JUMPI PUSH1 0x0 DUP1 REVERT JUMPDEST PUSH2 0x17C6 DUP6 DUP3 DUP7 ADD PUSH2 0x15E2 JUMP JUMPDEST SWAP1 SWAP7 SWAP1 SWAP6 POP SWAP4 POP POP POP POP JUMP JUMPDEST PUSH1 0x0 PUSH1 0x20 DUP3 DUP5 SUB SLT ISZERO PUSH2 0x17E4 JUMPI PUSH1 0x0 DUP1 REVERT JUMPDEST DUP2 CALLDATALOAD PUSH8 0xFFFFFFFFFFFFFFFF DUP2 GT ISZERO PUSH2 0x17FB JUMPI PUSH1 0x0 DUP1 REVERT JUMPDEST PUSH2 0x896 DUP5 DUP3 DUP6 ADD PUSH2 0x162B JUMP JUMPDEST PUSH1 0x0 PUSH1 0x20 DUP3 DUP5 SUB SLT ISZERO PUSH2 0x1819 JUMPI PUSH1 0x0 DUP1 REVERT JUMPDEST DUP2 MLOAD PUSH8 0xFFFFFFFFFFFFFFFF DUP2 GT ISZERO PUSH2 0x1830 JUMPI PUSH1 0x0 DUP1 REVERT JUMPDEST DUP3 ADD PUSH1 0x1F DUP2 ADD DUP5 SGT PUSH2 0x1841 JUMPI PUSH1 0x0 DUP1 REVERT JUMPDEST DUP1 MLOAD PUSH2 0x184F PUSH2 0x164A DUP3 PUSH2 0x1CD2 JUMP JUMPDEST DUP2 DUP2 MSTORE DUP6 PUSH1 0x20 DUP4 DUP6 ADD ADD GT ISZERO PUSH2 0x1864 JUMPI PUSH1 0x0 DUP1 REVERT JUMPDEST PUSH2 0x1875 DUP3 PUSH1 0x20 DUP4 ADD PUSH1 0x20 DUP7 ADD PUSH2 0x1E40 JUMP JUMPDEST SWAP6 SWAP5 POP POP POP POP POP JUMP JUMPDEST PUSH1 0x0 DUP1 PUSH1 0x0 DUP1 PUSH1 0x0 DUP1 PUSH1 0x60 DUP8 DUP10 SUB SLT ISZERO PUSH2 0x1897 JUMPI PUSH1 0x0 DUP1 REVERT JUMPDEST DUP7 CALLDATALOAD PUSH8 0xFFFFFFFFFFFFFFFF DUP1 DUP3 GT ISZERO PUSH2 0x18AF JUMPI PUSH1 0x0 DUP1 REVERT JUMPDEST PUSH2 0x18BB DUP11 DUP4 DUP12 ADD PUSH2 0x15E2 JUMP JUMPDEST SWAP1 SWAP9 POP SWAP7 POP PUSH1 0x20 DUP10 ADD CALLDATALOAD SWAP2 POP DUP1 DUP3 GT ISZERO PUSH2 0x18D4 JUMPI PUSH1 0x0 DUP1 REVERT JUMPDEST PUSH2 0x18E0 DUP11 DUP4 DUP12 ADD PUSH2 0x15E2 JUMP JUMPDEST SWAP1 SWAP7 POP SWAP5 POP PUSH1 0x40 DUP10 ADD CALLDATALOAD SWAP2 POP DUP1 DUP3 GT ISZERO PUSH2 0x18F9 JUMPI PUSH1 0x0 DUP1 REVERT JUMPDEST DUP2 DUP10 ADD SWAP2 POP DUP10 PUSH1 0x1F DUP4 ADD SLT PUSH2 0x190D JUMPI PUSH1 0x0 DUP1 REVERT JUMPDEST DUP2 CALLDATALOAD DUP2 DUP2 GT ISZERO PUSH2 0x191C JUMPI PUSH1 0x0 DUP1 REVERT JUMPDEST DUP11 PUSH1 0x20 DUP3 PUSH1 0x5 SHL DUP6 ADD ADD GT ISZERO PUSH2 0x1931 JUMPI PUSH1 0x0 DUP1 REVERT JUMPDEST PUSH1 0x20 DUP4 ADD SWAP5 POP DUP1 SWAP4 POP POP POP POP SWAP3 SWAP6 POP SWAP3 SWAP6 POP SWAP3 SWAP6 JUMP JUMPDEST PUSH1 0x0 DUP1 PUSH1 0x0 DUP1 PUSH1 0x80 DUP6 DUP8 SUB SLT ISZERO PUSH2 0x195D JUMPI PUSH1 0x0 DUP1 REVERT JUMPDEST DUP5 CALLDATALOAD PUSH8 0xFFFFFFFFFFFFFFFF DUP1 DUP3 GT ISZERO PUSH2 0x1975 JUMPI PUSH1 0x0 DUP1 REVERT JUMPDEST SWAP1 DUP7 ADD SWAP1 PUSH1 0xC0 DUP3 DUP10 SUB SLT ISZERO PUSH2 0x1989 JUMPI PUSH1 0x0 DUP1 REVERT JUMPDEST PUSH2 0x1991 PUSH2 0x1C78 JUMP JUMPDEST PUSH2 0x199A DUP4 PUSH2 0x1695 JUMP JUMPDEST DUP2 MSTORE PUSH2 0x19A8 PUSH1 0x20 DUP5 ADD PUSH2 0x1695 JUMP JUMPDEST PUSH1 0x20 DUP3 ADD MSTORE PUSH2 0x19B9 PUSH1 0x40 DUP5 ADD PUSH2 0x1681 JUMP JUMPDEST PUSH1 0x40 DUP3 ADD MSTORE PUSH1 0x60 DUP4 ADD CALLDATALOAD DUP3 DUP2 GT ISZERO PUSH2 0x19D0 JUMPI PUSH1 0x0 DUP1 REVERT JUMPDEST PUSH2 0x19DC DUP11 DUP3 DUP7 ADD PUSH2 0x162B JUMP JUMPDEST PUSH1 0x60 DUP4 ADD MSTORE POP PUSH1 0x80 DUP4 ADD CALLDATALOAD DUP3 DUP2 GT ISZERO PUSH2 0x19F4 JUMPI PUSH1 0x0 DUP1 REVERT JUMPDEST PUSH2 0x1A00 DUP11 DUP3 DUP7 ADD PUSH2 0x162B JUMP JUMPDEST PUSH1 0x80 DUP4 ADD MSTORE POP PUSH1 0xA0 DUP4 ADD CALLDATALOAD DUP3 DUP2 GT ISZERO PUSH2 0x1A18 JUMPI PUSH1 0x0 DUP1 REVERT JUMPDEST PUSH2 0x1A24 DUP11 DUP3 DUP7 ADD PUSH2 0x15C2 JUMP JUMPDEST PUSH1 0xA0 DUP4 ADD MSTORE POP SWAP6 POP PUSH2 0x1A3B SWAP2 POP POP PUSH1 0x20 DUP7 ADD PUSH2 0x16B8 JUMP JUMPDEST SWAP3 POP PUSH2 0x1A49 PUSH1 0x40 DUP7 ADD PUSH2 0x16A4 JUMP JUMPDEST SWAP4 SWAP7 SWAP3 SWAP6 POP SWAP3 SWAP4 PUSH1 0x60 ADD CALLDATALOAD SWAP3 POP POP JUMP JUMPDEST PUSH1 0x0 DUP1 PUSH1 0x0 DUP1 PUSH1 0x0 PUSH1 0x80 DUP7 DUP9 SUB SLT ISZERO PUSH2 0x1A71 JUMPI PUSH1 0x0 DUP1 REVERT JUMPDEST PUSH2 0x1A7A DUP7 PUSH2 0x16B8 JUMP JUMPDEST SWAP5 POP PUSH2 0x1A88 PUSH1 0x20 DUP8 ADD PUSH2 0x16A4 JUMP JUMPDEST SWAP4 POP PUSH1 0x40 DUP7 ADD CALLDATALOAD SWAP3 POP PUSH1 0x60 DUP7 ADD CALLDATALOAD PUSH8 0xFFFFFFFFFFFFFFFF DUP2 GT ISZERO PUSH2 0x1AAB JUMPI PUSH1 0x0 DUP1 REVERT JUMPDEST PUSH2 0x1AB7 DUP9 DUP3 DUP10 ADD PUSH2 0x15E2 JUMP JUMPDEST SWAP7 SWAP10 SWAP6 SWAP9 POP SWAP4 SWAP7 POP SWAP3 SWAP5 SWAP4 SWAP3 POP POP POP JUMP JUMPDEST PUSH1 0x0 PUSH1 0x20 DUP3 DUP5 SUB SLT ISZERO PUSH2 0x1ADA JUMPI PUSH1 0x0 DUP1 REVERT JUMPDEST DUP2 MLOAD PUSH12 0xFFFFFFFFFFFFFFFFFFFFFFFF DUP2 AND DUP2 EQ PUSH2 0x1200 JUMPI PUSH1 0x0 DUP1 REVERT JUMPDEST PUSH1 0x0 DUP2 MLOAD DUP1 DUP5 MSTORE PUSH2 0x1B0E DUP2 PUSH1 0x20 DUP7 ADD PUSH1 0x20 DUP7 ADD PUSH2 0x1E40 JUMP JUMPDEST PUSH1 0x1F ADD PUSH1 0x1F NOT AND SWAP3 SWAP1 SWAP3 ADD PUSH1 0x20 ADD SWAP3 SWAP2 POP POP JUMP JUMPDEST DUP3 ISZERO ISZERO DUP2 MSTORE PUSH1 0x40 PUSH1 0x20 DUP3 ADD MSTORE PUSH1 0x0 PUSH2 0x896 PUSH1 0x40 DUP4 ADD DUP5 PUSH2 0x1AF6 JUMP JUMPDEST PUSH1 0x20 DUP2 MSTORE PUSH1 0x0 PUSH2 0x1200 PUSH1 0x20 DUP4 ADD DUP5 PUSH2 0x1AF6 JUMP JUMPDEST PUSH1 0x40 DUP2 MSTORE PUSH1 0x0 PUSH2 0x1B63 PUSH1 0x40 DUP4 ADD DUP6 PUSH2 0x1AF6 JUMP JUMPDEST DUP3 DUP2 SUB PUSH1 0x20 DUP5 ADD MSTORE PUSH2 0x1875 DUP2 DUP6 PUSH2 0x1AF6 JUMP JUMPDEST PUSH8 0xFFFFFFFFFFFFFFFF DUP6 AND DUP2 MSTORE PUSH1 0x80 PUSH1 0x20 DUP3 ADD MSTORE PUSH1 0x0 PUSH2 0x1B98 PUSH1 0x80 DUP4 ADD DUP7 PUSH2 0x1AF6 JUMP JUMPDEST PUSH4 0xFFFFFFFF SWAP5 SWAP1 SWAP5 AND PUSH1 0x40 DUP4 ADD MSTORE POP PUSH1 0x60 ADD MSTORE SWAP3 SWAP2 POP POP JUMP JUMPDEST PUSH8 0xFFFFFFFFFFFFFFFF DUP5 AND DUP2 MSTORE PUSH1 0x0 PUSH1 0x20 PUSH1 0x60 DUP2 DUP5 ADD MSTORE PUSH1 0x0 DUP6 SLOAD DUP2 PUSH1 0x1 DUP3 DUP2 SHR SWAP2 POP DUP1 DUP4 AND DUP1 PUSH2 0x1BE3 JUMPI PUSH1 0x7F DUP4 AND SWAP3 POP JUMPDEST DUP6 DUP4 LT DUP2 EQ ISZERO PUSH2 0x1C01 JUMPI PUSH4 0x4E487B71 PUSH1 0xE0 SHL DUP6 MSTORE PUSH1 0x22 PUSH1 0x4 MSTORE PUSH1 0x24 DUP6 REVERT JUMPDEST PUSH1 0x60 DUP9 ADD DUP4 SWAP1 MSTORE PUSH1 0x80 DUP9 ADD DUP2 DUP1 ISZERO PUSH2 0x1C20 JUMPI PUSH1 0x1 DUP2 EQ PUSH2 0x1C31 JUMPI PUSH2 0x1C5C JUMP JUMPDEST PUSH1 0xFF NOT DUP7 AND DUP3 MSTORE DUP8 DUP3 ADD SWAP7 POP PUSH2 0x1C5C JUMP JUMPDEST PUSH1 0x0 DUP13 DUP2 MSTORE PUSH1 0x20 SWAP1 KECCAK256 PUSH1 0x0 JUMPDEST DUP7 DUP2 LT ISZERO PUSH2 0x1C56 JUMPI DUP2 SLOAD DUP5 DUP3 ADD MSTORE SWAP1 DUP6 ADD SWAP1 DUP10 ADD PUSH2 0x1C3D JUMP JUMPDEST DUP4 ADD SWAP8 POP POP JUMPDEST POP POP POP PUSH4 0xFFFFFFFF DUP9 AND PUSH1 0x40 DUP9 ADD MSTORE POP SWAP2 SWAP4 POP PUSH2 0x896 SWAP3 POP POP POP JUMP JUMPDEST PUSH1 0x40 MLOAD PUSH1 0xC0 DUP2 ADD PUSH8 0xFFFFFFFFFFFFFFFF DUP2 GT DUP3 DUP3 LT OR ISZERO PUSH2 0x1C9B JUMPI PUSH2 0x1C9B PUSH2 0x1F26 JUMP JUMPDEST PUSH1 0x40 MSTORE SWAP1 JUMP JUMPDEST PUSH1 0x40 MLOAD PUSH1 0x1F DUP3 ADD PUSH1 0x1F NOT AND DUP2 ADD PUSH8 0xFFFFFFFFFFFFFFFF DUP2 GT DUP3 DUP3 LT OR ISZERO PUSH2 0x1CCA JUMPI PUSH2 0x1CCA PUSH2 0x1F26 JUMP JUMPDEST PUSH1 0x40 MSTORE SWAP2 SWAP1 POP JUMP JUMPDEST PUSH1 0x0 PUSH8 0xFFFFFFFFFFFFFFFF DUP3 GT ISZERO PUSH2 0x1CEC JUMPI PUSH2 0x1CEC PUSH2 0x1F26 JUMP JUMPDEST POP PUSH1 0x1F ADD PUSH1 0x1F NOT AND PUSH1 0x20 ADD SWAP1 JUMP JUMPDEST PUSH1 0x0 DUP3 NOT DUP3 GT ISZERO PUSH2 0x1D0D JUMPI PUSH2 0x1D0D PUSH2 0x1EE4 JUMP JUMPDEST POP ADD SWAP1 JUMP JUMPDEST PUSH1 0x1 DUP2 DUP2 JUMPDEST DUP1 DUP6 GT ISZERO PUSH2 0x1D4D JUMPI DUP2 PUSH1 0x0 NOT DIV DUP3 GT ISZERO PUSH2 0x1D33 JUMPI PUSH2 0x1D33 PUSH2 0x1EE4 JUMP JUMPDEST DUP1 DUP6 AND ISZERO PUSH2 0x1D40 JUMPI SWAP2 DUP2 MUL SWAP2 JUMPDEST SWAP4 DUP5 SHR SWAP4 SWAP1 DUP1 MUL SWAP1 PUSH2 0x1D17 JUMP JUMPDEST POP SWAP3 POP SWAP3 SWAP1 POP JUMP JUMPDEST PUSH1 0x0 PUSH2 0x1200 DUP4 DUP4 PUSH1 0x0 DUP3 PUSH2 0x1D6B JUMPI POP PUSH1 0x1 PUSH2 0x1012 JUMP JUMPDEST DUP2 PUSH2 0x1D78 JUMPI POP PUSH1 0x0 PUSH2 0x1012 JUMP JUMPDEST DUP2 PUSH1 0x1 DUP2 EQ PUSH2 0x1D8E JUMPI PUSH1 0x2 DUP2 EQ PUSH2 0x1D98 JUMPI PUSH2 0x1DB4 JUMP JUMPDEST PUSH1 0x1 SWAP2 POP POP PUSH2 0x1012 JUMP JUMPDEST PUSH1 0xFF DUP5 GT ISZERO PUSH2 0x1DA9 JUMPI PUSH2 0x1DA9 PUSH2 0x1EE4 JUMP JUMPDEST POP POP PUSH1 0x1 DUP3 SHL PUSH2 0x1012 JUMP JUMPDEST POP PUSH1 0x20 DUP4 LT PUSH2 0x133 DUP4 LT AND PUSH1 0x4E DUP5 LT PUSH1 0xB DUP5 LT AND OR ISZERO PUSH2 0x1DD7 JUMPI POP DUP2 DUP2 EXP PUSH2 0x1012 JUMP JUMPDEST PUSH2 0x1DE1 DUP4 DUP4 PUSH2 0x1D12 JUMP JUMPDEST DUP1 PUSH1 0x0 NOT DIV DUP3 GT ISZERO PUSH2 0x1DF5 JUMPI PUSH2 0x1DF5 PUSH2 0x1EE4 JUMP JUMPDEST MUL SWAP4 SWAP3 POP POP POP JUMP JUMPDEST PUSH1 0x0 DUP2 PUSH1 0x0 NOT DIV DUP4 GT DUP3 ISZERO ISZERO AND ISZERO PUSH2 0x1E17 JUMPI PUSH2 0x1E17 PUSH2 0x1EE4 JUMP JUMPDEST POP MUL SWAP1 JUMP JUMPDEST PUSH1 0x0 DUP3 DUP3 LT ISZERO PUSH2 0x1E2E JUMPI PUSH2 0x1E2E PUSH2 0x1EE4 JUMP JUMPDEST POP SUB SWAP1 JUMP JUMPDEST PUSH1 0x0 PUSH2 0x1200 CALLDATASIZE DUP5 DUP5 PUSH2 0x1536 JUMP JUMPDEST PUSH1 0x0 JUMPDEST DUP4 DUP2 LT ISZERO PUSH2 0x1E5B JUMPI DUP2 DUP2 ADD MLOAD DUP4 DUP3 ADD MSTORE PUSH1 0x20 ADD PUSH2 0x1E43 JUMP JUMPDEST DUP4 DUP2 GT ISZERO PUSH2 0x3CF JUMPI POP POP PUSH1 0x0 SWAP2 ADD MSTORE JUMP JUMPDEST PUSH1 0x1 DUP2 DUP2 SHR SWAP1 DUP3 AND DUP1 PUSH2 0x1E80 JUMPI PUSH1 0x7F DUP3 AND SWAP2 POP JUMPDEST PUSH1 0x20 DUP3 LT DUP2 EQ ISZERO PUSH2 0x1EA1 JUMPI PUSH4 0x4E487B71 PUSH1 0xE0 SHL PUSH1 0x0 MSTORE PUSH1 0x22 PUSH1 0x4 MSTORE PUSH1 0x24 PUSH1 0x0 REVERT JUMPDEST POP SWAP2 SWAP1 POP JUMP JUMPDEST PUSH1 0x0 PUSH1 0x0 NOT DUP3 EQ ISZERO PUSH2 0x1EBB JUMPI PUSH2 0x1EBB PUSH2 0x1EE4 JUMP JUMPDEST POP PUSH1 0x1 ADD SWAP1 JUMP JUMPDEST PUSH1 0x0 DUP3 PUSH2 0x1EDF JUMPI PUSH4 0x4E487B71 PUSH1 0xE0 SHL PUSH1 0x0 MSTORE PUSH1 0x12 PUSH1 0x4 MSTORE PUSH1 0x24 PUSH1 0x0 REVERT JUMPDEST POP MOD SWAP1 JUMP JUMPDEST PUSH4 0x4E487B71 PUSH1 0xE0 SHL PUSH1 0x0 MSTORE PUSH1 0x11 PUSH1 0x4 MSTORE PUSH1 0x24 PUSH1 0x0 REVERT JUMPDEST PUSH4 0x4E487B71 PUSH1 0xE0 SHL PUSH1 0x0 MSTORE PUSH1 0x21 PUSH1 0x4 MSTORE PUSH1 0x24 PUSH1 0x0 REVERT JUMPDEST PUSH4 0x4E487B71 PUSH1 0xE0 SHL PUSH1 0x0 MSTORE PUSH1 0x32 PUSH1 0x4 MSTORE PUSH1 0x24 PUSH1 0x0 REVERT JUMPDEST PUSH4 0x4E487B71 PUSH1 0xE0 SHL PUSH1 0x0 MSTORE PUSH1 0x41 PUSH1 0x4 MSTORE PUSH1 0x24 PUSH1 0x0 REVERT JUMPDEST PUSH1 0x1 PUSH1 0x1 PUSH1 0xA0 SHL SUB DUP2 AND DUP2 EQ PUSH2 0x906 JUMPI PUSH1 0x0 DUP1 REVERT INVALID LOG2 PUSH5 0x6970667358 0x22 SLT KECCAK256 SWAP14 0xD9 0xED 0xBC PUSH19 0xA75DC943C4BBB0D0CCDBAC5A78C719B6B10B3A PC DELEGATECALL 0x4E 0xCC 0xC5 SWAP15 0x5F 0xC PUSH5 0x736F6C6343 STOP ADDMOD SMOD STOP CALLER "},"methodIdentifiers":{"acceptOwnership()":"79ba5097","checkUpkeep(bytes)":"6e04ff0d","estimateCost((uint8,uint8,uint8,string,bytes,string[]),uint64,uint32,uint256)":"d4b39175","fulfillGasLimit()":"24b93e3e","generateRequest(string,bytes,string[])":"fe083012","getDONPublicKey()":"d328a91e","handleOracleFulfillment(bytes32,bytes,bytes)":"0ca76175","lastUpkeepTimeStamp()":"089ea02e","latestError()":"fffeb84e","latestRequestId()":"1aa46f59","latestResponse()":"bef3a2f0","owner()":"8da5cb5b","performUpkeep(bytes)":"4585e33b","requestCBOR()":"688ecfd1","responseCounter()":"381fc4b5","setRequest(uint64,uint32,uint256,bytes)":"eb197c77","subscriptionId()":"09c1ba2e","transferOwnership(address)":"f2fde38b","updateInterval()":"fd2c80ae","updateOracleAddress(address)":"f7023bb6","upkeepCounter()":"a3d3c0d2"}},"storageLayout":{"storage":[{"astId":901,"contract":"contracts/CheckInsurance.sol:AutomatedFunctionsConsumer","label":"s_oracle","offset":0,"slot":"0","type":"t_contract(FunctionsOracleInterface)1335"},{"astId":905,"contract":"contracts/CheckInsurance.sol:AutomatedFunctionsConsumer","label":"s_pendingRequests","offset":0,"slot":"1","type":"t_mapping(t_bytes32,t_address)"},{"astId":66,"contract":"contracts/CheckInsurance.sol:AutomatedFunctionsConsumer","label":"s_owner","offset":0,"slot":"2","type":"t_address"},{"astId":68,"contract":"contracts/CheckInsurance.sol:AutomatedFunctionsConsumer","label":"s_pendingOwner","offset":0,"slot":"3","type":"t_address"},{"astId":276,"contract":"contracts/CheckInsurance.sol:AutomatedFunctionsConsumer","label":"requestCBOR","offset":0,"slot":"4","type":"t_bytes_storage"},{"astId":278,"contract":"contracts/CheckInsurance.sol:AutomatedFunctionsConsumer","label":"latestRequestId","offset":0,"slot":"5","type":"t_bytes32"},{"astId":280,"contract":"contracts/CheckInsurance.sol:AutomatedFunctionsConsumer","label":"latestResponse","offset":0,"slot":"6","type":"t_bytes_storage"},{"astId":282,"contract":"contracts/CheckInsurance.sol:AutomatedFunctionsConsumer","label":"latestError","offset":0,"slot":"7","type":"t_bytes_storage"},{"astId":284,"contract":"contracts/CheckInsurance.sol:AutomatedFunctionsConsumer","label":"subscriptionId","offset":0,"slot":"8","type":"t_uint64"},{"astId":286,"contract":"contracts/CheckInsurance.sol:AutomatedFunctionsConsumer","label":"fulfillGasLimit","offset":8,"slot":"8","type":"t_uint32"},{"astId":288,"contract":"contracts/CheckInsurance.sol:AutomatedFunctionsConsumer","label":"updateInterval","offset":0,"slot":"9","type":"t_uint256"},{"astId":290,"contract":"contracts/CheckInsurance.sol:AutomatedFunctionsConsumer","label":"lastUpkeepTimeStamp","offset":0,"slot":"10","type":"t_uint256"},{"astId":292,"contract":"contracts/CheckInsurance.sol:AutomatedFunctionsConsumer","label":"upkeepCounter","offset":0,"slot":"11","type":"t_uint256"},{"astId":294,"contract":"contracts/CheckInsurance.sol:AutomatedFunctionsConsumer","label":"responseCounter","offset":0,"slot":"12","type":"t_uint256"}],"types":{"t_address":{"encoding":"inplace","label":"address","numberOfBytes":"20"},"t_bytes32":{"encoding":"inplace","label":"bytes32","numberOfBytes":"32"},"t_bytes_storage":{"encoding":"bytes","label":"bytes","numberOfBytes":"32"},"t_contract(FunctionsOracleInterface)1335":{"encoding":"inplace","label":"contract FunctionsOracleInterface","numberOfBytes":"20"},"t_mapping(t_bytes32,t_address)":{"encoding":"mapping","key":"t_bytes32","label":"mapping(bytes32 => address)","numberOfBytes":"32","value":"t_address"},"t_uint256":{"encoding":"inplace","label":"uint256","numberOfBytes":"32"},"t_uint32":{"encoding":"inplace","label":"uint32","numberOfBytes":"4"},"t_uint64":{"encoding":"inplace","label":"uint64","numberOfBytes":"8"}}}}}}