{"contracts/CheckPayout.sol":{"CheckPayout":{"abi":[{"inputs":[{"internalType":"address","name":"oracle","type":"address"},{"internalType":"address","name":"insuranceAddress","type":"address"}],"stateMutability":"nonpayable","type":"constructor"},{"inputs":[],"name":"EmptyArgs","type":"error"},{"inputs":[],"name":"EmptySource","type":"error"},{"inputs":[],"name":"NoInlineSecrets","type":"error"},{"inputs":[],"name":"RequestIsAlreadyPending","type":"error"},{"inputs":[],"name":"RequestIsNotPending","type":"error"},{"inputs":[],"name":"SenderIsNotRegistry","type":"error"},{"anonymous":false,"inputs":[{"indexed":true,"internalType":"bytes32","name":"requestId","type":"bytes32"},{"indexed":false,"internalType":"bytes","name":"result","type":"bytes"},{"indexed":false,"internalType":"bytes","name":"err","type":"bytes"}],"name":"OCRResponse","type":"event"},{"anonymous":false,"inputs":[{"indexed":true,"internalType":"address","name":"previousOwner","type":"address"},{"indexed":true,"internalType":"address","name":"newOwner","type":"address"}],"name":"OwnershipTransferred","type":"event"},{"anonymous":false,"inputs":[{"indexed":false,"internalType":"address","name":"originalSender","type":"address"},{"indexed":false,"internalType":"uint256","name":"policyIndex","type":"uint256"},{"indexed":false,"internalType":"uint256","name":"payoutAmount","type":"uint256"}],"name":"Payout","type":"event"},{"anonymous":false,"inputs":[{"indexed":false,"internalType":"address","name":"originalSender","type":"address"},{"indexed":false,"internalType":"uint256","name":"policyIndex","type":"uint256"}],"name":"PolicyEnded","type":"event"},{"anonymous":false,"inputs":[{"indexed":true,"internalType":"bytes32","name":"id","type":"bytes32"}],"name":"RequestFulfilled","type":"event"},{"anonymous":false,"inputs":[{"indexed":true,"internalType":"bytes32","name":"id","type":"bytes32"}],"name":"RequestSent","type":"event"},{"anonymous":false,"inputs":[{"indexed":false,"internalType":"address","name":"originalSender","type":"address"},{"indexed":false,"internalType":"uint256","name":"policyIndex","type":"uint256"},{"indexed":false,"internalType":"uint256","name":"timeRemaining","type":"uint256"}],"name":"TimeRemaining","type":"event"},{"anonymous":false,"inputs":[{"indexed":false,"internalType":"string[]","name":"args","type":"string[]"}],"name":"UsingArgs","type":"event"},{"inputs":[{"internalType":"address","name":"oracleAddress","type":"address"},{"internalType":"bytes32","name":"requestId","type":"bytes32"}],"name":"addSimulatedRequestId","outputs":[],"stateMutability":"nonpayable","type":"function"},{"inputs":[{"internalType":"uint64","name":"subscriptionId","type":"uint64"},{"internalType":"uint32","name":"gasLimit","type":"uint32"},{"internalType":"uint256","name":"policyIndex","type":"uint256"}],"name":"checkPolicy","outputs":[{"internalType":"bytes32","name":"","type":"bytes32"}],"stateMutability":"nonpayable","type":"function"},{"inputs":[{"components":[{"internalType":"enum Functions.Location","name":"codeLocation","type":"uint8"},{"internalType":"enum Functions.Location","name":"secretsLocation","type":"uint8"},{"internalType":"enum Functions.CodeLanguage","name":"language","type":"uint8"},{"internalType":"string","name":"source","type":"string"},{"internalType":"bytes","name":"secrets","type":"bytes"},{"internalType":"string[]","name":"args","type":"string[]"}],"internalType":"struct Functions.Request","name":"req","type":"tuple"},{"internalType":"uint64","name":"subscriptionId","type":"uint64"},{"internalType":"uint32","name":"gasLimit","type":"uint32"},{"internalType":"uint256","name":"gasPrice","type":"uint256"}],"name":"estimateCost","outputs":[{"internalType":"uint96","name":"","type":"uint96"}],"stateMutability":"view","type":"function"},{"inputs":[],"name":"getDONPublicKey","outputs":[{"internalType":"bytes","name":"","type":"bytes"}],"stateMutability":"view","type":"function"},{"inputs":[],"name":"getSourceCode","outputs":[{"internalType":"string","name":"","type":"string"}],"stateMutability":"view","type":"function"},{"inputs":[{"internalType":"bytes32","name":"requestId","type":"bytes32"},{"internalType":"bytes","name":"response","type":"bytes"},{"internalType":"bytes","name":"err","type":"bytes"}],"name":"handleOracleFulfillment","outputs":[],"stateMutability":"nonpayable","type":"function"},{"inputs":[],"name":"insuranceContract","outputs":[{"internalType":"contract Insurance","name":"","type":"address"}],"stateMutability":"view","type":"function"},{"inputs":[],"name":"latestError","outputs":[{"internalType":"bytes","name":"","type":"bytes"}],"stateMutability":"view","type":"function"},{"inputs":[],"name":"latestRequestId","outputs":[{"internalType":"bytes32","name":"","type":"bytes32"}],"stateMutability":"view","type":"function"},{"inputs":[],"name":"latestResponse","outputs":[{"internalType":"bytes","name":"","type":"bytes"}],"stateMutability":"view","type":"function"},{"inputs":[],"name":"owner","outputs":[{"internalType":"address","name":"","type":"address"}],"stateMutability":"view","type":"function"},{"inputs":[],"name":"renounceOwnership","outputs":[],"stateMutability":"nonpayable","type":"function"},{"inputs":[{"internalType":"bytes32","name":"","type":"bytes32"}],"name":"requestIdToPolicyIndex","outputs":[{"internalType":"uint256","name":"","type":"uint256"}],"stateMutability":"view","type":"function"},{"inputs":[{"internalType":"bytes32","name":"","type":"bytes32"}],"name":"requestIdToSender","outputs":[{"internalType":"address","name":"","type":"address"}],"stateMutability":"view","type":"function"},{"inputs":[{"internalType":"string","name":"_sourceCode","type":"string"}],"name":"setSourceCode","outputs":[],"stateMutability":"nonpayable","type":"function"},{"inputs":[],"name":"sourceCode","outputs":[{"internalType":"string","name":"","type":"string"}],"stateMutability":"view","type":"function"},{"inputs":[{"internalType":"string","name":"s","type":"string"}],"name":"stringToUint256","outputs":[{"internalType":"uint256","name":"","type":"uint256"}],"stateMutability":"pure","type":"function"},{"inputs":[{"internalType":"address","name":"newOwner","type":"address"}],"name":"transferOwnership","outputs":[],"stateMutability":"nonpayable","type":"function"},{"inputs":[{"internalType":"address","name":"oracle","type":"address"}],"name":"updateOracleAddress","outputs":[],"stateMutability":"nonpayable","type":"function"}],"evm":{"bytecode":{"linkReferences":{},"object":"60806040523480156200001157600080fd5b5060405162002c5538038062002c558339810160408190526200003491620000f0565b600080546001600160a01b0319166001600160a01b0384161790556200005a3362000081565b600780546001600160a01b0319166001600160a01b03929092169190911790555062000128565b600280546001600160a01b038381166001600160a01b0319831681179093556040519116919082907f8be0079c531659141344cd1fd0a4f28419497f9722a3daafe3b4186f6b6457e090600090a35050565b80516001600160a01b0381168114620000eb57600080fd5b919050565b600080604083850312156200010457600080fd5b6200010f83620000d3565b91506200011f60208401620000d3565b90509250929050565b612b1d80620001386000396000f3fe608060405234801561001057600080fd5b50600436106101505760003560e01c8063715018a6116100cd578063d328a91e11610081578063f2fde38b11610066578063f2fde38b146102c0578063f7023bb6146102d3578063fffeb84e146102e657600080fd5b8063d328a91e14610288578063d4b391751461029057600080fd5b8063ac5d3723116100b2578063ac5d37231461025a578063bef3a2f01461026d578063d012a5a81461027557600080fd5b8063715018a6146102415780638da5cb5b1461024957600080fd5b8063219c0eee11610124578063448af93711610109578063448af937146102065780634732889d14610219578063698cd3ad1461023957600080fd5b8063219c0eee146101b257806330bda99d146101f357600080fd5b8062b46767146101555780630ca761751461016a57806313c601771461017d5780631aa46f591461019b575b600080fd5b6101686101633660046122a5565b6102ee565b005b6101686101783660046121e7565b61030d565b6101856103b3565b604051610192919061274a565b60405180910390f35b6101a460045481565b604051908152602001610192565b6101db6101c03660046121b5565b6009602052600090815260409020546001600160a01b031681565b6040516001600160a01b039091168152602001610192565b610168610201366004612189565b610441565b6101a4610214366004612652565b610453565b6101a46102273660046121b5565b60086020526000908152604090205481565b610185610b10565b610168610ba2565b6002546001600160a01b03166101db565b6101a46102683660046122a5565b610bb6565b610185610c38565b6007546101db906001600160a01b031681565b610185610c45565b6102a361029e366004612540565b610ce3565b6040516bffffffffffffffffffffffff9091168152602001610192565b6101686102ce36600461214f565b610d79565b6101686102e136600461214f565b610e09565b610185610e2f565b6102f6610e3c565b8051610309906003906020840190611e56565b5050565b60008381526001602052604090205483906001600160a01b0316331461035f576040517fa0c5ec6300000000000000000000000000000000000000000000000000000000815260040160405180910390fd5b60008181526001602052604080822080546001600160a01b03191690555182917f85e1543bf2f84fe80c6badbce3648c8539ad1df4d2b3d822938ca0538be727e691a26103ad848484610e96565b50505050565b600380546103c090612a02565b80601f01602080910402602001604051908101604052809291908181526020018280546103ec90612a02565b80156104395780601f1061040e57610100808354040283529160200191610439565b820191906000526020600020905b81548152906001019060200180831161041c57829003601f168201915b505050505081565b610449610e3c565b61030982826112a5565b600061045d611eda565b6007546040516361875d8d60e01b8152336004820152602481018590526001600160a01b03909116906361875d8d9060440160006040518083038186803b1580156104a757600080fd5b505afa1580156104bb573d6000803e3d6000fd5b505050506040513d6000823e601f3d908101601f191682016040526104e391908101906122da565b81526007546040517f6ec7be7e000000000000000000000000000000000000000000000000000000008152336004820152602481018590526000916001600160a01b031690636ec7be7e9060440160206040518083038186803b15801561054957600080fd5b505afa15801561055d573d6000803e3d6000fd5b505050506040513d601f19601f8201168201806040525081019061058191906121ce565b6007546040517f215fc625000000000000000000000000000000000000000000000000000000008152600481018390529192506001600160a01b03169063215fc6259060240160606040518083038186803b1580156105df57600080fd5b505afa1580156105f3573d6000803e3d6000fd5b505050506040513d601f19601f8201168201806040525081019061061791906124de565b60208381018290526040918201518251600e8082526101e08201909452909260009282015b606081526020019060019003908161063c575050845151815191925090829060009061066a5761066a612aa6565b60200260200101819052508360000151602001518160018151811061069157610691612aa6565b6020026020010181905250836000015160400151816002815181106106b8576106b8612aa6565b6020026020010181905250836000015160600151816003815181106106df576106df612aa6565b60200260200101819052508360000151608001518160048151811061070657610706612aa6565b6020026020010181905250836000015160a001518160058151811061072d5761072d612aa6565b6020026020010181905250836000015160c001518160068151811061075457610754612aa6565b6020026020010181905250836000015160e001518160078151811061077b5761077b612aa6565b602002602001018190525083600001516101000151816008815181106107a3576107a3612aa6565b602002602001018190525083600001516101200151816009815181106107cb576107cb612aa6565b60200260200101819052508360000151610140015181600a815181106107f3576107f3612aa6565b602002602001018190525061080742611325565b81600b8151811061081a5761081a612aa6565b60200260200101819052508360000151610160015181600c8151811061084257610842612aa6565b60200260200101819052506108db600760009054906101000a90046001600160a01b03166001600160a01b031663b91ce2056040518163ffffffff1660e01b815260040160206040518083038186803b15801561089e57600080fd5b505afa1580156108b2573d6000803e3d6000fd5b505050506040513d601f19601f820116820180604052508101906108d691906121ce565b611325565b81600d815181106108ee576108ee612aa6565b602002602001018190525060008160098151811061090e5761090e612aa6565b602002602001015180602001905181019061092991906121ce565b90508042116109a55760405162461bcd60e51b815260206004820152602c60248201527f43757272656e742074696d65206d75737420626520677265617465722074686160448201527f6e2073746172742074696d65000000000000000000000000000000000000000060648201526084015b60405180910390fd5b6109df6040805160c08101909152806000815260200160008152602001600081526020016060815260200160608152602001606081525090565b610a81600080600380546109f290612a02565b80601f0160208091040260200160405190810160405280929190818152602001828054610a1e90612a02565b8015610a6b5780601f10610a4057610100808354040283529160200191610a6b565b820191906000526020600020905b815481529060010190602001808311610a4e57829003601f168201915b5050505050846113c7909392919063ffffffff16565b610a8b818461145b565b7f930a61d412ee04b567f790d1232c1fe3d797de7bfa1f99ba4b6e7fcc7448521f83604051610aba91906126e8565b60405180910390a16000610acf828c8c61149b565b600481905560008181526008602090815260408083208d90556009909152902080546001600160a01b031916331790559750505050505050505b9392505050565b606060038054610b1f90612a02565b80601f0160208091040260200160405190810160405280929190818152602001828054610b4b90612a02565b8015610b985780601f10610b6d57610100808354040283529160200191610b98565b820191906000526020600020905b815481529060010190602001808311610b7b57829003601f168201915b5050505050905090565b610baa610e3c565b610bb4600061160d565b565b60008181805b8251811015610c30576000838281518110610bd957610bd9612aa6565b016020015160f81c905060308110801590610bf5575060398111155b15610c1d57610c056030826129bf565b610c1084600a6129a0565b610c1a919061289d565b92505b5080610c2881612a3d565b915050610bbc565b509392505050565b600580546103c090612a02565b60008054604080517fd328a91e00000000000000000000000000000000000000000000000000000000815290516060936001600160a01b039093169263d328a91e9260048082019391829003018186803b158015610ca257600080fd5b505afa158015610cb6573d6000803e3d6000fd5b505050506040513d6000823e601f3d908101601f19168201604052610cde9190810190612254565b905090565b600080546001600160a01b031663d227d24585610cff8861165f565b86866040518563ffffffff1660e01b8152600401610d2094939291906127bb565b60206040518083038186803b158015610d3857600080fd5b505afa158015610d4c573d6000803e3d6000fd5b505050506040513d601f19601f82011682018060405250810190610d70919061268e565b95945050505050565b610d81610e3c565b6001600160a01b038116610dfd5760405162461bcd60e51b815260206004820152602660248201527f4f776e61626c653a206e6577206f776e657220697320746865207a65726f206160448201527f6464726573730000000000000000000000000000000000000000000000000000606482015260840161099c565b610e068161160d565b50565b610e11610e3c565b600080546001600160a01b0319166001600160a01b03831617905550565b600680546103c090612a02565b6002546001600160a01b03163314610bb45760405162461bcd60e51b815260206004820181905260248201527f4f776e61626c653a2063616c6c6572206973206e6f7420746865206f776e6572604482015260640161099c565b8151610ea9906005906020850190611e56565b508051610ebd906006906020840190611e56565b50827f7bab0ec163b5c132c72b8146ac4d6e067e82ed58f8b131150aa71c92589115628383604051610ef092919061275d565b60405180910390a260008381526008602090815260408083205460099092528083205460075491516361875d8d60e01b81526001600160a01b03918216600482018190526024820185905293949291909116906361875d8d9060440160006040518083038186803b158015610f6457600080fd5b505afa158015610f78573d6000803e3d6000fd5b505050506040513d6000823e601f3d908101601f19168201604052610fa091908101906122da565b6007546040517fcc9de25d0000000000000000000000000000000000000000000000000000000081529192506000916001600160a01b039091169063cc9de25d90610fef90899060040161274a565b60206040518083038186803b15801561100757600080fd5b505afa15801561101b573d6000803e3d6000fd5b505050506040513d601f19601f8201168201806040525081019061103f91906121ce565b9050801561117c576007546040517fecd831e80000000000000000000000000000000000000000000000000000000081526001600160a01b038581166004830152602482018490529091169063ecd831e890604401600060405180830381600087803b1580156110ae57600080fd5b505af11580156110c2573d6000803e3d6000fd5b5050600754604051632f1635a360e21b81526001600160a01b03878116600483015260248201899052909116925063bc58d68c9150604401600060405180830381600087803b15801561111457600080fd5b505af1158015611128573d6000803e3d6000fd5b5050604080516001600160a01b0387168152602081018890529081018490527f634235fcf5af0adbca1a405ec65f6f6c08f55e1f379c2c45cd10f23cb29e0e319250606001905060405180910390a161129c565b600061118c836101400151610bb6565b90508042111561124457600754604051632f1635a360e21b81526001600160a01b038681166004830152602482018890529091169063bc58d68c90604401600060405180830381600087803b1580156111e457600080fd5b505af11580156111f8573d6000803e3d6000fd5b5050604080516001600160a01b0388168152602081018990527f05e258a8da32249e7d7e1ebcd6b64f7c97c4235999db64b6687191b183d5e3f2935001905060405180910390a161129a565b7f59d77641060cafc4d86dddd4bd9c687bbfbd23fb4b1962869afe9f54507105ea848661127142856129bf565b604080516001600160a01b03909416845260208401929092529082015260600160405180910390a15b505b50505050505050565b60008181526001602052604090205481906001600160a01b0316156112f6576040517f8b457ad200000000000000000000000000000000000000000000000000000000815260040160405180910390fd5b50600090815260016020526040902080546001600160a01b0319166001600160a01b0392909216919091179055565b606060006113328361192b565b600101905060008167ffffffffffffffff81111561135257611352612abc565b6040519080825280601f01601f19166020018201604052801561137c576020820181803683370190505b5090508181016020015b600019017f3031323334353637383961626364656600000000000000000000000000000000600a86061a8153600a85049450846113c257610c30565b611386565b80516113ff576040517f22ce3edd00000000000000000000000000000000000000000000000000000000815260040160405180910390fd5b8383600181111561141257611412612a90565b9081600181111561142557611425612a90565b9052506040840182801561143b5761143b612a90565b9081801561144b5761144b612a90565b9052506060909301929092525050565b8051611493576040517ffe936cb700000000000000000000000000000000000000000000000000000000815260040160405180910390fd5b60a090910152565b6000805481906001600160a01b03166328242b04856114b98861165f565b866040518463ffffffff1660e01b81526004016114d893929190612782565b602060405180830381600087803b1580156114f257600080fd5b505af1158015611506573d6000803e3d6000fd5b505050506040513d601f19601f8201168201806040525081019061152a91906121ce565b905060008054906101000a90046001600160a01b03166001600160a01b0316635ab1bd536040518163ffffffff1660e01b815260040160206040518083038186803b15801561157857600080fd5b505afa15801561158c573d6000803e3d6000fd5b505050506040513d601f19601f820116820180604052508101906115b0919061216c565b60008281526001602052604080822080546001600160a01b0319166001600160a01b039490941693909317909255905182917f1131472297a800fee664d1d89cfa8f7676ff07189ecc53f80bbb5f4969099db891a2949350505050565b600280546001600160a01b038381166001600160a01b0319831681179093556040519116919082907f8be0079c531659141344cd1fd0a4f28419497f9722a3daafe3b4186f6b6457e090600090a35050565b6060611669611f6c565b805161167790610100611a0e565b506116b7816040518060400160405280600c81526020017f636f64654c6f636174696f6e0000000000000000000000000000000000000000815250611a85565b6116d681846000015160018111156116d1576116d1612a90565b611aa3565b611715816040518060400160405280600881526020017f6c616e6775616765000000000000000000000000000000000000000000000000815250611a85565b61172f81846040015160008111156116d1576116d1612a90565b61176e816040518060400160405280600681526020017f736f757263650000000000000000000000000000000000000000000000000000815250611a85565b61177c818460600151611a85565b60a08301515115611822576117c6816040518060400160405280600481526020017f6172677300000000000000000000000000000000000000000000000000000000815250611a85565b6117cf81611adc565b60005b8360a001515181101561181857611806828560a0015183815181106117f9576117f9612aa6565b6020026020010151611a85565b8061181081612a3d565b9150506117d2565b5061182281611b00565b608083015151156119235760008360200151600181111561184557611845612a90565b141561187d576040517fa80d31f700000000000000000000000000000000000000000000000000000000815260040160405180910390fd5b6118bc816040518060400160405280600f81526020017f736563726574734c6f636174696f6e0000000000000000000000000000000000815250611a85565b6118d681846020015160018111156116d1576116d1612a90565b611915816040518060400160405280600781526020017f7365637265747300000000000000000000000000000000000000000000000000815250611a85565b611923818460800151611b1e565b515192915050565b6000807a184f03e93ff9f4daa797ed6e38ed64bf6a1f0100000000000000008310611974577a184f03e93ff9f4daa797ed6e38ed64bf6a1f010000000000000000830492506040015b6d04ee2d6d415b85acef810000000083106119a0576d04ee2d6d415b85acef8100000000830492506020015b662386f26fc1000083106119be57662386f26fc10000830492506010015b6305f5e10083106119d6576305f5e100830492506008015b61271083106119ea57612710830492506004015b606483106119fc576064830492506002015b600a8310611a08576001015b92915050565b604080518082019091526060815260006020820152611a2e602083612a58565b15611a5657611a3e602083612a58565b611a499060206129bf565b611a53908361289d565b91505b602080840183905260405180855260008152908184010181811015611a7a57600080fd5b604052509192915050565b611a928260038351611b27565b8151611a9e9082611c48565b505050565b8151611ab09060c2611c69565b506103098282604051602001611ac891815260200190565b604051602081830303815290604052611b1e565b611ae7816004611cd2565b600181602001818151611afa919061289d565b90525050565b611b0b816007611cd2565b600181602001818151611afa91906129bf565b611a9282600283515b60178167ffffffffffffffff1611611b4e5782516103ad9060e0600585901b168317611c69565b60ff8167ffffffffffffffff1611611b90578251611b77906018611fe0600586901b1617611c69565b5082516103ad9067ffffffffffffffff83166001611ce9565b61ffff8167ffffffffffffffff1611611bd3578251611bba906019611fe0600586901b1617611c69565b5082516103ad9067ffffffffffffffff83166002611ce9565b63ffffffff8167ffffffffffffffff1611611c18578251611bff90601a611fe0600586901b1617611c69565b5082516103ad9067ffffffffffffffff83166004611ce9565b8251611c2f90601b611fe0600586901b1617611c69565b5082516103ad9067ffffffffffffffff83166008611ce9565b604080518082019091526060815260006020820152610b0983838451611d6e565b6040805180820190915260608152600060208201528251516000611c8e82600161289d565b905084602001518210611caf57611caf85611caa8360026129a0565b611e3f565b8451602083820101858153508051821115611cc8578181525b5093949350505050565b8151611a9e90601f611fe0600585901b1617611c69565b6040805180820190915260608152600060208201528351516000611d0d828561289d565b90508560200151811115611d2a57611d2a86611caa8360026129a0565b60006001611d3a866101006128f8565b611d4491906129bf565b90508651828101878319825116178152508051831115611d62578281525b50959695505050505050565b6040805180820190915260608152600060208201528251821115611d9157600080fd5b8351516000611da0848361289d565b90508560200151811115611dbd57611dbd86611caa8360026129a0565b855180518382016020019160009180851115611dd7578482525b505050602086015b60208610611e175780518252611df660208361289d565b9150611e0360208261289d565b9050611e106020876129bf565b9550611ddf565b51815160001960208890036101000a0190811690199190911617905250849150509392505050565b8151611e4b8383611a0e565b506103ad8382611c48565b828054611e6290612a02565b90600052602060002090601f016020900481019282611e845760008555611eca565b82601f10611e9d57805160ff1916838001178555611eca565b82800160010185558215611eca579182015b82811115611eca578251825591602001919060010190611eaf565b50611ed6929150611fa1565b5090565b6040518060400160405280611f496040518061018001604052806060815260200160608152602001606081526020016060815260200160608152602001606081526020016060815260200160608152602001606081526020016060815260200160608152602001606081525090565b815260408051606081018252600080825260208281018290529282015291015290565b6040518060400160405280611f94604051806040016040528060608152602001600081525090565b8152602001600081525090565b5b80821115611ed65760008155600101611fa2565b6000611fc9611fc484612875565b612844565b9050828152838383011115611fdd57600080fd5b610b098360208301846129d6565b600082601f830112611ffc57600080fd5b8135602067ffffffffffffffff8083111561201957612019612abc565b8260051b612028838201612844565b8481528381019087850183890186018a101561204357600080fd5b60009350835b878110156120805781358681111561205f578586fd5b61206d8c89838e010161208f565b8552509286019290860190600101612049565b50909998505050505050505050565b600082601f8301126120a057600080fd5b81356120ae611fc482612875565b8181528460208386010111156120c357600080fd5b816020850160208301376000918101602001919091529392505050565b8035600181106120ef57600080fd5b919050565b8035600281106120ef57600080fd5b600082601f83011261211457600080fd5b610b0983835160208501611fb6565b803563ffffffff811681146120ef57600080fd5b803567ffffffffffffffff811681146120ef57600080fd5b60006020828403121561216157600080fd5b8135610b0981612ad2565b60006020828403121561217e57600080fd5b8151610b0981612ad2565b6000806040838503121561219c57600080fd5b82356121a781612ad2565b946020939093013593505050565b6000602082840312156121c757600080fd5b5035919050565b6000602082840312156121e057600080fd5b5051919050565b6000806000606084860312156121fc57600080fd5b83359250602084013567ffffffffffffffff8082111561221b57600080fd5b6122278783880161208f565b9350604086013591508082111561223d57600080fd5b5061224a8682870161208f565b9150509250925092565b60006020828403121561226657600080fd5b815167ffffffffffffffff81111561227d57600080fd5b8201601f8101841361228e57600080fd5b61229d84825160208401611fb6565b949350505050565b6000602082840312156122b757600080fd5b813567ffffffffffffffff8111156122ce57600080fd5b61229d8482850161208f565b6000602082840312156122ec57600080fd5b815167ffffffffffffffff8082111561230457600080fd5b90830190610180828603121561231957600080fd5b6123216127f7565b82518281111561233057600080fd5b61233c87828601612103565b82525060208301518281111561235157600080fd5b61235d87828601612103565b60208301525060408301518281111561237557600080fd5b61238187828601612103565b60408301525060608301518281111561239957600080fd5b6123a587828601612103565b6060830152506080830151828111156123bd57600080fd5b6123c987828601612103565b60808301525060a0830151828111156123e157600080fd5b6123ed87828601612103565b60a08301525060c08301518281111561240557600080fd5b61241187828601612103565b60c08301525060e08301518281111561242957600080fd5b61243587828601612103565b60e083015250610100808401518381111561244f57600080fd5b61245b88828701612103565b828401525050610120808401518381111561247557600080fd5b61248188828701612103565b828401525050610140808401518381111561249b57600080fd5b6124a788828701612103565b82840152505061016080840151838111156124c157600080fd5b6124cd88828701612103565b918301919091525095945050505050565b6000606082840312156124f057600080fd5b6040516060810181811067ffffffffffffffff8211171561251357612513612abc565b604052825161252181612ad2565b8152602083810151908201526040928301519281019290925250919050565b6000806000806080858703121561255657600080fd5b843567ffffffffffffffff8082111561256e57600080fd5b9086019060c0828903121561258257600080fd5b61258a612821565b612593836120f4565b81526125a1602084016120f4565b60208201526125b2604084016120e0565b60408201526060830135828111156125c957600080fd5b6125d58a82860161208f565b6060830152506080830135828111156125ed57600080fd5b6125f98a82860161208f565b60808301525060a08301358281111561261157600080fd5b61261d8a828601611feb565b60a083015250955061263491505060208601612137565b925061264260408601612123565b9396929550929360600135925050565b60008060006060848603121561266757600080fd5b61267084612137565b925061267e60208501612123565b9150604084013590509250925092565b6000602082840312156126a057600080fd5b81516bffffffffffffffffffffffff81168114610b0957600080fd5b600081518084526126d48160208601602086016129d6565b601f01601f19169290920160200192915050565b6000602080830181845280855180835260408601915060408160051b870101925083870160005b8281101561273d57603f1988860301845261272b8583516126bc565b9450928501929085019060010161270f565b5092979650505050505050565b602081526000610b0960208301846126bc565b60408152600061277060408301856126bc565b8281036020840152610d7081856126bc565b67ffffffffffffffff841681526060602082015260006127a560608301856126bc565b905063ffffffff83166040830152949350505050565b67ffffffffffffffff851681526080602082015260006127de60808301866126bc565b63ffffffff949094166040830152506060015292915050565b604051610180810167ffffffffffffffff8111828210171561281b5761281b612abc565b60405290565b60405160c0810167ffffffffffffffff8111828210171561281b5761281b612abc565b604051601f8201601f1916810167ffffffffffffffff8111828210171561286d5761286d612abc565b604052919050565b600067ffffffffffffffff82111561288f5761288f612abc565b50601f01601f191660200190565b600082198211156128b0576128b0612a7a565b500190565b600181815b808511156128f05781600019048211156128d6576128d6612a7a565b808516156128e357918102915b93841c93908002906128ba565b509250929050565b6000610b09838360008261290e57506001611a08565b8161291b57506000611a08565b8160018114612931576002811461293b57612957565b6001915050611a08565b60ff84111561294c5761294c612a7a565b50506001821b611a08565b5060208310610133831016604e8410600b841016171561297a575081810a611a08565b61298483836128b5565b806000190482111561299857612998612a7a565b029392505050565b60008160001904831182151516156129ba576129ba612a7a565b500290565b6000828210156129d1576129d1612a7a565b500390565b60005b838110156129f15781810151838201526020016129d9565b838111156103ad5750506000910152565b600181811c90821680612a1657607f821691505b60208210811415612a3757634e487b7160e01b600052602260045260246000fd5b50919050565b6000600019821415612a5157612a51612a7a565b5060010190565b600082612a7557634e487b7160e01b600052601260045260246000fd5b500690565b634e487b7160e01b600052601160045260246000fd5b634e487b7160e01b600052602160045260246000fd5b634e487b7160e01b600052603260045260246000fd5b634e487b7160e01b600052604160045260246000fd5b6001600160a01b0381168114610e0657600080fdfea2646970667358221220eac363c471ce3130a63e6e5d05901710da59d6442e919ea5fb987007021fdf9864736f6c63430008070033","opcodes":"PUSH1 0x80 PUSH1 0x40 MSTORE CALLVALUE DUP1 ISZERO PUSH3 0x11 JUMPI PUSH1 0x0 DUP1 REVERT JUMPDEST POP PUSH1 0x40 MLOAD PUSH3 0x2C55 CODESIZE SUB DUP1 PUSH3 0x2C55 DUP4 CODECOPY DUP2 ADD PUSH1 0x40 DUP2 SWAP1 MSTORE PUSH3 0x34 SWAP2 PUSH3 0xF0 JUMP JUMPDEST PUSH1 0x0 DUP1 SLOAD PUSH1 0x1 PUSH1 0x1 PUSH1 0xA0 SHL SUB NOT AND PUSH1 0x1 PUSH1 0x1 PUSH1 0xA0 SHL SUB DUP5 AND OR SWAP1 SSTORE PUSH3 0x5A CALLER PUSH3 0x81 JUMP JUMPDEST PUSH1 0x7 DUP1 SLOAD PUSH1 0x1 PUSH1 0x1 PUSH1 0xA0 SHL SUB NOT AND PUSH1 0x1 PUSH1 0x1 PUSH1 0xA0 SHL SUB SWAP3 SWAP1 SWAP3 AND SWAP2 SWAP1 SWAP2 OR SWAP1 SSTORE POP PUSH3 0x128 JUMP JUMPDEST PUSH1 0x2 DUP1 SLOAD PUSH1 0x1 PUSH1 0x1 PUSH1 0xA0 SHL SUB DUP4 DUP2 AND PUSH1 0x1 PUSH1 0x1 PUSH1 0xA0 SHL SUB NOT DUP4 AND DUP2 OR SWAP1 SWAP4 SSTORE PUSH1 0x40 MLOAD SWAP2 AND SWAP2 SWAP1 DUP3 SWAP1 PUSH32 0x8BE0079C531659141344CD1FD0A4F28419497F9722A3DAAFE3B4186F6B6457E0 SWAP1 PUSH1 0x0 SWAP1 LOG3 POP POP JUMP JUMPDEST DUP1 MLOAD PUSH1 0x1 PUSH1 0x1 PUSH1 0xA0 SHL SUB DUP2 AND DUP2 EQ PUSH3 0xEB JUMPI PUSH1 0x0 DUP1 REVERT JUMPDEST SWAP2 SWAP1 POP JUMP JUMPDEST PUSH1 0x0 DUP1 PUSH1 0x40 DUP4 DUP6 SUB SLT ISZERO PUSH3 0x104 JUMPI PUSH1 0x0 DUP1 REVERT JUMPDEST PUSH3 0x10F DUP4 PUSH3 0xD3 JUMP JUMPDEST SWAP2 POP PUSH3 0x11F PUSH1 0x20 DUP5 ADD PUSH3 0xD3 JUMP JUMPDEST SWAP1 POP SWAP3 POP SWAP3 SWAP1 POP JUMP JUMPDEST PUSH2 0x2B1D DUP1 PUSH3 0x138 PUSH1 0x0 CODECOPY PUSH1 0x0 RETURN INVALID PUSH1 0x80 PUSH1 0x40 MSTORE CALLVALUE DUP1 ISZERO PUSH2 0x10 JUMPI PUSH1 0x0 DUP1 REVERT JUMPDEST POP PUSH1 0x4 CALLDATASIZE LT PUSH2 0x150 JUMPI PUSH1 0x0 CALLDATALOAD PUSH1 0xE0 SHR DUP1 PUSH4 0x715018A6 GT PUSH2 0xCD JUMPI DUP1 PUSH4 0xD328A91E GT PUSH2 0x81 JUMPI DUP1 PUSH4 0xF2FDE38B GT PUSH2 0x66 JUMPI DUP1 PUSH4 0xF2FDE38B EQ PUSH2 0x2C0 JUMPI DUP1 PUSH4 0xF7023BB6 EQ PUSH2 0x2D3 JUMPI DUP1 PUSH4 0xFFFEB84E EQ PUSH2 0x2E6 JUMPI PUSH1 0x0 DUP1 REVERT JUMPDEST DUP1 PUSH4 0xD328A91E EQ PUSH2 0x288 JUMPI DUP1 PUSH4 0xD4B39175 EQ PUSH2 0x290 JUMPI PUSH1 0x0 DUP1 REVERT JUMPDEST DUP1 PUSH4 0xAC5D3723 GT PUSH2 0xB2 JUMPI DUP1 PUSH4 0xAC5D3723 EQ PUSH2 0x25A JUMPI DUP1 PUSH4 0xBEF3A2F0 EQ PUSH2 0x26D JUMPI DUP1 PUSH4 0xD012A5A8 EQ PUSH2 0x275 JUMPI PUSH1 0x0 DUP1 REVERT JUMPDEST DUP1 PUSH4 0x715018A6 EQ PUSH2 0x241 JUMPI DUP1 PUSH4 0x8DA5CB5B EQ PUSH2 0x249 JUMPI PUSH1 0x0 DUP1 REVERT JUMPDEST DUP1 PUSH4 0x219C0EEE GT PUSH2 0x124 JUMPI DUP1 PUSH4 0x448AF937 GT PUSH2 0x109 JUMPI DUP1 PUSH4 0x448AF937 EQ PUSH2 0x206 JUMPI DUP1 PUSH4 0x4732889D EQ PUSH2 0x219 JUMPI DUP1 PUSH4 0x698CD3AD EQ PUSH2 0x239 JUMPI PUSH1 0x0 DUP1 REVERT JUMPDEST DUP1 PUSH4 0x219C0EEE EQ PUSH2 0x1B2 JUMPI DUP1 PUSH4 0x30BDA99D EQ PUSH2 0x1F3 JUMPI PUSH1 0x0 DUP1 REVERT JUMPDEST DUP1 PUSH3 0xB46767 EQ PUSH2 0x155 JUMPI DUP1 PUSH4 0xCA76175 EQ PUSH2 0x16A JUMPI DUP1 PUSH4 0x13C60177 EQ PUSH2 0x17D JUMPI DUP1 PUSH4 0x1AA46F59 EQ PUSH2 0x19B JUMPI JUMPDEST PUSH1 0x0 DUP1 REVERT JUMPDEST PUSH2 0x168 PUSH2 0x163 CALLDATASIZE PUSH1 0x4 PUSH2 0x22A5 JUMP JUMPDEST PUSH2 0x2EE JUMP JUMPDEST STOP JUMPDEST PUSH2 0x168 PUSH2 0x178 CALLDATASIZE PUSH1 0x4 PUSH2 0x21E7 JUMP JUMPDEST PUSH2 0x30D JUMP JUMPDEST PUSH2 0x185 PUSH2 0x3B3 JUMP JUMPDEST PUSH1 0x40 MLOAD PUSH2 0x192 SWAP2 SWAP1 PUSH2 0x274A JUMP JUMPDEST PUSH1 0x40 MLOAD DUP1 SWAP2 SUB SWAP1 RETURN JUMPDEST PUSH2 0x1A4 PUSH1 0x4 SLOAD DUP2 JUMP JUMPDEST PUSH1 0x40 MLOAD SWAP1 DUP2 MSTORE PUSH1 0x20 ADD PUSH2 0x192 JUMP JUMPDEST PUSH2 0x1DB PUSH2 0x1C0 CALLDATASIZE PUSH1 0x4 PUSH2 0x21B5 JUMP JUMPDEST PUSH1 0x9 PUSH1 0x20 MSTORE PUSH1 0x0 SWAP1 DUP2 MSTORE PUSH1 0x40 SWAP1 KECCAK256 SLOAD PUSH1 0x1 PUSH1 0x1 PUSH1 0xA0 SHL SUB AND DUP2 JUMP JUMPDEST PUSH1 0x40 MLOAD PUSH1 0x1 PUSH1 0x1 PUSH1 0xA0 SHL SUB SWAP1 SWAP2 AND DUP2 MSTORE PUSH1 0x20 ADD PUSH2 0x192 JUMP JUMPDEST PUSH2 0x168 PUSH2 0x201 CALLDATASIZE PUSH1 0x4 PUSH2 0x2189 JUMP JUMPDEST PUSH2 0x441 JUMP JUMPDEST PUSH2 0x1A4 PUSH2 0x214 CALLDATASIZE PUSH1 0x4 PUSH2 0x2652 JUMP JUMPDEST PUSH2 0x453 JUMP JUMPDEST PUSH2 0x1A4 PUSH2 0x227 CALLDATASIZE PUSH1 0x4 PUSH2 0x21B5 JUMP JUMPDEST PUSH1 0x8 PUSH1 0x20 MSTORE PUSH1 0x0 SWAP1 DUP2 MSTORE PUSH1 0x40 SWAP1 KECCAK256 SLOAD DUP2 JUMP JUMPDEST PUSH2 0x185 PUSH2 0xB10 JUMP JUMPDEST PUSH2 0x168 PUSH2 0xBA2 JUMP JUMPDEST PUSH1 0x2 SLOAD PUSH1 0x1 PUSH1 0x1 PUSH1 0xA0 SHL SUB AND PUSH2 0x1DB JUMP JUMPDEST PUSH2 0x1A4 PUSH2 0x268 CALLDATASIZE PUSH1 0x4 PUSH2 0x22A5 JUMP JUMPDEST PUSH2 0xBB6 JUMP JUMPDEST PUSH2 0x185 PUSH2 0xC38 JUMP JUMPDEST PUSH1 0x7 SLOAD PUSH2 0x1DB SWAP1 PUSH1 0x1 PUSH1 0x1 PUSH1 0xA0 SHL SUB AND DUP2 JUMP JUMPDEST PUSH2 0x185 PUSH2 0xC45 JUMP JUMPDEST PUSH2 0x2A3 PUSH2 0x29E CALLDATASIZE PUSH1 0x4 PUSH2 0x2540 JUMP JUMPDEST PUSH2 0xCE3 JUMP JUMPDEST PUSH1 0x40 MLOAD PUSH12 0xFFFFFFFFFFFFFFFFFFFFFFFF SWAP1 SWAP2 AND DUP2 MSTORE PUSH1 0x20 ADD PUSH2 0x192 JUMP JUMPDEST PUSH2 0x168 PUSH2 0x2CE CALLDATASIZE PUSH1 0x4 PUSH2 0x214F JUMP JUMPDEST PUSH2 0xD79 JUMP JUMPDEST PUSH2 0x168 PUSH2 0x2E1 CALLDATASIZE PUSH1 0x4 PUSH2 0x214F JUMP JUMPDEST PUSH2 0xE09 JUMP JUMPDEST PUSH2 0x185 PUSH2 0xE2F JUMP JUMPDEST PUSH2 0x2F6 PUSH2 0xE3C JUMP JUMPDEST DUP1 MLOAD PUSH2 0x309 SWAP1 PUSH1 0x3 SWAP1 PUSH1 0x20 DUP5 ADD SWAP1 PUSH2 0x1E56 JUMP JUMPDEST POP POP JUMP JUMPDEST PUSH1 0x0 DUP4 DUP2 MSTORE PUSH1 0x1 PUSH1 0x20 MSTORE PUSH1 0x40 SWAP1 KECCAK256 SLOAD DUP4 SWAP1 PUSH1 0x1 PUSH1 0x1 PUSH1 0xA0 SHL SUB AND CALLER EQ PUSH2 0x35F JUMPI PUSH1 0x40 MLOAD PUSH32 0xA0C5EC6300000000000000000000000000000000000000000000000000000000 DUP2 MSTORE PUSH1 0x4 ADD PUSH1 0x40 MLOAD DUP1 SWAP2 SUB SWAP1 REVERT JUMPDEST PUSH1 0x0 DUP2 DUP2 MSTORE PUSH1 0x1 PUSH1 0x20 MSTORE PUSH1 0x40 DUP1 DUP3 KECCAK256 DUP1 SLOAD PUSH1 0x1 PUSH1 0x1 PUSH1 0xA0 SHL SUB NOT AND SWAP1 SSTORE MLOAD DUP3 SWAP2 PUSH32 0x85E1543BF2F84FE80C6BADBCE3648C8539AD1DF4D2B3D822938CA0538BE727E6 SWAP2 LOG2 PUSH2 0x3AD DUP5 DUP5 DUP5 PUSH2 0xE96 JUMP JUMPDEST POP POP POP POP JUMP JUMPDEST PUSH1 0x3 DUP1 SLOAD PUSH2 0x3C0 SWAP1 PUSH2 0x2A02 JUMP JUMPDEST DUP1 PUSH1 0x1F ADD PUSH1 0x20 DUP1 SWAP2 DIV MUL PUSH1 0x20 ADD PUSH1 0x40 MLOAD SWAP1 DUP2 ADD PUSH1 0x40 MSTORE DUP1 SWAP3 SWAP2 SWAP1 DUP2 DUP2 MSTORE PUSH1 0x20 ADD DUP3 DUP1 SLOAD PUSH2 0x3EC SWAP1 PUSH2 0x2A02 JUMP JUMPDEST DUP1 ISZERO PUSH2 0x439 JUMPI DUP1 PUSH1 0x1F LT PUSH2 0x40E JUMPI PUSH2 0x100 DUP1 DUP4 SLOAD DIV MUL DUP4 MSTORE SWAP2 PUSH1 0x20 ADD SWAP2 PUSH2 0x439 JUMP JUMPDEST DUP3 ADD SWAP2 SWAP1 PUSH1 0x0 MSTORE PUSH1 0x20 PUSH1 0x0 KECCAK256 SWAP1 JUMPDEST DUP2 SLOAD DUP2 MSTORE SWAP1 PUSH1 0x1 ADD SWAP1 PUSH1 0x20 ADD DUP1 DUP4 GT PUSH2 0x41C JUMPI DUP3 SWAP1 SUB PUSH1 0x1F AND DUP3 ADD SWAP2 JUMPDEST POP POP POP POP POP DUP2 JUMP JUMPDEST PUSH2 0x449 PUSH2 0xE3C JUMP JUMPDEST PUSH2 0x309 DUP3 DUP3 PUSH2 0x12A5 JUMP JUMPDEST PUSH1 0x0 PUSH2 0x45D PUSH2 0x1EDA JUMP JUMPDEST PUSH1 0x7 SLOAD PUSH1 0x40 MLOAD PUSH4 0x61875D8D PUSH1 0xE0 SHL DUP2 MSTORE CALLER PUSH1 0x4 DUP3 ADD MSTORE PUSH1 0x24 DUP2 ADD DUP6 SWAP1 MSTORE PUSH1 0x1 PUSH1 0x1 PUSH1 0xA0 SHL SUB SWAP1 SWAP2 AND SWAP1 PUSH4 0x61875D8D SWAP1 PUSH1 0x44 ADD PUSH1 0x0 PUSH1 0x40 MLOAD DUP1 DUP4 SUB DUP2 DUP7 DUP1 EXTCODESIZE ISZERO DUP1 ISZERO PUSH2 0x4A7 JUMPI PUSH1 0x0 DUP1 REVERT JUMPDEST POP GAS STATICCALL ISZERO DUP1 ISZERO PUSH2 0x4BB JUMPI RETURNDATASIZE PUSH1 0x0 DUP1 RETURNDATACOPY RETURNDATASIZE PUSH1 0x0 REVERT JUMPDEST POP POP POP POP PUSH1 0x40 MLOAD RETURNDATASIZE PUSH1 0x0 DUP3 RETURNDATACOPY PUSH1 0x1F RETURNDATASIZE SWAP1 DUP2 ADD PUSH1 0x1F NOT AND DUP3 ADD PUSH1 0x40 MSTORE PUSH2 0x4E3 SWAP2 SWAP1 DUP2 ADD SWAP1 PUSH2 0x22DA JUMP JUMPDEST DUP2 MSTORE PUSH1 0x7 SLOAD PUSH1 0x40 MLOAD PUSH32 0x6EC7BE7E00000000000000000000000000000000000000000000000000000000 DUP2 MSTORE CALLER PUSH1 0x4 DUP3 ADD MSTORE PUSH1 0x24 DUP2 ADD DUP6 SWAP1 MSTORE PUSH1 0x0 SWAP2 PUSH1 0x1 PUSH1 0x1 PUSH1 0xA0 SHL SUB AND SWAP1 PUSH4 0x6EC7BE7E SWAP1 PUSH1 0x44 ADD PUSH1 0x20 PUSH1 0x40 MLOAD DUP1 DUP4 SUB DUP2 DUP7 DUP1 EXTCODESIZE ISZERO DUP1 ISZERO PUSH2 0x549 JUMPI PUSH1 0x0 DUP1 REVERT JUMPDEST POP GAS STATICCALL ISZERO DUP1 ISZERO PUSH2 0x55D JUMPI RETURNDATASIZE PUSH1 0x0 DUP1 RETURNDATACOPY RETURNDATASIZE PUSH1 0x0 REVERT JUMPDEST POP POP POP POP PUSH1 0x40 MLOAD RETURNDATASIZE PUSH1 0x1F NOT PUSH1 0x1F DUP3 ADD AND DUP3 ADD DUP1 PUSH1 0x40 MSTORE POP DUP2 ADD SWAP1 PUSH2 0x581 SWAP2 SWAP1 PUSH2 0x21CE JUMP JUMPDEST PUSH1 0x7 SLOAD PUSH1 0x40 MLOAD PUSH32 0x215FC62500000000000000000000000000000000000000000000000000000000 DUP2 MSTORE PUSH1 0x4 DUP2 ADD DUP4 SWAP1 MSTORE SWAP2 SWAP3 POP PUSH1 0x1 PUSH1 0x1 PUSH1 0xA0 SHL SUB AND SWAP1 PUSH4 0x215FC625 SWAP1 PUSH1 0x24 ADD PUSH1 0x60 PUSH1 0x40 MLOAD DUP1 DUP4 SUB DUP2 DUP7 DUP1 EXTCODESIZE ISZERO DUP1 ISZERO PUSH2 0x5DF JUMPI PUSH1 0x0 DUP1 REVERT JUMPDEST POP GAS STATICCALL ISZERO DUP1 ISZERO PUSH2 0x5F3 JUMPI RETURNDATASIZE PUSH1 0x0 DUP1 RETURNDATACOPY RETURNDATASIZE PUSH1 0x0 REVERT JUMPDEST POP POP POP POP PUSH1 0x40 MLOAD RETURNDATASIZE PUSH1 0x1F NOT PUSH1 0x1F DUP3 ADD AND DUP3 ADD DUP1 PUSH1 0x40 MSTORE POP DUP2 ADD SWAP1 PUSH2 0x617 SWAP2 SWAP1 PUSH2 0x24DE JUMP JUMPDEST PUSH1 0x20 DUP4 DUP2 ADD DUP3 SWAP1 MSTORE PUSH1 0x40 SWAP2 DUP3 ADD MLOAD DUP3 MLOAD PUSH1 0xE DUP1 DUP3 MSTORE PUSH2 0x1E0 DUP3 ADD SWAP1 SWAP5 MSTORE SWAP1 SWAP3 PUSH1 0x0 SWAP3 DUP3 ADD JUMPDEST PUSH1 0x60 DUP2 MSTORE PUSH1 0x20 ADD SWAP1 PUSH1 0x1 SWAP1 SUB SWAP1 DUP2 PUSH2 0x63C JUMPI POP POP DUP5 MLOAD MLOAD DUP2 MLOAD SWAP2 SWAP3 POP SWAP1 DUP3 SWAP1 PUSH1 0x0 SWAP1 PUSH2 0x66A JUMPI PUSH2 0x66A PUSH2 0x2AA6 JUMP JUMPDEST PUSH1 0x20 MUL PUSH1 0x20 ADD ADD DUP2 SWAP1 MSTORE POP DUP4 PUSH1 0x0 ADD MLOAD PUSH1 0x20 ADD MLOAD DUP2 PUSH1 0x1 DUP2 MLOAD DUP2 LT PUSH2 0x691 JUMPI PUSH2 0x691 PUSH2 0x2AA6 JUMP JUMPDEST PUSH1 0x20 MUL PUSH1 0x20 ADD ADD DUP2 SWAP1 MSTORE POP DUP4 PUSH1 0x0 ADD MLOAD PUSH1 0x40 ADD MLOAD DUP2 PUSH1 0x2 DUP2 MLOAD DUP2 LT PUSH2 0x6B8 JUMPI PUSH2 0x6B8 PUSH2 0x2AA6 JUMP JUMPDEST PUSH1 0x20 MUL PUSH1 0x20 ADD ADD DUP2 SWAP1 MSTORE POP DUP4 PUSH1 0x0 ADD MLOAD PUSH1 0x60 ADD MLOAD DUP2 PUSH1 0x3 DUP2 MLOAD DUP2 LT PUSH2 0x6DF JUMPI PUSH2 0x6DF PUSH2 0x2AA6 JUMP JUMPDEST PUSH1 0x20 MUL PUSH1 0x20 ADD ADD DUP2 SWAP1 MSTORE POP DUP4 PUSH1 0x0 ADD MLOAD PUSH1 0x80 ADD MLOAD DUP2 PUSH1 0x4 DUP2 MLOAD DUP2 LT PUSH2 0x706 JUMPI PUSH2 0x706 PUSH2 0x2AA6 JUMP JUMPDEST PUSH1 0x20 MUL PUSH1 0x20 ADD ADD DUP2 SWAP1 MSTORE POP DUP4 PUSH1 0x0 ADD MLOAD PUSH1 0xA0 ADD MLOAD DUP2 PUSH1 0x5 DUP2 MLOAD DUP2 LT PUSH2 0x72D JUMPI PUSH2 0x72D PUSH2 0x2AA6 JUMP JUMPDEST PUSH1 0x20 MUL PUSH1 0x20 ADD ADD DUP2 SWAP1 MSTORE POP DUP4 PUSH1 0x0 ADD MLOAD PUSH1 0xC0 ADD MLOAD DUP2 PUSH1 0x6 DUP2 MLOAD DUP2 LT PUSH2 0x754 JUMPI PUSH2 0x754 PUSH2 0x2AA6 JUMP JUMPDEST PUSH1 0x20 MUL PUSH1 0x20 ADD ADD DUP2 SWAP1 MSTORE POP DUP4 PUSH1 0x0 ADD MLOAD PUSH1 0xE0 ADD MLOAD DUP2 PUSH1 0x7 DUP2 MLOAD DUP2 LT PUSH2 0x77B JUMPI PUSH2 0x77B PUSH2 0x2AA6 JUMP JUMPDEST PUSH1 0x20 MUL PUSH1 0x20 ADD ADD DUP2 SWAP1 MSTORE POP DUP4 PUSH1 0x0 ADD MLOAD PUSH2 0x100 ADD MLOAD DUP2 PUSH1 0x8 DUP2 MLOAD DUP2 LT PUSH2 0x7A3 JUMPI PUSH2 0x7A3 PUSH2 0x2AA6 JUMP JUMPDEST PUSH1 0x20 MUL PUSH1 0x20 ADD ADD DUP2 SWAP1 MSTORE POP DUP4 PUSH1 0x0 ADD MLOAD PUSH2 0x120 ADD MLOAD DUP2 PUSH1 0x9 DUP2 MLOAD DUP2 LT PUSH2 0x7CB JUMPI PUSH2 0x7CB PUSH2 0x2AA6 JUMP JUMPDEST PUSH1 0x20 MUL PUSH1 0x20 ADD ADD DUP2 SWAP1 MSTORE POP DUP4 PUSH1 0x0 ADD MLOAD PUSH2 0x140 ADD MLOAD DUP2 PUSH1 0xA DUP2 MLOAD DUP2 LT PUSH2 0x7F3 JUMPI PUSH2 0x7F3 PUSH2 0x2AA6 JUMP JUMPDEST PUSH1 0x20 MUL PUSH1 0x20 ADD ADD DUP2 SWAP1 MSTORE POP PUSH2 0x807 TIMESTAMP PUSH2 0x1325 JUMP JUMPDEST DUP2 PUSH1 0xB DUP2 MLOAD DUP2 LT PUSH2 0x81A JUMPI PUSH2 0x81A PUSH2 0x2AA6 JUMP JUMPDEST PUSH1 0x20 MUL PUSH1 0x20 ADD ADD DUP2 SWAP1 MSTORE POP DUP4 PUSH1 0x0 ADD MLOAD PUSH2 0x160 ADD MLOAD DUP2 PUSH1 0xC DUP2 MLOAD DUP2 LT PUSH2 0x842 JUMPI PUSH2 0x842 PUSH2 0x2AA6 JUMP JUMPDEST PUSH1 0x20 MUL PUSH1 0x20 ADD ADD DUP2 SWAP1 MSTORE POP PUSH2 0x8DB PUSH1 0x7 PUSH1 0x0 SWAP1 SLOAD SWAP1 PUSH2 0x100 EXP SWAP1 DIV PUSH1 0x1 PUSH1 0x1 PUSH1 0xA0 SHL SUB AND PUSH1 0x1 PUSH1 0x1 PUSH1 0xA0 SHL SUB AND PUSH4 0xB91CE205 PUSH1 0x40 MLOAD DUP2 PUSH4 0xFFFFFFFF AND PUSH1 0xE0 SHL DUP2 MSTORE PUSH1 0x4 ADD PUSH1 0x20 PUSH1 0x40 MLOAD DUP1 DUP4 SUB DUP2 DUP7 DUP1 EXTCODESIZE ISZERO DUP1 ISZERO PUSH2 0x89E JUMPI PUSH1 0x0 DUP1 REVERT JUMPDEST POP GAS STATICCALL ISZERO DUP1 ISZERO PUSH2 0x8B2 JUMPI RETURNDATASIZE PUSH1 0x0 DUP1 RETURNDATACOPY RETURNDATASIZE PUSH1 0x0 REVERT JUMPDEST POP POP POP POP PUSH1 0x40 MLOAD RETURNDATASIZE PUSH1 0x1F NOT PUSH1 0x1F DUP3 ADD AND DUP3 ADD DUP1 PUSH1 0x40 MSTORE POP DUP2 ADD SWAP1 PUSH2 0x8D6 SWAP2 SWAP1 PUSH2 0x21CE JUMP JUMPDEST PUSH2 0x1325 JUMP JUMPDEST DUP2 PUSH1 0xD DUP2 MLOAD DUP2 LT PUSH2 0x8EE JUMPI PUSH2 0x8EE PUSH2 0x2AA6 JUMP JUMPDEST PUSH1 0x20 MUL PUSH1 0x20 ADD ADD DUP2 SWAP1 MSTORE POP PUSH1 0x0 DUP2 PUSH1 0x9 DUP2 MLOAD DUP2 LT PUSH2 0x90E JUMPI PUSH2 0x90E PUSH2 0x2AA6 JUMP JUMPDEST PUSH1 0x20 MUL PUSH1 0x20 ADD ADD MLOAD DUP1 PUSH1 0x20 ADD SWAP1 MLOAD DUP2 ADD SWAP1 PUSH2 0x929 SWAP2 SWAP1 PUSH2 0x21CE JUMP JUMPDEST SWAP1 POP DUP1 TIMESTAMP GT PUSH2 0x9A5 JUMPI PUSH1 0x40 MLOAD PUSH3 0x461BCD PUSH1 0xE5 SHL DUP2 MSTORE PUSH1 0x20 PUSH1 0x4 DUP3 ADD MSTORE PUSH1 0x2C PUSH1 0x24 DUP3 ADD MSTORE PUSH32 0x43757272656E742074696D65206D757374206265206772656174657220746861 PUSH1 0x44 DUP3 ADD MSTORE PUSH32 0x6E2073746172742074696D650000000000000000000000000000000000000000 PUSH1 0x64 DUP3 ADD MSTORE PUSH1 0x84 ADD JUMPDEST PUSH1 0x40 MLOAD DUP1 SWAP2 SUB SWAP1 REVERT JUMPDEST PUSH2 0x9DF PUSH1 0x40 DUP1 MLOAD PUSH1 0xC0 DUP2 ADD SWAP1 SWAP2 MSTORE DUP1 PUSH1 0x0 DUP2 MSTORE PUSH1 0x20 ADD PUSH1 0x0 DUP2 MSTORE PUSH1 0x20 ADD PUSH1 0x0 DUP2 MSTORE PUSH1 0x20 ADD PUSH1 0x60 DUP2 MSTORE PUSH1 0x20 ADD PUSH1 0x60 DUP2 MSTORE PUSH1 0x20 ADD PUSH1 0x60 DUP2 MSTORE POP SWAP1 JUMP JUMPDEST PUSH2 0xA81 PUSH1 0x0 DUP1 PUSH1 0x3 DUP1 SLOAD PUSH2 0x9F2 SWAP1 PUSH2 0x2A02 JUMP JUMPDEST DUP1 PUSH1 0x1F ADD PUSH1 0x20 DUP1 SWAP2 DIV MUL PUSH1 0x20 ADD PUSH1 0x40 MLOAD SWAP1 DUP2 ADD PUSH1 0x40 MSTORE DUP1 SWAP3 SWAP2 SWAP1 DUP2 DUP2 MSTORE PUSH1 0x20 ADD DUP3 DUP1 SLOAD PUSH2 0xA1E SWAP1 PUSH2 0x2A02 JUMP JUMPDEST DUP1 ISZERO PUSH2 0xA6B JUMPI DUP1 PUSH1 0x1F LT PUSH2 0xA40 JUMPI PUSH2 0x100 DUP1 DUP4 SLOAD DIV MUL DUP4 MSTORE SWAP2 PUSH1 0x20 ADD SWAP2 PUSH2 0xA6B JUMP JUMPDEST DUP3 ADD SWAP2 SWAP1 PUSH1 0x0 MSTORE PUSH1 0x20 PUSH1 0x0 KECCAK256 SWAP1 JUMPDEST DUP2 SLOAD DUP2 MSTORE SWAP1 PUSH1 0x1 ADD SWAP1 PUSH1 0x20 ADD DUP1 DUP4 GT PUSH2 0xA4E JUMPI DUP3 SWAP1 SUB PUSH1 0x1F AND DUP3 ADD SWAP2 JUMPDEST POP POP POP POP POP DUP5 PUSH2 0x13C7 SWAP1 SWAP4 SWAP3 SWAP2 SWAP1 PUSH4 0xFFFFFFFF AND JUMP JUMPDEST PUSH2 0xA8B DUP2 DUP5 PUSH2 0x145B JUMP JUMPDEST PUSH32 0x930A61D412EE04B567F790D1232C1FE3D797DE7BFA1F99BA4B6E7FCC7448521F DUP4 PUSH1 0x40 MLOAD PUSH2 0xABA SWAP2 SWAP1 PUSH2 0x26E8 JUMP JUMPDEST PUSH1 0x40 MLOAD DUP1 SWAP2 SUB SWAP1 LOG1 PUSH1 0x0 PUSH2 0xACF DUP3 DUP13 DUP13 PUSH2 0x149B JUMP JUMPDEST PUSH1 0x4 DUP2 SWAP1 SSTORE PUSH1 0x0 DUP2 DUP2 MSTORE PUSH1 0x8 PUSH1 0x20 SWAP1 DUP2 MSTORE PUSH1 0x40 DUP1 DUP4 KECCAK256 DUP14 SWAP1 SSTORE PUSH1 0x9 SWAP1 SWAP2 MSTORE SWAP1 KECCAK256 DUP1 SLOAD PUSH1 0x1 PUSH1 0x1 PUSH1 0xA0 SHL SUB NOT AND CALLER OR SWAP1 SSTORE SWAP8 POP POP POP POP POP POP POP POP JUMPDEST SWAP4 SWAP3 POP POP POP JUMP JUMPDEST PUSH1 0x60 PUSH1 0x3 DUP1 SLOAD PUSH2 0xB1F SWAP1 PUSH2 0x2A02 JUMP JUMPDEST DUP1 PUSH1 0x1F ADD PUSH1 0x20 DUP1 SWAP2 DIV MUL PUSH1 0x20 ADD PUSH1 0x40 MLOAD SWAP1 DUP2 ADD PUSH1 0x40 MSTORE DUP1 SWAP3 SWAP2 SWAP1 DUP2 DUP2 MSTORE PUSH1 0x20 ADD DUP3 DUP1 SLOAD PUSH2 0xB4B SWAP1 PUSH2 0x2A02 JUMP JUMPDEST DUP1 ISZERO PUSH2 0xB98 JUMPI DUP1 PUSH1 0x1F LT PUSH2 0xB6D JUMPI PUSH2 0x100 DUP1 DUP4 SLOAD DIV MUL DUP4 MSTORE SWAP2 PUSH1 0x20 ADD SWAP2 PUSH2 0xB98 JUMP JUMPDEST DUP3 ADD SWAP2 SWAP1 PUSH1 0x0 MSTORE PUSH1 0x20 PUSH1 0x0 KECCAK256 SWAP1 JUMPDEST DUP2 SLOAD DUP2 MSTORE SWAP1 PUSH1 0x1 ADD SWAP1 PUSH1 0x20 ADD DUP1 DUP4 GT PUSH2 0xB7B JUMPI DUP3 SWAP1 SUB PUSH1 0x1F AND DUP3 ADD SWAP2 JUMPDEST POP POP POP POP POP SWAP1 POP SWAP1 JUMP JUMPDEST PUSH2 0xBAA PUSH2 0xE3C JUMP JUMPDEST PUSH2 0xBB4 PUSH1 0x0 PUSH2 0x160D JUMP JUMPDEST JUMP JUMPDEST PUSH1 0x0 DUP2 DUP2 DUP1 JUMPDEST DUP3 MLOAD DUP2 LT ISZERO PUSH2 0xC30 JUMPI PUSH1 0x0 DUP4 DUP3 DUP2 MLOAD DUP2 LT PUSH2 0xBD9 JUMPI PUSH2 0xBD9 PUSH2 0x2AA6 JUMP JUMPDEST ADD PUSH1 0x20 ADD MLOAD PUSH1 0xF8 SHR SWAP1 POP PUSH1 0x30 DUP2 LT DUP1 ISZERO SWAP1 PUSH2 0xBF5 JUMPI POP PUSH1 0x39 DUP2 GT ISZERO JUMPDEST ISZERO PUSH2 0xC1D JUMPI PUSH2 0xC05 PUSH1 0x30 DUP3 PUSH2 0x29BF JUMP JUMPDEST PUSH2 0xC10 DUP5 PUSH1 0xA PUSH2 0x29A0 JUMP JUMPDEST PUSH2 0xC1A SWAP2 SWAP1 PUSH2 0x289D JUMP JUMPDEST SWAP3 POP JUMPDEST POP DUP1 PUSH2 0xC28 DUP2 PUSH2 0x2A3D JUMP JUMPDEST SWAP2 POP POP PUSH2 0xBBC JUMP JUMPDEST POP SWAP4 SWAP3 POP POP POP JUMP JUMPDEST PUSH1 0x5 DUP1 SLOAD PUSH2 0x3C0 SWAP1 PUSH2 0x2A02 JUMP JUMPDEST PUSH1 0x0 DUP1 SLOAD PUSH1 0x40 DUP1 MLOAD PUSH32 0xD328A91E00000000000000000000000000000000000000000000000000000000 DUP2 MSTORE SWAP1 MLOAD PUSH1 0x60 SWAP4 PUSH1 0x1 PUSH1 0x1 PUSH1 0xA0 SHL SUB SWAP1 SWAP4 AND SWAP3 PUSH4 0xD328A91E SWAP3 PUSH1 0x4 DUP1 DUP3 ADD SWAP4 SWAP2 DUP3 SWAP1 SUB ADD DUP2 DUP7 DUP1 EXTCODESIZE ISZERO DUP1 ISZERO PUSH2 0xCA2 JUMPI PUSH1 0x0 DUP1 REVERT JUMPDEST POP GAS STATICCALL ISZERO DUP1 ISZERO PUSH2 0xCB6 JUMPI RETURNDATASIZE PUSH1 0x0 DUP1 RETURNDATACOPY RETURNDATASIZE PUSH1 0x0 REVERT JUMPDEST POP POP POP POP PUSH1 0x40 MLOAD RETURNDATASIZE PUSH1 0x0 DUP3 RETURNDATACOPY PUSH1 0x1F RETURNDATASIZE SWAP1 DUP2 ADD PUSH1 0x1F NOT AND DUP3 ADD PUSH1 0x40 MSTORE PUSH2 0xCDE SWAP2 SWAP1 DUP2 ADD SWAP1 PUSH2 0x2254 JUMP JUMPDEST SWAP1 POP SWAP1 JUMP JUMPDEST PUSH1 0x0 DUP1 SLOAD PUSH1 0x1 PUSH1 0x1 PUSH1 0xA0 SHL SUB AND PUSH4 0xD227D245 DUP6 PUSH2 0xCFF DUP9 PUSH2 0x165F JUMP JUMPDEST DUP7 DUP7 PUSH1 0x40 MLOAD DUP6 PUSH4 0xFFFFFFFF AND PUSH1 0xE0 SHL DUP2 MSTORE PUSH1 0x4 ADD PUSH2 0xD20 SWAP5 SWAP4 SWAP3 SWAP2 SWAP1 PUSH2 0x27BB JUMP JUMPDEST PUSH1 0x20 PUSH1 0x40 MLOAD DUP1 DUP4 SUB DUP2 DUP7 DUP1 EXTCODESIZE ISZERO DUP1 ISZERO PUSH2 0xD38 JUMPI PUSH1 0x0 DUP1 REVERT JUMPDEST POP GAS STATICCALL ISZERO DUP1 ISZERO PUSH2 0xD4C JUMPI RETURNDATASIZE PUSH1 0x0 DUP1 RETURNDATACOPY RETURNDATASIZE PUSH1 0x0 REVERT JUMPDEST POP POP POP POP PUSH1 0x40 MLOAD RETURNDATASIZE PUSH1 0x1F NOT PUSH1 0x1F DUP3 ADD AND DUP3 ADD DUP1 PUSH1 0x40 MSTORE POP DUP2 ADD SWAP1 PUSH2 0xD70 SWAP2 SWAP1 PUSH2 0x268E JUMP JUMPDEST SWAP6 SWAP5 POP POP POP POP POP JUMP JUMPDEST PUSH2 0xD81 PUSH2 0xE3C JUMP JUMPDEST PUSH1 0x1 PUSH1 0x1 PUSH1 0xA0 SHL SUB DUP2 AND PUSH2 0xDFD JUMPI PUSH1 0x40 MLOAD PUSH3 0x461BCD PUSH1 0xE5 SHL DUP2 MSTORE PUSH1 0x20 PUSH1 0x4 DUP3 ADD MSTORE PUSH1 0x26 PUSH1 0x24 DUP3 ADD MSTORE PUSH32 0x4F776E61626C653A206E6577206F776E657220697320746865207A65726F2061 PUSH1 0x44 DUP3 ADD MSTORE PUSH32 0x6464726573730000000000000000000000000000000000000000000000000000 PUSH1 0x64 DUP3 ADD MSTORE PUSH1 0x84 ADD PUSH2 0x99C JUMP JUMPDEST PUSH2 0xE06 DUP2 PUSH2 0x160D JUMP JUMPDEST POP JUMP JUMPDEST PUSH2 0xE11 PUSH2 0xE3C JUMP JUMPDEST PUSH1 0x0 DUP1 SLOAD PUSH1 0x1 PUSH1 0x1 PUSH1 0xA0 SHL SUB NOT AND PUSH1 0x1 PUSH1 0x1 PUSH1 0xA0 SHL SUB DUP4 AND OR SWAP1 SSTORE POP JUMP JUMPDEST PUSH1 0x6 DUP1 SLOAD PUSH2 0x3C0 SWAP1 PUSH2 0x2A02 JUMP JUMPDEST PUSH1 0x2 SLOAD PUSH1 0x1 PUSH1 0x1 PUSH1 0xA0 SHL SUB AND CALLER EQ PUSH2 0xBB4 JUMPI PUSH1 0x40 MLOAD PUSH3 0x461BCD PUSH1 0xE5 SHL DUP2 MSTORE PUSH1 0x20 PUSH1 0x4 DUP3 ADD DUP2 SWAP1 MSTORE PUSH1 0x24 DUP3 ADD MSTORE PUSH32 0x4F776E61626C653A2063616C6C6572206973206E6F7420746865206F776E6572 PUSH1 0x44 DUP3 ADD MSTORE PUSH1 0x64 ADD PUSH2 0x99C JUMP JUMPDEST DUP2 MLOAD PUSH2 0xEA9 SWAP1 PUSH1 0x5 SWAP1 PUSH1 0x20 DUP6 ADD SWAP1 PUSH2 0x1E56 JUMP JUMPDEST POP DUP1 MLOAD PUSH2 0xEBD SWAP1 PUSH1 0x6 SWAP1 PUSH1 0x20 DUP5 ADD SWAP1 PUSH2 0x1E56 JUMP JUMPDEST POP DUP3 PUSH32 0x7BAB0EC163B5C132C72B8146AC4D6E067E82ED58F8B131150AA71C9258911562 DUP4 DUP4 PUSH1 0x40 MLOAD PUSH2 0xEF0 SWAP3 SWAP2 SWAP1 PUSH2 0x275D JUMP JUMPDEST PUSH1 0x40 MLOAD DUP1 SWAP2 SUB SWAP1 LOG2 PUSH1 0x0 DUP4 DUP2 MSTORE PUSH1 0x8 PUSH1 0x20 SWAP1 DUP2 MSTORE PUSH1 0x40 DUP1 DUP4 KECCAK256 SLOAD PUSH1 0x9 SWAP1 SWAP3 MSTORE DUP1 DUP4 KECCAK256 SLOAD PUSH1 0x7 SLOAD SWAP2 MLOAD PUSH4 0x61875D8D PUSH1 0xE0 SHL DUP2 MSTORE PUSH1 0x1 PUSH1 0x1 PUSH1 0xA0 SHL SUB SWAP2 DUP3 AND PUSH1 0x4 DUP3 ADD DUP2 SWAP1 MSTORE PUSH1 0x24 DUP3 ADD DUP6 SWAP1 MSTORE SWAP4 SWAP5 SWAP3 SWAP2 SWAP1 SWAP2 AND SWAP1 PUSH4 0x61875D8D SWAP1 PUSH1 0x44 ADD PUSH1 0x0 PUSH1 0x40 MLOAD DUP1 DUP4 SUB DUP2 DUP7 DUP1 EXTCODESIZE ISZERO DUP1 ISZERO PUSH2 0xF64 JUMPI PUSH1 0x0 DUP1 REVERT JUMPDEST POP GAS STATICCALL ISZERO DUP1 ISZERO PUSH2 0xF78 JUMPI RETURNDATASIZE PUSH1 0x0 DUP1 RETURNDATACOPY RETURNDATASIZE PUSH1 0x0 REVERT JUMPDEST POP POP POP POP PUSH1 0x40 MLOAD RETURNDATASIZE PUSH1 0x0 DUP3 RETURNDATACOPY PUSH1 0x1F RETURNDATASIZE SWAP1 DUP2 ADD PUSH1 0x1F NOT AND DUP3 ADD PUSH1 0x40 MSTORE PUSH2 0xFA0 SWAP2 SWAP1 DUP2 ADD SWAP1 PUSH2 0x22DA JUMP JUMPDEST PUSH1 0x7 SLOAD PUSH1 0x40 MLOAD PUSH32 0xCC9DE25D00000000000000000000000000000000000000000000000000000000 DUP2 MSTORE SWAP2 SWAP3 POP PUSH1 0x0 SWAP2 PUSH1 0x1 PUSH1 0x1 PUSH1 0xA0 SHL SUB SWAP1 SWAP2 AND SWAP1 PUSH4 0xCC9DE25D SWAP1 PUSH2 0xFEF SWAP1 DUP10 SWAP1 PUSH1 0x4 ADD PUSH2 0x274A JUMP JUMPDEST PUSH1 0x20 PUSH1 0x40 MLOAD DUP1 DUP4 SUB DUP2 DUP7 DUP1 EXTCODESIZE ISZERO DUP1 ISZERO PUSH2 0x1007 JUMPI PUSH1 0x0 DUP1 REVERT JUMPDEST POP GAS STATICCALL ISZERO DUP1 ISZERO PUSH2 0x101B JUMPI RETURNDATASIZE PUSH1 0x0 DUP1 RETURNDATACOPY RETURNDATASIZE PUSH1 0x0 REVERT JUMPDEST POP POP POP POP PUSH1 0x40 MLOAD RETURNDATASIZE PUSH1 0x1F NOT PUSH1 0x1F DUP3 ADD AND DUP3 ADD DUP1 PUSH1 0x40 MSTORE POP DUP2 ADD SWAP1 PUSH2 0x103F SWAP2 SWAP1 PUSH2 0x21CE JUMP JUMPDEST SWAP1 POP DUP1 ISZERO PUSH2 0x117C JUMPI PUSH1 0x7 SLOAD PUSH1 0x40 MLOAD PUSH32 0xECD831E800000000000000000000000000000000000000000000000000000000 DUP2 MSTORE PUSH1 0x1 PUSH1 0x1 PUSH1 0xA0 SHL SUB DUP6 DUP2 AND PUSH1 0x4 DUP4 ADD MSTORE PUSH1 0x24 DUP3 ADD DUP5 SWAP1 MSTORE SWAP1 SWAP2 AND SWAP1 PUSH4 0xECD831E8 SWAP1 PUSH1 0x44 ADD PUSH1 0x0 PUSH1 0x40 MLOAD DUP1 DUP4 SUB DUP2 PUSH1 0x0 DUP8 DUP1 EXTCODESIZE ISZERO DUP1 ISZERO PUSH2 0x10AE JUMPI PUSH1 0x0 DUP1 REVERT JUMPDEST POP GAS CALL ISZERO DUP1 ISZERO PUSH2 0x10C2 JUMPI RETURNDATASIZE PUSH1 0x0 DUP1 RETURNDATACOPY RETURNDATASIZE PUSH1 0x0 REVERT JUMPDEST POP POP PUSH1 0x7 SLOAD PUSH1 0x40 MLOAD PUSH4 0x2F1635A3 PUSH1 0xE2 SHL DUP2 MSTORE PUSH1 0x1 PUSH1 0x1 PUSH1 0xA0 SHL SUB DUP8 DUP2 AND PUSH1 0x4 DUP4 ADD MSTORE PUSH1 0x24 DUP3 ADD DUP10 SWAP1 MSTORE SWAP1 SWAP2 AND SWAP3 POP PUSH4 0xBC58D68C SWAP2 POP PUSH1 0x44 ADD PUSH1 0x0 PUSH1 0x40 MLOAD DUP1 DUP4 SUB DUP2 PUSH1 0x0 DUP8 DUP1 EXTCODESIZE ISZERO DUP1 ISZERO PUSH2 0x1114 JUMPI PUSH1 0x0 DUP1 REVERT JUMPDEST POP GAS CALL ISZERO DUP1 ISZERO PUSH2 0x1128 JUMPI RETURNDATASIZE PUSH1 0x0 DUP1 RETURNDATACOPY RETURNDATASIZE PUSH1 0x0 REVERT JUMPDEST POP POP PUSH1 0x40 DUP1 MLOAD PUSH1 0x1 PUSH1 0x1 PUSH1 0xA0 SHL SUB DUP8 AND DUP2 MSTORE PUSH1 0x20 DUP2 ADD DUP9 SWAP1 MSTORE SWAP1 DUP2 ADD DUP5 SWAP1 MSTORE PUSH32 0x634235FCF5AF0ADBCA1A405EC65F6F6C08F55E1F379C2C45CD10F23CB29E0E31 SWAP3 POP PUSH1 0x60 ADD SWAP1 POP PUSH1 0x40 MLOAD DUP1 SWAP2 SUB SWAP1 LOG1 PUSH2 0x129C JUMP JUMPDEST PUSH1 0x0 PUSH2 0x118C DUP4 PUSH2 0x140 ADD MLOAD PUSH2 0xBB6 JUMP JUMPDEST SWAP1 POP DUP1 TIMESTAMP GT ISZERO PUSH2 0x1244 JUMPI PUSH1 0x7 SLOAD PUSH1 0x40 MLOAD PUSH4 0x2F1635A3 PUSH1 0xE2 SHL DUP2 MSTORE PUSH1 0x1 PUSH1 0x1 PUSH1 0xA0 SHL SUB DUP7 DUP2 AND PUSH1 0x4 DUP4 ADD MSTORE PUSH1 0x24 DUP3 ADD DUP9 SWAP1 MSTORE SWAP1 SWAP2 AND SWAP1 PUSH4 0xBC58D68C SWAP1 PUSH1 0x44 ADD PUSH1 0x0 PUSH1 0x40 MLOAD DUP1 DUP4 SUB DUP2 PUSH1 0x0 DUP8 DUP1 EXTCODESIZE ISZERO DUP1 ISZERO PUSH2 0x11E4 JUMPI PUSH1 0x0 DUP1 REVERT JUMPDEST POP GAS CALL ISZERO DUP1 ISZERO PUSH2 0x11F8 JUMPI RETURNDATASIZE PUSH1 0x0 DUP1 RETURNDATACOPY RETURNDATASIZE PUSH1 0x0 REVERT JUMPDEST POP POP PUSH1 0x40 DUP1 MLOAD PUSH1 0x1 PUSH1 0x1 PUSH1 0xA0 SHL SUB DUP9 AND DUP2 MSTORE PUSH1 0x20 DUP2 ADD DUP10 SWAP1 MSTORE PUSH32 0x5E258A8DA32249E7D7E1EBCD6B64F7C97C4235999DB64B6687191B183D5E3F2 SWAP4 POP ADD SWAP1 POP PUSH1 0x40 MLOAD DUP1 SWAP2 SUB SWAP1 LOG1 PUSH2 0x129A JUMP JUMPDEST PUSH32 0x59D77641060CAFC4D86DDDD4BD9C687BBFBD23FB4B1962869AFE9F54507105EA DUP5 DUP7 PUSH2 0x1271 TIMESTAMP DUP6 PUSH2 0x29BF JUMP JUMPDEST PUSH1 0x40 DUP1 MLOAD PUSH1 0x1 PUSH1 0x1 PUSH1 0xA0 SHL SUB SWAP1 SWAP5 AND DUP5 MSTORE PUSH1 0x20 DUP5 ADD SWAP3 SWAP1 SWAP3 MSTORE SWAP1 DUP3 ADD MSTORE PUSH1 0x60 ADD PUSH1 0x40 MLOAD DUP1 SWAP2 SUB SWAP1 LOG1 JUMPDEST POP JUMPDEST POP POP POP POP POP POP POP JUMP JUMPDEST PUSH1 0x0 DUP2 DUP2 MSTORE PUSH1 0x1 PUSH1 0x20 MSTORE PUSH1 0x40 SWAP1 KECCAK256 SLOAD DUP2 SWAP1 PUSH1 0x1 PUSH1 0x1 PUSH1 0xA0 SHL SUB AND ISZERO PUSH2 0x12F6 JUMPI PUSH1 0x40 MLOAD PUSH32 0x8B457AD200000000000000000000000000000000000000000000000000000000 DUP2 MSTORE PUSH1 0x4 ADD PUSH1 0x40 MLOAD DUP1 SWAP2 SUB SWAP1 REVERT JUMPDEST POP PUSH1 0x0 SWAP1 DUP2 MSTORE PUSH1 0x1 PUSH1 0x20 MSTORE PUSH1 0x40 SWAP1 KECCAK256 DUP1 SLOAD PUSH1 0x1 PUSH1 0x1 PUSH1 0xA0 SHL SUB NOT AND PUSH1 0x1 PUSH1 0x1 PUSH1 0xA0 SHL SUB SWAP3 SWAP1 SWAP3 AND SWAP2 SWAP1 SWAP2 OR SWAP1 SSTORE JUMP JUMPDEST PUSH1 0x60 PUSH1 0x0 PUSH2 0x1332 DUP4 PUSH2 0x192B JUMP JUMPDEST PUSH1 0x1 ADD SWAP1 POP PUSH1 0x0 DUP2 PUSH8 0xFFFFFFFFFFFFFFFF DUP2 GT ISZERO PUSH2 0x1352 JUMPI PUSH2 0x1352 PUSH2 0x2ABC JUMP JUMPDEST PUSH1 0x40 MLOAD SWAP1 DUP1 DUP3 MSTORE DUP1 PUSH1 0x1F ADD PUSH1 0x1F NOT AND PUSH1 0x20 ADD DUP3 ADD PUSH1 0x40 MSTORE DUP1 ISZERO PUSH2 0x137C JUMPI PUSH1 0x20 DUP3 ADD DUP2 DUP1 CALLDATASIZE DUP4 CALLDATACOPY ADD SWAP1 POP JUMPDEST POP SWAP1 POP DUP2 DUP2 ADD PUSH1 0x20 ADD JUMPDEST PUSH1 0x0 NOT ADD PUSH32 0x3031323334353637383961626364656600000000000000000000000000000000 PUSH1 0xA DUP7 MOD BYTE DUP2 MSTORE8 PUSH1 0xA DUP6 DIV SWAP5 POP DUP5 PUSH2 0x13C2 JUMPI PUSH2 0xC30 JUMP JUMPDEST PUSH2 0x1386 JUMP JUMPDEST DUP1 MLOAD PUSH2 0x13FF JUMPI PUSH1 0x40 MLOAD PUSH32 0x22CE3EDD00000000000000000000000000000000000000000000000000000000 DUP2 MSTORE PUSH1 0x4 ADD PUSH1 0x40 MLOAD DUP1 SWAP2 SUB SWAP1 REVERT JUMPDEST DUP4 DUP4 PUSH1 0x1 DUP2 GT ISZERO PUSH2 0x1412 JUMPI PUSH2 0x1412 PUSH2 0x2A90 JUMP JUMPDEST SWAP1 DUP2 PUSH1 0x1 DUP2 GT ISZERO PUSH2 0x1425 JUMPI PUSH2 0x1425 PUSH2 0x2A90 JUMP JUMPDEST SWAP1 MSTORE POP PUSH1 0x40 DUP5 ADD DUP3 DUP1 ISZERO PUSH2 0x143B JUMPI PUSH2 0x143B PUSH2 0x2A90 JUMP JUMPDEST SWAP1 DUP2 DUP1 ISZERO PUSH2 0x144B JUMPI PUSH2 0x144B PUSH2 0x2A90 JUMP JUMPDEST SWAP1 MSTORE POP PUSH1 0x60 SWAP1 SWAP4 ADD SWAP3 SWAP1 SWAP3 MSTORE POP POP JUMP JUMPDEST DUP1 MLOAD PUSH2 0x1493 JUMPI PUSH1 0x40 MLOAD PUSH32 0xFE936CB700000000000000000000000000000000000000000000000000000000 DUP2 MSTORE PUSH1 0x4 ADD PUSH1 0x40 MLOAD DUP1 SWAP2 SUB SWAP1 REVERT JUMPDEST PUSH1 0xA0 SWAP1 SWAP2 ADD MSTORE JUMP JUMPDEST PUSH1 0x0 DUP1 SLOAD DUP2 SWAP1 PUSH1 0x1 PUSH1 0x1 PUSH1 0xA0 SHL SUB AND PUSH4 0x28242B04 DUP6 PUSH2 0x14B9 DUP9 PUSH2 0x165F JUMP JUMPDEST DUP7 PUSH1 0x40 MLOAD DUP5 PUSH4 0xFFFFFFFF AND PUSH1 0xE0 SHL DUP2 MSTORE PUSH1 0x4 ADD PUSH2 0x14D8 SWAP4 SWAP3 SWAP2 SWAP1 PUSH2 0x2782 JUMP JUMPDEST PUSH1 0x20 PUSH1 0x40 MLOAD DUP1 DUP4 SUB DUP2 PUSH1 0x0 DUP8 DUP1 EXTCODESIZE ISZERO DUP1 ISZERO PUSH2 0x14F2 JUMPI PUSH1 0x0 DUP1 REVERT JUMPDEST POP GAS CALL ISZERO DUP1 ISZERO PUSH2 0x1506 JUMPI RETURNDATASIZE PUSH1 0x0 DUP1 RETURNDATACOPY RETURNDATASIZE PUSH1 0x0 REVERT JUMPDEST POP POP POP POP PUSH1 0x40 MLOAD RETURNDATASIZE PUSH1 0x1F NOT PUSH1 0x1F DUP3 ADD AND DUP3 ADD DUP1 PUSH1 0x40 MSTORE POP DUP2 ADD SWAP1 PUSH2 0x152A SWAP2 SWAP1 PUSH2 0x21CE JUMP JUMPDEST SWAP1 POP PUSH1 0x0 DUP1 SLOAD SWAP1 PUSH2 0x100 EXP SWAP1 DIV PUSH1 0x1 PUSH1 0x1 PUSH1 0xA0 SHL SUB AND PUSH1 0x1 PUSH1 0x1 PUSH1 0xA0 SHL SUB AND PUSH4 0x5AB1BD53 PUSH1 0x40 MLOAD DUP2 PUSH4 0xFFFFFFFF AND PUSH1 0xE0 SHL DUP2 MSTORE PUSH1 0x4 ADD PUSH1 0x20 PUSH1 0x40 MLOAD DUP1 DUP4 SUB DUP2 DUP7 DUP1 EXTCODESIZE ISZERO DUP1 ISZERO PUSH2 0x1578 JUMPI PUSH1 0x0 DUP1 REVERT JUMPDEST POP GAS STATICCALL ISZERO DUP1 ISZERO PUSH2 0x158C JUMPI RETURNDATASIZE PUSH1 0x0 DUP1 RETURNDATACOPY RETURNDATASIZE PUSH1 0x0 REVERT JUMPDEST POP POP POP POP PUSH1 0x40 MLOAD RETURNDATASIZE PUSH1 0x1F NOT PUSH1 0x1F DUP3 ADD AND DUP3 ADD DUP1 PUSH1 0x40 MSTORE POP DUP2 ADD SWAP1 PUSH2 0x15B0 SWAP2 SWAP1 PUSH2 0x216C JUMP JUMPDEST PUSH1 0x0 DUP3 DUP2 MSTORE PUSH1 0x1 PUSH1 0x20 MSTORE PUSH1 0x40 DUP1 DUP3 KECCAK256 DUP1 SLOAD PUSH1 0x1 PUSH1 0x1 PUSH1 0xA0 SHL SUB NOT AND PUSH1 0x1 PUSH1 0x1 PUSH1 0xA0 SHL SUB SWAP5 SWAP1 SWAP5 AND SWAP4 SWAP1 SWAP4 OR SWAP1 SWAP3 SSTORE SWAP1 MLOAD DUP3 SWAP2 PUSH32 0x1131472297A800FEE664D1D89CFA8F7676FF07189ECC53F80BBB5F4969099DB8 SWAP2 LOG2 SWAP5 SWAP4 POP POP POP POP JUMP JUMPDEST PUSH1 0x2 DUP1 SLOAD PUSH1 0x1 PUSH1 0x1 PUSH1 0xA0 SHL SUB DUP4 DUP2 AND PUSH1 0x1 PUSH1 0x1 PUSH1 0xA0 SHL SUB NOT DUP4 AND DUP2 OR SWAP1 SWAP4 SSTORE PUSH1 0x40 MLOAD SWAP2 AND SWAP2 SWAP1 DUP3 SWAP1 PUSH32 0x8BE0079C531659141344CD1FD0A4F28419497F9722A3DAAFE3B4186F6B6457E0 SWAP1 PUSH1 0x0 SWAP1 LOG3 POP POP JUMP JUMPDEST PUSH1 0x60 PUSH2 0x1669 PUSH2 0x1F6C JUMP JUMPDEST DUP1 MLOAD PUSH2 0x1677 SWAP1 PUSH2 0x100 PUSH2 0x1A0E JUMP JUMPDEST POP PUSH2 0x16B7 DUP2 PUSH1 0x40 MLOAD DUP1 PUSH1 0x40 ADD PUSH1 0x40 MSTORE DUP1 PUSH1 0xC DUP2 MSTORE PUSH1 0x20 ADD PUSH32 0x636F64654C6F636174696F6E0000000000000000000000000000000000000000 DUP2 MSTORE POP PUSH2 0x1A85 JUMP JUMPDEST PUSH2 0x16D6 DUP2 DUP5 PUSH1 0x0 ADD MLOAD PUSH1 0x1 DUP2 GT ISZERO PUSH2 0x16D1 JUMPI PUSH2 0x16D1 PUSH2 0x2A90 JUMP JUMPDEST PUSH2 0x1AA3 JUMP JUMPDEST PUSH2 0x1715 DUP2 PUSH1 0x40 MLOAD DUP1 PUSH1 0x40 ADD PUSH1 0x40 MSTORE DUP1 PUSH1 0x8 DUP2 MSTORE PUSH1 0x20 ADD PUSH32 0x6C616E6775616765000000000000000000000000000000000000000000000000 DUP2 MSTORE POP PUSH2 0x1A85 JUMP JUMPDEST PUSH2 0x172F DUP2 DUP5 PUSH1 0x40 ADD MLOAD PUSH1 0x0 DUP2 GT ISZERO PUSH2 0x16D1 JUMPI PUSH2 0x16D1 PUSH2 0x2A90 JUMP JUMPDEST PUSH2 0x176E DUP2 PUSH1 0x40 MLOAD DUP1 PUSH1 0x40 ADD PUSH1 0x40 MSTORE DUP1 PUSH1 0x6 DUP2 MSTORE PUSH1 0x20 ADD PUSH32 0x736F757263650000000000000000000000000000000000000000000000000000 DUP2 MSTORE POP PUSH2 0x1A85 JUMP JUMPDEST PUSH2 0x177C DUP2 DUP5 PUSH1 0x60 ADD MLOAD PUSH2 0x1A85 JUMP JUMPDEST PUSH1 0xA0 DUP4 ADD MLOAD MLOAD ISZERO PUSH2 0x1822 JUMPI PUSH2 0x17C6 DUP2 PUSH1 0x40 MLOAD DUP1 PUSH1 0x40 ADD PUSH1 0x40 MSTORE DUP1 PUSH1 0x4 DUP2 MSTORE PUSH1 0x20 ADD PUSH32 0x6172677300000000000000000000000000000000000000000000000000000000 DUP2 MSTORE POP PUSH2 0x1A85 JUMP JUMPDEST PUSH2 0x17CF DUP2 PUSH2 0x1ADC JUMP JUMPDEST PUSH1 0x0 JUMPDEST DUP4 PUSH1 0xA0 ADD MLOAD MLOAD DUP2 LT ISZERO PUSH2 0x1818 JUMPI PUSH2 0x1806 DUP3 DUP6 PUSH1 0xA0 ADD MLOAD DUP4 DUP2 MLOAD DUP2 LT PUSH2 0x17F9 JUMPI PUSH2 0x17F9 PUSH2 0x2AA6 JUMP JUMPDEST PUSH1 0x20 MUL PUSH1 0x20 ADD ADD MLOAD PUSH2 0x1A85 JUMP JUMPDEST DUP1 PUSH2 0x1810 DUP2 PUSH2 0x2A3D JUMP JUMPDEST SWAP2 POP POP PUSH2 0x17D2 JUMP JUMPDEST POP PUSH2 0x1822 DUP2 PUSH2 0x1B00 JUMP JUMPDEST PUSH1 0x80 DUP4 ADD MLOAD MLOAD ISZERO PUSH2 0x1923 JUMPI PUSH1 0x0 DUP4 PUSH1 0x20 ADD MLOAD PUSH1 0x1 DUP2 GT ISZERO PUSH2 0x1845 JUMPI PUSH2 0x1845 PUSH2 0x2A90 JUMP JUMPDEST EQ ISZERO PUSH2 0x187D JUMPI PUSH1 0x40 MLOAD PUSH32 0xA80D31F700000000000000000000000000000000000000000000000000000000 DUP2 MSTORE PUSH1 0x4 ADD PUSH1 0x40 MLOAD DUP1 SWAP2 SUB SWAP1 REVERT JUMPDEST PUSH2 0x18BC DUP2 PUSH1 0x40 MLOAD DUP1 PUSH1 0x40 ADD PUSH1 0x40 MSTORE DUP1 PUSH1 0xF DUP2 MSTORE PUSH1 0x20 ADD PUSH32 0x736563726574734C6F636174696F6E0000000000000000000000000000000000 DUP2 MSTORE POP PUSH2 0x1A85 JUMP JUMPDEST PUSH2 0x18D6 DUP2 DUP5 PUSH1 0x20 ADD MLOAD PUSH1 0x1 DUP2 GT ISZERO PUSH2 0x16D1 JUMPI PUSH2 0x16D1 PUSH2 0x2A90 JUMP JUMPDEST PUSH2 0x1915 DUP2 PUSH1 0x40 MLOAD DUP1 PUSH1 0x40 ADD PUSH1 0x40 MSTORE DUP1 PUSH1 0x7 DUP2 MSTORE PUSH1 0x20 ADD PUSH32 0x7365637265747300000000000000000000000000000000000000000000000000 DUP2 MSTORE POP PUSH2 0x1A85 JUMP JUMPDEST PUSH2 0x1923 DUP2 DUP5 PUSH1 0x80 ADD MLOAD PUSH2 0x1B1E JUMP JUMPDEST MLOAD MLOAD SWAP3 SWAP2 POP POP JUMP JUMPDEST PUSH1 0x0 DUP1 PUSH27 0x184F03E93FF9F4DAA797ED6E38ED64BF6A1F010000000000000000 DUP4 LT PUSH2 0x1974 JUMPI PUSH27 0x184F03E93FF9F4DAA797ED6E38ED64BF6A1F010000000000000000 DUP4 DIV SWAP3 POP PUSH1 0x40 ADD JUMPDEST PUSH14 0x4EE2D6D415B85ACEF8100000000 DUP4 LT PUSH2 0x19A0 JUMPI PUSH14 0x4EE2D6D415B85ACEF8100000000 DUP4 DIV SWAP3 POP PUSH1 0x20 ADD JUMPDEST PUSH7 0x2386F26FC10000 DUP4 LT PUSH2 0x19BE JUMPI PUSH7 0x2386F26FC10000 DUP4 DIV SWAP3 POP PUSH1 0x10 ADD JUMPDEST PUSH4 0x5F5E100 DUP4 LT PUSH2 0x19D6 JUMPI PUSH4 0x5F5E100 DUP4 DIV SWAP3 POP PUSH1 0x8 ADD JUMPDEST PUSH2 0x2710 DUP4 LT PUSH2 0x19EA JUMPI PUSH2 0x2710 DUP4 DIV SWAP3 POP PUSH1 0x4 ADD JUMPDEST PUSH1 0x64 DUP4 LT PUSH2 0x19FC JUMPI PUSH1 0x64 DUP4 DIV SWAP3 POP PUSH1 0x2 ADD JUMPDEST PUSH1 0xA DUP4 LT PUSH2 0x1A08 JUMPI PUSH1 0x1 ADD JUMPDEST SWAP3 SWAP2 POP POP JUMP JUMPDEST PUSH1 0x40 DUP1 MLOAD DUP1 DUP3 ADD SWAP1 SWAP2 MSTORE PUSH1 0x60 DUP2 MSTORE PUSH1 0x0 PUSH1 0x20 DUP3 ADD MSTORE PUSH2 0x1A2E PUSH1 0x20 DUP4 PUSH2 0x2A58 JUMP JUMPDEST ISZERO PUSH2 0x1A56 JUMPI PUSH2 0x1A3E PUSH1 0x20 DUP4 PUSH2 0x2A58 JUMP JUMPDEST PUSH2 0x1A49 SWAP1 PUSH1 0x20 PUSH2 0x29BF JUMP JUMPDEST PUSH2 0x1A53 SWAP1 DUP4 PUSH2 0x289D JUMP JUMPDEST SWAP2 POP JUMPDEST PUSH1 0x20 DUP1 DUP5 ADD DUP4 SWAP1 MSTORE PUSH1 0x40 MLOAD DUP1 DUP6 MSTORE PUSH1 0x0 DUP2 MSTORE SWAP1 DUP2 DUP5 ADD ADD DUP2 DUP2 LT ISZERO PUSH2 0x1A7A JUMPI PUSH1 0x0 DUP1 REVERT JUMPDEST PUSH1 0x40 MSTORE POP SWAP2 SWAP3 SWAP2 POP POP JUMP JUMPDEST PUSH2 0x1A92 DUP3 PUSH1 0x3 DUP4 MLOAD PUSH2 0x1B27 JUMP JUMPDEST DUP2 MLOAD PUSH2 0x1A9E SWAP1 DUP3 PUSH2 0x1C48 JUMP JUMPDEST POP POP POP JUMP JUMPDEST DUP2 MLOAD PUSH2 0x1AB0 SWAP1 PUSH1 0xC2 PUSH2 0x1C69 JUMP JUMPDEST POP PUSH2 0x309 DUP3 DUP3 PUSH1 0x40 MLOAD PUSH1 0x20 ADD PUSH2 0x1AC8 SWAP2 DUP2 MSTORE PUSH1 0x20 ADD SWAP1 JUMP JUMPDEST PUSH1 0x40 MLOAD PUSH1 0x20 DUP2 DUP4 SUB SUB DUP2 MSTORE SWAP1 PUSH1 0x40 MSTORE PUSH2 0x1B1E JUMP JUMPDEST PUSH2 0x1AE7 DUP2 PUSH1 0x4 PUSH2 0x1CD2 JUMP JUMPDEST PUSH1 0x1 DUP2 PUSH1 0x20 ADD DUP2 DUP2 MLOAD PUSH2 0x1AFA SWAP2 SWAP1 PUSH2 0x289D JUMP JUMPDEST SWAP1 MSTORE POP POP JUMP JUMPDEST PUSH2 0x1B0B DUP2 PUSH1 0x7 PUSH2 0x1CD2 JUMP JUMPDEST PUSH1 0x1 DUP2 PUSH1 0x20 ADD DUP2 DUP2 MLOAD PUSH2 0x1AFA SWAP2 SWAP1 PUSH2 0x29BF JUMP JUMPDEST PUSH2 0x1A92 DUP3 PUSH1 0x2 DUP4 MLOAD JUMPDEST PUSH1 0x17 DUP2 PUSH8 0xFFFFFFFFFFFFFFFF AND GT PUSH2 0x1B4E JUMPI DUP3 MLOAD PUSH2 0x3AD SWAP1 PUSH1 0xE0 PUSH1 0x5 DUP6 SWAP1 SHL AND DUP4 OR PUSH2 0x1C69 JUMP JUMPDEST PUSH1 0xFF DUP2 PUSH8 0xFFFFFFFFFFFFFFFF AND GT PUSH2 0x1B90 JUMPI DUP3 MLOAD PUSH2 0x1B77 SWAP1 PUSH1 0x18 PUSH2 0x1FE0 PUSH1 0x5 DUP7 SWAP1 SHL AND OR PUSH2 0x1C69 JUMP JUMPDEST POP DUP3 MLOAD PUSH2 0x3AD SWAP1 PUSH8 0xFFFFFFFFFFFFFFFF DUP4 AND PUSH1 0x1 PUSH2 0x1CE9 JUMP JUMPDEST PUSH2 0xFFFF DUP2 PUSH8 0xFFFFFFFFFFFFFFFF AND GT PUSH2 0x1BD3 JUMPI DUP3 MLOAD PUSH2 0x1BBA SWAP1 PUSH1 0x19 PUSH2 0x1FE0 PUSH1 0x5 DUP7 SWAP1 SHL AND OR PUSH2 0x1C69 JUMP JUMPDEST POP DUP3 MLOAD PUSH2 0x3AD SWAP1 PUSH8 0xFFFFFFFFFFFFFFFF DUP4 AND PUSH1 0x2 PUSH2 0x1CE9 JUMP JUMPDEST PUSH4 0xFFFFFFFF DUP2 PUSH8 0xFFFFFFFFFFFFFFFF AND GT PUSH2 0x1C18 JUMPI DUP3 MLOAD PUSH2 0x1BFF SWAP1 PUSH1 0x1A PUSH2 0x1FE0 PUSH1 0x5 DUP7 SWAP1 SHL AND OR PUSH2 0x1C69 JUMP JUMPDEST POP DUP3 MLOAD PUSH2 0x3AD SWAP1 PUSH8 0xFFFFFFFFFFFFFFFF DUP4 AND PUSH1 0x4 PUSH2 0x1CE9 JUMP JUMPDEST DUP3 MLOAD PUSH2 0x1C2F SWAP1 PUSH1 0x1B PUSH2 0x1FE0 PUSH1 0x5 DUP7 SWAP1 SHL AND OR PUSH2 0x1C69 JUMP JUMPDEST POP DUP3 MLOAD PUSH2 0x3AD SWAP1 PUSH8 0xFFFFFFFFFFFFFFFF DUP4 AND PUSH1 0x8 PUSH2 0x1CE9 JUMP JUMPDEST PUSH1 0x40 DUP1 MLOAD DUP1 DUP3 ADD SWAP1 SWAP2 MSTORE PUSH1 0x60 DUP2 MSTORE PUSH1 0x0 PUSH1 0x20 DUP3 ADD MSTORE PUSH2 0xB09 DUP4 DUP4 DUP5 MLOAD PUSH2 0x1D6E JUMP JUMPDEST PUSH1 0x40 DUP1 MLOAD DUP1 DUP3 ADD SWAP1 SWAP2 MSTORE PUSH1 0x60 DUP2 MSTORE PUSH1 0x0 PUSH1 0x20 DUP3 ADD MSTORE DUP3 MLOAD MLOAD PUSH1 0x0 PUSH2 0x1C8E DUP3 PUSH1 0x1 PUSH2 0x289D JUMP JUMPDEST SWAP1 POP DUP5 PUSH1 0x20 ADD MLOAD DUP3 LT PUSH2 0x1CAF JUMPI PUSH2 0x1CAF DUP6 PUSH2 0x1CAA DUP4 PUSH1 0x2 PUSH2 0x29A0 JUMP JUMPDEST PUSH2 0x1E3F JUMP JUMPDEST DUP5 MLOAD PUSH1 0x20 DUP4 DUP3 ADD ADD DUP6 DUP2 MSTORE8 POP DUP1 MLOAD DUP3 GT ISZERO PUSH2 0x1CC8 JUMPI DUP2 DUP2 MSTORE JUMPDEST POP SWAP4 SWAP5 SWAP4 POP POP POP POP JUMP JUMPDEST DUP2 MLOAD PUSH2 0x1A9E SWAP1 PUSH1 0x1F PUSH2 0x1FE0 PUSH1 0x5 DUP6 SWAP1 SHL AND OR PUSH2 0x1C69 JUMP JUMPDEST PUSH1 0x40 DUP1 MLOAD DUP1 DUP3 ADD SWAP1 SWAP2 MSTORE PUSH1 0x60 DUP2 MSTORE PUSH1 0x0 PUSH1 0x20 DUP3 ADD MSTORE DUP4 MLOAD MLOAD PUSH1 0x0 PUSH2 0x1D0D DUP3 DUP6 PUSH2 0x289D JUMP JUMPDEST SWAP1 POP DUP6 PUSH1 0x20 ADD MLOAD DUP2 GT ISZERO PUSH2 0x1D2A JUMPI PUSH2 0x1D2A DUP7 PUSH2 0x1CAA DUP4 PUSH1 0x2 PUSH2 0x29A0 JUMP JUMPDEST PUSH1 0x0 PUSH1 0x1 PUSH2 0x1D3A DUP7 PUSH2 0x100 PUSH2 0x28F8 JUMP JUMPDEST PUSH2 0x1D44 SWAP2 SWAP1 PUSH2 0x29BF JUMP JUMPDEST SWAP1 POP DUP7 MLOAD DUP3 DUP2 ADD DUP8 DUP4 NOT DUP3 MLOAD AND OR DUP2 MSTORE POP DUP1 MLOAD DUP4 GT ISZERO PUSH2 0x1D62 JUMPI DUP3 DUP2 MSTORE JUMPDEST POP SWAP6 SWAP7 SWAP6 POP POP POP POP POP POP JUMP JUMPDEST PUSH1 0x40 DUP1 MLOAD DUP1 DUP3 ADD SWAP1 SWAP2 MSTORE PUSH1 0x60 DUP2 MSTORE PUSH1 0x0 PUSH1 0x20 DUP3 ADD MSTORE DUP3 MLOAD DUP3 GT ISZERO PUSH2 0x1D91 JUMPI PUSH1 0x0 DUP1 REVERT JUMPDEST DUP4 MLOAD MLOAD PUSH1 0x0 PUSH2 0x1DA0 DUP5 DUP4 PUSH2 0x289D JUMP JUMPDEST SWAP1 POP DUP6 PUSH1 0x20 ADD MLOAD DUP2 GT ISZERO PUSH2 0x1DBD JUMPI PUSH2 0x1DBD DUP7 PUSH2 0x1CAA DUP4 PUSH1 0x2 PUSH2 0x29A0 JUMP JUMPDEST DUP6 MLOAD DUP1 MLOAD DUP4 DUP3 ADD PUSH1 0x20 ADD SWAP2 PUSH1 0x0 SWAP2 DUP1 DUP6 GT ISZERO PUSH2 0x1DD7 JUMPI DUP5 DUP3 MSTORE JUMPDEST POP POP POP PUSH1 0x20 DUP7 ADD JUMPDEST PUSH1 0x20 DUP7 LT PUSH2 0x1E17 JUMPI DUP1 MLOAD DUP3 MSTORE PUSH2 0x1DF6 PUSH1 0x20 DUP4 PUSH2 0x289D JUMP JUMPDEST SWAP2 POP PUSH2 0x1E03 PUSH1 0x20 DUP3 PUSH2 0x289D JUMP JUMPDEST SWAP1 POP PUSH2 0x1E10 PUSH1 0x20 DUP8 PUSH2 0x29BF JUMP JUMPDEST SWAP6 POP PUSH2 0x1DDF JUMP JUMPDEST MLOAD DUP2 MLOAD PUSH1 0x0 NOT PUSH1 0x20 DUP9 SWAP1 SUB PUSH2 0x100 EXP ADD SWAP1 DUP2 AND SWAP1 NOT SWAP2 SWAP1 SWAP2 AND OR SWAP1 MSTORE POP DUP5 SWAP2 POP POP SWAP4 SWAP3 POP POP POP JUMP JUMPDEST DUP2 MLOAD PUSH2 0x1E4B DUP4 DUP4 PUSH2 0x1A0E JUMP JUMPDEST POP PUSH2 0x3AD DUP4 DUP3 PUSH2 0x1C48 JUMP JUMPDEST DUP3 DUP1 SLOAD PUSH2 0x1E62 SWAP1 PUSH2 0x2A02 JUMP JUMPDEST SWAP1 PUSH1 0x0 MSTORE PUSH1 0x20 PUSH1 0x0 KECCAK256 SWAP1 PUSH1 0x1F ADD PUSH1 0x20 SWAP1 DIV DUP2 ADD SWAP3 DUP3 PUSH2 0x1E84 JUMPI PUSH1 0x0 DUP6 SSTORE PUSH2 0x1ECA JUMP JUMPDEST DUP3 PUSH1 0x1F LT PUSH2 0x1E9D JUMPI DUP1 MLOAD PUSH1 0xFF NOT AND DUP4 DUP1 ADD OR DUP6 SSTORE PUSH2 0x1ECA JUMP JUMPDEST DUP3 DUP1 ADD PUSH1 0x1 ADD DUP6 SSTORE DUP3 ISZERO PUSH2 0x1ECA JUMPI SWAP2 DUP3 ADD JUMPDEST DUP3 DUP2 GT ISZERO PUSH2 0x1ECA JUMPI DUP3 MLOAD DUP3 SSTORE SWAP2 PUSH1 0x20 ADD SWAP2 SWAP1 PUSH1 0x1 ADD SWAP1 PUSH2 0x1EAF JUMP JUMPDEST POP PUSH2 0x1ED6 SWAP3 SWAP2 POP PUSH2 0x1FA1 JUMP JUMPDEST POP SWAP1 JUMP JUMPDEST PUSH1 0x40 MLOAD DUP1 PUSH1 0x40 ADD PUSH1 0x40 MSTORE DUP1 PUSH2 0x1F49 PUSH1 0x40 MLOAD DUP1 PUSH2 0x180 ADD PUSH1 0x40 MSTORE DUP1 PUSH1 0x60 DUP2 MSTORE PUSH1 0x20 ADD PUSH1 0x60 DUP2 MSTORE PUSH1 0x20 ADD PUSH1 0x60 DUP2 MSTORE PUSH1 0x20 ADD PUSH1 0x60 DUP2 MSTORE PUSH1 0x20 ADD PUSH1 0x60 DUP2 MSTORE PUSH1 0x20 ADD PUSH1 0x60 DUP2 MSTORE PUSH1 0x20 ADD PUSH1 0x60 DUP2 MSTORE PUSH1 0x20 ADD PUSH1 0x60 DUP2 MSTORE PUSH1 0x20 ADD PUSH1 0x60 DUP2 MSTORE PUSH1 0x20 ADD PUSH1 0x60 DUP2 MSTORE PUSH1 0x20 ADD PUSH1 0x60 DUP2 MSTORE PUSH1 0x20 ADD PUSH1 0x60 DUP2 MSTORE POP SWAP1 JUMP JUMPDEST DUP2 MSTORE PUSH1 0x40 DUP1 MLOAD PUSH1 0x60 DUP2 ADD DUP3 MSTORE PUSH1 0x0 DUP1 DUP3 MSTORE PUSH1 0x20 DUP3 DUP2 ADD DUP3 SWAP1 MSTORE SWAP3 DUP3 ADD MSTORE SWAP2 ADD MSTORE SWAP1 JUMP JUMPDEST PUSH1 0x40 MLOAD DUP1 PUSH1 0x40 ADD PUSH1 0x40 MSTORE DUP1 PUSH2 0x1F94 PUSH1 0x40 MLOAD DUP1 PUSH1 0x40 ADD PUSH1 0x40 MSTORE DUP1 PUSH1 0x60 DUP2 MSTORE PUSH1 0x20 ADD PUSH1 0x0 DUP2 MSTORE POP SWAP1 JUMP JUMPDEST DUP2 MSTORE PUSH1 0x20 ADD PUSH1 0x0 DUP2 MSTORE POP SWAP1 JUMP JUMPDEST JUMPDEST DUP1 DUP3 GT ISZERO PUSH2 0x1ED6 JUMPI PUSH1 0x0 DUP2 SSTORE PUSH1 0x1 ADD PUSH2 0x1FA2 JUMP JUMPDEST PUSH1 0x0 PUSH2 0x1FC9 PUSH2 0x1FC4 DUP5 PUSH2 0x2875 JUMP JUMPDEST PUSH2 0x2844 JUMP JUMPDEST SWAP1 POP DUP3 DUP2 MSTORE DUP4 DUP4 DUP4 ADD GT ISZERO PUSH2 0x1FDD JUMPI PUSH1 0x0 DUP1 REVERT JUMPDEST PUSH2 0xB09 DUP4 PUSH1 0x20 DUP4 ADD DUP5 PUSH2 0x29D6 JUMP JUMPDEST PUSH1 0x0 DUP3 PUSH1 0x1F DUP4 ADD SLT PUSH2 0x1FFC JUMPI PUSH1 0x0 DUP1 REVERT JUMPDEST DUP2 CALLDATALOAD PUSH1 0x20 PUSH8 0xFFFFFFFFFFFFFFFF DUP1 DUP4 GT ISZERO PUSH2 0x2019 JUMPI PUSH2 0x2019 PUSH2 0x2ABC JUMP JUMPDEST DUP3 PUSH1 0x5 SHL PUSH2 0x2028 DUP4 DUP3 ADD PUSH2 0x2844 JUMP JUMPDEST DUP5 DUP2 MSTORE DUP4 DUP2 ADD SWAP1 DUP8 DUP6 ADD DUP4 DUP10 ADD DUP7 ADD DUP11 LT ISZERO PUSH2 0x2043 JUMPI PUSH1 0x0 DUP1 REVERT JUMPDEST PUSH1 0x0 SWAP4 POP DUP4 JUMPDEST DUP8 DUP2 LT ISZERO PUSH2 0x2080 JUMPI DUP2 CALLDATALOAD DUP7 DUP2 GT ISZERO PUSH2 0x205F JUMPI DUP6 DUP7 REVERT JUMPDEST PUSH2 0x206D DUP13 DUP10 DUP4 DUP15 ADD ADD PUSH2 0x208F JUMP JUMPDEST DUP6 MSTORE POP SWAP3 DUP7 ADD SWAP3 SWAP1 DUP7 ADD SWAP1 PUSH1 0x1 ADD PUSH2 0x2049 JUMP JUMPDEST POP SWAP1 SWAP10 SWAP9 POP POP POP POP POP POP POP POP POP JUMP JUMPDEST PUSH1 0x0 DUP3 PUSH1 0x1F DUP4 ADD SLT PUSH2 0x20A0 JUMPI PUSH1 0x0 DUP1 REVERT JUMPDEST DUP2 CALLDATALOAD PUSH2 0x20AE PUSH2 0x1FC4 DUP3 PUSH2 0x2875 JUMP JUMPDEST DUP2 DUP2 MSTORE DUP5 PUSH1 0x20 DUP4 DUP7 ADD ADD GT ISZERO PUSH2 0x20C3 JUMPI PUSH1 0x0 DUP1 REVERT JUMPDEST DUP2 PUSH1 0x20 DUP6 ADD PUSH1 0x20 DUP4 ADD CALLDATACOPY PUSH1 0x0 SWAP2 DUP2 ADD PUSH1 0x20 ADD SWAP2 SWAP1 SWAP2 MSTORE SWAP4 SWAP3 POP POP POP JUMP JUMPDEST DUP1 CALLDATALOAD PUSH1 0x1 DUP2 LT PUSH2 0x20EF JUMPI PUSH1 0x0 DUP1 REVERT JUMPDEST SWAP2 SWAP1 POP JUMP JUMPDEST DUP1 CALLDATALOAD PUSH1 0x2 DUP2 LT PUSH2 0x20EF JUMPI PUSH1 0x0 DUP1 REVERT JUMPDEST PUSH1 0x0 DUP3 PUSH1 0x1F DUP4 ADD SLT PUSH2 0x2114 JUMPI PUSH1 0x0 DUP1 REVERT JUMPDEST PUSH2 0xB09 DUP4 DUP4 MLOAD PUSH1 0x20 DUP6 ADD PUSH2 0x1FB6 JUMP JUMPDEST DUP1 CALLDATALOAD PUSH4 0xFFFFFFFF DUP2 AND DUP2 EQ PUSH2 0x20EF JUMPI PUSH1 0x0 DUP1 REVERT JUMPDEST DUP1 CALLDATALOAD PUSH8 0xFFFFFFFFFFFFFFFF DUP2 AND DUP2 EQ PUSH2 0x20EF JUMPI PUSH1 0x0 DUP1 REVERT JUMPDEST PUSH1 0x0 PUSH1 0x20 DUP3 DUP5 SUB SLT ISZERO PUSH2 0x2161 JUMPI PUSH1 0x0 DUP1 REVERT JUMPDEST DUP2 CALLDATALOAD PUSH2 0xB09 DUP2 PUSH2 0x2AD2 JUMP JUMPDEST PUSH1 0x0 PUSH1 0x20 DUP3 DUP5 SUB SLT ISZERO PUSH2 0x217E JUMPI PUSH1 0x0 DUP1 REVERT JUMPDEST DUP2 MLOAD PUSH2 0xB09 DUP2 PUSH2 0x2AD2 JUMP JUMPDEST PUSH1 0x0 DUP1 PUSH1 0x40 DUP4 DUP6 SUB SLT ISZERO PUSH2 0x219C JUMPI PUSH1 0x0 DUP1 REVERT JUMPDEST DUP3 CALLDATALOAD PUSH2 0x21A7 DUP2 PUSH2 0x2AD2 JUMP JUMPDEST SWAP5 PUSH1 0x20 SWAP4 SWAP1 SWAP4 ADD CALLDATALOAD SWAP4 POP POP POP JUMP JUMPDEST PUSH1 0x0 PUSH1 0x20 DUP3 DUP5 SUB SLT ISZERO PUSH2 0x21C7 JUMPI PUSH1 0x0 DUP1 REVERT JUMPDEST POP CALLDATALOAD SWAP2 SWAP1 POP JUMP JUMPDEST PUSH1 0x0 PUSH1 0x20 DUP3 DUP5 SUB SLT ISZERO PUSH2 0x21E0 JUMPI PUSH1 0x0 DUP1 REVERT JUMPDEST POP MLOAD SWAP2 SWAP1 POP JUMP JUMPDEST PUSH1 0x0 DUP1 PUSH1 0x0 PUSH1 0x60 DUP5 DUP7 SUB SLT ISZERO PUSH2 0x21FC JUMPI PUSH1 0x0 DUP1 REVERT JUMPDEST DUP4 CALLDATALOAD SWAP3 POP PUSH1 0x20 DUP5 ADD CALLDATALOAD PUSH8 0xFFFFFFFFFFFFFFFF DUP1 DUP3 GT ISZERO PUSH2 0x221B JUMPI PUSH1 0x0 DUP1 REVERT JUMPDEST PUSH2 0x2227 DUP8 DUP4 DUP9 ADD PUSH2 0x208F JUMP JUMPDEST SWAP4 POP PUSH1 0x40 DUP7 ADD CALLDATALOAD SWAP2 POP DUP1 DUP3 GT ISZERO PUSH2 0x223D JUMPI PUSH1 0x0 DUP1 REVERT JUMPDEST POP PUSH2 0x224A DUP7 DUP3 DUP8 ADD PUSH2 0x208F JUMP JUMPDEST SWAP2 POP POP SWAP3 POP SWAP3 POP SWAP3 JUMP JUMPDEST PUSH1 0x0 PUSH1 0x20 DUP3 DUP5 SUB SLT ISZERO PUSH2 0x2266 JUMPI PUSH1 0x0 DUP1 REVERT JUMPDEST DUP2 MLOAD PUSH8 0xFFFFFFFFFFFFFFFF DUP2 GT ISZERO PUSH2 0x227D JUMPI PUSH1 0x0 DUP1 REVERT JUMPDEST DUP3 ADD PUSH1 0x1F DUP2 ADD DUP5 SGT PUSH2 0x228E JUMPI PUSH1 0x0 DUP1 REVERT JUMPDEST PUSH2 0x229D DUP5 DUP3 MLOAD PUSH1 0x20 DUP5 ADD PUSH2 0x1FB6 JUMP JUMPDEST SWAP5 SWAP4 POP POP POP POP JUMP JUMPDEST PUSH1 0x0 PUSH1 0x20 DUP3 DUP5 SUB SLT ISZERO PUSH2 0x22B7 JUMPI PUSH1 0x0 DUP1 REVERT JUMPDEST DUP2 CALLDATALOAD PUSH8 0xFFFFFFFFFFFFFFFF DUP2 GT ISZERO PUSH2 0x22CE JUMPI PUSH1 0x0 DUP1 REVERT JUMPDEST PUSH2 0x229D DUP5 DUP3 DUP6 ADD PUSH2 0x208F JUMP JUMPDEST PUSH1 0x0 PUSH1 0x20 DUP3 DUP5 SUB SLT ISZERO PUSH2 0x22EC JUMPI PUSH1 0x0 DUP1 REVERT JUMPDEST DUP2 MLOAD PUSH8 0xFFFFFFFFFFFFFFFF DUP1 DUP3 GT ISZERO PUSH2 0x2304 JUMPI PUSH1 0x0 DUP1 REVERT JUMPDEST SWAP1 DUP4 ADD SWAP1 PUSH2 0x180 DUP3 DUP7 SUB SLT ISZERO PUSH2 0x2319 JUMPI PUSH1 0x0 DUP1 REVERT JUMPDEST PUSH2 0x2321 PUSH2 0x27F7 JUMP JUMPDEST DUP3 MLOAD DUP3 DUP2 GT ISZERO PUSH2 0x2330 JUMPI PUSH1 0x0 DUP1 REVERT JUMPDEST PUSH2 0x233C DUP8 DUP3 DUP7 ADD PUSH2 0x2103 JUMP JUMPDEST DUP3 MSTORE POP PUSH1 0x20 DUP4 ADD MLOAD DUP3 DUP2 GT ISZERO PUSH2 0x2351 JUMPI PUSH1 0x0 DUP1 REVERT JUMPDEST PUSH2 0x235D DUP8 DUP3 DUP7 ADD PUSH2 0x2103 JUMP JUMPDEST PUSH1 0x20 DUP4 ADD MSTORE POP PUSH1 0x40 DUP4 ADD MLOAD DUP3 DUP2 GT ISZERO PUSH2 0x2375 JUMPI PUSH1 0x0 DUP1 REVERT JUMPDEST PUSH2 0x2381 DUP8 DUP3 DUP7 ADD PUSH2 0x2103 JUMP JUMPDEST PUSH1 0x40 DUP4 ADD MSTORE POP PUSH1 0x60 DUP4 ADD MLOAD DUP3 DUP2 GT ISZERO PUSH2 0x2399 JUMPI PUSH1 0x0 DUP1 REVERT JUMPDEST PUSH2 0x23A5 DUP8 DUP3 DUP7 ADD PUSH2 0x2103 JUMP JUMPDEST PUSH1 0x60 DUP4 ADD MSTORE POP PUSH1 0x80 DUP4 ADD MLOAD DUP3 DUP2 GT ISZERO PUSH2 0x23BD JUMPI PUSH1 0x0 DUP1 REVERT JUMPDEST PUSH2 0x23C9 DUP8 DUP3 DUP7 ADD PUSH2 0x2103 JUMP JUMPDEST PUSH1 0x80 DUP4 ADD MSTORE POP PUSH1 0xA0 DUP4 ADD MLOAD DUP3 DUP2 GT ISZERO PUSH2 0x23E1 JUMPI PUSH1 0x0 DUP1 REVERT JUMPDEST PUSH2 0x23ED DUP8 DUP3 DUP7 ADD PUSH2 0x2103 JUMP JUMPDEST PUSH1 0xA0 DUP4 ADD MSTORE POP PUSH1 0xC0 DUP4 ADD MLOAD DUP3 DUP2 GT ISZERO PUSH2 0x2405 JUMPI PUSH1 0x0 DUP1 REVERT JUMPDEST PUSH2 0x2411 DUP8 DUP3 DUP7 ADD PUSH2 0x2103 JUMP JUMPDEST PUSH1 0xC0 DUP4 ADD MSTORE POP PUSH1 0xE0 DUP4 ADD MLOAD DUP3 DUP2 GT ISZERO PUSH2 0x2429 JUMPI PUSH1 0x0 DUP1 REVERT JUMPDEST PUSH2 0x2435 DUP8 DUP3 DUP7 ADD PUSH2 0x2103 JUMP JUMPDEST PUSH1 0xE0 DUP4 ADD MSTORE POP PUSH2 0x100 DUP1 DUP5 ADD MLOAD DUP4 DUP2 GT ISZERO PUSH2 0x244F JUMPI PUSH1 0x0 DUP1 REVERT JUMPDEST PUSH2 0x245B DUP9 DUP3 DUP8 ADD PUSH2 0x2103 JUMP JUMPDEST DUP3 DUP5 ADD MSTORE POP POP PUSH2 0x120 DUP1 DUP5 ADD MLOAD DUP4 DUP2 GT ISZERO PUSH2 0x2475 JUMPI PUSH1 0x0 DUP1 REVERT JUMPDEST PUSH2 0x2481 DUP9 DUP3 DUP8 ADD PUSH2 0x2103 JUMP JUMPDEST DUP3 DUP5 ADD MSTORE POP POP PUSH2 0x140 DUP1 DUP5 ADD MLOAD DUP4 DUP2 GT ISZERO PUSH2 0x249B JUMPI PUSH1 0x0 DUP1 REVERT JUMPDEST PUSH2 0x24A7 DUP9 DUP3 DUP8 ADD PUSH2 0x2103 JUMP JUMPDEST DUP3 DUP5 ADD MSTORE POP POP PUSH2 0x160 DUP1 DUP5 ADD MLOAD DUP4 DUP2 GT ISZERO PUSH2 0x24C1 JUMPI PUSH1 0x0 DUP1 REVERT JUMPDEST PUSH2 0x24CD DUP9 DUP3 DUP8 ADD PUSH2 0x2103 JUMP JUMPDEST SWAP2 DUP4 ADD SWAP2 SWAP1 SWAP2 MSTORE POP SWAP6 SWAP5 POP POP POP POP POP JUMP JUMPDEST PUSH1 0x0 PUSH1 0x60 DUP3 DUP5 SUB SLT ISZERO PUSH2 0x24F0 JUMPI PUSH1 0x0 DUP1 REVERT JUMPDEST PUSH1 0x40 MLOAD PUSH1 0x60 DUP2 ADD DUP2 DUP2 LT PUSH8 0xFFFFFFFFFFFFFFFF DUP3 GT OR ISZERO PUSH2 0x2513 JUMPI PUSH2 0x2513 PUSH2 0x2ABC JUMP JUMPDEST PUSH1 0x40 MSTORE DUP3 MLOAD PUSH2 0x2521 DUP2 PUSH2 0x2AD2 JUMP JUMPDEST DUP2 MSTORE PUSH1 0x20 DUP4 DUP2 ADD MLOAD SWAP1 DUP3 ADD MSTORE PUSH1 0x40 SWAP3 DUP4 ADD MLOAD SWAP3 DUP2 ADD SWAP3 SWAP1 SWAP3 MSTORE POP SWAP2 SWAP1 POP JUMP JUMPDEST PUSH1 0x0 DUP1 PUSH1 0x0 DUP1 PUSH1 0x80 DUP6 DUP8 SUB SLT ISZERO PUSH2 0x2556 JUMPI PUSH1 0x0 DUP1 REVERT JUMPDEST DUP5 CALLDATALOAD PUSH8 0xFFFFFFFFFFFFFFFF DUP1 DUP3 GT ISZERO PUSH2 0x256E JUMPI PUSH1 0x0 DUP1 REVERT JUMPDEST SWAP1 DUP7 ADD SWAP1 PUSH1 0xC0 DUP3 DUP10 SUB SLT ISZERO PUSH2 0x2582 JUMPI PUSH1 0x0 DUP1 REVERT JUMPDEST PUSH2 0x258A PUSH2 0x2821 JUMP JUMPDEST PUSH2 0x2593 DUP4 PUSH2 0x20F4 JUMP JUMPDEST DUP2 MSTORE PUSH2 0x25A1 PUSH1 0x20 DUP5 ADD PUSH2 0x20F4 JUMP JUMPDEST PUSH1 0x20 DUP3 ADD MSTORE PUSH2 0x25B2 PUSH1 0x40 DUP5 ADD PUSH2 0x20E0 JUMP JUMPDEST PUSH1 0x40 DUP3 ADD MSTORE PUSH1 0x60 DUP4 ADD CALLDATALOAD DUP3 DUP2 GT ISZERO PUSH2 0x25C9 JUMPI PUSH1 0x0 DUP1 REVERT JUMPDEST PUSH2 0x25D5 DUP11 DUP3 DUP7 ADD PUSH2 0x208F JUMP JUMPDEST PUSH1 0x60 DUP4 ADD MSTORE POP PUSH1 0x80 DUP4 ADD CALLDATALOAD DUP3 DUP2 GT ISZERO PUSH2 0x25ED JUMPI PUSH1 0x0 DUP1 REVERT JUMPDEST PUSH2 0x25F9 DUP11 DUP3 DUP7 ADD PUSH2 0x208F JUMP JUMPDEST PUSH1 0x80 DUP4 ADD MSTORE POP PUSH1 0xA0 DUP4 ADD CALLDATALOAD DUP3 DUP2 GT ISZERO PUSH2 0x2611 JUMPI PUSH1 0x0 DUP1 REVERT JUMPDEST PUSH2 0x261D DUP11 DUP3 DUP7 ADD PUSH2 0x1FEB JUMP JUMPDEST PUSH1 0xA0 DUP4 ADD MSTORE POP SWAP6 POP PUSH2 0x2634 SWAP2 POP POP PUSH1 0x20 DUP7 ADD PUSH2 0x2137 JUMP JUMPDEST SWAP3 POP PUSH2 0x2642 PUSH1 0x40 DUP7 ADD PUSH2 0x2123 JUMP JUMPDEST SWAP4 SWAP7 SWAP3 SWAP6 POP SWAP3 SWAP4 PUSH1 0x60 ADD CALLDATALOAD SWAP3 POP POP JUMP JUMPDEST PUSH1 0x0 DUP1 PUSH1 0x0 PUSH1 0x60 DUP5 DUP7 SUB SLT ISZERO PUSH2 0x2667 JUMPI PUSH1 0x0 DUP1 REVERT JUMPDEST PUSH2 0x2670 DUP5 PUSH2 0x2137 JUMP JUMPDEST SWAP3 POP PUSH2 0x267E PUSH1 0x20 DUP6 ADD PUSH2 0x2123 JUMP JUMPDEST SWAP2 POP PUSH1 0x40 DUP5 ADD CALLDATALOAD SWAP1 POP SWAP3 POP SWAP3 POP SWAP3 JUMP JUMPDEST PUSH1 0x0 PUSH1 0x20 DUP3 DUP5 SUB SLT ISZERO PUSH2 0x26A0 JUMPI PUSH1 0x0 DUP1 REVERT JUMPDEST DUP2 MLOAD PUSH12 0xFFFFFFFFFFFFFFFFFFFFFFFF DUP2 AND DUP2 EQ PUSH2 0xB09 JUMPI PUSH1 0x0 DUP1 REVERT JUMPDEST PUSH1 0x0 DUP2 MLOAD DUP1 DUP5 MSTORE PUSH2 0x26D4 DUP2 PUSH1 0x20 DUP7 ADD PUSH1 0x20 DUP7 ADD PUSH2 0x29D6 JUMP JUMPDEST PUSH1 0x1F ADD PUSH1 0x1F NOT AND SWAP3 SWAP1 SWAP3 ADD PUSH1 0x20 ADD SWAP3 SWAP2 POP POP JUMP JUMPDEST PUSH1 0x0 PUSH1 0x20 DUP1 DUP4 ADD DUP2 DUP5 MSTORE DUP1 DUP6 MLOAD DUP1 DUP4 MSTORE PUSH1 0x40 DUP7 ADD SWAP2 POP PUSH1 0x40 DUP2 PUSH1 0x5 SHL DUP8 ADD ADD SWAP3 POP DUP4 DUP8 ADD PUSH1 0x0 JUMPDEST DUP3 DUP2 LT ISZERO PUSH2 0x273D JUMPI PUSH1 0x3F NOT DUP9 DUP7 SUB ADD DUP5 MSTORE PUSH2 0x272B DUP6 DUP4 MLOAD PUSH2 0x26BC JUMP JUMPDEST SWAP5 POP SWAP3 DUP6 ADD SWAP3 SWAP1 DUP6 ADD SWAP1 PUSH1 0x1 ADD PUSH2 0x270F JUMP JUMPDEST POP SWAP3 SWAP8 SWAP7 POP POP POP POP POP POP POP JUMP JUMPDEST PUSH1 0x20 DUP2 MSTORE PUSH1 0x0 PUSH2 0xB09 PUSH1 0x20 DUP4 ADD DUP5 PUSH2 0x26BC JUMP JUMPDEST PUSH1 0x40 DUP2 MSTORE PUSH1 0x0 PUSH2 0x2770 PUSH1 0x40 DUP4 ADD DUP6 PUSH2 0x26BC JUMP JUMPDEST DUP3 DUP2 SUB PUSH1 0x20 DUP5 ADD MSTORE PUSH2 0xD70 DUP2 DUP6 PUSH2 0x26BC JUMP JUMPDEST PUSH8 0xFFFFFFFFFFFFFFFF DUP5 AND DUP2 MSTORE PUSH1 0x60 PUSH1 0x20 DUP3 ADD MSTORE PUSH1 0x0 PUSH2 0x27A5 PUSH1 0x60 DUP4 ADD DUP6 PUSH2 0x26BC JUMP JUMPDEST SWAP1 POP PUSH4 0xFFFFFFFF DUP4 AND PUSH1 0x40 DUP4 ADD MSTORE SWAP5 SWAP4 POP POP POP POP JUMP JUMPDEST PUSH8 0xFFFFFFFFFFFFFFFF DUP6 AND DUP2 MSTORE PUSH1 0x80 PUSH1 0x20 DUP3 ADD MSTORE PUSH1 0x0 PUSH2 0x27DE PUSH1 0x80 DUP4 ADD DUP7 PUSH2 0x26BC JUMP JUMPDEST PUSH4 0xFFFFFFFF SWAP5 SWAP1 SWAP5 AND PUSH1 0x40 DUP4 ADD MSTORE POP PUSH1 0x60 ADD MSTORE SWAP3 SWAP2 POP POP JUMP JUMPDEST PUSH1 0x40 MLOAD PUSH2 0x180 DUP2 ADD PUSH8 0xFFFFFFFFFFFFFFFF DUP2 GT DUP3 DUP3 LT OR ISZERO PUSH2 0x281B JUMPI PUSH2 0x281B PUSH2 0x2ABC JUMP JUMPDEST PUSH1 0x40 MSTORE SWAP1 JUMP JUMPDEST PUSH1 0x40 MLOAD PUSH1 0xC0 DUP2 ADD PUSH8 0xFFFFFFFFFFFFFFFF DUP2 GT DUP3 DUP3 LT OR ISZERO PUSH2 0x281B JUMPI PUSH2 0x281B PUSH2 0x2ABC JUMP JUMPDEST PUSH1 0x40 MLOAD PUSH1 0x1F DUP3 ADD PUSH1 0x1F NOT AND DUP2 ADD PUSH8 0xFFFFFFFFFFFFFFFF DUP2 GT DUP3 DUP3 LT OR ISZERO PUSH2 0x286D JUMPI PUSH2 0x286D PUSH2 0x2ABC JUMP JUMPDEST PUSH1 0x40 MSTORE SWAP2 SWAP1 POP JUMP JUMPDEST PUSH1 0x0 PUSH8 0xFFFFFFFFFFFFFFFF DUP3 GT ISZERO PUSH2 0x288F JUMPI PUSH2 0x288F PUSH2 0x2ABC JUMP JUMPDEST POP PUSH1 0x1F ADD PUSH1 0x1F NOT AND PUSH1 0x20 ADD SWAP1 JUMP JUMPDEST PUSH1 0x0 DUP3 NOT DUP3 GT ISZERO PUSH2 0x28B0 JUMPI PUSH2 0x28B0 PUSH2 0x2A7A JUMP JUMPDEST POP ADD SWAP1 JUMP JUMPDEST PUSH1 0x1 DUP2 DUP2 JUMPDEST DUP1 DUP6 GT ISZERO PUSH2 0x28F0 JUMPI DUP2 PUSH1 0x0 NOT DIV DUP3 GT ISZERO PUSH2 0x28D6 JUMPI PUSH2 0x28D6 PUSH2 0x2A7A JUMP JUMPDEST DUP1 DUP6 AND ISZERO PUSH2 0x28E3 JUMPI SWAP2 DUP2 MUL SWAP2 JUMPDEST SWAP4 DUP5 SHR SWAP4 SWAP1 DUP1 MUL SWAP1 PUSH2 0x28BA JUMP JUMPDEST POP SWAP3 POP SWAP3 SWAP1 POP JUMP JUMPDEST PUSH1 0x0 PUSH2 0xB09 DUP4 DUP4 PUSH1 0x0 DUP3 PUSH2 0x290E JUMPI POP PUSH1 0x1 PUSH2 0x1A08 JUMP JUMPDEST DUP2 PUSH2 0x291B JUMPI POP PUSH1 0x0 PUSH2 0x1A08 JUMP JUMPDEST DUP2 PUSH1 0x1 DUP2 EQ PUSH2 0x2931 JUMPI PUSH1 0x2 DUP2 EQ PUSH2 0x293B JUMPI PUSH2 0x2957 JUMP JUMPDEST PUSH1 0x1 SWAP2 POP POP PUSH2 0x1A08 JUMP JUMPDEST PUSH1 0xFF DUP5 GT ISZERO PUSH2 0x294C JUMPI PUSH2 0x294C PUSH2 0x2A7A JUMP JUMPDEST POP POP PUSH1 0x1 DUP3 SHL PUSH2 0x1A08 JUMP JUMPDEST POP PUSH1 0x20 DUP4 LT PUSH2 0x133 DUP4 LT AND PUSH1 0x4E DUP5 LT PUSH1 0xB DUP5 LT AND OR ISZERO PUSH2 0x297A JUMPI POP DUP2 DUP2 EXP PUSH2 0x1A08 JUMP JUMPDEST PUSH2 0x2984 DUP4 DUP4 PUSH2 0x28B5 JUMP JUMPDEST DUP1 PUSH1 0x0 NOT DIV DUP3 GT ISZERO PUSH2 0x2998 JUMPI PUSH2 0x2998 PUSH2 0x2A7A JUMP JUMPDEST MUL SWAP4 SWAP3 POP POP POP JUMP JUMPDEST PUSH1 0x0 DUP2 PUSH1 0x0 NOT DIV DUP4 GT DUP3 ISZERO ISZERO AND ISZERO PUSH2 0x29BA JUMPI PUSH2 0x29BA PUSH2 0x2A7A JUMP JUMPDEST POP MUL SWAP1 JUMP JUMPDEST PUSH1 0x0 DUP3 DUP3 LT ISZERO PUSH2 0x29D1 JUMPI PUSH2 0x29D1 PUSH2 0x2A7A JUMP JUMPDEST POP SUB SWAP1 JUMP JUMPDEST PUSH1 0x0 JUMPDEST DUP4 DUP2 LT ISZERO PUSH2 0x29F1 JUMPI DUP2 DUP2 ADD MLOAD DUP4 DUP3 ADD MSTORE PUSH1 0x20 ADD PUSH2 0x29D9 JUMP JUMPDEST DUP4 DUP2 GT ISZERO PUSH2 0x3AD JUMPI POP POP PUSH1 0x0 SWAP2 ADD MSTORE JUMP JUMPDEST PUSH1 0x1 DUP2 DUP2 SHR SWAP1 DUP3 AND DUP1 PUSH2 0x2A16 JUMPI PUSH1 0x7F DUP3 AND SWAP2 POP JUMPDEST PUSH1 0x20 DUP3 LT DUP2 EQ ISZERO PUSH2 0x2A37 JUMPI PUSH4 0x4E487B71 PUSH1 0xE0 SHL PUSH1 0x0 MSTORE PUSH1 0x22 PUSH1 0x4 MSTORE PUSH1 0x24 PUSH1 0x0 REVERT JUMPDEST POP SWAP2 SWAP1 POP JUMP JUMPDEST PUSH1 0x0 PUSH1 0x0 NOT DUP3 EQ ISZERO PUSH2 0x2A51 JUMPI PUSH2 0x2A51 PUSH2 0x2A7A JUMP JUMPDEST POP PUSH1 0x1 ADD SWAP1 JUMP JUMPDEST PUSH1 0x0 DUP3 PUSH2 0x2A75 JUMPI PUSH4 0x4E487B71 PUSH1 0xE0 SHL PUSH1 0x0 MSTORE PUSH1 0x12 PUSH1 0x4 MSTORE PUSH1 0x24 PUSH1 0x0 REVERT JUMPDEST POP MOD SWAP1 JUMP JUMPDEST PUSH4 0x4E487B71 PUSH1 0xE0 SHL PUSH1 0x0 MSTORE PUSH1 0x11 PUSH1 0x4 MSTORE PUSH1 0x24 PUSH1 0x0 REVERT JUMPDEST PUSH4 0x4E487B71 PUSH1 0xE0 SHL PUSH1 0x0 MSTORE PUSH1 0x21 PUSH1 0x4 MSTORE PUSH1 0x24 PUSH1 0x0 REVERT JUMPDEST PUSH4 0x4E487B71 PUSH1 0xE0 SHL PUSH1 0x0 MSTORE PUSH1 0x32 PUSH1 0x4 MSTORE PUSH1 0x24 PUSH1 0x0 REVERT JUMPDEST PUSH4 0x4E487B71 PUSH1 0xE0 SHL PUSH1 0x0 MSTORE PUSH1 0x41 PUSH1 0x4 MSTORE PUSH1 0x24 PUSH1 0x0 REVERT JUMPDEST PUSH1 0x1 PUSH1 0x1 PUSH1 0xA0 SHL SUB DUP2 AND DUP2 EQ PUSH2 0xE06 JUMPI PUSH1 0x0 DUP1 REVERT INVALID LOG2 PUSH5 0x6970667358 0x22 SLT KECCAK256 0xEA 0xC3 PUSH4 0xC471CE31 ADDRESS 0xA6 RETURNDATACOPY PUSH15 0x5D05901710DA59D6442E919EA5FB98 PUSH17 0x7021FDF9864736F6C6343000807003300 "},"methodIdentifiers":{"addSimulatedRequestId(address,bytes32)":"30bda99d","checkPolicy(uint64,uint32,uint256)":"448af937","estimateCost((uint8,uint8,uint8,string,bytes,string[]),uint64,uint32,uint256)":"d4b39175","getDONPublicKey()":"d328a91e","getSourceCode()":"698cd3ad","handleOracleFulfillment(bytes32,bytes,bytes)":"0ca76175","insuranceContract()":"d012a5a8","latestError()":"fffeb84e","latestRequestId()":"1aa46f59","latestResponse()":"bef3a2f0","owner()":"8da5cb5b","renounceOwnership()":"715018a6","requestIdToPolicyIndex(bytes32)":"4732889d","requestIdToSender(bytes32)":"219c0eee","setSourceCode(string)":"00b46767","sourceCode()":"13c60177","stringToUint256(string)":"ac5d3723","transferOwnership(address)":"f2fde38b","updateOracleAddress(address)":"f7023bb6"}},"storageLayout":{"storage":[{"astId":3505,"contract":"contracts/CheckPayout.sol:CheckPayout","label":"s_oracle","offset":0,"slot":"0","type":"t_contract(FunctionsOracleInterface)3939"},{"astId":3509,"contract":"contracts/CheckPayout.sol:CheckPayout","label":"s_pendingRequests","offset":0,"slot":"1","type":"t_mapping(t_bytes32,t_address)"},{"astId":207,"contract":"contracts/CheckPayout.sol:CheckPayout","label":"_owner","offset":0,"slot":"2","type":"t_address"},{"astId":1422,"contract":"contracts/CheckPayout.sol:CheckPayout","label":"sourceCode","offset":0,"slot":"3","type":"t_string_storage"},{"astId":1428,"contract":"contracts/CheckPayout.sol:CheckPayout","label":"latestRequestId","offset":0,"slot":"4","type":"t_bytes32"},{"astId":1430,"contract":"contracts/CheckPayout.sol:CheckPayout","label":"latestResponse","offset":0,"slot":"5","type":"t_bytes_storage"},{"astId":1432,"contract":"contracts/CheckPayout.sol:CheckPayout","label":"latestError","offset":0,"slot":"6","type":"t_bytes_storage"},{"astId":1443,"contract":"contracts/CheckPayout.sol:CheckPayout","label":"insuranceContract","offset":0,"slot":"7","type":"t_contract(Insurance)3083"},{"astId":1447,"contract":"contracts/CheckPayout.sol:CheckPayout","label":"requestIdToPolicyIndex","offset":0,"slot":"8","type":"t_mapping(t_bytes32,t_uint256)"},{"astId":1451,"contract":"contracts/CheckPayout.sol:CheckPayout","label":"requestIdToSender","offset":0,"slot":"9","type":"t_mapping(t_bytes32,t_address)"}],"types":{"t_address":{"encoding":"inplace","label":"address","numberOfBytes":"20"},"t_bytes32":{"encoding":"inplace","label":"bytes32","numberOfBytes":"32"},"t_bytes_storage":{"encoding":"bytes","label":"bytes","numberOfBytes":"32"},"t_contract(FunctionsOracleInterface)3939":{"encoding":"inplace","label":"contract FunctionsOracleInterface","numberOfBytes":"20"},"t_contract(Insurance)3083":{"encoding":"inplace","label":"contract Insurance","numberOfBytes":"20"},"t_mapping(t_bytes32,t_address)":{"encoding":"mapping","key":"t_bytes32","label":"mapping(bytes32 => address)","numberOfBytes":"32","value":"t_address"},"t_mapping(t_bytes32,t_uint256)":{"encoding":"mapping","key":"t_bytes32","label":"mapping(bytes32 => uint256)","numberOfBytes":"32","value":"t_uint256"},"t_string_storage":{"encoding":"bytes","label":"string","numberOfBytes":"32"},"t_uint256":{"encoding":"inplace","label":"uint256","numberOfBytes":"32"}}}}}}