{"contracts/Insurance.sol":{"Insurance":{"abi":[{"inputs":[{"internalType":"address","name":"oracle","type":"address"},{"internalType":"address","name":"linkMaticPrice","type":"address"},{"internalType":"address","name":"randomness","type":"address"}],"stateMutability":"nonpayable","type":"constructor"},{"inputs":[],"name":"EmptyArgs","type":"error"},{"inputs":[],"name":"EmptySecrets","type":"error"},{"inputs":[],"name":"EmptySource","type":"error"},{"inputs":[],"name":"NoInlineSecrets","type":"error"},{"inputs":[],"name":"RequestIsAlreadyPending","type":"error"},{"inputs":[],"name":"RequestIsNotPending","type":"error"},{"inputs":[],"name":"SenderIsNotRegistry","type":"error"},{"anonymous":false,"inputs":[{"indexed":true,"internalType":"bytes32","name":"requestId","type":"bytes32"},{"indexed":false,"internalType":"bytes","name":"result","type":"bytes"},{"indexed":false,"internalType":"bytes","name":"err","type":"bytes"}],"name":"OCRResponse","type":"event"},{"anonymous":false,"inputs":[{"indexed":true,"internalType":"address","name":"from","type":"address"},{"indexed":true,"internalType":"address","name":"to","type":"address"}],"name":"OwnershipTransferRequested","type":"event"},{"anonymous":false,"inputs":[{"indexed":true,"internalType":"address","name":"from","type":"address"},{"indexed":true,"internalType":"address","name":"to","type":"address"}],"name":"OwnershipTransferred","type":"event"},{"anonymous":false,"inputs":[{"indexed":true,"internalType":"bytes32","name":"id","type":"bytes32"}],"name":"RequestFulfilled","type":"event"},{"anonymous":false,"inputs":[{"indexed":true,"internalType":"bytes32","name":"id","type":"bytes32"}],"name":"RequestSent","type":"event"},{"inputs":[],"name":"acceptOwnership","outputs":[],"stateMutability":"nonpayable","type":"function"},{"inputs":[{"internalType":"address","name":"oracleAddress","type":"address"},{"internalType":"bytes32","name":"requestId","type":"bytes32"}],"name":"addSimulatedRequestId","outputs":[],"stateMutability":"nonpayable","type":"function"},{"inputs":[],"name":"checkInsuranceData","outputs":[{"internalType":"bool","name":"","type":"bool"}],"stateMutability":"view","type":"function"},{"inputs":[],"name":"currentTime","outputs":[{"internalType":"uint256","name":"","type":"uint256"}],"stateMutability":"view","type":"function"},{"inputs":[{"components":[{"internalType":"enum Functions.Location","name":"codeLocation","type":"uint8"},{"internalType":"enum Functions.Location","name":"secretsLocation","type":"uint8"},{"internalType":"enum Functions.CodeLanguage","name":"language","type":"uint8"},{"internalType":"string","name":"source","type":"string"},{"internalType":"bytes","name":"secrets","type":"bytes"},{"internalType":"string[]","name":"args","type":"string[]"}],"internalType":"struct Functions.Request","name":"req","type":"tuple"},{"internalType":"uint64","name":"subscriptionId","type":"uint64"},{"internalType":"uint32","name":"gasLimit","type":"uint32"},{"internalType":"uint256","name":"gasPrice","type":"uint256"}],"name":"estimateCost","outputs":[{"internalType":"uint96","name":"","type":"uint96"}],"stateMutability":"view","type":"function"},{"inputs":[{"internalType":"string","name":"source","type":"string"},{"internalType":"bytes","name":"secrets","type":"bytes"},{"internalType":"string[]","name":"args","type":"string[]"},{"internalType":"uint64","name":"subscriptionId","type":"uint64"},{"internalType":"uint32","name":"gasLimit","type":"uint32"}],"name":"estimateInsurance","outputs":[{"internalType":"bytes32","name":"","type":"bytes32"}],"stateMutability":"payable","type":"function"},{"inputs":[],"name":"getCurrentTime","outputs":[{"internalType":"uint256","name":"","type":"uint256"}],"stateMutability":"view","type":"function"},{"inputs":[],"name":"getDONPublicKey","outputs":[{"internalType":"bytes","name":"","type":"bytes"}],"stateMutability":"view","type":"function"},{"inputs":[],"name":"getLatestPrice","outputs":[{"internalType":"int256","name":"","type":"int256"}],"stateMutability":"view","type":"function"},{"inputs":[],"name":"getRandomWords","outputs":[{"internalType":"bytes","name":"","type":"bytes"}],"stateMutability":"nonpayable","type":"function"},{"inputs":[{"internalType":"bytes32","name":"requestId","type":"bytes32"},{"internalType":"bytes","name":"response","type":"bytes"},{"internalType":"bytes","name":"err","type":"bytes"}],"name":"handleOracleFulfillment","outputs":[],"stateMutability":"nonpayable","type":"function"},{"inputs":[],"name":"helloWorld","outputs":[{"internalType":"string","name":"","type":"string"}],"stateMutability":"view","type":"function"},{"inputs":[{"internalType":"address","name":"","type":"address"},{"internalType":"uint256","name":"","type":"uint256"}],"name":"insuranceDataMapping","outputs":[{"internalType":"string","name":"latNe","type":"string"},{"internalType":"string","name":"longNe","type":"string"},{"internalType":"string","name":"latSe","type":"string"},{"internalType":"string","name":"longSe","type":"string"},{"internalType":"string","name":"latSw","type":"string"},{"internalType":"string","name":"longSw","type":"string"},{"internalType":"string","name":"latNw","type":"string"},{"internalType":"string","name":"longNw","type":"string"},{"internalType":"string","name":"configParam","type":"string"},{"internalType":"string","name":"currentDay","type":"string"},{"internalType":"string","name":"startDay","type":"string"},{"internalType":"string","name":"endDay","type":"string"}],"stateMutability":"view","type":"function"},{"inputs":[],"name":"latestError","outputs":[{"internalType":"bytes","name":"","type":"bytes"}],"stateMutability":"view","type":"function"},{"inputs":[],"name":"latestRequestId","outputs":[{"internalType":"bytes32","name":"","type":"bytes32"}],"stateMutability":"view","type":"function"},{"inputs":[],"name":"latestResponse","outputs":[{"internalType":"bytes","name":"","type":"bytes"}],"stateMutability":"view","type":"function"},{"inputs":[],"name":"owner","outputs":[{"internalType":"address","name":"","type":"address"}],"stateMutability":"view","type":"function"},{"inputs":[],"name":"priceFeed","outputs":[{"internalType":"contract PriceConsumerV3","name":"","type":"address"}],"stateMutability":"view","type":"function"},{"inputs":[],"name":"randomFeed","outputs":[{"internalType":"contract VRFv2Consumer","name":"","type":"address"}],"stateMutability":"view","type":"function"},{"inputs":[{"internalType":"uint256","name":"requestId","type":"uint256"},{"internalType":"uint256[]","name":"randomWords","type":"uint256[]"}],"name":"receiveRandomness","outputs":[],"stateMutability":"nonpayable","type":"function"},{"inputs":[{"internalType":"address","name":"to","type":"address"}],"name":"transferOwnership","outputs":[],"stateMutability":"nonpayable","type":"function"},{"inputs":[{"internalType":"address","name":"oracle","type":"address"}],"name":"updateOracleAddress","outputs":[],"stateMutability":"nonpayable","type":"function"}],"evm":{"bytecode":{"linkReferences":{},"object":"6080604052426009553480156200001557600080fd5b5060405162003eb938038062003eb98339810160408190526200003891620001eb565b600080546001600160a01b0319166001600160a01b038516178155339081906001600160a01b038216620000b35760405162461bcd60e51b815260206004820152601860248201527f43616e6e6f7420736574206f776e657220746f207a65726f000000000000000060448201526064015b60405180910390fd5b600280546001600160a01b0319166001600160a01b0384811691909117909155811615620000e657620000e68162000121565b5050600480546001600160a01b039485166001600160a01b031991821617909155600580549390941692169190911790915550620002359050565b6001600160a01b0381163314156200017c5760405162461bcd60e51b815260206004820152601760248201527f43616e6e6f74207472616e7366657220746f2073656c660000000000000000006044820152606401620000aa565b600380546001600160a01b0319166001600160a01b03838116918217909255600254604051919216907fed8889f560326eb138920d842192f0eb3dd22b4f139c87a2c57538e05bae127890600090a350565b80516001600160a01b0381168114620001e657600080fd5b919050565b6000806000606084860312156200020157600080fd5b6200020c84620001ce565b92506200021c60208501620001ce565b91506200022c60408501620001ce565b90509250925092565b613c7480620002456000396000f3fe6080604052600436106101755760003560e01c8063985454ff116100cb578063d328a91e1161007f578063f2fde38b11610059578063f2fde38b146103de578063f7023bb6146103fe578063fffeb84e1461041e57600080fd5b8063d328a91e14610367578063d4b391751461037c578063e0919101146103b957600080fd5b8063c605f76c116100b0578063c605f76c14610327578063ce10b1fb1461033c578063d18e81b31461035157600080fd5b8063985454ff146102f2578063bef3a2f01461030557600080fd5b806330bda99d1161012d57806379ba50971161010757806379ba5097146102aa5780638da5cb5b146102bf5780638e15f473146102dd57600080fd5b806330bda99d1461024a57806337f9c70d1461026a578063741bef1a1461028a57600080fd5b80631aa46f591161015e5780631aa46f59146101d95780632142735a146101fd57806329cb924d1461023557600080fd5b80630ca761751461017a578063126455dd1461019c575b600080fd5b34801561018657600080fd5b5061019a610195366004613371565b610433565b005b3480156101a857600080fd5b506005546101bc906001600160a01b031681565b6040516001600160a01b0390911681526020015b60405180910390f35b3480156101e557600080fd5b506101ef60065481565b6040519081526020016101d0565b34801561020957600080fd5b5061021d61021836600461332c565b6104d9565b6040516101d09c9b9a9998979695949392919061377f565b34801561024157600080fd5b506009546101ef565b34801561025657600080fd5b5061019a61026536600461332c565b610bb6565b34801561027657600080fd5b5061019a610285366004613649565b610bcc565b34801561029657600080fd5b506004546101bc906001600160a01b031681565b3480156102b657600080fd5b5061019a610dde565b3480156102cb57600080fd5b506002546001600160a01b03166101bc565b3480156102e957600080fd5b506101ef610e93565b6101ef61030036600461344c565b610f20565b34801561031157600080fd5b5061031a611765565b6040516101d09190613747565b34801561033357600080fd5b5061031a6117f3565b34801561034857600080fd5b5061031a61186b565b34801561035d57600080fd5b506101ef60095481565b34801561037357600080fd5b5061031a611a44565b34801561038857600080fd5b5061039c610397366004613537565b611add565b6040516bffffffffffffffffffffffff90911681526020016101d0565b3480156103c557600080fd5b506103ce611b73565b60405190151581526020016101d0565b3480156103ea57600080fd5b5061019a6103f93660046132f2565b6123ef565b34801561040a57600080fd5b5061019a6104193660046132f2565b612403565b34801561042a57600080fd5b5061031a612429565b60008381526001602052604090205483906001600160a01b03163314610485576040517fa0c5ec6300000000000000000000000000000000000000000000000000000000815260040160405180910390fd5b60008181526001602052604080822080546001600160a01b03191690555182917f85e1543bf2f84fe80c6badbce3648c8539ad1df4d2b3d822938ca0538be727e691a26104d3848484612436565b50505050565b600a60205281600052604060002081815481106104f557600080fd5b90600052602060002090600d02016000915091505080600001805461051990613b59565b80601f016020809104026020016040519081016040528092919081815260200182805461054590613b59565b80156105925780601f1061056757610100808354040283529160200191610592565b820191906000526020600020905b81548152906001019060200180831161057557829003601f168201915b5050505050908060010180546105a790613b59565b80601f01602080910402602001604051908101604052809291908181526020018280546105d390613b59565b80156106205780601f106105f557610100808354040283529160200191610620565b820191906000526020600020905b81548152906001019060200180831161060357829003601f168201915b50505050509080600201805461063590613b59565b80601f016020809104026020016040519081016040528092919081815260200182805461066190613b59565b80156106ae5780601f10610683576101008083540402835291602001916106ae565b820191906000526020600020905b81548152906001019060200180831161069157829003601f168201915b5050505050908060030180546106c390613b59565b80601f01602080910402602001604051908101604052809291908181526020018280546106ef90613b59565b801561073c5780601f106107115761010080835404028352916020019161073c565b820191906000526020600020905b81548152906001019060200180831161071f57829003601f168201915b50505050509080600401805461075190613b59565b80601f016020809104026020016040519081016040528092919081815260200182805461077d90613b59565b80156107ca5780601f1061079f576101008083540402835291602001916107ca565b820191906000526020600020905b8154815290600101906020018083116107ad57829003601f168201915b5050505050908060050180546107df90613b59565b80601f016020809104026020016040519081016040528092919081815260200182805461080b90613b59565b80156108585780601f1061082d57610100808354040283529160200191610858565b820191906000526020600020905b81548152906001019060200180831161083b57829003601f168201915b50505050509080600601805461086d90613b59565b80601f016020809104026020016040519081016040528092919081815260200182805461089990613b59565b80156108e65780601f106108bb576101008083540402835291602001916108e6565b820191906000526020600020905b8154815290600101906020018083116108c957829003601f168201915b5050505050908060070180546108fb90613b59565b80601f016020809104026020016040519081016040528092919081815260200182805461092790613b59565b80156109745780601f1061094957610100808354040283529160200191610974565b820191906000526020600020905b81548152906001019060200180831161095757829003601f168201915b50505050509080600801805461098990613b59565b80601f01602080910402602001604051908101604052809291908181526020018280546109b590613b59565b8015610a025780601f106109d757610100808354040283529160200191610a02565b820191906000526020600020905b8154815290600101906020018083116109e557829003601f168201915b505050505090806009018054610a1790613b59565b80601f0160208091040260200160405190810160405280929190818152602001828054610a4390613b59565b8015610a905780601f10610a6557610100808354040283529160200191610a90565b820191906000526020600020905b815481529060010190602001808311610a7357829003601f168201915b50505050509080600a018054610aa590613b59565b80601f0160208091040260200160405190810160405280929190818152602001828054610ad190613b59565b8015610b1e5780601f10610af357610100808354040283529160200191610b1e565b820191906000526020600020905b815481529060010190602001808311610b0157829003601f168201915b50505050509080600b018054610b3390613b59565b80601f0160208091040260200160405190810160405280929190818152602001828054610b5f90613b59565b8015610bac5780601f10610b8157610100808354040283529160200191610bac565b820191906000526020600020905b815481529060010190602001808311610b8f57829003601f168201915b505050505090508c565b610bbe61249d565b610bc882826124f9565b5050565b6005546001600160a01b03163314610c515760405162461bcd60e51b815260206004820152602960248201527f4f6e6c79205652467632436f6e73756d65722063616e2063616c6c207468697360448201527f2066756e6374696f6e000000000000000000000000000000000000000000000060648201526084015b60405180910390fd5b8051600314610cc85760405162461bcd60e51b815260206004820152602360248201527f556e6578706563746564206e756d626572206f662072616e646f6d206e756d6260448201527f65727300000000000000000000000000000000000000000000000000000000006064820152608401610c48565b336000908152600a602052604090208054610d4b5760405162461bcd60e51b815260206004820152602e60248201527f4e6f20696e737572616e6365206461746120666f756e6420666f72207468652060448201527f726571756573742073656e6465720000000000000000000000000000000000006064820152608401610c48565b80546000908290610d5e90600190613b09565b81548110610d6e57610d6e613bfd565b90600052602060002090600d0201905060005b6003811015610dd757838181518110610d9c57610d9c613bfd565b602002602001015182600c018281548110610db957610db9613bfd565b60009182526020909120015580610dcf81613b94565b915050610d81565b5050505050565b6003546001600160a01b03163314610e385760405162461bcd60e51b815260206004820152601660248201527f4d7573742062652070726f706f736564206f776e6572000000000000000000006044820152606401610c48565b600280546001600160a01b0319808216339081179093556003805490911690556040516001600160a01b03909116919082907f8be0079c531659141344cd1fd0a4f28419497f9722a3daafe3b4186f6b6457e090600090a350565b6000600460009054906101000a90046001600160a01b03166001600160a01b0316638e15f4736040518163ffffffff1660e01b815260040160206040518083038186803b158015610ee357600080fd5b505afa158015610ef7573d6000803e3d6000fd5b505050506040513d601f19601f82011682018060405250810190610f1b9190613358565b905090565b6000600c8414610f725760405162461bcd60e51b815260206004820152601b60248201527f496e76616c6964206e756d626572206f6620617267756d656e747300000000006044820152606401610c48565b610fb06040518060400160405280601581526020017f476f7420746865206c6174657374207072696365210000000000000000000000815250612579565b336000908152600a6020526040812080549091906116215781604051806101a0016040528089896000818110610fe857610fe8613bfd565b9050602002810190610ffa91906138fa565b8080601f0160208091040260200160405190810160405280939291908181526020018383808284376000920191909152505050908252506020018989600181811061104757611047613bfd565b905060200281019061105991906138fa565b8080601f016020809104026020016040519081016040528093929190818152602001838380828437600092019190915250505090825250602001898960028181106110a6576110a6613bfd565b90506020028101906110b891906138fa565b8080601f0160208091040260200160405190810160405280939291908181526020018383808284376000920191909152505050908252506020018989600381811061110557611105613bfd565b905060200281019061111791906138fa565b8080601f0160208091040260200160405190810160405280939291908181526020018383808284376000920191909152505050908252506020018989600481811061116457611164613bfd565b905060200281019061117691906138fa565b8080601f016020809104026020016040519081016040528093929190818152602001838380828437600092019190915250505090825250602001898960058181106111c3576111c3613bfd565b90506020028101906111d591906138fa565b8080601f0160208091040260200160405190810160405280939291908181526020018383808284376000920191909152505050908252506020018989600681811061122257611222613bfd565b905060200281019061123491906138fa565b8080601f0160208091040260200160405190810160405280939291908181526020018383808284376000920191909152505050908252506020018989600781811061128157611281613bfd565b905060200281019061129391906138fa565b8080601f016020809104026020016040519081016040528093929190818152602001838380828437600092019190915250505090825250602001898960088181106112e0576112e0613bfd565b90506020028101906112f291906138fa565b8080601f0160208091040260200160405190810160405280939291908181526020018383808284376000920191909152505050908252506020018989600981811061133f5761133f613bfd565b905060200281019061135191906138fa565b8080601f0160208091040260200160405190810160405280939291908181526020018383808284376000920191909152505050908252506020018989600a81811061139e5761139e613bfd565b90506020028101906113b091906138fa565b8080601f0160208091040260200160405190810160405280939291908181526020018383808284376000920191909152505050908252506020018989600b8181106113fd576113fd613bfd565b905060200281019061140f91906138fa565b8080601f016020809104026020016040519081016040528093929190818152602001838380828437600092019190915250505090825250604080516003808252608082019092526020928301929091908201606080368337505050905281546001810183556000928352602092839020825180519394600d9093029091019261149b9284920190613061565b5060208281015180516114b49260018501920190613061565b50604082015180516114d0916002840191602090910190613061565b50606082015180516114ec916003840191602090910190613061565b5060808201518051611508916004840191602090910190613061565b5060a08201518051611524916005840191602090910190613061565b5060c08201518051611540916006840191602090910190613061565b5060e0820151805161155c916007840191602090910190613061565b506101008201518051611579916008840191602090910190613061565b506101208201518051611596916009840191602090910190613061565b5061014082015180516115b391600a840191602090910190613061565b5061016082015180516115d091600b840191602090910190613061565b5061018082015180516115ed91600c8401916020909101906130e5565b5050825483915061160090600190613b09565b8154811061161057611610613bfd565b90600052602060002090600d020190505b61165f6040518060400160405280600a81526020017f6174207265717565737400000000000000000000000000000000000000000000815250612579565b6116996040805160c08101909152806000815260200160008152602001600081526020016060815260200160608152602001606081525090565b6116e06000808e8e8080601f016020809104026020016040519081016040528093929190818152602001838380828437600092019190915250879594939250506125ea9050565b8815611728576117288a8a8080601f016020809104026020016040519081016040528093929190818152602001838380828437600092019190915250859392505061267e9050565b86156117425761174261173b888a613b20565b82906126c5565b600061174f828888612705565b60068190559d9c50505050505050505050505050565b6007805461177290613b59565b80601f016020809104026020016040519081016040528092919081815260200182805461179e90613b59565b80156117eb5780601f106117c0576101008083540402835291602001916117eb565b820191906000526020600020905b8154815290600101906020018083116117ce57829003601f168201915b505050505081565b60606118336040518060400160405280600481526020017f5465737400000000000000000000000000000000000000000000000000000000815250612579565b5060408051808201909152600c81527f48656c6c6f20576f726c64210000000000000000000000000000000000000000602082015290565b336000818152600a60205260409020805460609291906118f25760405162461bcd60e51b8152602060048201526024808201527f4e6f20696e737572616e6365206461746120666f756e6420666f72207468652060448201527f75736572000000000000000000000000000000000000000000000000000000006064820152608401610c48565b8054600090829061190590600190613b09565b8154811061191557611915613bfd565b600091825260208220600d909102019150600c8201905b81548110156119b35781818154811061194757611947613bfd565b90600052602060002001546000146119a15760405162461bcd60e51b815260206004820152601c60248201527f4e6f6e2d7a65726f2072616e646f6d20706f696e747320666f756e64000000006044820152606401610c48565b806119ab81613b94565b91505061192c565b50600560009054906101000a90046001600160a01b03166001600160a01b031663e0c862896040518163ffffffff1660e01b8152600401602060405180830381600087803b158015611a0457600080fd5b505af1158015611a18573d6000803e3d6000fd5b505050506040513d601f19601f82011682018060405250810190611a3c9190613358565b505050505090565b60008054604080517fd328a91e00000000000000000000000000000000000000000000000000000000815290516060936001600160a01b039093169263d328a91e9260048082019391829003018186803b158015611aa157600080fd5b505afa158015611ab5573d6000803e3d6000fd5b505050506040513d6000823e601f3d908101601f19168201604052610f1b91908101906133de565b600080546001600160a01b031663d227d24585611af988612877565b86866040518563ffffffff1660e01b8152600401611b1a94939291906138be565b60206040518083038186803b158015611b3257600080fd5b505afa158015611b46573d6000803e3d6000fd5b505050506040513d601f19601f82011682018060405250810190611b6a91906136ed565b95945050505050565b336000908152600a602052604081208054611bd05760405162461bcd60e51b815260206004820152601760248201527f4e6f20696e737572616e6365206461746120666f756e640000000000000000006044820152606401610c48565b60005b81548110156123e6576000828281548110611bf057611bf0613bfd565b90600052602060002090600d0201604051806101a0016040529081600082018054611c1a90613b59565b80601f0160208091040260200160405190810160405280929190818152602001828054611c4690613b59565b8015611c935780601f10611c6857610100808354040283529160200191611c93565b820191906000526020600020905b815481529060010190602001808311611c7657829003601f168201915b50505050508152602001600182018054611cac90613b59565b80601f0160208091040260200160405190810160405280929190818152602001828054611cd890613b59565b8015611d255780601f10611cfa57610100808354040283529160200191611d25565b820191906000526020600020905b815481529060010190602001808311611d0857829003601f168201915b50505050508152602001600282018054611d3e90613b59565b80601f0160208091040260200160405190810160405280929190818152602001828054611d6a90613b59565b8015611db75780601f10611d8c57610100808354040283529160200191611db7565b820191906000526020600020905b815481529060010190602001808311611d9a57829003601f168201915b50505050508152602001600382018054611dd090613b59565b80601f0160208091040260200160405190810160405280929190818152602001828054611dfc90613b59565b8015611e495780601f10611e1e57610100808354040283529160200191611e49565b820191906000526020600020905b815481529060010190602001808311611e2c57829003601f168201915b50505050508152602001600482018054611e6290613b59565b80601f0160208091040260200160405190810160405280929190818152602001828054611e8e90613b59565b8015611edb5780601f10611eb057610100808354040283529160200191611edb565b820191906000526020600020905b815481529060010190602001808311611ebe57829003601f168201915b50505050508152602001600582018054611ef490613b59565b80601f0160208091040260200160405190810160405280929190818152602001828054611f2090613b59565b8015611f6d5780601f10611f4257610100808354040283529160200191611f6d565b820191906000526020600020905b815481529060010190602001808311611f5057829003601f168201915b50505050508152602001600682018054611f8690613b59565b80601f0160208091040260200160405190810160405280929190818152602001828054611fb290613b59565b8015611fff5780601f10611fd457610100808354040283529160200191611fff565b820191906000526020600020905b815481529060010190602001808311611fe257829003601f168201915b5050505050815260200160078201805461201890613b59565b80601f016020809104026020016040519081016040528092919081815260200182805461204490613b59565b80156120915780601f1061206657610100808354040283529160200191612091565b820191906000526020600020905b81548152906001019060200180831161207457829003601f168201915b505050505081526020016008820180546120aa90613b59565b80601f01602080910402602001604051908101604052809291908181526020018280546120d690613b59565b80156121235780601f106120f857610100808354040283529160200191612123565b820191906000526020600020905b81548152906001019060200180831161210657829003601f168201915b5050505050815260200160098201805461213c90613b59565b80601f016020809104026020016040519081016040528092919081815260200182805461216890613b59565b80156121b55780601f1061218a576101008083540402835291602001916121b5565b820191906000526020600020905b81548152906001019060200180831161219857829003601f168201915b50505050508152602001600a820180546121ce90613b59565b80601f01602080910402602001604051908101604052809291908181526020018280546121fa90613b59565b80156122475780601f1061221c57610100808354040283529160200191612247565b820191906000526020600020905b81548152906001019060200180831161222a57829003601f168201915b50505050508152602001600b8201805461226090613b59565b80601f016020809104026020016040519081016040528092919081815260200182805461228c90613b59565b80156122d95780601f106122ae576101008083540402835291602001916122d9565b820191906000526020600020905b8154815290600101906020018083116122bc57829003601f168201915b50505050508152602001600c820180548060200260200160405190810160405280929190818152602001828054801561233157602002820191906000526020600020905b81548152602001906001019080831161231d575b50505050508152505090508060c0015151600014158015612356575060e08101515115155b8015612363575080515115155b8015612373575060208101515115155b8015612383575060408101515115155b8015612393575060608101515115155b80156123a3575060808101515115155b80156123b3575060a08101515115155b80156123c457506101008101515115155b156123d3576001935050505090565b50806123de81613b94565b915050611bd3565b50600091505090565b6123f761249d565b61240081612b43565b50565b61240b61249d565b600080546001600160a01b0319166001600160a01b03831617905550565b6008805461177290613b59565b8151612449906007906020850190613061565b50805161245d906008906020840190613061565b50827f7bab0ec163b5c132c72b8146ac4d6e067e82ed58f8b131150aa71c9258911562838360405161249092919061375a565b60405180910390a2505050565b6002546001600160a01b031633146124f75760405162461bcd60e51b815260206004820152601660248201527f4f6e6c792063616c6c61626c65206279206f776e6572000000000000000000006044820152606401610c48565b565b60008181526001602052604090205481906001600160a01b03161561254a576040517f8b457ad200000000000000000000000000000000000000000000000000000000815260040160405180910390fd5b50600090815260016020526040902080546001600160a01b0319166001600160a01b0392909216919091179055565b6124008160405160240161258d9190613747565b60408051601f198184030181529190526020810180517bffffffffffffffffffffffffffffffffffffffffffffffffffffffff167f41304fac00000000000000000000000000000000000000000000000000000000179052612bee565b8051612622576040517f22ce3edd00000000000000000000000000000000000000000000000000000000815260040160405180910390fd5b8383600181111561263557612635613be7565b9081600181111561264857612648613be7565b9052506040840182801561265e5761265e613be7565b9081801561266e5761266e613be7565b9052506060909301929092525050565b80516126b6576040517fe889636f00000000000000000000000000000000000000000000000000000000815260040160405180910390fd5b60016020830152608090910152565b80516126fd576040517ffe936cb700000000000000000000000000000000000000000000000000000000815260040160405180910390fd5b60a090910152565b6000805481906001600160a01b03166328242b048561272388612877565b866040518463ffffffff1660e01b815260040161274293929190613885565b602060405180830381600087803b15801561275c57600080fd5b505af1158015612770573d6000803e3d6000fd5b505050506040513d601f19601f820116820180604052508101906127949190613358565b905060008054906101000a90046001600160a01b03166001600160a01b0316635ab1bd536040518163ffffffff1660e01b815260040160206040518083038186803b1580156127e257600080fd5b505afa1580156127f6573d6000803e3d6000fd5b505050506040513d601f19601f8201168201806040525081019061281a919061330f565b60008281526001602052604080822080546001600160a01b0319166001600160a01b039490941693909317909255905182917f1131472297a800fee664d1d89cfa8f7676ff07189ecc53f80bbb5f4969099db891a2949350505050565b606061288161311f565b805161288f90610100612c0f565b506128cf816040518060400160405280600c81526020017f636f64654c6f636174696f6e0000000000000000000000000000000000000000815250612c89565b6128ee81846000015160018111156128e9576128e9613be7565b612ca7565b61292d816040518060400160405280600881526020017f6c616e6775616765000000000000000000000000000000000000000000000000815250612c89565b61294781846040015160008111156128e9576128e9613be7565b612986816040518060400160405280600681526020017f736f757263650000000000000000000000000000000000000000000000000000815250612c89565b612994818460600151612c89565b60a08301515115612a3a576129de816040518060400160405280600481526020017f6172677300000000000000000000000000000000000000000000000000000000815250612c89565b6129e781612ce0565b60005b8360a0015151811015612a3057612a1e828560a001518381518110612a1157612a11613bfd565b6020026020010151612c89565b80612a2881613b94565b9150506129ea565b50612a3a81612d04565b60808301515115612b3b57600083602001516001811115612a5d57612a5d613be7565b1415612a95576040517fa80d31f700000000000000000000000000000000000000000000000000000000815260040160405180910390fd5b612ad4816040518060400160405280600f81526020017f736563726574734c6f636174696f6e0000000000000000000000000000000000815250612c89565b612aee81846020015160018111156128e9576128e9613be7565b612b2d816040518060400160405280600781526020017f7365637265747300000000000000000000000000000000000000000000000000815250612c89565b612b3b818460800151612d22565b515192915050565b6001600160a01b038116331415612b9c5760405162461bcd60e51b815260206004820152601760248201527f43616e6e6f74207472616e7366657220746f2073656c660000000000000000006044820152606401610c48565b600380546001600160a01b0319166001600160a01b03838116918217909255600254604051919216907fed8889f560326eb138920d842192f0eb3dd22b4f139c87a2c57538e05bae127890600090a350565b80516a636f6e736f6c652e6c6f67602083016000808483855afa5050505050565b604080518082019091526060815260006020820152612c2f602083613baf565b15612c5757612c3f602083613baf565b612c4a906020613b09565b612c5490836139e7565b91505b602080840183905260405180855260008152908184010181811015612c7b57600080fd5b604052508290505b92915050565b612c968260038351612d2b565b8151612ca29082612e4c565b505050565b8151612cb49060c2612e74565b50610bc88282604051602001612ccc91815260200190565b604051602081830303815290604052612d22565b612ceb816004612edd565b600181602001818151612cfe91906139e7565b90525050565b612d0f816007612edd565b600181602001818151612cfe9190613b09565b612c9682600283515b60178167ffffffffffffffff1611612d525782516104d39060e0600585901b168317612e74565b60ff8167ffffffffffffffff1611612d94578251612d7b906018611fe0600586901b1617612e74565b5082516104d39067ffffffffffffffff83166001612ef4565b61ffff8167ffffffffffffffff1611612dd7578251612dbe906019611fe0600586901b1617612e74565b5082516104d39067ffffffffffffffff83166002612ef4565b63ffffffff8167ffffffffffffffff1611612e1c578251612e0390601a611fe0600586901b1617612e74565b5082516104d39067ffffffffffffffff83166004612ef4565b8251612e3390601b611fe0600586901b1617612e74565b5082516104d39067ffffffffffffffff83166008612ef4565b604080518082019091526060815260006020820152612e6d83838451612f79565b9392505050565b6040805180820190915260608152600060208201528251516000612e998260016139e7565b905084602001518210612eba57612eba85612eb5836002613aea565b61304a565b8451602083820101858153508051821115612ed3578181525b5093949350505050565b8151612ca290601f611fe0600585901b1617612e74565b6040805180820190915260608152600060208201528351516000612f1882856139e7565b90508560200151811115612f3557612f3586612eb5836002613aea565b60006001612f4586610100613a42565b612f4f9190613b09565b90508651828101878319825116178152508051831115612f6d578281525b50959695505050505050565b6040805180820190915260608152600060208201528251821115612f9c57600080fd5b8351516000612fab84836139e7565b90508560200151811115612fc857612fc886612eb5836002613aea565b855180518382016020019160009180851115612fe2578482525b505050602086015b6020861061302257805182526130016020836139e7565b915061300e6020826139e7565b905061301b602087613b09565b9550612fea565b51815160001960208890036101000a0190811690199190911617905250849150509392505050565b81516130568383612c0f565b506104d38382612e4c565b82805461306d90613b59565b90600052602060002090601f01602090048101928261308f57600085556130d5565b82601f106130a857805160ff19168380011785556130d5565b828001600101855582156130d5579182015b828111156130d55782518255916020019190600101906130ba565b506130e1929150613154565b5090565b8280548282559060005260206000209081019282156130d557916020028201828111156130d55782518255916020019190600101906130ba565b6040518060400160405280613147604051806040016040528060608152602001600081525090565b8152602001600081525090565b5b808211156130e15760008155600101613155565b600061317c6131778461399b565b61396a565b9050808382526020808301915083868660051b8601111561319c57600080fd5b6000805b878110156131dd57823567ffffffffffffffff8111156131be578283fd5b6131ca8a828a01613252565b86525093830193918301916001016131a0565b50505050509392505050565b600082601f8301126131fa57600080fd5b612e6d83833560208501613169565b60008083601f84011261321b57600080fd5b50813567ffffffffffffffff81111561323357600080fd5b60208301915083602082850101111561324b57600080fd5b9250929050565b600082601f83011261326357600080fd5b8135613271613177826139bf565b81815284602083860101111561328657600080fd5b816020850160208301376000918101602001919091529392505050565b8035600181106132b257600080fd5b919050565b8035600281106132b257600080fd5b803563ffffffff811681146132b257600080fd5b803567ffffffffffffffff811681146132b257600080fd5b60006020828403121561330457600080fd5b8135612e6d81613c29565b60006020828403121561332157600080fd5b8151612e6d81613c29565b6000806040838503121561333f57600080fd5b823561334a81613c29565b946020939093013593505050565b60006020828403121561336a57600080fd5b5051919050565b60008060006060848603121561338657600080fd5b83359250602084013567ffffffffffffffff808211156133a557600080fd5b6133b187838801613252565b935060408601359150808211156133c757600080fd5b506133d486828701613252565b9150509250925092565b6000602082840312156133f057600080fd5b815167ffffffffffffffff81111561340757600080fd5b8201601f8101841361341857600080fd5b8051613426613177826139bf565b81815285602083850101111561343b57600080fd5b611b6a826020830160208601613b2d565b60008060008060008060008060a0898b03121561346857600080fd5b883567ffffffffffffffff8082111561348057600080fd5b61348c8c838d01613209565b909a50985060208b01359150808211156134a557600080fd5b6134b18c838d01613209565b909850965060408b01359150808211156134ca57600080fd5b818b0191508b601f8301126134de57600080fd5b8135818111156134ed57600080fd5b8c60208260051b850101111561350257600080fd5b60208301965080955050505061351a60608a016132da565b915061352860808a016132c6565b90509295985092959890939650565b6000806000806080858703121561354d57600080fd5b843567ffffffffffffffff8082111561356557600080fd5b9086019060c0828903121561357957600080fd5b613581613941565b61358a836132b7565b8152613598602084016132b7565b60208201526135a9604084016132a3565b60408201526060830135828111156135c057600080fd5b6135cc8a828601613252565b6060830152506080830135828111156135e457600080fd5b6135f08a828601613252565b60808301525060a08301358281111561360857600080fd5b6136148a8286016131e9565b60a083015250955061362b915050602086016132da565b9250613639604086016132c6565b9396929550929360600135925050565b6000806040838503121561365c57600080fd5b8235915060208084013567ffffffffffffffff81111561367b57600080fd5b8401601f8101861361368c57600080fd5b803561369a6131778261399b565b80828252848201915084840189868560051b87010111156136ba57600080fd5b600094505b838510156136dd5780358352600194909401939185019185016136bf565b5080955050505050509250929050565b6000602082840312156136ff57600080fd5b81516bffffffffffffffffffffffff81168114612e6d57600080fd5b60008151808452613733816020860160208601613b2d565b601f01601f19169290920160200192915050565b602081526000612e6d602083018461371b565b60408152600061376d604083018561371b565b8281036020840152611b6a818561371b565b6101808152600061379461018083018f61371b565b82810360208401526137a6818f61371b565b905082810360408401526137ba818e61371b565b905082810360608401526137ce818d61371b565b905082810360808401526137e2818c61371b565b905082810360a08401526137f6818b61371b565b905082810360c084015261380a818a61371b565b905082810360e084015261381e818961371b565b9050828103610100840152613833818861371b565b9050828103610120840152613848818761371b565b905082810361014084015261385d818661371b565b9050828103610160840152613872818561371b565b9f9e505050505050505050505050505050565b67ffffffffffffffff841681526060602082015260006138a8606083018561371b565b905063ffffffff83166040830152949350505050565b67ffffffffffffffff851681526080602082015260006138e1608083018661371b565b63ffffffff949094166040830152506060015292915050565b6000808335601e1984360301811261391157600080fd5b83018035915067ffffffffffffffff82111561392c57600080fd5b60200191503681900382131561324b57600080fd5b60405160c0810167ffffffffffffffff8111828210171561396457613964613c13565b60405290565b604051601f8201601f1916810167ffffffffffffffff8111828210171561399357613993613c13565b604052919050565b600067ffffffffffffffff8211156139b5576139b5613c13565b5060051b60200190565b600067ffffffffffffffff8211156139d9576139d9613c13565b50601f01601f191660200190565b600082198211156139fa576139fa613bd1565b500190565b600181815b80851115613a3a578160001904821115613a2057613a20613bd1565b80851615613a2d57918102915b93841c9390800290613a04565b509250929050565b6000612e6d8383600082613a5857506001612c83565b81613a6557506000612c83565b8160018114613a7b5760028114613a8557613aa1565b6001915050612c83565b60ff841115613a9657613a96613bd1565b50506001821b612c83565b5060208310610133831016604e8410600b8410161715613ac4575081810a612c83565b613ace83836139ff565b8060001904821115613ae257613ae2613bd1565b029392505050565b6000816000190483118215151615613b0457613b04613bd1565b500290565b600082821015613b1b57613b1b613bd1565b500390565b6000612e6d368484613169565b60005b83811015613b48578181015183820152602001613b30565b838111156104d35750506000910152565b600181811c90821680613b6d57607f821691505b60208210811415613b8e57634e487b7160e01b600052602260045260246000fd5b50919050565b6000600019821415613ba857613ba8613bd1565b5060010190565b600082613bcc57634e487b7160e01b600052601260045260246000fd5b500690565b634e487b7160e01b600052601160045260246000fd5b634e487b7160e01b600052602160045260246000fd5b634e487b7160e01b600052603260045260246000fd5b634e487b7160e01b600052604160045260246000fd5b6001600160a01b038116811461240057600080fdfea264697066735822122092d2310e4d7c8a3e438c8a2c0fef1c99f82a450b5455a65059648e77fe55279264736f6c63430008070033","opcodes":"PUSH1 0x80 PUSH1 0x40 MSTORE TIMESTAMP PUSH1 0x9 SSTORE CALLVALUE DUP1 ISZERO PUSH3 0x15 JUMPI PUSH1 0x0 DUP1 REVERT JUMPDEST POP PUSH1 0x40 MLOAD PUSH3 0x3EB9 CODESIZE SUB DUP1 PUSH3 0x3EB9 DUP4 CODECOPY DUP2 ADD PUSH1 0x40 DUP2 SWAP1 MSTORE PUSH3 0x38 SWAP2 PUSH3 0x1EB JUMP JUMPDEST PUSH1 0x0 DUP1 SLOAD PUSH1 0x1 PUSH1 0x1 PUSH1 0xA0 SHL SUB NOT AND PUSH1 0x1 PUSH1 0x1 PUSH1 0xA0 SHL SUB DUP6 AND OR DUP2 SSTORE CALLER SWAP1 DUP2 SWAP1 PUSH1 0x1 PUSH1 0x1 PUSH1 0xA0 SHL SUB DUP3 AND PUSH3 0xB3 JUMPI PUSH1 0x40 MLOAD PUSH3 0x461BCD PUSH1 0xE5 SHL DUP2 MSTORE PUSH1 0x20 PUSH1 0x4 DUP3 ADD MSTORE PUSH1 0x18 PUSH1 0x24 DUP3 ADD MSTORE PUSH32 0x43616E6E6F7420736574206F776E657220746F207A65726F0000000000000000 PUSH1 0x44 DUP3 ADD MSTORE PUSH1 0x64 ADD JUMPDEST PUSH1 0x40 MLOAD DUP1 SWAP2 SUB SWAP1 REVERT JUMPDEST PUSH1 0x2 DUP1 SLOAD PUSH1 0x1 PUSH1 0x1 PUSH1 0xA0 SHL SUB NOT AND PUSH1 0x1 PUSH1 0x1 PUSH1 0xA0 SHL SUB DUP5 DUP2 AND SWAP2 SWAP1 SWAP2 OR SWAP1 SWAP2 SSTORE DUP2 AND ISZERO PUSH3 0xE6 JUMPI PUSH3 0xE6 DUP2 PUSH3 0x121 JUMP JUMPDEST POP POP PUSH1 0x4 DUP1 SLOAD PUSH1 0x1 PUSH1 0x1 PUSH1 0xA0 SHL SUB SWAP5 DUP6 AND PUSH1 0x1 PUSH1 0x1 PUSH1 0xA0 SHL SUB NOT SWAP2 DUP3 AND OR SWAP1 SWAP2 SSTORE PUSH1 0x5 DUP1 SLOAD SWAP4 SWAP1 SWAP5 AND SWAP3 AND SWAP2 SWAP1 SWAP2 OR SWAP1 SWAP2 SSTORE POP PUSH3 0x235 SWAP1 POP JUMP JUMPDEST PUSH1 0x1 PUSH1 0x1 PUSH1 0xA0 SHL SUB DUP2 AND CALLER EQ ISZERO PUSH3 0x17C JUMPI PUSH1 0x40 MLOAD PUSH3 0x461BCD PUSH1 0xE5 SHL DUP2 MSTORE PUSH1 0x20 PUSH1 0x4 DUP3 ADD MSTORE PUSH1 0x17 PUSH1 0x24 DUP3 ADD MSTORE PUSH32 0x43616E6E6F74207472616E7366657220746F2073656C66000000000000000000 PUSH1 0x44 DUP3 ADD MSTORE PUSH1 0x64 ADD PUSH3 0xAA JUMP JUMPDEST PUSH1 0x3 DUP1 SLOAD PUSH1 0x1 PUSH1 0x1 PUSH1 0xA0 SHL SUB NOT AND PUSH1 0x1 PUSH1 0x1 PUSH1 0xA0 SHL SUB DUP4 DUP2 AND SWAP2 DUP3 OR SWAP1 SWAP3 SSTORE PUSH1 0x2 SLOAD PUSH1 0x40 MLOAD SWAP2 SWAP3 AND SWAP1 PUSH32 0xED8889F560326EB138920D842192F0EB3DD22B4F139C87A2C57538E05BAE1278 SWAP1 PUSH1 0x0 SWAP1 LOG3 POP JUMP JUMPDEST DUP1 MLOAD PUSH1 0x1 PUSH1 0x1 PUSH1 0xA0 SHL SUB DUP2 AND DUP2 EQ PUSH3 0x1E6 JUMPI PUSH1 0x0 DUP1 REVERT JUMPDEST SWAP2 SWAP1 POP JUMP JUMPDEST PUSH1 0x0 DUP1 PUSH1 0x0 PUSH1 0x60 DUP5 DUP7 SUB SLT ISZERO PUSH3 0x201 JUMPI PUSH1 0x0 DUP1 REVERT JUMPDEST PUSH3 0x20C DUP5 PUSH3 0x1CE JUMP JUMPDEST SWAP3 POP PUSH3 0x21C PUSH1 0x20 DUP6 ADD PUSH3 0x1CE JUMP JUMPDEST SWAP2 POP PUSH3 0x22C PUSH1 0x40 DUP6 ADD PUSH3 0x1CE JUMP JUMPDEST SWAP1 POP SWAP3 POP SWAP3 POP SWAP3 JUMP JUMPDEST PUSH2 0x3C74 DUP1 PUSH3 0x245 PUSH1 0x0 CODECOPY PUSH1 0x0 RETURN INVALID PUSH1 0x80 PUSH1 0x40 MSTORE PUSH1 0x4 CALLDATASIZE LT PUSH2 0x175 JUMPI PUSH1 0x0 CALLDATALOAD PUSH1 0xE0 SHR DUP1 PUSH4 0x985454FF GT PUSH2 0xCB JUMPI DUP1 PUSH4 0xD328A91E GT PUSH2 0x7F JUMPI DUP1 PUSH4 0xF2FDE38B GT PUSH2 0x59 JUMPI DUP1 PUSH4 0xF2FDE38B EQ PUSH2 0x3DE JUMPI DUP1 PUSH4 0xF7023BB6 EQ PUSH2 0x3FE JUMPI DUP1 PUSH4 0xFFFEB84E EQ PUSH2 0x41E JUMPI PUSH1 0x0 DUP1 REVERT JUMPDEST DUP1 PUSH4 0xD328A91E EQ PUSH2 0x367 JUMPI DUP1 PUSH4 0xD4B39175 EQ PUSH2 0x37C JUMPI DUP1 PUSH4 0xE0919101 EQ PUSH2 0x3B9 JUMPI PUSH1 0x0 DUP1 REVERT JUMPDEST DUP1 PUSH4 0xC605F76C GT PUSH2 0xB0 JUMPI DUP1 PUSH4 0xC605F76C EQ PUSH2 0x327 JUMPI DUP1 PUSH4 0xCE10B1FB EQ PUSH2 0x33C JUMPI DUP1 PUSH4 0xD18E81B3 EQ PUSH2 0x351 JUMPI PUSH1 0x0 DUP1 REVERT JUMPDEST DUP1 PUSH4 0x985454FF EQ PUSH2 0x2F2 JUMPI DUP1 PUSH4 0xBEF3A2F0 EQ PUSH2 0x305 JUMPI PUSH1 0x0 DUP1 REVERT JUMPDEST DUP1 PUSH4 0x30BDA99D GT PUSH2 0x12D JUMPI DUP1 PUSH4 0x79BA5097 GT PUSH2 0x107 JUMPI DUP1 PUSH4 0x79BA5097 EQ PUSH2 0x2AA JUMPI DUP1 PUSH4 0x8DA5CB5B EQ PUSH2 0x2BF JUMPI DUP1 PUSH4 0x8E15F473 EQ PUSH2 0x2DD JUMPI PUSH1 0x0 DUP1 REVERT JUMPDEST DUP1 PUSH4 0x30BDA99D EQ PUSH2 0x24A JUMPI DUP1 PUSH4 0x37F9C70D EQ PUSH2 0x26A JUMPI DUP1 PUSH4 0x741BEF1A EQ PUSH2 0x28A JUMPI PUSH1 0x0 DUP1 REVERT JUMPDEST DUP1 PUSH4 0x1AA46F59 GT PUSH2 0x15E JUMPI DUP1 PUSH4 0x1AA46F59 EQ PUSH2 0x1D9 JUMPI DUP1 PUSH4 0x2142735A EQ PUSH2 0x1FD JUMPI DUP1 PUSH4 0x29CB924D EQ PUSH2 0x235 JUMPI PUSH1 0x0 DUP1 REVERT JUMPDEST DUP1 PUSH4 0xCA76175 EQ PUSH2 0x17A JUMPI DUP1 PUSH4 0x126455DD EQ PUSH2 0x19C JUMPI JUMPDEST PUSH1 0x0 DUP1 REVERT JUMPDEST CALLVALUE DUP1 ISZERO PUSH2 0x186 JUMPI PUSH1 0x0 DUP1 REVERT JUMPDEST POP PUSH2 0x19A PUSH2 0x195 CALLDATASIZE PUSH1 0x4 PUSH2 0x3371 JUMP JUMPDEST PUSH2 0x433 JUMP JUMPDEST STOP JUMPDEST CALLVALUE DUP1 ISZERO PUSH2 0x1A8 JUMPI PUSH1 0x0 DUP1 REVERT JUMPDEST POP PUSH1 0x5 SLOAD PUSH2 0x1BC SWAP1 PUSH1 0x1 PUSH1 0x1 PUSH1 0xA0 SHL SUB AND DUP2 JUMP JUMPDEST PUSH1 0x40 MLOAD PUSH1 0x1 PUSH1 0x1 PUSH1 0xA0 SHL SUB SWAP1 SWAP2 AND DUP2 MSTORE PUSH1 0x20 ADD JUMPDEST PUSH1 0x40 MLOAD DUP1 SWAP2 SUB SWAP1 RETURN JUMPDEST CALLVALUE DUP1 ISZERO PUSH2 0x1E5 JUMPI PUSH1 0x0 DUP1 REVERT JUMPDEST POP PUSH2 0x1EF PUSH1 0x6 SLOAD DUP2 JUMP JUMPDEST PUSH1 0x40 MLOAD SWAP1 DUP2 MSTORE PUSH1 0x20 ADD PUSH2 0x1D0 JUMP JUMPDEST CALLVALUE DUP1 ISZERO PUSH2 0x209 JUMPI PUSH1 0x0 DUP1 REVERT JUMPDEST POP PUSH2 0x21D PUSH2 0x218 CALLDATASIZE PUSH1 0x4 PUSH2 0x332C JUMP JUMPDEST PUSH2 0x4D9 JUMP JUMPDEST PUSH1 0x40 MLOAD PUSH2 0x1D0 SWAP13 SWAP12 SWAP11 SWAP10 SWAP9 SWAP8 SWAP7 SWAP6 SWAP5 SWAP4 SWAP3 SWAP2 SWAP1 PUSH2 0x377F JUMP JUMPDEST CALLVALUE DUP1 ISZERO PUSH2 0x241 JUMPI PUSH1 0x0 DUP1 REVERT JUMPDEST POP PUSH1 0x9 SLOAD PUSH2 0x1EF JUMP JUMPDEST CALLVALUE DUP1 ISZERO PUSH2 0x256 JUMPI PUSH1 0x0 DUP1 REVERT JUMPDEST POP PUSH2 0x19A PUSH2 0x265 CALLDATASIZE PUSH1 0x4 PUSH2 0x332C JUMP JUMPDEST PUSH2 0xBB6 JUMP JUMPDEST CALLVALUE DUP1 ISZERO PUSH2 0x276 JUMPI PUSH1 0x0 DUP1 REVERT JUMPDEST POP PUSH2 0x19A PUSH2 0x285 CALLDATASIZE PUSH1 0x4 PUSH2 0x3649 JUMP JUMPDEST PUSH2 0xBCC JUMP JUMPDEST CALLVALUE DUP1 ISZERO PUSH2 0x296 JUMPI PUSH1 0x0 DUP1 REVERT JUMPDEST POP PUSH1 0x4 SLOAD PUSH2 0x1BC SWAP1 PUSH1 0x1 PUSH1 0x1 PUSH1 0xA0 SHL SUB AND DUP2 JUMP JUMPDEST CALLVALUE DUP1 ISZERO PUSH2 0x2B6 JUMPI PUSH1 0x0 DUP1 REVERT JUMPDEST POP PUSH2 0x19A PUSH2 0xDDE JUMP JUMPDEST CALLVALUE DUP1 ISZERO PUSH2 0x2CB JUMPI PUSH1 0x0 DUP1 REVERT JUMPDEST POP PUSH1 0x2 SLOAD PUSH1 0x1 PUSH1 0x1 PUSH1 0xA0 SHL SUB AND PUSH2 0x1BC JUMP JUMPDEST CALLVALUE DUP1 ISZERO PUSH2 0x2E9 JUMPI PUSH1 0x0 DUP1 REVERT JUMPDEST POP PUSH2 0x1EF PUSH2 0xE93 JUMP JUMPDEST PUSH2 0x1EF PUSH2 0x300 CALLDATASIZE PUSH1 0x4 PUSH2 0x344C JUMP JUMPDEST PUSH2 0xF20 JUMP JUMPDEST CALLVALUE DUP1 ISZERO PUSH2 0x311 JUMPI PUSH1 0x0 DUP1 REVERT JUMPDEST POP PUSH2 0x31A PUSH2 0x1765 JUMP JUMPDEST PUSH1 0x40 MLOAD PUSH2 0x1D0 SWAP2 SWAP1 PUSH2 0x3747 JUMP JUMPDEST CALLVALUE DUP1 ISZERO PUSH2 0x333 JUMPI PUSH1 0x0 DUP1 REVERT JUMPDEST POP PUSH2 0x31A PUSH2 0x17F3 JUMP JUMPDEST CALLVALUE DUP1 ISZERO PUSH2 0x348 JUMPI PUSH1 0x0 DUP1 REVERT JUMPDEST POP PUSH2 0x31A PUSH2 0x186B JUMP JUMPDEST CALLVALUE DUP1 ISZERO PUSH2 0x35D JUMPI PUSH1 0x0 DUP1 REVERT JUMPDEST POP PUSH2 0x1EF PUSH1 0x9 SLOAD DUP2 JUMP JUMPDEST CALLVALUE DUP1 ISZERO PUSH2 0x373 JUMPI PUSH1 0x0 DUP1 REVERT JUMPDEST POP PUSH2 0x31A PUSH2 0x1A44 JUMP JUMPDEST CALLVALUE DUP1 ISZERO PUSH2 0x388 JUMPI PUSH1 0x0 DUP1 REVERT JUMPDEST POP PUSH2 0x39C PUSH2 0x397 CALLDATASIZE PUSH1 0x4 PUSH2 0x3537 JUMP JUMPDEST PUSH2 0x1ADD JUMP JUMPDEST PUSH1 0x40 MLOAD PUSH12 0xFFFFFFFFFFFFFFFFFFFFFFFF SWAP1 SWAP2 AND DUP2 MSTORE PUSH1 0x20 ADD PUSH2 0x1D0 JUMP JUMPDEST CALLVALUE DUP1 ISZERO PUSH2 0x3C5 JUMPI PUSH1 0x0 DUP1 REVERT JUMPDEST POP PUSH2 0x3CE PUSH2 0x1B73 JUMP JUMPDEST PUSH1 0x40 MLOAD SWAP1 ISZERO ISZERO DUP2 MSTORE PUSH1 0x20 ADD PUSH2 0x1D0 JUMP JUMPDEST CALLVALUE DUP1 ISZERO PUSH2 0x3EA JUMPI PUSH1 0x0 DUP1 REVERT JUMPDEST POP PUSH2 0x19A PUSH2 0x3F9 CALLDATASIZE PUSH1 0x4 PUSH2 0x32F2 JUMP JUMPDEST PUSH2 0x23EF JUMP JUMPDEST CALLVALUE DUP1 ISZERO PUSH2 0x40A JUMPI PUSH1 0x0 DUP1 REVERT JUMPDEST POP PUSH2 0x19A PUSH2 0x419 CALLDATASIZE PUSH1 0x4 PUSH2 0x32F2 JUMP JUMPDEST PUSH2 0x2403 JUMP JUMPDEST CALLVALUE DUP1 ISZERO PUSH2 0x42A JUMPI PUSH1 0x0 DUP1 REVERT JUMPDEST POP PUSH2 0x31A PUSH2 0x2429 JUMP JUMPDEST PUSH1 0x0 DUP4 DUP2 MSTORE PUSH1 0x1 PUSH1 0x20 MSTORE PUSH1 0x40 SWAP1 KECCAK256 SLOAD DUP4 SWAP1 PUSH1 0x1 PUSH1 0x1 PUSH1 0xA0 SHL SUB AND CALLER EQ PUSH2 0x485 JUMPI PUSH1 0x40 MLOAD PUSH32 0xA0C5EC6300000000000000000000000000000000000000000000000000000000 DUP2 MSTORE PUSH1 0x4 ADD PUSH1 0x40 MLOAD DUP1 SWAP2 SUB SWAP1 REVERT JUMPDEST PUSH1 0x0 DUP2 DUP2 MSTORE PUSH1 0x1 PUSH1 0x20 MSTORE PUSH1 0x40 DUP1 DUP3 KECCAK256 DUP1 SLOAD PUSH1 0x1 PUSH1 0x1 PUSH1 0xA0 SHL SUB NOT AND SWAP1 SSTORE MLOAD DUP3 SWAP2 PUSH32 0x85E1543BF2F84FE80C6BADBCE3648C8539AD1DF4D2B3D822938CA0538BE727E6 SWAP2 LOG2 PUSH2 0x4D3 DUP5 DUP5 DUP5 PUSH2 0x2436 JUMP JUMPDEST POP POP POP POP JUMP JUMPDEST PUSH1 0xA PUSH1 0x20 MSTORE DUP2 PUSH1 0x0 MSTORE PUSH1 0x40 PUSH1 0x0 KECCAK256 DUP2 DUP2 SLOAD DUP2 LT PUSH2 0x4F5 JUMPI PUSH1 0x0 DUP1 REVERT JUMPDEST SWAP1 PUSH1 0x0 MSTORE PUSH1 0x20 PUSH1 0x0 KECCAK256 SWAP1 PUSH1 0xD MUL ADD PUSH1 0x0 SWAP2 POP SWAP2 POP POP DUP1 PUSH1 0x0 ADD DUP1 SLOAD PUSH2 0x519 SWAP1 PUSH2 0x3B59 JUMP JUMPDEST DUP1 PUSH1 0x1F ADD PUSH1 0x20 DUP1 SWAP2 DIV MUL PUSH1 0x20 ADD PUSH1 0x40 MLOAD SWAP1 DUP2 ADD PUSH1 0x40 MSTORE DUP1 SWAP3 SWAP2 SWAP1 DUP2 DUP2 MSTORE PUSH1 0x20 ADD DUP3 DUP1 SLOAD PUSH2 0x545 SWAP1 PUSH2 0x3B59 JUMP JUMPDEST DUP1 ISZERO PUSH2 0x592 JUMPI DUP1 PUSH1 0x1F LT PUSH2 0x567 JUMPI PUSH2 0x100 DUP1 DUP4 SLOAD DIV MUL DUP4 MSTORE SWAP2 PUSH1 0x20 ADD SWAP2 PUSH2 0x592 JUMP JUMPDEST DUP3 ADD SWAP2 SWAP1 PUSH1 0x0 MSTORE PUSH1 0x20 PUSH1 0x0 KECCAK256 SWAP1 JUMPDEST DUP2 SLOAD DUP2 MSTORE SWAP1 PUSH1 0x1 ADD SWAP1 PUSH1 0x20 ADD DUP1 DUP4 GT PUSH2 0x575 JUMPI DUP3 SWAP1 SUB PUSH1 0x1F AND DUP3 ADD SWAP2 JUMPDEST POP POP POP POP POP SWAP1 DUP1 PUSH1 0x1 ADD DUP1 SLOAD PUSH2 0x5A7 SWAP1 PUSH2 0x3B59 JUMP JUMPDEST DUP1 PUSH1 0x1F ADD PUSH1 0x20 DUP1 SWAP2 DIV MUL PUSH1 0x20 ADD PUSH1 0x40 MLOAD SWAP1 DUP2 ADD PUSH1 0x40 MSTORE DUP1 SWAP3 SWAP2 SWAP1 DUP2 DUP2 MSTORE PUSH1 0x20 ADD DUP3 DUP1 SLOAD PUSH2 0x5D3 SWAP1 PUSH2 0x3B59 JUMP JUMPDEST DUP1 ISZERO PUSH2 0x620 JUMPI DUP1 PUSH1 0x1F LT PUSH2 0x5F5 JUMPI PUSH2 0x100 DUP1 DUP4 SLOAD DIV MUL DUP4 MSTORE SWAP2 PUSH1 0x20 ADD SWAP2 PUSH2 0x620 JUMP JUMPDEST DUP3 ADD SWAP2 SWAP1 PUSH1 0x0 MSTORE PUSH1 0x20 PUSH1 0x0 KECCAK256 SWAP1 JUMPDEST DUP2 SLOAD DUP2 MSTORE SWAP1 PUSH1 0x1 ADD SWAP1 PUSH1 0x20 ADD DUP1 DUP4 GT PUSH2 0x603 JUMPI DUP3 SWAP1 SUB PUSH1 0x1F AND DUP3 ADD SWAP2 JUMPDEST POP POP POP POP POP SWAP1 DUP1 PUSH1 0x2 ADD DUP1 SLOAD PUSH2 0x635 SWAP1 PUSH2 0x3B59 JUMP JUMPDEST DUP1 PUSH1 0x1F ADD PUSH1 0x20 DUP1 SWAP2 DIV MUL PUSH1 0x20 ADD PUSH1 0x40 MLOAD SWAP1 DUP2 ADD PUSH1 0x40 MSTORE DUP1 SWAP3 SWAP2 SWAP1 DUP2 DUP2 MSTORE PUSH1 0x20 ADD DUP3 DUP1 SLOAD PUSH2 0x661 SWAP1 PUSH2 0x3B59 JUMP JUMPDEST DUP1 ISZERO PUSH2 0x6AE JUMPI DUP1 PUSH1 0x1F LT PUSH2 0x683 JUMPI PUSH2 0x100 DUP1 DUP4 SLOAD DIV MUL DUP4 MSTORE SWAP2 PUSH1 0x20 ADD SWAP2 PUSH2 0x6AE JUMP JUMPDEST DUP3 ADD SWAP2 SWAP1 PUSH1 0x0 MSTORE PUSH1 0x20 PUSH1 0x0 KECCAK256 SWAP1 JUMPDEST DUP2 SLOAD DUP2 MSTORE SWAP1 PUSH1 0x1 ADD SWAP1 PUSH1 0x20 ADD DUP1 DUP4 GT PUSH2 0x691 JUMPI DUP3 SWAP1 SUB PUSH1 0x1F AND DUP3 ADD SWAP2 JUMPDEST POP POP POP POP POP SWAP1 DUP1 PUSH1 0x3 ADD DUP1 SLOAD PUSH2 0x6C3 SWAP1 PUSH2 0x3B59 JUMP JUMPDEST DUP1 PUSH1 0x1F ADD PUSH1 0x20 DUP1 SWAP2 DIV MUL PUSH1 0x20 ADD PUSH1 0x40 MLOAD SWAP1 DUP2 ADD PUSH1 0x40 MSTORE DUP1 SWAP3 SWAP2 SWAP1 DUP2 DUP2 MSTORE PUSH1 0x20 ADD DUP3 DUP1 SLOAD PUSH2 0x6EF SWAP1 PUSH2 0x3B59 JUMP JUMPDEST DUP1 ISZERO PUSH2 0x73C JUMPI DUP1 PUSH1 0x1F LT PUSH2 0x711 JUMPI PUSH2 0x100 DUP1 DUP4 SLOAD DIV MUL DUP4 MSTORE SWAP2 PUSH1 0x20 ADD SWAP2 PUSH2 0x73C JUMP JUMPDEST DUP3 ADD SWAP2 SWAP1 PUSH1 0x0 MSTORE PUSH1 0x20 PUSH1 0x0 KECCAK256 SWAP1 JUMPDEST DUP2 SLOAD DUP2 MSTORE SWAP1 PUSH1 0x1 ADD SWAP1 PUSH1 0x20 ADD DUP1 DUP4 GT PUSH2 0x71F JUMPI DUP3 SWAP1 SUB PUSH1 0x1F AND DUP3 ADD SWAP2 JUMPDEST POP POP POP POP POP SWAP1 DUP1 PUSH1 0x4 ADD DUP1 SLOAD PUSH2 0x751 SWAP1 PUSH2 0x3B59 JUMP JUMPDEST DUP1 PUSH1 0x1F ADD PUSH1 0x20 DUP1 SWAP2 DIV MUL PUSH1 0x20 ADD PUSH1 0x40 MLOAD SWAP1 DUP2 ADD PUSH1 0x40 MSTORE DUP1 SWAP3 SWAP2 SWAP1 DUP2 DUP2 MSTORE PUSH1 0x20 ADD DUP3 DUP1 SLOAD PUSH2 0x77D SWAP1 PUSH2 0x3B59 JUMP JUMPDEST DUP1 ISZERO PUSH2 0x7CA JUMPI DUP1 PUSH1 0x1F LT PUSH2 0x79F JUMPI PUSH2 0x100 DUP1 DUP4 SLOAD DIV MUL DUP4 MSTORE SWAP2 PUSH1 0x20 ADD SWAP2 PUSH2 0x7CA JUMP JUMPDEST DUP3 ADD SWAP2 SWAP1 PUSH1 0x0 MSTORE PUSH1 0x20 PUSH1 0x0 KECCAK256 SWAP1 JUMPDEST DUP2 SLOAD DUP2 MSTORE SWAP1 PUSH1 0x1 ADD SWAP1 PUSH1 0x20 ADD DUP1 DUP4 GT PUSH2 0x7AD JUMPI DUP3 SWAP1 SUB PUSH1 0x1F AND DUP3 ADD SWAP2 JUMPDEST POP POP POP POP POP SWAP1 DUP1 PUSH1 0x5 ADD DUP1 SLOAD PUSH2 0x7DF SWAP1 PUSH2 0x3B59 JUMP JUMPDEST DUP1 PUSH1 0x1F ADD PUSH1 0x20 DUP1 SWAP2 DIV MUL PUSH1 0x20 ADD PUSH1 0x40 MLOAD SWAP1 DUP2 ADD PUSH1 0x40 MSTORE DUP1 SWAP3 SWAP2 SWAP1 DUP2 DUP2 MSTORE PUSH1 0x20 ADD DUP3 DUP1 SLOAD PUSH2 0x80B SWAP1 PUSH2 0x3B59 JUMP JUMPDEST DUP1 ISZERO PUSH2 0x858 JUMPI DUP1 PUSH1 0x1F LT PUSH2 0x82D JUMPI PUSH2 0x100 DUP1 DUP4 SLOAD DIV MUL DUP4 MSTORE SWAP2 PUSH1 0x20 ADD SWAP2 PUSH2 0x858 JUMP JUMPDEST DUP3 ADD SWAP2 SWAP1 PUSH1 0x0 MSTORE PUSH1 0x20 PUSH1 0x0 KECCAK256 SWAP1 JUMPDEST DUP2 SLOAD DUP2 MSTORE SWAP1 PUSH1 0x1 ADD SWAP1 PUSH1 0x20 ADD DUP1 DUP4 GT PUSH2 0x83B JUMPI DUP3 SWAP1 SUB PUSH1 0x1F AND DUP3 ADD SWAP2 JUMPDEST POP POP POP POP POP SWAP1 DUP1 PUSH1 0x6 ADD DUP1 SLOAD PUSH2 0x86D SWAP1 PUSH2 0x3B59 JUMP JUMPDEST DUP1 PUSH1 0x1F ADD PUSH1 0x20 DUP1 SWAP2 DIV MUL PUSH1 0x20 ADD PUSH1 0x40 MLOAD SWAP1 DUP2 ADD PUSH1 0x40 MSTORE DUP1 SWAP3 SWAP2 SWAP1 DUP2 DUP2 MSTORE PUSH1 0x20 ADD DUP3 DUP1 SLOAD PUSH2 0x899 SWAP1 PUSH2 0x3B59 JUMP JUMPDEST DUP1 ISZERO PUSH2 0x8E6 JUMPI DUP1 PUSH1 0x1F LT PUSH2 0x8BB JUMPI PUSH2 0x100 DUP1 DUP4 SLOAD DIV MUL DUP4 MSTORE SWAP2 PUSH1 0x20 ADD SWAP2 PUSH2 0x8E6 JUMP JUMPDEST DUP3 ADD SWAP2 SWAP1 PUSH1 0x0 MSTORE PUSH1 0x20 PUSH1 0x0 KECCAK256 SWAP1 JUMPDEST DUP2 SLOAD DUP2 MSTORE SWAP1 PUSH1 0x1 ADD SWAP1 PUSH1 0x20 ADD DUP1 DUP4 GT PUSH2 0x8C9 JUMPI DUP3 SWAP1 SUB PUSH1 0x1F AND DUP3 ADD SWAP2 JUMPDEST POP POP POP POP POP SWAP1 DUP1 PUSH1 0x7 ADD DUP1 SLOAD PUSH2 0x8FB SWAP1 PUSH2 0x3B59 JUMP JUMPDEST DUP1 PUSH1 0x1F ADD PUSH1 0x20 DUP1 SWAP2 DIV MUL PUSH1 0x20 ADD PUSH1 0x40 MLOAD SWAP1 DUP2 ADD PUSH1 0x40 MSTORE DUP1 SWAP3 SWAP2 SWAP1 DUP2 DUP2 MSTORE PUSH1 0x20 ADD DUP3 DUP1 SLOAD PUSH2 0x927 SWAP1 PUSH2 0x3B59 JUMP JUMPDEST DUP1 ISZERO PUSH2 0x974 JUMPI DUP1 PUSH1 0x1F LT PUSH2 0x949 JUMPI PUSH2 0x100 DUP1 DUP4 SLOAD DIV MUL DUP4 MSTORE SWAP2 PUSH1 0x20 ADD SWAP2 PUSH2 0x974 JUMP JUMPDEST DUP3 ADD SWAP2 SWAP1 PUSH1 0x0 MSTORE PUSH1 0x20 PUSH1 0x0 KECCAK256 SWAP1 JUMPDEST DUP2 SLOAD DUP2 MSTORE SWAP1 PUSH1 0x1 ADD SWAP1 PUSH1 0x20 ADD DUP1 DUP4 GT PUSH2 0x957 JUMPI DUP3 SWAP1 SUB PUSH1 0x1F AND DUP3 ADD SWAP2 JUMPDEST POP POP POP POP POP SWAP1 DUP1 PUSH1 0x8 ADD DUP1 SLOAD PUSH2 0x989 SWAP1 PUSH2 0x3B59 JUMP JUMPDEST DUP1 PUSH1 0x1F ADD PUSH1 0x20 DUP1 SWAP2 DIV MUL PUSH1 0x20 ADD PUSH1 0x40 MLOAD SWAP1 DUP2 ADD PUSH1 0x40 MSTORE DUP1 SWAP3 SWAP2 SWAP1 DUP2 DUP2 MSTORE PUSH1 0x20 ADD DUP3 DUP1 SLOAD PUSH2 0x9B5 SWAP1 PUSH2 0x3B59 JUMP JUMPDEST DUP1 ISZERO PUSH2 0xA02 JUMPI DUP1 PUSH1 0x1F LT PUSH2 0x9D7 JUMPI PUSH2 0x100 DUP1 DUP4 SLOAD DIV MUL DUP4 MSTORE SWAP2 PUSH1 0x20 ADD SWAP2 PUSH2 0xA02 JUMP JUMPDEST DUP3 ADD SWAP2 SWAP1 PUSH1 0x0 MSTORE PUSH1 0x20 PUSH1 0x0 KECCAK256 SWAP1 JUMPDEST DUP2 SLOAD DUP2 MSTORE SWAP1 PUSH1 0x1 ADD SWAP1 PUSH1 0x20 ADD DUP1 DUP4 GT PUSH2 0x9E5 JUMPI DUP3 SWAP1 SUB PUSH1 0x1F AND DUP3 ADD SWAP2 JUMPDEST POP POP POP POP POP SWAP1 DUP1 PUSH1 0x9 ADD DUP1 SLOAD PUSH2 0xA17 SWAP1 PUSH2 0x3B59 JUMP JUMPDEST DUP1 PUSH1 0x1F ADD PUSH1 0x20 DUP1 SWAP2 DIV MUL PUSH1 0x20 ADD PUSH1 0x40 MLOAD SWAP1 DUP2 ADD PUSH1 0x40 MSTORE DUP1 SWAP3 SWAP2 SWAP1 DUP2 DUP2 MSTORE PUSH1 0x20 ADD DUP3 DUP1 SLOAD PUSH2 0xA43 SWAP1 PUSH2 0x3B59 JUMP JUMPDEST DUP1 ISZERO PUSH2 0xA90 JUMPI DUP1 PUSH1 0x1F LT PUSH2 0xA65 JUMPI PUSH2 0x100 DUP1 DUP4 SLOAD DIV MUL DUP4 MSTORE SWAP2 PUSH1 0x20 ADD SWAP2 PUSH2 0xA90 JUMP JUMPDEST DUP3 ADD SWAP2 SWAP1 PUSH1 0x0 MSTORE PUSH1 0x20 PUSH1 0x0 KECCAK256 SWAP1 JUMPDEST DUP2 SLOAD DUP2 MSTORE SWAP1 PUSH1 0x1 ADD SWAP1 PUSH1 0x20 ADD DUP1 DUP4 GT PUSH2 0xA73 JUMPI DUP3 SWAP1 SUB PUSH1 0x1F AND DUP3 ADD SWAP2 JUMPDEST POP POP POP POP POP SWAP1 DUP1 PUSH1 0xA ADD DUP1 SLOAD PUSH2 0xAA5 SWAP1 PUSH2 0x3B59 JUMP JUMPDEST DUP1 PUSH1 0x1F ADD PUSH1 0x20 DUP1 SWAP2 DIV MUL PUSH1 0x20 ADD PUSH1 0x40 MLOAD SWAP1 DUP2 ADD PUSH1 0x40 MSTORE DUP1 SWAP3 SWAP2 SWAP1 DUP2 DUP2 MSTORE PUSH1 0x20 ADD DUP3 DUP1 SLOAD PUSH2 0xAD1 SWAP1 PUSH2 0x3B59 JUMP JUMPDEST DUP1 ISZERO PUSH2 0xB1E JUMPI DUP1 PUSH1 0x1F LT PUSH2 0xAF3 JUMPI PUSH2 0x100 DUP1 DUP4 SLOAD DIV MUL DUP4 MSTORE SWAP2 PUSH1 0x20 ADD SWAP2 PUSH2 0xB1E JUMP JUMPDEST DUP3 ADD SWAP2 SWAP1 PUSH1 0x0 MSTORE PUSH1 0x20 PUSH1 0x0 KECCAK256 SWAP1 JUMPDEST DUP2 SLOAD DUP2 MSTORE SWAP1 PUSH1 0x1 ADD SWAP1 PUSH1 0x20 ADD DUP1 DUP4 GT PUSH2 0xB01 JUMPI DUP3 SWAP1 SUB PUSH1 0x1F AND DUP3 ADD SWAP2 JUMPDEST POP POP POP POP POP SWAP1 DUP1 PUSH1 0xB ADD DUP1 SLOAD PUSH2 0xB33 SWAP1 PUSH2 0x3B59 JUMP JUMPDEST DUP1 PUSH1 0x1F ADD PUSH1 0x20 DUP1 SWAP2 DIV MUL PUSH1 0x20 ADD PUSH1 0x40 MLOAD SWAP1 DUP2 ADD PUSH1 0x40 MSTORE DUP1 SWAP3 SWAP2 SWAP1 DUP2 DUP2 MSTORE PUSH1 0x20 ADD DUP3 DUP1 SLOAD PUSH2 0xB5F SWAP1 PUSH2 0x3B59 JUMP JUMPDEST DUP1 ISZERO PUSH2 0xBAC JUMPI DUP1 PUSH1 0x1F LT PUSH2 0xB81 JUMPI PUSH2 0x100 DUP1 DUP4 SLOAD DIV MUL DUP4 MSTORE SWAP2 PUSH1 0x20 ADD SWAP2 PUSH2 0xBAC JUMP JUMPDEST DUP3 ADD SWAP2 SWAP1 PUSH1 0x0 MSTORE PUSH1 0x20 PUSH1 0x0 KECCAK256 SWAP1 JUMPDEST DUP2 SLOAD DUP2 MSTORE SWAP1 PUSH1 0x1 ADD SWAP1 PUSH1 0x20 ADD DUP1 DUP4 GT PUSH2 0xB8F JUMPI DUP3 SWAP1 SUB PUSH1 0x1F AND DUP3 ADD SWAP2 JUMPDEST POP POP POP POP POP SWAP1 POP DUP13 JUMP JUMPDEST PUSH2 0xBBE PUSH2 0x249D JUMP JUMPDEST PUSH2 0xBC8 DUP3 DUP3 PUSH2 0x24F9 JUMP JUMPDEST POP POP JUMP JUMPDEST PUSH1 0x5 SLOAD PUSH1 0x1 PUSH1 0x1 PUSH1 0xA0 SHL SUB AND CALLER EQ PUSH2 0xC51 JUMPI PUSH1 0x40 MLOAD PUSH3 0x461BCD PUSH1 0xE5 SHL DUP2 MSTORE PUSH1 0x20 PUSH1 0x4 DUP3 ADD MSTORE PUSH1 0x29 PUSH1 0x24 DUP3 ADD MSTORE PUSH32 0x4F6E6C79205652467632436F6E73756D65722063616E2063616C6C2074686973 PUSH1 0x44 DUP3 ADD MSTORE PUSH32 0x2066756E6374696F6E0000000000000000000000000000000000000000000000 PUSH1 0x64 DUP3 ADD MSTORE PUSH1 0x84 ADD JUMPDEST PUSH1 0x40 MLOAD DUP1 SWAP2 SUB SWAP1 REVERT JUMPDEST DUP1 MLOAD PUSH1 0x3 EQ PUSH2 0xCC8 JUMPI PUSH1 0x40 MLOAD PUSH3 0x461BCD PUSH1 0xE5 SHL DUP2 MSTORE PUSH1 0x20 PUSH1 0x4 DUP3 ADD MSTORE PUSH1 0x23 PUSH1 0x24 DUP3 ADD MSTORE PUSH32 0x556E6578706563746564206E756D626572206F662072616E646F6D206E756D62 PUSH1 0x44 DUP3 ADD MSTORE PUSH32 0x6572730000000000000000000000000000000000000000000000000000000000 PUSH1 0x64 DUP3 ADD MSTORE PUSH1 0x84 ADD PUSH2 0xC48 JUMP JUMPDEST CALLER PUSH1 0x0 SWAP1 DUP2 MSTORE PUSH1 0xA PUSH1 0x20 MSTORE PUSH1 0x40 SWAP1 KECCAK256 DUP1 SLOAD PUSH2 0xD4B JUMPI PUSH1 0x40 MLOAD PUSH3 0x461BCD PUSH1 0xE5 SHL DUP2 MSTORE PUSH1 0x20 PUSH1 0x4 DUP3 ADD MSTORE PUSH1 0x2E PUSH1 0x24 DUP3 ADD MSTORE PUSH32 0x4E6F20696E737572616E6365206461746120666F756E6420666F722074686520 PUSH1 0x44 DUP3 ADD MSTORE PUSH32 0x726571756573742073656E646572000000000000000000000000000000000000 PUSH1 0x64 DUP3 ADD MSTORE PUSH1 0x84 ADD PUSH2 0xC48 JUMP JUMPDEST DUP1 SLOAD PUSH1 0x0 SWAP1 DUP3 SWAP1 PUSH2 0xD5E SWAP1 PUSH1 0x1 SWAP1 PUSH2 0x3B09 JUMP JUMPDEST DUP2 SLOAD DUP2 LT PUSH2 0xD6E JUMPI PUSH2 0xD6E PUSH2 0x3BFD JUMP JUMPDEST SWAP1 PUSH1 0x0 MSTORE PUSH1 0x20 PUSH1 0x0 KECCAK256 SWAP1 PUSH1 0xD MUL ADD SWAP1 POP PUSH1 0x0 JUMPDEST PUSH1 0x3 DUP2 LT ISZERO PUSH2 0xDD7 JUMPI DUP4 DUP2 DUP2 MLOAD DUP2 LT PUSH2 0xD9C JUMPI PUSH2 0xD9C PUSH2 0x3BFD JUMP JUMPDEST PUSH1 0x20 MUL PUSH1 0x20 ADD ADD MLOAD DUP3 PUSH1 0xC ADD DUP3 DUP2 SLOAD DUP2 LT PUSH2 0xDB9 JUMPI PUSH2 0xDB9 PUSH2 0x3BFD JUMP JUMPDEST PUSH1 0x0 SWAP2 DUP3 MSTORE PUSH1 0x20 SWAP1 SWAP2 KECCAK256 ADD SSTORE DUP1 PUSH2 0xDCF DUP2 PUSH2 0x3B94 JUMP JUMPDEST SWAP2 POP POP PUSH2 0xD81 JUMP JUMPDEST POP POP POP POP POP JUMP JUMPDEST PUSH1 0x3 SLOAD PUSH1 0x1 PUSH1 0x1 PUSH1 0xA0 SHL SUB AND CALLER EQ PUSH2 0xE38 JUMPI PUSH1 0x40 MLOAD PUSH3 0x461BCD PUSH1 0xE5 SHL DUP2 MSTORE PUSH1 0x20 PUSH1 0x4 DUP3 ADD MSTORE PUSH1 0x16 PUSH1 0x24 DUP3 ADD MSTORE PUSH32 0x4D7573742062652070726F706F736564206F776E657200000000000000000000 PUSH1 0x44 DUP3 ADD MSTORE PUSH1 0x64 ADD PUSH2 0xC48 JUMP JUMPDEST PUSH1 0x2 DUP1 SLOAD PUSH1 0x1 PUSH1 0x1 PUSH1 0xA0 SHL SUB NOT DUP1 DUP3 AND CALLER SWAP1 DUP2 OR SWAP1 SWAP4 SSTORE PUSH1 0x3 DUP1 SLOAD SWAP1 SWAP2 AND SWAP1 SSTORE PUSH1 0x40 MLOAD PUSH1 0x1 PUSH1 0x1 PUSH1 0xA0 SHL SUB SWAP1 SWAP2 AND SWAP2 SWAP1 DUP3 SWAP1 PUSH32 0x8BE0079C531659141344CD1FD0A4F28419497F9722A3DAAFE3B4186F6B6457E0 SWAP1 PUSH1 0x0 SWAP1 LOG3 POP JUMP JUMPDEST PUSH1 0x0 PUSH1 0x4 PUSH1 0x0 SWAP1 SLOAD SWAP1 PUSH2 0x100 EXP SWAP1 DIV PUSH1 0x1 PUSH1 0x1 PUSH1 0xA0 SHL SUB AND PUSH1 0x1 PUSH1 0x1 PUSH1 0xA0 SHL SUB AND PUSH4 0x8E15F473 PUSH1 0x40 MLOAD DUP2 PUSH4 0xFFFFFFFF AND PUSH1 0xE0 SHL DUP2 MSTORE PUSH1 0x4 ADD PUSH1 0x20 PUSH1 0x40 MLOAD DUP1 DUP4 SUB DUP2 DUP7 DUP1 EXTCODESIZE ISZERO DUP1 ISZERO PUSH2 0xEE3 JUMPI PUSH1 0x0 DUP1 REVERT JUMPDEST POP GAS STATICCALL ISZERO DUP1 ISZERO PUSH2 0xEF7 JUMPI RETURNDATASIZE PUSH1 0x0 DUP1 RETURNDATACOPY RETURNDATASIZE PUSH1 0x0 REVERT JUMPDEST POP POP POP POP PUSH1 0x40 MLOAD RETURNDATASIZE PUSH1 0x1F NOT PUSH1 0x1F DUP3 ADD AND DUP3 ADD DUP1 PUSH1 0x40 MSTORE POP DUP2 ADD SWAP1 PUSH2 0xF1B SWAP2 SWAP1 PUSH2 0x3358 JUMP JUMPDEST SWAP1 POP SWAP1 JUMP JUMPDEST PUSH1 0x0 PUSH1 0xC DUP5 EQ PUSH2 0xF72 JUMPI PUSH1 0x40 MLOAD PUSH3 0x461BCD PUSH1 0xE5 SHL DUP2 MSTORE PUSH1 0x20 PUSH1 0x4 DUP3 ADD MSTORE PUSH1 0x1B PUSH1 0x24 DUP3 ADD MSTORE PUSH32 0x496E76616C6964206E756D626572206F6620617267756D656E74730000000000 PUSH1 0x44 DUP3 ADD MSTORE PUSH1 0x64 ADD PUSH2 0xC48 JUMP JUMPDEST PUSH2 0xFB0 PUSH1 0x40 MLOAD DUP1 PUSH1 0x40 ADD PUSH1 0x40 MSTORE DUP1 PUSH1 0x15 DUP2 MSTORE PUSH1 0x20 ADD PUSH32 0x476F7420746865206C6174657374207072696365210000000000000000000000 DUP2 MSTORE POP PUSH2 0x2579 JUMP JUMPDEST CALLER PUSH1 0x0 SWAP1 DUP2 MSTORE PUSH1 0xA PUSH1 0x20 MSTORE PUSH1 0x40 DUP2 KECCAK256 DUP1 SLOAD SWAP1 SWAP2 SWAP1 PUSH2 0x1621 JUMPI DUP2 PUSH1 0x40 MLOAD DUP1 PUSH2 0x1A0 ADD PUSH1 0x40 MSTORE DUP1 DUP10 DUP10 PUSH1 0x0 DUP2 DUP2 LT PUSH2 0xFE8 JUMPI PUSH2 0xFE8 PUSH2 0x3BFD JUMP JUMPDEST SWAP1 POP PUSH1 0x20 MUL DUP2 ADD SWAP1 PUSH2 0xFFA SWAP2 SWAP1 PUSH2 0x38FA JUMP JUMPDEST DUP1 DUP1 PUSH1 0x1F ADD PUSH1 0x20 DUP1 SWAP2 DIV MUL PUSH1 0x20 ADD PUSH1 0x40 MLOAD SWAP1 DUP2 ADD PUSH1 0x40 MSTORE DUP1 SWAP4 SWAP3 SWAP2 SWAP1 DUP2 DUP2 MSTORE PUSH1 0x20 ADD DUP4 DUP4 DUP1 DUP3 DUP5 CALLDATACOPY PUSH1 0x0 SWAP3 ADD SWAP2 SWAP1 SWAP2 MSTORE POP POP POP SWAP1 DUP3 MSTORE POP PUSH1 0x20 ADD DUP10 DUP10 PUSH1 0x1 DUP2 DUP2 LT PUSH2 0x1047 JUMPI PUSH2 0x1047 PUSH2 0x3BFD JUMP JUMPDEST SWAP1 POP PUSH1 0x20 MUL DUP2 ADD SWAP1 PUSH2 0x1059 SWAP2 SWAP1 PUSH2 0x38FA JUMP JUMPDEST DUP1 DUP1 PUSH1 0x1F ADD PUSH1 0x20 DUP1 SWAP2 DIV MUL PUSH1 0x20 ADD PUSH1 0x40 MLOAD SWAP1 DUP2 ADD PUSH1 0x40 MSTORE DUP1 SWAP4 SWAP3 SWAP2 SWAP1 DUP2 DUP2 MSTORE PUSH1 0x20 ADD DUP4 DUP4 DUP1 DUP3 DUP5 CALLDATACOPY PUSH1 0x0 SWAP3 ADD SWAP2 SWAP1 SWAP2 MSTORE POP POP POP SWAP1 DUP3 MSTORE POP PUSH1 0x20 ADD DUP10 DUP10 PUSH1 0x2 DUP2 DUP2 LT PUSH2 0x10A6 JUMPI PUSH2 0x10A6 PUSH2 0x3BFD JUMP JUMPDEST SWAP1 POP PUSH1 0x20 MUL DUP2 ADD SWAP1 PUSH2 0x10B8 SWAP2 SWAP1 PUSH2 0x38FA JUMP JUMPDEST DUP1 DUP1 PUSH1 0x1F ADD PUSH1 0x20 DUP1 SWAP2 DIV MUL PUSH1 0x20 ADD PUSH1 0x40 MLOAD SWAP1 DUP2 ADD PUSH1 0x40 MSTORE DUP1 SWAP4 SWAP3 SWAP2 SWAP1 DUP2 DUP2 MSTORE PUSH1 0x20 ADD DUP4 DUP4 DUP1 DUP3 DUP5 CALLDATACOPY PUSH1 0x0 SWAP3 ADD SWAP2 SWAP1 SWAP2 MSTORE POP POP POP SWAP1 DUP3 MSTORE POP PUSH1 0x20 ADD DUP10 DUP10 PUSH1 0x3 DUP2 DUP2 LT PUSH2 0x1105 JUMPI PUSH2 0x1105 PUSH2 0x3BFD JUMP JUMPDEST SWAP1 POP PUSH1 0x20 MUL DUP2 ADD SWAP1 PUSH2 0x1117 SWAP2 SWAP1 PUSH2 0x38FA JUMP JUMPDEST DUP1 DUP1 PUSH1 0x1F ADD PUSH1 0x20 DUP1 SWAP2 DIV MUL PUSH1 0x20 ADD PUSH1 0x40 MLOAD SWAP1 DUP2 ADD PUSH1 0x40 MSTORE DUP1 SWAP4 SWAP3 SWAP2 SWAP1 DUP2 DUP2 MSTORE PUSH1 0x20 ADD DUP4 DUP4 DUP1 DUP3 DUP5 CALLDATACOPY PUSH1 0x0 SWAP3 ADD SWAP2 SWAP1 SWAP2 MSTORE POP POP POP SWAP1 DUP3 MSTORE POP PUSH1 0x20 ADD DUP10 DUP10 PUSH1 0x4 DUP2 DUP2 LT PUSH2 0x1164 JUMPI PUSH2 0x1164 PUSH2 0x3BFD JUMP JUMPDEST SWAP1 POP PUSH1 0x20 MUL DUP2 ADD SWAP1 PUSH2 0x1176 SWAP2 SWAP1 PUSH2 0x38FA JUMP JUMPDEST DUP1 DUP1 PUSH1 0x1F ADD PUSH1 0x20 DUP1 SWAP2 DIV MUL PUSH1 0x20 ADD PUSH1 0x40 MLOAD SWAP1 DUP2 ADD PUSH1 0x40 MSTORE DUP1 SWAP4 SWAP3 SWAP2 SWAP1 DUP2 DUP2 MSTORE PUSH1 0x20 ADD DUP4 DUP4 DUP1 DUP3 DUP5 CALLDATACOPY PUSH1 0x0 SWAP3 ADD SWAP2 SWAP1 SWAP2 MSTORE POP POP POP SWAP1 DUP3 MSTORE POP PUSH1 0x20 ADD DUP10 DUP10 PUSH1 0x5 DUP2 DUP2 LT PUSH2 0x11C3 JUMPI PUSH2 0x11C3 PUSH2 0x3BFD JUMP JUMPDEST SWAP1 POP PUSH1 0x20 MUL DUP2 ADD SWAP1 PUSH2 0x11D5 SWAP2 SWAP1 PUSH2 0x38FA JUMP JUMPDEST DUP1 DUP1 PUSH1 0x1F ADD PUSH1 0x20 DUP1 SWAP2 DIV MUL PUSH1 0x20 ADD PUSH1 0x40 MLOAD SWAP1 DUP2 ADD PUSH1 0x40 MSTORE DUP1 SWAP4 SWAP3 SWAP2 SWAP1 DUP2 DUP2 MSTORE PUSH1 0x20 ADD DUP4 DUP4 DUP1 DUP3 DUP5 CALLDATACOPY PUSH1 0x0 SWAP3 ADD SWAP2 SWAP1 SWAP2 MSTORE POP POP POP SWAP1 DUP3 MSTORE POP PUSH1 0x20 ADD DUP10 DUP10 PUSH1 0x6 DUP2 DUP2 LT PUSH2 0x1222 JUMPI PUSH2 0x1222 PUSH2 0x3BFD JUMP JUMPDEST SWAP1 POP PUSH1 0x20 MUL DUP2 ADD SWAP1 PUSH2 0x1234 SWAP2 SWAP1 PUSH2 0x38FA JUMP JUMPDEST DUP1 DUP1 PUSH1 0x1F ADD PUSH1 0x20 DUP1 SWAP2 DIV MUL PUSH1 0x20 ADD PUSH1 0x40 MLOAD SWAP1 DUP2 ADD PUSH1 0x40 MSTORE DUP1 SWAP4 SWAP3 SWAP2 SWAP1 DUP2 DUP2 MSTORE PUSH1 0x20 ADD DUP4 DUP4 DUP1 DUP3 DUP5 CALLDATACOPY PUSH1 0x0 SWAP3 ADD SWAP2 SWAP1 SWAP2 MSTORE POP POP POP SWAP1 DUP3 MSTORE POP PUSH1 0x20 ADD DUP10 DUP10 PUSH1 0x7 DUP2 DUP2 LT PUSH2 0x1281 JUMPI PUSH2 0x1281 PUSH2 0x3BFD JUMP JUMPDEST SWAP1 POP PUSH1 0x20 MUL DUP2 ADD SWAP1 PUSH2 0x1293 SWAP2 SWAP1 PUSH2 0x38FA JUMP JUMPDEST DUP1 DUP1 PUSH1 0x1F ADD PUSH1 0x20 DUP1 SWAP2 DIV MUL PUSH1 0x20 ADD PUSH1 0x40 MLOAD SWAP1 DUP2 ADD PUSH1 0x40 MSTORE DUP1 SWAP4 SWAP3 SWAP2 SWAP1 DUP2 DUP2 MSTORE PUSH1 0x20 ADD DUP4 DUP4 DUP1 DUP3 DUP5 CALLDATACOPY PUSH1 0x0 SWAP3 ADD SWAP2 SWAP1 SWAP2 MSTORE POP POP POP SWAP1 DUP3 MSTORE POP PUSH1 0x20 ADD DUP10 DUP10 PUSH1 0x8 DUP2 DUP2 LT PUSH2 0x12E0 JUMPI PUSH2 0x12E0 PUSH2 0x3BFD JUMP JUMPDEST SWAP1 POP PUSH1 0x20 MUL DUP2 ADD SWAP1 PUSH2 0x12F2 SWAP2 SWAP1 PUSH2 0x38FA JUMP JUMPDEST DUP1 DUP1 PUSH1 0x1F ADD PUSH1 0x20 DUP1 SWAP2 DIV MUL PUSH1 0x20 ADD PUSH1 0x40 MLOAD SWAP1 DUP2 ADD PUSH1 0x40 MSTORE DUP1 SWAP4 SWAP3 SWAP2 SWAP1 DUP2 DUP2 MSTORE PUSH1 0x20 ADD DUP4 DUP4 DUP1 DUP3 DUP5 CALLDATACOPY PUSH1 0x0 SWAP3 ADD SWAP2 SWAP1 SWAP2 MSTORE POP POP POP SWAP1 DUP3 MSTORE POP PUSH1 0x20 ADD DUP10 DUP10 PUSH1 0x9 DUP2 DUP2 LT PUSH2 0x133F JUMPI PUSH2 0x133F PUSH2 0x3BFD JUMP JUMPDEST SWAP1 POP PUSH1 0x20 MUL DUP2 ADD SWAP1 PUSH2 0x1351 SWAP2 SWAP1 PUSH2 0x38FA JUMP JUMPDEST DUP1 DUP1 PUSH1 0x1F ADD PUSH1 0x20 DUP1 SWAP2 DIV MUL PUSH1 0x20 ADD PUSH1 0x40 MLOAD SWAP1 DUP2 ADD PUSH1 0x40 MSTORE DUP1 SWAP4 SWAP3 SWAP2 SWAP1 DUP2 DUP2 MSTORE PUSH1 0x20 ADD DUP4 DUP4 DUP1 DUP3 DUP5 CALLDATACOPY PUSH1 0x0 SWAP3 ADD SWAP2 SWAP1 SWAP2 MSTORE POP POP POP SWAP1 DUP3 MSTORE POP PUSH1 0x20 ADD DUP10 DUP10 PUSH1 0xA DUP2 DUP2 LT PUSH2 0x139E JUMPI PUSH2 0x139E PUSH2 0x3BFD JUMP JUMPDEST SWAP1 POP PUSH1 0x20 MUL DUP2 ADD SWAP1 PUSH2 0x13B0 SWAP2 SWAP1 PUSH2 0x38FA JUMP JUMPDEST DUP1 DUP1 PUSH1 0x1F ADD PUSH1 0x20 DUP1 SWAP2 DIV MUL PUSH1 0x20 ADD PUSH1 0x40 MLOAD SWAP1 DUP2 ADD PUSH1 0x40 MSTORE DUP1 SWAP4 SWAP3 SWAP2 SWAP1 DUP2 DUP2 MSTORE PUSH1 0x20 ADD DUP4 DUP4 DUP1 DUP3 DUP5 CALLDATACOPY PUSH1 0x0 SWAP3 ADD SWAP2 SWAP1 SWAP2 MSTORE POP POP POP SWAP1 DUP3 MSTORE POP PUSH1 0x20 ADD DUP10 DUP10 PUSH1 0xB DUP2 DUP2 LT PUSH2 0x13FD JUMPI PUSH2 0x13FD PUSH2 0x3BFD JUMP JUMPDEST SWAP1 POP PUSH1 0x20 MUL DUP2 ADD SWAP1 PUSH2 0x140F SWAP2 SWAP1 PUSH2 0x38FA JUMP JUMPDEST DUP1 DUP1 PUSH1 0x1F ADD PUSH1 0x20 DUP1 SWAP2 DIV MUL PUSH1 0x20 ADD PUSH1 0x40 MLOAD SWAP1 DUP2 ADD PUSH1 0x40 MSTORE DUP1 SWAP4 SWAP3 SWAP2 SWAP1 DUP2 DUP2 MSTORE PUSH1 0x20 ADD DUP4 DUP4 DUP1 DUP3 DUP5 CALLDATACOPY PUSH1 0x0 SWAP3 ADD SWAP2 SWAP1 SWAP2 MSTORE POP POP POP SWAP1 DUP3 MSTORE POP PUSH1 0x40 DUP1 MLOAD PUSH1 0x3 DUP1 DUP3 MSTORE PUSH1 0x80 DUP3 ADD SWAP1 SWAP3 MSTORE PUSH1 0x20 SWAP3 DUP4 ADD SWAP3 SWAP1 SWAP2 SWAP1 DUP3 ADD PUSH1 0x60 DUP1 CALLDATASIZE DUP4 CALLDATACOPY POP POP POP SWAP1 MSTORE DUP2 SLOAD PUSH1 0x1 DUP2 ADD DUP4 SSTORE PUSH1 0x0 SWAP3 DUP4 MSTORE PUSH1 0x20 SWAP3 DUP4 SWAP1 KECCAK256 DUP3 MLOAD DUP1 MLOAD SWAP4 SWAP5 PUSH1 0xD SWAP1 SWAP4 MUL SWAP1 SWAP2 ADD SWAP3 PUSH2 0x149B SWAP3 DUP5 SWAP3 ADD SWAP1 PUSH2 0x3061 JUMP JUMPDEST POP PUSH1 0x20 DUP3 DUP2 ADD MLOAD DUP1 MLOAD PUSH2 0x14B4 SWAP3 PUSH1 0x1 DUP6 ADD SWAP3 ADD SWAP1 PUSH2 0x3061 JUMP JUMPDEST POP PUSH1 0x40 DUP3 ADD MLOAD DUP1 MLOAD PUSH2 0x14D0 SWAP2 PUSH1 0x2 DUP5 ADD SWAP2 PUSH1 0x20 SWAP1 SWAP2 ADD SWAP1 PUSH2 0x3061 JUMP JUMPDEST POP PUSH1 0x60 DUP3 ADD MLOAD DUP1 MLOAD PUSH2 0x14EC SWAP2 PUSH1 0x3 DUP5 ADD SWAP2 PUSH1 0x20 SWAP1 SWAP2 ADD SWAP1 PUSH2 0x3061 JUMP JUMPDEST POP PUSH1 0x80 DUP3 ADD MLOAD DUP1 MLOAD PUSH2 0x1508 SWAP2 PUSH1 0x4 DUP5 ADD SWAP2 PUSH1 0x20 SWAP1 SWAP2 ADD SWAP1 PUSH2 0x3061 JUMP JUMPDEST POP PUSH1 0xA0 DUP3 ADD MLOAD DUP1 MLOAD PUSH2 0x1524 SWAP2 PUSH1 0x5 DUP5 ADD SWAP2 PUSH1 0x20 SWAP1 SWAP2 ADD SWAP1 PUSH2 0x3061 JUMP JUMPDEST POP PUSH1 0xC0 DUP3 ADD MLOAD DUP1 MLOAD PUSH2 0x1540 SWAP2 PUSH1 0x6 DUP5 ADD SWAP2 PUSH1 0x20 SWAP1 SWAP2 ADD SWAP1 PUSH2 0x3061 JUMP JUMPDEST POP PUSH1 0xE0 DUP3 ADD MLOAD DUP1 MLOAD PUSH2 0x155C SWAP2 PUSH1 0x7 DUP5 ADD SWAP2 PUSH1 0x20 SWAP1 SWAP2 ADD SWAP1 PUSH2 0x3061 JUMP JUMPDEST POP PUSH2 0x100 DUP3 ADD MLOAD DUP1 MLOAD PUSH2 0x1579 SWAP2 PUSH1 0x8 DUP5 ADD SWAP2 PUSH1 0x20 SWAP1 SWAP2 ADD SWAP1 PUSH2 0x3061 JUMP JUMPDEST POP PUSH2 0x120 DUP3 ADD MLOAD DUP1 MLOAD PUSH2 0x1596 SWAP2 PUSH1 0x9 DUP5 ADD SWAP2 PUSH1 0x20 SWAP1 SWAP2 ADD SWAP1 PUSH2 0x3061 JUMP JUMPDEST POP PUSH2 0x140 DUP3 ADD MLOAD DUP1 MLOAD PUSH2 0x15B3 SWAP2 PUSH1 0xA DUP5 ADD SWAP2 PUSH1 0x20 SWAP1 SWAP2 ADD SWAP1 PUSH2 0x3061 JUMP JUMPDEST POP PUSH2 0x160 DUP3 ADD MLOAD DUP1 MLOAD PUSH2 0x15D0 SWAP2 PUSH1 0xB DUP5 ADD SWAP2 PUSH1 0x20 SWAP1 SWAP2 ADD SWAP1 PUSH2 0x3061 JUMP JUMPDEST POP PUSH2 0x180 DUP3 ADD MLOAD DUP1 MLOAD PUSH2 0x15ED SWAP2 PUSH1 0xC DUP5 ADD SWAP2 PUSH1 0x20 SWAP1 SWAP2 ADD SWAP1 PUSH2 0x30E5 JUMP JUMPDEST POP POP DUP3 SLOAD DUP4 SWAP2 POP PUSH2 0x1600 SWAP1 PUSH1 0x1 SWAP1 PUSH2 0x3B09 JUMP JUMPDEST DUP2 SLOAD DUP2 LT PUSH2 0x1610 JUMPI PUSH2 0x1610 PUSH2 0x3BFD JUMP JUMPDEST SWAP1 PUSH1 0x0 MSTORE PUSH1 0x20 PUSH1 0x0 KECCAK256 SWAP1 PUSH1 0xD MUL ADD SWAP1 POP JUMPDEST PUSH2 0x165F PUSH1 0x40 MLOAD DUP1 PUSH1 0x40 ADD PUSH1 0x40 MSTORE DUP1 PUSH1 0xA DUP2 MSTORE PUSH1 0x20 ADD PUSH32 0x6174207265717565737400000000000000000000000000000000000000000000 DUP2 MSTORE POP PUSH2 0x2579 JUMP JUMPDEST PUSH2 0x1699 PUSH1 0x40 DUP1 MLOAD PUSH1 0xC0 DUP2 ADD SWAP1 SWAP2 MSTORE DUP1 PUSH1 0x0 DUP2 MSTORE PUSH1 0x20 ADD PUSH1 0x0 DUP2 MSTORE PUSH1 0x20 ADD PUSH1 0x0 DUP2 MSTORE PUSH1 0x20 ADD PUSH1 0x60 DUP2 MSTORE PUSH1 0x20 ADD PUSH1 0x60 DUP2 MSTORE PUSH1 0x20 ADD PUSH1 0x60 DUP2 MSTORE POP SWAP1 JUMP JUMPDEST PUSH2 0x16E0 PUSH1 0x0 DUP1 DUP15 DUP15 DUP1 DUP1 PUSH1 0x1F ADD PUSH1 0x20 DUP1 SWAP2 DIV MUL PUSH1 0x20 ADD PUSH1 0x40 MLOAD SWAP1 DUP2 ADD PUSH1 0x40 MSTORE DUP1 SWAP4 SWAP3 SWAP2 SWAP1 DUP2 DUP2 MSTORE PUSH1 0x20 ADD DUP4 DUP4 DUP1 DUP3 DUP5 CALLDATACOPY PUSH1 0x0 SWAP3 ADD SWAP2 SWAP1 SWAP2 MSTORE POP DUP8 SWAP6 SWAP5 SWAP4 SWAP3 POP POP PUSH2 0x25EA SWAP1 POP JUMP JUMPDEST DUP9 ISZERO PUSH2 0x1728 JUMPI PUSH2 0x1728 DUP11 DUP11 DUP1 DUP1 PUSH1 0x1F ADD PUSH1 0x20 DUP1 SWAP2 DIV MUL PUSH1 0x20 ADD PUSH1 0x40 MLOAD SWAP1 DUP2 ADD PUSH1 0x40 MSTORE DUP1 SWAP4 SWAP3 SWAP2 SWAP1 DUP2 DUP2 MSTORE PUSH1 0x20 ADD DUP4 DUP4 DUP1 DUP3 DUP5 CALLDATACOPY PUSH1 0x0 SWAP3 ADD SWAP2 SWAP1 SWAP2 MSTORE POP DUP6 SWAP4 SWAP3 POP POP PUSH2 0x267E SWAP1 POP JUMP JUMPDEST DUP7 ISZERO PUSH2 0x1742 JUMPI PUSH2 0x1742 PUSH2 0x173B DUP9 DUP11 PUSH2 0x3B20 JUMP JUMPDEST DUP3 SWAP1 PUSH2 0x26C5 JUMP JUMPDEST PUSH1 0x0 PUSH2 0x174F DUP3 DUP9 DUP9 PUSH2 0x2705 JUMP JUMPDEST PUSH1 0x6 DUP2 SWAP1 SSTORE SWAP14 SWAP13 POP POP POP POP POP POP POP POP POP POP POP POP POP JUMP JUMPDEST PUSH1 0x7 DUP1 SLOAD PUSH2 0x1772 SWAP1 PUSH2 0x3B59 JUMP JUMPDEST DUP1 PUSH1 0x1F ADD PUSH1 0x20 DUP1 SWAP2 DIV MUL PUSH1 0x20 ADD PUSH1 0x40 MLOAD SWAP1 DUP2 ADD PUSH1 0x40 MSTORE DUP1 SWAP3 SWAP2 SWAP1 DUP2 DUP2 MSTORE PUSH1 0x20 ADD DUP3 DUP1 SLOAD PUSH2 0x179E SWAP1 PUSH2 0x3B59 JUMP JUMPDEST DUP1 ISZERO PUSH2 0x17EB JUMPI DUP1 PUSH1 0x1F LT PUSH2 0x17C0 JUMPI PUSH2 0x100 DUP1 DUP4 SLOAD DIV MUL DUP4 MSTORE SWAP2 PUSH1 0x20 ADD SWAP2 PUSH2 0x17EB JUMP JUMPDEST DUP3 ADD SWAP2 SWAP1 PUSH1 0x0 MSTORE PUSH1 0x20 PUSH1 0x0 KECCAK256 SWAP1 JUMPDEST DUP2 SLOAD DUP2 MSTORE SWAP1 PUSH1 0x1 ADD SWAP1 PUSH1 0x20 ADD DUP1 DUP4 GT PUSH2 0x17CE JUMPI DUP3 SWAP1 SUB PUSH1 0x1F AND DUP3 ADD SWAP2 JUMPDEST POP POP POP POP POP DUP2 JUMP JUMPDEST PUSH1 0x60 PUSH2 0x1833 PUSH1 0x40 MLOAD DUP1 PUSH1 0x40 ADD PUSH1 0x40 MSTORE DUP1 PUSH1 0x4 DUP2 MSTORE PUSH1 0x20 ADD PUSH32 0x5465737400000000000000000000000000000000000000000000000000000000 DUP2 MSTORE POP PUSH2 0x2579 JUMP JUMPDEST POP PUSH1 0x40 DUP1 MLOAD DUP1 DUP3 ADD SWAP1 SWAP2 MSTORE PUSH1 0xC DUP2 MSTORE PUSH32 0x48656C6C6F20576F726C64210000000000000000000000000000000000000000 PUSH1 0x20 DUP3 ADD MSTORE SWAP1 JUMP JUMPDEST CALLER PUSH1 0x0 DUP2 DUP2 MSTORE PUSH1 0xA PUSH1 0x20 MSTORE PUSH1 0x40 SWAP1 KECCAK256 DUP1 SLOAD PUSH1 0x60 SWAP3 SWAP2 SWAP1 PUSH2 0x18F2 JUMPI PUSH1 0x40 MLOAD PUSH3 0x461BCD PUSH1 0xE5 SHL DUP2 MSTORE PUSH1 0x20 PUSH1 0x4 DUP3 ADD MSTORE PUSH1 0x24 DUP1 DUP3 ADD MSTORE PUSH32 0x4E6F20696E737572616E6365206461746120666F756E6420666F722074686520 PUSH1 0x44 DUP3 ADD MSTORE PUSH32 0x7573657200000000000000000000000000000000000000000000000000000000 PUSH1 0x64 DUP3 ADD MSTORE PUSH1 0x84 ADD PUSH2 0xC48 JUMP JUMPDEST DUP1 SLOAD PUSH1 0x0 SWAP1 DUP3 SWAP1 PUSH2 0x1905 SWAP1 PUSH1 0x1 SWAP1 PUSH2 0x3B09 JUMP JUMPDEST DUP2 SLOAD DUP2 LT PUSH2 0x1915 JUMPI PUSH2 0x1915 PUSH2 0x3BFD JUMP JUMPDEST PUSH1 0x0 SWAP2 DUP3 MSTORE PUSH1 0x20 DUP3 KECCAK256 PUSH1 0xD SWAP1 SWAP2 MUL ADD SWAP2 POP PUSH1 0xC DUP3 ADD SWAP1 JUMPDEST DUP2 SLOAD DUP2 LT ISZERO PUSH2 0x19B3 JUMPI DUP2 DUP2 DUP2 SLOAD DUP2 LT PUSH2 0x1947 JUMPI PUSH2 0x1947 PUSH2 0x3BFD JUMP JUMPDEST SWAP1 PUSH1 0x0 MSTORE PUSH1 0x20 PUSH1 0x0 KECCAK256 ADD SLOAD PUSH1 0x0 EQ PUSH2 0x19A1 JUMPI PUSH1 0x40 MLOAD PUSH3 0x461BCD PUSH1 0xE5 SHL DUP2 MSTORE PUSH1 0x20 PUSH1 0x4 DUP3 ADD MSTORE PUSH1 0x1C PUSH1 0x24 DUP3 ADD MSTORE PUSH32 0x4E6F6E2D7A65726F2072616E646F6D20706F696E747320666F756E6400000000 PUSH1 0x44 DUP3 ADD MSTORE PUSH1 0x64 ADD PUSH2 0xC48 JUMP JUMPDEST DUP1 PUSH2 0x19AB DUP2 PUSH2 0x3B94 JUMP JUMPDEST SWAP2 POP POP PUSH2 0x192C JUMP JUMPDEST POP PUSH1 0x5 PUSH1 0x0 SWAP1 SLOAD SWAP1 PUSH2 0x100 EXP SWAP1 DIV PUSH1 0x1 PUSH1 0x1 PUSH1 0xA0 SHL SUB AND PUSH1 0x1 PUSH1 0x1 PUSH1 0xA0 SHL SUB AND PUSH4 0xE0C86289 PUSH1 0x40 MLOAD DUP2 PUSH4 0xFFFFFFFF AND PUSH1 0xE0 SHL DUP2 MSTORE PUSH1 0x4 ADD PUSH1 0x20 PUSH1 0x40 MLOAD DUP1 DUP4 SUB DUP2 PUSH1 0x0 DUP8 DUP1 EXTCODESIZE ISZERO DUP1 ISZERO PUSH2 0x1A04 JUMPI PUSH1 0x0 DUP1 REVERT JUMPDEST POP GAS CALL ISZERO DUP1 ISZERO PUSH2 0x1A18 JUMPI RETURNDATASIZE PUSH1 0x0 DUP1 RETURNDATACOPY RETURNDATASIZE PUSH1 0x0 REVERT JUMPDEST POP POP POP POP PUSH1 0x40 MLOAD RETURNDATASIZE PUSH1 0x1F NOT PUSH1 0x1F DUP3 ADD AND DUP3 ADD DUP1 PUSH1 0x40 MSTORE POP DUP2 ADD SWAP1 PUSH2 0x1A3C SWAP2 SWAP1 PUSH2 0x3358 JUMP JUMPDEST POP POP POP POP POP SWAP1 JUMP JUMPDEST PUSH1 0x0 DUP1 SLOAD PUSH1 0x40 DUP1 MLOAD PUSH32 0xD328A91E00000000000000000000000000000000000000000000000000000000 DUP2 MSTORE SWAP1 MLOAD PUSH1 0x60 SWAP4 PUSH1 0x1 PUSH1 0x1 PUSH1 0xA0 SHL SUB SWAP1 SWAP4 AND SWAP3 PUSH4 0xD328A91E SWAP3 PUSH1 0x4 DUP1 DUP3 ADD SWAP4 SWAP2 DUP3 SWAP1 SUB ADD DUP2 DUP7 DUP1 EXTCODESIZE ISZERO DUP1 ISZERO PUSH2 0x1AA1 JUMPI PUSH1 0x0 DUP1 REVERT JUMPDEST POP GAS STATICCALL ISZERO DUP1 ISZERO PUSH2 0x1AB5 JUMPI RETURNDATASIZE PUSH1 0x0 DUP1 RETURNDATACOPY RETURNDATASIZE PUSH1 0x0 REVERT JUMPDEST POP POP POP POP PUSH1 0x40 MLOAD RETURNDATASIZE PUSH1 0x0 DUP3 RETURNDATACOPY PUSH1 0x1F RETURNDATASIZE SWAP1 DUP2 ADD PUSH1 0x1F NOT AND DUP3 ADD PUSH1 0x40 MSTORE PUSH2 0xF1B SWAP2 SWAP1 DUP2 ADD SWAP1 PUSH2 0x33DE JUMP JUMPDEST PUSH1 0x0 DUP1 SLOAD PUSH1 0x1 PUSH1 0x1 PUSH1 0xA0 SHL SUB AND PUSH4 0xD227D245 DUP6 PUSH2 0x1AF9 DUP9 PUSH2 0x2877 JUMP JUMPDEST DUP7 DUP7 PUSH1 0x40 MLOAD DUP6 PUSH4 0xFFFFFFFF AND PUSH1 0xE0 SHL DUP2 MSTORE PUSH1 0x4 ADD PUSH2 0x1B1A SWAP5 SWAP4 SWAP3 SWAP2 SWAP1 PUSH2 0x38BE JUMP JUMPDEST PUSH1 0x20 PUSH1 0x40 MLOAD DUP1 DUP4 SUB DUP2 DUP7 DUP1 EXTCODESIZE ISZERO DUP1 ISZERO PUSH2 0x1B32 JUMPI PUSH1 0x0 DUP1 REVERT JUMPDEST POP GAS STATICCALL ISZERO DUP1 ISZERO PUSH2 0x1B46 JUMPI RETURNDATASIZE PUSH1 0x0 DUP1 RETURNDATACOPY RETURNDATASIZE PUSH1 0x0 REVERT JUMPDEST POP POP POP POP PUSH1 0x40 MLOAD RETURNDATASIZE PUSH1 0x1F NOT PUSH1 0x1F DUP3 ADD AND DUP3 ADD DUP1 PUSH1 0x40 MSTORE POP DUP2 ADD SWAP1 PUSH2 0x1B6A SWAP2 SWAP1 PUSH2 0x36ED JUMP JUMPDEST SWAP6 SWAP5 POP POP POP POP POP JUMP JUMPDEST CALLER PUSH1 0x0 SWAP1 DUP2 MSTORE PUSH1 0xA PUSH1 0x20 MSTORE PUSH1 0x40 DUP2 KECCAK256 DUP1 SLOAD PUSH2 0x1BD0 JUMPI PUSH1 0x40 MLOAD PUSH3 0x461BCD PUSH1 0xE5 SHL DUP2 MSTORE PUSH1 0x20 PUSH1 0x4 DUP3 ADD MSTORE PUSH1 0x17 PUSH1 0x24 DUP3 ADD MSTORE PUSH32 0x4E6F20696E737572616E6365206461746120666F756E64000000000000000000 PUSH1 0x44 DUP3 ADD MSTORE PUSH1 0x64 ADD PUSH2 0xC48 JUMP JUMPDEST PUSH1 0x0 JUMPDEST DUP2 SLOAD DUP2 LT ISZERO PUSH2 0x23E6 JUMPI PUSH1 0x0 DUP3 DUP3 DUP2 SLOAD DUP2 LT PUSH2 0x1BF0 JUMPI PUSH2 0x1BF0 PUSH2 0x3BFD JUMP JUMPDEST SWAP1 PUSH1 0x0 MSTORE PUSH1 0x20 PUSH1 0x0 KECCAK256 SWAP1 PUSH1 0xD MUL ADD PUSH1 0x40 MLOAD DUP1 PUSH2 0x1A0 ADD PUSH1 0x40 MSTORE SWAP1 DUP2 PUSH1 0x0 DUP3 ADD DUP1 SLOAD PUSH2 0x1C1A SWAP1 PUSH2 0x3B59 JUMP JUMPDEST DUP1 PUSH1 0x1F ADD PUSH1 0x20 DUP1 SWAP2 DIV MUL PUSH1 0x20 ADD PUSH1 0x40 MLOAD SWAP1 DUP2 ADD PUSH1 0x40 MSTORE DUP1 SWAP3 SWAP2 SWAP1 DUP2 DUP2 MSTORE PUSH1 0x20 ADD DUP3 DUP1 SLOAD PUSH2 0x1C46 SWAP1 PUSH2 0x3B59 JUMP JUMPDEST DUP1 ISZERO PUSH2 0x1C93 JUMPI DUP1 PUSH1 0x1F LT PUSH2 0x1C68 JUMPI PUSH2 0x100 DUP1 DUP4 SLOAD DIV MUL DUP4 MSTORE SWAP2 PUSH1 0x20 ADD SWAP2 PUSH2 0x1C93 JUMP JUMPDEST DUP3 ADD SWAP2 SWAP1 PUSH1 0x0 MSTORE PUSH1 0x20 PUSH1 0x0 KECCAK256 SWAP1 JUMPDEST DUP2 SLOAD DUP2 MSTORE SWAP1 PUSH1 0x1 ADD SWAP1 PUSH1 0x20 ADD DUP1 DUP4 GT PUSH2 0x1C76 JUMPI DUP3 SWAP1 SUB PUSH1 0x1F AND DUP3 ADD SWAP2 JUMPDEST POP POP POP POP POP DUP2 MSTORE PUSH1 0x20 ADD PUSH1 0x1 DUP3 ADD DUP1 SLOAD PUSH2 0x1CAC SWAP1 PUSH2 0x3B59 JUMP JUMPDEST DUP1 PUSH1 0x1F ADD PUSH1 0x20 DUP1 SWAP2 DIV MUL PUSH1 0x20 ADD PUSH1 0x40 MLOAD SWAP1 DUP2 ADD PUSH1 0x40 MSTORE DUP1 SWAP3 SWAP2 SWAP1 DUP2 DUP2 MSTORE PUSH1 0x20 ADD DUP3 DUP1 SLOAD PUSH2 0x1CD8 SWAP1 PUSH2 0x3B59 JUMP JUMPDEST DUP1 ISZERO PUSH2 0x1D25 JUMPI DUP1 PUSH1 0x1F LT PUSH2 0x1CFA JUMPI PUSH2 0x100 DUP1 DUP4 SLOAD DIV MUL DUP4 MSTORE SWAP2 PUSH1 0x20 ADD SWAP2 PUSH2 0x1D25 JUMP JUMPDEST DUP3 ADD SWAP2 SWAP1 PUSH1 0x0 MSTORE PUSH1 0x20 PUSH1 0x0 KECCAK256 SWAP1 JUMPDEST DUP2 SLOAD DUP2 MSTORE SWAP1 PUSH1 0x1 ADD SWAP1 PUSH1 0x20 ADD DUP1 DUP4 GT PUSH2 0x1D08 JUMPI DUP3 SWAP1 SUB PUSH1 0x1F AND DUP3 ADD SWAP2 JUMPDEST POP POP POP POP POP DUP2 MSTORE PUSH1 0x20 ADD PUSH1 0x2 DUP3 ADD DUP1 SLOAD PUSH2 0x1D3E SWAP1 PUSH2 0x3B59 JUMP JUMPDEST DUP1 PUSH1 0x1F ADD PUSH1 0x20 DUP1 SWAP2 DIV MUL PUSH1 0x20 ADD PUSH1 0x40 MLOAD SWAP1 DUP2 ADD PUSH1 0x40 MSTORE DUP1 SWAP3 SWAP2 SWAP1 DUP2 DUP2 MSTORE PUSH1 0x20 ADD DUP3 DUP1 SLOAD PUSH2 0x1D6A SWAP1 PUSH2 0x3B59 JUMP JUMPDEST DUP1 ISZERO PUSH2 0x1DB7 JUMPI DUP1 PUSH1 0x1F LT PUSH2 0x1D8C JUMPI PUSH2 0x100 DUP1 DUP4 SLOAD DIV MUL DUP4 MSTORE SWAP2 PUSH1 0x20 ADD SWAP2 PUSH2 0x1DB7 JUMP JUMPDEST DUP3 ADD SWAP2 SWAP1 PUSH1 0x0 MSTORE PUSH1 0x20 PUSH1 0x0 KECCAK256 SWAP1 JUMPDEST DUP2 SLOAD DUP2 MSTORE SWAP1 PUSH1 0x1 ADD SWAP1 PUSH1 0x20 ADD DUP1 DUP4 GT PUSH2 0x1D9A JUMPI DUP3 SWAP1 SUB PUSH1 0x1F AND DUP3 ADD SWAP2 JUMPDEST POP POP POP POP POP DUP2 MSTORE PUSH1 0x20 ADD PUSH1 0x3 DUP3 ADD DUP1 SLOAD PUSH2 0x1DD0 SWAP1 PUSH2 0x3B59 JUMP JUMPDEST DUP1 PUSH1 0x1F ADD PUSH1 0x20 DUP1 SWAP2 DIV MUL PUSH1 0x20 ADD PUSH1 0x40 MLOAD SWAP1 DUP2 ADD PUSH1 0x40 MSTORE DUP1 SWAP3 SWAP2 SWAP1 DUP2 DUP2 MSTORE PUSH1 0x20 ADD DUP3 DUP1 SLOAD PUSH2 0x1DFC SWAP1 PUSH2 0x3B59 JUMP JUMPDEST DUP1 ISZERO PUSH2 0x1E49 JUMPI DUP1 PUSH1 0x1F LT PUSH2 0x1E1E JUMPI PUSH2 0x100 DUP1 DUP4 SLOAD DIV MUL DUP4 MSTORE SWAP2 PUSH1 0x20 ADD SWAP2 PUSH2 0x1E49 JUMP JUMPDEST DUP3 ADD SWAP2 SWAP1 PUSH1 0x0 MSTORE PUSH1 0x20 PUSH1 0x0 KECCAK256 SWAP1 JUMPDEST DUP2 SLOAD DUP2 MSTORE SWAP1 PUSH1 0x1 ADD SWAP1 PUSH1 0x20 ADD DUP1 DUP4 GT PUSH2 0x1E2C JUMPI DUP3 SWAP1 SUB PUSH1 0x1F AND DUP3 ADD SWAP2 JUMPDEST POP POP POP POP POP DUP2 MSTORE PUSH1 0x20 ADD PUSH1 0x4 DUP3 ADD DUP1 SLOAD PUSH2 0x1E62 SWAP1 PUSH2 0x3B59 JUMP JUMPDEST DUP1 PUSH1 0x1F ADD PUSH1 0x20 DUP1 SWAP2 DIV MUL PUSH1 0x20 ADD PUSH1 0x40 MLOAD SWAP1 DUP2 ADD PUSH1 0x40 MSTORE DUP1 SWAP3 SWAP2 SWAP1 DUP2 DUP2 MSTORE PUSH1 0x20 ADD DUP3 DUP1 SLOAD PUSH2 0x1E8E SWAP1 PUSH2 0x3B59 JUMP JUMPDEST DUP1 ISZERO PUSH2 0x1EDB JUMPI DUP1 PUSH1 0x1F LT PUSH2 0x1EB0 JUMPI PUSH2 0x100 DUP1 DUP4 SLOAD DIV MUL DUP4 MSTORE SWAP2 PUSH1 0x20 ADD SWAP2 PUSH2 0x1EDB JUMP JUMPDEST DUP3 ADD SWAP2 SWAP1 PUSH1 0x0 MSTORE PUSH1 0x20 PUSH1 0x0 KECCAK256 SWAP1 JUMPDEST DUP2 SLOAD DUP2 MSTORE SWAP1 PUSH1 0x1 ADD SWAP1 PUSH1 0x20 ADD DUP1 DUP4 GT PUSH2 0x1EBE JUMPI DUP3 SWAP1 SUB PUSH1 0x1F AND DUP3 ADD SWAP2 JUMPDEST POP POP POP POP POP DUP2 MSTORE PUSH1 0x20 ADD PUSH1 0x5 DUP3 ADD DUP1 SLOAD PUSH2 0x1EF4 SWAP1 PUSH2 0x3B59 JUMP JUMPDEST DUP1 PUSH1 0x1F ADD PUSH1 0x20 DUP1 SWAP2 DIV MUL PUSH1 0x20 ADD PUSH1 0x40 MLOAD SWAP1 DUP2 ADD PUSH1 0x40 MSTORE DUP1 SWAP3 SWAP2 SWAP1 DUP2 DUP2 MSTORE PUSH1 0x20 ADD DUP3 DUP1 SLOAD PUSH2 0x1F20 SWAP1 PUSH2 0x3B59 JUMP JUMPDEST DUP1 ISZERO PUSH2 0x1F6D JUMPI DUP1 PUSH1 0x1F LT PUSH2 0x1F42 JUMPI PUSH2 0x100 DUP1 DUP4 SLOAD DIV MUL DUP4 MSTORE SWAP2 PUSH1 0x20 ADD SWAP2 PUSH2 0x1F6D JUMP JUMPDEST DUP3 ADD SWAP2 SWAP1 PUSH1 0x0 MSTORE PUSH1 0x20 PUSH1 0x0 KECCAK256 SWAP1 JUMPDEST DUP2 SLOAD DUP2 MSTORE SWAP1 PUSH1 0x1 ADD SWAP1 PUSH1 0x20 ADD DUP1 DUP4 GT PUSH2 0x1F50 JUMPI DUP3 SWAP1 SUB PUSH1 0x1F AND DUP3 ADD SWAP2 JUMPDEST POP POP POP POP POP DUP2 MSTORE PUSH1 0x20 ADD PUSH1 0x6 DUP3 ADD DUP1 SLOAD PUSH2 0x1F86 SWAP1 PUSH2 0x3B59 JUMP JUMPDEST DUP1 PUSH1 0x1F ADD PUSH1 0x20 DUP1 SWAP2 DIV MUL PUSH1 0x20 ADD PUSH1 0x40 MLOAD SWAP1 DUP2 ADD PUSH1 0x40 MSTORE DUP1 SWAP3 SWAP2 SWAP1 DUP2 DUP2 MSTORE PUSH1 0x20 ADD DUP3 DUP1 SLOAD PUSH2 0x1FB2 SWAP1 PUSH2 0x3B59 JUMP JUMPDEST DUP1 ISZERO PUSH2 0x1FFF JUMPI DUP1 PUSH1 0x1F LT PUSH2 0x1FD4 JUMPI PUSH2 0x100 DUP1 DUP4 SLOAD DIV MUL DUP4 MSTORE SWAP2 PUSH1 0x20 ADD SWAP2 PUSH2 0x1FFF JUMP JUMPDEST DUP3 ADD SWAP2 SWAP1 PUSH1 0x0 MSTORE PUSH1 0x20 PUSH1 0x0 KECCAK256 SWAP1 JUMPDEST DUP2 SLOAD DUP2 MSTORE SWAP1 PUSH1 0x1 ADD SWAP1 PUSH1 0x20 ADD DUP1 DUP4 GT PUSH2 0x1FE2 JUMPI DUP3 SWAP1 SUB PUSH1 0x1F AND DUP3 ADD SWAP2 JUMPDEST POP POP POP POP POP DUP2 MSTORE PUSH1 0x20 ADD PUSH1 0x7 DUP3 ADD DUP1 SLOAD PUSH2 0x2018 SWAP1 PUSH2 0x3B59 JUMP JUMPDEST DUP1 PUSH1 0x1F ADD PUSH1 0x20 DUP1 SWAP2 DIV MUL PUSH1 0x20 ADD PUSH1 0x40 MLOAD SWAP1 DUP2 ADD PUSH1 0x40 MSTORE DUP1 SWAP3 SWAP2 SWAP1 DUP2 DUP2 MSTORE PUSH1 0x20 ADD DUP3 DUP1 SLOAD PUSH2 0x2044 SWAP1 PUSH2 0x3B59 JUMP JUMPDEST DUP1 ISZERO PUSH2 0x2091 JUMPI DUP1 PUSH1 0x1F LT PUSH2 0x2066 JUMPI PUSH2 0x100 DUP1 DUP4 SLOAD DIV MUL DUP4 MSTORE SWAP2 PUSH1 0x20 ADD SWAP2 PUSH2 0x2091 JUMP JUMPDEST DUP3 ADD SWAP2 SWAP1 PUSH1 0x0 MSTORE PUSH1 0x20 PUSH1 0x0 KECCAK256 SWAP1 JUMPDEST DUP2 SLOAD DUP2 MSTORE SWAP1 PUSH1 0x1 ADD SWAP1 PUSH1 0x20 ADD DUP1 DUP4 GT PUSH2 0x2074 JUMPI DUP3 SWAP1 SUB PUSH1 0x1F AND DUP3 ADD SWAP2 JUMPDEST POP POP POP POP POP DUP2 MSTORE PUSH1 0x20 ADD PUSH1 0x8 DUP3 ADD DUP1 SLOAD PUSH2 0x20AA SWAP1 PUSH2 0x3B59 JUMP JUMPDEST DUP1 PUSH1 0x1F ADD PUSH1 0x20 DUP1 SWAP2 DIV MUL PUSH1 0x20 ADD PUSH1 0x40 MLOAD SWAP1 DUP2 ADD PUSH1 0x40 MSTORE DUP1 SWAP3 SWAP2 SWAP1 DUP2 DUP2 MSTORE PUSH1 0x20 ADD DUP3 DUP1 SLOAD PUSH2 0x20D6 SWAP1 PUSH2 0x3B59 JUMP JUMPDEST DUP1 ISZERO PUSH2 0x2123 JUMPI DUP1 PUSH1 0x1F LT PUSH2 0x20F8 JUMPI PUSH2 0x100 DUP1 DUP4 SLOAD DIV MUL DUP4 MSTORE SWAP2 PUSH1 0x20 ADD SWAP2 PUSH2 0x2123 JUMP JUMPDEST DUP3 ADD SWAP2 SWAP1 PUSH1 0x0 MSTORE PUSH1 0x20 PUSH1 0x0 KECCAK256 SWAP1 JUMPDEST DUP2 SLOAD DUP2 MSTORE SWAP1 PUSH1 0x1 ADD SWAP1 PUSH1 0x20 ADD DUP1 DUP4 GT PUSH2 0x2106 JUMPI DUP3 SWAP1 SUB PUSH1 0x1F AND DUP3 ADD SWAP2 JUMPDEST POP POP POP POP POP DUP2 MSTORE PUSH1 0x20 ADD PUSH1 0x9 DUP3 ADD DUP1 SLOAD PUSH2 0x213C SWAP1 PUSH2 0x3B59 JUMP JUMPDEST DUP1 PUSH1 0x1F ADD PUSH1 0x20 DUP1 SWAP2 DIV MUL PUSH1 0x20 ADD PUSH1 0x40 MLOAD SWAP1 DUP2 ADD PUSH1 0x40 MSTORE DUP1 SWAP3 SWAP2 SWAP1 DUP2 DUP2 MSTORE PUSH1 0x20 ADD DUP3 DUP1 SLOAD PUSH2 0x2168 SWAP1 PUSH2 0x3B59 JUMP JUMPDEST DUP1 ISZERO PUSH2 0x21B5 JUMPI DUP1 PUSH1 0x1F LT PUSH2 0x218A JUMPI PUSH2 0x100 DUP1 DUP4 SLOAD DIV MUL DUP4 MSTORE SWAP2 PUSH1 0x20 ADD SWAP2 PUSH2 0x21B5 JUMP JUMPDEST DUP3 ADD SWAP2 SWAP1 PUSH1 0x0 MSTORE PUSH1 0x20 PUSH1 0x0 KECCAK256 SWAP1 JUMPDEST DUP2 SLOAD DUP2 MSTORE SWAP1 PUSH1 0x1 ADD SWAP1 PUSH1 0x20 ADD DUP1 DUP4 GT PUSH2 0x2198 JUMPI DUP3 SWAP1 SUB PUSH1 0x1F AND DUP3 ADD SWAP2 JUMPDEST POP POP POP POP POP DUP2 MSTORE PUSH1 0x20 ADD PUSH1 0xA DUP3 ADD DUP1 SLOAD PUSH2 0x21CE SWAP1 PUSH2 0x3B59 JUMP JUMPDEST DUP1 PUSH1 0x1F ADD PUSH1 0x20 DUP1 SWAP2 DIV MUL PUSH1 0x20 ADD PUSH1 0x40 MLOAD SWAP1 DUP2 ADD PUSH1 0x40 MSTORE DUP1 SWAP3 SWAP2 SWAP1 DUP2 DUP2 MSTORE PUSH1 0x20 ADD DUP3 DUP1 SLOAD PUSH2 0x21FA SWAP1 PUSH2 0x3B59 JUMP JUMPDEST DUP1 ISZERO PUSH2 0x2247 JUMPI DUP1 PUSH1 0x1F LT PUSH2 0x221C JUMPI PUSH2 0x100 DUP1 DUP4 SLOAD DIV MUL DUP4 MSTORE SWAP2 PUSH1 0x20 ADD SWAP2 PUSH2 0x2247 JUMP JUMPDEST DUP3 ADD SWAP2 SWAP1 PUSH1 0x0 MSTORE PUSH1 0x20 PUSH1 0x0 KECCAK256 SWAP1 JUMPDEST DUP2 SLOAD DUP2 MSTORE SWAP1 PUSH1 0x1 ADD SWAP1 PUSH1 0x20 ADD DUP1 DUP4 GT PUSH2 0x222A JUMPI DUP3 SWAP1 SUB PUSH1 0x1F AND DUP3 ADD SWAP2 JUMPDEST POP POP POP POP POP DUP2 MSTORE PUSH1 0x20 ADD PUSH1 0xB DUP3 ADD DUP1 SLOAD PUSH2 0x2260 SWAP1 PUSH2 0x3B59 JUMP JUMPDEST DUP1 PUSH1 0x1F ADD PUSH1 0x20 DUP1 SWAP2 DIV MUL PUSH1 0x20 ADD PUSH1 0x40 MLOAD SWAP1 DUP2 ADD PUSH1 0x40 MSTORE DUP1 SWAP3 SWAP2 SWAP1 DUP2 DUP2 MSTORE PUSH1 0x20 ADD DUP3 DUP1 SLOAD PUSH2 0x228C SWAP1 PUSH2 0x3B59 JUMP JUMPDEST DUP1 ISZERO PUSH2 0x22D9 JUMPI DUP1 PUSH1 0x1F LT PUSH2 0x22AE JUMPI PUSH2 0x100 DUP1 DUP4 SLOAD DIV MUL DUP4 MSTORE SWAP2 PUSH1 0x20 ADD SWAP2 PUSH2 0x22D9 JUMP JUMPDEST DUP3 ADD SWAP2 SWAP1 PUSH1 0x0 MSTORE PUSH1 0x20 PUSH1 0x0 KECCAK256 SWAP1 JUMPDEST DUP2 SLOAD DUP2 MSTORE SWAP1 PUSH1 0x1 ADD SWAP1 PUSH1 0x20 ADD DUP1 DUP4 GT PUSH2 0x22BC JUMPI DUP3 SWAP1 SUB PUSH1 0x1F AND DUP3 ADD SWAP2 JUMPDEST POP POP POP POP POP DUP2 MSTORE PUSH1 0x20 ADD PUSH1 0xC DUP3 ADD DUP1 SLOAD DUP1 PUSH1 0x20 MUL PUSH1 0x20 ADD PUSH1 0x40 MLOAD SWAP1 DUP2 ADD PUSH1 0x40 MSTORE DUP1 SWAP3 SWAP2 SWAP1 DUP2 DUP2 MSTORE PUSH1 0x20 ADD DUP3 DUP1 SLOAD DUP1 ISZERO PUSH2 0x2331 JUMPI PUSH1 0x20 MUL DUP3 ADD SWAP2 SWAP1 PUSH1 0x0 MSTORE PUSH1 0x20 PUSH1 0x0 KECCAK256 SWAP1 JUMPDEST DUP2 SLOAD DUP2 MSTORE PUSH1 0x20 ADD SWAP1 PUSH1 0x1 ADD SWAP1 DUP1 DUP4 GT PUSH2 0x231D JUMPI JUMPDEST POP POP POP POP POP DUP2 MSTORE POP POP SWAP1 POP DUP1 PUSH1 0xC0 ADD MLOAD MLOAD PUSH1 0x0 EQ ISZERO DUP1 ISZERO PUSH2 0x2356 JUMPI POP PUSH1 0xE0 DUP2 ADD MLOAD MLOAD ISZERO ISZERO JUMPDEST DUP1 ISZERO PUSH2 0x2363 JUMPI POP DUP1 MLOAD MLOAD ISZERO ISZERO JUMPDEST DUP1 ISZERO PUSH2 0x2373 JUMPI POP PUSH1 0x20 DUP2 ADD MLOAD MLOAD ISZERO ISZERO JUMPDEST DUP1 ISZERO PUSH2 0x2383 JUMPI POP PUSH1 0x40 DUP2 ADD MLOAD MLOAD ISZERO ISZERO JUMPDEST DUP1 ISZERO PUSH2 0x2393 JUMPI POP PUSH1 0x60 DUP2 ADD MLOAD MLOAD ISZERO ISZERO JUMPDEST DUP1 ISZERO PUSH2 0x23A3 JUMPI POP PUSH1 0x80 DUP2 ADD MLOAD MLOAD ISZERO ISZERO JUMPDEST DUP1 ISZERO PUSH2 0x23B3 JUMPI POP PUSH1 0xA0 DUP2 ADD MLOAD MLOAD ISZERO ISZERO JUMPDEST DUP1 ISZERO PUSH2 0x23C4 JUMPI POP PUSH2 0x100 DUP2 ADD MLOAD MLOAD ISZERO ISZERO JUMPDEST ISZERO PUSH2 0x23D3 JUMPI PUSH1 0x1 SWAP4 POP POP POP POP SWAP1 JUMP JUMPDEST POP DUP1 PUSH2 0x23DE DUP2 PUSH2 0x3B94 JUMP JUMPDEST SWAP2 POP POP PUSH2 0x1BD3 JUMP JUMPDEST POP PUSH1 0x0 SWAP2 POP POP SWAP1 JUMP JUMPDEST PUSH2 0x23F7 PUSH2 0x249D JUMP JUMPDEST PUSH2 0x2400 DUP2 PUSH2 0x2B43 JUMP JUMPDEST POP JUMP JUMPDEST PUSH2 0x240B PUSH2 0x249D JUMP JUMPDEST PUSH1 0x0 DUP1 SLOAD PUSH1 0x1 PUSH1 0x1 PUSH1 0xA0 SHL SUB NOT AND PUSH1 0x1 PUSH1 0x1 PUSH1 0xA0 SHL SUB DUP4 AND OR SWAP1 SSTORE POP JUMP JUMPDEST PUSH1 0x8 DUP1 SLOAD PUSH2 0x1772 SWAP1 PUSH2 0x3B59 JUMP JUMPDEST DUP2 MLOAD PUSH2 0x2449 SWAP1 PUSH1 0x7 SWAP1 PUSH1 0x20 DUP6 ADD SWAP1 PUSH2 0x3061 JUMP JUMPDEST POP DUP1 MLOAD PUSH2 0x245D SWAP1 PUSH1 0x8 SWAP1 PUSH1 0x20 DUP5 ADD SWAP1 PUSH2 0x3061 JUMP JUMPDEST POP DUP3 PUSH32 0x7BAB0EC163B5C132C72B8146AC4D6E067E82ED58F8B131150AA71C9258911562 DUP4 DUP4 PUSH1 0x40 MLOAD PUSH2 0x2490 SWAP3 SWAP2 SWAP1 PUSH2 0x375A JUMP JUMPDEST PUSH1 0x40 MLOAD DUP1 SWAP2 SUB SWAP1 LOG2 POP POP POP JUMP JUMPDEST PUSH1 0x2 SLOAD PUSH1 0x1 PUSH1 0x1 PUSH1 0xA0 SHL SUB AND CALLER EQ PUSH2 0x24F7 JUMPI PUSH1 0x40 MLOAD PUSH3 0x461BCD PUSH1 0xE5 SHL DUP2 MSTORE PUSH1 0x20 PUSH1 0x4 DUP3 ADD MSTORE PUSH1 0x16 PUSH1 0x24 DUP3 ADD MSTORE PUSH32 0x4F6E6C792063616C6C61626C65206279206F776E657200000000000000000000 PUSH1 0x44 DUP3 ADD MSTORE PUSH1 0x64 ADD PUSH2 0xC48 JUMP JUMPDEST JUMP JUMPDEST PUSH1 0x0 DUP2 DUP2 MSTORE PUSH1 0x1 PUSH1 0x20 MSTORE PUSH1 0x40 SWAP1 KECCAK256 SLOAD DUP2 SWAP1 PUSH1 0x1 PUSH1 0x1 PUSH1 0xA0 SHL SUB AND ISZERO PUSH2 0x254A JUMPI PUSH1 0x40 MLOAD PUSH32 0x8B457AD200000000000000000000000000000000000000000000000000000000 DUP2 MSTORE PUSH1 0x4 ADD PUSH1 0x40 MLOAD DUP1 SWAP2 SUB SWAP1 REVERT JUMPDEST POP PUSH1 0x0 SWAP1 DUP2 MSTORE PUSH1 0x1 PUSH1 0x20 MSTORE PUSH1 0x40 SWAP1 KECCAK256 DUP1 SLOAD PUSH1 0x1 PUSH1 0x1 PUSH1 0xA0 SHL SUB NOT AND PUSH1 0x1 PUSH1 0x1 PUSH1 0xA0 SHL SUB SWAP3 SWAP1 SWAP3 AND SWAP2 SWAP1 SWAP2 OR SWAP1 SSTORE JUMP JUMPDEST PUSH2 0x2400 DUP2 PUSH1 0x40 MLOAD PUSH1 0x24 ADD PUSH2 0x258D SWAP2 SWAP1 PUSH2 0x3747 JUMP JUMPDEST PUSH1 0x40 DUP1 MLOAD PUSH1 0x1F NOT DUP2 DUP5 SUB ADD DUP2 MSTORE SWAP2 SWAP1 MSTORE PUSH1 0x20 DUP2 ADD DUP1 MLOAD PUSH28 0xFFFFFFFFFFFFFFFFFFFFFFFFFFFFFFFFFFFFFFFFFFFFFFFFFFFFFFFF AND PUSH32 0x41304FAC00000000000000000000000000000000000000000000000000000000 OR SWAP1 MSTORE PUSH2 0x2BEE JUMP JUMPDEST DUP1 MLOAD PUSH2 0x2622 JUMPI PUSH1 0x40 MLOAD PUSH32 0x22CE3EDD00000000000000000000000000000000000000000000000000000000 DUP2 MSTORE PUSH1 0x4 ADD PUSH1 0x40 MLOAD DUP1 SWAP2 SUB SWAP1 REVERT JUMPDEST DUP4 DUP4 PUSH1 0x1 DUP2 GT ISZERO PUSH2 0x2635 JUMPI PUSH2 0x2635 PUSH2 0x3BE7 JUMP JUMPDEST SWAP1 DUP2 PUSH1 0x1 DUP2 GT ISZERO PUSH2 0x2648 JUMPI PUSH2 0x2648 PUSH2 0x3BE7 JUMP JUMPDEST SWAP1 MSTORE POP PUSH1 0x40 DUP5 ADD DUP3 DUP1 ISZERO PUSH2 0x265E JUMPI PUSH2 0x265E PUSH2 0x3BE7 JUMP JUMPDEST SWAP1 DUP2 DUP1 ISZERO PUSH2 0x266E JUMPI PUSH2 0x266E PUSH2 0x3BE7 JUMP JUMPDEST SWAP1 MSTORE POP PUSH1 0x60 SWAP1 SWAP4 ADD SWAP3 SWAP1 SWAP3 MSTORE POP POP JUMP JUMPDEST DUP1 MLOAD PUSH2 0x26B6 JUMPI PUSH1 0x40 MLOAD PUSH32 0xE889636F00000000000000000000000000000000000000000000000000000000 DUP2 MSTORE PUSH1 0x4 ADD PUSH1 0x40 MLOAD DUP1 SWAP2 SUB SWAP1 REVERT JUMPDEST PUSH1 0x1 PUSH1 0x20 DUP4 ADD MSTORE PUSH1 0x80 SWAP1 SWAP2 ADD MSTORE JUMP JUMPDEST DUP1 MLOAD PUSH2 0x26FD JUMPI PUSH1 0x40 MLOAD PUSH32 0xFE936CB700000000000000000000000000000000000000000000000000000000 DUP2 MSTORE PUSH1 0x4 ADD PUSH1 0x40 MLOAD DUP1 SWAP2 SUB SWAP1 REVERT JUMPDEST PUSH1 0xA0 SWAP1 SWAP2 ADD MSTORE JUMP JUMPDEST PUSH1 0x0 DUP1 SLOAD DUP2 SWAP1 PUSH1 0x1 PUSH1 0x1 PUSH1 0xA0 SHL SUB AND PUSH4 0x28242B04 DUP6 PUSH2 0x2723 DUP9 PUSH2 0x2877 JUMP JUMPDEST DUP7 PUSH1 0x40 MLOAD DUP5 PUSH4 0xFFFFFFFF AND PUSH1 0xE0 SHL DUP2 MSTORE PUSH1 0x4 ADD PUSH2 0x2742 SWAP4 SWAP3 SWAP2 SWAP1 PUSH2 0x3885 JUMP JUMPDEST PUSH1 0x20 PUSH1 0x40 MLOAD DUP1 DUP4 SUB DUP2 PUSH1 0x0 DUP8 DUP1 EXTCODESIZE ISZERO DUP1 ISZERO PUSH2 0x275C JUMPI PUSH1 0x0 DUP1 REVERT JUMPDEST POP GAS CALL ISZERO DUP1 ISZERO PUSH2 0x2770 JUMPI RETURNDATASIZE PUSH1 0x0 DUP1 RETURNDATACOPY RETURNDATASIZE PUSH1 0x0 REVERT JUMPDEST POP POP POP POP PUSH1 0x40 MLOAD RETURNDATASIZE PUSH1 0x1F NOT PUSH1 0x1F DUP3 ADD AND DUP3 ADD DUP1 PUSH1 0x40 MSTORE POP DUP2 ADD SWAP1 PUSH2 0x2794 SWAP2 SWAP1 PUSH2 0x3358 JUMP JUMPDEST SWAP1 POP PUSH1 0x0 DUP1 SLOAD SWAP1 PUSH2 0x100 EXP SWAP1 DIV PUSH1 0x1 PUSH1 0x1 PUSH1 0xA0 SHL SUB AND PUSH1 0x1 PUSH1 0x1 PUSH1 0xA0 SHL SUB AND PUSH4 0x5AB1BD53 PUSH1 0x40 MLOAD DUP2 PUSH4 0xFFFFFFFF AND PUSH1 0xE0 SHL DUP2 MSTORE PUSH1 0x4 ADD PUSH1 0x20 PUSH1 0x40 MLOAD DUP1 DUP4 SUB DUP2 DUP7 DUP1 EXTCODESIZE ISZERO DUP1 ISZERO PUSH2 0x27E2 JUMPI PUSH1 0x0 DUP1 REVERT JUMPDEST POP GAS STATICCALL ISZERO DUP1 ISZERO PUSH2 0x27F6 JUMPI RETURNDATASIZE PUSH1 0x0 DUP1 RETURNDATACOPY RETURNDATASIZE PUSH1 0x0 REVERT JUMPDEST POP POP POP POP PUSH1 0x40 MLOAD RETURNDATASIZE PUSH1 0x1F NOT PUSH1 0x1F DUP3 ADD AND DUP3 ADD DUP1 PUSH1 0x40 MSTORE POP DUP2 ADD SWAP1 PUSH2 0x281A SWAP2 SWAP1 PUSH2 0x330F JUMP JUMPDEST PUSH1 0x0 DUP3 DUP2 MSTORE PUSH1 0x1 PUSH1 0x20 MSTORE PUSH1 0x40 DUP1 DUP3 KECCAK256 DUP1 SLOAD PUSH1 0x1 PUSH1 0x1 PUSH1 0xA0 SHL SUB NOT AND PUSH1 0x1 PUSH1 0x1 PUSH1 0xA0 SHL SUB SWAP5 SWAP1 SWAP5 AND SWAP4 SWAP1 SWAP4 OR SWAP1 SWAP3 SSTORE SWAP1 MLOAD DUP3 SWAP2 PUSH32 0x1131472297A800FEE664D1D89CFA8F7676FF07189ECC53F80BBB5F4969099DB8 SWAP2 LOG2 SWAP5 SWAP4 POP POP POP POP JUMP JUMPDEST PUSH1 0x60 PUSH2 0x2881 PUSH2 0x311F JUMP JUMPDEST DUP1 MLOAD PUSH2 0x288F SWAP1 PUSH2 0x100 PUSH2 0x2C0F JUMP JUMPDEST POP PUSH2 0x28CF DUP2 PUSH1 0x40 MLOAD DUP1 PUSH1 0x40 ADD PUSH1 0x40 MSTORE DUP1 PUSH1 0xC DUP2 MSTORE PUSH1 0x20 ADD PUSH32 0x636F64654C6F636174696F6E0000000000000000000000000000000000000000 DUP2 MSTORE POP PUSH2 0x2C89 JUMP JUMPDEST PUSH2 0x28EE DUP2 DUP5 PUSH1 0x0 ADD MLOAD PUSH1 0x1 DUP2 GT ISZERO PUSH2 0x28E9 JUMPI PUSH2 0x28E9 PUSH2 0x3BE7 JUMP JUMPDEST PUSH2 0x2CA7 JUMP JUMPDEST PUSH2 0x292D DUP2 PUSH1 0x40 MLOAD DUP1 PUSH1 0x40 ADD PUSH1 0x40 MSTORE DUP1 PUSH1 0x8 DUP2 MSTORE PUSH1 0x20 ADD PUSH32 0x6C616E6775616765000000000000000000000000000000000000000000000000 DUP2 MSTORE POP PUSH2 0x2C89 JUMP JUMPDEST PUSH2 0x2947 DUP2 DUP5 PUSH1 0x40 ADD MLOAD PUSH1 0x0 DUP2 GT ISZERO PUSH2 0x28E9 JUMPI PUSH2 0x28E9 PUSH2 0x3BE7 JUMP JUMPDEST PUSH2 0x2986 DUP2 PUSH1 0x40 MLOAD DUP1 PUSH1 0x40 ADD PUSH1 0x40 MSTORE DUP1 PUSH1 0x6 DUP2 MSTORE PUSH1 0x20 ADD PUSH32 0x736F757263650000000000000000000000000000000000000000000000000000 DUP2 MSTORE POP PUSH2 0x2C89 JUMP JUMPDEST PUSH2 0x2994 DUP2 DUP5 PUSH1 0x60 ADD MLOAD PUSH2 0x2C89 JUMP JUMPDEST PUSH1 0xA0 DUP4 ADD MLOAD MLOAD ISZERO PUSH2 0x2A3A JUMPI PUSH2 0x29DE DUP2 PUSH1 0x40 MLOAD DUP1 PUSH1 0x40 ADD PUSH1 0x40 MSTORE DUP1 PUSH1 0x4 DUP2 MSTORE PUSH1 0x20 ADD PUSH32 0x6172677300000000000000000000000000000000000000000000000000000000 DUP2 MSTORE POP PUSH2 0x2C89 JUMP JUMPDEST PUSH2 0x29E7 DUP2 PUSH2 0x2CE0 JUMP JUMPDEST PUSH1 0x0 JUMPDEST DUP4 PUSH1 0xA0 ADD MLOAD MLOAD DUP2 LT ISZERO PUSH2 0x2A30 JUMPI PUSH2 0x2A1E DUP3 DUP6 PUSH1 0xA0 ADD MLOAD DUP4 DUP2 MLOAD DUP2 LT PUSH2 0x2A11 JUMPI PUSH2 0x2A11 PUSH2 0x3BFD JUMP JUMPDEST PUSH1 0x20 MUL PUSH1 0x20 ADD ADD MLOAD PUSH2 0x2C89 JUMP JUMPDEST DUP1 PUSH2 0x2A28 DUP2 PUSH2 0x3B94 JUMP JUMPDEST SWAP2 POP POP PUSH2 0x29EA JUMP JUMPDEST POP PUSH2 0x2A3A DUP2 PUSH2 0x2D04 JUMP JUMPDEST PUSH1 0x80 DUP4 ADD MLOAD MLOAD ISZERO PUSH2 0x2B3B JUMPI PUSH1 0x0 DUP4 PUSH1 0x20 ADD MLOAD PUSH1 0x1 DUP2 GT ISZERO PUSH2 0x2A5D JUMPI PUSH2 0x2A5D PUSH2 0x3BE7 JUMP JUMPDEST EQ ISZERO PUSH2 0x2A95 JUMPI PUSH1 0x40 MLOAD PUSH32 0xA80D31F700000000000000000000000000000000000000000000000000000000 DUP2 MSTORE PUSH1 0x4 ADD PUSH1 0x40 MLOAD DUP1 SWAP2 SUB SWAP1 REVERT JUMPDEST PUSH2 0x2AD4 DUP2 PUSH1 0x40 MLOAD DUP1 PUSH1 0x40 ADD PUSH1 0x40 MSTORE DUP1 PUSH1 0xF DUP2 MSTORE PUSH1 0x20 ADD PUSH32 0x736563726574734C6F636174696F6E0000000000000000000000000000000000 DUP2 MSTORE POP PUSH2 0x2C89 JUMP JUMPDEST PUSH2 0x2AEE DUP2 DUP5 PUSH1 0x20 ADD MLOAD PUSH1 0x1 DUP2 GT ISZERO PUSH2 0x28E9 JUMPI PUSH2 0x28E9 PUSH2 0x3BE7 JUMP JUMPDEST PUSH2 0x2B2D DUP2 PUSH1 0x40 MLOAD DUP1 PUSH1 0x40 ADD PUSH1 0x40 MSTORE DUP1 PUSH1 0x7 DUP2 MSTORE PUSH1 0x20 ADD PUSH32 0x7365637265747300000000000000000000000000000000000000000000000000 DUP2 MSTORE POP PUSH2 0x2C89 JUMP JUMPDEST PUSH2 0x2B3B DUP2 DUP5 PUSH1 0x80 ADD MLOAD PUSH2 0x2D22 JUMP JUMPDEST MLOAD MLOAD SWAP3 SWAP2 POP POP JUMP JUMPDEST PUSH1 0x1 PUSH1 0x1 PUSH1 0xA0 SHL SUB DUP2 AND CALLER EQ ISZERO PUSH2 0x2B9C JUMPI PUSH1 0x40 MLOAD PUSH3 0x461BCD PUSH1 0xE5 SHL DUP2 MSTORE PUSH1 0x20 PUSH1 0x4 DUP3 ADD MSTORE PUSH1 0x17 PUSH1 0x24 DUP3 ADD MSTORE PUSH32 0x43616E6E6F74207472616E7366657220746F2073656C66000000000000000000 PUSH1 0x44 DUP3 ADD MSTORE PUSH1 0x64 ADD PUSH2 0xC48 JUMP JUMPDEST PUSH1 0x3 DUP1 SLOAD PUSH1 0x1 PUSH1 0x1 PUSH1 0xA0 SHL SUB NOT AND PUSH1 0x1 PUSH1 0x1 PUSH1 0xA0 SHL SUB DUP4 DUP2 AND SWAP2 DUP3 OR SWAP1 SWAP3 SSTORE PUSH1 0x2 SLOAD PUSH1 0x40 MLOAD SWAP2 SWAP3 AND SWAP1 PUSH32 0xED8889F560326EB138920D842192F0EB3DD22B4F139C87A2C57538E05BAE1278 SWAP1 PUSH1 0x0 SWAP1 LOG3 POP JUMP JUMPDEST DUP1 MLOAD PUSH11 0x636F6E736F6C652E6C6F67 PUSH1 0x20 DUP4 ADD PUSH1 0x0 DUP1 DUP5 DUP4 DUP6 GAS STATICCALL POP POP POP POP POP JUMP JUMPDEST PUSH1 0x40 DUP1 MLOAD DUP1 DUP3 ADD SWAP1 SWAP2 MSTORE PUSH1 0x60 DUP2 MSTORE PUSH1 0x0 PUSH1 0x20 DUP3 ADD MSTORE PUSH2 0x2C2F PUSH1 0x20 DUP4 PUSH2 0x3BAF JUMP JUMPDEST ISZERO PUSH2 0x2C57 JUMPI PUSH2 0x2C3F PUSH1 0x20 DUP4 PUSH2 0x3BAF JUMP JUMPDEST PUSH2 0x2C4A SWAP1 PUSH1 0x20 PUSH2 0x3B09 JUMP JUMPDEST PUSH2 0x2C54 SWAP1 DUP4 PUSH2 0x39E7 JUMP JUMPDEST SWAP2 POP JUMPDEST PUSH1 0x20 DUP1 DUP5 ADD DUP4 SWAP1 MSTORE PUSH1 0x40 MLOAD DUP1 DUP6 MSTORE PUSH1 0x0 DUP2 MSTORE SWAP1 DUP2 DUP5 ADD ADD DUP2 DUP2 LT ISZERO PUSH2 0x2C7B JUMPI PUSH1 0x0 DUP1 REVERT JUMPDEST PUSH1 0x40 MSTORE POP DUP3 SWAP1 POP JUMPDEST SWAP3 SWAP2 POP POP JUMP JUMPDEST PUSH2 0x2C96 DUP3 PUSH1 0x3 DUP4 MLOAD PUSH2 0x2D2B JUMP JUMPDEST DUP2 MLOAD PUSH2 0x2CA2 SWAP1 DUP3 PUSH2 0x2E4C JUMP JUMPDEST POP POP POP JUMP JUMPDEST DUP2 MLOAD PUSH2 0x2CB4 SWAP1 PUSH1 0xC2 PUSH2 0x2E74 JUMP JUMPDEST POP PUSH2 0xBC8 DUP3 DUP3 PUSH1 0x40 MLOAD PUSH1 0x20 ADD PUSH2 0x2CCC SWAP2 DUP2 MSTORE PUSH1 0x20 ADD SWAP1 JUMP JUMPDEST PUSH1 0x40 MLOAD PUSH1 0x20 DUP2 DUP4 SUB SUB DUP2 MSTORE SWAP1 PUSH1 0x40 MSTORE PUSH2 0x2D22 JUMP JUMPDEST PUSH2 0x2CEB DUP2 PUSH1 0x4 PUSH2 0x2EDD JUMP JUMPDEST PUSH1 0x1 DUP2 PUSH1 0x20 ADD DUP2 DUP2 MLOAD PUSH2 0x2CFE SWAP2 SWAP1 PUSH2 0x39E7 JUMP JUMPDEST SWAP1 MSTORE POP POP JUMP JUMPDEST PUSH2 0x2D0F DUP2 PUSH1 0x7 PUSH2 0x2EDD JUMP JUMPDEST PUSH1 0x1 DUP2 PUSH1 0x20 ADD DUP2 DUP2 MLOAD PUSH2 0x2CFE SWAP2 SWAP1 PUSH2 0x3B09 JUMP JUMPDEST PUSH2 0x2C96 DUP3 PUSH1 0x2 DUP4 MLOAD JUMPDEST PUSH1 0x17 DUP2 PUSH8 0xFFFFFFFFFFFFFFFF AND GT PUSH2 0x2D52 JUMPI DUP3 MLOAD PUSH2 0x4D3 SWAP1 PUSH1 0xE0 PUSH1 0x5 DUP6 SWAP1 SHL AND DUP4 OR PUSH2 0x2E74 JUMP JUMPDEST PUSH1 0xFF DUP2 PUSH8 0xFFFFFFFFFFFFFFFF AND GT PUSH2 0x2D94 JUMPI DUP3 MLOAD PUSH2 0x2D7B SWAP1 PUSH1 0x18 PUSH2 0x1FE0 PUSH1 0x5 DUP7 SWAP1 SHL AND OR PUSH2 0x2E74 JUMP JUMPDEST POP DUP3 MLOAD PUSH2 0x4D3 SWAP1 PUSH8 0xFFFFFFFFFFFFFFFF DUP4 AND PUSH1 0x1 PUSH2 0x2EF4 JUMP JUMPDEST PUSH2 0xFFFF DUP2 PUSH8 0xFFFFFFFFFFFFFFFF AND GT PUSH2 0x2DD7 JUMPI DUP3 MLOAD PUSH2 0x2DBE SWAP1 PUSH1 0x19 PUSH2 0x1FE0 PUSH1 0x5 DUP7 SWAP1 SHL AND OR PUSH2 0x2E74 JUMP JUMPDEST POP DUP3 MLOAD PUSH2 0x4D3 SWAP1 PUSH8 0xFFFFFFFFFFFFFFFF DUP4 AND PUSH1 0x2 PUSH2 0x2EF4 JUMP JUMPDEST PUSH4 0xFFFFFFFF DUP2 PUSH8 0xFFFFFFFFFFFFFFFF AND GT PUSH2 0x2E1C JUMPI DUP3 MLOAD PUSH2 0x2E03 SWAP1 PUSH1 0x1A PUSH2 0x1FE0 PUSH1 0x5 DUP7 SWAP1 SHL AND OR PUSH2 0x2E74 JUMP JUMPDEST POP DUP3 MLOAD PUSH2 0x4D3 SWAP1 PUSH8 0xFFFFFFFFFFFFFFFF DUP4 AND PUSH1 0x4 PUSH2 0x2EF4 JUMP JUMPDEST DUP3 MLOAD PUSH2 0x2E33 SWAP1 PUSH1 0x1B PUSH2 0x1FE0 PUSH1 0x5 DUP7 SWAP1 SHL AND OR PUSH2 0x2E74 JUMP JUMPDEST POP DUP3 MLOAD PUSH2 0x4D3 SWAP1 PUSH8 0xFFFFFFFFFFFFFFFF DUP4 AND PUSH1 0x8 PUSH2 0x2EF4 JUMP JUMPDEST PUSH1 0x40 DUP1 MLOAD DUP1 DUP3 ADD SWAP1 SWAP2 MSTORE PUSH1 0x60 DUP2 MSTORE PUSH1 0x0 PUSH1 0x20 DUP3 ADD MSTORE PUSH2 0x2E6D DUP4 DUP4 DUP5 MLOAD PUSH2 0x2F79 JUMP JUMPDEST SWAP4 SWAP3 POP POP POP JUMP JUMPDEST PUSH1 0x40 DUP1 MLOAD DUP1 DUP3 ADD SWAP1 SWAP2 MSTORE PUSH1 0x60 DUP2 MSTORE PUSH1 0x0 PUSH1 0x20 DUP3 ADD MSTORE DUP3 MLOAD MLOAD PUSH1 0x0 PUSH2 0x2E99 DUP3 PUSH1 0x1 PUSH2 0x39E7 JUMP JUMPDEST SWAP1 POP DUP5 PUSH1 0x20 ADD MLOAD DUP3 LT PUSH2 0x2EBA JUMPI PUSH2 0x2EBA DUP6 PUSH2 0x2EB5 DUP4 PUSH1 0x2 PUSH2 0x3AEA JUMP JUMPDEST PUSH2 0x304A JUMP JUMPDEST DUP5 MLOAD PUSH1 0x20 DUP4 DUP3 ADD ADD DUP6 DUP2 MSTORE8 POP DUP1 MLOAD DUP3 GT ISZERO PUSH2 0x2ED3 JUMPI DUP2 DUP2 MSTORE JUMPDEST POP SWAP4 SWAP5 SWAP4 POP POP POP POP JUMP JUMPDEST DUP2 MLOAD PUSH2 0x2CA2 SWAP1 PUSH1 0x1F PUSH2 0x1FE0 PUSH1 0x5 DUP6 SWAP1 SHL AND OR PUSH2 0x2E74 JUMP JUMPDEST PUSH1 0x40 DUP1 MLOAD DUP1 DUP3 ADD SWAP1 SWAP2 MSTORE PUSH1 0x60 DUP2 MSTORE PUSH1 0x0 PUSH1 0x20 DUP3 ADD MSTORE DUP4 MLOAD MLOAD PUSH1 0x0 PUSH2 0x2F18 DUP3 DUP6 PUSH2 0x39E7 JUMP JUMPDEST SWAP1 POP DUP6 PUSH1 0x20 ADD MLOAD DUP2 GT ISZERO PUSH2 0x2F35 JUMPI PUSH2 0x2F35 DUP7 PUSH2 0x2EB5 DUP4 PUSH1 0x2 PUSH2 0x3AEA JUMP JUMPDEST PUSH1 0x0 PUSH1 0x1 PUSH2 0x2F45 DUP7 PUSH2 0x100 PUSH2 0x3A42 JUMP JUMPDEST PUSH2 0x2F4F SWAP2 SWAP1 PUSH2 0x3B09 JUMP JUMPDEST SWAP1 POP DUP7 MLOAD DUP3 DUP2 ADD DUP8 DUP4 NOT DUP3 MLOAD AND OR DUP2 MSTORE POP DUP1 MLOAD DUP4 GT ISZERO PUSH2 0x2F6D JUMPI DUP3 DUP2 MSTORE JUMPDEST POP SWAP6 SWAP7 SWAP6 POP POP POP POP POP POP JUMP JUMPDEST PUSH1 0x40 DUP1 MLOAD DUP1 DUP3 ADD SWAP1 SWAP2 MSTORE PUSH1 0x60 DUP2 MSTORE PUSH1 0x0 PUSH1 0x20 DUP3 ADD MSTORE DUP3 MLOAD DUP3 GT ISZERO PUSH2 0x2F9C JUMPI PUSH1 0x0 DUP1 REVERT JUMPDEST DUP4 MLOAD MLOAD PUSH1 0x0 PUSH2 0x2FAB DUP5 DUP4 PUSH2 0x39E7 JUMP JUMPDEST SWAP1 POP DUP6 PUSH1 0x20 ADD MLOAD DUP2 GT ISZERO PUSH2 0x2FC8 JUMPI PUSH2 0x2FC8 DUP7 PUSH2 0x2EB5 DUP4 PUSH1 0x2 PUSH2 0x3AEA JUMP JUMPDEST DUP6 MLOAD DUP1 MLOAD DUP4 DUP3 ADD PUSH1 0x20 ADD SWAP2 PUSH1 0x0 SWAP2 DUP1 DUP6 GT ISZERO PUSH2 0x2FE2 JUMPI DUP5 DUP3 MSTORE JUMPDEST POP POP POP PUSH1 0x20 DUP7 ADD JUMPDEST PUSH1 0x20 DUP7 LT PUSH2 0x3022 JUMPI DUP1 MLOAD DUP3 MSTORE PUSH2 0x3001 PUSH1 0x20 DUP4 PUSH2 0x39E7 JUMP JUMPDEST SWAP2 POP PUSH2 0x300E PUSH1 0x20 DUP3 PUSH2 0x39E7 JUMP JUMPDEST SWAP1 POP PUSH2 0x301B PUSH1 0x20 DUP8 PUSH2 0x3B09 JUMP JUMPDEST SWAP6 POP PUSH2 0x2FEA JUMP JUMPDEST MLOAD DUP2 MLOAD PUSH1 0x0 NOT PUSH1 0x20 DUP9 SWAP1 SUB PUSH2 0x100 EXP ADD SWAP1 DUP2 AND SWAP1 NOT SWAP2 SWAP1 SWAP2 AND OR SWAP1 MSTORE POP DUP5 SWAP2 POP POP SWAP4 SWAP3 POP POP POP JUMP JUMPDEST DUP2 MLOAD PUSH2 0x3056 DUP4 DUP4 PUSH2 0x2C0F JUMP JUMPDEST POP PUSH2 0x4D3 DUP4 DUP3 PUSH2 0x2E4C JUMP JUMPDEST DUP3 DUP1 SLOAD PUSH2 0x306D SWAP1 PUSH2 0x3B59 JUMP JUMPDEST SWAP1 PUSH1 0x0 MSTORE PUSH1 0x20 PUSH1 0x0 KECCAK256 SWAP1 PUSH1 0x1F ADD PUSH1 0x20 SWAP1 DIV DUP2 ADD SWAP3 DUP3 PUSH2 0x308F JUMPI PUSH1 0x0 DUP6 SSTORE PUSH2 0x30D5 JUMP JUMPDEST DUP3 PUSH1 0x1F LT PUSH2 0x30A8 JUMPI DUP1 MLOAD PUSH1 0xFF NOT AND DUP4 DUP1 ADD OR DUP6 SSTORE PUSH2 0x30D5 JUMP JUMPDEST DUP3 DUP1 ADD PUSH1 0x1 ADD DUP6 SSTORE DUP3 ISZERO PUSH2 0x30D5 JUMPI SWAP2 DUP3 ADD JUMPDEST DUP3 DUP2 GT ISZERO PUSH2 0x30D5 JUMPI DUP3 MLOAD DUP3 SSTORE SWAP2 PUSH1 0x20 ADD SWAP2 SWAP1 PUSH1 0x1 ADD SWAP1 PUSH2 0x30BA JUMP JUMPDEST POP PUSH2 0x30E1 SWAP3 SWAP2 POP PUSH2 0x3154 JUMP JUMPDEST POP SWAP1 JUMP JUMPDEST DUP3 DUP1 SLOAD DUP3 DUP3 SSTORE SWAP1 PUSH1 0x0 MSTORE PUSH1 0x20 PUSH1 0x0 KECCAK256 SWAP1 DUP2 ADD SWAP3 DUP3 ISZERO PUSH2 0x30D5 JUMPI SWAP2 PUSH1 0x20 MUL DUP3 ADD DUP3 DUP2 GT ISZERO PUSH2 0x30D5 JUMPI DUP3 MLOAD DUP3 SSTORE SWAP2 PUSH1 0x20 ADD SWAP2 SWAP1 PUSH1 0x1 ADD SWAP1 PUSH2 0x30BA JUMP JUMPDEST PUSH1 0x40 MLOAD DUP1 PUSH1 0x40 ADD PUSH1 0x40 MSTORE DUP1 PUSH2 0x3147 PUSH1 0x40 MLOAD DUP1 PUSH1 0x40 ADD PUSH1 0x40 MSTORE DUP1 PUSH1 0x60 DUP2 MSTORE PUSH1 0x20 ADD PUSH1 0x0 DUP2 MSTORE POP SWAP1 JUMP JUMPDEST DUP2 MSTORE PUSH1 0x20 ADD PUSH1 0x0 DUP2 MSTORE POP SWAP1 JUMP JUMPDEST JUMPDEST DUP1 DUP3 GT ISZERO PUSH2 0x30E1 JUMPI PUSH1 0x0 DUP2 SSTORE PUSH1 0x1 ADD PUSH2 0x3155 JUMP JUMPDEST PUSH1 0x0 PUSH2 0x317C PUSH2 0x3177 DUP5 PUSH2 0x399B JUMP JUMPDEST PUSH2 0x396A JUMP JUMPDEST SWAP1 POP DUP1 DUP4 DUP3 MSTORE PUSH1 0x20 DUP1 DUP4 ADD SWAP2 POP DUP4 DUP7 DUP7 PUSH1 0x5 SHL DUP7 ADD GT ISZERO PUSH2 0x319C JUMPI PUSH1 0x0 DUP1 REVERT JUMPDEST PUSH1 0x0 DUP1 JUMPDEST DUP8 DUP2 LT ISZERO PUSH2 0x31DD JUMPI DUP3 CALLDATALOAD PUSH8 0xFFFFFFFFFFFFFFFF DUP2 GT ISZERO PUSH2 0x31BE JUMPI DUP3 DUP4 REVERT JUMPDEST PUSH2 0x31CA DUP11 DUP3 DUP11 ADD PUSH2 0x3252 JUMP JUMPDEST DUP7 MSTORE POP SWAP4 DUP4 ADD SWAP4 SWAP2 DUP4 ADD SWAP2 PUSH1 0x1 ADD PUSH2 0x31A0 JUMP JUMPDEST POP POP POP POP POP SWAP4 SWAP3 POP POP POP JUMP JUMPDEST PUSH1 0x0 DUP3 PUSH1 0x1F DUP4 ADD SLT PUSH2 0x31FA JUMPI PUSH1 0x0 DUP1 REVERT JUMPDEST PUSH2 0x2E6D DUP4 DUP4 CALLDATALOAD PUSH1 0x20 DUP6 ADD PUSH2 0x3169 JUMP JUMPDEST PUSH1 0x0 DUP1 DUP4 PUSH1 0x1F DUP5 ADD SLT PUSH2 0x321B JUMPI PUSH1 0x0 DUP1 REVERT JUMPDEST POP DUP2 CALLDATALOAD PUSH8 0xFFFFFFFFFFFFFFFF DUP2 GT ISZERO PUSH2 0x3233 JUMPI PUSH1 0x0 DUP1 REVERT JUMPDEST PUSH1 0x20 DUP4 ADD SWAP2 POP DUP4 PUSH1 0x20 DUP3 DUP6 ADD ADD GT ISZERO PUSH2 0x324B JUMPI PUSH1 0x0 DUP1 REVERT JUMPDEST SWAP3 POP SWAP3 SWAP1 POP JUMP JUMPDEST PUSH1 0x0 DUP3 PUSH1 0x1F DUP4 ADD SLT PUSH2 0x3263 JUMPI PUSH1 0x0 DUP1 REVERT JUMPDEST DUP2 CALLDATALOAD PUSH2 0x3271 PUSH2 0x3177 DUP3 PUSH2 0x39BF JUMP JUMPDEST DUP2 DUP2 MSTORE DUP5 PUSH1 0x20 DUP4 DUP7 ADD ADD GT ISZERO PUSH2 0x3286 JUMPI PUSH1 0x0 DUP1 REVERT JUMPDEST DUP2 PUSH1 0x20 DUP6 ADD PUSH1 0x20 DUP4 ADD CALLDATACOPY PUSH1 0x0 SWAP2 DUP2 ADD PUSH1 0x20 ADD SWAP2 SWAP1 SWAP2 MSTORE SWAP4 SWAP3 POP POP POP JUMP JUMPDEST DUP1 CALLDATALOAD PUSH1 0x1 DUP2 LT PUSH2 0x32B2 JUMPI PUSH1 0x0 DUP1 REVERT JUMPDEST SWAP2 SWAP1 POP JUMP JUMPDEST DUP1 CALLDATALOAD PUSH1 0x2 DUP2 LT PUSH2 0x32B2 JUMPI PUSH1 0x0 DUP1 REVERT JUMPDEST DUP1 CALLDATALOAD PUSH4 0xFFFFFFFF DUP2 AND DUP2 EQ PUSH2 0x32B2 JUMPI PUSH1 0x0 DUP1 REVERT JUMPDEST DUP1 CALLDATALOAD PUSH8 0xFFFFFFFFFFFFFFFF DUP2 AND DUP2 EQ PUSH2 0x32B2 JUMPI PUSH1 0x0 DUP1 REVERT JUMPDEST PUSH1 0x0 PUSH1 0x20 DUP3 DUP5 SUB SLT ISZERO PUSH2 0x3304 JUMPI PUSH1 0x0 DUP1 REVERT JUMPDEST DUP2 CALLDATALOAD PUSH2 0x2E6D DUP2 PUSH2 0x3C29 JUMP JUMPDEST PUSH1 0x0 PUSH1 0x20 DUP3 DUP5 SUB SLT ISZERO PUSH2 0x3321 JUMPI PUSH1 0x0 DUP1 REVERT JUMPDEST DUP2 MLOAD PUSH2 0x2E6D DUP2 PUSH2 0x3C29 JUMP JUMPDEST PUSH1 0x0 DUP1 PUSH1 0x40 DUP4 DUP6 SUB SLT ISZERO PUSH2 0x333F JUMPI PUSH1 0x0 DUP1 REVERT JUMPDEST DUP3 CALLDATALOAD PUSH2 0x334A DUP2 PUSH2 0x3C29 JUMP JUMPDEST SWAP5 PUSH1 0x20 SWAP4 SWAP1 SWAP4 ADD CALLDATALOAD SWAP4 POP POP POP JUMP JUMPDEST PUSH1 0x0 PUSH1 0x20 DUP3 DUP5 SUB SLT ISZERO PUSH2 0x336A JUMPI PUSH1 0x0 DUP1 REVERT JUMPDEST POP MLOAD SWAP2 SWAP1 POP JUMP JUMPDEST PUSH1 0x0 DUP1 PUSH1 0x0 PUSH1 0x60 DUP5 DUP7 SUB SLT ISZERO PUSH2 0x3386 JUMPI PUSH1 0x0 DUP1 REVERT JUMPDEST DUP4 CALLDATALOAD SWAP3 POP PUSH1 0x20 DUP5 ADD CALLDATALOAD PUSH8 0xFFFFFFFFFFFFFFFF DUP1 DUP3 GT ISZERO PUSH2 0x33A5 JUMPI PUSH1 0x0 DUP1 REVERT JUMPDEST PUSH2 0x33B1 DUP8 DUP4 DUP9 ADD PUSH2 0x3252 JUMP JUMPDEST SWAP4 POP PUSH1 0x40 DUP7 ADD CALLDATALOAD SWAP2 POP DUP1 DUP3 GT ISZERO PUSH2 0x33C7 JUMPI PUSH1 0x0 DUP1 REVERT JUMPDEST POP PUSH2 0x33D4 DUP7 DUP3 DUP8 ADD PUSH2 0x3252 JUMP JUMPDEST SWAP2 POP POP SWAP3 POP SWAP3 POP SWAP3 JUMP JUMPDEST PUSH1 0x0 PUSH1 0x20 DUP3 DUP5 SUB SLT ISZERO PUSH2 0x33F0 JUMPI PUSH1 0x0 DUP1 REVERT JUMPDEST DUP2 MLOAD PUSH8 0xFFFFFFFFFFFFFFFF DUP2 GT ISZERO PUSH2 0x3407 JUMPI PUSH1 0x0 DUP1 REVERT JUMPDEST DUP3 ADD PUSH1 0x1F DUP2 ADD DUP5 SGT PUSH2 0x3418 JUMPI PUSH1 0x0 DUP1 REVERT JUMPDEST DUP1 MLOAD PUSH2 0x3426 PUSH2 0x3177 DUP3 PUSH2 0x39BF JUMP JUMPDEST DUP2 DUP2 MSTORE DUP6 PUSH1 0x20 DUP4 DUP6 ADD ADD GT ISZERO PUSH2 0x343B JUMPI PUSH1 0x0 DUP1 REVERT JUMPDEST PUSH2 0x1B6A DUP3 PUSH1 0x20 DUP4 ADD PUSH1 0x20 DUP7 ADD PUSH2 0x3B2D JUMP JUMPDEST PUSH1 0x0 DUP1 PUSH1 0x0 DUP1 PUSH1 0x0 DUP1 PUSH1 0x0 DUP1 PUSH1 0xA0 DUP10 DUP12 SUB SLT ISZERO PUSH2 0x3468 JUMPI PUSH1 0x0 DUP1 REVERT JUMPDEST DUP9 CALLDATALOAD PUSH8 0xFFFFFFFFFFFFFFFF DUP1 DUP3 GT ISZERO PUSH2 0x3480 JUMPI PUSH1 0x0 DUP1 REVERT JUMPDEST PUSH2 0x348C DUP13 DUP4 DUP14 ADD PUSH2 0x3209 JUMP JUMPDEST SWAP1 SWAP11 POP SWAP9 POP PUSH1 0x20 DUP12 ADD CALLDATALOAD SWAP2 POP DUP1 DUP3 GT ISZERO PUSH2 0x34A5 JUMPI PUSH1 0x0 DUP1 REVERT JUMPDEST PUSH2 0x34B1 DUP13 DUP4 DUP14 ADD PUSH2 0x3209 JUMP JUMPDEST SWAP1 SWAP9 POP SWAP7 POP PUSH1 0x40 DUP12 ADD CALLDATALOAD SWAP2 POP DUP1 DUP3 GT ISZERO PUSH2 0x34CA JUMPI PUSH1 0x0 DUP1 REVERT JUMPDEST DUP2 DUP12 ADD SWAP2 POP DUP12 PUSH1 0x1F DUP4 ADD SLT PUSH2 0x34DE JUMPI PUSH1 0x0 DUP1 REVERT JUMPDEST DUP2 CALLDATALOAD DUP2 DUP2 GT ISZERO PUSH2 0x34ED JUMPI PUSH1 0x0 DUP1 REVERT JUMPDEST DUP13 PUSH1 0x20 DUP3 PUSH1 0x5 SHL DUP6 ADD ADD GT ISZERO PUSH2 0x3502 JUMPI PUSH1 0x0 DUP1 REVERT JUMPDEST PUSH1 0x20 DUP4 ADD SWAP7 POP DUP1 SWAP6 POP POP POP POP PUSH2 0x351A PUSH1 0x60 DUP11 ADD PUSH2 0x32DA JUMP JUMPDEST SWAP2 POP PUSH2 0x3528 PUSH1 0x80 DUP11 ADD PUSH2 0x32C6 JUMP JUMPDEST SWAP1 POP SWAP3 SWAP6 SWAP9 POP SWAP3 SWAP6 SWAP9 SWAP1 SWAP4 SWAP7 POP JUMP JUMPDEST PUSH1 0x0 DUP1 PUSH1 0x0 DUP1 PUSH1 0x80 DUP6 DUP8 SUB SLT ISZERO PUSH2 0x354D JUMPI PUSH1 0x0 DUP1 REVERT JUMPDEST DUP5 CALLDATALOAD PUSH8 0xFFFFFFFFFFFFFFFF DUP1 DUP3 GT ISZERO PUSH2 0x3565 JUMPI PUSH1 0x0 DUP1 REVERT JUMPDEST SWAP1 DUP7 ADD SWAP1 PUSH1 0xC0 DUP3 DUP10 SUB SLT ISZERO PUSH2 0x3579 JUMPI PUSH1 0x0 DUP1 REVERT JUMPDEST PUSH2 0x3581 PUSH2 0x3941 JUMP JUMPDEST PUSH2 0x358A DUP4 PUSH2 0x32B7 JUMP JUMPDEST DUP2 MSTORE PUSH2 0x3598 PUSH1 0x20 DUP5 ADD PUSH2 0x32B7 JUMP JUMPDEST PUSH1 0x20 DUP3 ADD MSTORE PUSH2 0x35A9 PUSH1 0x40 DUP5 ADD PUSH2 0x32A3 JUMP JUMPDEST PUSH1 0x40 DUP3 ADD MSTORE PUSH1 0x60 DUP4 ADD CALLDATALOAD DUP3 DUP2 GT ISZERO PUSH2 0x35C0 JUMPI PUSH1 0x0 DUP1 REVERT JUMPDEST PUSH2 0x35CC DUP11 DUP3 DUP7 ADD PUSH2 0x3252 JUMP JUMPDEST PUSH1 0x60 DUP4 ADD MSTORE POP PUSH1 0x80 DUP4 ADD CALLDATALOAD DUP3 DUP2 GT ISZERO PUSH2 0x35E4 JUMPI PUSH1 0x0 DUP1 REVERT JUMPDEST PUSH2 0x35F0 DUP11 DUP3 DUP7 ADD PUSH2 0x3252 JUMP JUMPDEST PUSH1 0x80 DUP4 ADD MSTORE POP PUSH1 0xA0 DUP4 ADD CALLDATALOAD DUP3 DUP2 GT ISZERO PUSH2 0x3608 JUMPI PUSH1 0x0 DUP1 REVERT JUMPDEST PUSH2 0x3614 DUP11 DUP3 DUP7 ADD PUSH2 0x31E9 JUMP JUMPDEST PUSH1 0xA0 DUP4 ADD MSTORE POP SWAP6 POP PUSH2 0x362B SWAP2 POP POP PUSH1 0x20 DUP7 ADD PUSH2 0x32DA JUMP JUMPDEST SWAP3 POP PUSH2 0x3639 PUSH1 0x40 DUP7 ADD PUSH2 0x32C6 JUMP JUMPDEST SWAP4 SWAP7 SWAP3 SWAP6 POP SWAP3 SWAP4 PUSH1 0x60 ADD CALLDATALOAD SWAP3 POP POP JUMP JUMPDEST PUSH1 0x0 DUP1 PUSH1 0x40 DUP4 DUP6 SUB SLT ISZERO PUSH2 0x365C JUMPI PUSH1 0x0 DUP1 REVERT JUMPDEST DUP3 CALLDATALOAD SWAP2 POP PUSH1 0x20 DUP1 DUP5 ADD CALLDATALOAD PUSH8 0xFFFFFFFFFFFFFFFF DUP2 GT ISZERO PUSH2 0x367B JUMPI PUSH1 0x0 DUP1 REVERT JUMPDEST DUP5 ADD PUSH1 0x1F DUP2 ADD DUP7 SGT PUSH2 0x368C JUMPI PUSH1 0x0 DUP1 REVERT JUMPDEST DUP1 CALLDATALOAD PUSH2 0x369A PUSH2 0x3177 DUP3 PUSH2 0x399B JUMP JUMPDEST DUP1 DUP3 DUP3 MSTORE DUP5 DUP3 ADD SWAP2 POP DUP5 DUP5 ADD DUP10 DUP7 DUP6 PUSH1 0x5 SHL DUP8 ADD ADD GT ISZERO PUSH2 0x36BA JUMPI PUSH1 0x0 DUP1 REVERT JUMPDEST PUSH1 0x0 SWAP5 POP JUMPDEST DUP4 DUP6 LT ISZERO PUSH2 0x36DD JUMPI DUP1 CALLDATALOAD DUP4 MSTORE PUSH1 0x1 SWAP5 SWAP1 SWAP5 ADD SWAP4 SWAP2 DUP6 ADD SWAP2 DUP6 ADD PUSH2 0x36BF JUMP JUMPDEST POP DUP1 SWAP6 POP POP POP POP POP POP SWAP3 POP SWAP3 SWAP1 POP JUMP JUMPDEST PUSH1 0x0 PUSH1 0x20 DUP3 DUP5 SUB SLT ISZERO PUSH2 0x36FF JUMPI PUSH1 0x0 DUP1 REVERT JUMPDEST DUP2 MLOAD PUSH12 0xFFFFFFFFFFFFFFFFFFFFFFFF DUP2 AND DUP2 EQ PUSH2 0x2E6D JUMPI PUSH1 0x0 DUP1 REVERT JUMPDEST PUSH1 0x0 DUP2 MLOAD DUP1 DUP5 MSTORE PUSH2 0x3733 DUP2 PUSH1 0x20 DUP7 ADD PUSH1 0x20 DUP7 ADD PUSH2 0x3B2D JUMP JUMPDEST PUSH1 0x1F ADD PUSH1 0x1F NOT AND SWAP3 SWAP1 SWAP3 ADD PUSH1 0x20 ADD SWAP3 SWAP2 POP POP JUMP JUMPDEST PUSH1 0x20 DUP2 MSTORE PUSH1 0x0 PUSH2 0x2E6D PUSH1 0x20 DUP4 ADD DUP5 PUSH2 0x371B JUMP JUMPDEST PUSH1 0x40 DUP2 MSTORE PUSH1 0x0 PUSH2 0x376D PUSH1 0x40 DUP4 ADD DUP6 PUSH2 0x371B JUMP JUMPDEST DUP3 DUP2 SUB PUSH1 0x20 DUP5 ADD MSTORE PUSH2 0x1B6A DUP2 DUP6 PUSH2 0x371B JUMP JUMPDEST PUSH2 0x180 DUP2 MSTORE PUSH1 0x0 PUSH2 0x3794 PUSH2 0x180 DUP4 ADD DUP16 PUSH2 0x371B JUMP JUMPDEST DUP3 DUP2 SUB PUSH1 0x20 DUP5 ADD MSTORE PUSH2 0x37A6 DUP2 DUP16 PUSH2 0x371B JUMP JUMPDEST SWAP1 POP DUP3 DUP2 SUB PUSH1 0x40 DUP5 ADD MSTORE PUSH2 0x37BA DUP2 DUP15 PUSH2 0x371B JUMP JUMPDEST SWAP1 POP DUP3 DUP2 SUB PUSH1 0x60 DUP5 ADD MSTORE PUSH2 0x37CE DUP2 DUP14 PUSH2 0x371B JUMP JUMPDEST SWAP1 POP DUP3 DUP2 SUB PUSH1 0x80 DUP5 ADD MSTORE PUSH2 0x37E2 DUP2 DUP13 PUSH2 0x371B JUMP JUMPDEST SWAP1 POP DUP3 DUP2 SUB PUSH1 0xA0 DUP5 ADD MSTORE PUSH2 0x37F6 DUP2 DUP12 PUSH2 0x371B JUMP JUMPDEST SWAP1 POP DUP3 DUP2 SUB PUSH1 0xC0 DUP5 ADD MSTORE PUSH2 0x380A DUP2 DUP11 PUSH2 0x371B JUMP JUMPDEST SWAP1 POP DUP3 DUP2 SUB PUSH1 0xE0 DUP5 ADD MSTORE PUSH2 0x381E DUP2 DUP10 PUSH2 0x371B JUMP JUMPDEST SWAP1 POP DUP3 DUP2 SUB PUSH2 0x100 DUP5 ADD MSTORE PUSH2 0x3833 DUP2 DUP9 PUSH2 0x371B JUMP JUMPDEST SWAP1 POP DUP3 DUP2 SUB PUSH2 0x120 DUP5 ADD MSTORE PUSH2 0x3848 DUP2 DUP8 PUSH2 0x371B JUMP JUMPDEST SWAP1 POP DUP3 DUP2 SUB PUSH2 0x140 DUP5 ADD MSTORE PUSH2 0x385D DUP2 DUP7 PUSH2 0x371B JUMP JUMPDEST SWAP1 POP DUP3 DUP2 SUB PUSH2 0x160 DUP5 ADD MSTORE PUSH2 0x3872 DUP2 DUP6 PUSH2 0x371B JUMP JUMPDEST SWAP16 SWAP15 POP POP POP POP POP POP POP POP POP POP POP POP POP POP POP JUMP JUMPDEST PUSH8 0xFFFFFFFFFFFFFFFF DUP5 AND DUP2 MSTORE PUSH1 0x60 PUSH1 0x20 DUP3 ADD MSTORE PUSH1 0x0 PUSH2 0x38A8 PUSH1 0x60 DUP4 ADD DUP6 PUSH2 0x371B JUMP JUMPDEST SWAP1 POP PUSH4 0xFFFFFFFF DUP4 AND PUSH1 0x40 DUP4 ADD MSTORE SWAP5 SWAP4 POP POP POP POP JUMP JUMPDEST PUSH8 0xFFFFFFFFFFFFFFFF DUP6 AND DUP2 MSTORE PUSH1 0x80 PUSH1 0x20 DUP3 ADD MSTORE PUSH1 0x0 PUSH2 0x38E1 PUSH1 0x80 DUP4 ADD DUP7 PUSH2 0x371B JUMP JUMPDEST PUSH4 0xFFFFFFFF SWAP5 SWAP1 SWAP5 AND PUSH1 0x40 DUP4 ADD MSTORE POP PUSH1 0x60 ADD MSTORE SWAP3 SWAP2 POP POP JUMP JUMPDEST PUSH1 0x0 DUP1 DUP4 CALLDATALOAD PUSH1 0x1E NOT DUP5 CALLDATASIZE SUB ADD DUP2 SLT PUSH2 0x3911 JUMPI PUSH1 0x0 DUP1 REVERT JUMPDEST DUP4 ADD DUP1 CALLDATALOAD SWAP2 POP PUSH8 0xFFFFFFFFFFFFFFFF DUP3 GT ISZERO PUSH2 0x392C JUMPI PUSH1 0x0 DUP1 REVERT JUMPDEST PUSH1 0x20 ADD SWAP2 POP CALLDATASIZE DUP2 SWAP1 SUB DUP3 SGT ISZERO PUSH2 0x324B JUMPI PUSH1 0x0 DUP1 REVERT JUMPDEST PUSH1 0x40 MLOAD PUSH1 0xC0 DUP2 ADD PUSH8 0xFFFFFFFFFFFFFFFF DUP2 GT DUP3 DUP3 LT OR ISZERO PUSH2 0x3964 JUMPI PUSH2 0x3964 PUSH2 0x3C13 JUMP JUMPDEST PUSH1 0x40 MSTORE SWAP1 JUMP JUMPDEST PUSH1 0x40 MLOAD PUSH1 0x1F DUP3 ADD PUSH1 0x1F NOT AND DUP2 ADD PUSH8 0xFFFFFFFFFFFFFFFF DUP2 GT DUP3 DUP3 LT OR ISZERO PUSH2 0x3993 JUMPI PUSH2 0x3993 PUSH2 0x3C13 JUMP JUMPDEST PUSH1 0x40 MSTORE SWAP2 SWAP1 POP JUMP JUMPDEST PUSH1 0x0 PUSH8 0xFFFFFFFFFFFFFFFF DUP3 GT ISZERO PUSH2 0x39B5 JUMPI PUSH2 0x39B5 PUSH2 0x3C13 JUMP JUMPDEST POP PUSH1 0x5 SHL PUSH1 0x20 ADD SWAP1 JUMP JUMPDEST PUSH1 0x0 PUSH8 0xFFFFFFFFFFFFFFFF DUP3 GT ISZERO PUSH2 0x39D9 JUMPI PUSH2 0x39D9 PUSH2 0x3C13 JUMP JUMPDEST POP PUSH1 0x1F ADD PUSH1 0x1F NOT AND PUSH1 0x20 ADD SWAP1 JUMP JUMPDEST PUSH1 0x0 DUP3 NOT DUP3 GT ISZERO PUSH2 0x39FA JUMPI PUSH2 0x39FA PUSH2 0x3BD1 JUMP JUMPDEST POP ADD SWAP1 JUMP JUMPDEST PUSH1 0x1 DUP2 DUP2 JUMPDEST DUP1 DUP6 GT ISZERO PUSH2 0x3A3A JUMPI DUP2 PUSH1 0x0 NOT DIV DUP3 GT ISZERO PUSH2 0x3A20 JUMPI PUSH2 0x3A20 PUSH2 0x3BD1 JUMP JUMPDEST DUP1 DUP6 AND ISZERO PUSH2 0x3A2D JUMPI SWAP2 DUP2 MUL SWAP2 JUMPDEST SWAP4 DUP5 SHR SWAP4 SWAP1 DUP1 MUL SWAP1 PUSH2 0x3A04 JUMP JUMPDEST POP SWAP3 POP SWAP3 SWAP1 POP JUMP JUMPDEST PUSH1 0x0 PUSH2 0x2E6D DUP4 DUP4 PUSH1 0x0 DUP3 PUSH2 0x3A58 JUMPI POP PUSH1 0x1 PUSH2 0x2C83 JUMP JUMPDEST DUP2 PUSH2 0x3A65 JUMPI POP PUSH1 0x0 PUSH2 0x2C83 JUMP JUMPDEST DUP2 PUSH1 0x1 DUP2 EQ PUSH2 0x3A7B JUMPI PUSH1 0x2 DUP2 EQ PUSH2 0x3A85 JUMPI PUSH2 0x3AA1 JUMP JUMPDEST PUSH1 0x1 SWAP2 POP POP PUSH2 0x2C83 JUMP JUMPDEST PUSH1 0xFF DUP5 GT ISZERO PUSH2 0x3A96 JUMPI PUSH2 0x3A96 PUSH2 0x3BD1 JUMP JUMPDEST POP POP PUSH1 0x1 DUP3 SHL PUSH2 0x2C83 JUMP JUMPDEST POP PUSH1 0x20 DUP4 LT PUSH2 0x133 DUP4 LT AND PUSH1 0x4E DUP5 LT PUSH1 0xB DUP5 LT AND OR ISZERO PUSH2 0x3AC4 JUMPI POP DUP2 DUP2 EXP PUSH2 0x2C83 JUMP JUMPDEST PUSH2 0x3ACE DUP4 DUP4 PUSH2 0x39FF JUMP JUMPDEST DUP1 PUSH1 0x0 NOT DIV DUP3 GT ISZERO PUSH2 0x3AE2 JUMPI PUSH2 0x3AE2 PUSH2 0x3BD1 JUMP JUMPDEST MUL SWAP4 SWAP3 POP POP POP JUMP JUMPDEST PUSH1 0x0 DUP2 PUSH1 0x0 NOT DIV DUP4 GT DUP3 ISZERO ISZERO AND ISZERO PUSH2 0x3B04 JUMPI PUSH2 0x3B04 PUSH2 0x3BD1 JUMP JUMPDEST POP MUL SWAP1 JUMP JUMPDEST PUSH1 0x0 DUP3 DUP3 LT ISZERO PUSH2 0x3B1B JUMPI PUSH2 0x3B1B PUSH2 0x3BD1 JUMP JUMPDEST POP SUB SWAP1 JUMP JUMPDEST PUSH1 0x0 PUSH2 0x2E6D CALLDATASIZE DUP5 DUP5 PUSH2 0x3169 JUMP JUMPDEST PUSH1 0x0 JUMPDEST DUP4 DUP2 LT ISZERO PUSH2 0x3B48 JUMPI DUP2 DUP2 ADD MLOAD DUP4 DUP3 ADD MSTORE PUSH1 0x20 ADD PUSH2 0x3B30 JUMP JUMPDEST DUP4 DUP2 GT ISZERO PUSH2 0x4D3 JUMPI POP POP PUSH1 0x0 SWAP2 ADD MSTORE JUMP JUMPDEST PUSH1 0x1 DUP2 DUP2 SHR SWAP1 DUP3 AND DUP1 PUSH2 0x3B6D JUMPI PUSH1 0x7F DUP3 AND SWAP2 POP JUMPDEST PUSH1 0x20 DUP3 LT DUP2 EQ ISZERO PUSH2 0x3B8E JUMPI PUSH4 0x4E487B71 PUSH1 0xE0 SHL PUSH1 0x0 MSTORE PUSH1 0x22 PUSH1 0x4 MSTORE PUSH1 0x24 PUSH1 0x0 REVERT JUMPDEST POP SWAP2 SWAP1 POP JUMP JUMPDEST PUSH1 0x0 PUSH1 0x0 NOT DUP3 EQ ISZERO PUSH2 0x3BA8 JUMPI PUSH2 0x3BA8 PUSH2 0x3BD1 JUMP JUMPDEST POP PUSH1 0x1 ADD SWAP1 JUMP JUMPDEST PUSH1 0x0 DUP3 PUSH2 0x3BCC JUMPI PUSH4 0x4E487B71 PUSH1 0xE0 SHL PUSH1 0x0 MSTORE PUSH1 0x12 PUSH1 0x4 MSTORE PUSH1 0x24 PUSH1 0x0 REVERT JUMPDEST POP MOD SWAP1 JUMP JUMPDEST PUSH4 0x4E487B71 PUSH1 0xE0 SHL PUSH1 0x0 MSTORE PUSH1 0x11 PUSH1 0x4 MSTORE PUSH1 0x24 PUSH1 0x0 REVERT JUMPDEST PUSH4 0x4E487B71 PUSH1 0xE0 SHL PUSH1 0x0 MSTORE PUSH1 0x21 PUSH1 0x4 MSTORE PUSH1 0x24 PUSH1 0x0 REVERT JUMPDEST PUSH4 0x4E487B71 PUSH1 0xE0 SHL PUSH1 0x0 MSTORE PUSH1 0x32 PUSH1 0x4 MSTORE PUSH1 0x24 PUSH1 0x0 REVERT JUMPDEST PUSH4 0x4E487B71 PUSH1 0xE0 SHL PUSH1 0x0 MSTORE PUSH1 0x41 PUSH1 0x4 MSTORE PUSH1 0x24 PUSH1 0x0 REVERT JUMPDEST PUSH1 0x1 PUSH1 0x1 PUSH1 0xA0 SHL SUB DUP2 AND DUP2 EQ PUSH2 0x2400 JUMPI PUSH1 0x0 DUP1 REVERT INVALID LOG2 PUSH5 0x6970667358 0x22 SLT KECCAK256 SWAP3 0xD2 BALANCE 0xE 0x4D PUSH29 0x8A3E438C8A2C0FEF1C99F82A450B5455A65059648E77FE55279264736F PUSH13 0x63430008070033000000000000 "},"methodIdentifiers":{"acceptOwnership()":"79ba5097","addSimulatedRequestId(address,bytes32)":"30bda99d","checkInsuranceData()":"e0919101","currentTime()":"d18e81b3","estimateCost((uint8,uint8,uint8,string,bytes,string[]),uint64,uint32,uint256)":"d4b39175","estimateInsurance(string,bytes,string[],uint64,uint32)":"985454ff","getCurrentTime()":"29cb924d","getDONPublicKey()":"d328a91e","getLatestPrice()":"8e15f473","getRandomWords()":"ce10b1fb","handleOracleFulfillment(bytes32,bytes,bytes)":"0ca76175","helloWorld()":"c605f76c","insuranceDataMapping(address,uint256)":"2142735a","latestError()":"fffeb84e","latestRequestId()":"1aa46f59","latestResponse()":"bef3a2f0","owner()":"8da5cb5b","priceFeed()":"741bef1a","randomFeed()":"126455dd","receiveRandomness(uint256,uint256[])":"37f9c70d","transferOwnership(address)":"f2fde38b","updateOracleAddress(address)":"f7023bb6"}},"storageLayout":{"storage":[{"astId":1696,"contract":"contracts/Insurance.sol:Insurance","label":"s_oracle","offset":0,"slot":"0","type":"t_contract(FunctionsOracleInterface)2130"},{"astId":1700,"contract":"contracts/Insurance.sol:Insurance","label":"s_pendingRequests","offset":0,"slot":"1","type":"t_mapping(t_bytes32,t_address)"},{"astId":27,"contract":"contracts/Insurance.sol:Insurance","label":"s_owner","offset":0,"slot":"2","type":"t_address"},{"astId":29,"contract":"contracts/Insurance.sol:Insurance","label":"s_pendingOwner","offset":0,"slot":"3","type":"t_address"},{"astId":427,"contract":"contracts/Insurance.sol:Insurance","label":"priceFeed","offset":0,"slot":"4","type":"t_contract(PriceConsumerV3)1088"},{"astId":430,"contract":"contracts/Insurance.sol:Insurance","label":"randomFeed","offset":0,"slot":"5","type":"t_contract(VRFv2Consumer)1340"},{"astId":436,"contract":"contracts/Insurance.sol:Insurance","label":"latestRequestId","offset":0,"slot":"6","type":"t_bytes32"},{"astId":438,"contract":"contracts/Insurance.sol:Insurance","label":"latestResponse","offset":0,"slot":"7","type":"t_bytes_storage"},{"astId":440,"contract":"contracts/Insurance.sol:Insurance","label":"latestError","offset":0,"slot":"8","type":"t_bytes_storage"},{"astId":481,"contract":"contracts/Insurance.sol:Insurance","label":"currentTime","offset":0,"slot":"9","type":"t_uint256"},{"astId":578,"contract":"contracts/Insurance.sol:Insurance","label":"insuranceDataMapping","offset":0,"slot":"10","type":"t_mapping(t_address,t_array(t_struct(InsuranceData)509_storage)dyn_storage)"}],"types":{"t_address":{"encoding":"inplace","label":"address","numberOfBytes":"20"},"t_array(t_struct(InsuranceData)509_storage)dyn_storage":{"base":"t_struct(InsuranceData)509_storage","encoding":"dynamic_array","label":"struct Insurance.InsuranceData[]","numberOfBytes":"32"},"t_array(t_uint256)dyn_storage":{"base":"t_uint256","encoding":"dynamic_array","label":"uint256[]","numberOfBytes":"32"},"t_bytes32":{"encoding":"inplace","label":"bytes32","numberOfBytes":"32"},"t_bytes_storage":{"encoding":"bytes","label":"bytes","numberOfBytes":"32"},"t_contract(FunctionsOracleInterface)2130":{"encoding":"inplace","label":"contract FunctionsOracleInterface","numberOfBytes":"20"},"t_contract(PriceConsumerV3)1088":{"encoding":"inplace","label":"contract PriceConsumerV3","numberOfBytes":"20"},"t_contract(VRFv2Consumer)1340":{"encoding":"inplace","label":"contract VRFv2Consumer","numberOfBytes":"20"},"t_mapping(t_address,t_array(t_struct(InsuranceData)509_storage)dyn_storage)":{"encoding":"mapping","key":"t_address","label":"mapping(address => struct Insurance.InsuranceData[])","numberOfBytes":"32","value":"t_array(t_struct(InsuranceData)509_storage)dyn_storage"},"t_mapping(t_bytes32,t_address)":{"encoding":"mapping","key":"t_bytes32","label":"mapping(bytes32 => address)","numberOfBytes":"32","value":"t_address"},"t_string_storage":{"encoding":"bytes","label":"string","numberOfBytes":"32"},"t_struct(InsuranceData)509_storage":{"encoding":"inplace","label":"struct Insurance.InsuranceData","members":[{"astId":483,"contract":"contracts/Insurance.sol:Insurance","label":"latNe","offset":0,"slot":"0","type":"t_string_storage"},{"astId":485,"contract":"contracts/Insurance.sol:Insurance","label":"longNe","offset":0,"slot":"1","type":"t_string_storage"},{"astId":487,"contract":"contracts/Insurance.sol:Insurance","label":"latSe","offset":0,"slot":"2","type":"t_string_storage"},{"astId":489,"contract":"contracts/Insurance.sol:Insurance","label":"longSe","offset":0,"slot":"3","type":"t_string_storage"},{"astId":491,"contract":"contracts/Insurance.sol:Insurance","label":"latSw","offset":0,"slot":"4","type":"t_string_storage"},{"astId":493,"contract":"contracts/Insurance.sol:Insurance","label":"longSw","offset":0,"slot":"5","type":"t_string_storage"},{"astId":495,"contract":"contracts/Insurance.sol:Insurance","label":"latNw","offset":0,"slot":"6","type":"t_string_storage"},{"astId":497,"contract":"contracts/Insurance.sol:Insurance","label":"longNw","offset":0,"slot":"7","type":"t_string_storage"},{"astId":499,"contract":"contracts/Insurance.sol:Insurance","label":"configParam","offset":0,"slot":"8","type":"t_string_storage"},{"astId":501,"contract":"contracts/Insurance.sol:Insurance","label":"currentDay","offset":0,"slot":"9","type":"t_string_storage"},{"astId":503,"contract":"contracts/Insurance.sol:Insurance","label":"startDay","offset":0,"slot":"10","type":"t_string_storage"},{"astId":505,"contract":"contracts/Insurance.sol:Insurance","label":"endDay","offset":0,"slot":"11","type":"t_string_storage"},{"astId":508,"contract":"contracts/Insurance.sol:Insurance","label":"randomPoints","offset":0,"slot":"12","type":"t_array(t_uint256)dyn_storage"}],"numberOfBytes":"416"},"t_uint256":{"encoding":"inplace","label":"uint256","numberOfBytes":"32"}}}}}}