{"contracts/insurances/Drought.sol":{"Drought":{"abi":[{"inputs":[],"name":"getType","outputs":[{"internalType":"string","name":"","type":"string"}],"stateMutability":"pure","type":"function"}],"evm":{"bytecode":{"linkReferences":{},"object":"608060405234801561001057600080fd5b5060fb8061001f6000396000f3fe6080604052348015600f57600080fd5b506004361060285760003560e01c806315dae03e14602d575b600080fd5b604080518082018252600781527f64726f756768740000000000000000000000000000000000000000000000000060208201529051606a91906073565b60405180910390f35b600060208083528351808285015260005b81811015609e578581018301518582016040015282016084565b8181111560af576000604083870101525b50601f01601f191692909201604001939250505056fea2646970667358221220bbc93f16b8a45765fbc3933d64554c4481a6d8f1246cbad7178cb054ca111b3c64736f6c63430008070033","opcodes":"PUSH1 0x80 PUSH1 0x40 MSTORE CALLVALUE DUP1 ISZERO PUSH2 0x10 JUMPI PUSH1 0x0 DUP1 REVERT JUMPDEST POP PUSH1 0xFB DUP1 PUSH2 0x1F PUSH1 0x0 CODECOPY PUSH1 0x0 RETURN INVALID PUSH1 0x80 PUSH1 0x40 MSTORE CALLVALUE DUP1 ISZERO PUSH1 0xF JUMPI PUSH1 0x0 DUP1 REVERT JUMPDEST POP PUSH1 0x4 CALLDATASIZE LT PUSH1 0x28 JUMPI PUSH1 0x0 CALLDATALOAD PUSH1 0xE0 SHR DUP1 PUSH4 0x15DAE03E EQ PUSH1 0x2D JUMPI JUMPDEST PUSH1 0x0 DUP1 REVERT JUMPDEST PUSH1 0x40 DUP1 MLOAD DUP1 DUP3 ADD DUP3 MSTORE PUSH1 0x7 DUP2 MSTORE PUSH32 0x64726F7567687400000000000000000000000000000000000000000000000000 PUSH1 0x20 DUP3 ADD MSTORE SWAP1 MLOAD PUSH1 0x6A SWAP2 SWAP1 PUSH1 0x73 JUMP JUMPDEST PUSH1 0x40 MLOAD DUP1 SWAP2 SUB SWAP1 RETURN JUMPDEST PUSH1 0x0 PUSH1 0x20 DUP1 DUP4 MSTORE DUP4 MLOAD DUP1 DUP3 DUP6 ADD MSTORE PUSH1 0x0 JUMPDEST DUP2 DUP2 LT ISZERO PUSH1 0x9E JUMPI DUP6 DUP2 ADD DUP4 ADD MLOAD DUP6 DUP3 ADD PUSH1 0x40 ADD MSTORE DUP3 ADD PUSH1 0x84 JUMP JUMPDEST DUP2 DUP2 GT ISZERO PUSH1 0xAF JUMPI PUSH1 0x0 PUSH1 0x40 DUP4 DUP8 ADD ADD MSTORE JUMPDEST POP PUSH1 0x1F ADD PUSH1 0x1F NOT AND SWAP3 SWAP1 SWAP3 ADD PUSH1 0x40 ADD SWAP4 SWAP3 POP POP POP JUMP INVALID LOG2 PUSH5 0x6970667358 0x22 SLT KECCAK256 0xBB 0xC9 EXTCODEHASH AND 0xB8 LOG4 JUMPI PUSH6 0xFBC3933D6455 0x4C DIFFICULTY DUP2 0xA6 0xD8 CALL 0x24 PUSH13 0xBAD7178CB054CA111B3C64736F PUSH13 0x63430008070033000000000000 "},"methodIdentifiers":{"getType()":"15dae03e"}},"storageLayout":{"storage":[],"types":null}}}}