{"contracts/LinkMaticPrice.sol":{"PriceConsumerV3":{"abi":[{"inputs":[],"stateMutability":"nonpayable","type":"constructor"},{"inputs":[],"name":"getLatestPrice","outputs":[{"internalType":"int256","name":"","type":"int256"}],"stateMutability":"view","type":"function"}],"evm":{"bytecode":{"linkReferences":{},"object":"608060405234801561001057600080fd5b50600080546001600160a01b031916731b44f3514812d835eb1bdb0acb33d3fa3351ee4317905561019d806100466000396000f3fe608060405234801561001057600080fd5b506004361061002b5760003560e01c80638e15f47314610030575b600080fd5b61003861004a565b60405190815260200160405180910390f35b60008054604080517ffeaf968c0000000000000000000000000000000000000000000000000000000081529051839273ffffffffffffffffffffffffffffffffffffffff169163feaf968c9160048083019260a0929190829003018186803b1580156100b557600080fd5b505afa1580156100c9573d6000803e3d6000fd5b505050506040513d601f19601f820116820180604052508101906100ed9190610117565b509195945050505050565b805169ffffffffffffffffffff8116811461011257600080fd5b919050565b600080600080600060a0868803121561012f57600080fd5b610138866100f8565b945060208601519350604086015192506060860151915061015b608087016100f8565b9050929550929590935056fea264697066735822122091d425ff65df2064d39a80ee25aca1dc5a2d1e60ab611471b87423cf3fb567ce64736f6c63430008070033","opcodes":"PUSH1 0x80 PUSH1 0x40 MSTORE CALLVALUE DUP1 ISZERO PUSH2 0x10 JUMPI PUSH1 0x0 DUP1 REVERT JUMPDEST POP PUSH1 0x0 DUP1 SLOAD PUSH1 0x1 PUSH1 0x1 PUSH1 0xA0 SHL SUB NOT AND PUSH20 0x1B44F3514812D835EB1BDB0ACB33D3FA3351EE43 OR SWAP1 SSTORE PUSH2 0x19D DUP1 PUSH2 0x46 PUSH1 0x0 CODECOPY PUSH1 0x0 RETURN INVALID PUSH1 0x80 PUSH1 0x40 MSTORE CALLVALUE DUP1 ISZERO PUSH2 0x10 JUMPI PUSH1 0x0 DUP1 REVERT JUMPDEST POP PUSH1 0x4 CALLDATASIZE LT PUSH2 0x2B JUMPI PUSH1 0x0 CALLDATALOAD PUSH1 0xE0 SHR DUP1 PUSH4 0x8E15F473 EQ PUSH2 0x30 JUMPI JUMPDEST PUSH1 0x0 DUP1 REVERT JUMPDEST PUSH2 0x38 PUSH2 0x4A JUMP JUMPDEST PUSH1 0x40 MLOAD SWAP1 DUP2 MSTORE PUSH1 0x20 ADD PUSH1 0x40 MLOAD DUP1 SWAP2 SUB SWAP1 RETURN JUMPDEST PUSH1 0x0 DUP1 SLOAD PUSH1 0x40 DUP1 MLOAD PUSH32 0xFEAF968C00000000000000000000000000000000000000000000000000000000 DUP2 MSTORE SWAP1 MLOAD DUP4 SWAP3 PUSH20 0xFFFFFFFFFFFFFFFFFFFFFFFFFFFFFFFFFFFFFFFF AND SWAP2 PUSH4 0xFEAF968C SWAP2 PUSH1 0x4 DUP1 DUP4 ADD SWAP3 PUSH1 0xA0 SWAP3 SWAP2 SWAP1 DUP3 SWAP1 SUB ADD DUP2 DUP7 DUP1 EXTCODESIZE ISZERO DUP1 ISZERO PUSH2 0xB5 JUMPI PUSH1 0x0 DUP1 REVERT JUMPDEST POP GAS STATICCALL ISZERO DUP1 ISZERO PUSH2 0xC9 JUMPI RETURNDATASIZE PUSH1 0x0 DUP1 RETURNDATACOPY RETURNDATASIZE PUSH1 0x0 REVERT JUMPDEST POP POP POP POP PUSH1 0x40 MLOAD RETURNDATASIZE PUSH1 0x1F NOT PUSH1 0x1F DUP3 ADD AND DUP3 ADD DUP1 PUSH1 0x40 MSTORE POP DUP2 ADD SWAP1 PUSH2 0xED SWAP2 SWAP1 PUSH2 0x117 JUMP JUMPDEST POP SWAP2 SWAP6 SWAP5 POP POP POP POP POP JUMP JUMPDEST DUP1 MLOAD PUSH10 0xFFFFFFFFFFFFFFFFFFFF DUP2 AND DUP2 EQ PUSH2 0x112 JUMPI PUSH1 0x0 DUP1 REVERT JUMPDEST SWAP2 SWAP1 POP JUMP JUMPDEST PUSH1 0x0 DUP1 PUSH1 0x0 DUP1 PUSH1 0x0 PUSH1 0xA0 DUP7 DUP9 SUB SLT ISZERO PUSH2 0x12F JUMPI PUSH1 0x0 DUP1 REVERT JUMPDEST PUSH2 0x138 DUP7 PUSH2 0xF8 JUMP JUMPDEST SWAP5 POP PUSH1 0x20 DUP7 ADD MLOAD SWAP4 POP PUSH1 0x40 DUP7 ADD MLOAD SWAP3 POP PUSH1 0x60 DUP7 ADD MLOAD SWAP2 POP PUSH2 0x15B PUSH1 0x80 DUP8 ADD PUSH2 0xF8 JUMP JUMPDEST SWAP1 POP SWAP3 SWAP6 POP SWAP3 SWAP6 SWAP1 SWAP4 POP JUMP INVALID LOG2 PUSH5 0x6970667358 0x22 SLT KECCAK256 SWAP2 0xD4 0x25 SELFDESTRUCT PUSH6 0xDF2064D39A80 0xEE 0x25 0xAC LOG1 0xDC GAS 0x2D 0x1E PUSH1 0xAB PUSH2 0x1471 0xB8 PUSH21 0x23CF3FB567CE64736F6C6343000807003300000000 "},"methodIdentifiers":{"getLatestPrice()":"8e15f473"}},"storageLayout":{"storage":[{"astId":743,"contract":"contracts/LinkMaticPrice.sol:PriceConsumerV3","label":"priceFeed","offset":0,"slot":"0","type":"t_contract(AggregatorV3Interface)227"}],"types":{"t_contract(AggregatorV3Interface)227":{"encoding":"inplace","label":"contract AggregatorV3Interface","numberOfBytes":"20"}}}}}}