{"contracts/CheckPayout.sol":{"CheckPayout":{"abi":[{"inputs":[{"internalType":"address","name":"oracle","type":"address"},{"internalType":"address","name":"insuranceAddress","type":"address"}],"stateMutability":"nonpayable","type":"constructor"},{"inputs":[],"name":"EmptyArgs","type":"error"},{"inputs":[],"name":"EmptySource","type":"error"},{"inputs":[],"name":"NoInlineSecrets","type":"error"},{"inputs":[],"name":"RequestIsAlreadyPending","type":"error"},{"inputs":[],"name":"RequestIsNotPending","type":"error"},{"inputs":[],"name":"SenderIsNotRegistry","type":"error"},{"anonymous":false,"inputs":[{"indexed":true,"internalType":"bytes32","name":"requestId","type":"bytes32"},{"indexed":false,"internalType":"bytes","name":"result","type":"bytes"},{"indexed":false,"internalType":"bytes","name":"err","type":"bytes"}],"name":"OCRResponse","type":"event"},{"anonymous":false,"inputs":[{"indexed":true,"internalType":"address","name":"from","type":"address"},{"indexed":true,"internalType":"address","name":"to","type":"address"}],"name":"OwnershipTransferRequested","type":"event"},{"anonymous":false,"inputs":[{"indexed":true,"internalType":"address","name":"from","type":"address"},{"indexed":true,"internalType":"address","name":"to","type":"address"}],"name":"OwnershipTransferred","type":"event"},{"anonymous":false,"inputs":[{"indexed":false,"internalType":"address","name":"originalSender","type":"address"},{"indexed":false,"internalType":"uint256","name":"payoutAmount","type":"uint256"}],"name":"Payout","type":"event"},{"anonymous":false,"inputs":[{"indexed":false,"internalType":"address","name":"originalSender","type":"address"},{"indexed":false,"internalType":"uint256","name":"policyIndex","type":"uint256"}],"name":"PolicyEnded","type":"event"},{"anonymous":false,"inputs":[{"indexed":true,"internalType":"bytes32","name":"id","type":"bytes32"}],"name":"RequestFulfilled","type":"event"},{"anonymous":false,"inputs":[{"indexed":true,"internalType":"bytes32","name":"id","type":"bytes32"}],"name":"RequestSent","type":"event"},{"anonymous":false,"inputs":[{"indexed":false,"internalType":"address","name":"originalSender","type":"address"},{"indexed":false,"internalType":"uint256","name":"policyIndex","type":"uint256"},{"indexed":false,"internalType":"uint256","name":"timeRemaining","type":"uint256"}],"name":"TimeRemaining","type":"event"},{"anonymous":false,"inputs":[{"indexed":false,"internalType":"string[]","name":"args","type":"string[]"}],"name":"UsingArgs","type":"event"},{"inputs":[],"name":"acceptOwnership","outputs":[],"stateMutability":"nonpayable","type":"function"},{"inputs":[{"internalType":"address","name":"oracleAddress","type":"address"},{"internalType":"bytes32","name":"requestId","type":"bytes32"}],"name":"addSimulatedRequestId","outputs":[],"stateMutability":"nonpayable","type":"function"},{"inputs":[{"internalType":"string","name":"source","type":"string"},{"internalType":"string[]","name":"args","type":"string[]"},{"internalType":"uint64","name":"subscriptionId","type":"uint64"},{"internalType":"uint32","name":"gasLimit","type":"uint32"},{"internalType":"uint256","name":"policyIndex","type":"uint256"}],"name":"checkPolicy","outputs":[{"internalType":"bytes32","name":"","type":"bytes32"}],"stateMutability":"nonpayable","type":"function"},{"inputs":[{"components":[{"internalType":"enum Functions.Location","name":"codeLocation","type":"uint8"},{"internalType":"enum Functions.Location","name":"secretsLocation","type":"uint8"},{"internalType":"enum Functions.CodeLanguage","name":"language","type":"uint8"},{"internalType":"string","name":"source","type":"string"},{"internalType":"bytes","name":"secrets","type":"bytes"},{"internalType":"string[]","name":"args","type":"string[]"}],"internalType":"struct Functions.Request","name":"req","type":"tuple"},{"internalType":"uint64","name":"subscriptionId","type":"uint64"},{"internalType":"uint32","name":"gasLimit","type":"uint32"},{"internalType":"uint256","name":"gasPrice","type":"uint256"}],"name":"estimateCost","outputs":[{"internalType":"uint96","name":"","type":"uint96"}],"stateMutability":"view","type":"function"},{"inputs":[],"name":"getDONPublicKey","outputs":[{"internalType":"bytes","name":"","type":"bytes"}],"stateMutability":"view","type":"function"},{"inputs":[{"internalType":"bytes32","name":"requestId","type":"bytes32"},{"internalType":"bytes","name":"response","type":"bytes"},{"internalType":"bytes","name":"err","type":"bytes"}],"name":"handleOracleFulfillment","outputs":[],"stateMutability":"nonpayable","type":"function"},{"inputs":[],"name":"insuranceContract","outputs":[{"internalType":"contract Insurance","name":"","type":"address"}],"stateMutability":"view","type":"function"},{"inputs":[],"name":"latestError","outputs":[{"internalType":"bytes","name":"","type":"bytes"}],"stateMutability":"view","type":"function"},{"inputs":[],"name":"latestRequestId","outputs":[{"internalType":"bytes32","name":"","type":"bytes32"}],"stateMutability":"view","type":"function"},{"inputs":[],"name":"latestResponse","outputs":[{"internalType":"bytes","name":"","type":"bytes"}],"stateMutability":"view","type":"function"},{"inputs":[],"name":"owner","outputs":[{"internalType":"address","name":"","type":"address"}],"stateMutability":"view","type":"function"},{"inputs":[{"internalType":"bytes32","name":"","type":"bytes32"}],"name":"requestIdToPolicyIndex","outputs":[{"internalType":"uint256","name":"","type":"uint256"}],"stateMutability":"view","type":"function"},{"inputs":[{"internalType":"bytes32","name":"","type":"bytes32"}],"name":"requestIdToSender","outputs":[{"internalType":"address","name":"","type":"address"}],"stateMutability":"view","type":"function"},{"inputs":[{"internalType":"string","name":"s","type":"string"}],"name":"stringToUint256","outputs":[{"internalType":"uint256","name":"","type":"uint256"}],"stateMutability":"pure","type":"function"},{"inputs":[{"internalType":"address","name":"to","type":"address"}],"name":"transferOwnership","outputs":[],"stateMutability":"nonpayable","type":"function"},{"inputs":[{"internalType":"address","name":"oracle","type":"address"}],"name":"updateOracleAddress","outputs":[],"stateMutability":"nonpayable","type":"function"}],"evm":{"bytecode":{"linkReferences":{},"object":"60806040523480156200001157600080fd5b5060405162002db438038062002db48339810160408190526200003491620001d8565b600080546001600160a01b0319166001600160a01b038416178155339081906001600160a01b038216620000af5760405162461bcd60e51b815260206004820152601860248201527f43616e6e6f7420736574206f776e657220746f207a65726f000000000000000060448201526064015b60405180910390fd5b600280546001600160a01b0319166001600160a01b0384811691909117909155811615620000e257620000e2816200010e565b5050600780546001600160a01b0319166001600160a01b03939093169290921790915550620002109050565b6001600160a01b038116331415620001695760405162461bcd60e51b815260206004820152601760248201527f43616e6e6f74207472616e7366657220746f2073656c660000000000000000006044820152606401620000a6565b600380546001600160a01b0319166001600160a01b03838116918217909255600254604051919216907fed8889f560326eb138920d842192f0eb3dd22b4f139c87a2c57538e05bae127890600090a350565b80516001600160a01b0381168114620001d357600080fd5b919050565b60008060408385031215620001ec57600080fd5b620001f783620001bb565b91506200020760208401620001bb565b90509250929050565b612b9480620002206000396000f3fe608060405234801561001057600080fd5b50600436106101005760003560e01c8063ac5d372311610097578063d4b3917511610066578063d4b3917514610219578063f2fde38b14610249578063f7023bb61461025c578063fffeb84e1461026f57600080fd5b8063ac5d3723146101d6578063bef3a2f0146101e9578063d012a5a8146101fe578063d328a91e1461021157600080fd5b80634732889d116100d35780634732889d1461018a57806379ba5097146101aa5780637f30dfa9146101b25780638da5cb5b146101c557600080fd5b80630ca76175146101055780631aa46f591461011a578063219c0eee1461013657806330bda99d14610177575b600080fd5b61011861011336600461218d565b610277565b005b61012360045481565b6040519081526020015b60405180910390f35b61015f61014436600461215b565b6009602052600090815260409020546001600160a01b031681565b6040516001600160a01b03909116815260200161012d565b61011861018536600461212f565b61031d565b61012361019836600461215b565b60086020526000908152604090205481565b610118610333565b6101236101c036600461224b565b6103ed565b6002546001600160a01b031661015f565b6101236101e4366004612311565b610abb565b6101f1610b3d565b60405161012d919061277a565b60075461015f906001600160a01b031681565b6101f1610bcb565b61022c6102273660046125ac565b610c69565b6040516bffffffffffffffffffffffff909116815260200161012d565b6101186102573660046120f5565b610cff565b61011861026a3660046120f5565b610d13565b6101f1610d39565b60008381526001602052604090205483906001600160a01b031633146102c9576040517fa0c5ec6300000000000000000000000000000000000000000000000000000000815260040160405180910390fd5b60008181526001602052604080822080546001600160a01b03191690555182917f85e1543bf2f84fe80c6badbce3648c8539ad1df4d2b3d822938ca0538be727e691a2610317848484610d46565b50505050565b610325611148565b61032f82826111a4565b5050565b6003546001600160a01b031633146103925760405162461bcd60e51b815260206004820152601660248201527f4d7573742062652070726f706f736564206f776e65720000000000000000000060448201526064015b60405180910390fd5b600280546001600160a01b0319808216339081179093556003805490911690556040516001600160a01b03909116919082907f8be0079c531659141344cd1fd0a4f28419497f9722a3daafe3b4186f6b6457e090600090a350565b60006103f7611db0565b6007546040516361875d8d60e01b8152336004820152602481018590526001600160a01b03909116906361875d8d9060440160006040518083038186803b15801561044157600080fd5b505afa158015610455573d6000803e3d6000fd5b505050506040513d6000823e601f3d908101601f1916820160405261047d9190810190612346565b81526007546040517f6ec7be7e000000000000000000000000000000000000000000000000000000008152336004820152602481018590526000916001600160a01b031690636ec7be7e9060440160206040518083038186803b1580156104e357600080fd5b505afa1580156104f7573d6000803e3d6000fd5b505050506040513d601f19601f8201168201806040525081019061051b9190612174565b6007546040517f215fc625000000000000000000000000000000000000000000000000000000008152600481018390529192506001600160a01b03169063215fc6259060240160606040518083038186803b15801561057957600080fd5b505afa15801561058d573d6000803e3d6000fd5b505050506040513d601f19601f820116820180604052508101906105b1919061254a565b602083018190526040015160006105c989600e612914565b67ffffffffffffffff8111156105e1576105e1612b33565b60405190808252806020026020018201604052801561061457816020015b60608152602001906001900390816105ff5790505b50905060005b898110156106ac578a8a8281811061063457610634612b1d565b90506020028101906106469190612827565b8080601f016020809104026020016040519081016040528093929190818152602001838380828437600092019190915250508451859250849150811061068e5761068e612b1d565b602002602001018190525080806106a490612ab4565b91505061061a565b50835151815182908b9081106106c4576106c4612b1d565b60209081029190910181019190915284510151816106e38b6001612914565b815181106106f3576106f3612b1d565b6020908102919091010152835160400151816107108b6002612914565b8151811061072057610720612b1d565b60209081029190910101528351606001518161073d8b6003612914565b8151811061074d5761074d612b1d565b60209081029190910101528351608001518161076a8b6004612914565b8151811061077a5761077a612b1d565b6020908102919091010152835160a00151816107978b6005612914565b815181106107a7576107a7612b1d565b6020908102919091010152835160c00151816107c48b6006612914565b815181106107d4576107d4612b1d565b6020908102919091010152835160e00151816107f18b6007612914565b8151811061080157610801612b1d565b6020908102919091010152835161010001518161081f8b6008612914565b8151811061082f5761082f612b1d565b6020908102919091010152835161012001518161084d8b6009612914565b8151811061085d5761085d612b1d565b6020908102919091010152835161014001518161087b8b600a612914565b8151811061088b5761088b612b1d565b602002602001018190525061089f42611224565b816108ab8b600b612914565b815181106108bb576108bb612b1d565b602090810291909101015283516101600151816108d98b600c612914565b815181106108e9576108e9612b1d565b6020026020010181905250610982600760009054906101000a90046001600160a01b03166001600160a01b031663b91ce2056040518163ffffffff1660e01b815260040160206040518083038186803b15801561094557600080fd5b505afa158015610959573d6000803e3d6000fd5b505050506040513d601f19601f8201168201806040525081019061097d9190612174565b611224565b8161098e8b600d612914565b8151811061099e5761099e612b1d565b60200260200101819052506109e36040805160c08101909152806000815260200160008152602001600081526020016060815260200160608152602001606081525090565b610a2a6000808f8f8080601f016020809104026020016040519081016040528093929190818152602001838380828437600092019190915250879594939250506112c69050565b610a34818361135a565b7f930a61d412ee04b567f790d1232c1fe3d797de7bfa1f99ba4b6e7fcc7448521f82604051610a639190612718565b60405180910390a16000610a78828b8b61139a565b600481905560008181526008602090815260408083208c90556009909152902080546001600160a01b031916331790559650505050505050979650505050505050565b60008181805b8251811015610b35576000838281518110610ade57610ade612b1d565b016020015160f81c905060308110801590610afa575060398111155b15610b2257610b0a603082612a36565b610b1584600a612a17565b610b1f9190612914565b92505b5080610b2d81612ab4565b915050610ac1565b509392505050565b60058054610b4a90612a79565b80601f0160208091040260200160405190810160405280929190818152602001828054610b7690612a79565b8015610bc35780601f10610b9857610100808354040283529160200191610bc3565b820191906000526020600020905b815481529060010190602001808311610ba657829003601f168201915b505050505081565b60008054604080517fd328a91e00000000000000000000000000000000000000000000000000000000815290516060936001600160a01b039093169263d328a91e9260048082019391829003018186803b158015610c2857600080fd5b505afa158015610c3c573d6000803e3d6000fd5b505050506040513d6000823e601f3d908101601f19168201604052610c6491908101906121fa565b905090565b600080546001600160a01b031663d227d24585610c858861150e565b86866040518563ffffffff1660e01b8152600401610ca694939291906127eb565b60206040518083038186803b158015610cbe57600080fd5b505afa158015610cd2573d6000803e3d6000fd5b505050506040513d601f19601f82011682018060405250810190610cf691906126be565b95945050505050565b610d07611148565b610d10816117da565b50565b610d1b611148565b600080546001600160a01b0319166001600160a01b03831617905550565b60068054610b4a90612a79565b8151610d59906005906020850190611e42565b508051610d6d906006906020840190611e42565b50827f7bab0ec163b5c132c72b8146ac4d6e067e82ed58f8b131150aa71c92589115628383604051610da092919061278d565b60405180910390a260008381526008602090815260408083205460099092528083205460075491516361875d8d60e01b81526001600160a01b03918216600482018190526024820185905293949291909116906361875d8d9060440160006040518083038186803b158015610e1457600080fd5b505afa158015610e28573d6000803e3d6000fd5b505050506040513d6000823e601f3d908101601f19168201604052610e509190810190612346565b6007546040517fcc9de25d0000000000000000000000000000000000000000000000000000000081529192506000916001600160a01b039091169063cc9de25d90610e9f90899060040161277a565b60206040518083038186803b158015610eb757600080fd5b505afa158015610ecb573d6000803e3d6000fd5b505050506040513d601f19601f82011682018060405250810190610eef9190612174565b90508015611024576007546040517fecd831e80000000000000000000000000000000000000000000000000000000081526001600160a01b038581166004830152602482018490529091169063ecd831e890604401600060405180830381600087803b158015610f5e57600080fd5b505af1158015610f72573d6000803e3d6000fd5b5050600754604051632f1635a360e21b81526001600160a01b03878116600483015260248201899052909116925063bc58d68c9150604401600060405180830381600087803b158015610fc457600080fd5b505af1158015610fd8573d6000803e3d6000fd5b5050604080516001600160a01b0387168152602081018590527f5afeca38b2064c23a692c4cf353015d80ab3ecc417b4f893f372690c11fbd9a6935001905060405180910390a161113f565b6000611034836101400151610abb565b9050804211156110e857600754604051632f1635a360e21b81526001600160a01b038681166004830152602482018890529091169063bc58d68c90604401600060405180830381600087803b15801561108c57600080fd5b505af11580156110a0573d6000803e3d6000fd5b5050604080516001600160a01b0388168152602081018990527f05e258a8da32249e7d7e1ebcd6b64f7c97c4235999db64b6687191b183d5e3f2935001905060405180910390a15b7f59d77641060cafc4d86dddd4bd9c687bbfbd23fb4b1962869afe9f54507105ea84866111154285612a36565b604080516001600160a01b03909416845260208401929092529082015260600160405180910390a1505b50505050505050565b6002546001600160a01b031633146111a25760405162461bcd60e51b815260206004820152601660248201527f4f6e6c792063616c6c61626c65206279206f776e6572000000000000000000006044820152606401610389565b565b60008181526001602052604090205481906001600160a01b0316156111f5576040517f8b457ad200000000000000000000000000000000000000000000000000000000815260040160405180910390fd5b50600090815260016020526040902080546001600160a01b0319166001600160a01b0392909216919091179055565b6060600061123183611885565b600101905060008167ffffffffffffffff81111561125157611251612b33565b6040519080825280601f01601f19166020018201604052801561127b576020820181803683370190505b5090508181016020015b600019017f3031323334353637383961626364656600000000000000000000000000000000600a86061a8153600a85049450846112c157610b35565b611285565b80516112fe576040517f22ce3edd00000000000000000000000000000000000000000000000000000000815260040160405180910390fd5b8383600181111561131157611311612b07565b9081600181111561132457611324612b07565b9052506040840182801561133a5761133a612b07565b9081801561134a5761134a612b07565b9052506060909301929092525050565b8051611392576040517ffe936cb700000000000000000000000000000000000000000000000000000000815260040160405180910390fd5b60a090910152565b6000805481906001600160a01b03166328242b04856113b88861150e565b866040518463ffffffff1660e01b81526004016113d7939291906127b2565b602060405180830381600087803b1580156113f157600080fd5b505af1158015611405573d6000803e3d6000fd5b505050506040513d601f19601f820116820180604052508101906114299190612174565b905060008054906101000a90046001600160a01b03166001600160a01b0316635ab1bd536040518163ffffffff1660e01b815260040160206040518083038186803b15801561147757600080fd5b505afa15801561148b573d6000803e3d6000fd5b505050506040513d601f19601f820116820180604052508101906114af9190612112565b60008281526001602052604080822080546001600160a01b0319166001600160a01b039490941693909317909255905182917f1131472297a800fee664d1d89cfa8f7676ff07189ecc53f80bbb5f4969099db891a290505b9392505050565b6060611518611ec6565b805161152690610100611968565b50611566816040518060400160405280600c81526020017f636f64654c6f636174696f6e00000000000000000000000000000000000000008152506119df565b611585818460000151600181111561158057611580612b07565b6119fd565b6115c4816040518060400160405280600881526020017f6c616e67756167650000000000000000000000000000000000000000000000008152506119df565b6115de818460400151600081111561158057611580612b07565b61161d816040518060400160405280600681526020017f736f7572636500000000000000000000000000000000000000000000000000008152506119df565b61162b8184606001516119df565b60a083015151156116d157611675816040518060400160405280600481526020017f61726773000000000000000000000000000000000000000000000000000000008152506119df565b61167e81611a36565b60005b8360a00151518110156116c7576116b5828560a0015183815181106116a8576116a8612b1d565b60200260200101516119df565b806116bf81612ab4565b915050611681565b506116d181611a5a565b608083015151156117d2576000836020015160018111156116f4576116f4612b07565b141561172c576040517fa80d31f700000000000000000000000000000000000000000000000000000000815260040160405180910390fd5b61176b816040518060400160405280600f81526020017f736563726574734c6f636174696f6e00000000000000000000000000000000008152506119df565b611785818460200151600181111561158057611580612b07565b6117c4816040518060400160405280600781526020017f73656372657473000000000000000000000000000000000000000000000000008152506119df565b6117d2818460800151611a78565b515192915050565b6001600160a01b0381163314156118335760405162461bcd60e51b815260206004820152601760248201527f43616e6e6f74207472616e7366657220746f2073656c660000000000000000006044820152606401610389565b600380546001600160a01b0319166001600160a01b03838116918217909255600254604051919216907fed8889f560326eb138920d842192f0eb3dd22b4f139c87a2c57538e05bae127890600090a350565b6000807a184f03e93ff9f4daa797ed6e38ed64bf6a1f01000000000000000083106118ce577a184f03e93ff9f4daa797ed6e38ed64bf6a1f010000000000000000830492506040015b6d04ee2d6d415b85acef810000000083106118fa576d04ee2d6d415b85acef8100000000830492506020015b662386f26fc10000831061191857662386f26fc10000830492506010015b6305f5e1008310611930576305f5e100830492506008015b612710831061194457612710830492506004015b60648310611956576064830492506002015b600a8310611962576001015b92915050565b604080518082019091526060815260006020820152611988602083612acf565b156119b057611998602083612acf565b6119a3906020612a36565b6119ad9083612914565b91505b6020808401839052604051808552600081529081840101818110156119d457600080fd5b604052509192915050565b6119ec8260038351611a81565b81516119f89082611ba2565b505050565b8151611a0a9060c2611bc3565b5061032f8282604051602001611a2291815260200190565b604051602081830303815290604052611a78565b611a41816004611c2c565b600181602001818151611a549190612914565b90525050565b611a65816007611c2c565b600181602001818151611a549190612a36565b6119ec82600283515b60178167ffffffffffffffff1611611aa85782516103179060e0600585901b168317611bc3565b60ff8167ffffffffffffffff1611611aea578251611ad1906018611fe0600586901b1617611bc3565b5082516103179067ffffffffffffffff83166001611c43565b61ffff8167ffffffffffffffff1611611b2d578251611b14906019611fe0600586901b1617611bc3565b5082516103179067ffffffffffffffff83166002611c43565b63ffffffff8167ffffffffffffffff1611611b72578251611b5990601a611fe0600586901b1617611bc3565b5082516103179067ffffffffffffffff83166004611c43565b8251611b8990601b611fe0600586901b1617611bc3565b5082516103179067ffffffffffffffff83166008611c43565b60408051808201909152606081526000602082015261150783838451611cc8565b6040805180820190915260608152600060208201528251516000611be8826001612914565b905084602001518210611c0957611c0985611c04836002612a17565b611d99565b8451602083820101858153508051821115611c22578181525b5093949350505050565b81516119f890601f611fe0600585901b1617611bc3565b6040805180820190915260608152600060208201528351516000611c678285612914565b90508560200151811115611c8457611c8486611c04836002612a17565b60006001611c948661010061296f565b611c9e9190612a36565b90508651828101878319825116178152508051831115611cbc578281525b50959695505050505050565b6040805180820190915260608152600060208201528251821115611ceb57600080fd5b8351516000611cfa8483612914565b90508560200151811115611d1757611d1786611c04836002612a17565b855180518382016020019160009180851115611d31578482525b505050602086015b60208610611d715780518252611d50602083612914565b9150611d5d602082612914565b9050611d6a602087612a36565b9550611d39565b51815160001960208890036101000a0190811690199190911617905250849150509392505050565b8151611da58383611968565b506103178382611ba2565b6040518060400160405280611e1f6040518061018001604052806060815260200160608152602001606081526020016060815260200160608152602001606081526020016060815260200160608152602001606081526020016060815260200160608152602001606081525090565b815260408051606081018252600080825260208281018290529282015291015290565b828054611e4e90612a79565b90600052602060002090601f016020900481019282611e705760008555611eb6565b82601f10611e8957805160ff1916838001178555611eb6565b82800160010185558215611eb6579182015b82811115611eb6578251825591602001919060010190611e9b565b50611ec2929150611efb565b5090565b6040518060400160405280611eee604051806040016040528060608152602001600081525090565b8152602001600081525090565b5b80821115611ec25760008155600101611efc565b6000611f23611f1e846128ec565b6128bb565b9050828152838383011115611f3757600080fd5b611507836020830184612a4d565b60008083601f840112611f5757600080fd5b50813567ffffffffffffffff811115611f6f57600080fd5b6020830191508360208260051b8501011115611f8a57600080fd5b9250929050565b600082601f830112611fa257600080fd5b8135602067ffffffffffffffff80831115611fbf57611fbf612b33565b8260051b611fce8382016128bb565b8481528381019087850183890186018a1015611fe957600080fd5b60009350835b8781101561202657813586811115612005578586fd5b6120138c89838e0101612035565b8552509286019290860190600101611fef565b50909998505050505050505050565b600082601f83011261204657600080fd5b8135612054611f1e826128ec565b81815284602083860101111561206957600080fd5b816020850160208301376000918101602001919091529392505050565b80356001811061209557600080fd5b919050565b80356002811061209557600080fd5b600082601f8301126120ba57600080fd5b61150783835160208501611f10565b803563ffffffff8116811461209557600080fd5b803567ffffffffffffffff8116811461209557600080fd5b60006020828403121561210757600080fd5b813561150781612b49565b60006020828403121561212457600080fd5b815161150781612b49565b6000806040838503121561214257600080fd5b823561214d81612b49565b946020939093013593505050565b60006020828403121561216d57600080fd5b5035919050565b60006020828403121561218657600080fd5b5051919050565b6000806000606084860312156121a257600080fd5b83359250602084013567ffffffffffffffff808211156121c157600080fd5b6121cd87838801612035565b935060408601359150808211156121e357600080fd5b506121f086828701612035565b9150509250925092565b60006020828403121561220c57600080fd5b815167ffffffffffffffff81111561222357600080fd5b8201601f8101841361223457600080fd5b61224384825160208401611f10565b949350505050565b600080600080600080600060a0888a03121561226657600080fd5b873567ffffffffffffffff8082111561227e57600080fd5b818a0191508a601f83011261229257600080fd5b8135818111156122a157600080fd5b8b60208285010111156122b357600080fd5b6020928301995097509089013590808211156122ce57600080fd5b506122db8a828b01611f45565b90965094506122ee9050604089016120dd565b92506122fc606089016120c9565b91506080880135905092959891949750929550565b60006020828403121561232357600080fd5b813567ffffffffffffffff81111561233a57600080fd5b61224384828501612035565b60006020828403121561235857600080fd5b815167ffffffffffffffff8082111561237057600080fd5b90830190610180828603121561238557600080fd5b61238d61286e565b82518281111561239c57600080fd5b6123a8878286016120a9565b8252506020830151828111156123bd57600080fd5b6123c9878286016120a9565b6020830152506040830151828111156123e157600080fd5b6123ed878286016120a9565b60408301525060608301518281111561240557600080fd5b612411878286016120a9565b60608301525060808301518281111561242957600080fd5b612435878286016120a9565b60808301525060a08301518281111561244d57600080fd5b612459878286016120a9565b60a08301525060c08301518281111561247157600080fd5b61247d878286016120a9565b60c08301525060e08301518281111561249557600080fd5b6124a1878286016120a9565b60e08301525061010080840151838111156124bb57600080fd5b6124c7888287016120a9565b82840152505061012080840151838111156124e157600080fd5b6124ed888287016120a9565b828401525050610140808401518381111561250757600080fd5b612513888287016120a9565b828401525050610160808401518381111561252d57600080fd5b612539888287016120a9565b918301919091525095945050505050565b60006060828403121561255c57600080fd5b6040516060810181811067ffffffffffffffff8211171561257f5761257f612b33565b604052825161258d81612b49565b8152602083810151908201526040928301519281019290925250919050565b600080600080608085870312156125c257600080fd5b843567ffffffffffffffff808211156125da57600080fd5b9086019060c082890312156125ee57600080fd5b6125f6612898565b6125ff8361209a565b815261260d6020840161209a565b602082015261261e60408401612086565b604082015260608301358281111561263557600080fd5b6126418a828601612035565b60608301525060808301358281111561265957600080fd5b6126658a828601612035565b60808301525060a08301358281111561267d57600080fd5b6126898a828601611f91565b60a08301525095506126a0915050602086016120dd565b92506126ae604086016120c9565b9396929550929360600135925050565b6000602082840312156126d057600080fd5b81516bffffffffffffffffffffffff8116811461150757600080fd5b60008151808452612704816020860160208601612a4d565b601f01601f19169290920160200192915050565b6000602080830181845280855180835260408601915060408160051b870101925083870160005b8281101561276d57603f1988860301845261275b8583516126ec565b9450928501929085019060010161273f565b5092979650505050505050565b60208152600061150760208301846126ec565b6040815260006127a060408301856126ec565b8281036020840152610cf681856126ec565b67ffffffffffffffff841681526060602082015260006127d560608301856126ec565b905063ffffffff83166040830152949350505050565b67ffffffffffffffff8516815260806020820152600061280e60808301866126ec565b63ffffffff949094166040830152506060015292915050565b6000808335601e1984360301811261283e57600080fd5b83018035915067ffffffffffffffff82111561285957600080fd5b602001915036819003821315611f8a57600080fd5b604051610180810167ffffffffffffffff8111828210171561289257612892612b33565b60405290565b60405160c0810167ffffffffffffffff8111828210171561289257612892612b33565b604051601f8201601f1916810167ffffffffffffffff811182821017156128e4576128e4612b33565b604052919050565b600067ffffffffffffffff82111561290657612906612b33565b50601f01601f191660200190565b6000821982111561292757612927612af1565b500190565b600181815b8085111561296757816000190482111561294d5761294d612af1565b8085161561295a57918102915b93841c9390800290612931565b509250929050565b6000611507838360008261298557506001611962565b8161299257506000611962565b81600181146129a857600281146129b2576129ce565b6001915050611962565b60ff8411156129c3576129c3612af1565b50506001821b611962565b5060208310610133831016604e8410600b84101617156129f1575081810a611962565b6129fb838361292c565b8060001904821115612a0f57612a0f612af1565b029392505050565b6000816000190483118215151615612a3157612a31612af1565b500290565b600082821015612a4857612a48612af1565b500390565b60005b83811015612a68578181015183820152602001612a50565b838111156103175750506000910152565b600181811c90821680612a8d57607f821691505b60208210811415612aae57634e487b7160e01b600052602260045260246000fd5b50919050565b6000600019821415612ac857612ac8612af1565b5060010190565b600082612aec57634e487b7160e01b600052601260045260246000fd5b500690565b634e487b7160e01b600052601160045260246000fd5b634e487b7160e01b600052602160045260246000fd5b634e487b7160e01b600052603260045260246000fd5b634e487b7160e01b600052604160045260246000fd5b6001600160a01b0381168114610d1057600080fdfea2646970667358221220f2f98249c7a2cca25d38a3bdbc85e5e4854ddbfad7356a96452451a21535ab6d64736f6c63430008070033","opcodes":"PUSH1 0x80 PUSH1 0x40 MSTORE CALLVALUE DUP1 ISZERO PUSH3 0x11 JUMPI PUSH1 0x0 DUP1 REVERT JUMPDEST POP PUSH1 0x40 MLOAD PUSH3 0x2DB4 CODESIZE SUB DUP1 PUSH3 0x2DB4 DUP4 CODECOPY DUP2 ADD PUSH1 0x40 DUP2 SWAP1 MSTORE PUSH3 0x34 SWAP2 PUSH3 0x1D8 JUMP JUMPDEST PUSH1 0x0 DUP1 SLOAD PUSH1 0x1 PUSH1 0x1 PUSH1 0xA0 SHL SUB NOT AND PUSH1 0x1 PUSH1 0x1 PUSH1 0xA0 SHL SUB DUP5 AND OR DUP2 SSTORE CALLER SWAP1 DUP2 SWAP1 PUSH1 0x1 PUSH1 0x1 PUSH1 0xA0 SHL SUB DUP3 AND PUSH3 0xAF JUMPI PUSH1 0x40 MLOAD PUSH3 0x461BCD PUSH1 0xE5 SHL DUP2 MSTORE PUSH1 0x20 PUSH1 0x4 DUP3 ADD MSTORE PUSH1 0x18 PUSH1 0x24 DUP3 ADD MSTORE PUSH32 0x43616E6E6F7420736574206F776E657220746F207A65726F0000000000000000 PUSH1 0x44 DUP3 ADD MSTORE PUSH1 0x64 ADD JUMPDEST PUSH1 0x40 MLOAD DUP1 SWAP2 SUB SWAP1 REVERT JUMPDEST PUSH1 0x2 DUP1 SLOAD PUSH1 0x1 PUSH1 0x1 PUSH1 0xA0 SHL SUB NOT AND PUSH1 0x1 PUSH1 0x1 PUSH1 0xA0 SHL SUB DUP5 DUP2 AND SWAP2 SWAP1 SWAP2 OR SWAP1 SWAP2 SSTORE DUP2 AND ISZERO PUSH3 0xE2 JUMPI PUSH3 0xE2 DUP2 PUSH3 0x10E JUMP JUMPDEST POP POP PUSH1 0x7 DUP1 SLOAD PUSH1 0x1 PUSH1 0x1 PUSH1 0xA0 SHL SUB NOT AND PUSH1 0x1 PUSH1 0x1 PUSH1 0xA0 SHL SUB SWAP4 SWAP1 SWAP4 AND SWAP3 SWAP1 SWAP3 OR SWAP1 SWAP2 SSTORE POP PUSH3 0x210 SWAP1 POP JUMP JUMPDEST PUSH1 0x1 PUSH1 0x1 PUSH1 0xA0 SHL SUB DUP2 AND CALLER EQ ISZERO PUSH3 0x169 JUMPI PUSH1 0x40 MLOAD PUSH3 0x461BCD PUSH1 0xE5 SHL DUP2 MSTORE PUSH1 0x20 PUSH1 0x4 DUP3 ADD MSTORE PUSH1 0x17 PUSH1 0x24 DUP3 ADD MSTORE PUSH32 0x43616E6E6F74207472616E7366657220746F2073656C66000000000000000000 PUSH1 0x44 DUP3 ADD MSTORE PUSH1 0x64 ADD PUSH3 0xA6 JUMP JUMPDEST PUSH1 0x3 DUP1 SLOAD PUSH1 0x1 PUSH1 0x1 PUSH1 0xA0 SHL SUB NOT AND PUSH1 0x1 PUSH1 0x1 PUSH1 0xA0 SHL SUB DUP4 DUP2 AND SWAP2 DUP3 OR SWAP1 SWAP3 SSTORE PUSH1 0x2 SLOAD PUSH1 0x40 MLOAD SWAP2 SWAP3 AND SWAP1 PUSH32 0xED8889F560326EB138920D842192F0EB3DD22B4F139C87A2C57538E05BAE1278 SWAP1 PUSH1 0x0 SWAP1 LOG3 POP JUMP JUMPDEST DUP1 MLOAD PUSH1 0x1 PUSH1 0x1 PUSH1 0xA0 SHL SUB DUP2 AND DUP2 EQ PUSH3 0x1D3 JUMPI PUSH1 0x0 DUP1 REVERT JUMPDEST SWAP2 SWAP1 POP JUMP JUMPDEST PUSH1 0x0 DUP1 PUSH1 0x40 DUP4 DUP6 SUB SLT ISZERO PUSH3 0x1EC JUMPI PUSH1 0x0 DUP1 REVERT JUMPDEST PUSH3 0x1F7 DUP4 PUSH3 0x1BB JUMP JUMPDEST SWAP2 POP PUSH3 0x207 PUSH1 0x20 DUP5 ADD PUSH3 0x1BB JUMP JUMPDEST SWAP1 POP SWAP3 POP SWAP3 SWAP1 POP JUMP JUMPDEST PUSH2 0x2B94 DUP1 PUSH3 0x220 PUSH1 0x0 CODECOPY PUSH1 0x0 RETURN INVALID PUSH1 0x80 PUSH1 0x40 MSTORE CALLVALUE DUP1 ISZERO PUSH2 0x10 JUMPI PUSH1 0x0 DUP1 REVERT JUMPDEST POP PUSH1 0x4 CALLDATASIZE LT PUSH2 0x100 JUMPI PUSH1 0x0 CALLDATALOAD PUSH1 0xE0 SHR DUP1 PUSH4 0xAC5D3723 GT PUSH2 0x97 JUMPI DUP1 PUSH4 0xD4B39175 GT PUSH2 0x66 JUMPI DUP1 PUSH4 0xD4B39175 EQ PUSH2 0x219 JUMPI DUP1 PUSH4 0xF2FDE38B EQ PUSH2 0x249 JUMPI DUP1 PUSH4 0xF7023BB6 EQ PUSH2 0x25C JUMPI DUP1 PUSH4 0xFFFEB84E EQ PUSH2 0x26F JUMPI PUSH1 0x0 DUP1 REVERT JUMPDEST DUP1 PUSH4 0xAC5D3723 EQ PUSH2 0x1D6 JUMPI DUP1 PUSH4 0xBEF3A2F0 EQ PUSH2 0x1E9 JUMPI DUP1 PUSH4 0xD012A5A8 EQ PUSH2 0x1FE JUMPI DUP1 PUSH4 0xD328A91E EQ PUSH2 0x211 JUMPI PUSH1 0x0 DUP1 REVERT JUMPDEST DUP1 PUSH4 0x4732889D GT PUSH2 0xD3 JUMPI DUP1 PUSH4 0x4732889D EQ PUSH2 0x18A JUMPI DUP1 PUSH4 0x79BA5097 EQ PUSH2 0x1AA JUMPI DUP1 PUSH4 0x7F30DFA9 EQ PUSH2 0x1B2 JUMPI DUP1 PUSH4 0x8DA5CB5B EQ PUSH2 0x1C5 JUMPI PUSH1 0x0 DUP1 REVERT JUMPDEST DUP1 PUSH4 0xCA76175 EQ PUSH2 0x105 JUMPI DUP1 PUSH4 0x1AA46F59 EQ PUSH2 0x11A JUMPI DUP1 PUSH4 0x219C0EEE EQ PUSH2 0x136 JUMPI DUP1 PUSH4 0x30BDA99D EQ PUSH2 0x177 JUMPI JUMPDEST PUSH1 0x0 DUP1 REVERT JUMPDEST PUSH2 0x118 PUSH2 0x113 CALLDATASIZE PUSH1 0x4 PUSH2 0x218D JUMP JUMPDEST PUSH2 0x277 JUMP JUMPDEST STOP JUMPDEST PUSH2 0x123 PUSH1 0x4 SLOAD DUP2 JUMP JUMPDEST PUSH1 0x40 MLOAD SWAP1 DUP2 MSTORE PUSH1 0x20 ADD JUMPDEST PUSH1 0x40 MLOAD DUP1 SWAP2 SUB SWAP1 RETURN JUMPDEST PUSH2 0x15F PUSH2 0x144 CALLDATASIZE PUSH1 0x4 PUSH2 0x215B JUMP JUMPDEST PUSH1 0x9 PUSH1 0x20 MSTORE PUSH1 0x0 SWAP1 DUP2 MSTORE PUSH1 0x40 SWAP1 KECCAK256 SLOAD PUSH1 0x1 PUSH1 0x1 PUSH1 0xA0 SHL SUB AND DUP2 JUMP JUMPDEST PUSH1 0x40 MLOAD PUSH1 0x1 PUSH1 0x1 PUSH1 0xA0 SHL SUB SWAP1 SWAP2 AND DUP2 MSTORE PUSH1 0x20 ADD PUSH2 0x12D JUMP JUMPDEST PUSH2 0x118 PUSH2 0x185 CALLDATASIZE PUSH1 0x4 PUSH2 0x212F JUMP JUMPDEST PUSH2 0x31D JUMP JUMPDEST PUSH2 0x123 PUSH2 0x198 CALLDATASIZE PUSH1 0x4 PUSH2 0x215B JUMP JUMPDEST PUSH1 0x8 PUSH1 0x20 MSTORE PUSH1 0x0 SWAP1 DUP2 MSTORE PUSH1 0x40 SWAP1 KECCAK256 SLOAD DUP2 JUMP JUMPDEST PUSH2 0x118 PUSH2 0x333 JUMP JUMPDEST PUSH2 0x123 PUSH2 0x1C0 CALLDATASIZE PUSH1 0x4 PUSH2 0x224B JUMP JUMPDEST PUSH2 0x3ED JUMP JUMPDEST PUSH1 0x2 SLOAD PUSH1 0x1 PUSH1 0x1 PUSH1 0xA0 SHL SUB AND PUSH2 0x15F JUMP JUMPDEST PUSH2 0x123 PUSH2 0x1E4 CALLDATASIZE PUSH1 0x4 PUSH2 0x2311 JUMP JUMPDEST PUSH2 0xABB JUMP JUMPDEST PUSH2 0x1F1 PUSH2 0xB3D JUMP JUMPDEST PUSH1 0x40 MLOAD PUSH2 0x12D SWAP2 SWAP1 PUSH2 0x277A JUMP JUMPDEST PUSH1 0x7 SLOAD PUSH2 0x15F SWAP1 PUSH1 0x1 PUSH1 0x1 PUSH1 0xA0 SHL SUB AND DUP2 JUMP JUMPDEST PUSH2 0x1F1 PUSH2 0xBCB JUMP JUMPDEST PUSH2 0x22C PUSH2 0x227 CALLDATASIZE PUSH1 0x4 PUSH2 0x25AC JUMP JUMPDEST PUSH2 0xC69 JUMP JUMPDEST PUSH1 0x40 MLOAD PUSH12 0xFFFFFFFFFFFFFFFFFFFFFFFF SWAP1 SWAP2 AND DUP2 MSTORE PUSH1 0x20 ADD PUSH2 0x12D JUMP JUMPDEST PUSH2 0x118 PUSH2 0x257 CALLDATASIZE PUSH1 0x4 PUSH2 0x20F5 JUMP JUMPDEST PUSH2 0xCFF JUMP JUMPDEST PUSH2 0x118 PUSH2 0x26A CALLDATASIZE PUSH1 0x4 PUSH2 0x20F5 JUMP JUMPDEST PUSH2 0xD13 JUMP JUMPDEST PUSH2 0x1F1 PUSH2 0xD39 JUMP JUMPDEST PUSH1 0x0 DUP4 DUP2 MSTORE PUSH1 0x1 PUSH1 0x20 MSTORE PUSH1 0x40 SWAP1 KECCAK256 SLOAD DUP4 SWAP1 PUSH1 0x1 PUSH1 0x1 PUSH1 0xA0 SHL SUB AND CALLER EQ PUSH2 0x2C9 JUMPI PUSH1 0x40 MLOAD PUSH32 0xA0C5EC6300000000000000000000000000000000000000000000000000000000 DUP2 MSTORE PUSH1 0x4 ADD PUSH1 0x40 MLOAD DUP1 SWAP2 SUB SWAP1 REVERT JUMPDEST PUSH1 0x0 DUP2 DUP2 MSTORE PUSH1 0x1 PUSH1 0x20 MSTORE PUSH1 0x40 DUP1 DUP3 KECCAK256 DUP1 SLOAD PUSH1 0x1 PUSH1 0x1 PUSH1 0xA0 SHL SUB NOT AND SWAP1 SSTORE MLOAD DUP3 SWAP2 PUSH32 0x85E1543BF2F84FE80C6BADBCE3648C8539AD1DF4D2B3D822938CA0538BE727E6 SWAP2 LOG2 PUSH2 0x317 DUP5 DUP5 DUP5 PUSH2 0xD46 JUMP JUMPDEST POP POP POP POP JUMP JUMPDEST PUSH2 0x325 PUSH2 0x1148 JUMP JUMPDEST PUSH2 0x32F DUP3 DUP3 PUSH2 0x11A4 JUMP JUMPDEST POP POP JUMP JUMPDEST PUSH1 0x3 SLOAD PUSH1 0x1 PUSH1 0x1 PUSH1 0xA0 SHL SUB AND CALLER EQ PUSH2 0x392 JUMPI PUSH1 0x40 MLOAD PUSH3 0x461BCD PUSH1 0xE5 SHL DUP2 MSTORE PUSH1 0x20 PUSH1 0x4 DUP3 ADD MSTORE PUSH1 0x16 PUSH1 0x24 DUP3 ADD MSTORE PUSH32 0x4D7573742062652070726F706F736564206F776E657200000000000000000000 PUSH1 0x44 DUP3 ADD MSTORE PUSH1 0x64 ADD JUMPDEST PUSH1 0x40 MLOAD DUP1 SWAP2 SUB SWAP1 REVERT JUMPDEST PUSH1 0x2 DUP1 SLOAD PUSH1 0x1 PUSH1 0x1 PUSH1 0xA0 SHL SUB NOT DUP1 DUP3 AND CALLER SWAP1 DUP2 OR SWAP1 SWAP4 SSTORE PUSH1 0x3 DUP1 SLOAD SWAP1 SWAP2 AND SWAP1 SSTORE PUSH1 0x40 MLOAD PUSH1 0x1 PUSH1 0x1 PUSH1 0xA0 SHL SUB SWAP1 SWAP2 AND SWAP2 SWAP1 DUP3 SWAP1 PUSH32 0x8BE0079C531659141344CD1FD0A4F28419497F9722A3DAAFE3B4186F6B6457E0 SWAP1 PUSH1 0x0 SWAP1 LOG3 POP JUMP JUMPDEST PUSH1 0x0 PUSH2 0x3F7 PUSH2 0x1DB0 JUMP JUMPDEST PUSH1 0x7 SLOAD PUSH1 0x40 MLOAD PUSH4 0x61875D8D PUSH1 0xE0 SHL DUP2 MSTORE CALLER PUSH1 0x4 DUP3 ADD MSTORE PUSH1 0x24 DUP2 ADD DUP6 SWAP1 MSTORE PUSH1 0x1 PUSH1 0x1 PUSH1 0xA0 SHL SUB SWAP1 SWAP2 AND SWAP1 PUSH4 0x61875D8D SWAP1 PUSH1 0x44 ADD PUSH1 0x0 PUSH1 0x40 MLOAD DUP1 DUP4 SUB DUP2 DUP7 DUP1 EXTCODESIZE ISZERO DUP1 ISZERO PUSH2 0x441 JUMPI PUSH1 0x0 DUP1 REVERT JUMPDEST POP GAS STATICCALL ISZERO DUP1 ISZERO PUSH2 0x455 JUMPI RETURNDATASIZE PUSH1 0x0 DUP1 RETURNDATACOPY RETURNDATASIZE PUSH1 0x0 REVERT JUMPDEST POP POP POP POP PUSH1 0x40 MLOAD RETURNDATASIZE PUSH1 0x0 DUP3 RETURNDATACOPY PUSH1 0x1F RETURNDATASIZE SWAP1 DUP2 ADD PUSH1 0x1F NOT AND DUP3 ADD PUSH1 0x40 MSTORE PUSH2 0x47D SWAP2 SWAP1 DUP2 ADD SWAP1 PUSH2 0x2346 JUMP JUMPDEST DUP2 MSTORE PUSH1 0x7 SLOAD PUSH1 0x40 MLOAD PUSH32 0x6EC7BE7E00000000000000000000000000000000000000000000000000000000 DUP2 MSTORE CALLER PUSH1 0x4 DUP3 ADD MSTORE PUSH1 0x24 DUP2 ADD DUP6 SWAP1 MSTORE PUSH1 0x0 SWAP2 PUSH1 0x1 PUSH1 0x1 PUSH1 0xA0 SHL SUB AND SWAP1 PUSH4 0x6EC7BE7E SWAP1 PUSH1 0x44 ADD PUSH1 0x20 PUSH1 0x40 MLOAD DUP1 DUP4 SUB DUP2 DUP7 DUP1 EXTCODESIZE ISZERO DUP1 ISZERO PUSH2 0x4E3 JUMPI PUSH1 0x0 DUP1 REVERT JUMPDEST POP GAS STATICCALL ISZERO DUP1 ISZERO PUSH2 0x4F7 JUMPI RETURNDATASIZE PUSH1 0x0 DUP1 RETURNDATACOPY RETURNDATASIZE PUSH1 0x0 REVERT JUMPDEST POP POP POP POP PUSH1 0x40 MLOAD RETURNDATASIZE PUSH1 0x1F NOT PUSH1 0x1F DUP3 ADD AND DUP3 ADD DUP1 PUSH1 0x40 MSTORE POP DUP2 ADD SWAP1 PUSH2 0x51B SWAP2 SWAP1 PUSH2 0x2174 JUMP JUMPDEST PUSH1 0x7 SLOAD PUSH1 0x40 MLOAD PUSH32 0x215FC62500000000000000000000000000000000000000000000000000000000 DUP2 MSTORE PUSH1 0x4 DUP2 ADD DUP4 SWAP1 MSTORE SWAP2 SWAP3 POP PUSH1 0x1 PUSH1 0x1 PUSH1 0xA0 SHL SUB AND SWAP1 PUSH4 0x215FC625 SWAP1 PUSH1 0x24 ADD PUSH1 0x60 PUSH1 0x40 MLOAD DUP1 DUP4 SUB DUP2 DUP7 DUP1 EXTCODESIZE ISZERO DUP1 ISZERO PUSH2 0x579 JUMPI PUSH1 0x0 DUP1 REVERT JUMPDEST POP GAS STATICCALL ISZERO DUP1 ISZERO PUSH2 0x58D JUMPI RETURNDATASIZE PUSH1 0x0 DUP1 RETURNDATACOPY RETURNDATASIZE PUSH1 0x0 REVERT JUMPDEST POP POP POP POP PUSH1 0x40 MLOAD RETURNDATASIZE PUSH1 0x1F NOT PUSH1 0x1F DUP3 ADD AND DUP3 ADD DUP1 PUSH1 0x40 MSTORE POP DUP2 ADD SWAP1 PUSH2 0x5B1 SWAP2 SWAP1 PUSH2 0x254A JUMP JUMPDEST PUSH1 0x20 DUP4 ADD DUP2 SWAP1 MSTORE PUSH1 0x40 ADD MLOAD PUSH1 0x0 PUSH2 0x5C9 DUP10 PUSH1 0xE PUSH2 0x2914 JUMP JUMPDEST PUSH8 0xFFFFFFFFFFFFFFFF DUP2 GT ISZERO PUSH2 0x5E1 JUMPI PUSH2 0x5E1 PUSH2 0x2B33 JUMP JUMPDEST PUSH1 0x40 MLOAD SWAP1 DUP1 DUP3 MSTORE DUP1 PUSH1 0x20 MUL PUSH1 0x20 ADD DUP3 ADD PUSH1 0x40 MSTORE DUP1 ISZERO PUSH2 0x614 JUMPI DUP2 PUSH1 0x20 ADD JUMPDEST PUSH1 0x60 DUP2 MSTORE PUSH1 0x20 ADD SWAP1 PUSH1 0x1 SWAP1 SUB SWAP1 DUP2 PUSH2 0x5FF JUMPI SWAP1 POP JUMPDEST POP SWAP1 POP PUSH1 0x0 JUMPDEST DUP10 DUP2 LT ISZERO PUSH2 0x6AC JUMPI DUP11 DUP11 DUP3 DUP2 DUP2 LT PUSH2 0x634 JUMPI PUSH2 0x634 PUSH2 0x2B1D JUMP JUMPDEST SWAP1 POP PUSH1 0x20 MUL DUP2 ADD SWAP1 PUSH2 0x646 SWAP2 SWAP1 PUSH2 0x2827 JUMP JUMPDEST DUP1 DUP1 PUSH1 0x1F ADD PUSH1 0x20 DUP1 SWAP2 DIV MUL PUSH1 0x20 ADD PUSH1 0x40 MLOAD SWAP1 DUP2 ADD PUSH1 0x40 MSTORE DUP1 SWAP4 SWAP3 SWAP2 SWAP1 DUP2 DUP2 MSTORE PUSH1 0x20 ADD DUP4 DUP4 DUP1 DUP3 DUP5 CALLDATACOPY PUSH1 0x0 SWAP3 ADD SWAP2 SWAP1 SWAP2 MSTORE POP POP DUP5 MLOAD DUP6 SWAP3 POP DUP5 SWAP2 POP DUP2 LT PUSH2 0x68E JUMPI PUSH2 0x68E PUSH2 0x2B1D JUMP JUMPDEST PUSH1 0x20 MUL PUSH1 0x20 ADD ADD DUP2 SWAP1 MSTORE POP DUP1 DUP1 PUSH2 0x6A4 SWAP1 PUSH2 0x2AB4 JUMP JUMPDEST SWAP2 POP POP PUSH2 0x61A JUMP JUMPDEST POP DUP4 MLOAD MLOAD DUP2 MLOAD DUP3 SWAP1 DUP12 SWAP1 DUP2 LT PUSH2 0x6C4 JUMPI PUSH2 0x6C4 PUSH2 0x2B1D JUMP JUMPDEST PUSH1 0x20 SWAP1 DUP2 MUL SWAP2 SWAP1 SWAP2 ADD DUP2 ADD SWAP2 SWAP1 SWAP2 MSTORE DUP5 MLOAD ADD MLOAD DUP2 PUSH2 0x6E3 DUP12 PUSH1 0x1 PUSH2 0x2914 JUMP JUMPDEST DUP2 MLOAD DUP2 LT PUSH2 0x6F3 JUMPI PUSH2 0x6F3 PUSH2 0x2B1D JUMP JUMPDEST PUSH1 0x20 SWAP1 DUP2 MUL SWAP2 SWAP1 SWAP2 ADD ADD MSTORE DUP4 MLOAD PUSH1 0x40 ADD MLOAD DUP2 PUSH2 0x710 DUP12 PUSH1 0x2 PUSH2 0x2914 JUMP JUMPDEST DUP2 MLOAD DUP2 LT PUSH2 0x720 JUMPI PUSH2 0x720 PUSH2 0x2B1D JUMP JUMPDEST PUSH1 0x20 SWAP1 DUP2 MUL SWAP2 SWAP1 SWAP2 ADD ADD MSTORE DUP4 MLOAD PUSH1 0x60 ADD MLOAD DUP2 PUSH2 0x73D DUP12 PUSH1 0x3 PUSH2 0x2914 JUMP JUMPDEST DUP2 MLOAD DUP2 LT PUSH2 0x74D JUMPI PUSH2 0x74D PUSH2 0x2B1D JUMP JUMPDEST PUSH1 0x20 SWAP1 DUP2 MUL SWAP2 SWAP1 SWAP2 ADD ADD MSTORE DUP4 MLOAD PUSH1 0x80 ADD MLOAD DUP2 PUSH2 0x76A DUP12 PUSH1 0x4 PUSH2 0x2914 JUMP JUMPDEST DUP2 MLOAD DUP2 LT PUSH2 0x77A JUMPI PUSH2 0x77A PUSH2 0x2B1D JUMP JUMPDEST PUSH1 0x20 SWAP1 DUP2 MUL SWAP2 SWAP1 SWAP2 ADD ADD MSTORE DUP4 MLOAD PUSH1 0xA0 ADD MLOAD DUP2 PUSH2 0x797 DUP12 PUSH1 0x5 PUSH2 0x2914 JUMP JUMPDEST DUP2 MLOAD DUP2 LT PUSH2 0x7A7 JUMPI PUSH2 0x7A7 PUSH2 0x2B1D JUMP JUMPDEST PUSH1 0x20 SWAP1 DUP2 MUL SWAP2 SWAP1 SWAP2 ADD ADD MSTORE DUP4 MLOAD PUSH1 0xC0 ADD MLOAD DUP2 PUSH2 0x7C4 DUP12 PUSH1 0x6 PUSH2 0x2914 JUMP JUMPDEST DUP2 MLOAD DUP2 LT PUSH2 0x7D4 JUMPI PUSH2 0x7D4 PUSH2 0x2B1D JUMP JUMPDEST PUSH1 0x20 SWAP1 DUP2 MUL SWAP2 SWAP1 SWAP2 ADD ADD MSTORE DUP4 MLOAD PUSH1 0xE0 ADD MLOAD DUP2 PUSH2 0x7F1 DUP12 PUSH1 0x7 PUSH2 0x2914 JUMP JUMPDEST DUP2 MLOAD DUP2 LT PUSH2 0x801 JUMPI PUSH2 0x801 PUSH2 0x2B1D JUMP JUMPDEST PUSH1 0x20 SWAP1 DUP2 MUL SWAP2 SWAP1 SWAP2 ADD ADD MSTORE DUP4 MLOAD PUSH2 0x100 ADD MLOAD DUP2 PUSH2 0x81F DUP12 PUSH1 0x8 PUSH2 0x2914 JUMP JUMPDEST DUP2 MLOAD DUP2 LT PUSH2 0x82F JUMPI PUSH2 0x82F PUSH2 0x2B1D JUMP JUMPDEST PUSH1 0x20 SWAP1 DUP2 MUL SWAP2 SWAP1 SWAP2 ADD ADD MSTORE DUP4 MLOAD PUSH2 0x120 ADD MLOAD DUP2 PUSH2 0x84D DUP12 PUSH1 0x9 PUSH2 0x2914 JUMP JUMPDEST DUP2 MLOAD DUP2 LT PUSH2 0x85D JUMPI PUSH2 0x85D PUSH2 0x2B1D JUMP JUMPDEST PUSH1 0x20 SWAP1 DUP2 MUL SWAP2 SWAP1 SWAP2 ADD ADD MSTORE DUP4 MLOAD PUSH2 0x140 ADD MLOAD DUP2 PUSH2 0x87B DUP12 PUSH1 0xA PUSH2 0x2914 JUMP JUMPDEST DUP2 MLOAD DUP2 LT PUSH2 0x88B JUMPI PUSH2 0x88B PUSH2 0x2B1D JUMP JUMPDEST PUSH1 0x20 MUL PUSH1 0x20 ADD ADD DUP2 SWAP1 MSTORE POP PUSH2 0x89F TIMESTAMP PUSH2 0x1224 JUMP JUMPDEST DUP2 PUSH2 0x8AB DUP12 PUSH1 0xB PUSH2 0x2914 JUMP JUMPDEST DUP2 MLOAD DUP2 LT PUSH2 0x8BB JUMPI PUSH2 0x8BB PUSH2 0x2B1D JUMP JUMPDEST PUSH1 0x20 SWAP1 DUP2 MUL SWAP2 SWAP1 SWAP2 ADD ADD MSTORE DUP4 MLOAD PUSH2 0x160 ADD MLOAD DUP2 PUSH2 0x8D9 DUP12 PUSH1 0xC PUSH2 0x2914 JUMP JUMPDEST DUP2 MLOAD DUP2 LT PUSH2 0x8E9 JUMPI PUSH2 0x8E9 PUSH2 0x2B1D JUMP JUMPDEST PUSH1 0x20 MUL PUSH1 0x20 ADD ADD DUP2 SWAP1 MSTORE POP PUSH2 0x982 PUSH1 0x7 PUSH1 0x0 SWAP1 SLOAD SWAP1 PUSH2 0x100 EXP SWAP1 DIV PUSH1 0x1 PUSH1 0x1 PUSH1 0xA0 SHL SUB AND PUSH1 0x1 PUSH1 0x1 PUSH1 0xA0 SHL SUB AND PUSH4 0xB91CE205 PUSH1 0x40 MLOAD DUP2 PUSH4 0xFFFFFFFF AND PUSH1 0xE0 SHL DUP2 MSTORE PUSH1 0x4 ADD PUSH1 0x20 PUSH1 0x40 MLOAD DUP1 DUP4 SUB DUP2 DUP7 DUP1 EXTCODESIZE ISZERO DUP1 ISZERO PUSH2 0x945 JUMPI PUSH1 0x0 DUP1 REVERT JUMPDEST POP GAS STATICCALL ISZERO DUP1 ISZERO PUSH2 0x959 JUMPI RETURNDATASIZE PUSH1 0x0 DUP1 RETURNDATACOPY RETURNDATASIZE PUSH1 0x0 REVERT JUMPDEST POP POP POP POP PUSH1 0x40 MLOAD RETURNDATASIZE PUSH1 0x1F NOT PUSH1 0x1F DUP3 ADD AND DUP3 ADD DUP1 PUSH1 0x40 MSTORE POP DUP2 ADD SWAP1 PUSH2 0x97D SWAP2 SWAP1 PUSH2 0x2174 JUMP JUMPDEST PUSH2 0x1224 JUMP JUMPDEST DUP2 PUSH2 0x98E DUP12 PUSH1 0xD PUSH2 0x2914 JUMP JUMPDEST DUP2 MLOAD DUP2 LT PUSH2 0x99E JUMPI PUSH2 0x99E PUSH2 0x2B1D JUMP JUMPDEST PUSH1 0x20 MUL PUSH1 0x20 ADD ADD DUP2 SWAP1 MSTORE POP PUSH2 0x9E3 PUSH1 0x40 DUP1 MLOAD PUSH1 0xC0 DUP2 ADD SWAP1 SWAP2 MSTORE DUP1 PUSH1 0x0 DUP2 MSTORE PUSH1 0x20 ADD PUSH1 0x0 DUP2 MSTORE PUSH1 0x20 ADD PUSH1 0x0 DUP2 MSTORE PUSH1 0x20 ADD PUSH1 0x60 DUP2 MSTORE PUSH1 0x20 ADD PUSH1 0x60 DUP2 MSTORE PUSH1 0x20 ADD PUSH1 0x60 DUP2 MSTORE POP SWAP1 JUMP JUMPDEST PUSH2 0xA2A PUSH1 0x0 DUP1 DUP16 DUP16 DUP1 DUP1 PUSH1 0x1F ADD PUSH1 0x20 DUP1 SWAP2 DIV MUL PUSH1 0x20 ADD PUSH1 0x40 MLOAD SWAP1 DUP2 ADD PUSH1 0x40 MSTORE DUP1 SWAP4 SWAP3 SWAP2 SWAP1 DUP2 DUP2 MSTORE PUSH1 0x20 ADD DUP4 DUP4 DUP1 DUP3 DUP5 CALLDATACOPY PUSH1 0x0 SWAP3 ADD SWAP2 SWAP1 SWAP2 MSTORE POP DUP8 SWAP6 SWAP5 SWAP4 SWAP3 POP POP PUSH2 0x12C6 SWAP1 POP JUMP JUMPDEST PUSH2 0xA34 DUP2 DUP4 PUSH2 0x135A JUMP JUMPDEST PUSH32 0x930A61D412EE04B567F790D1232C1FE3D797DE7BFA1F99BA4B6E7FCC7448521F DUP3 PUSH1 0x40 MLOAD PUSH2 0xA63 SWAP2 SWAP1 PUSH2 0x2718 JUMP JUMPDEST PUSH1 0x40 MLOAD DUP1 SWAP2 SUB SWAP1 LOG1 PUSH1 0x0 PUSH2 0xA78 DUP3 DUP12 DUP12 PUSH2 0x139A JUMP JUMPDEST PUSH1 0x4 DUP2 SWAP1 SSTORE PUSH1 0x0 DUP2 DUP2 MSTORE PUSH1 0x8 PUSH1 0x20 SWAP1 DUP2 MSTORE PUSH1 0x40 DUP1 DUP4 KECCAK256 DUP13 SWAP1 SSTORE PUSH1 0x9 SWAP1 SWAP2 MSTORE SWAP1 KECCAK256 DUP1 SLOAD PUSH1 0x1 PUSH1 0x1 PUSH1 0xA0 SHL SUB NOT AND CALLER OR SWAP1 SSTORE SWAP7 POP POP POP POP POP POP POP SWAP8 SWAP7 POP POP POP POP POP POP POP JUMP JUMPDEST PUSH1 0x0 DUP2 DUP2 DUP1 JUMPDEST DUP3 MLOAD DUP2 LT ISZERO PUSH2 0xB35 JUMPI PUSH1 0x0 DUP4 DUP3 DUP2 MLOAD DUP2 LT PUSH2 0xADE JUMPI PUSH2 0xADE PUSH2 0x2B1D JUMP JUMPDEST ADD PUSH1 0x20 ADD MLOAD PUSH1 0xF8 SHR SWAP1 POP PUSH1 0x30 DUP2 LT DUP1 ISZERO SWAP1 PUSH2 0xAFA JUMPI POP PUSH1 0x39 DUP2 GT ISZERO JUMPDEST ISZERO PUSH2 0xB22 JUMPI PUSH2 0xB0A PUSH1 0x30 DUP3 PUSH2 0x2A36 JUMP JUMPDEST PUSH2 0xB15 DUP5 PUSH1 0xA PUSH2 0x2A17 JUMP JUMPDEST PUSH2 0xB1F SWAP2 SWAP1 PUSH2 0x2914 JUMP JUMPDEST SWAP3 POP JUMPDEST POP DUP1 PUSH2 0xB2D DUP2 PUSH2 0x2AB4 JUMP JUMPDEST SWAP2 POP POP PUSH2 0xAC1 JUMP JUMPDEST POP SWAP4 SWAP3 POP POP POP JUMP JUMPDEST PUSH1 0x5 DUP1 SLOAD PUSH2 0xB4A SWAP1 PUSH2 0x2A79 JUMP JUMPDEST DUP1 PUSH1 0x1F ADD PUSH1 0x20 DUP1 SWAP2 DIV MUL PUSH1 0x20 ADD PUSH1 0x40 MLOAD SWAP1 DUP2 ADD PUSH1 0x40 MSTORE DUP1 SWAP3 SWAP2 SWAP1 DUP2 DUP2 MSTORE PUSH1 0x20 ADD DUP3 DUP1 SLOAD PUSH2 0xB76 SWAP1 PUSH2 0x2A79 JUMP JUMPDEST DUP1 ISZERO PUSH2 0xBC3 JUMPI DUP1 PUSH1 0x1F LT PUSH2 0xB98 JUMPI PUSH2 0x100 DUP1 DUP4 SLOAD DIV MUL DUP4 MSTORE SWAP2 PUSH1 0x20 ADD SWAP2 PUSH2 0xBC3 JUMP JUMPDEST DUP3 ADD SWAP2 SWAP1 PUSH1 0x0 MSTORE PUSH1 0x20 PUSH1 0x0 KECCAK256 SWAP1 JUMPDEST DUP2 SLOAD DUP2 MSTORE SWAP1 PUSH1 0x1 ADD SWAP1 PUSH1 0x20 ADD DUP1 DUP4 GT PUSH2 0xBA6 JUMPI DUP3 SWAP1 SUB PUSH1 0x1F AND DUP3 ADD SWAP2 JUMPDEST POP POP POP POP POP DUP2 JUMP JUMPDEST PUSH1 0x0 DUP1 SLOAD PUSH1 0x40 DUP1 MLOAD PUSH32 0xD328A91E00000000000000000000000000000000000000000000000000000000 DUP2 MSTORE SWAP1 MLOAD PUSH1 0x60 SWAP4 PUSH1 0x1 PUSH1 0x1 PUSH1 0xA0 SHL SUB SWAP1 SWAP4 AND SWAP3 PUSH4 0xD328A91E SWAP3 PUSH1 0x4 DUP1 DUP3 ADD SWAP4 SWAP2 DUP3 SWAP1 SUB ADD DUP2 DUP7 DUP1 EXTCODESIZE ISZERO DUP1 ISZERO PUSH2 0xC28 JUMPI PUSH1 0x0 DUP1 REVERT JUMPDEST POP GAS STATICCALL ISZERO DUP1 ISZERO PUSH2 0xC3C JUMPI RETURNDATASIZE PUSH1 0x0 DUP1 RETURNDATACOPY RETURNDATASIZE PUSH1 0x0 REVERT JUMPDEST POP POP POP POP PUSH1 0x40 MLOAD RETURNDATASIZE PUSH1 0x0 DUP3 RETURNDATACOPY PUSH1 0x1F RETURNDATASIZE SWAP1 DUP2 ADD PUSH1 0x1F NOT AND DUP3 ADD PUSH1 0x40 MSTORE PUSH2 0xC64 SWAP2 SWAP1 DUP2 ADD SWAP1 PUSH2 0x21FA JUMP JUMPDEST SWAP1 POP SWAP1 JUMP JUMPDEST PUSH1 0x0 DUP1 SLOAD PUSH1 0x1 PUSH1 0x1 PUSH1 0xA0 SHL SUB AND PUSH4 0xD227D245 DUP6 PUSH2 0xC85 DUP9 PUSH2 0x150E JUMP JUMPDEST DUP7 DUP7 PUSH1 0x40 MLOAD DUP6 PUSH4 0xFFFFFFFF AND PUSH1 0xE0 SHL DUP2 MSTORE PUSH1 0x4 ADD PUSH2 0xCA6 SWAP5 SWAP4 SWAP3 SWAP2 SWAP1 PUSH2 0x27EB JUMP JUMPDEST PUSH1 0x20 PUSH1 0x40 MLOAD DUP1 DUP4 SUB DUP2 DUP7 DUP1 EXTCODESIZE ISZERO DUP1 ISZERO PUSH2 0xCBE JUMPI PUSH1 0x0 DUP1 REVERT JUMPDEST POP GAS STATICCALL ISZERO DUP1 ISZERO PUSH2 0xCD2 JUMPI RETURNDATASIZE PUSH1 0x0 DUP1 RETURNDATACOPY RETURNDATASIZE PUSH1 0x0 REVERT JUMPDEST POP POP POP POP PUSH1 0x40 MLOAD RETURNDATASIZE PUSH1 0x1F NOT PUSH1 0x1F DUP3 ADD AND DUP3 ADD DUP1 PUSH1 0x40 MSTORE POP DUP2 ADD SWAP1 PUSH2 0xCF6 SWAP2 SWAP1 PUSH2 0x26BE JUMP JUMPDEST SWAP6 SWAP5 POP POP POP POP POP JUMP JUMPDEST PUSH2 0xD07 PUSH2 0x1148 JUMP JUMPDEST PUSH2 0xD10 DUP2 PUSH2 0x17DA JUMP JUMPDEST POP JUMP JUMPDEST PUSH2 0xD1B PUSH2 0x1148 JUMP JUMPDEST PUSH1 0x0 DUP1 SLOAD PUSH1 0x1 PUSH1 0x1 PUSH1 0xA0 SHL SUB NOT AND PUSH1 0x1 PUSH1 0x1 PUSH1 0xA0 SHL SUB DUP4 AND OR SWAP1 SSTORE POP JUMP JUMPDEST PUSH1 0x6 DUP1 SLOAD PUSH2 0xB4A SWAP1 PUSH2 0x2A79 JUMP JUMPDEST DUP2 MLOAD PUSH2 0xD59 SWAP1 PUSH1 0x5 SWAP1 PUSH1 0x20 DUP6 ADD SWAP1 PUSH2 0x1E42 JUMP JUMPDEST POP DUP1 MLOAD PUSH2 0xD6D SWAP1 PUSH1 0x6 SWAP1 PUSH1 0x20 DUP5 ADD SWAP1 PUSH2 0x1E42 JUMP JUMPDEST POP DUP3 PUSH32 0x7BAB0EC163B5C132C72B8146AC4D6E067E82ED58F8B131150AA71C9258911562 DUP4 DUP4 PUSH1 0x40 MLOAD PUSH2 0xDA0 SWAP3 SWAP2 SWAP1 PUSH2 0x278D JUMP JUMPDEST PUSH1 0x40 MLOAD DUP1 SWAP2 SUB SWAP1 LOG2 PUSH1 0x0 DUP4 DUP2 MSTORE PUSH1 0x8 PUSH1 0x20 SWAP1 DUP2 MSTORE PUSH1 0x40 DUP1 DUP4 KECCAK256 SLOAD PUSH1 0x9 SWAP1 SWAP3 MSTORE DUP1 DUP4 KECCAK256 SLOAD PUSH1 0x7 SLOAD SWAP2 MLOAD PUSH4 0x61875D8D PUSH1 0xE0 SHL DUP2 MSTORE PUSH1 0x1 PUSH1 0x1 PUSH1 0xA0 SHL SUB SWAP2 DUP3 AND PUSH1 0x4 DUP3 ADD DUP2 SWAP1 MSTORE PUSH1 0x24 DUP3 ADD DUP6 SWAP1 MSTORE SWAP4 SWAP5 SWAP3 SWAP2 SWAP1 SWAP2 AND SWAP1 PUSH4 0x61875D8D SWAP1 PUSH1 0x44 ADD PUSH1 0x0 PUSH1 0x40 MLOAD DUP1 DUP4 SUB DUP2 DUP7 DUP1 EXTCODESIZE ISZERO DUP1 ISZERO PUSH2 0xE14 JUMPI PUSH1 0x0 DUP1 REVERT JUMPDEST POP GAS STATICCALL ISZERO DUP1 ISZERO PUSH2 0xE28 JUMPI RETURNDATASIZE PUSH1 0x0 DUP1 RETURNDATACOPY RETURNDATASIZE PUSH1 0x0 REVERT JUMPDEST POP POP POP POP PUSH1 0x40 MLOAD RETURNDATASIZE PUSH1 0x0 DUP3 RETURNDATACOPY PUSH1 0x1F RETURNDATASIZE SWAP1 DUP2 ADD PUSH1 0x1F NOT AND DUP3 ADD PUSH1 0x40 MSTORE PUSH2 0xE50 SWAP2 SWAP1 DUP2 ADD SWAP1 PUSH2 0x2346 JUMP JUMPDEST PUSH1 0x7 SLOAD PUSH1 0x40 MLOAD PUSH32 0xCC9DE25D00000000000000000000000000000000000000000000000000000000 DUP2 MSTORE SWAP2 SWAP3 POP PUSH1 0x0 SWAP2 PUSH1 0x1 PUSH1 0x1 PUSH1 0xA0 SHL SUB SWAP1 SWAP2 AND SWAP1 PUSH4 0xCC9DE25D SWAP1 PUSH2 0xE9F SWAP1 DUP10 SWAP1 PUSH1 0x4 ADD PUSH2 0x277A JUMP JUMPDEST PUSH1 0x20 PUSH1 0x40 MLOAD DUP1 DUP4 SUB DUP2 DUP7 DUP1 EXTCODESIZE ISZERO DUP1 ISZERO PUSH2 0xEB7 JUMPI PUSH1 0x0 DUP1 REVERT JUMPDEST POP GAS STATICCALL ISZERO DUP1 ISZERO PUSH2 0xECB JUMPI RETURNDATASIZE PUSH1 0x0 DUP1 RETURNDATACOPY RETURNDATASIZE PUSH1 0x0 REVERT JUMPDEST POP POP POP POP PUSH1 0x40 MLOAD RETURNDATASIZE PUSH1 0x1F NOT PUSH1 0x1F DUP3 ADD AND DUP3 ADD DUP1 PUSH1 0x40 MSTORE POP DUP2 ADD SWAP1 PUSH2 0xEEF SWAP2 SWAP1 PUSH2 0x2174 JUMP JUMPDEST SWAP1 POP DUP1 ISZERO PUSH2 0x1024 JUMPI PUSH1 0x7 SLOAD PUSH1 0x40 MLOAD PUSH32 0xECD831E800000000000000000000000000000000000000000000000000000000 DUP2 MSTORE PUSH1 0x1 PUSH1 0x1 PUSH1 0xA0 SHL SUB DUP6 DUP2 AND PUSH1 0x4 DUP4 ADD MSTORE PUSH1 0x24 DUP3 ADD DUP5 SWAP1 MSTORE SWAP1 SWAP2 AND SWAP1 PUSH4 0xECD831E8 SWAP1 PUSH1 0x44 ADD PUSH1 0x0 PUSH1 0x40 MLOAD DUP1 DUP4 SUB DUP2 PUSH1 0x0 DUP8 DUP1 EXTCODESIZE ISZERO DUP1 ISZERO PUSH2 0xF5E JUMPI PUSH1 0x0 DUP1 REVERT JUMPDEST POP GAS CALL ISZERO DUP1 ISZERO PUSH2 0xF72 JUMPI RETURNDATASIZE PUSH1 0x0 DUP1 RETURNDATACOPY RETURNDATASIZE PUSH1 0x0 REVERT JUMPDEST POP POP PUSH1 0x7 SLOAD PUSH1 0x40 MLOAD PUSH4 0x2F1635A3 PUSH1 0xE2 SHL DUP2 MSTORE PUSH1 0x1 PUSH1 0x1 PUSH1 0xA0 SHL SUB DUP8 DUP2 AND PUSH1 0x4 DUP4 ADD MSTORE PUSH1 0x24 DUP3 ADD DUP10 SWAP1 MSTORE SWAP1 SWAP2 AND SWAP3 POP PUSH4 0xBC58D68C SWAP2 POP PUSH1 0x44 ADD PUSH1 0x0 PUSH1 0x40 MLOAD DUP1 DUP4 SUB DUP2 PUSH1 0x0 DUP8 DUP1 EXTCODESIZE ISZERO DUP1 ISZERO PUSH2 0xFC4 JUMPI PUSH1 0x0 DUP1 REVERT JUMPDEST POP GAS CALL ISZERO DUP1 ISZERO PUSH2 0xFD8 JUMPI RETURNDATASIZE PUSH1 0x0 DUP1 RETURNDATACOPY RETURNDATASIZE PUSH1 0x0 REVERT JUMPDEST POP POP PUSH1 0x40 DUP1 MLOAD PUSH1 0x1 PUSH1 0x1 PUSH1 0xA0 SHL SUB DUP8 AND DUP2 MSTORE PUSH1 0x20 DUP2 ADD DUP6 SWAP1 MSTORE PUSH32 0x5AFECA38B2064C23A692C4CF353015D80AB3ECC417B4F893F372690C11FBD9A6 SWAP4 POP ADD SWAP1 POP PUSH1 0x40 MLOAD DUP1 SWAP2 SUB SWAP1 LOG1 PUSH2 0x113F JUMP JUMPDEST PUSH1 0x0 PUSH2 0x1034 DUP4 PUSH2 0x140 ADD MLOAD PUSH2 0xABB JUMP JUMPDEST SWAP1 POP DUP1 TIMESTAMP GT ISZERO PUSH2 0x10E8 JUMPI PUSH1 0x7 SLOAD PUSH1 0x40 MLOAD PUSH4 0x2F1635A3 PUSH1 0xE2 SHL DUP2 MSTORE PUSH1 0x1 PUSH1 0x1 PUSH1 0xA0 SHL SUB DUP7 DUP2 AND PUSH1 0x4 DUP4 ADD MSTORE PUSH1 0x24 DUP3 ADD DUP9 SWAP1 MSTORE SWAP1 SWAP2 AND SWAP1 PUSH4 0xBC58D68C SWAP1 PUSH1 0x44 ADD PUSH1 0x0 PUSH1 0x40 MLOAD DUP1 DUP4 SUB DUP2 PUSH1 0x0 DUP8 DUP1 EXTCODESIZE ISZERO DUP1 ISZERO PUSH2 0x108C JUMPI PUSH1 0x0 DUP1 REVERT JUMPDEST POP GAS CALL ISZERO DUP1 ISZERO PUSH2 0x10A0 JUMPI RETURNDATASIZE PUSH1 0x0 DUP1 RETURNDATACOPY RETURNDATASIZE PUSH1 0x0 REVERT JUMPDEST POP POP PUSH1 0x40 DUP1 MLOAD PUSH1 0x1 PUSH1 0x1 PUSH1 0xA0 SHL SUB DUP9 AND DUP2 MSTORE PUSH1 0x20 DUP2 ADD DUP10 SWAP1 MSTORE PUSH32 0x5E258A8DA32249E7D7E1EBCD6B64F7C97C4235999DB64B6687191B183D5E3F2 SWAP4 POP ADD SWAP1 POP PUSH1 0x40 MLOAD DUP1 SWAP2 SUB SWAP1 LOG1 JUMPDEST PUSH32 0x59D77641060CAFC4D86DDDD4BD9C687BBFBD23FB4B1962869AFE9F54507105EA DUP5 DUP7 PUSH2 0x1115 TIMESTAMP DUP6 PUSH2 0x2A36 JUMP JUMPDEST PUSH1 0x40 DUP1 MLOAD PUSH1 0x1 PUSH1 0x1 PUSH1 0xA0 SHL SUB SWAP1 SWAP5 AND DUP5 MSTORE PUSH1 0x20 DUP5 ADD SWAP3 SWAP1 SWAP3 MSTORE SWAP1 DUP3 ADD MSTORE PUSH1 0x60 ADD PUSH1 0x40 MLOAD DUP1 SWAP2 SUB SWAP1 LOG1 POP JUMPDEST POP POP POP POP POP POP POP JUMP JUMPDEST PUSH1 0x2 SLOAD PUSH1 0x1 PUSH1 0x1 PUSH1 0xA0 SHL SUB AND CALLER EQ PUSH2 0x11A2 JUMPI PUSH1 0x40 MLOAD PUSH3 0x461BCD PUSH1 0xE5 SHL DUP2 MSTORE PUSH1 0x20 PUSH1 0x4 DUP3 ADD MSTORE PUSH1 0x16 PUSH1 0x24 DUP3 ADD MSTORE PUSH32 0x4F6E6C792063616C6C61626C65206279206F776E657200000000000000000000 PUSH1 0x44 DUP3 ADD MSTORE PUSH1 0x64 ADD PUSH2 0x389 JUMP JUMPDEST JUMP JUMPDEST PUSH1 0x0 DUP2 DUP2 MSTORE PUSH1 0x1 PUSH1 0x20 MSTORE PUSH1 0x40 SWAP1 KECCAK256 SLOAD DUP2 SWAP1 PUSH1 0x1 PUSH1 0x1 PUSH1 0xA0 SHL SUB AND ISZERO PUSH2 0x11F5 JUMPI PUSH1 0x40 MLOAD PUSH32 0x8B457AD200000000000000000000000000000000000000000000000000000000 DUP2 MSTORE PUSH1 0x4 ADD PUSH1 0x40 MLOAD DUP1 SWAP2 SUB SWAP1 REVERT JUMPDEST POP PUSH1 0x0 SWAP1 DUP2 MSTORE PUSH1 0x1 PUSH1 0x20 MSTORE PUSH1 0x40 SWAP1 KECCAK256 DUP1 SLOAD PUSH1 0x1 PUSH1 0x1 PUSH1 0xA0 SHL SUB NOT AND PUSH1 0x1 PUSH1 0x1 PUSH1 0xA0 SHL SUB SWAP3 SWAP1 SWAP3 AND SWAP2 SWAP1 SWAP2 OR SWAP1 SSTORE JUMP JUMPDEST PUSH1 0x60 PUSH1 0x0 PUSH2 0x1231 DUP4 PUSH2 0x1885 JUMP JUMPDEST PUSH1 0x1 ADD SWAP1 POP PUSH1 0x0 DUP2 PUSH8 0xFFFFFFFFFFFFFFFF DUP2 GT ISZERO PUSH2 0x1251 JUMPI PUSH2 0x1251 PUSH2 0x2B33 JUMP JUMPDEST PUSH1 0x40 MLOAD SWAP1 DUP1 DUP3 MSTORE DUP1 PUSH1 0x1F ADD PUSH1 0x1F NOT AND PUSH1 0x20 ADD DUP3 ADD PUSH1 0x40 MSTORE DUP1 ISZERO PUSH2 0x127B JUMPI PUSH1 0x20 DUP3 ADD DUP2 DUP1 CALLDATASIZE DUP4 CALLDATACOPY ADD SWAP1 POP JUMPDEST POP SWAP1 POP DUP2 DUP2 ADD PUSH1 0x20 ADD JUMPDEST PUSH1 0x0 NOT ADD PUSH32 0x3031323334353637383961626364656600000000000000000000000000000000 PUSH1 0xA DUP7 MOD BYTE DUP2 MSTORE8 PUSH1 0xA DUP6 DIV SWAP5 POP DUP5 PUSH2 0x12C1 JUMPI PUSH2 0xB35 JUMP JUMPDEST PUSH2 0x1285 JUMP JUMPDEST DUP1 MLOAD PUSH2 0x12FE JUMPI PUSH1 0x40 MLOAD PUSH32 0x22CE3EDD00000000000000000000000000000000000000000000000000000000 DUP2 MSTORE PUSH1 0x4 ADD PUSH1 0x40 MLOAD DUP1 SWAP2 SUB SWAP1 REVERT JUMPDEST DUP4 DUP4 PUSH1 0x1 DUP2 GT ISZERO PUSH2 0x1311 JUMPI PUSH2 0x1311 PUSH2 0x2B07 JUMP JUMPDEST SWAP1 DUP2 PUSH1 0x1 DUP2 GT ISZERO PUSH2 0x1324 JUMPI PUSH2 0x1324 PUSH2 0x2B07 JUMP JUMPDEST SWAP1 MSTORE POP PUSH1 0x40 DUP5 ADD DUP3 DUP1 ISZERO PUSH2 0x133A JUMPI PUSH2 0x133A PUSH2 0x2B07 JUMP JUMPDEST SWAP1 DUP2 DUP1 ISZERO PUSH2 0x134A JUMPI PUSH2 0x134A PUSH2 0x2B07 JUMP JUMPDEST SWAP1 MSTORE POP PUSH1 0x60 SWAP1 SWAP4 ADD SWAP3 SWAP1 SWAP3 MSTORE POP POP JUMP JUMPDEST DUP1 MLOAD PUSH2 0x1392 JUMPI PUSH1 0x40 MLOAD PUSH32 0xFE936CB700000000000000000000000000000000000000000000000000000000 DUP2 MSTORE PUSH1 0x4 ADD PUSH1 0x40 MLOAD DUP1 SWAP2 SUB SWAP1 REVERT JUMPDEST PUSH1 0xA0 SWAP1 SWAP2 ADD MSTORE JUMP JUMPDEST PUSH1 0x0 DUP1 SLOAD DUP2 SWAP1 PUSH1 0x1 PUSH1 0x1 PUSH1 0xA0 SHL SUB AND PUSH4 0x28242B04 DUP6 PUSH2 0x13B8 DUP9 PUSH2 0x150E JUMP JUMPDEST DUP7 PUSH1 0x40 MLOAD DUP5 PUSH4 0xFFFFFFFF AND PUSH1 0xE0 SHL DUP2 MSTORE PUSH1 0x4 ADD PUSH2 0x13D7 SWAP4 SWAP3 SWAP2 SWAP1 PUSH2 0x27B2 JUMP JUMPDEST PUSH1 0x20 PUSH1 0x40 MLOAD DUP1 DUP4 SUB DUP2 PUSH1 0x0 DUP8 DUP1 EXTCODESIZE ISZERO DUP1 ISZERO PUSH2 0x13F1 JUMPI PUSH1 0x0 DUP1 REVERT JUMPDEST POP GAS CALL ISZERO DUP1 ISZERO PUSH2 0x1405 JUMPI RETURNDATASIZE PUSH1 0x0 DUP1 RETURNDATACOPY RETURNDATASIZE PUSH1 0x0 REVERT JUMPDEST POP POP POP POP PUSH1 0x40 MLOAD RETURNDATASIZE PUSH1 0x1F NOT PUSH1 0x1F DUP3 ADD AND DUP3 ADD DUP1 PUSH1 0x40 MSTORE POP DUP2 ADD SWAP1 PUSH2 0x1429 SWAP2 SWAP1 PUSH2 0x2174 JUMP JUMPDEST SWAP1 POP PUSH1 0x0 DUP1 SLOAD SWAP1 PUSH2 0x100 EXP SWAP1 DIV PUSH1 0x1 PUSH1 0x1 PUSH1 0xA0 SHL SUB AND PUSH1 0x1 PUSH1 0x1 PUSH1 0xA0 SHL SUB AND PUSH4 0x5AB1BD53 PUSH1 0x40 MLOAD DUP2 PUSH4 0xFFFFFFFF AND PUSH1 0xE0 SHL DUP2 MSTORE PUSH1 0x4 ADD PUSH1 0x20 PUSH1 0x40 MLOAD DUP1 DUP4 SUB DUP2 DUP7 DUP1 EXTCODESIZE ISZERO DUP1 ISZERO PUSH2 0x1477 JUMPI PUSH1 0x0 DUP1 REVERT JUMPDEST POP GAS STATICCALL ISZERO DUP1 ISZERO PUSH2 0x148B JUMPI RETURNDATASIZE PUSH1 0x0 DUP1 RETURNDATACOPY RETURNDATASIZE PUSH1 0x0 REVERT JUMPDEST POP POP POP POP PUSH1 0x40 MLOAD RETURNDATASIZE PUSH1 0x1F NOT PUSH1 0x1F DUP3 ADD AND DUP3 ADD DUP1 PUSH1 0x40 MSTORE POP DUP2 ADD SWAP1 PUSH2 0x14AF SWAP2 SWAP1 PUSH2 0x2112 JUMP JUMPDEST PUSH1 0x0 DUP3 DUP2 MSTORE PUSH1 0x1 PUSH1 0x20 MSTORE PUSH1 0x40 DUP1 DUP3 KECCAK256 DUP1 SLOAD PUSH1 0x1 PUSH1 0x1 PUSH1 0xA0 SHL SUB NOT AND PUSH1 0x1 PUSH1 0x1 PUSH1 0xA0 SHL SUB SWAP5 SWAP1 SWAP5 AND SWAP4 SWAP1 SWAP4 OR SWAP1 SWAP3 SSTORE SWAP1 MLOAD DUP3 SWAP2 PUSH32 0x1131472297A800FEE664D1D89CFA8F7676FF07189ECC53F80BBB5F4969099DB8 SWAP2 LOG2 SWAP1 POP JUMPDEST SWAP4 SWAP3 POP POP POP JUMP JUMPDEST PUSH1 0x60 PUSH2 0x1518 PUSH2 0x1EC6 JUMP JUMPDEST DUP1 MLOAD PUSH2 0x1526 SWAP1 PUSH2 0x100 PUSH2 0x1968 JUMP JUMPDEST POP PUSH2 0x1566 DUP2 PUSH1 0x40 MLOAD DUP1 PUSH1 0x40 ADD PUSH1 0x40 MSTORE DUP1 PUSH1 0xC DUP2 MSTORE PUSH1 0x20 ADD PUSH32 0x636F64654C6F636174696F6E0000000000000000000000000000000000000000 DUP2 MSTORE POP PUSH2 0x19DF JUMP JUMPDEST PUSH2 0x1585 DUP2 DUP5 PUSH1 0x0 ADD MLOAD PUSH1 0x1 DUP2 GT ISZERO PUSH2 0x1580 JUMPI PUSH2 0x1580 PUSH2 0x2B07 JUMP JUMPDEST PUSH2 0x19FD JUMP JUMPDEST PUSH2 0x15C4 DUP2 PUSH1 0x40 MLOAD DUP1 PUSH1 0x40 ADD PUSH1 0x40 MSTORE DUP1 PUSH1 0x8 DUP2 MSTORE PUSH1 0x20 ADD PUSH32 0x6C616E6775616765000000000000000000000000000000000000000000000000 DUP2 MSTORE POP PUSH2 0x19DF JUMP JUMPDEST PUSH2 0x15DE DUP2 DUP5 PUSH1 0x40 ADD MLOAD PUSH1 0x0 DUP2 GT ISZERO PUSH2 0x1580 JUMPI PUSH2 0x1580 PUSH2 0x2B07 JUMP JUMPDEST PUSH2 0x161D DUP2 PUSH1 0x40 MLOAD DUP1 PUSH1 0x40 ADD PUSH1 0x40 MSTORE DUP1 PUSH1 0x6 DUP2 MSTORE PUSH1 0x20 ADD PUSH32 0x736F757263650000000000000000000000000000000000000000000000000000 DUP2 MSTORE POP PUSH2 0x19DF JUMP JUMPDEST PUSH2 0x162B DUP2 DUP5 PUSH1 0x60 ADD MLOAD PUSH2 0x19DF JUMP JUMPDEST PUSH1 0xA0 DUP4 ADD MLOAD MLOAD ISZERO PUSH2 0x16D1 JUMPI PUSH2 0x1675 DUP2 PUSH1 0x40 MLOAD DUP1 PUSH1 0x40 ADD PUSH1 0x40 MSTORE DUP1 PUSH1 0x4 DUP2 MSTORE PUSH1 0x20 ADD PUSH32 0x6172677300000000000000000000000000000000000000000000000000000000 DUP2 MSTORE POP PUSH2 0x19DF JUMP JUMPDEST PUSH2 0x167E DUP2 PUSH2 0x1A36 JUMP JUMPDEST PUSH1 0x0 JUMPDEST DUP4 PUSH1 0xA0 ADD MLOAD MLOAD DUP2 LT ISZERO PUSH2 0x16C7 JUMPI PUSH2 0x16B5 DUP3 DUP6 PUSH1 0xA0 ADD MLOAD DUP4 DUP2 MLOAD DUP2 LT PUSH2 0x16A8 JUMPI PUSH2 0x16A8 PUSH2 0x2B1D JUMP JUMPDEST PUSH1 0x20 MUL PUSH1 0x20 ADD ADD MLOAD PUSH2 0x19DF JUMP JUMPDEST DUP1 PUSH2 0x16BF DUP2 PUSH2 0x2AB4 JUMP JUMPDEST SWAP2 POP POP PUSH2 0x1681 JUMP JUMPDEST POP PUSH2 0x16D1 DUP2 PUSH2 0x1A5A JUMP JUMPDEST PUSH1 0x80 DUP4 ADD MLOAD MLOAD ISZERO PUSH2 0x17D2 JUMPI PUSH1 0x0 DUP4 PUSH1 0x20 ADD MLOAD PUSH1 0x1 DUP2 GT ISZERO PUSH2 0x16F4 JUMPI PUSH2 0x16F4 PUSH2 0x2B07 JUMP JUMPDEST EQ ISZERO PUSH2 0x172C JUMPI PUSH1 0x40 MLOAD PUSH32 0xA80D31F700000000000000000000000000000000000000000000000000000000 DUP2 MSTORE PUSH1 0x4 ADD PUSH1 0x40 MLOAD DUP1 SWAP2 SUB SWAP1 REVERT JUMPDEST PUSH2 0x176B DUP2 PUSH1 0x40 MLOAD DUP1 PUSH1 0x40 ADD PUSH1 0x40 MSTORE DUP1 PUSH1 0xF DUP2 MSTORE PUSH1 0x20 ADD PUSH32 0x736563726574734C6F636174696F6E0000000000000000000000000000000000 DUP2 MSTORE POP PUSH2 0x19DF JUMP JUMPDEST PUSH2 0x1785 DUP2 DUP5 PUSH1 0x20 ADD MLOAD PUSH1 0x1 DUP2 GT ISZERO PUSH2 0x1580 JUMPI PUSH2 0x1580 PUSH2 0x2B07 JUMP JUMPDEST PUSH2 0x17C4 DUP2 PUSH1 0x40 MLOAD DUP1 PUSH1 0x40 ADD PUSH1 0x40 MSTORE DUP1 PUSH1 0x7 DUP2 MSTORE PUSH1 0x20 ADD PUSH32 0x7365637265747300000000000000000000000000000000000000000000000000 DUP2 MSTORE POP PUSH2 0x19DF JUMP JUMPDEST PUSH2 0x17D2 DUP2 DUP5 PUSH1 0x80 ADD MLOAD PUSH2 0x1A78 JUMP JUMPDEST MLOAD MLOAD SWAP3 SWAP2 POP POP JUMP JUMPDEST PUSH1 0x1 PUSH1 0x1 PUSH1 0xA0 SHL SUB DUP2 AND CALLER EQ ISZERO PUSH2 0x1833 JUMPI PUSH1 0x40 MLOAD PUSH3 0x461BCD PUSH1 0xE5 SHL DUP2 MSTORE PUSH1 0x20 PUSH1 0x4 DUP3 ADD MSTORE PUSH1 0x17 PUSH1 0x24 DUP3 ADD MSTORE PUSH32 0x43616E6E6F74207472616E7366657220746F2073656C66000000000000000000 PUSH1 0x44 DUP3 ADD MSTORE PUSH1 0x64 ADD PUSH2 0x389 JUMP JUMPDEST PUSH1 0x3 DUP1 SLOAD PUSH1 0x1 PUSH1 0x1 PUSH1 0xA0 SHL SUB NOT AND PUSH1 0x1 PUSH1 0x1 PUSH1 0xA0 SHL SUB DUP4 DUP2 AND SWAP2 DUP3 OR SWAP1 SWAP3 SSTORE PUSH1 0x2 SLOAD PUSH1 0x40 MLOAD SWAP2 SWAP3 AND SWAP1 PUSH32 0xED8889F560326EB138920D842192F0EB3DD22B4F139C87A2C57538E05BAE1278 SWAP1 PUSH1 0x0 SWAP1 LOG3 POP JUMP JUMPDEST PUSH1 0x0 DUP1 PUSH27 0x184F03E93FF9F4DAA797ED6E38ED64BF6A1F010000000000000000 DUP4 LT PUSH2 0x18CE JUMPI PUSH27 0x184F03E93FF9F4DAA797ED6E38ED64BF6A1F010000000000000000 DUP4 DIV SWAP3 POP PUSH1 0x40 ADD JUMPDEST PUSH14 0x4EE2D6D415B85ACEF8100000000 DUP4 LT PUSH2 0x18FA JUMPI PUSH14 0x4EE2D6D415B85ACEF8100000000 DUP4 DIV SWAP3 POP PUSH1 0x20 ADD JUMPDEST PUSH7 0x2386F26FC10000 DUP4 LT PUSH2 0x1918 JUMPI PUSH7 0x2386F26FC10000 DUP4 DIV SWAP3 POP PUSH1 0x10 ADD JUMPDEST PUSH4 0x5F5E100 DUP4 LT PUSH2 0x1930 JUMPI PUSH4 0x5F5E100 DUP4 DIV SWAP3 POP PUSH1 0x8 ADD JUMPDEST PUSH2 0x2710 DUP4 LT PUSH2 0x1944 JUMPI PUSH2 0x2710 DUP4 DIV SWAP3 POP PUSH1 0x4 ADD JUMPDEST PUSH1 0x64 DUP4 LT PUSH2 0x1956 JUMPI PUSH1 0x64 DUP4 DIV SWAP3 POP PUSH1 0x2 ADD JUMPDEST PUSH1 0xA DUP4 LT PUSH2 0x1962 JUMPI PUSH1 0x1 ADD JUMPDEST SWAP3 SWAP2 POP POP JUMP JUMPDEST PUSH1 0x40 DUP1 MLOAD DUP1 DUP3 ADD SWAP1 SWAP2 MSTORE PUSH1 0x60 DUP2 MSTORE PUSH1 0x0 PUSH1 0x20 DUP3 ADD MSTORE PUSH2 0x1988 PUSH1 0x20 DUP4 PUSH2 0x2ACF JUMP JUMPDEST ISZERO PUSH2 0x19B0 JUMPI PUSH2 0x1998 PUSH1 0x20 DUP4 PUSH2 0x2ACF JUMP JUMPDEST PUSH2 0x19A3 SWAP1 PUSH1 0x20 PUSH2 0x2A36 JUMP JUMPDEST PUSH2 0x19AD SWAP1 DUP4 PUSH2 0x2914 JUMP JUMPDEST SWAP2 POP JUMPDEST PUSH1 0x20 DUP1 DUP5 ADD DUP4 SWAP1 MSTORE PUSH1 0x40 MLOAD DUP1 DUP6 MSTORE PUSH1 0x0 DUP2 MSTORE SWAP1 DUP2 DUP5 ADD ADD DUP2 DUP2 LT ISZERO PUSH2 0x19D4 JUMPI PUSH1 0x0 DUP1 REVERT JUMPDEST PUSH1 0x40 MSTORE POP SWAP2 SWAP3 SWAP2 POP POP JUMP JUMPDEST PUSH2 0x19EC DUP3 PUSH1 0x3 DUP4 MLOAD PUSH2 0x1A81 JUMP JUMPDEST DUP2 MLOAD PUSH2 0x19F8 SWAP1 DUP3 PUSH2 0x1BA2 JUMP JUMPDEST POP POP POP JUMP JUMPDEST DUP2 MLOAD PUSH2 0x1A0A SWAP1 PUSH1 0xC2 PUSH2 0x1BC3 JUMP JUMPDEST POP PUSH2 0x32F DUP3 DUP3 PUSH1 0x40 MLOAD PUSH1 0x20 ADD PUSH2 0x1A22 SWAP2 DUP2 MSTORE PUSH1 0x20 ADD SWAP1 JUMP JUMPDEST PUSH1 0x40 MLOAD PUSH1 0x20 DUP2 DUP4 SUB SUB DUP2 MSTORE SWAP1 PUSH1 0x40 MSTORE PUSH2 0x1A78 JUMP JUMPDEST PUSH2 0x1A41 DUP2 PUSH1 0x4 PUSH2 0x1C2C JUMP JUMPDEST PUSH1 0x1 DUP2 PUSH1 0x20 ADD DUP2 DUP2 MLOAD PUSH2 0x1A54 SWAP2 SWAP1 PUSH2 0x2914 JUMP JUMPDEST SWAP1 MSTORE POP POP JUMP JUMPDEST PUSH2 0x1A65 DUP2 PUSH1 0x7 PUSH2 0x1C2C JUMP JUMPDEST PUSH1 0x1 DUP2 PUSH1 0x20 ADD DUP2 DUP2 MLOAD PUSH2 0x1A54 SWAP2 SWAP1 PUSH2 0x2A36 JUMP JUMPDEST PUSH2 0x19EC DUP3 PUSH1 0x2 DUP4 MLOAD JUMPDEST PUSH1 0x17 DUP2 PUSH8 0xFFFFFFFFFFFFFFFF AND GT PUSH2 0x1AA8 JUMPI DUP3 MLOAD PUSH2 0x317 SWAP1 PUSH1 0xE0 PUSH1 0x5 DUP6 SWAP1 SHL AND DUP4 OR PUSH2 0x1BC3 JUMP JUMPDEST PUSH1 0xFF DUP2 PUSH8 0xFFFFFFFFFFFFFFFF AND GT PUSH2 0x1AEA JUMPI DUP3 MLOAD PUSH2 0x1AD1 SWAP1 PUSH1 0x18 PUSH2 0x1FE0 PUSH1 0x5 DUP7 SWAP1 SHL AND OR PUSH2 0x1BC3 JUMP JUMPDEST POP DUP3 MLOAD PUSH2 0x317 SWAP1 PUSH8 0xFFFFFFFFFFFFFFFF DUP4 AND PUSH1 0x1 PUSH2 0x1C43 JUMP JUMPDEST PUSH2 0xFFFF DUP2 PUSH8 0xFFFFFFFFFFFFFFFF AND GT PUSH2 0x1B2D JUMPI DUP3 MLOAD PUSH2 0x1B14 SWAP1 PUSH1 0x19 PUSH2 0x1FE0 PUSH1 0x5 DUP7 SWAP1 SHL AND OR PUSH2 0x1BC3 JUMP JUMPDEST POP DUP3 MLOAD PUSH2 0x317 SWAP1 PUSH8 0xFFFFFFFFFFFFFFFF DUP4 AND PUSH1 0x2 PUSH2 0x1C43 JUMP JUMPDEST PUSH4 0xFFFFFFFF DUP2 PUSH8 0xFFFFFFFFFFFFFFFF AND GT PUSH2 0x1B72 JUMPI DUP3 MLOAD PUSH2 0x1B59 SWAP1 PUSH1 0x1A PUSH2 0x1FE0 PUSH1 0x5 DUP7 SWAP1 SHL AND OR PUSH2 0x1BC3 JUMP JUMPDEST POP DUP3 MLOAD PUSH2 0x317 SWAP1 PUSH8 0xFFFFFFFFFFFFFFFF DUP4 AND PUSH1 0x4 PUSH2 0x1C43 JUMP JUMPDEST DUP3 MLOAD PUSH2 0x1B89 SWAP1 PUSH1 0x1B PUSH2 0x1FE0 PUSH1 0x5 DUP7 SWAP1 SHL AND OR PUSH2 0x1BC3 JUMP JUMPDEST POP DUP3 MLOAD PUSH2 0x317 SWAP1 PUSH8 0xFFFFFFFFFFFFFFFF DUP4 AND PUSH1 0x8 PUSH2 0x1C43 JUMP JUMPDEST PUSH1 0x40 DUP1 MLOAD DUP1 DUP3 ADD SWAP1 SWAP2 MSTORE PUSH1 0x60 DUP2 MSTORE PUSH1 0x0 PUSH1 0x20 DUP3 ADD MSTORE PUSH2 0x1507 DUP4 DUP4 DUP5 MLOAD PUSH2 0x1CC8 JUMP JUMPDEST PUSH1 0x40 DUP1 MLOAD DUP1 DUP3 ADD SWAP1 SWAP2 MSTORE PUSH1 0x60 DUP2 MSTORE PUSH1 0x0 PUSH1 0x20 DUP3 ADD MSTORE DUP3 MLOAD MLOAD PUSH1 0x0 PUSH2 0x1BE8 DUP3 PUSH1 0x1 PUSH2 0x2914 JUMP JUMPDEST SWAP1 POP DUP5 PUSH1 0x20 ADD MLOAD DUP3 LT PUSH2 0x1C09 JUMPI PUSH2 0x1C09 DUP6 PUSH2 0x1C04 DUP4 PUSH1 0x2 PUSH2 0x2A17 JUMP JUMPDEST PUSH2 0x1D99 JUMP JUMPDEST DUP5 MLOAD PUSH1 0x20 DUP4 DUP3 ADD ADD DUP6 DUP2 MSTORE8 POP DUP1 MLOAD DUP3 GT ISZERO PUSH2 0x1C22 JUMPI DUP2 DUP2 MSTORE JUMPDEST POP SWAP4 SWAP5 SWAP4 POP POP POP POP JUMP JUMPDEST DUP2 MLOAD PUSH2 0x19F8 SWAP1 PUSH1 0x1F PUSH2 0x1FE0 PUSH1 0x5 DUP6 SWAP1 SHL AND OR PUSH2 0x1BC3 JUMP JUMPDEST PUSH1 0x40 DUP1 MLOAD DUP1 DUP3 ADD SWAP1 SWAP2 MSTORE PUSH1 0x60 DUP2 MSTORE PUSH1 0x0 PUSH1 0x20 DUP3 ADD MSTORE DUP4 MLOAD MLOAD PUSH1 0x0 PUSH2 0x1C67 DUP3 DUP6 PUSH2 0x2914 JUMP JUMPDEST SWAP1 POP DUP6 PUSH1 0x20 ADD MLOAD DUP2 GT ISZERO PUSH2 0x1C84 JUMPI PUSH2 0x1C84 DUP7 PUSH2 0x1C04 DUP4 PUSH1 0x2 PUSH2 0x2A17 JUMP JUMPDEST PUSH1 0x0 PUSH1 0x1 PUSH2 0x1C94 DUP7 PUSH2 0x100 PUSH2 0x296F JUMP JUMPDEST PUSH2 0x1C9E SWAP2 SWAP1 PUSH2 0x2A36 JUMP JUMPDEST SWAP1 POP DUP7 MLOAD DUP3 DUP2 ADD DUP8 DUP4 NOT DUP3 MLOAD AND OR DUP2 MSTORE POP DUP1 MLOAD DUP4 GT ISZERO PUSH2 0x1CBC JUMPI DUP3 DUP2 MSTORE JUMPDEST POP SWAP6 SWAP7 SWAP6 POP POP POP POP POP POP JUMP JUMPDEST PUSH1 0x40 DUP1 MLOAD DUP1 DUP3 ADD SWAP1 SWAP2 MSTORE PUSH1 0x60 DUP2 MSTORE PUSH1 0x0 PUSH1 0x20 DUP3 ADD MSTORE DUP3 MLOAD DUP3 GT ISZERO PUSH2 0x1CEB JUMPI PUSH1 0x0 DUP1 REVERT JUMPDEST DUP4 MLOAD MLOAD PUSH1 0x0 PUSH2 0x1CFA DUP5 DUP4 PUSH2 0x2914 JUMP JUMPDEST SWAP1 POP DUP6 PUSH1 0x20 ADD MLOAD DUP2 GT ISZERO PUSH2 0x1D17 JUMPI PUSH2 0x1D17 DUP7 PUSH2 0x1C04 DUP4 PUSH1 0x2 PUSH2 0x2A17 JUMP JUMPDEST DUP6 MLOAD DUP1 MLOAD DUP4 DUP3 ADD PUSH1 0x20 ADD SWAP2 PUSH1 0x0 SWAP2 DUP1 DUP6 GT ISZERO PUSH2 0x1D31 JUMPI DUP5 DUP3 MSTORE JUMPDEST POP POP POP PUSH1 0x20 DUP7 ADD JUMPDEST PUSH1 0x20 DUP7 LT PUSH2 0x1D71 JUMPI DUP1 MLOAD DUP3 MSTORE PUSH2 0x1D50 PUSH1 0x20 DUP4 PUSH2 0x2914 JUMP JUMPDEST SWAP2 POP PUSH2 0x1D5D PUSH1 0x20 DUP3 PUSH2 0x2914 JUMP JUMPDEST SWAP1 POP PUSH2 0x1D6A PUSH1 0x20 DUP8 PUSH2 0x2A36 JUMP JUMPDEST SWAP6 POP PUSH2 0x1D39 JUMP JUMPDEST MLOAD DUP2 MLOAD PUSH1 0x0 NOT PUSH1 0x20 DUP9 SWAP1 SUB PUSH2 0x100 EXP ADD SWAP1 DUP2 AND SWAP1 NOT SWAP2 SWAP1 SWAP2 AND OR SWAP1 MSTORE POP DUP5 SWAP2 POP POP SWAP4 SWAP3 POP POP POP JUMP JUMPDEST DUP2 MLOAD PUSH2 0x1DA5 DUP4 DUP4 PUSH2 0x1968 JUMP JUMPDEST POP PUSH2 0x317 DUP4 DUP3 PUSH2 0x1BA2 JUMP JUMPDEST PUSH1 0x40 MLOAD DUP1 PUSH1 0x40 ADD PUSH1 0x40 MSTORE DUP1 PUSH2 0x1E1F PUSH1 0x40 MLOAD DUP1 PUSH2 0x180 ADD PUSH1 0x40 MSTORE DUP1 PUSH1 0x60 DUP2 MSTORE PUSH1 0x20 ADD PUSH1 0x60 DUP2 MSTORE PUSH1 0x20 ADD PUSH1 0x60 DUP2 MSTORE PUSH1 0x20 ADD PUSH1 0x60 DUP2 MSTORE PUSH1 0x20 ADD PUSH1 0x60 DUP2 MSTORE PUSH1 0x20 ADD PUSH1 0x60 DUP2 MSTORE PUSH1 0x20 ADD PUSH1 0x60 DUP2 MSTORE PUSH1 0x20 ADD PUSH1 0x60 DUP2 MSTORE PUSH1 0x20 ADD PUSH1 0x60 DUP2 MSTORE PUSH1 0x20 ADD PUSH1 0x60 DUP2 MSTORE PUSH1 0x20 ADD PUSH1 0x60 DUP2 MSTORE PUSH1 0x20 ADD PUSH1 0x60 DUP2 MSTORE POP SWAP1 JUMP JUMPDEST DUP2 MSTORE PUSH1 0x40 DUP1 MLOAD PUSH1 0x60 DUP2 ADD DUP3 MSTORE PUSH1 0x0 DUP1 DUP3 MSTORE PUSH1 0x20 DUP3 DUP2 ADD DUP3 SWAP1 MSTORE SWAP3 DUP3 ADD MSTORE SWAP2 ADD MSTORE SWAP1 JUMP JUMPDEST DUP3 DUP1 SLOAD PUSH2 0x1E4E SWAP1 PUSH2 0x2A79 JUMP JUMPDEST SWAP1 PUSH1 0x0 MSTORE PUSH1 0x20 PUSH1 0x0 KECCAK256 SWAP1 PUSH1 0x1F ADD PUSH1 0x20 SWAP1 DIV DUP2 ADD SWAP3 DUP3 PUSH2 0x1E70 JUMPI PUSH1 0x0 DUP6 SSTORE PUSH2 0x1EB6 JUMP JUMPDEST DUP3 PUSH1 0x1F LT PUSH2 0x1E89 JUMPI DUP1 MLOAD PUSH1 0xFF NOT AND DUP4 DUP1 ADD OR DUP6 SSTORE PUSH2 0x1EB6 JUMP JUMPDEST DUP3 DUP1 ADD PUSH1 0x1 ADD DUP6 SSTORE DUP3 ISZERO PUSH2 0x1EB6 JUMPI SWAP2 DUP3 ADD JUMPDEST DUP3 DUP2 GT ISZERO PUSH2 0x1EB6 JUMPI DUP3 MLOAD DUP3 SSTORE SWAP2 PUSH1 0x20 ADD SWAP2 SWAP1 PUSH1 0x1 ADD SWAP1 PUSH2 0x1E9B JUMP JUMPDEST POP PUSH2 0x1EC2 SWAP3 SWAP2 POP PUSH2 0x1EFB JUMP JUMPDEST POP SWAP1 JUMP JUMPDEST PUSH1 0x40 MLOAD DUP1 PUSH1 0x40 ADD PUSH1 0x40 MSTORE DUP1 PUSH2 0x1EEE PUSH1 0x40 MLOAD DUP1 PUSH1 0x40 ADD PUSH1 0x40 MSTORE DUP1 PUSH1 0x60 DUP2 MSTORE PUSH1 0x20 ADD PUSH1 0x0 DUP2 MSTORE POP SWAP1 JUMP JUMPDEST DUP2 MSTORE PUSH1 0x20 ADD PUSH1 0x0 DUP2 MSTORE POP SWAP1 JUMP JUMPDEST JUMPDEST DUP1 DUP3 GT ISZERO PUSH2 0x1EC2 JUMPI PUSH1 0x0 DUP2 SSTORE PUSH1 0x1 ADD PUSH2 0x1EFC JUMP JUMPDEST PUSH1 0x0 PUSH2 0x1F23 PUSH2 0x1F1E DUP5 PUSH2 0x28EC JUMP JUMPDEST PUSH2 0x28BB JUMP JUMPDEST SWAP1 POP DUP3 DUP2 MSTORE DUP4 DUP4 DUP4 ADD GT ISZERO PUSH2 0x1F37 JUMPI PUSH1 0x0 DUP1 REVERT JUMPDEST PUSH2 0x1507 DUP4 PUSH1 0x20 DUP4 ADD DUP5 PUSH2 0x2A4D JUMP JUMPDEST PUSH1 0x0 DUP1 DUP4 PUSH1 0x1F DUP5 ADD SLT PUSH2 0x1F57 JUMPI PUSH1 0x0 DUP1 REVERT JUMPDEST POP DUP2 CALLDATALOAD PUSH8 0xFFFFFFFFFFFFFFFF DUP2 GT ISZERO PUSH2 0x1F6F JUMPI PUSH1 0x0 DUP1 REVERT JUMPDEST PUSH1 0x20 DUP4 ADD SWAP2 POP DUP4 PUSH1 0x20 DUP3 PUSH1 0x5 SHL DUP6 ADD ADD GT ISZERO PUSH2 0x1F8A JUMPI PUSH1 0x0 DUP1 REVERT JUMPDEST SWAP3 POP SWAP3 SWAP1 POP JUMP JUMPDEST PUSH1 0x0 DUP3 PUSH1 0x1F DUP4 ADD SLT PUSH2 0x1FA2 JUMPI PUSH1 0x0 DUP1 REVERT JUMPDEST DUP2 CALLDATALOAD PUSH1 0x20 PUSH8 0xFFFFFFFFFFFFFFFF DUP1 DUP4 GT ISZERO PUSH2 0x1FBF JUMPI PUSH2 0x1FBF PUSH2 0x2B33 JUMP JUMPDEST DUP3 PUSH1 0x5 SHL PUSH2 0x1FCE DUP4 DUP3 ADD PUSH2 0x28BB JUMP JUMPDEST DUP5 DUP2 MSTORE DUP4 DUP2 ADD SWAP1 DUP8 DUP6 ADD DUP4 DUP10 ADD DUP7 ADD DUP11 LT ISZERO PUSH2 0x1FE9 JUMPI PUSH1 0x0 DUP1 REVERT JUMPDEST PUSH1 0x0 SWAP4 POP DUP4 JUMPDEST DUP8 DUP2 LT ISZERO PUSH2 0x2026 JUMPI DUP2 CALLDATALOAD DUP7 DUP2 GT ISZERO PUSH2 0x2005 JUMPI DUP6 DUP7 REVERT JUMPDEST PUSH2 0x2013 DUP13 DUP10 DUP4 DUP15 ADD ADD PUSH2 0x2035 JUMP JUMPDEST DUP6 MSTORE POP SWAP3 DUP7 ADD SWAP3 SWAP1 DUP7 ADD SWAP1 PUSH1 0x1 ADD PUSH2 0x1FEF JUMP JUMPDEST POP SWAP1 SWAP10 SWAP9 POP POP POP POP POP POP POP POP POP JUMP JUMPDEST PUSH1 0x0 DUP3 PUSH1 0x1F DUP4 ADD SLT PUSH2 0x2046 JUMPI PUSH1 0x0 DUP1 REVERT JUMPDEST DUP2 CALLDATALOAD PUSH2 0x2054 PUSH2 0x1F1E DUP3 PUSH2 0x28EC JUMP JUMPDEST DUP2 DUP2 MSTORE DUP5 PUSH1 0x20 DUP4 DUP7 ADD ADD GT ISZERO PUSH2 0x2069 JUMPI PUSH1 0x0 DUP1 REVERT JUMPDEST DUP2 PUSH1 0x20 DUP6 ADD PUSH1 0x20 DUP4 ADD CALLDATACOPY PUSH1 0x0 SWAP2 DUP2 ADD PUSH1 0x20 ADD SWAP2 SWAP1 SWAP2 MSTORE SWAP4 SWAP3 POP POP POP JUMP JUMPDEST DUP1 CALLDATALOAD PUSH1 0x1 DUP2 LT PUSH2 0x2095 JUMPI PUSH1 0x0 DUP1 REVERT JUMPDEST SWAP2 SWAP1 POP JUMP JUMPDEST DUP1 CALLDATALOAD PUSH1 0x2 DUP2 LT PUSH2 0x2095 JUMPI PUSH1 0x0 DUP1 REVERT JUMPDEST PUSH1 0x0 DUP3 PUSH1 0x1F DUP4 ADD SLT PUSH2 0x20BA JUMPI PUSH1 0x0 DUP1 REVERT JUMPDEST PUSH2 0x1507 DUP4 DUP4 MLOAD PUSH1 0x20 DUP6 ADD PUSH2 0x1F10 JUMP JUMPDEST DUP1 CALLDATALOAD PUSH4 0xFFFFFFFF DUP2 AND DUP2 EQ PUSH2 0x2095 JUMPI PUSH1 0x0 DUP1 REVERT JUMPDEST DUP1 CALLDATALOAD PUSH8 0xFFFFFFFFFFFFFFFF DUP2 AND DUP2 EQ PUSH2 0x2095 JUMPI PUSH1 0x0 DUP1 REVERT JUMPDEST PUSH1 0x0 PUSH1 0x20 DUP3 DUP5 SUB SLT ISZERO PUSH2 0x2107 JUMPI PUSH1 0x0 DUP1 REVERT JUMPDEST DUP2 CALLDATALOAD PUSH2 0x1507 DUP2 PUSH2 0x2B49 JUMP JUMPDEST PUSH1 0x0 PUSH1 0x20 DUP3 DUP5 SUB SLT ISZERO PUSH2 0x2124 JUMPI PUSH1 0x0 DUP1 REVERT JUMPDEST DUP2 MLOAD PUSH2 0x1507 DUP2 PUSH2 0x2B49 JUMP JUMPDEST PUSH1 0x0 DUP1 PUSH1 0x40 DUP4 DUP6 SUB SLT ISZERO PUSH2 0x2142 JUMPI PUSH1 0x0 DUP1 REVERT JUMPDEST DUP3 CALLDATALOAD PUSH2 0x214D DUP2 PUSH2 0x2B49 JUMP JUMPDEST SWAP5 PUSH1 0x20 SWAP4 SWAP1 SWAP4 ADD CALLDATALOAD SWAP4 POP POP POP JUMP JUMPDEST PUSH1 0x0 PUSH1 0x20 DUP3 DUP5 SUB SLT ISZERO PUSH2 0x216D JUMPI PUSH1 0x0 DUP1 REVERT JUMPDEST POP CALLDATALOAD SWAP2 SWAP1 POP JUMP JUMPDEST PUSH1 0x0 PUSH1 0x20 DUP3 DUP5 SUB SLT ISZERO PUSH2 0x2186 JUMPI PUSH1 0x0 DUP1 REVERT JUMPDEST POP MLOAD SWAP2 SWAP1 POP JUMP JUMPDEST PUSH1 0x0 DUP1 PUSH1 0x0 PUSH1 0x60 DUP5 DUP7 SUB SLT ISZERO PUSH2 0x21A2 JUMPI PUSH1 0x0 DUP1 REVERT JUMPDEST DUP4 CALLDATALOAD SWAP3 POP PUSH1 0x20 DUP5 ADD CALLDATALOAD PUSH8 0xFFFFFFFFFFFFFFFF DUP1 DUP3 GT ISZERO PUSH2 0x21C1 JUMPI PUSH1 0x0 DUP1 REVERT JUMPDEST PUSH2 0x21CD DUP8 DUP4 DUP9 ADD PUSH2 0x2035 JUMP JUMPDEST SWAP4 POP PUSH1 0x40 DUP7 ADD CALLDATALOAD SWAP2 POP DUP1 DUP3 GT ISZERO PUSH2 0x21E3 JUMPI PUSH1 0x0 DUP1 REVERT JUMPDEST POP PUSH2 0x21F0 DUP7 DUP3 DUP8 ADD PUSH2 0x2035 JUMP JUMPDEST SWAP2 POP POP SWAP3 POP SWAP3 POP SWAP3 JUMP JUMPDEST PUSH1 0x0 PUSH1 0x20 DUP3 DUP5 SUB SLT ISZERO PUSH2 0x220C JUMPI PUSH1 0x0 DUP1 REVERT JUMPDEST DUP2 MLOAD PUSH8 0xFFFFFFFFFFFFFFFF DUP2 GT ISZERO PUSH2 0x2223 JUMPI PUSH1 0x0 DUP1 REVERT JUMPDEST DUP3 ADD PUSH1 0x1F DUP2 ADD DUP5 SGT PUSH2 0x2234 JUMPI PUSH1 0x0 DUP1 REVERT JUMPDEST PUSH2 0x2243 DUP5 DUP3 MLOAD PUSH1 0x20 DUP5 ADD PUSH2 0x1F10 JUMP JUMPDEST SWAP5 SWAP4 POP POP POP POP JUMP JUMPDEST PUSH1 0x0 DUP1 PUSH1 0x0 DUP1 PUSH1 0x0 DUP1 PUSH1 0x0 PUSH1 0xA0 DUP9 DUP11 SUB SLT ISZERO PUSH2 0x2266 JUMPI PUSH1 0x0 DUP1 REVERT JUMPDEST DUP8 CALLDATALOAD PUSH8 0xFFFFFFFFFFFFFFFF DUP1 DUP3 GT ISZERO PUSH2 0x227E JUMPI PUSH1 0x0 DUP1 REVERT JUMPDEST DUP2 DUP11 ADD SWAP2 POP DUP11 PUSH1 0x1F DUP4 ADD SLT PUSH2 0x2292 JUMPI PUSH1 0x0 DUP1 REVERT JUMPDEST DUP2 CALLDATALOAD DUP2 DUP2 GT ISZERO PUSH2 0x22A1 JUMPI PUSH1 0x0 DUP1 REVERT JUMPDEST DUP12 PUSH1 0x20 DUP3 DUP6 ADD ADD GT ISZERO PUSH2 0x22B3 JUMPI PUSH1 0x0 DUP1 REVERT JUMPDEST PUSH1 0x20 SWAP3 DUP4 ADD SWAP10 POP SWAP8 POP SWAP1 DUP10 ADD CALLDATALOAD SWAP1 DUP1 DUP3 GT ISZERO PUSH2 0x22CE JUMPI PUSH1 0x0 DUP1 REVERT JUMPDEST POP PUSH2 0x22DB DUP11 DUP3 DUP12 ADD PUSH2 0x1F45 JUMP JUMPDEST SWAP1 SWAP7 POP SWAP5 POP PUSH2 0x22EE SWAP1 POP PUSH1 0x40 DUP10 ADD PUSH2 0x20DD JUMP JUMPDEST SWAP3 POP PUSH2 0x22FC PUSH1 0x60 DUP10 ADD PUSH2 0x20C9 JUMP JUMPDEST SWAP2 POP PUSH1 0x80 DUP9 ADD CALLDATALOAD SWAP1 POP SWAP3 SWAP6 SWAP9 SWAP2 SWAP5 SWAP8 POP SWAP3 SWAP6 POP JUMP JUMPDEST PUSH1 0x0 PUSH1 0x20 DUP3 DUP5 SUB SLT ISZERO PUSH2 0x2323 JUMPI PUSH1 0x0 DUP1 REVERT JUMPDEST DUP2 CALLDATALOAD PUSH8 0xFFFFFFFFFFFFFFFF DUP2 GT ISZERO PUSH2 0x233A JUMPI PUSH1 0x0 DUP1 REVERT JUMPDEST PUSH2 0x2243 DUP5 DUP3 DUP6 ADD PUSH2 0x2035 JUMP JUMPDEST PUSH1 0x0 PUSH1 0x20 DUP3 DUP5 SUB SLT ISZERO PUSH2 0x2358 JUMPI PUSH1 0x0 DUP1 REVERT JUMPDEST DUP2 MLOAD PUSH8 0xFFFFFFFFFFFFFFFF DUP1 DUP3 GT ISZERO PUSH2 0x2370 JUMPI PUSH1 0x0 DUP1 REVERT JUMPDEST SWAP1 DUP4 ADD SWAP1 PUSH2 0x180 DUP3 DUP7 SUB SLT ISZERO PUSH2 0x2385 JUMPI PUSH1 0x0 DUP1 REVERT JUMPDEST PUSH2 0x238D PUSH2 0x286E JUMP JUMPDEST DUP3 MLOAD DUP3 DUP2 GT ISZERO PUSH2 0x239C JUMPI PUSH1 0x0 DUP1 REVERT JUMPDEST PUSH2 0x23A8 DUP8 DUP3 DUP7 ADD PUSH2 0x20A9 JUMP JUMPDEST DUP3 MSTORE POP PUSH1 0x20 DUP4 ADD MLOAD DUP3 DUP2 GT ISZERO PUSH2 0x23BD JUMPI PUSH1 0x0 DUP1 REVERT JUMPDEST PUSH2 0x23C9 DUP8 DUP3 DUP7 ADD PUSH2 0x20A9 JUMP JUMPDEST PUSH1 0x20 DUP4 ADD MSTORE POP PUSH1 0x40 DUP4 ADD MLOAD DUP3 DUP2 GT ISZERO PUSH2 0x23E1 JUMPI PUSH1 0x0 DUP1 REVERT JUMPDEST PUSH2 0x23ED DUP8 DUP3 DUP7 ADD PUSH2 0x20A9 JUMP JUMPDEST PUSH1 0x40 DUP4 ADD MSTORE POP PUSH1 0x60 DUP4 ADD MLOAD DUP3 DUP2 GT ISZERO PUSH2 0x2405 JUMPI PUSH1 0x0 DUP1 REVERT JUMPDEST PUSH2 0x2411 DUP8 DUP3 DUP7 ADD PUSH2 0x20A9 JUMP JUMPDEST PUSH1 0x60 DUP4 ADD MSTORE POP PUSH1 0x80 DUP4 ADD MLOAD DUP3 DUP2 GT ISZERO PUSH2 0x2429 JUMPI PUSH1 0x0 DUP1 REVERT JUMPDEST PUSH2 0x2435 DUP8 DUP3 DUP7 ADD PUSH2 0x20A9 JUMP JUMPDEST PUSH1 0x80 DUP4 ADD MSTORE POP PUSH1 0xA0 DUP4 ADD MLOAD DUP3 DUP2 GT ISZERO PUSH2 0x244D JUMPI PUSH1 0x0 DUP1 REVERT JUMPDEST PUSH2 0x2459 DUP8 DUP3 DUP7 ADD PUSH2 0x20A9 JUMP JUMPDEST PUSH1 0xA0 DUP4 ADD MSTORE POP PUSH1 0xC0 DUP4 ADD MLOAD DUP3 DUP2 GT ISZERO PUSH2 0x2471 JUMPI PUSH1 0x0 DUP1 REVERT JUMPDEST PUSH2 0x247D DUP8 DUP3 DUP7 ADD PUSH2 0x20A9 JUMP JUMPDEST PUSH1 0xC0 DUP4 ADD MSTORE POP PUSH1 0xE0 DUP4 ADD MLOAD DUP3 DUP2 GT ISZERO PUSH2 0x2495 JUMPI PUSH1 0x0 DUP1 REVERT JUMPDEST PUSH2 0x24A1 DUP8 DUP3 DUP7 ADD PUSH2 0x20A9 JUMP JUMPDEST PUSH1 0xE0 DUP4 ADD MSTORE POP PUSH2 0x100 DUP1 DUP5 ADD MLOAD DUP4 DUP2 GT ISZERO PUSH2 0x24BB JUMPI PUSH1 0x0 DUP1 REVERT JUMPDEST PUSH2 0x24C7 DUP9 DUP3 DUP8 ADD PUSH2 0x20A9 JUMP JUMPDEST DUP3 DUP5 ADD MSTORE POP POP PUSH2 0x120 DUP1 DUP5 ADD MLOAD DUP4 DUP2 GT ISZERO PUSH2 0x24E1 JUMPI PUSH1 0x0 DUP1 REVERT JUMPDEST PUSH2 0x24ED DUP9 DUP3 DUP8 ADD PUSH2 0x20A9 JUMP JUMPDEST DUP3 DUP5 ADD MSTORE POP POP PUSH2 0x140 DUP1 DUP5 ADD MLOAD DUP4 DUP2 GT ISZERO PUSH2 0x2507 JUMPI PUSH1 0x0 DUP1 REVERT JUMPDEST PUSH2 0x2513 DUP9 DUP3 DUP8 ADD PUSH2 0x20A9 JUMP JUMPDEST DUP3 DUP5 ADD MSTORE POP POP PUSH2 0x160 DUP1 DUP5 ADD MLOAD DUP4 DUP2 GT ISZERO PUSH2 0x252D JUMPI PUSH1 0x0 DUP1 REVERT JUMPDEST PUSH2 0x2539 DUP9 DUP3 DUP8 ADD PUSH2 0x20A9 JUMP JUMPDEST SWAP2 DUP4 ADD SWAP2 SWAP1 SWAP2 MSTORE POP SWAP6 SWAP5 POP POP POP POP POP JUMP JUMPDEST PUSH1 0x0 PUSH1 0x60 DUP3 DUP5 SUB SLT ISZERO PUSH2 0x255C JUMPI PUSH1 0x0 DUP1 REVERT JUMPDEST PUSH1 0x40 MLOAD PUSH1 0x60 DUP2 ADD DUP2 DUP2 LT PUSH8 0xFFFFFFFFFFFFFFFF DUP3 GT OR ISZERO PUSH2 0x257F JUMPI PUSH2 0x257F PUSH2 0x2B33 JUMP JUMPDEST PUSH1 0x40 MSTORE DUP3 MLOAD PUSH2 0x258D DUP2 PUSH2 0x2B49 JUMP JUMPDEST DUP2 MSTORE PUSH1 0x20 DUP4 DUP2 ADD MLOAD SWAP1 DUP3 ADD MSTORE PUSH1 0x40 SWAP3 DUP4 ADD MLOAD SWAP3 DUP2 ADD SWAP3 SWAP1 SWAP3 MSTORE POP SWAP2 SWAP1 POP JUMP JUMPDEST PUSH1 0x0 DUP1 PUSH1 0x0 DUP1 PUSH1 0x80 DUP6 DUP8 SUB SLT ISZERO PUSH2 0x25C2 JUMPI PUSH1 0x0 DUP1 REVERT JUMPDEST DUP5 CALLDATALOAD PUSH8 0xFFFFFFFFFFFFFFFF DUP1 DUP3 GT ISZERO PUSH2 0x25DA JUMPI PUSH1 0x0 DUP1 REVERT JUMPDEST SWAP1 DUP7 ADD SWAP1 PUSH1 0xC0 DUP3 DUP10 SUB SLT ISZERO PUSH2 0x25EE JUMPI PUSH1 0x0 DUP1 REVERT JUMPDEST PUSH2 0x25F6 PUSH2 0x2898 JUMP JUMPDEST PUSH2 0x25FF DUP4 PUSH2 0x209A JUMP JUMPDEST DUP2 MSTORE PUSH2 0x260D PUSH1 0x20 DUP5 ADD PUSH2 0x209A JUMP JUMPDEST PUSH1 0x20 DUP3 ADD MSTORE PUSH2 0x261E PUSH1 0x40 DUP5 ADD PUSH2 0x2086 JUMP JUMPDEST PUSH1 0x40 DUP3 ADD MSTORE PUSH1 0x60 DUP4 ADD CALLDATALOAD DUP3 DUP2 GT ISZERO PUSH2 0x2635 JUMPI PUSH1 0x0 DUP1 REVERT JUMPDEST PUSH2 0x2641 DUP11 DUP3 DUP7 ADD PUSH2 0x2035 JUMP JUMPDEST PUSH1 0x60 DUP4 ADD MSTORE POP PUSH1 0x80 DUP4 ADD CALLDATALOAD DUP3 DUP2 GT ISZERO PUSH2 0x2659 JUMPI PUSH1 0x0 DUP1 REVERT JUMPDEST PUSH2 0x2665 DUP11 DUP3 DUP7 ADD PUSH2 0x2035 JUMP JUMPDEST PUSH1 0x80 DUP4 ADD MSTORE POP PUSH1 0xA0 DUP4 ADD CALLDATALOAD DUP3 DUP2 GT ISZERO PUSH2 0x267D JUMPI PUSH1 0x0 DUP1 REVERT JUMPDEST PUSH2 0x2689 DUP11 DUP3 DUP7 ADD PUSH2 0x1F91 JUMP JUMPDEST PUSH1 0xA0 DUP4 ADD MSTORE POP SWAP6 POP PUSH2 0x26A0 SWAP2 POP POP PUSH1 0x20 DUP7 ADD PUSH2 0x20DD JUMP JUMPDEST SWAP3 POP PUSH2 0x26AE PUSH1 0x40 DUP7 ADD PUSH2 0x20C9 JUMP JUMPDEST SWAP4 SWAP7 SWAP3 SWAP6 POP SWAP3 SWAP4 PUSH1 0x60 ADD CALLDATALOAD SWAP3 POP POP JUMP JUMPDEST PUSH1 0x0 PUSH1 0x20 DUP3 DUP5 SUB SLT ISZERO PUSH2 0x26D0 JUMPI PUSH1 0x0 DUP1 REVERT JUMPDEST DUP2 MLOAD PUSH12 0xFFFFFFFFFFFFFFFFFFFFFFFF DUP2 AND DUP2 EQ PUSH2 0x1507 JUMPI PUSH1 0x0 DUP1 REVERT JUMPDEST PUSH1 0x0 DUP2 MLOAD DUP1 DUP5 MSTORE PUSH2 0x2704 DUP2 PUSH1 0x20 DUP7 ADD PUSH1 0x20 DUP7 ADD PUSH2 0x2A4D JUMP JUMPDEST PUSH1 0x1F ADD PUSH1 0x1F NOT AND SWAP3 SWAP1 SWAP3 ADD PUSH1 0x20 ADD SWAP3 SWAP2 POP POP JUMP JUMPDEST PUSH1 0x0 PUSH1 0x20 DUP1 DUP4 ADD DUP2 DUP5 MSTORE DUP1 DUP6 MLOAD DUP1 DUP4 MSTORE PUSH1 0x40 DUP7 ADD SWAP2 POP PUSH1 0x40 DUP2 PUSH1 0x5 SHL DUP8 ADD ADD SWAP3 POP DUP4 DUP8 ADD PUSH1 0x0 JUMPDEST DUP3 DUP2 LT ISZERO PUSH2 0x276D JUMPI PUSH1 0x3F NOT DUP9 DUP7 SUB ADD DUP5 MSTORE PUSH2 0x275B DUP6 DUP4 MLOAD PUSH2 0x26EC JUMP JUMPDEST SWAP5 POP SWAP3 DUP6 ADD SWAP3 SWAP1 DUP6 ADD SWAP1 PUSH1 0x1 ADD PUSH2 0x273F JUMP JUMPDEST POP SWAP3 SWAP8 SWAP7 POP POP POP POP POP POP POP JUMP JUMPDEST PUSH1 0x20 DUP2 MSTORE PUSH1 0x0 PUSH2 0x1507 PUSH1 0x20 DUP4 ADD DUP5 PUSH2 0x26EC JUMP JUMPDEST PUSH1 0x40 DUP2 MSTORE PUSH1 0x0 PUSH2 0x27A0 PUSH1 0x40 DUP4 ADD DUP6 PUSH2 0x26EC JUMP JUMPDEST DUP3 DUP2 SUB PUSH1 0x20 DUP5 ADD MSTORE PUSH2 0xCF6 DUP2 DUP6 PUSH2 0x26EC JUMP JUMPDEST PUSH8 0xFFFFFFFFFFFFFFFF DUP5 AND DUP2 MSTORE PUSH1 0x60 PUSH1 0x20 DUP3 ADD MSTORE PUSH1 0x0 PUSH2 0x27D5 PUSH1 0x60 DUP4 ADD DUP6 PUSH2 0x26EC JUMP JUMPDEST SWAP1 POP PUSH4 0xFFFFFFFF DUP4 AND PUSH1 0x40 DUP4 ADD MSTORE SWAP5 SWAP4 POP POP POP POP JUMP JUMPDEST PUSH8 0xFFFFFFFFFFFFFFFF DUP6 AND DUP2 MSTORE PUSH1 0x80 PUSH1 0x20 DUP3 ADD MSTORE PUSH1 0x0 PUSH2 0x280E PUSH1 0x80 DUP4 ADD DUP7 PUSH2 0x26EC JUMP JUMPDEST PUSH4 0xFFFFFFFF SWAP5 SWAP1 SWAP5 AND PUSH1 0x40 DUP4 ADD MSTORE POP PUSH1 0x60 ADD MSTORE SWAP3 SWAP2 POP POP JUMP JUMPDEST PUSH1 0x0 DUP1 DUP4 CALLDATALOAD PUSH1 0x1E NOT DUP5 CALLDATASIZE SUB ADD DUP2 SLT PUSH2 0x283E JUMPI PUSH1 0x0 DUP1 REVERT JUMPDEST DUP4 ADD DUP1 CALLDATALOAD SWAP2 POP PUSH8 0xFFFFFFFFFFFFFFFF DUP3 GT ISZERO PUSH2 0x2859 JUMPI PUSH1 0x0 DUP1 REVERT JUMPDEST PUSH1 0x20 ADD SWAP2 POP CALLDATASIZE DUP2 SWAP1 SUB DUP3 SGT ISZERO PUSH2 0x1F8A JUMPI PUSH1 0x0 DUP1 REVERT JUMPDEST PUSH1 0x40 MLOAD PUSH2 0x180 DUP2 ADD PUSH8 0xFFFFFFFFFFFFFFFF DUP2 GT DUP3 DUP3 LT OR ISZERO PUSH2 0x2892 JUMPI PUSH2 0x2892 PUSH2 0x2B33 JUMP JUMPDEST PUSH1 0x40 MSTORE SWAP1 JUMP JUMPDEST PUSH1 0x40 MLOAD PUSH1 0xC0 DUP2 ADD PUSH8 0xFFFFFFFFFFFFFFFF DUP2 GT DUP3 DUP3 LT OR ISZERO PUSH2 0x2892 JUMPI PUSH2 0x2892 PUSH2 0x2B33 JUMP JUMPDEST PUSH1 0x40 MLOAD PUSH1 0x1F DUP3 ADD PUSH1 0x1F NOT AND DUP2 ADD PUSH8 0xFFFFFFFFFFFFFFFF DUP2 GT DUP3 DUP3 LT OR ISZERO PUSH2 0x28E4 JUMPI PUSH2 0x28E4 PUSH2 0x2B33 JUMP JUMPDEST PUSH1 0x40 MSTORE SWAP2 SWAP1 POP JUMP JUMPDEST PUSH1 0x0 PUSH8 0xFFFFFFFFFFFFFFFF DUP3 GT ISZERO PUSH2 0x2906 JUMPI PUSH2 0x2906 PUSH2 0x2B33 JUMP JUMPDEST POP PUSH1 0x1F ADD PUSH1 0x1F NOT AND PUSH1 0x20 ADD SWAP1 JUMP JUMPDEST PUSH1 0x0 DUP3 NOT DUP3 GT ISZERO PUSH2 0x2927 JUMPI PUSH2 0x2927 PUSH2 0x2AF1 JUMP JUMPDEST POP ADD SWAP1 JUMP JUMPDEST PUSH1 0x1 DUP2 DUP2 JUMPDEST DUP1 DUP6 GT ISZERO PUSH2 0x2967 JUMPI DUP2 PUSH1 0x0 NOT DIV DUP3 GT ISZERO PUSH2 0x294D JUMPI PUSH2 0x294D PUSH2 0x2AF1 JUMP JUMPDEST DUP1 DUP6 AND ISZERO PUSH2 0x295A JUMPI SWAP2 DUP2 MUL SWAP2 JUMPDEST SWAP4 DUP5 SHR SWAP4 SWAP1 DUP1 MUL SWAP1 PUSH2 0x2931 JUMP JUMPDEST POP SWAP3 POP SWAP3 SWAP1 POP JUMP JUMPDEST PUSH1 0x0 PUSH2 0x1507 DUP4 DUP4 PUSH1 0x0 DUP3 PUSH2 0x2985 JUMPI POP PUSH1 0x1 PUSH2 0x1962 JUMP JUMPDEST DUP2 PUSH2 0x2992 JUMPI POP PUSH1 0x0 PUSH2 0x1962 JUMP JUMPDEST DUP2 PUSH1 0x1 DUP2 EQ PUSH2 0x29A8 JUMPI PUSH1 0x2 DUP2 EQ PUSH2 0x29B2 JUMPI PUSH2 0x29CE JUMP JUMPDEST PUSH1 0x1 SWAP2 POP POP PUSH2 0x1962 JUMP JUMPDEST PUSH1 0xFF DUP5 GT ISZERO PUSH2 0x29C3 JUMPI PUSH2 0x29C3 PUSH2 0x2AF1 JUMP JUMPDEST POP POP PUSH1 0x1 DUP3 SHL PUSH2 0x1962 JUMP JUMPDEST POP PUSH1 0x20 DUP4 LT PUSH2 0x133 DUP4 LT AND PUSH1 0x4E DUP5 LT PUSH1 0xB DUP5 LT AND OR ISZERO PUSH2 0x29F1 JUMPI POP DUP2 DUP2 EXP PUSH2 0x1962 JUMP JUMPDEST PUSH2 0x29FB DUP4 DUP4 PUSH2 0x292C JUMP JUMPDEST DUP1 PUSH1 0x0 NOT DIV DUP3 GT ISZERO PUSH2 0x2A0F JUMPI PUSH2 0x2A0F PUSH2 0x2AF1 JUMP JUMPDEST MUL SWAP4 SWAP3 POP POP POP JUMP JUMPDEST PUSH1 0x0 DUP2 PUSH1 0x0 NOT DIV DUP4 GT DUP3 ISZERO ISZERO AND ISZERO PUSH2 0x2A31 JUMPI PUSH2 0x2A31 PUSH2 0x2AF1 JUMP JUMPDEST POP MUL SWAP1 JUMP JUMPDEST PUSH1 0x0 DUP3 DUP3 LT ISZERO PUSH2 0x2A48 JUMPI PUSH2 0x2A48 PUSH2 0x2AF1 JUMP JUMPDEST POP SUB SWAP1 JUMP JUMPDEST PUSH1 0x0 JUMPDEST DUP4 DUP2 LT ISZERO PUSH2 0x2A68 JUMPI DUP2 DUP2 ADD MLOAD DUP4 DUP3 ADD MSTORE PUSH1 0x20 ADD PUSH2 0x2A50 JUMP JUMPDEST DUP4 DUP2 GT ISZERO PUSH2 0x317 JUMPI POP POP PUSH1 0x0 SWAP2 ADD MSTORE JUMP JUMPDEST PUSH1 0x1 DUP2 DUP2 SHR SWAP1 DUP3 AND DUP1 PUSH2 0x2A8D JUMPI PUSH1 0x7F DUP3 AND SWAP2 POP JUMPDEST PUSH1 0x20 DUP3 LT DUP2 EQ ISZERO PUSH2 0x2AAE JUMPI PUSH4 0x4E487B71 PUSH1 0xE0 SHL PUSH1 0x0 MSTORE PUSH1 0x22 PUSH1 0x4 MSTORE PUSH1 0x24 PUSH1 0x0 REVERT JUMPDEST POP SWAP2 SWAP1 POP JUMP JUMPDEST PUSH1 0x0 PUSH1 0x0 NOT DUP3 EQ ISZERO PUSH2 0x2AC8 JUMPI PUSH2 0x2AC8 PUSH2 0x2AF1 JUMP JUMPDEST POP PUSH1 0x1 ADD SWAP1 JUMP JUMPDEST PUSH1 0x0 DUP3 PUSH2 0x2AEC JUMPI PUSH4 0x4E487B71 PUSH1 0xE0 SHL PUSH1 0x0 MSTORE PUSH1 0x12 PUSH1 0x4 MSTORE PUSH1 0x24 PUSH1 0x0 REVERT JUMPDEST POP MOD SWAP1 JUMP JUMPDEST PUSH4 0x4E487B71 PUSH1 0xE0 SHL PUSH1 0x0 MSTORE PUSH1 0x11 PUSH1 0x4 MSTORE PUSH1 0x24 PUSH1 0x0 REVERT JUMPDEST PUSH4 0x4E487B71 PUSH1 0xE0 SHL PUSH1 0x0 MSTORE PUSH1 0x21 PUSH1 0x4 MSTORE PUSH1 0x24 PUSH1 0x0 REVERT JUMPDEST PUSH4 0x4E487B71 PUSH1 0xE0 SHL PUSH1 0x0 MSTORE PUSH1 0x32 PUSH1 0x4 MSTORE PUSH1 0x24 PUSH1 0x0 REVERT JUMPDEST PUSH4 0x4E487B71 PUSH1 0xE0 SHL PUSH1 0x0 MSTORE PUSH1 0x41 PUSH1 0x4 MSTORE PUSH1 0x24 PUSH1 0x0 REVERT JUMPDEST PUSH1 0x1 PUSH1 0x1 PUSH1 0xA0 SHL SUB DUP2 AND DUP2 EQ PUSH2 0xD10 JUMPI PUSH1 0x0 DUP1 REVERT INVALID LOG2 PUSH5 0x6970667358 0x22 SLT KECCAK256 CALLCODE 0xF9 DUP3 0x49 0xC7 LOG2 0xCC LOG2 0x5D CODESIZE LOG3 0xBD 0xBC DUP6 0xE5 0xE4 DUP6 0x4D 0xDB STATICCALL 0xD7 CALLDATALOAD PUSH11 0x96452451A21535AB6D6473 PUSH16 0x6C634300080700330000000000000000 "},"methodIdentifiers":{"acceptOwnership()":"79ba5097","addSimulatedRequestId(address,bytes32)":"30bda99d","checkPolicy(string,string[],uint64,uint32,uint256)":"7f30dfa9","estimateCost((uint8,uint8,uint8,string,bytes,string[]),uint64,uint32,uint256)":"d4b39175","getDONPublicKey()":"d328a91e","handleOracleFulfillment(bytes32,bytes,bytes)":"0ca76175","insuranceContract()":"d012a5a8","latestError()":"fffeb84e","latestRequestId()":"1aa46f59","latestResponse()":"bef3a2f0","owner()":"8da5cb5b","requestIdToPolicyIndex(bytes32)":"4732889d","requestIdToSender(bytes32)":"219c0eee","stringToUint256(string)":"ac5d3723","transferOwnership(address)":"f2fde38b","updateOracleAddress(address)":"f7023bb6"}},"storageLayout":{"storage":[{"astId":3569,"contract":"contracts/CheckPayout.sol:CheckPayout","label":"s_oracle","offset":0,"slot":"0","type":"t_contract(FunctionsOracleInterface)4003"},{"astId":3573,"contract":"contracts/CheckPayout.sol:CheckPayout","label":"s_pendingRequests","offset":0,"slot":"1","type":"t_mapping(t_bytes32,t_address)"},{"astId":27,"contract":"contracts/CheckPayout.sol:CheckPayout","label":"s_owner","offset":0,"slot":"2","type":"t_address"},{"astId":29,"contract":"contracts/CheckPayout.sol:CheckPayout","label":"s_pendingOwner","offset":0,"slot":"3","type":"t_address"},{"astId":1488,"contract":"contracts/CheckPayout.sol:CheckPayout","label":"latestRequestId","offset":0,"slot":"4","type":"t_bytes32"},{"astId":1490,"contract":"contracts/CheckPayout.sol:CheckPayout","label":"latestResponse","offset":0,"slot":"5","type":"t_bytes_storage"},{"astId":1492,"contract":"contracts/CheckPayout.sol:CheckPayout","label":"latestError","offset":0,"slot":"6","type":"t_bytes_storage"},{"astId":1503,"contract":"contracts/CheckPayout.sol:CheckPayout","label":"insuranceContract","offset":0,"slot":"7","type":"t_contract(Insurance)3147"},{"astId":1507,"contract":"contracts/CheckPayout.sol:CheckPayout","label":"requestIdToPolicyIndex","offset":0,"slot":"8","type":"t_mapping(t_bytes32,t_uint256)"},{"astId":1511,"contract":"contracts/CheckPayout.sol:CheckPayout","label":"requestIdToSender","offset":0,"slot":"9","type":"t_mapping(t_bytes32,t_address)"}],"types":{"t_address":{"encoding":"inplace","label":"address","numberOfBytes":"20"},"t_bytes32":{"encoding":"inplace","label":"bytes32","numberOfBytes":"32"},"t_bytes_storage":{"encoding":"bytes","label":"bytes","numberOfBytes":"32"},"t_contract(FunctionsOracleInterface)4003":{"encoding":"inplace","label":"contract FunctionsOracleInterface","numberOfBytes":"20"},"t_contract(Insurance)3147":{"encoding":"inplace","label":"contract Insurance","numberOfBytes":"20"},"t_mapping(t_bytes32,t_address)":{"encoding":"mapping","key":"t_bytes32","label":"mapping(bytes32 => address)","numberOfBytes":"32","value":"t_address"},"t_mapping(t_bytes32,t_uint256)":{"encoding":"mapping","key":"t_bytes32","label":"mapping(bytes32 => uint256)","numberOfBytes":"32","value":"t_uint256"},"t_uint256":{"encoding":"inplace","label":"uint256","numberOfBytes":"32"}}}}}}