{"contracts/Insurance.sol":{"Insurance":{"abi":[{"inputs":[{"internalType":"address","name":"oracle","type":"address"},{"internalType":"address","name":"linkMaticAddress","type":"address"},{"internalType":"address","name":"maticUsdAddress","type":"address"},{"internalType":"uint64","name":"subscriptionId","type":"uint64"}],"stateMutability":"nonpayable","type":"constructor"},{"inputs":[],"name":"EmptyArgs","type":"error"},{"inputs":[],"name":"EmptySource","type":"error"},{"inputs":[],"name":"NoInlineSecrets","type":"error"},{"inputs":[{"internalType":"address","name":"have","type":"address"},{"internalType":"address","name":"want","type":"address"}],"name":"OnlyCoordinatorCanFulfill","type":"error"},{"inputs":[],"name":"RequestIsAlreadyPending","type":"error"},{"inputs":[],"name":"RequestIsNotPending","type":"error"},{"inputs":[],"name":"SenderIsNotRegistry","type":"error"},{"anonymous":false,"inputs":[{"indexed":true,"internalType":"bytes32","name":"requestId","type":"bytes32"}],"name":"OCRRequest","type":"event"},{"anonymous":false,"inputs":[{"indexed":true,"internalType":"bytes32","name":"requestId","type":"bytes32"},{"indexed":false,"internalType":"bytes","name":"result","type":"bytes"},{"indexed":false,"internalType":"bytes","name":"err","type":"bytes"}],"name":"OCRResponse","type":"event"},{"anonymous":false,"inputs":[{"indexed":true,"internalType":"address","name":"from","type":"address"},{"indexed":true,"internalType":"address","name":"to","type":"address"}],"name":"OwnershipTransferRequested","type":"event"},{"anonymous":false,"inputs":[{"indexed":true,"internalType":"address","name":"from","type":"address"},{"indexed":true,"internalType":"address","name":"to","type":"address"}],"name":"OwnershipTransferred","type":"event"},{"anonymous":false,"inputs":[{"indexed":false,"internalType":"address","name":"policyOwner","type":"address"},{"indexed":false,"internalType":"uint256","name":"policyIndex","type":"uint256"},{"indexed":false,"internalType":"uint256","name":"cost","type":"uint256"}],"name":"PolicyCreated","type":"event"},{"anonymous":false,"inputs":[{"indexed":false,"internalType":"address","name":"policyOwner","type":"address"},{"indexed":false,"internalType":"uint256","name":"policyIndex","type":"uint256"}],"name":"PolicyEnded","type":"event"},{"anonymous":false,"inputs":[{"indexed":false,"internalType":"address","name":"policyOwner","type":"address"},{"indexed":false,"internalType":"uint256","name":"policyIndex","type":"uint256"}],"name":"PolicyStarted","type":"event"},{"anonymous":false,"inputs":[{"indexed":false,"internalType":"uint256","name":"requestId","type":"uint256"},{"indexed":false,"internalType":"uint256[]","name":"randomWords","type":"uint256[]"}],"name":"RequestFulfilled","type":"event"},{"anonymous":false,"inputs":[{"indexed":true,"internalType":"bytes32","name":"id","type":"bytes32"}],"name":"RequestFulfilled","type":"event"},{"anonymous":false,"inputs":[{"indexed":false,"internalType":"uint256","name":"requestId","type":"uint256"},{"indexed":false,"internalType":"uint32","name":"numWords","type":"uint32"}],"name":"RequestSent","type":"event"},{"anonymous":false,"inputs":[{"indexed":true,"internalType":"bytes32","name":"id","type":"bytes32"}],"name":"RequestSent","type":"event"},{"anonymous":false,"inputs":[{"indexed":false,"internalType":"address","name":"userAddress","type":"address"},{"indexed":false,"internalType":"uint256","name":"payoutAmountInMatic","type":"uint256"}],"name":"UserPaid","type":"event"},{"inputs":[],"name":"acceptOwnership","outputs":[],"stateMutability":"nonpayable","type":"function"},{"inputs":[{"internalType":"address","name":"oracleAddress","type":"address"},{"internalType":"bytes32","name":"requestId","type":"bytes32"}],"name":"addSimulatedRequestId","outputs":[],"stateMutability":"nonpayable","type":"function"},{"inputs":[],"name":"boolInsuranceData","outputs":[{"internalType":"bool","name":"","type":"bool"}],"stateMutability":"view","type":"function"},{"inputs":[{"internalType":"bytes","name":"input","type":"bytes"}],"name":"bytesToUint256","outputs":[{"internalType":"uint256","name":"result","type":"uint256"}],"stateMutability":"pure","type":"function"},{"inputs":[],"name":"checkPayoutContract","outputs":[{"internalType":"address","name":"","type":"address"}],"stateMutability":"view","type":"function"},{"inputs":[],"name":"constructionTime","outputs":[{"internalType":"uint256","name":"","type":"uint256"}],"stateMutability":"view","type":"function"},{"inputs":[],"name":"currentTime","outputs":[{"internalType":"uint256","name":"","type":"uint256"}],"stateMutability":"view","type":"function"},{"inputs":[{"internalType":"address","name":"policyOwner","type":"address"},{"internalType":"uint256","name":"policyIndex","type":"uint256"}],"name":"endPolicy","outputs":[],"stateMutability":"nonpayable","type":"function"},{"inputs":[{"components":[{"internalType":"enum Functions.Location","name":"codeLocation","type":"uint8"},{"internalType":"enum Functions.Location","name":"secretsLocation","type":"uint8"},{"internalType":"enum Functions.CodeLanguage","name":"language","type":"uint8"},{"internalType":"string","name":"source","type":"string"},{"internalType":"bytes","name":"secrets","type":"bytes"},{"internalType":"string[]","name":"args","type":"string[]"}],"internalType":"struct Functions.Request","name":"req","type":"tuple"},{"internalType":"uint64","name":"subscriptionId","type":"uint64"},{"internalType":"uint32","name":"gasLimit","type":"uint32"},{"internalType":"uint256","name":"gasPrice","type":"uint256"}],"name":"estimateCost","outputs":[{"internalType":"uint96","name":"","type":"uint96"}],"stateMutability":"view","type":"function"},{"inputs":[{"internalType":"string","name":"source","type":"string"},{"internalType":"string[]","name":"args","type":"string[]"},{"internalType":"uint64","name":"subscriptionId","type":"uint64"},{"internalType":"uint32","name":"gasLimit","type":"uint32"}],"name":"estimateInsurance","outputs":[{"internalType":"bytes32","name":"","type":"bytes32"}],"stateMutability":"payable","type":"function"},{"inputs":[{"internalType":"address","name":"user","type":"address"}],"name":"getAllUserPolicies","outputs":[{"components":[{"internalType":"string","name":"latNe","type":"string"},{"internalType":"string","name":"longNe","type":"string"},{"internalType":"string","name":"latSe","type":"string"},{"internalType":"string","name":"longSe","type":"string"},{"internalType":"string","name":"latSw","type":"string"},{"internalType":"string","name":"longSw","type":"string"},{"internalType":"string","name":"latNw","type":"string"},{"internalType":"string","name":"longNw","type":"string"},{"internalType":"string","name":"configParam","type":"string"},{"internalType":"string","name":"startTime","type":"string"},{"internalType":"string","name":"endTime","type":"string"},{"internalType":"string","name":"policyCreationTime","type":"string"}],"internalType":"struct Insurance.InsuranceData[]","name":"","type":"tuple[]"}],"stateMutability":"view","type":"function"},{"inputs":[],"name":"getCurrentTime","outputs":[{"internalType":"uint256","name":"","type":"uint256"}],"stateMutability":"view","type":"function"},{"inputs":[],"name":"getDONPublicKey","outputs":[{"internalType":"bytes","name":"","type":"bytes"}],"stateMutability":"view","type":"function"},{"inputs":[{"internalType":"bytes32","name":"requestId","type":"bytes32"}],"name":"getInsuranceQuoteData","outputs":[{"components":[{"internalType":"address","name":"user","type":"address"},{"internalType":"uint256","name":"policyIndex","type":"uint256"},{"internalType":"uint256","name":"cost","type":"uint256"}],"internalType":"struct Insurance.InsuranceQuoteData","name":"","type":"tuple"}],"stateMutability":"view","type":"function"},{"inputs":[],"name":"getLastRandomWord","outputs":[{"internalType":"uint256","name":"","type":"uint256"}],"stateMutability":"view","type":"function"},{"inputs":[{"internalType":"address","name":"user","type":"address"},{"internalType":"uint256","name":"policyIndex","type":"uint256"}],"name":"getPolicyData","outputs":[{"components":[{"internalType":"string","name":"latNe","type":"string"},{"internalType":"string","name":"longNe","type":"string"},{"internalType":"string","name":"latSe","type":"string"},{"internalType":"string","name":"longSe","type":"string"},{"internalType":"string","name":"latSw","type":"string"},{"internalType":"string","name":"longSw","type":"string"},{"internalType":"string","name":"latNw","type":"string"},{"internalType":"string","name":"longNw","type":"string"},{"internalType":"string","name":"configParam","type":"string"},{"internalType":"string","name":"startTime","type":"string"},{"internalType":"string","name":"endTime","type":"string"},{"internalType":"string","name":"policyCreationTime","type":"string"}],"internalType":"struct Insurance.InsuranceData","name":"","type":"tuple"}],"stateMutability":"view","type":"function"},{"inputs":[{"internalType":"address","name":"_address","type":"address"},{"internalType":"uint256","name":"_policyIndex","type":"uint256"}],"name":"getPolicyRequestId","outputs":[{"internalType":"bytes32","name":"","type":"bytes32"}],"stateMutability":"view","type":"function"},{"inputs":[],"name":"getPriceLinkMatic","outputs":[{"internalType":"int256","name":"","type":"int256"}],"stateMutability":"view","type":"function"},{"inputs":[],"name":"getPriceMaticUsd","outputs":[{"internalType":"int256","name":"","type":"int256"}],"stateMutability":"view","type":"function"},{"inputs":[{"internalType":"uint256","name":"_requestId","type":"uint256"}],"name":"getRequestStatus","outputs":[{"internalType":"bool","name":"fulfilled","type":"bool"},{"internalType":"uint256[]","name":"randomWords","type":"uint256[]"}],"stateMutability":"view","type":"function"},{"inputs":[{"internalType":"bytes32","name":"requestId","type":"bytes32"},{"internalType":"bytes","name":"response","type":"bytes"},{"internalType":"bytes","name":"err","type":"bytes"}],"name":"handleOracleFulfillment","outputs":[],"stateMutability":"nonpayable","type":"function"},{"inputs":[],"name":"helloWorld","outputs":[{"internalType":"string","name":"","type":"string"}],"stateMutability":"view","type":"function"},{"inputs":[{"internalType":"address","name":"","type":"address"},{"internalType":"uint256","name":"","type":"uint256"}],"name":"insurancePoliciesMapping","outputs":[{"internalType":"string","name":"latNe","type":"string"},{"internalType":"string","name":"longNe","type":"string"},{"internalType":"string","name":"latSe","type":"string"},{"internalType":"string","name":"longSe","type":"string"},{"internalType":"string","name":"latSw","type":"string"},{"internalType":"string","name":"longSw","type":"string"},{"internalType":"string","name":"latNw","type":"string"},{"internalType":"string","name":"longNw","type":"string"},{"internalType":"string","name":"configParam","type":"string"},{"internalType":"string","name":"startTime","type":"string"},{"internalType":"string","name":"endTime","type":"string"},{"internalType":"string","name":"policyCreationTime","type":"string"}],"stateMutability":"view","type":"function"},{"inputs":[{"internalType":"bytes32","name":"","type":"bytes32"}],"name":"insuranceQuoteData","outputs":[{"internalType":"address","name":"user","type":"address"},{"internalType":"uint256","name":"policyIndex","type":"uint256"},{"internalType":"uint256","name":"cost","type":"uint256"}],"stateMutability":"view","type":"function"},{"inputs":[],"name":"lastRequestId","outputs":[{"internalType":"uint256","name":"","type":"uint256"}],"stateMutability":"view","type":"function"},{"inputs":[],"name":"latestError","outputs":[{"internalType":"bytes","name":"","type":"bytes"}],"stateMutability":"view","type":"function"},{"inputs":[],"name":"latestRequestId","outputs":[{"internalType":"bytes32","name":"","type":"bytes32"}],"stateMutability":"view","type":"function"},{"inputs":[],"name":"latestResponse","outputs":[{"internalType":"bytes","name":"","type":"bytes"}],"stateMutability":"view","type":"function"},{"inputs":[],"name":"linkMaticPriceFeed","outputs":[{"internalType":"contract LinkMaticPriceFeed","name":"","type":"address"}],"stateMutability":"view","type":"function"},{"inputs":[],"name":"maticUsdPriceFeed","outputs":[{"internalType":"contract MaticUsdPriceFeed","name":"","type":"address"}],"stateMutability":"view","type":"function"},{"inputs":[],"name":"owner","outputs":[{"internalType":"address","name":"","type":"address"}],"stateMutability":"view","type":"function"},{"inputs":[{"internalType":"address payable","name":"userAddress","type":"address"},{"internalType":"uint256","name":"payoutAmount","type":"uint256"}],"name":"payUser","outputs":[],"stateMutability":"nonpayable","type":"function"},{"inputs":[{"internalType":"address","name":"","type":"address"},{"internalType":"uint256","name":"","type":"uint256"}],"name":"policyRequestIdMapping","outputs":[{"internalType":"bytes32","name":"","type":"bytes32"}],"stateMutability":"view","type":"function"},{"inputs":[{"internalType":"address","name":"","type":"address"},{"internalType":"uint256","name":"","type":"uint256"}],"name":"policyStatus","outputs":[{"internalType":"enum Insurance.PolicyStatus","name":"","type":"uint8"}],"stateMutability":"view","type":"function"},{"inputs":[{"internalType":"uint256","name":"","type":"uint256"}],"name":"randomnessRequesterAddress","outputs":[{"internalType":"address","name":"","type":"address"}],"stateMutability":"view","type":"function"},{"inputs":[{"internalType":"uint256","name":"requestId","type":"uint256"},{"internalType":"uint256[]","name":"randomWords","type":"uint256[]"}],"name":"rawFulfillRandomWords","outputs":[],"stateMutability":"nonpayable","type":"function"},{"inputs":[{"internalType":"uint256","name":"","type":"uint256"}],"name":"requestIds","outputs":[{"internalType":"uint256","name":"","type":"uint256"}],"stateMutability":"view","type":"function"},{"inputs":[],"name":"requestRandomWords","outputs":[{"internalType":"uint256","name":"requestId","type":"uint256"}],"stateMutability":"nonpayable","type":"function"},{"inputs":[{"internalType":"uint256","name":"","type":"uint256"}],"name":"s_requests","outputs":[{"internalType":"bool","name":"fulfilled","type":"bool"},{"internalType":"bool","name":"exists","type":"bool"}],"stateMutability":"view","type":"function"},{"inputs":[{"internalType":"address","name":"_checkPayoutContract","type":"address"}],"name":"setCheckPayoutContract","outputs":[],"stateMutability":"nonpayable","type":"function"},{"inputs":[{"internalType":"bytes32","name":"requestId","type":"bytes32"}],"name":"startPolicy","outputs":[{"internalType":"uint256","name":"","type":"uint256"}],"stateMutability":"payable","type":"function"},{"inputs":[{"internalType":"address","name":"to","type":"address"}],"name":"transferOwnership","outputs":[],"stateMutability":"nonpayable","type":"function"},{"inputs":[{"internalType":"address","name":"oracle","type":"address"}],"name":"updateOracleAddress","outputs":[],"stateMutability":"nonpayable","type":"function"}],"evm":{"bytecode":{"linkReferences":{},"object":"60a06040527f4b09e658ed251bcafeebbc69400383d49f344ace09b9576fe248bb02c003fe9f600955600a80546001600160501b03191666010003000493e017905542600f553480156200005257600080fd5b5060405162005d5d38038062005d5d8339810160408190526200007591620002a5565b600080546001600160a01b0319166001600160a01b0386161781557f7a1bac17ccc5b313516c5e16fb24f7659aa5ebed00000000000000000000000060805233908190816200010b5760405162461bcd60e51b815260206004820152601860248201527f43616e6e6f7420736574206f776e657220746f207a65726f000000000000000060448201526064015b60405180910390fd5b600280546001600160a01b0319166001600160a01b03848116919091179091558116156200013e576200013e81620001db565b5050600a80546001600160a01b039586166a010000000000000000000002600160501b600160f01b031990911617905550600b8054929093166001600160a01b031992831617909255600680546001600160401b03909316600160a01b026001600160e01b031990931692909217737a1bac17ccc5b313516c5e16fb24f7659aa5ebed179091554260055560048054909116331790555062000310565b6001600160a01b038116331415620002365760405162461bcd60e51b815260206004820152601760248201527f43616e6e6f74207472616e7366657220746f2073656c66000000000000000000604482015260640162000102565b600380546001600160a01b0319166001600160a01b03838116918217909255600254604051919216907fed8889f560326eb138920d842192f0eb3dd22b4f139c87a2c57538e05bae127890600090a350565b80516001600160a01b0381168114620002a057600080fd5b919050565b60008060008060808587031215620002bc57600080fd5b620002c78562000288565b9350620002d76020860162000288565b9250620002e76040860162000288565b60608601519092506001600160401b03811681146200030557600080fd5b939692955090935050565b60805160601c615a27620003366000396000818161149701526114f20152615a276000f3fe6080604052600436106102dc5760003560e01c8063b655cd9b11610184578063e0c86289116100d6578063f06c56101161008a578063f7023bb611610064578063f7023bb614610940578063fc2a88c314610960578063fffeb84e1461097657600080fd5b8063f06c5610146108c2578063f11da55b146108d8578063f2fde38b1461092057600080fd5b8063e3928b7f116100bb578063e3928b7f1461085f578063e5c33f3014610874578063ecd831e8146108a257600080fd5b8063e0c8628914610812578063e0e2fa9a1461082757600080fd5b8063c605f76c11610138578063d328a91e11610112578063d328a91e14610792578063d4b39175146107a7578063d8a4676f146107e457600080fd5b8063c605f76c14610714578063cc9de25d1461075a578063d18e81b31461077c57600080fd5b8063bc58d68c11610169578063bc58d68c146106b2578063bef3a2f0146106d2578063c0303c37146106f457600080fd5b8063b655cd9b14610665578063b91ce2051461069d57600080fd5b806361875d8d1161023d57806379ba5097116101f15780638da5cb5b116101cb5780638da5cb5b1461058c578063a168fa89146105aa578063b1011dbd146105fa57600080fd5b806379ba50971461052a578063808580261461053f5780638796ba8c1461056c57600080fd5b806369f8eaed1161022257806369f8eaed146104a75780636c6f9990146104c75780636ec7be7e146104e757600080fd5b806361875d8d1461046757806363d6634a1461049457600080fd5b80631fe543e31161029457806329cb924d1161027957806329cb924d146103e457806330bda99d146103f95780635ec7baca1461041957600080fd5b80631fe543e314610379578063215fc6251461039957600080fd5b80630b50567f116102c55780630b50567f1461032e5780630ca76175146103415780631aa46f591461036357600080fd5b806304b2303c146102e157806305f411d61461030b575b600080fd5b3480156102ed57600080fd5b506102f661098b565b60405190151581526020015b60405180910390f35b34801561031757600080fd5b506103206111b4565b604051908152602001610302565b61032061033c366004614e85565b61123f565b34801561034d57600080fd5b5061036161035c366004614eb7565b6113e6565b005b34801561036f57600080fd5b50610320600c5481565b34801561038557600080fd5b5061036161039436600461519c565b61148c565b3480156103a557600080fd5b506103b96103b4366004614e85565b61152d565b6040805182516001600160a01b03168152602080840151908201529181015190820152606001610302565b3480156103f057600080fd5b50600f54610320565b34801561040557600080fd5b50610361610414366004614e59565b611626565b34801561042557600080fd5b5061044f610434366004614e85565b6014602052600090815260409020546001600160a01b031681565b6040516001600160a01b039091168152602001610302565b34801561047357600080fd5b50610487610482366004614e59565b611638565b60405161030291906155fd565b6103206104a2366004614fcf565b611dc1565b3480156104b357600080fd5b506103616104c2366004614e1f565b612629565b3480156104d357600080fd5b50600b5461044f906001600160a01b031681565b3480156104f357600080fd5b50610320610502366004614e59565b6001600160a01b03919091166000908152601060209081526040808320938352929052205490565b34801561053657600080fd5b50610361612653565b34801561054b57600080fd5b5061055f61055a366004614e1f565b612708565b604051610302919061541a565b34801561057857600080fd5b50610320610587366004614e85565b612e56565b34801561059857600080fd5b506002546001600160a01b031661044f565b3480156105b657600080fd5b506105e36105c5366004614e85565b60156020526000908152604090205460ff8082169161010090041682565b604080519215158352901515602083015201610302565b34801561060657600080fd5b50610640610615366004614e85565b6012602052600090815260409020805460018201546002909201546001600160a01b03909116919083565b604080516001600160a01b039094168452602084019290925290820152606001610302565b34801561067157600080fd5b50610685610680366004614e59565b612e77565b6040516103029c9b9a999897969594939291906154f7565b3480156106a957600080fd5b50610320613554565b3480156106be57600080fd5b506103616106cd366004614e59565b613616565b3480156106de57600080fd5b506106e76136e8565b6040516103029190615497565b34801561070057600080fd5b5060045461044f906001600160a01b031681565b34801561072057600080fd5b5060408051808201909152600c81527f48656c6c6f20576f726c6421000000000000000000000000000000000000000060208201526106e7565b34801561076657600080fd5b50610320610775366004614f24565b6020015190565b34801561078857600080fd5b50610320600f5481565b34801561079e57600080fd5b506106e7613776565b3480156107b357600080fd5b506107c76107c236600461508a565b61380f565b6040516bffffffffffffffffffffffff9091168152602001610302565b3480156107f057600080fd5b506108046107ff366004614e85565b6138a5565b60405161030292919061547c565b34801561081e57600080fd5b506103206139a5565b34801561083357600080fd5b50610320610842366004614e59565b601060209081526000928352604080842090915290825290205481565b34801561086b57600080fd5b50610320613bc2565b34801561088057600080fd5b50600a5461044f906a010000000000000000000090046001600160a01b031681565b3480156108ae57600080fd5b506103616108bd366004614e59565b613c20565b3480156108ce57600080fd5b5061032060055481565b3480156108e457600080fd5b506109136108f3366004614e59565b601160209081526000928352604080842090915290825290205460ff1681565b60405161030291906154cf565b34801561092c57600080fd5b5061036161093b366004614e1f565b613d32565b34801561094c57600080fd5b5061036161095b366004614e1f565b613d46565b34801561096c57600080fd5b5061032060085481565b34801561098257600080fd5b506106e7613d6c565b33600090815260136020526040812080546109ed5760405162461bcd60e51b815260206004820152601760248201527f4e6f20696e737572616e6365206461746120666f756e6400000000000000000060448201526064015b60405180910390fd5b60005b81548110156111ab576000828281548110610a0d57610a0d6159b0565b90600052602060002090600c020160405180610180016040529081600082018054610a3790615904565b80601f0160208091040260200160405190810160405280929190818152602001828054610a6390615904565b8015610ab05780601f10610a8557610100808354040283529160200191610ab0565b820191906000526020600020905b815481529060010190602001808311610a9357829003601f168201915b50505050508152602001600182018054610ac990615904565b80601f0160208091040260200160405190810160405280929190818152602001828054610af590615904565b8015610b425780601f10610b1757610100808354040283529160200191610b42565b820191906000526020600020905b815481529060010190602001808311610b2557829003601f168201915b50505050508152602001600282018054610b5b90615904565b80601f0160208091040260200160405190810160405280929190818152602001828054610b8790615904565b8015610bd45780601f10610ba957610100808354040283529160200191610bd4565b820191906000526020600020905b815481529060010190602001808311610bb757829003601f168201915b50505050508152602001600382018054610bed90615904565b80601f0160208091040260200160405190810160405280929190818152602001828054610c1990615904565b8015610c665780601f10610c3b57610100808354040283529160200191610c66565b820191906000526020600020905b815481529060010190602001808311610c4957829003601f168201915b50505050508152602001600482018054610c7f90615904565b80601f0160208091040260200160405190810160405280929190818152602001828054610cab90615904565b8015610cf85780601f10610ccd57610100808354040283529160200191610cf8565b820191906000526020600020905b815481529060010190602001808311610cdb57829003601f168201915b50505050508152602001600582018054610d1190615904565b80601f0160208091040260200160405190810160405280929190818152602001828054610d3d90615904565b8015610d8a5780601f10610d5f57610100808354040283529160200191610d8a565b820191906000526020600020905b815481529060010190602001808311610d6d57829003601f168201915b50505050508152602001600682018054610da390615904565b80601f0160208091040260200160405190810160405280929190818152602001828054610dcf90615904565b8015610e1c5780601f10610df157610100808354040283529160200191610e1c565b820191906000526020600020905b815481529060010190602001808311610dff57829003601f168201915b50505050508152602001600782018054610e3590615904565b80601f0160208091040260200160405190810160405280929190818152602001828054610e6190615904565b8015610eae5780601f10610e8357610100808354040283529160200191610eae565b820191906000526020600020905b815481529060010190602001808311610e9157829003601f168201915b50505050508152602001600882018054610ec790615904565b80601f0160208091040260200160405190810160405280929190818152602001828054610ef390615904565b8015610f405780601f10610f1557610100808354040283529160200191610f40565b820191906000526020600020905b815481529060010190602001808311610f2357829003601f168201915b50505050508152602001600982018054610f5990615904565b80601f0160208091040260200160405190810160405280929190818152602001828054610f8590615904565b8015610fd25780601f10610fa757610100808354040283529160200191610fd2565b820191906000526020600020905b815481529060010190602001808311610fb557829003601f168201915b50505050508152602001600a82018054610feb90615904565b80601f016020809104026020016040519081016040528092919081815260200182805461101790615904565b80156110645780601f1061103957610100808354040283529160200191611064565b820191906000526020600020905b81548152906001019060200180831161104757829003601f168201915b50505050508152602001600b8201805461107d90615904565b80601f01602080910402602001604051908101604052809291908181526020018280546110a990615904565b80156110f65780601f106110cb576101008083540402835291602001916110f6565b820191906000526020600020905b8154815290600101906020018083116110d957829003601f168201915b50505050508152505090508060c001515160001415801561111b575060e08101515115155b8015611128575080515115155b8015611138575060208101515115155b8015611148575060408101515115155b8015611158575060608101515115155b8015611168575060808101515115155b8015611178575060a08101515115155b801561118957506101008101515115155b15611198576001935050505090565b50806111a38161593f565b9150506109f0565b50600091505090565b6000600a8054906101000a90046001600160a01b03166001600160a01b0316638e15f4736040518163ffffffff1660e01b815260040160206040518083038186803b15801561120257600080fd5b505afa158015611216573d6000803e3d6000fd5b505050506040513d601f19601f8201168201806040525081019061123a9190614e9e565b905090565b600081815260126020908152604080832060028101546001820154338652601390945291842080549193918591908390811061127d5761127d6159b0565b6000918252602080832033845260118252604080852087865290925290832054600c9290920201925060ff1660028111156112ba576112ba61599a565b146113075760405162461bcd60e51b815260206004820152601560248201527f506f6c696379206973206e6f742070656e64696e67000000000000000000000060448201526064016109e4565b6000611311613bc2565b9050600081611324866305f5e1006158a2565b61132e91906157a3565b9050803410156113805760405162461bcd60e51b815260206004820152601560248201527f4e6f7420656e6f756768204d617469632073656e74000000000000000000000060448201526064016109e4565b336000818152601160209081526040808320888452825291829020805460ff19166001179055815192835282018690527f153598a6c97963bd4d16e97786943eb68bcc8ca58077614327e965efe69fa110910160405180910390a1505050505050919050565b60008381526001602052604090205483906001600160a01b03163314611438576040517fa0c5ec6300000000000000000000000000000000000000000000000000000000815260040160405180910390fd5b60008181526001602052604080822080546001600160a01b03191690555182917f85e1543bf2f84fe80c6badbce3648c8539ad1df4d2b3d822938ca0538be727e691a2611486848484613d79565b50505050565b336001600160a01b037f0000000000000000000000000000000000000000000000000000000000000000161461151f576040517f1cf993f40000000000000000000000000000000000000000000000000000000081523360048201526001600160a01b037f00000000000000000000000000000000000000000000000000000000000000001660248201526044016109e4565b6115298282613e5a565b5050565b61155a604051806060016040528060006001600160a01b0316815260200160008152602001600081525090565b6000828152601260205260409020546001600160a01b03166115e45760405162461bcd60e51b815260206004820152602560248201527f4e6f206461746120666f756e6420666f722074686520676976656e207265717560448201527f657374496400000000000000000000000000000000000000000000000000000060648201526084016109e4565b50600090815260126020908152604091829020825160608101845281546001600160a01b03168152600182015492810192909252600201549181019190915290565b61162e613f20565b6115298282613f7c565b61169c6040518061018001604052806060815260200160608152602001606081526020016060815260200160608152602001606081526020016060815260200160608152602001606081526020016060815260200160608152602001606081525090565b6001600160a01b03831660009081526013602052604090208054839081106116c6576116c66159b0565b90600052602060002090600c0201604051806101800160405290816000820180546116f090615904565b80601f016020809104026020016040519081016040528092919081815260200182805461171c90615904565b80156117695780601f1061173e57610100808354040283529160200191611769565b820191906000526020600020905b81548152906001019060200180831161174c57829003601f168201915b5050505050815260200160018201805461178290615904565b80601f01602080910402602001604051908101604052809291908181526020018280546117ae90615904565b80156117fb5780601f106117d0576101008083540402835291602001916117fb565b820191906000526020600020905b8154815290600101906020018083116117de57829003601f168201915b5050505050815260200160028201805461181490615904565b80601f016020809104026020016040519081016040528092919081815260200182805461184090615904565b801561188d5780601f106118625761010080835404028352916020019161188d565b820191906000526020600020905b81548152906001019060200180831161187057829003601f168201915b505050505081526020016003820180546118a690615904565b80601f01602080910402602001604051908101604052809291908181526020018280546118d290615904565b801561191f5780601f106118f45761010080835404028352916020019161191f565b820191906000526020600020905b81548152906001019060200180831161190257829003601f168201915b5050505050815260200160048201805461193890615904565b80601f016020809104026020016040519081016040528092919081815260200182805461196490615904565b80156119b15780601f10611986576101008083540402835291602001916119b1565b820191906000526020600020905b81548152906001019060200180831161199457829003601f168201915b505050505081526020016005820180546119ca90615904565b80601f01602080910402602001604051908101604052809291908181526020018280546119f690615904565b8015611a435780601f10611a1857610100808354040283529160200191611a43565b820191906000526020600020905b815481529060010190602001808311611a2657829003601f168201915b50505050508152602001600682018054611a5c90615904565b80601f0160208091040260200160405190810160405280929190818152602001828054611a8890615904565b8015611ad55780601f10611aaa57610100808354040283529160200191611ad5565b820191906000526020600020905b815481529060010190602001808311611ab857829003601f168201915b50505050508152602001600782018054611aee90615904565b80601f0160208091040260200160405190810160405280929190818152602001828054611b1a90615904565b8015611b675780601f10611b3c57610100808354040283529160200191611b67565b820191906000526020600020905b815481529060010190602001808311611b4a57829003601f168201915b50505050508152602001600882018054611b8090615904565b80601f0160208091040260200160405190810160405280929190818152602001828054611bac90615904565b8015611bf95780601f10611bce57610100808354040283529160200191611bf9565b820191906000526020600020905b815481529060010190602001808311611bdc57829003601f168201915b50505050508152602001600982018054611c1290615904565b80601f0160208091040260200160405190810160405280929190818152602001828054611c3e90615904565b8015611c8b5780601f10611c6057610100808354040283529160200191611c8b565b820191906000526020600020905b815481529060010190602001808311611c6e57829003601f168201915b50505050508152602001600a82018054611ca490615904565b80601f0160208091040260200160405190810160405280929190818152602001828054611cd090615904565b8015611d1d5780601f10611cf257610100808354040283529160200191611d1d565b820191906000526020600020905b815481529060010190602001808311611d0057829003601f168201915b50505050508152602001600b82018054611d3690615904565b80601f0160208091040260200160405190810160405280929190818152602001828054611d6290615904565b8015611daf5780601f10611d8457610100808354040283529160200191611daf565b820191906000526020600020905b815481529060010190602001808311611d9257829003601f168201915b50505050508152505090505b92915050565b6000600b8414611e135760405162461bcd60e51b815260206004820152601b60248201527f496e76616c6964206e756d626572206f6620617267756d656e7473000000000060448201526064016109e4565b33600090815260136020526040812090611e2c42613ffc565b90508160405180610180016040528089896000818110611e4e57611e4e6159b0565b9050602002810190611e60919061569e565b8080601f01602080910402602001604051908101604052809392919081815260200183838082843760009201919091525050509082525060200189896001818110611ead57611ead6159b0565b9050602002810190611ebf919061569e565b8080601f01602080910402602001604051908101604052809392919081815260200183838082843760009201919091525050509082525060200189896002818110611f0c57611f0c6159b0565b9050602002810190611f1e919061569e565b8080601f01602080910402602001604051908101604052809392919081815260200183838082843760009201919091525050509082525060200189896003818110611f6b57611f6b6159b0565b9050602002810190611f7d919061569e565b8080601f01602080910402602001604051908101604052809392919081815260200183838082843760009201919091525050509082525060200189896004818110611fca57611fca6159b0565b9050602002810190611fdc919061569e565b8080601f01602080910402602001604051908101604052809392919081815260200183838082843760009201919091525050509082525060200189896005818110612029576120296159b0565b905060200281019061203b919061569e565b8080601f01602080910402602001604051908101604052809392919081815260200183838082843760009201919091525050509082525060200189896006818110612088576120886159b0565b905060200281019061209a919061569e565b8080601f016020809104026020016040519081016040528093929190818152602001838380828437600092019190915250505090825250602001898960078181106120e7576120e76159b0565b90506020028101906120f9919061569e565b8080601f01602080910402602001604051908101604052809392919081815260200183838082843760009201919091525050509082525060200189896008818110612146576121466159b0565b9050602002810190612158919061569e565b8080601f016020809104026020016040519081016040528093929190818152602001838380828437600092019190915250505090825250602001898960098181106121a5576121a56159b0565b90506020028101906121b7919061569e565b8080601f0160208091040260200160405190810160405280939291908181526020018383808284376000920191909152505050908252506020018989600a818110612204576122046159b0565b9050602002810190612216919061569e565b8080601f016020809104026020016040519081016040528093929190818152602001838380828437600092018290525093855250505060209182018590528354600181018555938152819020825180519394600c029091019261227c9284920190614b94565b5060208281015180516122959260018501920190614b94565b50604082015180516122b1916002840191602090910190614b94565b50606082015180516122cd916003840191602090910190614b94565b50608082015180516122e9916004840191602090910190614b94565b5060a08201518051612305916005840191602090910190614b94565b5060c08201518051612321916006840191602090910190614b94565b5060e0820151805161233d916007840191602090910190614b94565b50610100820151805161235a916008840191602090910190614b94565b506101208201518051612377916009840191602090910190614b94565b50610140820151805161239491600a840191602090910190614b94565b5061016082015180516123b191600b840191602090910190614b94565b5050336000908152601360205260408120549091506123d2906001906158c1565b905061240e6040805160c08101909152806000815260200160008152602001600081526020016060815260200160608152602001606081525090565b6124556000808d8d8080601f016020809104026020016040519081016040528093929190818152602001838380828437600092019190915250879594939250506140a69050565b600061246289600161578b565b67ffffffffffffffff81111561247a5761247a6159c6565b6040519080825280602002602001820160405280156124ad57816020015b60608152602001906001900390816124985790505b50905060005b89811015612545578a8a828181106124cd576124cd6159b0565b90506020028101906124df919061569e565b8080601f0160208091040260200160405190810160405280939291908181526020018383808284376000920191909152505084518592508491508110612527576125276159b0565b6020026020010181905250808061253d9061593f565b9150506124b3565b5083818b8b90508151811061255c5761255c6159b0565b6020908102919091010152612571828261413a565b600061257e838a8a61417a565b60408051606081018252338082526020808301898152600084860181815287825260128452868220955186546001600160a01b0319166001600160a01b03909116178655915160018601559051600290940193909355600c859055908252601081528282208883529052818120839055905191925082917f0790d5075e76350b19c3d15f0de9144077f6fb31397b526ce8664d7faf7dde6b9190a29c9b505050505050505050505050565b612631613f20565b600480546001600160a01b0319166001600160a01b0392909216919091179055565b6003546001600160a01b031633146126ad5760405162461bcd60e51b815260206004820152601660248201527f4d7573742062652070726f706f736564206f776e65720000000000000000000060448201526064016109e4565b600280546001600160a01b0319808216339081179093556003805490911690556040516001600160a01b03909116919082907f8be0079c531659141344cd1fd0a4f28419497f9722a3daafe3b4186f6b6457e090600090a350565b6001600160a01b0381166000908152601360209081526040808320805482518185028101850190935280835260609492939192909184015b82821015612e4b57838290600052602060002090600c02016040518061018001604052908160008201805461277490615904565b80601f01602080910402602001604051908101604052809291908181526020018280546127a090615904565b80156127ed5780601f106127c2576101008083540402835291602001916127ed565b820191906000526020600020905b8154815290600101906020018083116127d057829003601f168201915b5050505050815260200160018201805461280690615904565b80601f016020809104026020016040519081016040528092919081815260200182805461283290615904565b801561287f5780601f106128545761010080835404028352916020019161287f565b820191906000526020600020905b81548152906001019060200180831161286257829003601f168201915b5050505050815260200160028201805461289890615904565b80601f01602080910402602001604051908101604052809291908181526020018280546128c490615904565b80156129115780601f106128e657610100808354040283529160200191612911565b820191906000526020600020905b8154815290600101906020018083116128f457829003601f168201915b5050505050815260200160038201805461292a90615904565b80601f016020809104026020016040519081016040528092919081815260200182805461295690615904565b80156129a35780601f10612978576101008083540402835291602001916129a3565b820191906000526020600020905b81548152906001019060200180831161298657829003601f168201915b505050505081526020016004820180546129bc90615904565b80601f01602080910402602001604051908101604052809291908181526020018280546129e890615904565b8015612a355780601f10612a0a57610100808354040283529160200191612a35565b820191906000526020600020905b815481529060010190602001808311612a1857829003601f168201915b50505050508152602001600582018054612a4e90615904565b80601f0160208091040260200160405190810160405280929190818152602001828054612a7a90615904565b8015612ac75780601f10612a9c57610100808354040283529160200191612ac7565b820191906000526020600020905b815481529060010190602001808311612aaa57829003601f168201915b50505050508152602001600682018054612ae090615904565b80601f0160208091040260200160405190810160405280929190818152602001828054612b0c90615904565b8015612b595780601f10612b2e57610100808354040283529160200191612b59565b820191906000526020600020905b815481529060010190602001808311612b3c57829003601f168201915b50505050508152602001600782018054612b7290615904565b80601f0160208091040260200160405190810160405280929190818152602001828054612b9e90615904565b8015612beb5780601f10612bc057610100808354040283529160200191612beb565b820191906000526020600020905b815481529060010190602001808311612bce57829003601f168201915b50505050508152602001600882018054612c0490615904565b80601f0160208091040260200160405190810160405280929190818152602001828054612c3090615904565b8015612c7d5780601f10612c5257610100808354040283529160200191612c7d565b820191906000526020600020905b815481529060010190602001808311612c6057829003601f168201915b50505050508152602001600982018054612c9690615904565b80601f0160208091040260200160405190810160405280929190818152602001828054612cc290615904565b8015612d0f5780601f10612ce457610100808354040283529160200191612d0f565b820191906000526020600020905b815481529060010190602001808311612cf257829003601f168201915b50505050508152602001600a82018054612d2890615904565b80601f0160208091040260200160405190810160405280929190818152602001828054612d5490615904565b8015612da15780601f10612d7657610100808354040283529160200191612da1565b820191906000526020600020905b815481529060010190602001808311612d8457829003601f168201915b50505050508152602001600b82018054612dba90615904565b80601f0160208091040260200160405190810160405280929190818152602001828054612de690615904565b8015612e335780601f10612e0857610100808354040283529160200191612e33565b820191906000526020600020905b815481529060010190602001808311612e1657829003601f168201915b50505050508152505081526020019060010190612740565b505050509050919050565b60078181548110612e6657600080fd5b600091825260209091200154905081565b60136020528160005260406000208181548110612e9357600080fd5b90600052602060002090600c020160009150915050806000018054612eb790615904565b80601f0160208091040260200160405190810160405280929190818152602001828054612ee390615904565b8015612f305780601f10612f0557610100808354040283529160200191612f30565b820191906000526020600020905b815481529060010190602001808311612f1357829003601f168201915b505050505090806001018054612f4590615904565b80601f0160208091040260200160405190810160405280929190818152602001828054612f7190615904565b8015612fbe5780601f10612f9357610100808354040283529160200191612fbe565b820191906000526020600020905b815481529060010190602001808311612fa157829003601f168201915b505050505090806002018054612fd390615904565b80601f0160208091040260200160405190810160405280929190818152602001828054612fff90615904565b801561304c5780601f106130215761010080835404028352916020019161304c565b820191906000526020600020905b81548152906001019060200180831161302f57829003601f168201915b50505050509080600301805461306190615904565b80601f016020809104026020016040519081016040528092919081815260200182805461308d90615904565b80156130da5780601f106130af576101008083540402835291602001916130da565b820191906000526020600020905b8154815290600101906020018083116130bd57829003601f168201915b5050505050908060040180546130ef90615904565b80601f016020809104026020016040519081016040528092919081815260200182805461311b90615904565b80156131685780601f1061313d57610100808354040283529160200191613168565b820191906000526020600020905b81548152906001019060200180831161314b57829003601f168201915b50505050509080600501805461317d90615904565b80601f01602080910402602001604051908101604052809291908181526020018280546131a990615904565b80156131f65780601f106131cb576101008083540402835291602001916131f6565b820191906000526020600020905b8154815290600101906020018083116131d957829003601f168201915b50505050509080600601805461320b90615904565b80601f016020809104026020016040519081016040528092919081815260200182805461323790615904565b80156132845780601f1061325957610100808354040283529160200191613284565b820191906000526020600020905b81548152906001019060200180831161326757829003601f168201915b50505050509080600701805461329990615904565b80601f01602080910402602001604051908101604052809291908181526020018280546132c590615904565b80156133125780601f106132e757610100808354040283529160200191613312565b820191906000526020600020905b8154815290600101906020018083116132f557829003601f168201915b50505050509080600801805461332790615904565b80601f016020809104026020016040519081016040528092919081815260200182805461335390615904565b80156133a05780601f10613375576101008083540402835291602001916133a0565b820191906000526020600020905b81548152906001019060200180831161338357829003601f168201915b5050505050908060090180546133b590615904565b80601f01602080910402602001604051908101604052809291908181526020018280546133e190615904565b801561342e5780601f106134035761010080835404028352916020019161342e565b820191906000526020600020905b81548152906001019060200180831161341157829003601f168201915b50505050509080600a01805461344390615904565b80601f016020809104026020016040519081016040528092919081815260200182805461346f90615904565b80156134bc5780601f10613491576101008083540402835291602001916134bc565b820191906000526020600020905b81548152906001019060200180831161349f57829003601f168201915b50505050509080600b0180546134d190615904565b80601f01602080910402602001604051908101604052809291908181526020018280546134fd90615904565b801561354a5780601f1061351f5761010080835404028352916020019161354a565b820191906000526020600020905b81548152906001019060200180831161352d57829003601f168201915b505050505090508c565b600854600090815260156020526040812054610100900460ff166135e05760405162461bcd60e51b815260206004820152602760248201527f4e6f2072616e646f6d20776f7264732068617665206265656e2067656e65726160448201527f746564207965740000000000000000000000000000000000000000000000000060648201526084016109e4565b600854600090815260156020526040812060010180548290613604576136046159b0565b60009182526020909120015492915050565b6004546001600160a01b0316331461367f5760405162461bcd60e51b815260206004820152602660248201527f43616c6c6572206973206e6f742074686520436865636b5061796f757420636f6044820152651b9d1c9858dd60d21b60648201526084016109e4565b6001600160a01b0382166000818152601160209081526040808320858452825291829020805460ff19166002179055815192835282018390527f05e258a8da32249e7d7e1ebcd6b64f7c97c4235999db64b6687191b183d5e3f291015b60405180910390a15050565b600d80546136f590615904565b80601f016020809104026020016040519081016040528092919081815260200182805461372190615904565b801561376e5780601f106137435761010080835404028352916020019161376e565b820191906000526020600020905b81548152906001019060200180831161375157829003601f168201915b505050505081565b60008054604080517fd328a91e00000000000000000000000000000000000000000000000000000000815290516060936001600160a01b039093169263d328a91e9260048082019391829003018186803b1580156137d357600080fd5b505afa1580156137e7573d6000803e3d6000fd5b505050506040513d6000823e601f3d908101601f1916820160405261123a9190810190614f61565b600080546001600160a01b031663d227d2458561382b886142ec565b86866040518563ffffffff1660e01b815260040161384c9493929190615662565b60206040518083038186803b15801561386457600080fd5b505afa158015613878573d6000803e3d6000fd5b505050506040513d601f19601f8201168201806040525081019061389c9190615240565b95945050505050565b600081815260156020526040812054606090610100900460ff1661390b5760405162461bcd60e51b815260206004820152601160248201527f72657175657374206e6f7420666f756e6400000000000000000000000000000060448201526064016109e4565b60008381526015602090815260408083208151606081018352815460ff808216151583526101009091041615158185015260018201805484518187028101870186528181529295939486019383018282801561398657602002820191906000526020600020905b815481526020019060010190808311613972575b5050505050815250509050806000015181604001519250925050915091565b60006139af613f20565b600654600954600a546040517f5d3b1d30000000000000000000000000000000000000000000000000000000008152600481019290925274010000000000000000000000000000000000000000830467ffffffffffffffff166024830152640100000000810461ffff16604483015263ffffffff808216606484015266010000000000009091041660848201526001600160a01b0390911690635d3b1d309060a401602060405180830381600087803b158015613a6b57600080fd5b505af1158015613a7f573d6000803e3d6000fd5b505050506040513d601f19601f82011682018060405250810190613aa39190614e9e565b6040805160608101825260008082526001602080840182815285518481528083018752858701908152878552601583529590932084518154945161ffff1990951690151561ff00191617610100941515949094029390931783559351805195965092949193613b189391850192910190614c18565b505060078054600181019091557fa66cc928b5edb82af9bd49922954155ab7b0942694bea4ce44661d9a8736c688018290555060088190556000818152601460209081526040918290208054336001600160a01b0319909116179055600a548251848152660100000000000090910463ffffffff16918101919091527fcc58b13ad3eab50626c6a6300b1d139cd6ebb1688a7cced9461c2f7e762665ee910160405180910390a190565b600b54604080517f8e15f47300000000000000000000000000000000000000000000000000000000815290516000926001600160a01b031691638e15f473916004808301926020929190829003018186803b15801561120257600080fd5b6004546001600160a01b03163314613c895760405162461bcd60e51b815260206004820152602660248201527f43616c6c6572206973206e6f742074686520436865636b5061796f757420636f6044820152651b9d1c9858dd60d21b60648201526084016109e4565b6000613c93613bc2565b9050600081613ca6846305f5e1006158a2565b613cb091906157a3565b6040519091506001600160a01b0385169082156108fc029083906000818181858888f19350505050158015613ce9573d6000803e3d6000fd5b50604080516001600160a01b0386168152602081018390527f188c4d19b4fadd1889d9bd9bf0ab7c97e0719434751e6c05feac6339c1c001ec910160405180910390a150505050565b613d3a613f20565b613d43816145b8565b50565b613d4e613f20565b600080546001600160a01b0319166001600160a01b03831617905550565b600e80546136f590615904565b600083815260126020526040812090613d93846020015190565b600283018190558451909150613db090600d906020870190614b94565b508251613dc490600e906020860190614b94565b50847f7bab0ec163b5c132c72b8146ac4d6e067e82ed58f8b131150aa71c92589115628585604051613df79291906154aa565b60405180910390a2815460018301546002840154604080516001600160a01b039094168452602084019290925282820152517f93aceb1c5e55aa194781a0423a101b97efa4a051e8d2fc2ba332ca75f4e4b6a79181900360600190a15050505050565b600082815260156020526040902054610100900460ff16613ebd5760405162461bcd60e51b815260206004820152601160248201527f72657175657374206e6f7420666f756e6400000000000000000000000000000060448201526064016109e4565b6000828152601560209081526040909120805460ff1916600190811782558351613eee939290910191840190614c18565b507ffe2e2d779dba245964d4e3ef9b994be63856fd568bf7d3ca9e224755cb1bd54d82826040516136dc929190615610565b6002546001600160a01b03163314613f7a5760405162461bcd60e51b815260206004820152601660248201527f4f6e6c792063616c6c61626c65206279206f776e65720000000000000000000060448201526064016109e4565b565b60008181526001602052604090205481906001600160a01b031615613fcd576040517f8b457ad200000000000000000000000000000000000000000000000000000000815260040160405180910390fd5b50600090815260016020526040902080546001600160a01b0319166001600160a01b0392909216919091179055565b6060600061400983614663565b600101905060008167ffffffffffffffff811115614029576140296159c6565b6040519080825280601f01601f191660200182016040528015614053576020820181803683370190505b5090508181016020015b600019017f3031323334353637383961626364656600000000000000000000000000000000600a86061a8153600a85049450846140995761409e565b61405d565b509392505050565b80516140de576040517f22ce3edd00000000000000000000000000000000000000000000000000000000815260040160405180910390fd5b838360018111156140f1576140f161599a565b908160018111156141045761410461599a565b9052506040840182801561411a5761411a61599a565b9081801561412a5761412a61599a565b9052506060909301929092525050565b8051614172576040517ffe936cb700000000000000000000000000000000000000000000000000000000815260040160405180910390fd5b60a090910152565b6000805481906001600160a01b03166328242b0485614198886142ec565b866040518463ffffffff1660e01b81526004016141b793929190615629565b602060405180830381600087803b1580156141d157600080fd5b505af11580156141e5573d6000803e3d6000fd5b505050506040513d601f19601f820116820180604052508101906142099190614e9e565b905060008054906101000a90046001600160a01b03166001600160a01b0316635ab1bd536040518163ffffffff1660e01b815260040160206040518083038186803b15801561425757600080fd5b505afa15801561426b573d6000803e3d6000fd5b505050506040513d601f19601f8201168201806040525081019061428f9190614e3c565b60008281526001602052604080822080546001600160a01b0319166001600160a01b039490941693909317909255905182917f1131472297a800fee664d1d89cfa8f7676ff07189ecc53f80bbb5f4969099db891a2949350505050565b60606142f6614c52565b805161430490610100614745565b50614344816040518060400160405280600c81526020017f636f64654c6f636174696f6e00000000000000000000000000000000000000008152506147bc565b614363818460000151600181111561435e5761435e61599a565b6147da565b6143a2816040518060400160405280600881526020017f6c616e67756167650000000000000000000000000000000000000000000000008152506147bc565b6143bc818460400151600081111561435e5761435e61599a565b6143fb816040518060400160405280600681526020017f736f7572636500000000000000000000000000000000000000000000000000008152506147bc565b6144098184606001516147bc565b60a083015151156144af57614453816040518060400160405280600481526020017f61726773000000000000000000000000000000000000000000000000000000008152506147bc565b61445c81614813565b60005b8360a00151518110156144a557614493828560a001518381518110614486576144866159b0565b60200260200101516147bc565b8061449d8161593f565b91505061445f565b506144af81614837565b608083015151156145b0576000836020015160018111156144d2576144d261599a565b141561450a576040517fa80d31f700000000000000000000000000000000000000000000000000000000815260040160405180910390fd5b614549816040518060400160405280600f81526020017f736563726574734c6f636174696f6e00000000000000000000000000000000008152506147bc565b614563818460200151600181111561435e5761435e61599a565b6145a2816040518060400160405280600781526020017f73656372657473000000000000000000000000000000000000000000000000008152506147bc565b6145b0818460800151614855565b515192915050565b6001600160a01b0381163314156146115760405162461bcd60e51b815260206004820152601760248201527f43616e6e6f74207472616e7366657220746f2073656c6600000000000000000060448201526064016109e4565b600380546001600160a01b0319166001600160a01b03838116918217909255600254604051919216907fed8889f560326eb138920d842192f0eb3dd22b4f139c87a2c57538e05bae127890600090a350565b6000807a184f03e93ff9f4daa797ed6e38ed64bf6a1f01000000000000000083106146ac577a184f03e93ff9f4daa797ed6e38ed64bf6a1f010000000000000000830492506040015b6d04ee2d6d415b85acef810000000083106146d8576d04ee2d6d415b85acef8100000000830492506020015b662386f26fc1000083106146f657662386f26fc10000830492506010015b6305f5e100831061470e576305f5e100830492506008015b612710831061472257612710830492506004015b60648310614734576064830492506002015b600a8310611dbb5760010192915050565b60408051808201909152606081526000602082015261476560208361595a565b1561478d5761477560208361595a565b6147809060206158c1565b61478a908361578b565b91505b6020808401839052604051808552600081529081840101818110156147b157600080fd5b604052509192915050565b6147c9826003835161485e565b81516147d5908261497f565b505050565b81516147e79060c26149a7565b5061152982826040516020016147ff91815260200190565b604051602081830303815290604052614855565b61481e816004614a10565b600181602001818151614831919061578b565b90525050565b614842816007614a10565b60018160200181815161483191906158c1565b6147c982600283515b60178167ffffffffffffffff16116148855782516114869060e0600585901b1683176149a7565b60ff8167ffffffffffffffff16116148c75782516148ae906018611fe0600586901b16176149a7565b5082516114869067ffffffffffffffff83166001614a27565b61ffff8167ffffffffffffffff161161490a5782516148f1906019611fe0600586901b16176149a7565b5082516114869067ffffffffffffffff83166002614a27565b63ffffffff8167ffffffffffffffff161161494f57825161493690601a611fe0600586901b16176149a7565b5082516114869067ffffffffffffffff83166004614a27565b825161496690601b611fe0600586901b16176149a7565b5082516114869067ffffffffffffffff83166008614a27565b6040805180820190915260608152600060208201526149a083838451614aac565b9392505050565b60408051808201909152606081526000602082015282515160006149cc82600161578b565b9050846020015182106149ed576149ed856149e88360026158a2565b614b7d565b8451602083820101858153508051821115614a06578181525b5093949350505050565b81516147d590601f611fe0600585901b16176149a7565b6040805180820190915260608152600060208201528351516000614a4b828561578b565b90508560200151811115614a6857614a68866149e88360026158a2565b60006001614a78866101006157fa565b614a8291906158c1565b90508651828101878319825116178152508051831115614aa0578281525b50959695505050505050565b6040805180820190915260608152600060208201528251821115614acf57600080fd5b8351516000614ade848361578b565b90508560200151811115614afb57614afb866149e88360026158a2565b855180518382016020019160009180851115614b15578482525b505050602086015b60208610614b555780518252614b3460208361578b565b9150614b4160208261578b565b9050614b4e6020876158c1565b9550614b1d565b51815160001960208890036101000a0190811690199190911617905250849150509392505050565b8151614b898383614745565b50611486838261497f565b828054614ba090615904565b90600052602060002090601f016020900481019282614bc25760008555614c08565b82601f10614bdb57805160ff1916838001178555614c08565b82800160010185558215614c08579182015b82811115614c08578251825591602001919060010190614bed565b50614c14929150614c87565b5090565b828054828255906000526020600020908101928215614c085791602002820182811115614c08578251825591602001919060010190614bed565b6040518060400160405280614c7a604051806040016040528060608152602001600081525090565b8152602001600081525090565b5b80821115614c145760008155600101614c88565b60008083601f840112614cae57600080fd5b50813567ffffffffffffffff811115614cc657600080fd5b6020830191508360208260051b8501011115614ce157600080fd5b9250929050565b600082601f830112614cf957600080fd5b81356020614d0e614d098361573f565b61570e565b80838252828201915082860187848660051b8901011115614d2e57600080fd5b6000805b86811015614d7157823567ffffffffffffffff811115614d50578283fd5b614d5e8b88838d0101614d7f565b8652509385019391850191600101614d32565b509198975050505050505050565b600082601f830112614d9057600080fd5b8135614d9e614d0982615763565b818152846020838601011115614db357600080fd5b816020850160208301376000918101602001919091529392505050565b803560018110614ddf57600080fd5b919050565b803560028110614ddf57600080fd5b803563ffffffff81168114614ddf57600080fd5b803567ffffffffffffffff81168114614ddf57600080fd5b600060208284031215614e3157600080fd5b81356149a0816159dc565b600060208284031215614e4e57600080fd5b81516149a0816159dc565b60008060408385031215614e6c57600080fd5b8235614e77816159dc565b946020939093013593505050565b600060208284031215614e9757600080fd5b5035919050565b600060208284031215614eb057600080fd5b5051919050565b600080600060608486031215614ecc57600080fd5b83359250602084013567ffffffffffffffff80821115614eeb57600080fd5b614ef787838801614d7f565b93506040860135915080821115614f0d57600080fd5b50614f1a86828701614d7f565b9150509250925092565b600060208284031215614f3657600080fd5b813567ffffffffffffffff811115614f4d57600080fd5b614f5984828501614d7f565b949350505050565b600060208284031215614f7357600080fd5b815167ffffffffffffffff811115614f8a57600080fd5b8201601f81018413614f9b57600080fd5b8051614fa9614d0982615763565b818152856020838501011115614fbe57600080fd5b61389c8260208301602086016158d8565b60008060008060008060808789031215614fe857600080fd5b863567ffffffffffffffff8082111561500057600080fd5b818901915089601f83011261501457600080fd5b81358181111561502357600080fd5b8a602082850101111561503557600080fd5b60209283019850965090880135908082111561505057600080fd5b5061505d89828a01614c9c565b9095509350615070905060408801614e07565b915061507e60608801614df3565b90509295509295509295565b600080600080608085870312156150a057600080fd5b843567ffffffffffffffff808211156150b857600080fd5b9086019060c082890312156150cc57600080fd5b6150d46156e5565b6150dd83614de4565b81526150eb60208401614de4565b60208201526150fc60408401614dd0565b604082015260608301358281111561511357600080fd5b61511f8a828601614d7f565b60608301525060808301358281111561513757600080fd5b6151438a828601614d7f565b60808301525060a08301358281111561515b57600080fd5b6151678a828601614ce8565b60a083015250955061517e91505060208601614e07565b925061518c60408601614df3565b9396929550929360600135925050565b600080604083850312156151af57600080fd5b8235915060208084013567ffffffffffffffff8111156151ce57600080fd5b8401601f810186136151df57600080fd5b80356151ed614d098261573f565b80828252848201915084840189868560051b870101111561520d57600080fd5b600094505b83851015615230578035835260019490940193918501918501615212565b5080955050505050509250929050565b60006020828403121561525257600080fd5b81516bffffffffffffffffffffffff811681146149a057600080fd5b600081518084526020808501945080840160005b8381101561529e57815187529582019590820190600101615282565b509495945050505050565b600081518084526152c18160208601602086016158d8565b601f01601f19169290920160200192915050565b600061018082518185526152eb828601826152a9565b9150506020830151848203602086015261530582826152a9565b9150506040830151848203604086015261531f82826152a9565b9150506060830151848203606086015261533982826152a9565b9150506080830151848203608086015261535382826152a9565b91505060a083015184820360a086015261536d82826152a9565b91505060c083015184820360c086015261538782826152a9565b91505060e083015184820360e08601526153a182826152a9565b91505061010080840151858303828701526153bc83826152a9565b9250505061012080840151858303828701526153d883826152a9565b9250505061014080840151858303828701526153f483826152a9565b92505050610160808401518583038287015261541083826152a9565b9695505050505050565b6000602080830181845280855180835260408601915060408160051b870101925083870160005b8281101561546f57603f1988860301845261545d8583516152d5565b94509285019290850190600101615441565b5092979650505050505050565b8215158152604060208201526000614f59604083018461526e565b6020815260006149a060208301846152a9565b6040815260006154bd60408301856152a9565b828103602084015261389c81856152a9565b60208101600383106154f157634e487b7160e01b600052602160045260246000fd5b91905290565b6101808152600061550c61018083018f6152a9565b828103602084015261551e818f6152a9565b90508281036040840152615532818e6152a9565b90508281036060840152615546818d6152a9565b9050828103608084015261555a818c6152a9565b905082810360a084015261556e818b6152a9565b905082810360c0840152615582818a6152a9565b905082810360e084015261559681896152a9565b90508281036101008401526155ab81886152a9565b90508281036101208401526155c081876152a9565b90508281036101408401526155d581866152a9565b90508281036101608401526155ea81856152a9565b9f9e505050505050505050505050505050565b6020815260006149a060208301846152d5565b828152604060208201526000614f59604083018461526e565b67ffffffffffffffff8416815260606020820152600061564c60608301856152a9565b905063ffffffff83166040830152949350505050565b67ffffffffffffffff8516815260806020820152600061568560808301866152a9565b63ffffffff949094166040830152506060015292915050565b6000808335601e198436030181126156b557600080fd5b83018035915067ffffffffffffffff8211156156d057600080fd5b602001915036819003821315614ce157600080fd5b60405160c0810167ffffffffffffffff81118282101715615708576157086159c6565b60405290565b604051601f8201601f1916810167ffffffffffffffff81118282101715615737576157376159c6565b604052919050565b600067ffffffffffffffff821115615759576157596159c6565b5060051b60200190565b600067ffffffffffffffff82111561577d5761577d6159c6565b50601f01601f191660200190565b6000821982111561579e5761579e61596e565b500190565b6000826157b2576157b2615984565b500490565b600181815b808511156157f25781600019048211156157d8576157d861596e565b808516156157e557918102915b93841c93908002906157bc565b509250929050565b60006149a0838360008261581057506001611dbb565b8161581d57506000611dbb565b8160018114615833576002811461583d57615859565b6001915050611dbb565b60ff84111561584e5761584e61596e565b50506001821b611dbb565b5060208310610133831016604e8410600b841016171561587c575081810a611dbb565b61588683836157b7565b806000190482111561589a5761589a61596e565b029392505050565b60008160001904831182151516156158bc576158bc61596e565b500290565b6000828210156158d3576158d361596e565b500390565b60005b838110156158f35781810151838201526020016158db565b838111156114865750506000910152565b600181811c9082168061591857607f821691505b6020821081141561593957634e487b7160e01b600052602260045260246000fd5b50919050565b60006000198214156159535761595361596e565b5060010190565b60008261596957615969615984565b500690565b634e487b7160e01b600052601160045260246000fd5b634e487b7160e01b600052601260045260246000fd5b634e487b7160e01b600052602160045260246000fd5b634e487b7160e01b600052603260045260246000fd5b634e487b7160e01b600052604160045260246000fd5b6001600160a01b0381168114613d4357600080fdfea2646970667358221220981e5ded96f2583fad38cb20ba247f847b61a6c4d5da41b7a41d63405ece1b7c64736f6c63430008070033","opcodes":"PUSH1 0xA0 PUSH1 0x40 MSTORE PUSH32 0x4B09E658ED251BCAFEEBBC69400383D49F344ACE09B9576FE248BB02C003FE9F PUSH1 0x9 SSTORE PUSH1 0xA DUP1 SLOAD PUSH1 0x1 PUSH1 0x1 PUSH1 0x50 SHL SUB NOT AND PUSH7 0x10003000493E0 OR SWAP1 SSTORE TIMESTAMP PUSH1 0xF SSTORE CALLVALUE DUP1 ISZERO PUSH3 0x52 JUMPI PUSH1 0x0 DUP1 REVERT JUMPDEST POP PUSH1 0x40 MLOAD PUSH3 0x5D5D CODESIZE SUB DUP1 PUSH3 0x5D5D DUP4 CODECOPY DUP2 ADD PUSH1 0x40 DUP2 SWAP1 MSTORE PUSH3 0x75 SWAP2 PUSH3 0x2A5 JUMP JUMPDEST PUSH1 0x0 DUP1 SLOAD PUSH1 0x1 PUSH1 0x1 PUSH1 0xA0 SHL SUB NOT AND PUSH1 0x1 PUSH1 0x1 PUSH1 0xA0 SHL SUB DUP7 AND OR DUP2 SSTORE PUSH32 0x7A1BAC17CCC5B313516C5E16FB24F7659AA5EBED000000000000000000000000 PUSH1 0x80 MSTORE CALLER SWAP1 DUP2 SWAP1 DUP2 PUSH3 0x10B JUMPI PUSH1 0x40 MLOAD PUSH3 0x461BCD PUSH1 0xE5 SHL DUP2 MSTORE PUSH1 0x20 PUSH1 0x4 DUP3 ADD MSTORE PUSH1 0x18 PUSH1 0x24 DUP3 ADD MSTORE PUSH32 0x43616E6E6F7420736574206F776E657220746F207A65726F0000000000000000 PUSH1 0x44 DUP3 ADD MSTORE PUSH1 0x64 ADD JUMPDEST PUSH1 0x40 MLOAD DUP1 SWAP2 SUB SWAP1 REVERT JUMPDEST PUSH1 0x2 DUP1 SLOAD PUSH1 0x1 PUSH1 0x1 PUSH1 0xA0 SHL SUB NOT AND PUSH1 0x1 PUSH1 0x1 PUSH1 0xA0 SHL SUB DUP5 DUP2 AND SWAP2 SWAP1 SWAP2 OR SWAP1 SWAP2 SSTORE DUP2 AND ISZERO PUSH3 0x13E JUMPI PUSH3 0x13E DUP2 PUSH3 0x1DB JUMP JUMPDEST POP POP PUSH1 0xA DUP1 SLOAD PUSH1 0x1 PUSH1 0x1 PUSH1 0xA0 SHL SUB SWAP6 DUP7 AND PUSH11 0x100000000000000000000 MUL PUSH1 0x1 PUSH1 0x50 SHL PUSH1 0x1 PUSH1 0xF0 SHL SUB NOT SWAP1 SWAP2 AND OR SWAP1 SSTORE POP PUSH1 0xB DUP1 SLOAD SWAP3 SWAP1 SWAP4 AND PUSH1 0x1 PUSH1 0x1 PUSH1 0xA0 SHL SUB NOT SWAP3 DUP4 AND OR SWAP1 SWAP3 SSTORE PUSH1 0x6 DUP1 SLOAD PUSH1 0x1 PUSH1 0x1 PUSH1 0x40 SHL SUB SWAP1 SWAP4 AND PUSH1 0x1 PUSH1 0xA0 SHL MUL PUSH1 0x1 PUSH1 0x1 PUSH1 0xE0 SHL SUB NOT SWAP1 SWAP4 AND SWAP3 SWAP1 SWAP3 OR PUSH20 0x7A1BAC17CCC5B313516C5E16FB24F7659AA5EBED OR SWAP1 SWAP2 SSTORE TIMESTAMP PUSH1 0x5 SSTORE PUSH1 0x4 DUP1 SLOAD SWAP1 SWAP2 AND CALLER OR SWAP1 SSTORE POP PUSH3 0x310 JUMP JUMPDEST PUSH1 0x1 PUSH1 0x1 PUSH1 0xA0 SHL SUB DUP2 AND CALLER EQ ISZERO PUSH3 0x236 JUMPI PUSH1 0x40 MLOAD PUSH3 0x461BCD PUSH1 0xE5 SHL DUP2 MSTORE PUSH1 0x20 PUSH1 0x4 DUP3 ADD MSTORE PUSH1 0x17 PUSH1 0x24 DUP3 ADD MSTORE PUSH32 0x43616E6E6F74207472616E7366657220746F2073656C66000000000000000000 PUSH1 0x44 DUP3 ADD MSTORE PUSH1 0x64 ADD PUSH3 0x102 JUMP JUMPDEST PUSH1 0x3 DUP1 SLOAD PUSH1 0x1 PUSH1 0x1 PUSH1 0xA0 SHL SUB NOT AND PUSH1 0x1 PUSH1 0x1 PUSH1 0xA0 SHL SUB DUP4 DUP2 AND SWAP2 DUP3 OR SWAP1 SWAP3 SSTORE PUSH1 0x2 SLOAD PUSH1 0x40 MLOAD SWAP2 SWAP3 AND SWAP1 PUSH32 0xED8889F560326EB138920D842192F0EB3DD22B4F139C87A2C57538E05BAE1278 SWAP1 PUSH1 0x0 SWAP1 LOG3 POP JUMP JUMPDEST DUP1 MLOAD PUSH1 0x1 PUSH1 0x1 PUSH1 0xA0 SHL SUB DUP2 AND DUP2 EQ PUSH3 0x2A0 JUMPI PUSH1 0x0 DUP1 REVERT JUMPDEST SWAP2 SWAP1 POP JUMP JUMPDEST PUSH1 0x0 DUP1 PUSH1 0x0 DUP1 PUSH1 0x80 DUP6 DUP8 SUB SLT ISZERO PUSH3 0x2BC JUMPI PUSH1 0x0 DUP1 REVERT JUMPDEST PUSH3 0x2C7 DUP6 PUSH3 0x288 JUMP JUMPDEST SWAP4 POP PUSH3 0x2D7 PUSH1 0x20 DUP7 ADD PUSH3 0x288 JUMP JUMPDEST SWAP3 POP PUSH3 0x2E7 PUSH1 0x40 DUP7 ADD PUSH3 0x288 JUMP JUMPDEST PUSH1 0x60 DUP7 ADD MLOAD SWAP1 SWAP3 POP PUSH1 0x1 PUSH1 0x1 PUSH1 0x40 SHL SUB DUP2 AND DUP2 EQ PUSH3 0x305 JUMPI PUSH1 0x0 DUP1 REVERT JUMPDEST SWAP4 SWAP7 SWAP3 SWAP6 POP SWAP1 SWAP4 POP POP JUMP JUMPDEST PUSH1 0x80 MLOAD PUSH1 0x60 SHR PUSH2 0x5A27 PUSH3 0x336 PUSH1 0x0 CODECOPY PUSH1 0x0 DUP2 DUP2 PUSH2 0x1497 ADD MSTORE PUSH2 0x14F2 ADD MSTORE PUSH2 0x5A27 PUSH1 0x0 RETURN INVALID PUSH1 0x80 PUSH1 0x40 MSTORE PUSH1 0x4 CALLDATASIZE LT PUSH2 0x2DC JUMPI PUSH1 0x0 CALLDATALOAD PUSH1 0xE0 SHR DUP1 PUSH4 0xB655CD9B GT PUSH2 0x184 JUMPI DUP1 PUSH4 0xE0C86289 GT PUSH2 0xD6 JUMPI DUP1 PUSH4 0xF06C5610 GT PUSH2 0x8A JUMPI DUP1 PUSH4 0xF7023BB6 GT PUSH2 0x64 JUMPI DUP1 PUSH4 0xF7023BB6 EQ PUSH2 0x940 JUMPI DUP1 PUSH4 0xFC2A88C3 EQ PUSH2 0x960 JUMPI DUP1 PUSH4 0xFFFEB84E EQ PUSH2 0x976 JUMPI PUSH1 0x0 DUP1 REVERT JUMPDEST DUP1 PUSH4 0xF06C5610 EQ PUSH2 0x8C2 JUMPI DUP1 PUSH4 0xF11DA55B EQ PUSH2 0x8D8 JUMPI DUP1 PUSH4 0xF2FDE38B EQ PUSH2 0x920 JUMPI PUSH1 0x0 DUP1 REVERT JUMPDEST DUP1 PUSH4 0xE3928B7F GT PUSH2 0xBB JUMPI DUP1 PUSH4 0xE3928B7F EQ PUSH2 0x85F JUMPI DUP1 PUSH4 0xE5C33F30 EQ PUSH2 0x874 JUMPI DUP1 PUSH4 0xECD831E8 EQ PUSH2 0x8A2 JUMPI PUSH1 0x0 DUP1 REVERT JUMPDEST DUP1 PUSH4 0xE0C86289 EQ PUSH2 0x812 JUMPI DUP1 PUSH4 0xE0E2FA9A EQ PUSH2 0x827 JUMPI PUSH1 0x0 DUP1 REVERT JUMPDEST DUP1 PUSH4 0xC605F76C GT PUSH2 0x138 JUMPI DUP1 PUSH4 0xD328A91E GT PUSH2 0x112 JUMPI DUP1 PUSH4 0xD328A91E EQ PUSH2 0x792 JUMPI DUP1 PUSH4 0xD4B39175 EQ PUSH2 0x7A7 JUMPI DUP1 PUSH4 0xD8A4676F EQ PUSH2 0x7E4 JUMPI PUSH1 0x0 DUP1 REVERT JUMPDEST DUP1 PUSH4 0xC605F76C EQ PUSH2 0x714 JUMPI DUP1 PUSH4 0xCC9DE25D EQ PUSH2 0x75A JUMPI DUP1 PUSH4 0xD18E81B3 EQ PUSH2 0x77C JUMPI PUSH1 0x0 DUP1 REVERT JUMPDEST DUP1 PUSH4 0xBC58D68C GT PUSH2 0x169 JUMPI DUP1 PUSH4 0xBC58D68C EQ PUSH2 0x6B2 JUMPI DUP1 PUSH4 0xBEF3A2F0 EQ PUSH2 0x6D2 JUMPI DUP1 PUSH4 0xC0303C37 EQ PUSH2 0x6F4 JUMPI PUSH1 0x0 DUP1 REVERT JUMPDEST DUP1 PUSH4 0xB655CD9B EQ PUSH2 0x665 JUMPI DUP1 PUSH4 0xB91CE205 EQ PUSH2 0x69D JUMPI PUSH1 0x0 DUP1 REVERT JUMPDEST DUP1 PUSH4 0x61875D8D GT PUSH2 0x23D JUMPI DUP1 PUSH4 0x79BA5097 GT PUSH2 0x1F1 JUMPI DUP1 PUSH4 0x8DA5CB5B GT PUSH2 0x1CB JUMPI DUP1 PUSH4 0x8DA5CB5B EQ PUSH2 0x58C JUMPI DUP1 PUSH4 0xA168FA89 EQ PUSH2 0x5AA JUMPI DUP1 PUSH4 0xB1011DBD EQ PUSH2 0x5FA JUMPI PUSH1 0x0 DUP1 REVERT JUMPDEST DUP1 PUSH4 0x79BA5097 EQ PUSH2 0x52A JUMPI DUP1 PUSH4 0x80858026 EQ PUSH2 0x53F JUMPI DUP1 PUSH4 0x8796BA8C EQ PUSH2 0x56C JUMPI PUSH1 0x0 DUP1 REVERT JUMPDEST DUP1 PUSH4 0x69F8EAED GT PUSH2 0x222 JUMPI DUP1 PUSH4 0x69F8EAED EQ PUSH2 0x4A7 JUMPI DUP1 PUSH4 0x6C6F9990 EQ PUSH2 0x4C7 JUMPI DUP1 PUSH4 0x6EC7BE7E EQ PUSH2 0x4E7 JUMPI PUSH1 0x0 DUP1 REVERT JUMPDEST DUP1 PUSH4 0x61875D8D EQ PUSH2 0x467 JUMPI DUP1 PUSH4 0x63D6634A EQ PUSH2 0x494 JUMPI PUSH1 0x0 DUP1 REVERT JUMPDEST DUP1 PUSH4 0x1FE543E3 GT PUSH2 0x294 JUMPI DUP1 PUSH4 0x29CB924D GT PUSH2 0x279 JUMPI DUP1 PUSH4 0x29CB924D EQ PUSH2 0x3E4 JUMPI DUP1 PUSH4 0x30BDA99D EQ PUSH2 0x3F9 JUMPI DUP1 PUSH4 0x5EC7BACA EQ PUSH2 0x419 JUMPI PUSH1 0x0 DUP1 REVERT JUMPDEST DUP1 PUSH4 0x1FE543E3 EQ PUSH2 0x379 JUMPI DUP1 PUSH4 0x215FC625 EQ PUSH2 0x399 JUMPI PUSH1 0x0 DUP1 REVERT JUMPDEST DUP1 PUSH4 0xB50567F GT PUSH2 0x2C5 JUMPI DUP1 PUSH4 0xB50567F EQ PUSH2 0x32E JUMPI DUP1 PUSH4 0xCA76175 EQ PUSH2 0x341 JUMPI DUP1 PUSH4 0x1AA46F59 EQ PUSH2 0x363 JUMPI PUSH1 0x0 DUP1 REVERT JUMPDEST DUP1 PUSH4 0x4B2303C EQ PUSH2 0x2E1 JUMPI DUP1 PUSH4 0x5F411D6 EQ PUSH2 0x30B JUMPI JUMPDEST PUSH1 0x0 DUP1 REVERT JUMPDEST CALLVALUE DUP1 ISZERO PUSH2 0x2ED JUMPI PUSH1 0x0 DUP1 REVERT JUMPDEST POP PUSH2 0x2F6 PUSH2 0x98B JUMP JUMPDEST PUSH1 0x40 MLOAD SWAP1 ISZERO ISZERO DUP2 MSTORE PUSH1 0x20 ADD JUMPDEST PUSH1 0x40 MLOAD DUP1 SWAP2 SUB SWAP1 RETURN JUMPDEST CALLVALUE DUP1 ISZERO PUSH2 0x317 JUMPI PUSH1 0x0 DUP1 REVERT JUMPDEST POP PUSH2 0x320 PUSH2 0x11B4 JUMP JUMPDEST PUSH1 0x40 MLOAD SWAP1 DUP2 MSTORE PUSH1 0x20 ADD PUSH2 0x302 JUMP JUMPDEST PUSH2 0x320 PUSH2 0x33C CALLDATASIZE PUSH1 0x4 PUSH2 0x4E85 JUMP JUMPDEST PUSH2 0x123F JUMP JUMPDEST CALLVALUE DUP1 ISZERO PUSH2 0x34D JUMPI PUSH1 0x0 DUP1 REVERT JUMPDEST POP PUSH2 0x361 PUSH2 0x35C CALLDATASIZE PUSH1 0x4 PUSH2 0x4EB7 JUMP JUMPDEST PUSH2 0x13E6 JUMP JUMPDEST STOP JUMPDEST CALLVALUE DUP1 ISZERO PUSH2 0x36F JUMPI PUSH1 0x0 DUP1 REVERT JUMPDEST POP PUSH2 0x320 PUSH1 0xC SLOAD DUP2 JUMP JUMPDEST CALLVALUE DUP1 ISZERO PUSH2 0x385 JUMPI PUSH1 0x0 DUP1 REVERT JUMPDEST POP PUSH2 0x361 PUSH2 0x394 CALLDATASIZE PUSH1 0x4 PUSH2 0x519C JUMP JUMPDEST PUSH2 0x148C JUMP JUMPDEST CALLVALUE DUP1 ISZERO PUSH2 0x3A5 JUMPI PUSH1 0x0 DUP1 REVERT JUMPDEST POP PUSH2 0x3B9 PUSH2 0x3B4 CALLDATASIZE PUSH1 0x4 PUSH2 0x4E85 JUMP JUMPDEST PUSH2 0x152D JUMP JUMPDEST PUSH1 0x40 DUP1 MLOAD DUP3 MLOAD PUSH1 0x1 PUSH1 0x1 PUSH1 0xA0 SHL SUB AND DUP2 MSTORE PUSH1 0x20 DUP1 DUP5 ADD MLOAD SWAP1 DUP3 ADD MSTORE SWAP2 DUP2 ADD MLOAD SWAP1 DUP3 ADD MSTORE PUSH1 0x60 ADD PUSH2 0x302 JUMP JUMPDEST CALLVALUE DUP1 ISZERO PUSH2 0x3F0 JUMPI PUSH1 0x0 DUP1 REVERT JUMPDEST POP PUSH1 0xF SLOAD PUSH2 0x320 JUMP JUMPDEST CALLVALUE DUP1 ISZERO PUSH2 0x405 JUMPI PUSH1 0x0 DUP1 REVERT JUMPDEST POP PUSH2 0x361 PUSH2 0x414 CALLDATASIZE PUSH1 0x4 PUSH2 0x4E59 JUMP JUMPDEST PUSH2 0x1626 JUMP JUMPDEST CALLVALUE DUP1 ISZERO PUSH2 0x425 JUMPI PUSH1 0x0 DUP1 REVERT JUMPDEST POP PUSH2 0x44F PUSH2 0x434 CALLDATASIZE PUSH1 0x4 PUSH2 0x4E85 JUMP JUMPDEST PUSH1 0x14 PUSH1 0x20 MSTORE PUSH1 0x0 SWAP1 DUP2 MSTORE PUSH1 0x40 SWAP1 KECCAK256 SLOAD PUSH1 0x1 PUSH1 0x1 PUSH1 0xA0 SHL SUB AND DUP2 JUMP JUMPDEST PUSH1 0x40 MLOAD PUSH1 0x1 PUSH1 0x1 PUSH1 0xA0 SHL SUB SWAP1 SWAP2 AND DUP2 MSTORE PUSH1 0x20 ADD PUSH2 0x302 JUMP JUMPDEST CALLVALUE DUP1 ISZERO PUSH2 0x473 JUMPI PUSH1 0x0 DUP1 REVERT JUMPDEST POP PUSH2 0x487 PUSH2 0x482 CALLDATASIZE PUSH1 0x4 PUSH2 0x4E59 JUMP JUMPDEST PUSH2 0x1638 JUMP JUMPDEST PUSH1 0x40 MLOAD PUSH2 0x302 SWAP2 SWAP1 PUSH2 0x55FD JUMP JUMPDEST PUSH2 0x320 PUSH2 0x4A2 CALLDATASIZE PUSH1 0x4 PUSH2 0x4FCF JUMP JUMPDEST PUSH2 0x1DC1 JUMP JUMPDEST CALLVALUE DUP1 ISZERO PUSH2 0x4B3 JUMPI PUSH1 0x0 DUP1 REVERT JUMPDEST POP PUSH2 0x361 PUSH2 0x4C2 CALLDATASIZE PUSH1 0x4 PUSH2 0x4E1F JUMP JUMPDEST PUSH2 0x2629 JUMP JUMPDEST CALLVALUE DUP1 ISZERO PUSH2 0x4D3 JUMPI PUSH1 0x0 DUP1 REVERT JUMPDEST POP PUSH1 0xB SLOAD PUSH2 0x44F SWAP1 PUSH1 0x1 PUSH1 0x1 PUSH1 0xA0 SHL SUB AND DUP2 JUMP JUMPDEST CALLVALUE DUP1 ISZERO PUSH2 0x4F3 JUMPI PUSH1 0x0 DUP1 REVERT JUMPDEST POP PUSH2 0x320 PUSH2 0x502 CALLDATASIZE PUSH1 0x4 PUSH2 0x4E59 JUMP JUMPDEST PUSH1 0x1 PUSH1 0x1 PUSH1 0xA0 SHL SUB SWAP2 SWAP1 SWAP2 AND PUSH1 0x0 SWAP1 DUP2 MSTORE PUSH1 0x10 PUSH1 0x20 SWAP1 DUP2 MSTORE PUSH1 0x40 DUP1 DUP4 KECCAK256 SWAP4 DUP4 MSTORE SWAP3 SWAP1 MSTORE KECCAK256 SLOAD SWAP1 JUMP JUMPDEST CALLVALUE DUP1 ISZERO PUSH2 0x536 JUMPI PUSH1 0x0 DUP1 REVERT JUMPDEST POP PUSH2 0x361 PUSH2 0x2653 JUMP JUMPDEST CALLVALUE DUP1 ISZERO PUSH2 0x54B JUMPI PUSH1 0x0 DUP1 REVERT JUMPDEST POP PUSH2 0x55F PUSH2 0x55A CALLDATASIZE PUSH1 0x4 PUSH2 0x4E1F JUMP JUMPDEST PUSH2 0x2708 JUMP JUMPDEST PUSH1 0x40 MLOAD PUSH2 0x302 SWAP2 SWAP1 PUSH2 0x541A JUMP JUMPDEST CALLVALUE DUP1 ISZERO PUSH2 0x578 JUMPI PUSH1 0x0 DUP1 REVERT JUMPDEST POP PUSH2 0x320 PUSH2 0x587 CALLDATASIZE PUSH1 0x4 PUSH2 0x4E85 JUMP JUMPDEST PUSH2 0x2E56 JUMP JUMPDEST CALLVALUE DUP1 ISZERO PUSH2 0x598 JUMPI PUSH1 0x0 DUP1 REVERT JUMPDEST POP PUSH1 0x2 SLOAD PUSH1 0x1 PUSH1 0x1 PUSH1 0xA0 SHL SUB AND PUSH2 0x44F JUMP JUMPDEST CALLVALUE DUP1 ISZERO PUSH2 0x5B6 JUMPI PUSH1 0x0 DUP1 REVERT JUMPDEST POP PUSH2 0x5E3 PUSH2 0x5C5 CALLDATASIZE PUSH1 0x4 PUSH2 0x4E85 JUMP JUMPDEST PUSH1 0x15 PUSH1 0x20 MSTORE PUSH1 0x0 SWAP1 DUP2 MSTORE PUSH1 0x40 SWAP1 KECCAK256 SLOAD PUSH1 0xFF DUP1 DUP3 AND SWAP2 PUSH2 0x100 SWAP1 DIV AND DUP3 JUMP JUMPDEST PUSH1 0x40 DUP1 MLOAD SWAP3 ISZERO ISZERO DUP4 MSTORE SWAP1 ISZERO ISZERO PUSH1 0x20 DUP4 ADD MSTORE ADD PUSH2 0x302 JUMP JUMPDEST CALLVALUE DUP1 ISZERO PUSH2 0x606 JUMPI PUSH1 0x0 DUP1 REVERT JUMPDEST POP PUSH2 0x640 PUSH2 0x615 CALLDATASIZE PUSH1 0x4 PUSH2 0x4E85 JUMP JUMPDEST PUSH1 0x12 PUSH1 0x20 MSTORE PUSH1 0x0 SWAP1 DUP2 MSTORE PUSH1 0x40 SWAP1 KECCAK256 DUP1 SLOAD PUSH1 0x1 DUP3 ADD SLOAD PUSH1 0x2 SWAP1 SWAP3 ADD SLOAD PUSH1 0x1 PUSH1 0x1 PUSH1 0xA0 SHL SUB SWAP1 SWAP2 AND SWAP2 SWAP1 DUP4 JUMP JUMPDEST PUSH1 0x40 DUP1 MLOAD PUSH1 0x1 PUSH1 0x1 PUSH1 0xA0 SHL SUB SWAP1 SWAP5 AND DUP5 MSTORE PUSH1 0x20 DUP5 ADD SWAP3 SWAP1 SWAP3 MSTORE SWAP1 DUP3 ADD MSTORE PUSH1 0x60 ADD PUSH2 0x302 JUMP JUMPDEST CALLVALUE DUP1 ISZERO PUSH2 0x671 JUMPI PUSH1 0x0 DUP1 REVERT JUMPDEST POP PUSH2 0x685 PUSH2 0x680 CALLDATASIZE PUSH1 0x4 PUSH2 0x4E59 JUMP JUMPDEST PUSH2 0x2E77 JUMP JUMPDEST PUSH1 0x40 MLOAD PUSH2 0x302 SWAP13 SWAP12 SWAP11 SWAP10 SWAP9 SWAP8 SWAP7 SWAP6 SWAP5 SWAP4 SWAP3 SWAP2 SWAP1 PUSH2 0x54F7 JUMP JUMPDEST CALLVALUE DUP1 ISZERO PUSH2 0x6A9 JUMPI PUSH1 0x0 DUP1 REVERT JUMPDEST POP PUSH2 0x320 PUSH2 0x3554 JUMP JUMPDEST CALLVALUE DUP1 ISZERO PUSH2 0x6BE JUMPI PUSH1 0x0 DUP1 REVERT JUMPDEST POP PUSH2 0x361 PUSH2 0x6CD CALLDATASIZE PUSH1 0x4 PUSH2 0x4E59 JUMP JUMPDEST PUSH2 0x3616 JUMP JUMPDEST CALLVALUE DUP1 ISZERO PUSH2 0x6DE JUMPI PUSH1 0x0 DUP1 REVERT JUMPDEST POP PUSH2 0x6E7 PUSH2 0x36E8 JUMP JUMPDEST PUSH1 0x40 MLOAD PUSH2 0x302 SWAP2 SWAP1 PUSH2 0x5497 JUMP JUMPDEST CALLVALUE DUP1 ISZERO PUSH2 0x700 JUMPI PUSH1 0x0 DUP1 REVERT JUMPDEST POP PUSH1 0x4 SLOAD PUSH2 0x44F SWAP1 PUSH1 0x1 PUSH1 0x1 PUSH1 0xA0 SHL SUB AND DUP2 JUMP JUMPDEST CALLVALUE DUP1 ISZERO PUSH2 0x720 JUMPI PUSH1 0x0 DUP1 REVERT JUMPDEST POP PUSH1 0x40 DUP1 MLOAD DUP1 DUP3 ADD SWAP1 SWAP2 MSTORE PUSH1 0xC DUP2 MSTORE PUSH32 0x48656C6C6F20576F726C64210000000000000000000000000000000000000000 PUSH1 0x20 DUP3 ADD MSTORE PUSH2 0x6E7 JUMP JUMPDEST CALLVALUE DUP1 ISZERO PUSH2 0x766 JUMPI PUSH1 0x0 DUP1 REVERT JUMPDEST POP PUSH2 0x320 PUSH2 0x775 CALLDATASIZE PUSH1 0x4 PUSH2 0x4F24 JUMP JUMPDEST PUSH1 0x20 ADD MLOAD SWAP1 JUMP JUMPDEST CALLVALUE DUP1 ISZERO PUSH2 0x788 JUMPI PUSH1 0x0 DUP1 REVERT JUMPDEST POP PUSH2 0x320 PUSH1 0xF SLOAD DUP2 JUMP JUMPDEST CALLVALUE DUP1 ISZERO PUSH2 0x79E JUMPI PUSH1 0x0 DUP1 REVERT JUMPDEST POP PUSH2 0x6E7 PUSH2 0x3776 JUMP JUMPDEST CALLVALUE DUP1 ISZERO PUSH2 0x7B3 JUMPI PUSH1 0x0 DUP1 REVERT JUMPDEST POP PUSH2 0x7C7 PUSH2 0x7C2 CALLDATASIZE PUSH1 0x4 PUSH2 0x508A JUMP JUMPDEST PUSH2 0x380F JUMP JUMPDEST PUSH1 0x40 MLOAD PUSH12 0xFFFFFFFFFFFFFFFFFFFFFFFF SWAP1 SWAP2 AND DUP2 MSTORE PUSH1 0x20 ADD PUSH2 0x302 JUMP JUMPDEST CALLVALUE DUP1 ISZERO PUSH2 0x7F0 JUMPI PUSH1 0x0 DUP1 REVERT JUMPDEST POP PUSH2 0x804 PUSH2 0x7FF CALLDATASIZE PUSH1 0x4 PUSH2 0x4E85 JUMP JUMPDEST PUSH2 0x38A5 JUMP JUMPDEST PUSH1 0x40 MLOAD PUSH2 0x302 SWAP3 SWAP2 SWAP1 PUSH2 0x547C JUMP JUMPDEST CALLVALUE DUP1 ISZERO PUSH2 0x81E JUMPI PUSH1 0x0 DUP1 REVERT JUMPDEST POP PUSH2 0x320 PUSH2 0x39A5 JUMP JUMPDEST CALLVALUE DUP1 ISZERO PUSH2 0x833 JUMPI PUSH1 0x0 DUP1 REVERT JUMPDEST POP PUSH2 0x320 PUSH2 0x842 CALLDATASIZE PUSH1 0x4 PUSH2 0x4E59 JUMP JUMPDEST PUSH1 0x10 PUSH1 0x20 SWAP1 DUP2 MSTORE PUSH1 0x0 SWAP3 DUP4 MSTORE PUSH1 0x40 DUP1 DUP5 KECCAK256 SWAP1 SWAP2 MSTORE SWAP1 DUP3 MSTORE SWAP1 KECCAK256 SLOAD DUP2 JUMP JUMPDEST CALLVALUE DUP1 ISZERO PUSH2 0x86B JUMPI PUSH1 0x0 DUP1 REVERT JUMPDEST POP PUSH2 0x320 PUSH2 0x3BC2 JUMP JUMPDEST CALLVALUE DUP1 ISZERO PUSH2 0x880 JUMPI PUSH1 0x0 DUP1 REVERT JUMPDEST POP PUSH1 0xA SLOAD PUSH2 0x44F SWAP1 PUSH11 0x100000000000000000000 SWAP1 DIV PUSH1 0x1 PUSH1 0x1 PUSH1 0xA0 SHL SUB AND DUP2 JUMP JUMPDEST CALLVALUE DUP1 ISZERO PUSH2 0x8AE JUMPI PUSH1 0x0 DUP1 REVERT JUMPDEST POP PUSH2 0x361 PUSH2 0x8BD CALLDATASIZE PUSH1 0x4 PUSH2 0x4E59 JUMP JUMPDEST PUSH2 0x3C20 JUMP JUMPDEST CALLVALUE DUP1 ISZERO PUSH2 0x8CE JUMPI PUSH1 0x0 DUP1 REVERT JUMPDEST POP PUSH2 0x320 PUSH1 0x5 SLOAD DUP2 JUMP JUMPDEST CALLVALUE DUP1 ISZERO PUSH2 0x8E4 JUMPI PUSH1 0x0 DUP1 REVERT JUMPDEST POP PUSH2 0x913 PUSH2 0x8F3 CALLDATASIZE PUSH1 0x4 PUSH2 0x4E59 JUMP JUMPDEST PUSH1 0x11 PUSH1 0x20 SWAP1 DUP2 MSTORE PUSH1 0x0 SWAP3 DUP4 MSTORE PUSH1 0x40 DUP1 DUP5 KECCAK256 SWAP1 SWAP2 MSTORE SWAP1 DUP3 MSTORE SWAP1 KECCAK256 SLOAD PUSH1 0xFF AND DUP2 JUMP JUMPDEST PUSH1 0x40 MLOAD PUSH2 0x302 SWAP2 SWAP1 PUSH2 0x54CF JUMP JUMPDEST CALLVALUE DUP1 ISZERO PUSH2 0x92C JUMPI PUSH1 0x0 DUP1 REVERT JUMPDEST POP PUSH2 0x361 PUSH2 0x93B CALLDATASIZE PUSH1 0x4 PUSH2 0x4E1F JUMP JUMPDEST PUSH2 0x3D32 JUMP JUMPDEST CALLVALUE DUP1 ISZERO PUSH2 0x94C JUMPI PUSH1 0x0 DUP1 REVERT JUMPDEST POP PUSH2 0x361 PUSH2 0x95B CALLDATASIZE PUSH1 0x4 PUSH2 0x4E1F JUMP JUMPDEST PUSH2 0x3D46 JUMP JUMPDEST CALLVALUE DUP1 ISZERO PUSH2 0x96C JUMPI PUSH1 0x0 DUP1 REVERT JUMPDEST POP PUSH2 0x320 PUSH1 0x8 SLOAD DUP2 JUMP JUMPDEST CALLVALUE DUP1 ISZERO PUSH2 0x982 JUMPI PUSH1 0x0 DUP1 REVERT JUMPDEST POP PUSH2 0x6E7 PUSH2 0x3D6C JUMP JUMPDEST CALLER PUSH1 0x0 SWAP1 DUP2 MSTORE PUSH1 0x13 PUSH1 0x20 MSTORE PUSH1 0x40 DUP2 KECCAK256 DUP1 SLOAD PUSH2 0x9ED JUMPI PUSH1 0x40 MLOAD PUSH3 0x461BCD PUSH1 0xE5 SHL DUP2 MSTORE PUSH1 0x20 PUSH1 0x4 DUP3 ADD MSTORE PUSH1 0x17 PUSH1 0x24 DUP3 ADD MSTORE PUSH32 0x4E6F20696E737572616E6365206461746120666F756E64000000000000000000 PUSH1 0x44 DUP3 ADD MSTORE PUSH1 0x64 ADD JUMPDEST PUSH1 0x40 MLOAD DUP1 SWAP2 SUB SWAP1 REVERT JUMPDEST PUSH1 0x0 JUMPDEST DUP2 SLOAD DUP2 LT ISZERO PUSH2 0x11AB JUMPI PUSH1 0x0 DUP3 DUP3 DUP2 SLOAD DUP2 LT PUSH2 0xA0D JUMPI PUSH2 0xA0D PUSH2 0x59B0 JUMP JUMPDEST SWAP1 PUSH1 0x0 MSTORE PUSH1 0x20 PUSH1 0x0 KECCAK256 SWAP1 PUSH1 0xC MUL ADD PUSH1 0x40 MLOAD DUP1 PUSH2 0x180 ADD PUSH1 0x40 MSTORE SWAP1 DUP2 PUSH1 0x0 DUP3 ADD DUP1 SLOAD PUSH2 0xA37 SWAP1 PUSH2 0x5904 JUMP JUMPDEST DUP1 PUSH1 0x1F ADD PUSH1 0x20 DUP1 SWAP2 DIV MUL PUSH1 0x20 ADD PUSH1 0x40 MLOAD SWAP1 DUP2 ADD PUSH1 0x40 MSTORE DUP1 SWAP3 SWAP2 SWAP1 DUP2 DUP2 MSTORE PUSH1 0x20 ADD DUP3 DUP1 SLOAD PUSH2 0xA63 SWAP1 PUSH2 0x5904 JUMP JUMPDEST DUP1 ISZERO PUSH2 0xAB0 JUMPI DUP1 PUSH1 0x1F LT PUSH2 0xA85 JUMPI PUSH2 0x100 DUP1 DUP4 SLOAD DIV MUL DUP4 MSTORE SWAP2 PUSH1 0x20 ADD SWAP2 PUSH2 0xAB0 JUMP JUMPDEST DUP3 ADD SWAP2 SWAP1 PUSH1 0x0 MSTORE PUSH1 0x20 PUSH1 0x0 KECCAK256 SWAP1 JUMPDEST DUP2 SLOAD DUP2 MSTORE SWAP1 PUSH1 0x1 ADD SWAP1 PUSH1 0x20 ADD DUP1 DUP4 GT PUSH2 0xA93 JUMPI DUP3 SWAP1 SUB PUSH1 0x1F AND DUP3 ADD SWAP2 JUMPDEST POP POP POP POP POP DUP2 MSTORE PUSH1 0x20 ADD PUSH1 0x1 DUP3 ADD DUP1 SLOAD PUSH2 0xAC9 SWAP1 PUSH2 0x5904 JUMP JUMPDEST DUP1 PUSH1 0x1F ADD PUSH1 0x20 DUP1 SWAP2 DIV MUL PUSH1 0x20 ADD PUSH1 0x40 MLOAD SWAP1 DUP2 ADD PUSH1 0x40 MSTORE DUP1 SWAP3 SWAP2 SWAP1 DUP2 DUP2 MSTORE PUSH1 0x20 ADD DUP3 DUP1 SLOAD PUSH2 0xAF5 SWAP1 PUSH2 0x5904 JUMP JUMPDEST DUP1 ISZERO PUSH2 0xB42 JUMPI DUP1 PUSH1 0x1F LT PUSH2 0xB17 JUMPI PUSH2 0x100 DUP1 DUP4 SLOAD DIV MUL DUP4 MSTORE SWAP2 PUSH1 0x20 ADD SWAP2 PUSH2 0xB42 JUMP JUMPDEST DUP3 ADD SWAP2 SWAP1 PUSH1 0x0 MSTORE PUSH1 0x20 PUSH1 0x0 KECCAK256 SWAP1 JUMPDEST DUP2 SLOAD DUP2 MSTORE SWAP1 PUSH1 0x1 ADD SWAP1 PUSH1 0x20 ADD DUP1 DUP4 GT PUSH2 0xB25 JUMPI DUP3 SWAP1 SUB PUSH1 0x1F AND DUP3 ADD SWAP2 JUMPDEST POP POP POP POP POP DUP2 MSTORE PUSH1 0x20 ADD PUSH1 0x2 DUP3 ADD DUP1 SLOAD PUSH2 0xB5B SWAP1 PUSH2 0x5904 JUMP JUMPDEST DUP1 PUSH1 0x1F ADD PUSH1 0x20 DUP1 SWAP2 DIV MUL PUSH1 0x20 ADD PUSH1 0x40 MLOAD SWAP1 DUP2 ADD PUSH1 0x40 MSTORE DUP1 SWAP3 SWAP2 SWAP1 DUP2 DUP2 MSTORE PUSH1 0x20 ADD DUP3 DUP1 SLOAD PUSH2 0xB87 SWAP1 PUSH2 0x5904 JUMP JUMPDEST DUP1 ISZERO PUSH2 0xBD4 JUMPI DUP1 PUSH1 0x1F LT PUSH2 0xBA9 JUMPI PUSH2 0x100 DUP1 DUP4 SLOAD DIV MUL DUP4 MSTORE SWAP2 PUSH1 0x20 ADD SWAP2 PUSH2 0xBD4 JUMP JUMPDEST DUP3 ADD SWAP2 SWAP1 PUSH1 0x0 MSTORE PUSH1 0x20 PUSH1 0x0 KECCAK256 SWAP1 JUMPDEST DUP2 SLOAD DUP2 MSTORE SWAP1 PUSH1 0x1 ADD SWAP1 PUSH1 0x20 ADD DUP1 DUP4 GT PUSH2 0xBB7 JUMPI DUP3 SWAP1 SUB PUSH1 0x1F AND DUP3 ADD SWAP2 JUMPDEST POP POP POP POP POP DUP2 MSTORE PUSH1 0x20 ADD PUSH1 0x3 DUP3 ADD DUP1 SLOAD PUSH2 0xBED SWAP1 PUSH2 0x5904 JUMP JUMPDEST DUP1 PUSH1 0x1F ADD PUSH1 0x20 DUP1 SWAP2 DIV MUL PUSH1 0x20 ADD PUSH1 0x40 MLOAD SWAP1 DUP2 ADD PUSH1 0x40 MSTORE DUP1 SWAP3 SWAP2 SWAP1 DUP2 DUP2 MSTORE PUSH1 0x20 ADD DUP3 DUP1 SLOAD PUSH2 0xC19 SWAP1 PUSH2 0x5904 JUMP JUMPDEST DUP1 ISZERO PUSH2 0xC66 JUMPI DUP1 PUSH1 0x1F LT PUSH2 0xC3B JUMPI PUSH2 0x100 DUP1 DUP4 SLOAD DIV MUL DUP4 MSTORE SWAP2 PUSH1 0x20 ADD SWAP2 PUSH2 0xC66 JUMP JUMPDEST DUP3 ADD SWAP2 SWAP1 PUSH1 0x0 MSTORE PUSH1 0x20 PUSH1 0x0 KECCAK256 SWAP1 JUMPDEST DUP2 SLOAD DUP2 MSTORE SWAP1 PUSH1 0x1 ADD SWAP1 PUSH1 0x20 ADD DUP1 DUP4 GT PUSH2 0xC49 JUMPI DUP3 SWAP1 SUB PUSH1 0x1F AND DUP3 ADD SWAP2 JUMPDEST POP POP POP POP POP DUP2 MSTORE PUSH1 0x20 ADD PUSH1 0x4 DUP3 ADD DUP1 SLOAD PUSH2 0xC7F SWAP1 PUSH2 0x5904 JUMP JUMPDEST DUP1 PUSH1 0x1F ADD PUSH1 0x20 DUP1 SWAP2 DIV MUL PUSH1 0x20 ADD PUSH1 0x40 MLOAD SWAP1 DUP2 ADD PUSH1 0x40 MSTORE DUP1 SWAP3 SWAP2 SWAP1 DUP2 DUP2 MSTORE PUSH1 0x20 ADD DUP3 DUP1 SLOAD PUSH2 0xCAB SWAP1 PUSH2 0x5904 JUMP JUMPDEST DUP1 ISZERO PUSH2 0xCF8 JUMPI DUP1 PUSH1 0x1F LT PUSH2 0xCCD JUMPI PUSH2 0x100 DUP1 DUP4 SLOAD DIV MUL DUP4 MSTORE SWAP2 PUSH1 0x20 ADD SWAP2 PUSH2 0xCF8 JUMP JUMPDEST DUP3 ADD SWAP2 SWAP1 PUSH1 0x0 MSTORE PUSH1 0x20 PUSH1 0x0 KECCAK256 SWAP1 JUMPDEST DUP2 SLOAD DUP2 MSTORE SWAP1 PUSH1 0x1 ADD SWAP1 PUSH1 0x20 ADD DUP1 DUP4 GT PUSH2 0xCDB JUMPI DUP3 SWAP1 SUB PUSH1 0x1F AND DUP3 ADD SWAP2 JUMPDEST POP POP POP POP POP DUP2 MSTORE PUSH1 0x20 ADD PUSH1 0x5 DUP3 ADD DUP1 SLOAD PUSH2 0xD11 SWAP1 PUSH2 0x5904 JUMP JUMPDEST DUP1 PUSH1 0x1F ADD PUSH1 0x20 DUP1 SWAP2 DIV MUL PUSH1 0x20 ADD PUSH1 0x40 MLOAD SWAP1 DUP2 ADD PUSH1 0x40 MSTORE DUP1 SWAP3 SWAP2 SWAP1 DUP2 DUP2 MSTORE PUSH1 0x20 ADD DUP3 DUP1 SLOAD PUSH2 0xD3D SWAP1 PUSH2 0x5904 JUMP JUMPDEST DUP1 ISZERO PUSH2 0xD8A JUMPI DUP1 PUSH1 0x1F LT PUSH2 0xD5F JUMPI PUSH2 0x100 DUP1 DUP4 SLOAD DIV MUL DUP4 MSTORE SWAP2 PUSH1 0x20 ADD SWAP2 PUSH2 0xD8A JUMP JUMPDEST DUP3 ADD SWAP2 SWAP1 PUSH1 0x0 MSTORE PUSH1 0x20 PUSH1 0x0 KECCAK256 SWAP1 JUMPDEST DUP2 SLOAD DUP2 MSTORE SWAP1 PUSH1 0x1 ADD SWAP1 PUSH1 0x20 ADD DUP1 DUP4 GT PUSH2 0xD6D JUMPI DUP3 SWAP1 SUB PUSH1 0x1F AND DUP3 ADD SWAP2 JUMPDEST POP POP POP POP POP DUP2 MSTORE PUSH1 0x20 ADD PUSH1 0x6 DUP3 ADD DUP1 SLOAD PUSH2 0xDA3 SWAP1 PUSH2 0x5904 JUMP JUMPDEST DUP1 PUSH1 0x1F ADD PUSH1 0x20 DUP1 SWAP2 DIV MUL PUSH1 0x20 ADD PUSH1 0x40 MLOAD SWAP1 DUP2 ADD PUSH1 0x40 MSTORE DUP1 SWAP3 SWAP2 SWAP1 DUP2 DUP2 MSTORE PUSH1 0x20 ADD DUP3 DUP1 SLOAD PUSH2 0xDCF SWAP1 PUSH2 0x5904 JUMP JUMPDEST DUP1 ISZERO PUSH2 0xE1C JUMPI DUP1 PUSH1 0x1F LT PUSH2 0xDF1 JUMPI PUSH2 0x100 DUP1 DUP4 SLOAD DIV MUL DUP4 MSTORE SWAP2 PUSH1 0x20 ADD SWAP2 PUSH2 0xE1C JUMP JUMPDEST DUP3 ADD SWAP2 SWAP1 PUSH1 0x0 MSTORE PUSH1 0x20 PUSH1 0x0 KECCAK256 SWAP1 JUMPDEST DUP2 SLOAD DUP2 MSTORE SWAP1 PUSH1 0x1 ADD SWAP1 PUSH1 0x20 ADD DUP1 DUP4 GT PUSH2 0xDFF JUMPI DUP3 SWAP1 SUB PUSH1 0x1F AND DUP3 ADD SWAP2 JUMPDEST POP POP POP POP POP DUP2 MSTORE PUSH1 0x20 ADD PUSH1 0x7 DUP3 ADD DUP1 SLOAD PUSH2 0xE35 SWAP1 PUSH2 0x5904 JUMP JUMPDEST DUP1 PUSH1 0x1F ADD PUSH1 0x20 DUP1 SWAP2 DIV MUL PUSH1 0x20 ADD PUSH1 0x40 MLOAD SWAP1 DUP2 ADD PUSH1 0x40 MSTORE DUP1 SWAP3 SWAP2 SWAP1 DUP2 DUP2 MSTORE PUSH1 0x20 ADD DUP3 DUP1 SLOAD PUSH2 0xE61 SWAP1 PUSH2 0x5904 JUMP JUMPDEST DUP1 ISZERO PUSH2 0xEAE JUMPI DUP1 PUSH1 0x1F LT PUSH2 0xE83 JUMPI PUSH2 0x100 DUP1 DUP4 SLOAD DIV MUL DUP4 MSTORE SWAP2 PUSH1 0x20 ADD SWAP2 PUSH2 0xEAE JUMP JUMPDEST DUP3 ADD SWAP2 SWAP1 PUSH1 0x0 MSTORE PUSH1 0x20 PUSH1 0x0 KECCAK256 SWAP1 JUMPDEST DUP2 SLOAD DUP2 MSTORE SWAP1 PUSH1 0x1 ADD SWAP1 PUSH1 0x20 ADD DUP1 DUP4 GT PUSH2 0xE91 JUMPI DUP3 SWAP1 SUB PUSH1 0x1F AND DUP3 ADD SWAP2 JUMPDEST POP POP POP POP POP DUP2 MSTORE PUSH1 0x20 ADD PUSH1 0x8 DUP3 ADD DUP1 SLOAD PUSH2 0xEC7 SWAP1 PUSH2 0x5904 JUMP JUMPDEST DUP1 PUSH1 0x1F ADD PUSH1 0x20 DUP1 SWAP2 DIV MUL PUSH1 0x20 ADD PUSH1 0x40 MLOAD SWAP1 DUP2 ADD PUSH1 0x40 MSTORE DUP1 SWAP3 SWAP2 SWAP1 DUP2 DUP2 MSTORE PUSH1 0x20 ADD DUP3 DUP1 SLOAD PUSH2 0xEF3 SWAP1 PUSH2 0x5904 JUMP JUMPDEST DUP1 ISZERO PUSH2 0xF40 JUMPI DUP1 PUSH1 0x1F LT PUSH2 0xF15 JUMPI PUSH2 0x100 DUP1 DUP4 SLOAD DIV MUL DUP4 MSTORE SWAP2 PUSH1 0x20 ADD SWAP2 PUSH2 0xF40 JUMP JUMPDEST DUP3 ADD SWAP2 SWAP1 PUSH1 0x0 MSTORE PUSH1 0x20 PUSH1 0x0 KECCAK256 SWAP1 JUMPDEST DUP2 SLOAD DUP2 MSTORE SWAP1 PUSH1 0x1 ADD SWAP1 PUSH1 0x20 ADD DUP1 DUP4 GT PUSH2 0xF23 JUMPI DUP3 SWAP1 SUB PUSH1 0x1F AND DUP3 ADD SWAP2 JUMPDEST POP POP POP POP POP DUP2 MSTORE PUSH1 0x20 ADD PUSH1 0x9 DUP3 ADD DUP1 SLOAD PUSH2 0xF59 SWAP1 PUSH2 0x5904 JUMP JUMPDEST DUP1 PUSH1 0x1F ADD PUSH1 0x20 DUP1 SWAP2 DIV MUL PUSH1 0x20 ADD PUSH1 0x40 MLOAD SWAP1 DUP2 ADD PUSH1 0x40 MSTORE DUP1 SWAP3 SWAP2 SWAP1 DUP2 DUP2 MSTORE PUSH1 0x20 ADD DUP3 DUP1 SLOAD PUSH2 0xF85 SWAP1 PUSH2 0x5904 JUMP JUMPDEST DUP1 ISZERO PUSH2 0xFD2 JUMPI DUP1 PUSH1 0x1F LT PUSH2 0xFA7 JUMPI PUSH2 0x100 DUP1 DUP4 SLOAD DIV MUL DUP4 MSTORE SWAP2 PUSH1 0x20 ADD SWAP2 PUSH2 0xFD2 JUMP JUMPDEST DUP3 ADD SWAP2 SWAP1 PUSH1 0x0 MSTORE PUSH1 0x20 PUSH1 0x0 KECCAK256 SWAP1 JUMPDEST DUP2 SLOAD DUP2 MSTORE SWAP1 PUSH1 0x1 ADD SWAP1 PUSH1 0x20 ADD DUP1 DUP4 GT PUSH2 0xFB5 JUMPI DUP3 SWAP1 SUB PUSH1 0x1F AND DUP3 ADD SWAP2 JUMPDEST POP POP POP POP POP DUP2 MSTORE PUSH1 0x20 ADD PUSH1 0xA DUP3 ADD DUP1 SLOAD PUSH2 0xFEB SWAP1 PUSH2 0x5904 JUMP JUMPDEST DUP1 PUSH1 0x1F ADD PUSH1 0x20 DUP1 SWAP2 DIV MUL PUSH1 0x20 ADD PUSH1 0x40 MLOAD SWAP1 DUP2 ADD PUSH1 0x40 MSTORE DUP1 SWAP3 SWAP2 SWAP1 DUP2 DUP2 MSTORE PUSH1 0x20 ADD DUP3 DUP1 SLOAD PUSH2 0x1017 SWAP1 PUSH2 0x5904 JUMP JUMPDEST DUP1 ISZERO PUSH2 0x1064 JUMPI DUP1 PUSH1 0x1F LT PUSH2 0x1039 JUMPI PUSH2 0x100 DUP1 DUP4 SLOAD DIV MUL DUP4 MSTORE SWAP2 PUSH1 0x20 ADD SWAP2 PUSH2 0x1064 JUMP JUMPDEST DUP3 ADD SWAP2 SWAP1 PUSH1 0x0 MSTORE PUSH1 0x20 PUSH1 0x0 KECCAK256 SWAP1 JUMPDEST DUP2 SLOAD DUP2 MSTORE SWAP1 PUSH1 0x1 ADD SWAP1 PUSH1 0x20 ADD DUP1 DUP4 GT PUSH2 0x1047 JUMPI DUP3 SWAP1 SUB PUSH1 0x1F AND DUP3 ADD SWAP2 JUMPDEST POP POP POP POP POP DUP2 MSTORE PUSH1 0x20 ADD PUSH1 0xB DUP3 ADD DUP1 SLOAD PUSH2 0x107D SWAP1 PUSH2 0x5904 JUMP JUMPDEST DUP1 PUSH1 0x1F ADD PUSH1 0x20 DUP1 SWAP2 DIV MUL PUSH1 0x20 ADD PUSH1 0x40 MLOAD SWAP1 DUP2 ADD PUSH1 0x40 MSTORE DUP1 SWAP3 SWAP2 SWAP1 DUP2 DUP2 MSTORE PUSH1 0x20 ADD DUP3 DUP1 SLOAD PUSH2 0x10A9 SWAP1 PUSH2 0x5904 JUMP JUMPDEST DUP1 ISZERO PUSH2 0x10F6 JUMPI DUP1 PUSH1 0x1F LT PUSH2 0x10CB JUMPI PUSH2 0x100 DUP1 DUP4 SLOAD DIV MUL DUP4 MSTORE SWAP2 PUSH1 0x20 ADD SWAP2 PUSH2 0x10F6 JUMP JUMPDEST DUP3 ADD SWAP2 SWAP1 PUSH1 0x0 MSTORE PUSH1 0x20 PUSH1 0x0 KECCAK256 SWAP1 JUMPDEST DUP2 SLOAD DUP2 MSTORE SWAP1 PUSH1 0x1 ADD SWAP1 PUSH1 0x20 ADD DUP1 DUP4 GT PUSH2 0x10D9 JUMPI DUP3 SWAP1 SUB PUSH1 0x1F AND DUP3 ADD SWAP2 JUMPDEST POP POP POP POP POP DUP2 MSTORE POP POP SWAP1 POP DUP1 PUSH1 0xC0 ADD MLOAD MLOAD PUSH1 0x0 EQ ISZERO DUP1 ISZERO PUSH2 0x111B JUMPI POP PUSH1 0xE0 DUP2 ADD MLOAD MLOAD ISZERO ISZERO JUMPDEST DUP1 ISZERO PUSH2 0x1128 JUMPI POP DUP1 MLOAD MLOAD ISZERO ISZERO JUMPDEST DUP1 ISZERO PUSH2 0x1138 JUMPI POP PUSH1 0x20 DUP2 ADD MLOAD MLOAD ISZERO ISZERO JUMPDEST DUP1 ISZERO PUSH2 0x1148 JUMPI POP PUSH1 0x40 DUP2 ADD MLOAD MLOAD ISZERO ISZERO JUMPDEST DUP1 ISZERO PUSH2 0x1158 JUMPI POP PUSH1 0x60 DUP2 ADD MLOAD MLOAD ISZERO ISZERO JUMPDEST DUP1 ISZERO PUSH2 0x1168 JUMPI POP PUSH1 0x80 DUP2 ADD MLOAD MLOAD ISZERO ISZERO JUMPDEST DUP1 ISZERO PUSH2 0x1178 JUMPI POP PUSH1 0xA0 DUP2 ADD MLOAD MLOAD ISZERO ISZERO JUMPDEST DUP1 ISZERO PUSH2 0x1189 JUMPI POP PUSH2 0x100 DUP2 ADD MLOAD MLOAD ISZERO ISZERO JUMPDEST ISZERO PUSH2 0x1198 JUMPI PUSH1 0x1 SWAP4 POP POP POP POP SWAP1 JUMP JUMPDEST POP DUP1 PUSH2 0x11A3 DUP2 PUSH2 0x593F JUMP JUMPDEST SWAP2 POP POP PUSH2 0x9F0 JUMP JUMPDEST POP PUSH1 0x0 SWAP2 POP POP SWAP1 JUMP JUMPDEST PUSH1 0x0 PUSH1 0xA DUP1 SLOAD SWAP1 PUSH2 0x100 EXP SWAP1 DIV PUSH1 0x1 PUSH1 0x1 PUSH1 0xA0 SHL SUB AND PUSH1 0x1 PUSH1 0x1 PUSH1 0xA0 SHL SUB AND PUSH4 0x8E15F473 PUSH1 0x40 MLOAD DUP2 PUSH4 0xFFFFFFFF AND PUSH1 0xE0 SHL DUP2 MSTORE PUSH1 0x4 ADD PUSH1 0x20 PUSH1 0x40 MLOAD DUP1 DUP4 SUB DUP2 DUP7 DUP1 EXTCODESIZE ISZERO DUP1 ISZERO PUSH2 0x1202 JUMPI PUSH1 0x0 DUP1 REVERT JUMPDEST POP GAS STATICCALL ISZERO DUP1 ISZERO PUSH2 0x1216 JUMPI RETURNDATASIZE PUSH1 0x0 DUP1 RETURNDATACOPY RETURNDATASIZE PUSH1 0x0 REVERT JUMPDEST POP POP POP POP PUSH1 0x40 MLOAD RETURNDATASIZE PUSH1 0x1F NOT PUSH1 0x1F DUP3 ADD AND DUP3 ADD DUP1 PUSH1 0x40 MSTORE POP DUP2 ADD SWAP1 PUSH2 0x123A SWAP2 SWAP1 PUSH2 0x4E9E JUMP JUMPDEST SWAP1 POP SWAP1 JUMP JUMPDEST PUSH1 0x0 DUP2 DUP2 MSTORE PUSH1 0x12 PUSH1 0x20 SWAP1 DUP2 MSTORE PUSH1 0x40 DUP1 DUP4 KECCAK256 PUSH1 0x2 DUP2 ADD SLOAD PUSH1 0x1 DUP3 ADD SLOAD CALLER DUP7 MSTORE PUSH1 0x13 SWAP1 SWAP5 MSTORE SWAP2 DUP5 KECCAK256 DUP1 SLOAD SWAP2 SWAP4 SWAP2 DUP6 SWAP2 SWAP1 DUP4 SWAP1 DUP2 LT PUSH2 0x127D JUMPI PUSH2 0x127D PUSH2 0x59B0 JUMP JUMPDEST PUSH1 0x0 SWAP2 DUP3 MSTORE PUSH1 0x20 DUP1 DUP4 KECCAK256 CALLER DUP5 MSTORE PUSH1 0x11 DUP3 MSTORE PUSH1 0x40 DUP1 DUP6 KECCAK256 DUP8 DUP7 MSTORE SWAP1 SWAP3 MSTORE SWAP1 DUP4 KECCAK256 SLOAD PUSH1 0xC SWAP3 SWAP1 SWAP3 MUL ADD SWAP3 POP PUSH1 0xFF AND PUSH1 0x2 DUP2 GT ISZERO PUSH2 0x12BA JUMPI PUSH2 0x12BA PUSH2 0x599A JUMP JUMPDEST EQ PUSH2 0x1307 JUMPI PUSH1 0x40 MLOAD PUSH3 0x461BCD PUSH1 0xE5 SHL DUP2 MSTORE PUSH1 0x20 PUSH1 0x4 DUP3 ADD MSTORE PUSH1 0x15 PUSH1 0x24 DUP3 ADD MSTORE PUSH32 0x506F6C696379206973206E6F742070656E64696E670000000000000000000000 PUSH1 0x44 DUP3 ADD MSTORE PUSH1 0x64 ADD PUSH2 0x9E4 JUMP JUMPDEST PUSH1 0x0 PUSH2 0x1311 PUSH2 0x3BC2 JUMP JUMPDEST SWAP1 POP PUSH1 0x0 DUP2 PUSH2 0x1324 DUP7 PUSH4 0x5F5E100 PUSH2 0x58A2 JUMP JUMPDEST PUSH2 0x132E SWAP2 SWAP1 PUSH2 0x57A3 JUMP JUMPDEST SWAP1 POP DUP1 CALLVALUE LT ISZERO PUSH2 0x1380 JUMPI PUSH1 0x40 MLOAD PUSH3 0x461BCD PUSH1 0xE5 SHL DUP2 MSTORE PUSH1 0x20 PUSH1 0x4 DUP3 ADD MSTORE PUSH1 0x15 PUSH1 0x24 DUP3 ADD MSTORE PUSH32 0x4E6F7420656E6F756768204D617469632073656E740000000000000000000000 PUSH1 0x44 DUP3 ADD MSTORE PUSH1 0x64 ADD PUSH2 0x9E4 JUMP JUMPDEST CALLER PUSH1 0x0 DUP2 DUP2 MSTORE PUSH1 0x11 PUSH1 0x20 SWAP1 DUP2 MSTORE PUSH1 0x40 DUP1 DUP4 KECCAK256 DUP9 DUP5 MSTORE DUP3 MSTORE SWAP2 DUP3 SWAP1 KECCAK256 DUP1 SLOAD PUSH1 0xFF NOT AND PUSH1 0x1 OR SWAP1 SSTORE DUP2 MLOAD SWAP3 DUP4 MSTORE DUP3 ADD DUP7 SWAP1 MSTORE PUSH32 0x153598A6C97963BD4D16E97786943EB68BCC8CA58077614327E965EFE69FA110 SWAP2 ADD PUSH1 0x40 MLOAD DUP1 SWAP2 SUB SWAP1 LOG1 POP POP POP POP POP POP SWAP2 SWAP1 POP JUMP JUMPDEST PUSH1 0x0 DUP4 DUP2 MSTORE PUSH1 0x1 PUSH1 0x20 MSTORE PUSH1 0x40 SWAP1 KECCAK256 SLOAD DUP4 SWAP1 PUSH1 0x1 PUSH1 0x1 PUSH1 0xA0 SHL SUB AND CALLER EQ PUSH2 0x1438 JUMPI PUSH1 0x40 MLOAD PUSH32 0xA0C5EC6300000000000000000000000000000000000000000000000000000000 DUP2 MSTORE PUSH1 0x4 ADD PUSH1 0x40 MLOAD DUP1 SWAP2 SUB SWAP1 REVERT JUMPDEST PUSH1 0x0 DUP2 DUP2 MSTORE PUSH1 0x1 PUSH1 0x20 MSTORE PUSH1 0x40 DUP1 DUP3 KECCAK256 DUP1 SLOAD PUSH1 0x1 PUSH1 0x1 PUSH1 0xA0 SHL SUB NOT AND SWAP1 SSTORE MLOAD DUP3 SWAP2 PUSH32 0x85E1543BF2F84FE80C6BADBCE3648C8539AD1DF4D2B3D822938CA0538BE727E6 SWAP2 LOG2 PUSH2 0x1486 DUP5 DUP5 DUP5 PUSH2 0x3D79 JUMP JUMPDEST POP POP POP POP JUMP JUMPDEST CALLER PUSH1 0x1 PUSH1 0x1 PUSH1 0xA0 SHL SUB PUSH32 0x0 AND EQ PUSH2 0x151F JUMPI PUSH1 0x40 MLOAD PUSH32 0x1CF993F400000000000000000000000000000000000000000000000000000000 DUP2 MSTORE CALLER PUSH1 0x4 DUP3 ADD MSTORE PUSH1 0x1 PUSH1 0x1 PUSH1 0xA0 SHL SUB PUSH32 0x0 AND PUSH1 0x24 DUP3 ADD MSTORE PUSH1 0x44 ADD PUSH2 0x9E4 JUMP JUMPDEST PUSH2 0x1529 DUP3 DUP3 PUSH2 0x3E5A JUMP JUMPDEST POP POP JUMP JUMPDEST PUSH2 0x155A PUSH1 0x40 MLOAD DUP1 PUSH1 0x60 ADD PUSH1 0x40 MSTORE DUP1 PUSH1 0x0 PUSH1 0x1 PUSH1 0x1 PUSH1 0xA0 SHL SUB AND DUP2 MSTORE PUSH1 0x20 ADD PUSH1 0x0 DUP2 MSTORE PUSH1 0x20 ADD PUSH1 0x0 DUP2 MSTORE POP SWAP1 JUMP JUMPDEST PUSH1 0x0 DUP3 DUP2 MSTORE PUSH1 0x12 PUSH1 0x20 MSTORE PUSH1 0x40 SWAP1 KECCAK256 SLOAD PUSH1 0x1 PUSH1 0x1 PUSH1 0xA0 SHL SUB AND PUSH2 0x15E4 JUMPI PUSH1 0x40 MLOAD PUSH3 0x461BCD PUSH1 0xE5 SHL DUP2 MSTORE PUSH1 0x20 PUSH1 0x4 DUP3 ADD MSTORE PUSH1 0x25 PUSH1 0x24 DUP3 ADD MSTORE PUSH32 0x4E6F206461746120666F756E6420666F722074686520676976656E2072657175 PUSH1 0x44 DUP3 ADD MSTORE PUSH32 0x6573744964000000000000000000000000000000000000000000000000000000 PUSH1 0x64 DUP3 ADD MSTORE PUSH1 0x84 ADD PUSH2 0x9E4 JUMP JUMPDEST POP PUSH1 0x0 SWAP1 DUP2 MSTORE PUSH1 0x12 PUSH1 0x20 SWAP1 DUP2 MSTORE PUSH1 0x40 SWAP2 DUP3 SWAP1 KECCAK256 DUP3 MLOAD PUSH1 0x60 DUP2 ADD DUP5 MSTORE DUP2 SLOAD PUSH1 0x1 PUSH1 0x1 PUSH1 0xA0 SHL SUB AND DUP2 MSTORE PUSH1 0x1 DUP3 ADD SLOAD SWAP3 DUP2 ADD SWAP3 SWAP1 SWAP3 MSTORE PUSH1 0x2 ADD SLOAD SWAP2 DUP2 ADD SWAP2 SWAP1 SWAP2 MSTORE SWAP1 JUMP JUMPDEST PUSH2 0x162E PUSH2 0x3F20 JUMP JUMPDEST PUSH2 0x1529 DUP3 DUP3 PUSH2 0x3F7C JUMP JUMPDEST PUSH2 0x169C PUSH1 0x40 MLOAD DUP1 PUSH2 0x180 ADD PUSH1 0x40 MSTORE DUP1 PUSH1 0x60 DUP2 MSTORE PUSH1 0x20 ADD PUSH1 0x60 DUP2 MSTORE PUSH1 0x20 ADD PUSH1 0x60 DUP2 MSTORE PUSH1 0x20 ADD PUSH1 0x60 DUP2 MSTORE PUSH1 0x20 ADD PUSH1 0x60 DUP2 MSTORE PUSH1 0x20 ADD PUSH1 0x60 DUP2 MSTORE PUSH1 0x20 ADD PUSH1 0x60 DUP2 MSTORE PUSH1 0x20 ADD PUSH1 0x60 DUP2 MSTORE PUSH1 0x20 ADD PUSH1 0x60 DUP2 MSTORE PUSH1 0x20 ADD PUSH1 0x60 DUP2 MSTORE PUSH1 0x20 ADD PUSH1 0x60 DUP2 MSTORE PUSH1 0x20 ADD PUSH1 0x60 DUP2 MSTORE POP SWAP1 JUMP JUMPDEST PUSH1 0x1 PUSH1 0x1 PUSH1 0xA0 SHL SUB DUP4 AND PUSH1 0x0 SWAP1 DUP2 MSTORE PUSH1 0x13 PUSH1 0x20 MSTORE PUSH1 0x40 SWAP1 KECCAK256 DUP1 SLOAD DUP4 SWAP1 DUP2 LT PUSH2 0x16C6 JUMPI PUSH2 0x16C6 PUSH2 0x59B0 JUMP JUMPDEST SWAP1 PUSH1 0x0 MSTORE PUSH1 0x20 PUSH1 0x0 KECCAK256 SWAP1 PUSH1 0xC MUL ADD PUSH1 0x40 MLOAD DUP1 PUSH2 0x180 ADD PUSH1 0x40 MSTORE SWAP1 DUP2 PUSH1 0x0 DUP3 ADD DUP1 SLOAD PUSH2 0x16F0 SWAP1 PUSH2 0x5904 JUMP JUMPDEST DUP1 PUSH1 0x1F ADD PUSH1 0x20 DUP1 SWAP2 DIV MUL PUSH1 0x20 ADD PUSH1 0x40 MLOAD SWAP1 DUP2 ADD PUSH1 0x40 MSTORE DUP1 SWAP3 SWAP2 SWAP1 DUP2 DUP2 MSTORE PUSH1 0x20 ADD DUP3 DUP1 SLOAD PUSH2 0x171C SWAP1 PUSH2 0x5904 JUMP JUMPDEST DUP1 ISZERO PUSH2 0x1769 JUMPI DUP1 PUSH1 0x1F LT PUSH2 0x173E JUMPI PUSH2 0x100 DUP1 DUP4 SLOAD DIV MUL DUP4 MSTORE SWAP2 PUSH1 0x20 ADD SWAP2 PUSH2 0x1769 JUMP JUMPDEST DUP3 ADD SWAP2 SWAP1 PUSH1 0x0 MSTORE PUSH1 0x20 PUSH1 0x0 KECCAK256 SWAP1 JUMPDEST DUP2 SLOAD DUP2 MSTORE SWAP1 PUSH1 0x1 ADD SWAP1 PUSH1 0x20 ADD DUP1 DUP4 GT PUSH2 0x174C JUMPI DUP3 SWAP1 SUB PUSH1 0x1F AND DUP3 ADD SWAP2 JUMPDEST POP POP POP POP POP DUP2 MSTORE PUSH1 0x20 ADD PUSH1 0x1 DUP3 ADD DUP1 SLOAD PUSH2 0x1782 SWAP1 PUSH2 0x5904 JUMP JUMPDEST DUP1 PUSH1 0x1F ADD PUSH1 0x20 DUP1 SWAP2 DIV MUL PUSH1 0x20 ADD PUSH1 0x40 MLOAD SWAP1 DUP2 ADD PUSH1 0x40 MSTORE DUP1 SWAP3 SWAP2 SWAP1 DUP2 DUP2 MSTORE PUSH1 0x20 ADD DUP3 DUP1 SLOAD PUSH2 0x17AE SWAP1 PUSH2 0x5904 JUMP JUMPDEST DUP1 ISZERO PUSH2 0x17FB JUMPI DUP1 PUSH1 0x1F LT PUSH2 0x17D0 JUMPI PUSH2 0x100 DUP1 DUP4 SLOAD DIV MUL DUP4 MSTORE SWAP2 PUSH1 0x20 ADD SWAP2 PUSH2 0x17FB JUMP JUMPDEST DUP3 ADD SWAP2 SWAP1 PUSH1 0x0 MSTORE PUSH1 0x20 PUSH1 0x0 KECCAK256 SWAP1 JUMPDEST DUP2 SLOAD DUP2 MSTORE SWAP1 PUSH1 0x1 ADD SWAP1 PUSH1 0x20 ADD DUP1 DUP4 GT PUSH2 0x17DE JUMPI DUP3 SWAP1 SUB PUSH1 0x1F AND DUP3 ADD SWAP2 JUMPDEST POP POP POP POP POP DUP2 MSTORE PUSH1 0x20 ADD PUSH1 0x2 DUP3 ADD DUP1 SLOAD PUSH2 0x1814 SWAP1 PUSH2 0x5904 JUMP JUMPDEST DUP1 PUSH1 0x1F ADD PUSH1 0x20 DUP1 SWAP2 DIV MUL PUSH1 0x20 ADD PUSH1 0x40 MLOAD SWAP1 DUP2 ADD PUSH1 0x40 MSTORE DUP1 SWAP3 SWAP2 SWAP1 DUP2 DUP2 MSTORE PUSH1 0x20 ADD DUP3 DUP1 SLOAD PUSH2 0x1840 SWAP1 PUSH2 0x5904 JUMP JUMPDEST DUP1 ISZERO PUSH2 0x188D JUMPI DUP1 PUSH1 0x1F LT PUSH2 0x1862 JUMPI PUSH2 0x100 DUP1 DUP4 SLOAD DIV MUL DUP4 MSTORE SWAP2 PUSH1 0x20 ADD SWAP2 PUSH2 0x188D JUMP JUMPDEST DUP3 ADD SWAP2 SWAP1 PUSH1 0x0 MSTORE PUSH1 0x20 PUSH1 0x0 KECCAK256 SWAP1 JUMPDEST DUP2 SLOAD DUP2 MSTORE SWAP1 PUSH1 0x1 ADD SWAP1 PUSH1 0x20 ADD DUP1 DUP4 GT PUSH2 0x1870 JUMPI DUP3 SWAP1 SUB PUSH1 0x1F AND DUP3 ADD SWAP2 JUMPDEST POP POP POP POP POP DUP2 MSTORE PUSH1 0x20 ADD PUSH1 0x3 DUP3 ADD DUP1 SLOAD PUSH2 0x18A6 SWAP1 PUSH2 0x5904 JUMP JUMPDEST DUP1 PUSH1 0x1F ADD PUSH1 0x20 DUP1 SWAP2 DIV MUL PUSH1 0x20 ADD PUSH1 0x40 MLOAD SWAP1 DUP2 ADD PUSH1 0x40 MSTORE DUP1 SWAP3 SWAP2 SWAP1 DUP2 DUP2 MSTORE PUSH1 0x20 ADD DUP3 DUP1 SLOAD PUSH2 0x18D2 SWAP1 PUSH2 0x5904 JUMP JUMPDEST DUP1 ISZERO PUSH2 0x191F JUMPI DUP1 PUSH1 0x1F LT PUSH2 0x18F4 JUMPI PUSH2 0x100 DUP1 DUP4 SLOAD DIV MUL DUP4 MSTORE SWAP2 PUSH1 0x20 ADD SWAP2 PUSH2 0x191F JUMP JUMPDEST DUP3 ADD SWAP2 SWAP1 PUSH1 0x0 MSTORE PUSH1 0x20 PUSH1 0x0 KECCAK256 SWAP1 JUMPDEST DUP2 SLOAD DUP2 MSTORE SWAP1 PUSH1 0x1 ADD SWAP1 PUSH1 0x20 ADD DUP1 DUP4 GT PUSH2 0x1902 JUMPI DUP3 SWAP1 SUB PUSH1 0x1F AND DUP3 ADD SWAP2 JUMPDEST POP POP POP POP POP DUP2 MSTORE PUSH1 0x20 ADD PUSH1 0x4 DUP3 ADD DUP1 SLOAD PUSH2 0x1938 SWAP1 PUSH2 0x5904 JUMP JUMPDEST DUP1 PUSH1 0x1F ADD PUSH1 0x20 DUP1 SWAP2 DIV MUL PUSH1 0x20 ADD PUSH1 0x40 MLOAD SWAP1 DUP2 ADD PUSH1 0x40 MSTORE DUP1 SWAP3 SWAP2 SWAP1 DUP2 DUP2 MSTORE PUSH1 0x20 ADD DUP3 DUP1 SLOAD PUSH2 0x1964 SWAP1 PUSH2 0x5904 JUMP JUMPDEST DUP1 ISZERO PUSH2 0x19B1 JUMPI DUP1 PUSH1 0x1F LT PUSH2 0x1986 JUMPI PUSH2 0x100 DUP1 DUP4 SLOAD DIV MUL DUP4 MSTORE SWAP2 PUSH1 0x20 ADD SWAP2 PUSH2 0x19B1 JUMP JUMPDEST DUP3 ADD SWAP2 SWAP1 PUSH1 0x0 MSTORE PUSH1 0x20 PUSH1 0x0 KECCAK256 SWAP1 JUMPDEST DUP2 SLOAD DUP2 MSTORE SWAP1 PUSH1 0x1 ADD SWAP1 PUSH1 0x20 ADD DUP1 DUP4 GT PUSH2 0x1994 JUMPI DUP3 SWAP1 SUB PUSH1 0x1F AND DUP3 ADD SWAP2 JUMPDEST POP POP POP POP POP DUP2 MSTORE PUSH1 0x20 ADD PUSH1 0x5 DUP3 ADD DUP1 SLOAD PUSH2 0x19CA SWAP1 PUSH2 0x5904 JUMP JUMPDEST DUP1 PUSH1 0x1F ADD PUSH1 0x20 DUP1 SWAP2 DIV MUL PUSH1 0x20 ADD PUSH1 0x40 MLOAD SWAP1 DUP2 ADD PUSH1 0x40 MSTORE DUP1 SWAP3 SWAP2 SWAP1 DUP2 DUP2 MSTORE PUSH1 0x20 ADD DUP3 DUP1 SLOAD PUSH2 0x19F6 SWAP1 PUSH2 0x5904 JUMP JUMPDEST DUP1 ISZERO PUSH2 0x1A43 JUMPI DUP1 PUSH1 0x1F LT PUSH2 0x1A18 JUMPI PUSH2 0x100 DUP1 DUP4 SLOAD DIV MUL DUP4 MSTORE SWAP2 PUSH1 0x20 ADD SWAP2 PUSH2 0x1A43 JUMP JUMPDEST DUP3 ADD SWAP2 SWAP1 PUSH1 0x0 MSTORE PUSH1 0x20 PUSH1 0x0 KECCAK256 SWAP1 JUMPDEST DUP2 SLOAD DUP2 MSTORE SWAP1 PUSH1 0x1 ADD SWAP1 PUSH1 0x20 ADD DUP1 DUP4 GT PUSH2 0x1A26 JUMPI DUP3 SWAP1 SUB PUSH1 0x1F AND DUP3 ADD SWAP2 JUMPDEST POP POP POP POP POP DUP2 MSTORE PUSH1 0x20 ADD PUSH1 0x6 DUP3 ADD DUP1 SLOAD PUSH2 0x1A5C SWAP1 PUSH2 0x5904 JUMP JUMPDEST DUP1 PUSH1 0x1F ADD PUSH1 0x20 DUP1 SWAP2 DIV MUL PUSH1 0x20 ADD PUSH1 0x40 MLOAD SWAP1 DUP2 ADD PUSH1 0x40 MSTORE DUP1 SWAP3 SWAP2 SWAP1 DUP2 DUP2 MSTORE PUSH1 0x20 ADD DUP3 DUP1 SLOAD PUSH2 0x1A88 SWAP1 PUSH2 0x5904 JUMP JUMPDEST DUP1 ISZERO PUSH2 0x1AD5 JUMPI DUP1 PUSH1 0x1F LT PUSH2 0x1AAA JUMPI PUSH2 0x100 DUP1 DUP4 SLOAD DIV MUL DUP4 MSTORE SWAP2 PUSH1 0x20 ADD SWAP2 PUSH2 0x1AD5 JUMP JUMPDEST DUP3 ADD SWAP2 SWAP1 PUSH1 0x0 MSTORE PUSH1 0x20 PUSH1 0x0 KECCAK256 SWAP1 JUMPDEST DUP2 SLOAD DUP2 MSTORE SWAP1 PUSH1 0x1 ADD SWAP1 PUSH1 0x20 ADD DUP1 DUP4 GT PUSH2 0x1AB8 JUMPI DUP3 SWAP1 SUB PUSH1 0x1F AND DUP3 ADD SWAP2 JUMPDEST POP POP POP POP POP DUP2 MSTORE PUSH1 0x20 ADD PUSH1 0x7 DUP3 ADD DUP1 SLOAD PUSH2 0x1AEE SWAP1 PUSH2 0x5904 JUMP JUMPDEST DUP1 PUSH1 0x1F ADD PUSH1 0x20 DUP1 SWAP2 DIV MUL PUSH1 0x20 ADD PUSH1 0x40 MLOAD SWAP1 DUP2 ADD PUSH1 0x40 MSTORE DUP1 SWAP3 SWAP2 SWAP1 DUP2 DUP2 MSTORE PUSH1 0x20 ADD DUP3 DUP1 SLOAD PUSH2 0x1B1A SWAP1 PUSH2 0x5904 JUMP JUMPDEST DUP1 ISZERO PUSH2 0x1B67 JUMPI DUP1 PUSH1 0x1F LT PUSH2 0x1B3C JUMPI PUSH2 0x100 DUP1 DUP4 SLOAD DIV MUL DUP4 MSTORE SWAP2 PUSH1 0x20 ADD SWAP2 PUSH2 0x1B67 JUMP JUMPDEST DUP3 ADD SWAP2 SWAP1 PUSH1 0x0 MSTORE PUSH1 0x20 PUSH1 0x0 KECCAK256 SWAP1 JUMPDEST DUP2 SLOAD DUP2 MSTORE SWAP1 PUSH1 0x1 ADD SWAP1 PUSH1 0x20 ADD DUP1 DUP4 GT PUSH2 0x1B4A JUMPI DUP3 SWAP1 SUB PUSH1 0x1F AND DUP3 ADD SWAP2 JUMPDEST POP POP POP POP POP DUP2 MSTORE PUSH1 0x20 ADD PUSH1 0x8 DUP3 ADD DUP1 SLOAD PUSH2 0x1B80 SWAP1 PUSH2 0x5904 JUMP JUMPDEST DUP1 PUSH1 0x1F ADD PUSH1 0x20 DUP1 SWAP2 DIV MUL PUSH1 0x20 ADD PUSH1 0x40 MLOAD SWAP1 DUP2 ADD PUSH1 0x40 MSTORE DUP1 SWAP3 SWAP2 SWAP1 DUP2 DUP2 MSTORE PUSH1 0x20 ADD DUP3 DUP1 SLOAD PUSH2 0x1BAC SWAP1 PUSH2 0x5904 JUMP JUMPDEST DUP1 ISZERO PUSH2 0x1BF9 JUMPI DUP1 PUSH1 0x1F LT PUSH2 0x1BCE JUMPI PUSH2 0x100 DUP1 DUP4 SLOAD DIV MUL DUP4 MSTORE SWAP2 PUSH1 0x20 ADD SWAP2 PUSH2 0x1BF9 JUMP JUMPDEST DUP3 ADD SWAP2 SWAP1 PUSH1 0x0 MSTORE PUSH1 0x20 PUSH1 0x0 KECCAK256 SWAP1 JUMPDEST DUP2 SLOAD DUP2 MSTORE SWAP1 PUSH1 0x1 ADD SWAP1 PUSH1 0x20 ADD DUP1 DUP4 GT PUSH2 0x1BDC JUMPI DUP3 SWAP1 SUB PUSH1 0x1F AND DUP3 ADD SWAP2 JUMPDEST POP POP POP POP POP DUP2 MSTORE PUSH1 0x20 ADD PUSH1 0x9 DUP3 ADD DUP1 SLOAD PUSH2 0x1C12 SWAP1 PUSH2 0x5904 JUMP JUMPDEST DUP1 PUSH1 0x1F ADD PUSH1 0x20 DUP1 SWAP2 DIV MUL PUSH1 0x20 ADD PUSH1 0x40 MLOAD SWAP1 DUP2 ADD PUSH1 0x40 MSTORE DUP1 SWAP3 SWAP2 SWAP1 DUP2 DUP2 MSTORE PUSH1 0x20 ADD DUP3 DUP1 SLOAD PUSH2 0x1C3E SWAP1 PUSH2 0x5904 JUMP JUMPDEST DUP1 ISZERO PUSH2 0x1C8B JUMPI DUP1 PUSH1 0x1F LT PUSH2 0x1C60 JUMPI PUSH2 0x100 DUP1 DUP4 SLOAD DIV MUL DUP4 MSTORE SWAP2 PUSH1 0x20 ADD SWAP2 PUSH2 0x1C8B JUMP JUMPDEST DUP3 ADD SWAP2 SWAP1 PUSH1 0x0 MSTORE PUSH1 0x20 PUSH1 0x0 KECCAK256 SWAP1 JUMPDEST DUP2 SLOAD DUP2 MSTORE SWAP1 PUSH1 0x1 ADD SWAP1 PUSH1 0x20 ADD DUP1 DUP4 GT PUSH2 0x1C6E JUMPI DUP3 SWAP1 SUB PUSH1 0x1F AND DUP3 ADD SWAP2 JUMPDEST POP POP POP POP POP DUP2 MSTORE PUSH1 0x20 ADD PUSH1 0xA DUP3 ADD DUP1 SLOAD PUSH2 0x1CA4 SWAP1 PUSH2 0x5904 JUMP JUMPDEST DUP1 PUSH1 0x1F ADD PUSH1 0x20 DUP1 SWAP2 DIV MUL PUSH1 0x20 ADD PUSH1 0x40 MLOAD SWAP1 DUP2 ADD PUSH1 0x40 MSTORE DUP1 SWAP3 SWAP2 SWAP1 DUP2 DUP2 MSTORE PUSH1 0x20 ADD DUP3 DUP1 SLOAD PUSH2 0x1CD0 SWAP1 PUSH2 0x5904 JUMP JUMPDEST DUP1 ISZERO PUSH2 0x1D1D JUMPI DUP1 PUSH1 0x1F LT PUSH2 0x1CF2 JUMPI PUSH2 0x100 DUP1 DUP4 SLOAD DIV MUL DUP4 MSTORE SWAP2 PUSH1 0x20 ADD SWAP2 PUSH2 0x1D1D JUMP JUMPDEST DUP3 ADD SWAP2 SWAP1 PUSH1 0x0 MSTORE PUSH1 0x20 PUSH1 0x0 KECCAK256 SWAP1 JUMPDEST DUP2 SLOAD DUP2 MSTORE SWAP1 PUSH1 0x1 ADD SWAP1 PUSH1 0x20 ADD DUP1 DUP4 GT PUSH2 0x1D00 JUMPI DUP3 SWAP1 SUB PUSH1 0x1F AND DUP3 ADD SWAP2 JUMPDEST POP POP POP POP POP DUP2 MSTORE PUSH1 0x20 ADD PUSH1 0xB DUP3 ADD DUP1 SLOAD PUSH2 0x1D36 SWAP1 PUSH2 0x5904 JUMP JUMPDEST DUP1 PUSH1 0x1F ADD PUSH1 0x20 DUP1 SWAP2 DIV MUL PUSH1 0x20 ADD PUSH1 0x40 MLOAD SWAP1 DUP2 ADD PUSH1 0x40 MSTORE DUP1 SWAP3 SWAP2 SWAP1 DUP2 DUP2 MSTORE PUSH1 0x20 ADD DUP3 DUP1 SLOAD PUSH2 0x1D62 SWAP1 PUSH2 0x5904 JUMP JUMPDEST DUP1 ISZERO PUSH2 0x1DAF JUMPI DUP1 PUSH1 0x1F LT PUSH2 0x1D84 JUMPI PUSH2 0x100 DUP1 DUP4 SLOAD DIV MUL DUP4 MSTORE SWAP2 PUSH1 0x20 ADD SWAP2 PUSH2 0x1DAF JUMP JUMPDEST DUP3 ADD SWAP2 SWAP1 PUSH1 0x0 MSTORE PUSH1 0x20 PUSH1 0x0 KECCAK256 SWAP1 JUMPDEST DUP2 SLOAD DUP2 MSTORE SWAP1 PUSH1 0x1 ADD SWAP1 PUSH1 0x20 ADD DUP1 DUP4 GT PUSH2 0x1D92 JUMPI DUP3 SWAP1 SUB PUSH1 0x1F AND DUP3 ADD SWAP2 JUMPDEST POP POP POP POP POP DUP2 MSTORE POP POP SWAP1 POP JUMPDEST SWAP3 SWAP2 POP POP JUMP JUMPDEST PUSH1 0x0 PUSH1 0xB DUP5 EQ PUSH2 0x1E13 JUMPI PUSH1 0x40 MLOAD PUSH3 0x461BCD PUSH1 0xE5 SHL DUP2 MSTORE PUSH1 0x20 PUSH1 0x4 DUP3 ADD MSTORE PUSH1 0x1B PUSH1 0x24 DUP3 ADD MSTORE PUSH32 0x496E76616C6964206E756D626572206F6620617267756D656E74730000000000 PUSH1 0x44 DUP3 ADD MSTORE PUSH1 0x64 ADD PUSH2 0x9E4 JUMP JUMPDEST CALLER PUSH1 0x0 SWAP1 DUP2 MSTORE PUSH1 0x13 PUSH1 0x20 MSTORE PUSH1 0x40 DUP2 KECCAK256 SWAP1 PUSH2 0x1E2C TIMESTAMP PUSH2 0x3FFC JUMP JUMPDEST SWAP1 POP DUP2 PUSH1 0x40 MLOAD DUP1 PUSH2 0x180 ADD PUSH1 0x40 MSTORE DUP1 DUP10 DUP10 PUSH1 0x0 DUP2 DUP2 LT PUSH2 0x1E4E JUMPI PUSH2 0x1E4E PUSH2 0x59B0 JUMP JUMPDEST SWAP1 POP PUSH1 0x20 MUL DUP2 ADD SWAP1 PUSH2 0x1E60 SWAP2 SWAP1 PUSH2 0x569E JUMP JUMPDEST DUP1 DUP1 PUSH1 0x1F ADD PUSH1 0x20 DUP1 SWAP2 DIV MUL PUSH1 0x20 ADD PUSH1 0x40 MLOAD SWAP1 DUP2 ADD PUSH1 0x40 MSTORE DUP1 SWAP4 SWAP3 SWAP2 SWAP1 DUP2 DUP2 MSTORE PUSH1 0x20 ADD DUP4 DUP4 DUP1 DUP3 DUP5 CALLDATACOPY PUSH1 0x0 SWAP3 ADD SWAP2 SWAP1 SWAP2 MSTORE POP POP POP SWAP1 DUP3 MSTORE POP PUSH1 0x20 ADD DUP10 DUP10 PUSH1 0x1 DUP2 DUP2 LT PUSH2 0x1EAD JUMPI PUSH2 0x1EAD PUSH2 0x59B0 JUMP JUMPDEST SWAP1 POP PUSH1 0x20 MUL DUP2 ADD SWAP1 PUSH2 0x1EBF SWAP2 SWAP1 PUSH2 0x569E JUMP JUMPDEST DUP1 DUP1 PUSH1 0x1F ADD PUSH1 0x20 DUP1 SWAP2 DIV MUL PUSH1 0x20 ADD PUSH1 0x40 MLOAD SWAP1 DUP2 ADD PUSH1 0x40 MSTORE DUP1 SWAP4 SWAP3 SWAP2 SWAP1 DUP2 DUP2 MSTORE PUSH1 0x20 ADD DUP4 DUP4 DUP1 DUP3 DUP5 CALLDATACOPY PUSH1 0x0 SWAP3 ADD SWAP2 SWAP1 SWAP2 MSTORE POP POP POP SWAP1 DUP3 MSTORE POP PUSH1 0x20 ADD DUP10 DUP10 PUSH1 0x2 DUP2 DUP2 LT PUSH2 0x1F0C JUMPI PUSH2 0x1F0C PUSH2 0x59B0 JUMP JUMPDEST SWAP1 POP PUSH1 0x20 MUL DUP2 ADD SWAP1 PUSH2 0x1F1E SWAP2 SWAP1 PUSH2 0x569E JUMP JUMPDEST DUP1 DUP1 PUSH1 0x1F ADD PUSH1 0x20 DUP1 SWAP2 DIV MUL PUSH1 0x20 ADD PUSH1 0x40 MLOAD SWAP1 DUP2 ADD PUSH1 0x40 MSTORE DUP1 SWAP4 SWAP3 SWAP2 SWAP1 DUP2 DUP2 MSTORE PUSH1 0x20 ADD DUP4 DUP4 DUP1 DUP3 DUP5 CALLDATACOPY PUSH1 0x0 SWAP3 ADD SWAP2 SWAP1 SWAP2 MSTORE POP POP POP SWAP1 DUP3 MSTORE POP PUSH1 0x20 ADD DUP10 DUP10 PUSH1 0x3 DUP2 DUP2 LT PUSH2 0x1F6B JUMPI PUSH2 0x1F6B PUSH2 0x59B0 JUMP JUMPDEST SWAP1 POP PUSH1 0x20 MUL DUP2 ADD SWAP1 PUSH2 0x1F7D SWAP2 SWAP1 PUSH2 0x569E JUMP JUMPDEST DUP1 DUP1 PUSH1 0x1F ADD PUSH1 0x20 DUP1 SWAP2 DIV MUL PUSH1 0x20 ADD PUSH1 0x40 MLOAD SWAP1 DUP2 ADD PUSH1 0x40 MSTORE DUP1 SWAP4 SWAP3 SWAP2 SWAP1 DUP2 DUP2 MSTORE PUSH1 0x20 ADD DUP4 DUP4 DUP1 DUP3 DUP5 CALLDATACOPY PUSH1 0x0 SWAP3 ADD SWAP2 SWAP1 SWAP2 MSTORE POP POP POP SWAP1 DUP3 MSTORE POP PUSH1 0x20 ADD DUP10 DUP10 PUSH1 0x4 DUP2 DUP2 LT PUSH2 0x1FCA JUMPI PUSH2 0x1FCA PUSH2 0x59B0 JUMP JUMPDEST SWAP1 POP PUSH1 0x20 MUL DUP2 ADD SWAP1 PUSH2 0x1FDC SWAP2 SWAP1 PUSH2 0x569E JUMP JUMPDEST DUP1 DUP1 PUSH1 0x1F ADD PUSH1 0x20 DUP1 SWAP2 DIV MUL PUSH1 0x20 ADD PUSH1 0x40 MLOAD SWAP1 DUP2 ADD PUSH1 0x40 MSTORE DUP1 SWAP4 SWAP3 SWAP2 SWAP1 DUP2 DUP2 MSTORE PUSH1 0x20 ADD DUP4 DUP4 DUP1 DUP3 DUP5 CALLDATACOPY PUSH1 0x0 SWAP3 ADD SWAP2 SWAP1 SWAP2 MSTORE POP POP POP SWAP1 DUP3 MSTORE POP PUSH1 0x20 ADD DUP10 DUP10 PUSH1 0x5 DUP2 DUP2 LT PUSH2 0x2029 JUMPI PUSH2 0x2029 PUSH2 0x59B0 JUMP JUMPDEST SWAP1 POP PUSH1 0x20 MUL DUP2 ADD SWAP1 PUSH2 0x203B SWAP2 SWAP1 PUSH2 0x569E JUMP JUMPDEST DUP1 DUP1 PUSH1 0x1F ADD PUSH1 0x20 DUP1 SWAP2 DIV MUL PUSH1 0x20 ADD PUSH1 0x40 MLOAD SWAP1 DUP2 ADD PUSH1 0x40 MSTORE DUP1 SWAP4 SWAP3 SWAP2 SWAP1 DUP2 DUP2 MSTORE PUSH1 0x20 ADD DUP4 DUP4 DUP1 DUP3 DUP5 CALLDATACOPY PUSH1 0x0 SWAP3 ADD SWAP2 SWAP1 SWAP2 MSTORE POP POP POP SWAP1 DUP3 MSTORE POP PUSH1 0x20 ADD DUP10 DUP10 PUSH1 0x6 DUP2 DUP2 LT PUSH2 0x2088 JUMPI PUSH2 0x2088 PUSH2 0x59B0 JUMP JUMPDEST SWAP1 POP PUSH1 0x20 MUL DUP2 ADD SWAP1 PUSH2 0x209A SWAP2 SWAP1 PUSH2 0x569E JUMP JUMPDEST DUP1 DUP1 PUSH1 0x1F ADD PUSH1 0x20 DUP1 SWAP2 DIV MUL PUSH1 0x20 ADD PUSH1 0x40 MLOAD SWAP1 DUP2 ADD PUSH1 0x40 MSTORE DUP1 SWAP4 SWAP3 SWAP2 SWAP1 DUP2 DUP2 MSTORE PUSH1 0x20 ADD DUP4 DUP4 DUP1 DUP3 DUP5 CALLDATACOPY PUSH1 0x0 SWAP3 ADD SWAP2 SWAP1 SWAP2 MSTORE POP POP POP SWAP1 DUP3 MSTORE POP PUSH1 0x20 ADD DUP10 DUP10 PUSH1 0x7 DUP2 DUP2 LT PUSH2 0x20E7 JUMPI PUSH2 0x20E7 PUSH2 0x59B0 JUMP JUMPDEST SWAP1 POP PUSH1 0x20 MUL DUP2 ADD SWAP1 PUSH2 0x20F9 SWAP2 SWAP1 PUSH2 0x569E JUMP JUMPDEST DUP1 DUP1 PUSH1 0x1F ADD PUSH1 0x20 DUP1 SWAP2 DIV MUL PUSH1 0x20 ADD PUSH1 0x40 MLOAD SWAP1 DUP2 ADD PUSH1 0x40 MSTORE DUP1 SWAP4 SWAP3 SWAP2 SWAP1 DUP2 DUP2 MSTORE PUSH1 0x20 ADD DUP4 DUP4 DUP1 DUP3 DUP5 CALLDATACOPY PUSH1 0x0 SWAP3 ADD SWAP2 SWAP1 SWAP2 MSTORE POP POP POP SWAP1 DUP3 MSTORE POP PUSH1 0x20 ADD DUP10 DUP10 PUSH1 0x8 DUP2 DUP2 LT PUSH2 0x2146 JUMPI PUSH2 0x2146 PUSH2 0x59B0 JUMP JUMPDEST SWAP1 POP PUSH1 0x20 MUL DUP2 ADD SWAP1 PUSH2 0x2158 SWAP2 SWAP1 PUSH2 0x569E JUMP JUMPDEST DUP1 DUP1 PUSH1 0x1F ADD PUSH1 0x20 DUP1 SWAP2 DIV MUL PUSH1 0x20 ADD PUSH1 0x40 MLOAD SWAP1 DUP2 ADD PUSH1 0x40 MSTORE DUP1 SWAP4 SWAP3 SWAP2 SWAP1 DUP2 DUP2 MSTORE PUSH1 0x20 ADD DUP4 DUP4 DUP1 DUP3 DUP5 CALLDATACOPY PUSH1 0x0 SWAP3 ADD SWAP2 SWAP1 SWAP2 MSTORE POP POP POP SWAP1 DUP3 MSTORE POP PUSH1 0x20 ADD DUP10 DUP10 PUSH1 0x9 DUP2 DUP2 LT PUSH2 0x21A5 JUMPI PUSH2 0x21A5 PUSH2 0x59B0 JUMP JUMPDEST SWAP1 POP PUSH1 0x20 MUL DUP2 ADD SWAP1 PUSH2 0x21B7 SWAP2 SWAP1 PUSH2 0x569E JUMP JUMPDEST DUP1 DUP1 PUSH1 0x1F ADD PUSH1 0x20 DUP1 SWAP2 DIV MUL PUSH1 0x20 ADD PUSH1 0x40 MLOAD SWAP1 DUP2 ADD PUSH1 0x40 MSTORE DUP1 SWAP4 SWAP3 SWAP2 SWAP1 DUP2 DUP2 MSTORE PUSH1 0x20 ADD DUP4 DUP4 DUP1 DUP3 DUP5 CALLDATACOPY PUSH1 0x0 SWAP3 ADD SWAP2 SWAP1 SWAP2 MSTORE POP POP POP SWAP1 DUP3 MSTORE POP PUSH1 0x20 ADD DUP10 DUP10 PUSH1 0xA DUP2 DUP2 LT PUSH2 0x2204 JUMPI PUSH2 0x2204 PUSH2 0x59B0 JUMP JUMPDEST SWAP1 POP PUSH1 0x20 MUL DUP2 ADD SWAP1 PUSH2 0x2216 SWAP2 SWAP1 PUSH2 0x569E JUMP JUMPDEST DUP1 DUP1 PUSH1 0x1F ADD PUSH1 0x20 DUP1 SWAP2 DIV MUL PUSH1 0x20 ADD PUSH1 0x40 MLOAD SWAP1 DUP2 ADD PUSH1 0x40 MSTORE DUP1 SWAP4 SWAP3 SWAP2 SWAP1 DUP2 DUP2 MSTORE PUSH1 0x20 ADD DUP4 DUP4 DUP1 DUP3 DUP5 CALLDATACOPY PUSH1 0x0 SWAP3 ADD DUP3 SWAP1 MSTORE POP SWAP4 DUP6 MSTORE POP POP POP PUSH1 0x20 SWAP2 DUP3 ADD DUP6 SWAP1 MSTORE DUP4 SLOAD PUSH1 0x1 DUP2 ADD DUP6 SSTORE SWAP4 DUP2 MSTORE DUP2 SWAP1 KECCAK256 DUP3 MLOAD DUP1 MLOAD SWAP4 SWAP5 PUSH1 0xC MUL SWAP1 SWAP2 ADD SWAP3 PUSH2 0x227C SWAP3 DUP5 SWAP3 ADD SWAP1 PUSH2 0x4B94 JUMP JUMPDEST POP PUSH1 0x20 DUP3 DUP2 ADD MLOAD DUP1 MLOAD PUSH2 0x2295 SWAP3 PUSH1 0x1 DUP6 ADD SWAP3 ADD SWAP1 PUSH2 0x4B94 JUMP JUMPDEST POP PUSH1 0x40 DUP3 ADD MLOAD DUP1 MLOAD PUSH2 0x22B1 SWAP2 PUSH1 0x2 DUP5 ADD SWAP2 PUSH1 0x20 SWAP1 SWAP2 ADD SWAP1 PUSH2 0x4B94 JUMP JUMPDEST POP PUSH1 0x60 DUP3 ADD MLOAD DUP1 MLOAD PUSH2 0x22CD SWAP2 PUSH1 0x3 DUP5 ADD SWAP2 PUSH1 0x20 SWAP1 SWAP2 ADD SWAP1 PUSH2 0x4B94 JUMP JUMPDEST POP PUSH1 0x80 DUP3 ADD MLOAD DUP1 MLOAD PUSH2 0x22E9 SWAP2 PUSH1 0x4 DUP5 ADD SWAP2 PUSH1 0x20 SWAP1 SWAP2 ADD SWAP1 PUSH2 0x4B94 JUMP JUMPDEST POP PUSH1 0xA0 DUP3 ADD MLOAD DUP1 MLOAD PUSH2 0x2305 SWAP2 PUSH1 0x5 DUP5 ADD SWAP2 PUSH1 0x20 SWAP1 SWAP2 ADD SWAP1 PUSH2 0x4B94 JUMP JUMPDEST POP PUSH1 0xC0 DUP3 ADD MLOAD DUP1 MLOAD PUSH2 0x2321 SWAP2 PUSH1 0x6 DUP5 ADD SWAP2 PUSH1 0x20 SWAP1 SWAP2 ADD SWAP1 PUSH2 0x4B94 JUMP JUMPDEST POP PUSH1 0xE0 DUP3 ADD MLOAD DUP1 MLOAD PUSH2 0x233D SWAP2 PUSH1 0x7 DUP5 ADD SWAP2 PUSH1 0x20 SWAP1 SWAP2 ADD SWAP1 PUSH2 0x4B94 JUMP JUMPDEST POP PUSH2 0x100 DUP3 ADD MLOAD DUP1 MLOAD PUSH2 0x235A SWAP2 PUSH1 0x8 DUP5 ADD SWAP2 PUSH1 0x20 SWAP1 SWAP2 ADD SWAP1 PUSH2 0x4B94 JUMP JUMPDEST POP PUSH2 0x120 DUP3 ADD MLOAD DUP1 MLOAD PUSH2 0x2377 SWAP2 PUSH1 0x9 DUP5 ADD SWAP2 PUSH1 0x20 SWAP1 SWAP2 ADD SWAP1 PUSH2 0x4B94 JUMP JUMPDEST POP PUSH2 0x140 DUP3 ADD MLOAD DUP1 MLOAD PUSH2 0x2394 SWAP2 PUSH1 0xA DUP5 ADD SWAP2 PUSH1 0x20 SWAP1 SWAP2 ADD SWAP1 PUSH2 0x4B94 JUMP JUMPDEST POP PUSH2 0x160 DUP3 ADD MLOAD DUP1 MLOAD PUSH2 0x23B1 SWAP2 PUSH1 0xB DUP5 ADD SWAP2 PUSH1 0x20 SWAP1 SWAP2 ADD SWAP1 PUSH2 0x4B94 JUMP JUMPDEST POP POP CALLER PUSH1 0x0 SWAP1 DUP2 MSTORE PUSH1 0x13 PUSH1 0x20 MSTORE PUSH1 0x40 DUP2 KECCAK256 SLOAD SWAP1 SWAP2 POP PUSH2 0x23D2 SWAP1 PUSH1 0x1 SWAP1 PUSH2 0x58C1 JUMP JUMPDEST SWAP1 POP PUSH2 0x240E PUSH1 0x40 DUP1 MLOAD PUSH1 0xC0 DUP2 ADD SWAP1 SWAP2 MSTORE DUP1 PUSH1 0x0 DUP2 MSTORE PUSH1 0x20 ADD PUSH1 0x0 DUP2 MSTORE PUSH1 0x20 ADD PUSH1 0x0 DUP2 MSTORE PUSH1 0x20 ADD PUSH1 0x60 DUP2 MSTORE PUSH1 0x20 ADD PUSH1 0x60 DUP2 MSTORE PUSH1 0x20 ADD PUSH1 0x60 DUP2 MSTORE POP SWAP1 JUMP JUMPDEST PUSH2 0x2455 PUSH1 0x0 DUP1 DUP14 DUP14 DUP1 DUP1 PUSH1 0x1F ADD PUSH1 0x20 DUP1 SWAP2 DIV MUL PUSH1 0x20 ADD PUSH1 0x40 MLOAD SWAP1 DUP2 ADD PUSH1 0x40 MSTORE DUP1 SWAP4 SWAP3 SWAP2 SWAP1 DUP2 DUP2 MSTORE PUSH1 0x20 ADD DUP4 DUP4 DUP1 DUP3 DUP5 CALLDATACOPY PUSH1 0x0 SWAP3 ADD SWAP2 SWAP1 SWAP2 MSTORE POP DUP8 SWAP6 SWAP5 SWAP4 SWAP3 POP POP PUSH2 0x40A6 SWAP1 POP JUMP JUMPDEST PUSH1 0x0 PUSH2 0x2462 DUP10 PUSH1 0x1 PUSH2 0x578B JUMP JUMPDEST PUSH8 0xFFFFFFFFFFFFFFFF DUP2 GT ISZERO PUSH2 0x247A JUMPI PUSH2 0x247A PUSH2 0x59C6 JUMP JUMPDEST PUSH1 0x40 MLOAD SWAP1 DUP1 DUP3 MSTORE DUP1 PUSH1 0x20 MUL PUSH1 0x20 ADD DUP3 ADD PUSH1 0x40 MSTORE DUP1 ISZERO PUSH2 0x24AD JUMPI DUP2 PUSH1 0x20 ADD JUMPDEST PUSH1 0x60 DUP2 MSTORE PUSH1 0x20 ADD SWAP1 PUSH1 0x1 SWAP1 SUB SWAP1 DUP2 PUSH2 0x2498 JUMPI SWAP1 POP JUMPDEST POP SWAP1 POP PUSH1 0x0 JUMPDEST DUP10 DUP2 LT ISZERO PUSH2 0x2545 JUMPI DUP11 DUP11 DUP3 DUP2 DUP2 LT PUSH2 0x24CD JUMPI PUSH2 0x24CD PUSH2 0x59B0 JUMP JUMPDEST SWAP1 POP PUSH1 0x20 MUL DUP2 ADD SWAP1 PUSH2 0x24DF SWAP2 SWAP1 PUSH2 0x569E JUMP JUMPDEST DUP1 DUP1 PUSH1 0x1F ADD PUSH1 0x20 DUP1 SWAP2 DIV MUL PUSH1 0x20 ADD PUSH1 0x40 MLOAD SWAP1 DUP2 ADD PUSH1 0x40 MSTORE DUP1 SWAP4 SWAP3 SWAP2 SWAP1 DUP2 DUP2 MSTORE PUSH1 0x20 ADD DUP4 DUP4 DUP1 DUP3 DUP5 CALLDATACOPY PUSH1 0x0 SWAP3 ADD SWAP2 SWAP1 SWAP2 MSTORE POP POP DUP5 MLOAD DUP6 SWAP3 POP DUP5 SWAP2 POP DUP2 LT PUSH2 0x2527 JUMPI PUSH2 0x2527 PUSH2 0x59B0 JUMP JUMPDEST PUSH1 0x20 MUL PUSH1 0x20 ADD ADD DUP2 SWAP1 MSTORE POP DUP1 DUP1 PUSH2 0x253D SWAP1 PUSH2 0x593F JUMP JUMPDEST SWAP2 POP POP PUSH2 0x24B3 JUMP JUMPDEST POP DUP4 DUP2 DUP12 DUP12 SWAP1 POP DUP2 MLOAD DUP2 LT PUSH2 0x255C JUMPI PUSH2 0x255C PUSH2 0x59B0 JUMP JUMPDEST PUSH1 0x20 SWAP1 DUP2 MUL SWAP2 SWAP1 SWAP2 ADD ADD MSTORE PUSH2 0x2571 DUP3 DUP3 PUSH2 0x413A JUMP JUMPDEST PUSH1 0x0 PUSH2 0x257E DUP4 DUP11 DUP11 PUSH2 0x417A JUMP JUMPDEST PUSH1 0x40 DUP1 MLOAD PUSH1 0x60 DUP2 ADD DUP3 MSTORE CALLER DUP1 DUP3 MSTORE PUSH1 0x20 DUP1 DUP4 ADD DUP10 DUP2 MSTORE PUSH1 0x0 DUP5 DUP7 ADD DUP2 DUP2 MSTORE DUP8 DUP3 MSTORE PUSH1 0x12 DUP5 MSTORE DUP7 DUP3 KECCAK256 SWAP6 MLOAD DUP7 SLOAD PUSH1 0x1 PUSH1 0x1 PUSH1 0xA0 SHL SUB NOT AND PUSH1 0x1 PUSH1 0x1 PUSH1 0xA0 SHL SUB SWAP1 SWAP2 AND OR DUP7 SSTORE SWAP2 MLOAD PUSH1 0x1 DUP7 ADD SSTORE SWAP1 MLOAD PUSH1 0x2 SWAP1 SWAP5 ADD SWAP4 SWAP1 SWAP4 SSTORE PUSH1 0xC DUP6 SWAP1 SSTORE SWAP1 DUP3 MSTORE PUSH1 0x10 DUP2 MSTORE DUP3 DUP3 KECCAK256 DUP9 DUP4 MSTORE SWAP1 MSTORE DUP2 DUP2 KECCAK256 DUP4 SWAP1 SSTORE SWAP1 MLOAD SWAP2 SWAP3 POP DUP3 SWAP2 PUSH32 0x790D5075E76350B19C3D15F0DE9144077F6FB31397B526CE8664D7FAF7DDE6B SWAP2 SWAP1 LOG2 SWAP13 SWAP12 POP POP POP POP POP POP POP POP POP POP POP POP JUMP JUMPDEST PUSH2 0x2631 PUSH2 0x3F20 JUMP JUMPDEST PUSH1 0x4 DUP1 SLOAD PUSH1 0x1 PUSH1 0x1 PUSH1 0xA0 SHL SUB NOT AND PUSH1 0x1 PUSH1 0x1 PUSH1 0xA0 SHL SUB SWAP3 SWAP1 SWAP3 AND SWAP2 SWAP1 SWAP2 OR SWAP1 SSTORE JUMP JUMPDEST PUSH1 0x3 SLOAD PUSH1 0x1 PUSH1 0x1 PUSH1 0xA0 SHL SUB AND CALLER EQ PUSH2 0x26AD JUMPI PUSH1 0x40 MLOAD PUSH3 0x461BCD PUSH1 0xE5 SHL DUP2 MSTORE PUSH1 0x20 PUSH1 0x4 DUP3 ADD MSTORE PUSH1 0x16 PUSH1 0x24 DUP3 ADD MSTORE PUSH32 0x4D7573742062652070726F706F736564206F776E657200000000000000000000 PUSH1 0x44 DUP3 ADD MSTORE PUSH1 0x64 ADD PUSH2 0x9E4 JUMP JUMPDEST PUSH1 0x2 DUP1 SLOAD PUSH1 0x1 PUSH1 0x1 PUSH1 0xA0 SHL SUB NOT DUP1 DUP3 AND CALLER SWAP1 DUP2 OR SWAP1 SWAP4 SSTORE PUSH1 0x3 DUP1 SLOAD SWAP1 SWAP2 AND SWAP1 SSTORE PUSH1 0x40 MLOAD PUSH1 0x1 PUSH1 0x1 PUSH1 0xA0 SHL SUB SWAP1 SWAP2 AND SWAP2 SWAP1 DUP3 SWAP1 PUSH32 0x8BE0079C531659141344CD1FD0A4F28419497F9722A3DAAFE3B4186F6B6457E0 SWAP1 PUSH1 0x0 SWAP1 LOG3 POP JUMP JUMPDEST PUSH1 0x1 PUSH1 0x1 PUSH1 0xA0 SHL SUB DUP2 AND PUSH1 0x0 SWAP1 DUP2 MSTORE PUSH1 0x13 PUSH1 0x20 SWAP1 DUP2 MSTORE PUSH1 0x40 DUP1 DUP4 KECCAK256 DUP1 SLOAD DUP3 MLOAD DUP2 DUP6 MUL DUP2 ADD DUP6 ADD SWAP1 SWAP4 MSTORE DUP1 DUP4 MSTORE PUSH1 0x60 SWAP5 SWAP3 SWAP4 SWAP2 SWAP3 SWAP1 SWAP2 DUP5 ADD JUMPDEST DUP3 DUP3 LT ISZERO PUSH2 0x2E4B JUMPI DUP4 DUP3 SWAP1 PUSH1 0x0 MSTORE PUSH1 0x20 PUSH1 0x0 KECCAK256 SWAP1 PUSH1 0xC MUL ADD PUSH1 0x40 MLOAD DUP1 PUSH2 0x180 ADD PUSH1 0x40 MSTORE SWAP1 DUP2 PUSH1 0x0 DUP3 ADD DUP1 SLOAD PUSH2 0x2774 SWAP1 PUSH2 0x5904 JUMP JUMPDEST DUP1 PUSH1 0x1F ADD PUSH1 0x20 DUP1 SWAP2 DIV MUL PUSH1 0x20 ADD PUSH1 0x40 MLOAD SWAP1 DUP2 ADD PUSH1 0x40 MSTORE DUP1 SWAP3 SWAP2 SWAP1 DUP2 DUP2 MSTORE PUSH1 0x20 ADD DUP3 DUP1 SLOAD PUSH2 0x27A0 SWAP1 PUSH2 0x5904 JUMP JUMPDEST DUP1 ISZERO PUSH2 0x27ED JUMPI DUP1 PUSH1 0x1F LT PUSH2 0x27C2 JUMPI PUSH2 0x100 DUP1 DUP4 SLOAD DIV MUL DUP4 MSTORE SWAP2 PUSH1 0x20 ADD SWAP2 PUSH2 0x27ED JUMP JUMPDEST DUP3 ADD SWAP2 SWAP1 PUSH1 0x0 MSTORE PUSH1 0x20 PUSH1 0x0 KECCAK256 SWAP1 JUMPDEST DUP2 SLOAD DUP2 MSTORE SWAP1 PUSH1 0x1 ADD SWAP1 PUSH1 0x20 ADD DUP1 DUP4 GT PUSH2 0x27D0 JUMPI DUP3 SWAP1 SUB PUSH1 0x1F AND DUP3 ADD SWAP2 JUMPDEST POP POP POP POP POP DUP2 MSTORE PUSH1 0x20 ADD PUSH1 0x1 DUP3 ADD DUP1 SLOAD PUSH2 0x2806 SWAP1 PUSH2 0x5904 JUMP JUMPDEST DUP1 PUSH1 0x1F ADD PUSH1 0x20 DUP1 SWAP2 DIV MUL PUSH1 0x20 ADD PUSH1 0x40 MLOAD SWAP1 DUP2 ADD PUSH1 0x40 MSTORE DUP1 SWAP3 SWAP2 SWAP1 DUP2 DUP2 MSTORE PUSH1 0x20 ADD DUP3 DUP1 SLOAD PUSH2 0x2832 SWAP1 PUSH2 0x5904 JUMP JUMPDEST DUP1 ISZERO PUSH2 0x287F JUMPI DUP1 PUSH1 0x1F LT PUSH2 0x2854 JUMPI PUSH2 0x100 DUP1 DUP4 SLOAD DIV MUL DUP4 MSTORE SWAP2 PUSH1 0x20 ADD SWAP2 PUSH2 0x287F JUMP JUMPDEST DUP3 ADD SWAP2 SWAP1 PUSH1 0x0 MSTORE PUSH1 0x20 PUSH1 0x0 KECCAK256 SWAP1 JUMPDEST DUP2 SLOAD DUP2 MSTORE SWAP1 PUSH1 0x1 ADD SWAP1 PUSH1 0x20 ADD DUP1 DUP4 GT PUSH2 0x2862 JUMPI DUP3 SWAP1 SUB PUSH1 0x1F AND DUP3 ADD SWAP2 JUMPDEST POP POP POP POP POP DUP2 MSTORE PUSH1 0x20 ADD PUSH1 0x2 DUP3 ADD DUP1 SLOAD PUSH2 0x2898 SWAP1 PUSH2 0x5904 JUMP JUMPDEST DUP1 PUSH1 0x1F ADD PUSH1 0x20 DUP1 SWAP2 DIV MUL PUSH1 0x20 ADD PUSH1 0x40 MLOAD SWAP1 DUP2 ADD PUSH1 0x40 MSTORE DUP1 SWAP3 SWAP2 SWAP1 DUP2 DUP2 MSTORE PUSH1 0x20 ADD DUP3 DUP1 SLOAD PUSH2 0x28C4 SWAP1 PUSH2 0x5904 JUMP JUMPDEST DUP1 ISZERO PUSH2 0x2911 JUMPI DUP1 PUSH1 0x1F LT PUSH2 0x28E6 JUMPI PUSH2 0x100 DUP1 DUP4 SLOAD DIV MUL DUP4 MSTORE SWAP2 PUSH1 0x20 ADD SWAP2 PUSH2 0x2911 JUMP JUMPDEST DUP3 ADD SWAP2 SWAP1 PUSH1 0x0 MSTORE PUSH1 0x20 PUSH1 0x0 KECCAK256 SWAP1 JUMPDEST DUP2 SLOAD DUP2 MSTORE SWAP1 PUSH1 0x1 ADD SWAP1 PUSH1 0x20 ADD DUP1 DUP4 GT PUSH2 0x28F4 JUMPI DUP3 SWAP1 SUB PUSH1 0x1F AND DUP3 ADD SWAP2 JUMPDEST POP POP POP POP POP DUP2 MSTORE PUSH1 0x20 ADD PUSH1 0x3 DUP3 ADD DUP1 SLOAD PUSH2 0x292A SWAP1 PUSH2 0x5904 JUMP JUMPDEST DUP1 PUSH1 0x1F ADD PUSH1 0x20 DUP1 SWAP2 DIV MUL PUSH1 0x20 ADD PUSH1 0x40 MLOAD SWAP1 DUP2 ADD PUSH1 0x40 MSTORE DUP1 SWAP3 SWAP2 SWAP1 DUP2 DUP2 MSTORE PUSH1 0x20 ADD DUP3 DUP1 SLOAD PUSH2 0x2956 SWAP1 PUSH2 0x5904 JUMP JUMPDEST DUP1 ISZERO PUSH2 0x29A3 JUMPI DUP1 PUSH1 0x1F LT PUSH2 0x2978 JUMPI PUSH2 0x100 DUP1 DUP4 SLOAD DIV MUL DUP4 MSTORE SWAP2 PUSH1 0x20 ADD SWAP2 PUSH2 0x29A3 JUMP JUMPDEST DUP3 ADD SWAP2 SWAP1 PUSH1 0x0 MSTORE PUSH1 0x20 PUSH1 0x0 KECCAK256 SWAP1 JUMPDEST DUP2 SLOAD DUP2 MSTORE SWAP1 PUSH1 0x1 ADD SWAP1 PUSH1 0x20 ADD DUP1 DUP4 GT PUSH2 0x2986 JUMPI DUP3 SWAP1 SUB PUSH1 0x1F AND DUP3 ADD SWAP2 JUMPDEST POP POP POP POP POP DUP2 MSTORE PUSH1 0x20 ADD PUSH1 0x4 DUP3 ADD DUP1 SLOAD PUSH2 0x29BC SWAP1 PUSH2 0x5904 JUMP JUMPDEST DUP1 PUSH1 0x1F ADD PUSH1 0x20 DUP1 SWAP2 DIV MUL PUSH1 0x20 ADD PUSH1 0x40 MLOAD SWAP1 DUP2 ADD PUSH1 0x40 MSTORE DUP1 SWAP3 SWAP2 SWAP1 DUP2 DUP2 MSTORE PUSH1 0x20 ADD DUP3 DUP1 SLOAD PUSH2 0x29E8 SWAP1 PUSH2 0x5904 JUMP JUMPDEST DUP1 ISZERO PUSH2 0x2A35 JUMPI DUP1 PUSH1 0x1F LT PUSH2 0x2A0A JUMPI PUSH2 0x100 DUP1 DUP4 SLOAD DIV MUL DUP4 MSTORE SWAP2 PUSH1 0x20 ADD SWAP2 PUSH2 0x2A35 JUMP JUMPDEST DUP3 ADD SWAP2 SWAP1 PUSH1 0x0 MSTORE PUSH1 0x20 PUSH1 0x0 KECCAK256 SWAP1 JUMPDEST DUP2 SLOAD DUP2 MSTORE SWAP1 PUSH1 0x1 ADD SWAP1 PUSH1 0x20 ADD DUP1 DUP4 GT PUSH2 0x2A18 JUMPI DUP3 SWAP1 SUB PUSH1 0x1F AND DUP3 ADD SWAP2 JUMPDEST POP POP POP POP POP DUP2 MSTORE PUSH1 0x20 ADD PUSH1 0x5 DUP3 ADD DUP1 SLOAD PUSH2 0x2A4E SWAP1 PUSH2 0x5904 JUMP JUMPDEST DUP1 PUSH1 0x1F ADD PUSH1 0x20 DUP1 SWAP2 DIV MUL PUSH1 0x20 ADD PUSH1 0x40 MLOAD SWAP1 DUP2 ADD PUSH1 0x40 MSTORE DUP1 SWAP3 SWAP2 SWAP1 DUP2 DUP2 MSTORE PUSH1 0x20 ADD DUP3 DUP1 SLOAD PUSH2 0x2A7A SWAP1 PUSH2 0x5904 JUMP JUMPDEST DUP1 ISZERO PUSH2 0x2AC7 JUMPI DUP1 PUSH1 0x1F LT PUSH2 0x2A9C JUMPI PUSH2 0x100 DUP1 DUP4 SLOAD DIV MUL DUP4 MSTORE SWAP2 PUSH1 0x20 ADD SWAP2 PUSH2 0x2AC7 JUMP JUMPDEST DUP3 ADD SWAP2 SWAP1 PUSH1 0x0 MSTORE PUSH1 0x20 PUSH1 0x0 KECCAK256 SWAP1 JUMPDEST DUP2 SLOAD DUP2 MSTORE SWAP1 PUSH1 0x1 ADD SWAP1 PUSH1 0x20 ADD DUP1 DUP4 GT PUSH2 0x2AAA JUMPI DUP3 SWAP1 SUB PUSH1 0x1F AND DUP3 ADD SWAP2 JUMPDEST POP POP POP POP POP DUP2 MSTORE PUSH1 0x20 ADD PUSH1 0x6 DUP3 ADD DUP1 SLOAD PUSH2 0x2AE0 SWAP1 PUSH2 0x5904 JUMP JUMPDEST DUP1 PUSH1 0x1F ADD PUSH1 0x20 DUP1 SWAP2 DIV MUL PUSH1 0x20 ADD PUSH1 0x40 MLOAD SWAP1 DUP2 ADD PUSH1 0x40 MSTORE DUP1 SWAP3 SWAP2 SWAP1 DUP2 DUP2 MSTORE PUSH1 0x20 ADD DUP3 DUP1 SLOAD PUSH2 0x2B0C SWAP1 PUSH2 0x5904 JUMP JUMPDEST DUP1 ISZERO PUSH2 0x2B59 JUMPI DUP1 PUSH1 0x1F LT PUSH2 0x2B2E JUMPI PUSH2 0x100 DUP1 DUP4 SLOAD DIV MUL DUP4 MSTORE SWAP2 PUSH1 0x20 ADD SWAP2 PUSH2 0x2B59 JUMP JUMPDEST DUP3 ADD SWAP2 SWAP1 PUSH1 0x0 MSTORE PUSH1 0x20 PUSH1 0x0 KECCAK256 SWAP1 JUMPDEST DUP2 SLOAD DUP2 MSTORE SWAP1 PUSH1 0x1 ADD SWAP1 PUSH1 0x20 ADD DUP1 DUP4 GT PUSH2 0x2B3C JUMPI DUP3 SWAP1 SUB PUSH1 0x1F AND DUP3 ADD SWAP2 JUMPDEST POP POP POP POP POP DUP2 MSTORE PUSH1 0x20 ADD PUSH1 0x7 DUP3 ADD DUP1 SLOAD PUSH2 0x2B72 SWAP1 PUSH2 0x5904 JUMP JUMPDEST DUP1 PUSH1 0x1F ADD PUSH1 0x20 DUP1 SWAP2 DIV MUL PUSH1 0x20 ADD PUSH1 0x40 MLOAD SWAP1 DUP2 ADD PUSH1 0x40 MSTORE DUP1 SWAP3 SWAP2 SWAP1 DUP2 DUP2 MSTORE PUSH1 0x20 ADD DUP3 DUP1 SLOAD PUSH2 0x2B9E SWAP1 PUSH2 0x5904 JUMP JUMPDEST DUP1 ISZERO PUSH2 0x2BEB JUMPI DUP1 PUSH1 0x1F LT PUSH2 0x2BC0 JUMPI PUSH2 0x100 DUP1 DUP4 SLOAD DIV MUL DUP4 MSTORE SWAP2 PUSH1 0x20 ADD SWAP2 PUSH2 0x2BEB JUMP JUMPDEST DUP3 ADD SWAP2 SWAP1 PUSH1 0x0 MSTORE PUSH1 0x20 PUSH1 0x0 KECCAK256 SWAP1 JUMPDEST DUP2 SLOAD DUP2 MSTORE SWAP1 PUSH1 0x1 ADD SWAP1 PUSH1 0x20 ADD DUP1 DUP4 GT PUSH2 0x2BCE JUMPI DUP3 SWAP1 SUB PUSH1 0x1F AND DUP3 ADD SWAP2 JUMPDEST POP POP POP POP POP DUP2 MSTORE PUSH1 0x20 ADD PUSH1 0x8 DUP3 ADD DUP1 SLOAD PUSH2 0x2C04 SWAP1 PUSH2 0x5904 JUMP JUMPDEST DUP1 PUSH1 0x1F ADD PUSH1 0x20 DUP1 SWAP2 DIV MUL PUSH1 0x20 ADD PUSH1 0x40 MLOAD SWAP1 DUP2 ADD PUSH1 0x40 MSTORE DUP1 SWAP3 SWAP2 SWAP1 DUP2 DUP2 MSTORE PUSH1 0x20 ADD DUP3 DUP1 SLOAD PUSH2 0x2C30 SWAP1 PUSH2 0x5904 JUMP JUMPDEST DUP1 ISZERO PUSH2 0x2C7D JUMPI DUP1 PUSH1 0x1F LT PUSH2 0x2C52 JUMPI PUSH2 0x100 DUP1 DUP4 SLOAD DIV MUL DUP4 MSTORE SWAP2 PUSH1 0x20 ADD SWAP2 PUSH2 0x2C7D JUMP JUMPDEST DUP3 ADD SWAP2 SWAP1 PUSH1 0x0 MSTORE PUSH1 0x20 PUSH1 0x0 KECCAK256 SWAP1 JUMPDEST DUP2 SLOAD DUP2 MSTORE SWAP1 PUSH1 0x1 ADD SWAP1 PUSH1 0x20 ADD DUP1 DUP4 GT PUSH2 0x2C60 JUMPI DUP3 SWAP1 SUB PUSH1 0x1F AND DUP3 ADD SWAP2 JUMPDEST POP POP POP POP POP DUP2 MSTORE PUSH1 0x20 ADD PUSH1 0x9 DUP3 ADD DUP1 SLOAD PUSH2 0x2C96 SWAP1 PUSH2 0x5904 JUMP JUMPDEST DUP1 PUSH1 0x1F ADD PUSH1 0x20 DUP1 SWAP2 DIV MUL PUSH1 0x20 ADD PUSH1 0x40 MLOAD SWAP1 DUP2 ADD PUSH1 0x40 MSTORE DUP1 SWAP3 SWAP2 SWAP1 DUP2 DUP2 MSTORE PUSH1 0x20 ADD DUP3 DUP1 SLOAD PUSH2 0x2CC2 SWAP1 PUSH2 0x5904 JUMP JUMPDEST DUP1 ISZERO PUSH2 0x2D0F JUMPI DUP1 PUSH1 0x1F LT PUSH2 0x2CE4 JUMPI PUSH2 0x100 DUP1 DUP4 SLOAD DIV MUL DUP4 MSTORE SWAP2 PUSH1 0x20 ADD SWAP2 PUSH2 0x2D0F JUMP JUMPDEST DUP3 ADD SWAP2 SWAP1 PUSH1 0x0 MSTORE PUSH1 0x20 PUSH1 0x0 KECCAK256 SWAP1 JUMPDEST DUP2 SLOAD DUP2 MSTORE SWAP1 PUSH1 0x1 ADD SWAP1 PUSH1 0x20 ADD DUP1 DUP4 GT PUSH2 0x2CF2 JUMPI DUP3 SWAP1 SUB PUSH1 0x1F AND DUP3 ADD SWAP2 JUMPDEST POP POP POP POP POP DUP2 MSTORE PUSH1 0x20 ADD PUSH1 0xA DUP3 ADD DUP1 SLOAD PUSH2 0x2D28 SWAP1 PUSH2 0x5904 JUMP JUMPDEST DUP1 PUSH1 0x1F ADD PUSH1 0x20 DUP1 SWAP2 DIV MUL PUSH1 0x20 ADD PUSH1 0x40 MLOAD SWAP1 DUP2 ADD PUSH1 0x40 MSTORE DUP1 SWAP3 SWAP2 SWAP1 DUP2 DUP2 MSTORE PUSH1 0x20 ADD DUP3 DUP1 SLOAD PUSH2 0x2D54 SWAP1 PUSH2 0x5904 JUMP JUMPDEST DUP1 ISZERO PUSH2 0x2DA1 JUMPI DUP1 PUSH1 0x1F LT PUSH2 0x2D76 JUMPI PUSH2 0x100 DUP1 DUP4 SLOAD DIV MUL DUP4 MSTORE SWAP2 PUSH1 0x20 ADD SWAP2 PUSH2 0x2DA1 JUMP JUMPDEST DUP3 ADD SWAP2 SWAP1 PUSH1 0x0 MSTORE PUSH1 0x20 PUSH1 0x0 KECCAK256 SWAP1 JUMPDEST DUP2 SLOAD DUP2 MSTORE SWAP1 PUSH1 0x1 ADD SWAP1 PUSH1 0x20 ADD DUP1 DUP4 GT PUSH2 0x2D84 JUMPI DUP3 SWAP1 SUB PUSH1 0x1F AND DUP3 ADD SWAP2 JUMPDEST POP POP POP POP POP DUP2 MSTORE PUSH1 0x20 ADD PUSH1 0xB DUP3 ADD DUP1 SLOAD PUSH2 0x2DBA SWAP1 PUSH2 0x5904 JUMP JUMPDEST DUP1 PUSH1 0x1F ADD PUSH1 0x20 DUP1 SWAP2 DIV MUL PUSH1 0x20 ADD PUSH1 0x40 MLOAD SWAP1 DUP2 ADD PUSH1 0x40 MSTORE DUP1 SWAP3 SWAP2 SWAP1 DUP2 DUP2 MSTORE PUSH1 0x20 ADD DUP3 DUP1 SLOAD PUSH2 0x2DE6 SWAP1 PUSH2 0x5904 JUMP JUMPDEST DUP1 ISZERO PUSH2 0x2E33 JUMPI DUP1 PUSH1 0x1F LT PUSH2 0x2E08 JUMPI PUSH2 0x100 DUP1 DUP4 SLOAD DIV MUL DUP4 MSTORE SWAP2 PUSH1 0x20 ADD SWAP2 PUSH2 0x2E33 JUMP JUMPDEST DUP3 ADD SWAP2 SWAP1 PUSH1 0x0 MSTORE PUSH1 0x20 PUSH1 0x0 KECCAK256 SWAP1 JUMPDEST DUP2 SLOAD DUP2 MSTORE SWAP1 PUSH1 0x1 ADD SWAP1 PUSH1 0x20 ADD DUP1 DUP4 GT PUSH2 0x2E16 JUMPI DUP3 SWAP1 SUB PUSH1 0x1F AND DUP3 ADD SWAP2 JUMPDEST POP POP POP POP POP DUP2 MSTORE POP POP DUP2 MSTORE PUSH1 0x20 ADD SWAP1 PUSH1 0x1 ADD SWAP1 PUSH2 0x2740 JUMP JUMPDEST POP POP POP POP SWAP1 POP SWAP2 SWAP1 POP JUMP JUMPDEST PUSH1 0x7 DUP2 DUP2 SLOAD DUP2 LT PUSH2 0x2E66 JUMPI PUSH1 0x0 DUP1 REVERT JUMPDEST PUSH1 0x0 SWAP2 DUP3 MSTORE PUSH1 0x20 SWAP1 SWAP2 KECCAK256 ADD SLOAD SWAP1 POP DUP2 JUMP JUMPDEST PUSH1 0x13 PUSH1 0x20 MSTORE DUP2 PUSH1 0x0 MSTORE PUSH1 0x40 PUSH1 0x0 KECCAK256 DUP2 DUP2 SLOAD DUP2 LT PUSH2 0x2E93 JUMPI PUSH1 0x0 DUP1 REVERT JUMPDEST SWAP1 PUSH1 0x0 MSTORE PUSH1 0x20 PUSH1 0x0 KECCAK256 SWAP1 PUSH1 0xC MUL ADD PUSH1 0x0 SWAP2 POP SWAP2 POP POP DUP1 PUSH1 0x0 ADD DUP1 SLOAD PUSH2 0x2EB7 SWAP1 PUSH2 0x5904 JUMP JUMPDEST DUP1 PUSH1 0x1F ADD PUSH1 0x20 DUP1 SWAP2 DIV MUL PUSH1 0x20 ADD PUSH1 0x40 MLOAD SWAP1 DUP2 ADD PUSH1 0x40 MSTORE DUP1 SWAP3 SWAP2 SWAP1 DUP2 DUP2 MSTORE PUSH1 0x20 ADD DUP3 DUP1 SLOAD PUSH2 0x2EE3 SWAP1 PUSH2 0x5904 JUMP JUMPDEST DUP1 ISZERO PUSH2 0x2F30 JUMPI DUP1 PUSH1 0x1F LT PUSH2 0x2F05 JUMPI PUSH2 0x100 DUP1 DUP4 SLOAD DIV MUL DUP4 MSTORE SWAP2 PUSH1 0x20 ADD SWAP2 PUSH2 0x2F30 JUMP JUMPDEST DUP3 ADD SWAP2 SWAP1 PUSH1 0x0 MSTORE PUSH1 0x20 PUSH1 0x0 KECCAK256 SWAP1 JUMPDEST DUP2 SLOAD DUP2 MSTORE SWAP1 PUSH1 0x1 ADD SWAP1 PUSH1 0x20 ADD DUP1 DUP4 GT PUSH2 0x2F13 JUMPI DUP3 SWAP1 SUB PUSH1 0x1F AND DUP3 ADD SWAP2 JUMPDEST POP POP POP POP POP SWAP1 DUP1 PUSH1 0x1 ADD DUP1 SLOAD PUSH2 0x2F45 SWAP1 PUSH2 0x5904 JUMP JUMPDEST DUP1 PUSH1 0x1F ADD PUSH1 0x20 DUP1 SWAP2 DIV MUL PUSH1 0x20 ADD PUSH1 0x40 MLOAD SWAP1 DUP2 ADD PUSH1 0x40 MSTORE DUP1 SWAP3 SWAP2 SWAP1 DUP2 DUP2 MSTORE PUSH1 0x20 ADD DUP3 DUP1 SLOAD PUSH2 0x2F71 SWAP1 PUSH2 0x5904 JUMP JUMPDEST DUP1 ISZERO PUSH2 0x2FBE JUMPI DUP1 PUSH1 0x1F LT PUSH2 0x2F93 JUMPI PUSH2 0x100 DUP1 DUP4 SLOAD DIV MUL DUP4 MSTORE SWAP2 PUSH1 0x20 ADD SWAP2 PUSH2 0x2FBE JUMP JUMPDEST DUP3 ADD SWAP2 SWAP1 PUSH1 0x0 MSTORE PUSH1 0x20 PUSH1 0x0 KECCAK256 SWAP1 JUMPDEST DUP2 SLOAD DUP2 MSTORE SWAP1 PUSH1 0x1 ADD SWAP1 PUSH1 0x20 ADD DUP1 DUP4 GT PUSH2 0x2FA1 JUMPI DUP3 SWAP1 SUB PUSH1 0x1F AND DUP3 ADD SWAP2 JUMPDEST POP POP POP POP POP SWAP1 DUP1 PUSH1 0x2 ADD DUP1 SLOAD PUSH2 0x2FD3 SWAP1 PUSH2 0x5904 JUMP JUMPDEST DUP1 PUSH1 0x1F ADD PUSH1 0x20 DUP1 SWAP2 DIV MUL PUSH1 0x20 ADD PUSH1 0x40 MLOAD SWAP1 DUP2 ADD PUSH1 0x40 MSTORE DUP1 SWAP3 SWAP2 SWAP1 DUP2 DUP2 MSTORE PUSH1 0x20 ADD DUP3 DUP1 SLOAD PUSH2 0x2FFF SWAP1 PUSH2 0x5904 JUMP JUMPDEST DUP1 ISZERO PUSH2 0x304C JUMPI DUP1 PUSH1 0x1F LT PUSH2 0x3021 JUMPI PUSH2 0x100 DUP1 DUP4 SLOAD DIV MUL DUP4 MSTORE SWAP2 PUSH1 0x20 ADD SWAP2 PUSH2 0x304C JUMP JUMPDEST DUP3 ADD SWAP2 SWAP1 PUSH1 0x0 MSTORE PUSH1 0x20 PUSH1 0x0 KECCAK256 SWAP1 JUMPDEST DUP2 SLOAD DUP2 MSTORE SWAP1 PUSH1 0x1 ADD SWAP1 PUSH1 0x20 ADD DUP1 DUP4 GT PUSH2 0x302F JUMPI DUP3 SWAP1 SUB PUSH1 0x1F AND DUP3 ADD SWAP2 JUMPDEST POP POP POP POP POP SWAP1 DUP1 PUSH1 0x3 ADD DUP1 SLOAD PUSH2 0x3061 SWAP1 PUSH2 0x5904 JUMP JUMPDEST DUP1 PUSH1 0x1F ADD PUSH1 0x20 DUP1 SWAP2 DIV MUL PUSH1 0x20 ADD PUSH1 0x40 MLOAD SWAP1 DUP2 ADD PUSH1 0x40 MSTORE DUP1 SWAP3 SWAP2 SWAP1 DUP2 DUP2 MSTORE PUSH1 0x20 ADD DUP3 DUP1 SLOAD PUSH2 0x308D SWAP1 PUSH2 0x5904 JUMP JUMPDEST DUP1 ISZERO PUSH2 0x30DA JUMPI DUP1 PUSH1 0x1F LT PUSH2 0x30AF JUMPI PUSH2 0x100 DUP1 DUP4 SLOAD DIV MUL DUP4 MSTORE SWAP2 PUSH1 0x20 ADD SWAP2 PUSH2 0x30DA JUMP JUMPDEST DUP3 ADD SWAP2 SWAP1 PUSH1 0x0 MSTORE PUSH1 0x20 PUSH1 0x0 KECCAK256 SWAP1 JUMPDEST DUP2 SLOAD DUP2 MSTORE SWAP1 PUSH1 0x1 ADD SWAP1 PUSH1 0x20 ADD DUP1 DUP4 GT PUSH2 0x30BD JUMPI DUP3 SWAP1 SUB PUSH1 0x1F AND DUP3 ADD SWAP2 JUMPDEST POP POP POP POP POP SWAP1 DUP1 PUSH1 0x4 ADD DUP1 SLOAD PUSH2 0x30EF SWAP1 PUSH2 0x5904 JUMP JUMPDEST DUP1 PUSH1 0x1F ADD PUSH1 0x20 DUP1 SWAP2 DIV MUL PUSH1 0x20 ADD PUSH1 0x40 MLOAD SWAP1 DUP2 ADD PUSH1 0x40 MSTORE DUP1 SWAP3 SWAP2 SWAP1 DUP2 DUP2 MSTORE PUSH1 0x20 ADD DUP3 DUP1 SLOAD PUSH2 0x311B SWAP1 PUSH2 0x5904 JUMP JUMPDEST DUP1 ISZERO PUSH2 0x3168 JUMPI DUP1 PUSH1 0x1F LT PUSH2 0x313D JUMPI PUSH2 0x100 DUP1 DUP4 SLOAD DIV MUL DUP4 MSTORE SWAP2 PUSH1 0x20 ADD SWAP2 PUSH2 0x3168 JUMP JUMPDEST DUP3 ADD SWAP2 SWAP1 PUSH1 0x0 MSTORE PUSH1 0x20 PUSH1 0x0 KECCAK256 SWAP1 JUMPDEST DUP2 SLOAD DUP2 MSTORE SWAP1 PUSH1 0x1 ADD SWAP1 PUSH1 0x20 ADD DUP1 DUP4 GT PUSH2 0x314B JUMPI DUP3 SWAP1 SUB PUSH1 0x1F AND DUP3 ADD SWAP2 JUMPDEST POP POP POP POP POP SWAP1 DUP1 PUSH1 0x5 ADD DUP1 SLOAD PUSH2 0x317D SWAP1 PUSH2 0x5904 JUMP JUMPDEST DUP1 PUSH1 0x1F ADD PUSH1 0x20 DUP1 SWAP2 DIV MUL PUSH1 0x20 ADD PUSH1 0x40 MLOAD SWAP1 DUP2 ADD PUSH1 0x40 MSTORE DUP1 SWAP3 SWAP2 SWAP1 DUP2 DUP2 MSTORE PUSH1 0x20 ADD DUP3 DUP1 SLOAD PUSH2 0x31A9 SWAP1 PUSH2 0x5904 JUMP JUMPDEST DUP1 ISZERO PUSH2 0x31F6 JUMPI DUP1 PUSH1 0x1F LT PUSH2 0x31CB JUMPI PUSH2 0x100 DUP1 DUP4 SLOAD DIV MUL DUP4 MSTORE SWAP2 PUSH1 0x20 ADD SWAP2 PUSH2 0x31F6 JUMP JUMPDEST DUP3 ADD SWAP2 SWAP1 PUSH1 0x0 MSTORE PUSH1 0x20 PUSH1 0x0 KECCAK256 SWAP1 JUMPDEST DUP2 SLOAD DUP2 MSTORE SWAP1 PUSH1 0x1 ADD SWAP1 PUSH1 0x20 ADD DUP1 DUP4 GT PUSH2 0x31D9 JUMPI DUP3 SWAP1 SUB PUSH1 0x1F AND DUP3 ADD SWAP2 JUMPDEST POP POP POP POP POP SWAP1 DUP1 PUSH1 0x6 ADD DUP1 SLOAD PUSH2 0x320B SWAP1 PUSH2 0x5904 JUMP JUMPDEST DUP1 PUSH1 0x1F ADD PUSH1 0x20 DUP1 SWAP2 DIV MUL PUSH1 0x20 ADD PUSH1 0x40 MLOAD SWAP1 DUP2 ADD PUSH1 0x40 MSTORE DUP1 SWAP3 SWAP2 SWAP1 DUP2 DUP2 MSTORE PUSH1 0x20 ADD DUP3 DUP1 SLOAD PUSH2 0x3237 SWAP1 PUSH2 0x5904 JUMP JUMPDEST DUP1 ISZERO PUSH2 0x3284 JUMPI DUP1 PUSH1 0x1F LT PUSH2 0x3259 JUMPI PUSH2 0x100 DUP1 DUP4 SLOAD DIV MUL DUP4 MSTORE SWAP2 PUSH1 0x20 ADD SWAP2 PUSH2 0x3284 JUMP JUMPDEST DUP3 ADD SWAP2 SWAP1 PUSH1 0x0 MSTORE PUSH1 0x20 PUSH1 0x0 KECCAK256 SWAP1 JUMPDEST DUP2 SLOAD DUP2 MSTORE SWAP1 PUSH1 0x1 ADD SWAP1 PUSH1 0x20 ADD DUP1 DUP4 GT PUSH2 0x3267 JUMPI DUP3 SWAP1 SUB PUSH1 0x1F AND DUP3 ADD SWAP2 JUMPDEST POP POP POP POP POP SWAP1 DUP1 PUSH1 0x7 ADD DUP1 SLOAD PUSH2 0x3299 SWAP1 PUSH2 0x5904 JUMP JUMPDEST DUP1 PUSH1 0x1F ADD PUSH1 0x20 DUP1 SWAP2 DIV MUL PUSH1 0x20 ADD PUSH1 0x40 MLOAD SWAP1 DUP2 ADD PUSH1 0x40 MSTORE DUP1 SWAP3 SWAP2 SWAP1 DUP2 DUP2 MSTORE PUSH1 0x20 ADD DUP3 DUP1 SLOAD PUSH2 0x32C5 SWAP1 PUSH2 0x5904 JUMP JUMPDEST DUP1 ISZERO PUSH2 0x3312 JUMPI DUP1 PUSH1 0x1F LT PUSH2 0x32E7 JUMPI PUSH2 0x100 DUP1 DUP4 SLOAD DIV MUL DUP4 MSTORE SWAP2 PUSH1 0x20 ADD SWAP2 PUSH2 0x3312 JUMP JUMPDEST DUP3 ADD SWAP2 SWAP1 PUSH1 0x0 MSTORE PUSH1 0x20 PUSH1 0x0 KECCAK256 SWAP1 JUMPDEST DUP2 SLOAD DUP2 MSTORE SWAP1 PUSH1 0x1 ADD SWAP1 PUSH1 0x20 ADD DUP1 DUP4 GT PUSH2 0x32F5 JUMPI DUP3 SWAP1 SUB PUSH1 0x1F AND DUP3 ADD SWAP2 JUMPDEST POP POP POP POP POP SWAP1 DUP1 PUSH1 0x8 ADD DUP1 SLOAD PUSH2 0x3327 SWAP1 PUSH2 0x5904 JUMP JUMPDEST DUP1 PUSH1 0x1F ADD PUSH1 0x20 DUP1 SWAP2 DIV MUL PUSH1 0x20 ADD PUSH1 0x40 MLOAD SWAP1 DUP2 ADD PUSH1 0x40 MSTORE DUP1 SWAP3 SWAP2 SWAP1 DUP2 DUP2 MSTORE PUSH1 0x20 ADD DUP3 DUP1 SLOAD PUSH2 0x3353 SWAP1 PUSH2 0x5904 JUMP JUMPDEST DUP1 ISZERO PUSH2 0x33A0 JUMPI DUP1 PUSH1 0x1F LT PUSH2 0x3375 JUMPI PUSH2 0x100 DUP1 DUP4 SLOAD DIV MUL DUP4 MSTORE SWAP2 PUSH1 0x20 ADD SWAP2 PUSH2 0x33A0 JUMP JUMPDEST DUP3 ADD SWAP2 SWAP1 PUSH1 0x0 MSTORE PUSH1 0x20 PUSH1 0x0 KECCAK256 SWAP1 JUMPDEST DUP2 SLOAD DUP2 MSTORE SWAP1 PUSH1 0x1 ADD SWAP1 PUSH1 0x20 ADD DUP1 DUP4 GT PUSH2 0x3383 JUMPI DUP3 SWAP1 SUB PUSH1 0x1F AND DUP3 ADD SWAP2 JUMPDEST POP POP POP POP POP SWAP1 DUP1 PUSH1 0x9 ADD DUP1 SLOAD PUSH2 0x33B5 SWAP1 PUSH2 0x5904 JUMP JUMPDEST DUP1 PUSH1 0x1F ADD PUSH1 0x20 DUP1 SWAP2 DIV MUL PUSH1 0x20 ADD PUSH1 0x40 MLOAD SWAP1 DUP2 ADD PUSH1 0x40 MSTORE DUP1 SWAP3 SWAP2 SWAP1 DUP2 DUP2 MSTORE PUSH1 0x20 ADD DUP3 DUP1 SLOAD PUSH2 0x33E1 SWAP1 PUSH2 0x5904 JUMP JUMPDEST DUP1 ISZERO PUSH2 0x342E JUMPI DUP1 PUSH1 0x1F LT PUSH2 0x3403 JUMPI PUSH2 0x100 DUP1 DUP4 SLOAD DIV MUL DUP4 MSTORE SWAP2 PUSH1 0x20 ADD SWAP2 PUSH2 0x342E JUMP JUMPDEST DUP3 ADD SWAP2 SWAP1 PUSH1 0x0 MSTORE PUSH1 0x20 PUSH1 0x0 KECCAK256 SWAP1 JUMPDEST DUP2 SLOAD DUP2 MSTORE SWAP1 PUSH1 0x1 ADD SWAP1 PUSH1 0x20 ADD DUP1 DUP4 GT PUSH2 0x3411 JUMPI DUP3 SWAP1 SUB PUSH1 0x1F AND DUP3 ADD SWAP2 JUMPDEST POP POP POP POP POP SWAP1 DUP1 PUSH1 0xA ADD DUP1 SLOAD PUSH2 0x3443 SWAP1 PUSH2 0x5904 JUMP JUMPDEST DUP1 PUSH1 0x1F ADD PUSH1 0x20 DUP1 SWAP2 DIV MUL PUSH1 0x20 ADD PUSH1 0x40 MLOAD SWAP1 DUP2 ADD PUSH1 0x40 MSTORE DUP1 SWAP3 SWAP2 SWAP1 DUP2 DUP2 MSTORE PUSH1 0x20 ADD DUP3 DUP1 SLOAD PUSH2 0x346F SWAP1 PUSH2 0x5904 JUMP JUMPDEST DUP1 ISZERO PUSH2 0x34BC JUMPI DUP1 PUSH1 0x1F LT PUSH2 0x3491 JUMPI PUSH2 0x100 DUP1 DUP4 SLOAD DIV MUL DUP4 MSTORE SWAP2 PUSH1 0x20 ADD SWAP2 PUSH2 0x34BC JUMP JUMPDEST DUP3 ADD SWAP2 SWAP1 PUSH1 0x0 MSTORE PUSH1 0x20 PUSH1 0x0 KECCAK256 SWAP1 JUMPDEST DUP2 SLOAD DUP2 MSTORE SWAP1 PUSH1 0x1 ADD SWAP1 PUSH1 0x20 ADD DUP1 DUP4 GT PUSH2 0x349F JUMPI DUP3 SWAP1 SUB PUSH1 0x1F AND DUP3 ADD SWAP2 JUMPDEST POP POP POP POP POP SWAP1 DUP1 PUSH1 0xB ADD DUP1 SLOAD PUSH2 0x34D1 SWAP1 PUSH2 0x5904 JUMP JUMPDEST DUP1 PUSH1 0x1F ADD PUSH1 0x20 DUP1 SWAP2 DIV MUL PUSH1 0x20 ADD PUSH1 0x40 MLOAD SWAP1 DUP2 ADD PUSH1 0x40 MSTORE DUP1 SWAP3 SWAP2 SWAP1 DUP2 DUP2 MSTORE PUSH1 0x20 ADD DUP3 DUP1 SLOAD PUSH2 0x34FD SWAP1 PUSH2 0x5904 JUMP JUMPDEST DUP1 ISZERO PUSH2 0x354A JUMPI DUP1 PUSH1 0x1F LT PUSH2 0x351F JUMPI PUSH2 0x100 DUP1 DUP4 SLOAD DIV MUL DUP4 MSTORE SWAP2 PUSH1 0x20 ADD SWAP2 PUSH2 0x354A JUMP JUMPDEST DUP3 ADD SWAP2 SWAP1 PUSH1 0x0 MSTORE PUSH1 0x20 PUSH1 0x0 KECCAK256 SWAP1 JUMPDEST DUP2 SLOAD DUP2 MSTORE SWAP1 PUSH1 0x1 ADD SWAP1 PUSH1 0x20 ADD DUP1 DUP4 GT PUSH2 0x352D JUMPI DUP3 SWAP1 SUB PUSH1 0x1F AND DUP3 ADD SWAP2 JUMPDEST POP POP POP POP POP SWAP1 POP DUP13 JUMP JUMPDEST PUSH1 0x8 SLOAD PUSH1 0x0 SWAP1 DUP2 MSTORE PUSH1 0x15 PUSH1 0x20 MSTORE PUSH1 0x40 DUP2 KECCAK256 SLOAD PUSH2 0x100 SWAP1 DIV PUSH1 0xFF AND PUSH2 0x35E0 JUMPI PUSH1 0x40 MLOAD PUSH3 0x461BCD PUSH1 0xE5 SHL DUP2 MSTORE PUSH1 0x20 PUSH1 0x4 DUP3 ADD MSTORE PUSH1 0x27 PUSH1 0x24 DUP3 ADD MSTORE PUSH32 0x4E6F2072616E646F6D20776F7264732068617665206265656E2067656E657261 PUSH1 0x44 DUP3 ADD MSTORE PUSH32 0x7465642079657400000000000000000000000000000000000000000000000000 PUSH1 0x64 DUP3 ADD MSTORE PUSH1 0x84 ADD PUSH2 0x9E4 JUMP JUMPDEST PUSH1 0x8 SLOAD PUSH1 0x0 SWAP1 DUP2 MSTORE PUSH1 0x15 PUSH1 0x20 MSTORE PUSH1 0x40 DUP2 KECCAK256 PUSH1 0x1 ADD DUP1 SLOAD DUP3 SWAP1 PUSH2 0x3604 JUMPI PUSH2 0x3604 PUSH2 0x59B0 JUMP JUMPDEST PUSH1 0x0 SWAP2 DUP3 MSTORE PUSH1 0x20 SWAP1 SWAP2 KECCAK256 ADD SLOAD SWAP3 SWAP2 POP POP JUMP JUMPDEST PUSH1 0x4 SLOAD PUSH1 0x1 PUSH1 0x1 PUSH1 0xA0 SHL SUB AND CALLER EQ PUSH2 0x367F JUMPI PUSH1 0x40 MLOAD PUSH3 0x461BCD PUSH1 0xE5 SHL DUP2 MSTORE PUSH1 0x20 PUSH1 0x4 DUP3 ADD MSTORE PUSH1 0x26 PUSH1 0x24 DUP3 ADD MSTORE PUSH32 0x43616C6C6572206973206E6F742074686520436865636B5061796F757420636F PUSH1 0x44 DUP3 ADD MSTORE PUSH6 0x1B9D1C9858DD PUSH1 0xD2 SHL PUSH1 0x64 DUP3 ADD MSTORE PUSH1 0x84 ADD PUSH2 0x9E4 JUMP JUMPDEST PUSH1 0x1 PUSH1 0x1 PUSH1 0xA0 SHL SUB DUP3 AND PUSH1 0x0 DUP2 DUP2 MSTORE PUSH1 0x11 PUSH1 0x20 SWAP1 DUP2 MSTORE PUSH1 0x40 DUP1 DUP4 KECCAK256 DUP6 DUP5 MSTORE DUP3 MSTORE SWAP2 DUP3 SWAP1 KECCAK256 DUP1 SLOAD PUSH1 0xFF NOT AND PUSH1 0x2 OR SWAP1 SSTORE DUP2 MLOAD SWAP3 DUP4 MSTORE DUP3 ADD DUP4 SWAP1 MSTORE PUSH32 0x5E258A8DA32249E7D7E1EBCD6B64F7C97C4235999DB64B6687191B183D5E3F2 SWAP2 ADD JUMPDEST PUSH1 0x40 MLOAD DUP1 SWAP2 SUB SWAP1 LOG1 POP POP JUMP JUMPDEST PUSH1 0xD DUP1 SLOAD PUSH2 0x36F5 SWAP1 PUSH2 0x5904 JUMP JUMPDEST DUP1 PUSH1 0x1F ADD PUSH1 0x20 DUP1 SWAP2 DIV MUL PUSH1 0x20 ADD PUSH1 0x40 MLOAD SWAP1 DUP2 ADD PUSH1 0x40 MSTORE DUP1 SWAP3 SWAP2 SWAP1 DUP2 DUP2 MSTORE PUSH1 0x20 ADD DUP3 DUP1 SLOAD PUSH2 0x3721 SWAP1 PUSH2 0x5904 JUMP JUMPDEST DUP1 ISZERO PUSH2 0x376E JUMPI DUP1 PUSH1 0x1F LT PUSH2 0x3743 JUMPI PUSH2 0x100 DUP1 DUP4 SLOAD DIV MUL DUP4 MSTORE SWAP2 PUSH1 0x20 ADD SWAP2 PUSH2 0x376E JUMP JUMPDEST DUP3 ADD SWAP2 SWAP1 PUSH1 0x0 MSTORE PUSH1 0x20 PUSH1 0x0 KECCAK256 SWAP1 JUMPDEST DUP2 SLOAD DUP2 MSTORE SWAP1 PUSH1 0x1 ADD SWAP1 PUSH1 0x20 ADD DUP1 DUP4 GT PUSH2 0x3751 JUMPI DUP3 SWAP1 SUB PUSH1 0x1F AND DUP3 ADD SWAP2 JUMPDEST POP POP POP POP POP DUP2 JUMP JUMPDEST PUSH1 0x0 DUP1 SLOAD PUSH1 0x40 DUP1 MLOAD PUSH32 0xD328A91E00000000000000000000000000000000000000000000000000000000 DUP2 MSTORE SWAP1 MLOAD PUSH1 0x60 SWAP4 PUSH1 0x1 PUSH1 0x1 PUSH1 0xA0 SHL SUB SWAP1 SWAP4 AND SWAP3 PUSH4 0xD328A91E SWAP3 PUSH1 0x4 DUP1 DUP3 ADD SWAP4 SWAP2 DUP3 SWAP1 SUB ADD DUP2 DUP7 DUP1 EXTCODESIZE ISZERO DUP1 ISZERO PUSH2 0x37D3 JUMPI PUSH1 0x0 DUP1 REVERT JUMPDEST POP GAS STATICCALL ISZERO DUP1 ISZERO PUSH2 0x37E7 JUMPI RETURNDATASIZE PUSH1 0x0 DUP1 RETURNDATACOPY RETURNDATASIZE PUSH1 0x0 REVERT JUMPDEST POP POP POP POP PUSH1 0x40 MLOAD RETURNDATASIZE PUSH1 0x0 DUP3 RETURNDATACOPY PUSH1 0x1F RETURNDATASIZE SWAP1 DUP2 ADD PUSH1 0x1F NOT AND DUP3 ADD PUSH1 0x40 MSTORE PUSH2 0x123A SWAP2 SWAP1 DUP2 ADD SWAP1 PUSH2 0x4F61 JUMP JUMPDEST PUSH1 0x0 DUP1 SLOAD PUSH1 0x1 PUSH1 0x1 PUSH1 0xA0 SHL SUB AND PUSH4 0xD227D245 DUP6 PUSH2 0x382B DUP9 PUSH2 0x42EC JUMP JUMPDEST DUP7 DUP7 PUSH1 0x40 MLOAD DUP6 PUSH4 0xFFFFFFFF AND PUSH1 0xE0 SHL DUP2 MSTORE PUSH1 0x4 ADD PUSH2 0x384C SWAP5 SWAP4 SWAP3 SWAP2 SWAP1 PUSH2 0x5662 JUMP JUMPDEST PUSH1 0x20 PUSH1 0x40 MLOAD DUP1 DUP4 SUB DUP2 DUP7 DUP1 EXTCODESIZE ISZERO DUP1 ISZERO PUSH2 0x3864 JUMPI PUSH1 0x0 DUP1 REVERT JUMPDEST POP GAS STATICCALL ISZERO DUP1 ISZERO PUSH2 0x3878 JUMPI RETURNDATASIZE PUSH1 0x0 DUP1 RETURNDATACOPY RETURNDATASIZE PUSH1 0x0 REVERT JUMPDEST POP POP POP POP PUSH1 0x40 MLOAD RETURNDATASIZE PUSH1 0x1F NOT PUSH1 0x1F DUP3 ADD AND DUP3 ADD DUP1 PUSH1 0x40 MSTORE POP DUP2 ADD SWAP1 PUSH2 0x389C SWAP2 SWAP1 PUSH2 0x5240 JUMP JUMPDEST SWAP6 SWAP5 POP POP POP POP POP JUMP JUMPDEST PUSH1 0x0 DUP2 DUP2 MSTORE PUSH1 0x15 PUSH1 0x20 MSTORE PUSH1 0x40 DUP2 KECCAK256 SLOAD PUSH1 0x60 SWAP1 PUSH2 0x100 SWAP1 DIV PUSH1 0xFF AND PUSH2 0x390B JUMPI PUSH1 0x40 MLOAD PUSH3 0x461BCD PUSH1 0xE5 SHL DUP2 MSTORE PUSH1 0x20 PUSH1 0x4 DUP3 ADD MSTORE PUSH1 0x11 PUSH1 0x24 DUP3 ADD MSTORE PUSH32 0x72657175657374206E6F7420666F756E64000000000000000000000000000000 PUSH1 0x44 DUP3 ADD MSTORE PUSH1 0x64 ADD PUSH2 0x9E4 JUMP JUMPDEST PUSH1 0x0 DUP4 DUP2 MSTORE PUSH1 0x15 PUSH1 0x20 SWAP1 DUP2 MSTORE PUSH1 0x40 DUP1 DUP4 KECCAK256 DUP2 MLOAD PUSH1 0x60 DUP2 ADD DUP4 MSTORE DUP2 SLOAD PUSH1 0xFF DUP1 DUP3 AND ISZERO ISZERO DUP4 MSTORE PUSH2 0x100 SWAP1 SWAP2 DIV AND ISZERO ISZERO DUP2 DUP6 ADD MSTORE PUSH1 0x1 DUP3 ADD DUP1 SLOAD DUP5 MLOAD DUP2 DUP8 MUL DUP2 ADD DUP8 ADD DUP7 MSTORE DUP2 DUP2 MSTORE SWAP3 SWAP6 SWAP4 SWAP5 DUP7 ADD SWAP4 DUP4 ADD DUP3 DUP3 DUP1 ISZERO PUSH2 0x3986 JUMPI PUSH1 0x20 MUL DUP3 ADD SWAP2 SWAP1 PUSH1 0x0 MSTORE PUSH1 0x20 PUSH1 0x0 KECCAK256 SWAP1 JUMPDEST DUP2 SLOAD DUP2 MSTORE PUSH1 0x20 ADD SWAP1 PUSH1 0x1 ADD SWAP1 DUP1 DUP4 GT PUSH2 0x3972 JUMPI JUMPDEST POP POP POP POP POP DUP2 MSTORE POP POP SWAP1 POP DUP1 PUSH1 0x0 ADD MLOAD DUP2 PUSH1 0x40 ADD MLOAD SWAP3 POP SWAP3 POP POP SWAP2 POP SWAP2 JUMP JUMPDEST PUSH1 0x0 PUSH2 0x39AF PUSH2 0x3F20 JUMP JUMPDEST PUSH1 0x6 SLOAD PUSH1 0x9 SLOAD PUSH1 0xA SLOAD PUSH1 0x40 MLOAD PUSH32 0x5D3B1D3000000000000000000000000000000000000000000000000000000000 DUP2 MSTORE PUSH1 0x4 DUP2 ADD SWAP3 SWAP1 SWAP3 MSTORE PUSH21 0x10000000000000000000000000000000000000000 DUP4 DIV PUSH8 0xFFFFFFFFFFFFFFFF AND PUSH1 0x24 DUP4 ADD MSTORE PUSH5 0x100000000 DUP2 DIV PUSH2 0xFFFF AND PUSH1 0x44 DUP4 ADD MSTORE PUSH4 0xFFFFFFFF DUP1 DUP3 AND PUSH1 0x64 DUP5 ADD MSTORE PUSH7 0x1000000000000 SWAP1 SWAP2 DIV AND PUSH1 0x84 DUP3 ADD MSTORE PUSH1 0x1 PUSH1 0x1 PUSH1 0xA0 SHL SUB SWAP1 SWAP2 AND SWAP1 PUSH4 0x5D3B1D30 SWAP1 PUSH1 0xA4 ADD PUSH1 0x20 PUSH1 0x40 MLOAD DUP1 DUP4 SUB DUP2 PUSH1 0x0 DUP8 DUP1 EXTCODESIZE ISZERO DUP1 ISZERO PUSH2 0x3A6B JUMPI PUSH1 0x0 DUP1 REVERT JUMPDEST POP GAS CALL ISZERO DUP1 ISZERO PUSH2 0x3A7F JUMPI RETURNDATASIZE PUSH1 0x0 DUP1 RETURNDATACOPY RETURNDATASIZE PUSH1 0x0 REVERT JUMPDEST POP POP POP POP PUSH1 0x40 MLOAD RETURNDATASIZE PUSH1 0x1F NOT PUSH1 0x1F DUP3 ADD AND DUP3 ADD DUP1 PUSH1 0x40 MSTORE POP DUP2 ADD SWAP1 PUSH2 0x3AA3 SWAP2 SWAP1 PUSH2 0x4E9E JUMP JUMPDEST PUSH1 0x40 DUP1 MLOAD PUSH1 0x60 DUP2 ADD DUP3 MSTORE PUSH1 0x0 DUP1 DUP3 MSTORE PUSH1 0x1 PUSH1 0x20 DUP1 DUP5 ADD DUP3 DUP2 MSTORE DUP6 MLOAD DUP5 DUP2 MSTORE DUP1 DUP4 ADD DUP8 MSTORE DUP6 DUP8 ADD SWAP1 DUP2 MSTORE DUP8 DUP6 MSTORE PUSH1 0x15 DUP4 MSTORE SWAP6 SWAP1 SWAP4 KECCAK256 DUP5 MLOAD DUP2 SLOAD SWAP5 MLOAD PUSH2 0xFFFF NOT SWAP1 SWAP6 AND SWAP1 ISZERO ISZERO PUSH2 0xFF00 NOT AND OR PUSH2 0x100 SWAP5 ISZERO ISZERO SWAP5 SWAP1 SWAP5 MUL SWAP4 SWAP1 SWAP4 OR DUP4 SSTORE SWAP4 MLOAD DUP1 MLOAD SWAP6 SWAP7 POP SWAP3 SWAP5 SWAP2 SWAP4 PUSH2 0x3B18 SWAP4 SWAP2 DUP6 ADD SWAP3 SWAP2 ADD SWAP1 PUSH2 0x4C18 JUMP JUMPDEST POP POP PUSH1 0x7 DUP1 SLOAD PUSH1 0x1 DUP2 ADD SWAP1 SWAP2 SSTORE PUSH32 0xA66CC928B5EDB82AF9BD49922954155AB7B0942694BEA4CE44661D9A8736C688 ADD DUP3 SWAP1 SSTORE POP PUSH1 0x8 DUP2 SWAP1 SSTORE PUSH1 0x0 DUP2 DUP2 MSTORE PUSH1 0x14 PUSH1 0x20 SWAP1 DUP2 MSTORE PUSH1 0x40 SWAP2 DUP3 SWAP1 KECCAK256 DUP1 SLOAD CALLER PUSH1 0x1 PUSH1 0x1 PUSH1 0xA0 SHL SUB NOT SWAP1 SWAP2 AND OR SWAP1 SSTORE PUSH1 0xA SLOAD DUP3 MLOAD DUP5 DUP2 MSTORE PUSH7 0x1000000000000 SWAP1 SWAP2 DIV PUSH4 0xFFFFFFFF AND SWAP2 DUP2 ADD SWAP2 SWAP1 SWAP2 MSTORE PUSH32 0xCC58B13AD3EAB50626C6A6300B1D139CD6EBB1688A7CCED9461C2F7E762665EE SWAP2 ADD PUSH1 0x40 MLOAD DUP1 SWAP2 SUB SWAP1 LOG1 SWAP1 JUMP JUMPDEST PUSH1 0xB SLOAD PUSH1 0x40 DUP1 MLOAD PUSH32 0x8E15F47300000000000000000000000000000000000000000000000000000000 DUP2 MSTORE SWAP1 MLOAD PUSH1 0x0 SWAP3 PUSH1 0x1 PUSH1 0x1 PUSH1 0xA0 SHL SUB AND SWAP2 PUSH4 0x8E15F473 SWAP2 PUSH1 0x4 DUP1 DUP4 ADD SWAP3 PUSH1 0x20 SWAP3 SWAP2 SWAP1 DUP3 SWAP1 SUB ADD DUP2 DUP7 DUP1 EXTCODESIZE ISZERO DUP1 ISZERO PUSH2 0x1202 JUMPI PUSH1 0x0 DUP1 REVERT JUMPDEST PUSH1 0x4 SLOAD PUSH1 0x1 PUSH1 0x1 PUSH1 0xA0 SHL SUB AND CALLER EQ PUSH2 0x3C89 JUMPI PUSH1 0x40 MLOAD PUSH3 0x461BCD PUSH1 0xE5 SHL DUP2 MSTORE PUSH1 0x20 PUSH1 0x4 DUP3 ADD MSTORE PUSH1 0x26 PUSH1 0x24 DUP3 ADD MSTORE PUSH32 0x43616C6C6572206973206E6F742074686520436865636B5061796F757420636F PUSH1 0x44 DUP3 ADD MSTORE PUSH6 0x1B9D1C9858DD PUSH1 0xD2 SHL PUSH1 0x64 DUP3 ADD MSTORE PUSH1 0x84 ADD PUSH2 0x9E4 JUMP JUMPDEST PUSH1 0x0 PUSH2 0x3C93 PUSH2 0x3BC2 JUMP JUMPDEST SWAP1 POP PUSH1 0x0 DUP2 PUSH2 0x3CA6 DUP5 PUSH4 0x5F5E100 PUSH2 0x58A2 JUMP JUMPDEST PUSH2 0x3CB0 SWAP2 SWAP1 PUSH2 0x57A3 JUMP JUMPDEST PUSH1 0x40 MLOAD SWAP1 SWAP2 POP PUSH1 0x1 PUSH1 0x1 PUSH1 0xA0 SHL SUB DUP6 AND SWAP1 DUP3 ISZERO PUSH2 0x8FC MUL SWAP1 DUP4 SWAP1 PUSH1 0x0 DUP2 DUP2 DUP2 DUP6 DUP9 DUP9 CALL SWAP4 POP POP POP POP ISZERO DUP1 ISZERO PUSH2 0x3CE9 JUMPI RETURNDATASIZE PUSH1 0x0 DUP1 RETURNDATACOPY RETURNDATASIZE PUSH1 0x0 REVERT JUMPDEST POP PUSH1 0x40 DUP1 MLOAD PUSH1 0x1 PUSH1 0x1 PUSH1 0xA0 SHL SUB DUP7 AND DUP2 MSTORE PUSH1 0x20 DUP2 ADD DUP4 SWAP1 MSTORE PUSH32 0x188C4D19B4FADD1889D9BD9BF0AB7C97E0719434751E6C05FEAC6339C1C001EC SWAP2 ADD PUSH1 0x40 MLOAD DUP1 SWAP2 SUB SWAP1 LOG1 POP POP POP POP JUMP JUMPDEST PUSH2 0x3D3A PUSH2 0x3F20 JUMP JUMPDEST PUSH2 0x3D43 DUP2 PUSH2 0x45B8 JUMP JUMPDEST POP JUMP JUMPDEST PUSH2 0x3D4E PUSH2 0x3F20 JUMP JUMPDEST PUSH1 0x0 DUP1 SLOAD PUSH1 0x1 PUSH1 0x1 PUSH1 0xA0 SHL SUB NOT AND PUSH1 0x1 PUSH1 0x1 PUSH1 0xA0 SHL SUB DUP4 AND OR SWAP1 SSTORE POP JUMP JUMPDEST PUSH1 0xE DUP1 SLOAD PUSH2 0x36F5 SWAP1 PUSH2 0x5904 JUMP JUMPDEST PUSH1 0x0 DUP4 DUP2 MSTORE PUSH1 0x12 PUSH1 0x20 MSTORE PUSH1 0x40 DUP2 KECCAK256 SWAP1 PUSH2 0x3D93 DUP5 PUSH1 0x20 ADD MLOAD SWAP1 JUMP JUMPDEST PUSH1 0x2 DUP4 ADD DUP2 SWAP1 SSTORE DUP5 MLOAD SWAP1 SWAP2 POP PUSH2 0x3DB0 SWAP1 PUSH1 0xD SWAP1 PUSH1 0x20 DUP8 ADD SWAP1 PUSH2 0x4B94 JUMP JUMPDEST POP DUP3 MLOAD PUSH2 0x3DC4 SWAP1 PUSH1 0xE SWAP1 PUSH1 0x20 DUP7 ADD SWAP1 PUSH2 0x4B94 JUMP JUMPDEST POP DUP5 PUSH32 0x7BAB0EC163B5C132C72B8146AC4D6E067E82ED58F8B131150AA71C9258911562 DUP6 DUP6 PUSH1 0x40 MLOAD PUSH2 0x3DF7 SWAP3 SWAP2 SWAP1 PUSH2 0x54AA JUMP JUMPDEST PUSH1 0x40 MLOAD DUP1 SWAP2 SUB SWAP1 LOG2 DUP2 SLOAD PUSH1 0x1 DUP4 ADD SLOAD PUSH1 0x2 DUP5 ADD SLOAD PUSH1 0x40 DUP1 MLOAD PUSH1 0x1 PUSH1 0x1 PUSH1 0xA0 SHL SUB SWAP1 SWAP5 AND DUP5 MSTORE PUSH1 0x20 DUP5 ADD SWAP3 SWAP1 SWAP3 MSTORE DUP3 DUP3 ADD MSTORE MLOAD PUSH32 0x93ACEB1C5E55AA194781A0423A101B97EFA4A051E8D2FC2BA332CA75F4E4B6A7 SWAP2 DUP2 SWAP1 SUB PUSH1 0x60 ADD SWAP1 LOG1 POP POP POP POP POP JUMP JUMPDEST PUSH1 0x0 DUP3 DUP2 MSTORE PUSH1 0x15 PUSH1 0x20 MSTORE PUSH1 0x40 SWAP1 KECCAK256 SLOAD PUSH2 0x100 SWAP1 DIV PUSH1 0xFF AND PUSH2 0x3EBD JUMPI PUSH1 0x40 MLOAD PUSH3 0x461BCD PUSH1 0xE5 SHL DUP2 MSTORE PUSH1 0x20 PUSH1 0x4 DUP3 ADD MSTORE PUSH1 0x11 PUSH1 0x24 DUP3 ADD MSTORE PUSH32 0x72657175657374206E6F7420666F756E64000000000000000000000000000000 PUSH1 0x44 DUP3 ADD MSTORE PUSH1 0x64 ADD PUSH2 0x9E4 JUMP JUMPDEST PUSH1 0x0 DUP3 DUP2 MSTORE PUSH1 0x15 PUSH1 0x20 SWAP1 DUP2 MSTORE PUSH1 0x40 SWAP1 SWAP2 KECCAK256 DUP1 SLOAD PUSH1 0xFF NOT AND PUSH1 0x1 SWAP1 DUP2 OR DUP3 SSTORE DUP4 MLOAD PUSH2 0x3EEE SWAP4 SWAP3 SWAP1 SWAP2 ADD SWAP2 DUP5 ADD SWAP1 PUSH2 0x4C18 JUMP JUMPDEST POP PUSH32 0xFE2E2D779DBA245964D4E3EF9B994BE63856FD568BF7D3CA9E224755CB1BD54D DUP3 DUP3 PUSH1 0x40 MLOAD PUSH2 0x36DC SWAP3 SWAP2 SWAP1 PUSH2 0x5610 JUMP JUMPDEST PUSH1 0x2 SLOAD PUSH1 0x1 PUSH1 0x1 PUSH1 0xA0 SHL SUB AND CALLER EQ PUSH2 0x3F7A JUMPI PUSH1 0x40 MLOAD PUSH3 0x461BCD PUSH1 0xE5 SHL DUP2 MSTORE PUSH1 0x20 PUSH1 0x4 DUP3 ADD MSTORE PUSH1 0x16 PUSH1 0x24 DUP3 ADD MSTORE PUSH32 0x4F6E6C792063616C6C61626C65206279206F776E657200000000000000000000 PUSH1 0x44 DUP3 ADD MSTORE PUSH1 0x64 ADD PUSH2 0x9E4 JUMP JUMPDEST JUMP JUMPDEST PUSH1 0x0 DUP2 DUP2 MSTORE PUSH1 0x1 PUSH1 0x20 MSTORE PUSH1 0x40 SWAP1 KECCAK256 SLOAD DUP2 SWAP1 PUSH1 0x1 PUSH1 0x1 PUSH1 0xA0 SHL SUB AND ISZERO PUSH2 0x3FCD JUMPI PUSH1 0x40 MLOAD PUSH32 0x8B457AD200000000000000000000000000000000000000000000000000000000 DUP2 MSTORE PUSH1 0x4 ADD PUSH1 0x40 MLOAD DUP1 SWAP2 SUB SWAP1 REVERT JUMPDEST POP PUSH1 0x0 SWAP1 DUP2 MSTORE PUSH1 0x1 PUSH1 0x20 MSTORE PUSH1 0x40 SWAP1 KECCAK256 DUP1 SLOAD PUSH1 0x1 PUSH1 0x1 PUSH1 0xA0 SHL SUB NOT AND PUSH1 0x1 PUSH1 0x1 PUSH1 0xA0 SHL SUB SWAP3 SWAP1 SWAP3 AND SWAP2 SWAP1 SWAP2 OR SWAP1 SSTORE JUMP JUMPDEST PUSH1 0x60 PUSH1 0x0 PUSH2 0x4009 DUP4 PUSH2 0x4663 JUMP JUMPDEST PUSH1 0x1 ADD SWAP1 POP PUSH1 0x0 DUP2 PUSH8 0xFFFFFFFFFFFFFFFF DUP2 GT ISZERO PUSH2 0x4029 JUMPI PUSH2 0x4029 PUSH2 0x59C6 JUMP JUMPDEST PUSH1 0x40 MLOAD SWAP1 DUP1 DUP3 MSTORE DUP1 PUSH1 0x1F ADD PUSH1 0x1F NOT AND PUSH1 0x20 ADD DUP3 ADD PUSH1 0x40 MSTORE DUP1 ISZERO PUSH2 0x4053 JUMPI PUSH1 0x20 DUP3 ADD DUP2 DUP1 CALLDATASIZE DUP4 CALLDATACOPY ADD SWAP1 POP JUMPDEST POP SWAP1 POP DUP2 DUP2 ADD PUSH1 0x20 ADD JUMPDEST PUSH1 0x0 NOT ADD PUSH32 0x3031323334353637383961626364656600000000000000000000000000000000 PUSH1 0xA DUP7 MOD BYTE DUP2 MSTORE8 PUSH1 0xA DUP6 DIV SWAP5 POP DUP5 PUSH2 0x4099 JUMPI PUSH2 0x409E JUMP JUMPDEST PUSH2 0x405D JUMP JUMPDEST POP SWAP4 SWAP3 POP POP POP JUMP JUMPDEST DUP1 MLOAD PUSH2 0x40DE JUMPI PUSH1 0x40 MLOAD PUSH32 0x22CE3EDD00000000000000000000000000000000000000000000000000000000 DUP2 MSTORE PUSH1 0x4 ADD PUSH1 0x40 MLOAD DUP1 SWAP2 SUB SWAP1 REVERT JUMPDEST DUP4 DUP4 PUSH1 0x1 DUP2 GT ISZERO PUSH2 0x40F1 JUMPI PUSH2 0x40F1 PUSH2 0x599A JUMP JUMPDEST SWAP1 DUP2 PUSH1 0x1 DUP2 GT ISZERO PUSH2 0x4104 JUMPI PUSH2 0x4104 PUSH2 0x599A JUMP JUMPDEST SWAP1 MSTORE POP PUSH1 0x40 DUP5 ADD DUP3 DUP1 ISZERO PUSH2 0x411A JUMPI PUSH2 0x411A PUSH2 0x599A JUMP JUMPDEST SWAP1 DUP2 DUP1 ISZERO PUSH2 0x412A JUMPI PUSH2 0x412A PUSH2 0x599A JUMP JUMPDEST SWAP1 MSTORE POP PUSH1 0x60 SWAP1 SWAP4 ADD SWAP3 SWAP1 SWAP3 MSTORE POP POP JUMP JUMPDEST DUP1 MLOAD PUSH2 0x4172 JUMPI PUSH1 0x40 MLOAD PUSH32 0xFE936CB700000000000000000000000000000000000000000000000000000000 DUP2 MSTORE PUSH1 0x4 ADD PUSH1 0x40 MLOAD DUP1 SWAP2 SUB SWAP1 REVERT JUMPDEST PUSH1 0xA0 SWAP1 SWAP2 ADD MSTORE JUMP JUMPDEST PUSH1 0x0 DUP1 SLOAD DUP2 SWAP1 PUSH1 0x1 PUSH1 0x1 PUSH1 0xA0 SHL SUB AND PUSH4 0x28242B04 DUP6 PUSH2 0x4198 DUP9 PUSH2 0x42EC JUMP JUMPDEST DUP7 PUSH1 0x40 MLOAD DUP5 PUSH4 0xFFFFFFFF AND PUSH1 0xE0 SHL DUP2 MSTORE PUSH1 0x4 ADD PUSH2 0x41B7 SWAP4 SWAP3 SWAP2 SWAP1 PUSH2 0x5629 JUMP JUMPDEST PUSH1 0x20 PUSH1 0x40 MLOAD DUP1 DUP4 SUB DUP2 PUSH1 0x0 DUP8 DUP1 EXTCODESIZE ISZERO DUP1 ISZERO PUSH2 0x41D1 JUMPI PUSH1 0x0 DUP1 REVERT JUMPDEST POP GAS CALL ISZERO DUP1 ISZERO PUSH2 0x41E5 JUMPI RETURNDATASIZE PUSH1 0x0 DUP1 RETURNDATACOPY RETURNDATASIZE PUSH1 0x0 REVERT JUMPDEST POP POP POP POP PUSH1 0x40 MLOAD RETURNDATASIZE PUSH1 0x1F NOT PUSH1 0x1F DUP3 ADD AND DUP3 ADD DUP1 PUSH1 0x40 MSTORE POP DUP2 ADD SWAP1 PUSH2 0x4209 SWAP2 SWAP1 PUSH2 0x4E9E JUMP JUMPDEST SWAP1 POP PUSH1 0x0 DUP1 SLOAD SWAP1 PUSH2 0x100 EXP SWAP1 DIV PUSH1 0x1 PUSH1 0x1 PUSH1 0xA0 SHL SUB AND PUSH1 0x1 PUSH1 0x1 PUSH1 0xA0 SHL SUB AND PUSH4 0x5AB1BD53 PUSH1 0x40 MLOAD DUP2 PUSH4 0xFFFFFFFF AND PUSH1 0xE0 SHL DUP2 MSTORE PUSH1 0x4 ADD PUSH1 0x20 PUSH1 0x40 MLOAD DUP1 DUP4 SUB DUP2 DUP7 DUP1 EXTCODESIZE ISZERO DUP1 ISZERO PUSH2 0x4257 JUMPI PUSH1 0x0 DUP1 REVERT JUMPDEST POP GAS STATICCALL ISZERO DUP1 ISZERO PUSH2 0x426B JUMPI RETURNDATASIZE PUSH1 0x0 DUP1 RETURNDATACOPY RETURNDATASIZE PUSH1 0x0 REVERT JUMPDEST POP POP POP POP PUSH1 0x40 MLOAD RETURNDATASIZE PUSH1 0x1F NOT PUSH1 0x1F DUP3 ADD AND DUP3 ADD DUP1 PUSH1 0x40 MSTORE POP DUP2 ADD SWAP1 PUSH2 0x428F SWAP2 SWAP1 PUSH2 0x4E3C JUMP JUMPDEST PUSH1 0x0 DUP3 DUP2 MSTORE PUSH1 0x1 PUSH1 0x20 MSTORE PUSH1 0x40 DUP1 DUP3 KECCAK256 DUP1 SLOAD PUSH1 0x1 PUSH1 0x1 PUSH1 0xA0 SHL SUB NOT AND PUSH1 0x1 PUSH1 0x1 PUSH1 0xA0 SHL SUB SWAP5 SWAP1 SWAP5 AND SWAP4 SWAP1 SWAP4 OR SWAP1 SWAP3 SSTORE SWAP1 MLOAD DUP3 SWAP2 PUSH32 0x1131472297A800FEE664D1D89CFA8F7676FF07189ECC53F80BBB5F4969099DB8 SWAP2 LOG2 SWAP5 SWAP4 POP POP POP POP JUMP JUMPDEST PUSH1 0x60 PUSH2 0x42F6 PUSH2 0x4C52 JUMP JUMPDEST DUP1 MLOAD PUSH2 0x4304 SWAP1 PUSH2 0x100 PUSH2 0x4745 JUMP JUMPDEST POP PUSH2 0x4344 DUP2 PUSH1 0x40 MLOAD DUP1 PUSH1 0x40 ADD PUSH1 0x40 MSTORE DUP1 PUSH1 0xC DUP2 MSTORE PUSH1 0x20 ADD PUSH32 0x636F64654C6F636174696F6E0000000000000000000000000000000000000000 DUP2 MSTORE POP PUSH2 0x47BC JUMP JUMPDEST PUSH2 0x4363 DUP2 DUP5 PUSH1 0x0 ADD MLOAD PUSH1 0x1 DUP2 GT ISZERO PUSH2 0x435E JUMPI PUSH2 0x435E PUSH2 0x599A JUMP JUMPDEST PUSH2 0x47DA JUMP JUMPDEST PUSH2 0x43A2 DUP2 PUSH1 0x40 MLOAD DUP1 PUSH1 0x40 ADD PUSH1 0x40 MSTORE DUP1 PUSH1 0x8 DUP2 MSTORE PUSH1 0x20 ADD PUSH32 0x6C616E6775616765000000000000000000000000000000000000000000000000 DUP2 MSTORE POP PUSH2 0x47BC JUMP JUMPDEST PUSH2 0x43BC DUP2 DUP5 PUSH1 0x40 ADD MLOAD PUSH1 0x0 DUP2 GT ISZERO PUSH2 0x435E JUMPI PUSH2 0x435E PUSH2 0x599A JUMP JUMPDEST PUSH2 0x43FB DUP2 PUSH1 0x40 MLOAD DUP1 PUSH1 0x40 ADD PUSH1 0x40 MSTORE DUP1 PUSH1 0x6 DUP2 MSTORE PUSH1 0x20 ADD PUSH32 0x736F757263650000000000000000000000000000000000000000000000000000 DUP2 MSTORE POP PUSH2 0x47BC JUMP JUMPDEST PUSH2 0x4409 DUP2 DUP5 PUSH1 0x60 ADD MLOAD PUSH2 0x47BC JUMP JUMPDEST PUSH1 0xA0 DUP4 ADD MLOAD MLOAD ISZERO PUSH2 0x44AF JUMPI PUSH2 0x4453 DUP2 PUSH1 0x40 MLOAD DUP1 PUSH1 0x40 ADD PUSH1 0x40 MSTORE DUP1 PUSH1 0x4 DUP2 MSTORE PUSH1 0x20 ADD PUSH32 0x6172677300000000000000000000000000000000000000000000000000000000 DUP2 MSTORE POP PUSH2 0x47BC JUMP JUMPDEST PUSH2 0x445C DUP2 PUSH2 0x4813 JUMP JUMPDEST PUSH1 0x0 JUMPDEST DUP4 PUSH1 0xA0 ADD MLOAD MLOAD DUP2 LT ISZERO PUSH2 0x44A5 JUMPI PUSH2 0x4493 DUP3 DUP6 PUSH1 0xA0 ADD MLOAD DUP4 DUP2 MLOAD DUP2 LT PUSH2 0x4486 JUMPI PUSH2 0x4486 PUSH2 0x59B0 JUMP JUMPDEST PUSH1 0x20 MUL PUSH1 0x20 ADD ADD MLOAD PUSH2 0x47BC JUMP JUMPDEST DUP1 PUSH2 0x449D DUP2 PUSH2 0x593F JUMP JUMPDEST SWAP2 POP POP PUSH2 0x445F JUMP JUMPDEST POP PUSH2 0x44AF DUP2 PUSH2 0x4837 JUMP JUMPDEST PUSH1 0x80 DUP4 ADD MLOAD MLOAD ISZERO PUSH2 0x45B0 JUMPI PUSH1 0x0 DUP4 PUSH1 0x20 ADD MLOAD PUSH1 0x1 DUP2 GT ISZERO PUSH2 0x44D2 JUMPI PUSH2 0x44D2 PUSH2 0x599A JUMP JUMPDEST EQ ISZERO PUSH2 0x450A JUMPI PUSH1 0x40 MLOAD PUSH32 0xA80D31F700000000000000000000000000000000000000000000000000000000 DUP2 MSTORE PUSH1 0x4 ADD PUSH1 0x40 MLOAD DUP1 SWAP2 SUB SWAP1 REVERT JUMPDEST PUSH2 0x4549 DUP2 PUSH1 0x40 MLOAD DUP1 PUSH1 0x40 ADD PUSH1 0x40 MSTORE DUP1 PUSH1 0xF DUP2 MSTORE PUSH1 0x20 ADD PUSH32 0x736563726574734C6F636174696F6E0000000000000000000000000000000000 DUP2 MSTORE POP PUSH2 0x47BC JUMP JUMPDEST PUSH2 0x4563 DUP2 DUP5 PUSH1 0x20 ADD MLOAD PUSH1 0x1 DUP2 GT ISZERO PUSH2 0x435E JUMPI PUSH2 0x435E PUSH2 0x599A JUMP JUMPDEST PUSH2 0x45A2 DUP2 PUSH1 0x40 MLOAD DUP1 PUSH1 0x40 ADD PUSH1 0x40 MSTORE DUP1 PUSH1 0x7 DUP2 MSTORE PUSH1 0x20 ADD PUSH32 0x7365637265747300000000000000000000000000000000000000000000000000 DUP2 MSTORE POP PUSH2 0x47BC JUMP JUMPDEST PUSH2 0x45B0 DUP2 DUP5 PUSH1 0x80 ADD MLOAD PUSH2 0x4855 JUMP JUMPDEST MLOAD MLOAD SWAP3 SWAP2 POP POP JUMP JUMPDEST PUSH1 0x1 PUSH1 0x1 PUSH1 0xA0 SHL SUB DUP2 AND CALLER EQ ISZERO PUSH2 0x4611 JUMPI PUSH1 0x40 MLOAD PUSH3 0x461BCD PUSH1 0xE5 SHL DUP2 MSTORE PUSH1 0x20 PUSH1 0x4 DUP3 ADD MSTORE PUSH1 0x17 PUSH1 0x24 DUP3 ADD MSTORE PUSH32 0x43616E6E6F74207472616E7366657220746F2073656C66000000000000000000 PUSH1 0x44 DUP3 ADD MSTORE PUSH1 0x64 ADD PUSH2 0x9E4 JUMP JUMPDEST PUSH1 0x3 DUP1 SLOAD PUSH1 0x1 PUSH1 0x1 PUSH1 0xA0 SHL SUB NOT AND PUSH1 0x1 PUSH1 0x1 PUSH1 0xA0 SHL SUB DUP4 DUP2 AND SWAP2 DUP3 OR SWAP1 SWAP3 SSTORE PUSH1 0x2 SLOAD PUSH1 0x40 MLOAD SWAP2 SWAP3 AND SWAP1 PUSH32 0xED8889F560326EB138920D842192F0EB3DD22B4F139C87A2C57538E05BAE1278 SWAP1 PUSH1 0x0 SWAP1 LOG3 POP JUMP JUMPDEST PUSH1 0x0 DUP1 PUSH27 0x184F03E93FF9F4DAA797ED6E38ED64BF6A1F010000000000000000 DUP4 LT PUSH2 0x46AC JUMPI PUSH27 0x184F03E93FF9F4DAA797ED6E38ED64BF6A1F010000000000000000 DUP4 DIV SWAP3 POP PUSH1 0x40 ADD JUMPDEST PUSH14 0x4EE2D6D415B85ACEF8100000000 DUP4 LT PUSH2 0x46D8 JUMPI PUSH14 0x4EE2D6D415B85ACEF8100000000 DUP4 DIV SWAP3 POP PUSH1 0x20 ADD JUMPDEST PUSH7 0x2386F26FC10000 DUP4 LT PUSH2 0x46F6 JUMPI PUSH7 0x2386F26FC10000 DUP4 DIV SWAP3 POP PUSH1 0x10 ADD JUMPDEST PUSH4 0x5F5E100 DUP4 LT PUSH2 0x470E JUMPI PUSH4 0x5F5E100 DUP4 DIV SWAP3 POP PUSH1 0x8 ADD JUMPDEST PUSH2 0x2710 DUP4 LT PUSH2 0x4722 JUMPI PUSH2 0x2710 DUP4 DIV SWAP3 POP PUSH1 0x4 ADD JUMPDEST PUSH1 0x64 DUP4 LT PUSH2 0x4734 JUMPI PUSH1 0x64 DUP4 DIV SWAP3 POP PUSH1 0x2 ADD JUMPDEST PUSH1 0xA DUP4 LT PUSH2 0x1DBB JUMPI PUSH1 0x1 ADD SWAP3 SWAP2 POP POP JUMP JUMPDEST PUSH1 0x40 DUP1 MLOAD DUP1 DUP3 ADD SWAP1 SWAP2 MSTORE PUSH1 0x60 DUP2 MSTORE PUSH1 0x0 PUSH1 0x20 DUP3 ADD MSTORE PUSH2 0x4765 PUSH1 0x20 DUP4 PUSH2 0x595A JUMP JUMPDEST ISZERO PUSH2 0x478D JUMPI PUSH2 0x4775 PUSH1 0x20 DUP4 PUSH2 0x595A JUMP JUMPDEST PUSH2 0x4780 SWAP1 PUSH1 0x20 PUSH2 0x58C1 JUMP JUMPDEST PUSH2 0x478A SWAP1 DUP4 PUSH2 0x578B JUMP JUMPDEST SWAP2 POP JUMPDEST PUSH1 0x20 DUP1 DUP5 ADD DUP4 SWAP1 MSTORE PUSH1 0x40 MLOAD DUP1 DUP6 MSTORE PUSH1 0x0 DUP2 MSTORE SWAP1 DUP2 DUP5 ADD ADD DUP2 DUP2 LT ISZERO PUSH2 0x47B1 JUMPI PUSH1 0x0 DUP1 REVERT JUMPDEST PUSH1 0x40 MSTORE POP SWAP2 SWAP3 SWAP2 POP POP JUMP JUMPDEST PUSH2 0x47C9 DUP3 PUSH1 0x3 DUP4 MLOAD PUSH2 0x485E JUMP JUMPDEST DUP2 MLOAD PUSH2 0x47D5 SWAP1 DUP3 PUSH2 0x497F JUMP JUMPDEST POP POP POP JUMP JUMPDEST DUP2 MLOAD PUSH2 0x47E7 SWAP1 PUSH1 0xC2 PUSH2 0x49A7 JUMP JUMPDEST POP PUSH2 0x1529 DUP3 DUP3 PUSH1 0x40 MLOAD PUSH1 0x20 ADD PUSH2 0x47FF SWAP2 DUP2 MSTORE PUSH1 0x20 ADD SWAP1 JUMP JUMPDEST PUSH1 0x40 MLOAD PUSH1 0x20 DUP2 DUP4 SUB SUB DUP2 MSTORE SWAP1 PUSH1 0x40 MSTORE PUSH2 0x4855 JUMP JUMPDEST PUSH2 0x481E DUP2 PUSH1 0x4 PUSH2 0x4A10 JUMP JUMPDEST PUSH1 0x1 DUP2 PUSH1 0x20 ADD DUP2 DUP2 MLOAD PUSH2 0x4831 SWAP2 SWAP1 PUSH2 0x578B JUMP JUMPDEST SWAP1 MSTORE POP POP JUMP JUMPDEST PUSH2 0x4842 DUP2 PUSH1 0x7 PUSH2 0x4A10 JUMP JUMPDEST PUSH1 0x1 DUP2 PUSH1 0x20 ADD DUP2 DUP2 MLOAD PUSH2 0x4831 SWAP2 SWAP1 PUSH2 0x58C1 JUMP JUMPDEST PUSH2 0x47C9 DUP3 PUSH1 0x2 DUP4 MLOAD JUMPDEST PUSH1 0x17 DUP2 PUSH8 0xFFFFFFFFFFFFFFFF AND GT PUSH2 0x4885 JUMPI DUP3 MLOAD PUSH2 0x1486 SWAP1 PUSH1 0xE0 PUSH1 0x5 DUP6 SWAP1 SHL AND DUP4 OR PUSH2 0x49A7 JUMP JUMPDEST PUSH1 0xFF DUP2 PUSH8 0xFFFFFFFFFFFFFFFF AND GT PUSH2 0x48C7 JUMPI DUP3 MLOAD PUSH2 0x48AE SWAP1 PUSH1 0x18 PUSH2 0x1FE0 PUSH1 0x5 DUP7 SWAP1 SHL AND OR PUSH2 0x49A7 JUMP JUMPDEST POP DUP3 MLOAD PUSH2 0x1486 SWAP1 PUSH8 0xFFFFFFFFFFFFFFFF DUP4 AND PUSH1 0x1 PUSH2 0x4A27 JUMP JUMPDEST PUSH2 0xFFFF DUP2 PUSH8 0xFFFFFFFFFFFFFFFF AND GT PUSH2 0x490A JUMPI DUP3 MLOAD PUSH2 0x48F1 SWAP1 PUSH1 0x19 PUSH2 0x1FE0 PUSH1 0x5 DUP7 SWAP1 SHL AND OR PUSH2 0x49A7 JUMP JUMPDEST POP DUP3 MLOAD PUSH2 0x1486 SWAP1 PUSH8 0xFFFFFFFFFFFFFFFF DUP4 AND PUSH1 0x2 PUSH2 0x4A27 JUMP JUMPDEST PUSH4 0xFFFFFFFF DUP2 PUSH8 0xFFFFFFFFFFFFFFFF AND GT PUSH2 0x494F JUMPI DUP3 MLOAD PUSH2 0x4936 SWAP1 PUSH1 0x1A PUSH2 0x1FE0 PUSH1 0x5 DUP7 SWAP1 SHL AND OR PUSH2 0x49A7 JUMP JUMPDEST POP DUP3 MLOAD PUSH2 0x1486 SWAP1 PUSH8 0xFFFFFFFFFFFFFFFF DUP4 AND PUSH1 0x4 PUSH2 0x4A27 JUMP JUMPDEST DUP3 MLOAD PUSH2 0x4966 SWAP1 PUSH1 0x1B PUSH2 0x1FE0 PUSH1 0x5 DUP7 SWAP1 SHL AND OR PUSH2 0x49A7 JUMP JUMPDEST POP DUP3 MLOAD PUSH2 0x1486 SWAP1 PUSH8 0xFFFFFFFFFFFFFFFF DUP4 AND PUSH1 0x8 PUSH2 0x4A27 JUMP JUMPDEST PUSH1 0x40 DUP1 MLOAD DUP1 DUP3 ADD SWAP1 SWAP2 MSTORE PUSH1 0x60 DUP2 MSTORE PUSH1 0x0 PUSH1 0x20 DUP3 ADD MSTORE PUSH2 0x49A0 DUP4 DUP4 DUP5 MLOAD PUSH2 0x4AAC JUMP JUMPDEST SWAP4 SWAP3 POP POP POP JUMP JUMPDEST PUSH1 0x40 DUP1 MLOAD DUP1 DUP3 ADD SWAP1 SWAP2 MSTORE PUSH1 0x60 DUP2 MSTORE PUSH1 0x0 PUSH1 0x20 DUP3 ADD MSTORE DUP3 MLOAD MLOAD PUSH1 0x0 PUSH2 0x49CC DUP3 PUSH1 0x1 PUSH2 0x578B JUMP JUMPDEST SWAP1 POP DUP5 PUSH1 0x20 ADD MLOAD DUP3 LT PUSH2 0x49ED JUMPI PUSH2 0x49ED DUP6 PUSH2 0x49E8 DUP4 PUSH1 0x2 PUSH2 0x58A2 JUMP JUMPDEST PUSH2 0x4B7D JUMP JUMPDEST DUP5 MLOAD PUSH1 0x20 DUP4 DUP3 ADD ADD DUP6 DUP2 MSTORE8 POP DUP1 MLOAD DUP3 GT ISZERO PUSH2 0x4A06 JUMPI DUP2 DUP2 MSTORE JUMPDEST POP SWAP4 SWAP5 SWAP4 POP POP POP POP JUMP JUMPDEST DUP2 MLOAD PUSH2 0x47D5 SWAP1 PUSH1 0x1F PUSH2 0x1FE0 PUSH1 0x5 DUP6 SWAP1 SHL AND OR PUSH2 0x49A7 JUMP JUMPDEST PUSH1 0x40 DUP1 MLOAD DUP1 DUP3 ADD SWAP1 SWAP2 MSTORE PUSH1 0x60 DUP2 MSTORE PUSH1 0x0 PUSH1 0x20 DUP3 ADD MSTORE DUP4 MLOAD MLOAD PUSH1 0x0 PUSH2 0x4A4B DUP3 DUP6 PUSH2 0x578B JUMP JUMPDEST SWAP1 POP DUP6 PUSH1 0x20 ADD MLOAD DUP2 GT ISZERO PUSH2 0x4A68 JUMPI PUSH2 0x4A68 DUP7 PUSH2 0x49E8 DUP4 PUSH1 0x2 PUSH2 0x58A2 JUMP JUMPDEST PUSH1 0x0 PUSH1 0x1 PUSH2 0x4A78 DUP7 PUSH2 0x100 PUSH2 0x57FA JUMP JUMPDEST PUSH2 0x4A82 SWAP2 SWAP1 PUSH2 0x58C1 JUMP JUMPDEST SWAP1 POP DUP7 MLOAD DUP3 DUP2 ADD DUP8 DUP4 NOT DUP3 MLOAD AND OR DUP2 MSTORE POP DUP1 MLOAD DUP4 GT ISZERO PUSH2 0x4AA0 JUMPI DUP3 DUP2 MSTORE JUMPDEST POP SWAP6 SWAP7 SWAP6 POP POP POP POP POP POP JUMP JUMPDEST PUSH1 0x40 DUP1 MLOAD DUP1 DUP3 ADD SWAP1 SWAP2 MSTORE PUSH1 0x60 DUP2 MSTORE PUSH1 0x0 PUSH1 0x20 DUP3 ADD MSTORE DUP3 MLOAD DUP3 GT ISZERO PUSH2 0x4ACF JUMPI PUSH1 0x0 DUP1 REVERT JUMPDEST DUP4 MLOAD MLOAD PUSH1 0x0 PUSH2 0x4ADE DUP5 DUP4 PUSH2 0x578B JUMP JUMPDEST SWAP1 POP DUP6 PUSH1 0x20 ADD MLOAD DUP2 GT ISZERO PUSH2 0x4AFB JUMPI PUSH2 0x4AFB DUP7 PUSH2 0x49E8 DUP4 PUSH1 0x2 PUSH2 0x58A2 JUMP JUMPDEST DUP6 MLOAD DUP1 MLOAD DUP4 DUP3 ADD PUSH1 0x20 ADD SWAP2 PUSH1 0x0 SWAP2 DUP1 DUP6 GT ISZERO PUSH2 0x4B15 JUMPI DUP5 DUP3 MSTORE JUMPDEST POP POP POP PUSH1 0x20 DUP7 ADD JUMPDEST PUSH1 0x20 DUP7 LT PUSH2 0x4B55 JUMPI DUP1 MLOAD DUP3 MSTORE PUSH2 0x4B34 PUSH1 0x20 DUP4 PUSH2 0x578B JUMP JUMPDEST SWAP2 POP PUSH2 0x4B41 PUSH1 0x20 DUP3 PUSH2 0x578B JUMP JUMPDEST SWAP1 POP PUSH2 0x4B4E PUSH1 0x20 DUP8 PUSH2 0x58C1 JUMP JUMPDEST SWAP6 POP PUSH2 0x4B1D JUMP JUMPDEST MLOAD DUP2 MLOAD PUSH1 0x0 NOT PUSH1 0x20 DUP9 SWAP1 SUB PUSH2 0x100 EXP ADD SWAP1 DUP2 AND SWAP1 NOT SWAP2 SWAP1 SWAP2 AND OR SWAP1 MSTORE POP DUP5 SWAP2 POP POP SWAP4 SWAP3 POP POP POP JUMP JUMPDEST DUP2 MLOAD PUSH2 0x4B89 DUP4 DUP4 PUSH2 0x4745 JUMP JUMPDEST POP PUSH2 0x1486 DUP4 DUP3 PUSH2 0x497F JUMP JUMPDEST DUP3 DUP1 SLOAD PUSH2 0x4BA0 SWAP1 PUSH2 0x5904 JUMP JUMPDEST SWAP1 PUSH1 0x0 MSTORE PUSH1 0x20 PUSH1 0x0 KECCAK256 SWAP1 PUSH1 0x1F ADD PUSH1 0x20 SWAP1 DIV DUP2 ADD SWAP3 DUP3 PUSH2 0x4BC2 JUMPI PUSH1 0x0 DUP6 SSTORE PUSH2 0x4C08 JUMP JUMPDEST DUP3 PUSH1 0x1F LT PUSH2 0x4BDB JUMPI DUP1 MLOAD PUSH1 0xFF NOT AND DUP4 DUP1 ADD OR DUP6 SSTORE PUSH2 0x4C08 JUMP JUMPDEST DUP3 DUP1 ADD PUSH1 0x1 ADD DUP6 SSTORE DUP3 ISZERO PUSH2 0x4C08 JUMPI SWAP2 DUP3 ADD JUMPDEST DUP3 DUP2 GT ISZERO PUSH2 0x4C08 JUMPI DUP3 MLOAD DUP3 SSTORE SWAP2 PUSH1 0x20 ADD SWAP2 SWAP1 PUSH1 0x1 ADD SWAP1 PUSH2 0x4BED JUMP JUMPDEST POP PUSH2 0x4C14 SWAP3 SWAP2 POP PUSH2 0x4C87 JUMP JUMPDEST POP SWAP1 JUMP JUMPDEST DUP3 DUP1 SLOAD DUP3 DUP3 SSTORE SWAP1 PUSH1 0x0 MSTORE PUSH1 0x20 PUSH1 0x0 KECCAK256 SWAP1 DUP2 ADD SWAP3 DUP3 ISZERO PUSH2 0x4C08 JUMPI SWAP2 PUSH1 0x20 MUL DUP3 ADD DUP3 DUP2 GT ISZERO PUSH2 0x4C08 JUMPI DUP3 MLOAD DUP3 SSTORE SWAP2 PUSH1 0x20 ADD SWAP2 SWAP1 PUSH1 0x1 ADD SWAP1 PUSH2 0x4BED JUMP JUMPDEST PUSH1 0x40 MLOAD DUP1 PUSH1 0x40 ADD PUSH1 0x40 MSTORE DUP1 PUSH2 0x4C7A PUSH1 0x40 MLOAD DUP1 PUSH1 0x40 ADD PUSH1 0x40 MSTORE DUP1 PUSH1 0x60 DUP2 MSTORE PUSH1 0x20 ADD PUSH1 0x0 DUP2 MSTORE POP SWAP1 JUMP JUMPDEST DUP2 MSTORE PUSH1 0x20 ADD PUSH1 0x0 DUP2 MSTORE POP SWAP1 JUMP JUMPDEST JUMPDEST DUP1 DUP3 GT ISZERO PUSH2 0x4C14 JUMPI PUSH1 0x0 DUP2 SSTORE PUSH1 0x1 ADD PUSH2 0x4C88 JUMP JUMPDEST PUSH1 0x0 DUP1 DUP4 PUSH1 0x1F DUP5 ADD SLT PUSH2 0x4CAE JUMPI PUSH1 0x0 DUP1 REVERT JUMPDEST POP DUP2 CALLDATALOAD PUSH8 0xFFFFFFFFFFFFFFFF DUP2 GT ISZERO PUSH2 0x4CC6 JUMPI PUSH1 0x0 DUP1 REVERT JUMPDEST PUSH1 0x20 DUP4 ADD SWAP2 POP DUP4 PUSH1 0x20 DUP3 PUSH1 0x5 SHL DUP6 ADD ADD GT ISZERO PUSH2 0x4CE1 JUMPI PUSH1 0x0 DUP1 REVERT JUMPDEST SWAP3 POP SWAP3 SWAP1 POP JUMP JUMPDEST PUSH1 0x0 DUP3 PUSH1 0x1F DUP4 ADD SLT PUSH2 0x4CF9 JUMPI PUSH1 0x0 DUP1 REVERT JUMPDEST DUP2 CALLDATALOAD PUSH1 0x20 PUSH2 0x4D0E PUSH2 0x4D09 DUP4 PUSH2 0x573F JUMP JUMPDEST PUSH2 0x570E JUMP JUMPDEST DUP1 DUP4 DUP3 MSTORE DUP3 DUP3 ADD SWAP2 POP DUP3 DUP7 ADD DUP8 DUP5 DUP7 PUSH1 0x5 SHL DUP10 ADD ADD GT ISZERO PUSH2 0x4D2E JUMPI PUSH1 0x0 DUP1 REVERT JUMPDEST PUSH1 0x0 DUP1 JUMPDEST DUP7 DUP2 LT ISZERO PUSH2 0x4D71 JUMPI DUP3 CALLDATALOAD PUSH8 0xFFFFFFFFFFFFFFFF DUP2 GT ISZERO PUSH2 0x4D50 JUMPI DUP3 DUP4 REVERT JUMPDEST PUSH2 0x4D5E DUP12 DUP9 DUP4 DUP14 ADD ADD PUSH2 0x4D7F JUMP JUMPDEST DUP7 MSTORE POP SWAP4 DUP6 ADD SWAP4 SWAP2 DUP6 ADD SWAP2 PUSH1 0x1 ADD PUSH2 0x4D32 JUMP JUMPDEST POP SWAP2 SWAP9 SWAP8 POP POP POP POP POP POP POP POP JUMP JUMPDEST PUSH1 0x0 DUP3 PUSH1 0x1F DUP4 ADD SLT PUSH2 0x4D90 JUMPI PUSH1 0x0 DUP1 REVERT JUMPDEST DUP2 CALLDATALOAD PUSH2 0x4D9E PUSH2 0x4D09 DUP3 PUSH2 0x5763 JUMP JUMPDEST DUP2 DUP2 MSTORE DUP5 PUSH1 0x20 DUP4 DUP7 ADD ADD GT ISZERO PUSH2 0x4DB3 JUMPI PUSH1 0x0 DUP1 REVERT JUMPDEST DUP2 PUSH1 0x20 DUP6 ADD PUSH1 0x20 DUP4 ADD CALLDATACOPY PUSH1 0x0 SWAP2 DUP2 ADD PUSH1 0x20 ADD SWAP2 SWAP1 SWAP2 MSTORE SWAP4 SWAP3 POP POP POP JUMP JUMPDEST DUP1 CALLDATALOAD PUSH1 0x1 DUP2 LT PUSH2 0x4DDF JUMPI PUSH1 0x0 DUP1 REVERT JUMPDEST SWAP2 SWAP1 POP JUMP JUMPDEST DUP1 CALLDATALOAD PUSH1 0x2 DUP2 LT PUSH2 0x4DDF JUMPI PUSH1 0x0 DUP1 REVERT JUMPDEST DUP1 CALLDATALOAD PUSH4 0xFFFFFFFF DUP2 AND DUP2 EQ PUSH2 0x4DDF JUMPI PUSH1 0x0 DUP1 REVERT JUMPDEST DUP1 CALLDATALOAD PUSH8 0xFFFFFFFFFFFFFFFF DUP2 AND DUP2 EQ PUSH2 0x4DDF JUMPI PUSH1 0x0 DUP1 REVERT JUMPDEST PUSH1 0x0 PUSH1 0x20 DUP3 DUP5 SUB SLT ISZERO PUSH2 0x4E31 JUMPI PUSH1 0x0 DUP1 REVERT JUMPDEST DUP2 CALLDATALOAD PUSH2 0x49A0 DUP2 PUSH2 0x59DC JUMP JUMPDEST PUSH1 0x0 PUSH1 0x20 DUP3 DUP5 SUB SLT ISZERO PUSH2 0x4E4E JUMPI PUSH1 0x0 DUP1 REVERT JUMPDEST DUP2 MLOAD PUSH2 0x49A0 DUP2 PUSH2 0x59DC JUMP JUMPDEST PUSH1 0x0 DUP1 PUSH1 0x40 DUP4 DUP6 SUB SLT ISZERO PUSH2 0x4E6C JUMPI PUSH1 0x0 DUP1 REVERT JUMPDEST DUP3 CALLDATALOAD PUSH2 0x4E77 DUP2 PUSH2 0x59DC JUMP JUMPDEST SWAP5 PUSH1 0x20 SWAP4 SWAP1 SWAP4 ADD CALLDATALOAD SWAP4 POP POP POP JUMP JUMPDEST PUSH1 0x0 PUSH1 0x20 DUP3 DUP5 SUB SLT ISZERO PUSH2 0x4E97 JUMPI PUSH1 0x0 DUP1 REVERT JUMPDEST POP CALLDATALOAD SWAP2 SWAP1 POP JUMP JUMPDEST PUSH1 0x0 PUSH1 0x20 DUP3 DUP5 SUB SLT ISZERO PUSH2 0x4EB0 JUMPI PUSH1 0x0 DUP1 REVERT JUMPDEST POP MLOAD SWAP2 SWAP1 POP JUMP JUMPDEST PUSH1 0x0 DUP1 PUSH1 0x0 PUSH1 0x60 DUP5 DUP7 SUB SLT ISZERO PUSH2 0x4ECC JUMPI PUSH1 0x0 DUP1 REVERT JUMPDEST DUP4 CALLDATALOAD SWAP3 POP PUSH1 0x20 DUP5 ADD CALLDATALOAD PUSH8 0xFFFFFFFFFFFFFFFF DUP1 DUP3 GT ISZERO PUSH2 0x4EEB JUMPI PUSH1 0x0 DUP1 REVERT JUMPDEST PUSH2 0x4EF7 DUP8 DUP4 DUP9 ADD PUSH2 0x4D7F JUMP JUMPDEST SWAP4 POP PUSH1 0x40 DUP7 ADD CALLDATALOAD SWAP2 POP DUP1 DUP3 GT ISZERO PUSH2 0x4F0D JUMPI PUSH1 0x0 DUP1 REVERT JUMPDEST POP PUSH2 0x4F1A DUP7 DUP3 DUP8 ADD PUSH2 0x4D7F JUMP JUMPDEST SWAP2 POP POP SWAP3 POP SWAP3 POP SWAP3 JUMP JUMPDEST PUSH1 0x0 PUSH1 0x20 DUP3 DUP5 SUB SLT ISZERO PUSH2 0x4F36 JUMPI PUSH1 0x0 DUP1 REVERT JUMPDEST DUP2 CALLDATALOAD PUSH8 0xFFFFFFFFFFFFFFFF DUP2 GT ISZERO PUSH2 0x4F4D JUMPI PUSH1 0x0 DUP1 REVERT JUMPDEST PUSH2 0x4F59 DUP5 DUP3 DUP6 ADD PUSH2 0x4D7F JUMP JUMPDEST SWAP5 SWAP4 POP POP POP POP JUMP JUMPDEST PUSH1 0x0 PUSH1 0x20 DUP3 DUP5 SUB SLT ISZERO PUSH2 0x4F73 JUMPI PUSH1 0x0 DUP1 REVERT JUMPDEST DUP2 MLOAD PUSH8 0xFFFFFFFFFFFFFFFF DUP2 GT ISZERO PUSH2 0x4F8A JUMPI PUSH1 0x0 DUP1 REVERT JUMPDEST DUP3 ADD PUSH1 0x1F DUP2 ADD DUP5 SGT PUSH2 0x4F9B JUMPI PUSH1 0x0 DUP1 REVERT JUMPDEST DUP1 MLOAD PUSH2 0x4FA9 PUSH2 0x4D09 DUP3 PUSH2 0x5763 JUMP JUMPDEST DUP2 DUP2 MSTORE DUP6 PUSH1 0x20 DUP4 DUP6 ADD ADD GT ISZERO PUSH2 0x4FBE JUMPI PUSH1 0x0 DUP1 REVERT JUMPDEST PUSH2 0x389C DUP3 PUSH1 0x20 DUP4 ADD PUSH1 0x20 DUP7 ADD PUSH2 0x58D8 JUMP JUMPDEST PUSH1 0x0 DUP1 PUSH1 0x0 DUP1 PUSH1 0x0 DUP1 PUSH1 0x80 DUP8 DUP10 SUB SLT ISZERO PUSH2 0x4FE8 JUMPI PUSH1 0x0 DUP1 REVERT JUMPDEST DUP7 CALLDATALOAD PUSH8 0xFFFFFFFFFFFFFFFF DUP1 DUP3 GT ISZERO PUSH2 0x5000 JUMPI PUSH1 0x0 DUP1 REVERT JUMPDEST DUP2 DUP10 ADD SWAP2 POP DUP10 PUSH1 0x1F DUP4 ADD SLT PUSH2 0x5014 JUMPI PUSH1 0x0 DUP1 REVERT JUMPDEST DUP2 CALLDATALOAD DUP2 DUP2 GT ISZERO PUSH2 0x5023 JUMPI PUSH1 0x0 DUP1 REVERT JUMPDEST DUP11 PUSH1 0x20 DUP3 DUP6 ADD ADD GT ISZERO PUSH2 0x5035 JUMPI PUSH1 0x0 DUP1 REVERT JUMPDEST PUSH1 0x20 SWAP3 DUP4 ADD SWAP9 POP SWAP7 POP SWAP1 DUP9 ADD CALLDATALOAD SWAP1 DUP1 DUP3 GT ISZERO PUSH2 0x5050 JUMPI PUSH1 0x0 DUP1 REVERT JUMPDEST POP PUSH2 0x505D DUP10 DUP3 DUP11 ADD PUSH2 0x4C9C JUMP JUMPDEST SWAP1 SWAP6 POP SWAP4 POP PUSH2 0x5070 SWAP1 POP PUSH1 0x40 DUP9 ADD PUSH2 0x4E07 JUMP JUMPDEST SWAP2 POP PUSH2 0x507E PUSH1 0x60 DUP9 ADD PUSH2 0x4DF3 JUMP JUMPDEST SWAP1 POP SWAP3 SWAP6 POP SWAP3 SWAP6 POP SWAP3 SWAP6 JUMP JUMPDEST PUSH1 0x0 DUP1 PUSH1 0x0 DUP1 PUSH1 0x80 DUP6 DUP8 SUB SLT ISZERO PUSH2 0x50A0 JUMPI PUSH1 0x0 DUP1 REVERT JUMPDEST DUP5 CALLDATALOAD PUSH8 0xFFFFFFFFFFFFFFFF DUP1 DUP3 GT ISZERO PUSH2 0x50B8 JUMPI PUSH1 0x0 DUP1 REVERT JUMPDEST SWAP1 DUP7 ADD SWAP1 PUSH1 0xC0 DUP3 DUP10 SUB SLT ISZERO PUSH2 0x50CC JUMPI PUSH1 0x0 DUP1 REVERT JUMPDEST PUSH2 0x50D4 PUSH2 0x56E5 JUMP JUMPDEST PUSH2 0x50DD DUP4 PUSH2 0x4DE4 JUMP JUMPDEST DUP2 MSTORE PUSH2 0x50EB PUSH1 0x20 DUP5 ADD PUSH2 0x4DE4 JUMP JUMPDEST PUSH1 0x20 DUP3 ADD MSTORE PUSH2 0x50FC PUSH1 0x40 DUP5 ADD PUSH2 0x4DD0 JUMP JUMPDEST PUSH1 0x40 DUP3 ADD MSTORE PUSH1 0x60 DUP4 ADD CALLDATALOAD DUP3 DUP2 GT ISZERO PUSH2 0x5113 JUMPI PUSH1 0x0 DUP1 REVERT JUMPDEST PUSH2 0x511F DUP11 DUP3 DUP7 ADD PUSH2 0x4D7F JUMP JUMPDEST PUSH1 0x60 DUP4 ADD MSTORE POP PUSH1 0x80 DUP4 ADD CALLDATALOAD DUP3 DUP2 GT ISZERO PUSH2 0x5137 JUMPI PUSH1 0x0 DUP1 REVERT JUMPDEST PUSH2 0x5143 DUP11 DUP3 DUP7 ADD PUSH2 0x4D7F JUMP JUMPDEST PUSH1 0x80 DUP4 ADD MSTORE POP PUSH1 0xA0 DUP4 ADD CALLDATALOAD DUP3 DUP2 GT ISZERO PUSH2 0x515B JUMPI PUSH1 0x0 DUP1 REVERT JUMPDEST PUSH2 0x5167 DUP11 DUP3 DUP7 ADD PUSH2 0x4CE8 JUMP JUMPDEST PUSH1 0xA0 DUP4 ADD MSTORE POP SWAP6 POP PUSH2 0x517E SWAP2 POP POP PUSH1 0x20 DUP7 ADD PUSH2 0x4E07 JUMP JUMPDEST SWAP3 POP PUSH2 0x518C PUSH1 0x40 DUP7 ADD PUSH2 0x4DF3 JUMP JUMPDEST SWAP4 SWAP7 SWAP3 SWAP6 POP SWAP3 SWAP4 PUSH1 0x60 ADD CALLDATALOAD SWAP3 POP POP JUMP JUMPDEST PUSH1 0x0 DUP1 PUSH1 0x40 DUP4 DUP6 SUB SLT ISZERO PUSH2 0x51AF JUMPI PUSH1 0x0 DUP1 REVERT JUMPDEST DUP3 CALLDATALOAD SWAP2 POP PUSH1 0x20 DUP1 DUP5 ADD CALLDATALOAD PUSH8 0xFFFFFFFFFFFFFFFF DUP2 GT ISZERO PUSH2 0x51CE JUMPI PUSH1 0x0 DUP1 REVERT JUMPDEST DUP5 ADD PUSH1 0x1F DUP2 ADD DUP7 SGT PUSH2 0x51DF JUMPI PUSH1 0x0 DUP1 REVERT JUMPDEST DUP1 CALLDATALOAD PUSH2 0x51ED PUSH2 0x4D09 DUP3 PUSH2 0x573F JUMP JUMPDEST DUP1 DUP3 DUP3 MSTORE DUP5 DUP3 ADD SWAP2 POP DUP5 DUP5 ADD DUP10 DUP7 DUP6 PUSH1 0x5 SHL DUP8 ADD ADD GT ISZERO PUSH2 0x520D JUMPI PUSH1 0x0 DUP1 REVERT JUMPDEST PUSH1 0x0 SWAP5 POP JUMPDEST DUP4 DUP6 LT ISZERO PUSH2 0x5230 JUMPI DUP1 CALLDATALOAD DUP4 MSTORE PUSH1 0x1 SWAP5 SWAP1 SWAP5 ADD SWAP4 SWAP2 DUP6 ADD SWAP2 DUP6 ADD PUSH2 0x5212 JUMP JUMPDEST POP DUP1 SWAP6 POP POP POP POP POP POP SWAP3 POP SWAP3 SWAP1 POP JUMP JUMPDEST PUSH1 0x0 PUSH1 0x20 DUP3 DUP5 SUB SLT ISZERO PUSH2 0x5252 JUMPI PUSH1 0x0 DUP1 REVERT JUMPDEST DUP2 MLOAD PUSH12 0xFFFFFFFFFFFFFFFFFFFFFFFF DUP2 AND DUP2 EQ PUSH2 0x49A0 JUMPI PUSH1 0x0 DUP1 REVERT JUMPDEST PUSH1 0x0 DUP2 MLOAD DUP1 DUP5 MSTORE PUSH1 0x20 DUP1 DUP6 ADD SWAP5 POP DUP1 DUP5 ADD PUSH1 0x0 JUMPDEST DUP4 DUP2 LT ISZERO PUSH2 0x529E JUMPI DUP2 MLOAD DUP8 MSTORE SWAP6 DUP3 ADD SWAP6 SWAP1 DUP3 ADD SWAP1 PUSH1 0x1 ADD PUSH2 0x5282 JUMP JUMPDEST POP SWAP5 SWAP6 SWAP5 POP POP POP POP POP JUMP JUMPDEST PUSH1 0x0 DUP2 MLOAD DUP1 DUP5 MSTORE PUSH2 0x52C1 DUP2 PUSH1 0x20 DUP7 ADD PUSH1 0x20 DUP7 ADD PUSH2 0x58D8 JUMP JUMPDEST PUSH1 0x1F ADD PUSH1 0x1F NOT AND SWAP3 SWAP1 SWAP3 ADD PUSH1 0x20 ADD SWAP3 SWAP2 POP POP JUMP JUMPDEST PUSH1 0x0 PUSH2 0x180 DUP3 MLOAD DUP2 DUP6 MSTORE PUSH2 0x52EB DUP3 DUP7 ADD DUP3 PUSH2 0x52A9 JUMP JUMPDEST SWAP2 POP POP PUSH1 0x20 DUP4 ADD MLOAD DUP5 DUP3 SUB PUSH1 0x20 DUP7 ADD MSTORE PUSH2 0x5305 DUP3 DUP3 PUSH2 0x52A9 JUMP JUMPDEST SWAP2 POP POP PUSH1 0x40 DUP4 ADD MLOAD DUP5 DUP3 SUB PUSH1 0x40 DUP7 ADD MSTORE PUSH2 0x531F DUP3 DUP3 PUSH2 0x52A9 JUMP JUMPDEST SWAP2 POP POP PUSH1 0x60 DUP4 ADD MLOAD DUP5 DUP3 SUB PUSH1 0x60 DUP7 ADD MSTORE PUSH2 0x5339 DUP3 DUP3 PUSH2 0x52A9 JUMP JUMPDEST SWAP2 POP POP PUSH1 0x80 DUP4 ADD MLOAD DUP5 DUP3 SUB PUSH1 0x80 DUP7 ADD MSTORE PUSH2 0x5353 DUP3 DUP3 PUSH2 0x52A9 JUMP JUMPDEST SWAP2 POP POP PUSH1 0xA0 DUP4 ADD MLOAD DUP5 DUP3 SUB PUSH1 0xA0 DUP7 ADD MSTORE PUSH2 0x536D DUP3 DUP3 PUSH2 0x52A9 JUMP JUMPDEST SWAP2 POP POP PUSH1 0xC0 DUP4 ADD MLOAD DUP5 DUP3 SUB PUSH1 0xC0 DUP7 ADD MSTORE PUSH2 0x5387 DUP3 DUP3 PUSH2 0x52A9 JUMP JUMPDEST SWAP2 POP POP PUSH1 0xE0 DUP4 ADD MLOAD DUP5 DUP3 SUB PUSH1 0xE0 DUP7 ADD MSTORE PUSH2 0x53A1 DUP3 DUP3 PUSH2 0x52A9 JUMP JUMPDEST SWAP2 POP POP PUSH2 0x100 DUP1 DUP5 ADD MLOAD DUP6 DUP4 SUB DUP3 DUP8 ADD MSTORE PUSH2 0x53BC DUP4 DUP3 PUSH2 0x52A9 JUMP JUMPDEST SWAP3 POP POP POP PUSH2 0x120 DUP1 DUP5 ADD MLOAD DUP6 DUP4 SUB DUP3 DUP8 ADD MSTORE PUSH2 0x53D8 DUP4 DUP3 PUSH2 0x52A9 JUMP JUMPDEST SWAP3 POP POP POP PUSH2 0x140 DUP1 DUP5 ADD MLOAD DUP6 DUP4 SUB DUP3 DUP8 ADD MSTORE PUSH2 0x53F4 DUP4 DUP3 PUSH2 0x52A9 JUMP JUMPDEST SWAP3 POP POP POP PUSH2 0x160 DUP1 DUP5 ADD MLOAD DUP6 DUP4 SUB DUP3 DUP8 ADD MSTORE PUSH2 0x5410 DUP4 DUP3 PUSH2 0x52A9 JUMP JUMPDEST SWAP7 SWAP6 POP POP POP POP POP POP JUMP JUMPDEST PUSH1 0x0 PUSH1 0x20 DUP1 DUP4 ADD DUP2 DUP5 MSTORE DUP1 DUP6 MLOAD DUP1 DUP4 MSTORE PUSH1 0x40 DUP7 ADD SWAP2 POP PUSH1 0x40 DUP2 PUSH1 0x5 SHL DUP8 ADD ADD SWAP3 POP DUP4 DUP8 ADD PUSH1 0x0 JUMPDEST DUP3 DUP2 LT ISZERO PUSH2 0x546F JUMPI PUSH1 0x3F NOT DUP9 DUP7 SUB ADD DUP5 MSTORE PUSH2 0x545D DUP6 DUP4 MLOAD PUSH2 0x52D5 JUMP JUMPDEST SWAP5 POP SWAP3 DUP6 ADD SWAP3 SWAP1 DUP6 ADD SWAP1 PUSH1 0x1 ADD PUSH2 0x5441 JUMP JUMPDEST POP SWAP3 SWAP8 SWAP7 POP POP POP POP POP POP POP JUMP JUMPDEST DUP3 ISZERO ISZERO DUP2 MSTORE PUSH1 0x40 PUSH1 0x20 DUP3 ADD MSTORE PUSH1 0x0 PUSH2 0x4F59 PUSH1 0x40 DUP4 ADD DUP5 PUSH2 0x526E JUMP JUMPDEST PUSH1 0x20 DUP2 MSTORE PUSH1 0x0 PUSH2 0x49A0 PUSH1 0x20 DUP4 ADD DUP5 PUSH2 0x52A9 JUMP JUMPDEST PUSH1 0x40 DUP2 MSTORE PUSH1 0x0 PUSH2 0x54BD PUSH1 0x40 DUP4 ADD DUP6 PUSH2 0x52A9 JUMP JUMPDEST DUP3 DUP2 SUB PUSH1 0x20 DUP5 ADD MSTORE PUSH2 0x389C DUP2 DUP6 PUSH2 0x52A9 JUMP JUMPDEST PUSH1 0x20 DUP2 ADD PUSH1 0x3 DUP4 LT PUSH2 0x54F1 JUMPI PUSH4 0x4E487B71 PUSH1 0xE0 SHL PUSH1 0x0 MSTORE PUSH1 0x21 PUSH1 0x4 MSTORE PUSH1 0x24 PUSH1 0x0 REVERT JUMPDEST SWAP2 SWAP1 MSTORE SWAP1 JUMP JUMPDEST PUSH2 0x180 DUP2 MSTORE PUSH1 0x0 PUSH2 0x550C PUSH2 0x180 DUP4 ADD DUP16 PUSH2 0x52A9 JUMP JUMPDEST DUP3 DUP2 SUB PUSH1 0x20 DUP5 ADD MSTORE PUSH2 0x551E DUP2 DUP16 PUSH2 0x52A9 JUMP JUMPDEST SWAP1 POP DUP3 DUP2 SUB PUSH1 0x40 DUP5 ADD MSTORE PUSH2 0x5532 DUP2 DUP15 PUSH2 0x52A9 JUMP JUMPDEST SWAP1 POP DUP3 DUP2 SUB PUSH1 0x60 DUP5 ADD MSTORE PUSH2 0x5546 DUP2 DUP14 PUSH2 0x52A9 JUMP JUMPDEST SWAP1 POP DUP3 DUP2 SUB PUSH1 0x80 DUP5 ADD MSTORE PUSH2 0x555A DUP2 DUP13 PUSH2 0x52A9 JUMP JUMPDEST SWAP1 POP DUP3 DUP2 SUB PUSH1 0xA0 DUP5 ADD MSTORE PUSH2 0x556E DUP2 DUP12 PUSH2 0x52A9 JUMP JUMPDEST SWAP1 POP DUP3 DUP2 SUB PUSH1 0xC0 DUP5 ADD MSTORE PUSH2 0x5582 DUP2 DUP11 PUSH2 0x52A9 JUMP JUMPDEST SWAP1 POP DUP3 DUP2 SUB PUSH1 0xE0 DUP5 ADD MSTORE PUSH2 0x5596 DUP2 DUP10 PUSH2 0x52A9 JUMP JUMPDEST SWAP1 POP DUP3 DUP2 SUB PUSH2 0x100 DUP5 ADD MSTORE PUSH2 0x55AB DUP2 DUP9 PUSH2 0x52A9 JUMP JUMPDEST SWAP1 POP DUP3 DUP2 SUB PUSH2 0x120 DUP5 ADD MSTORE PUSH2 0x55C0 DUP2 DUP8 PUSH2 0x52A9 JUMP JUMPDEST SWAP1 POP DUP3 DUP2 SUB PUSH2 0x140 DUP5 ADD MSTORE PUSH2 0x55D5 DUP2 DUP7 PUSH2 0x52A9 JUMP JUMPDEST SWAP1 POP DUP3 DUP2 SUB PUSH2 0x160 DUP5 ADD MSTORE PUSH2 0x55EA DUP2 DUP6 PUSH2 0x52A9 JUMP JUMPDEST SWAP16 SWAP15 POP POP POP POP POP POP POP POP POP POP POP POP POP POP POP JUMP JUMPDEST PUSH1 0x20 DUP2 MSTORE PUSH1 0x0 PUSH2 0x49A0 PUSH1 0x20 DUP4 ADD DUP5 PUSH2 0x52D5 JUMP JUMPDEST DUP3 DUP2 MSTORE PUSH1 0x40 PUSH1 0x20 DUP3 ADD MSTORE PUSH1 0x0 PUSH2 0x4F59 PUSH1 0x40 DUP4 ADD DUP5 PUSH2 0x526E JUMP JUMPDEST PUSH8 0xFFFFFFFFFFFFFFFF DUP5 AND DUP2 MSTORE PUSH1 0x60 PUSH1 0x20 DUP3 ADD MSTORE PUSH1 0x0 PUSH2 0x564C PUSH1 0x60 DUP4 ADD DUP6 PUSH2 0x52A9 JUMP JUMPDEST SWAP1 POP PUSH4 0xFFFFFFFF DUP4 AND PUSH1 0x40 DUP4 ADD MSTORE SWAP5 SWAP4 POP POP POP POP JUMP JUMPDEST PUSH8 0xFFFFFFFFFFFFFFFF DUP6 AND DUP2 MSTORE PUSH1 0x80 PUSH1 0x20 DUP3 ADD MSTORE PUSH1 0x0 PUSH2 0x5685 PUSH1 0x80 DUP4 ADD DUP7 PUSH2 0x52A9 JUMP JUMPDEST PUSH4 0xFFFFFFFF SWAP5 SWAP1 SWAP5 AND PUSH1 0x40 DUP4 ADD MSTORE POP PUSH1 0x60 ADD MSTORE SWAP3 SWAP2 POP POP JUMP JUMPDEST PUSH1 0x0 DUP1 DUP4 CALLDATALOAD PUSH1 0x1E NOT DUP5 CALLDATASIZE SUB ADD DUP2 SLT PUSH2 0x56B5 JUMPI PUSH1 0x0 DUP1 REVERT JUMPDEST DUP4 ADD DUP1 CALLDATALOAD SWAP2 POP PUSH8 0xFFFFFFFFFFFFFFFF DUP3 GT ISZERO PUSH2 0x56D0 JUMPI PUSH1 0x0 DUP1 REVERT JUMPDEST PUSH1 0x20 ADD SWAP2 POP CALLDATASIZE DUP2 SWAP1 SUB DUP3 SGT ISZERO PUSH2 0x4CE1 JUMPI PUSH1 0x0 DUP1 REVERT JUMPDEST PUSH1 0x40 MLOAD PUSH1 0xC0 DUP2 ADD PUSH8 0xFFFFFFFFFFFFFFFF DUP2 GT DUP3 DUP3 LT OR ISZERO PUSH2 0x5708 JUMPI PUSH2 0x5708 PUSH2 0x59C6 JUMP JUMPDEST PUSH1 0x40 MSTORE SWAP1 JUMP JUMPDEST PUSH1 0x40 MLOAD PUSH1 0x1F DUP3 ADD PUSH1 0x1F NOT AND DUP2 ADD PUSH8 0xFFFFFFFFFFFFFFFF DUP2 GT DUP3 DUP3 LT OR ISZERO PUSH2 0x5737 JUMPI PUSH2 0x5737 PUSH2 0x59C6 JUMP JUMPDEST PUSH1 0x40 MSTORE SWAP2 SWAP1 POP JUMP JUMPDEST PUSH1 0x0 PUSH8 0xFFFFFFFFFFFFFFFF DUP3 GT ISZERO PUSH2 0x5759 JUMPI PUSH2 0x5759 PUSH2 0x59C6 JUMP JUMPDEST POP PUSH1 0x5 SHL PUSH1 0x20 ADD SWAP1 JUMP JUMPDEST PUSH1 0x0 PUSH8 0xFFFFFFFFFFFFFFFF DUP3 GT ISZERO PUSH2 0x577D JUMPI PUSH2 0x577D PUSH2 0x59C6 JUMP JUMPDEST POP PUSH1 0x1F ADD PUSH1 0x1F NOT AND PUSH1 0x20 ADD SWAP1 JUMP JUMPDEST PUSH1 0x0 DUP3 NOT DUP3 GT ISZERO PUSH2 0x579E JUMPI PUSH2 0x579E PUSH2 0x596E JUMP JUMPDEST POP ADD SWAP1 JUMP JUMPDEST PUSH1 0x0 DUP3 PUSH2 0x57B2 JUMPI PUSH2 0x57B2 PUSH2 0x5984 JUMP JUMPDEST POP DIV SWAP1 JUMP JUMPDEST PUSH1 0x1 DUP2 DUP2 JUMPDEST DUP1 DUP6 GT ISZERO PUSH2 0x57F2 JUMPI DUP2 PUSH1 0x0 NOT DIV DUP3 GT ISZERO PUSH2 0x57D8 JUMPI PUSH2 0x57D8 PUSH2 0x596E JUMP JUMPDEST DUP1 DUP6 AND ISZERO PUSH2 0x57E5 JUMPI SWAP2 DUP2 MUL SWAP2 JUMPDEST SWAP4 DUP5 SHR SWAP4 SWAP1 DUP1 MUL SWAP1 PUSH2 0x57BC JUMP JUMPDEST POP SWAP3 POP SWAP3 SWAP1 POP JUMP JUMPDEST PUSH1 0x0 PUSH2 0x49A0 DUP4 DUP4 PUSH1 0x0 DUP3 PUSH2 0x5810 JUMPI POP PUSH1 0x1 PUSH2 0x1DBB JUMP JUMPDEST DUP2 PUSH2 0x581D JUMPI POP PUSH1 0x0 PUSH2 0x1DBB JUMP JUMPDEST DUP2 PUSH1 0x1 DUP2 EQ PUSH2 0x5833 JUMPI PUSH1 0x2 DUP2 EQ PUSH2 0x583D JUMPI PUSH2 0x5859 JUMP JUMPDEST PUSH1 0x1 SWAP2 POP POP PUSH2 0x1DBB JUMP JUMPDEST PUSH1 0xFF DUP5 GT ISZERO PUSH2 0x584E JUMPI PUSH2 0x584E PUSH2 0x596E JUMP JUMPDEST POP POP PUSH1 0x1 DUP3 SHL PUSH2 0x1DBB JUMP JUMPDEST POP PUSH1 0x20 DUP4 LT PUSH2 0x133 DUP4 LT AND PUSH1 0x4E DUP5 LT PUSH1 0xB DUP5 LT AND OR ISZERO PUSH2 0x587C JUMPI POP DUP2 DUP2 EXP PUSH2 0x1DBB JUMP JUMPDEST PUSH2 0x5886 DUP4 DUP4 PUSH2 0x57B7 JUMP JUMPDEST DUP1 PUSH1 0x0 NOT DIV DUP3 GT ISZERO PUSH2 0x589A JUMPI PUSH2 0x589A PUSH2 0x596E JUMP JUMPDEST MUL SWAP4 SWAP3 POP POP POP JUMP JUMPDEST PUSH1 0x0 DUP2 PUSH1 0x0 NOT DIV DUP4 GT DUP3 ISZERO ISZERO AND ISZERO PUSH2 0x58BC JUMPI PUSH2 0x58BC PUSH2 0x596E JUMP JUMPDEST POP MUL SWAP1 JUMP JUMPDEST PUSH1 0x0 DUP3 DUP3 LT ISZERO PUSH2 0x58D3 JUMPI PUSH2 0x58D3 PUSH2 0x596E JUMP JUMPDEST POP SUB SWAP1 JUMP JUMPDEST PUSH1 0x0 JUMPDEST DUP4 DUP2 LT ISZERO PUSH2 0x58F3 JUMPI DUP2 DUP2 ADD MLOAD DUP4 DUP3 ADD MSTORE PUSH1 0x20 ADD PUSH2 0x58DB JUMP JUMPDEST DUP4 DUP2 GT ISZERO PUSH2 0x1486 JUMPI POP POP PUSH1 0x0 SWAP2 ADD MSTORE JUMP JUMPDEST PUSH1 0x1 DUP2 DUP2 SHR SWAP1 DUP3 AND DUP1 PUSH2 0x5918 JUMPI PUSH1 0x7F DUP3 AND SWAP2 POP JUMPDEST PUSH1 0x20 DUP3 LT DUP2 EQ ISZERO PUSH2 0x5939 JUMPI PUSH4 0x4E487B71 PUSH1 0xE0 SHL PUSH1 0x0 MSTORE PUSH1 0x22 PUSH1 0x4 MSTORE PUSH1 0x24 PUSH1 0x0 REVERT JUMPDEST POP SWAP2 SWAP1 POP JUMP JUMPDEST PUSH1 0x0 PUSH1 0x0 NOT DUP3 EQ ISZERO PUSH2 0x5953 JUMPI PUSH2 0x5953 PUSH2 0x596E JUMP JUMPDEST POP PUSH1 0x1 ADD SWAP1 JUMP JUMPDEST PUSH1 0x0 DUP3 PUSH2 0x5969 JUMPI PUSH2 0x5969 PUSH2 0x5984 JUMP JUMPDEST POP MOD SWAP1 JUMP JUMPDEST PUSH4 0x4E487B71 PUSH1 0xE0 SHL PUSH1 0x0 MSTORE PUSH1 0x11 PUSH1 0x4 MSTORE PUSH1 0x24 PUSH1 0x0 REVERT JUMPDEST PUSH4 0x4E487B71 PUSH1 0xE0 SHL PUSH1 0x0 MSTORE PUSH1 0x12 PUSH1 0x4 MSTORE PUSH1 0x24 PUSH1 0x0 REVERT JUMPDEST PUSH4 0x4E487B71 PUSH1 0xE0 SHL PUSH1 0x0 MSTORE PUSH1 0x21 PUSH1 0x4 MSTORE PUSH1 0x24 PUSH1 0x0 REVERT JUMPDEST PUSH4 0x4E487B71 PUSH1 0xE0 SHL PUSH1 0x0 MSTORE PUSH1 0x32 PUSH1 0x4 MSTORE PUSH1 0x24 PUSH1 0x0 REVERT JUMPDEST PUSH4 0x4E487B71 PUSH1 0xE0 SHL PUSH1 0x0 MSTORE PUSH1 0x41 PUSH1 0x4 MSTORE PUSH1 0x24 PUSH1 0x0 REVERT JUMPDEST PUSH1 0x1 PUSH1 0x1 PUSH1 0xA0 SHL SUB DUP2 AND DUP2 EQ PUSH2 0x3D43 JUMPI PUSH1 0x0 DUP1 REVERT INVALID LOG2 PUSH5 0x6970667358 0x22 SLT KECCAK256 SWAP9 0x1E 0x5D 0xED SWAP7 CALLCODE PC EXTCODEHASH 0xAD CODESIZE 0xCB KECCAK256 0xBA 0x24 PUSH32 0x847B61A6C4D5DA41B7A41D63405ECE1B7C64736F6C6343000807003300000000 "},"methodIdentifiers":{"acceptOwnership()":"79ba5097","addSimulatedRequestId(address,bytes32)":"30bda99d","boolInsuranceData()":"04b2303c","bytesToUint256(bytes)":"cc9de25d","checkPayoutContract()":"c0303c37","constructionTime()":"f06c5610","currentTime()":"d18e81b3","endPolicy(address,uint256)":"bc58d68c","estimateCost((uint8,uint8,uint8,string,bytes,string[]),uint64,uint32,uint256)":"d4b39175","estimateInsurance(string,string[],uint64,uint32)":"63d6634a","getAllUserPolicies(address)":"80858026","getCurrentTime()":"29cb924d","getDONPublicKey()":"d328a91e","getInsuranceQuoteData(bytes32)":"215fc625","getLastRandomWord()":"b91ce205","getPolicyData(address,uint256)":"61875d8d","getPolicyRequestId(address,uint256)":"6ec7be7e","getPriceLinkMatic()":"05f411d6","getPriceMaticUsd()":"e3928b7f","getRequestStatus(uint256)":"d8a4676f","handleOracleFulfillment(bytes32,bytes,bytes)":"0ca76175","helloWorld()":"c605f76c","insurancePoliciesMapping(address,uint256)":"b655cd9b","insuranceQuoteData(bytes32)":"b1011dbd","lastRequestId()":"fc2a88c3","latestError()":"fffeb84e","latestRequestId()":"1aa46f59","latestResponse()":"bef3a2f0","linkMaticPriceFeed()":"e5c33f30","maticUsdPriceFeed()":"6c6f9990","owner()":"8da5cb5b","payUser(address,uint256)":"ecd831e8","policyRequestIdMapping(address,uint256)":"e0e2fa9a","policyStatus(address,uint256)":"f11da55b","randomnessRequesterAddress(uint256)":"5ec7baca","rawFulfillRandomWords(uint256,uint256[])":"1fe543e3","requestIds(uint256)":"8796ba8c","requestRandomWords()":"e0c86289","s_requests(uint256)":"a168fa89","setCheckPayoutContract(address)":"69f8eaed","startPolicy(bytes32)":"0b50567f","transferOwnership(address)":"f2fde38b","updateOracleAddress(address)":"f7023bb6"}},"storageLayout":{"storage":[{"astId":3569,"contract":"contracts/Insurance.sol:Insurance","label":"s_oracle","offset":0,"slot":"0","type":"t_contract(FunctionsOracleInterface)4003"},{"astId":3573,"contract":"contracts/Insurance.sol:Insurance","label":"s_pendingRequests","offset":0,"slot":"1","type":"t_mapping(t_bytes32,t_address)"},{"astId":27,"contract":"contracts/Insurance.sol:Insurance","label":"s_owner","offset":0,"slot":"2","type":"t_address"},{"astId":29,"contract":"contracts/Insurance.sol:Insurance","label":"s_pendingOwner","offset":0,"slot":"3","type":"t_address"},{"astId":2136,"contract":"contracts/Insurance.sol:Insurance","label":"checkPayoutContract","offset":0,"slot":"4","type":"t_address"},{"astId":2138,"contract":"contracts/Insurance.sol:Insurance","label":"constructionTime","offset":0,"slot":"5","type":"t_uint256"},{"astId":2141,"contract":"contracts/Insurance.sol:Insurance","label":"COORDINATOR","offset":0,"slot":"6","type":"t_contract(VRFCoordinatorV2Interface)397"},{"astId":2143,"contract":"contracts/Insurance.sol:Insurance","label":"s_subscriptionId","offset":20,"slot":"6","type":"t_uint64"},{"astId":2146,"contract":"contracts/Insurance.sol:Insurance","label":"requestIds","offset":0,"slot":"7","type":"t_array(t_uint256)dyn_storage"},{"astId":2148,"contract":"contracts/Insurance.sol:Insurance","label":"lastRequestId","offset":0,"slot":"8","type":"t_uint256"},{"astId":2151,"contract":"contracts/Insurance.sol:Insurance","label":"keyHash","offset":0,"slot":"9","type":"t_bytes32"},{"astId":2154,"contract":"contracts/Insurance.sol:Insurance","label":"callbackGasLimit","offset":0,"slot":"10","type":"t_uint32"},{"astId":2157,"contract":"contracts/Insurance.sol:Insurance","label":"requestConfirmations","offset":4,"slot":"10","type":"t_uint16"},{"astId":2160,"contract":"contracts/Insurance.sol:Insurance","label":"numWords","offset":6,"slot":"10","type":"t_uint32"},{"astId":2163,"contract":"contracts/Insurance.sol:Insurance","label":"linkMaticPriceFeed","offset":10,"slot":"10","type":"t_contract(LinkMaticPriceFeed)3180"},{"astId":2166,"contract":"contracts/Insurance.sol:Insurance","label":"maticUsdPriceFeed","offset":0,"slot":"11","type":"t_contract(MaticUsdPriceFeed)3213"},{"astId":2172,"contract":"contracts/Insurance.sol:Insurance","label":"latestRequestId","offset":0,"slot":"12","type":"t_bytes32"},{"astId":2174,"contract":"contracts/Insurance.sol:Insurance","label":"latestResponse","offset":0,"slot":"13","type":"t_bytes_storage"},{"astId":2176,"contract":"contracts/Insurance.sol:Insurance","label":"latestError","offset":0,"slot":"14","type":"t_bytes_storage"},{"astId":2246,"contract":"contracts/Insurance.sol:Insurance","label":"currentTime","offset":0,"slot":"15","type":"t_uint256"},{"astId":2277,"contract":"contracts/Insurance.sol:Insurance","label":"policyRequestIdMapping","offset":0,"slot":"16","type":"t_mapping(t_address,t_mapping(t_uint256,t_bytes32))"},{"astId":2284,"contract":"contracts/Insurance.sol:Insurance","label":"policyStatus","offset":0,"slot":"17","type":"t_mapping(t_address,t_mapping(t_uint256,t_enum(PolicyStatus)2115))"},{"astId":2289,"contract":"contracts/Insurance.sol:Insurance","label":"insuranceQuoteData","offset":0,"slot":"18","type":"t_mapping(t_bytes32,t_struct(InsuranceQuoteData)2122_storage)"},{"astId":2295,"contract":"contracts/Insurance.sol:Insurance","label":"insurancePoliciesMapping","offset":0,"slot":"19","type":"t_mapping(t_address,t_array(t_struct(InsuranceData)2271_storage)dyn_storage)"},{"astId":2299,"contract":"contracts/Insurance.sol:Insurance","label":"randomnessRequesterAddress","offset":0,"slot":"20","type":"t_mapping(t_uint256,t_address)"},{"astId":2304,"contract":"contracts/Insurance.sol:Insurance","label":"s_requests","offset":0,"slot":"21","type":"t_mapping(t_uint256,t_struct(RequestStatus)2111_storage)"}],"types":{"t_address":{"encoding":"inplace","label":"address","numberOfBytes":"20"},"t_array(t_struct(InsuranceData)2271_storage)dyn_storage":{"base":"t_struct(InsuranceData)2271_storage","encoding":"dynamic_array","label":"struct Insurance.InsuranceData[]","numberOfBytes":"32"},"t_array(t_uint256)dyn_storage":{"base":"t_uint256","encoding":"dynamic_array","label":"uint256[]","numberOfBytes":"32"},"t_bool":{"encoding":"inplace","label":"bool","numberOfBytes":"1"},"t_bytes32":{"encoding":"inplace","label":"bytes32","numberOfBytes":"32"},"t_bytes_storage":{"encoding":"bytes","label":"bytes","numberOfBytes":"32"},"t_contract(FunctionsOracleInterface)4003":{"encoding":"inplace","label":"contract FunctionsOracleInterface","numberOfBytes":"20"},"t_contract(LinkMaticPriceFeed)3180":{"encoding":"inplace","label":"contract LinkMaticPriceFeed","numberOfBytes":"20"},"t_contract(MaticUsdPriceFeed)3213":{"encoding":"inplace","label":"contract MaticUsdPriceFeed","numberOfBytes":"20"},"t_contract(VRFCoordinatorV2Interface)397":{"encoding":"inplace","label":"contract VRFCoordinatorV2Interface","numberOfBytes":"20"},"t_enum(PolicyStatus)2115":{"encoding":"inplace","label":"enum Insurance.PolicyStatus","numberOfBytes":"1"},"t_mapping(t_address,t_array(t_struct(InsuranceData)2271_storage)dyn_storage)":{"encoding":"mapping","key":"t_address","label":"mapping(address => struct Insurance.InsuranceData[])","numberOfBytes":"32","value":"t_array(t_struct(InsuranceData)2271_storage)dyn_storage"},"t_mapping(t_address,t_mapping(t_uint256,t_bytes32))":{"encoding":"mapping","key":"t_address","label":"mapping(address => mapping(uint256 => bytes32))","numberOfBytes":"32","value":"t_mapping(t_uint256,t_bytes32)"},"t_mapping(t_address,t_mapping(t_uint256,t_enum(PolicyStatus)2115))":{"encoding":"mapping","key":"t_address","label":"mapping(address => mapping(uint256 => enum Insurance.PolicyStatus))","numberOfBytes":"32","value":"t_mapping(t_uint256,t_enum(PolicyStatus)2115)"},"t_mapping(t_bytes32,t_address)":{"encoding":"mapping","key":"t_bytes32","label":"mapping(bytes32 => address)","numberOfBytes":"32","value":"t_address"},"t_mapping(t_bytes32,t_struct(InsuranceQuoteData)2122_storage)":{"encoding":"mapping","key":"t_bytes32","label":"mapping(bytes32 => struct Insurance.InsuranceQuoteData)","numberOfBytes":"32","value":"t_struct(InsuranceQuoteData)2122_storage"},"t_mapping(t_uint256,t_address)":{"encoding":"mapping","key":"t_uint256","label":"mapping(uint256 => address)","numberOfBytes":"32","value":"t_address"},"t_mapping(t_uint256,t_bytes32)":{"encoding":"mapping","key":"t_uint256","label":"mapping(uint256 => bytes32)","numberOfBytes":"32","value":"t_bytes32"},"t_mapping(t_uint256,t_enum(PolicyStatus)2115)":{"encoding":"mapping","key":"t_uint256","label":"mapping(uint256 => enum Insurance.PolicyStatus)","numberOfBytes":"32","value":"t_enum(PolicyStatus)2115"},"t_mapping(t_uint256,t_struct(RequestStatus)2111_storage)":{"encoding":"mapping","key":"t_uint256","label":"mapping(uint256 => struct Insurance.RequestStatus)","numberOfBytes":"32","value":"t_struct(RequestStatus)2111_storage"},"t_string_storage":{"encoding":"bytes","label":"string","numberOfBytes":"32"},"t_struct(InsuranceData)2271_storage":{"encoding":"inplace","label":"struct Insurance.InsuranceData","members":[{"astId":2248,"contract":"contracts/Insurance.sol:Insurance","label":"latNe","offset":0,"slot":"0","type":"t_string_storage"},{"astId":2250,"contract":"contracts/Insurance.sol:Insurance","label":"longNe","offset":0,"slot":"1","type":"t_string_storage"},{"astId":2252,"contract":"contracts/Insurance.sol:Insurance","label":"latSe","offset":0,"slot":"2","type":"t_string_storage"},{"astId":2254,"contract":"contracts/Insurance.sol:Insurance","label":"longSe","offset":0,"slot":"3","type":"t_string_storage"},{"astId":2256,"contract":"contracts/Insurance.sol:Insurance","label":"latSw","offset":0,"slot":"4","type":"t_string_storage"},{"astId":2258,"contract":"contracts/Insurance.sol:Insurance","label":"longSw","offset":0,"slot":"5","type":"t_string_storage"},{"astId":2260,"contract":"contracts/Insurance.sol:Insurance","label":"latNw","offset":0,"slot":"6","type":"t_string_storage"},{"astId":2262,"contract":"contracts/Insurance.sol:Insurance","label":"longNw","offset":0,"slot":"7","type":"t_string_storage"},{"astId":2264,"contract":"contracts/Insurance.sol:Insurance","label":"configParam","offset":0,"slot":"8","type":"t_string_storage"},{"astId":2266,"contract":"contracts/Insurance.sol:Insurance","label":"startTime","offset":0,"slot":"9","type":"t_string_storage"},{"astId":2268,"contract":"contracts/Insurance.sol:Insurance","label":"endTime","offset":0,"slot":"10","type":"t_string_storage"},{"astId":2270,"contract":"contracts/Insurance.sol:Insurance","label":"policyCreationTime","offset":0,"slot":"11","type":"t_string_storage"}],"numberOfBytes":"384"},"t_struct(InsuranceQuoteData)2122_storage":{"encoding":"inplace","label":"struct Insurance.InsuranceQuoteData","members":[{"astId":2117,"contract":"contracts/Insurance.sol:Insurance","label":"user","offset":0,"slot":"0","type":"t_address"},{"astId":2119,"contract":"contracts/Insurance.sol:Insurance","label":"policyIndex","offset":0,"slot":"1","type":"t_uint256"},{"astId":2121,"contract":"contracts/Insurance.sol:Insurance","label":"cost","offset":0,"slot":"2","type":"t_uint256"}],"numberOfBytes":"96"},"t_struct(RequestStatus)2111_storage":{"encoding":"inplace","label":"struct Insurance.RequestStatus","members":[{"astId":2105,"contract":"contracts/Insurance.sol:Insurance","label":"fulfilled","offset":0,"slot":"0","type":"t_bool"},{"astId":2107,"contract":"contracts/Insurance.sol:Insurance","label":"exists","offset":1,"slot":"0","type":"t_bool"},{"astId":2110,"contract":"contracts/Insurance.sol:Insurance","label":"randomWords","offset":0,"slot":"1","type":"t_array(t_uint256)dyn_storage"}],"numberOfBytes":"64"},"t_uint16":{"encoding":"inplace","label":"uint16","numberOfBytes":"2"},"t_uint256":{"encoding":"inplace","label":"uint256","numberOfBytes":"32"},"t_uint32":{"encoding":"inplace","label":"uint32","numberOfBytes":"4"},"t_uint64":{"encoding":"inplace","label":"uint64","numberOfBytes":"8"}}}}}}