{
  "_format": "hh-sol-artifact-1",
  "contractName": "CheckPayout",
  "sourceName": "contracts/CheckPayout.sol",
  "abi": [
    {
      "inputs": [
        {
          "internalType": "address",
          "name": "oracle",
          "type": "address"
        },
        {
          "internalType": "uint64",
          "name": "_subscriptionId",
          "type": "uint64"
        },
        {
          "internalType": "uint32",
          "name": "_fulfillGasLimit",
          "type": "uint32"
        },
        {
          "internalType": "uint256",
          "name": "_updateInterval",
          "type": "uint256"
        },
        {
          "internalType": "address",
          "name": "_insuranceAddress",
          "type": "address"
        }
      ],
      "stateMutability": "nonpayable",
      "type": "constructor"
    },
    {
      "inputs": [],
      "name": "EmptyArgs",
      "type": "error"
    },
    {
      "inputs": [],
      "name": "EmptySecrets",
      "type": "error"
    },
    {
      "inputs": [],
      "name": "EmptySource",
      "type": "error"
    },
    {
      "inputs": [],
      "name": "NoInlineSecrets",
      "type": "error"
    },
    {
      "inputs": [],
      "name": "RequestIsAlreadyPending",
      "type": "error"
    },
    {
      "inputs": [],
      "name": "RequestIsNotPending",
      "type": "error"
    },
    {
      "inputs": [],
      "name": "SenderIsNotRegistry",
      "type": "error"
    },
    {
      "anonymous": false,
      "inputs": [
        {
          "indexed": true,
          "internalType": "bytes32",
          "name": "requestId",
          "type": "bytes32"
        },
        {
          "indexed": false,
          "internalType": "bytes",
          "name": "result",
          "type": "bytes"
        },
        {
          "indexed": false,
          "internalType": "bytes",
          "name": "err",
          "type": "bytes"
        }
      ],
      "name": "OCRResponse",
      "type": "event"
    },
    {
      "anonymous": false,
      "inputs": [
        {
          "indexed": true,
          "internalType": "address",
          "name": "from",
          "type": "address"
        },
        {
          "indexed": true,
          "internalType": "address",
          "name": "to",
          "type": "address"
        }
      ],
      "name": "OwnershipTransferRequested",
      "type": "event"
    },
    {
      "anonymous": false,
      "inputs": [
        {
          "indexed": true,
          "internalType": "address",
          "name": "from",
          "type": "address"
        },
        {
          "indexed": true,
          "internalType": "address",
          "name": "to",
          "type": "address"
        }
      ],
      "name": "OwnershipTransferred",
      "type": "event"
    },
    {
      "anonymous": false,
      "inputs": [
        {
          "indexed": true,
          "internalType": "bytes32",
          "name": "id",
          "type": "bytes32"
        }
      ],
      "name": "RequestFulfilled",
      "type": "event"
    },
    {
      "anonymous": false,
      "inputs": [
        {
          "indexed": true,
          "internalType": "bytes32",
          "name": "id",
          "type": "bytes32"
        }
      ],
      "name": "RequestSent",
      "type": "event"
    },
    {
      "inputs": [],
      "name": "acceptOwnership",
      "outputs": [],
      "stateMutability": "nonpayable",
      "type": "function"
    },
    {
      "inputs": [
        {
          "internalType": "bytes",
          "name": "",
          "type": "bytes"
        }
      ],
      "name": "checkUpkeep",
      "outputs": [
        {
          "internalType": "bool",
          "name": "upkeepNeeded",
          "type": "bool"
        },
        {
          "internalType": "bytes",
          "name": "",
          "type": "bytes"
        }
      ],
      "stateMutability": "view",
      "type": "function"
    },
    {
      "inputs": [
        {
          "components": [
            {
              "internalType": "enum Functions.Location",
              "name": "codeLocation",
              "type": "uint8"
            },
            {
              "internalType": "enum Functions.Location",
              "name": "secretsLocation",
              "type": "uint8"
            },
            {
              "internalType": "enum Functions.CodeLanguage",
              "name": "language",
              "type": "uint8"
            },
            {
              "internalType": "string",
              "name": "source",
              "type": "string"
            },
            {
              "internalType": "bytes",
              "name": "secrets",
              "type": "bytes"
            },
            {
              "internalType": "string[]",
              "name": "args",
              "type": "string[]"
            }
          ],
          "internalType": "struct Functions.Request",
          "name": "req",
          "type": "tuple"
        },
        {
          "internalType": "uint64",
          "name": "subscriptionId",
          "type": "uint64"
        },
        {
          "internalType": "uint32",
          "name": "gasLimit",
          "type": "uint32"
        },
        {
          "internalType": "uint256",
          "name": "gasPrice",
          "type": "uint256"
        }
      ],
      "name": "estimateCost",
      "outputs": [
        {
          "internalType": "uint96",
          "name": "",
          "type": "uint96"
        }
      ],
      "stateMutability": "view",
      "type": "function"
    },
    {
      "inputs": [],
      "name": "fulfillGasLimit",
      "outputs": [
        {
          "internalType": "uint32",
          "name": "",
          "type": "uint32"
        }
      ],
      "stateMutability": "view",
      "type": "function"
    },
    {
      "inputs": [
        {
          "internalType": "string",
          "name": "source",
          "type": "string"
        },
        {
          "internalType": "bytes",
          "name": "secrets",
          "type": "bytes"
        },
        {
          "internalType": "string[]",
          "name": "args",
          "type": "string[]"
        }
      ],
      "name": "generateRequest",
      "outputs": [
        {
          "internalType": "bytes",
          "name": "",
          "type": "bytes"
        }
      ],
      "stateMutability": "pure",
      "type": "function"
    },
    {
      "inputs": [],
      "name": "getDONPublicKey",
      "outputs": [
        {
          "internalType": "bytes",
          "name": "",
          "type": "bytes"
        }
      ],
      "stateMutability": "view",
      "type": "function"
    },
    {
      "inputs": [],
      "name": "getLastRequestId",
      "outputs": [
        {
          "internalType": "uint256",
          "name": "",
          "type": "uint256"
        }
      ],
      "stateMutability": "view",
      "type": "function"
    },
    {
      "inputs": [
        {
          "internalType": "uint256",
          "name": "_requestId",
          "type": "uint256"
        }
      ],
      "name": "getRandomWords",
      "outputs": [
        {
          "internalType": "uint256[]",
          "name": "",
          "type": "uint256[]"
        }
      ],
      "stateMutability": "view",
      "type": "function"
    },
    {
      "inputs": [
        {
          "internalType": "bytes32",
          "name": "requestId",
          "type": "bytes32"
        },
        {
          "internalType": "bytes",
          "name": "response",
          "type": "bytes"
        },
        {
          "internalType": "bytes",
          "name": "err",
          "type": "bytes"
        }
      ],
      "name": "handleOracleFulfillment",
      "outputs": [],
      "stateMutability": "nonpayable",
      "type": "function"
    },
    {
      "inputs": [],
      "name": "lastUpkeepTimeStamp",
      "outputs": [
        {
          "internalType": "uint256",
          "name": "",
          "type": "uint256"
        }
      ],
      "stateMutability": "view",
      "type": "function"
    },
    {
      "inputs": [],
      "name": "latestError",
      "outputs": [
        {
          "internalType": "bytes",
          "name": "",
          "type": "bytes"
        }
      ],
      "stateMutability": "view",
      "type": "function"
    },
    {
      "inputs": [],
      "name": "latestRequestId",
      "outputs": [
        {
          "internalType": "bytes32",
          "name": "",
          "type": "bytes32"
        }
      ],
      "stateMutability": "view",
      "type": "function"
    },
    {
      "inputs": [],
      "name": "latestResponse",
      "outputs": [
        {
          "internalType": "bytes",
          "name": "",
          "type": "bytes"
        }
      ],
      "stateMutability": "view",
      "type": "function"
    },
    {
      "inputs": [],
      "name": "owner",
      "outputs": [
        {
          "internalType": "address",
          "name": "",
          "type": "address"
        }
      ],
      "stateMutability": "view",
      "type": "function"
    },
    {
      "inputs": [
        {
          "internalType": "bytes",
          "name": "",
          "type": "bytes"
        }
      ],
      "name": "performUpkeep",
      "outputs": [],
      "stateMutability": "nonpayable",
      "type": "function"
    },
    {
      "inputs": [],
      "name": "requestCBOR",
      "outputs": [
        {
          "internalType": "bytes",
          "name": "",
          "type": "bytes"
        }
      ],
      "stateMutability": "view",
      "type": "function"
    },
    {
      "inputs": [],
      "name": "responseCounter",
      "outputs": [
        {
          "internalType": "uint256",
          "name": "",
          "type": "uint256"
        }
      ],
      "stateMutability": "view",
      "type": "function"
    },
    {
      "inputs": [
        {
          "internalType": "uint64",
          "name": "_subscriptionId",
          "type": "uint64"
        },
        {
          "internalType": "uint32",
          "name": "_fulfillGasLimit",
          "type": "uint32"
        },
        {
          "internalType": "uint256",
          "name": "_updateInterval",
          "type": "uint256"
        },
        {
          "internalType": "bytes",
          "name": "newRequestCBOR",
          "type": "bytes"
        }
      ],
      "name": "setRequest",
      "outputs": [],
      "stateMutability": "nonpayable",
      "type": "function"
    },
    {
      "inputs": [],
      "name": "subscriptionId",
      "outputs": [
        {
          "internalType": "uint64",
          "name": "",
          "type": "uint64"
        }
      ],
      "stateMutability": "view",
      "type": "function"
    },
    {
      "inputs": [
        {
          "internalType": "address",
          "name": "to",
          "type": "address"
        }
      ],
      "name": "transferOwnership",
      "outputs": [],
      "stateMutability": "nonpayable",
      "type": "function"
    },
    {
      "inputs": [],
      "name": "updateInterval",
      "outputs": [
        {
          "internalType": "uint256",
          "name": "",
          "type": "uint256"
        }
      ],
      "stateMutability": "view",
      "type": "function"
    },
    {
      "inputs": [
        {
          "internalType": "address",
          "name": "oracle",
          "type": "address"
        }
      ],
      "name": "updateOracleAddress",
      "outputs": [],
      "stateMutability": "nonpayable",
      "type": "function"
    },
    {
      "inputs": [],
      "name": "upkeepCounter",
      "outputs": [
        {
          "internalType": "uint256",
          "name": "",
          "type": "uint256"
        }
      ],
      "stateMutability": "view",
      "type": "function"
    }
  ],
  "bytecode": "0x60806040523480156200001157600080fd5b50604051620024c9380380620024c983398101604081905262000034916200021a565b600080546001600160a01b0319166001600160a01b038716178155339081906001600160a01b038216620000af5760405162461bcd60e51b815260206004820152601860248201527f43616e6e6f7420736574206f776e657220746f207a65726f000000000000000060448201526064015b60405180910390fd5b600280546001600160a01b0319166001600160a01b0384811691909117909155811615620000e257620000e28162000150565b5050506009919091556008805463ffffffff90931668010000000000000000026001600160601b03199093166001600160401b03909416939093179190911790915542600a55600d80546001600160a01b039092166001600160a01b0319909216919091179055506200029b565b6001600160a01b038116331415620001ab5760405162461bcd60e51b815260206004820152601760248201527f43616e6e6f74207472616e7366657220746f2073656c660000000000000000006044820152606401620000a6565b600380546001600160a01b0319166001600160a01b03838116918217909255600254604051919216907fed8889f560326eb138920d842192f0eb3dd22b4f139c87a2c57538e05bae127890600090a350565b80516001600160a01b03811681146200021557600080fd5b919050565b600080600080600060a086880312156200023357600080fd5b6200023e86620001fd565b60208701519095506001600160401b03811681146200025c57600080fd5b604087015190945063ffffffff811681146200027757600080fd5b606087015190935091506200028f60808701620001fd565b90509295509295909350565b61221e80620002ab6000396000f3fe608060405234801561001057600080fd5b506004361061018d5760003560e01c806379ba5097116100e3578063eb197c771161008c578063fd2c80ae11610066578063fd2c80ae14610349578063fe08301214610352578063fffeb84e1461036557600080fd5b8063eb197c7714610310578063f2fde38b14610323578063f7023bb61461033657600080fd5b8063bef3a2f0116100bd578063bef3a2f0146102d0578063d328a91e146102d8578063d4b39175146102e057600080fd5b806379ba5097146102a45780638da5cb5b146102ac578063a3d3c0d2146102c757600080fd5b806324b93e3e116101455780634b3c08f31161011f5780634b3c08f31461024e578063688ecfd11461026e5780636e04ff0d1461028357600080fd5b806324b93e3e14610201578063381fc4b5146102325780634585e33b1461023b57600080fd5b80630ca76175116101765780630ca76175146101db57806319c2b4c3146101f05780631aa46f59146101f857600080fd5b8063089ea02e1461019257806309c1ba2e146101ae575b600080fd5b61019b600a5481565b6040519081526020015b60405180910390f35b6008546101c29067ffffffffffffffff1681565b60405167ffffffffffffffff90911681526020016101a5565b6101ee6101e9366004611942565b61036d565b005b61019b610413565b61019b60055481565b60085461021d9068010000000000000000900463ffffffff1681565b60405163ffffffff90911681526020016101a5565b61019b600c5481565b6101ee6102493660046119af565b6104ae565b61026161025c366004611c6f565b6106d4565b6040516101a59190611d51565b61027661077c565b6040516101a59190611db0565b6102966102913660046119f1565b61080a565b6040516101a5929190611d95565b6101ee610827565b6002546040516001600160a01b0390911681526020016101a5565b61019b600b5481565b6102766108dc565b6102766108e9565b6102f36102ee366004611b5d565b610982565b6040516bffffffffffffffffffffffff90911681526020016101a5565b6101ee61031e366004611c88565b610a1a565b6101ee61033136600461183b565b610a71565b6101ee61034436600461183b565b610a85565b61019b60095481565b610276610360366004611a94565b610aab565b610276610ba5565b60008381526001602052604090205483906001600160a01b031633146103bf576040517fa0c5ec6300000000000000000000000000000000000000000000000000000000815260040160405180910390fd5b60008181526001602052604080822080546001600160a01b03191690555182917f85e1543bf2f84fe80c6badbce3648c8539ad1df4d2b3d822938ca0538be727e691a261040d848484610bb2565b50505050565b600d54604080517ffc2a88c300000000000000000000000000000000000000000000000000000000815290516000926001600160a01b03169163fc2a88c3916004808301926020929190829003018186803b15801561047157600080fd5b505afa158015610485573d6000803e3d6000fd5b505050506040513d601f19601f820116820180604052508101906104a99190611929565b905090565b60006104c86040518060200160405280600081525061080a565b5090508061051d5760405162461bcd60e51b815260206004820152601560248201527f54696d6520696e74657276616c206e6f74206d6574000000000000000000000060448201526064015b60405180910390fd5b42600a55600b5461052f906001611f91565b600b55600080546008546040517f28242b040000000000000000000000000000000000000000000000000000000081526001600160a01b03909216916328242b049161059f9167ffffffffffffffff8216916004916801000000000000000090910463ffffffff16908201611e24565b602060405180830381600087803b1580156105b957600080fd5b505af11580156105cd573d6000803e3d6000fd5b505050506040513d601f19601f820116820180604052508101906105f19190611929565b905060008054906101000a90046001600160a01b03166001600160a01b0316635ab1bd536040518163ffffffff1660e01b815260040160206040518083038186803b15801561063f57600080fd5b505afa158015610653573d6000803e3d6000fd5b505050506040513d601f19601f820116820180604052508101906106779190611858565b60008281526001602052604080822080546001600160a01b0319166001600160a01b039490941693909317909255905182917f1131472297a800fee664d1d89cfa8f7676ff07189ecc53f80bbb5f4969099db891a2600555505050565b600d546040517fd8a4676f0000000000000000000000000000000000000000000000000000000081526004810183905260609160009182916001600160a01b03169063d8a4676f9060240160006040518083038186803b15801561073757600080fd5b505afa15801561074b573d6000803e3d6000fd5b505050506040513d6000823e601f3d908101601f191682016040526107739190810190611875565b95945050505050565b6004805461078990612103565b80601f01602080910402602001604051908101604052809291908181526020018280546107b590612103565b80156108025780601f106107d757610100808354040283529160200191610802565b820191906000526020600020905b8154815290600101906020018083116107e557829003601f168201915b505050505081565b60006060600954600a544261081f91906120b3565b119150915091565b6003546001600160a01b031633146108815760405162461bcd60e51b815260206004820152601660248201527f4d7573742062652070726f706f736564206f776e6572000000000000000000006044820152606401610514565b600280546001600160a01b0319808216339081179093556003805490911690556040516001600160a01b03909116919082907f8be0079c531659141344cd1fd0a4f28419497f9722a3daafe3b4186f6b6457e090600090a350565b6006805461078990612103565b60008054604080517fd328a91e00000000000000000000000000000000000000000000000000000000815290516060936001600160a01b039093169263d328a91e9260048082019391829003018186803b15801561094657600080fd5b505afa15801561095a573d6000803e3d6000fd5b505050506040513d6000823e601f3d908101601f191682016040526104a99190810190611a26565b600080546001600160a01b031663d227d2458561099e88610c2c565b86866040518563ffffffff1660e01b81526004016109bf9493929190611de8565b60206040518083038186803b1580156109d757600080fd5b505afa1580156109eb573d6000803e3d6000fd5b505050506040513d601f19601f82011682018060405250810190610a0f9190611cf7565b90505b949350505050565b610a22610ef8565b60098390556008805463ffffffff861668010000000000000000026bffffffffffffffffffffffff1990911667ffffffffffffffff881617179055610a6960048383611570565b505050505050565b610a79610ef8565b610a8281610f54565b50565b610a8d610ef8565b600080546001600160a01b0319166001600160a01b03831617905550565b6060610ae76040805160c08101909152806000815260200160008152602001600081526020016060815260200160608152602001606081525090565b610b2e6000808a8a8080601f01602080910402602001604051908101604052809392919081815260200183838082843760009201919091525087959493925050610fff9050565b8415610b7657610b7686868080601f01602080910402602001604051908101604052809392919081815260200183838082843760009201919091525085939250506110939050565b8215610b9057610b90610b8984866120ca565b82906110da565b610b9981610c2c565b98975050505050505050565b6007805461078990612103565b8151610bc59060069060208501906115f4565b508051610bd99060079060208401906115f4565b50600c54610be8906001611f91565b600c5560405183907f7bab0ec163b5c132c72b8146ac4d6e067e82ed58f8b131150aa71c925891156290610c1f9085908590611dc3565b60405180910390a2505050565b6060610c36611668565b8051610c449061010061111a565b50610c84816040518060400160405280600c81526020017f636f64654c6f636174696f6e0000000000000000000000000000000000000000815250611194565b610ca38184600001516001811115610c9e57610c9e612191565b6111b2565b610ce2816040518060400160405280600881526020017f6c616e6775616765000000000000000000000000000000000000000000000000815250611194565b610cfc8184604001516000811115610c9e57610c9e612191565b610d3b816040518060400160405280600681526020017f736f757263650000000000000000000000000000000000000000000000000000815250611194565b610d49818460600151611194565b60a08301515115610def57610d93816040518060400160405280600481526020017f6172677300000000000000000000000000000000000000000000000000000000815250611194565b610d9c816111ef565b60005b8360a0015151811015610de557610dd3828560a001518381518110610dc657610dc66121a7565b6020026020010151611194565b80610ddd8161213e565b915050610d9f565b50610def81611213565b60808301515115610ef057600083602001516001811115610e1257610e12612191565b1415610e4a576040517fa80d31f700000000000000000000000000000000000000000000000000000000815260040160405180910390fd5b610e89816040518060400160405280600f81526020017f736563726574734c6f636174696f6e0000000000000000000000000000000000815250611194565b610ea38184602001516001811115610c9e57610c9e612191565b610ee2816040518060400160405280600781526020017f7365637265747300000000000000000000000000000000000000000000000000815250611194565b610ef0818460800151611231565b515192915050565b6002546001600160a01b03163314610f525760405162461bcd60e51b815260206004820152601660248201527f4f6e6c792063616c6c61626c65206279206f776e6572000000000000000000006044820152606401610514565b565b6001600160a01b038116331415610fad5760405162461bcd60e51b815260206004820152601760248201527f43616e6e6f74207472616e7366657220746f2073656c660000000000000000006044820152606401610514565b600380546001600160a01b0319166001600160a01b03838116918217909255600254604051919216907fed8889f560326eb138920d842192f0eb3dd22b4f139c87a2c57538e05bae127890600090a350565b8051611037576040517f22ce3edd00000000000000000000000000000000000000000000000000000000815260040160405180910390fd5b8383600181111561104a5761104a612191565b9081600181111561105d5761105d612191565b9052506040840182801561107357611073612191565b9081801561108357611083612191565b9052506060909301929092525050565b80516110cb576040517fe889636f00000000000000000000000000000000000000000000000000000000815260040160405180910390fd5b60016020830152608090910152565b8051611112576040517ffe936cb700000000000000000000000000000000000000000000000000000000815260040160405180910390fd5b60a090910152565b60408051808201909152606081526000602082015261113a602083612159565b156111625761114a602083612159565b6111559060206120b3565b61115f9083611f91565b91505b60208084018390526040518085526000815290818401018181101561118657600080fd5b604052508290505b92915050565b6111a1826003835161123a565b81516111ad908261135b565b505050565b81516111bf9060c2611383565b506111eb82826040516020016111d791815260200190565b604051602081830303815290604052611231565b5050565b6111fa8160046113ec565b60018160200181815161120d9190611f91565b90525050565b61121e8160076113ec565b60018160200181815161120d91906120b3565b6111a182600283515b60178167ffffffffffffffff161161126157825161040d9060e0600585901b168317611383565b60ff8167ffffffffffffffff16116112a357825161128a906018611fe0600586901b1617611383565b50825161040d9067ffffffffffffffff83166001611403565b61ffff8167ffffffffffffffff16116112e65782516112cd906019611fe0600586901b1617611383565b50825161040d9067ffffffffffffffff83166002611403565b63ffffffff8167ffffffffffffffff161161132b57825161131290601a611fe0600586901b1617611383565b50825161040d9067ffffffffffffffff83166004611403565b825161134290601b611fe0600586901b1617611383565b50825161040d9067ffffffffffffffff83166008611403565b60408051808201909152606081526000602082015261137c83838451611488565b9392505050565b60408051808201909152606081526000602082015282515160006113a8826001611f91565b9050846020015182106113c9576113c9856113c4836002612094565b611559565b84516020838201018581535080518211156113e2578181525b5093949350505050565b81516111ad90601f611fe0600585901b1617611383565b60408051808201909152606081526000602082015283515160006114278285611f91565b9050856020015181111561144457611444866113c4836002612094565b6000600161145486610100611fec565b61145e91906120b3565b9050865182810187831982511617815250805183111561147c578281525b50959695505050505050565b60408051808201909152606081526000602082015282518211156114ab57600080fd5b83515160006114ba8483611f91565b905085602001518111156114d7576114d7866113c4836002612094565b8551805183820160200191600091808511156114f1578482525b505050602086015b602086106115315780518252611510602083611f91565b915061151d602082611f91565b905061152a6020876120b3565b95506114f9565b51815160001960208890036101000a0190811690199190911617905250849150509392505050565b8151611565838361111a565b5061040d838261135b565b82805461157c90612103565b90600052602060002090601f01602090048101928261159e57600085556115e4565b82601f106115b75782800160ff198235161785556115e4565b828001600101855582156115e4579182015b828111156115e45782358255916020019190600101906115c9565b506115f092915061169d565b5090565b82805461160090612103565b90600052602060002090601f01602090048101928261162257600085556115e4565b82601f1061163b57805160ff19168380011785556115e4565b828001600101855582156115e4579182015b828111156115e457825182559160200191906001019061164d565b6040518060400160405280611690604051806040016040528060608152602001600081525090565b8152602001600081525090565b5b808211156115f0576000815560010161169e565b60006116c56116c084611f45565b611f14565b9050808382526020808301915083868660051b860111156116e557600080fd5b6000805b8781101561172657823567ffffffffffffffff811115611707578283fd5b6117138a828a0161179b565b86525093830193918301916001016116e9565b50505050509392505050565b600082601f83011261174357600080fd5b61137c838335602085016116b2565b60008083601f84011261176457600080fd5b50813567ffffffffffffffff81111561177c57600080fd5b60208301915083602082850101111561179457600080fd5b9250929050565b600082601f8301126117ac57600080fd5b81356117ba6116c082611f69565b8181528460208386010111156117cf57600080fd5b816020850160208301376000918101602001919091529392505050565b8035600181106117fb57600080fd5b919050565b8035600281106117fb57600080fd5b803563ffffffff811681146117fb57600080fd5b803567ffffffffffffffff811681146117fb57600080fd5b60006020828403121561184d57600080fd5b813561137c816121d3565b60006020828403121561186a57600080fd5b815161137c816121d3565b6000806040838503121561188857600080fd5b8251801515811461189857600080fd5b8092505060208084015167ffffffffffffffff8111156118b757600080fd5b8401601f810186136118c857600080fd5b80516118d66116c082611f45565b80828252848201915084840189868560051b87010111156118f657600080fd5b600094505b838510156119195780518352600194909401939185019185016118fb565b5080955050505050509250929050565b60006020828403121561193b57600080fd5b5051919050565b60008060006060848603121561195757600080fd5b83359250602084013567ffffffffffffffff8082111561197657600080fd5b6119828783880161179b565b9350604086013591508082111561199857600080fd5b506119a58682870161179b565b9150509250925092565b600080602083850312156119c257600080fd5b823567ffffffffffffffff8111156119d957600080fd5b6119e585828601611752565b90969095509350505050565b600060208284031215611a0357600080fd5b813567ffffffffffffffff811115611a1a57600080fd5b610a128482850161179b565b600060208284031215611a3857600080fd5b815167ffffffffffffffff811115611a4f57600080fd5b8201601f81018413611a6057600080fd5b8051611a6e6116c082611f69565b818152856020838501011115611a8357600080fd5b6107738260208301602086016120d7565b60008060008060008060608789031215611aad57600080fd5b863567ffffffffffffffff80821115611ac557600080fd5b611ad18a838b01611752565b90985096506020890135915080821115611aea57600080fd5b611af68a838b01611752565b90965094506040890135915080821115611b0f57600080fd5b818901915089601f830112611b2357600080fd5b813581811115611b3257600080fd5b8a60208260051b8501011115611b4757600080fd5b6020830194508093505050509295509295509295565b60008060008060808587031215611b7357600080fd5b843567ffffffffffffffff80821115611b8b57600080fd5b9086019060c08289031215611b9f57600080fd5b611ba7611eeb565b611bb083611800565b8152611bbe60208401611800565b6020820152611bcf604084016117ec565b6040820152606083013582811115611be657600080fd5b611bf28a82860161179b565b606083015250608083013582811115611c0a57600080fd5b611c168a82860161179b565b60808301525060a083013582811115611c2e57600080fd5b611c3a8a828601611732565b60a0830152509550611c5191505060208601611823565b9250611c5f6040860161180f565b9396929550929360600135925050565b600060208284031215611c8157600080fd5b5035919050565b600080600080600060808688031215611ca057600080fd5b611ca986611823565b9450611cb76020870161180f565b935060408601359250606086013567ffffffffffffffff811115611cda57600080fd5b611ce688828901611752565b969995985093965092949392505050565b600060208284031215611d0957600080fd5b81516bffffffffffffffffffffffff8116811461137c57600080fd5b60008151808452611d3d8160208601602086016120d7565b601f01601f19169290920160200192915050565b6020808252825182820181905260009190848201906040850190845b81811015611d8957835183529284019291840191600101611d6d565b50909695505050505050565b8215158152604060208201526000610a126040830184611d25565b60208152600061137c6020830184611d25565b604081526000611dd66040830185611d25565b82810360208401526107738185611d25565b67ffffffffffffffff85168152608060208201526000611e0b6080830186611d25565b63ffffffff949094166040830152506060015292915050565b67ffffffffffffffff84168152600060206060818401526000855481600182811c915080831680611e5657607f831692505b858310811415611e7457634e487b7160e01b85526022600452602485fd5b6060880183905260808801818015611e935760018114611ea457611ecf565b60ff19861682528782019650611ecf565b60008c81526020902060005b86811015611ec957815484820152908501908901611eb0565b83019750505b50505063ffffffff8816604088015250919350610a1292505050565b60405160c0810167ffffffffffffffff81118282101715611f0e57611f0e6121bd565b60405290565b604051601f8201601f1916810167ffffffffffffffff81118282101715611f3d57611f3d6121bd565b604052919050565b600067ffffffffffffffff821115611f5f57611f5f6121bd565b5060051b60200190565b600067ffffffffffffffff821115611f8357611f836121bd565b50601f01601f191660200190565b60008219821115611fa457611fa461217b565b500190565b600181815b80851115611fe4578160001904821115611fca57611fca61217b565b80851615611fd757918102915b93841c9390800290611fae565b509250929050565b600061137c83836000826120025750600161118e565b8161200f5750600061118e565b8160018114612025576002811461202f5761204b565b600191505061118e565b60ff8411156120405761204061217b565b50506001821b61118e565b5060208310610133831016604e8410600b841016171561206e575081810a61118e565b6120788383611fa9565b806000190482111561208c5761208c61217b565b029392505050565b60008160001904831182151516156120ae576120ae61217b565b500290565b6000828210156120c5576120c561217b565b500390565b600061137c3684846116b2565b60005b838110156120f25781810151838201526020016120da565b8381111561040d5750506000910152565b600181811c9082168061211757607f821691505b6020821081141561213857634e487b7160e01b600052602260045260246000fd5b50919050565b60006000198214156121525761215261217b565b5060010190565b60008261217657634e487b7160e01b600052601260045260246000fd5b500690565b634e487b7160e01b600052601160045260246000fd5b634e487b7160e01b600052602160045260246000fd5b634e487b7160e01b600052603260045260246000fd5b634e487b7160e01b600052604160045260246000fd5b6001600160a01b0381168114610a8257600080fdfea2646970667358221220d876ef41d88d5639336e34e0c7b1bb6a972504297e0c6ffa39545fb62017953b64736f6c63430008070033",
  "linkReferences": {},
  "deployedLinkReferences": {}
}