{
  "_format": "hh-sol-artifact-1",
  "contractName": "CheckPayout",
  "sourceName": "contracts/CheckPayout.sol",
  "abi": [
    {
      "inputs": [
        {
          "internalType": "address",
          "name": "oracle",
          "type": "address"
        },
        {
          "internalType": "address",
          "name": "insuranceAddress",
          "type": "address"
        }
      ],
      "stateMutability": "nonpayable",
      "type": "constructor"
    },
    {
      "inputs": [],
      "name": "EmptyArgs",
      "type": "error"
    },
    {
      "inputs": [],
      "name": "EmptySource",
      "type": "error"
    },
    {
      "inputs": [],
      "name": "NoInlineSecrets",
      "type": "error"
    },
    {
      "inputs": [],
      "name": "RequestIsAlreadyPending",
      "type": "error"
    },
    {
      "inputs": [],
      "name": "RequestIsNotPending",
      "type": "error"
    },
    {
      "inputs": [],
      "name": "SenderIsNotRegistry",
      "type": "error"
    },
    {
      "anonymous": false,
      "inputs": [
        {
          "indexed": true,
          "internalType": "bytes32",
          "name": "requestId",
          "type": "bytes32"
        },
        {
          "indexed": false,
          "internalType": "bytes",
          "name": "result",
          "type": "bytes"
        },
        {
          "indexed": false,
          "internalType": "bytes",
          "name": "err",
          "type": "bytes"
        }
      ],
      "name": "OCRResponse",
      "type": "event"
    },
    {
      "anonymous": false,
      "inputs": [
        {
          "indexed": true,
          "internalType": "address",
          "name": "from",
          "type": "address"
        },
        {
          "indexed": true,
          "internalType": "address",
          "name": "to",
          "type": "address"
        }
      ],
      "name": "OwnershipTransferRequested",
      "type": "event"
    },
    {
      "anonymous": false,
      "inputs": [
        {
          "indexed": true,
          "internalType": "address",
          "name": "from",
          "type": "address"
        },
        {
          "indexed": true,
          "internalType": "address",
          "name": "to",
          "type": "address"
        }
      ],
      "name": "OwnershipTransferred",
      "type": "event"
    },
    {
      "anonymous": false,
      "inputs": [
        {
          "indexed": true,
          "internalType": "bytes32",
          "name": "id",
          "type": "bytes32"
        }
      ],
      "name": "RequestFulfilled",
      "type": "event"
    },
    {
      "anonymous": false,
      "inputs": [
        {
          "indexed": true,
          "internalType": "bytes32",
          "name": "id",
          "type": "bytes32"
        }
      ],
      "name": "RequestSent",
      "type": "event"
    },
    {
      "inputs": [],
      "name": "acceptOwnership",
      "outputs": [],
      "stateMutability": "nonpayable",
      "type": "function"
    },
    {
      "inputs": [
        {
          "internalType": "address",
          "name": "oracleAddress",
          "type": "address"
        },
        {
          "internalType": "bytes32",
          "name": "requestId",
          "type": "bytes32"
        }
      ],
      "name": "addSimulatedRequestId",
      "outputs": [],
      "stateMutability": "nonpayable",
      "type": "function"
    },
    {
      "inputs": [
        {
          "internalType": "string",
          "name": "source",
          "type": "string"
        },
        {
          "internalType": "string[]",
          "name": "args",
          "type": "string[]"
        },
        {
          "internalType": "uint64",
          "name": "subscriptionId",
          "type": "uint64"
        },
        {
          "internalType": "uint32",
          "name": "gasLimit",
          "type": "uint32"
        },
        {
          "internalType": "uint256",
          "name": "policyIndex",
          "type": "uint256"
        }
      ],
      "name": "checkPolicy",
      "outputs": [
        {
          "internalType": "bytes32",
          "name": "",
          "type": "bytes32"
        }
      ],
      "stateMutability": "nonpayable",
      "type": "function"
    },
    {
      "inputs": [
        {
          "components": [
            {
              "internalType": "enum Functions.Location",
              "name": "codeLocation",
              "type": "uint8"
            },
            {
              "internalType": "enum Functions.Location",
              "name": "secretsLocation",
              "type": "uint8"
            },
            {
              "internalType": "enum Functions.CodeLanguage",
              "name": "language",
              "type": "uint8"
            },
            {
              "internalType": "string",
              "name": "source",
              "type": "string"
            },
            {
              "internalType": "bytes",
              "name": "secrets",
              "type": "bytes"
            },
            {
              "internalType": "string[]",
              "name": "args",
              "type": "string[]"
            }
          ],
          "internalType": "struct Functions.Request",
          "name": "req",
          "type": "tuple"
        },
        {
          "internalType": "uint64",
          "name": "subscriptionId",
          "type": "uint64"
        },
        {
          "internalType": "uint32",
          "name": "gasLimit",
          "type": "uint32"
        },
        {
          "internalType": "uint256",
          "name": "gasPrice",
          "type": "uint256"
        }
      ],
      "name": "estimateCost",
      "outputs": [
        {
          "internalType": "uint96",
          "name": "",
          "type": "uint96"
        }
      ],
      "stateMutability": "view",
      "type": "function"
    },
    {
      "inputs": [],
      "name": "getDONPublicKey",
      "outputs": [
        {
          "internalType": "bytes",
          "name": "",
          "type": "bytes"
        }
      ],
      "stateMutability": "view",
      "type": "function"
    },
    {
      "inputs": [
        {
          "internalType": "bytes32",
          "name": "requestId",
          "type": "bytes32"
        },
        {
          "internalType": "bytes",
          "name": "response",
          "type": "bytes"
        },
        {
          "internalType": "bytes",
          "name": "err",
          "type": "bytes"
        }
      ],
      "name": "handleOracleFulfillment",
      "outputs": [],
      "stateMutability": "nonpayable",
      "type": "function"
    },
    {
      "inputs": [],
      "name": "insuranceContract",
      "outputs": [
        {
          "internalType": "contract Insurance",
          "name": "",
          "type": "address"
        }
      ],
      "stateMutability": "view",
      "type": "function"
    },
    {
      "inputs": [],
      "name": "latestError",
      "outputs": [
        {
          "internalType": "bytes",
          "name": "",
          "type": "bytes"
        }
      ],
      "stateMutability": "view",
      "type": "function"
    },
    {
      "inputs": [],
      "name": "latestRequestId",
      "outputs": [
        {
          "internalType": "bytes32",
          "name": "",
          "type": "bytes32"
        }
      ],
      "stateMutability": "view",
      "type": "function"
    },
    {
      "inputs": [],
      "name": "latestResponse",
      "outputs": [
        {
          "internalType": "bytes",
          "name": "",
          "type": "bytes"
        }
      ],
      "stateMutability": "view",
      "type": "function"
    },
    {
      "inputs": [],
      "name": "owner",
      "outputs": [
        {
          "internalType": "address",
          "name": "",
          "type": "address"
        }
      ],
      "stateMutability": "view",
      "type": "function"
    },
    {
      "inputs": [
        {
          "internalType": "bytes32",
          "name": "",
          "type": "bytes32"
        }
      ],
      "name": "requestIdToPolicyIndex",
      "outputs": [
        {
          "internalType": "uint256",
          "name": "",
          "type": "uint256"
        }
      ],
      "stateMutability": "view",
      "type": "function"
    },
    {
      "inputs": [
        {
          "internalType": "bytes32",
          "name": "",
          "type": "bytes32"
        }
      ],
      "name": "requestIdToSender",
      "outputs": [
        {
          "internalType": "address",
          "name": "",
          "type": "address"
        }
      ],
      "stateMutability": "view",
      "type": "function"
    },
    {
      "inputs": [
        {
          "internalType": "string",
          "name": "s",
          "type": "string"
        }
      ],
      "name": "stringToUint256",
      "outputs": [
        {
          "internalType": "uint256",
          "name": "",
          "type": "uint256"
        }
      ],
      "stateMutability": "pure",
      "type": "function"
    },
    {
      "inputs": [
        {
          "internalType": "address",
          "name": "to",
          "type": "address"
        }
      ],
      "name": "transferOwnership",
      "outputs": [],
      "stateMutability": "nonpayable",
      "type": "function"
    },
    {
      "inputs": [
        {
          "internalType": "address",
          "name": "oracle",
          "type": "address"
        }
      ],
      "name": "updateOracleAddress",
      "outputs": [],
      "stateMutability": "nonpayable",
      "type": "function"
    }
  ],
  "bytecode": "0x60806040523480156200001157600080fd5b5060405162002404380380620024048339810160408190526200003491620001d8565b600080546001600160a01b0319166001600160a01b038416178155339081906001600160a01b038216620000af5760405162461bcd60e51b815260206004820152601860248201527f43616e6e6f7420736574206f776e657220746f207a65726f000000000000000060448201526064015b60405180910390fd5b600280546001600160a01b0319166001600160a01b0384811691909117909155811615620000e257620000e2816200010e565b5050600780546001600160a01b0319166001600160a01b03939093169290921790915550620002109050565b6001600160a01b038116331415620001695760405162461bcd60e51b815260206004820152601760248201527f43616e6e6f74207472616e7366657220746f2073656c660000000000000000006044820152606401620000a6565b600380546001600160a01b0319166001600160a01b03838116918217909255600254604051919216907fed8889f560326eb138920d842192f0eb3dd22b4f139c87a2c57538e05bae127890600090a350565b80516001600160a01b0381168114620001d357600080fd5b919050565b60008060408385031215620001ec57600080fd5b620001f783620001bb565b91506200020760208401620001bb565b90509250929050565b6121e480620002206000396000f3fe608060405234801561001057600080fd5b50600436106101005760003560e01c8063ac5d372311610097578063d4b3917511610066578063d4b3917514610219578063f2fde38b14610249578063f7023bb61461025c578063fffeb84e1461026f57600080fd5b8063ac5d3723146101d6578063bef3a2f0146101e9578063d012a5a8146101fe578063d328a91e1461021157600080fd5b80634732889d116100d35780634732889d1461018a57806379ba5097146101aa5780637f30dfa9146101b25780638da5cb5b146101c557600080fd5b80630ca76175146101055780631aa46f591461011a578063219c0eee1461013657806330bda99d14610177575b600080fd5b6101186101133660046118db565b610277565b005b61012360045481565b6040519081526020015b60405180910390f35b61015f6101443660046118a9565b6009602052600090815260409020546001600160a01b031681565b6040516001600160a01b03909116815260200161012d565b61011861018536600461187d565b61031d565b6101236101983660046118a9565b60086020526000908152604090205481565b610118610333565b6101236101c0366004611999565b6103ed565b6002546001600160a01b031661015f565b6101236101e4366004611a5f565b6104d6565b6101f1610558565b60405161012d9190611e04565b60075461015f906001600160a01b031681565b6101f16105e6565b61022c610227366004611c98565b610684565b6040516bffffffffffffffffffffffff909116815260200161012d565b610118610257366004611843565b61071a565b61011861026a366004611843565b61072e565b6101f1610754565b60008381526001602052604090205483906001600160a01b031633146102c9576040517fa0c5ec6300000000000000000000000000000000000000000000000000000000815260040160405180910390fd5b60008181526001602052604080822080546001600160a01b03191690555182917f85e1543bf2f84fe80c6badbce3648c8539ad1df4d2b3d822938ca0538be727e691a2610317848484610761565b50505050565b610325610aa2565b61032f8282610afe565b5050565b6003546001600160a01b031633146103925760405162461bcd60e51b815260206004820152601660248201527f4d7573742062652070726f706f736564206f776e65720000000000000000000060448201526064015b60405180910390fd5b600280546001600160a01b0319808216339081179093556003805490911690556040516001600160a01b03909116919082907f8be0079c531659141344cd1fd0a4f28419497f9722a3daafe3b4186f6b6457e090600090a350565b60006104296040805160c08101909152806000815260200160008152602001600081526020016060815260200160608152602001606081525090565b6104706000808b8b8080601f01602080910402602001604051908101604052809392919081815260200183838082843760009201919091525087959493925050610b7e9050565b851561048a5761048a6104838789612090565b8290610c12565b6000610497828787610c52565b600481905560008181526008602090815260408083208890556009909152902080546001600160a01b0319163317905592505050979650505050505050565b60008181805b82518110156105505760008382815181106104f9576104f961216d565b016020015160f81c905060308110801590610515575060398111155b1561053d57610525603082612079565b61053084600a61205a565b61053a9190611f57565b92505b508061054881612104565b9150506104dc565b509392505050565b60058054610565906120c9565b80601f0160208091040260200160405190810160405280929190818152602001828054610591906120c9565b80156105de5780601f106105b3576101008083540402835291602001916105de565b820191906000526020600020905b8154815290600101906020018083116105c157829003601f168201915b505050505081565b60008054604080517fd328a91e00000000000000000000000000000000000000000000000000000000815290516060936001600160a01b039093169263d328a91e9260048082019391829003018186803b15801561064357600080fd5b505afa158015610657573d6000803e3d6000fd5b505050506040513d6000823e601f3d908101601f1916820160405261067f9190810190611948565b905090565b600080546001600160a01b031663d227d245856106a088610dc6565b86866040518563ffffffff1660e01b81526004016106c19493929190611e75565b60206040518083038186803b1580156106d957600080fd5b505afa1580156106ed573d6000803e3d6000fd5b505050506040513d601f19601f820116820180604052508101906107119190611daa565b95945050505050565b610722610aa2565b61072b81611092565b50565b610736610aa2565b600080546001600160a01b0319166001600160a01b03831617905550565b60068054610565906120c9565b8151610774906005906020850190611588565b508051610788906006906020840190611588565b50827f7bab0ec163b5c132c72b8146ac4d6e067e82ed58f8b131150aa71c925891156283836040516107bb929190611e17565b60405180910390a260008381526008602090815260408083205460099092528083205460075491517f61875d8d0000000000000000000000000000000000000000000000000000000081523360048201526024810184905292936001600160a01b0391821693909291909116906361875d8d9060440160006040518083038186803b15801561084957600080fd5b505afa15801561085d573d6000803e3d6000fd5b505050506040513d6000823e601f3d908101601f191682016040526108859190810190611a94565b6007546040517fcc9de25d0000000000000000000000000000000000000000000000000000000081529192506000916001600160a01b039091169063cc9de25d906108d4908990600401611e04565b60206040518083038186803b1580156108ec57600080fd5b505afa158015610900573d6000803e3d6000fd5b505050506040513d601f19601f8201168201806040525081019061092491906118c2565b90508015610a16576007546040517fecd831e80000000000000000000000000000000000000000000000000000000081526001600160a01b038581166004830152602482018490529091169063ecd831e890604401600060405180830381600087803b15801561099357600080fd5b505af11580156109a7573d6000803e3d6000fd5b5050600754604051632f1635a360e21b81526001600160a01b03878116600483015260248201899052909116925063bc58d68c9150604401600060405180830381600087803b1580156109f957600080fd5b505af1158015610a0d573d6000803e3d6000fd5b50505050610a99565b6000610a268361014001516104d6565b905080421115610a9757600754604051632f1635a360e21b81526001600160a01b038681166004830152602482018890529091169063bc58d68c90604401600060405180830381600087803b158015610a7e57600080fd5b505af1158015610a92573d6000803e3d6000fd5b505050505b505b50505050505050565b6002546001600160a01b03163314610afc5760405162461bcd60e51b815260206004820152601660248201527f4f6e6c792063616c6c61626c65206279206f776e6572000000000000000000006044820152606401610389565b565b60008181526001602052604090205481906001600160a01b031615610b4f576040517f8b457ad200000000000000000000000000000000000000000000000000000000815260040160405180910390fd5b50600090815260016020526040902080546001600160a01b0319166001600160a01b0392909216919091179055565b8051610bb6576040517f22ce3edd00000000000000000000000000000000000000000000000000000000815260040160405180910390fd5b83836001811115610bc957610bc9612157565b90816001811115610bdc57610bdc612157565b90525060408401828015610bf257610bf2612157565b90818015610c0257610c02612157565b9052506060909301929092525050565b8051610c4a576040517ffe936cb700000000000000000000000000000000000000000000000000000000815260040160405180910390fd5b60a090910152565b6000805481906001600160a01b03166328242b0485610c7088610dc6565b866040518463ffffffff1660e01b8152600401610c8f93929190611e3c565b602060405180830381600087803b158015610ca957600080fd5b505af1158015610cbd573d6000803e3d6000fd5b505050506040513d601f19601f82011682018060405250810190610ce191906118c2565b905060008054906101000a90046001600160a01b03166001600160a01b0316635ab1bd536040518163ffffffff1660e01b815260040160206040518083038186803b158015610d2f57600080fd5b505afa158015610d43573d6000803e3d6000fd5b505050506040513d601f19601f82011682018060405250810190610d679190611860565b60008281526001602052604080822080546001600160a01b0319166001600160a01b039490941693909317909255905182917f1131472297a800fee664d1d89cfa8f7676ff07189ecc53f80bbb5f4969099db891a290505b9392505050565b6060610dd061160c565b8051610dde9061010061113d565b50610e1e816040518060400160405280600c81526020017f636f64654c6f636174696f6e00000000000000000000000000000000000000008152506111b7565b610e3d8184600001516001811115610e3857610e38612157565b6111d5565b610e7c816040518060400160405280600881526020017f6c616e67756167650000000000000000000000000000000000000000000000008152506111b7565b610e968184604001516000811115610e3857610e38612157565b610ed5816040518060400160405280600681526020017f736f7572636500000000000000000000000000000000000000000000000000008152506111b7565b610ee38184606001516111b7565b60a08301515115610f8957610f2d816040518060400160405280600481526020017f61726773000000000000000000000000000000000000000000000000000000008152506111b7565b610f368161120e565b60005b8360a0015151811015610f7f57610f6d828560a001518381518110610f6057610f6061216d565b60200260200101516111b7565b80610f7781612104565b915050610f39565b50610f8981611232565b6080830151511561108a57600083602001516001811115610fac57610fac612157565b1415610fe4576040517fa80d31f700000000000000000000000000000000000000000000000000000000815260040160405180910390fd5b611023816040518060400160405280600f81526020017f736563726574734c6f636174696f6e00000000000000000000000000000000008152506111b7565b61103d8184602001516001811115610e3857610e38612157565b61107c816040518060400160405280600781526020017f73656372657473000000000000000000000000000000000000000000000000008152506111b7565b61108a818460800151611250565b515192915050565b6001600160a01b0381163314156110eb5760405162461bcd60e51b815260206004820152601760248201527f43616e6e6f74207472616e7366657220746f2073656c660000000000000000006044820152606401610389565b600380546001600160a01b0319166001600160a01b03838116918217909255600254604051919216907fed8889f560326eb138920d842192f0eb3dd22b4f139c87a2c57538e05bae127890600090a350565b60408051808201909152606081526000602082015261115d60208361211f565b156111855761116d60208361211f565b611178906020612079565b6111829083611f57565b91505b6020808401839052604051808552600081529081840101818110156111a957600080fd5b604052508290505b92915050565b6111c48260038351611259565b81516111d0908261137a565b505050565b81516111e29060c261139b565b5061032f82826040516020016111fa91815260200190565b604051602081830303815290604052611250565b611219816004611404565b60018160200181815161122c9190611f57565b90525050565b61123d816007611404565b60018160200181815161122c9190612079565b6111c482600283515b60178167ffffffffffffffff16116112805782516103179060e0600585901b16831761139b565b60ff8167ffffffffffffffff16116112c25782516112a9906018611fe0600586901b161761139b565b5082516103179067ffffffffffffffff8316600161141b565b61ffff8167ffffffffffffffff16116113055782516112ec906019611fe0600586901b161761139b565b5082516103179067ffffffffffffffff8316600261141b565b63ffffffff8167ffffffffffffffff161161134a57825161133190601a611fe0600586901b161761139b565b5082516103179067ffffffffffffffff8316600461141b565b825161136190601b611fe0600586901b161761139b565b5082516103179067ffffffffffffffff8316600861141b565b604080518082019091526060815260006020820152610dbf838384516114a0565b60408051808201909152606081526000602082015282515160006113c0826001611f57565b9050846020015182106113e1576113e1856113dc83600261205a565b611571565b84516020838201018581535080518211156113fa578181525b5093949350505050565b81516111d090601f611fe0600585901b161761139b565b604080518082019091526060815260006020820152835151600061143f8285611f57565b9050856020015181111561145c5761145c866113dc83600261205a565b6000600161146c86610100611fb2565b6114769190612079565b90508651828101878319825116178152508051831115611494578281525b50959695505050505050565b60408051808201909152606081526000602082015282518211156114c357600080fd5b83515160006114d28483611f57565b905085602001518111156114ef576114ef866113dc83600261205a565b855180518382016020019160009180851115611509578482525b505050602086015b602086106115495780518252611528602083611f57565b9150611535602082611f57565b9050611542602087612079565b9550611511565b51815160001960208890036101000a0190811690199190911617905250849150509392505050565b815161157d838361113d565b50610317838261137a565b828054611594906120c9565b90600052602060002090601f0160209004810192826115b657600085556115fc565b82601f106115cf57805160ff19168380011785556115fc565b828001600101855582156115fc579182015b828111156115fc5782518255916020019190600101906115e1565b50611608929150611641565b5090565b6040518060400160405280611634604051806040016040528060608152602001600081525090565b8152602001600081525090565b5b808211156116085760008155600101611642565b600067ffffffffffffffff8084111561167157611671612183565b8360051b6020611682818301611efe565b86815293508084018583810189101561169a57600080fd5b60009350835b888110156116d5578135868111156116b6578586fd5b6116c28b828b01611783565b84525091830191908301906001016116a0565b5050505050509392505050565b60006116f56116f084611f2f565b611efe565b905082815283838301111561170957600080fd5b610dbf83602083018461209d565b60008083601f84011261172957600080fd5b50813567ffffffffffffffff81111561174157600080fd5b6020830191508360208260051b850101111561175c57600080fd5b9250929050565b600082601f83011261177457600080fd5b610dbf83833560208501611656565b600082601f83011261179457600080fd5b81356117a26116f082611f2f565b8181528460208386010111156117b757600080fd5b816020850160208301376000918101602001919091529392505050565b8035600181106117e357600080fd5b919050565b8035600281106117e357600080fd5b600082601f83011261180857600080fd5b610dbf838351602085016116e2565b803563ffffffff811681146117e357600080fd5b803567ffffffffffffffff811681146117e357600080fd5b60006020828403121561185557600080fd5b8135610dbf81612199565b60006020828403121561187257600080fd5b8151610dbf81612199565b6000806040838503121561189057600080fd5b823561189b81612199565b946020939093013593505050565b6000602082840312156118bb57600080fd5b5035919050565b6000602082840312156118d457600080fd5b5051919050565b6000806000606084860312156118f057600080fd5b83359250602084013567ffffffffffffffff8082111561190f57600080fd5b61191b87838801611783565b9350604086013591508082111561193157600080fd5b5061193e86828701611783565b9150509250925092565b60006020828403121561195a57600080fd5b815167ffffffffffffffff81111561197157600080fd5b8201601f8101841361198257600080fd5b611991848251602084016116e2565b949350505050565b600080600080600080600060a0888a0312156119b457600080fd5b873567ffffffffffffffff808211156119cc57600080fd5b818a0191508a601f8301126119e057600080fd5b8135818111156119ef57600080fd5b8b6020828501011115611a0157600080fd5b602092830199509750908901359080821115611a1c57600080fd5b50611a298a828b01611717565b9096509450611a3c90506040890161182b565b9250611a4a60608901611817565b91506080880135905092959891949750929550565b600060208284031215611a7157600080fd5b813567ffffffffffffffff811115611a8857600080fd5b61199184828501611783565b600060208284031215611aa657600080fd5b815167ffffffffffffffff80821115611abe57600080fd5b908301906101808286031215611ad357600080fd5b611adb611eb1565b825182811115611aea57600080fd5b611af6878286016117f7565b825250602083015182811115611b0b57600080fd5b611b17878286016117f7565b602083015250604083015182811115611b2f57600080fd5b611b3b878286016117f7565b604083015250606083015182811115611b5357600080fd5b611b5f878286016117f7565b606083015250608083015182811115611b7757600080fd5b611b83878286016117f7565b60808301525060a083015182811115611b9b57600080fd5b611ba7878286016117f7565b60a08301525060c083015182811115611bbf57600080fd5b611bcb878286016117f7565b60c08301525060e083015182811115611be357600080fd5b611bef878286016117f7565b60e0830152506101008084015183811115611c0957600080fd5b611c15888287016117f7565b8284015250506101208084015183811115611c2f57600080fd5b611c3b888287016117f7565b8284015250506101408084015183811115611c5557600080fd5b611c61888287016117f7565b8284015250506101608084015183811115611c7b57600080fd5b611c87888287016117f7565b918301919091525095945050505050565b60008060008060808587031215611cae57600080fd5b843567ffffffffffffffff80821115611cc657600080fd5b9086019060c08289031215611cda57600080fd5b611ce2611edb565b611ceb836117e8565b8152611cf9602084016117e8565b6020820152611d0a604084016117d4565b6040820152606083013582811115611d2157600080fd5b611d2d8a828601611783565b606083015250608083013582811115611d4557600080fd5b611d518a828601611783565b60808301525060a083013582811115611d6957600080fd5b611d758a828601611763565b60a0830152509550611d8c9150506020860161182b565b9250611d9a60408601611817565b9396929550929360600135925050565b600060208284031215611dbc57600080fd5b81516bffffffffffffffffffffffff81168114610dbf57600080fd5b60008151808452611df081602086016020860161209d565b601f01601f19169290920160200192915050565b602081526000610dbf6020830184611dd8565b604081526000611e2a6040830185611dd8565b82810360208401526107118185611dd8565b67ffffffffffffffff84168152606060208201526000611e5f6060830185611dd8565b905063ffffffff83166040830152949350505050565b67ffffffffffffffff85168152608060208201526000611e986080830186611dd8565b63ffffffff949094166040830152506060015292915050565b604051610180810167ffffffffffffffff81118282101715611ed557611ed5612183565b60405290565b60405160c0810167ffffffffffffffff81118282101715611ed557611ed5612183565b604051601f8201601f1916810167ffffffffffffffff81118282101715611f2757611f27612183565b604052919050565b600067ffffffffffffffff821115611f4957611f49612183565b50601f01601f191660200190565b60008219821115611f6a57611f6a612141565b500190565b600181815b80851115611faa578160001904821115611f9057611f90612141565b80851615611f9d57918102915b93841c9390800290611f74565b509250929050565b6000610dbf8383600082611fc8575060016111b1565b81611fd5575060006111b1565b8160018114611feb5760028114611ff557612011565b60019150506111b1565b60ff84111561200657612006612141565b50506001821b6111b1565b5060208310610133831016604e8410600b8410161715612034575081810a6111b1565b61203e8383611f6f565b806000190482111561205257612052612141565b029392505050565b600081600019048311821515161561207457612074612141565b500290565b60008282101561208b5761208b612141565b500390565b6000610dbf368484611656565b60005b838110156120b85781810151838201526020016120a0565b838111156103175750506000910152565b600181811c908216806120dd57607f821691505b602082108114156120fe57634e487b7160e01b600052602260045260246000fd5b50919050565b600060001982141561211857612118612141565b5060010190565b60008261213c57634e487b7160e01b600052601260045260246000fd5b500690565b634e487b7160e01b600052601160045260246000fd5b634e487b7160e01b600052602160045260246000fd5b634e487b7160e01b600052603260045260246000fd5b634e487b7160e01b600052604160045260246000fd5b6001600160a01b038116811461072b57600080fdfea264697066735822122080f65937b06f67b1d5b5aa1a03839aa811d20cc1e3bf8bdd1842a476316b540c64736f6c63430008070033",
  "linkReferences": {},
  "deployedLinkReferences": {}
}