{
  "_format": "hh-sol-artifact-1",
  "contractName": "CheckPayout",
  "sourceName": "contracts/CheckPayout.sol",
  "abi": [
    {
      "inputs": [
        {
          "internalType": "address",
          "name": "oracle",
          "type": "address"
        },
        {
          "internalType": "address",
          "name": "insuranceAddress",
          "type": "address"
        }
      ],
      "stateMutability": "nonpayable",
      "type": "constructor"
    },
    {
      "inputs": [],
      "name": "EmptyArgs",
      "type": "error"
    },
    {
      "inputs": [],
      "name": "EmptySource",
      "type": "error"
    },
    {
      "inputs": [],
      "name": "NoInlineSecrets",
      "type": "error"
    },
    {
      "inputs": [],
      "name": "RequestIsAlreadyPending",
      "type": "error"
    },
    {
      "inputs": [],
      "name": "RequestIsNotPending",
      "type": "error"
    },
    {
      "inputs": [],
      "name": "SenderIsNotRegistry",
      "type": "error"
    },
    {
      "anonymous": false,
      "inputs": [
        {
          "indexed": true,
          "internalType": "bytes32",
          "name": "requestId",
          "type": "bytes32"
        },
        {
          "indexed": false,
          "internalType": "bytes",
          "name": "result",
          "type": "bytes"
        },
        {
          "indexed": false,
          "internalType": "bytes",
          "name": "err",
          "type": "bytes"
        }
      ],
      "name": "OCRResponse",
      "type": "event"
    },
    {
      "anonymous": false,
      "inputs": [
        {
          "indexed": true,
          "internalType": "address",
          "name": "previousOwner",
          "type": "address"
        },
        {
          "indexed": true,
          "internalType": "address",
          "name": "newOwner",
          "type": "address"
        }
      ],
      "name": "OwnershipTransferred",
      "type": "event"
    },
    {
      "anonymous": false,
      "inputs": [
        {
          "indexed": false,
          "internalType": "address",
          "name": "originalSender",
          "type": "address"
        },
        {
          "indexed": false,
          "internalType": "uint256",
          "name": "policyIndex",
          "type": "uint256"
        },
        {
          "indexed": false,
          "internalType": "uint256",
          "name": "payoutAmount",
          "type": "uint256"
        }
      ],
      "name": "Payout",
      "type": "event"
    },
    {
      "anonymous": false,
      "inputs": [
        {
          "indexed": false,
          "internalType": "address",
          "name": "originalSender",
          "type": "address"
        },
        {
          "indexed": false,
          "internalType": "uint256",
          "name": "policyIndex",
          "type": "uint256"
        }
      ],
      "name": "PolicyEnded",
      "type": "event"
    },
    {
      "anonymous": false,
      "inputs": [
        {
          "indexed": true,
          "internalType": "bytes32",
          "name": "id",
          "type": "bytes32"
        }
      ],
      "name": "RequestFulfilled",
      "type": "event"
    },
    {
      "anonymous": false,
      "inputs": [
        {
          "indexed": true,
          "internalType": "bytes32",
          "name": "id",
          "type": "bytes32"
        }
      ],
      "name": "RequestSent",
      "type": "event"
    },
    {
      "anonymous": false,
      "inputs": [
        {
          "indexed": false,
          "internalType": "address",
          "name": "originalSender",
          "type": "address"
        },
        {
          "indexed": false,
          "internalType": "uint256",
          "name": "policyIndex",
          "type": "uint256"
        },
        {
          "indexed": false,
          "internalType": "uint256",
          "name": "timeRemaining",
          "type": "uint256"
        }
      ],
      "name": "TimeRemaining",
      "type": "event"
    },
    {
      "anonymous": false,
      "inputs": [
        {
          "indexed": false,
          "internalType": "string[]",
          "name": "args",
          "type": "string[]"
        }
      ],
      "name": "UsingArgs",
      "type": "event"
    },
    {
      "inputs": [
        {
          "internalType": "address",
          "name": "oracleAddress",
          "type": "address"
        },
        {
          "internalType": "bytes32",
          "name": "requestId",
          "type": "bytes32"
        }
      ],
      "name": "addSimulatedRequestId",
      "outputs": [],
      "stateMutability": "nonpayable",
      "type": "function"
    },
    {
      "inputs": [
        {
          "internalType": "uint64",
          "name": "subscriptionId",
          "type": "uint64"
        },
        {
          "internalType": "uint32",
          "name": "gasLimit",
          "type": "uint32"
        },
        {
          "internalType": "uint256",
          "name": "policyIndex",
          "type": "uint256"
        }
      ],
      "name": "checkPolicy",
      "outputs": [
        {
          "internalType": "bytes32",
          "name": "",
          "type": "bytes32"
        }
      ],
      "stateMutability": "nonpayable",
      "type": "function"
    },
    {
      "inputs": [
        {
          "components": [
            {
              "internalType": "enum Functions.Location",
              "name": "codeLocation",
              "type": "uint8"
            },
            {
              "internalType": "enum Functions.Location",
              "name": "secretsLocation",
              "type": "uint8"
            },
            {
              "internalType": "enum Functions.CodeLanguage",
              "name": "language",
              "type": "uint8"
            },
            {
              "internalType": "string",
              "name": "source",
              "type": "string"
            },
            {
              "internalType": "bytes",
              "name": "secrets",
              "type": "bytes"
            },
            {
              "internalType": "string[]",
              "name": "args",
              "type": "string[]"
            }
          ],
          "internalType": "struct Functions.Request",
          "name": "req",
          "type": "tuple"
        },
        {
          "internalType": "uint64",
          "name": "subscriptionId",
          "type": "uint64"
        },
        {
          "internalType": "uint32",
          "name": "gasLimit",
          "type": "uint32"
        },
        {
          "internalType": "uint256",
          "name": "gasPrice",
          "type": "uint256"
        }
      ],
      "name": "estimateCost",
      "outputs": [
        {
          "internalType": "uint96",
          "name": "",
          "type": "uint96"
        }
      ],
      "stateMutability": "view",
      "type": "function"
    },
    {
      "inputs": [],
      "name": "getDONPublicKey",
      "outputs": [
        {
          "internalType": "bytes",
          "name": "",
          "type": "bytes"
        }
      ],
      "stateMutability": "view",
      "type": "function"
    },
    {
      "inputs": [],
      "name": "getSourceCode",
      "outputs": [
        {
          "internalType": "string",
          "name": "",
          "type": "string"
        }
      ],
      "stateMutability": "view",
      "type": "function"
    },
    {
      "inputs": [
        {
          "internalType": "bytes32",
          "name": "requestId",
          "type": "bytes32"
        },
        {
          "internalType": "bytes",
          "name": "response",
          "type": "bytes"
        },
        {
          "internalType": "bytes",
          "name": "err",
          "type": "bytes"
        }
      ],
      "name": "handleOracleFulfillment",
      "outputs": [],
      "stateMutability": "nonpayable",
      "type": "function"
    },
    {
      "inputs": [],
      "name": "insuranceContract",
      "outputs": [
        {
          "internalType": "contract Insurance",
          "name": "",
          "type": "address"
        }
      ],
      "stateMutability": "view",
      "type": "function"
    },
    {
      "inputs": [],
      "name": "latestError",
      "outputs": [
        {
          "internalType": "bytes",
          "name": "",
          "type": "bytes"
        }
      ],
      "stateMutability": "view",
      "type": "function"
    },
    {
      "inputs": [],
      "name": "latestRequestId",
      "outputs": [
        {
          "internalType": "bytes32",
          "name": "",
          "type": "bytes32"
        }
      ],
      "stateMutability": "view",
      "type": "function"
    },
    {
      "inputs": [],
      "name": "latestResponse",
      "outputs": [
        {
          "internalType": "bytes",
          "name": "",
          "type": "bytes"
        }
      ],
      "stateMutability": "view",
      "type": "function"
    },
    {
      "inputs": [],
      "name": "owner",
      "outputs": [
        {
          "internalType": "address",
          "name": "",
          "type": "address"
        }
      ],
      "stateMutability": "view",
      "type": "function"
    },
    {
      "inputs": [],
      "name": "renounceOwnership",
      "outputs": [],
      "stateMutability": "nonpayable",
      "type": "function"
    },
    {
      "inputs": [
        {
          "internalType": "bytes32",
          "name": "",
          "type": "bytes32"
        }
      ],
      "name": "requestIdToPolicyIndex",
      "outputs": [
        {
          "internalType": "uint256",
          "name": "",
          "type": "uint256"
        }
      ],
      "stateMutability": "view",
      "type": "function"
    },
    {
      "inputs": [
        {
          "internalType": "bytes32",
          "name": "",
          "type": "bytes32"
        }
      ],
      "name": "requestIdToSender",
      "outputs": [
        {
          "internalType": "address",
          "name": "",
          "type": "address"
        }
      ],
      "stateMutability": "view",
      "type": "function"
    },
    {
      "inputs": [
        {
          "internalType": "string",
          "name": "_sourceCode",
          "type": "string"
        }
      ],
      "name": "setSourceCode",
      "outputs": [],
      "stateMutability": "nonpayable",
      "type": "function"
    },
    {
      "inputs": [],
      "name": "sourceCode",
      "outputs": [
        {
          "internalType": "string",
          "name": "",
          "type": "string"
        }
      ],
      "stateMutability": "view",
      "type": "function"
    },
    {
      "inputs": [
        {
          "internalType": "string",
          "name": "s",
          "type": "string"
        }
      ],
      "name": "stringToUint256",
      "outputs": [
        {
          "internalType": "uint256",
          "name": "",
          "type": "uint256"
        }
      ],
      "stateMutability": "pure",
      "type": "function"
    },
    {
      "inputs": [
        {
          "internalType": "address",
          "name": "newOwner",
          "type": "address"
        }
      ],
      "name": "transferOwnership",
      "outputs": [],
      "stateMutability": "nonpayable",
      "type": "function"
    },
    {
      "inputs": [
        {
          "internalType": "address",
          "name": "oracle",
          "type": "address"
        }
      ],
      "name": "updateOracleAddress",
      "outputs": [],
      "stateMutability": "nonpayable",
      "type": "function"
    }
  ],
  "bytecode": "0x60806040523480156200001157600080fd5b5060405162002bad38038062002bad8339810160408190526200003491620000f0565b600080546001600160a01b0319166001600160a01b0384161790556200005a3362000081565b600780546001600160a01b0319166001600160a01b03929092169190911790555062000128565b600280546001600160a01b038381166001600160a01b0319831681179093556040519116919082907f8be0079c531659141344cd1fd0a4f28419497f9722a3daafe3b4186f6b6457e090600090a35050565b80516001600160a01b0381168114620000eb57600080fd5b919050565b600080604083850312156200010457600080fd5b6200010f83620000d3565b91506200011f60208401620000d3565b90509250929050565b612a7580620001386000396000f3fe608060405234801561001057600080fd5b50600436106101505760003560e01c8063715018a6116100cd578063d328a91e11610081578063f2fde38b11610066578063f2fde38b146102c0578063f7023bb6146102d3578063fffeb84e146102e657600080fd5b8063d328a91e14610288578063d4b391751461029057600080fd5b8063ac5d3723116100b2578063ac5d37231461025a578063bef3a2f01461026d578063d012a5a81461027557600080fd5b8063715018a6146102415780638da5cb5b1461024957600080fd5b8063219c0eee11610124578063448af93711610109578063448af937146102065780634732889d14610219578063698cd3ad1461023957600080fd5b8063219c0eee146101b257806330bda99d146101f357600080fd5b8062b46767146101555780630ca761751461016a57806313c601771461017d5780631aa46f591461019b575b600080fd5b6101686101633660046121fd565b6102ee565b005b61016861017836600461213f565b61030d565b6101856103b3565b60405161019291906126a2565b60405180910390f35b6101a460045481565b604051908152602001610192565b6101db6101c036600461210d565b6009602052600090815260409020546001600160a01b031681565b6040516001600160a01b039091168152602001610192565b6101686102013660046120e1565b610441565b6101a46102143660046125aa565b610453565b6101a461022736600461210d565b60086020526000908152604090205481565b610185610a63565b610168610af5565b6002546001600160a01b03166101db565b6101a46102683660046121fd565b610b09565b610185610b8b565b6007546101db906001600160a01b031681565b610185610b98565b6102a361029e366004612498565b610c36565b6040516bffffffffffffffffffffffff9091168152602001610192565b6101686102ce3660046120a7565b610ccc565b6101686102e13660046120a7565b610d61565b610185610d87565b6102f6610d94565b8051610309906003906020840190611dae565b5050565b60008381526001602052604090205483906001600160a01b0316331461035f576040517fa0c5ec6300000000000000000000000000000000000000000000000000000000815260040160405180910390fd5b60008181526001602052604080822080546001600160a01b03191690555182917f85e1543bf2f84fe80c6badbce3648c8539ad1df4d2b3d822938ca0538be727e691a26103ad848484610dee565b50505050565b600380546103c09061295a565b80601f01602080910402602001604051908101604052809291908181526020018280546103ec9061295a565b80156104395780601f1061040e57610100808354040283529160200191610439565b820191906000526020600020905b81548152906001019060200180831161041c57829003601f168201915b505050505081565b610449610d94565b61030982826111fd565b600061045d611e32565b6007546040516361875d8d60e01b8152336004820152602481018590526001600160a01b03909116906361875d8d9060440160006040518083038186803b1580156104a757600080fd5b505afa1580156104bb573d6000803e3d6000fd5b505050506040513d6000823e601f3d908101601f191682016040526104e39190810190612232565b81526007546040517f6ec7be7e000000000000000000000000000000000000000000000000000000008152336004820152602481018590526000916001600160a01b031690636ec7be7e9060440160206040518083038186803b15801561054957600080fd5b505afa15801561055d573d6000803e3d6000fd5b505050506040513d601f19601f820116820180604052508101906105819190612126565b6007546040517f215fc625000000000000000000000000000000000000000000000000000000008152600481018390529192506001600160a01b03169063215fc6259060240160606040518083038186803b1580156105df57600080fd5b505afa1580156105f3573d6000803e3d6000fd5b505050506040513d601f19601f820116820180604052508101906106179190612436565b60208381018290526040918201518251600e8082526101e08201909452909260009282015b606081526020019060019003908161063c575050845151815191925090829060009061066a5761066a6129fe565b602002602001018190525083600001516020015181600181518110610691576106916129fe565b6020026020010181905250836000015160400151816002815181106106b8576106b86129fe565b6020026020010181905250836000015160600151816003815181106106df576106df6129fe565b602002602001018190525083600001516080015181600481518110610706576107066129fe565b6020026020010181905250836000015160a001518160058151811061072d5761072d6129fe565b6020026020010181905250836000015160c0015181600681518110610754576107546129fe565b6020026020010181905250836000015160e001518160078151811061077b5761077b6129fe565b602002602001018190525083600001516101000151816008815181106107a3576107a36129fe565b602002602001018190525083600001516101200151816009815181106107cb576107cb6129fe565b60200260200101819052508360000151610140015181600a815181106107f3576107f36129fe565b60200260200101819052506108074261127d565b81600b8151811061081a5761081a6129fe565b60200260200101819052508360000151610160015181600c81518110610842576108426129fe565b60200260200101819052506108db600760009054906101000a90046001600160a01b03166001600160a01b031663b91ce2056040518163ffffffff1660e01b815260040160206040518083038186803b15801561089e57600080fd5b505afa1580156108b2573d6000803e3d6000fd5b505050506040513d601f19601f820116820180604052508101906108d69190612126565b61127d565b81600d815181106108ee576108ee6129fe565b60200260200101819052506109336040805160c08101909152806000815260200160008152602001600081526020016060815260200160608152602001606081525090565b6109d5600080600380546109469061295a565b80601f01602080910402602001604051908101604052809291908181526020018280546109729061295a565b80156109bf5780601f10610994576101008083540402835291602001916109bf565b820191906000526020600020905b8154815290600101906020018083116109a257829003601f168201915b50505050508461131f909392919063ffffffff16565b6109df81836113b3565b7f930a61d412ee04b567f790d1232c1fe3d797de7bfa1f99ba4b6e7fcc7448521f82604051610a0e9190612640565b60405180910390a16000610a23828b8b6113f3565b600481905560008181526008602090815260408083208c90556009909152902080546001600160a01b0319163317905596505050505050505b9392505050565b606060038054610a729061295a565b80601f0160208091040260200160405190810160405280929190818152602001828054610a9e9061295a565b8015610aeb5780601f10610ac057610100808354040283529160200191610aeb565b820191906000526020600020905b815481529060010190602001808311610ace57829003601f168201915b5050505050905090565b610afd610d94565b610b076000611565565b565b60008181805b8251811015610b83576000838281518110610b2c57610b2c6129fe565b016020015160f81c905060308110801590610b48575060398111155b15610b7057610b58603082612917565b610b6384600a6128f8565b610b6d91906127f5565b92505b5080610b7b81612995565b915050610b0f565b509392505050565b600580546103c09061295a565b60008054604080517fd328a91e00000000000000000000000000000000000000000000000000000000815290516060936001600160a01b039093169263d328a91e9260048082019391829003018186803b158015610bf557600080fd5b505afa158015610c09573d6000803e3d6000fd5b505050506040513d6000823e601f3d908101601f19168201604052610c3191908101906121ac565b905090565b600080546001600160a01b031663d227d24585610c52886115b7565b86866040518563ffffffff1660e01b8152600401610c739493929190612713565b60206040518083038186803b158015610c8b57600080fd5b505afa158015610c9f573d6000803e3d6000fd5b505050506040513d601f19601f82011682018060405250810190610cc391906125e6565b95945050505050565b610cd4610d94565b6001600160a01b038116610d555760405162461bcd60e51b815260206004820152602660248201527f4f776e61626c653a206e6577206f776e657220697320746865207a65726f206160448201527f646472657373000000000000000000000000000000000000000000000000000060648201526084015b60405180910390fd5b610d5e81611565565b50565b610d69610d94565b600080546001600160a01b0319166001600160a01b03831617905550565b600680546103c09061295a565b6002546001600160a01b03163314610b075760405162461bcd60e51b815260206004820181905260248201527f4f776e61626c653a2063616c6c6572206973206e6f7420746865206f776e65726044820152606401610d4c565b8151610e01906005906020850190611dae565b508051610e15906006906020840190611dae565b50827f7bab0ec163b5c132c72b8146ac4d6e067e82ed58f8b131150aa71c92589115628383604051610e489291906126b5565b60405180910390a260008381526008602090815260408083205460099092528083205460075491516361875d8d60e01b81526001600160a01b03918216600482018190526024820185905293949291909116906361875d8d9060440160006040518083038186803b158015610ebc57600080fd5b505afa158015610ed0573d6000803e3d6000fd5b505050506040513d6000823e601f3d908101601f19168201604052610ef89190810190612232565b6007546040517fcc9de25d0000000000000000000000000000000000000000000000000000000081529192506000916001600160a01b039091169063cc9de25d90610f479089906004016126a2565b60206040518083038186803b158015610f5f57600080fd5b505afa158015610f73573d6000803e3d6000fd5b505050506040513d601f19601f82011682018060405250810190610f979190612126565b905080156110d4576007546040517fecd831e80000000000000000000000000000000000000000000000000000000081526001600160a01b038581166004830152602482018490529091169063ecd831e890604401600060405180830381600087803b15801561100657600080fd5b505af115801561101a573d6000803e3d6000fd5b5050600754604051632f1635a360e21b81526001600160a01b03878116600483015260248201899052909116925063bc58d68c9150604401600060405180830381600087803b15801561106c57600080fd5b505af1158015611080573d6000803e3d6000fd5b5050604080516001600160a01b0387168152602081018890529081018490527f634235fcf5af0adbca1a405ec65f6f6c08f55e1f379c2c45cd10f23cb29e0e319250606001905060405180910390a16111f4565b60006110e4836101400151610b09565b90508042111561119c57600754604051632f1635a360e21b81526001600160a01b038681166004830152602482018890529091169063bc58d68c90604401600060405180830381600087803b15801561113c57600080fd5b505af1158015611150573d6000803e3d6000fd5b5050604080516001600160a01b0388168152602081018990527f05e258a8da32249e7d7e1ebcd6b64f7c97c4235999db64b6687191b183d5e3f2935001905060405180910390a16111f2565b7f59d77641060cafc4d86dddd4bd9c687bbfbd23fb4b1962869afe9f54507105ea84866111c94285612917565b604080516001600160a01b03909416845260208401929092529082015260600160405180910390a15b505b50505050505050565b60008181526001602052604090205481906001600160a01b03161561124e576040517f8b457ad200000000000000000000000000000000000000000000000000000000815260040160405180910390fd5b50600090815260016020526040902080546001600160a01b0319166001600160a01b0392909216919091179055565b6060600061128a83611883565b600101905060008167ffffffffffffffff8111156112aa576112aa612a14565b6040519080825280601f01601f1916602001820160405280156112d4576020820181803683370190505b5090508181016020015b600019017f3031323334353637383961626364656600000000000000000000000000000000600a86061a8153600a850494508461131a57610b83565b6112de565b8051611357576040517f22ce3edd00000000000000000000000000000000000000000000000000000000815260040160405180910390fd5b8383600181111561136a5761136a6129e8565b9081600181111561137d5761137d6129e8565b90525060408401828015611393576113936129e8565b908180156113a3576113a36129e8565b9052506060909301929092525050565b80516113eb576040517ffe936cb700000000000000000000000000000000000000000000000000000000815260040160405180910390fd5b60a090910152565b6000805481906001600160a01b03166328242b0485611411886115b7565b866040518463ffffffff1660e01b8152600401611430939291906126da565b602060405180830381600087803b15801561144a57600080fd5b505af115801561145e573d6000803e3d6000fd5b505050506040513d601f19601f820116820180604052508101906114829190612126565b905060008054906101000a90046001600160a01b03166001600160a01b0316635ab1bd536040518163ffffffff1660e01b815260040160206040518083038186803b1580156114d057600080fd5b505afa1580156114e4573d6000803e3d6000fd5b505050506040513d601f19601f8201168201806040525081019061150891906120c4565b60008281526001602052604080822080546001600160a01b0319166001600160a01b039490941693909317909255905182917f1131472297a800fee664d1d89cfa8f7676ff07189ecc53f80bbb5f4969099db891a2949350505050565b600280546001600160a01b038381166001600160a01b0319831681179093556040519116919082907f8be0079c531659141344cd1fd0a4f28419497f9722a3daafe3b4186f6b6457e090600090a35050565b60606115c1611ec4565b80516115cf90610100611966565b5061160f816040518060400160405280600c81526020017f636f64654c6f636174696f6e00000000000000000000000000000000000000008152506119dd565b61162e8184600001516001811115611629576116296129e8565b6119fb565b61166d816040518060400160405280600881526020017f6c616e67756167650000000000000000000000000000000000000000000000008152506119dd565b6116878184604001516000811115611629576116296129e8565b6116c6816040518060400160405280600681526020017f736f7572636500000000000000000000000000000000000000000000000000008152506119dd565b6116d48184606001516119dd565b60a0830151511561177a5761171e816040518060400160405280600481526020017f61726773000000000000000000000000000000000000000000000000000000008152506119dd565b61172781611a34565b60005b8360a00151518110156117705761175e828560a001518381518110611751576117516129fe565b60200260200101516119dd565b8061176881612995565b91505061172a565b5061177a81611a58565b6080830151511561187b5760008360200151600181111561179d5761179d6129e8565b14156117d5576040517fa80d31f700000000000000000000000000000000000000000000000000000000815260040160405180910390fd5b611814816040518060400160405280600f81526020017f736563726574734c6f636174696f6e00000000000000000000000000000000008152506119dd565b61182e8184602001516001811115611629576116296129e8565b61186d816040518060400160405280600781526020017f73656372657473000000000000000000000000000000000000000000000000008152506119dd565b61187b818460800151611a76565b515192915050565b6000807a184f03e93ff9f4daa797ed6e38ed64bf6a1f01000000000000000083106118cc577a184f03e93ff9f4daa797ed6e38ed64bf6a1f010000000000000000830492506040015b6d04ee2d6d415b85acef810000000083106118f8576d04ee2d6d415b85acef8100000000830492506020015b662386f26fc10000831061191657662386f26fc10000830492506010015b6305f5e100831061192e576305f5e100830492506008015b612710831061194257612710830492506004015b60648310611954576064830492506002015b600a8310611960576001015b92915050565b6040805180820190915260608152600060208201526119866020836129b0565b156119ae576119966020836129b0565b6119a1906020612917565b6119ab90836127f5565b91505b6020808401839052604051808552600081529081840101818110156119d257600080fd5b604052509192915050565b6119ea8260038351611a7f565b81516119f69082611ba0565b505050565b8151611a089060c2611bc1565b506103098282604051602001611a2091815260200190565b604051602081830303815290604052611a76565b611a3f816004611c2a565b600181602001818151611a5291906127f5565b90525050565b611a63816007611c2a565b600181602001818151611a529190612917565b6119ea82600283515b60178167ffffffffffffffff1611611aa65782516103ad9060e0600585901b168317611bc1565b60ff8167ffffffffffffffff1611611ae8578251611acf906018611fe0600586901b1617611bc1565b5082516103ad9067ffffffffffffffff83166001611c41565b61ffff8167ffffffffffffffff1611611b2b578251611b12906019611fe0600586901b1617611bc1565b5082516103ad9067ffffffffffffffff83166002611c41565b63ffffffff8167ffffffffffffffff1611611b70578251611b5790601a611fe0600586901b1617611bc1565b5082516103ad9067ffffffffffffffff83166004611c41565b8251611b8790601b611fe0600586901b1617611bc1565b5082516103ad9067ffffffffffffffff83166008611c41565b604080518082019091526060815260006020820152610a5c83838451611cc6565b6040805180820190915260608152600060208201528251516000611be68260016127f5565b905084602001518210611c0757611c0785611c028360026128f8565b611d97565b8451602083820101858153508051821115611c20578181525b5093949350505050565b81516119f690601f611fe0600585901b1617611bc1565b6040805180820190915260608152600060208201528351516000611c6582856127f5565b90508560200151811115611c8257611c8286611c028360026128f8565b60006001611c9286610100612850565b611c9c9190612917565b90508651828101878319825116178152508051831115611cba578281525b50959695505050505050565b6040805180820190915260608152600060208201528251821115611ce957600080fd5b8351516000611cf884836127f5565b90508560200151811115611d1557611d1586611c028360026128f8565b855180518382016020019160009180851115611d2f578482525b505050602086015b60208610611d6f5780518252611d4e6020836127f5565b9150611d5b6020826127f5565b9050611d68602087612917565b9550611d37565b51815160001960208890036101000a0190811690199190911617905250849150509392505050565b8151611da38383611966565b506103ad8382611ba0565b828054611dba9061295a565b90600052602060002090601f016020900481019282611ddc5760008555611e22565b82601f10611df557805160ff1916838001178555611e22565b82800160010185558215611e22579182015b82811115611e22578251825591602001919060010190611e07565b50611e2e929150611ef9565b5090565b6040518060400160405280611ea16040518061018001604052806060815260200160608152602001606081526020016060815260200160608152602001606081526020016060815260200160608152602001606081526020016060815260200160608152602001606081525090565b815260408051606081018252600080825260208281018290529282015291015290565b6040518060400160405280611eec604051806040016040528060608152602001600081525090565b8152602001600081525090565b5b80821115611e2e5760008155600101611efa565b6000611f21611f1c846127cd565b61279c565b9050828152838383011115611f3557600080fd5b610a5c83602083018461292e565b600082601f830112611f5457600080fd5b8135602067ffffffffffffffff80831115611f7157611f71612a14565b8260051b611f8083820161279c565b8481528381019087850183890186018a1015611f9b57600080fd5b60009350835b87811015611fd857813586811115611fb7578586fd5b611fc58c89838e0101611fe7565b8552509286019290860190600101611fa1565b50909998505050505050505050565b600082601f830112611ff857600080fd5b8135612006611f1c826127cd565b81815284602083860101111561201b57600080fd5b816020850160208301376000918101602001919091529392505050565b80356001811061204757600080fd5b919050565b80356002811061204757600080fd5b600082601f83011261206c57600080fd5b610a5c83835160208501611f0e565b803563ffffffff8116811461204757600080fd5b803567ffffffffffffffff8116811461204757600080fd5b6000602082840312156120b957600080fd5b8135610a5c81612a2a565b6000602082840312156120d657600080fd5b8151610a5c81612a2a565b600080604083850312156120f457600080fd5b82356120ff81612a2a565b946020939093013593505050565b60006020828403121561211f57600080fd5b5035919050565b60006020828403121561213857600080fd5b5051919050565b60008060006060848603121561215457600080fd5b83359250602084013567ffffffffffffffff8082111561217357600080fd5b61217f87838801611fe7565b9350604086013591508082111561219557600080fd5b506121a286828701611fe7565b9150509250925092565b6000602082840312156121be57600080fd5b815167ffffffffffffffff8111156121d557600080fd5b8201601f810184136121e657600080fd5b6121f584825160208401611f0e565b949350505050565b60006020828403121561220f57600080fd5b813567ffffffffffffffff81111561222657600080fd5b6121f584828501611fe7565b60006020828403121561224457600080fd5b815167ffffffffffffffff8082111561225c57600080fd5b90830190610180828603121561227157600080fd5b61227961274f565b82518281111561228857600080fd5b6122948782860161205b565b8252506020830151828111156122a957600080fd5b6122b58782860161205b565b6020830152506040830151828111156122cd57600080fd5b6122d98782860161205b565b6040830152506060830151828111156122f157600080fd5b6122fd8782860161205b565b60608301525060808301518281111561231557600080fd5b6123218782860161205b565b60808301525060a08301518281111561233957600080fd5b6123458782860161205b565b60a08301525060c08301518281111561235d57600080fd5b6123698782860161205b565b60c08301525060e08301518281111561238157600080fd5b61238d8782860161205b565b60e08301525061010080840151838111156123a757600080fd5b6123b38882870161205b565b82840152505061012080840151838111156123cd57600080fd5b6123d98882870161205b565b82840152505061014080840151838111156123f357600080fd5b6123ff8882870161205b565b828401525050610160808401518381111561241957600080fd5b6124258882870161205b565b918301919091525095945050505050565b60006060828403121561244857600080fd5b6040516060810181811067ffffffffffffffff8211171561246b5761246b612a14565b604052825161247981612a2a565b8152602083810151908201526040928301519281019290925250919050565b600080600080608085870312156124ae57600080fd5b843567ffffffffffffffff808211156124c657600080fd5b9086019060c082890312156124da57600080fd5b6124e2612779565b6124eb8361204c565b81526124f96020840161204c565b602082015261250a60408401612038565b604082015260608301358281111561252157600080fd5b61252d8a828601611fe7565b60608301525060808301358281111561254557600080fd5b6125518a828601611fe7565b60808301525060a08301358281111561256957600080fd5b6125758a828601611f43565b60a083015250955061258c9150506020860161208f565b925061259a6040860161207b565b9396929550929360600135925050565b6000806000606084860312156125bf57600080fd5b6125c88461208f565b92506125d66020850161207b565b9150604084013590509250925092565b6000602082840312156125f857600080fd5b81516bffffffffffffffffffffffff81168114610a5c57600080fd5b6000815180845261262c81602086016020860161292e565b601f01601f19169290920160200192915050565b6000602080830181845280855180835260408601915060408160051b870101925083870160005b8281101561269557603f19888603018452612683858351612614565b94509285019290850190600101612667565b5092979650505050505050565b602081526000610a5c6020830184612614565b6040815260006126c86040830185612614565b8281036020840152610cc38185612614565b67ffffffffffffffff841681526060602082015260006126fd6060830185612614565b905063ffffffff83166040830152949350505050565b67ffffffffffffffff851681526080602082015260006127366080830186612614565b63ffffffff949094166040830152506060015292915050565b604051610180810167ffffffffffffffff8111828210171561277357612773612a14565b60405290565b60405160c0810167ffffffffffffffff8111828210171561277357612773612a14565b604051601f8201601f1916810167ffffffffffffffff811182821017156127c5576127c5612a14565b604052919050565b600067ffffffffffffffff8211156127e7576127e7612a14565b50601f01601f191660200190565b60008219821115612808576128086129d2565b500190565b600181815b8085111561284857816000190482111561282e5761282e6129d2565b8085161561283b57918102915b93841c9390800290612812565b509250929050565b6000610a5c838360008261286657506001611960565b8161287357506000611960565b81600181146128895760028114612893576128af565b6001915050611960565b60ff8411156128a4576128a46129d2565b50506001821b611960565b5060208310610133831016604e8410600b84101617156128d2575081810a611960565b6128dc838361280d565b80600019048211156128f0576128f06129d2565b029392505050565b6000816000190483118215151615612912576129126129d2565b500290565b600082821015612929576129296129d2565b500390565b60005b83811015612949578181015183820152602001612931565b838111156103ad5750506000910152565b600181811c9082168061296e57607f821691505b6020821081141561298f57634e487b7160e01b600052602260045260246000fd5b50919050565b60006000198214156129a9576129a96129d2565b5060010190565b6000826129cd57634e487b7160e01b600052601260045260246000fd5b500690565b634e487b7160e01b600052601160045260246000fd5b634e487b7160e01b600052602160045260246000fd5b634e487b7160e01b600052603260045260246000fd5b634e487b7160e01b600052604160045260246000fd5b6001600160a01b0381168114610d5e57600080fdfea26469706673582212206bddb06f5717e9376da3f9ceaa3aa7b3107018e8dcf611215c4a7357f609414764736f6c63430008070033",
  "linkReferences": {},
  "deployedLinkReferences": {}
}