{
  "_format": "hh-sol-artifact-1",
  "contractName": "CheckPayout",
  "sourceName": "contracts/CheckPayout.sol",
  "abi": [
    {
      "inputs": [
        {
          "internalType": "address",
          "name": "oracle",
          "type": "address"
        },
        {
          "internalType": "address",
          "name": "insuranceAddress",
          "type": "address"
        }
      ],
      "stateMutability": "nonpayable",
      "type": "constructor"
    },
    {
      "inputs": [],
      "name": "EmptyArgs",
      "type": "error"
    },
    {
      "inputs": [],
      "name": "EmptySource",
      "type": "error"
    },
    {
      "inputs": [],
      "name": "NoInlineSecrets",
      "type": "error"
    },
    {
      "inputs": [],
      "name": "RequestIsAlreadyPending",
      "type": "error"
    },
    {
      "inputs": [],
      "name": "RequestIsNotPending",
      "type": "error"
    },
    {
      "inputs": [],
      "name": "SenderIsNotRegistry",
      "type": "error"
    },
    {
      "anonymous": false,
      "inputs": [
        {
          "indexed": true,
          "internalType": "bytes32",
          "name": "requestId",
          "type": "bytes32"
        },
        {
          "indexed": false,
          "internalType": "bytes",
          "name": "result",
          "type": "bytes"
        },
        {
          "indexed": false,
          "internalType": "bytes",
          "name": "err",
          "type": "bytes"
        }
      ],
      "name": "OCRResponse",
      "type": "event"
    },
    {
      "anonymous": false,
      "inputs": [
        {
          "indexed": true,
          "internalType": "address",
          "name": "from",
          "type": "address"
        },
        {
          "indexed": true,
          "internalType": "address",
          "name": "to",
          "type": "address"
        }
      ],
      "name": "OwnershipTransferRequested",
      "type": "event"
    },
    {
      "anonymous": false,
      "inputs": [
        {
          "indexed": true,
          "internalType": "address",
          "name": "from",
          "type": "address"
        },
        {
          "indexed": true,
          "internalType": "address",
          "name": "to",
          "type": "address"
        }
      ],
      "name": "OwnershipTransferred",
      "type": "event"
    },
    {
      "anonymous": false,
      "inputs": [
        {
          "indexed": false,
          "internalType": "address",
          "name": "originalSender",
          "type": "address"
        },
        {
          "indexed": false,
          "internalType": "uint256",
          "name": "policyIndex",
          "type": "uint256"
        },
        {
          "indexed": false,
          "internalType": "uint256",
          "name": "payoutAmount",
          "type": "uint256"
        }
      ],
      "name": "Payout",
      "type": "event"
    },
    {
      "anonymous": false,
      "inputs": [
        {
          "indexed": false,
          "internalType": "address",
          "name": "originalSender",
          "type": "address"
        },
        {
          "indexed": false,
          "internalType": "uint256",
          "name": "policyIndex",
          "type": "uint256"
        }
      ],
      "name": "PolicyEnded",
      "type": "event"
    },
    {
      "anonymous": false,
      "inputs": [
        {
          "indexed": true,
          "internalType": "bytes32",
          "name": "id",
          "type": "bytes32"
        }
      ],
      "name": "RequestFulfilled",
      "type": "event"
    },
    {
      "anonymous": false,
      "inputs": [
        {
          "indexed": true,
          "internalType": "bytes32",
          "name": "id",
          "type": "bytes32"
        }
      ],
      "name": "RequestSent",
      "type": "event"
    },
    {
      "anonymous": false,
      "inputs": [
        {
          "indexed": false,
          "internalType": "address",
          "name": "originalSender",
          "type": "address"
        },
        {
          "indexed": false,
          "internalType": "uint256",
          "name": "policyIndex",
          "type": "uint256"
        },
        {
          "indexed": false,
          "internalType": "uint256",
          "name": "timeRemaining",
          "type": "uint256"
        }
      ],
      "name": "TimeRemaining",
      "type": "event"
    },
    {
      "anonymous": false,
      "inputs": [
        {
          "indexed": false,
          "internalType": "string[]",
          "name": "args",
          "type": "string[]"
        }
      ],
      "name": "UsingArgs",
      "type": "event"
    },
    {
      "inputs": [],
      "name": "acceptOwnership",
      "outputs": [],
      "stateMutability": "nonpayable",
      "type": "function"
    },
    {
      "inputs": [
        {
          "internalType": "address",
          "name": "oracleAddress",
          "type": "address"
        },
        {
          "internalType": "bytes32",
          "name": "requestId",
          "type": "bytes32"
        }
      ],
      "name": "addSimulatedRequestId",
      "outputs": [],
      "stateMutability": "nonpayable",
      "type": "function"
    },
    {
      "inputs": [
        {
          "internalType": "uint64",
          "name": "subscriptionId",
          "type": "uint64"
        },
        {
          "internalType": "uint32",
          "name": "gasLimit",
          "type": "uint32"
        },
        {
          "internalType": "uint256",
          "name": "policyIndex",
          "type": "uint256"
        }
      ],
      "name": "checkPolicy",
      "outputs": [
        {
          "internalType": "bytes32",
          "name": "",
          "type": "bytes32"
        }
      ],
      "stateMutability": "nonpayable",
      "type": "function"
    },
    {
      "inputs": [
        {
          "components": [
            {
              "internalType": "enum Functions.Location",
              "name": "codeLocation",
              "type": "uint8"
            },
            {
              "internalType": "enum Functions.Location",
              "name": "secretsLocation",
              "type": "uint8"
            },
            {
              "internalType": "enum Functions.CodeLanguage",
              "name": "language",
              "type": "uint8"
            },
            {
              "internalType": "string",
              "name": "source",
              "type": "string"
            },
            {
              "internalType": "bytes",
              "name": "secrets",
              "type": "bytes"
            },
            {
              "internalType": "string[]",
              "name": "args",
              "type": "string[]"
            }
          ],
          "internalType": "struct Functions.Request",
          "name": "req",
          "type": "tuple"
        },
        {
          "internalType": "uint64",
          "name": "subscriptionId",
          "type": "uint64"
        },
        {
          "internalType": "uint32",
          "name": "gasLimit",
          "type": "uint32"
        },
        {
          "internalType": "uint256",
          "name": "gasPrice",
          "type": "uint256"
        }
      ],
      "name": "estimateCost",
      "outputs": [
        {
          "internalType": "uint96",
          "name": "",
          "type": "uint96"
        }
      ],
      "stateMutability": "view",
      "type": "function"
    },
    {
      "inputs": [],
      "name": "getDONPublicKey",
      "outputs": [
        {
          "internalType": "bytes",
          "name": "",
          "type": "bytes"
        }
      ],
      "stateMutability": "view",
      "type": "function"
    },
    {
      "inputs": [],
      "name": "getSourceCode",
      "outputs": [
        {
          "internalType": "string",
          "name": "",
          "type": "string"
        }
      ],
      "stateMutability": "view",
      "type": "function"
    },
    {
      "inputs": [
        {
          "internalType": "bytes32",
          "name": "requestId",
          "type": "bytes32"
        },
        {
          "internalType": "bytes",
          "name": "response",
          "type": "bytes"
        },
        {
          "internalType": "bytes",
          "name": "err",
          "type": "bytes"
        }
      ],
      "name": "handleOracleFulfillment",
      "outputs": [],
      "stateMutability": "nonpayable",
      "type": "function"
    },
    {
      "inputs": [],
      "name": "insuranceContract",
      "outputs": [
        {
          "internalType": "contract Insurance",
          "name": "",
          "type": "address"
        }
      ],
      "stateMutability": "view",
      "type": "function"
    },
    {
      "inputs": [],
      "name": "latestError",
      "outputs": [
        {
          "internalType": "bytes",
          "name": "",
          "type": "bytes"
        }
      ],
      "stateMutability": "view",
      "type": "function"
    },
    {
      "inputs": [],
      "name": "latestRequestId",
      "outputs": [
        {
          "internalType": "bytes32",
          "name": "",
          "type": "bytes32"
        }
      ],
      "stateMutability": "view",
      "type": "function"
    },
    {
      "inputs": [],
      "name": "latestResponse",
      "outputs": [
        {
          "internalType": "bytes",
          "name": "",
          "type": "bytes"
        }
      ],
      "stateMutability": "view",
      "type": "function"
    },
    {
      "inputs": [],
      "name": "owner",
      "outputs": [
        {
          "internalType": "address",
          "name": "",
          "type": "address"
        }
      ],
      "stateMutability": "view",
      "type": "function"
    },
    {
      "inputs": [
        {
          "internalType": "bytes32",
          "name": "",
          "type": "bytes32"
        }
      ],
      "name": "requestIdToPolicyIndex",
      "outputs": [
        {
          "internalType": "uint256",
          "name": "",
          "type": "uint256"
        }
      ],
      "stateMutability": "view",
      "type": "function"
    },
    {
      "inputs": [
        {
          "internalType": "bytes32",
          "name": "",
          "type": "bytes32"
        }
      ],
      "name": "requestIdToSender",
      "outputs": [
        {
          "internalType": "address",
          "name": "",
          "type": "address"
        }
      ],
      "stateMutability": "view",
      "type": "function"
    },
    {
      "inputs": [
        {
          "internalType": "string",
          "name": "_sourceCode",
          "type": "string"
        }
      ],
      "name": "setSourceCode",
      "outputs": [],
      "stateMutability": "nonpayable",
      "type": "function"
    },
    {
      "inputs": [],
      "name": "sourceCode",
      "outputs": [
        {
          "internalType": "string",
          "name": "",
          "type": "string"
        }
      ],
      "stateMutability": "view",
      "type": "function"
    },
    {
      "inputs": [
        {
          "internalType": "string",
          "name": "s",
          "type": "string"
        }
      ],
      "name": "stringToUint256",
      "outputs": [
        {
          "internalType": "uint256",
          "name": "",
          "type": "uint256"
        }
      ],
      "stateMutability": "pure",
      "type": "function"
    },
    {
      "inputs": [
        {
          "internalType": "address",
          "name": "to",
          "type": "address"
        }
      ],
      "name": "transferOwnership",
      "outputs": [],
      "stateMutability": "nonpayable",
      "type": "function"
    },
    {
      "inputs": [
        {
          "internalType": "address",
          "name": "oracle",
          "type": "address"
        }
      ],
      "name": "updateOracleAddress",
      "outputs": [],
      "stateMutability": "nonpayable",
      "type": "function"
    }
  ],
  "bytecode": "0x60806040523480156200001157600080fd5b5060405162002d1538038062002d158339810160408190526200003491620001d8565b600080546001600160a01b0319166001600160a01b038416178155339081906001600160a01b038216620000af5760405162461bcd60e51b815260206004820152601860248201527f43616e6e6f7420736574206f776e657220746f207a65726f000000000000000060448201526064015b60405180910390fd5b600280546001600160a01b0319166001600160a01b0384811691909117909155811615620000e257620000e2816200010e565b5050600880546001600160a01b0319166001600160a01b03939093169290921790915550620002109050565b6001600160a01b038116331415620001695760405162461bcd60e51b815260206004820152601760248201527f43616e6e6f74207472616e7366657220746f2073656c660000000000000000006044820152606401620000a6565b600380546001600160a01b0319166001600160a01b03838116918217909255600254604051919216907fed8889f560326eb138920d842192f0eb3dd22b4f139c87a2c57538e05bae127890600090a350565b80516001600160a01b0381168114620001d357600080fd5b919050565b60008060408385031215620001ec57600080fd5b620001f783620001bb565b91506200020760208401620001bb565b90509250929050565b612af580620002206000396000f3fe608060405234801561001057600080fd5b50600436106101505760003560e01c806379ba5097116100cd578063d328a91e11610081578063f2fde38b11610066578063f2fde38b146102c0578063f7023bb6146102d3578063fffeb84e146102e657600080fd5b8063d328a91e14610288578063d4b391751461029057600080fd5b8063ac5d3723116100b2578063ac5d37231461025a578063bef3a2f01461026d578063d012a5a81461027557600080fd5b806379ba5097146102415780638da5cb5b1461024957600080fd5b8063219c0eee11610124578063448af93711610109578063448af937146102065780634732889d14610219578063698cd3ad1461023957600080fd5b8063219c0eee146101b257806330bda99d146101f357600080fd5b8062b46767146101555780630ca761751461016a57806313c601771461017d5780631aa46f591461019b575b600080fd5b61016861016336600461227d565b6102ee565b005b6101686101783660046121bf565b61030d565b6101856103b3565b6040516101929190612722565b60405180910390f35b6101a460055481565b604051908152602001610192565b6101db6101c036600461218d565b600a602052600090815260409020546001600160a01b031681565b6040516001600160a01b039091168152602001610192565b610168610201366004612161565b610441565b6101a461021436600461262a565b610453565b6101a461022736600461218d565b60096020526000908152604090205481565b610185610a63565b610168610af5565b6002546001600160a01b03166101db565b6101a461026836600461227d565b610baf565b610185610c31565b6008546101db906001600160a01b031681565b610185610c3e565b6102a361029e366004612518565b610cdc565b6040516bffffffffffffffffffffffff9091168152602001610192565b6101686102ce366004612127565b610d72565b6101686102e1366004612127565b610d86565b610185610dac565b6102f6610db9565b8051610309906004906020840190611e2e565b5050565b60008381526001602052604090205483906001600160a01b0316331461035f576040517fa0c5ec6300000000000000000000000000000000000000000000000000000000815260040160405180910390fd5b60008181526001602052604080822080546001600160a01b03191690555182917f85e1543bf2f84fe80c6badbce3648c8539ad1df4d2b3d822938ca0538be727e691a26103ad848484610e15565b50505050565b600480546103c0906129da565b80601f01602080910402602001604051908101604052809291908181526020018280546103ec906129da565b80156104395780601f1061040e57610100808354040283529160200191610439565b820191906000526020600020905b81548152906001019060200180831161041c57829003601f168201915b505050505081565b610449610db9565b6103098282611224565b600061045d611eb2565b6008546040516361875d8d60e01b8152336004820152602481018590526001600160a01b03909116906361875d8d9060440160006040518083038186803b1580156104a757600080fd5b505afa1580156104bb573d6000803e3d6000fd5b505050506040513d6000823e601f3d908101601f191682016040526104e391908101906122b2565b81526008546040517f6ec7be7e000000000000000000000000000000000000000000000000000000008152336004820152602481018590526000916001600160a01b031690636ec7be7e9060440160206040518083038186803b15801561054957600080fd5b505afa15801561055d573d6000803e3d6000fd5b505050506040513d601f19601f8201168201806040525081019061058191906121a6565b6008546040517f215fc625000000000000000000000000000000000000000000000000000000008152600481018390529192506001600160a01b03169063215fc6259060240160606040518083038186803b1580156105df57600080fd5b505afa1580156105f3573d6000803e3d6000fd5b505050506040513d601f19601f8201168201806040525081019061061791906124b6565b60208381018290526040918201518251600e8082526101e08201909452909260009282015b606081526020019060019003908161063c575050845151815191925090829060009061066a5761066a612a7e565b60200260200101819052508360000151602001518160018151811061069157610691612a7e565b6020026020010181905250836000015160400151816002815181106106b8576106b8612a7e565b6020026020010181905250836000015160600151816003815181106106df576106df612a7e565b60200260200101819052508360000151608001518160048151811061070657610706612a7e565b6020026020010181905250836000015160a001518160058151811061072d5761072d612a7e565b6020026020010181905250836000015160c001518160068151811061075457610754612a7e565b6020026020010181905250836000015160e001518160078151811061077b5761077b612a7e565b602002602001018190525083600001516101000151816008815181106107a3576107a3612a7e565b602002602001018190525083600001516101200151816009815181106107cb576107cb612a7e565b60200260200101819052508360000151610140015181600a815181106107f3576107f3612a7e565b6020026020010181905250610807426112a4565b81600b8151811061081a5761081a612a7e565b60200260200101819052508360000151610160015181600c8151811061084257610842612a7e565b60200260200101819052506108db600860009054906101000a90046001600160a01b03166001600160a01b031663b91ce2056040518163ffffffff1660e01b815260040160206040518083038186803b15801561089e57600080fd5b505afa1580156108b2573d6000803e3d6000fd5b505050506040513d601f19601f820116820180604052508101906108d691906121a6565b6112a4565b81600d815181106108ee576108ee612a7e565b60200260200101819052506109336040805160c08101909152806000815260200160008152602001600081526020016060815260200160608152602001606081525090565b6109d560008060048054610946906129da565b80601f0160208091040260200160405190810160405280929190818152602001828054610972906129da565b80156109bf5780601f10610994576101008083540402835291602001916109bf565b820191906000526020600020905b8154815290600101906020018083116109a257829003601f168201915b505050505084611346909392919063ffffffff16565b6109df81836113da565b7f930a61d412ee04b567f790d1232c1fe3d797de7bfa1f99ba4b6e7fcc7448521f82604051610a0e91906126c0565b60405180910390a16000610a23828b8b61141a565b600581905560008181526009602090815260408083208c9055600a909152902080546001600160a01b0319163317905596505050505050505b9392505050565b606060048054610a72906129da565b80601f0160208091040260200160405190810160405280929190818152602001828054610a9e906129da565b8015610aeb5780601f10610ac057610100808354040283529160200191610aeb565b820191906000526020600020905b815481529060010190602001808311610ace57829003601f168201915b5050505050905090565b6003546001600160a01b03163314610b545760405162461bcd60e51b815260206004820152601660248201527f4d7573742062652070726f706f736564206f776e65720000000000000000000060448201526064015b60405180910390fd5b600280546001600160a01b0319808216339081179093556003805490911690556040516001600160a01b03909116919082907f8be0079c531659141344cd1fd0a4f28419497f9722a3daafe3b4186f6b6457e090600090a350565b60008181805b8251811015610c29576000838281518110610bd257610bd2612a7e565b016020015160f81c905060308110801590610bee575060398111155b15610c1657610bfe603082612997565b610c0984600a612978565b610c139190612875565b92505b5080610c2181612a15565b915050610bb5565b509392505050565b600680546103c0906129da565b60008054604080517fd328a91e00000000000000000000000000000000000000000000000000000000815290516060936001600160a01b039093169263d328a91e9260048082019391829003018186803b158015610c9b57600080fd5b505afa158015610caf573d6000803e3d6000fd5b505050506040513d6000823e601f3d908101601f19168201604052610cd7919081019061222c565b905090565b600080546001600160a01b031663d227d24585610cf88861158c565b86866040518563ffffffff1660e01b8152600401610d199493929190612793565b60206040518083038186803b158015610d3157600080fd5b505afa158015610d45573d6000803e3d6000fd5b505050506040513d601f19601f82011682018060405250810190610d699190612666565b95945050505050565b610d7a610db9565b610d8381611858565b50565b610d8e610db9565b600080546001600160a01b0319166001600160a01b03831617905550565b600780546103c0906129da565b6002546001600160a01b03163314610e135760405162461bcd60e51b815260206004820152601660248201527f4f6e6c792063616c6c61626c65206279206f776e6572000000000000000000006044820152606401610b4b565b565b8151610e28906006906020850190611e2e565b508051610e3c906007906020840190611e2e565b50827f7bab0ec163b5c132c72b8146ac4d6e067e82ed58f8b131150aa71c92589115628383604051610e6f929190612735565b60405180910390a2600083815260096020908152604080832054600a9092528083205460085491516361875d8d60e01b81526001600160a01b03918216600482018190526024820185905293949291909116906361875d8d9060440160006040518083038186803b158015610ee357600080fd5b505afa158015610ef7573d6000803e3d6000fd5b505050506040513d6000823e601f3d908101601f19168201604052610f1f91908101906122b2565b6008546040517fcc9de25d0000000000000000000000000000000000000000000000000000000081529192506000916001600160a01b039091169063cc9de25d90610f6e908990600401612722565b60206040518083038186803b158015610f8657600080fd5b505afa158015610f9a573d6000803e3d6000fd5b505050506040513d601f19601f82011682018060405250810190610fbe91906121a6565b905080156110fb576008546040517fecd831e80000000000000000000000000000000000000000000000000000000081526001600160a01b038581166004830152602482018490529091169063ecd831e890604401600060405180830381600087803b15801561102d57600080fd5b505af1158015611041573d6000803e3d6000fd5b5050600854604051632f1635a360e21b81526001600160a01b03878116600483015260248201899052909116925063bc58d68c9150604401600060405180830381600087803b15801561109357600080fd5b505af11580156110a7573d6000803e3d6000fd5b5050604080516001600160a01b0387168152602081018890529081018490527f634235fcf5af0adbca1a405ec65f6f6c08f55e1f379c2c45cd10f23cb29e0e319250606001905060405180910390a161121b565b600061110b836101400151610baf565b9050804211156111c357600854604051632f1635a360e21b81526001600160a01b038681166004830152602482018890529091169063bc58d68c90604401600060405180830381600087803b15801561116357600080fd5b505af1158015611177573d6000803e3d6000fd5b5050604080516001600160a01b0388168152602081018990527f05e258a8da32249e7d7e1ebcd6b64f7c97c4235999db64b6687191b183d5e3f2935001905060405180910390a1611219565b7f59d77641060cafc4d86dddd4bd9c687bbfbd23fb4b1962869afe9f54507105ea84866111f04285612997565b604080516001600160a01b03909416845260208401929092529082015260600160405180910390a15b505b50505050505050565b60008181526001602052604090205481906001600160a01b031615611275576040517f8b457ad200000000000000000000000000000000000000000000000000000000815260040160405180910390fd5b50600090815260016020526040902080546001600160a01b0319166001600160a01b0392909216919091179055565b606060006112b183611903565b600101905060008167ffffffffffffffff8111156112d1576112d1612a94565b6040519080825280601f01601f1916602001820160405280156112fb576020820181803683370190505b5090508181016020015b600019017f3031323334353637383961626364656600000000000000000000000000000000600a86061a8153600a850494508461134157610c29565b611305565b805161137e576040517f22ce3edd00000000000000000000000000000000000000000000000000000000815260040160405180910390fd5b8383600181111561139157611391612a68565b908160018111156113a4576113a4612a68565b905250604084018280156113ba576113ba612a68565b908180156113ca576113ca612a68565b9052506060909301929092525050565b8051611412576040517ffe936cb700000000000000000000000000000000000000000000000000000000815260040160405180910390fd5b60a090910152565b6000805481906001600160a01b03166328242b04856114388861158c565b866040518463ffffffff1660e01b81526004016114579392919061275a565b602060405180830381600087803b15801561147157600080fd5b505af1158015611485573d6000803e3d6000fd5b505050506040513d601f19601f820116820180604052508101906114a991906121a6565b905060008054906101000a90046001600160a01b03166001600160a01b0316635ab1bd536040518163ffffffff1660e01b815260040160206040518083038186803b1580156114f757600080fd5b505afa15801561150b573d6000803e3d6000fd5b505050506040513d601f19601f8201168201806040525081019061152f9190612144565b60008281526001602052604080822080546001600160a01b0319166001600160a01b039490941693909317909255905182917f1131472297a800fee664d1d89cfa8f7676ff07189ecc53f80bbb5f4969099db891a2949350505050565b6060611596611f44565b80516115a4906101006119e6565b506115e4816040518060400160405280600c81526020017f636f64654c6f636174696f6e0000000000000000000000000000000000000000815250611a5d565b61160381846000015160018111156115fe576115fe612a68565b611a7b565b611642816040518060400160405280600881526020017f6c616e6775616765000000000000000000000000000000000000000000000000815250611a5d565b61165c81846040015160008111156115fe576115fe612a68565b61169b816040518060400160405280600681526020017f736f757263650000000000000000000000000000000000000000000000000000815250611a5d565b6116a9818460600151611a5d565b60a0830151511561174f576116f3816040518060400160405280600481526020017f6172677300000000000000000000000000000000000000000000000000000000815250611a5d565b6116fc81611ab4565b60005b8360a001515181101561174557611733828560a00151838151811061172657611726612a7e565b6020026020010151611a5d565b8061173d81612a15565b9150506116ff565b5061174f81611ad8565b608083015151156118505760008360200151600181111561177257611772612a68565b14156117aa576040517fa80d31f700000000000000000000000000000000000000000000000000000000815260040160405180910390fd5b6117e9816040518060400160405280600f81526020017f736563726574734c6f636174696f6e0000000000000000000000000000000000815250611a5d565b61180381846020015160018111156115fe576115fe612a68565b611842816040518060400160405280600781526020017f7365637265747300000000000000000000000000000000000000000000000000815250611a5d565b611850818460800151611af6565b515192915050565b6001600160a01b0381163314156118b15760405162461bcd60e51b815260206004820152601760248201527f43616e6e6f74207472616e7366657220746f2073656c660000000000000000006044820152606401610b4b565b600380546001600160a01b0319166001600160a01b03838116918217909255600254604051919216907fed8889f560326eb138920d842192f0eb3dd22b4f139c87a2c57538e05bae127890600090a350565b6000807a184f03e93ff9f4daa797ed6e38ed64bf6a1f010000000000000000831061194c577a184f03e93ff9f4daa797ed6e38ed64bf6a1f010000000000000000830492506040015b6d04ee2d6d415b85acef81000000008310611978576d04ee2d6d415b85acef8100000000830492506020015b662386f26fc10000831061199657662386f26fc10000830492506010015b6305f5e10083106119ae576305f5e100830492506008015b61271083106119c257612710830492506004015b606483106119d4576064830492506002015b600a83106119e0576001015b92915050565b604080518082019091526060815260006020820152611a06602083612a30565b15611a2e57611a16602083612a30565b611a21906020612997565b611a2b9083612875565b91505b602080840183905260405180855260008152908184010181811015611a5257600080fd5b604052509192915050565b611a6a8260038351611aff565b8151611a769082611c20565b505050565b8151611a889060c2611c41565b506103098282604051602001611aa091815260200190565b604051602081830303815290604052611af6565b611abf816004611caa565b600181602001818151611ad29190612875565b90525050565b611ae3816007611caa565b600181602001818151611ad29190612997565b611a6a82600283515b60178167ffffffffffffffff1611611b265782516103ad9060e0600585901b168317611c41565b60ff8167ffffffffffffffff1611611b68578251611b4f906018611fe0600586901b1617611c41565b5082516103ad9067ffffffffffffffff83166001611cc1565b61ffff8167ffffffffffffffff1611611bab578251611b92906019611fe0600586901b1617611c41565b5082516103ad9067ffffffffffffffff83166002611cc1565b63ffffffff8167ffffffffffffffff1611611bf0578251611bd790601a611fe0600586901b1617611c41565b5082516103ad9067ffffffffffffffff83166004611cc1565b8251611c0790601b611fe0600586901b1617611c41565b5082516103ad9067ffffffffffffffff83166008611cc1565b604080518082019091526060815260006020820152610a5c83838451611d46565b6040805180820190915260608152600060208201528251516000611c66826001612875565b905084602001518210611c8757611c8785611c82836002612978565b611e17565b8451602083820101858153508051821115611ca0578181525b5093949350505050565b8151611a7690601f611fe0600585901b1617611c41565b6040805180820190915260608152600060208201528351516000611ce58285612875565b90508560200151811115611d0257611d0286611c82836002612978565b60006001611d12866101006128d0565b611d1c9190612997565b90508651828101878319825116178152508051831115611d3a578281525b50959695505050505050565b6040805180820190915260608152600060208201528251821115611d6957600080fd5b8351516000611d788483612875565b90508560200151811115611d9557611d9586611c82836002612978565b855180518382016020019160009180851115611daf578482525b505050602086015b60208610611def5780518252611dce602083612875565b9150611ddb602082612875565b9050611de8602087612997565b9550611db7565b51815160001960208890036101000a0190811690199190911617905250849150509392505050565b8151611e2383836119e6565b506103ad8382611c20565b828054611e3a906129da565b90600052602060002090601f016020900481019282611e5c5760008555611ea2565b82601f10611e7557805160ff1916838001178555611ea2565b82800160010185558215611ea2579182015b82811115611ea2578251825591602001919060010190611e87565b50611eae929150611f79565b5090565b6040518060400160405280611f216040518061018001604052806060815260200160608152602001606081526020016060815260200160608152602001606081526020016060815260200160608152602001606081526020016060815260200160608152602001606081525090565b815260408051606081018252600080825260208281018290529282015291015290565b6040518060400160405280611f6c604051806040016040528060608152602001600081525090565b8152602001600081525090565b5b80821115611eae5760008155600101611f7a565b6000611fa1611f9c8461284d565b61281c565b9050828152838383011115611fb557600080fd5b610a5c8360208301846129ae565b600082601f830112611fd457600080fd5b8135602067ffffffffffffffff80831115611ff157611ff1612a94565b8260051b61200083820161281c565b8481528381019087850183890186018a101561201b57600080fd5b60009350835b8781101561205857813586811115612037578586fd5b6120458c89838e0101612067565b8552509286019290860190600101612021565b50909998505050505050505050565b600082601f83011261207857600080fd5b8135612086611f9c8261284d565b81815284602083860101111561209b57600080fd5b816020850160208301376000918101602001919091529392505050565b8035600181106120c757600080fd5b919050565b8035600281106120c757600080fd5b600082601f8301126120ec57600080fd5b610a5c83835160208501611f8e565b803563ffffffff811681146120c757600080fd5b803567ffffffffffffffff811681146120c757600080fd5b60006020828403121561213957600080fd5b8135610a5c81612aaa565b60006020828403121561215657600080fd5b8151610a5c81612aaa565b6000806040838503121561217457600080fd5b823561217f81612aaa565b946020939093013593505050565b60006020828403121561219f57600080fd5b5035919050565b6000602082840312156121b857600080fd5b5051919050565b6000806000606084860312156121d457600080fd5b83359250602084013567ffffffffffffffff808211156121f357600080fd5b6121ff87838801612067565b9350604086013591508082111561221557600080fd5b5061222286828701612067565b9150509250925092565b60006020828403121561223e57600080fd5b815167ffffffffffffffff81111561225557600080fd5b8201601f8101841361226657600080fd5b61227584825160208401611f8e565b949350505050565b60006020828403121561228f57600080fd5b813567ffffffffffffffff8111156122a657600080fd5b61227584828501612067565b6000602082840312156122c457600080fd5b815167ffffffffffffffff808211156122dc57600080fd5b9083019061018082860312156122f157600080fd5b6122f96127cf565b82518281111561230857600080fd5b612314878286016120db565b82525060208301518281111561232957600080fd5b612335878286016120db565b60208301525060408301518281111561234d57600080fd5b612359878286016120db565b60408301525060608301518281111561237157600080fd5b61237d878286016120db565b60608301525060808301518281111561239557600080fd5b6123a1878286016120db565b60808301525060a0830151828111156123b957600080fd5b6123c5878286016120db565b60a08301525060c0830151828111156123dd57600080fd5b6123e9878286016120db565b60c08301525060e08301518281111561240157600080fd5b61240d878286016120db565b60e083015250610100808401518381111561242757600080fd5b612433888287016120db565b828401525050610120808401518381111561244d57600080fd5b612459888287016120db565b828401525050610140808401518381111561247357600080fd5b61247f888287016120db565b828401525050610160808401518381111561249957600080fd5b6124a5888287016120db565b918301919091525095945050505050565b6000606082840312156124c857600080fd5b6040516060810181811067ffffffffffffffff821117156124eb576124eb612a94565b60405282516124f981612aaa565b8152602083810151908201526040928301519281019290925250919050565b6000806000806080858703121561252e57600080fd5b843567ffffffffffffffff8082111561254657600080fd5b9086019060c0828903121561255a57600080fd5b6125626127f9565b61256b836120cc565b8152612579602084016120cc565b602082015261258a604084016120b8565b60408201526060830135828111156125a157600080fd5b6125ad8a828601612067565b6060830152506080830135828111156125c557600080fd5b6125d18a828601612067565b60808301525060a0830135828111156125e957600080fd5b6125f58a828601611fc3565b60a083015250955061260c9150506020860161210f565b925061261a604086016120fb565b9396929550929360600135925050565b60008060006060848603121561263f57600080fd5b6126488461210f565b9250612656602085016120fb565b9150604084013590509250925092565b60006020828403121561267857600080fd5b81516bffffffffffffffffffffffff81168114610a5c57600080fd5b600081518084526126ac8160208601602086016129ae565b601f01601f19169290920160200192915050565b6000602080830181845280855180835260408601915060408160051b870101925083870160005b8281101561271557603f19888603018452612703858351612694565b945092850192908501906001016126e7565b5092979650505050505050565b602081526000610a5c6020830184612694565b6040815260006127486040830185612694565b8281036020840152610d698185612694565b67ffffffffffffffff8416815260606020820152600061277d6060830185612694565b905063ffffffff83166040830152949350505050565b67ffffffffffffffff851681526080602082015260006127b66080830186612694565b63ffffffff949094166040830152506060015292915050565b604051610180810167ffffffffffffffff811182821017156127f3576127f3612a94565b60405290565b60405160c0810167ffffffffffffffff811182821017156127f3576127f3612a94565b604051601f8201601f1916810167ffffffffffffffff8111828210171561284557612845612a94565b604052919050565b600067ffffffffffffffff82111561286757612867612a94565b50601f01601f191660200190565b6000821982111561288857612888612a52565b500190565b600181815b808511156128c85781600019048211156128ae576128ae612a52565b808516156128bb57918102915b93841c9390800290612892565b509250929050565b6000610a5c83836000826128e6575060016119e0565b816128f3575060006119e0565b816001811461290957600281146129135761292f565b60019150506119e0565b60ff84111561292457612924612a52565b50506001821b6119e0565b5060208310610133831016604e8410600b8410161715612952575081810a6119e0565b61295c838361288d565b806000190482111561297057612970612a52565b029392505050565b600081600019048311821515161561299257612992612a52565b500290565b6000828210156129a9576129a9612a52565b500390565b60005b838110156129c95781810151838201526020016129b1565b838111156103ad5750506000910152565b600181811c908216806129ee57607f821691505b60208210811415612a0f57634e487b7160e01b600052602260045260246000fd5b50919050565b6000600019821415612a2957612a29612a52565b5060010190565b600082612a4d57634e487b7160e01b600052601260045260246000fd5b500690565b634e487b7160e01b600052601160045260246000fd5b634e487b7160e01b600052602160045260246000fd5b634e487b7160e01b600052603260045260246000fd5b634e487b7160e01b600052604160045260246000fd5b6001600160a01b0381168114610d8357600080fdfea264697066735822122030cc84ad7fa57ed3124f4e5254c06d56685ebc15f1c67980a71e90e7381336c164736f6c63430008070033",
  "linkReferences": {},
  "deployedLinkReferences": {}
}