{
  "_format": "hh-sol-artifact-1",
  "contractName": "CheckPayout",
  "sourceName": "contracts/CheckPayout.sol",
  "abi": [
    {
      "inputs": [
        {
          "internalType": "address",
          "name": "oracle",
          "type": "address"
        },
        {
          "internalType": "address",
          "name": "insuranceAddress",
          "type": "address"
        }
      ],
      "stateMutability": "nonpayable",
      "type": "constructor"
    },
    {
      "inputs": [],
      "name": "EmptyArgs",
      "type": "error"
    },
    {
      "inputs": [],
      "name": "EmptySource",
      "type": "error"
    },
    {
      "inputs": [],
      "name": "NoInlineSecrets",
      "type": "error"
    },
    {
      "inputs": [],
      "name": "RequestIsAlreadyPending",
      "type": "error"
    },
    {
      "inputs": [],
      "name": "RequestIsNotPending",
      "type": "error"
    },
    {
      "inputs": [],
      "name": "SenderIsNotRegistry",
      "type": "error"
    },
    {
      "anonymous": false,
      "inputs": [
        {
          "indexed": true,
          "internalType": "bytes32",
          "name": "requestId",
          "type": "bytes32"
        },
        {
          "indexed": false,
          "internalType": "bytes",
          "name": "result",
          "type": "bytes"
        },
        {
          "indexed": false,
          "internalType": "bytes",
          "name": "err",
          "type": "bytes"
        }
      ],
      "name": "OCRResponse",
      "type": "event"
    },
    {
      "anonymous": false,
      "inputs": [
        {
          "indexed": true,
          "internalType": "address",
          "name": "from",
          "type": "address"
        },
        {
          "indexed": true,
          "internalType": "address",
          "name": "to",
          "type": "address"
        }
      ],
      "name": "OwnershipTransferRequested",
      "type": "event"
    },
    {
      "anonymous": false,
      "inputs": [
        {
          "indexed": true,
          "internalType": "address",
          "name": "from",
          "type": "address"
        },
        {
          "indexed": true,
          "internalType": "address",
          "name": "to",
          "type": "address"
        }
      ],
      "name": "OwnershipTransferred",
      "type": "event"
    },
    {
      "anonymous": false,
      "inputs": [
        {
          "indexed": false,
          "internalType": "address",
          "name": "originalSender",
          "type": "address"
        },
        {
          "indexed": false,
          "internalType": "uint256",
          "name": "payoutAmount",
          "type": "uint256"
        }
      ],
      "name": "Payout",
      "type": "event"
    },
    {
      "anonymous": false,
      "inputs": [
        {
          "indexed": false,
          "internalType": "address",
          "name": "originalSender",
          "type": "address"
        },
        {
          "indexed": false,
          "internalType": "uint256",
          "name": "policyIndex",
          "type": "uint256"
        }
      ],
      "name": "PolicyEnded",
      "type": "event"
    },
    {
      "anonymous": false,
      "inputs": [
        {
          "indexed": true,
          "internalType": "bytes32",
          "name": "id",
          "type": "bytes32"
        }
      ],
      "name": "RequestFulfilled",
      "type": "event"
    },
    {
      "anonymous": false,
      "inputs": [
        {
          "indexed": true,
          "internalType": "bytes32",
          "name": "id",
          "type": "bytes32"
        }
      ],
      "name": "RequestSent",
      "type": "event"
    },
    {
      "anonymous": false,
      "inputs": [
        {
          "indexed": false,
          "internalType": "address",
          "name": "originalSender",
          "type": "address"
        },
        {
          "indexed": false,
          "internalType": "uint256",
          "name": "policyIndex",
          "type": "uint256"
        },
        {
          "indexed": false,
          "internalType": "uint256",
          "name": "timeRemaining",
          "type": "uint256"
        }
      ],
      "name": "TimeRemaining",
      "type": "event"
    },
    {
      "anonymous": false,
      "inputs": [
        {
          "indexed": false,
          "internalType": "string[]",
          "name": "args",
          "type": "string[]"
        }
      ],
      "name": "UsingArgs",
      "type": "event"
    },
    {
      "inputs": [],
      "name": "acceptOwnership",
      "outputs": [],
      "stateMutability": "nonpayable",
      "type": "function"
    },
    {
      "inputs": [
        {
          "internalType": "address",
          "name": "oracleAddress",
          "type": "address"
        },
        {
          "internalType": "bytes32",
          "name": "requestId",
          "type": "bytes32"
        }
      ],
      "name": "addSimulatedRequestId",
      "outputs": [],
      "stateMutability": "nonpayable",
      "type": "function"
    },
    {
      "inputs": [
        {
          "internalType": "string",
          "name": "source",
          "type": "string"
        },
        {
          "internalType": "string[]",
          "name": "args",
          "type": "string[]"
        },
        {
          "internalType": "uint64",
          "name": "subscriptionId",
          "type": "uint64"
        },
        {
          "internalType": "uint32",
          "name": "gasLimit",
          "type": "uint32"
        },
        {
          "internalType": "uint256",
          "name": "policyIndex",
          "type": "uint256"
        }
      ],
      "name": "checkPolicy",
      "outputs": [
        {
          "internalType": "bytes32",
          "name": "",
          "type": "bytes32"
        }
      ],
      "stateMutability": "nonpayable",
      "type": "function"
    },
    {
      "inputs": [
        {
          "components": [
            {
              "internalType": "enum Functions.Location",
              "name": "codeLocation",
              "type": "uint8"
            },
            {
              "internalType": "enum Functions.Location",
              "name": "secretsLocation",
              "type": "uint8"
            },
            {
              "internalType": "enum Functions.CodeLanguage",
              "name": "language",
              "type": "uint8"
            },
            {
              "internalType": "string",
              "name": "source",
              "type": "string"
            },
            {
              "internalType": "bytes",
              "name": "secrets",
              "type": "bytes"
            },
            {
              "internalType": "string[]",
              "name": "args",
              "type": "string[]"
            }
          ],
          "internalType": "struct Functions.Request",
          "name": "req",
          "type": "tuple"
        },
        {
          "internalType": "uint64",
          "name": "subscriptionId",
          "type": "uint64"
        },
        {
          "internalType": "uint32",
          "name": "gasLimit",
          "type": "uint32"
        },
        {
          "internalType": "uint256",
          "name": "gasPrice",
          "type": "uint256"
        }
      ],
      "name": "estimateCost",
      "outputs": [
        {
          "internalType": "uint96",
          "name": "",
          "type": "uint96"
        }
      ],
      "stateMutability": "view",
      "type": "function"
    },
    {
      "inputs": [],
      "name": "getDONPublicKey",
      "outputs": [
        {
          "internalType": "bytes",
          "name": "",
          "type": "bytes"
        }
      ],
      "stateMutability": "view",
      "type": "function"
    },
    {
      "inputs": [
        {
          "internalType": "bytes32",
          "name": "requestId",
          "type": "bytes32"
        },
        {
          "internalType": "bytes",
          "name": "response",
          "type": "bytes"
        },
        {
          "internalType": "bytes",
          "name": "err",
          "type": "bytes"
        }
      ],
      "name": "handleOracleFulfillment",
      "outputs": [],
      "stateMutability": "nonpayable",
      "type": "function"
    },
    {
      "inputs": [],
      "name": "insuranceContract",
      "outputs": [
        {
          "internalType": "contract Insurance",
          "name": "",
          "type": "address"
        }
      ],
      "stateMutability": "view",
      "type": "function"
    },
    {
      "inputs": [],
      "name": "latestError",
      "outputs": [
        {
          "internalType": "bytes",
          "name": "",
          "type": "bytes"
        }
      ],
      "stateMutability": "view",
      "type": "function"
    },
    {
      "inputs": [],
      "name": "latestRequestId",
      "outputs": [
        {
          "internalType": "bytes32",
          "name": "",
          "type": "bytes32"
        }
      ],
      "stateMutability": "view",
      "type": "function"
    },
    {
      "inputs": [],
      "name": "latestResponse",
      "outputs": [
        {
          "internalType": "bytes",
          "name": "",
          "type": "bytes"
        }
      ],
      "stateMutability": "view",
      "type": "function"
    },
    {
      "inputs": [],
      "name": "owner",
      "outputs": [
        {
          "internalType": "address",
          "name": "",
          "type": "address"
        }
      ],
      "stateMutability": "view",
      "type": "function"
    },
    {
      "inputs": [
        {
          "internalType": "bytes32",
          "name": "",
          "type": "bytes32"
        }
      ],
      "name": "requestIdToPolicyIndex",
      "outputs": [
        {
          "internalType": "uint256",
          "name": "",
          "type": "uint256"
        }
      ],
      "stateMutability": "view",
      "type": "function"
    },
    {
      "inputs": [
        {
          "internalType": "bytes32",
          "name": "",
          "type": "bytes32"
        }
      ],
      "name": "requestIdToSender",
      "outputs": [
        {
          "internalType": "address",
          "name": "",
          "type": "address"
        }
      ],
      "stateMutability": "view",
      "type": "function"
    },
    {
      "inputs": [
        {
          "internalType": "string",
          "name": "s",
          "type": "string"
        }
      ],
      "name": "stringToUint256",
      "outputs": [
        {
          "internalType": "uint256",
          "name": "",
          "type": "uint256"
        }
      ],
      "stateMutability": "pure",
      "type": "function"
    },
    {
      "inputs": [
        {
          "internalType": "address",
          "name": "to",
          "type": "address"
        }
      ],
      "name": "transferOwnership",
      "outputs": [],
      "stateMutability": "nonpayable",
      "type": "function"
    },
    {
      "inputs": [
        {
          "internalType": "address",
          "name": "oracle",
          "type": "address"
        }
      ],
      "name": "updateOracleAddress",
      "outputs": [],
      "stateMutability": "nonpayable",
      "type": "function"
    }
  ],
  "bytecode": "0x60806040523480156200001157600080fd5b5060405162002db438038062002db48339810160408190526200003491620001d8565b600080546001600160a01b0319166001600160a01b038416178155339081906001600160a01b038216620000af5760405162461bcd60e51b815260206004820152601860248201527f43616e6e6f7420736574206f776e657220746f207a65726f000000000000000060448201526064015b60405180910390fd5b600280546001600160a01b0319166001600160a01b0384811691909117909155811615620000e257620000e2816200010e565b5050600780546001600160a01b0319166001600160a01b03939093169290921790915550620002109050565b6001600160a01b038116331415620001695760405162461bcd60e51b815260206004820152601760248201527f43616e6e6f74207472616e7366657220746f2073656c660000000000000000006044820152606401620000a6565b600380546001600160a01b0319166001600160a01b03838116918217909255600254604051919216907fed8889f560326eb138920d842192f0eb3dd22b4f139c87a2c57538e05bae127890600090a350565b80516001600160a01b0381168114620001d357600080fd5b919050565b60008060408385031215620001ec57600080fd5b620001f783620001bb565b91506200020760208401620001bb565b90509250929050565b612b9480620002206000396000f3fe608060405234801561001057600080fd5b50600436106101005760003560e01c8063ac5d372311610097578063d4b3917511610066578063d4b3917514610219578063f2fde38b14610249578063f7023bb61461025c578063fffeb84e1461026f57600080fd5b8063ac5d3723146101d6578063bef3a2f0146101e9578063d012a5a8146101fe578063d328a91e1461021157600080fd5b80634732889d116100d35780634732889d1461018a57806379ba5097146101aa5780637f30dfa9146101b25780638da5cb5b146101c557600080fd5b80630ca76175146101055780631aa46f591461011a578063219c0eee1461013657806330bda99d14610177575b600080fd5b61011861011336600461218d565b610277565b005b61012360045481565b6040519081526020015b60405180910390f35b61015f61014436600461215b565b6009602052600090815260409020546001600160a01b031681565b6040516001600160a01b03909116815260200161012d565b61011861018536600461212f565b61031d565b61012361019836600461215b565b60086020526000908152604090205481565b610118610333565b6101236101c036600461224b565b6103ed565b6002546001600160a01b031661015f565b6101236101e4366004612311565b610abb565b6101f1610b3d565b60405161012d919061277a565b60075461015f906001600160a01b031681565b6101f1610bcb565b61022c6102273660046125ac565b610c69565b6040516bffffffffffffffffffffffff909116815260200161012d565b6101186102573660046120f5565b610cff565b61011861026a3660046120f5565b610d13565b6101f1610d39565b60008381526001602052604090205483906001600160a01b031633146102c9576040517fa0c5ec6300000000000000000000000000000000000000000000000000000000815260040160405180910390fd5b60008181526001602052604080822080546001600160a01b03191690555182917f85e1543bf2f84fe80c6badbce3648c8539ad1df4d2b3d822938ca0538be727e691a2610317848484610d46565b50505050565b610325611148565b61032f82826111a4565b5050565b6003546001600160a01b031633146103925760405162461bcd60e51b815260206004820152601660248201527f4d7573742062652070726f706f736564206f776e65720000000000000000000060448201526064015b60405180910390fd5b600280546001600160a01b0319808216339081179093556003805490911690556040516001600160a01b03909116919082907f8be0079c531659141344cd1fd0a4f28419497f9722a3daafe3b4186f6b6457e090600090a350565b60006103f7611db0565b6007546040516361875d8d60e01b8152336004820152602481018590526001600160a01b03909116906361875d8d9060440160006040518083038186803b15801561044157600080fd5b505afa158015610455573d6000803e3d6000fd5b505050506040513d6000823e601f3d908101601f1916820160405261047d9190810190612346565b81526007546040517f6ec7be7e000000000000000000000000000000000000000000000000000000008152336004820152602481018590526000916001600160a01b031690636ec7be7e9060440160206040518083038186803b1580156104e357600080fd5b505afa1580156104f7573d6000803e3d6000fd5b505050506040513d601f19601f8201168201806040525081019061051b9190612174565b6007546040517f215fc625000000000000000000000000000000000000000000000000000000008152600481018390529192506001600160a01b03169063215fc6259060240160606040518083038186803b15801561057957600080fd5b505afa15801561058d573d6000803e3d6000fd5b505050506040513d601f19601f820116820180604052508101906105b1919061254a565b602083018190526040015160006105c989600e612914565b67ffffffffffffffff8111156105e1576105e1612b33565b60405190808252806020026020018201604052801561061457816020015b60608152602001906001900390816105ff5790505b50905060005b898110156106ac578a8a8281811061063457610634612b1d565b90506020028101906106469190612827565b8080601f016020809104026020016040519081016040528093929190818152602001838380828437600092019190915250508451859250849150811061068e5761068e612b1d565b602002602001018190525080806106a490612ab4565b91505061061a565b50835151815182908b9081106106c4576106c4612b1d565b60209081029190910181019190915284510151816106e38b6001612914565b815181106106f3576106f3612b1d565b6020908102919091010152835160400151816107108b6002612914565b8151811061072057610720612b1d565b60209081029190910101528351606001518161073d8b6003612914565b8151811061074d5761074d612b1d565b60209081029190910101528351608001518161076a8b6004612914565b8151811061077a5761077a612b1d565b6020908102919091010152835160a00151816107978b6005612914565b815181106107a7576107a7612b1d565b6020908102919091010152835160c00151816107c48b6006612914565b815181106107d4576107d4612b1d565b6020908102919091010152835160e00151816107f18b6007612914565b8151811061080157610801612b1d565b6020908102919091010152835161010001518161081f8b6008612914565b8151811061082f5761082f612b1d565b6020908102919091010152835161012001518161084d8b6009612914565b8151811061085d5761085d612b1d565b6020908102919091010152835161014001518161087b8b600a612914565b8151811061088b5761088b612b1d565b602002602001018190525061089f42611224565b816108ab8b600b612914565b815181106108bb576108bb612b1d565b602090810291909101015283516101600151816108d98b600c612914565b815181106108e9576108e9612b1d565b6020026020010181905250610982600760009054906101000a90046001600160a01b03166001600160a01b031663b91ce2056040518163ffffffff1660e01b815260040160206040518083038186803b15801561094557600080fd5b505afa158015610959573d6000803e3d6000fd5b505050506040513d601f19601f8201168201806040525081019061097d9190612174565b611224565b8161098e8b600d612914565b8151811061099e5761099e612b1d565b60200260200101819052506109e36040805160c08101909152806000815260200160008152602001600081526020016060815260200160608152602001606081525090565b610a2a6000808f8f8080601f016020809104026020016040519081016040528093929190818152602001838380828437600092019190915250879594939250506112c69050565b610a34818361135a565b7f930a61d412ee04b567f790d1232c1fe3d797de7bfa1f99ba4b6e7fcc7448521f82604051610a639190612718565b60405180910390a16000610a78828b8b61139a565b600481905560008181526008602090815260408083208c90556009909152902080546001600160a01b031916331790559650505050505050979650505050505050565b60008181805b8251811015610b35576000838281518110610ade57610ade612b1d565b016020015160f81c905060308110801590610afa575060398111155b15610b2257610b0a603082612a36565b610b1584600a612a17565b610b1f9190612914565b92505b5080610b2d81612ab4565b915050610ac1565b509392505050565b60058054610b4a90612a79565b80601f0160208091040260200160405190810160405280929190818152602001828054610b7690612a79565b8015610bc35780601f10610b9857610100808354040283529160200191610bc3565b820191906000526020600020905b815481529060010190602001808311610ba657829003601f168201915b505050505081565b60008054604080517fd328a91e00000000000000000000000000000000000000000000000000000000815290516060936001600160a01b039093169263d328a91e9260048082019391829003018186803b158015610c2857600080fd5b505afa158015610c3c573d6000803e3d6000fd5b505050506040513d6000823e601f3d908101601f19168201604052610c6491908101906121fa565b905090565b600080546001600160a01b031663d227d24585610c858861150e565b86866040518563ffffffff1660e01b8152600401610ca694939291906127eb565b60206040518083038186803b158015610cbe57600080fd5b505afa158015610cd2573d6000803e3d6000fd5b505050506040513d601f19601f82011682018060405250810190610cf691906126be565b95945050505050565b610d07611148565b610d10816117da565b50565b610d1b611148565b600080546001600160a01b0319166001600160a01b03831617905550565b60068054610b4a90612a79565b8151610d59906005906020850190611e42565b508051610d6d906006906020840190611e42565b50827f7bab0ec163b5c132c72b8146ac4d6e067e82ed58f8b131150aa71c92589115628383604051610da092919061278d565b60405180910390a260008381526008602090815260408083205460099092528083205460075491516361875d8d60e01b81526001600160a01b03918216600482018190526024820185905293949291909116906361875d8d9060440160006040518083038186803b158015610e1457600080fd5b505afa158015610e28573d6000803e3d6000fd5b505050506040513d6000823e601f3d908101601f19168201604052610e509190810190612346565b6007546040517fcc9de25d0000000000000000000000000000000000000000000000000000000081529192506000916001600160a01b039091169063cc9de25d90610e9f90899060040161277a565b60206040518083038186803b158015610eb757600080fd5b505afa158015610ecb573d6000803e3d6000fd5b505050506040513d601f19601f82011682018060405250810190610eef9190612174565b90508015611024576007546040517fecd831e80000000000000000000000000000000000000000000000000000000081526001600160a01b038581166004830152602482018490529091169063ecd831e890604401600060405180830381600087803b158015610f5e57600080fd5b505af1158015610f72573d6000803e3d6000fd5b5050600754604051632f1635a360e21b81526001600160a01b03878116600483015260248201899052909116925063bc58d68c9150604401600060405180830381600087803b158015610fc457600080fd5b505af1158015610fd8573d6000803e3d6000fd5b5050604080516001600160a01b0387168152602081018590527f5afeca38b2064c23a692c4cf353015d80ab3ecc417b4f893f372690c11fbd9a6935001905060405180910390a161113f565b6000611034836101400151610abb565b9050804211156110e857600754604051632f1635a360e21b81526001600160a01b038681166004830152602482018890529091169063bc58d68c90604401600060405180830381600087803b15801561108c57600080fd5b505af11580156110a0573d6000803e3d6000fd5b5050604080516001600160a01b0388168152602081018990527f05e258a8da32249e7d7e1ebcd6b64f7c97c4235999db64b6687191b183d5e3f2935001905060405180910390a15b7f59d77641060cafc4d86dddd4bd9c687bbfbd23fb4b1962869afe9f54507105ea84866111154285612a36565b604080516001600160a01b03909416845260208401929092529082015260600160405180910390a1505b50505050505050565b6002546001600160a01b031633146111a25760405162461bcd60e51b815260206004820152601660248201527f4f6e6c792063616c6c61626c65206279206f776e6572000000000000000000006044820152606401610389565b565b60008181526001602052604090205481906001600160a01b0316156111f5576040517f8b457ad200000000000000000000000000000000000000000000000000000000815260040160405180910390fd5b50600090815260016020526040902080546001600160a01b0319166001600160a01b0392909216919091179055565b6060600061123183611885565b600101905060008167ffffffffffffffff81111561125157611251612b33565b6040519080825280601f01601f19166020018201604052801561127b576020820181803683370190505b5090508181016020015b600019017f3031323334353637383961626364656600000000000000000000000000000000600a86061a8153600a85049450846112c157610b35565b611285565b80516112fe576040517f22ce3edd00000000000000000000000000000000000000000000000000000000815260040160405180910390fd5b8383600181111561131157611311612b07565b9081600181111561132457611324612b07565b9052506040840182801561133a5761133a612b07565b9081801561134a5761134a612b07565b9052506060909301929092525050565b8051611392576040517ffe936cb700000000000000000000000000000000000000000000000000000000815260040160405180910390fd5b60a090910152565b6000805481906001600160a01b03166328242b04856113b88861150e565b866040518463ffffffff1660e01b81526004016113d7939291906127b2565b602060405180830381600087803b1580156113f157600080fd5b505af1158015611405573d6000803e3d6000fd5b505050506040513d601f19601f820116820180604052508101906114299190612174565b905060008054906101000a90046001600160a01b03166001600160a01b0316635ab1bd536040518163ffffffff1660e01b815260040160206040518083038186803b15801561147757600080fd5b505afa15801561148b573d6000803e3d6000fd5b505050506040513d601f19601f820116820180604052508101906114af9190612112565b60008281526001602052604080822080546001600160a01b0319166001600160a01b039490941693909317909255905182917f1131472297a800fee664d1d89cfa8f7676ff07189ecc53f80bbb5f4969099db891a290505b9392505050565b6060611518611ec6565b805161152690610100611968565b50611566816040518060400160405280600c81526020017f636f64654c6f636174696f6e00000000000000000000000000000000000000008152506119df565b611585818460000151600181111561158057611580612b07565b6119fd565b6115c4816040518060400160405280600881526020017f6c616e67756167650000000000000000000000000000000000000000000000008152506119df565b6115de818460400151600081111561158057611580612b07565b61161d816040518060400160405280600681526020017f736f7572636500000000000000000000000000000000000000000000000000008152506119df565b61162b8184606001516119df565b60a083015151156116d157611675816040518060400160405280600481526020017f61726773000000000000000000000000000000000000000000000000000000008152506119df565b61167e81611a36565b60005b8360a00151518110156116c7576116b5828560a0015183815181106116a8576116a8612b1d565b60200260200101516119df565b806116bf81612ab4565b915050611681565b506116d181611a5a565b608083015151156117d2576000836020015160018111156116f4576116f4612b07565b141561172c576040517fa80d31f700000000000000000000000000000000000000000000000000000000815260040160405180910390fd5b61176b816040518060400160405280600f81526020017f736563726574734c6f636174696f6e00000000000000000000000000000000008152506119df565b611785818460200151600181111561158057611580612b07565b6117c4816040518060400160405280600781526020017f73656372657473000000000000000000000000000000000000000000000000008152506119df565b6117d2818460800151611a78565b515192915050565b6001600160a01b0381163314156118335760405162461bcd60e51b815260206004820152601760248201527f43616e6e6f74207472616e7366657220746f2073656c660000000000000000006044820152606401610389565b600380546001600160a01b0319166001600160a01b03838116918217909255600254604051919216907fed8889f560326eb138920d842192f0eb3dd22b4f139c87a2c57538e05bae127890600090a350565b6000807a184f03e93ff9f4daa797ed6e38ed64bf6a1f01000000000000000083106118ce577a184f03e93ff9f4daa797ed6e38ed64bf6a1f010000000000000000830492506040015b6d04ee2d6d415b85acef810000000083106118fa576d04ee2d6d415b85acef8100000000830492506020015b662386f26fc10000831061191857662386f26fc10000830492506010015b6305f5e1008310611930576305f5e100830492506008015b612710831061194457612710830492506004015b60648310611956576064830492506002015b600a8310611962576001015b92915050565b604080518082019091526060815260006020820152611988602083612acf565b156119b057611998602083612acf565b6119a3906020612a36565b6119ad9083612914565b91505b6020808401839052604051808552600081529081840101818110156119d457600080fd5b604052509192915050565b6119ec8260038351611a81565b81516119f89082611ba2565b505050565b8151611a0a9060c2611bc3565b5061032f8282604051602001611a2291815260200190565b604051602081830303815290604052611a78565b611a41816004611c2c565b600181602001818151611a549190612914565b90525050565b611a65816007611c2c565b600181602001818151611a549190612a36565b6119ec82600283515b60178167ffffffffffffffff1611611aa85782516103179060e0600585901b168317611bc3565b60ff8167ffffffffffffffff1611611aea578251611ad1906018611fe0600586901b1617611bc3565b5082516103179067ffffffffffffffff83166001611c43565b61ffff8167ffffffffffffffff1611611b2d578251611b14906019611fe0600586901b1617611bc3565b5082516103179067ffffffffffffffff83166002611c43565b63ffffffff8167ffffffffffffffff1611611b72578251611b5990601a611fe0600586901b1617611bc3565b5082516103179067ffffffffffffffff83166004611c43565b8251611b8990601b611fe0600586901b1617611bc3565b5082516103179067ffffffffffffffff83166008611c43565b60408051808201909152606081526000602082015261150783838451611cc8565b6040805180820190915260608152600060208201528251516000611be8826001612914565b905084602001518210611c0957611c0985611c04836002612a17565b611d99565b8451602083820101858153508051821115611c22578181525b5093949350505050565b81516119f890601f611fe0600585901b1617611bc3565b6040805180820190915260608152600060208201528351516000611c678285612914565b90508560200151811115611c8457611c8486611c04836002612a17565b60006001611c948661010061296f565b611c9e9190612a36565b90508651828101878319825116178152508051831115611cbc578281525b50959695505050505050565b6040805180820190915260608152600060208201528251821115611ceb57600080fd5b8351516000611cfa8483612914565b90508560200151811115611d1757611d1786611c04836002612a17565b855180518382016020019160009180851115611d31578482525b505050602086015b60208610611d715780518252611d50602083612914565b9150611d5d602082612914565b9050611d6a602087612a36565b9550611d39565b51815160001960208890036101000a0190811690199190911617905250849150509392505050565b8151611da58383611968565b506103178382611ba2565b6040518060400160405280611e1f6040518061018001604052806060815260200160608152602001606081526020016060815260200160608152602001606081526020016060815260200160608152602001606081526020016060815260200160608152602001606081525090565b815260408051606081018252600080825260208281018290529282015291015290565b828054611e4e90612a79565b90600052602060002090601f016020900481019282611e705760008555611eb6565b82601f10611e8957805160ff1916838001178555611eb6565b82800160010185558215611eb6579182015b82811115611eb6578251825591602001919060010190611e9b565b50611ec2929150611efb565b5090565b6040518060400160405280611eee604051806040016040528060608152602001600081525090565b8152602001600081525090565b5b80821115611ec25760008155600101611efc565b6000611f23611f1e846128ec565b6128bb565b9050828152838383011115611f3757600080fd5b611507836020830184612a4d565b60008083601f840112611f5757600080fd5b50813567ffffffffffffffff811115611f6f57600080fd5b6020830191508360208260051b8501011115611f8a57600080fd5b9250929050565b600082601f830112611fa257600080fd5b8135602067ffffffffffffffff80831115611fbf57611fbf612b33565b8260051b611fce8382016128bb565b8481528381019087850183890186018a1015611fe957600080fd5b60009350835b8781101561202657813586811115612005578586fd5b6120138c89838e0101612035565b8552509286019290860190600101611fef565b50909998505050505050505050565b600082601f83011261204657600080fd5b8135612054611f1e826128ec565b81815284602083860101111561206957600080fd5b816020850160208301376000918101602001919091529392505050565b80356001811061209557600080fd5b919050565b80356002811061209557600080fd5b600082601f8301126120ba57600080fd5b61150783835160208501611f10565b803563ffffffff8116811461209557600080fd5b803567ffffffffffffffff8116811461209557600080fd5b60006020828403121561210757600080fd5b813561150781612b49565b60006020828403121561212457600080fd5b815161150781612b49565b6000806040838503121561214257600080fd5b823561214d81612b49565b946020939093013593505050565b60006020828403121561216d57600080fd5b5035919050565b60006020828403121561218657600080fd5b5051919050565b6000806000606084860312156121a257600080fd5b83359250602084013567ffffffffffffffff808211156121c157600080fd5b6121cd87838801612035565b935060408601359150808211156121e357600080fd5b506121f086828701612035565b9150509250925092565b60006020828403121561220c57600080fd5b815167ffffffffffffffff81111561222357600080fd5b8201601f8101841361223457600080fd5b61224384825160208401611f10565b949350505050565b600080600080600080600060a0888a03121561226657600080fd5b873567ffffffffffffffff8082111561227e57600080fd5b818a0191508a601f83011261229257600080fd5b8135818111156122a157600080fd5b8b60208285010111156122b357600080fd5b6020928301995097509089013590808211156122ce57600080fd5b506122db8a828b01611f45565b90965094506122ee9050604089016120dd565b92506122fc606089016120c9565b91506080880135905092959891949750929550565b60006020828403121561232357600080fd5b813567ffffffffffffffff81111561233a57600080fd5b61224384828501612035565b60006020828403121561235857600080fd5b815167ffffffffffffffff8082111561237057600080fd5b90830190610180828603121561238557600080fd5b61238d61286e565b82518281111561239c57600080fd5b6123a8878286016120a9565b8252506020830151828111156123bd57600080fd5b6123c9878286016120a9565b6020830152506040830151828111156123e157600080fd5b6123ed878286016120a9565b60408301525060608301518281111561240557600080fd5b612411878286016120a9565b60608301525060808301518281111561242957600080fd5b612435878286016120a9565b60808301525060a08301518281111561244d57600080fd5b612459878286016120a9565b60a08301525060c08301518281111561247157600080fd5b61247d878286016120a9565b60c08301525060e08301518281111561249557600080fd5b6124a1878286016120a9565b60e08301525061010080840151838111156124bb57600080fd5b6124c7888287016120a9565b82840152505061012080840151838111156124e157600080fd5b6124ed888287016120a9565b828401525050610140808401518381111561250757600080fd5b612513888287016120a9565b828401525050610160808401518381111561252d57600080fd5b612539888287016120a9565b918301919091525095945050505050565b60006060828403121561255c57600080fd5b6040516060810181811067ffffffffffffffff8211171561257f5761257f612b33565b604052825161258d81612b49565b8152602083810151908201526040928301519281019290925250919050565b600080600080608085870312156125c257600080fd5b843567ffffffffffffffff808211156125da57600080fd5b9086019060c082890312156125ee57600080fd5b6125f6612898565b6125ff8361209a565b815261260d6020840161209a565b602082015261261e60408401612086565b604082015260608301358281111561263557600080fd5b6126418a828601612035565b60608301525060808301358281111561265957600080fd5b6126658a828601612035565b60808301525060a08301358281111561267d57600080fd5b6126898a828601611f91565b60a08301525095506126a0915050602086016120dd565b92506126ae604086016120c9565b9396929550929360600135925050565b6000602082840312156126d057600080fd5b81516bffffffffffffffffffffffff8116811461150757600080fd5b60008151808452612704816020860160208601612a4d565b601f01601f19169290920160200192915050565b6000602080830181845280855180835260408601915060408160051b870101925083870160005b8281101561276d57603f1988860301845261275b8583516126ec565b9450928501929085019060010161273f565b5092979650505050505050565b60208152600061150760208301846126ec565b6040815260006127a060408301856126ec565b8281036020840152610cf681856126ec565b67ffffffffffffffff841681526060602082015260006127d560608301856126ec565b905063ffffffff83166040830152949350505050565b67ffffffffffffffff8516815260806020820152600061280e60808301866126ec565b63ffffffff949094166040830152506060015292915050565b6000808335601e1984360301811261283e57600080fd5b83018035915067ffffffffffffffff82111561285957600080fd5b602001915036819003821315611f8a57600080fd5b604051610180810167ffffffffffffffff8111828210171561289257612892612b33565b60405290565b60405160c0810167ffffffffffffffff8111828210171561289257612892612b33565b604051601f8201601f1916810167ffffffffffffffff811182821017156128e4576128e4612b33565b604052919050565b600067ffffffffffffffff82111561290657612906612b33565b50601f01601f191660200190565b6000821982111561292757612927612af1565b500190565b600181815b8085111561296757816000190482111561294d5761294d612af1565b8085161561295a57918102915b93841c9390800290612931565b509250929050565b6000611507838360008261298557506001611962565b8161299257506000611962565b81600181146129a857600281146129b2576129ce565b6001915050611962565b60ff8411156129c3576129c3612af1565b50506001821b611962565b5060208310610133831016604e8410600b84101617156129f1575081810a611962565b6129fb838361292c565b8060001904821115612a0f57612a0f612af1565b029392505050565b6000816000190483118215151615612a3157612a31612af1565b500290565b600082821015612a4857612a48612af1565b500390565b60005b83811015612a68578181015183820152602001612a50565b838111156103175750506000910152565b600181811c90821680612a8d57607f821691505b60208210811415612aae57634e487b7160e01b600052602260045260246000fd5b50919050565b6000600019821415612ac857612ac8612af1565b5060010190565b600082612aec57634e487b7160e01b600052601260045260246000fd5b500690565b634e487b7160e01b600052601160045260246000fd5b634e487b7160e01b600052602160045260246000fd5b634e487b7160e01b600052603260045260246000fd5b634e487b7160e01b600052604160045260246000fd5b6001600160a01b0381168114610d1057600080fdfea2646970667358221220f2f98249c7a2cca25d38a3bdbc85e5e4854ddbfad7356a96452451a21535ab6d64736f6c63430008070033",
  "linkReferences": {},
  "deployedLinkReferences": {}
}