{
  "_format": "hh-sol-artifact-1",
  "contractName": "CheckPayout",
  "sourceName": "contracts/CheckPayout.sol",
  "abi": [
    {
      "inputs": [
        {
          "internalType": "address",
          "name": "oracle",
          "type": "address"
        },
        {
          "internalType": "address",
          "name": "insuranceAddress",
          "type": "address"
        }
      ],
      "stateMutability": "nonpayable",
      "type": "constructor"
    },
    {
      "inputs": [],
      "name": "EmptyArgs",
      "type": "error"
    },
    {
      "inputs": [],
      "name": "EmptySource",
      "type": "error"
    },
    {
      "inputs": [],
      "name": "NoInlineSecrets",
      "type": "error"
    },
    {
      "inputs": [],
      "name": "RequestIsAlreadyPending",
      "type": "error"
    },
    {
      "inputs": [],
      "name": "RequestIsNotPending",
      "type": "error"
    },
    {
      "inputs": [],
      "name": "SenderIsNotRegistry",
      "type": "error"
    },
    {
      "anonymous": false,
      "inputs": [
        {
          "indexed": true,
          "internalType": "bytes32",
          "name": "requestId",
          "type": "bytes32"
        },
        {
          "indexed": false,
          "internalType": "bytes",
          "name": "result",
          "type": "bytes"
        },
        {
          "indexed": false,
          "internalType": "bytes",
          "name": "err",
          "type": "bytes"
        }
      ],
      "name": "OCRResponse",
      "type": "event"
    },
    {
      "anonymous": false,
      "inputs": [
        {
          "indexed": true,
          "internalType": "address",
          "name": "from",
          "type": "address"
        },
        {
          "indexed": true,
          "internalType": "address",
          "name": "to",
          "type": "address"
        }
      ],
      "name": "OwnershipTransferRequested",
      "type": "event"
    },
    {
      "anonymous": false,
      "inputs": [
        {
          "indexed": true,
          "internalType": "address",
          "name": "from",
          "type": "address"
        },
        {
          "indexed": true,
          "internalType": "address",
          "name": "to",
          "type": "address"
        }
      ],
      "name": "OwnershipTransferred",
      "type": "event"
    },
    {
      "anonymous": false,
      "inputs": [
        {
          "indexed": false,
          "internalType": "address",
          "name": "originalSender",
          "type": "address"
        },
        {
          "indexed": false,
          "internalType": "uint256",
          "name": "payoutAmount",
          "type": "uint256"
        }
      ],
      "name": "Payout",
      "type": "event"
    },
    {
      "anonymous": false,
      "inputs": [
        {
          "indexed": false,
          "internalType": "address",
          "name": "originalSender",
          "type": "address"
        },
        {
          "indexed": false,
          "internalType": "uint256",
          "name": "policyIndex",
          "type": "uint256"
        }
      ],
      "name": "PolicyEnded",
      "type": "event"
    },
    {
      "anonymous": false,
      "inputs": [
        {
          "indexed": true,
          "internalType": "bytes32",
          "name": "id",
          "type": "bytes32"
        }
      ],
      "name": "RequestFulfilled",
      "type": "event"
    },
    {
      "anonymous": false,
      "inputs": [
        {
          "indexed": true,
          "internalType": "bytes32",
          "name": "id",
          "type": "bytes32"
        }
      ],
      "name": "RequestSent",
      "type": "event"
    },
    {
      "anonymous": false,
      "inputs": [
        {
          "indexed": false,
          "internalType": "address",
          "name": "originalSender",
          "type": "address"
        },
        {
          "indexed": false,
          "internalType": "uint256",
          "name": "policyIndex",
          "type": "uint256"
        },
        {
          "indexed": false,
          "internalType": "uint256",
          "name": "timeRemaining",
          "type": "uint256"
        }
      ],
      "name": "TimeRemaining",
      "type": "event"
    },
    {
      "anonymous": false,
      "inputs": [
        {
          "indexed": false,
          "internalType": "string[]",
          "name": "args",
          "type": "string[]"
        }
      ],
      "name": "UsingArgs",
      "type": "event"
    },
    {
      "inputs": [],
      "name": "acceptOwnership",
      "outputs": [],
      "stateMutability": "nonpayable",
      "type": "function"
    },
    {
      "inputs": [
        {
          "internalType": "address",
          "name": "oracleAddress",
          "type": "address"
        },
        {
          "internalType": "bytes32",
          "name": "requestId",
          "type": "bytes32"
        }
      ],
      "name": "addSimulatedRequestId",
      "outputs": [],
      "stateMutability": "nonpayable",
      "type": "function"
    },
    {
      "inputs": [
        {
          "internalType": "uint64",
          "name": "subscriptionId",
          "type": "uint64"
        },
        {
          "internalType": "uint32",
          "name": "gasLimit",
          "type": "uint32"
        },
        {
          "internalType": "uint256",
          "name": "policyIndex",
          "type": "uint256"
        }
      ],
      "name": "checkPolicy",
      "outputs": [
        {
          "internalType": "bytes32",
          "name": "",
          "type": "bytes32"
        }
      ],
      "stateMutability": "nonpayable",
      "type": "function"
    },
    {
      "inputs": [
        {
          "components": [
            {
              "internalType": "enum Functions.Location",
              "name": "codeLocation",
              "type": "uint8"
            },
            {
              "internalType": "enum Functions.Location",
              "name": "secretsLocation",
              "type": "uint8"
            },
            {
              "internalType": "enum Functions.CodeLanguage",
              "name": "language",
              "type": "uint8"
            },
            {
              "internalType": "string",
              "name": "source",
              "type": "string"
            },
            {
              "internalType": "bytes",
              "name": "secrets",
              "type": "bytes"
            },
            {
              "internalType": "string[]",
              "name": "args",
              "type": "string[]"
            }
          ],
          "internalType": "struct Functions.Request",
          "name": "req",
          "type": "tuple"
        },
        {
          "internalType": "uint64",
          "name": "subscriptionId",
          "type": "uint64"
        },
        {
          "internalType": "uint32",
          "name": "gasLimit",
          "type": "uint32"
        },
        {
          "internalType": "uint256",
          "name": "gasPrice",
          "type": "uint256"
        }
      ],
      "name": "estimateCost",
      "outputs": [
        {
          "internalType": "uint96",
          "name": "",
          "type": "uint96"
        }
      ],
      "stateMutability": "view",
      "type": "function"
    },
    {
      "inputs": [],
      "name": "getDONPublicKey",
      "outputs": [
        {
          "internalType": "bytes",
          "name": "",
          "type": "bytes"
        }
      ],
      "stateMutability": "view",
      "type": "function"
    },
    {
      "inputs": [],
      "name": "getSourceCode",
      "outputs": [
        {
          "internalType": "string",
          "name": "",
          "type": "string"
        }
      ],
      "stateMutability": "view",
      "type": "function"
    },
    {
      "inputs": [
        {
          "internalType": "bytes32",
          "name": "requestId",
          "type": "bytes32"
        },
        {
          "internalType": "bytes",
          "name": "response",
          "type": "bytes"
        },
        {
          "internalType": "bytes",
          "name": "err",
          "type": "bytes"
        }
      ],
      "name": "handleOracleFulfillment",
      "outputs": [],
      "stateMutability": "nonpayable",
      "type": "function"
    },
    {
      "inputs": [],
      "name": "insuranceContract",
      "outputs": [
        {
          "internalType": "contract Insurance",
          "name": "",
          "type": "address"
        }
      ],
      "stateMutability": "view",
      "type": "function"
    },
    {
      "inputs": [],
      "name": "latestError",
      "outputs": [
        {
          "internalType": "bytes",
          "name": "",
          "type": "bytes"
        }
      ],
      "stateMutability": "view",
      "type": "function"
    },
    {
      "inputs": [],
      "name": "latestRequestId",
      "outputs": [
        {
          "internalType": "bytes32",
          "name": "",
          "type": "bytes32"
        }
      ],
      "stateMutability": "view",
      "type": "function"
    },
    {
      "inputs": [],
      "name": "latestResponse",
      "outputs": [
        {
          "internalType": "bytes",
          "name": "",
          "type": "bytes"
        }
      ],
      "stateMutability": "view",
      "type": "function"
    },
    {
      "inputs": [],
      "name": "owner",
      "outputs": [
        {
          "internalType": "address",
          "name": "",
          "type": "address"
        }
      ],
      "stateMutability": "view",
      "type": "function"
    },
    {
      "inputs": [
        {
          "internalType": "bytes32",
          "name": "",
          "type": "bytes32"
        }
      ],
      "name": "requestIdToPolicyIndex",
      "outputs": [
        {
          "internalType": "uint256",
          "name": "",
          "type": "uint256"
        }
      ],
      "stateMutability": "view",
      "type": "function"
    },
    {
      "inputs": [
        {
          "internalType": "bytes32",
          "name": "",
          "type": "bytes32"
        }
      ],
      "name": "requestIdToSender",
      "outputs": [
        {
          "internalType": "address",
          "name": "",
          "type": "address"
        }
      ],
      "stateMutability": "view",
      "type": "function"
    },
    {
      "inputs": [
        {
          "internalType": "string",
          "name": "_sourceCode",
          "type": "string"
        }
      ],
      "name": "setSourceCode",
      "outputs": [],
      "stateMutability": "nonpayable",
      "type": "function"
    },
    {
      "inputs": [],
      "name": "sourceCode",
      "outputs": [
        {
          "internalType": "string",
          "name": "",
          "type": "string"
        }
      ],
      "stateMutability": "view",
      "type": "function"
    },
    {
      "inputs": [
        {
          "internalType": "string",
          "name": "s",
          "type": "string"
        }
      ],
      "name": "stringToUint256",
      "outputs": [
        {
          "internalType": "uint256",
          "name": "",
          "type": "uint256"
        }
      ],
      "stateMutability": "pure",
      "type": "function"
    },
    {
      "inputs": [
        {
          "internalType": "address",
          "name": "to",
          "type": "address"
        }
      ],
      "name": "transferOwnership",
      "outputs": [],
      "stateMutability": "nonpayable",
      "type": "function"
    },
    {
      "inputs": [
        {
          "internalType": "address",
          "name": "oracle",
          "type": "address"
        }
      ],
      "name": "updateOracleAddress",
      "outputs": [],
      "stateMutability": "nonpayable",
      "type": "function"
    }
  ],
  "bytecode": "0x60806040523480156200001157600080fd5b5060405162002d0838038062002d088339810160408190526200003491620001d8565b600080546001600160a01b0319166001600160a01b038416178155339081906001600160a01b038216620000af5760405162461bcd60e51b815260206004820152601860248201527f43616e6e6f7420736574206f776e657220746f207a65726f000000000000000060448201526064015b60405180910390fd5b600280546001600160a01b0319166001600160a01b0384811691909117909155811615620000e257620000e2816200010e565b5050600880546001600160a01b0319166001600160a01b03939093169290921790915550620002109050565b6001600160a01b038116331415620001695760405162461bcd60e51b815260206004820152601760248201527f43616e6e6f74207472616e7366657220746f2073656c660000000000000000006044820152606401620000a6565b600380546001600160a01b0319166001600160a01b03838116918217909255600254604051919216907fed8889f560326eb138920d842192f0eb3dd22b4f139c87a2c57538e05bae127890600090a350565b80516001600160a01b0381168114620001d357600080fd5b919050565b60008060408385031215620001ec57600080fd5b620001f783620001bb565b91506200020760208401620001bb565b90509250929050565b612ae880620002206000396000f3fe608060405234801561001057600080fd5b50600436106101505760003560e01c806379ba5097116100cd578063d328a91e11610081578063f2fde38b11610066578063f2fde38b146102c0578063f7023bb6146102d3578063fffeb84e146102e657600080fd5b8063d328a91e14610288578063d4b391751461029057600080fd5b8063ac5d3723116100b2578063ac5d37231461025a578063bef3a2f01461026d578063d012a5a81461027557600080fd5b806379ba5097146102415780638da5cb5b1461024957600080fd5b8063219c0eee11610124578063448af93711610109578063448af937146102065780634732889d14610219578063698cd3ad1461023957600080fd5b8063219c0eee146101b257806330bda99d146101f357600080fd5b8062b46767146101555780630ca761751461016a57806313c601771461017d5780631aa46f591461019b575b600080fd5b610168610163366004612270565b6102ee565b005b6101686101783660046121b2565b61030d565b6101856103b3565b6040516101929190612715565b60405180910390f35b6101a460055481565b604051908152602001610192565b6101db6101c0366004612180565b600a602052600090815260409020546001600160a01b031681565b6040516001600160a01b039091168152602001610192565b610168610201366004612154565b610441565b6101a461021436600461261d565b610453565b6101a4610227366004612180565b60096020526000908152604090205481565b610185610a63565b610168610af5565b6002546001600160a01b03166101db565b6101a4610268366004612270565b610baf565b610185610c31565b6008546101db906001600160a01b031681565b610185610c3e565b6102a361029e36600461250b565b610cdc565b6040516bffffffffffffffffffffffff9091168152602001610192565b6101686102ce36600461211a565b610d72565b6101686102e136600461211a565b610d86565b610185610dac565b6102f6610db9565b8051610309906004906020840190611e21565b5050565b60008381526001602052604090205483906001600160a01b0316331461035f576040517fa0c5ec6300000000000000000000000000000000000000000000000000000000815260040160405180910390fd5b60008181526001602052604080822080546001600160a01b03191690555182917f85e1543bf2f84fe80c6badbce3648c8539ad1df4d2b3d822938ca0538be727e691a26103ad848484610e15565b50505050565b600480546103c0906129cd565b80601f01602080910402602001604051908101604052809291908181526020018280546103ec906129cd565b80156104395780601f1061040e57610100808354040283529160200191610439565b820191906000526020600020905b81548152906001019060200180831161041c57829003601f168201915b505050505081565b610449610db9565b6103098282611217565b600061045d611ea5565b6008546040516361875d8d60e01b8152336004820152602481018590526001600160a01b03909116906361875d8d9060440160006040518083038186803b1580156104a757600080fd5b505afa1580156104bb573d6000803e3d6000fd5b505050506040513d6000823e601f3d908101601f191682016040526104e391908101906122a5565b81526008546040517f6ec7be7e000000000000000000000000000000000000000000000000000000008152336004820152602481018590526000916001600160a01b031690636ec7be7e9060440160206040518083038186803b15801561054957600080fd5b505afa15801561055d573d6000803e3d6000fd5b505050506040513d601f19601f820116820180604052508101906105819190612199565b6008546040517f215fc625000000000000000000000000000000000000000000000000000000008152600481018390529192506001600160a01b03169063215fc6259060240160606040518083038186803b1580156105df57600080fd5b505afa1580156105f3573d6000803e3d6000fd5b505050506040513d601f19601f8201168201806040525081019061061791906124a9565b60208381018290526040918201518251600e8082526101e08201909452909260009282015b606081526020019060019003908161063c575050845151815191925090829060009061066a5761066a612a71565b60200260200101819052508360000151602001518160018151811061069157610691612a71565b6020026020010181905250836000015160400151816002815181106106b8576106b8612a71565b6020026020010181905250836000015160600151816003815181106106df576106df612a71565b60200260200101819052508360000151608001518160048151811061070657610706612a71565b6020026020010181905250836000015160a001518160058151811061072d5761072d612a71565b6020026020010181905250836000015160c001518160068151811061075457610754612a71565b6020026020010181905250836000015160e001518160078151811061077b5761077b612a71565b602002602001018190525083600001516101000151816008815181106107a3576107a3612a71565b602002602001018190525083600001516101200151816009815181106107cb576107cb612a71565b60200260200101819052508360000151610140015181600a815181106107f3576107f3612a71565b602002602001018190525061080742611297565b81600b8151811061081a5761081a612a71565b60200260200101819052508360000151610160015181600c8151811061084257610842612a71565b60200260200101819052506108db600860009054906101000a90046001600160a01b03166001600160a01b031663b91ce2056040518163ffffffff1660e01b815260040160206040518083038186803b15801561089e57600080fd5b505afa1580156108b2573d6000803e3d6000fd5b505050506040513d601f19601f820116820180604052508101906108d69190612199565b611297565b81600d815181106108ee576108ee612a71565b60200260200101819052506109336040805160c08101909152806000815260200160008152602001600081526020016060815260200160608152602001606081525090565b6109d560008060048054610946906129cd565b80601f0160208091040260200160405190810160405280929190818152602001828054610972906129cd565b80156109bf5780601f10610994576101008083540402835291602001916109bf565b820191906000526020600020905b8154815290600101906020018083116109a257829003601f168201915b505050505084611339909392919063ffffffff16565b6109df81836113cd565b7f930a61d412ee04b567f790d1232c1fe3d797de7bfa1f99ba4b6e7fcc7448521f82604051610a0e91906126b3565b60405180910390a16000610a23828b8b61140d565b600581905560008181526009602090815260408083208c9055600a909152902080546001600160a01b0319163317905596505050505050505b9392505050565b606060048054610a72906129cd565b80601f0160208091040260200160405190810160405280929190818152602001828054610a9e906129cd565b8015610aeb5780601f10610ac057610100808354040283529160200191610aeb565b820191906000526020600020905b815481529060010190602001808311610ace57829003601f168201915b5050505050905090565b6003546001600160a01b03163314610b545760405162461bcd60e51b815260206004820152601660248201527f4d7573742062652070726f706f736564206f776e65720000000000000000000060448201526064015b60405180910390fd5b600280546001600160a01b0319808216339081179093556003805490911690556040516001600160a01b03909116919082907f8be0079c531659141344cd1fd0a4f28419497f9722a3daafe3b4186f6b6457e090600090a350565b60008181805b8251811015610c29576000838281518110610bd257610bd2612a71565b016020015160f81c905060308110801590610bee575060398111155b15610c1657610bfe60308261298a565b610c0984600a61296b565b610c139190612868565b92505b5080610c2181612a08565b915050610bb5565b509392505050565b600680546103c0906129cd565b60008054604080517fd328a91e00000000000000000000000000000000000000000000000000000000815290516060936001600160a01b039093169263d328a91e9260048082019391829003018186803b158015610c9b57600080fd5b505afa158015610caf573d6000803e3d6000fd5b505050506040513d6000823e601f3d908101601f19168201604052610cd7919081019061221f565b905090565b600080546001600160a01b031663d227d24585610cf88861157f565b86866040518563ffffffff1660e01b8152600401610d199493929190612786565b60206040518083038186803b158015610d3157600080fd5b505afa158015610d45573d6000803e3d6000fd5b505050506040513d601f19601f82011682018060405250810190610d699190612659565b95945050505050565b610d7a610db9565b610d838161184b565b50565b610d8e610db9565b600080546001600160a01b0319166001600160a01b03831617905550565b600780546103c0906129cd565b6002546001600160a01b03163314610e135760405162461bcd60e51b815260206004820152601660248201527f4f6e6c792063616c6c61626c65206279206f776e6572000000000000000000006044820152606401610b4b565b565b8151610e28906006906020850190611e21565b508051610e3c906007906020840190611e21565b50827f7bab0ec163b5c132c72b8146ac4d6e067e82ed58f8b131150aa71c92589115628383604051610e6f929190612728565b60405180910390a2600083815260096020908152604080832054600a9092528083205460085491516361875d8d60e01b81526001600160a01b03918216600482018190526024820185905293949291909116906361875d8d9060440160006040518083038186803b158015610ee357600080fd5b505afa158015610ef7573d6000803e3d6000fd5b505050506040513d6000823e601f3d908101601f19168201604052610f1f91908101906122a5565b6008546040517fcc9de25d0000000000000000000000000000000000000000000000000000000081529192506000916001600160a01b039091169063cc9de25d90610f6e908990600401612715565b60206040518083038186803b158015610f8657600080fd5b505afa158015610f9a573d6000803e3d6000fd5b505050506040513d601f19601f82011682018060405250810190610fbe9190612199565b905080156110f3576008546040517fecd831e80000000000000000000000000000000000000000000000000000000081526001600160a01b038581166004830152602482018490529091169063ecd831e890604401600060405180830381600087803b15801561102d57600080fd5b505af1158015611041573d6000803e3d6000fd5b5050600854604051632f1635a360e21b81526001600160a01b03878116600483015260248201899052909116925063bc58d68c9150604401600060405180830381600087803b15801561109357600080fd5b505af11580156110a7573d6000803e3d6000fd5b5050604080516001600160a01b0387168152602081018590527f5afeca38b2064c23a692c4cf353015d80ab3ecc417b4f893f372690c11fbd9a6935001905060405180910390a161120e565b6000611103836101400151610baf565b9050804211156111b757600854604051632f1635a360e21b81526001600160a01b038681166004830152602482018890529091169063bc58d68c90604401600060405180830381600087803b15801561115b57600080fd5b505af115801561116f573d6000803e3d6000fd5b5050604080516001600160a01b0388168152602081018990527f05e258a8da32249e7d7e1ebcd6b64f7c97c4235999db64b6687191b183d5e3f2935001905060405180910390a15b7f59d77641060cafc4d86dddd4bd9c687bbfbd23fb4b1962869afe9f54507105ea84866111e4428561298a565b604080516001600160a01b03909416845260208401929092529082015260600160405180910390a1505b50505050505050565b60008181526001602052604090205481906001600160a01b031615611268576040517f8b457ad200000000000000000000000000000000000000000000000000000000815260040160405180910390fd5b50600090815260016020526040902080546001600160a01b0319166001600160a01b0392909216919091179055565b606060006112a4836118f6565b600101905060008167ffffffffffffffff8111156112c4576112c4612a87565b6040519080825280601f01601f1916602001820160405280156112ee576020820181803683370190505b5090508181016020015b600019017f3031323334353637383961626364656600000000000000000000000000000000600a86061a8153600a850494508461133457610c29565b6112f8565b8051611371576040517f22ce3edd00000000000000000000000000000000000000000000000000000000815260040160405180910390fd5b8383600181111561138457611384612a5b565b9081600181111561139757611397612a5b565b905250604084018280156113ad576113ad612a5b565b908180156113bd576113bd612a5b565b9052506060909301929092525050565b8051611405576040517ffe936cb700000000000000000000000000000000000000000000000000000000815260040160405180910390fd5b60a090910152565b6000805481906001600160a01b03166328242b048561142b8861157f565b866040518463ffffffff1660e01b815260040161144a9392919061274d565b602060405180830381600087803b15801561146457600080fd5b505af1158015611478573d6000803e3d6000fd5b505050506040513d601f19601f8201168201806040525081019061149c9190612199565b905060008054906101000a90046001600160a01b03166001600160a01b0316635ab1bd536040518163ffffffff1660e01b815260040160206040518083038186803b1580156114ea57600080fd5b505afa1580156114fe573d6000803e3d6000fd5b505050506040513d601f19601f820116820180604052508101906115229190612137565b60008281526001602052604080822080546001600160a01b0319166001600160a01b039490941693909317909255905182917f1131472297a800fee664d1d89cfa8f7676ff07189ecc53f80bbb5f4969099db891a2949350505050565b6060611589611f37565b8051611597906101006119d9565b506115d7816040518060400160405280600c81526020017f636f64654c6f636174696f6e0000000000000000000000000000000000000000815250611a50565b6115f681846000015160018111156115f1576115f1612a5b565b611a6e565b611635816040518060400160405280600881526020017f6c616e6775616765000000000000000000000000000000000000000000000000815250611a50565b61164f81846040015160008111156115f1576115f1612a5b565b61168e816040518060400160405280600681526020017f736f757263650000000000000000000000000000000000000000000000000000815250611a50565b61169c818460600151611a50565b60a08301515115611742576116e6816040518060400160405280600481526020017f6172677300000000000000000000000000000000000000000000000000000000815250611a50565b6116ef81611aa7565b60005b8360a001515181101561173857611726828560a00151838151811061171957611719612a71565b6020026020010151611a50565b8061173081612a08565b9150506116f2565b5061174281611acb565b608083015151156118435760008360200151600181111561176557611765612a5b565b141561179d576040517fa80d31f700000000000000000000000000000000000000000000000000000000815260040160405180910390fd5b6117dc816040518060400160405280600f81526020017f736563726574734c6f636174696f6e0000000000000000000000000000000000815250611a50565b6117f681846020015160018111156115f1576115f1612a5b565b611835816040518060400160405280600781526020017f7365637265747300000000000000000000000000000000000000000000000000815250611a50565b611843818460800151611ae9565b515192915050565b6001600160a01b0381163314156118a45760405162461bcd60e51b815260206004820152601760248201527f43616e6e6f74207472616e7366657220746f2073656c660000000000000000006044820152606401610b4b565b600380546001600160a01b0319166001600160a01b03838116918217909255600254604051919216907fed8889f560326eb138920d842192f0eb3dd22b4f139c87a2c57538e05bae127890600090a350565b6000807a184f03e93ff9f4daa797ed6e38ed64bf6a1f010000000000000000831061193f577a184f03e93ff9f4daa797ed6e38ed64bf6a1f010000000000000000830492506040015b6d04ee2d6d415b85acef8100000000831061196b576d04ee2d6d415b85acef8100000000830492506020015b662386f26fc10000831061198957662386f26fc10000830492506010015b6305f5e10083106119a1576305f5e100830492506008015b61271083106119b557612710830492506004015b606483106119c7576064830492506002015b600a83106119d3576001015b92915050565b6040805180820190915260608152600060208201526119f9602083612a23565b15611a2157611a09602083612a23565b611a1490602061298a565b611a1e9083612868565b91505b602080840183905260405180855260008152908184010181811015611a4557600080fd5b604052509192915050565b611a5d8260038351611af2565b8151611a699082611c13565b505050565b8151611a7b9060c2611c34565b506103098282604051602001611a9391815260200190565b604051602081830303815290604052611ae9565b611ab2816004611c9d565b600181602001818151611ac59190612868565b90525050565b611ad6816007611c9d565b600181602001818151611ac5919061298a565b611a5d82600283515b60178167ffffffffffffffff1611611b195782516103ad9060e0600585901b168317611c34565b60ff8167ffffffffffffffff1611611b5b578251611b42906018611fe0600586901b1617611c34565b5082516103ad9067ffffffffffffffff83166001611cb4565b61ffff8167ffffffffffffffff1611611b9e578251611b85906019611fe0600586901b1617611c34565b5082516103ad9067ffffffffffffffff83166002611cb4565b63ffffffff8167ffffffffffffffff1611611be3578251611bca90601a611fe0600586901b1617611c34565b5082516103ad9067ffffffffffffffff83166004611cb4565b8251611bfa90601b611fe0600586901b1617611c34565b5082516103ad9067ffffffffffffffff83166008611cb4565b604080518082019091526060815260006020820152610a5c83838451611d39565b6040805180820190915260608152600060208201528251516000611c59826001612868565b905084602001518210611c7a57611c7a85611c7583600261296b565b611e0a565b8451602083820101858153508051821115611c93578181525b5093949350505050565b8151611a6990601f611fe0600585901b1617611c34565b6040805180820190915260608152600060208201528351516000611cd88285612868565b90508560200151811115611cf557611cf586611c7583600261296b565b60006001611d05866101006128c3565b611d0f919061298a565b90508651828101878319825116178152508051831115611d2d578281525b50959695505050505050565b6040805180820190915260608152600060208201528251821115611d5c57600080fd5b8351516000611d6b8483612868565b90508560200151811115611d8857611d8886611c7583600261296b565b855180518382016020019160009180851115611da2578482525b505050602086015b60208610611de25780518252611dc1602083612868565b9150611dce602082612868565b9050611ddb60208761298a565b9550611daa565b51815160001960208890036101000a0190811690199190911617905250849150509392505050565b8151611e1683836119d9565b506103ad8382611c13565b828054611e2d906129cd565b90600052602060002090601f016020900481019282611e4f5760008555611e95565b82601f10611e6857805160ff1916838001178555611e95565b82800160010185558215611e95579182015b82811115611e95578251825591602001919060010190611e7a565b50611ea1929150611f6c565b5090565b6040518060400160405280611f146040518061018001604052806060815260200160608152602001606081526020016060815260200160608152602001606081526020016060815260200160608152602001606081526020016060815260200160608152602001606081525090565b815260408051606081018252600080825260208281018290529282015291015290565b6040518060400160405280611f5f604051806040016040528060608152602001600081525090565b8152602001600081525090565b5b80821115611ea15760008155600101611f6d565b6000611f94611f8f84612840565b61280f565b9050828152838383011115611fa857600080fd5b610a5c8360208301846129a1565b600082601f830112611fc757600080fd5b8135602067ffffffffffffffff80831115611fe457611fe4612a87565b8260051b611ff383820161280f565b8481528381019087850183890186018a101561200e57600080fd5b60009350835b8781101561204b5781358681111561202a578586fd5b6120388c89838e010161205a565b8552509286019290860190600101612014565b50909998505050505050505050565b600082601f83011261206b57600080fd5b8135612079611f8f82612840565b81815284602083860101111561208e57600080fd5b816020850160208301376000918101602001919091529392505050565b8035600181106120ba57600080fd5b919050565b8035600281106120ba57600080fd5b600082601f8301126120df57600080fd5b610a5c83835160208501611f81565b803563ffffffff811681146120ba57600080fd5b803567ffffffffffffffff811681146120ba57600080fd5b60006020828403121561212c57600080fd5b8135610a5c81612a9d565b60006020828403121561214957600080fd5b8151610a5c81612a9d565b6000806040838503121561216757600080fd5b823561217281612a9d565b946020939093013593505050565b60006020828403121561219257600080fd5b5035919050565b6000602082840312156121ab57600080fd5b5051919050565b6000806000606084860312156121c757600080fd5b83359250602084013567ffffffffffffffff808211156121e657600080fd5b6121f28783880161205a565b9350604086013591508082111561220857600080fd5b506122158682870161205a565b9150509250925092565b60006020828403121561223157600080fd5b815167ffffffffffffffff81111561224857600080fd5b8201601f8101841361225957600080fd5b61226884825160208401611f81565b949350505050565b60006020828403121561228257600080fd5b813567ffffffffffffffff81111561229957600080fd5b6122688482850161205a565b6000602082840312156122b757600080fd5b815167ffffffffffffffff808211156122cf57600080fd5b9083019061018082860312156122e457600080fd5b6122ec6127c2565b8251828111156122fb57600080fd5b612307878286016120ce565b82525060208301518281111561231c57600080fd5b612328878286016120ce565b60208301525060408301518281111561234057600080fd5b61234c878286016120ce565b60408301525060608301518281111561236457600080fd5b612370878286016120ce565b60608301525060808301518281111561238857600080fd5b612394878286016120ce565b60808301525060a0830151828111156123ac57600080fd5b6123b8878286016120ce565b60a08301525060c0830151828111156123d057600080fd5b6123dc878286016120ce565b60c08301525060e0830151828111156123f457600080fd5b612400878286016120ce565b60e083015250610100808401518381111561241a57600080fd5b612426888287016120ce565b828401525050610120808401518381111561244057600080fd5b61244c888287016120ce565b828401525050610140808401518381111561246657600080fd5b612472888287016120ce565b828401525050610160808401518381111561248c57600080fd5b612498888287016120ce565b918301919091525095945050505050565b6000606082840312156124bb57600080fd5b6040516060810181811067ffffffffffffffff821117156124de576124de612a87565b60405282516124ec81612a9d565b8152602083810151908201526040928301519281019290925250919050565b6000806000806080858703121561252157600080fd5b843567ffffffffffffffff8082111561253957600080fd5b9086019060c0828903121561254d57600080fd5b6125556127ec565b61255e836120bf565b815261256c602084016120bf565b602082015261257d604084016120ab565b604082015260608301358281111561259457600080fd5b6125a08a82860161205a565b6060830152506080830135828111156125b857600080fd5b6125c48a82860161205a565b60808301525060a0830135828111156125dc57600080fd5b6125e88a828601611fb6565b60a08301525095506125ff91505060208601612102565b925061260d604086016120ee565b9396929550929360600135925050565b60008060006060848603121561263257600080fd5b61263b84612102565b9250612649602085016120ee565b9150604084013590509250925092565b60006020828403121561266b57600080fd5b81516bffffffffffffffffffffffff81168114610a5c57600080fd5b6000815180845261269f8160208601602086016129a1565b601f01601f19169290920160200192915050565b6000602080830181845280855180835260408601915060408160051b870101925083870160005b8281101561270857603f198886030184526126f6858351612687565b945092850192908501906001016126da565b5092979650505050505050565b602081526000610a5c6020830184612687565b60408152600061273b6040830185612687565b8281036020840152610d698185612687565b67ffffffffffffffff841681526060602082015260006127706060830185612687565b905063ffffffff83166040830152949350505050565b67ffffffffffffffff851681526080602082015260006127a96080830186612687565b63ffffffff949094166040830152506060015292915050565b604051610180810167ffffffffffffffff811182821017156127e6576127e6612a87565b60405290565b60405160c0810167ffffffffffffffff811182821017156127e6576127e6612a87565b604051601f8201601f1916810167ffffffffffffffff8111828210171561283857612838612a87565b604052919050565b600067ffffffffffffffff82111561285a5761285a612a87565b50601f01601f191660200190565b6000821982111561287b5761287b612a45565b500190565b600181815b808511156128bb5781600019048211156128a1576128a1612a45565b808516156128ae57918102915b93841c9390800290612885565b509250929050565b6000610a5c83836000826128d9575060016119d3565b816128e6575060006119d3565b81600181146128fc576002811461290657612922565b60019150506119d3565b60ff84111561291757612917612a45565b50506001821b6119d3565b5060208310610133831016604e8410600b8410161715612945575081810a6119d3565b61294f8383612880565b806000190482111561296357612963612a45565b029392505050565b600081600019048311821515161561298557612985612a45565b500290565b60008282101561299c5761299c612a45565b500390565b60005b838110156129bc5781810151838201526020016129a4565b838111156103ad5750506000910152565b600181811c908216806129e157607f821691505b60208210811415612a0257634e487b7160e01b600052602260045260246000fd5b50919050565b6000600019821415612a1c57612a1c612a45565b5060010190565b600082612a4057634e487b7160e01b600052601260045260246000fd5b500690565b634e487b7160e01b600052601160045260246000fd5b634e487b7160e01b600052602160045260246000fd5b634e487b7160e01b600052603260045260246000fd5b634e487b7160e01b600052604160045260246000fd5b6001600160a01b0381168114610d8357600080fdfea2646970667358221220dfdf326c4a1ea99a14eff336056ff6bd1cdf57198521508131f1fdec77b708ab64736f6c63430008070033",
  "linkReferences": {},
  "deployedLinkReferences": {}
}