{
  "_format": "hh-sol-artifact-1",
  "contractName": "CheckPayout",
  "sourceName": "contracts/CheckPayout.sol",
  "abi": [
    {
      "inputs": [
        {
          "internalType": "address",
          "name": "oracle",
          "type": "address"
        },
        {
          "internalType": "address",
          "name": "insuranceAddress",
          "type": "address"
        }
      ],
      "stateMutability": "nonpayable",
      "type": "constructor"
    },
    {
      "inputs": [],
      "name": "EmptyArgs",
      "type": "error"
    },
    {
      "inputs": [],
      "name": "EmptySecrets",
      "type": "error"
    },
    {
      "inputs": [],
      "name": "EmptySource",
      "type": "error"
    },
    {
      "inputs": [],
      "name": "NoInlineSecrets",
      "type": "error"
    },
    {
      "inputs": [],
      "name": "RequestIsAlreadyPending",
      "type": "error"
    },
    {
      "inputs": [],
      "name": "RequestIsNotPending",
      "type": "error"
    },
    {
      "inputs": [],
      "name": "SenderIsNotRegistry",
      "type": "error"
    },
    {
      "anonymous": false,
      "inputs": [
        {
          "indexed": true,
          "internalType": "bytes32",
          "name": "requestId",
          "type": "bytes32"
        },
        {
          "indexed": false,
          "internalType": "bytes",
          "name": "result",
          "type": "bytes"
        },
        {
          "indexed": false,
          "internalType": "bytes",
          "name": "err",
          "type": "bytes"
        }
      ],
      "name": "OCRResponse",
      "type": "event"
    },
    {
      "anonymous": false,
      "inputs": [
        {
          "indexed": true,
          "internalType": "address",
          "name": "from",
          "type": "address"
        },
        {
          "indexed": true,
          "internalType": "address",
          "name": "to",
          "type": "address"
        }
      ],
      "name": "OwnershipTransferRequested",
      "type": "event"
    },
    {
      "anonymous": false,
      "inputs": [
        {
          "indexed": true,
          "internalType": "address",
          "name": "from",
          "type": "address"
        },
        {
          "indexed": true,
          "internalType": "address",
          "name": "to",
          "type": "address"
        }
      ],
      "name": "OwnershipTransferred",
      "type": "event"
    },
    {
      "anonymous": false,
      "inputs": [
        {
          "indexed": true,
          "internalType": "bytes32",
          "name": "id",
          "type": "bytes32"
        }
      ],
      "name": "RequestFulfilled",
      "type": "event"
    },
    {
      "anonymous": false,
      "inputs": [
        {
          "indexed": true,
          "internalType": "bytes32",
          "name": "id",
          "type": "bytes32"
        }
      ],
      "name": "RequestSent",
      "type": "event"
    },
    {
      "inputs": [],
      "name": "acceptOwnership",
      "outputs": [],
      "stateMutability": "nonpayable",
      "type": "function"
    },
    {
      "inputs": [
        {
          "internalType": "address",
          "name": "oracleAddress",
          "type": "address"
        },
        {
          "internalType": "bytes32",
          "name": "requestId",
          "type": "bytes32"
        }
      ],
      "name": "addSimulatedRequestId",
      "outputs": [],
      "stateMutability": "nonpayable",
      "type": "function"
    },
    {
      "inputs": [
        {
          "internalType": "string",
          "name": "source",
          "type": "string"
        },
        {
          "internalType": "bytes",
          "name": "secrets",
          "type": "bytes"
        },
        {
          "internalType": "string[]",
          "name": "args",
          "type": "string[]"
        },
        {
          "internalType": "uint64",
          "name": "subscriptionId",
          "type": "uint64"
        },
        {
          "internalType": "uint32",
          "name": "gasLimit",
          "type": "uint32"
        },
        {
          "internalType": "uint256",
          "name": "policyIndex",
          "type": "uint256"
        }
      ],
      "name": "checkPolicy",
      "outputs": [
        {
          "internalType": "bytes32",
          "name": "",
          "type": "bytes32"
        }
      ],
      "stateMutability": "nonpayable",
      "type": "function"
    },
    {
      "inputs": [
        {
          "components": [
            {
              "internalType": "enum Functions.Location",
              "name": "codeLocation",
              "type": "uint8"
            },
            {
              "internalType": "enum Functions.Location",
              "name": "secretsLocation",
              "type": "uint8"
            },
            {
              "internalType": "enum Functions.CodeLanguage",
              "name": "language",
              "type": "uint8"
            },
            {
              "internalType": "string",
              "name": "source",
              "type": "string"
            },
            {
              "internalType": "bytes",
              "name": "secrets",
              "type": "bytes"
            },
            {
              "internalType": "string[]",
              "name": "args",
              "type": "string[]"
            }
          ],
          "internalType": "struct Functions.Request",
          "name": "req",
          "type": "tuple"
        },
        {
          "internalType": "uint64",
          "name": "subscriptionId",
          "type": "uint64"
        },
        {
          "internalType": "uint32",
          "name": "gasLimit",
          "type": "uint32"
        },
        {
          "internalType": "uint256",
          "name": "gasPrice",
          "type": "uint256"
        }
      ],
      "name": "estimateCost",
      "outputs": [
        {
          "internalType": "uint96",
          "name": "",
          "type": "uint96"
        }
      ],
      "stateMutability": "view",
      "type": "function"
    },
    {
      "inputs": [],
      "name": "getDONPublicKey",
      "outputs": [
        {
          "internalType": "bytes",
          "name": "",
          "type": "bytes"
        }
      ],
      "stateMutability": "view",
      "type": "function"
    },
    {
      "inputs": [
        {
          "internalType": "bytes32",
          "name": "requestId",
          "type": "bytes32"
        },
        {
          "internalType": "bytes",
          "name": "response",
          "type": "bytes"
        },
        {
          "internalType": "bytes",
          "name": "err",
          "type": "bytes"
        }
      ],
      "name": "handleOracleFulfillment",
      "outputs": [],
      "stateMutability": "nonpayable",
      "type": "function"
    },
    {
      "inputs": [],
      "name": "insuranceContract",
      "outputs": [
        {
          "internalType": "contract Insurance",
          "name": "",
          "type": "address"
        }
      ],
      "stateMutability": "view",
      "type": "function"
    },
    {
      "inputs": [],
      "name": "latestError",
      "outputs": [
        {
          "internalType": "bytes",
          "name": "",
          "type": "bytes"
        }
      ],
      "stateMutability": "view",
      "type": "function"
    },
    {
      "inputs": [],
      "name": "latestRequestId",
      "outputs": [
        {
          "internalType": "bytes32",
          "name": "",
          "type": "bytes32"
        }
      ],
      "stateMutability": "view",
      "type": "function"
    },
    {
      "inputs": [],
      "name": "latestResponse",
      "outputs": [
        {
          "internalType": "bytes",
          "name": "",
          "type": "bytes"
        }
      ],
      "stateMutability": "view",
      "type": "function"
    },
    {
      "inputs": [],
      "name": "owner",
      "outputs": [
        {
          "internalType": "address",
          "name": "",
          "type": "address"
        }
      ],
      "stateMutability": "view",
      "type": "function"
    },
    {
      "inputs": [
        {
          "internalType": "bytes32",
          "name": "",
          "type": "bytes32"
        }
      ],
      "name": "requestIdToPolicyIndex",
      "outputs": [
        {
          "internalType": "uint256",
          "name": "",
          "type": "uint256"
        }
      ],
      "stateMutability": "view",
      "type": "function"
    },
    {
      "inputs": [
        {
          "internalType": "bytes32",
          "name": "",
          "type": "bytes32"
        }
      ],
      "name": "requestIdToSender",
      "outputs": [
        {
          "internalType": "address",
          "name": "",
          "type": "address"
        }
      ],
      "stateMutability": "view",
      "type": "function"
    },
    {
      "inputs": [
        {
          "internalType": "string",
          "name": "s",
          "type": "string"
        }
      ],
      "name": "stringToUint256",
      "outputs": [
        {
          "internalType": "uint256",
          "name": "",
          "type": "uint256"
        }
      ],
      "stateMutability": "pure",
      "type": "function"
    },
    {
      "inputs": [
        {
          "internalType": "address",
          "name": "to",
          "type": "address"
        }
      ],
      "name": "transferOwnership",
      "outputs": [],
      "stateMutability": "nonpayable",
      "type": "function"
    },
    {
      "inputs": [
        {
          "internalType": "address",
          "name": "oracle",
          "type": "address"
        }
      ],
      "name": "updateOracleAddress",
      "outputs": [],
      "stateMutability": "nonpayable",
      "type": "function"
    }
  ],
  "bytecode": "0x60806040523480156200001157600080fd5b506040516200284a3803806200284a8339810160408190526200003491620001d8565b600080546001600160a01b0319166001600160a01b038416178155339081906001600160a01b038216620000af5760405162461bcd60e51b815260206004820152601860248201527f43616e6e6f7420736574206f776e657220746f207a65726f000000000000000060448201526064015b60405180910390fd5b600280546001600160a01b0319166001600160a01b0384811691909117909155811615620000e257620000e2816200010e565b5050600780546001600160a01b0319166001600160a01b03939093169290921790915550620002109050565b6001600160a01b038116331415620001695760405162461bcd60e51b815260206004820152601760248201527f43616e6e6f74207472616e7366657220746f2073656c660000000000000000006044820152606401620000a6565b600380546001600160a01b0319166001600160a01b03838116918217909255600254604051919216907fed8889f560326eb138920d842192f0eb3dd22b4f139c87a2c57538e05bae127890600090a350565b80516001600160a01b0381168114620001d357600080fd5b919050565b60008060408385031215620001ec57600080fd5b620001f783620001bb565b91506200020760208401620001bb565b90509250929050565b61262a80620002206000396000f3fe608060405234801561001057600080fd5b50600436106101005760003560e01c8063ac5d372311610097578063d4b3917511610066578063d4b3917514610219578063f2fde38b14610249578063f7023bb61461025c578063fffeb84e1461026f57600080fd5b8063ac5d3723146101d6578063bef3a2f0146101e9578063d012a5a8146101fe578063d328a91e1461021157600080fd5b80634732889d116100d35780634732889d1461018a57806379ba5097146101aa5780638da5cb5b146101b2578063a067a482146101c357600080fd5b80630ca76175146101055780631aa46f591461011a578063219c0eee1461013657806330bda99d14610177575b600080fd5b610118610113366004611cac565b610277565b005b61012360045481565b6040519081526020015b60405180910390f35b61015f610144366004611c7a565b6009602052600090815260409020546001600160a01b031681565b6040516001600160a01b03909116815260200161012d565b610118610185366004611c4e565b61031d565b610123610198366004611c7a565b60086020526000908152604090205481565b610118610333565b6002546001600160a01b031661015f565b6101236101d1366004611d6a565b6103ed565b6101236101e4366004611e5e565b61087c565b6101f16108fe565b60405161012d9190612203565b60075461015f906001600160a01b031681565b6101f161098c565b61022c610227366004612097565b610a2a565b6040516bffffffffffffffffffffffff909116815260200161012d565b610118610257366004611c14565b610ac0565b61011861026a366004611c14565b610ad4565b6101f1610afa565b60008381526001602052604090205483906001600160a01b031633146102c9576040517fa0c5ec6300000000000000000000000000000000000000000000000000000000815260040160405180910390fd5b60008181526001602052604080822080546001600160a01b03191690555182917f85e1543bf2f84fe80c6badbce3648c8539ad1df4d2b3d822938ca0538be727e691a2610317848484610b07565b50505050565b610325610e2f565b61032f8282610e8b565b5050565b6003546001600160a01b031633146103925760405162461bcd60e51b815260206004820152601660248201527f4d7573742062652070726f706f736564206f776e65720000000000000000000060448201526064015b60405180910390fd5b600280546001600160a01b0319808216339081179093556003805490911690556040516001600160a01b03909116919082907f8be0079c531659141344cd1fd0a4f28419497f9722a3daafe3b4186f6b6457e090600090a350565b6007546040516361875d8d60e01b81523360048201526024810183905260009182916001600160a01b03909116906361875d8d9060440160006040518083038186803b15801561043c57600080fd5b505afa158015610450573d6000803e3d6000fd5b505050506040513d6000823e601f3d908101601f191682016040526104789190810190611e93565b9050600061048787600c61239d565b67ffffffffffffffff81111561049f5761049f6125c9565b6040519080825280602002602001820160405280156104d257816020015b60608152602001906001900390816104bd5790505b50905060005b8781101561056a578888828181106104f2576104f26125b3565b905060200281019061050491906122b0565b8080601f016020809104026020016040519081016040528093929190818152602001838380828437600092019190915250508451859250849150811061054c5761054c6125b3565b602002602001018190525080806105629061254a565b9150506104d8565b5081518151829089908110610581576105816125b3565b6020908102919091018101919091528201518161059f89600161239d565b815181106105af576105af6125b3565b60209081029190910101526040820151816105cb89600261239d565b815181106105db576105db6125b3565b60209081029190910101526060820151816105f789600361239d565b81518110610607576106076125b3565b602090810291909101015260808201518161062389600461239d565b81518110610633576106336125b3565b602090810291909101015260a08201518161064f89600561239d565b8151811061065f5761065f6125b3565b602090810291909101015260c08201518161067b89600661239d565b8151811061068b5761068b6125b3565b602090810291909101015260e0820151816106a789600761239d565b815181106106b7576106b76125b3565b6020908102919091010152610100820151816106d489600861239d565b815181106106e4576106e46125b3565b60209081029190910101526101208201518161070189600961239d565b81518110610711576107116125b3565b60209081029190910101526101408201518161072e89600a61239d565b8151811061073e5761073e6125b3565b60200260200101819052506107836040805160c08101909152806000815260200160008152602001600081526020016060815260200160608152602001606081525090565b6107ca6000808f8f8080601f01602080910402602001604051908101604052809392919081815260200183838082843760009201919091525087959493925050610f0b9050565b8915610812576108128b8b8080601f0160208091040260200160405190810160405280939291908181526020018383808284376000920191909152508593925050610f9f9050565b871561082c5761082c610825898b6124d6565b8290610fe6565b6000610839828989611026565b600481905560008181526008602090815260408083208a90556009909152902080546001600160a01b031916331790559450505050509998505050505050505050565b60008181805b82518110156108f657600083828151811061089f5761089f6125b3565b016020015160f81c9050603081108015906108bb575060398111155b156108e3576108cb6030826124bf565b6108d684600a6124a0565b6108e0919061239d565b92505b50806108ee8161254a565b915050610882565b509392505050565b6005805461090b9061250f565b80601f01602080910402602001604051908101604052809291908181526020018280546109379061250f565b80156109845780601f1061095957610100808354040283529160200191610984565b820191906000526020600020905b81548152906001019060200180831161096757829003601f168201915b505050505081565b60008054604080517fd328a91e00000000000000000000000000000000000000000000000000000000815290516060936001600160a01b039093169263d328a91e9260048082019391829003018186803b1580156109e957600080fd5b505afa1580156109fd573d6000803e3d6000fd5b505050506040513d6000823e601f3d908101601f19168201604052610a259190810190611d19565b905090565b600080546001600160a01b031663d227d24585610a468861119a565b86866040518563ffffffff1660e01b8152600401610a679493929190612274565b60206040518083038186803b158015610a7f57600080fd5b505afa158015610a93573d6000803e3d6000fd5b505050506040513d601f19601f82011682018060405250810190610ab791906121a9565b95945050505050565b610ac8610e2f565b610ad181611466565b50565b610adc610e2f565b600080546001600160a01b0319166001600160a01b03831617905550565b6006805461090b9061250f565b8151610b1a90600590602085019061195c565b508051610b2e90600690602084019061195c565b50827f7bab0ec163b5c132c72b8146ac4d6e067e82ed58f8b131150aa71c92589115628383604051610b61929190612216565b60405180910390a260008381526008602090815260408083205460099092528083205460075491516361875d8d60e01b81523360048201526024810184905292936001600160a01b0391821693909291909116906361875d8d9060440160006040518083038186803b158015610bd657600080fd5b505afa158015610bea573d6000803e3d6000fd5b505050506040513d6000823e601f3d908101601f19168201604052610c129190810190611e93565b6007546040517fcc9de25d0000000000000000000000000000000000000000000000000000000081529192506000916001600160a01b039091169063cc9de25d90610c61908990600401612203565b60206040518083038186803b158015610c7957600080fd5b505afa158015610c8d573d6000803e3d6000fd5b505050506040513d601f19601f82011682018060405250810190610cb19190611c93565b90508015610da3576007546040517fecd831e80000000000000000000000000000000000000000000000000000000081526001600160a01b038581166004830152602482018490529091169063ecd831e890604401600060405180830381600087803b158015610d2057600080fd5b505af1158015610d34573d6000803e3d6000fd5b5050600754604051632f1635a360e21b81526001600160a01b03878116600483015260248201899052909116925063bc58d68c9150604401600060405180830381600087803b158015610d8657600080fd5b505af1158015610d9a573d6000803e3d6000fd5b50505050610e26565b6000610db383610140015161087c565b905080421115610e2457600754604051632f1635a360e21b81526001600160a01b038681166004830152602482018890529091169063bc58d68c90604401600060405180830381600087803b158015610e0b57600080fd5b505af1158015610e1f573d6000803e3d6000fd5b505050505b505b50505050505050565b6002546001600160a01b03163314610e895760405162461bcd60e51b815260206004820152601660248201527f4f6e6c792063616c6c61626c65206279206f776e6572000000000000000000006044820152606401610389565b565b60008181526001602052604090205481906001600160a01b031615610edc576040517f8b457ad200000000000000000000000000000000000000000000000000000000815260040160405180910390fd5b50600090815260016020526040902080546001600160a01b0319166001600160a01b0392909216919091179055565b8051610f43576040517f22ce3edd00000000000000000000000000000000000000000000000000000000815260040160405180910390fd5b83836001811115610f5657610f5661259d565b90816001811115610f6957610f6961259d565b90525060408401828015610f7f57610f7f61259d565b90818015610f8f57610f8f61259d565b9052506060909301929092525050565b8051610fd7576040517fe889636f00000000000000000000000000000000000000000000000000000000815260040160405180910390fd5b60016020830152608090910152565b805161101e576040517ffe936cb700000000000000000000000000000000000000000000000000000000815260040160405180910390fd5b60a090910152565b6000805481906001600160a01b03166328242b04856110448861119a565b866040518463ffffffff1660e01b81526004016110639392919061223b565b602060405180830381600087803b15801561107d57600080fd5b505af1158015611091573d6000803e3d6000fd5b505050506040513d601f19601f820116820180604052508101906110b59190611c93565b905060008054906101000a90046001600160a01b03166001600160a01b0316635ab1bd536040518163ffffffff1660e01b815260040160206040518083038186803b15801561110357600080fd5b505afa158015611117573d6000803e3d6000fd5b505050506040513d601f19601f8201168201806040525081019061113b9190611c31565b60008281526001602052604080822080546001600160a01b0319166001600160a01b039490941693909317909255905182917f1131472297a800fee664d1d89cfa8f7676ff07189ecc53f80bbb5f4969099db891a290505b9392505050565b60606111a46119e0565b80516111b290610100611511565b506111f2816040518060400160405280600c81526020017f636f64654c6f636174696f6e000000000000000000000000000000000000000081525061158b565b611211818460000151600181111561120c5761120c61259d565b6115a9565b611250816040518060400160405280600881526020017f6c616e677561676500000000000000000000000000000000000000000000000081525061158b565b61126a818460400151600081111561120c5761120c61259d565b6112a9816040518060400160405280600681526020017f736f75726365000000000000000000000000000000000000000000000000000081525061158b565b6112b781846060015161158b565b60a0830151511561135d57611301816040518060400160405280600481526020017f617267730000000000000000000000000000000000000000000000000000000081525061158b565b61130a816115e2565b60005b8360a001515181101561135357611341828560a001518381518110611334576113346125b3565b602002602001015161158b565b8061134b8161254a565b91505061130d565b5061135d81611606565b6080830151511561145e576000836020015160018111156113805761138061259d565b14156113b8576040517fa80d31f700000000000000000000000000000000000000000000000000000000815260040160405180910390fd5b6113f7816040518060400160405280600f81526020017f736563726574734c6f636174696f6e000000000000000000000000000000000081525061158b565b611411818460200151600181111561120c5761120c61259d565b611450816040518060400160405280600781526020017f736563726574730000000000000000000000000000000000000000000000000081525061158b565b61145e818460800151611624565b515192915050565b6001600160a01b0381163314156114bf5760405162461bcd60e51b815260206004820152601760248201527f43616e6e6f74207472616e7366657220746f2073656c660000000000000000006044820152606401610389565b600380546001600160a01b0319166001600160a01b03838116918217909255600254604051919216907fed8889f560326eb138920d842192f0eb3dd22b4f139c87a2c57538e05bae127890600090a350565b604080518082019091526060815260006020820152611531602083612565565b1561155957611541602083612565565b61154c9060206124bf565b611556908361239d565b91505b60208084018390526040518085526000815290818401018181101561157d57600080fd5b604052508290505b92915050565b611598826003835161162d565b81516115a4908261174e565b505050565b81516115b69060c261176f565b5061032f82826040516020016115ce91815260200190565b604051602081830303815290604052611624565b6115ed8160046117d8565b600181602001818151611600919061239d565b90525050565b6116118160076117d8565b60018160200181815161160091906124bf565b61159882600283515b60178167ffffffffffffffff16116116545782516103179060e0600585901b16831761176f565b60ff8167ffffffffffffffff161161169657825161167d906018611fe0600586901b161761176f565b5082516103179067ffffffffffffffff831660016117ef565b61ffff8167ffffffffffffffff16116116d95782516116c0906019611fe0600586901b161761176f565b5082516103179067ffffffffffffffff831660026117ef565b63ffffffff8167ffffffffffffffff161161171e57825161170590601a611fe0600586901b161761176f565b5082516103179067ffffffffffffffff831660046117ef565b825161173590601b611fe0600586901b161761176f565b5082516103179067ffffffffffffffff831660086117ef565b60408051808201909152606081526000602082015261119383838451611874565b604080518082019091526060815260006020820152825151600061179482600161239d565b9050846020015182106117b5576117b5856117b08360026124a0565b611945565b84516020838201018581535080518211156117ce578181525b5093949350505050565b81516115a490601f611fe0600585901b161761176f565b6040805180820190915260608152600060208201528351516000611813828561239d565b9050856020015181111561183057611830866117b08360026124a0565b60006001611840866101006123f8565b61184a91906124bf565b90508651828101878319825116178152508051831115611868578281525b50959695505050505050565b604080518082019091526060815260006020820152825182111561189757600080fd5b83515160006118a6848361239d565b905085602001518111156118c3576118c3866117b08360026124a0565b8551805183820160200191600091808511156118dd578482525b505050602086015b6020861061191d57805182526118fc60208361239d565b915061190960208261239d565b90506119166020876124bf565b95506118e5565b51815160001960208890036101000a0190811690199190911617905250849150509392505050565b81516119518383611511565b50610317838261174e565b8280546119689061250f565b90600052602060002090601f01602090048101928261198a57600085556119d0565b82601f106119a357805160ff19168380011785556119d0565b828001600101855582156119d0579182015b828111156119d05782518255916020019190600101906119b5565b506119dc929150611a15565b5090565b6040518060400160405280611a08604051806040016040528060608152602001600081525090565b8152602001600081525090565b5b808211156119dc5760008155600101611a16565b600067ffffffffffffffff80841115611a4557611a456125c9565b8360051b6020611a56818301612344565b868152935080840185838101891015611a6e57600080fd5b60009350835b88811015611aa957813586811115611a8a578586fd5b611a968b828b01611b54565b8452509183019190830190600101611a74565b5050505050509392505050565b6000611ac9611ac484612375565b612344565b9050828152838383011115611add57600080fd5b6111938360208301846124e3565b600082601f830112611afc57600080fd5b61119383833560208501611a2a565b60008083601f840112611b1d57600080fd5b50813567ffffffffffffffff811115611b3557600080fd5b602083019150836020828501011115611b4d57600080fd5b9250929050565b600082601f830112611b6557600080fd5b8135611b73611ac482612375565b818152846020838601011115611b8857600080fd5b816020850160208301376000918101602001919091529392505050565b803560018110611bb457600080fd5b919050565b803560028110611bb457600080fd5b600082601f830112611bd957600080fd5b61119383835160208501611ab6565b803563ffffffff81168114611bb457600080fd5b803567ffffffffffffffff81168114611bb457600080fd5b600060208284031215611c2657600080fd5b8135611193816125df565b600060208284031215611c4357600080fd5b8151611193816125df565b60008060408385031215611c6157600080fd5b8235611c6c816125df565b946020939093013593505050565b600060208284031215611c8c57600080fd5b5035919050565b600060208284031215611ca557600080fd5b5051919050565b600080600060608486031215611cc157600080fd5b83359250602084013567ffffffffffffffff80821115611ce057600080fd5b611cec87838801611b54565b93506040860135915080821115611d0257600080fd5b50611d0f86828701611b54565b9150509250925092565b600060208284031215611d2b57600080fd5b815167ffffffffffffffff811115611d4257600080fd5b8201601f81018413611d5357600080fd5b611d6284825160208401611ab6565b949350505050565b600080600080600080600080600060c08a8c031215611d8857600080fd5b893567ffffffffffffffff80821115611da057600080fd5b611dac8d838e01611b0b565b909b50995060208c0135915080821115611dc557600080fd5b611dd18d838e01611b0b565b909950975060408c0135915080821115611dea57600080fd5b818c0191508c601f830112611dfe57600080fd5b813581811115611e0d57600080fd5b8d60208260051b8501011115611e2257600080fd5b602083019750809650505050611e3a60608b01611bfc565b9250611e4860808b01611be8565b915060a08a013590509295985092959850929598565b600060208284031215611e7057600080fd5b813567ffffffffffffffff811115611e8757600080fd5b611d6284828501611b54565b600060208284031215611ea557600080fd5b815167ffffffffffffffff80821115611ebd57600080fd5b908301906101808286031215611ed257600080fd5b611eda6122f7565b825182811115611ee957600080fd5b611ef587828601611bc8565b825250602083015182811115611f0a57600080fd5b611f1687828601611bc8565b602083015250604083015182811115611f2e57600080fd5b611f3a87828601611bc8565b604083015250606083015182811115611f5257600080fd5b611f5e87828601611bc8565b606083015250608083015182811115611f7657600080fd5b611f8287828601611bc8565b60808301525060a083015182811115611f9a57600080fd5b611fa687828601611bc8565b60a08301525060c083015182811115611fbe57600080fd5b611fca87828601611bc8565b60c08301525060e083015182811115611fe257600080fd5b611fee87828601611bc8565b60e083015250610100808401518381111561200857600080fd5b61201488828701611bc8565b828401525050610120808401518381111561202e57600080fd5b61203a88828701611bc8565b828401525050610140808401518381111561205457600080fd5b61206088828701611bc8565b828401525050610160808401518381111561207a57600080fd5b61208688828701611bc8565b918301919091525095945050505050565b600080600080608085870312156120ad57600080fd5b843567ffffffffffffffff808211156120c557600080fd5b9086019060c082890312156120d957600080fd5b6120e1612321565b6120ea83611bb9565b81526120f860208401611bb9565b602082015261210960408401611ba5565b604082015260608301358281111561212057600080fd5b61212c8a828601611b54565b60608301525060808301358281111561214457600080fd5b6121508a828601611b54565b60808301525060a08301358281111561216857600080fd5b6121748a828601611aeb565b60a083015250955061218b91505060208601611bfc565b925061219960408601611be8565b9396929550929360600135925050565b6000602082840312156121bb57600080fd5b81516bffffffffffffffffffffffff8116811461119357600080fd5b600081518084526121ef8160208601602086016124e3565b601f01601f19169290920160200192915050565b60208152600061119360208301846121d7565b60408152600061222960408301856121d7565b8281036020840152610ab781856121d7565b67ffffffffffffffff8416815260606020820152600061225e60608301856121d7565b905063ffffffff83166040830152949350505050565b67ffffffffffffffff8516815260806020820152600061229760808301866121d7565b63ffffffff949094166040830152506060015292915050565b6000808335601e198436030181126122c757600080fd5b83018035915067ffffffffffffffff8211156122e257600080fd5b602001915036819003821315611b4d57600080fd5b604051610180810167ffffffffffffffff8111828210171561231b5761231b6125c9565b60405290565b60405160c0810167ffffffffffffffff8111828210171561231b5761231b6125c9565b604051601f8201601f1916810167ffffffffffffffff8111828210171561236d5761236d6125c9565b604052919050565b600067ffffffffffffffff82111561238f5761238f6125c9565b50601f01601f191660200190565b600082198211156123b0576123b0612587565b500190565b600181815b808511156123f05781600019048211156123d6576123d6612587565b808516156123e357918102915b93841c93908002906123ba565b509250929050565b6000611193838360008261240e57506001611585565b8161241b57506000611585565b8160018114612431576002811461243b57612457565b6001915050611585565b60ff84111561244c5761244c612587565b50506001821b611585565b5060208310610133831016604e8410600b841016171561247a575081810a611585565b61248483836123b5565b806000190482111561249857612498612587565b029392505050565b60008160001904831182151516156124ba576124ba612587565b500290565b6000828210156124d1576124d1612587565b500390565b6000611193368484611a2a565b60005b838110156124fe5781810151838201526020016124e6565b838111156103175750506000910152565b600181811c9082168061252357607f821691505b6020821081141561254457634e487b7160e01b600052602260045260246000fd5b50919050565b600060001982141561255e5761255e612587565b5060010190565b60008261258257634e487b7160e01b600052601260045260246000fd5b500690565b634e487b7160e01b600052601160045260246000fd5b634e487b7160e01b600052602160045260246000fd5b634e487b7160e01b600052603260045260246000fd5b634e487b7160e01b600052604160045260246000fd5b6001600160a01b0381168114610ad157600080fdfea2646970667358221220b98b6bffcbaa7735c5fc2bce1d587913816bf459f686b76a6d00f871d395eba964736f6c63430008070033",
  "linkReferences": {},
  "deployedLinkReferences": {}
}