{
  "_format": "hh-sol-artifact-1",
  "contractName": "Drought",
  "sourceName": "contracts/insurances/Drought.sol",
  "abi": [
    {
      "inputs": [],
      "name": "getType",
      "outputs": [
        {
          "internalType": "string",
          "name": "",
          "type": "string"
        }
      ],
      "stateMutability": "pure",
      "type": "function"
    }
  ],
  "bytecode": "0x608060405234801561001057600080fd5b5060fb8061001f6000396000f3fe6080604052348015600f57600080fd5b506004361060285760003560e01c806315dae03e14602d575b600080fd5b604080518082018252600781527f64726f756768740000000000000000000000000000000000000000000000000060208201529051606a91906073565b60405180910390f35b600060208083528351808285015260005b81811015609e578581018301518582016040015282016084565b8181111560af576000604083870101525b50601f01601f191692909201604001939250505056fea2646970667358221220bbc93f16b8a45765fbc3933d64554c4481a6d8f1246cbad7178cb054ca111b3c64736f6c63430008070033",
  "linkReferences": {},
  "deployedLinkReferences": {}
}