{
  "_format": "hh-sol-artifact-1",
  "contractName": "MaticUsdPriceFeed",
  "sourceName": "contracts/MaticUsdPriceFeed.sol",
  "abi": [
    {
      "inputs": [],
      "stateMutability": "nonpayable",
      "type": "constructor"
    },
    {
      "inputs": [],
      "name": "getLatestPrice",
      "outputs": [
        {
          "internalType": "int256",
          "name": "",
          "type": "int256"
        }
      ],
      "stateMutability": "view",
      "type": "function"
    }
  ],
  "bytecode": "0x608060405234801561001057600080fd5b50600080546001600160a01b03191673d0d5e3db44de05e9f294bb0a3beeaf030de24ada17905561019d806100466000396000f3fe608060405234801561001057600080fd5b506004361061002b5760003560e01c80638e15f47314610030575b600080fd5b61003861004a565b60405190815260200160405180910390f35b60008054604080517ffeaf968c0000000000000000000000000000000000000000000000000000000081529051839273ffffffffffffffffffffffffffffffffffffffff169163feaf968c9160048083019260a0929190829003018186803b1580156100b557600080fd5b505afa1580156100c9573d6000803e3d6000fd5b505050506040513d601f19601f820116820180604052508101906100ed9190610117565b509195945050505050565b805169ffffffffffffffffffff8116811461011257600080fd5b919050565b600080600080600060a0868803121561012f57600080fd5b610138866100f8565b945060208601519350604086015192506060860151915061015b608087016100f8565b9050929550929590935056fea264697066735822122048f77444fe125962969258e9adfd8fa663c381b32d8592395237b5c6aecdefb464736f6c63430008070033",
  "linkReferences": {},
  "deployedLinkReferences": {}
}